{
  "contractName": "API",
  "abi": [
    {
      "constant": true,
      "inputs": [],
      "name": "database",
      "outputs": [
        {
          "name": "",
          "type": "address"
        }
      ],
      "payable": false,
      "stateMutability": "view",
      "type": "function"
    },
    {
      "inputs": [
        {
          "name": "_database",
          "type": "address"
        }
      ],
      "payable": false,
      "stateMutability": "nonpayable",
      "type": "constructor"
    },
    {
      "payable": false,
      "stateMutability": "nonpayable",
      "type": "fallback"
    },
    {
      "constant": true,
      "inputs": [],
      "name": "MyBitFoundation",
      "outputs": [
        {
          "name": "",
          "type": "address"
        }
      ],
      "payable": false,
      "stateMutability": "view",
      "type": "function"
    },
    {
      "constant": true,
      "inputs": [],
      "name": "InstallerEscrow",
      "outputs": [
        {
          "name": "",
          "type": "address"
        }
      ],
      "payable": false,
      "stateMutability": "view",
      "type": "function"
    },
    {
      "constant": true,
      "inputs": [],
      "name": "myBitFoundationPercentage",
      "outputs": [
        {
          "name": "",
          "type": "uint256"
        }
      ],
      "payable": false,
      "stateMutability": "view",
      "type": "function"
    },
    {
      "constant": true,
      "inputs": [],
      "name": "installerPercentage",
      "outputs": [
        {
          "name": "",
          "type": "uint256"
        }
      ],
      "payable": false,
      "stateMutability": "view",
      "type": "function"
    },
    {
      "constant": true,
      "inputs": [
        {
          "name": "_contractAddress",
          "type": "address"
        }
      ],
      "name": "isPaused",
      "outputs": [
        {
          "name": "",
          "type": "bool"
        }
      ],
      "payable": false,
      "stateMutability": "view",
      "type": "function"
    },
    {
      "constant": true,
      "inputs": [],
      "name": "isDeployFinished",
      "outputs": [
        {
          "name": "",
          "type": "bool"
        }
      ],
      "payable": false,
      "stateMutability": "view",
      "type": "function"
    },
    {
      "constant": true,
      "inputs": [
        {
          "name": "_name",
          "type": "string"
        }
      ],
      "name": "contractAddress",
      "outputs": [
        {
          "name": "",
          "type": "address"
        }
      ],
      "payable": false,
      "stateMutability": "view",
      "type": "function"
    },
    {
      "constant": true,
      "inputs": [
        {
          "name": "_contractAddress",
          "type": "address"
        }
      ],
      "name": "contractExists",
      "outputs": [
        {
          "name": "",
          "type": "bool"
        }
      ],
      "payable": false,
      "stateMutability": "view",
      "type": "function"
    },
    {
      "constant": true,
      "inputs": [
        {
          "name": "_user",
          "type": "address"
        }
      ],
      "name": "userAccess",
      "outputs": [
        {
          "name": "",
          "type": "uint256"
        }
      ],
      "payable": false,
      "stateMutability": "view",
      "type": "function"
    },
    {
      "constant": true,
      "inputs": [
        {
          "name": "_user",
          "type": "address"
        }
      ],
      "name": "isOwner",
      "outputs": [
        {
          "name": "",
          "type": "bool"
        }
      ],
      "payable": false,
      "stateMutability": "view",
      "type": "function"
    },
    {
      "constant": true,
      "inputs": [
        {
          "name": "_contractAddress",
          "type": "address"
        },
        {
          "name": "_signer",
          "type": "address"
        },
        {
          "name": "_functionName",
          "type": "string"
        },
        {
          "name": "_agreedParameter",
          "type": "bytes32"
        }
      ],
      "name": "getFunctionAuthorized",
      "outputs": [
        {
          "name": "",
          "type": "bytes32"
        }
      ],
      "payable": false,
      "stateMutability": "view",
      "type": "function"
    },
    {
      "constant": true,
      "inputs": [
        {
          "name": "_functionAuthorizationHash",
          "type": "bytes32"
        }
      ],
      "name": "isFunctionAuthorized",
      "outputs": [
        {
          "name": "",
          "type": "bool"
        }
      ],
      "payable": false,
      "stateMutability": "view",
      "type": "function"
    },
    {
      "constant": true,
      "inputs": [
        {
          "name": "_assetID",
          "type": "bytes32"
        }
      ],
      "name": "assetIncome",
      "outputs": [
        {
          "name": "",
          "type": "uint256"
        }
      ],
      "payable": false,
      "stateMutability": "view",
      "type": "function"
    },
    {
      "constant": true,
      "inputs": [
        {
          "name": "_assetID",
          "type": "bytes32"
        }
      ],
      "name": "totalPaidToFunders",
      "outputs": [
        {
          "name": "",
          "type": "uint256"
        }
      ],
      "payable": false,
      "stateMutability": "view",
      "type": "function"
    },
    {
      "constant": true,
      "inputs": [
        {
          "name": "_assetID",
          "type": "bytes32"
        },
        {
          "name": "_funder",
          "type": "address"
        }
      ],
      "name": "totalPaidToFunder",
      "outputs": [
        {
          "name": "",
          "type": "uint256"
        }
      ],
      "payable": false,
      "stateMutability": "view",
      "type": "function"
    },
    {
      "constant": true,
      "inputs": [
        {
          "name": "_assetID",
          "type": "bytes32"
        },
        {
          "name": "_user",
          "type": "address"
        }
      ],
      "name": "getAmountOwed",
      "outputs": [
        {
          "name": "",
          "type": "uint256"
        }
      ],
      "payable": false,
      "stateMutability": "view",
      "type": "function"
    },
    {
      "constant": true,
      "inputs": [
        {
          "name": "_assetID",
          "type": "bytes32"
        },
        {
          "name": "_owner",
          "type": "address"
        }
      ],
      "name": "ownershipUnits",
      "outputs": [
        {
          "name": "",
          "type": "uint256"
        }
      ],
      "payable": false,
      "stateMutability": "view",
      "type": "function"
    },
    {
      "constant": true,
      "inputs": [
        {
          "name": "_assetID",
          "type": "bytes32"
        }
      ],
      "name": "amountRaised",
      "outputs": [
        {
          "name": "",
          "type": "uint256"
        }
      ],
      "payable": false,
      "stateMutability": "view",
      "type": "function"
    },
    {
      "constant": true,
      "inputs": [
        {
          "name": "_assetID",
          "type": "bytes32"
        }
      ],
      "name": "fundingStage",
      "outputs": [
        {
          "name": "",
          "type": "uint256"
        }
      ],
      "payable": false,
      "stateMutability": "view",
      "type": "function"
    },
    {
      "constant": true,
      "inputs": [
        {
          "name": "_assetID",
          "type": "bytes32"
        }
      ],
      "name": "amountToBeRaised",
      "outputs": [
        {
          "name": "",
          "type": "uint256"
        }
      ],
      "payable": false,
      "stateMutability": "view",
      "type": "function"
    },
    {
      "constant": true,
      "inputs": [
        {
          "name": "_assetID",
          "type": "bytes32"
        }
      ],
      "name": "fundingDeadline",
      "outputs": [
        {
          "name": "",
          "type": "uint256"
        }
      ],
      "payable": false,
      "stateMutability": "view",
      "type": "function"
    },
    {
      "constant": true,
      "inputs": [
        {
          "name": "_assetID",
          "type": "bytes32"
        }
      ],
      "name": "assetOperator",
      "outputs": [
        {
          "name": "",
          "type": "address"
        }
      ],
      "payable": false,
      "stateMutability": "view",
      "type": "function"
    },
    {
      "constant": true,
      "inputs": [
        {
          "name": "_assetID",
          "type": "bytes32"
        }
      ],
      "name": "operatorPercentage",
      "outputs": [
        {
          "name": "",
          "type": "uint256"
        }
      ],
      "payable": false,
      "stateMutability": "view",
      "type": "function"
    },
    {
      "constant": true,
      "inputs": [
        {
          "name": "_assetID",
          "type": "bytes32"
        }
      ],
      "name": "lockedForAsset",
      "outputs": [
        {
          "name": "",
          "type": "uint256"
        }
      ],
      "payable": false,
      "stateMutability": "view",
      "type": "function"
    },
    {
      "constant": true,
      "inputs": [
        {
          "name": "_operator",
          "type": "address"
        }
      ],
      "name": "operatorAmountEscrowed",
      "outputs": [
        {
          "name": "",
          "type": "uint256"
        }
      ],
      "payable": false,
      "stateMutability": "view",
      "type": "function"
    },
    {
      "constant": true,
      "inputs": [
        {
          "name": "_operator",
          "type": "address"
        }
      ],
      "name": "operatorAmountDeposited",
      "outputs": [
        {
          "name": "",
          "type": "uint256"
        }
      ],
      "payable": false,
      "stateMutability": "view",
      "type": "function"
    },
    {
      "constant": true,
      "inputs": [],
      "name": "ethUSDPrice",
      "outputs": [
        {
          "name": "",
          "type": "uint256"
        }
      ],
      "payable": false,
      "stateMutability": "view",
      "type": "function"
    },
    {
      "constant": true,
      "inputs": [],
      "name": "mybUSDPrice",
      "outputs": [
        {
          "name": "",
          "type": "uint256"
        }
      ],
      "payable": false,
      "stateMutability": "view",
      "type": "function"
    },
    {
      "constant": true,
      "inputs": [],
      "name": "ethUSDPriceExpiration",
      "outputs": [
        {
          "name": "",
          "type": "uint256"
        }
      ],
      "payable": false,
      "stateMutability": "view",
      "type": "function"
    },
    {
      "constant": true,
      "inputs": [],
      "name": "mybUSDPriceExpiration",
      "outputs": [
        {
          "name": "",
          "type": "uint256"
        }
      ],
      "payable": false,
      "stateMutability": "view",
      "type": "function"
    },
    {
      "constant": true,
      "inputs": [],
      "name": "ethUSDSecondsRemaining",
      "outputs": [
        {
          "name": "",
          "type": "uint256"
        }
      ],
      "payable": false,
      "stateMutability": "view",
      "type": "function"
    },
    {
      "constant": true,
      "inputs": [],
      "name": "mybUSDSecondsRemaining",
      "outputs": [
        {
          "name": "",
          "type": "uint256"
        }
      ],
      "payable": false,
      "stateMutability": "view",
      "type": "function"
    }
  ],
  "bytecode": "0x608060405234801561001057600080fd5b5060405160208061311683398101806040528101908080519060200190929190505050806000806101000a81548173ffffffffffffffffffffffffffffffffffffffff021916908373ffffffffffffffffffffffffffffffffffffffff16021790555050613093806100836000396000f3006080604052600436106101a1576000357c0100000000000000000000000000000000000000000000000000000000900463ffffffff168063104b78bd146101b35780631eb726af146101f85780631fc9840e146102a15780632a5bfc7b146102f85780632c515e65146103415780632e63046d146103865780632f54bf6e146103b15780633acf4f9f1461040c5780633b2d2eec146104715780634b799c29146104e25780634c1f536d1461051157806350bc051e1461053c5780635b14f183146105815780635f7dfd3f146105dc57806360c4eab61461062157806363ebd4ff146106785780636e18eba51461074b578063713b563f146107765780637709bc78146107cd5780637edcb649146108285780638170733d1461085357806388fcba88146108aa57806389eaa610146108ef5780639271b8df14610946578063939729c1146109ab57806396cdb027146109d65780639f7962b714610a2d578063b9b6c2d414610a58578063ca92207814610abd578063db6727c114610b02578063dc20f95714610b2d578063f32b359f14610b72578063fb4a86bc14610b9d575b3480156101ad57600080fd5b50600080fd5b3480156101bf57600080fd5b506101e26004803603810190808035600019169060200190929190505050610be2565b6040518082815260200191505060405180910390f35b34801561020457600080fd5b5061025f600480360381019080803590602001908201803590602001908080601f0160208091040260200160405190810160405280939291908181526020018383808284378201915050505050509192919290505050610d03565b604051808273ffffffffffffffffffffffffffffffffffffffff1673ffffffffffffffffffffffffffffffffffffffff16815260200191505060405180910390f35b3480156102ad57600080fd5b506102e2600480360381019080803573ffffffffffffffffffffffffffffffffffffffff169060200190929190505050610e69565b6040518082815260200191505060405180910390f35b34801561030457600080fd5b506103276004803603810190808035600019169060200190929190505050610fbd565b604051808215151515815260200191505060405180910390f35b34801561034d57600080fd5b506103706004803603810190808035600019169060200190929190505050611099565b6040518082815260200191505060405180910390f35b34801561039257600080fd5b5061039b6111ba565b6040518082815260200191505060405180910390f35b3480156103bd57600080fd5b506103f2600480360381019080803573ffffffffffffffffffffffffffffffffffffffff1690602001909291905050506112c9565b604051808215151515815260200191505060405180910390f35b34801561041857600080fd5b5061045b6004803603810190808035600019169060200190929190803573ffffffffffffffffffffffffffffffffffffffff16906020019092919050505061141d565b6040518082815260200191505060405180910390f35b34801561047d57600080fd5b506104a06004803603810190808035600019169060200190929190505050611582565b604051808273ffffffffffffffffffffffffffffffffffffffff1673ffffffffffffffffffffffffffffffffffffffff16815260200191505060405180910390f35b3480156104ee57600080fd5b506104f76116a3565b604051808215151515815260200191505060405180910390f35b34801561051d57600080fd5b506105266117b2565b6040518082815260200191505060405180910390f35b34801561054857600080fd5b5061056b60048036038101908080356000191690602001909291905050506118da565b6040518082815260200191505060405180910390f35b34801561058d57600080fd5b506105c2600480360381019080803573ffffffffffffffffffffffffffffffffffffffff1690602001909291905050506119fb565b604051808215151515815260200191505060405180910390f35b3480156105e857600080fd5b5061060b6004803603810190808035600019169060200190929190505050611b4f565b6040518082815260200191505060405180910390f35b34801561062d57600080fd5b50610662600480360381019080803573ffffffffffffffffffffffffffffffffffffffff169060200190929190505050611c70565b6040518082815260200191505060405180910390f35b34801561068457600080fd5b5061072d600480360381019080803573ffffffffffffffffffffffffffffffffffffffff169060200190929190803573ffffffffffffffffffffffffffffffffffffffff169060200190929190803590602001908201803590602001908080601f01602080910402602001604051908101604052809392919081815260200183838082843782019150505050505091929192908035600019169060200190929190505050611dc4565b60405180826000191660001916815260200191505060405180910390f35b34801561075757600080fd5b50610760611ec9565b6040518082815260200191505060405180910390f35b34801561078257600080fd5b5061078b611fd8565b604051808273ffffffffffffffffffffffffffffffffffffffff1673ffffffffffffffffffffffffffffffffffffffff16815260200191505060405180910390f35b3480156107d957600080fd5b5061080e600480360381019080803573ffffffffffffffffffffffffffffffffffffffff169060200190929190505050611ffd565b604051808215151515815260200191505060405180910390f35b34801561083457600080fd5b5061083d612151565b6040518082815260200191505060405180910390f35b34801561085f57600080fd5b50610868612279565b604051808273ffffffffffffffffffffffffffffffffffffffff1673ffffffffffffffffffffffffffffffffffffffff16815260200191505060405180910390f35b3480156108b657600080fd5b506108d96004803603810190808035600019169060200190929190505050612388565b6040518082815260200191505060405180910390f35b3480156108fb57600080fd5b50610930600480360381019080803573ffffffffffffffffffffffffffffffffffffffff1690602001909291905050506124a9565b6040518082815260200191505060405180910390f35b34801561095257600080fd5b506109956004803603810190808035600019169060200190929190803573ffffffffffffffffffffffffffffffffffffffff1690602001909291905050506125fd565b6040518082815260200191505060405180910390f35b3480156109b757600080fd5b506109c0612762565b6040518082815260200191505060405180910390f35b3480156109e257600080fd5b506109eb612871565b604051808273ffffffffffffffffffffffffffffffffffffffff1673ffffffffffffffffffffffffffffffffffffffff16815260200191505060405180910390f35b348015610a3957600080fd5b50610a42612980565b6040518082815260200191505060405180910390f35b348015610a6457600080fd5b50610aa76004803603810190808035600019169060200190929190803573ffffffffffffffffffffffffffffffffffffffff169060200190929190505050612a8f565b6040518082815260200191505060405180910390f35b348015610ac957600080fd5b50610aec6004803603810190808035600019169060200190929190505050612ae6565b6040518082815260200191505060405180910390f35b348015610b0e57600080fd5b50610b17612c07565b6040518082815260200191505060405180910390f35b348015610b3957600080fd5b50610b5c6004803603810190808035600019169060200190929190505050612d16565b6040518082815260200191505060405180910390f35b348015610b7e57600080fd5b50610b87612e37565b6040518082815260200191505060405180910390f35b348015610ba957600080fd5b50610bcc6004803603810190808035600019169060200190929190505050612f46565b6040518082815260200191505060405180910390f35b60008060009054906101000a900473ffffffffffffffffffffffffffffffffffffffff1673ffffffffffffffffffffffffffffffffffffffff1663a855d4ce8360405180807f616d6f756e745261697365640000000000000000000000000000000000000000815250600c01826000191660001916815260200191505060405180910390206040518263ffffffff167c0100000000000000000000000000000000000000000000000000000000028152600401808260001916600019168152602001915050602060405180830381600087803b158015610cc157600080fd5b505af1158015610cd5573d6000803e3d6000fd5b505050506040513d6020811015610ceb57600080fd5b81019080805190602001909291905050509050919050565b60008060009054906101000a900473ffffffffffffffffffffffffffffffffffffffff1673ffffffffffffffffffffffffffffffffffffffff166304f49a3a8360405180807f636f6e747261637400000000000000000000000000000000000000000000000081525060080182805190602001908083835b602083101515610da05780518252602082019150602081019050602083039250610d7b565b6001836020036101000a03801982511681845116808217855250505050505090500191505060405180910390206040518263ffffffff167c0100000000000000000000000000000000000000000000000000000000028152600401808260001916600019168152602001915050602060405180830381600087803b158015610e2757600080fd5b505af1158015610e3b573d6000803e3d6000fd5b505050506040513d6020811015610e5157600080fd5b81019080805190602001909291905050509050919050565b60008060009054906101000a900473ffffffffffffffffffffffffffffffffffffffff1673ffffffffffffffffffffffffffffffffffffffff1663a855d4ce8360405180807f6f70657261746f72416d6f756e74457363726f776564000000000000000000008152506016018273ffffffffffffffffffffffffffffffffffffffff1673ffffffffffffffffffffffffffffffffffffffff166c0100000000000000000000000002815260140191505060405180910390206040518263ffffffff167c0100000000000000000000000000000000000000000000000000000000028152600401808260001916600019168152602001915050602060405180830381600087803b158015610f7b57600080fd5b505af1158015610f8f573d6000803e3d6000fd5b505050506040513d6020811015610fa557600080fd5b81019080805190602001909291905050509050919050565b60008060009054906101000a900473ffffffffffffffffffffffffffffffffffffffff1673ffffffffffffffffffffffffffffffffffffffff16633b7bfda0836040518263ffffffff167c0100000000000000000000000000000000000000000000000000000000028152600401808260001916600019168152602001915050602060405180830381600087803b15801561105757600080fd5b505af115801561106b573d6000803e3d6000fd5b505050506040513d602081101561108157600080fd5b81019080805190602001909291905050509050919050565b60008060009054906101000a900473ffffffffffffffffffffffffffffffffffffffff1673ffffffffffffffffffffffffffffffffffffffff1663a855d4ce8360405180807f6f70657261746f7250657263656e746167650000000000000000000000000000815250601201826000191660001916815260200191505060405180910390206040518263ffffffff167c0100000000000000000000000000000000000000000000000000000000028152600401808260001916600019168152602001915050602060405180830381600087803b15801561117857600080fd5b505af115801561118c573d6000803e3d6000fd5b505050506040513d60208110156111a257600080fd5b81019080805190602001909291905050509050919050565b60008060009054906101000a900473ffffffffffffffffffffffffffffffffffffffff1673ffffffffffffffffffffffffffffffffffffffff1663a855d4ce60405180807f6d79625553445072696365000000000000000000000000000000000000000000815250600b01905060405180910390206040518263ffffffff167c0100000000000000000000000000000000000000000000000000000000028152600401808260001916600019168152602001915050602060405180830381600087803b15801561128957600080fd5b505af115801561129d573d6000803e3d6000fd5b505050506040513d60208110156112b357600080fd5b8101908080519060200190929190505050905090565b60008060009054906101000a900473ffffffffffffffffffffffffffffffffffffffff1673ffffffffffffffffffffffffffffffffffffffff16633b7bfda08360405180807f6f776e65720000000000000000000000000000000000000000000000000000008152506005018273ffffffffffffffffffffffffffffffffffffffff1673ffffffffffffffffffffffffffffffffffffffff166c0100000000000000000000000002815260140191505060405180910390206040518263ffffffff167c0100000000000000000000000000000000000000000000000000000000028152600401808260001916600019168152602001915050602060405180830381600087803b1580156113db57600080fd5b505af11580156113ef573d6000803e3d6000fd5b505050506040513d602081101561140557600080fd5b81019080805190602001909291905050509050919050565b60008060009054906101000a900473ffffffffffffffffffffffffffffffffffffffff1673ffffffffffffffffffffffffffffffffffffffff1663a855d4ce848460405180807f6f776e657273686970556e697473000000000000000000000000000000000000815250600e0183600019166000191681526020018273ffffffffffffffffffffffffffffffffffffffff1673ffffffffffffffffffffffffffffffffffffffff166c010000000000000000000000000281526014019250505060405180910390206040518263ffffffff167c0100000000000000000000000000000000000000000000000000000000028152600401808260001916600019168152602001915050602060405180830381600087803b15801561153f57600080fd5b505af1158015611553573d6000803e3d6000fd5b505050506040513d602081101561156957600080fd5b8101908080519060200190929190505050905092915050565b60008060009054906101000a900473ffffffffffffffffffffffffffffffffffffffff1673ffffffffffffffffffffffffffffffffffffffff166304f49a3a8360405180807f61737365744f70657261746f7200000000000000000000000000000000000000815250600d01826000191660001916815260200191505060405180910390206040518263ffffffff167c0100000000000000000000000000000000000000000000000000000000028152600401808260001916600019168152602001915050602060405180830381600087803b15801561166157600080fd5b505af1158015611675573d6000803e3d6000fd5b505050506040513d602081101561168b57600080fd5b81019080805190602001909291905050509050919050565b60008060009054906101000a900473ffffffffffffffffffffffffffffffffffffffff1673ffffffffffffffffffffffffffffffffffffffff16633b7bfda060405180807f6465706c6f7946696e6973686564000000000000000000000000000000000000815250600e01905060405180910390206040518263ffffffff167c0100000000000000000000000000000000000000000000000000000000028152600401808260001916600019168152602001915050602060405180830381600087803b15801561177257600080fd5b505af1158015611786573d6000803e3d6000fd5b505050506040513d602081101561179c57600080fd5b8101908080519060200190929190505050905090565b6000806000809054906101000a900473ffffffffffffffffffffffffffffffffffffffff1673ffffffffffffffffffffffffffffffffffffffff1663a855d4ce60405180807f657468555344507269636545787069726174696f6e0000000000000000000000815250601501905060405180910390206040518263ffffffff167c0100000000000000000000000000000000000000000000000000000000028152600401808260001916600019168152602001915050602060405180830381600087803b15801561188257600080fd5b505af1158015611896573d6000803e3d6000fd5b505050506040513d60208110156118ac57600080fd5b81019080805190602001909291905050509050804211156118d057600091506118d6565b42810391505b5090565b60008060009054906101000a900473ffffffffffffffffffffffffffffffffffffffff1673ffffffffffffffffffffffffffffffffffffffff1663a855d4ce8360405180807f6c6f636b6564466f724173736574000000000000000000000000000000000000815250600e01826000191660001916815260200191505060405180910390206040518263ffffffff167c0100000000000000000000000000000000000000000000000000000000028152600401808260001916600019168152602001915050602060405180830381600087803b1580156119b957600080fd5b505af11580156119cd573d6000803e3d6000fd5b505050506040513d60208110156119e357600080fd5b81019080805190602001909291905050509050919050565b60008060009054906101000a900473ffffffffffffffffffffffffffffffffffffffff1673ffffffffffffffffffffffffffffffffffffffff16633b7bfda08360405180807f70617573650000000000000000000000000000000000000000000000000000008152506005018273ffffffffffffffffffffffffffffffffffffffff1673ffffffffffffffffffffffffffffffffffffffff166c0100000000000000000000000002815260140191505060405180910390206040518263ffffffff167c0100000000000000000000000000000000000000000000000000000000028152600401808260001916600019168152602001915050602060405180830381600087803b158015611b0d57600080fd5b505af1158015611b21573d6000803e3d6000fd5b505050506040513d6020811015611b3757600080fd5b81019080805190602001909291905050509050919050565b60008060009054906101000a900473ffffffffffffffffffffffffffffffffffffffff1673ffffffffffffffffffffffffffffffffffffffff1663a855d4ce8360405180807f746f74616c50616964546f46756e646572730000000000000000000000000000815250601201826000191660001916815260200191505060405180910390206040518263ffffffff167c0100000000000000000000000000000000000000000000000000000000028152600401808260001916600019168152602001915050602060405180830381600087803b158015611c2e57600080fd5b505af1158015611c42573d6000803e3d6000fd5b505050506040513d6020811015611c5857600080fd5b81019080805190602001909291905050509050919050565b60008060009054906101000a900473ffffffffffffffffffffffffffffffffffffffff1673ffffffffffffffffffffffffffffffffffffffff1663a855d4ce8360405180807f6f70657261746f72416d6f756e744465706f73697465640000000000000000008152506017018273ffffffffffffffffffffffffffffffffffffffff1673ffffffffffffffffffffffffffffffffffffffff166c0100000000000000000000000002815260140191505060405180910390206040518263ffffffff167c0100000000000000000000000000000000000000000000000000000000028152600401808260001916600019168152602001915050602060405180830381600087803b158015611d8257600080fd5b505af1158015611d96573d6000803e3d6000fd5b505050506040513d6020811015611dac57600080fd5b81019080805190602001909291905050509050919050565b600084848484604051808573ffffffffffffffffffffffffffffffffffffffff1673ffffffffffffffffffffffffffffffffffffffff166c010000000000000000000000000281526014018473ffffffffffffffffffffffffffffffffffffffff1673ffffffffffffffffffffffffffffffffffffffff166c0100000000000000000000000002815260140183805190602001908083835b602083101515611e815780518252602082019150602081019050602083039250611e5c565b6001836020036101000a038019825116818451168082178552505050505050905001826000191660001916815260200194505050505060405180910390209050949350505050565b60008060009054906101000a900473ffffffffffffffffffffffffffffffffffffffff1673ffffffffffffffffffffffffffffffffffffffff1663a855d4ce60405180807f6574685553445072696365000000000000000000000000000000000000000000815250600b01905060405180910390206040518263ffffffff167c0100000000000000000000000000000000000000000000000000000000028152600401808260001916600019168152602001915050602060405180830381600087803b158015611f9857600080fd5b505af1158015611fac573d6000803e3d6000fd5b505050506040513d6020811015611fc257600080fd5b8101908080519060200190929190505050905090565b6000809054906101000a900473ffffffffffffffffffffffffffffffffffffffff1681565b60008060009054906101000a900473ffffffffffffffffffffffffffffffffffffffff1673ffffffffffffffffffffffffffffffffffffffff16633b7bfda08360405180807f636f6e74726163740000000000000000000000000000000000000000000000008152506008018273ffffffffffffffffffffffffffffffffffffffff1673ffffffffffffffffffffffffffffffffffffffff166c0100000000000000000000000002815260140191505060405180910390206040518263ffffffff167c0100000000000000000000000000000000000000000000000000000000028152600401808260001916600019168152602001915050602060405180830381600087803b15801561210f57600080fd5b505af1158015612123573d6000803e3d6000fd5b505050506040513d602081101561213957600080fd5b81019080805190602001909291905050509050919050565b6000806000809054906101000a900473ffffffffffffffffffffffffffffffffffffffff1673ffffffffffffffffffffffffffffffffffffffff1663a855d4ce60405180807f6d7962555344507269636545787069726174696f6e0000000000000000000000815250601501905060405180910390206040518263ffffffff167c0100000000000000000000000000000000000000000000000000000000028152600401808260001916600019168152602001915050602060405180830381600087803b15801561222157600080fd5b505af1158015612235573d6000803e3d6000fd5b505050506040513d602081101561224b57600080fd5b810190808051906020019092919050505090508042111561226f5760009150612275565b42810391505b5090565b60008060009054906101000a900473ffffffffffffffffffffffffffffffffffffffff1673ffffffffffffffffffffffffffffffffffffffff166304f49a3a60405180807f4d79426974466f756e646174696f6e0000000000000000000000000000000000815250600f01905060405180910390206040518263ffffffff167c0100000000000000000000000000000000000000000000000000000000028152600401808260001916600019168152602001915050602060405180830381600087803b15801561234857600080fd5b505af115801561235c573d6000803e3d6000fd5b505050506040513d602081101561237257600080fd5b8101908080519060200190929190505050905090565b60008060009054906101000a900473ffffffffffffffffffffffffffffffffffffffff1673ffffffffffffffffffffffffffffffffffffffff1663a855d4ce8360405180807f66756e64696e67446561646c696e650000000000000000000000000000000000815250600f01826000191660001916815260200191505060405180910390206040518263ffffffff167c0100000000000000000000000000000000000000000000000000000000028152600401808260001916600019168152602001915050602060405180830381600087803b15801561246757600080fd5b505af115801561247b573d6000803e3d6000fd5b505050506040513d602081101561249157600080fd5b81019080805190602001909291905050509050919050565b60008060009054906101000a900473ffffffffffffffffffffffffffffffffffffffff1673ffffffffffffffffffffffffffffffffffffffff1663a855d4ce8360405180807f7573657241636365737300000000000000000000000000000000000000000000815250600a018273ffffffffffffffffffffffffffffffffffffffff1673ffffffffffffffffffffffffffffffffffffffff166c0100000000000000000000000002815260140191505060405180910390206040518263ffffffff167c0100000000000000000000000000000000000000000000000000000000028152600401808260001916600019168152602001915050602060405180830381600087803b1580156125bb57600080fd5b505af11580156125cf573d6000803e3d6000fd5b505050506040513d60208110156125e557600080fd5b81019080805190602001909291905050509050919050565b60008060009054906101000a900473ffffffffffffffffffffffffffffffffffffffff1673ffffffffffffffffffffffffffffffffffffffff1663a855d4ce848460405180807f746f74616c50616964546f46756e64657200000000000000000000000000000081525060110183600019166000191681526020018273ffffffffffffffffffffffffffffffffffffffff1673ffffffffffffffffffffffffffffffffffffffff166c010000000000000000000000000281526014019250505060405180910390206040518263ffffffff167c0100000000000000000000000000000000000000000000000000000000028152600401808260001916600019168152602001915050602060405180830381600087803b15801561271f57600080fd5b505af1158015612733573d6000803e3d6000fd5b505050506040513d602081101561274957600080fd5b8101908080519060200190929190505050905092915050565b60008060009054906101000a900473ffffffffffffffffffffffffffffffffffffffff1673ffffffffffffffffffffffffffffffffffffffff1663a855d4ce60405180807f696e7374616c6c657250657263656e7461676500000000000000000000000000815250601301905060405180910390206040518263ffffffff167c0100000000000000000000000000000000000000000000000000000000028152600401808260001916600019168152602001915050602060405180830381600087803b15801561283157600080fd5b505af1158015612845573d6000803e3d6000fd5b505050506040513d602081101561285b57600080fd5b8101908080519060200190929190505050905090565b60008060009054906101000a900473ffffffffffffffffffffffffffffffffffffffff1673ffffffffffffffffffffffffffffffffffffffff166304f49a3a60405180807f496e7374616c6c6572457363726f770000000000000000000000000000000000815250600f01905060405180910390206040518263ffffffff167c0100000000000000000000000000000000000000000000000000000000028152600401808260001916600019168152602001915050602060405180830381600087803b15801561294057600080fd5b505af1158015612954573d6000803e3d6000fd5b505050506040513d602081101561296a57600080fd5b8101908080519060200190929190505050905090565b60008060009054906101000a900473ffffffffffffffffffffffffffffffffffffffff1673ffffffffffffffffffffffffffffffffffffffff1663a855d4ce60405180807f657468555344507269636545787069726174696f6e0000000000000000000000815250601501905060405180910390206040518263ffffffff167c0100000000000000000000000000000000000000000000000000000000028152600401808260001916600019168152602001915050602060405180830381600087803b158015612a4f57600080fd5b505af1158015612a63573d6000803e3d6000fd5b505050506040513d6020811015612a7957600080fd5b8101908080519060200190929190505050905090565b600080612a9c848461141d565b1415612aab5760009050612ae0565b612ab583836125fd565b612abe84610be2565b612ac8858561141d565b612ad186612d16565b02811515612adb57fe5b040390505b92915050565b60008060009054906101000a900473ffffffffffffffffffffffffffffffffffffffff1673ffffffffffffffffffffffffffffffffffffffff1663a855d4ce8360405180807f66756e64696e6753746167650000000000000000000000000000000000000000815250600c01826000191660001916815260200191505060405180910390206040518263ffffffff167c0100000000000000000000000000000000000000000000000000000000028152600401808260001916600019168152602001915050602060405180830381600087803b158015612bc557600080fd5b505af1158015612bd9573d6000803e3d6000fd5b505050506040513d6020811015612bef57600080fd5b81019080805190602001909291905050509050919050565b60008060009054906101000a900473ffffffffffffffffffffffffffffffffffffffff1673ffffffffffffffffffffffffffffffffffffffff1663a855d4ce60405180807f6d79426974466f756e646174696f6e50657263656e7461676500000000000000815250601901905060405180910390206040518263ffffffff167c0100000000000000000000000000000000000000000000000000000000028152600401808260001916600019168152602001915050602060405180830381600087803b158015612cd657600080fd5b505af1158015612cea573d6000803e3d6000fd5b505050506040513d6020811015612d0057600080fd5b8101908080519060200190929190505050905090565b60008060009054906101000a900473ffffffffffffffffffffffffffffffffffffffff1673ffffffffffffffffffffffffffffffffffffffff1663a855d4ce8360405180807f6173736574496e636f6d65000000000000000000000000000000000000000000815250600b01826000191660001916815260200191505060405180910390206040518263ffffffff167c0100000000000000000000000000000000000000000000000000000000028152600401808260001916600019168152602001915050602060405180830381600087803b158015612df557600080fd5b505af1158015612e09573d6000803e3d6000fd5b505050506040513d6020811015612e1f57600080fd5b81019080805190602001909291905050509050919050565b60008060009054906101000a900473ffffffffffffffffffffffffffffffffffffffff1673ffffffffffffffffffffffffffffffffffffffff1663a855d4ce60405180807f6d7962555344507269636545787069726174696f6e0000000000000000000000815250601501905060405180910390206040518263ffffffff167c0100000000000000000000000000000000000000000000000000000000028152600401808260001916600019168152602001915050602060405180830381600087803b158015612f0657600080fd5b505af1158015612f1a573d6000803e3d6000fd5b505050506040513d6020811015612f3057600080fd5b8101908080519060200190929190505050905090565b60008060009054906101000a900473ffffffffffffffffffffffffffffffffffffffff1673ffffffffffffffffffffffffffffffffffffffff1663a855d4ce8360405180807f616d6f756e74546f426552616973656400000000000000000000000000000000815250601001826000191660001916815260200191505060405180910390206040518263ffffffff167c0100000000000000000000000000000000000000000000000000000000028152600401808260001916600019168152602001915050602060405180830381600087803b15801561302557600080fd5b505af1158015613039573d6000803e3d6000fd5b505050506040513d602081101561304f57600080fd5b810190808051906020019092919050505090509190505600a165627a7a723058203c0ebf1b8e17ada3e61b8698562feea93b33c51c5938437ea0b7fa68a1a895480029",
  "source": "pragma solidity 0.4.23;\nimport './Database.sol';\n\n//-----------------------------------------------------------------------------------------------------------------------\n// Standard getters for common variables stored in Database.   \n// Function Names match variable names except for booleans are preceded by 'is'                                      \n//-----------------------------------------------------------------------------------------------------------------------\ncontract API { \n\n  Database public database; \n\n  constructor(address _database)\n  public { \n    database = Database(_database); \n  }\n\n\n  //-----------------------------------------------------------------------------------------------------------------------\n  //                                                 Initial Variables  \n  //-----------------------------------------------------------------------------------------------------------------------\n\n  function MyBitFoundation()\n  public \n  view\n  returns (address) { \n    return database.addressStorage(keccak256(\"MyBitFoundation\"));\n  }\n\n  function InstallerEscrow()\n  public \n  view\n  returns (address) { \n    return database.addressStorage(keccak256(\"InstallerEscrow\")); \n  }\n\n  function myBitFoundationPercentage()\n  public \n  view\n  returns (uint) { \n    return database.uintStorage(keccak256(\"myBitFoundationPercentage\"));\n  }\n\n  function installerPercentage()\n  public \n  view \n  returns (uint) { \n    return database.uintStorage(keccak256(\"installerPercentage\"));\n  }\n\n  //-----------------------------------------------------------------------------------------------------------------------\n  //                                               Contract State \n  //-----------------------------------------------------------------------------------------------------------------------\n  function isPaused(address _contractAddress) \n  public\n  view\n  returns (bool) { \n    return database.boolStorage(keccak256(\"pause\", _contractAddress)); \n  }\n\n\n  function isDeployFinished()\n  public \n  view \n  returns (bool) { \n    return database.boolStorage(keccak256(\"deployFinished\")); \n  }\n\n  function contractAddress(string _name)\n  public \n  view\n  returns (address) { \n    return database.addressStorage(keccak256(\"contract\", _name)); \n  }\n\n  function contractExists(address _contractAddress)\n  public \n  view \n  returns (bool) { \n    return database.boolStorage(keccak256(\"contract\", _contractAddress));\n  }\n\n  //-----------------------------------------------------------------------------------------------------------------------\n  //                                                Permissions Information \n  //-----------------------------------------------------------------------------------------------------------------------\n  function userAccess(address _user)\n  public \n  view\n  returns (uint) { \n    return database.uintStorage(keccak256(\"userAccess\", _user)); \n  }\n\n  function isOwner(address _user)\n  public \n  view\n  returns (bool) { \n    return database.boolStorage(keccak256(\"owner\", _user)); \n  }\n\n  function getFunctionAuthorized(address _contractAddress, address _signer, string _functionName, bytes32 _agreedParameter)\n  public \n  view \n  returns (bytes32) { \n    return keccak256(_contractAddress, _signer, _functionName, _agreedParameter); \n  }\n\n  function isFunctionAuthorized(bytes32 _functionAuthorizationHash)\n  public \n  view \n  returns (bool) { \n    return database.boolStorage(_functionAuthorizationHash); \n  }\n\n  //-----------------------------------------------------------------------------------------------------------------------\n  //                                                  Asset Revenue Information \n  //-----------------------------------------------------------------------------------------------------------------------\n\n  // Total amount of income earned by the asset\n  function assetIncome(bytes32 _assetID)\n  public \n  view\n  returns (uint) { \n    return database.uintStorage(keccak256(\"assetIncome\", _assetID));\n  }\n\n  // Amount of income paid to funders\n  function totalPaidToFunders(bytes32 _assetID)\n  public \n  view\n  returns (uint) { \n    return database.uintStorage(keccak256(\"totalPaidToFunders\", _assetID)); \n  }\n\n  // Amount of income already paid to the funder \n  function totalPaidToFunder(bytes32 _assetID, address _funder) \n  public \n  view\n  returns (uint) { \n    return database.uintStorage(keccak256(\"totalPaidToFunder\", _assetID, _funder));\n  }\n\n  // Returns the amount of WEI owed to asset owner  AmountOwed = (userIncome - userIncomeAlreadyPaid)\n  function getAmountOwed(bytes32 _assetID, address _user)\n  public\n  view\n  returns (uint){\n    if (ownershipUnits(_assetID, _user) == 0) { return 0; }\n    return ((assetIncome(_assetID) * ownershipUnits(_assetID, _user)) / amountRaised(_assetID)) - totalPaidToFunder(_assetID, _user);\n  }\n  \n  //-----------------------------------------------------------------------------------------------------------------------\n  //                                             Funding Information \n  //-----------------------------------------------------------------------------------------------------------------------\n  function ownershipUnits(bytes32 _assetID, address _owner)\n  public \n  view\n  returns (uint) { \n    return database.uintStorage(keccak256(\"ownershipUnits\", _assetID, _owner)); \n  }\n\n  function amountRaised(bytes32 _assetID)\n  public \n  view\n  returns (uint) { \n    return database.uintStorage(keccak256(\"amountRaised\", _assetID)); \n  }\n\n  function fundingStage(bytes32 _assetID)\n  public \n  view\n  returns (uint) { \n    return database.uintStorage(keccak256(\"fundingStage\", _assetID));\n  }\n\n  function amountToBeRaised(bytes32 _assetID)\n  public \n  view\n  returns (uint) { \n    return database.uintStorage(keccak256(\"amountToBeRaised\", _assetID)); \n  }\n\n  function fundingDeadline(bytes32 _assetID)\n  public \n  view\n  returns (uint) { \n    return database.uintStorage(keccak256(\"fundingDeadline\", _assetID)); \n  }\n\n  //-----------------------------------------------------------------------------------------------------------------------\n  // Operator Information \n  //-----------------------------------------------------------------------------------------------------------------------\n  function assetOperator(bytes32 _assetID)\n  public \n  view\n  returns (address) { \n    return database.addressStorage(keccak256(\"assetOperator\", _assetID));\n  }\n\n  function operatorPercentage(bytes32 _assetID)\n  public\n  view \n  returns (uint) { \n    return database.uintStorage(keccak256(\"operatorPercentage\", _assetID)); \n  }\n\n  function lockedForAsset(bytes32 _assetID)\n  public\n  view \n  returns (uint) { \n    return database.uintStorage(keccak256(\"lockedForAsset\", _assetID));\n  }\n\n  function operatorAmountEscrowed(address _operator)\n  public\n  view \n  returns (uint) { \n    return database.uintStorage(keccak256(\"operatorAmountEscrowed\", _operator)); \n  }\n\n  function operatorAmountDeposited(address _operator)\n  public\n  view \n  returns (uint) { \n    return database.uintStorage(keccak256(\"operatorAmountDeposited\", _operator)); \n  }\n\n\n  //-----------------------------------------------------------------------------------------------------------------------\n  //                                                 OracleHub \n  //-----------------------------------------------------------------------------------------------------------------------\n\n  function ethUSDPrice()\n  public \n  view \n  returns (uint) { \n    return database.uintStorage(keccak256(\"ethUSDPrice\")); \n  }\n\n  function mybUSDPrice()\n  public \n  view \n  returns (uint) { \n    return database.uintStorage(keccak256(\"mybUSDPrice\")); \n  }\n\n  function ethUSDPriceExpiration()\n  public \n  view \n  returns (uint) { \n    return database.uintStorage(keccak256(\"ethUSDPriceExpiration\")); \n  }\n\n  function mybUSDPriceExpiration()\n  public \n  view \n  returns (uint) { \n    return database.uintStorage(keccak256(\"mybUSDPriceExpiration\")); \n  }\n\n  function ethUSDSecondsRemaining()\n  public \n  view \n  returns (uint) { \n    uint expiration = database.uintStorage(keccak256(\"ethUSDPriceExpiration\")); \n    if (now > expiration) return 0;\n    return (expiration - now);\n  }\n\n  function mybUSDSecondsRemaining()\n  public \n  view \n  returns (uint) { \n    uint expiration = database.uintStorage(keccak256(\"mybUSDPriceExpiration\")); \n    if (now > expiration) return 0;\n    return (expiration - now);\n  }\n\nfunction ()\npublic {\n  revert();\n}\n\n\n\n\n\n}\n",
  "sourcePath": "/var/www/html/mybit/dapp/Contracts/contracts/API.sol",
  "compiler": {
    "name": "solc",
    "version": "0.4.23+commit.124ca40d.Emscripten.clang"
  },
  "schemaVersion": "2.0.0",
  "updatedAt": "2018-05-15T12:10:07.871Z"
}