{
  "contractName": "Asset",
  "abi": [
    {
      "constant": true,
      "inputs": [],
      "name": "database",
      "outputs": [
        {
          "name": "",
          "type": "address"
        }
      ],
      "payable": false,
      "stateMutability": "view",
      "type": "function"
    },
    {
      "inputs": [
        {
          "name": "_database",
          "type": "address"
        }
      ],
      "payable": false,
      "stateMutability": "nonpayable",
      "type": "constructor"
    },
    {
      "payable": false,
      "stateMutability": "nonpayable",
      "type": "fallback"
    },
    {
      "anonymous": false,
      "inputs": [
        {
          "indexed": true,
          "name": "_assetID",
          "type": "bytes32"
        },
        {
          "indexed": true,
          "name": "_from",
          "type": "address"
        },
        {
          "indexed": true,
          "name": "_to",
          "type": "address"
        },
        {
          "indexed": false,
          "name": "_amount",
          "type": "uint256"
        }
      ],
      "name": "LogownershipUnitsTraded",
      "type": "event"
    },
    {
      "anonymous": false,
      "inputs": [
        {
          "indexed": true,
          "name": "_locationSent",
          "type": "address"
        },
        {
          "indexed": true,
          "name": "_amountSent",
          "type": "uint256"
        },
        {
          "indexed": true,
          "name": "_caller",
          "type": "address"
        }
      ],
      "name": "LogDestruction",
      "type": "event"
    },
    {
      "anonymous": false,
      "inputs": [
        {
          "indexed": true,
          "name": "_sender",
          "type": "address"
        },
        {
          "indexed": true,
          "name": "_amount",
          "type": "uint256"
        },
        {
          "indexed": true,
          "name": "_assetID",
          "type": "bytes32"
        }
      ],
      "name": "LogIncomeReceived",
      "type": "event"
    },
    {
      "anonymous": false,
      "inputs": [
        {
          "indexed": true,
          "name": "_funder",
          "type": "address"
        },
        {
          "indexed": true,
          "name": "_amount",
          "type": "uint256"
        },
        {
          "indexed": true,
          "name": "_timestamp",
          "type": "uint256"
        }
      ],
      "name": "LogInvestmentPaid",
      "type": "event"
    },
    {
      "anonymous": false,
      "inputs": [
        {
          "indexed": true,
          "name": "_funder",
          "type": "address"
        },
        {
          "indexed": true,
          "name": "_withdrawalAddress",
          "type": "address"
        },
        {
          "indexed": true,
          "name": "_amount",
          "type": "uint256"
        },
        {
          "indexed": false,
          "name": "_timestamp",
          "type": "uint256"
        }
      ],
      "name": "LogInvestmentPaidToWithdrawalAddress",
      "type": "event"
    },
    {
      "anonymous": false,
      "inputs": [
        {
          "indexed": true,
          "name": "_note",
          "type": "bytes32"
        },
        {
          "indexed": true,
          "name": "_timestamp",
          "type": "uint256"
        },
        {
          "indexed": true,
          "name": "_assetID",
          "type": "bytes32"
        }
      ],
      "name": "LogAssetNote",
      "type": "event"
    },
    {
      "constant": false,
      "inputs": [
        {
          "name": "_assetID",
          "type": "bytes32"
        },
        {
          "name": "_note",
          "type": "bytes32"
        }
      ],
      "name": "receiveIncome",
      "outputs": [
        {
          "name": "",
          "type": "bool"
        }
      ],
      "payable": true,
      "stateMutability": "payable",
      "type": "function"
    },
    {
      "constant": false,
      "inputs": [
        {
          "name": "_assetID",
          "type": "bytes32"
        },
        {
          "name": "_otherWithdrawal",
          "type": "bool"
        }
      ],
      "name": "withdraw",
      "outputs": [
        {
          "name": "",
          "type": "bool"
        }
      ],
      "payable": false,
      "stateMutability": "nonpayable",
      "type": "function"
    },
    {
      "constant": true,
      "inputs": [
        {
          "name": "_assetID",
          "type": "bytes32"
        },
        {
          "name": "_user",
          "type": "address"
        }
      ],
      "name": "getAmountOwed",
      "outputs": [
        {
          "name": "",
          "type": "uint256"
        }
      ],
      "payable": false,
      "stateMutability": "view",
      "type": "function"
    },
    {
      "constant": false,
      "inputs": [
        {
          "name": "_assetID",
          "type": "bytes32"
        },
        {
          "name": "_from",
          "type": "address"
        },
        {
          "name": "_to",
          "type": "address"
        },
        {
          "name": "_amount",
          "type": "uint256"
        }
      ],
      "name": "tradeOwnershipUnits",
      "outputs": [
        {
          "name": "",
          "type": "bool"
        }
      ],
      "payable": false,
      "stateMutability": "nonpayable",
      "type": "function"
    },
    {
      "constant": false,
      "inputs": [
        {
          "name": "_functionInitiator",
          "type": "address"
        },
        {
          "name": "_holdingAddress",
          "type": "address"
        }
      ],
      "name": "destroy",
      "outputs": [],
      "payable": false,
      "stateMutability": "nonpayable",
      "type": "function"
    }
  ],
  "bytecode": "0x608060405260008060146101000a81548160ff02191690831515021790555034801561002a57600080fd5b5060405160208061327083398101806040528101908080519060200190929190505050806000806101000a81548173ffffffffffffffffffffffffffffffffffffffff021916908373ffffffffffffffffffffffffffffffffffffffff160217905550506131d38061009d6000396000f300608060405260043610610078576000357c0100000000000000000000000000000000000000000000000000000000900463ffffffff168063355ae5e51461008a57806362b40f9f1461011d578063713b563f146101805780639ac0a4f2146101d7578063b9b6c2d41461022c578063c71c6c5514610291575b34801561008457600080fd5b50600080fd5b34801561009657600080fd5b506101036004803603810190808035600019169060200190929190803573ffffffffffffffffffffffffffffffffffffffff169060200190929190803573ffffffffffffffffffffffffffffffffffffffff169060200190929190803590602001909291905050506102db565b604051808215151515815260200191505060405180910390f35b34801561012957600080fd5b5061017e600480360381019080803573ffffffffffffffffffffffffffffffffffffffff169060200190929190803573ffffffffffffffffffffffffffffffffffffffff169060200190929190505050611186565b005b34801561018c57600080fd5b5061019561165d565b604051808273ffffffffffffffffffffffffffffffffffffffff1673ffffffffffffffffffffffffffffffffffffffff16815260200191505060405180910390f35b3480156101e357600080fd5b506102126004803603810190808035600019169060200190929190803515159060200190929190505050611682565b604051808215151515815260200191505060405180910390f35b34801561023857600080fd5b5061027b6004803603810190808035600019169060200190929190803573ffffffffffffffffffffffffffffffffffffffff169060200190929190505050612532565b6040518082815260200191505060405180910390f35b6102c160048036038101908080356000191690602001909291908035600019169060200190929190505050612a7e565b604051808215151515815260200191505060405180910390f35b600080600080600080600060149054906101000a900460ff1615151561030057600080fd5b6001600060146101000a81548160ff0219169083151502179055506000809054906101000a900473ffffffffffffffffffffffffffffffffffffffff1673ffffffffffffffffffffffffffffffffffffffff16633b7bfda03060405180807f70617573650000000000000000000000000000000000000000000000000000008152506005018273ffffffffffffffffffffffffffffffffffffffff1673ffffffffffffffffffffffffffffffffffffffff166c0100000000000000000000000002815260140191505060405180910390206040518263ffffffff167c0100000000000000000000000000000000000000000000000000000000028152600401808260001916600019168152602001915050602060405180830381600087803b15801561042b57600080fd5b505af115801561043f573d6000803e3d6000fd5b505050506040513d602081101561045557600080fd5b810190808051906020019092919050505015151561047257600080fd5b6000809054906101000a900473ffffffffffffffffffffffffffffffffffffffff1673ffffffffffffffffffffffffffffffffffffffff166304f49a3a60405180807f636f6e7472616374000000000000000000000000000000000000000000000000815250600801807f417373657445786368616e676500000000000000000000000000000000000000815250600d01905060405180910390206040518263ffffffff167c0100000000000000000000000000000000000000000000000000000000028152600401808260001916600019168152602001915050602060405180830381600087803b15801561056757600080fd5b505af115801561057b573d6000803e3d6000fd5b505050506040513d602081101561059157600080fd5b810190808051906020019092919050505073ffffffffffffffffffffffffffffffffffffffff163373ffffffffffffffffffffffffffffffffffffffff161415156105db57600080fd5b60006105e78b8b612532565b1415156105f357600080fd5b6000809054906101000a900473ffffffffffffffffffffffffffffffffffffffff1673ffffffffffffffffffffffffffffffffffffffff1663a855d4ce8b8b60405180807f6f776e657273686970556e697473000000000000000000000000000000000000815250600e0183600019166000191681526020018273ffffffffffffffffffffffffffffffffffffffff1673ffffffffffffffffffffffffffffffffffffffff166c010000000000000000000000000281526014019250505060405180910390206040518263ffffffff167c0100000000000000000000000000000000000000000000000000000000028152600401808260001916600019168152602001915050602060405180830381600087803b15801561071357600080fd5b505af1158015610727573d6000803e3d6000fd5b505050506040513d602081101561073d57600080fd5b8101908080519060200190929190505050945086851015151561075f57600080fd5b6000809054906101000a900473ffffffffffffffffffffffffffffffffffffffff1673ffffffffffffffffffffffffffffffffffffffff1663a855d4ce8b8a60405180807f6f776e657273686970556e697473000000000000000000000000000000000000815250600e0183600019166000191681526020018273ffffffffffffffffffffffffffffffffffffffff1673ffffffffffffffffffffffffffffffffffffffff166c010000000000000000000000000281526014019250505060405180910390206040518263ffffffff167c0100000000000000000000000000000000000000000000000000000000028152600401808260001916600019168152602001915050602060405180830381600087803b15801561087f57600080fd5b505af1158015610893573d6000803e3d6000fd5b505050506040513d60208110156108a957600080fd5b810190808051906020019092919050505093506000809054906101000a900473ffffffffffffffffffffffffffffffffffffffff1673ffffffffffffffffffffffffffffffffffffffff1663a855d4ce8b8b60405180807f746f74616c50616964546f46756e64657200000000000000000000000000000081525060110183600019166000191681526020018273ffffffffffffffffffffffffffffffffffffffff1673ffffffffffffffffffffffffffffffffffffffff166c010000000000000000000000000281526014019250505060405180910390206040518263ffffffff167c0100000000000000000000000000000000000000000000000000000000028152600401808260001916600019168152602001915050602060405180830381600087803b1580156109dc57600080fd5b505af11580156109f0573d6000803e3d6000fd5b505050506040513d6020811015610a0657600080fd5b810190808051906020019092919050505092506000809054906101000a900473ffffffffffffffffffffffffffffffffffffffff1673ffffffffffffffffffffffffffffffffffffffff1663a855d4ce8b8a60405180807f746f74616c50616964546f46756e64657200000000000000000000000000000081525060110183600019166000191681526020018273ffffffffffffffffffffffffffffffffffffffff1673ffffffffffffffffffffffffffffffffffffffff166c010000000000000000000000000281526014019250505060405180910390206040518263ffffffff167c0100000000000000000000000000000000000000000000000000000000028152600401808260001916600019168152602001915050602060405180830381600087803b158015610b3957600080fd5b505af1158015610b4d573d6000803e3d6000fd5b505050506040513d6020811015610b6357600080fd5b81019080805190602001909291905050509150610b9b85610b8d898661311f90919063ffffffff16565b61315a90919063ffffffff16565b9050600081111515610ba957fe5b6000809054906101000a900473ffffffffffffffffffffffffffffffffffffffff1673ffffffffffffffffffffffffffffffffffffffff1663e2a4853a8b8a60405180807f746f74616c50616964546f46756e64657200000000000000000000000000000081525060110183600019166000191681526020018273ffffffffffffffffffffffffffffffffffffffff1673ffffffffffffffffffffffffffffffffffffffff166c01000000000000000000000000028152601401925050506040518091039020610c82848661317090919063ffffffff16565b6040518363ffffffff167c010000000000000000000000000000000000000000000000000000000002815260040180836000191660001916815260200182815260200192505050600060405180830381600087803b158015610ce357600080fd5b505af1158015610cf7573d6000803e3d6000fd5b505050506000809054906101000a900473ffffffffffffffffffffffffffffffffffffffff1673ffffffffffffffffffffffffffffffffffffffff1663e2a4853a8b8b60405180807f746f74616c50616964546f46756e64657200000000000000000000000000000081525060110183600019166000191681526020018273ffffffffffffffffffffffffffffffffffffffff1673ffffffffffffffffffffffffffffffffffffffff166c01000000000000000000000000028152601401925050506040518091039020610dd4848761318e90919063ffffffff16565b6040518363ffffffff167c010000000000000000000000000000000000000000000000000000000002815260040180836000191660001916815260200182815260200192505050600060405180830381600087803b158015610e3557600080fd5b505af1158015610e49573d6000803e3d6000fd5b505050506000809054906101000a900473ffffffffffffffffffffffffffffffffffffffff1673ffffffffffffffffffffffffffffffffffffffff1663e2a4853a8b8b60405180807f6f776e657273686970556e697473000000000000000000000000000000000000815250600e0183600019166000191681526020018273ffffffffffffffffffffffffffffffffffffffff1673ffffffffffffffffffffffffffffffffffffffff166c01000000000000000000000000028152601401925050506040518091039020610f268a8961318e90919063ffffffff16565b6040518363ffffffff167c010000000000000000000000000000000000000000000000000000000002815260040180836000191660001916815260200182815260200192505050600060405180830381600087803b158015610f8757600080fd5b505af1158015610f9b573d6000803e3d6000fd5b505050506000809054906101000a900473ffffffffffffffffffffffffffffffffffffffff1673ffffffffffffffffffffffffffffffffffffffff1663e2a4853a8b8a60405180807f6f776e657273686970556e697473000000000000000000000000000000000000815250600e0183600019166000191681526020018273ffffffffffffffffffffffffffffffffffffffff1673ffffffffffffffffffffffffffffffffffffffff166c010000000000000000000000000281526014019250505060405180910390206110788a8861317090919063ffffffff16565b6040518363ffffffff167c010000000000000000000000000000000000000000000000000000000002815260040180836000191660001916815260200182815260200192505050600060405180830381600087803b1580156110d957600080fd5b505af11580156110ed573d6000803e3d6000fd5b505050508773ffffffffffffffffffffffffffffffffffffffff168973ffffffffffffffffffffffffffffffffffffffff168b600019167f5032eb34bec6903b2c5e971045ff74da2b916226f7315b89f679b2eb9e16365c8a6040518082815260200191505060405180910390a46001955060008060146101000a81548160ff0219169083151502179055505050505050949350505050565b60008060009054906101000a900473ffffffffffffffffffffffffffffffffffffffff1673ffffffffffffffffffffffffffffffffffffffff16633b7bfda03360405180807f6f776e65720000000000000000000000000000000000000000000000000000008152506005018273ffffffffffffffffffffffffffffffffffffffff1673ffffffffffffffffffffffffffffffffffffffff166c0100000000000000000000000002815260140191505060405180910390206040518263ffffffff167c0100000000000000000000000000000000000000000000000000000000028152600401808260001916600019168152602001915050602060405180830381600087803b15801561129857600080fd5b505af11580156112ac573d6000803e3d6000fd5b505050506040513d60208110156112c257600080fd5b810190808051906020019092919050505015156112de57600080fd5b3373ffffffffffffffffffffffffffffffffffffffff168373ffffffffffffffffffffffffffffffffffffffff161415151561131957600080fd5b308383604051808273ffffffffffffffffffffffffffffffffffffffff1673ffffffffffffffffffffffffffffffffffffffff166c010000000000000000000000000281526014019150506040518091039020604051808473ffffffffffffffffffffffffffffffffffffffff1673ffffffffffffffffffffffffffffffffffffffff166c010000000000000000000000000281526014018373ffffffffffffffffffffffffffffffffffffffff1673ffffffffffffffffffffffffffffffffffffffff166c01000000000000000000000000028152601401807f64657374726f790000000000000000000000000000000000000000000000000081525060070182600019166000191681526020019350505050604051809103902090506000809054906101000a900473ffffffffffffffffffffffffffffffffffffffff1673ffffffffffffffffffffffffffffffffffffffff16633b7bfda0826040518263ffffffff167c0100000000000000000000000000000000000000000000000000000000028152600401808260001916600019168152602001915050602060405180830381600087803b1580156114cf57600080fd5b505af11580156114e3573d6000803e3d6000fd5b505050506040513d60208110156114f957600080fd5b8101908080519060200190929190505050151561151557600080fd5b6000809054906101000a900473ffffffffffffffffffffffffffffffffffffffff1673ffffffffffffffffffffffffffffffffffffffff1663abfdcced8260006040518363ffffffff167c01000000000000000000000000000000000000000000000000000000000281526004018083600019166000191681526020018215151515815260200192505050600060405180830381600087803b1580156115ba57600080fd5b505af11580156115ce573d6000803e3d6000fd5b505050503373ffffffffffffffffffffffffffffffffffffffff163073ffffffffffffffffffffffffffffffffffffffff16318373ffffffffffffffffffffffffffffffffffffffff167f8c7ae8776186c2e87b266886e8af282b7fdb52b47993376583987a14656a367860405160405180910390a48173ffffffffffffffffffffffffffffffffffffffff16ff5b6000809054906101000a900473ffffffffffffffffffffffffffffffffffffffff1681565b600080600080600080600080600060149054906101000a900460ff161515156116aa57600080fd5b6001600060146101000a81548160ff0219169083151502179055506000809054906101000a900473ffffffffffffffffffffffffffffffffffffffff1673ffffffffffffffffffffffffffffffffffffffff16633b7bfda03060405180807f70617573650000000000000000000000000000000000000000000000000000008152506005018273ffffffffffffffffffffffffffffffffffffffff1673ffffffffffffffffffffffffffffffffffffffff166c0100000000000000000000000002815260140191505060405180910390206040518263ffffffff167c0100000000000000000000000000000000000000000000000000000000028152600401808260001916600019168152602001915050602060405180830381600087803b1580156117d557600080fd5b505af11580156117e9573d6000803e3d6000fd5b505050506040513d60208110156117ff57600080fd5b810190808051906020019092919050505015151561181c57600080fd5b8880156119aa57600073ffffffffffffffffffffffffffffffffffffffff166000809054906101000a900473ffffffffffffffffffffffffffffffffffffffff1673ffffffffffffffffffffffffffffffffffffffff166304f49a3a3360405180807f7769746864726177616c416464726573730000000000000000000000000000008152506011018273ffffffffffffffffffffffffffffffffffffffff1673ffffffffffffffffffffffffffffffffffffffff166c0100000000000000000000000002815260140191505060405180910390206040518263ffffffff167c0100000000000000000000000000000000000000000000000000000000028152600401808260001916600019168152602001915050602060405180830381600087803b15801561194b57600080fd5b505af115801561195f573d6000803e3d6000fd5b505050506040513d602081101561197557600080fd5b810190808051906020019092919050505073ffffffffffffffffffffffffffffffffffffffff16141515156119a957600080fd5b5b6000809054906101000a900473ffffffffffffffffffffffffffffffffffffffff1673ffffffffffffffffffffffffffffffffffffffff1663a855d4ce8c3360405180807f6f776e657273686970556e697473000000000000000000000000000000000000815250600e0183600019166000191681526020018273ffffffffffffffffffffffffffffffffffffffff1673ffffffffffffffffffffffffffffffffffffffff166c010000000000000000000000000281526014019250505060405180910390206040518263ffffffff167c0100000000000000000000000000000000000000000000000000000000028152600401808260001916600019168152602001915050602060405180830381600087803b158015611aca57600080fd5b505af1158015611ade573d6000803e3d6000fd5b505050506040513d6020811015611af457600080fd5b81019080805190602001909291905050509750600088111515611b1657600080fd5b6000809054906101000a900473ffffffffffffffffffffffffffffffffffffffff1673ffffffffffffffffffffffffffffffffffffffff1663a855d4ce8c60405180807f616d6f756e745261697365640000000000000000000000000000000000000000815250600c01826000191660001916815260200191505060405180910390206040518263ffffffff167c0100000000000000000000000000000000000000000000000000000000028152600401808260001916600019168152602001915050602060405180830381600087803b158015611bf357600080fd5b505af1158015611c07573d6000803e3d6000fd5b505050506040513d6020811015611c1d57600080fd5b810190808051906020019092919050505096506000809054906101000a900473ffffffffffffffffffffffffffffffffffffffff1673ffffffffffffffffffffffffffffffffffffffff1663a855d4ce8c60405180807f746f74616c50616964546f46756e646572730000000000000000000000000000815250601201826000191660001916815260200191505060405180910390206040518263ffffffff167c0100000000000000000000000000000000000000000000000000000000028152600401808260001916600019168152602001915050602060405180830381600087803b158015611d0d57600080fd5b505af1158015611d21573d6000803e3d6000fd5b505050506040513d6020811015611d3757600080fd5b810190808051906020019092919050505095506000809054906101000a900473ffffffffffffffffffffffffffffffffffffffff1673ffffffffffffffffffffffffffffffffffffffff1663a855d4ce8c3360405180807f746f74616c50616964546f46756e64657200000000000000000000000000000081525060110183600019166000191681526020018273ffffffffffffffffffffffffffffffffffffffff1673ffffffffffffffffffffffffffffffffffffffff166c010000000000000000000000000281526014019250505060405180910390206040518263ffffffff167c0100000000000000000000000000000000000000000000000000000000028152600401808260001916600019168152602001915050602060405180830381600087803b158015611e6a57600080fd5b505af1158015611e7e573d6000803e3d6000fd5b505050506040513d6020811015611e9457600080fd5b810190808051906020019092919050505094506000809054906101000a900473ffffffffffffffffffffffffffffffffffffffff1673ffffffffffffffffffffffffffffffffffffffff1663a855d4ce8c60405180807f6173736574496e636f6d65000000000000000000000000000000000000000000815250600b01826000191660001916815260200191505060405180910390206040518263ffffffff167c0100000000000000000000000000000000000000000000000000000000028152600401808260001916600019168152602001915050602060405180830381600087803b158015611f8457600080fd5b505af1158015611f98573d6000803e3d6000fd5b505050506040513d6020811015611fae57600080fd5b81019080805190602001909291905050509350611ff885611fea89611fdc8c8961311f90919063ffffffff16565b61315a90919063ffffffff16565b61318e90919063ffffffff16565b92506000831415151561200757fe5b83861115151561201357fe5b6000809054906101000a900473ffffffffffffffffffffffffffffffffffffffff1673ffffffffffffffffffffffffffffffffffffffff1663e2a4853a8c3360405180807f746f74616c50616964546f46756e64657200000000000000000000000000000081525060110183600019166000191681526020018273ffffffffffffffffffffffffffffffffffffffff1673ffffffffffffffffffffffffffffffffffffffff166c010000000000000000000000000281526014019250505060405180910390206120ec868961317090919063ffffffff16565b6040518363ffffffff167c010000000000000000000000000000000000000000000000000000000002815260040180836000191660001916815260200182815260200192505050600060405180830381600087803b15801561214d57600080fd5b505af1158015612161573d6000803e3d6000fd5b505050506000809054906101000a900473ffffffffffffffffffffffffffffffffffffffff1673ffffffffffffffffffffffffffffffffffffffff1663e2a4853a8c60405180807f746f74616c50616964546f46756e646572730000000000000000000000000000815250601201826000191660001916815260200191505060405180910390206121fb868a61317090919063ffffffff16565b6040518363ffffffff167c010000000000000000000000000000000000000000000000000000000002815260040180836000191660001916815260200182815260200192505050600060405180830381600087803b15801561225c57600080fd5b505af1158015612270573d6000803e3d6000fd5b505050508915612479576000809054906101000a900473ffffffffffffffffffffffffffffffffffffffff1673ffffffffffffffffffffffffffffffffffffffff166304f49a3a3360405180807f7769746864726177616c416464726573730000000000000000000000000000008152506011018273ffffffffffffffffffffffffffffffffffffffff1673ffffffffffffffffffffffffffffffffffffffff166c0100000000000000000000000002815260140191505060405180910390206040518263ffffffff167c0100000000000000000000000000000000000000000000000000000000028152600401808260001916600019168152602001915050602060405180830381600087803b15801561238a57600080fd5b505af115801561239e573d6000803e3d6000fd5b505050506040513d60208110156123b457600080fd5b810190808051906020019092919050505091508173ffffffffffffffffffffffffffffffffffffffff166108fc849081150290604051600060405180830381858888f1935050505015801561240d573d6000803e3d6000fd5b50828273ffffffffffffffffffffffffffffffffffffffff163373ffffffffffffffffffffffffffffffffffffffff167f74c51ca59869ba66a67777efdc14487b6ec80584f505f8eef6cb10201a8be0da426040518082815260200191505060405180910390a4612506565b3373ffffffffffffffffffffffffffffffffffffffff166108fc849081150290604051600060405180830381858888f193505050501580156124bf573d6000803e3d6000fd5b5042833373ffffffffffffffffffffffffffffffffffffffff167f3c0ddddd1b4684650f9bef436b4e5d68bb94469cac022275d8713a52e2b16d8d60405160405180910390a45b600198505060008060146101000a81548160ff0219169083151502179055505050505050505092915050565b60008060008060008060009054906101000a900473ffffffffffffffffffffffffffffffffffffffff1673ffffffffffffffffffffffffffffffffffffffff1663a855d4ce888860405180807f6f776e657273686970556e697473000000000000000000000000000000000000815250600e0183600019166000191681526020018273ffffffffffffffffffffffffffffffffffffffff1673ffffffffffffffffffffffffffffffffffffffff166c010000000000000000000000000281526014019250505060405180910390206040518263ffffffff167c0100000000000000000000000000000000000000000000000000000000028152600401808260001916600019168152602001915050602060405180830381600087803b15801561265a57600080fd5b505af115801561266e573d6000803e3d6000fd5b505050506040513d602081101561268457600080fd5b8101908080519060200190929190505050935060008414156126a95760009450612a74565b6000809054906101000a900473ffffffffffffffffffffffffffffffffffffffff1673ffffffffffffffffffffffffffffffffffffffff1663a855d4ce8860405180807f616d6f756e745261697365640000000000000000000000000000000000000000815250600c01826000191660001916815260200191505060405180910390206040518263ffffffff167c0100000000000000000000000000000000000000000000000000000000028152600401808260001916600019168152602001915050602060405180830381600087803b15801561278657600080fd5b505af115801561279a573d6000803e3d6000fd5b505050506040513d60208110156127b057600080fd5b810190808051906020019092919050505092506000809054906101000a900473ffffffffffffffffffffffffffffffffffffffff1673ffffffffffffffffffffffffffffffffffffffff1663a855d4ce888860405180807f746f74616c50616964546f46756e64657200000000000000000000000000000081525060110183600019166000191681526020018273ffffffffffffffffffffffffffffffffffffffff1673ffffffffffffffffffffffffffffffffffffffff166c010000000000000000000000000281526014019250505060405180910390206040518263ffffffff167c0100000000000000000000000000000000000000000000000000000000028152600401808260001916600019168152602001915050602060405180830381600087803b1580156128e357600080fd5b505af11580156128f7573d6000803e3d6000fd5b505050506040513d602081101561290d57600080fd5b810190808051906020019092919050505091506000809054906101000a900473ffffffffffffffffffffffffffffffffffffffff1673ffffffffffffffffffffffffffffffffffffffff1663a855d4ce8860405180807f6173736574496e636f6d65000000000000000000000000000000000000000000815250600b01826000191660001916815260200191505060405180910390206040518263ffffffff167c0100000000000000000000000000000000000000000000000000000000028152600401808260001916600019168152602001915050602060405180830381600087803b1580156129fd57600080fd5b505af1158015612a11573d6000803e3d6000fd5b505050506040513d6020811015612a2757600080fd5b81019080805190602001909291905050509050612a7182612a6385612a55888661311f90919063ffffffff16565b61315a90919063ffffffff16565b61318e90919063ffffffff16565b94505b5050505092915050565b60008060008034111515612a9157600080fd5b846004806000809054906101000a900473ffffffffffffffffffffffffffffffffffffffff1673ffffffffffffffffffffffffffffffffffffffff1663a855d4ce8460405180807f66756e64696e6753746167650000000000000000000000000000000000000000815250600c01826000191660001916815260200191505060405180910390206040518263ffffffff167c0100000000000000000000000000000000000000000000000000000000028152600401808260001916600019168152602001915050602060405180830381600087803b158015612b7257600080fd5b505af1158015612b86573d6000803e3d6000fd5b505050506040513d6020811015612b9c57600080fd5b8101908080519060200190929190505050141515612bb957600080fd5b6000809054906101000a900473ffffffffffffffffffffffffffffffffffffffff1673ffffffffffffffffffffffffffffffffffffffff1663a855d4ce8860405180807f6173736574496e636f6d65000000000000000000000000000000000000000000815250600b01826000191660001916815260200191505060405180910390206040518263ffffffff167c0100000000000000000000000000000000000000000000000000000000028152600401808260001916600019168152602001915050602060405180830381600087803b158015612c9657600080fd5b505af1158015612caa573d6000803e3d6000fd5b505050506040513d6020811015612cc057600080fd5b81019080805190602001909291905050509350612e106064612e026000809054906101000a900473ffffffffffffffffffffffffffffffffffffffff1673ffffffffffffffffffffffffffffffffffffffff1663a855d4ce8b60405180807f6f70657261746f7250657263656e746167650000000000000000000000000000815250601201826000191660001916815260200191505060405180910390206040518263ffffffff167c0100000000000000000000000000000000000000000000000000000000028152600401808260001916600019168152602001915050602060405180830381600087803b158015612db857600080fd5b505af1158015612dcc573d6000803e3d6000fd5b505050506040513d6020811015612de257600080fd5b81019080805190602001909291905050503461311f90919063ffffffff16565b61315a90919063ffffffff16565b92506000809054906101000a900473ffffffffffffffffffffffffffffffffffffffff1673ffffffffffffffffffffffffffffffffffffffff166304f49a3a8860405180807f61737365744f70657261746f7200000000000000000000000000000000000000815250600d01826000191660001916815260200191505060405180910390206040518263ffffffff167c0100000000000000000000000000000000000000000000000000000000028152600401808260001916600019168152602001915050602060405180830381600087803b158015612eef57600080fd5b505af1158015612f03573d6000803e3d6000fd5b505050506040513d6020811015612f1957600080fd5b810190808051906020019092919050505073ffffffffffffffffffffffffffffffffffffffff166108fc849081150290604051600060405180830381858888f19350505050158015612f6f573d6000803e3d6000fd5b506000809054906101000a900473ffffffffffffffffffffffffffffffffffffffff1673ffffffffffffffffffffffffffffffffffffffff1663e2a4853a8860405180807f6173736574496e636f6d65000000000000000000000000000000000000000000815250600b0182600019166000191681526020019150506040518091039020613018613009873461318e90919063ffffffff16565b8861317090919063ffffffff16565b6040518363ffffffff167c010000000000000000000000000000000000000000000000000000000002815260040180836000191660001916815260200182815260200192505050600060405180830381600087803b15801561307957600080fd5b505af115801561308d573d6000803e3d6000fd5b505050508660001916343373ffffffffffffffffffffffffffffffffffffffff167f8f692ece83f39cf89ab56bd9856d9401a067d2fbcc5ea49e16bd63c3ea74e47860405160405180910390a486600019164287600019167ff4062ef47fdb5d957854866146d3d7ed1665056c2bd59a7d05c4df8279a877a860405160405180910390a4600194505050505092915050565b60008060008414156131345760009150613153565b828402905082848281151561314557fe5b0414151561314f57fe5b8091505b5092915050565b6000818381151561316757fe5b04905092915050565b600080828401905083811015151561318457fe5b8091505092915050565b600082821115151561319c57fe5b8183039050929150505600a165627a7a72305820d897486e22d4bd6936efe064fcaea08f261db1e3bcb57877a41a18f0775a36ae0029",
  "source": "pragma solidity 0.4.23;\nimport './SafeMath.sol';\nimport './Database.sol';\n\n//------------------------------------------------------------------------------------------------------------------\n// Asset contract manages all payments, withdrawls and trading of ownershipUnits for live assets\n// All information about assets are stored in Database.sol. \n//------------------------------------------------------------------------------------------------------------------\ncontract Asset {\nusing SafeMath for *;\n\n  Database public database;\n\n  bool private rentrancy_lock = false;    // Prevents re-entrancy attack\n\n\n  //------------------------------------------------------------------------------------------------------------------\n  // Constructor\n  // @Param: Address of the database contract\n  //------------------------------------------------------------------------------------------------------------------\n  constructor(address _database)\n  public {\n    database = Database(_database);\n  }\n\n  //------------------------------------------------------------------------------------------------------------------\n  // Revenue produced by the asset will be sent here\n  // Invariants: Requires Eth is sent with transaction | Asset must be \"live\" (stage 4)\n  // @Param: The ID of the asset to send to\n  // @Param: A note that can be left by the payee\n  //------------------------------------------------------------------------------------------------------------------\n  function receiveIncome(bytes32 _assetID, bytes32 _note)\n  external\n  payable\n  requiresEther\n  atStage(_assetID, 4)\n  returns (bool)  {\n    uint assetIncome = database.uintStorage(keccak256(\"assetIncome\", _assetID));\n    uint managerAmount = msg.value.mul(database.uintStorage(keccak256(\"operatorPercentage\", _assetID))).div(100);\n    database.addressStorage(keccak256(\"assetOperator\", _assetID)).transfer(managerAmount);\n    database.setUint(keccak256(\"assetIncome\", _assetID), assetIncome.add(msg.value.sub(managerAmount)));\n    emit LogIncomeReceived(msg.sender, msg.value, _assetID);\n    emit LogAssetNote(_note, block.timestamp, _assetID);\n    return true;\n  }\n\n  //------------------------------------------------------------------------------------------------------------------\n  // Asset funders can receive their share of the income here\n  // Invariants: Asset must be live. Sender must have ownershipUnits in the asset. There must be income earned.\n  // @Param: The assetID this funder is trying to withdraw from\n  // @Param: Boolean, whether or not the user wants the withdraw to go to an external address\n  //------------------------------------------------------------------------------------------------------------------\n  function withdraw(bytes32 _assetID, bool _otherWithdrawal)\n  external\n  nonReentrant\n  whenNotPaused\n  mustHaveAddressSet(_otherWithdrawal)\n  returns (bool){\n    uint ownershipUnits = database.uintStorage(keccak256(\"ownershipUnits\", _assetID, msg.sender));\n    require (ownershipUnits > 0);\n    uint amountRaised = database.uintStorage(keccak256(\"amountRaised\", _assetID));\n    uint totalPaidToFunders = database.uintStorage(keccak256(\"totalPaidToFunders\", _assetID));\n    uint totalPaidToFunder = database.uintStorage(keccak256(\"totalPaidToFunder\", _assetID, msg.sender));\n    uint assetIncome = database.uintStorage(keccak256(\"assetIncome\", _assetID));\n    uint payment = (assetIncome.mul(ownershipUnits).div(amountRaised)).sub(totalPaidToFunder);\n    assert (payment != 0);\n    assert (totalPaidToFunders <= assetIncome);    // Don't let amount paid to funders exceed amount received\n    database.setUint(keccak256(\"totalPaidToFunder\", _assetID, msg.sender), totalPaidToFunder.add(payment));\n    database.setUint(keccak256(\"totalPaidToFunders\", _assetID), totalPaidToFunders.add(payment));\n    if(_otherWithdrawal){\n      address withdrawalAddress = database.addressStorage(keccak256(\"withdrawalAddress\", msg.sender));\n      withdrawalAddress.transfer(payment);\n      emit LogInvestmentPaidToWithdrawalAddress(msg.sender, withdrawalAddress, payment, block.timestamp);\n    }\n    else{\n      msg.sender.transfer(payment);\n      emit LogInvestmentPaid(msg.sender, payment, block.timestamp);\n    }\n    return true;\n  }\n\n  //------------------------------------------------------------------------------------------------------------------\n  // Returns the amount of WEI owed to the asset owner\n  // @Param: The ID of the asset\n  // @Param: The address of the asset owner\n  //------------------------------------------------------------------------------------------------------------------\n  function getAmountOwed(bytes32 _assetID, address _user)\n  public\n  view\n  returns (uint){\n    uint ownershipUnits = database.uintStorage(keccak256(\"ownershipUnits\", _assetID, _user));\n    if (ownershipUnits == 0) { return 0; }\n    uint amountRaised = database.uintStorage(keccak256(\"amountRaised\", _assetID));\n    uint totalPaidToFunder = database.uintStorage(keccak256(\"totalPaidToFunder\", _assetID, _user));\n    uint assetIncome = database.uintStorage(keccak256(\"assetIncome\", _assetID));\n    return assetIncome.mul(ownershipUnits).div(amountRaised).sub(totalPaidToFunder);\n  }\n\n  //------------------------------------------------------------------------------------------------------------------\n  // Trades ownershipUnits of an asset to other user.Must trade over relative amount of paidToFunder, \n  // So person buying ownershipUnits will also be recognized as being paid out for those ownershipUnits in the past\n  // Invariants: Can only be called by current marketplace contract. User must have enough ownershipUnits to make trade.\n  // @Param address selling ownershipUnits\n  // @Param address buying ownershipUnits\n  // @Param number of ownershipUnits being traded\n  //------------------------------------------------------------------------------------------------------------------\n  function tradeOwnershipUnits(bytes32 _assetID, address _from, address _to, uint _amount)\n  external\n  nonReentrant\n  whenNotPaused\n  returns (bool) {\n    require(msg.sender == database.addressStorage(keccak256(\"contract\", \"AssetExchange\")));\n    require(getAmountOwed(_assetID, _from) == 0);\n    uint ownershipUnitsFrom = database.uintStorage(keccak256(\"ownershipUnits\", _assetID, _from));\n    require(ownershipUnitsFrom >= _amount);\n    uint ownershipUnitsTo = database.uintStorage(keccak256(\"ownershipUnits\", _assetID, _to));\n    uint paidToFunderFrom = database.uintStorage(keccak256(\"totalPaidToFunder\", _assetID, _from));\n    uint paidToFunderTo = database.uintStorage(keccak256(\"totalPaidToFunder\", _assetID, _to));\n    uint relativePaidOutAmount = (paidToFunderFrom.mul(_amount)).div(ownershipUnitsFrom);    // TODO: Can round down, letting user withdraw 1 wei \n    assert(relativePaidOutAmount > 0); \n    database.setUint(keccak256(\"totalPaidToFunder\", _assetID, _to), paidToFunderTo.add(relativePaidOutAmount));\n    database.setUint(keccak256(\"totalPaidToFunder\", _assetID, _from), paidToFunderFrom.sub(relativePaidOutAmount));\n    database.setUint(keccak256(\"ownershipUnits\", _assetID, _from), ownershipUnitsFrom.sub(_amount));\n    database.setUint(keccak256(\"ownershipUnits\", _assetID, _to), ownershipUnitsTo.add(_amount));\n    emit LogownershipUnitsTraded(_assetID, _from, _to, _amount);\n    return true;\n  }\n\n  //------------------------------------------------------------------------------------------------------------------\n  // Must be authorized by 1 of the 3 owners and then can be called by any of the other 2\n  // @Param: The address of the owner who authorized this function to be called in\n  // Invariants: Must be 1 of 3 owners. Cannot be called by same owner who authorized the function to be called.\n  //------------------------------------------------------------------------------------------------------------------\n  function destroy(address _functionInitiator, address _holdingAddress)\n  anyOwner\n  public {\n    require(_functionInitiator != msg.sender);\n    bytes32 functionHash = keccak256(this, _functionInitiator, \"destroy\", keccak256(_holdingAddress));\n    require(database.boolStorage(functionHash));\n    database.setBool(functionHash, false);\n    emit LogDestruction(_holdingAddress, this.balance, msg.sender);\n    selfdestruct(_holdingAddress);\n  }\n\n  //------------------------------------------------------------------------------------------------------------------\n  //                                            Modifiers\n  //------------------------------------------------------------------------------------------------------------------\n\n\n  //------------------------------------------------------------------------------------------------------------------\n  // Prevents contracts from re-entering function before the transaction finishes \n  //------------------------------------------------------------------------------------------------------------------\n  modifier nonReentrant() {\n    require(!rentrancy_lock);\n    rentrancy_lock = true;\n    _;\n    rentrancy_lock = false;\n  }\n\n  //------------------------------------------------------------------------------------------------------------------\n  // Checks that the asset is at the proper funding stage\n  //------------------------------------------------------------------------------------------------------------------\n  modifier atStage(bytes32 _assetID, uint _stage) {\n    require(database.uintStorage(keccak256(\"fundingStage\", _assetID)) == _stage);\n    _;\n  }\n\n  //------------------------------------------------------------------------------------------------------------------\n  // Checks that the user has reached a high enough access level\n  //------------------------------------------------------------------------------------------------------------------\n  modifier onlyApproved(uint8 _accessLevel) {\n    require(database.uintStorage(keccak256(\"userAccess\", msg.sender)) >= _accessLevel);\n    _;\n  }\n\n  //------------------------------------------------------------------------------------------------------------------\n  // Makes sure function won't run when contract has been paused \n  //------------------------------------------------------------------------------------------------------------------\n  modifier whenNotPaused {\n    require(!database.boolStorage(keccak256(\"pause\", this)));\n    _;\n  }\n\n  //------------------------------------------------------------------------------------------------------------------\n  // Throw if Ether hasn't been sent\n  //------------------------------------------------------------------------------------------------------------------\n  modifier requiresEther() {\n    require(msg.value > 0);\n    _;\n  }\n\n  //------------------------------------------------------------------------------------------------------------------\n  // Verify that the user has an alternative withdraw address set in the case that they want to withdraw to that address\n  //------------------------------------------------------------------------------------------------------------------\n  modifier mustHaveAddressSet(bool _param) {\n    if(_param){\n      require(database.addressStorage(keccak256(\"withdrawalAddress\", msg.sender)) != address(0));\n    }\n    _;\n  }\n\n  //------------------------------------------------------------------------------------------------------------------\n  // Verify that the sender is a registered owner\n  //------------------------------------------------------------------------------------------------------------------\n  modifier anyOwner {\n    require(database.boolStorage(keccak256(\"owner\", msg.sender)));\n    _;\n  }\n\n  //------------------------------------------------------------------------------------------------------------------\n  // Fallback\n  //------------------------------------------------------------------------------------------------------------------\n  function () \n  public {\n    revert();\n  }\n\n  //------------------------------------------------------------------------------------------------------------------\n  //------------------------------------------------------------------------------------------------------------------\n  //                                     Events \n  //------------------------------------------------------------------------------------------------------------------\n  //------------------------------------------------------------------------------------------------------------------\n\n  event LogownershipUnitsTraded(bytes32 indexed _assetID, address indexed _from, address indexed _to, uint _amount);\n  event LogDestruction(address indexed _locationSent, uint indexed _amountSent, address indexed _caller);\n  event LogIncomeReceived(address indexed _sender, uint indexed _amount, bytes32 indexed _assetID);\n  event LogInvestmentPaid(address indexed _funder, uint indexed _amount, uint indexed _timestamp);\n  event LogInvestmentPaidToWithdrawalAddress(address indexed _funder, address indexed _withdrawalAddress, uint indexed _amount, uint _timestamp);\n  event LogAssetNote(bytes32 indexed _note, uint indexed _timestamp, bytes32 indexed _assetID);\n}\n",
  "sourcePath": "/var/www/html/mybit/dapp/Contracts/contracts/Asset.sol",
  "compiler": {
    "name": "solc",
    "version": "0.4.23+commit.124ca40d.Emscripten.clang"
  },
  "schemaVersion": "2.0.0",
  "updatedAt": "2018-05-15T12:10:07.875Z"
}