{
  "contractName": "AssetExchange",
  "abi": [
    {
      "constant": true,
      "inputs": [],
      "name": "reentrancyLock",
      "outputs": [
        {
          "name": "",
          "type": "bool"
        }
      ],
      "payable": false,
      "stateMutability": "view",
      "type": "function"
    },
    {
      "constant": true,
      "inputs": [],
      "name": "database",
      "outputs": [
        {
          "name": "",
          "type": "address"
        }
      ],
      "payable": false,
      "stateMutability": "view",
      "type": "function"
    },
    {
      "constant": true,
      "inputs": [
        {
          "name": "",
          "type": "address"
        },
        {
          "name": "",
          "type": "bytes32"
        }
      ],
      "name": "orders",
      "outputs": [
        {
          "name": "",
          "type": "bool"
        }
      ],
      "payable": false,
      "stateMutability": "view",
      "type": "function"
    },
    {
      "constant": true,
      "inputs": [
        {
          "name": "",
          "type": "address"
        }
      ],
      "name": "weiOwed",
      "outputs": [
        {
          "name": "",
          "type": "uint256"
        }
      ],
      "payable": false,
      "stateMutability": "view",
      "type": "function"
    },
    {
      "constant": true,
      "inputs": [
        {
          "name": "",
          "type": "address"
        }
      ],
      "name": "weiDeposited",
      "outputs": [
        {
          "name": "",
          "type": "uint256"
        }
      ],
      "payable": false,
      "stateMutability": "view",
      "type": "function"
    },
    {
      "inputs": [
        {
          "name": "_database",
          "type": "address"
        }
      ],
      "payable": false,
      "stateMutability": "nonpayable",
      "type": "constructor"
    },
    {
      "payable": false,
      "stateMutability": "nonpayable",
      "type": "fallback"
    },
    {
      "anonymous": false,
      "inputs": [
        {
          "indexed": true,
          "name": "_locationSent",
          "type": "address"
        },
        {
          "indexed": true,
          "name": "_amountSent",
          "type": "uint256"
        },
        {
          "indexed": true,
          "name": "_caller",
          "type": "address"
        }
      ],
      "name": "LogDestruction",
      "type": "event"
    },
    {
      "anonymous": false,
      "inputs": [
        {
          "indexed": true,
          "name": "_orderID",
          "type": "bytes32"
        },
        {
          "indexed": true,
          "name": "_assetID",
          "type": "bytes32"
        },
        {
          "indexed": true,
          "name": "_creator",
          "type": "address"
        }
      ],
      "name": "LogBuyOrderCreated",
      "type": "event"
    },
    {
      "anonymous": false,
      "inputs": [
        {
          "indexed": true,
          "name": "_orderID",
          "type": "bytes32"
        },
        {
          "indexed": true,
          "name": "_assetAddress",
          "type": "bytes32"
        },
        {
          "indexed": true,
          "name": "_purchaser",
          "type": "address"
        }
      ],
      "name": "LogBuyOrderCompleted",
      "type": "event"
    },
    {
      "anonymous": false,
      "inputs": [
        {
          "indexed": true,
          "name": "_orderID",
          "type": "bytes32"
        },
        {
          "indexed": true,
          "name": "_assetAddress",
          "type": "bytes32"
        },
        {
          "indexed": true,
          "name": "_creator",
          "type": "address"
        }
      ],
      "name": "LogSellOrderCreated",
      "type": "event"
    },
    {
      "anonymous": false,
      "inputs": [
        {
          "indexed": true,
          "name": "_orderID",
          "type": "bytes32"
        },
        {
          "indexed": true,
          "name": "_assetAddress",
          "type": "bytes32"
        },
        {
          "indexed": true,
          "name": "_purchaser",
          "type": "address"
        }
      ],
      "name": "LogSellOrderCompleted",
      "type": "event"
    },
    {
      "anonymous": false,
      "inputs": [
        {
          "indexed": false,
          "name": "_orderID",
          "type": "bytes32"
        },
        {
          "indexed": true,
          "name": "_amount",
          "type": "uint256"
        },
        {
          "indexed": true,
          "name": "_price",
          "type": "uint256"
        }
      ],
      "name": "LogBuyOrderDetails",
      "type": "event"
    },
    {
      "anonymous": false,
      "inputs": [
        {
          "indexed": false,
          "name": "orderID",
          "type": "bytes32"
        },
        {
          "indexed": true,
          "name": "_amount",
          "type": "uint256"
        },
        {
          "indexed": true,
          "name": "_price",
          "type": "uint256"
        }
      ],
      "name": "LogSellOrderDetails",
      "type": "event"
    },
    {
      "constant": false,
      "inputs": [
        {
          "name": "_assetID",
          "type": "bytes32"
        },
        {
          "name": "_seller",
          "type": "address"
        },
        {
          "name": "_amount",
          "type": "uint256"
        },
        {
          "name": "_price",
          "type": "uint256"
        }
      ],
      "name": "buyAsset",
      "outputs": [
        {
          "name": "",
          "type": "bool"
        }
      ],
      "payable": true,
      "stateMutability": "payable",
      "type": "function"
    },
    {
      "constant": false,
      "inputs": [
        {
          "name": "_assetID",
          "type": "bytes32"
        },
        {
          "name": "_buyer",
          "type": "address"
        },
        {
          "name": "_amount",
          "type": "uint256"
        },
        {
          "name": "_price",
          "type": "uint256"
        }
      ],
      "name": "sellAsset",
      "outputs": [
        {
          "name": "",
          "type": "bool"
        }
      ],
      "payable": false,
      "stateMutability": "nonpayable",
      "type": "function"
    },
    {
      "constant": false,
      "inputs": [
        {
          "name": "_assetID",
          "type": "bytes32"
        },
        {
          "name": "_amount",
          "type": "uint256"
        },
        {
          "name": "_price",
          "type": "uint256"
        }
      ],
      "name": "createBuyOrder",
      "outputs": [
        {
          "name": "",
          "type": "bool"
        }
      ],
      "payable": true,
      "stateMutability": "payable",
      "type": "function"
    },
    {
      "constant": false,
      "inputs": [
        {
          "name": "_assetID",
          "type": "bytes32"
        },
        {
          "name": "_amount",
          "type": "uint256"
        },
        {
          "name": "_price",
          "type": "uint256"
        }
      ],
      "name": "createSellOrder",
      "outputs": [
        {
          "name": "",
          "type": "bool"
        }
      ],
      "payable": false,
      "stateMutability": "nonpayable",
      "type": "function"
    },
    {
      "constant": false,
      "inputs": [
        {
          "name": "_assetID",
          "type": "bytes32"
        },
        {
          "name": "_amount",
          "type": "uint256"
        },
        {
          "name": "_price",
          "type": "uint256"
        },
        {
          "name": "_buyOrder",
          "type": "bool"
        }
      ],
      "name": "deleteOrder",
      "outputs": [
        {
          "name": "",
          "type": "bool"
        }
      ],
      "payable": false,
      "stateMutability": "nonpayable",
      "type": "function"
    },
    {
      "constant": false,
      "inputs": [],
      "name": "withdraw",
      "outputs": [
        {
          "name": "",
          "type": "bool"
        }
      ],
      "payable": false,
      "stateMutability": "nonpayable",
      "type": "function"
    },
    {
      "constant": false,
      "inputs": [
        {
          "name": "_functionInitiator",
          "type": "address"
        },
        {
          "name": "_holdingAddress",
          "type": "address"
        }
      ],
      "name": "destroy",
      "outputs": [],
      "payable": false,
      "stateMutability": "nonpayable",
      "type": "function"
    }
  ],
  "bytecode": "0x60806040526000600460006101000a81548160ff02191690831515021790555034801561002b57600080fd5b50604051602080612fd583398101806040528101908080519060200190929190505050806000806101000a81548173ffffffffffffffffffffffffffffffffffffffff021916908373ffffffffffffffffffffffffffffffffffffffff16021790555050612f378061009e6000396000f3006080604052600436106100ba576000357c0100000000000000000000000000000000000000000000000000000000900463ffffffff1680632446d79f146100cc5780632ec008e3146100fb5780633ccfd60b1461016457806362b40f9f14610193578063713b563f146101f6578063a4bc92cd1461024d578063bb5f4629146102aa578063e6047d4714610313578063f08fa7b01461036a578063f5e20d6f146103da578063f9fe24971461042a578063fe6dcca3146104a7575b3480156100c657600080fd5b50600080fd5b3480156100d857600080fd5b506100e16104fe565b604051808215151515815260200191505060405180910390f35b34801561010757600080fd5b5061014a60048036038101908080356000191690602001909291908035906020019092919080359060200190929190803515159060200190929190505050610511565b604051808215151515815260200191505060405180910390f35b34801561017057600080fd5b5061017961098f565b604051808215151515815260200191505060405180910390f35b34801561019f57600080fd5b506101f4600480360381019080803573ffffffffffffffffffffffffffffffffffffffff169060200190929190803573ffffffffffffffffffffffffffffffffffffffff169060200190929190505050610d6a565b005b34801561020257600080fd5b5061020b61117f565b604051808273ffffffffffffffffffffffffffffffffffffffff1673ffffffffffffffffffffffffffffffffffffffff16815260200191505060405180910390f35b34801561025957600080fd5b50610290600480360381019080803560001916906020019092919080359060200190929190803590602001909291905050506111a4565b604051808215151515815260200191505060405180910390f35b3480156102b657600080fd5b506102f9600480360381019080803573ffffffffffffffffffffffffffffffffffffffff16906020019092919080356000191690602001909291905050506117d3565b604051808215151515815260200191505060405180910390f35b34801561031f57600080fd5b50610354600480360381019080803573ffffffffffffffffffffffffffffffffffffffff169060200190929190505050611802565b6040518082815260200191505060405180910390f35b6103c06004803603810190808035600019169060200190929190803573ffffffffffffffffffffffffffffffffffffffff169060200190929190803590602001909291908035906020019092919050505061181a565b604051808215151515815260200191505060405180910390f35b61041060048036038101908080356000191690602001909291908035906020019092919080359060200190929190505050612005565b604051808215151515815260200191505060405180910390f35b34801561043657600080fd5b5061048d6004803603810190808035600019169060200190929190803573ffffffffffffffffffffffffffffffffffffffff16906020019092919080359060200190929190803590602001909291905050506125fd565b604051808215151515815260200191505060405180910390f35b3480156104b357600080fd5b506104e8600480360381019080803573ffffffffffffffffffffffffffffffffffffffff169060200190929190505050612e81565b6040518082815260200191505060405180910390f35b600460009054906101000a900460ff1681565b6000806000600460009054906101000a900460ff1615151561053257600080fd5b6001600460006101000a81548160ff02191690831515021790555060036000809054906101000a900473ffffffffffffffffffffffffffffffffffffffff1673ffffffffffffffffffffffffffffffffffffffff1663a855d4ce3360405180807f7573657241636365737300000000000000000000000000000000000000000000815250600a018273ffffffffffffffffffffffffffffffffffffffff1673ffffffffffffffffffffffffffffffffffffffff166c0100000000000000000000000002815260140191505060405180910390206040518263ffffffff167c0100000000000000000000000000000000000000000000000000000000028152600401808260001916600019168152602001915050602060405180830381600087803b15801561065f57600080fd5b505af1158015610673573d6000803e3d6000fd5b505050506040513d602081101561068957600080fd5b81019080805190602001909291905050501415156106a657600080fd5b86338787876040518086600019166000191681526020018573ffffffffffffffffffffffffffffffffffffffff1673ffffffffffffffffffffffffffffffffffffffff166c0100000000000000000000000002815260140184815260200183815260200182151515157f01000000000000000000000000000000000000000000000000000000000000000281526001019550505050505060405180910390209150600160003373ffffffffffffffffffffffffffffffffffffffff1673ffffffffffffffffffffffffffffffffffffffff1681526020019081526020016000206000836000191660001916815260200190815260200160002060009054906101000a900460ff1615156107b857600080fd5b83156108fe576107d18587612e9990919063ffffffff16565b905061082581600260003373ffffffffffffffffffffffffffffffffffffffff1673ffffffffffffffffffffffffffffffffffffffff16815260200190815260200160002054612ed490919063ffffffff16565b600260003373ffffffffffffffffffffffffffffffffffffffff1673ffffffffffffffffffffffffffffffffffffffff168152602001908152602001600020819055506108ba81600360003373ffffffffffffffffffffffffffffffffffffffff1673ffffffffffffffffffffffffffffffffffffffff16815260200190815260200160002054612eed90919063ffffffff16565b600360003373ffffffffffffffffffffffffffffffffffffffff1673ffffffffffffffffffffffffffffffffffffffff168152602001908152602001600020819055505b600160003373ffffffffffffffffffffffffffffffffffffffff1673ffffffffffffffffffffffffffffffffffffffff1681526020019081526020016000206000836000191660001916815260200190815260200160002060006101000a81549060ff0219169055600192506000600460006101000a81548160ff0219169083151502179055505050949350505050565b600080600460009054906101000a900460ff161515156109ae57600080fd5b6001600460006101000a81548160ff02191690831515021790555060036000809054906101000a900473ffffffffffffffffffffffffffffffffffffffff1673ffffffffffffffffffffffffffffffffffffffff1663a855d4ce3360405180807f7573657241636365737300000000000000000000000000000000000000000000815250600a018273ffffffffffffffffffffffffffffffffffffffff1673ffffffffffffffffffffffffffffffffffffffff166c0100000000000000000000000002815260140191505060405180910390206040518263ffffffff167c0100000000000000000000000000000000000000000000000000000000028152600401808260001916600019168152602001915050602060405180830381600087803b158015610adb57600080fd5b505af1158015610aef573d6000803e3d6000fd5b505050506040513d6020811015610b0557600080fd5b8101908080519060200190929190505050141515610b2257600080fd5b6000809054906101000a900473ffffffffffffffffffffffffffffffffffffffff1673ffffffffffffffffffffffffffffffffffffffff16633b7bfda03060405180807f70617573650000000000000000000000000000000000000000000000000000008152506005018273ffffffffffffffffffffffffffffffffffffffff1673ffffffffffffffffffffffffffffffffffffffff166c0100000000000000000000000002815260140191505060405180910390206040518263ffffffff167c0100000000000000000000000000000000000000000000000000000000028152600401808260001916600019168152602001915050602060405180830381600087803b158015610c3257600080fd5b505af1158015610c46573d6000803e3d6000fd5b505050506040513d6020811015610c5c57600080fd5b8101908080519060200190929190505050151515610c7957600080fd5b600360003373ffffffffffffffffffffffffffffffffffffffff1673ffffffffffffffffffffffffffffffffffffffff1681526020019081526020016000205490506000600360003373ffffffffffffffffffffffffffffffffffffffff1673ffffffffffffffffffffffffffffffffffffffff168152602001908152602001600020819055503373ffffffffffffffffffffffffffffffffffffffff166108fc829081150290604051600060405180830381858888f19350505050158015610d46573d6000803e3d6000fd5b50600191506000600460006101000a81548160ff0219169083151502179055505090565b6000809054906101000a900473ffffffffffffffffffffffffffffffffffffffff1673ffffffffffffffffffffffffffffffffffffffff16633b7bfda03360405180807f6f776e65720000000000000000000000000000000000000000000000000000008152506005018273ffffffffffffffffffffffffffffffffffffffff1673ffffffffffffffffffffffffffffffffffffffff166c0100000000000000000000000002815260140191505060405180910390206040518263ffffffff167c0100000000000000000000000000000000000000000000000000000000028152600401808260001916600019168152602001915050602060405180830381600087803b158015610e7a57600080fd5b505af1158015610e8e573d6000803e3d6000fd5b505050506040513d6020811015610ea457600080fd5b81019080805190602001909291905050501515610ec057600080fd5b3373ffffffffffffffffffffffffffffffffffffffff168273ffffffffffffffffffffffffffffffffffffffff1614151515610efb57600080fd5b6000809054906101000a900473ffffffffffffffffffffffffffffffffffffffff1673ffffffffffffffffffffffffffffffffffffffff16633b7bfda0308484604051808273ffffffffffffffffffffffffffffffffffffffff1673ffffffffffffffffffffffffffffffffffffffff166c010000000000000000000000000281526014019150506040518091039020604051808473ffffffffffffffffffffffffffffffffffffffff1673ffffffffffffffffffffffffffffffffffffffff166c010000000000000000000000000281526014018373ffffffffffffffffffffffffffffffffffffffff1673ffffffffffffffffffffffffffffffffffffffff166c01000000000000000000000000028152601401807f64657374726f79000000000000000000000000000000000000000000000000008152506007018260001916600019168152602001935050505060405180910390206040518263ffffffff167c0100000000000000000000000000000000000000000000000000000000028152600401808260001916600019168152602001915050602060405180830381600087803b1580156110ae57600080fd5b505af11580156110c2573d6000803e3d6000fd5b505050506040513d60208110156110d857600080fd5b810190808051906020019092919050505015156110f457600080fd5b3373ffffffffffffffffffffffffffffffffffffffff163073ffffffffffffffffffffffffffffffffffffffff16318273ffffffffffffffffffffffffffffffffffffffff167f8c7ae8776186c2e87b266886e8af282b7fdb52b47993376583987a14656a367860405160405180910390a48073ffffffffffffffffffffffffffffffffffffffff16ff5b6000809054906101000a900473ffffffffffffffffffffffffffffffffffffffff1681565b600080600460009054906101000a900460ff161515156111c357600080fd5b6001600460006101000a81548160ff02191690831515021790555060036000809054906101000a900473ffffffffffffffffffffffffffffffffffffffff1673ffffffffffffffffffffffffffffffffffffffff1663a855d4ce3360405180807f7573657241636365737300000000000000000000000000000000000000000000815250600a018273ffffffffffffffffffffffffffffffffffffffff1673ffffffffffffffffffffffffffffffffffffffff166c0100000000000000000000000002815260140191505060405180910390206040518263ffffffff167c0100000000000000000000000000000000000000000000000000000000028152600401808260001916600019168152602001915050602060405180830381600087803b1580156112f057600080fd5b505af1158015611304573d6000803e3d6000fd5b505050506040513d602081101561131a57600080fd5b810190808051906020019092919050505014151561133757600080fd5b8383600061134e8284612e9990919063ffffffff16565b11151561135a57600080fd5b8660006001026000191681600019161415151561137657600080fd5b60046000809054906101000a900473ffffffffffffffffffffffffffffffffffffffff1673ffffffffffffffffffffffffffffffffffffffff1663a855d4ce8360405180807f66756e64696e6753746167650000000000000000000000000000000000000000815250600c01826000191660001916815260200191505060405180910390206040518263ffffffff167c0100000000000000000000000000000000000000000000000000000000028152600401808260001916600019168152602001915050602060405180830381600087803b15801561145557600080fd5b505af1158015611469573d6000803e3d6000fd5b505050506040513d602081101561147f57600080fd5b810190808051906020019092919050505014151561149c57600080fd5b8787806000809054906101000a900473ffffffffffffffffffffffffffffffffffffffff1673ffffffffffffffffffffffffffffffffffffffff1663a855d4ce843360405180807f6f776e657273686970556e697473000000000000000000000000000000000000815250600e0183600019166000191681526020018273ffffffffffffffffffffffffffffffffffffffff1673ffffffffffffffffffffffffffffffffffffffff166c010000000000000000000000000281526014019250505060405180910390206040518263ffffffff167c0100000000000000000000000000000000000000000000000000000000028152600401808260001916600019168152602001915050602060405180830381600087803b1580156115bf57600080fd5b505af11580156115d3573d6000803e3d6000fd5b505050506040513d60208110156115e957600080fd5b81019080805190602001909291905050501015151561160757600080fd5b89338a8a60006040518086600019166000191681526020018573ffffffffffffffffffffffffffffffffffffffff1673ffffffffffffffffffffffffffffffffffffffff166c0100000000000000000000000002815260140184815260200183815260200182151515157f0100000000000000000000000000000000000000000000000000000000000000028152600101955050505050506040518091039020955060018060003373ffffffffffffffffffffffffffffffffffffffff1673ffffffffffffffffffffffffffffffffffffffff1681526020019081526020016000206000886000191660001916815260200190815260200160002060006101000a81548160ff0219169083151502179055503373ffffffffffffffffffffffffffffffffffffffff168a6000191687600019167fed9a0ea8e95226dc6749809b6c95495b24885d83456d74d36b6edfe527e57d2260405160405180910390a487897f0c3724b93379ffb35fb5036cf9ab03a6e42e333fb25d9897a61eb9abf1ce7a198860405180826000191660001916815260200191505060405180910390a36001965050505050506000600460006101000a81548160ff021916908315150217905550509392505050565b60016020528160005260406000206020528060005260406000206000915091509054906101000a900460ff1681565b60036020528060005260406000206000915090505481565b600080600460009054906101000a900460ff1615151561183957600080fd5b6001600460006101000a81548160ff0219169083151502179055506000809054906101000a900473ffffffffffffffffffffffffffffffffffffffff1673ffffffffffffffffffffffffffffffffffffffff16633b7bfda03060405180807f70617573650000000000000000000000000000000000000000000000000000008152506005018273ffffffffffffffffffffffffffffffffffffffff1673ffffffffffffffffffffffffffffffffffffffff166c0100000000000000000000000002815260140191505060405180910390206040518263ffffffff167c0100000000000000000000000000000000000000000000000000000000028152600401808260001916600019168152602001915050602060405180830381600087803b15801561196457600080fd5b505af1158015611978573d6000803e3d6000fd5b505050506040513d602081101561198e57600080fd5b81019080805190602001909291905050501515156119ab57600080fd5b60036000809054906101000a900473ffffffffffffffffffffffffffffffffffffffff1673ffffffffffffffffffffffffffffffffffffffff1663a855d4ce3360405180807f7573657241636365737300000000000000000000000000000000000000000000815250600a018273ffffffffffffffffffffffffffffffffffffffff1673ffffffffffffffffffffffffffffffffffffffff166c0100000000000000000000000002815260140191505060405180910390206040518263ffffffff167c0100000000000000000000000000000000000000000000000000000000028152600401808260001916600019168152602001915050602060405180830381600087803b158015611abd57600080fd5b505af1158015611ad1573d6000803e3d6000fd5b505050506040513d6020811015611ae757600080fd5b8101908080519060200190929190505050141515611b0457600080fd5b8585858560006040518086600019166000191681526020018573ffffffffffffffffffffffffffffffffffffffff1673ffffffffffffffffffffffffffffffffffffffff166c0100000000000000000000000002815260140184815260200183815260200182151515157f01000000000000000000000000000000000000000000000000000000000000000281526001019550505050505060405180910390209050600160008673ffffffffffffffffffffffffffffffffffffffff1673ffffffffffffffffffffffffffffffffffffffff1681526020019081526020016000206000826000191660001916815260200190815260200160002060009054906101000a900460ff161515611c1757600080fd5b611c2a8385612e9990919063ffffffff16565b34141515611c3757600080fd5b6000809054906101000a900473ffffffffffffffffffffffffffffffffffffffff1673ffffffffffffffffffffffffffffffffffffffff166304f49a3a60405180807f636f6e7472616374000000000000000000000000000000000000000000000000815250600801807f4173736574000000000000000000000000000000000000000000000000000000815250600501905060405180910390206040518263ffffffff167c0100000000000000000000000000000000000000000000000000000000028152600401808260001916600019168152602001915050602060405180830381600087803b158015611d2c57600080fd5b505af1158015611d40573d6000803e3d6000fd5b505050506040513d6020811015611d5657600080fd5b810190808051906020019092919050505073ffffffffffffffffffffffffffffffffffffffff1663355ae5e5878733886040518563ffffffff167c01000000000000000000000000000000000000000000000000000000000281526004018085600019166000191681526020018473ffffffffffffffffffffffffffffffffffffffff1673ffffffffffffffffffffffffffffffffffffffff1681526020018373ffffffffffffffffffffffffffffffffffffffff1673ffffffffffffffffffffffffffffffffffffffff168152602001828152602001945050505050602060405180830381600087803b158015611e4d57600080fd5b505af1158015611e61573d6000803e3d6000fd5b505050506040513d6020811015611e7757600080fd5b81019080805190602001909291905050501515611e9357600080fd5b611ee534600360008873ffffffffffffffffffffffffffffffffffffffff1673ffffffffffffffffffffffffffffffffffffffff16815260200190815260200160002054612eed90919063ffffffff16565b600360008773ffffffffffffffffffffffffffffffffffffffff1673ffffffffffffffffffffffffffffffffffffffff16815260200190815260200160002081905550600160008673ffffffffffffffffffffffffffffffffffffffff1673ffffffffffffffffffffffffffffffffffffffff1681526020019081526020016000206000826000191660001916815260200190815260200160002060006101000a81549060ff02191690553373ffffffffffffffffffffffffffffffffffffffff16866000191682600019167fbc0fd0fd7dceb92655382ef6bd309a8be74233204a2de7adaa3a05f43c222a8760405160405180910390a4600191506000600460006101000a81548160ff02191690831515021790555050949350505050565b600080600460009054906101000a900460ff1615151561202457600080fd5b6001600460006101000a81548160ff02191690831515021790555060036000809054906101000a900473ffffffffffffffffffffffffffffffffffffffff1673ffffffffffffffffffffffffffffffffffffffff1663a855d4ce3360405180807f7573657241636365737300000000000000000000000000000000000000000000815250600a018273ffffffffffffffffffffffffffffffffffffffff1673ffffffffffffffffffffffffffffffffffffffff166c0100000000000000000000000002815260140191505060405180910390206040518263ffffffff167c0100000000000000000000000000000000000000000000000000000000028152600401808260001916600019168152602001915050602060405180830381600087803b15801561215157600080fd5b505af1158015612165573d6000803e3d6000fd5b505050506040513d602081101561217b57600080fd5b810190808051906020019092919050505014151561219857600080fd5b6000341115156121a757600080fd5b838360006121be8284612e9990919063ffffffff16565b1115156121ca57600080fd5b866000600102600019168160001916141515156121e657600080fd5b60046000809054906101000a900473ffffffffffffffffffffffffffffffffffffffff1673ffffffffffffffffffffffffffffffffffffffff1663a855d4ce8360405180807f66756e64696e6753746167650000000000000000000000000000000000000000815250600c01826000191660001916815260200191505060405180910390206040518263ffffffff167c0100000000000000000000000000000000000000000000000000000000028152600401808260001916600019168152602001915050602060405180830381600087803b1580156122c557600080fd5b505af11580156122d9573d6000803e3d6000fd5b505050506040513d60208110156122ef57600080fd5b810190808051906020019092919050505014151561230c57600080fd5b61231f8688612e9990919063ffffffff16565b3414151561232c57600080fd5b8733888860016040518086600019166000191681526020018573ffffffffffffffffffffffffffffffffffffffff1673ffffffffffffffffffffffffffffffffffffffff166c0100000000000000000000000002815260140184815260200183815260200182151515157f01000000000000000000000000000000000000000000000000000000000000000281526001019550505050505060405180910390209350600160003373ffffffffffffffffffffffffffffffffffffffff1673ffffffffffffffffffffffffffffffffffffffff1681526020019081526020016000206000856000191660001916815260200190815260200160002060009054906101000a900460ff1615151561244057600080fd5b60018060003373ffffffffffffffffffffffffffffffffffffffff1673ffffffffffffffffffffffffffffffffffffffff1681526020019081526020016000206000866000191660001916815260200190815260200160002060006101000a81548160ff02191690831515021790555061250234600260003373ffffffffffffffffffffffffffffffffffffffff1673ffffffffffffffffffffffffffffffffffffffff16815260200190815260200160002054612eed90919063ffffffff16565b600260003373ffffffffffffffffffffffffffffffffffffffff1673ffffffffffffffffffffffffffffffffffffffff168152602001908152602001600020819055503373ffffffffffffffffffffffffffffffffffffffff16886000191685600019167f90ffa6e4395bc55c230e6156d105587e336710d5ef7c1f406834a7c970d2ebce60405160405180910390a485877ff683e1ce3417145318e6bcb7f570d90b2dd65130c605d7d2c762b278214fd5d88660405180826000191660001916815260200191505060405180910390a3600194505050506000600460006101000a81548160ff021916908315150217905550509392505050565b600080600460009054906101000a900460ff1615151561261c57600080fd5b6001600460006101000a81548160ff02191690831515021790555060036000809054906101000a900473ffffffffffffffffffffffffffffffffffffffff1673ffffffffffffffffffffffffffffffffffffffff1663a855d4ce3360405180807f7573657241636365737300000000000000000000000000000000000000000000815250600a018273ffffffffffffffffffffffffffffffffffffffff1673ffffffffffffffffffffffffffffffffffffffff166c0100000000000000000000000002815260140191505060405180910390206040518263ffffffff167c0100000000000000000000000000000000000000000000000000000000028152600401808260001916600019168152602001915050602060405180830381600087803b15801561274957600080fd5b505af115801561275d573d6000803e3d6000fd5b505050506040513d602081101561277357600080fd5b810190808051906020019092919050505014151561279057600080fd5b6000809054906101000a900473ffffffffffffffffffffffffffffffffffffffff1673ffffffffffffffffffffffffffffffffffffffff16633b7bfda03060405180807f70617573650000000000000000000000000000000000000000000000000000008152506005018273ffffffffffffffffffffffffffffffffffffffff1673ffffffffffffffffffffffffffffffffffffffff166c0100000000000000000000000002815260140191505060405180910390206040518263ffffffff167c0100000000000000000000000000000000000000000000000000000000028152600401808260001916600019168152602001915050602060405180830381600087803b1580156128a057600080fd5b505af11580156128b4573d6000803e3d6000fd5b505050506040513d60208110156128ca57600080fd5b81019080805190602001909291905050501515156128e757600080fd5b8585858560016040518086600019166000191681526020018573ffffffffffffffffffffffffffffffffffffffff1673ffffffffffffffffffffffffffffffffffffffff166c0100000000000000000000000002815260140184815260200183815260200182151515157f01000000000000000000000000000000000000000000000000000000000000000281526001019550505050505060405180910390209050600160008673ffffffffffffffffffffffffffffffffffffffff1673ffffffffffffffffffffffffffffffffffffffff1681526020019081526020016000206000826000191660001916815260200190815260200160002060009054906101000a900460ff1615156129fa57600080fd5b6000809054906101000a900473ffffffffffffffffffffffffffffffffffffffff1673ffffffffffffffffffffffffffffffffffffffff166304f49a3a60405180807f636f6e7472616374000000000000000000000000000000000000000000000000815250600801807f4173736574000000000000000000000000000000000000000000000000000000815250600501905060405180910390206040518263ffffffff167c0100000000000000000000000000000000000000000000000000000000028152600401808260001916600019168152602001915050602060405180830381600087803b158015612aef57600080fd5b505af1158015612b03573d6000803e3d6000fd5b505050506040513d6020811015612b1957600080fd5b810190808051906020019092919050505073ffffffffffffffffffffffffffffffffffffffff1663355ae5e5873388886040518563ffffffff167c01000000000000000000000000000000000000000000000000000000000281526004018085600019166000191681526020018473ffffffffffffffffffffffffffffffffffffffff1673ffffffffffffffffffffffffffffffffffffffff1681526020018373ffffffffffffffffffffffffffffffffffffffff1673ffffffffffffffffffffffffffffffffffffffff168152602001828152602001945050505050602060405180830381600087803b158015612c1057600080fd5b505af1158015612c24573d6000803e3d6000fd5b505050506040513d6020811015612c3a57600080fd5b81019080805190602001909291905050501515612c5657600080fd5b612cba612c6c8486612e9990919063ffffffff16565b600260008873ffffffffffffffffffffffffffffffffffffffff1673ffffffffffffffffffffffffffffffffffffffff16815260200190815260200160002054612ed490919063ffffffff16565b600260008773ffffffffffffffffffffffffffffffffffffffff1673ffffffffffffffffffffffffffffffffffffffff16815260200190815260200160002081905550612d61612d138486612e9990919063ffffffff16565b600360003373ffffffffffffffffffffffffffffffffffffffff1673ffffffffffffffffffffffffffffffffffffffff16815260200190815260200160002054612eed90919063ffffffff16565b600360003373ffffffffffffffffffffffffffffffffffffffff1673ffffffffffffffffffffffffffffffffffffffff16815260200190815260200160002081905550600160008673ffffffffffffffffffffffffffffffffffffffff1673ffffffffffffffffffffffffffffffffffffffff1681526020019081526020016000206000826000191660001916815260200190815260200160002060006101000a81549060ff02191690553373ffffffffffffffffffffffffffffffffffffffff16866000191682600019167f752cf0fbee9c3cd1cab55a1a5d683e3962eaecb18a9145e4fb4399c0e7c55d1e60405160405180910390a4600191506000600460006101000a81548160ff02191690831515021790555050949350505050565b60026020528060005260406000206000915090505481565b6000806000841415612eae5760009150612ecd565b8284029050828482811515612ebf57fe5b04141515612ec957fe5b8091505b5092915050565b6000828211151515612ee257fe5b818303905092915050565b6000808284019050838110151515612f0157fe5b80915050929150505600a165627a7a72305820d236c58d9f80fee617e332485cf8501d12e8f4383cca899060fbe7b9eeeaaacb0029",
  "source": "pragma solidity 0.4.23;\nimport './Database.sol';\nimport './SafeMath.sol';\nimport './Asset.sol';\n\n//------------------------------------------------------------------------------------------------------------------\n// Note: Users can only have 1 sell order and 1 buy order for each individual asset\n// The orders are stored as as sha3 hash of critical parameters to save storage costs\n// InVariants: Users must withdraw available funds from asset before trading\n//------------------------------------------------------------------------------------------------------------------\ncontract AssetExchange {\n  using SafeMath for *;\n\n  Database public database;\n\n  mapping (address => mapping (bytes32 => bool)) public orders;  // Hash of (assetID, sellerAddress, amountToBuy, price, boolean(BuyOrder = true))\n\n  mapping (address => uint) public weiDeposited;\n  mapping (address => uint) public weiOwed;\n  bool public reentrancyLock = false;\n\n  //------------------------------------------------------------------------------------------------------------------\n  // Constructor \n  // Initialize database for storage\n  //------------------------------------------------------------------------------------------------------------------\n  constructor(address _database)\n  public {\n    database = Database(_database);\n  }\n\n  //------------------------------------------------------------------------------------------------------------------\n  // Gives Ether sent to initatior of this sellOrder and transfers ownership units of asset to purchaser\n  // Note: Check if creator of sell order has enough ownership units left\n  // @Param: ID of the asset, which these ownershipUnits belong to\n  // @Param: Address of the user who created SellOrder \n  // @Param: Number of ownershipUnits being traded\n  // @Param: The WEI cost per unit\n  // TODO: log amounts?\n  //------------------------------------------------------------------------------------------------------------------\n  function buyAsset(bytes32 _assetID, address _seller, uint _amount, uint _price)\n  external\n  payable\n  nonReentrant\n  whenNotPaused\n  onlyApproved\n  returns (bool){\n    bytes32 thisOrder = keccak256(_assetID, _seller, _amount, _price, false);\n    require(orders[_seller][thisOrder]);\n    require(msg.value == (_amount.mul(_price)));\n    require(Asset(database.addressStorage(keccak256(\"contract\", \"Asset\"))).tradeOwnershipUnits(_assetID, _seller, msg.sender, _amount));\n    weiOwed[_seller] = weiOwed[_seller].add(msg.value);\n    delete orders[_seller][thisOrder];\n    emit LogSellOrderCompleted(thisOrder, _assetID, msg.sender);\n    return true;\n  }\n\n  //------------------------------------------------------------------------------------------------------------------\n  // Settles an open SellOrder, giving the deposited ether to sender and sender tokens to initiator of BuyOrder \n  // @Param: ID of the asset, which senders ownershipUnits belong to\n  // @Param: Address of the user who created BuyOrder \n  // @Param: Number of ownershipUnits being sold\n  // @Param: The WEI cost per unit\n  // TODO: log amounts?\n  //------------------------------------------------------------------------------------------------------------------\n  function sellAsset(bytes32 _assetID, address _buyer, uint _amount, uint _price)\n  public\n  nonReentrant\n  onlyApproved\n  whenNotPaused\n  returns (bool){\n    bytes32 thisOrder = keccak256(_assetID, _buyer, _amount, _price, true);       // Get order ID \n    require(orders[_buyer][thisOrder]);    // Check order exists\n    require(Asset(database.addressStorage(keccak256(\"contract\", \"Asset\"))).tradeOwnershipUnits(_assetID, msg.sender, _buyer, _amount));\n    weiDeposited[_buyer] = weiDeposited[_buyer].sub(_amount.mul(_price));\n    weiOwed[msg.sender] = weiOwed[msg.sender].add(_amount.mul(_price));\n    delete orders[_buyer][thisOrder];\n    emit LogBuyOrderCompleted(thisOrder, _assetID, msg.sender);\n    return true;\n  }\n\n  //------------------------------------------------------------------------------------------------------------------\n  // Create a BuyOrder and leave WEI as a deposit for user that picks up order \n  // @Param: ID of the asset, which the sender wants to purchase ownershipUnits of \n  // @Param: Number of ownershipUnits being bought\n  // @Param: The WEI cost per unit\n  //------------------------------------------------------------------------------------------------------------------\n  function createBuyOrder(bytes32 _assetID, uint _amount, uint _price)\n  external\n  nonReentrant\n  onlyApproved\n  payable\n  requiresEther\n  aboveZero(_amount, _price)\n  validAsset(_assetID)\n  returns (bool) {\n    require(msg.value == _amount.mul(_price));\n    bytes32 orderID = keccak256(_assetID, msg.sender, _amount, _price, true);\n    require(!orders[msg.sender][orderID]);\n    orders[msg.sender][orderID] = true;\n    weiDeposited[msg.sender] = weiDeposited[msg.sender].add(msg.value);\n    emit LogBuyOrderCreated(orderID, _assetID, msg.sender);\n    emit LogBuyOrderDetails(orderID, _amount, _price);\n    return true;\n  }\n\n  //------------------------------------------------------------------------------------------------------------------\n  // Create a BuyOrder and leave WEI as a deposit for user that picks up order \n  // @Param: ID of the asset, which sender is trying to sell \n  // @Param: Number of ownershipUnits being sold\n  // @Param: The WEI cost per unit\n  // NOTE: This will re-write previous sell orders\n  //------------------------------------------------------------------------------------------------------------------\n  function createSellOrder(bytes32 _assetID, uint _amount, uint _price)\n  external\n  nonReentrant\n  onlyApproved\n  aboveZero(_amount, _price)\n  validAsset(_assetID)\n  hasEnoughOwnership(_assetID, _amount)\n  returns (bool) {\n    bytes32 orderID = keccak256(_assetID, msg.sender, _amount, _price, false);\n    orders[msg.sender][orderID] = true;\n    emit LogSellOrderCreated(orderID, _assetID, msg.sender);\n    emit LogSellOrderDetails(orderID, _amount, _price);\n    return true;\n  }\n\n  //------------------------------------------------------------------------------------------------------------------\n  // Create a BuyOrder and leave WEI as a deposit for user that picks up order \n  // @Param: ID of the asset\n  // @Param: Number of ownershipUnits being sold\n  // @Param: The WEI cost per unit\n  // @Param: Is this order a BuyOrder? \n  //------------------------------------------------------------------------------------------------------------------\n  function deleteOrder(bytes32 _assetID, uint _amount, uint _price, bool _buyOrder)\n  external\n  nonReentrant\n  onlyApproved\n  returns (bool) {\n    bytes32 orderID = keccak256(_assetID, msg.sender, _amount, _price, _buyOrder);\n    require(orders[msg.sender][orderID]);\n    if (_buyOrder) {\n      uint returnValue = _amount.mul(_price);\n      weiDeposited[msg.sender] = weiDeposited[msg.sender].sub(returnValue);\n      weiOwed[msg.sender] = weiOwed[msg.sender].add(returnValue);\n    }\n    delete orders[msg.sender][orderID];\n    return true;\n  }\n  //------------------------------------------------------------------------------------------------------------------\n  // User can withdraw the wei they are owed here\n  //------------------------------------------------------------------------------------------------------------------\n  function withdraw()\n  external\n  nonReentrant        \n  onlyApproved\n  whenNotPaused\n  returns (bool){\n    uint owed = weiOwed[msg.sender];\n    weiOwed[msg.sender] = 0;\n    msg.sender.transfer(owed);\n    return true;\n  }\n\n  //------------------------------------------------------------------------------------------------------------------\n  // Destroys contract and sends WEI to _holdingAddress\n  //------------------------------------------------------------------------------------------------------------------\n  function destroy(address _functionInitiator, address _holdingAddress)\n  anyOwner\n  public {\n    require(_functionInitiator != msg.sender);\n    require(database.boolStorage(keccak256(this, _functionInitiator, \"destroy\", keccak256(_holdingAddress))));\n    emit LogDestruction(_holdingAddress, this.balance, msg.sender);\n    selfdestruct(_holdingAddress);\n  }\n\n  //------------------------------------------------------------------------------------------------------------------\n  // Fallback. Reject Ether\n  //------------------------------------------------------------------------------------------------------------------\n  function()\n  external {\n    revert();\n  }\n\n  //------------------------------------------------------------------------------------------------------------------\n  //                                      Modifiers\n  //------------------------------------------------------------------------------------------------------------------\n\n\n  //------------------------------------------------------------------------------------------------------------------\n  // This verifies that the asset is registered on the MyBit Platform and has successfully completed funding\n  //------------------------------------------------------------------------------------------------------------------\n  modifier validAsset(bytes32 _assetID) {\n    require (_assetID != bytes32(0));\n    require (database.uintStorage(keccak256(\"fundingStage\", _assetID)) == 4);\n    _;\n  }\n\n  //------------------------------------------------------------------------------------------------------------------\n  // Check if user has enough ownershipUnits to create SellOrder\n  //------------------------------------------------------------------------------------------------------------------\n  modifier hasEnoughOwnership(bytes32 _assetID, uint _requiredOwnership) {\n    require(database.uintStorage(keccak256(\"ownershipUnits\", _assetID, msg.sender)) >= _requiredOwnership);\n    _;\n  }\n\n  //------------------------------------------------------------------------------------------------------------------\n  // Verifies that _amount or _price aren't null\n  //------------------------------------------------------------------------------------------------------------------\n  modifier aboveZero(uint _amount, uint _price) {\n    require(_amount.mul(_price) > 0);\n    _;\n  }\n\n  //------------------------------------------------------------------------------------------------------------------\n  // Must have access level of 3 to use marketplace\n  //------------------------------------------------------------------------------------------------------------------\n  modifier onlyApproved {\n    require(database.uintStorage(keccak256(\"userAccess\", msg.sender)) == uint(3));\n    _;\n  }\n\n  //------------------------------------------------------------------------------------------------------------------\n  // Verify contract isn't paused \n  //------------------------------------------------------------------------------------------------------------------\n  modifier whenNotPaused {\n    require(!database.boolStorage(keccak256(\"pause\", this)));\n    _;\n  }\n\n  //------------------------------------------------------------------------------------------------------------------\n  // Throw if Ether hasn't been sent\n  //------------------------------------------------------------------------------------------------------------------\n  modifier requiresEther() {\n    require(msg.value > 0);\n    _;\n  }\n\n  //------------------------------------------------------------------------------------------------------------------\n  // Prevents contracts from re-entering function before the transaction finishes\n  //------------------------------------------------------------------------------------------------------------------\n  modifier nonReentrant() {\n    require(!reentrancyLock);\n    reentrancyLock = true;\n    _;\n    reentrancyLock = false;\n  }\n\n  //------------------------------------------------------------------------------------------------------------------\n  // Verify that the sender is a registered owner\n  //------------------------------------------------------------------------------------------------------------------\n  modifier anyOwner {\n    require(database.boolStorage(keccak256(\"owner\", msg.sender)));\n    _;\n  }\n\n\n\n  //------------------------------------------------------------------------------------------------------------------\n  //                                      Events\n  //------------------------------------------------------------------------------------------------------------------\n\n  event LogDestruction(address indexed _locationSent, uint indexed _amountSent, address indexed _caller);\n  event LogBuyOrderCreated(bytes32 indexed _orderID, bytes32 indexed _assetID, address indexed _creator);\n  event LogBuyOrderCompleted(bytes32 indexed _orderID, bytes32 indexed _assetAddress, address indexed _purchaser);\n  event LogSellOrderCreated(bytes32 indexed _orderID, bytes32 indexed _assetAddress, address indexed _creator);\n  event LogSellOrderCompleted(bytes32 indexed _orderID, bytes32 indexed _assetAddress, address indexed _purchaser);\n  event LogBuyOrderDetails(bytes32 _orderID, uint indexed _amount, uint indexed _price);\n  event LogSellOrderDetails(bytes32 orderID, uint indexed _amount, uint indexed _price);\n}\n",
  "sourcePath": "/var/www/html/mybit/dapp/Contracts/contracts/AssetExchange.sol",
  "compiler": {
    "name": "solc",
    "version": "0.4.23+commit.124ca40d.Emscripten.clang"
  },
  "schemaVersion": "2.0.0",
  "updatedAt": "2018-05-15T12:10:07.882Z"
}