{
  "contractName": "AssetCreation",
  "abi": [
    {
      "constant": true,
      "inputs": [],
      "name": "database",
      "outputs": [
        {
          "name": "",
          "type": "address"
        }
      ],
      "payable": false,
      "stateMutability": "view",
      "type": "function"
    },
    {
      "constant": true,
      "inputs": [],
      "name": "fundingTime",
      "outputs": [
        {
          "name": "",
          "type": "uint256"
        }
      ],
      "payable": false,
      "stateMutability": "view",
      "type": "function"
    },
    {
      "inputs": [
        {
          "name": "_database",
          "type": "address"
        }
      ],
      "payable": false,
      "stateMutability": "nonpayable",
      "type": "constructor"
    },
    {
      "anonymous": false,
      "inputs": [
        {
          "indexed": true,
          "name": "_creator",
          "type": "address"
        },
        {
          "indexed": true,
          "name": "_assetID",
          "type": "bytes32"
        },
        {
          "indexed": true,
          "name": "_assetType",
          "type": "bytes32"
        }
      ],
      "name": "LogAssetFundingStarted",
      "type": "event"
    },
    {
      "anonymous": false,
      "inputs": [
        {
          "indexed": true,
          "name": "_assetID",
          "type": "bytes32"
        },
        {
          "indexed": true,
          "name": "_installerID",
          "type": "bytes32"
        },
        {
          "indexed": true,
          "name": "_amountToBeRaised",
          "type": "uint256"
        }
      ],
      "name": "LogAssetInfo",
      "type": "event"
    },
    {
      "anonymous": false,
      "inputs": [
        {
          "indexed": true,
          "name": "_from",
          "type": "address"
        },
        {
          "indexed": true,
          "name": "_assetID",
          "type": "bytes32"
        },
        {
          "indexed": true,
          "name": "_amountOf",
          "type": "uint256"
        }
      ],
      "name": "LogLockAssetEscrow",
      "type": "event"
    },
    {
      "anonymous": false,
      "inputs": [
        {
          "indexed": true,
          "name": "_remover",
          "type": "address"
        },
        {
          "indexed": true,
          "name": "_assetID",
          "type": "bytes32"
        },
        {
          "indexed": true,
          "name": "_timestamp",
          "type": "uint256"
        }
      ],
      "name": "LogAssetRemoved",
      "type": "event"
    },
    {
      "anonymous": false,
      "inputs": [
        {
          "indexed": false,
          "name": "_sender",
          "type": "address"
        },
        {
          "indexed": false,
          "name": "_newTimeForFunding",
          "type": "uint256"
        },
        {
          "indexed": false,
          "name": "_blockTimestamp",
          "type": "uint256"
        }
      ],
      "name": "LogFundingTimeChanged",
      "type": "event"
    },
    {
      "anonymous": false,
      "inputs": [
        {
          "indexed": false,
          "name": "_myBitFoundationPercentage",
          "type": "uint256"
        },
        {
          "indexed": false,
          "name": "_installerPercentage",
          "type": "uint256"
        }
      ],
      "name": "LogFundingPercentageChanged",
      "type": "event"
    },
    {
      "anonymous": false,
      "inputs": [
        {
          "indexed": true,
          "name": "_locationSent",
          "type": "address"
        },
        {
          "indexed": true,
          "name": "_amountSent",
          "type": "uint256"
        },
        {
          "indexed": true,
          "name": "_caller",
          "type": "address"
        }
      ],
      "name": "LogDestruction",
      "type": "event"
    },
    {
      "constant": false,
      "inputs": [
        {
          "name": "_assetID",
          "type": "bytes32"
        },
        {
          "name": "_amountToBeRaised",
          "type": "uint256"
        },
        {
          "name": "_operatorPercentage",
          "type": "uint256"
        },
        {
          "name": "_amountToEscrow",
          "type": "uint256"
        },
        {
          "name": "_installerID",
          "type": "bytes32"
        },
        {
          "name": "_assetType",
          "type": "bytes32"
        }
      ],
      "name": "newAsset",
      "outputs": [
        {
          "name": "",
          "type": "bool"
        }
      ],
      "payable": false,
      "stateMutability": "nonpayable",
      "type": "function"
    },
    {
      "constant": false,
      "inputs": [
        {
          "name": "_assetID",
          "type": "bytes32"
        },
        {
          "name": "_functionSigner",
          "type": "address"
        }
      ],
      "name": "removeAsset",
      "outputs": [
        {
          "name": "",
          "type": "bool"
        }
      ],
      "payable": false,
      "stateMutability": "nonpayable",
      "type": "function"
    },
    {
      "constant": false,
      "inputs": [
        {
          "name": "_newTimeGivenForFunding",
          "type": "uint256"
        }
      ],
      "name": "changeFundingTime",
      "outputs": [
        {
          "name": "",
          "type": "bool"
        }
      ],
      "payable": false,
      "stateMutability": "nonpayable",
      "type": "function"
    },
    {
      "constant": false,
      "inputs": [
        {
          "name": "_myBitFoundationPercentage",
          "type": "uint256"
        },
        {
          "name": "_installerPercentage",
          "type": "uint256"
        },
        {
          "name": "_functionSigner",
          "type": "address"
        }
      ],
      "name": "changeFundingPercentages",
      "outputs": [
        {
          "name": "",
          "type": "bool"
        }
      ],
      "payable": false,
      "stateMutability": "nonpayable",
      "type": "function"
    },
    {
      "constant": false,
      "inputs": [
        {
          "name": "_functionInitiator",
          "type": "address"
        },
        {
          "name": "_holdingAddress",
          "type": "address"
        }
      ],
      "name": "destroy",
      "outputs": [],
      "payable": false,
      "stateMutability": "nonpayable",
      "type": "function"
    }
  ],
  "bytecode": "0x608060405260008060146101000a81548160ff021916908315150217905550610bb860015534801561003057600080fd5b50604051602080612a6083398101806040528101908080519060200190929190505050806000806101000a81548173ffffffffffffffffffffffffffffffffffffffff021916908373ffffffffffffffffffffffffffffffffffffffff160217905550506129bd806100a36000396000f300608060405260043610610083576000357c0100000000000000000000000000000000000000000000000000000000900463ffffffff1680632b9e98b11461008857806362b40f9f146100f7578063713b563f1461015a57806380e903f4146101b157806382b0627c14610234578063b9a7777214610279578063e19d36ff146102a4575b600080fd5b34801561009457600080fd5b506100dd6004803603810190808035906020019092919080359060200190929190803573ffffffffffffffffffffffffffffffffffffffff16906020019092919050505061030d565b604051808215151515815260200191505060405180910390f35b34801561010357600080fd5b50610158600480360381019080803573ffffffffffffffffffffffffffffffffffffffff169060200190929190803573ffffffffffffffffffffffffffffffffffffffff169060200190929190505050610956565b005b34801561016657600080fd5b5061016f610e2d565b604051808273ffffffffffffffffffffffffffffffffffffffff1673ffffffffffffffffffffffffffffffffffffffff16815260200191505060405180910390f35b3480156101bd57600080fd5b5061021a600480360381019080803560001916906020019092919080359060200190929190803590602001909291908035906020019092919080356000191690602001909291908035600019169060200190929190505050610e52565b604051808215151515815260200191505060405180910390f35b34801561024057600080fd5b5061025f60048036038101908080359060200190929190505050611a33565b604051808215151515815260200191505060405180910390f35b34801561028557600080fd5b5061028e611c20565b6040518082815260200191505060405180910390f35b3480156102b057600080fd5b506102f36004803603810190808035600019169060200190929190803573ffffffffffffffffffffffffffffffffffffffff169060200190929190505050611c26565b604051808215151515815260200191505060405180910390f35b6000806000809054906101000a900473ffffffffffffffffffffffffffffffffffffffff1673ffffffffffffffffffffffffffffffffffffffff16633b7bfda03360405180807f6f776e65720000000000000000000000000000000000000000000000000000008152506005018273ffffffffffffffffffffffffffffffffffffffff1673ffffffffffffffffffffffffffffffffffffffff166c0100000000000000000000000002815260140191505060405180910390206040518263ffffffff167c0100000000000000000000000000000000000000000000000000000000028152600401808260001916600019168152602001915050602060405180830381600087803b15801561042057600080fd5b505af1158015610434573d6000803e3d6000fd5b505050506040513d602081101561044a57600080fd5b8101908080519060200190929190505050151561046657600080fd5b846000811415151561047757600080fd5b846000811415151561048857600080fd5b3085888860405180838152602001828152602001925050506040518091039020604051808473ffffffffffffffffffffffffffffffffffffffff1673ffffffffffffffffffffffffffffffffffffffff166c010000000000000000000000000281526014018373ffffffffffffffffffffffffffffffffffffffff1673ffffffffffffffffffffffffffffffffffffffff166c01000000000000000000000000028152601401807f6368616e676546756e64696e6750657263656e7461676573000000000000000081525060180182600019166000191681526020019350505050604051809103902092506000809054906101000a900473ffffffffffffffffffffffffffffffffffffffff1673ffffffffffffffffffffffffffffffffffffffff16633b7bfda0846040518263ffffffff167c0100000000000000000000000000000000000000000000000000000000028152600401808260001916600019168152602001915050602060405180830381600087803b15801561060b57600080fd5b505af115801561061f573d6000803e3d6000fd5b505050506040513d602081101561063557600080fd5b8101908080519060200190929190505050151561065157600080fd5b6064610666878961240f90919063ffffffff16565b14151561067257600080fd5b6000809054906101000a900473ffffffffffffffffffffffffffffffffffffffff1673ffffffffffffffffffffffffffffffffffffffff1663abfdcced8460006040518363ffffffff167c01000000000000000000000000000000000000000000000000000000000281526004018083600019166000191681526020018215151515815260200192505050600060405180830381600087803b15801561071757600080fd5b505af115801561072b573d6000803e3d6000fd5b505050506000809054906101000a900473ffffffffffffffffffffffffffffffffffffffff1673ffffffffffffffffffffffffffffffffffffffff1663e2a4853a60405180807f6d79426974466f756e646174696f6e50657263656e746167650000000000000081525060190190506040518091039020896040518363ffffffff167c010000000000000000000000000000000000000000000000000000000002815260040180836000191660001916815260200182815260200192505050600060405180830381600087803b15801561080457600080fd5b505af1158015610818573d6000803e3d6000fd5b505050506000809054906101000a900473ffffffffffffffffffffffffffffffffffffffff1673ffffffffffffffffffffffffffffffffffffffff1663e2a4853a60405180807f696e7374616c6c657250657263656e746167650000000000000000000000000081525060130190506040518091039020886040518363ffffffff167c010000000000000000000000000000000000000000000000000000000002815260040180836000191660001916815260200182815260200192505050600060405180830381600087803b1580156108f157600080fd5b505af1158015610905573d6000803e3d6000fd5b505050507fb585d51b07109cb1616cbbb3dccd2d1d6465d3f3679b341e8a2b8f97c7823d8d8787604051808381526020018281526020019250505060405180910390a1600193505050509392505050565b60008060009054906101000a900473ffffffffffffffffffffffffffffffffffffffff1673ffffffffffffffffffffffffffffffffffffffff16633b7bfda03360405180807f6f776e65720000000000000000000000000000000000000000000000000000008152506005018273ffffffffffffffffffffffffffffffffffffffff1673ffffffffffffffffffffffffffffffffffffffff166c0100000000000000000000000002815260140191505060405180910390206040518263ffffffff167c0100000000000000000000000000000000000000000000000000000000028152600401808260001916600019168152602001915050602060405180830381600087803b158015610a6857600080fd5b505af1158015610a7c573d6000803e3d6000fd5b505050506040513d6020811015610a9257600080fd5b81019080805190602001909291905050501515610aae57600080fd5b3373ffffffffffffffffffffffffffffffffffffffff168373ffffffffffffffffffffffffffffffffffffffff1614151515610ae957600080fd5b308383604051808273ffffffffffffffffffffffffffffffffffffffff1673ffffffffffffffffffffffffffffffffffffffff166c010000000000000000000000000281526014019150506040518091039020604051808473ffffffffffffffffffffffffffffffffffffffff1673ffffffffffffffffffffffffffffffffffffffff166c010000000000000000000000000281526014018373ffffffffffffffffffffffffffffffffffffffff1673ffffffffffffffffffffffffffffffffffffffff166c01000000000000000000000000028152601401807f64657374726f790000000000000000000000000000000000000000000000000081525060070182600019166000191681526020019350505050604051809103902090506000809054906101000a900473ffffffffffffffffffffffffffffffffffffffff1673ffffffffffffffffffffffffffffffffffffffff16633b7bfda0826040518263ffffffff167c0100000000000000000000000000000000000000000000000000000000028152600401808260001916600019168152602001915050602060405180830381600087803b158015610c9f57600080fd5b505af1158015610cb3573d6000803e3d6000fd5b505050506040513d6020811015610cc957600080fd5b81019080805190602001909291905050501515610ce557600080fd5b6000809054906101000a900473ffffffffffffffffffffffffffffffffffffffff1673ffffffffffffffffffffffffffffffffffffffff1663abfdcced8260006040518363ffffffff167c01000000000000000000000000000000000000000000000000000000000281526004018083600019166000191681526020018215151515815260200192505050600060405180830381600087803b158015610d8a57600080fd5b505af1158015610d9e573d6000803e3d6000fd5b505050503373ffffffffffffffffffffffffffffffffffffffff163073ffffffffffffffffffffffffffffffffffffffff16318373ffffffffffffffffffffffffffffffffffffffff167f8c7ae8776186c2e87b266886e8af282b7fdb52b47993376583987a14656a367860405160405180910390a48173ffffffffffffffffffffffffffffffffffffffff16ff5b6000809054906101000a900473ffffffffffffffffffffffffffffffffffffffff1681565b60008060009054906101000a900473ffffffffffffffffffffffffffffffffffffffff1673ffffffffffffffffffffffffffffffffffffffff16633b7bfda03060405180807f70617573650000000000000000000000000000000000000000000000000000008152506005018273ffffffffffffffffffffffffffffffffffffffff1673ffffffffffffffffffffffffffffffffffffffff166c0100000000000000000000000002815260140191505060405180910390206040518263ffffffff167c0100000000000000000000000000000000000000000000000000000000028152600401808260001916600019168152602001915050602060405180830381600087803b158015610f6457600080fd5b505af1158015610f78573d6000803e3d6000fd5b505050506040513d6020811015610f8e57600080fd5b8101908080519060200190929190505050151515610fab57600080fd5b600060149054906101000a900460ff16151515610fc757600080fd5b6001600060146101000a81548160ff02191690831515021790555086600060010260001916816000191614151515610ffe57600080fd5b8360006001026000191681600019161415151561101a57600080fd5b8360006001026000191681600019161415151561103657600080fd5b60016000809054906101000a900473ffffffffffffffffffffffffffffffffffffffff1673ffffffffffffffffffffffffffffffffffffffff1663a855d4ce3360405180807f7573657241636365737300000000000000000000000000000000000000000000815250600a018273ffffffffffffffffffffffffffffffffffffffff1673ffffffffffffffffffffffffffffffffffffffff166c0100000000000000000000000002815260140191505060405180910390206040518263ffffffff167c0100000000000000000000000000000000000000000000000000000000028152600401808260001916600019168152602001915050602060405180830381600087803b15801561114857600080fd5b505af115801561115c573d6000803e3d6000fd5b505050506040513d602081101561117257600080fd5b81019080805190602001909291905050501015151561119057600080fd5b600073ffffffffffffffffffffffffffffffffffffffff166000809054906101000a900473ffffffffffffffffffffffffffffffffffffffff1673ffffffffffffffffffffffffffffffffffffffff166304f49a3a8c60405180807f61737365744f70657261746f7200000000000000000000000000000000000000815250600d01826000191660001916815260200191505060405180910390206040518263ffffffff167c0100000000000000000000000000000000000000000000000000000000028152600401808260001916600019168152602001915050602060405180830381600087803b15801561128557600080fd5b505af1158015611299573d6000803e3d6000fd5b505050506040513d60208110156112af57600080fd5b810190808051906020019092919050505073ffffffffffffffffffffffffffffffffffffffff161415156112e257600080fd5b606489101515156112f257600080fd5b60008060009054906101000a900473ffffffffffffffffffffffffffffffffffffffff1673ffffffffffffffffffffffffffffffffffffffff1663a855d4ce8c60405180807f66756e64696e6753746167650000000000000000000000000000000000000000815250600c01826000191660001916815260200191505060405180910390206040518263ffffffff167c0100000000000000000000000000000000000000000000000000000000028152600401808260001916600019168152602001915050602060405180830381600087803b1580156113d157600080fd5b505af11580156113e5573d6000803e3d6000fd5b505050506040513d60208110156113fb57600080fd5b810190808051906020019092919050505014151561141857600080fd5b6064881080156114285750600088115b151561143357600080fd5b6000871115611452576114468a8861242d565b151561145157600080fd5b5b6000809054906101000a900473ffffffffffffffffffffffffffffffffffffffff1673ffffffffffffffffffffffffffffffffffffffff1663e2a4853a8b60405180807f616d6f756e74546f426552616973656400000000000000000000000000000000815250601001826000191660001916815260200191505060405180910390208b6040518363ffffffff167c010000000000000000000000000000000000000000000000000000000002815260040180836000191660001916815260200182815260200192505050600060405180830381600087803b15801561153757600080fd5b505af115801561154b573d6000803e3d6000fd5b505050506000809054906101000a900473ffffffffffffffffffffffffffffffffffffffff1673ffffffffffffffffffffffffffffffffffffffff1663e2a4853a8b60405180807f6f70657261746f7250657263656e746167650000000000000000000000000000815250601201826000191660001916815260200191505060405180910390208a6040518363ffffffff167c010000000000000000000000000000000000000000000000000000000002815260040180836000191660001916815260200182815260200192505050600060405180830381600087803b15801561163457600080fd5b505af1158015611648573d6000803e3d6000fd5b505050506000809054906101000a900473ffffffffffffffffffffffffffffffffffffffff1673ffffffffffffffffffffffffffffffffffffffff1663ca446dd98b60405180807f61737365744f70657261746f7200000000000000000000000000000000000000815250600d0182600019166000191681526020019150506040518091039020336040518363ffffffff167c01000000000000000000000000000000000000000000000000000000000281526004018083600019166000191681526020018273ffffffffffffffffffffffffffffffffffffffff1673ffffffffffffffffffffffffffffffffffffffff16815260200192505050600060405180830381600087803b15801561175d57600080fd5b505af1158015611771573d6000803e3d6000fd5b505050506000809054906101000a900473ffffffffffffffffffffffffffffffffffffffff1673ffffffffffffffffffffffffffffffffffffffff1663e2a4853a8b60405180807f66756e64696e67446561646c696e650000000000000000000000000000000000815250600f018260001916600019168152602001915050604051809103902061180d6001544261240f90919063ffffffff16565b6040518363ffffffff167c010000000000000000000000000000000000000000000000000000000002815260040180836000191660001916815260200182815260200192505050600060405180830381600087803b15801561186e57600080fd5b505af1158015611882573d6000803e3d6000fd5b505050506000809054906101000a900473ffffffffffffffffffffffffffffffffffffffff1673ffffffffffffffffffffffffffffffffffffffff1663e2a4853a8b60405180807f66756e64696e6753746167650000000000000000000000000000000000000000815250600c018260001916600019168152602001915050604051809103902060016040518363ffffffff167c010000000000000000000000000000000000000000000000000000000002815260040180836000191660001916815260200182815260200192505050600060405180830381600087803b15801561196c57600080fd5b505af1158015611980573d6000803e3d6000fd5b505050508886600019168b600019167f609b06e74234611cce138c2319555b5bc31117026c15af99c158448c69f5074e60405160405180910390a484600019168a600019163373ffffffffffffffffffffffffffffffffffffffff167fa4ef2c585da46bbd7f9fb2e28c05bf0d80b64e3750d460dabeea3354233e335560405160405180910390a46001935050505060008060146101000a81548160ff0219169083151502179055509695505050505050565b60008060009054906101000a900473ffffffffffffffffffffffffffffffffffffffff1673ffffffffffffffffffffffffffffffffffffffff16633b7bfda03360405180807f6f776e65720000000000000000000000000000000000000000000000000000008152506005018273ffffffffffffffffffffffffffffffffffffffff1673ffffffffffffffffffffffffffffffffffffffff166c0100000000000000000000000002815260140191505060405180910390206040518263ffffffff167c0100000000000000000000000000000000000000000000000000000000028152600401808260001916600019168152602001915050602060405180830381600087803b158015611b4557600080fd5b505af1158015611b59573d6000803e3d6000fd5b505050506040513d6020811015611b6f57600080fd5b81019080805190602001909291905050501515611b8b57600080fd5b8160008114151515611b9c57600080fd5b826001819055507f85ed3756b823f61504ebdd0b4adbdef646291ff264a45b9d5612128fadae3b23338442604051808473ffffffffffffffffffffffffffffffffffffffff1673ffffffffffffffffffffffffffffffffffffffff168152602001838152602001828152602001935050505060405180910390a16001915050919050565b60015481565b6000806000809054906101000a900473ffffffffffffffffffffffffffffffffffffffff1673ffffffffffffffffffffffffffffffffffffffff16633b7bfda03360405180807f6f776e65720000000000000000000000000000000000000000000000000000008152506005018273ffffffffffffffffffffffffffffffffffffffff1673ffffffffffffffffffffffffffffffffffffffff166c0100000000000000000000000002815260140191505060405180910390206040518263ffffffff167c0100000000000000000000000000000000000000000000000000000000028152600401808260001916600019168152602001915050602060405180830381600087803b158015611d3957600080fd5b505af1158015611d4d573d6000803e3d6000fd5b505050506040513d6020811015611d6357600080fd5b81019080805190602001909291905050501515611d7f57600080fd5b83600060010260001916816000191614151515611d9b57600080fd5b6000809054906101000a900473ffffffffffffffffffffffffffffffffffffffff1673ffffffffffffffffffffffffffffffffffffffff16633b7bfda03060405180807f70617573650000000000000000000000000000000000000000000000000000008152506005018273ffffffffffffffffffffffffffffffffffffffff1673ffffffffffffffffffffffffffffffffffffffff166c0100000000000000000000000002815260140191505060405180910390206040518263ffffffff167c0100000000000000000000000000000000000000000000000000000000028152600401808260001916600019168152602001915050602060405180830381600087803b158015611eab57600080fd5b505af1158015611ebf573d6000803e3d6000fd5b505050506040513d6020811015611ed557600080fd5b8101908080519060200190929190505050151515611ef257600080fd5b3373ffffffffffffffffffffffffffffffffffffffff168473ffffffffffffffffffffffffffffffffffffffff1614151515611f2d57600080fd5b60008060009054906101000a900473ffffffffffffffffffffffffffffffffffffffff1673ffffffffffffffffffffffffffffffffffffffff1663a855d4ce8760405180807f66756e64696e6753746167650000000000000000000000000000000000000000815250600c01826000191660001916815260200191505060405180910390206040518263ffffffff167c0100000000000000000000000000000000000000000000000000000000028152600401808260001916600019168152602001915050602060405180830381600087803b15801561200c57600080fd5b505af1158015612020573d6000803e3d6000fd5b505050506040513d602081101561203657600080fd5b810190808051906020019092919050505011151561205357600080fd5b308486604051808473ffffffffffffffffffffffffffffffffffffffff1673ffffffffffffffffffffffffffffffffffffffff166c010000000000000000000000000281526014018373ffffffffffffffffffffffffffffffffffffffff1673ffffffffffffffffffffffffffffffffffffffff166c01000000000000000000000000028152601401807f72656d6f76654173736574000000000000000000000000000000000000000000815250600b0182600019166000191681526020019350505050604051809103902091506000809054906101000a900473ffffffffffffffffffffffffffffffffffffffff1673ffffffffffffffffffffffffffffffffffffffff16633b7bfda0836040518263ffffffff167c0100000000000000000000000000000000000000000000000000000000028152600401808260001916600019168152602001915050602060405180830381600087803b1580156121b957600080fd5b505af11580156121cd573d6000803e3d6000fd5b505050506040513d60208110156121e357600080fd5b810190808051906020019092919050505015156121ff57600080fd5b6000809054906101000a900473ffffffffffffffffffffffffffffffffffffffff1673ffffffffffffffffffffffffffffffffffffffff1663abfdcced8360006040518363ffffffff167c01000000000000000000000000000000000000000000000000000000000281526004018083600019166000191681526020018215151515815260200192505050600060405180830381600087803b1580156122a457600080fd5b505af11580156122b8573d6000803e3d6000fd5b505050506000809054906101000a900473ffffffffffffffffffffffffffffffffffffffff1673ffffffffffffffffffffffffffffffffffffffff1663e2a4853a8660405180807f66756e64696e6753746167650000000000000000000000000000000000000000815250600c018260001916600019168152602001915050604051809103902060056040518363ffffffff167c010000000000000000000000000000000000000000000000000000000002815260040180836000191660001916815260200182815260200192505050600060405180830381600087803b1580156123a257600080fd5b505af11580156123b6573d6000803e3d6000fd5b505050504285600019163373ffffffffffffffffffffffffffffffffffffffff167fd203d6c726fa4279923e18ab53e0940d7c1b64821515f8c6c98a74b01f6f42b160405160405180910390a460019250505092915050565b600080828401905083811015151561242357fe5b8091505092915050565b6000806000809054906101000a900473ffffffffffffffffffffffffffffffffffffffff1673ffffffffffffffffffffffffffffffffffffffff1663e2a4853a8560405180807f6c6f636b6564466f724173736574000000000000000000000000000000000000815250600e0182600019166000191681526020019150506040518091039020856040518363ffffffff167c010000000000000000000000000000000000000000000000000000000002815260040180836000191660001916815260200182815260200192505050600060405180830381600087803b15801561251557600080fd5b505af1158015612529573d6000803e3d6000fd5b505050506000809054906101000a900473ffffffffffffffffffffffffffffffffffffffff1673ffffffffffffffffffffffffffffffffffffffff1663a855d4ce3360405180807f6f70657261746f72416d6f756e74457363726f776564000000000000000000008152506016018273ffffffffffffffffffffffffffffffffffffffff1673ffffffffffffffffffffffffffffffffffffffff166c0100000000000000000000000002815260140191505060405180910390206040518263ffffffff167c0100000000000000000000000000000000000000000000000000000000028152600401808260001916600019168152602001915050602060405180830381600087803b15801561263d57600080fd5b505af1158015612651573d6000803e3d6000fd5b505050506040513d602081101561266757600080fd5b810190808051906020019092919050505090506127d7816000809054906101000a900473ffffffffffffffffffffffffffffffffffffffff1673ffffffffffffffffffffffffffffffffffffffff1663a855d4ce3360405180807f6f70657261746f72416d6f756e744465706f73697465640000000000000000008152506017018273ffffffffffffffffffffffffffffffffffffffff1673ffffffffffffffffffffffffffffffffffffffff166c0100000000000000000000000002815260140191505060405180910390206040518263ffffffff167c0100000000000000000000000000000000000000000000000000000000028152600401808260001916600019168152602001915050602060405180830381600087803b15801561278e57600080fd5b505af11580156127a2573d6000803e3d6000fd5b505050506040513d60208110156127b857600080fd5b810190808051906020019092919050505061297890919063ffffffff16565b83111515156127e257fe5b6000809054906101000a900473ffffffffffffffffffffffffffffffffffffffff1673ffffffffffffffffffffffffffffffffffffffff1663e2a4853a3360405180807f6f70657261746f72416d6f756e74457363726f776564000000000000000000008152506016018273ffffffffffffffffffffffffffffffffffffffff1673ffffffffffffffffffffffffffffffffffffffff166c0100000000000000000000000002815260140191505060405180910390206128ab868561240f90919063ffffffff16565b6040518363ffffffff167c010000000000000000000000000000000000000000000000000000000002815260040180836000191660001916815260200182815260200192505050600060405180830381600087803b15801561290c57600080fd5b505af1158015612920573d6000803e3d6000fd5b505050508284600019163373ffffffffffffffffffffffffffffffffffffffff167f46de2172a8f88c59309b78570b71c2e0fc3f0bf967bf7a7652a3e00ac97e682f60405160405180910390a4600191505092915050565b600082821115151561298657fe5b8183039050929150505600a165627a7a72305820e3deb707a26e62693d17d97e437c85b9ee133994166d48a3dfab5b94e868f4690029",
  "source": "pragma solidity 0.4.23;\nimport './Database.sol';\nimport './SafeMath.sol';\n\n//----------------------------------------------------------------------------------------------------------------------------------------\n// This contract is where users can initite funding periods for new assets. \n// Stores asset information in Database. Owners can modify funding variables here.\n//----------------------------------------------------------------------------------------------------------------------------------------\ncontract AssetCreation {\n  using SafeMath for *;\n\n  Database public database;\n  bool private rentrancy_lock = false;    // Prevents re-entrancy attack\n  uint public fundingTime = 3000;        // TODO: Number for testing\n\n  constructor(address _database)\n  public  {\n      database = Database(_database);\n  }\n\n  //----------------------------------------------------------------------------------------------------------------------------------------\n  // This begins the funding period for an asset. If asset is success it will be added to the assets variable here in AssetCreation\n  // @Param: The storage hash created from IPFS. WIll act as the ID for this asset if funding is a success\n  // @Param: The amount of USD required for asset to achieve successfull funding\n  // @Param: The percentage of revenue the operator will require to run the asset\n  // @Param: The amount the operator has decided to escrow\n  // @Param: The ID of the installer of this asset\n  // @Param: The type of asset being created. (ie. Sha3(\"BitcoinATM\"))\n  //----------------------------------------------------------------------------------------------------------------------------------------\n  function newAsset(bytes32 _assetID, uint _amountToBeRaised, uint _operatorPercentage, uint _amountToEscrow, bytes32 _installerID, bytes32 _assetType)\n  external\n  whenNotPaused\n  nonReentrant\n  noEmptyBytes(_assetID)\n  noEmptyBytes(_installerID)\n  noEmptyBytes(_assetType)\n  returns (bool){\n    require(database.uintStorage(keccak256(\"userAccess\", msg.sender)) >= uint(1));\n    require(database.addressStorage(keccak256(\"assetOperator\", _assetID)) == address(0));    // Check that another user didn't already submit escrow for this asset\n    require(_amountToBeRaised >= uint(100));\n    require(database.uintStorage(keccak256(\"fundingStage\", _assetID)) == uint(0));    // This ensures the asset isn't currently live or being funded\n    require(_operatorPercentage < uint(100) && _operatorPercentage > uint(0));\n    if (_amountToEscrow > 0) { require(lockAssetEscrow(_assetID, _amountToEscrow)); }\n    database.setUint(keccak256(\"amountToBeRaised\", _assetID), _amountToBeRaised);\n    database.setUint(keccak256(\"operatorPercentage\", _assetID), _operatorPercentage);\n    database.setAddress(keccak256(\"assetOperator\", _assetID), msg.sender);\n    database.setUint(keccak256(\"fundingDeadline\", _assetID), block.timestamp.add(fundingTime));\n    database.setUint(keccak256(\"fundingStage\", _assetID), 1);\n    emit LogAssetInfo(_assetID, _installerID, _amountToBeRaised);\n    emit LogAssetFundingStarted(msg.sender, _assetID, _assetType);\n    return true;\n  }\n\n  //----------------------------------------------------------------------------------------------------------------------------------------\n  // This fn locks MyBit tokens to the asset for the length of it's lifecycle\n  //----------------------------------------------------------------------------------------------------------------------------------------\n  function lockAssetEscrow(bytes32 _assetID, uint _amountToEscrow)\n  internal\n  returns (bool) {\n    database.setUint(keccak256(\"lockedForAsset\", _assetID), _amountToEscrow);\n    uint lockedAmount = database.uintStorage(keccak256(\"operatorAmountEscrowed\", msg.sender));\n    assert (_amountToEscrow <= database.uintStorage(keccak256(\"operatorAmountDeposited\", msg.sender)).sub(lockedAmount));\n    database.setUint(keccak256(\"operatorAmountEscrowed\", msg.sender), lockedAmount.add(_amountToEscrow));\n    emit LogLockAssetEscrow(msg.sender, _assetID, _amountToEscrow);\n    return true;\n  }\n\n  //----------------------------------------------------------------------------------------------------------------------------------------\n  // This removes asset functionality by setting it to an invalid stage. Must leave variables as users may need to withdrawl income.\n  // Other owner must have approved the function to be called in Owned.sol (authorizeFunction())\n  //----------------------------------------------------------------------------------------------------------------------------------------\n  function removeAsset(bytes32 _assetID, address _functionSigner)\n  external\n  anyOwner\n  noEmptyBytes(_assetID)\n  whenNotPaused\n  returns(bool) {\n    require (_functionSigner != msg.sender);\n    require(database.uintStorage(keccak256(\"fundingStage\", _assetID)) > uint(0));\n    bytes32 functionHash = keccak256(this, _functionSigner, \"removeAsset\", _assetID);\n    require(database.boolStorage(functionHash));\n    database.setBool(functionHash, false);\n    database.setUint(keccak256(\"fundingStage\", _assetID), uint(5));   // Asset won't receive income & ownership won't be able to be traded.\n    emit LogAssetRemoved(msg.sender, _assetID, block.timestamp);\n    return true;\n  }\n\n  //----------------------------------------------------------------------------------------------------------------------------------------\n  // Change the default funding time for new assets\n  // Invariants: Only owner[0] can call  |  new funding time is not 0\n  //----------------------------------------------------------------------------------------------------------------------------------------\n  function changeFundingTime(uint _newTimeGivenForFunding)\n  external\n  anyOwner\n  notZero(_newTimeGivenForFunding)\n  returns (bool) {\n    fundingTime = _newTimeGivenForFunding;\n    emit LogFundingTimeChanged(msg.sender, _newTimeGivenForFunding, block.timestamp);\n    return true;\n  }\n\n  //----------------------------------------------------------------------------------------------------------------------------------------\n  // Changes the platform fees received from funded assets\n  // Requires multi-sig verification. With sha3() of the agreed percentages as the beneficiary parameter\n  //----------------------------------------------------------------------------------------------------------------------------------------\n  function changeFundingPercentages(uint _myBitFoundationPercentage, uint _installerPercentage, address _functionSigner)\n  external\n  anyOwner\n  notZero(_myBitFoundationPercentage)\n  notZero(_installerPercentage)\n  returns (bool) {\n    bytes32 functionHash = keccak256(this, _functionSigner, \"changeFundingPercentages\", keccak256(_myBitFoundationPercentage, _installerPercentage));\n    require(database.boolStorage(functionHash));\n    require(_myBitFoundationPercentage.add(_installerPercentage) == 100);\n    database.setBool(functionHash, false);\n    database.setUint(keccak256(\"myBitFoundationPercentage\"), _myBitFoundationPercentage);\n    database.setUint(keccak256(\"installerPercentage\"), _installerPercentage);\n    emit LogFundingPercentageChanged(_myBitFoundationPercentage, _installerPercentage);\n    return true;\n  }\n\n  //----------------------------------------------------------------------------------------------------------------------------------------\n  // Must be authorized by 1 of the 3 owners and then can be called by any of the other 2\n  // @Param: The address of the owner who authorized this function to be called in\n  // Invariants: Must be 1 of 3 owners. Cannot be called by same owner who authorized the function to be called.\n  //----------------------------------------------------------------------------------------------------------------------------------------\n  function destroy(address _functionInitiator, address _holdingAddress)\n  anyOwner\n  public {\n    require(_functionInitiator != msg.sender);\n    bytes32 functionHash = keccak256(this, _functionInitiator, \"destroy\", keccak256(_holdingAddress));\n    require(database.boolStorage(functionHash));\n    database.setBool(functionHash, false);\n    emit LogDestruction(_holdingAddress, this.balance, msg.sender);\n    selfdestruct(_holdingAddress);\n  }\n\n\n\n  //------------------------------------------------------------------------------------------------------------------\n  //                                            Modifiers\n  //------------------------------------------------------------------------------------------------------------------\n\n  //------------------------------------------------------------------------------------------------------------------\n  // Makes sure function won't run when contract has been paused \n  //------------------------------------------------------------------------------------------------------------------\n  modifier whenNotPaused {\n    require(!database.boolStorage(keccak256(\"pause\", this)));\n    _;\n  }\n\n  //------------------------------------------------------------------------------------------------------------------\n  // Don't accept null value for bytes32 parameter\n  //------------------------------------------------------------------------------------------------------------------\n  modifier noEmptyBytes(bytes32 _data) {\n    require(_data != bytes32(0));\n    _;\n  }\n\n  //------------------------------------------------------------------------------------------------------------------\n  // Don't accept null value for uint \n  //------------------------------------------------------------------------------------------------------------------\n  modifier notZero(uint _uint) {\n    require(_uint != 0);\n    _;\n  }\n\n  //------------------------------------------------------------------------------------------------------------------\n  // Sender must be a registered owner \n  //------------------------------------------------------------------------------------------------------------------\n  modifier anyOwner {\n    require(database.boolStorage(keccak256(\"owner\", msg.sender)));\n    _;\n  }\n\n  //------------------------------------------------------------------------------------------------------------------\n  // Prevents contracts from re-entering function before the transaction finishes\n  //------------------------------------------------------------------------------------------------------------------\n  modifier nonReentrant() {\n    require(!rentrancy_lock);\n    rentrancy_lock = true;\n    _;\n    rentrancy_lock = false;\n  }\n\n  //------------------------------------------------------------------------------------------------------------------\n  //                                            Events\n  //------------------------------------------------------------------------------------------------------------------\n\n  event LogAssetFundingStarted(address indexed _creator, bytes32 indexed _assetID, bytes32 indexed _assetType);\n  event LogAssetInfo(bytes32 indexed _assetID, bytes32 indexed _installerID, uint indexed _amountToBeRaised);\n  event LogLockAssetEscrow(address indexed _from, bytes32 indexed _assetID, uint indexed _amountOf);\n  event LogAssetRemoved(address indexed _remover, bytes32 indexed _assetID, uint indexed _timestamp);\n  event LogFundingTimeChanged(address _sender, uint _newTimeForFunding, uint _blockTimestamp);\n  event LogFundingPercentageChanged(uint _myBitFoundationPercentage, uint _installerPercentage);\n  event LogDestruction(address indexed _locationSent, uint indexed _amountSent, address indexed _caller);\n}\n",
  "sourcePath": "/var/www/html/mybit/dapp/Contracts/contracts/AssetCreation.sol",
  "compiler": {
    "name": "solc",
    "version": "0.4.23+commit.124ca40d.Emscripten.clang"
  },
  "schemaVersion": "2.0.0",
  "updatedAt": "2018-05-15T12:10:07.879Z"
}