{
  "contractName": "ContractManager",
  "abi": [
    {
      "constant": true,
      "inputs": [],
      "name": "database",
      "outputs": [
        {
          "name": "",
          "type": "address"
        }
      ],
      "payable": false,
      "stateMutability": "view",
      "type": "function"
    },
    {
      "inputs": [
        {
          "name": "_database",
          "type": "address"
        }
      ],
      "payable": false,
      "stateMutability": "nonpayable",
      "type": "constructor"
    },
    {
      "anonymous": false,
      "inputs": [
        {
          "indexed": false,
          "name": "_contractAddress",
          "type": "address"
        },
        {
          "indexed": false,
          "name": "_name",
          "type": "string"
        },
        {
          "indexed": false,
          "name": "_blockNumber",
          "type": "uint256"
        }
      ],
      "name": "LogContractAdded",
      "type": "event"
    },
    {
      "anonymous": false,
      "inputs": [
        {
          "indexed": false,
          "name": "contractToDelete",
          "type": "address"
        },
        {
          "indexed": false,
          "name": "_name",
          "type": "string"
        },
        {
          "indexed": false,
          "name": "_blockNumber",
          "type": "uint256"
        }
      ],
      "name": "LogContractRemoved",
      "type": "event"
    },
    {
      "anonymous": false,
      "inputs": [
        {
          "indexed": false,
          "name": "oldAddress",
          "type": "address"
        },
        {
          "indexed": false,
          "name": "_name",
          "type": "string"
        },
        {
          "indexed": false,
          "name": "_blockNumber",
          "type": "uint256"
        }
      ],
      "name": "LogContractUpdated",
      "type": "event"
    },
    {
      "anonymous": false,
      "inputs": [
        {
          "indexed": false,
          "name": "_contractAddress",
          "type": "address"
        },
        {
          "indexed": false,
          "name": "_name",
          "type": "string"
        },
        {
          "indexed": false,
          "name": "_blockNumber",
          "type": "uint256"
        }
      ],
      "name": "LogNewContractLocation",
      "type": "event"
    },
    {
      "constant": false,
      "inputs": [],
      "name": "setDeployFinished",
      "outputs": [],
      "payable": false,
      "stateMutability": "nonpayable",
      "type": "function"
    },
    {
      "constant": false,
      "inputs": [
        {
          "name": "_name",
          "type": "string"
        },
        {
          "name": "_contractAddress",
          "type": "address"
        },
        {
          "name": "_functionSigner",
          "type": "address"
        }
      ],
      "name": "addContract",
      "outputs": [],
      "payable": false,
      "stateMutability": "nonpayable",
      "type": "function"
    },
    {
      "constant": false,
      "inputs": [
        {
          "name": "_name",
          "type": "string"
        },
        {
          "name": "_functionSigner",
          "type": "address"
        }
      ],
      "name": "removeContract",
      "outputs": [],
      "payable": false,
      "stateMutability": "nonpayable",
      "type": "function"
    },
    {
      "constant": false,
      "inputs": [
        {
          "name": "_name",
          "type": "string"
        },
        {
          "name": "_newContractAddress",
          "type": "address"
        },
        {
          "name": "_functionSigner",
          "type": "address"
        }
      ],
      "name": "updateContract",
      "outputs": [],
      "payable": false,
      "stateMutability": "nonpayable",
      "type": "function"
    },
    {
      "constant": true,
      "inputs": [
        {
          "name": "_contract",
          "type": "address"
        }
      ],
      "name": "contractExists",
      "outputs": [
        {
          "name": "",
          "type": "bool"
        }
      ],
      "payable": false,
      "stateMutability": "view",
      "type": "function"
    }
  ],
  "bytecode": "0x608060405234801561001057600080fd5b506040516020806127e88339810180604052810190808051906020019092919050505080600073ffffffffffffffffffffffffffffffffffffffff168173ffffffffffffffffffffffffffffffffffffffff161415151561007057600080fd5b816000806101000a81548173ffffffffffffffffffffffffffffffffffffffff021916908373ffffffffffffffffffffffffffffffffffffffff1602179055505050612727806100c16000396000f300608060405260043610610078576000357c0100000000000000000000000000000000000000000000000000000000900463ffffffff168063713b563f1461007d578063762d413f146100d45780637709bc781461012f57806385ed29941461018a578063c5592be214610205578063d6bc578114610280575b600080fd5b34801561008957600080fd5b50610092610297565b604051808273ffffffffffffffffffffffffffffffffffffffff1673ffffffffffffffffffffffffffffffffffffffff16815260200191505060405180910390f35b3480156100e057600080fd5b5061012d600480360381019080803590602001908201803590602001919091929391929390803573ffffffffffffffffffffffffffffffffffffffff1690602001909291905050506102bc565b005b34801561013b57600080fd5b50610170600480360381019080803573ffffffffffffffffffffffffffffffffffffffff169060200190929190505050610c52565b604051808215151515815260200191505060405180910390f35b34801561019657600080fd5b50610203600480360381019080803590602001908201803590602001919091929391929390803573ffffffffffffffffffffffffffffffffffffffff169060200190929190803573ffffffffffffffffffffffffffffffffffffffff169060200190929190505050610da6565b005b34801561021157600080fd5b5061027e600480360381019080803590602001908201803590602001919091929391929390803573ffffffffffffffffffffffffffffffffffffffff169060200190929190803573ffffffffffffffffffffffffffffffffffffffff169060200190929190505050611960565b005b34801561028c57600080fd5b506102956124b1565b005b6000809054906101000a900473ffffffffffffffffffffffffffffffffffffffff1681565b600083838080601f016020809104026020016040519081016040528093929190818152602001838380828437820191505050505050600081511415151561030257600080fd5b826040805190810160405280600e81526020017f72656d6f7665436f6e747261637400000000000000000000000000000000000081525086866040518083838082843782019150509250505060405180910390208273ffffffffffffffffffffffffffffffffffffffff163373ffffffffffffffffffffffffffffffffffffffff161415151561039157600080fd5b6000809054906101000a900473ffffffffffffffffffffffffffffffffffffffff1673ffffffffffffffffffffffffffffffffffffffff16633b7bfda030858585604051808573ffffffffffffffffffffffffffffffffffffffff1673ffffffffffffffffffffffffffffffffffffffff166c010000000000000000000000000281526014018473ffffffffffffffffffffffffffffffffffffffff1673ffffffffffffffffffffffffffffffffffffffff166c0100000000000000000000000002815260140183805190602001908083835b6020831015156104895780518252602082019150602081019050602083039250610464565b6001836020036101000a038019825116818451168082178552505050505050905001826000191660001916815260200194505050505060405180910390206040518263ffffffff167c0100000000000000000000000000000000000000000000000000000000028152600401808260001916600019168152602001915050602060405180830381600087803b15801561052157600080fd5b505af1158015610535573d6000803e3d6000fd5b505050506040513d602081101561054b57600080fd5b8101908080519060200190929190505050151561056757600080fd5b6000809054906101000a900473ffffffffffffffffffffffffffffffffffffffff1673ffffffffffffffffffffffffffffffffffffffff1663abfdcced30858585604051808573ffffffffffffffffffffffffffffffffffffffff1673ffffffffffffffffffffffffffffffffffffffff166c010000000000000000000000000281526014018473ffffffffffffffffffffffffffffffffffffffff1673ffffffffffffffffffffffffffffffffffffffff166c0100000000000000000000000002815260140183805190602001908083835b60208310151561065f578051825260208201915060208101905060208303925061063a565b6001836020036101000a0380198251168184511680821785525050505050509050018260001916600019168152602001945050505050604051809103902060006040518363ffffffff167c01000000000000000000000000000000000000000000000000000000000281526004018083600019166000191681526020018215151515815260200192505050600060405180830381600087803b15801561070457600080fd5b505af1158015610718573d6000803e3d6000fd5b505050506000809054906101000a900473ffffffffffffffffffffffffffffffffffffffff1673ffffffffffffffffffffffffffffffffffffffff16633b7bfda03360405180807f6f776e65720000000000000000000000000000000000000000000000000000008152506005018273ffffffffffffffffffffffffffffffffffffffff1673ffffffffffffffffffffffffffffffffffffffff166c0100000000000000000000000002815260140191505060405180910390206040518263ffffffff167c0100000000000000000000000000000000000000000000000000000000028152600401808260001916600019168152602001915050602060405180830381600087803b15801561082c57600080fd5b505af1158015610840573d6000803e3d6000fd5b505050506040513d602081101561085657600080fd5b8101908080519060200190929190505050151561087257600080fd5b6000809054906101000a900473ffffffffffffffffffffffffffffffffffffffff1673ffffffffffffffffffffffffffffffffffffffff166304f49a3a898960405180807f636f6e747261637400000000000000000000000000000000000000000000000081525060080183838082843782019150509250505060405180910390206040518263ffffffff167c0100000000000000000000000000000000000000000000000000000000028152600401808260001916600019168152602001915050602060405180830381600087803b15801561094e57600080fd5b505af1158015610962573d6000803e3d6000fd5b505050506040513d602081101561097857600080fd5b8101908080519060200190929190505050945061099485610c52565b151561099f57600080fd5b6000809054906101000a900473ffffffffffffffffffffffffffffffffffffffff1673ffffffffffffffffffffffffffffffffffffffff16632c62ff2d8660405180807f636f6e74726163740000000000000000000000000000000000000000000000008152506008018273ffffffffffffffffffffffffffffffffffffffff1673ffffffffffffffffffffffffffffffffffffffff166c0100000000000000000000000002815260140191505060405180910390206040518263ffffffff167c0100000000000000000000000000000000000000000000000000000000028152600401808260001916600019168152602001915050600060405180830381600087803b158015610aaf57600080fd5b505af1158015610ac3573d6000803e3d6000fd5b505050506000809054906101000a900473ffffffffffffffffffffffffffffffffffffffff1673ffffffffffffffffffffffffffffffffffffffff16630e14a376898960405180807f636f6e747261637400000000000000000000000000000000000000000000000081525060080183838082843782019150509250505060405180910390206040518263ffffffff167c0100000000000000000000000000000000000000000000000000000000028152600401808260001916600019168152602001915050600060405180830381600087803b158015610ba357600080fd5b505af1158015610bb7573d6000803e3d6000fd5b505050507f72aac8395bac616262b6b467498809c06a565453df34e67f6ad56914d20a42bf85898943604051808573ffffffffffffffffffffffffffffffffffffffff1673ffffffffffffffffffffffffffffffffffffffff16815260200180602001838152602001828103825285858281815260200192508082843782019150509550505050505060405180910390a15050505050505050565b60008060009054906101000a900473ffffffffffffffffffffffffffffffffffffffff1673ffffffffffffffffffffffffffffffffffffffff16633b7bfda08360405180807f636f6e74726163740000000000000000000000000000000000000000000000008152506008018273ffffffffffffffffffffffffffffffffffffffff1673ffffffffffffffffffffffffffffffffffffffff166c0100000000000000000000000002815260140191505060405180910390206040518263ffffffff167c0100000000000000000000000000000000000000000000000000000000028152600401808260001916600019168152602001915050602060405180830381600087803b158015610d6457600080fd5b505af1158015610d78573d6000803e3d6000fd5b505050506040513d6020811015610d8e57600080fd5b81019080805190602001909291905050509050919050565b600082600073ffffffffffffffffffffffffffffffffffffffff168173ffffffffffffffffffffffffffffffffffffffff1614151515610de557600080fd5b826040805190810160405280600e81526020017f757064617465436f6e747261637400000000000000000000000000000000000081525085604051808273ffffffffffffffffffffffffffffffffffffffff1673ffffffffffffffffffffffffffffffffffffffff166c0100000000000000000000000002815260140191505060405180910390208273ffffffffffffffffffffffffffffffffffffffff163373ffffffffffffffffffffffffffffffffffffffff1614151515610ea857600080fd5b6000809054906101000a900473ffffffffffffffffffffffffffffffffffffffff1673ffffffffffffffffffffffffffffffffffffffff16633b7bfda030858585604051808573ffffffffffffffffffffffffffffffffffffffff1673ffffffffffffffffffffffffffffffffffffffff166c010000000000000000000000000281526014018473ffffffffffffffffffffffffffffffffffffffff1673ffffffffffffffffffffffffffffffffffffffff166c0100000000000000000000000002815260140183805190602001908083835b602083101515610fa05780518252602082019150602081019050602083039250610f7b565b6001836020036101000a038019825116818451168082178552505050505050905001826000191660001916815260200194505050505060405180910390206040518263ffffffff167c0100000000000000000000000000000000000000000000000000000000028152600401808260001916600019168152602001915050602060405180830381600087803b15801561103857600080fd5b505af115801561104c573d6000803e3d6000fd5b505050506040513d602081101561106257600080fd5b8101908080519060200190929190505050151561107e57600080fd5b6000809054906101000a900473ffffffffffffffffffffffffffffffffffffffff1673ffffffffffffffffffffffffffffffffffffffff1663abfdcced30858585604051808573ffffffffffffffffffffffffffffffffffffffff1673ffffffffffffffffffffffffffffffffffffffff166c010000000000000000000000000281526014018473ffffffffffffffffffffffffffffffffffffffff1673ffffffffffffffffffffffffffffffffffffffff166c0100000000000000000000000002815260140183805190602001908083835b6020831015156111765780518252602082019150602081019050602083039250611151565b6001836020036101000a0380198251168184511680821785525050505050509050018260001916600019168152602001945050505050604051809103902060006040518363ffffffff167c01000000000000000000000000000000000000000000000000000000000281526004018083600019166000191681526020018215151515815260200192505050600060405180830381600087803b15801561121b57600080fd5b505af115801561122f573d6000803e3d6000fd5b505050506000809054906101000a900473ffffffffffffffffffffffffffffffffffffffff1673ffffffffffffffffffffffffffffffffffffffff16633b7bfda03360405180807f6f776e65720000000000000000000000000000000000000000000000000000008152506005018273ffffffffffffffffffffffffffffffffffffffff1673ffffffffffffffffffffffffffffffffffffffff166c0100000000000000000000000002815260140191505060405180910390206040518263ffffffff167c0100000000000000000000000000000000000000000000000000000000028152600401808260001916600019168152602001915050602060405180830381600087803b15801561134357600080fd5b505af1158015611357573d6000803e3d6000fd5b505050506040513d602081101561136d57600080fd5b8101908080519060200190929190505050151561138957600080fd5b6000809054906101000a900473ffffffffffffffffffffffffffffffffffffffff1673ffffffffffffffffffffffffffffffffffffffff166304f49a3a8a8a60405180807f636f6e747261637400000000000000000000000000000000000000000000000081525060080183838082843782019150509250505060405180910390206040518263ffffffff167c0100000000000000000000000000000000000000000000000000000000028152600401808260001916600019168152602001915050602060405180830381600087803b15801561146557600080fd5b505af1158015611479573d6000803e3d6000fd5b505050506040513d602081101561148f57600080fd5b810190808051906020019092919050505094506114ab85610c52565b15156114b657600080fd5b6000809054906101000a900473ffffffffffffffffffffffffffffffffffffffff1673ffffffffffffffffffffffffffffffffffffffff1663ca446dd98a8a60405180807f636f6e74726163740000000000000000000000000000000000000000000000008152506008018383808284378201915050925050506040518091039020896040518363ffffffff167c01000000000000000000000000000000000000000000000000000000000281526004018083600019166000191681526020018273ffffffffffffffffffffffffffffffffffffffff1673ffffffffffffffffffffffffffffffffffffffff16815260200192505050600060405180830381600087803b1580156115c657600080fd5b505af11580156115da573d6000803e3d6000fd5b505050506000809054906101000a900473ffffffffffffffffffffffffffffffffffffffff1673ffffffffffffffffffffffffffffffffffffffff1663abfdcced8860405180807f636f6e74726163740000000000000000000000000000000000000000000000008152506008018273ffffffffffffffffffffffffffffffffffffffff1673ffffffffffffffffffffffffffffffffffffffff166c01000000000000000000000000028152601401915050604051809103902060016040518363ffffffff167c01000000000000000000000000000000000000000000000000000000000281526004018083600019166000191681526020018215151515815260200192505050600060405180830381600087803b1580156116fb57600080fd5b505af115801561170f573d6000803e3d6000fd5b505050506000809054906101000a900473ffffffffffffffffffffffffffffffffffffffff1673ffffffffffffffffffffffffffffffffffffffff16632c62ff2d8660405180807f636f6e74726163740000000000000000000000000000000000000000000000008152506008018273ffffffffffffffffffffffffffffffffffffffff1673ffffffffffffffffffffffffffffffffffffffff166c0100000000000000000000000002815260140191505060405180910390206040518263ffffffff167c0100000000000000000000000000000000000000000000000000000000028152600401808260001916600019168152602001915050600060405180830381600087803b15801561182357600080fd5b505af1158015611837573d6000803e3d6000fd5b505050507fa7dd6fc361b16d778eaba6853d25f31d1c67046cec8121af750c881ecae12883858a8a43604051808573ffffffffffffffffffffffffffffffffffffffff1673ffffffffffffffffffffffffffffffffffffffff16815260200180602001838152602001828103825285858281815260200192508082843782019150509550505050505060405180910390a17feb1eac76129303431e69d209def6a74da46fc9208827235c925b2d209dc3f87e878a8a43604051808573ffffffffffffffffffffffffffffffffffffffff1673ffffffffffffffffffffffffffffffffffffffff16815260200180602001838152602001828103825285858281815260200192508082843782019150509550505050505060405180910390a1505050505050505050565b81600073ffffffffffffffffffffffffffffffffffffffff168173ffffffffffffffffffffffffffffffffffffffff161415151561199d57600080fd5b84848080601f01602080910402602001604051908101604052809392919081815260200183838082843782019150505050505060008151141515156119e157600080fd5b6000809054906101000a900473ffffffffffffffffffffffffffffffffffffffff1673ffffffffffffffffffffffffffffffffffffffff16633b7bfda03360405180807f6f776e65720000000000000000000000000000000000000000000000000000008152506005018273ffffffffffffffffffffffffffffffffffffffff1673ffffffffffffffffffffffffffffffffffffffff166c0100000000000000000000000002815260140191505060405180910390206040518263ffffffff167c0100000000000000000000000000000000000000000000000000000000028152600401808260001916600019168152602001915050602060405180830381600087803b158015611af157600080fd5b505af1158015611b05573d6000803e3d6000fd5b505050506040513d6020811015611b1b57600080fd5b81019080805190602001909291905050501515611b3757600080fd5b8273ffffffffffffffffffffffffffffffffffffffff163373ffffffffffffffffffffffffffffffffffffffff1614151515611b7257600080fd5b6000809054906101000a900473ffffffffffffffffffffffffffffffffffffffff1673ffffffffffffffffffffffffffffffffffffffff16633b7bfda0308587604051808273ffffffffffffffffffffffffffffffffffffffff1673ffffffffffffffffffffffffffffffffffffffff166c010000000000000000000000000281526014019150506040518091039020604051808473ffffffffffffffffffffffffffffffffffffffff1673ffffffffffffffffffffffffffffffffffffffff166c010000000000000000000000000281526014018373ffffffffffffffffffffffffffffffffffffffff1673ffffffffffffffffffffffffffffffffffffffff166c01000000000000000000000000028152601401807f616464436f6e7472616374000000000000000000000000000000000000000000815250600b018260001916600019168152602001935050505060405180910390206040518263ffffffff167c0100000000000000000000000000000000000000000000000000000000028152600401808260001916600019168152602001915050602060405180830381600087803b158015611d2557600080fd5b505af1158015611d39573d6000803e3d6000fd5b505050506040513d6020811015611d4f57600080fd5b810190808051906020019092919050505080611e765750600015156000809054906101000a900473ffffffffffffffffffffffffffffffffffffffff1673ffffffffffffffffffffffffffffffffffffffff16633b7bfda060405180807f6465706c6f7946696e6973686564000000000000000000000000000000000000815250600e01905060405180910390206040518263ffffffff167c0100000000000000000000000000000000000000000000000000000000028152600401808260001916600019168152602001915050602060405180830381600087803b158015611e3757600080fd5b505af1158015611e4b573d6000803e3d6000fd5b505050506040513d6020811015611e6157600080fd5b81019080805190602001909291905050501515145b1515611e8157600080fd5b611e8a84610c52565b151515611e9657600080fd5b600073ffffffffffffffffffffffffffffffffffffffff166000809054906101000a900473ffffffffffffffffffffffffffffffffffffffff1673ffffffffffffffffffffffffffffffffffffffff166304f49a3a888860405180807f636f6e747261637400000000000000000000000000000000000000000000000081525060080183838082843782019150509250505060405180910390206040518263ffffffff167c0100000000000000000000000000000000000000000000000000000000028152600401808260001916600019168152602001915050602060405180830381600087803b158015611f8a57600080fd5b505af1158015611f9e573d6000803e3d6000fd5b505050506040513d6020811015611fb457600080fd5b810190808051906020019092919050505073ffffffffffffffffffffffffffffffffffffffff16141515611fe757600080fd5b6000809054906101000a900473ffffffffffffffffffffffffffffffffffffffff1673ffffffffffffffffffffffffffffffffffffffff1663abfdcced308587604051808273ffffffffffffffffffffffffffffffffffffffff1673ffffffffffffffffffffffffffffffffffffffff166c010000000000000000000000000281526014019150506040518091039020604051808473ffffffffffffffffffffffffffffffffffffffff1673ffffffffffffffffffffffffffffffffffffffff166c010000000000000000000000000281526014018373ffffffffffffffffffffffffffffffffffffffff1673ffffffffffffffffffffffffffffffffffffffff166c01000000000000000000000000028152601401807f616464436f6e7472616374000000000000000000000000000000000000000000815250600b0182600019166000191681526020019350505050604051809103902060006040518363ffffffff167c01000000000000000000000000000000000000000000000000000000000281526004018083600019166000191681526020018215151515815260200192505050600060405180830381600087803b1580156121a757600080fd5b505af11580156121bb573d6000803e3d6000fd5b505050506000809054906101000a900473ffffffffffffffffffffffffffffffffffffffff1673ffffffffffffffffffffffffffffffffffffffff1663ca446dd9878760405180807f636f6e74726163740000000000000000000000000000000000000000000000008152506008018383808284378201915050925050506040518091039020866040518363ffffffff167c01000000000000000000000000000000000000000000000000000000000281526004018083600019166000191681526020018273ffffffffffffffffffffffffffffffffffffffff1673ffffffffffffffffffffffffffffffffffffffff16815260200192505050600060405180830381600087803b1580156122cf57600080fd5b505af11580156122e3573d6000803e3d6000fd5b505050506000809054906101000a900473ffffffffffffffffffffffffffffffffffffffff1673ffffffffffffffffffffffffffffffffffffffff1663abfdcced8560405180807f636f6e74726163740000000000000000000000000000000000000000000000008152506008018273ffffffffffffffffffffffffffffffffffffffff1673ffffffffffffffffffffffffffffffffffffffff166c01000000000000000000000000028152601401915050604051809103902060016040518363ffffffff167c01000000000000000000000000000000000000000000000000000000000281526004018083600019166000191681526020018215151515815260200192505050600060405180830381600087803b15801561240457600080fd5b505af1158015612418573d6000803e3d6000fd5b505050507f9018a9c2b051c72b883f4cfbd07b0d04a959e678a57dda3cefaea11d747da28e84878743604051808573ffffffffffffffffffffffffffffffffffffffff1673ffffffffffffffffffffffffffffffffffffffff16815260200180602001838152602001828103825285858281815260200192508082843782019150509550505050505060405180910390a1505050505050565b6000809054906101000a900473ffffffffffffffffffffffffffffffffffffffff1673ffffffffffffffffffffffffffffffffffffffff16633b7bfda03360405180807f6f776e65720000000000000000000000000000000000000000000000000000008152506005018273ffffffffffffffffffffffffffffffffffffffff1673ffffffffffffffffffffffffffffffffffffffff166c0100000000000000000000000002815260140191505060405180910390206040518263ffffffff167c0100000000000000000000000000000000000000000000000000000000028152600401808260001916600019168152602001915050602060405180830381600087803b1580156125c157600080fd5b505af11580156125d5573d6000803e3d6000fd5b505050506040513d60208110156125eb57600080fd5b8101908080519060200190929190505050151561260757600080fd5b6000809054906101000a900473ffffffffffffffffffffffffffffffffffffffff1673ffffffffffffffffffffffffffffffffffffffff1663abfdcced60405180807f6465706c6f7946696e6973686564000000000000000000000000000000000000815250600e019050604051809103902060016040518363ffffffff167c01000000000000000000000000000000000000000000000000000000000281526004018083600019166000191681526020018215151515815260200192505050600060405180830381600087803b1580156126e157600080fd5b505af11580156126f5573d6000803e3d6000fd5b505050505600a165627a7a72305820ccfa6af7c1f42f16cb7155df4b8dd02a9b203cdcf51a614a81ebedead090e6700029",
  "source": "pragma solidity 0.4.23;\n\nimport \"./Database.sol\";\n\n// ------------------------------------------------------------------------------------------------\n// This contract determines which contracts are allowed to make changes to the database contract. \n// ------------------------------------------------------------------------------------------------\ncontract ContractManager{\n  Database public database;\n\n  // Set the database contract\n  constructor(address _database)\n  public\n  noEmptyAddress(_database) {\n    database = Database(_database);\n  }\n\n  // ------------------------------------------------------------------------------------------------\n  // Call this once finished deploying initial contracts. \n  // This initiates multi-sig requirement to add new contracts\n  // ------------------------------------------------------------------------------------------------\n  function setDeployFinished()\n  external\n  anyOwner {\n    database.setBool(keccak256(\"deployFinished\"), true);\n  }\n\n  // ------------------------------------------------------------------------------------------------  \n  // This function adds new contracts to the platform. Giving them write access to Database.sol\n  // @Param: The name of the contract \n  // @Param: The address of the new contract \n  // @Param: The owner who authorized this function to be called\n  // ------------------------------------------------------------------------------------------------  \n  function addContract(string _name, address _contractAddress, address _functionSigner)\n  external\n  noEmptyAddress(_contractAddress)\n  noEmptyString(_name)\n  anyOwner {\n    require(msg.sender != _functionSigner);\n    require(database.boolStorage(keccak256(this, _functionSigner, \"addContract\", keccak256(_contractAddress))) || database.boolStorage(keccak256(\"deployFinished\")) == false);\n    require(!contractExists(_contractAddress));\n    require(database.addressStorage(keccak256(\"contract\", _name)) == address(0));\n    database.setBool(keccak256(this, _functionSigner, \"addContract\", keccak256(_contractAddress)), false);\n    database.setAddress(keccak256(\"contract\", _name), _contractAddress);\n    database.setBool(keccak256(\"contract\", _contractAddress), true);\n    emit LogContractAdded(_contractAddress, _name, block.number);\n  }\n\n  // ------------------------------------------------------------------------------------------------  \n  // Owner can remove an existing contract on the platform.\n  // @Param: The name of the contract \n  // @Param: The owner who authorized this function to be called \n  // ------------------------------------------------------------------------------------------------  \n  function removeContract(string _name, address _functionSigner)\n  external\n  noEmptyString(_name)\n  multiSigRequired(_functionSigner, \"removeContract\", keccak256(_name))\n  anyOwner {\n    address contractToDelete = database.addressStorage(keccak256(\"contract\", _name));\n    require(contractExists(contractToDelete));\n    database.deleteBool(keccak256(\"contract\", contractToDelete));\n    database.deleteAddress(keccak256(\"contract\", _name));\n    emit LogContractRemoved(contractToDelete, _name, block.number);\n  }\n\n  // ------------------------------------------------------------------------------------------------  \n  // Owner can update an existing contract on the platform, giving it write access to Database\n  // Invariants: New contract must not have null address. Function must be authorized by other owner. \n  // @Param: The name of the contract (First Letter Capitalized)\n  // @Param: The address of the new contract\n  // @Param: The address of the owner who authorized this function to be called\n  // ------------------------------------------------------------------------------------------------  \n  function updateContract(string _name, address _newContractAddress, address _functionSigner)\n  external\n  noEmptyAddress(_newContractAddress)\n  multiSigRequired(_functionSigner, \"updateContract\", keccak256(_newContractAddress))\n  anyOwner {\n    address oldAddress = database.addressStorage(keccak256(\"contract\", _name));\n    require (contractExists(oldAddress));\n    database.setAddress(keccak256(\"contract\", _name), _newContractAddress);\n    database.setBool(keccak256(\"contract\", _newContractAddress), true);\n    database.deleteBool(keccak256(\"contract\", oldAddress));\n    emit LogContractUpdated(oldAddress, _name, block.number);\n    emit LogNewContractLocation(_newContractAddress, _name, block.number);\n  }\n\n  // ------------------------------------------------------------------------------------------------  \n  // Checks if the contract is already registered in database\n  // ------------------------------------------------------------------------------------------------  \n  function contractExists(address _contract)\n  public \n  view \n  returns (bool){ \n    return database.boolStorage(keccak256(\"contract\", _contract));\n  }\n\n  // ------------------------------------------------------------------------------------------------  \n  //                                                Modifiers \n  // ------------------------------------------------------------------------------------------------  \n\n\n  // ------------------------------------------------------------------------------------------------  \n  //  Verify that sender is an owner  \n  // ------------------------------------------------------------------------------------------------ \n  modifier anyOwner {\n    require(database.boolStorage(keccak256(\"owner\", msg.sender)));\n    _;\n  }\n\n  // ------------------------------------------------------------------------------------------------  \n  //  Verify address isn't null  \n  // ------------------------------------------------------------------------------------------------ \n  modifier noEmptyAddress(address _contract) {\n    require(_contract != address(0));\n    _;\n  }\n\n  // ------------------------------------------------------------------------------------------------  \n  //  Don't accept empty string input  \n  // ------------------------------------------------------------------------------------------------ \n  modifier noEmptyString(string _name) {\n    require(bytes(_name).length != 0);\n    _;\n  }\n\n  // ------------------------------------------------------------------------------------------------  \n  //  Verify that function has been approved by another owner \n  // ------------------------------------------------------------------------------------------------ \n  modifier multiSigRequired(address _signer, string _functionName, bytes32 _keyParam) { \n    require(msg.sender != _signer);\n    require(database.boolStorage(keccak256(this, _signer, _functionName, _keyParam)));\n    database.setBool(keccak256(this, _signer, _functionName, _keyParam), false);\n    _;\n  }\n\n\n  // ------------------------------------------------------------------------------------------------  \n  //                                    Events\n  // ------------------------------------------------------------------------------------------------  \n  event LogContractAdded(address _contractAddress, string _name, uint _blockNumber);\n  event LogContractRemoved(address contractToDelete, string _name, uint _blockNumber);\n  event LogContractUpdated(address oldAddress, string _name, uint _blockNumber);\n  event LogNewContractLocation(address _contractAddress, string _name, uint _blockNumber);\n}\n",
  "sourcePath": "/var/www/html/mybit/dapp/Contracts/contracts/ContractManager.sol",
  "compiler": {
    "name": "solc",
    "version": "0.4.23+commit.124ca40d.Emscripten.clang"
  },
  "schemaVersion": "2.0.0",
  "updatedAt": "2018-05-15T12:10:07.885Z"
}