{
  "contractName": "Database",
  "abi": [
    {
      "constant": true,
      "inputs": [
        {
          "name": "",
          "type": "bytes32"
        }
      ],
      "name": "bytes32Storage",
      "outputs": [
        {
          "name": "",
          "type": "bytes32"
        }
      ],
      "payable": false,
      "stateMutability": "view",
      "type": "function"
    },
    {
      "constant": true,
      "inputs": [
        {
          "name": "",
          "type": "bytes32"
        }
      ],
      "name": "addressStorage",
      "outputs": [
        {
          "name": "",
          "type": "address"
        }
      ],
      "payable": false,
      "stateMutability": "view",
      "type": "function"
    },
    {
      "constant": true,
      "inputs": [
        {
          "name": "",
          "type": "bytes32"
        }
      ],
      "name": "stringStorage",
      "outputs": [
        {
          "name": "",
          "type": "string"
        }
      ],
      "payable": false,
      "stateMutability": "view",
      "type": "function"
    },
    {
      "constant": true,
      "inputs": [
        {
          "name": "",
          "type": "bytes32"
        }
      ],
      "name": "boolStorage",
      "outputs": [
        {
          "name": "",
          "type": "bool"
        }
      ],
      "payable": false,
      "stateMutability": "view",
      "type": "function"
    },
    {
      "constant": true,
      "inputs": [
        {
          "name": "",
          "type": "bytes32"
        }
      ],
      "name": "bytesStorage",
      "outputs": [
        {
          "name": "",
          "type": "bytes"
        }
      ],
      "payable": false,
      "stateMutability": "view",
      "type": "function"
    },
    {
      "constant": true,
      "inputs": [
        {
          "name": "",
          "type": "bytes32"
        }
      ],
      "name": "intStorage",
      "outputs": [
        {
          "name": "",
          "type": "int256"
        }
      ],
      "payable": false,
      "stateMutability": "view",
      "type": "function"
    },
    {
      "constant": true,
      "inputs": [
        {
          "name": "",
          "type": "bytes32"
        }
      ],
      "name": "uintStorage",
      "outputs": [
        {
          "name": "",
          "type": "uint256"
        }
      ],
      "payable": false,
      "stateMutability": "view",
      "type": "function"
    },
    {
      "inputs": [
        {
          "name": "_ownerOne",
          "type": "address"
        },
        {
          "name": "_ownerTwo",
          "type": "address"
        },
        {
          "name": "_ownerThree",
          "type": "address"
        }
      ],
      "payable": false,
      "stateMutability": "nonpayable",
      "type": "constructor"
    },
    {
      "anonymous": false,
      "inputs": [
        {
          "indexed": true,
          "name": "_ownerOne",
          "type": "address"
        },
        {
          "indexed": true,
          "name": "_ownerTwo",
          "type": "address"
        },
        {
          "indexed": true,
          "name": "_ownerThree",
          "type": "address"
        }
      ],
      "name": "LogInitialized",
      "type": "event"
    },
    {
      "constant": false,
      "inputs": [
        {
          "name": "_contractManager",
          "type": "address"
        }
      ],
      "name": "setContractManager",
      "outputs": [],
      "payable": false,
      "stateMutability": "nonpayable",
      "type": "function"
    },
    {
      "constant": false,
      "inputs": [
        {
          "name": "_key",
          "type": "bytes32"
        },
        {
          "name": "_value",
          "type": "address"
        }
      ],
      "name": "setAddress",
      "outputs": [],
      "payable": false,
      "stateMutability": "nonpayable",
      "type": "function"
    },
    {
      "constant": false,
      "inputs": [
        {
          "name": "_key",
          "type": "bytes32"
        },
        {
          "name": "_value",
          "type": "uint256"
        }
      ],
      "name": "setUint",
      "outputs": [],
      "payable": false,
      "stateMutability": "nonpayable",
      "type": "function"
    },
    {
      "constant": false,
      "inputs": [
        {
          "name": "_key",
          "type": "bytes32"
        },
        {
          "name": "_value",
          "type": "string"
        }
      ],
      "name": "setString",
      "outputs": [],
      "payable": false,
      "stateMutability": "nonpayable",
      "type": "function"
    },
    {
      "constant": false,
      "inputs": [
        {
          "name": "_key",
          "type": "bytes32"
        },
        {
          "name": "_value",
          "type": "bytes"
        }
      ],
      "name": "setBytes",
      "outputs": [],
      "payable": false,
      "stateMutability": "nonpayable",
      "type": "function"
    },
    {
      "constant": false,
      "inputs": [
        {
          "name": "_key",
          "type": "bytes32"
        },
        {
          "name": "_value",
          "type": "bytes32"
        }
      ],
      "name": "setBytes32",
      "outputs": [],
      "payable": false,
      "stateMutability": "nonpayable",
      "type": "function"
    },
    {
      "constant": false,
      "inputs": [
        {
          "name": "_key",
          "type": "bytes32"
        },
        {
          "name": "_value",
          "type": "bool"
        }
      ],
      "name": "setBool",
      "outputs": [],
      "payable": false,
      "stateMutability": "nonpayable",
      "type": "function"
    },
    {
      "constant": false,
      "inputs": [
        {
          "name": "_key",
          "type": "bytes32"
        },
        {
          "name": "_value",
          "type": "int256"
        }
      ],
      "name": "setInt",
      "outputs": [],
      "payable": false,
      "stateMutability": "nonpayable",
      "type": "function"
    },
    {
      "constant": false,
      "inputs": [
        {
          "name": "_key",
          "type": "bytes32"
        }
      ],
      "name": "deleteAddress",
      "outputs": [],
      "payable": false,
      "stateMutability": "nonpayable",
      "type": "function"
    },
    {
      "constant": false,
      "inputs": [
        {
          "name": "_key",
          "type": "bytes32"
        }
      ],
      "name": "deleteUint",
      "outputs": [],
      "payable": false,
      "stateMutability": "nonpayable",
      "type": "function"
    },
    {
      "constant": false,
      "inputs": [
        {
          "name": "_key",
          "type": "bytes32"
        }
      ],
      "name": "deleteString",
      "outputs": [],
      "payable": false,
      "stateMutability": "nonpayable",
      "type": "function"
    },
    {
      "constant": false,
      "inputs": [
        {
          "name": "_key",
          "type": "bytes32"
        }
      ],
      "name": "deleteBytes",
      "outputs": [],
      "payable": false,
      "stateMutability": "nonpayable",
      "type": "function"
    },
    {
      "constant": false,
      "inputs": [
        {
          "name": "_key",
          "type": "bytes32"
        }
      ],
      "name": "deleteBytes32",
      "outputs": [],
      "payable": false,
      "stateMutability": "nonpayable",
      "type": "function"
    },
    {
      "constant": false,
      "inputs": [
        {
          "name": "_key",
          "type": "bytes32"
        }
      ],
      "name": "deleteBool",
      "outputs": [],
      "payable": false,
      "stateMutability": "nonpayable",
      "type": "function"
    },
    {
      "constant": false,
      "inputs": [
        {
          "name": "_key",
          "type": "bytes32"
        }
      ],
      "name": "deleteInt",
      "outputs": [],
      "payable": false,
      "stateMutability": "nonpayable",
      "type": "function"
    }
  ],
  "bytecode": "0x608060405234801561001057600080fd5b50604051606080611d408339810180604052810190808051906020019092919080519060200190929190805190602001909291905050506001600560008560405180807f6f776e65720000000000000000000000000000000000000000000000000000008152506005018273ffffffffffffffffffffffffffffffffffffffff1673ffffffffffffffffffffffffffffffffffffffff166c0100000000000000000000000002815260140191505060405180910390206000191660001916815260200190815260200160002060006101000a81548160ff0219169083151502179055506001600560008460405180807f6f776e65720000000000000000000000000000000000000000000000000000008152506005018273ffffffffffffffffffffffffffffffffffffffff1673ffffffffffffffffffffffffffffffffffffffff166c0100000000000000000000000002815260140191505060405180910390206000191660001916815260200190815260200160002060006101000a81548160ff0219169083151502179055506001600560008360405180807f6f776e65720000000000000000000000000000000000000000000000000000008152506005018273ffffffffffffffffffffffffffffffffffffffff1673ffffffffffffffffffffffffffffffffffffffff166c0100000000000000000000000002815260140191505060405180910390206000191660001916815260200190815260200160002060006101000a81548160ff0219169083151502179055508073ffffffffffffffffffffffffffffffffffffffff168273ffffffffffffffffffffffffffffffffffffffff168473ffffffffffffffffffffffffffffffffffffffff167fff465ec137b168e79fafe138833d3a80cd87f1715a11e31c8f9990df60c493a560405160405180910390a4505050611a72806102ce6000396000f300608060405260043610610128576000357c0100000000000000000000000000000000000000000000000000000000900463ffffffff168063031578af1461012d57806304f49a3a1461017a5780630b9adc57146101eb5780630e14a3761461021c5780632c62ff2d1461024d5780632e28d0841461027e57806335f7ff63146102c75780633b7bfda0146103715780633e49bed0146103ba5780634a3270d7146103f55780634e91db081461049f578063616b59f6146104de5780636e8995501461050f578063789c617c146105585780638c1600951461059d578063a855d4ce146105ce578063abfdcced14610613578063ca446dd914610650578063d8dbe4c9146106a1578063e2a4853a146106e4578063e2b202bf1461071f578063f6bb3cc414610750575b600080fd5b34801561013957600080fd5b5061015c6004803603810190808035600019169060200190929190505050610781565b60405180826000191660001916815260200191505060405180910390f35b34801561018657600080fd5b506101a96004803603810190808035600019169060200190929190505050610799565b604051808273ffffffffffffffffffffffffffffffffffffffff1673ffffffffffffffffffffffffffffffffffffffff16815260200191505060405180910390f35b3480156101f757600080fd5b5061021a60048036038101908080356000191690602001909291905050506107cc565b005b34801561022857600080fd5b5061024b600480360381019080803560001916906020019092919050505061089a565b005b34801561025957600080fd5b5061027c6004803603810190808035600019169060200190929190505050610987565b005b34801561028a57600080fd5b506102c56004803603810190808035600019169060200190929190803590602001908201803590602001919091929391929390505050610a61565b005b3480156102d357600080fd5b506102f66004803603810190808035600019169060200190929190505050610b3d565b6040518080602001828103825283818151815260200191508051906020019080838360005b8381101561033657808201518184015260208101905061031b565b50505050905090810190601f1680156103635780820380516001836020036101000a031916815260200191505b509250505060405180910390f35b34801561037d57600080fd5b506103a06004803603810190808035600019169060200190929190505050610bed565b604051808215151515815260200191505060405180910390f35b3480156103c657600080fd5b506103f3600480360381019080803560001916906020019092919080359060200190929190505050610c0d565b005b34801561040157600080fd5b506104246004803603810190808035600019169060200190929190505050610cdd565b6040518080602001828103825283818151815260200191508051906020019080838360005b83811015610464578082015181840152602081019050610449565b50505050905090810190601f1680156104915780820380516001836020036101000a031916815260200191505b509250505060405180910390f35b3480156104ab57600080fd5b506104dc60048036038101908080356000191690602001909291908035600019169060200190929190505050610d8d565b005b3480156104ea57600080fd5b5061050d6004803603810190808035600019169060200190929190505050610e61565b005b34801561051b57600080fd5b506105566004803603810190808035600019169060200190929190803590602001908201803590602001919091929391929390505050610f37565b005b34801561056457600080fd5b506105876004803603810190808035600019169060200190929190505050611013565b6040518082815260200191505060405180910390f35b3480156105a957600080fd5b506105cc600480360381019080803560001916906020019092919050505061102b565b005b3480156105da57600080fd5b506105fd60048036038101908080356000191690602001909291905050506110f9565b6040518082815260200191505060405180910390f35b34801561061f57600080fd5b5061064e6004803603810190808035600019169060200190929190803515159060200190929190505050611111565b005b34801561065c57600080fd5b5061069f6004803603810190808035600019169060200190929190803573ffffffffffffffffffffffffffffffffffffffff1690602001909291905050506111f4565b005b3480156106ad57600080fd5b506106e2600480360381019080803573ffffffffffffffffffffffffffffffffffffffff1690602001909291905050506112fe565b005b3480156106f057600080fd5b5061071d60048036038101908080356000191690602001909291908035906020019092919050505061161f565b005b34801561072b57600080fd5b5061074e60048036038101908080356000191690602001909291905050506116ee565b005b34801561075c57600080fd5b5061077f60048036038101908080356000191690602001909291905050506117bb565b005b60046020528060005260406000206000915090505481565b60026020528060005260406000206000915054906101000a900473ffffffffffffffffffffffffffffffffffffffff1681565b600560003360405180807f636f6e74726163740000000000000000000000000000000000000000000000008152506008018273ffffffffffffffffffffffffffffffffffffffff1673ffffffffffffffffffffffffffffffffffffffff166c0100000000000000000000000002815260140191505060405180910390206000191660001916815260200190815260200160002060009054906101000a900460ff16151561087857600080fd5b6004600082600019166000191681526020019081526020016000206000905550565b600560003360405180807f636f6e74726163740000000000000000000000000000000000000000000000008152506008018273ffffffffffffffffffffffffffffffffffffffff1673ffffffffffffffffffffffffffffffffffffffff166c0100000000000000000000000002815260140191505060405180910390206000191660001916815260200190815260200160002060009054906101000a900460ff16151561094657600080fd5b60026000826000191660001916815260200190815260200160002060006101000a81549073ffffffffffffffffffffffffffffffffffffffff021916905550565b600560003360405180807f636f6e74726163740000000000000000000000000000000000000000000000008152506008018273ffffffffffffffffffffffffffffffffffffffff1673ffffffffffffffffffffffffffffffffffffffff166c0100000000000000000000000002815260140191505060405180910390206000191660001916815260200190815260200160002060009054906101000a900460ff161515610a3357600080fd5b60056000826000191660001916815260200190815260200160002060006101000a81549060ff021916905550565b600560003360405180807f636f6e74726163740000000000000000000000000000000000000000000000008152506008018273ffffffffffffffffffffffffffffffffffffffff1673ffffffffffffffffffffffffffffffffffffffff166c0100000000000000000000000002815260140191505060405180910390206000191660001916815260200190815260200160002060009054906101000a900460ff161515610b0d57600080fd5b81816003600086600019166000191681526020019081526020016000209190610b37929190611891565b50505050565b60016020528060005260406000206000915090508054600181600116156101000203166002900480601f016020809104026020016040519081016040528092919081815260200182805460018160011615610100020316600290048015610be55780601f10610bba57610100808354040283529160200191610be5565b820191906000526020600020905b815481529060010190602001808311610bc857829003601f168201915b505050505081565b60056020528060005260406000206000915054906101000a900460ff1681565b600560003360405180807f636f6e74726163740000000000000000000000000000000000000000000000008152506008018273ffffffffffffffffffffffffffffffffffffffff1673ffffffffffffffffffffffffffffffffffffffff166c0100000000000000000000000002815260140191505060405180910390206000191660001916815260200190815260200160002060009054906101000a900460ff161515610cb957600080fd5b80600660008460001916600019168152602001908152602001600020819055505050565b60036020528060005260406000206000915090508054600181600116156101000203166002900480601f016020809104026020016040519081016040528092919081815260200182805460018160011615610100020316600290048015610d855780601f10610d5a57610100808354040283529160200191610d85565b820191906000526020600020905b815481529060010190602001808311610d6857829003601f168201915b505050505081565b600560003360405180807f636f6e74726163740000000000000000000000000000000000000000000000008152506008018273ffffffffffffffffffffffffffffffffffffffff1673ffffffffffffffffffffffffffffffffffffffff166c0100000000000000000000000002815260140191505060405180910390206000191660001916815260200190815260200160002060009054906101000a900460ff161515610e3957600080fd5b8060046000846000191660001916815260200190815260200160002081600019169055505050565b600560003360405180807f636f6e74726163740000000000000000000000000000000000000000000000008152506008018273ffffffffffffffffffffffffffffffffffffffff1673ffffffffffffffffffffffffffffffffffffffff166c0100000000000000000000000002815260140191505060405180910390206000191660001916815260200190815260200160002060009054906101000a900460ff161515610f0d57600080fd5b6003600082600019166000191681526020019081526020016000206000610f349190611911565b50565b600560003360405180807f636f6e74726163740000000000000000000000000000000000000000000000008152506008018273ffffffffffffffffffffffffffffffffffffffff1673ffffffffffffffffffffffffffffffffffffffff166c0100000000000000000000000002815260140191505060405180910390206000191660001916815260200190815260200160002060009054906101000a900460ff161515610fe357600080fd5b8181600160008660001916600019168152602001908152602001600020919061100d929190611959565b50505050565b60066020528060005260406000206000915090505481565b600560003360405180807f636f6e74726163740000000000000000000000000000000000000000000000008152506008018273ffffffffffffffffffffffffffffffffffffffff1673ffffffffffffffffffffffffffffffffffffffff166c0100000000000000000000000002815260140191505060405180910390206000191660001916815260200190815260200160002060009054906101000a900460ff1615156110d757600080fd5b6006600082600019166000191681526020019081526020016000206000905550565b60006020528060005260406000206000915090505481565b600560003360405180807f636f6e74726163740000000000000000000000000000000000000000000000008152506008018273ffffffffffffffffffffffffffffffffffffffff1673ffffffffffffffffffffffffffffffffffffffff166c0100000000000000000000000002815260140191505060405180910390206000191660001916815260200190815260200160002060009054906101000a900460ff1615156111bd57600080fd5b8060056000846000191660001916815260200190815260200160002060006101000a81548160ff0219169083151502179055505050565b600560003360405180807f636f6e74726163740000000000000000000000000000000000000000000000008152506008018273ffffffffffffffffffffffffffffffffffffffff1673ffffffffffffffffffffffffffffffffffffffff166c0100000000000000000000000002815260140191505060405180910390206000191660001916815260200190815260200160002060009054906101000a900460ff1615156112a057600080fd5b8060026000846000191660001916815260200190815260200160002060006101000a81548173ffffffffffffffffffffffffffffffffffffffff021916908373ffffffffffffffffffffffffffffffffffffffff1602179055505050565b600073ffffffffffffffffffffffffffffffffffffffff168173ffffffffffffffffffffffffffffffffffffffff161415151561133a57600080fd5b600560003360405180807f6f776e65720000000000000000000000000000000000000000000000000000008152506005018273ffffffffffffffffffffffffffffffffffffffff1673ffffffffffffffffffffffffffffffffffffffff166c0100000000000000000000000002815260140191505060405180910390206000191660001916815260200190815260200160002060009054906101000a900460ff1615156113e657600080fd5b600073ffffffffffffffffffffffffffffffffffffffff166002600060405180807f636f6e7472616374000000000000000000000000000000000000000000000000815250600801807f436f6e74726163744d616e616765720000000000000000000000000000000000815250600f01905060405180910390206000191660001916815260200190815260200160002060009054906101000a900473ffffffffffffffffffffffffffffffffffffffff1673ffffffffffffffffffffffffffffffffffffffff161415156114b957600080fd5b806002600060405180807f636f6e7472616374000000000000000000000000000000000000000000000000815250600801807f436f6e74726163744d616e616765720000000000000000000000000000000000815250600f01905060405180910390206000191660001916815260200190815260200160002060006101000a81548173ffffffffffffffffffffffffffffffffffffffff021916908373ffffffffffffffffffffffffffffffffffffffff1602179055506001600560008360405180807f636f6e74726163740000000000000000000000000000000000000000000000008152506008018273ffffffffffffffffffffffffffffffffffffffff1673ffffffffffffffffffffffffffffffffffffffff166c0100000000000000000000000002815260140191505060405180910390206000191660001916815260200190815260200160002060006101000a81548160ff02191690831515021790555050565b600560003360405180807f636f6e74726163740000000000000000000000000000000000000000000000008152506008018273ffffffffffffffffffffffffffffffffffffffff1673ffffffffffffffffffffffffffffffffffffffff166c0100000000000000000000000002815260140191505060405180910390206000191660001916815260200190815260200160002060009054906101000a900460ff1615156116cb57600080fd5b806000808460001916600019168152602001908152602001600020819055505050565b600560003360405180807f636f6e74726163740000000000000000000000000000000000000000000000008152506008018273ffffffffffffffffffffffffffffffffffffffff1673ffffffffffffffffffffffffffffffffffffffff166c0100000000000000000000000002815260140191505060405180910390206000191660001916815260200190815260200160002060009054906101000a900460ff16151561179a57600080fd5b60008082600019166000191681526020019081526020016000206000905550565b600560003360405180807f636f6e74726163740000000000000000000000000000000000000000000000008152506008018273ffffffffffffffffffffffffffffffffffffffff1673ffffffffffffffffffffffffffffffffffffffff166c0100000000000000000000000002815260140191505060405180910390206000191660001916815260200190815260200160002060009054906101000a900460ff16151561186757600080fd5b600160008260001916600019168152602001908152602001600020600061188e91906119d9565b50565b828054600181600116156101000203166002900490600052602060002090601f016020900481019282601f106118d257803560ff1916838001178555611900565b82800160010185558215611900579182015b828111156118ff5782358255916020019190600101906118e4565b5b50905061190d9190611a21565b5090565b50805460018160011615610100020316600290046000825580601f106119375750611956565b601f0160209004906000526020600020908101906119559190611a21565b5b50565b828054600181600116156101000203166002900490600052602060002090601f016020900481019282601f1061199a57803560ff19168380011785556119c8565b828001600101855582156119c8579182015b828111156119c75782358255916020019190600101906119ac565b5b5090506119d59190611a21565b5090565b50805460018160011615610100020316600290046000825580601f106119ff5750611a1e565b601f016020900490600052602060002090810190611a1d9190611a21565b5b50565b611a4391905b80821115611a3f576000816000905550600101611a27565b5090565b905600a165627a7a72305820f2c41cd8c836ec0efbf389a4598b852f49188dc6cabd39c40937548bf910f67a0029",
  "source": "pragma solidity 0.4.23;\n\n\n// ---------------------------------------------------------------------------------\n// This contract holds all long-term data for the MyBit smart-contract systems \n// All values are stored in mappings using a bytes32 keys. \n// The bytes32 is derived from keccak256(variableName, uniqueID) => value\n// ---------------------------------------------------------------------------------\ncontract Database { \n\n    // --------------------------------------------------------------------------------------\n    // Storage Variables \n    // --------------------------------------------------------------------------------------\n    mapping(bytes32 => uint) public uintStorage;\n    mapping(bytes32 => string) public stringStorage;\n    mapping(bytes32 => address) public addressStorage;\n    mapping(bytes32 => bytes) public bytesStorage;\n    mapping(bytes32 => bytes32) public bytes32Storage; \n    mapping(bytes32 => bool) public boolStorage;\n    mapping(bytes32 => int) public intStorage;\n\n\n    \n    // --------------------------------------------------------------------------------------\n    // Constructor: Sets the owners of the platform \n    // Owners must set the contract manager to add more contracts\n    // --------------------------------------------------------------------------------------\n    constructor(address _ownerOne, address _ownerTwo, address _ownerThree) \n    public { \n        boolStorage[keccak256(\"owner\", _ownerOne)] = true;\n        boolStorage[keccak256(\"owner\", _ownerTwo)] = true;\n        boolStorage[keccak256(\"owner\", _ownerThree)] = true;\n        emit LogInitialized(_ownerOne, _ownerTwo, _ownerThree); \n    }\n\n    \n    // --------------------------------------------------------------------------------------\n    // ContractManager will be the only contract that can add/remove contracts on the platform. \n    // Invariants: ContractManager address must not be null. \n    // ContractManager must not be set, Only owner can call this function.\n    // --------------------------------------------------------------------------------------    \n    function setContractManager(address _contractManager)\n    external { \n        require(_contractManager != address(0));\n        require(boolStorage[keccak256(\"owner\", msg.sender)]);\n        require(addressStorage[keccak256(\"contract\", \"ContractManager\")] == address(0)); \n        addressStorage[keccak256(\"contract\", \"ContractManager\")] = _contractManager;\n        boolStorage[keccak256(\"contract\", _contractManager)] = true; \n    }\n\n    // --------------------------------------------------------------------------------------\n    //  Storage functions\n    // --------------------------------------------------------------------------------------\n\n    function setAddress(bytes32 _key, address _value) \n    onlyMyBitContract \n    external {\n        addressStorage[_key] = _value;\n    }\n\n    function setUint(bytes32 _key, uint _value) \n    onlyMyBitContract \n    external {\n        uintStorage[_key] = _value;\n    }\n\n    function setString(bytes32 _key, string _value) \n    onlyMyBitContract \n    external {\n        stringStorage[_key] = _value;\n    }\n\n    function setBytes(bytes32 _key, bytes _value) \n    onlyMyBitContract \n    external {\n        bytesStorage[_key] = _value;\n    }\n\n    function setBytes32(bytes32 _key, bytes32 _value) \n    onlyMyBitContract \n    external {\n        bytes32Storage[_key] = _value;\n    }    \n\n    function setBool(bytes32 _key, bool _value) \n    onlyMyBitContract \n    external {\n        boolStorage[_key] = _value;\n    }\n\n    function setInt(bytes32 _key, int _value) \n    onlyMyBitContract \n    external {\n        intStorage[_key] = _value;\n    }\n\n\n    // --------------------------------------------------------------------------------------\n    // Deletion functions \n    // --------------------------------------------------------------------------------------\n\n    function deleteAddress(bytes32 _key) \n    onlyMyBitContract \n    external {\n        delete addressStorage[_key];\n    }\n\n    function deleteUint(bytes32 _key) \n    onlyMyBitContract \n    external {\n        delete uintStorage[_key];\n    }\n\n    function deleteString(bytes32 _key) \n    onlyMyBitContract \n    external {\n        delete stringStorage[_key];\n    }\n\n    function deleteBytes(bytes32 _key) \n    onlyMyBitContract \n    external {\n        delete bytesStorage[_key];\n    }\n\n    function deleteBytes32(bytes32 _key) \n    onlyMyBitContract \n    external {\n        delete bytes32Storage[_key];\n    }    \n\n    function deleteBool(bytes32 _key) \n    onlyMyBitContract \n    external {\n        delete boolStorage[_key];\n    }\n\n    function deleteInt(bytes32 _key) \n    onlyMyBitContract \n    external {\n        delete intStorage[_key];\n    }\n\n\n    \n    // --------------------------------------------------------------------------------------\n    // Caller must be registered as a contract within the MyBit Dapp through ContractManager.sol\n    // --------------------------------------------------------------------------------------    \n    modifier onlyMyBitContract() {\n        require(boolStorage[keccak256(\"contract\", msg.sender)]);\n        _;\n    }\n\n    // --------------------------------------------------------------------------------------\n    // Events\n    // --------------------------------------------------------------------------------------  \n    event LogInitialized(address indexed _ownerOne, address indexed _ownerTwo, address indexed _ownerThree); \n\n}\n",
  "sourcePath": "/var/www/html/mybit/dapp/Contracts/contracts/Database.sol",
  "compiler": {
    "name": "solc",
    "version": "0.4.23+commit.124ca40d.Emscripten.clang"
  },
  "schemaVersion": "2.0.0",
  "updatedAt": "2018-05-15T12:10:07.886Z"
}