{
  "contractName": "FunderControls",
  "abi": [
    {
      "constant": true,
      "inputs": [],
      "name": "database",
      "outputs": [
        {
          "name": "",
          "type": "address"
        }
      ],
      "payable": false,
      "stateMutability": "view",
      "type": "function"
    },
    {
      "inputs": [
        {
          "name": "_database",
          "type": "address"
        }
      ],
      "payable": false,
      "stateMutability": "nonpayable",
      "type": "constructor"
    },
    {
      "payable": false,
      "stateMutability": "nonpayable",
      "type": "fallback"
    },
    {
      "constant": false,
      "inputs": [
        {
          "name": "_assetID",
          "type": "bytes32"
        }
      ],
      "name": "fireOperator",
      "outputs": [],
      "payable": false,
      "stateMutability": "nonpayable",
      "type": "function"
    },
    {
      "constant": false,
      "inputs": [
        {
          "name": "_assetID",
          "type": "bytes32"
        },
        {
          "name": "_approve",
          "type": "bool"
        }
      ],
      "name": "voteToFireOperator",
      "outputs": [],
      "payable": false,
      "stateMutability": "nonpayable",
      "type": "function"
    },
    {
      "constant": false,
      "inputs": [
        {
          "name": "_assetID",
          "type": "bytes32"
        },
        {
          "name": "_approve",
          "type": "bool"
        }
      ],
      "name": "voteForNewOperator",
      "outputs": [],
      "payable": false,
      "stateMutability": "nonpayable",
      "type": "function"
    },
    {
      "constant": false,
      "inputs": [
        {
          "name": "_assetID",
          "type": "bytes32"
        },
        {
          "name": "_newOperator",
          "type": "address"
        }
      ],
      "name": "proposeReplacementOperator",
      "outputs": [],
      "payable": false,
      "stateMutability": "nonpayable",
      "type": "function"
    }
  ],
  "bytecode": "0x608060405234801561001057600080fd5b506040516020806102b583398101806040528101908080519060200190929190505050806000806101000a81548173ffffffffffffffffffffffffffffffffffffffff021916908373ffffffffffffffffffffffffffffffffffffffff16021790555050610232806100836000396000f30060806040526004361061006d576000357c0100000000000000000000000000000000000000000000000000000000900463ffffffff1680631590bdeb1461007f57806318479146146100b0578063713b563f146100ed578063b286561314610144578063e49a093d14610195575b34801561007957600080fd5b50600080fd5b34801561008b57600080fd5b506100ae60048036038101908080356000191690602001909291905050506101d2565b005b3480156100bc57600080fd5b506100eb60048036038101908080356000191690602001909291908035151590602001909291905050506101d5565b005b3480156100f957600080fd5b506101026101d9565b604051808273ffffffffffffffffffffffffffffffffffffffff1673ffffffffffffffffffffffffffffffffffffffff16815260200191505060405180910390f35b34801561015057600080fd5b506101936004803603810190808035600019169060200190929190803573ffffffffffffffffffffffffffffffffffffffff1690602001909291905050506101fe565b005b3480156101a157600080fd5b506101d06004803603810190808035600019169060200190929190803515159060200190929190505050610202565b005b50565b5050565b6000809054906101000a900473ffffffffffffffffffffffffffffffffffffffff1681565b5050565b50505600a165627a7a723058200e95efbe319c19b0343d2dffa23d8aea49347f458859467b0f2bde6cb0ce12740029",
  "source": "pragma solidity 0.4.23;\n\nimport './Database.sol';\nimport './SafeMath.sol';\n\n\ncontract FunderControls { \n\nDatabase public database;\n\n\n// Invariantes: Must always have an operator in place\nconstructor(address _database)\npublic { \n  database = Database(_database); \n}\n\n\n// This will remove current operator and his escrow will be used for new operator\n// If successfull operator loses his escrowed tokens & voting period is initiated for new operator. \nfunction fireOperator(bytes32 _assetID)\nexternal { \n\n}\n\nfunction voteToFireOperator(bytes32 _assetID, bool _approve) \npublic { \n\n}\n\n\n// Vote for \nfunction voteForNewOperator(bytes32 _assetID, bool _approve)\npublic { \n\n}\n\n// Propose new operator to be voted on. Replacement operator will need to escrow tokens.\n// This option wouldn't fire the current operator (would get to keep his tokens).\n// Initiates voting period for a new operator\nfunction proposeReplacementOperator(bytes32 _assetID, address _newOperator) \nexternal { \n\n}\n\nfunction() \npublic { \n  revert(); \n}\n\n}\n",
  "sourcePath": "/var/www/html/mybit/dapp/Contracts/contracts/FunderControls.sol",
  "compiler": {
    "name": "solc",
    "version": "0.4.23+commit.124ca40d.Emscripten.clang"
  },
  "schemaVersion": "2.0.0",
  "updatedAt": "2018-05-15T12:10:07.892Z"
}