{
  "contractName": "FundingHub",
  "abi": [
    {
      "constant": true,
      "inputs": [],
      "name": "database",
      "outputs": [
        {
          "name": "",
          "type": "address"
        }
      ],
      "payable": false,
      "stateMutability": "view",
      "type": "function"
    },
    {
      "inputs": [
        {
          "name": "_database",
          "type": "address"
        }
      ],
      "payable": false,
      "stateMutability": "nonpayable",
      "type": "constructor"
    },
    {
      "payable": false,
      "stateMutability": "nonpayable",
      "type": "fallback"
    },
    {
      "anonymous": false,
      "inputs": [
        {
          "indexed": true,
          "name": "_funder",
          "type": "address"
        },
        {
          "indexed": true,
          "name": "_assetID",
          "type": "bytes32"
        },
        {
          "indexed": true,
          "name": "_timestamp",
          "type": "uint256"
        }
      ],
      "name": "LogNewFunder",
      "type": "event"
    },
    {
      "anonymous": false,
      "inputs": [
        {
          "indexed": true,
          "name": "_sender",
          "type": "address"
        },
        {
          "indexed": true,
          "name": "_amount",
          "type": "uint256"
        },
        {
          "indexed": true,
          "name": "_assetID",
          "type": "bytes32"
        }
      ],
      "name": "LogAssetFunded",
      "type": "event"
    },
    {
      "anonymous": false,
      "inputs": [
        {
          "indexed": true,
          "name": "_assetID",
          "type": "bytes32"
        },
        {
          "indexed": true,
          "name": "_amountRaised",
          "type": "uint256"
        },
        {
          "indexed": true,
          "name": "_timestamp",
          "type": "uint256"
        }
      ],
      "name": "LogAssetFundingFailed",
      "type": "event"
    },
    {
      "anonymous": false,
      "inputs": [
        {
          "indexed": true,
          "name": "_assetID",
          "type": "bytes32"
        },
        {
          "indexed": true,
          "name": "_currentEthPrice",
          "type": "uint256"
        },
        {
          "indexed": true,
          "name": "_timestamp",
          "type": "uint256"
        }
      ],
      "name": "LogAssetFundingSuccess",
      "type": "event"
    },
    {
      "anonymous": false,
      "inputs": [
        {
          "indexed": true,
          "name": "_funder",
          "type": "address"
        },
        {
          "indexed": true,
          "name": "_amount",
          "type": "uint256"
        },
        {
          "indexed": true,
          "name": "_timestamp",
          "type": "uint256"
        }
      ],
      "name": "LogRefund",
      "type": "event"
    },
    {
      "anonymous": false,
      "inputs": [
        {
          "indexed": true,
          "name": "_assetID",
          "type": "bytes32"
        },
        {
          "indexed": true,
          "name": "_amount",
          "type": "uint256"
        },
        {
          "indexed": true,
          "name": "_blockNumber",
          "type": "uint256"
        }
      ],
      "name": "LogAssetPayout",
      "type": "event"
    },
    {
      "anonymous": false,
      "inputs": [
        {
          "indexed": true,
          "name": "_locationSent",
          "type": "address"
        },
        {
          "indexed": true,
          "name": "_amountSent",
          "type": "uint256"
        },
        {
          "indexed": true,
          "name": "_caller",
          "type": "address"
        }
      ],
      "name": "LogDestruction",
      "type": "event"
    },
    {
      "anonymous": false,
      "inputs": [
        {
          "indexed": false,
          "name": "_value1",
          "type": "uint256"
        },
        {
          "indexed": false,
          "name": "_value2",
          "type": "uint256"
        },
        {
          "indexed": false,
          "name": "_value3",
          "type": "uint256"
        }
      ],
      "name": "fundingLimitModifier",
      "type": "event"
    },
    {
      "constant": false,
      "inputs": [
        {
          "name": "_assetID",
          "type": "bytes32"
        }
      ],
      "name": "fund",
      "outputs": [
        {
          "name": "",
          "type": "bool"
        }
      ],
      "payable": true,
      "stateMutability": "payable",
      "type": "function"
    },
    {
      "constant": false,
      "inputs": [
        {
          "name": "_assetID",
          "type": "bytes32"
        }
      ],
      "name": "payout",
      "outputs": [
        {
          "name": "",
          "type": "bool"
        }
      ],
      "payable": false,
      "stateMutability": "nonpayable",
      "type": "function"
    },
    {
      "constant": false,
      "inputs": [
        {
          "name": "_assetID",
          "type": "bytes32"
        }
      ],
      "name": "initiateRefund",
      "outputs": [
        {
          "name": "",
          "type": "bool"
        }
      ],
      "payable": false,
      "stateMutability": "nonpayable",
      "type": "function"
    },
    {
      "constant": false,
      "inputs": [
        {
          "name": "_assetID",
          "type": "bytes32"
        }
      ],
      "name": "refund",
      "outputs": [
        {
          "name": "",
          "type": "bool"
        }
      ],
      "payable": false,
      "stateMutability": "nonpayable",
      "type": "function"
    },
    {
      "constant": false,
      "inputs": [
        {
          "name": "_functionInitiator",
          "type": "address"
        },
        {
          "name": "_holdingAddress",
          "type": "address"
        }
      ],
      "name": "destroy",
      "outputs": [],
      "payable": false,
      "stateMutability": "nonpayable",
      "type": "function"
    }
  ],
  "bytecode": "0x608060405234801561001057600080fd5b506040516020806133fe83398101806040528101908080519060200190929190505050806000806101000a81548173ffffffffffffffffffffffffffffffffffffffff021916908373ffffffffffffffffffffffffffffffffffffffff1602179055505061337b806100836000396000f300608060405260043610610078576000357c0100000000000000000000000000000000000000000000000000000000900463ffffffff16806344a2542a1461008a57806362b40f9f146100d3578063713b563f146101365780637249fbb61461018d578063bf14c119146101d6578063cfefb3d514610212575b34801561008457600080fd5b50600080fd5b34801561009657600080fd5b506100b9600480360381019080803560001916906020019092919050505061025b565b604051808215151515815260200191505060405180910390f35b3480156100df57600080fd5b50610134600480360381019080803573ffffffffffffffffffffffffffffffffffffffff169060200190929190803573ffffffffffffffffffffffffffffffffffffffff169060200190929190505050610700565b005b34801561014257600080fd5b5061014b610b15565b604051808273ffffffffffffffffffffffffffffffffffffffff1673ffffffffffffffffffffffffffffffffffffffff16815260200191505060405180910390f35b34801561019957600080fd5b506101bc6004803603810190808035600019169060200190929190505050610b3a565b604051808215151515815260200191505060405180910390f35b6101f86004803603810190808035600019169060200190929190505050611374565b604051808215151515815260200191505060405180910390f35b34801561021e57600080fd5b506102416004803603810190808035600019169060200190929190505050612889565b604051808215151515815260200191505060405180910390f35b6000816000809054906101000a900473ffffffffffffffffffffffffffffffffffffffff1673ffffffffffffffffffffffffffffffffffffffff1663a855d4ce8260405180807f66756e64696e67446561646c696e650000000000000000000000000000000000815250600f01826000191660001916815260200191505060405180910390206040518263ffffffff167c0100000000000000000000000000000000000000000000000000000000028152600401808260001916600019168152602001915050602060405180830381600087803b15801561033b57600080fd5b505af115801561034f573d6000803e3d6000fd5b505050506040513d602081101561036557600080fd5b8101908080519060200190929190505050421015151561038457600080fd5b826001806000809054906101000a900473ffffffffffffffffffffffffffffffffffffffff1673ffffffffffffffffffffffffffffffffffffffff1663a855d4ce8460405180807f66756e64696e6753746167650000000000000000000000000000000000000000815250600c01826000191660001916815260200191505060405180910390206040518263ffffffff167c0100000000000000000000000000000000000000000000000000000000028152600401808260001916600019168152602001915050602060405180830381600087803b15801561046557600080fd5b505af1158015610479573d6000803e3d6000fd5b505050506040513d602081101561048f57600080fd5b81019080805190602001909291905050501415156104ac57600080fd5b6000809054906101000a900473ffffffffffffffffffffffffffffffffffffffff1673ffffffffffffffffffffffffffffffffffffffff1663e2a4853a8660405180807f66756e64696e6753746167650000000000000000000000000000000000000000815250600c018260001916600019168152602001915050604051809103902060026040518363ffffffff167c010000000000000000000000000000000000000000000000000000000002815260040180836000191660001916815260200182815260200192505050600060405180830381600087803b15801561059257600080fd5b505af11580156105a6573d6000803e3d6000fd5b50505050426000809054906101000a900473ffffffffffffffffffffffffffffffffffffffff1673ffffffffffffffffffffffffffffffffffffffff1663a855d4ce8760405180807f616d6f756e745261697365640000000000000000000000000000000000000000815250600c01826000191660001916815260200191505060405180910390206040518263ffffffff167c0100000000000000000000000000000000000000000000000000000000028152600401808260001916600019168152602001915050602060405180830381600087803b15801561068857600080fd5b505af115801561069c573d6000803e3d6000fd5b505050506040513d60208110156106b257600080fd5b810190808051906020019092919050505086600019167f032796393dfb36a5cd9e1746ca0f7a1a57f2ad9bdc6e1bf78a73879efddba03c60405160405180910390a460019350505050919050565b6000809054906101000a900473ffffffffffffffffffffffffffffffffffffffff1673ffffffffffffffffffffffffffffffffffffffff16633b7bfda03360405180807f6f776e65720000000000000000000000000000000000000000000000000000008152506005018273ffffffffffffffffffffffffffffffffffffffff1673ffffffffffffffffffffffffffffffffffffffff166c0100000000000000000000000002815260140191505060405180910390206040518263ffffffff167c0100000000000000000000000000000000000000000000000000000000028152600401808260001916600019168152602001915050602060405180830381600087803b15801561081057600080fd5b505af1158015610824573d6000803e3d6000fd5b505050506040513d602081101561083a57600080fd5b8101908080519060200190929190505050151561085657600080fd5b3373ffffffffffffffffffffffffffffffffffffffff168273ffffffffffffffffffffffffffffffffffffffff161415151561089157600080fd5b6000809054906101000a900473ffffffffffffffffffffffffffffffffffffffff1673ffffffffffffffffffffffffffffffffffffffff16633b7bfda0308484604051808273ffffffffffffffffffffffffffffffffffffffff1673ffffffffffffffffffffffffffffffffffffffff166c010000000000000000000000000281526014019150506040518091039020604051808473ffffffffffffffffffffffffffffffffffffffff1673ffffffffffffffffffffffffffffffffffffffff166c010000000000000000000000000281526014018373ffffffffffffffffffffffffffffffffffffffff1673ffffffffffffffffffffffffffffffffffffffff166c01000000000000000000000000028152601401807f64657374726f79000000000000000000000000000000000000000000000000008152506007018260001916600019168152602001935050505060405180910390206040518263ffffffff167c0100000000000000000000000000000000000000000000000000000000028152600401808260001916600019168152602001915050602060405180830381600087803b158015610a4457600080fd5b505af1158015610a58573d6000803e3d6000fd5b505050506040513d6020811015610a6e57600080fd5b81019080805190602001909291905050501515610a8a57600080fd5b3373ffffffffffffffffffffffffffffffffffffffff163073ffffffffffffffffffffffffffffffffffffffff16318273ffffffffffffffffffffffffffffffffffffffff167f8c7ae8776186c2e87b266886e8af282b7fdb52b47993376583987a14656a367860405160405180910390a48073ffffffffffffffffffffffffffffffffffffffff16ff5b6000809054906101000a900473ffffffffffffffffffffffffffffffffffffffff1681565b60008060008060149054906101000a900460ff16151515610b5a57600080fd5b6001600060146101000a81548160ff0219169083151502179055506000809054906101000a900473ffffffffffffffffffffffffffffffffffffffff1673ffffffffffffffffffffffffffffffffffffffff16633b7bfda03060405180807f70617573650000000000000000000000000000000000000000000000000000008152506005018273ffffffffffffffffffffffffffffffffffffffff1673ffffffffffffffffffffffffffffffffffffffff166c0100000000000000000000000002815260140191505060405180910390206040518263ffffffff167c0100000000000000000000000000000000000000000000000000000000028152600401808260001916600019168152602001915050602060405180830381600087803b158015610c8557600080fd5b505af1158015610c99573d6000803e3d6000fd5b505050506040513d6020811015610caf57600080fd5b8101908080519060200190929190505050151515610ccc57600080fd5b836002806000809054906101000a900473ffffffffffffffffffffffffffffffffffffffff1673ffffffffffffffffffffffffffffffffffffffff1663a855d4ce8460405180807f66756e64696e6753746167650000000000000000000000000000000000000000815250600c01826000191660001916815260200191505060405180910390206040518263ffffffff167c0100000000000000000000000000000000000000000000000000000000028152600401808260001916600019168152602001915050602060405180830381600087803b158015610dad57600080fd5b505af1158015610dc1573d6000803e3d6000fd5b505050506040513d6020811015610dd757600080fd5b8101908080519060200190929190505050141515610df457600080fd5b6000809054906101000a900473ffffffffffffffffffffffffffffffffffffffff1673ffffffffffffffffffffffffffffffffffffffff1663a855d4ce873360405180807f6f776e657273686970556e697473000000000000000000000000000000000000815250600e0183600019166000191681526020018273ffffffffffffffffffffffffffffffffffffffff1673ffffffffffffffffffffffffffffffffffffffff166c010000000000000000000000000281526014019250505060405180910390206040518263ffffffff167c0100000000000000000000000000000000000000000000000000000000028152600401808260001916600019168152602001915050602060405180830381600087803b158015610f1457600080fd5b505af1158015610f28573d6000803e3d6000fd5b505050506040513d6020811015610f3e57600080fd5b81019080805190602001909291905050509350600084111515610f6057600080fd5b6000809054906101000a900473ffffffffffffffffffffffffffffffffffffffff1673ffffffffffffffffffffffffffffffffffffffff1663e2b202bf873360405180807f6f776e657273686970556e697473000000000000000000000000000000000000815250600e0183600019166000191681526020018273ffffffffffffffffffffffffffffffffffffffff1673ffffffffffffffffffffffffffffffffffffffff166c010000000000000000000000000281526014019250505060405180910390206040518263ffffffff167c0100000000000000000000000000000000000000000000000000000000028152600401808260001916600019168152602001915050600060405180830381600087803b15801561108057600080fd5b505af1158015611094573d6000803e3d6000fd5b505050506000809054906101000a900473ffffffffffffffffffffffffffffffffffffffff1673ffffffffffffffffffffffffffffffffffffffff1663a855d4ce8760405180807f616d6f756e745261697365640000000000000000000000000000000000000000815250600c01826000191660001916815260200191505060405180910390206040518263ffffffff167c0100000000000000000000000000000000000000000000000000000000028152600401808260001916600019168152602001915050602060405180830381600087803b15801561117557600080fd5b505af1158015611189573d6000803e3d6000fd5b505050506040513d602081101561119f57600080fd5b810190808051906020019092919050505092506000809054906101000a900473ffffffffffffffffffffffffffffffffffffffff1673ffffffffffffffffffffffffffffffffffffffff1663e2a4853a8760405180807f616d6f756e745261697365640000000000000000000000000000000000000000815250600c018260001916600019168152602001915050604051809103902061124887876132a990919063ffffffff16565b6040518363ffffffff167c010000000000000000000000000000000000000000000000000000000002815260040180836000191660001916815260200182815260200192505050600060405180830381600087803b1580156112a957600080fd5b505af11580156112bd573d6000803e3d6000fd5b505050503373ffffffffffffffffffffffffffffffffffffffff166108fc859081150290604051600060405180830381858888f19350505050158015611307573d6000803e3d6000fd5b5042843373ffffffffffffffffffffffffffffffffffffffff167fd4b15ee0724fec3829ddfdba102b0b2056d212596a309b0e5667c22b1506553a60405160405180910390a460019450505060008060146101000a81548160ff0219169083151502179055505050919050565b6000806000803411151561138757600080fd5b6000809054906101000a900473ffffffffffffffffffffffffffffffffffffffff1673ffffffffffffffffffffffffffffffffffffffff16633b7bfda03060405180807f70617573650000000000000000000000000000000000000000000000000000008152506005018273ffffffffffffffffffffffffffffffffffffffff1673ffffffffffffffffffffffffffffffffffffffff166c0100000000000000000000000002815260140191505060405180910390206040518263ffffffff167c0100000000000000000000000000000000000000000000000000000000028152600401808260001916600019168152602001915050602060405180830381600087803b15801561149757600080fd5b505af11580156114ab573d6000803e3d6000fd5b505050506040513d60208110156114c157600080fd5b81019080805190602001909291905050501515156114de57600080fd5b836001806000809054906101000a900473ffffffffffffffffffffffffffffffffffffffff1673ffffffffffffffffffffffffffffffffffffffff1663a855d4ce8460405180807f66756e64696e6753746167650000000000000000000000000000000000000000815250600c01826000191660001916815260200191505060405180910390206040518263ffffffff167c0100000000000000000000000000000000000000000000000000000000028152600401808260001916600019168152602001915050602060405180830381600087803b1580156115bf57600080fd5b505af11580156115d3573d6000803e3d6000fd5b505050506040513d60208110156115e957600080fd5b810190808051906020019092919050505014151561160657600080fd5b6000809054906101000a900473ffffffffffffffffffffffffffffffffffffffff1673ffffffffffffffffffffffffffffffffffffffff1663a855d4ce60405180807f657468555344507269636545787069726174696f6e0000000000000000000000815250601501905060405180910390206040518263ffffffff167c0100000000000000000000000000000000000000000000000000000000028152600401808260001916600019168152602001915050602060405180830381600087803b1580156116d357600080fd5b505af11580156116e7573d6000803e3d6000fd5b505050506040513d60208110156116fd57600080fd5b81019080805190602001909291905050504210151561171b57600080fd5b856000806000806000809054906101000a900473ffffffffffffffffffffffffffffffffffffffff1673ffffffffffffffffffffffffffffffffffffffff1663a855d4ce8660405180807f66756e64696e67446561646c696e650000000000000000000000000000000000815250600f01826000191660001916815260200191505060405180910390206040518263ffffffff167c0100000000000000000000000000000000000000000000000000000000028152600401808260001916600019168152602001915050602060405180830381600087803b1580156117ff57600080fd5b505af1158015611813573d6000803e3d6000fd5b505050506040513d602081101561182957600080fd5b8101908080519060200190929190505050421115151561184857600080fd5b6000809054906101000a900473ffffffffffffffffffffffffffffffffffffffff1673ffffffffffffffffffffffffffffffffffffffff1663a855d4ce60405180807f6574685553445072696365000000000000000000000000000000000000000000815250600b01905060405180910390206040518263ffffffff167c0100000000000000000000000000000000000000000000000000000000028152600401808260001916600019168152602001915050602060405180830381600087803b15801561191557600080fd5b505af1158015611929573d6000803e3d6000fd5b505050506040513d602081101561193f57600080fd5b8101908080519060200190929190505050935060008411151561195e57fe5b60016000809054906101000a900473ffffffffffffffffffffffffffffffffffffffff1673ffffffffffffffffffffffffffffffffffffffff1663a855d4ce3360405180807f7573657241636365737300000000000000000000000000000000000000000000815250600a018273ffffffffffffffffffffffffffffffffffffffff1673ffffffffffffffffffffffffffffffffffffffff166c0100000000000000000000000002815260140191505060405180910390206040518263ffffffff167c0100000000000000000000000000000000000000000000000000000000028152600401808260001916600019168152602001915050602060405180830381600087803b158015611a7057600080fd5b505af1158015611a84573d6000803e3d6000fd5b505050506040513d6020811015611a9a57600080fd5b810190808051906020019092919050505010151515611ab857600080fd5b6000809054906101000a900473ffffffffffffffffffffffffffffffffffffffff1673ffffffffffffffffffffffffffffffffffffffff1663a855d4ce8c3360405180807f6f776e657273686970556e697473000000000000000000000000000000000000815250600e0183600019166000191681526020018273ffffffffffffffffffffffffffffffffffffffff1673ffffffffffffffffffffffffffffffffffffffff166c010000000000000000000000000281526014019250505060405180910390206040518263ffffffff167c0100000000000000000000000000000000000000000000000000000000028152600401808260001916600019168152602001915050602060405180830381600087803b158015611bd857600080fd5b505af1158015611bec573d6000803e3d6000fd5b505050506040513d6020811015611c0257600080fd5b810190808051906020019092919050505098506000891415611c6857428b600019163373ffffffffffffffffffffffffffffffffffffffff167f6378bb6eaaecd267807601db3ae4d6a317b94199172ea105c306d4cef6f6690d60405160405180910390a45b6000809054906101000a900473ffffffffffffffffffffffffffffffffffffffff1673ffffffffffffffffffffffffffffffffffffffff1663a855d4ce8c60405180807f616d6f756e745261697365640000000000000000000000000000000000000000815250600c01826000191660001916815260200191505060405180910390206040518263ffffffff167c0100000000000000000000000000000000000000000000000000000000028152600401808260001916600019168152602001915050602060405180830381600087803b158015611d4557600080fd5b505af1158015611d59573d6000803e3d6000fd5b505050506040513d6020811015611d6f57600080fd5b810190808051906020019092919050505097506000809054906101000a900473ffffffffffffffffffffffffffffffffffffffff1673ffffffffffffffffffffffffffffffffffffffff1663e2a4853a8c60405180807f616d6f756e745261697365640000000000000000000000000000000000000000815250600c0182600019166000191681526020019150506040518091039020611e18348c6132c290919063ffffffff16565b6040518363ffffffff167c010000000000000000000000000000000000000000000000000000000002815260040180836000191660001916815260200182815260200192505050600060405180830381600087803b158015611e7957600080fd5b505af1158015611e8d573d6000803e3d6000fd5b505050506000809054906101000a900473ffffffffffffffffffffffffffffffffffffffff1673ffffffffffffffffffffffffffffffffffffffff1663e2a4853a8c3360405180807f6f776e657273686970556e697473000000000000000000000000000000000000815250600e0183600019166000191681526020018273ffffffffffffffffffffffffffffffffffffffff1673ffffffffffffffffffffffffffffffffffffffff166c01000000000000000000000000028152601401925050506040518091039020611f6a348d6132c290919063ffffffff16565b6040518363ffffffff167c010000000000000000000000000000000000000000000000000000000002815260040180836000191660001916815260200182815260200192505050600060405180830381600087803b158015611fcb57600080fd5b505af1158015611fdf573d6000803e3d6000fd5b505050508a60001916343373ffffffffffffffffffffffffffffffffffffffff167f8a377beb90a5c0ec4b839d4705277677c35493fa9ee7e7d33c410f5aabca365c60405160405180910390a46001995061215a846000809054906101000a900473ffffffffffffffffffffffffffffffffffffffff1673ffffffffffffffffffffffffffffffffffffffff1663a855d4ce8860405180807f616d6f756e745261697365640000000000000000000000000000000000000000815250600c01826000191660001916815260200191505060405180910390206040518263ffffffff167c0100000000000000000000000000000000000000000000000000000000028152600401808260001916600019168152602001915050602060405180830381600087803b15801561211157600080fd5b505af1158015612125573d6000803e3d6000fd5b505050506040513d602081101561213b57600080fd5b81019080805190602001909291905050506132e090919063ffffffff16565b925061228e670de0b6b3a76400006000809054906101000a900473ffffffffffffffffffffffffffffffffffffffff1673ffffffffffffffffffffffffffffffffffffffff1663a855d4ce8860405180807f616d6f756e74546f426552616973656400000000000000000000000000000000815250601001826000191660001916815260200191505060405180910390206040518263ffffffff167c0100000000000000000000000000000000000000000000000000000000028152600401808260001916600019168152602001915050602060405180830381600087803b15801561224557600080fd5b505af1158015612259573d6000803e3d6000fd5b505050506040513d602081101561226f57600080fd5b81019080805190602001909291905050506132e090919063ffffffff16565b91506000809054906101000a900473ffffffffffffffffffffffffffffffffffffffff1673ffffffffffffffffffffffffffffffffffffffff1663a855d4ce8660405180807f616d6f756e745261697365640000000000000000000000000000000000000000815250600c01826000191660001916815260200191505060405180910390206040518263ffffffff167c0100000000000000000000000000000000000000000000000000000000028152600401808260001916600019168152602001915050602060405180830381600087803b15801561236d57600080fd5b505af1158015612381573d6000803e3d6000fd5b505050506040513d602081101561239757600080fd5b810190808051906020019092919050505090507fabbf7c9217be50e05abd523b5a8f758a963edaaf55b5de7a2f4f4091c95ea3fb83838360405180848152602001838152602001828152602001935050505060405180910390a16000809054906101000a900473ffffffffffffffffffffffffffffffffffffffff1673ffffffffffffffffffffffffffffffffffffffff1663a855d4ce8660405180807f616d6f756e74546f426552616973656400000000000000000000000000000000815250601001826000191660001916815260200191505060405180910390206040518263ffffffff167c0100000000000000000000000000000000000000000000000000000000028152600401808260001916600019168152602001915050602060405180830381600087803b1580156124ce57600080fd5b505af11580156124e2573d6000803e3d6000fd5b505050506040513d60208110156124f857600080fd5b810190808051906020019092919050505061264d670de0b6b3a764000061263f876000809054906101000a900473ffffffffffffffffffffffffffffffffffffffff1673ffffffffffffffffffffffffffffffffffffffff1663a855d4ce8b60405180807f616d6f756e745261697365640000000000000000000000000000000000000000815250600c01826000191660001916815260200191505060405180910390206040518263ffffffff167c0100000000000000000000000000000000000000000000000000000000028152600401808260001916600019168152602001915050602060405180830381600087803b1580156125f657600080fd5b505af115801561260a573d6000803e3d6000fd5b505050506040513d602081101561262057600080fd5b81019080805190602001909291905050506132e090919063ffffffff16565b61331b90919063ffffffff16565b10151561287b576000809054906101000a900473ffffffffffffffffffffffffffffffffffffffff1673ffffffffffffffffffffffffffffffffffffffff1663e2b202bf8660405180807f616d6f756e74546f426552616973656400000000000000000000000000000000815250601001826000191660001916815260200191505060405180910390206040518263ffffffff167c0100000000000000000000000000000000000000000000000000000000028152600401808260001916600019168152602001915050600060405180830381600087803b15801561273157600080fd5b505af1158015612745573d6000803e3d6000fd5b50505050428486600019167fca2bea473aeb046f60d64c3377f67f3648239971bf752a2515649ff970dd13ef60405160405180910390a46000809054906101000a900473ffffffffffffffffffffffffffffffffffffffff1673ffffffffffffffffffffffffffffffffffffffff1663e2a4853a8660405180807f66756e64696e6753746167650000000000000000000000000000000000000000815250600c018260001916600019168152602001915050604051809103902060036040518363ffffffff167c010000000000000000000000000000000000000000000000000000000002815260040180836000191660001916815260200182815260200192505050600060405180830381600087803b15801561286257600080fd5b505af1158015612876573d6000803e3d6000fd5b505050505b505050505050505050919050565b600080600080600060149054906101000a900460ff161515156128ab57600080fd5b6001600060146101000a81548160ff0219169083151502179055506000809054906101000a900473ffffffffffffffffffffffffffffffffffffffff1673ffffffffffffffffffffffffffffffffffffffff16633b7bfda03060405180807f70617573650000000000000000000000000000000000000000000000000000008152506005018273ffffffffffffffffffffffffffffffffffffffff1673ffffffffffffffffffffffffffffffffffffffff166c0100000000000000000000000002815260140191505060405180910390206040518263ffffffff167c0100000000000000000000000000000000000000000000000000000000028152600401808260001916600019168152602001915050602060405180830381600087803b1580156129d657600080fd5b505af11580156129ea573d6000803e3d6000fd5b505050506040513d6020811015612a0057600080fd5b8101908080519060200190929190505050151515612a1d57600080fd5b846003806000809054906101000a900473ffffffffffffffffffffffffffffffffffffffff1673ffffffffffffffffffffffffffffffffffffffff1663a855d4ce8460405180807f66756e64696e6753746167650000000000000000000000000000000000000000815250600c01826000191660001916815260200191505060405180910390206040518263ffffffff167c0100000000000000000000000000000000000000000000000000000000028152600401808260001916600019168152602001915050602060405180830381600087803b158015612afe57600080fd5b505af1158015612b12573d6000803e3d6000fd5b505050506040513d6020811015612b2857600080fd5b8101908080519060200190929190505050141515612b4557600080fd5b6000809054906101000a900473ffffffffffffffffffffffffffffffffffffffff1673ffffffffffffffffffffffffffffffffffffffff1663a855d4ce8860405180807f616d6f756e745261697365640000000000000000000000000000000000000000815250600c01826000191660001916815260200191505060405180910390206040518263ffffffff167c0100000000000000000000000000000000000000000000000000000000028152600401808260001916600019168152602001915050602060405180830381600087803b158015612c2257600080fd5b505af1158015612c36573d6000803e3d6000fd5b505050506040513d6020811015612c4c57600080fd5b81019080805190602001909291905050509450612d796000809054906101000a900473ffffffffffffffffffffffffffffffffffffffff1673ffffffffffffffffffffffffffffffffffffffff1663a855d4ce60405180807f6d79426974466f756e646174696f6e50657263656e7461676500000000000000815250601901905060405180910390206040518263ffffffff167c0100000000000000000000000000000000000000000000000000000000028152600401808260001916600019168152602001915050602060405180830381600087803b158015612d2f57600080fd5b505af1158015612d43573d6000803e3d6000fd5b505050506040513d6020811015612d5957600080fd5b81019080805190602001909291905050508661333190919063ffffffff16565b9350612e956000809054906101000a900473ffffffffffffffffffffffffffffffffffffffff1673ffffffffffffffffffffffffffffffffffffffff1663a855d4ce60405180807f696e7374616c6c657250657263656e7461676500000000000000000000000000815250601301905060405180910390206040518263ffffffff167c0100000000000000000000000000000000000000000000000000000000028152600401808260001916600019168152602001915050602060405180830381600087803b158015612e4b57600080fd5b505af1158015612e5f573d6000803e3d6000fd5b505050506040513d6020811015612e7557600080fd5b81019080805190602001909291905050508661333190919063ffffffff16565b925084612eab84866132c290919063ffffffff16565b141515612eb457fe5b6000809054906101000a900473ffffffffffffffffffffffffffffffffffffffff1673ffffffffffffffffffffffffffffffffffffffff166304f49a3a60405180807f4d79426974466f756e646174696f6e0000000000000000000000000000000000815250600f01905060405180910390206040518263ffffffff167c0100000000000000000000000000000000000000000000000000000000028152600401808260001916600019168152602001915050602060405180830381600087803b158015612f8157600080fd5b505af1158015612f95573d6000803e3d6000fd5b505050506040513d6020811015612fab57600080fd5b810190808051906020019092919050505073ffffffffffffffffffffffffffffffffffffffff166108fc859081150290604051600060405180830381858888f19350505050158015613001573d6000803e3d6000fd5b506000809054906101000a900473ffffffffffffffffffffffffffffffffffffffff1673ffffffffffffffffffffffffffffffffffffffff166304f49a3a60405180807f496e7374616c6c6572457363726f770000000000000000000000000000000000815250600f01905060405180910390206040518263ffffffff167c0100000000000000000000000000000000000000000000000000000000028152600401808260001916600019168152602001915050602060405180830381600087803b1580156130cf57600080fd5b505af11580156130e3573d6000803e3d6000fd5b505050506040513d60208110156130f957600080fd5b810190808051906020019092919050505073ffffffffffffffffffffffffffffffffffffffff166108fc849081150290604051600060405180830381858888f1935050505015801561314f573d6000803e3d6000fd5b506000809054906101000a900473ffffffffffffffffffffffffffffffffffffffff1673ffffffffffffffffffffffffffffffffffffffff1663e2a4853a8860405180807f66756e64696e6753746167650000000000000000000000000000000000000000815250600c018260001916600019168152602001915050604051809103902060046040518363ffffffff167c010000000000000000000000000000000000000000000000000000000002815260040180836000191660001916815260200182815260200192505050600060405180830381600087803b15801561323657600080fd5b505af115801561324a573d6000803e3d6000fd5b50505050438588600019167f0af810c41e3d0898ccca57aec9d52a44e050778a39ffd7db1cb7b1187d54c97d60405160405180910390a460019550505060008060146101000a81548160ff021916908315150217905550505050919050565b60008282111515156132b757fe5b818303905092915050565b60008082840190508381101515156132d657fe5b8091505092915050565b60008060008414156132f55760009150613314565b828402905082848281151561330657fe5b0414151561331057fe5b8091505b5092915050565b6000818381151561332857fe5b04905092915050565b600061334761334084846132e0565b606461331b565b9050929150505600a165627a7a72305820dbbdd10d7568475a48a8d83dccf2d0768ae99e4b60e518520cb350a0c45e226a0029",
  "source": "pragma solidity 0.4.23;\n\nimport './SafeMath.sol';\nimport './Database.sol';\n\n//------------------------------------------------------------------------------------------------------------------\n// This contract is where users can fund assets or receive refunds from failed funding periods. Funding stages are represented by uints.\n// Funding stages: 0: funding hasn't started, 1: currently being funded, 2: funding failed,  3: funding success, 4: asset is live \n//------------------------------------------------------------------------------------------------------------------\ncontract FundingHub {\n  using SafeMath for *;\n\n  Database public database;\n\n  bool private rentrancy_lock;    // Prevents re-entrancy attack\n\n  //------------------------------------------------------------------------------------------------------------------\n  // Contructor:\n  // @Param: The address for the MyBit database\n  //------------------------------------------------------------------------------------------------------------------\n  constructor(address _database)\n  public {\n      database = Database(_database);\n  }\n\n  //------------------------------------------------------------------------------------------------------------------\n  // Users can send Ether here to fund asset if funding goal hasn't been reached and the funding period isn't over.\n  // Invariants: Requires Eth be sent with transaction |  Must be in funding stage. Must be under goal | Must have KYC approved. | contract is not paused\n  //------------------------------------------------------------------------------------------------------------------\n  function fund(bytes32 _assetID)\n  external\n  payable\n  requiresEther\n  whenNotPaused\n  atStage(_assetID, uint(1))\n  priceUpdated\n  fundingLimit(_assetID)\n  onlyApproved\n  returns (bool) {\n    uint ownershipUnits = database.uintStorage(keccak256(\"ownershipUnits\", _assetID, msg.sender));\n    if (ownershipUnits == 0) {\n      LogNewFunder(msg.sender, _assetID, block.timestamp);    // Create event to reference list of funders\n    }\n    uint amountRaised = database.uintStorage(keccak256(\"amountRaised\", _assetID));\n    database.setUint(keccak256(\"amountRaised\", _assetID), amountRaised.add(msg.value));\n    database.setUint(keccak256(\"ownershipUnits\", _assetID, msg.sender), ownershipUnits.add(msg.value));\n    emit LogAssetFunded(msg.sender, msg.value, _assetID);\n    return true;\n  }\n\n  //------------------------------------------------------------------------------------------------------------------\n  // This is called once funding has succeeded. Sends Ether to installer, foundation and Token Holders\n  // Invariants: Must be in stage FundingSuccess | MyBitFoundation + AssetEscrow  + BugEscrow addresses are set | Contract is not paused\n  // Note: Will fail if addresses + percentages are not set. AmountRaised = WeiRaised + assetOperator ownershipUnits\n  //------------------------------------------------------------------------------------------------------------------\n  function payout(bytes32 _assetID)\n  external\n  nonReentrant\n  whenNotPaused\n  atStage(_assetID, uint(3))       // Can only get to stage 3 by receiving enough funding within time limit\n  returns (bool) {\n    uint amountRaised = database.uintStorage(keccak256(\"amountRaised\", _assetID));\n    uint myBitAmount = amountRaised.getFractionalAmount(database.uintStorage(keccak256(\"myBitFoundationPercentage\")));\n    uint installerAmount = amountRaised.getFractionalAmount(database.uintStorage(keccak256(\"installerPercentage\")));\n    assert (myBitAmount.add(installerAmount) == amountRaised);       // TODO: for testing\n    database.addressStorage(keccak256(\"MyBitFoundation\")).transfer(myBitAmount);             // Must be normal account\n    database.addressStorage(keccak256(\"InstallerEscrow\")).transfer(installerAmount);             // Must be normal account\n    database.setUint(keccak256(\"fundingStage\", _assetID), uint(4));\n    emit LogAssetPayout(_assetID, amountRaised, block.number);\n    return true;\n  }\n\n  //------------------------------------------------------------------------------------------------------------------\n  // This function needs to be called to allow refunds to be made. Signals to the myBitHub contract that funding has failed + moves stage to Funding failed\n  // Invariants: Must be still be in funding stage | must be passed deadline\n  //------------------------------------------------------------------------------------------------------------------\n  function initiateRefund(bytes32 _assetID)\n  external\n  fundingPeriodOver(_assetID)\n  atStage(_assetID, uint(1))\n  returns (bool) {\n    database.setUint(keccak256(\"fundingStage\", _assetID), uint(2));\n    emit LogAssetFundingFailed(_assetID, database.uintStorage(keccak256(\"amountRaised\", _assetID)), block.timestamp);\n    return true;\n  }\n\n  //------------------------------------------------------------------------------------------------------------------\n  // Contributors can retrieve their funds here if campaign is finished + failure and initateRefund() has been called.\n  // Invariants: sender must have ownershipUnits | Must be in failed funding stage || No re-entry | Contract must not be paused\n  //------------------------------------------------------------------------------------------------------------------\n  function refund(bytes32 _assetID)\n  external\n  nonReentrant\n  whenNotPaused\n  atStage(_assetID, uint(2))\n  returns (bool) {\n    uint ownershipUnits = database.uintStorage(keccak256(\"ownershipUnits\", _assetID, msg.sender));\n    require (ownershipUnits > 0);\n    database.deleteUint(keccak256(\"ownershipUnits\", _assetID, msg.sender));\n    uint amountRaised = database.uintStorage(keccak256(\"amountRaised\", _assetID));\n    database.setUint(keccak256(\"amountRaised\", _assetID), amountRaised.sub(ownershipUnits));\n    msg.sender.transfer(ownershipUnits);\n    emit LogRefund(msg.sender, ownershipUnits, block.timestamp);\n    return true;\n  }\n\n  //------------------------------------------------------------------------------------------------------------------\n  // Must be authorized by 1 of the 3 owners and then can be called by any of the other 2\n  // Invariants: Must be 1 of 3 owners. Cannot be called by same owner who authorized the function to be called.\n  //------------------------------------------------------------------------------------------------------------------\n  function destroy(address _functionInitiator, address _holdingAddress)\n  anyOwner\n  public {\n    require(_functionInitiator != msg.sender);\n    require(database.boolStorage(keccak256(this, _functionInitiator, \"destroy\", keccak256(_holdingAddress))));\n    emit LogDestruction(_holdingAddress, this.balance, msg.sender);\n    selfdestruct(_holdingAddress);\n  }\n\n\n  //------------------------------------------------------------------------------------------------------------------\n  //                                            Modifiers\n  //------------------------------------------------------------------------------------------------------------------\n\n  //------------------------------------------------------------------------------------------------------------------\n  // Requires caller is one of the three owners\n  //------------------------------------------------------------------------------------------------------------------\n  modifier anyOwner {\n    require(database.boolStorage(keccak256(\"owner\", msg.sender)));\n    _;\n  }\n\n  //------------------------------------------------------------------------------------------------------------------\n  // Requires that the contract is not paused\n  //------------------------------------------------------------------------------------------------------------------\n  modifier whenNotPaused {\n    require(!database.boolStorage(keccak256(\"pause\", this)));\n    _;\n  }\n\n  //------------------------------------------------------------------------------------------------------------------\n  // Don't let function caller re-enter function before initial transaction finishes \n  //------------------------------------------------------------------------------------------------------------------\n  modifier nonReentrant() {\n    require(!rentrancy_lock);\n    rentrancy_lock = true;\n    _;\n    rentrancy_lock = false;\n  }\n\n  //------------------------------------------------------------------------------------------------------------------\n  // Requires that Ether is sent with the transaction\n  //------------------------------------------------------------------------------------------------------------------\n  modifier requiresEther() {\n    require(msg.value > 0);\n    _;\n  }\n\n  //------------------------------------------------------------------------------------------------------------------\n  // Requires user has burnt tokens to access this function\n  //------------------------------------------------------------------------------------------------------------------\n  modifier onlyApproved{\n    require(database.uintStorage(keccak256(\"userAccess\", msg.sender)) >= uint(1));\n    _;\n  }\n\n  //------------------------------------------------------------------------------------------------------------------\n  // Transitions funding period to success if enough Ether is raised\n  // Must be in funding stage 3 (currently being funded).\n  // Deletes funding raising variables if current transaction puts it over the goal.\n  // TODO: Remove fundingLimitModifier when done testing \n  //------------------------------------------------------------------------------------------------------------------\n  modifier fundingLimit(bytes32 _assetID) {\n    require(now <= database.uintStorage(keccak256(\"fundingDeadline\", _assetID)));\n    uint currentEthPrice = database.uintStorage(keccak256(\"ethUSDPrice\"));\n    assert (currentEthPrice > 0); \n    _;\n    uint value1 = database.uintStorage(keccak256(\"amountRaised\", _assetID)).mul(currentEthPrice);\n    uint value2 = database.uintStorage(keccak256(\"amountToBeRaised\", _assetID)).mul(1e18);\n    uint value3 = database.uintStorage(keccak256(\"amountRaised\", _assetID));\n\n    emit fundingLimitModifier(value1, value2, value3);\n    if (database.uintStorage(keccak256(\"amountRaised\", _assetID)).mul(currentEthPrice).div(1e18) >= database.uintStorage(keccak256(\"amountToBeRaised\", _assetID))) {\n       database.deleteUint(keccak256(\"amountToBeRaised\", _assetID));      // No longer need this variable\n       emit LogAssetFundingSuccess(_assetID, currentEthPrice, block.timestamp);\n       database.setUint(keccak256(\"fundingStage\", _assetID), 3);\n      }\n  }\n  \n  //------------------------------------------------------------------------------------------------------------------\n  // Check that the Ether/USD prices have been updated \n  //------------------------------------------------------------------------------------------------------------------\n  modifier priceUpdated {\n    require (now < database.uintStorage(keccak256(\"ethUSDPriceExpiration\")));\n    _;\n  }\n\n  //------------------------------------------------------------------------------------------------------------------\n  // Requires the funding stage is at a particular stage\n  //------------------------------------------------------------------------------------------------------------------\n  modifier atStage(bytes32 _assetID, uint _stage) {\n    require(database.uintStorage(keccak256(\"fundingStage\", _assetID)) == _stage);\n    _;\n  }\n\n  //------------------------------------------------------------------------------------------------------------------\n  // Requires that the funding deadline has passed \n  //------------------------------------------------------------------------------------------------------------------\n  modifier fundingPeriodOver(bytes32 _assetID) {\n    require(now >= database.uintStorage(keccak256(\"fundingDeadline\", _assetID)));\n    _;\n  }\n\n  //------------------------------------------------------------------------------------------------------------------\n  // Fallback: Reject Ether\n  //------------------------------------------------------------------------------------------------------------------\n  function ()\n  public {\n    revert();\n  }\n\n\n  //------------------------------------------------------------------------------------------------------------------\n  //                                            Events \n  //------------------------------------------------------------------------------------------------------------------\n\n  event LogNewFunder(address indexed _funder, bytes32 indexed _assetID, uint indexed _timestamp);\n  event LogAssetFunded(address indexed _sender, uint indexed _amount, bytes32 indexed _assetID);\n  event LogAssetFundingFailed(bytes32 indexed _assetID, uint indexed _amountRaised, uint indexed _timestamp);\n  event LogAssetFundingSuccess(bytes32 indexed _assetID, uint indexed _currentEthPrice, uint indexed _timestamp);\n  event LogRefund(address indexed _funder, uint indexed _amount, uint indexed _timestamp);\n  event LogAssetPayout(bytes32 indexed _assetID, uint indexed _amount, uint indexed _blockNumber);\n  event LogDestruction(address indexed _locationSent, uint indexed _amountSent, address indexed _caller);\n  event fundingLimitModifier(uint _value1, uint _value2, uint _value3);\n}\n",
  "sourcePath": "/var/www/html/mybit/dapp/Contracts/contracts/FundingHub.sol",
  "compiler": {
    "name": "solc",
    "version": "0.4.23+commit.124ca40d.Emscripten.clang"
  },
  "schemaVersion": "2.0.0",
  "updatedAt": "2018-05-15T12:10:07.892Z"
}