{
  "contractName": "HashFunctions",
  "abi": [
    {
      "payable": false,
      "stateMutability": "nonpayable",
      "type": "fallback"
    },
    {
      "constant": true,
      "inputs": [
        {
          "name": "_assetID",
          "type": "bytes"
        },
        {
          "name": "_user",
          "type": "address"
        },
        {
          "name": "_amount",
          "type": "uint256"
        },
        {
          "name": "_price",
          "type": "uint256"
        },
        {
          "name": "_buyOrder",
          "type": "bool"
        }
      ],
      "name": "getOrderID",
      "outputs": [
        {
          "name": "",
          "type": "bytes32"
        }
      ],
      "payable": false,
      "stateMutability": "pure",
      "type": "function"
    },
    {
      "constant": true,
      "inputs": [
        {
          "name": "_param",
          "type": "uint256"
        }
      ],
      "name": "uintHash",
      "outputs": [
        {
          "name": "",
          "type": "bytes32"
        }
      ],
      "payable": false,
      "stateMutability": "pure",
      "type": "function"
    },
    {
      "constant": true,
      "inputs": [
        {
          "name": "_staker",
          "type": "address"
        },
        {
          "name": "_blockNumber",
          "type": "uint256"
        },
        {
          "name": "_amount",
          "type": "uint256"
        }
      ],
      "name": "getStakingID",
      "outputs": [
        {
          "name": "",
          "type": "bytes32"
        }
      ],
      "payable": false,
      "stateMutability": "pure",
      "type": "function"
    },
    {
      "constant": true,
      "inputs": [
        {
          "name": "_name",
          "type": "string"
        }
      ],
      "name": "stringHash",
      "outputs": [
        {
          "name": "",
          "type": "bytes32"
        }
      ],
      "payable": false,
      "stateMutability": "pure",
      "type": "function"
    },
    {
      "constant": true,
      "inputs": [
        {
          "name": "_param",
          "type": "address"
        }
      ],
      "name": "addressHash",
      "outputs": [
        {
          "name": "",
          "type": "bytes32"
        }
      ],
      "payable": false,
      "stateMutability": "pure",
      "type": "function"
    },
    {
      "constant": true,
      "inputs": [
        {
          "name": "_name",
          "type": "string"
        }
      ],
      "name": "contractHash",
      "outputs": [
        {
          "name": "",
          "type": "bytes32"
        }
      ],
      "payable": false,
      "stateMutability": "pure",
      "type": "function"
    },
    {
      "constant": true,
      "inputs": [
        {
          "name": "_param",
          "type": "string"
        },
        {
          "name": "_paramTwo",
          "type": "address"
        }
      ],
      "name": "stringAddress",
      "outputs": [
        {
          "name": "",
          "type": "bytes32"
        }
      ],
      "payable": false,
      "stateMutability": "pure",
      "type": "function"
    },
    {
      "constant": true,
      "inputs": [
        {
          "name": "_param",
          "type": "string"
        },
        {
          "name": "_paramTwo",
          "type": "string"
        }
      ],
      "name": "stringString",
      "outputs": [
        {
          "name": "",
          "type": "bytes32"
        }
      ],
      "payable": false,
      "stateMutability": "pure",
      "type": "function"
    },
    {
      "constant": true,
      "inputs": [
        {
          "name": "_param",
          "type": "string"
        },
        {
          "name": "_paramTwo",
          "type": "bytes32"
        }
      ],
      "name": "stringBytes",
      "outputs": [
        {
          "name": "",
          "type": "bytes32"
        }
      ],
      "payable": false,
      "stateMutability": "pure",
      "type": "function"
    },
    {
      "constant": true,
      "inputs": [
        {
          "name": "_param",
          "type": "string"
        },
        {
          "name": "_paramTwo",
          "type": "uint256"
        }
      ],
      "name": "stringUint",
      "outputs": [
        {
          "name": "",
          "type": "bytes32"
        }
      ],
      "payable": false,
      "stateMutability": "pure",
      "type": "function"
    },
    {
      "constant": true,
      "inputs": [
        {
          "name": "_param",
          "type": "string"
        },
        {
          "name": "_paramTwo",
          "type": "bytes32"
        },
        {
          "name": "_paramThree",
          "type": "address"
        }
      ],
      "name": "stringBytesAddress",
      "outputs": [
        {
          "name": "",
          "type": "bytes32"
        }
      ],
      "payable": false,
      "stateMutability": "pure",
      "type": "function"
    },
    {
      "constant": true,
      "inputs": [
        {
          "name": "_param",
          "type": "address"
        },
        {
          "name": "_paramTwo",
          "type": "uint256"
        },
        {
          "name": "_paramThree",
          "type": "uint256"
        }
      ],
      "name": "addressUintUint",
      "outputs": [
        {
          "name": "",
          "type": "bytes32"
        }
      ],
      "payable": false,
      "stateMutability": "pure",
      "type": "function"
    },
    {
      "constant": true,
      "inputs": [
        {
          "name": "_contractAddress",
          "type": "address"
        },
        {
          "name": "_owner",
          "type": "address"
        },
        {
          "name": "_fnName",
          "type": "string"
        },
        {
          "name": "_recipient",
          "type": "bytes32"
        }
      ],
      "name": "getAuthorizeHash",
      "outputs": [
        {
          "name": "",
          "type": "bytes32"
        }
      ],
      "payable": false,
      "stateMutability": "pure",
      "type": "function"
    },
    {
      "constant": true,
      "inputs": [
        {
          "name": "_paramOne",
          "type": "uint256"
        },
        {
          "name": "_paramTwo",
          "type": "uint256"
        }
      ],
      "name": "uintUint",
      "outputs": [
        {
          "name": "",
          "type": "bytes32"
        }
      ],
      "payable": false,
      "stateMutability": "pure",
      "type": "function"
    },
    {
      "constant": true,
      "inputs": [
        {
          "name": "_paramOne",
          "type": "uint256"
        },
        {
          "name": "_paramTwo",
          "type": "uint256"
        },
        {
          "name": "_paramThree",
          "type": "uint256"
        }
      ],
      "name": "uintUintUint",
      "outputs": [
        {
          "name": "",
          "type": "bytes32"
        }
      ],
      "payable": false,
      "stateMutability": "pure",
      "type": "function"
    },
    {
      "constant": true,
      "inputs": [],
      "name": "nullBytes",
      "outputs": [
        {
          "name": "",
          "type": "bytes32"
        }
      ],
      "payable": false,
      "stateMutability": "pure",
      "type": "function"
    },
    {
      "constant": true,
      "inputs": [],
      "name": "nullAddress",
      "outputs": [
        {
          "name": "",
          "type": "address"
        }
      ],
      "payable": false,
      "stateMutability": "pure",
      "type": "function"
    },
    {
      "constant": true,
      "inputs": [],
      "name": "currentTimestamp",
      "outputs": [
        {
          "name": "",
          "type": "uint256"
        }
      ],
      "payable": false,
      "stateMutability": "view",
      "type": "function"
    }
  ],
  "bytecode": "0x608060405234801561001057600080fd5b50610d75806100206000396000f3006080604052600436106100fb576000357c0100000000000000000000000000000000000000000000000000000000900463ffffffff168062adc3821461010d5780630b0e7f151461016c5780630d155a78146101c357806314c44600146102325780631e2ff94f146102855780632a382d96146102b05780633bf9089514610347578063433f99db146103cc578063547b82cd14610415578063551edf901461047657806368f68fb3146104cd5780637b4937b214610540578063812146a9146105a5578063924b7b9614610618578063e77172c31461068f578063f07b2e7e146106c2578063f5b8c4c014610719578063fe10c7d214610776575b34801561010757600080fd5b50600080fd5b34801561011957600080fd5b5061014e600480360381019080803573ffffffffffffffffffffffffffffffffffffffff16906020019092919050505061081b565b60405180826000191660001916815260200191505060405180910390f35b34801561017857600080fd5b506101a5600480360381019080803590602001908201803590602001919091929391929390505050610875565b60405180826000191660001916815260200191505060405180910390f35b3480156101cf57600080fd5b5061021460048036038101908080359060200190820180359060200191909192939192939080359060200190820180359060200191909192939192939050505061089c565b60405180826000191660001916815260200191505060405180910390f35b34801561023e57600080fd5b5061026760048036038101908080359060200190929190803590602001909291905050506108d4565b60405180826000191660001916815260200191505060405180910390f35b34801561029157600080fd5b5061029a6108fc565b6040518082815260200191505060405180910390f35b3480156102bc57600080fd5b50610329600480360381019080803590602001908201803590602001919091929391929390803573ffffffffffffffffffffffffffffffffffffffff1690602001909291908035906020019092919080359060200190929190803515159060200190929190505050610904565b60405180826000191660001916815260200191505060405180910390f35b34801561035357600080fd5b506103ae6004803603810190808035906020019082018035906020019190919293919293908035600019169060200190929190803573ffffffffffffffffffffffffffffffffffffffff1690602001909291905050506109b0565b60405180826000191660001916815260200191505060405180910390f35b3480156103d857600080fd5b506103f760048036038101908080359060200190929190505050610a2c565b60405180826000191660001916815260200191505060405180910390f35b34801561042157600080fd5b5061045860048036038101908080359060200190820180359060200191909192939192939080359060200190929190505050610a4b565b60405180826000191660001916815260200191505060405180910390f35b34801561048257600080fd5b5061048b610a7b565b604051808273ffffffffffffffffffffffffffffffffffffffff1673ffffffffffffffffffffffffffffffffffffffff16815260200191505060405180910390f35b3480156104d957600080fd5b50610522600480360381019080803573ffffffffffffffffffffffffffffffffffffffff1690602001909291908035906020019092919080359060200190929190505050610a83565b60405180826000191660001916815260200191505060405180910390f35b34801561054c57600080fd5b506105876004803603810190808035906020019082018035906020019190919293919293908035600019169060200190929190505050610aef565b60405180826000191660001916815260200191505060405180910390f35b3480156105b157600080fd5b506105fa600480360381019080803573ffffffffffffffffffffffffffffffffffffffff1690602001909291908035906020019092919080359060200190929190505050610b27565b60405180826000191660001916815260200191505060405180910390f35b34801561062457600080fd5b50610671600480360381019080803590602001908201803590602001919091929391929390803573ffffffffffffffffffffffffffffffffffffffff169060200190929190505050610b93565b60405180826000191660001916815260200191505060405180910390f35b34801561069b57600080fd5b506106a4610bfe565b60405180826000191660001916815260200191505060405180910390f35b3480156106ce57600080fd5b506106fb600480360381019080803590602001908201803590602001919091929391929390505050610c09565b60405180826000191660001916815260200191505060405180910390f35b34801561072557600080fd5b50610758600480360381019080803590602001909291908035906020019092919080359060200190929190505050610c58565b60405180826000191660001916815260200191505060405180910390f35b34801561078257600080fd5b506107fd600480360381019080803573ffffffffffffffffffffffffffffffffffffffff169060200190929190803573ffffffffffffffffffffffffffffffffffffffff1690602001909291908035906020019082018035906020019190919293919293908035600019169060200190929190505050610c89565b60405180826000191660001916815260200191505060405180910390f35b600081604051808273ffffffffffffffffffffffffffffffffffffffff1673ffffffffffffffffffffffffffffffffffffffff166c0100000000000000000000000002815260140191505060405180910390209050919050565b60008282604051808383808284378201915050925050506040518091039020905092915050565b600084848484604051808585808284378201915050838380828437820191505094505050505060405180910390209050949350505050565b6000828260405180838152602001828152602001925050506040518091039020905092915050565b600042905090565b60008686868686866040518087878082843782019150508573ffffffffffffffffffffffffffffffffffffffff1673ffffffffffffffffffffffffffffffffffffffff166c0100000000000000000000000002815260140184815260200183815260200182151515157f01000000000000000000000000000000000000000000000000000000000000000281526001019650505050505050604051809103902090509695505050505050565b60008484848460405180858580828437820191505083600019166000191681526020018273ffffffffffffffffffffffffffffffffffffffff1673ffffffffffffffffffffffffffffffffffffffff166c0100000000000000000000000002815260140194505050505060405180910390209050949350505050565b6000816040518082815260200191505060405180910390209050919050565b60008383836040518084848082843782019150508281526020019350505050604051809103902090509392505050565b600080905090565b6000838383604051808473ffffffffffffffffffffffffffffffffffffffff1673ffffffffffffffffffffffffffffffffffffffff166c010000000000000000000000000281526014018381526020018281526020019350505050604051809103902090509392505050565b600083838360405180848480828437820191505082600019166000191681526020019350505050604051809103902090509392505050565b6000838383604051808473ffffffffffffffffffffffffffffffffffffffff1673ffffffffffffffffffffffffffffffffffffffff166c010000000000000000000000000281526014018381526020018281526020019350505050604051809103902090509392505050565b60008383836040518084848082843782019150508273ffffffffffffffffffffffffffffffffffffffff1673ffffffffffffffffffffffffffffffffffffffff166c010000000000000000000000000281526014019350505050604051809103902090509392505050565b600080600102905090565b6000828260405180807f636f6e74726163740000000000000000000000000000000000000000000000008152506008018383808284378201915050925050506040518091039020905092915050565b6000838383604051808481526020018381526020018281526020019350505050604051809103902090509392505050565b60008585858585604051808673ffffffffffffffffffffffffffffffffffffffff1673ffffffffffffffffffffffffffffffffffffffff166c010000000000000000000000000281526014018573ffffffffffffffffffffffffffffffffffffffff1673ffffffffffffffffffffffffffffffffffffffff166c01000000000000000000000000028152601401848480828437820191505082600019166000191681526020019550505050505060405180910390209050959450505050505600a165627a7a723058208f5a85be7f32347da3c715eb374136aad6213b92d48d633641c3bf29c4cf9cc50029",
  "source": "pragma solidity 0.4.23;\n\ncontract HashFunctions { \n\n  function getOrderID(bytes _assetID, address _user, uint _amount, uint _price, bool _buyOrder)\n  external\n  pure\n  returns(bytes32) {\n    return keccak256(_assetID, _user, _amount, _price, _buyOrder); \n  }\n  \n  function uintHash(uint _param)\n  external\n  pure \n  returns (bytes32) { \n    return keccak256(_param); \n  }\n\n  function getStakingID(address _staker, uint256 _blockNumber, uint256 _amount)\n  external\n  pure\n  returns (bytes32) { \n    return keccak256(_staker, _blockNumber, _amount); \n  }\n\n  function stringHash(string _name) \n  external\n  pure \n  returns (bytes32){\n    return keccak256(_name);\n  }\n\n  function addressHash(address _param)\n  external\n  pure \n  returns (bytes32) { \n    return keccak256(_param);\n  }\n  \n\n  function contractHash(string _name)\n  external\n  pure\n  returns (bytes32) { \n    return keccak256(\"contract\", _name);\n  }\n\n  function stringAddress(string _param, address _paramTwo)\n  external\n  pure\n  returns (bytes32) { \n    return keccak256(_param, _paramTwo); \n  }\n\n  function stringString(string _param, string _paramTwo)\n  external\n  pure \n  returns (bytes32) { \n    return (keccak256(_param, _paramTwo)); \n  }\n\n  function stringBytes(string _param, bytes32 _paramTwo)\n  external\n  pure \n  returns (bytes32) { \n    return keccak256(_param, _paramTwo);\n  }\n\n  function stringUint(string _param, uint _paramTwo)\n  external\n  pure \n  returns (bytes32) {\n    return keccak256(_param, _paramTwo);\n  }\n\n  function stringBytesAddress(string _param, bytes32 _paramTwo, address _paramThree)\n  external\n  pure \n  returns (bytes32) { \n    return keccak256(_param, _paramTwo, _paramThree);\n  }\n\n  function addressUintUint(address _param, uint _paramTwo, uint _paramThree)\n  external\n  pure \n  returns (bytes32) { \n    return keccak256(_param, _paramTwo, _paramThree); \n  }\n  \n\n  function getAuthorizeHash(address _contractAddress, address _owner, string _fnName, bytes32 _recipient)\n  external \n  pure \n  returns (bytes32) { \n    return keccak256(_contractAddress, _owner, _fnName, _recipient); \n  }\n\n  function uintUint(uint _paramOne, uint _paramTwo)\n  external\n  pure \n  returns (bytes32) { \n    return keccak256(_paramOne, _paramTwo); \n  }\n\n  function uintUintUint(uint _paramOne, uint _paramTwo, uint _paramThree)\n  external\n  pure \n  returns (bytes32) { \n    return keccak256(_paramOne, _paramTwo, _paramThree); \n  }\n\n  function nullBytes()\n  external\n  pure\n  returns (bytes32) { \n    return bytes32(0); \n  }\n\n  function nullAddress()\n  external\n  pure \n  returns (address) { \n    return address(0);\n  }\n\n  function currentTimestamp()\n  external\n  view\n  returns (uint) { \n    return now; \n  }\n\nfunction ()\npublic {\n  revert();\n}\n\n\n\n\n\n}\n",
  "sourcePath": "/var/www/html/mybit/dapp/Contracts/contracts/HashFunctions.sol",
  "compiler": {
    "name": "solc",
    "version": "0.4.23+commit.124ca40d.Emscripten.clang"
  },
  "schemaVersion": "2.0.0",
  "updatedAt": "2018-05-15T12:10:07.896Z"
}