{
  "contractName": "InitialVariables",
  "abi": [
    {
      "constant": true,
      "inputs": [],
      "name": "database",
      "outputs": [
        {
          "name": "",
          "type": "address"
        }
      ],
      "payable": false,
      "stateMutability": "view",
      "type": "function"
    },
    {
      "inputs": [
        {
          "name": "_database",
          "type": "address"
        }
      ],
      "payable": false,
      "stateMutability": "nonpayable",
      "type": "constructor"
    },
    {
      "anonymous": false,
      "inputs": [
        {
          "indexed": false,
          "name": "_sender",
          "type": "address"
        },
        {
          "indexed": false,
          "name": "_database",
          "type": "address"
        },
        {
          "indexed": false,
          "name": "_blockNumber",
          "type": "uint256"
        }
      ],
      "name": "LogInitialized",
      "type": "event"
    },
    {
      "constant": false,
      "inputs": [
        {
          "name": "_myBitFoundation",
          "type": "address"
        },
        {
          "name": "_installerEscrow",
          "type": "address"
        }
      ],
      "name": "startDapp",
      "outputs": [],
      "payable": false,
      "stateMutability": "nonpayable",
      "type": "function"
    },
    {
      "constant": false,
      "inputs": [
        {
          "name": "_signer",
          "type": "address"
        },
        {
          "name": "_functionName",
          "type": "string"
        },
        {
          "name": "_newAddress",
          "type": "address"
        }
      ],
      "name": "changeFoundationAddress",
      "outputs": [],
      "payable": false,
      "stateMutability": "nonpayable",
      "type": "function"
    }
  ],
  "bytecode": "0x608060405234801561001057600080fd5b506040516020806113d883398101806040528101908080519060200190929190505050806000806101000a81548173ffffffffffffffffffffffffffffffffffffffff021916908373ffffffffffffffffffffffffffffffffffffffff16021790555050611355806100836000396000f300608060405260043610610057576000357c0100000000000000000000000000000000000000000000000000000000900463ffffffff1680631caa5ccb1461005c5780634fdbe2c3146100bf578063713b563f1461013a575b600080fd5b34801561006857600080fd5b506100bd600480360381019080803573ffffffffffffffffffffffffffffffffffffffff169060200190929190803573ffffffffffffffffffffffffffffffffffffffff169060200190929190505050610191565b005b3480156100cb57600080fd5b50610138600480360381019080803573ffffffffffffffffffffffffffffffffffffffff169060200190929190803590602001908201803590602001919091929391929390803573ffffffffffffffffffffffffffffffffffffffff169060200190929190505050610c03565b005b34801561014657600080fd5b5061014f611304565b604051808273ffffffffffffffffffffffffffffffffffffffff1673ffffffffffffffffffffffffffffffffffffffff16815260200191505060405180910390f35b6000809054906101000a900473ffffffffffffffffffffffffffffffffffffffff1673ffffffffffffffffffffffffffffffffffffffff16633b7bfda03360405180807f6f776e65720000000000000000000000000000000000000000000000000000008152506005018273ffffffffffffffffffffffffffffffffffffffff1673ffffffffffffffffffffffffffffffffffffffff166c0100000000000000000000000002815260140191505060405180910390206040518263ffffffff167c0100000000000000000000000000000000000000000000000000000000028152600401808260001916600019168152602001915050602060405180830381600087803b1580156102a157600080fd5b505af11580156102b5573d6000803e3d6000fd5b505050506040513d60208110156102cb57600080fd5b810190808051906020019092919050505015156102e757600080fd5b600073ffffffffffffffffffffffffffffffffffffffff168273ffffffffffffffffffffffffffffffffffffffff16141580156103515750600073ffffffffffffffffffffffffffffffffffffffff168173ffffffffffffffffffffffffffffffffffffffff1614155b151561035c57600080fd5b6000809054906101000a900473ffffffffffffffffffffffffffffffffffffffff1673ffffffffffffffffffffffffffffffffffffffff1663ca446dd960405180807f4d79426974466f756e646174696f6e0000000000000000000000000000000000815250600f0190506040518091039020846040518363ffffffff167c01000000000000000000000000000000000000000000000000000000000281526004018083600019166000191681526020018273ffffffffffffffffffffffffffffffffffffffff1673ffffffffffffffffffffffffffffffffffffffff16815260200192505050600060405180830381600087803b15801561045d57600080fd5b505af1158015610471573d6000803e3d6000fd5b505050506000809054906101000a900473ffffffffffffffffffffffffffffffffffffffff1673ffffffffffffffffffffffffffffffffffffffff1663ca446dd960405180807f496e7374616c6c6572457363726f770000000000000000000000000000000000815250600f0190506040518091039020836040518363ffffffff167c01000000000000000000000000000000000000000000000000000000000281526004018083600019166000191681526020018273ffffffffffffffffffffffffffffffffffffffff1673ffffffffffffffffffffffffffffffffffffffff16815260200192505050600060405180830381600087803b15801561057657600080fd5b505af115801561058a573d6000803e3d6000fd5b505050506000809054906101000a900473ffffffffffffffffffffffffffffffffffffffff1673ffffffffffffffffffffffffffffffffffffffff1663e2a4853a60405180807f6d79426974466f756e646174696f6e50657263656e74616765000000000000008152506019019050604051809103902060016040518363ffffffff167c010000000000000000000000000000000000000000000000000000000002815260040180836000191660001916815260200182815260200192505050600060405180830381600087803b15801561066457600080fd5b505af1158015610678573d6000803e3d6000fd5b505050506000809054906101000a900473ffffffffffffffffffffffffffffffffffffffff1673ffffffffffffffffffffffffffffffffffffffff1663e2a4853a60405180807f696e7374616c6c657250657263656e74616765000000000000000000000000008152506013019050604051809103902060636040518363ffffffff167c010000000000000000000000000000000000000000000000000000000002815260040180836000191660001916815260200182815260200192505050600060405180830381600087803b15801561075257600080fd5b505af1158015610766573d6000803e3d6000fd5b505050506000809054906101000a900473ffffffffffffffffffffffffffffffffffffffff1673ffffffffffffffffffffffffffffffffffffffff1663e2a4853a600160405180807f616363657373546f6b656e466565000000000000000000000000000000000000815250600e01828152602001915050604051809103902060196040518363ffffffff167c010000000000000000000000000000000000000000000000000000000002815260040180836000191660001916815260200182815260200192505050600060405180830381600087803b15801561084957600080fd5b505af115801561085d573d6000803e3d6000fd5b505050506000809054906101000a900473ffffffffffffffffffffffffffffffffffffffff1673ffffffffffffffffffffffffffffffffffffffff1663e2a4853a600260405180807f616363657373546f6b656e466565000000000000000000000000000000000000815250600e018281526020019150506040518091039020604b6040518363ffffffff167c010000000000000000000000000000000000000000000000000000000002815260040180836000191660001916815260200182815260200192505050600060405180830381600087803b15801561094057600080fd5b505af1158015610954573d6000803e3d6000fd5b505050506000809054906101000a900473ffffffffffffffffffffffffffffffffffffffff1673ffffffffffffffffffffffffffffffffffffffff1663e2a4853a600360405180807f616363657373546f6b656e466565000000000000000000000000000000000000815250600e01828152602001915050604051809103902060646040518363ffffffff167c010000000000000000000000000000000000000000000000000000000002815260040180836000191660001916815260200182815260200192505050600060405180830381600087803b158015610a3757600080fd5b505af1158015610a4b573d6000803e3d6000fd5b505050506000809054906101000a900473ffffffffffffffffffffffffffffffffffffffff1673ffffffffffffffffffffffffffffffffffffffff1663e2a4853a60405180807f707269636555706461746554696d656c696e650000000000000000000000000081525060130190506040518091039020620151806040518363ffffffff167c010000000000000000000000000000000000000000000000000000000002815260040180836000191660001916815260200182815260200192505050600060405180830381600087803b158015610b2757600080fd5b505af1158015610b3b573d6000803e3d6000fd5b505050507fba508facb8df18c940324ce63dc2afba5ff4763f0638c85a513dabf1c787b349336000809054906101000a900473ffffffffffffffffffffffffffffffffffffffff1643604051808473ffffffffffffffffffffffffffffffffffffffff1673ffffffffffffffffffffffffffffffffffffffff1681526020018373ffffffffffffffffffffffffffffffffffffffff1673ffffffffffffffffffffffffffffffffffffffff168152602001828152602001935050505060405180910390a15050565b80600073ffffffffffffffffffffffffffffffffffffffff168173ffffffffffffffffffffffffffffffffffffffff1614151515610c4057600080fd5b6000809054906101000a900473ffffffffffffffffffffffffffffffffffffffff1673ffffffffffffffffffffffffffffffffffffffff16633b7bfda03360405180807f6f776e65720000000000000000000000000000000000000000000000000000008152506005018273ffffffffffffffffffffffffffffffffffffffff1673ffffffffffffffffffffffffffffffffffffffff166c0100000000000000000000000002815260140191505060405180910390206040518263ffffffff167c0100000000000000000000000000000000000000000000000000000000028152600401808260001916600019168152602001915050602060405180830381600087803b158015610d5057600080fd5b505af1158015610d64573d6000803e3d6000fd5b505050506040513d6020811015610d7a57600080fd5b81019080805190602001909291905050501515610d9657600080fd5b8484848080601f01602080910402602001604051908101604052809392919081815260200183838082843782019150505050505083604051808273ffffffffffffffffffffffffffffffffffffffff1673ffffffffffffffffffffffffffffffffffffffff166c0100000000000000000000000002815260140191505060405180910390208273ffffffffffffffffffffffffffffffffffffffff163373ffffffffffffffffffffffffffffffffffffffff1614151515610e5657600080fd5b6000809054906101000a900473ffffffffffffffffffffffffffffffffffffffff1673ffffffffffffffffffffffffffffffffffffffff16633b7bfda030858585604051808573ffffffffffffffffffffffffffffffffffffffff1673ffffffffffffffffffffffffffffffffffffffff166c010000000000000000000000000281526014018473ffffffffffffffffffffffffffffffffffffffff1673ffffffffffffffffffffffffffffffffffffffff166c0100000000000000000000000002815260140183805190602001908083835b602083101515610f4e5780518252602082019150602081019050602083039250610f29565b6001836020036101000a038019825116818451168082178552505050505050905001826000191660001916815260200194505050505060405180910390206040518263ffffffff167c0100000000000000000000000000000000000000000000000000000000028152600401808260001916600019168152602001915050602060405180830381600087803b158015610fe657600080fd5b505af1158015610ffa573d6000803e3d6000fd5b505050506040513d602081101561101057600080fd5b8101908080519060200190929190505050151561102c57600080fd5b6000809054906101000a900473ffffffffffffffffffffffffffffffffffffffff1673ffffffffffffffffffffffffffffffffffffffff1663abfdcced30858585604051808573ffffffffffffffffffffffffffffffffffffffff1673ffffffffffffffffffffffffffffffffffffffff166c010000000000000000000000000281526014018473ffffffffffffffffffffffffffffffffffffffff1673ffffffffffffffffffffffffffffffffffffffff166c0100000000000000000000000002815260140183805190602001908083835b60208310151561112457805182526020820191506020810190506020830392506110ff565b6001836020036101000a0380198251168184511680821785525050505050509050018260001916600019168152602001945050505050604051809103902060006040518363ffffffff167c01000000000000000000000000000000000000000000000000000000000281526004018083600019166000191681526020018215151515815260200192505050600060405180830381600087803b1580156111c957600080fd5b505af11580156111dd573d6000803e3d6000fd5b505050506000809054906101000a900473ffffffffffffffffffffffffffffffffffffffff1673ffffffffffffffffffffffffffffffffffffffff1663ca446dd960405180807f4d79426974466f756e646174696f6e0000000000000000000000000000000000815250600f0190506040518091039020876040518363ffffffff167c01000000000000000000000000000000000000000000000000000000000281526004018083600019166000191681526020018273ffffffffffffffffffffffffffffffffffffffff1673ffffffffffffffffffffffffffffffffffffffff16815260200192505050600060405180830381600087803b1580156112e257600080fd5b505af11580156112f6573d6000803e3d6000fd5b505050505050505050505050565b6000809054906101000a900473ffffffffffffffffffffffffffffffffffffffff16815600a165627a7a72305820c21b7dacd8fd587894083314ccddff8859a61da6c4f9afe1c78b0efca2aa5df30029",
  "source": "pragma solidity 0.4.23;\n\nimport './Database.sol';\n\n//------------------------------------------------------------------------------------------\n// This contract is involved in setting default variables. \n// Must be deployed before platform can be run\n//------------------------------------------------------------------------------------------\ncontract InitialVariables { \n\nDatabase public database; \n\n//------------------------------------------------------------------------------------------\n// Constructor: Initialize Database \n//------------------------------------------------------------------------------------------\nconstructor(address _database)\npublic { \n  database = Database(_database);\n}\n//------------------------------------------------------------------------------------------\n// Initialized important variables\n//------------------------------------------------------------------------------------------\nfunction startDapp(address _myBitFoundation, address _installerEscrow)\nexternal  {\n  require(database.boolStorage(keccak256(\"owner\", msg.sender)));\n  require(_myBitFoundation != address(0) && _installerEscrow != address(0)); \n  // --------------------Set Local Wallets-------------------------\n  database.setAddress(keccak256(\"MyBitFoundation\"), _myBitFoundation);\n  database.setAddress(keccak256(\"InstallerEscrow\"), _installerEscrow); \n  // --------------------Asset Creation Variables-----------------\n  database.setUint(keccak256(\"myBitFoundationPercentage\"), uint(1));\n  database.setUint(keccak256(\"installerPercentage\"), uint(99));\n  // ---------------------Access Price in USD--------------------------\n  database.setUint(keccak256(\"accessTokenFee\", uint(1)), uint(25));\n  database.setUint(keccak256(\"accessTokenFee\", uint(2)), uint(75)); \n  database.setUint(keccak256(\"accessTokenFee\", uint(3)), uint(100)); \n  // -------------Oracle Variables-------------------------\n  database.setUint(keccak256(\"priceUpdateTimeline\"), uint(86400));     // 24hrs  TODO: lower this for alpha This is the length of time an Oracle price is valid for\n  emit LogInitialized(msg.sender, address(database), block.number);\n}\n\n// ------------------------------------------------------------------------------------------------  \n//  Change MyBitFoundation address\n// ------------------------------------------------------------------------------------------------ \nfunction changeFoundationAddress(address _signer, string _functionName, address _newAddress)\nexternal \nnoEmptyAddress(_newAddress) \nanyOwner\nmultiSigRequired(_signer, _functionName, keccak256(_newAddress)) { \n  database.setAddress(keccak256(\"MyBitFoundation\"), _newAddress); \n}\n\n\n  \n// ------------------------------------------------------------------------------------------------  \n//                                                Modifiers \n// ------------------------------------------------------------------------------------------------  \n\n// ------------------------------------------------------------------------------------------------  \n//  Verify that sender is an owner  \n// ------------------------------------------------------------------------------------------------ \nmodifier anyOwner {\n  require(database.boolStorage(keccak256(\"owner\", msg.sender)));\n  _;\n}\n\n// ------------------------------------------------------------------------------------------------  \n//  Verify address isn't null  \n// ------------------------------------------------------------------------------------------------ \nmodifier noEmptyAddress(address _contract) {\n  require(_contract != address(0));\n  _;\n}\n\n// ------------------------------------------------------------------------------------------------  \n//  Verify that function has been signed off by another owner \n// ------------------------------------------------------------------------------------------------ \nmodifier multiSigRequired(address _signer, string _functionName, bytes32 _keyParam) { \n  require(msg.sender != _signer);\n  require(database.boolStorage(keccak256(this, _signer, _functionName, _keyParam)));\n  database.setBool(keccak256(this, _signer, _functionName, _keyParam), false);\n  _;\n}\n\n\n//------------------------------------------------------------------------------------------\n//                                  Events \n//------------------------------------------------------------------------------------------\nevent LogInitialized(address _sender, address _database, uint _blockNumber); \n\n}\n",
  "sourcePath": "/var/www/html/mybit/dapp/Contracts/contracts/InitialVariables.sol",
  "compiler": {
    "name": "solc",
    "version": "0.4.23+commit.124ca40d.Emscripten.clang"
  },
  "schemaVersion": "2.0.0",
  "updatedAt": "2018-05-15T12:10:07.897Z"
}