{
  "contractName": "OperatorEscrow",
  "abi": [
    {
      "constant": true,
      "inputs": [],
      "name": "myBitToken",
      "outputs": [
        {
          "name": "",
          "type": "address"
        }
      ],
      "payable": false,
      "stateMutability": "view",
      "type": "function"
    },
    {
      "constant": true,
      "inputs": [],
      "name": "database",
      "outputs": [
        {
          "name": "",
          "type": "address"
        }
      ],
      "payable": false,
      "stateMutability": "view",
      "type": "function"
    },
    {
      "inputs": [
        {
          "name": "_database",
          "type": "address"
        },
        {
          "name": "_tokenAddress",
          "type": "address"
        }
      ],
      "payable": false,
      "stateMutability": "nonpayable",
      "type": "constructor"
    },
    {
      "payable": false,
      "stateMutability": "nonpayable",
      "type": "fallback"
    },
    {
      "anonymous": false,
      "inputs": [
        {
          "indexed": true,
          "name": "_from",
          "type": "address"
        },
        {
          "indexed": false,
          "name": "_amount",
          "type": "uint256"
        },
        {
          "indexed": false,
          "name": "_timestamp",
          "type": "uint256"
        }
      ],
      "name": "LogEscrowDeposited",
      "type": "event"
    },
    {
      "constant": false,
      "inputs": [
        {
          "name": "_amount",
          "type": "uint256"
        }
      ],
      "name": "depositEscrow",
      "outputs": [
        {
          "name": "",
          "type": "bool"
        }
      ],
      "payable": false,
      "stateMutability": "nonpayable",
      "type": "function"
    },
    {
      "constant": false,
      "inputs": [
        {
          "name": "_assetID",
          "type": "bytes32"
        }
      ],
      "name": "unlockEscrow",
      "outputs": [],
      "payable": false,
      "stateMutability": "nonpayable",
      "type": "function"
    },
    {
      "constant": false,
      "inputs": [
        {
          "name": "_amount",
          "type": "uint256"
        }
      ],
      "name": "withdrawToken",
      "outputs": [
        {
          "name": "",
          "type": "bool"
        }
      ],
      "payable": false,
      "stateMutability": "nonpayable",
      "type": "function"
    },
    {
      "constant": true,
      "inputs": [
        {
          "name": "_operator",
          "type": "address"
        }
      ],
      "name": "getUnlockedBalance",
      "outputs": [
        {
          "name": "",
          "type": "uint256"
        }
      ],
      "payable": false,
      "stateMutability": "view",
      "type": "function"
    }
  ],
  "bytecode": "0x608060405234801561001057600080fd5b50604051604080611fff833981018060405281019080805190602001909291908051906020019092919050505081600160006101000a81548173ffffffffffffffffffffffffffffffffffffffff021916908373ffffffffffffffffffffffffffffffffffffffff160217905550806000806101000a81548173ffffffffffffffffffffffffffffffffffffffff021916908373ffffffffffffffffffffffffffffffffffffffff1602179055505050611f30806100cf6000396000f300608060405260043610610078576000357c0100000000000000000000000000000000000000000000000000000000900463ffffffff16806309afe9fb1461008a578063129de5bf146100e157806350baa62214610138578063713b563f1461017d578063914b857e146101d4578063cb991efe14610205575b34801561008457600080fd5b50600080fd5b34801561009657600080fd5b5061009f61024a565b604051808273ffffffffffffffffffffffffffffffffffffffff1673ffffffffffffffffffffffffffffffffffffffff16815260200191505060405180910390f35b3480156100ed57600080fd5b50610122600480360381019080803573ffffffffffffffffffffffffffffffffffffffff16906020019092919050505061026f565b6040518082815260200191505060405180910390f35b34801561014457600080fd5b5061016360048036038101908080359060200190929190505050610526565b604051808215151515815260200191505060405180910390f35b34801561018957600080fd5b50610192610a44565b604051808273ffffffffffffffffffffffffffffffffffffffff1673ffffffffffffffffffffffffffffffffffffffff16815260200191505060405180910390f35b3480156101e057600080fd5b506102036004803603810190808035600019169060200190929190505050610a6a565b005b34801561021157600080fd5b50610230600480360381019080803590602001909291905050506113b3565b604051808215151515815260200191505060405180910390f35b6000809054906101000a900473ffffffffffffffffffffffffffffffffffffffff1681565b600080600160009054906101000a900473ffffffffffffffffffffffffffffffffffffffff1673ffffffffffffffffffffffffffffffffffffffff1663a855d4ce8460405180807f6f70657261746f72416d6f756e74457363726f776564000000000000000000008152506016018273ffffffffffffffffffffffffffffffffffffffff1673ffffffffffffffffffffffffffffffffffffffff166c0100000000000000000000000002815260140191505060405180910390206040518263ffffffff167c0100000000000000000000000000000000000000000000000000000000028152600401808260001916600019168152602001915050602060405180830381600087803b15801561038357600080fd5b505af1158015610397573d6000803e3d6000fd5b505050506040513d60208110156103ad57600080fd5b8101908080519060200190929190505050905061051e81600160009054906101000a900473ffffffffffffffffffffffffffffffffffffffff1673ffffffffffffffffffffffffffffffffffffffff1663a855d4ce8660405180807f6f70657261746f72416d6f756e744465706f73697465640000000000000000008152506017018273ffffffffffffffffffffffffffffffffffffffff1673ffffffffffffffffffffffffffffffffffffffff166c0100000000000000000000000002815260140191505060405180910390206040518263ffffffff167c0100000000000000000000000000000000000000000000000000000000028152600401808260001916600019168152602001915050602060405180830381600087803b1580156104d557600080fd5b505af11580156104e9573d6000803e3d6000fd5b505050506040513d60208110156104ff57600080fd5b810190808051906020019092919050505061193f90919063ffffffff16565b915050919050565b600080600060018060009054906101000a900473ffffffffffffffffffffffffffffffffffffffff1673ffffffffffffffffffffffffffffffffffffffff1663a855d4ce3360405180807f7573657241636365737300000000000000000000000000000000000000000000815250600a018273ffffffffffffffffffffffffffffffffffffffff1673ffffffffffffffffffffffffffffffffffffffff166c0100000000000000000000000002815260140191505060405180910390206040518263ffffffff167c0100000000000000000000000000000000000000000000000000000000028152600401808260001916600019168152602001915050602060405180830381600087803b15801561063d57600080fd5b505af1158015610651573d6000803e3d6000fd5b505050506040513d602081101561066757600080fd5b81019080805190602001909291905050501015151561068557600080fd5b61068e3361026f565b915083821015151561069c57fe5b600160009054906101000a900473ffffffffffffffffffffffffffffffffffffffff1673ffffffffffffffffffffffffffffffffffffffff1663a855d4ce3360405180807f6f70657261746f72416d6f756e744465706f73697465640000000000000000008152506017018273ffffffffffffffffffffffffffffffffffffffff1673ffffffffffffffffffffffffffffffffffffffff166c0100000000000000000000000002815260140191505060405180910390206040518263ffffffff167c0100000000000000000000000000000000000000000000000000000000028152600401808260001916600019168152602001915050602060405180830381600087803b1580156107ad57600080fd5b505af11580156107c1573d6000803e3d6000fd5b505050506040513d60208110156107d757600080fd5b810190808051906020019092919050505090508381101515156107f657fe5b600160009054906101000a900473ffffffffffffffffffffffffffffffffffffffff1673ffffffffffffffffffffffffffffffffffffffff1663e2a4853a3360405180807f6f70657261746f72416d6f756e744465706f73697465640000000000000000008152506017018273ffffffffffffffffffffffffffffffffffffffff1673ffffffffffffffffffffffffffffffffffffffff166c0100000000000000000000000002815260140191505060405180910390206108c0878561193f90919063ffffffff16565b6040518363ffffffff167c010000000000000000000000000000000000000000000000000000000002815260040180836000191660001916815260200182815260200192505050600060405180830381600087803b15801561092157600080fd5b505af1158015610935573d6000803e3d6000fd5b505050506000809054906101000a900473ffffffffffffffffffffffffffffffffffffffff1673ffffffffffffffffffffffffffffffffffffffff1663a9059cbb33866040518363ffffffff167c0100000000000000000000000000000000000000000000000000000000028152600401808373ffffffffffffffffffffffffffffffffffffffff1673ffffffffffffffffffffffffffffffffffffffff16815260200182815260200192505050602060405180830381600087803b1580156109fd57600080fd5b505af1158015610a11573d6000803e3d6000fd5b505050506040513d6020811015610a2757600080fd5b810190808051906020019092919050505050600192505050919050565b600160009054906101000a900473ffffffffffffffffffffffffffffffffffffffff1681565b600080600080600060018060009054906101000a900473ffffffffffffffffffffffffffffffffffffffff1673ffffffffffffffffffffffffffffffffffffffff1663a855d4ce3360405180807f7573657241636365737300000000000000000000000000000000000000000000815250600a018273ffffffffffffffffffffffffffffffffffffffff1673ffffffffffffffffffffffffffffffffffffffff166c0100000000000000000000000002815260140191505060405180910390206040518263ffffffff167c0100000000000000000000000000000000000000000000000000000000028152600401808260001916600019168152602001915050602060405180830381600087803b158015610b8457600080fd5b505af1158015610b98573d6000803e3d6000fd5b505050506040513d6020811015610bae57600080fd5b810190808051906020019092919050505010151515610bcc57600080fd5b3373ffffffffffffffffffffffffffffffffffffffff16600160009054906101000a900473ffffffffffffffffffffffffffffffffffffffff1673ffffffffffffffffffffffffffffffffffffffff166304f49a3a8860405180807f61737365744f70657261746f7200000000000000000000000000000000000000815250600d01826000191660001916815260200191505060405180910390206040518263ffffffff167c0100000000000000000000000000000000000000000000000000000000028152600401808260001916600019168152602001915050602060405180830381600087803b158015610cc157600080fd5b505af1158015610cd5573d6000803e3d6000fd5b505050506040513d6020811015610ceb57600080fd5b810190808051906020019092919050505073ffffffffffffffffffffffffffffffffffffffff16141515610d1e57600080fd5b600160009054906101000a900473ffffffffffffffffffffffffffffffffffffffff1673ffffffffffffffffffffffffffffffffffffffff1663a855d4ce8760405180807f6c6f636b6564466f724173736574000000000000000000000000000000000000815250600e01826000191660001916815260200191505060405180910390206040518263ffffffff167c0100000000000000000000000000000000000000000000000000000000028152600401808260001916600019168152602001915050602060405180830381600087803b158015610dfc57600080fd5b505af1158015610e10573d6000803e3d6000fd5b505050506040513d6020811015610e2657600080fd5b81019080805190602001909291905050509450600085111515610e4557fe5b600160009054906101000a900473ffffffffffffffffffffffffffffffffffffffff1673ffffffffffffffffffffffffffffffffffffffff1663a855d4ce8760405180807f66756e64696e6753746167650000000000000000000000000000000000000000815250600c01826000191660001916815260200191505060405180910390206040518263ffffffff167c0100000000000000000000000000000000000000000000000000000000028152600401808260001916600019168152602001915050602060405180830381600087803b158015610f2357600080fd5b505af1158015610f37573d6000803e3d6000fd5b505050506040513d6020811015610f4d57600080fd5b810190808051906020019092919050505093506000841480610f6f5750600284145b80610f7a5750600584145b15610f8e57610f898686611958565b6113ab565b600160009054906101000a900473ffffffffffffffffffffffffffffffffffffffff1673ffffffffffffffffffffffffffffffffffffffff1663a855d4ce8760405180807f616d6f756e745261697365640000000000000000000000000000000000000000815250600c01826000191660001916815260200191505060405180910390206040518263ffffffff167c0100000000000000000000000000000000000000000000000000000000028152600401808260001916600019168152602001915050602060405180830381600087803b15801561106c57600080fd5b505af1158015611080573d6000803e3d6000fd5b505050506040513d602081101561109657600080fd5b81019080805190602001909291905050509250600160009054906101000a900473ffffffffffffffffffffffffffffffffffffffff1673ffffffffffffffffffffffffffffffffffffffff1663a855d4ce8760405180807f6173736574496e636f6d65000000000000000000000000000000000000000000815250600b01826000191660001916815260200191505060405180910390206040518263ffffffff167c0100000000000000000000000000000000000000000000000000000000028152600401808260001916600019168152602001915050602060405180830381600087803b15801561118757600080fd5b505af115801561119b573d6000803e3d6000fd5b505050506040513d60208110156111b157600080fd5b810190808051906020019092919050505091506112e2836112d46064600160009054906101000a900473ffffffffffffffffffffffffffffffffffffffff1673ffffffffffffffffffffffffffffffffffffffff1663a855d4ce878c6040518083815260200182600019166000191681526020019250505060405180910390206040518263ffffffff167c0100000000000000000000000000000000000000000000000000000000028152600401808260001916600019168152602001915050602060405180830381600087803b15801561128b57600080fd5b505af115801561129f573d6000803e3d6000fd5b505050506040513d60208110156112b557600080fd5b8101908080519060200190929190505050611e9590919063ffffffff16565b611ed090919063ffffffff16565b90506064811015156112f9576112f88686611958565b5b604b81101515611334576113338661132e606461132087604b611e9590919063ffffffff16565b611ed090919063ffffffff16565b611958565b5b60328110151561136f5761136e86611369606461135b876032611e9590919063ffffffff16565b611ed090919063ffffffff16565b611958565b5b6019811015156113aa576113a9866113a46064611396876019611e9590919063ffffffff16565b611ed090919063ffffffff16565b611958565b5b5b505050505050565b60008060018060009054906101000a900473ffffffffffffffffffffffffffffffffffffffff1673ffffffffffffffffffffffffffffffffffffffff1663a855d4ce3360405180807f7573657241636365737300000000000000000000000000000000000000000000815250600a018273ffffffffffffffffffffffffffffffffffffffff1673ffffffffffffffffffffffffffffffffffffffff166c0100000000000000000000000002815260140191505060405180910390206040518263ffffffff167c0100000000000000000000000000000000000000000000000000000000028152600401808260001916600019168152602001915050602060405180830381600087803b1580156114c857600080fd5b505af11580156114dc573d6000803e3d6000fd5b505050506040513d60208110156114f257600080fd5b81019080805190602001909291905050501015151561151057600080fd5b6000809054906101000a900473ffffffffffffffffffffffffffffffffffffffff1673ffffffffffffffffffffffffffffffffffffffff166323b872dd3330866040518463ffffffff167c0100000000000000000000000000000000000000000000000000000000028152600401808473ffffffffffffffffffffffffffffffffffffffff1673ffffffffffffffffffffffffffffffffffffffff1681526020018373ffffffffffffffffffffffffffffffffffffffff1673ffffffffffffffffffffffffffffffffffffffff1681526020018281526020019350505050602060405180830381600087803b15801561160857600080fd5b505af115801561161c573d6000803e3d6000fd5b505050506040513d602081101561163257600080fd5b8101908080519060200190929190505050151561164e57600080fd5b600160009054906101000a900473ffffffffffffffffffffffffffffffffffffffff1673ffffffffffffffffffffffffffffffffffffffff1663a855d4ce3360405180807f6f70657261746f72416d6f756e744465706f73697465640000000000000000008152506017018273ffffffffffffffffffffffffffffffffffffffff1673ffffffffffffffffffffffffffffffffffffffff166c0100000000000000000000000002815260140191505060405180910390206040518263ffffffff167c0100000000000000000000000000000000000000000000000000000000028152600401808260001916600019168152602001915050602060405180830381600087803b15801561175f57600080fd5b505af1158015611773573d6000803e3d6000fd5b505050506040513d602081101561178957600080fd5b81019080805190602001909291905050509050600160009054906101000a900473ffffffffffffffffffffffffffffffffffffffff1673ffffffffffffffffffffffffffffffffffffffff1663e2a4853a3360405180807f6f70657261746f72416d6f756e744465706f73697465640000000000000000008152506017018273ffffffffffffffffffffffffffffffffffffffff1673ffffffffffffffffffffffffffffffffffffffff166c0100000000000000000000000002815260140191505060405180910390206118668685611ee690919063ffffffff16565b6040518363ffffffff167c010000000000000000000000000000000000000000000000000000000002815260040180836000191660001916815260200182815260200192505050600060405180830381600087803b1580156118c757600080fd5b505af11580156118db573d6000803e3d6000fd5b505050503373ffffffffffffffffffffffffffffffffffffffff167f84eb935bf30e4b6bd117574af1e6b4609d13337fd7dbcad5d1dc7ff585183d898442604051808381526020018281526020019250505060405180910390a26001915050919050565b600082821115151561194d57fe5b818303905092915050565b600080600160009054906101000a900473ffffffffffffffffffffffffffffffffffffffff1673ffffffffffffffffffffffffffffffffffffffff1663a855d4ce3360405180807f6f70657261746f72416d6f756e74457363726f776564000000000000000000008152506016018273ffffffffffffffffffffffffffffffffffffffff1673ffffffffffffffffffffffffffffffffffffffff166c0100000000000000000000000002815260140191505060405180910390206040518263ffffffff167c0100000000000000000000000000000000000000000000000000000000028152600401808260001916600019168152602001915050602060405180830381600087803b158015611a6c57600080fd5b505af1158015611a80573d6000803e3d6000fd5b505050506040513d6020811015611a9657600080fd5b81019080805190602001909291905050509150600160009054906101000a900473ffffffffffffffffffffffffffffffffffffffff1673ffffffffffffffffffffffffffffffffffffffff1663a855d4ce3360405180807f6f70657261746f72416d6f756e744465706f73697465640000000000000000008152506017018273ffffffffffffffffffffffffffffffffffffffff1673ffffffffffffffffffffffffffffffffffffffff166c0100000000000000000000000002815260140191505060405180910390206040518263ffffffff167c0100000000000000000000000000000000000000000000000000000000028152600401808260001916600019168152602001915050602060405180830381600087803b158015611bba57600080fd5b505af1158015611bce573d6000803e3d6000fd5b505050506040513d6020811015611be457600080fd5b81019080805190602001909291905050509050600160009054906101000a900473ffffffffffffffffffffffffffffffffffffffff1673ffffffffffffffffffffffffffffffffffffffff1663e2a4853a3360405180807f6f70657261746f72416d6f756e74457363726f776564000000000000000000008152506016018273ffffffffffffffffffffffffffffffffffffffff1673ffffffffffffffffffffffffffffffffffffffff166c010000000000000000000000000281526014019150506040518091039020611cc1868661193f90919063ffffffff16565b6040518363ffffffff167c010000000000000000000000000000000000000000000000000000000002815260040180836000191660001916815260200182815260200192505050600060405180830381600087803b158015611d2257600080fd5b505af1158015611d36573d6000803e3d6000fd5b50505050600160009054906101000a900473ffffffffffffffffffffffffffffffffffffffff1673ffffffffffffffffffffffffffffffffffffffff1663e2a4853a3360405180807f6f70657261746f72416d6f756e744465706f73697465640000000000000000008152506017018273ffffffffffffffffffffffffffffffffffffffff1673ffffffffffffffffffffffffffffffffffffffff166c010000000000000000000000000281526014019150506040518091039020611e16611e07878761193f90919063ffffffff16565b85611ee690919063ffffffff16565b6040518363ffffffff167c010000000000000000000000000000000000000000000000000000000002815260040180836000191660001916815260200182815260200192505050600060405180830381600087803b158015611e7757600080fd5b505af1158015611e8b573d6000803e3d6000fd5b5050505050505050565b6000806000841415611eaa5760009150611ec9565b8284029050828482811515611ebb57fe5b04141515611ec557fe5b8091505b5092915050565b60008183811515611edd57fe5b04905092915050565b6000808284019050838110151515611efa57fe5b80915050929150505600a165627a7a723058207dde993a40de676c2d743fe39ccecf273fa78abb6ab311107d95242c494415990029",
  "source": "pragma solidity 0.4.23;\n\nimport './Database.sol';\nimport './ERC20.sol';\nimport './SafeMath.sol';\n\n//------------------------------------------------------------------------------------------------------------------\n// This contract is where operators can deposit MyBit tokens to be eligable to create an asset on the platform.\n// The escrowed tokens are available to withdraw if the Asset Fails funding or the operator is replaced or the Asset finishes it's lifecycle\n// TODO: Variable names escrowed vs deposited (make clearer)\n//------------------------------------------------------------------------------------------------------------------\ncontract OperatorEscrow {\n  using SafeMath for *;\n\n  ERC20 public myBitToken;\n  Database public database;\n\n  //------------------------------------------------------------------------------------------------------------------\n  // Constructor. Initiate Database and MyBitToken\n  //------------------------------------------------------------------------------------------------------------------\n  constructor(address _database, address _tokenAddress)\n  public {\n    database = Database(_database);\n    myBitToken = ERC20(_tokenAddress);\n  }\n\n  //------------------------------------------------------------------------------------------------------------------\n  // Operator can deposit MyBit here to be locked for escrow\n  //------------------------------------------------------------------------------------------------------------------\n  function depositEscrow(uint _amount)\n  external\n  funderApproved\n  returns (bool) {\n    require(myBitToken.transferFrom(msg.sender, this, _amount));\n    uint depositedAmount = database.uintStorage(keccak256(\"operatorAmountDeposited\", msg.sender));\n    database.setUint(keccak256(\"operatorAmountDeposited\", msg.sender), depositedAmount.add(_amount));\n    emit LogEscrowDeposited(msg.sender, _amount, now);\n    return true;\n  }\n\n  //------------------------------------------------------------------------------------------------------------------\n  // Operator can withdraw any escrowed tokens that are no longer needed in escrow here\n  // To withdraw the asset must have: Not started funding (stage = 0), Failed Funding (stage = 2), Finished lifecycle (stage = 5))\n  // TODO: incremental withdraw of tokens. (get assetIncome vs amountRaised)\n  // TODO: event \n  //------------------------------------------------------------------------------------------------------------------\n  function unlockEscrow(bytes32 _assetID)\n  external\n  funderApproved {\n    require(database.addressStorage(keccak256(\"assetOperator\", _assetID)) == msg.sender);    // Make sure sender has escrowed tokens for this asset\n    uint amountToUnlock = database.uintStorage(keccak256(\"lockedForAsset\", _assetID));\n    assert(amountToUnlock > 0);\n    uint fundingStage = database.uintStorage(keccak256(\"fundingStage\", _assetID));\n    if (fundingStage == 0 || fundingStage == 2 || fundingStage == 5){    // is asset finished? \n      releaseEscrow(_assetID, amountToUnlock); \n    }\n    else { \n      uint amountRaised = database.uintStorage(keccak256(\"amountRaised\", _assetID)); \n      uint assetIncome = database.uintStorage(keccak256(\"assetIncome\", _assetID)); \n      uint percentageROI = database.uintStorage(keccak256(assetIncome, _assetID)).mul(100).div(amountRaised);\n      if (percentageROI >= uint(100)) { releaseEscrow(_assetID, amountToUnlock); }\n      if (percentageROI >= uint(75)) { releaseEscrow(_assetID, (uint(75).mul(amountRaised)).div(uint(100))); }\n      if (percentageROI >= uint(50)) { releaseEscrow(_assetID, (uint(50).mul(amountRaised)).div(uint(100))); }\n      if (percentageROI >= uint(25)) { releaseEscrow(_assetID, (uint(25).mul(amountRaised)).div(uint(100))); }\n    }\n  }\n\n  //------------------------------------------------------------------------------------------------------------------\n  // Releases escrowed tokens. Only called internally. \n  // TODO: add amount already paid to operator\n  // TODO: reduce lockedForAsset \n  //------------------------------------------------------------------------------------------------------------------  \n  function releaseEscrow(bytes32 _assetID, uint _amount)\n  internal { \n    uint totalEscrowedAmount = database.uintStorage(keccak256(\"operatorAmountEscrowed\", msg.sender));\n    uint depositedAmount = database.uintStorage(keccak256(\"operatorAmountDeposited\", msg.sender));\n    database.setUint(keccak256(\"operatorAmountEscrowed\", msg.sender), totalEscrowedAmount.sub(_amount));\n    database.setUint(keccak256(\"operatorAmountDeposited\", msg.sender), depositedAmount.add(totalEscrowedAmount.sub(_amount)));\n  }\n\n  //------------------------------------------------------------------------------------------------------------------\n  // Operator can withdraw tokens here once they have unlocked them from a previous asset escrow\n  // TODO: event \n  //------------------------------------------------------------------------------------------------------------------\n  function withdrawToken(uint _amount)\n  external\n  funderApproved\n  returns (bool){\n    uint unlockedBalance = getUnlockedBalance(msg.sender);\n    assert (unlockedBalance >= _amount);\n    uint depositedAmount = database.uintStorage(keccak256(\"operatorAmountDeposited\", msg.sender));\n    assert (depositedAmount >= _amount);\n    database.setUint(keccak256(\"operatorAmountDeposited\", msg.sender), depositedAmount.sub(_amount));\n    myBitToken.transfer(msg.sender, _amount);\n    return true;\n  }\n\n  //------------------------------------------------------------------------------------------------------------------\n  // ---------Fallback Function------------\n  //------------------------------------------------------------------------------------------------------------------\n  function()\n  external {\n    revert();\n  }\n\n \n  //------------------------------------------------------------------------------------------------------------------\n  // Get the amount of tokens that are not currently in escrow\n  //------------------------------------------------------------------------------------------------------------------\n  function getUnlockedBalance(address _operator)\n  public\n  view\n  returns (uint){\n    uint lockedBalance = database.uintStorage(keccak256(\"operatorAmountEscrowed\", _operator));\n    return database.uintStorage(keccak256(\"operatorAmountDeposited\", _operator)).sub(lockedBalance);\n  }\n\n  //------------------------------------------------------------------------------------------------------------------\n  //                                            Modifiers\n  //------------------------------------------------------------------------------------------------------------------\n\n  //------------------------------------------------------------------------------------------------------------------\n  // Must have access level greater than or equal to 1\n  //------------------------------------------------------------------------------------------------------------------\n  modifier funderApproved {\n    require(database.uintStorage(keccak256(\"userAccess\", msg.sender)) >= uint(1));\n    _;\n  }\n\n\n\n  //------------------------------------------------------------------------------------------------------------------\n  //                                              Events \n  //------------------------------------------------------------------------------------------------------------------\n\n  event LogEscrowDeposited(address indexed _from, uint _amount, uint _timestamp);\n}\n",
  "sourcePath": "/var/www/html/mybit/dapp/Contracts/contracts/OperatorEscrow.sol",
  "compiler": {
    "name": "solc",
    "version": "0.4.23+commit.124ca40d.Emscripten.clang"
  },
  "schemaVersion": "2.0.0",
  "updatedAt": "2018-05-15T12:10:07.898Z"
}