{
  "contractName": "OracleHub",
  "abi": [
    {
      "constant": true,
      "inputs": [],
      "name": "database",
      "outputs": [
        {
          "name": "",
          "type": "address"
        }
      ],
      "payable": false,
      "stateMutability": "view",
      "type": "function"
    },
    {
      "inputs": [
        {
          "name": "_database",
          "type": "address"
        }
      ],
      "payable": false,
      "stateMutability": "nonpayable",
      "type": "constructor"
    },
    {
      "anonymous": false,
      "inputs": [
        {
          "indexed": false,
          "name": "_from",
          "type": "address"
        },
        {
          "indexed": false,
          "name": "_queryID",
          "type": "bytes32"
        },
        {
          "indexed": false,
          "name": "_timestamp",
          "type": "uint256"
        }
      ],
      "name": "LogmybUSDQuery",
      "type": "event"
    },
    {
      "anonymous": false,
      "inputs": [
        {
          "indexed": false,
          "name": "_funder",
          "type": "address"
        },
        {
          "indexed": false,
          "name": "_queryID",
          "type": "bytes32"
        },
        {
          "indexed": false,
          "name": "_timestamp",
          "type": "uint256"
        }
      ],
      "name": "LogEthUSDQuery",
      "type": "event"
    },
    {
      "anonymous": false,
      "inputs": [
        {
          "indexed": false,
          "name": "_queryID",
          "type": "bytes32"
        },
        {
          "indexed": false,
          "name": "_tokenPrice",
          "type": "uint256"
        },
        {
          "indexed": false,
          "name": "_timestamp",
          "type": "uint256"
        }
      ],
      "name": "LogMYBUSDCallbackReceived",
      "type": "event"
    },
    {
      "anonymous": false,
      "inputs": [
        {
          "indexed": false,
          "name": "queryID",
          "type": "bytes32"
        },
        {
          "indexed": false,
          "name": "_result",
          "type": "uint256"
        },
        {
          "indexed": false,
          "name": "_timestamp",
          "type": "uint256"
        }
      ],
      "name": "LogEthUSDCallbackReceived",
      "type": "event"
    },
    {
      "constant": false,
      "inputs": [],
      "name": "ethUSDQuery",
      "outputs": [
        {
          "name": "",
          "type": "bool"
        }
      ],
      "payable": true,
      "stateMutability": "payable",
      "type": "function"
    },
    {
      "constant": false,
      "inputs": [],
      "name": "mybUSDQuery",
      "outputs": [
        {
          "name": "",
          "type": "bool"
        }
      ],
      "payable": true,
      "stateMutability": "payable",
      "type": "function"
    },
    {
      "constant": false,
      "inputs": [
        {
          "name": "myid",
          "type": "bytes32"
        },
        {
          "name": "result",
          "type": "string"
        }
      ],
      "name": "__callback",
      "outputs": [],
      "payable": false,
      "stateMutability": "nonpayable",
      "type": "function"
    },
    {
      "constant": false,
      "inputs": [
        {
          "name": "myid",
          "type": "bytes32"
        },
        {
          "name": "result",
          "type": "string"
        },
        {
          "name": "proof",
          "type": "bytes"
        }
      ],
      "name": "__callback",
      "outputs": [],
      "payable": false,
      "stateMutability": "nonpayable",
      "type": "function"
    }
  ],
  "bytecode": "0x608060405234801561001057600080fd5b506040516020806120f18339810180604052810190808051906020019092919050505080600560006101000a81548173ffffffffffffffffffffffffffffffffffffffff021916908373ffffffffffffffffffffffffffffffffffffffff160217905550736f485c8bf6fc43ea212e93bbf8ce046c7f1cb475600660006101000a81548173ffffffffffffffffffffffffffffffffffffffff021916908373ffffffffffffffffffffffffffffffffffffffff16021790555050612018806100d96000396000f30060806040526004361061006d576000357c0100000000000000000000000000000000000000000000000000000000900463ffffffff1680631327d3bd1461007257806327dc297e1461009457806338bbfa501461010b578063713b563f146101c857806390018af61461021f575b600080fd5b61007a610241565b604051808215151515815260200191505060405180910390f35b3480156100a057600080fd5b506101096004803603810190808035600019169060200190929190803590602001908201803590602001908080601f0160208091040260200160405190810160405280939291908181526020018383808284378201915050505050509192919290505050610457565b005b34801561011757600080fd5b506101c66004803603810190808035600019169060200190929190803590602001908201803590602001908080601f0160208091040260200160405190810160405280939291908181526020018383808284378201915050505050509192919290803590602001908201803590602001908080601f016020809104026020016040519081016040528093929190818152602001838380828437820191505050505050919291929050505061058f565b005b3480156101d457600080fd5b506101dd610594565b604051808273ffffffffffffffffffffffffffffffffffffffff1673ffffffffffffffffffffffffffffffffffffffff16815260200191505060405180910390f35b6102276105ba565b604051808215151515815260200191505060405180910390f35b60008060003411151561025357600080fd5b6103146040805190810160405280600381526020017f55524c0000000000000000000000000000000000000000000000000000000000815250608060405190810160405280604381526020017f6a736f6e2868747470733a2f2f6170692e636f696e6d61726b65746361702e6381526020017f6f6d2f76312f7469636b65722f657468657265756d2f292e302e70726963655f81526020017f75736400000000000000000000000000000000000000000000000000000000008152506106a9565b9050600560009054906101000a900473ffffffffffffffffffffffffffffffffffffffff1673ffffffffffffffffffffffffffffffffffffffff1663abfdcced8260016040518363ffffffff167c01000000000000000000000000000000000000000000000000000000000281526004018083600019166000191681526020018215151515815260200192505050600060405180830381600087803b1580156103bc57600080fd5b505af11580156103d0573d6000803e3d6000fd5b505050507f631e3d2470ee5dd437787245168dfca4e2b48906386e4db09afbe34174653bf1338242604051808473ffffffffffffffffffffffffffffffffffffffff1673ffffffffffffffffffffffffffffffffffffffff1681526020018360001916600019168152602001828152602001935050505060405180910390a1600191505090565b61045f610c4b565b73ffffffffffffffffffffffffffffffffffffffff163373ffffffffffffffffffffffffffffffffffffffff1614151561049857600080fd5b600560009054906101000a900473ffffffffffffffffffffffffffffffffffffffff1673ffffffffffffffffffffffffffffffffffffffff16633b7bfda0836040518263ffffffff167c0100000000000000000000000000000000000000000000000000000000028152600401808260001916600019168152602001915050602060405180830381600087803b15801561053157600080fd5b505af1158015610545573d6000803e3d6000fd5b505050506040513d602081101561055b57600080fd5b8101908080519060200190929190505050156105805761057b8282610fa9565b61058b565b61058a82826113a9565b5b5050565b505050565b600560009054906101000a900473ffffffffffffffffffffffffffffffffffffffff1681565b6000806000341115156105cc57600080fd5b6106246040805190810160405280600681526020017f6e6573746564000000000000000000000000000000000000000000000000000081525060c06040519081016040528060828152602001611f6b608291396106a9565b90507f371f9c8cda13b0083f3828656c31603e98160316c71330832da1602eaf102fd8338242604051808473ffffffffffffffffffffffffffffffffffffffff1673ffffffffffffffffffffffffffffffffffffffff1681526020018360001916600019168152602001828152602001935050505060405180910390a1600191505090565b60008060008060009054906101000a900473ffffffffffffffffffffffffffffffffffffffff1673ffffffffffffffffffffffffffffffffffffffff16148061071b575060006107196000809054906101000a900473ffffffffffffffffffffffffffffffffffffffff166116f8565b145b1561072c5761072a6000611703565b505b6000809054906101000a900473ffffffffffffffffffffffffffffffffffffffff1673ffffffffffffffffffffffffffffffffffffffff166338cc48316040518163ffffffff167c0100000000000000000000000000000000000000000000000000000000028152600401602060405180830381600087803b1580156107b157600080fd5b505af11580156107c5573d6000803e3d6000fd5b505050506040513d60208110156107db57600080fd5b810190808051906020019092919050505073ffffffffffffffffffffffffffffffffffffffff16600160009054906101000a900473ffffffffffffffffffffffffffffffffffffffff1673ffffffffffffffffffffffffffffffffffffffff16141515610943576000809054906101000a900473ffffffffffffffffffffffffffffffffffffffff1673ffffffffffffffffffffffffffffffffffffffff166338cc48316040518163ffffffff167c0100000000000000000000000000000000000000000000000000000000028152600401602060405180830381600087803b1580156108c757600080fd5b505af11580156108db573d6000803e3d6000fd5b505050506040513d60208110156108f157600080fd5b8101908080519060200190929190505050600160006101000a81548173ffffffffffffffffffffffffffffffffffffffff021916908373ffffffffffffffffffffffffffffffffffffffff1602179055505b600160009054906101000a900473ffffffffffffffffffffffffffffffffffffffff1673ffffffffffffffffffffffffffffffffffffffff1663524f3889856040518263ffffffff167c01000000000000000000000000000000000000000000000000000000000281526004018080602001828103825283818151815260200191508051906020019080838360005b838110156109ed5780820151818401526020810190506109d2565b50505050905090810190601f168015610a1a5780820380516001836020036101000a031916815260200191505b5092505050602060405180830381600087803b158015610a3957600080fd5b505af1158015610a4d573d6000803e3d6000fd5b505050506040513d6020811015610a6357600080fd5b8101908080519060200190929190505050905062030d403a02670de0b6b3a764000001811115610a995760006001029150610c44565b600160009054906101000a900473ffffffffffffffffffffffffffffffffffffffff1673ffffffffffffffffffffffffffffffffffffffff1663adf59f9982600087876040518563ffffffff167c0100000000000000000000000000000000000000000000000000000000028152600401808481526020018060200180602001838103835285818151815260200191508051906020019080838360005b83811015610b51578082015181840152602081019050610b36565b50505050905090810190601f168015610b7e5780820380516001836020036101000a031916815260200191505b50838103825284818151815260200191508051906020019080838360005b83811015610bb7578082015181840152602081019050610b9c565b50505050905090810190601f168015610be45780820380516001836020036101000a031916815260200191505b50955050505050506020604051808303818588803b158015610c0557600080fd5b505af1158015610c19573d6000803e3d6000fd5b50505050506040513d6020811015610c3057600080fd5b810190808051906020019092919050505091505b5092915050565b6000806000809054906101000a900473ffffffffffffffffffffffffffffffffffffffff1673ffffffffffffffffffffffffffffffffffffffff161480610cbb57506000610cb96000809054906101000a900473ffffffffffffffffffffffffffffffffffffffff166116f8565b145b15610ccc57610cca6000611703565b505b6000809054906101000a900473ffffffffffffffffffffffffffffffffffffffff1673ffffffffffffffffffffffffffffffffffffffff166338cc48316040518163ffffffff167c0100000000000000000000000000000000000000000000000000000000028152600401602060405180830381600087803b158015610d5157600080fd5b505af1158015610d65573d6000803e3d6000fd5b505050506040513d6020811015610d7b57600080fd5b810190808051906020019092919050505073ffffffffffffffffffffffffffffffffffffffff16600160009054906101000a900473ffffffffffffffffffffffffffffffffffffffff1673ffffffffffffffffffffffffffffffffffffffff16141515610ee3576000809054906101000a900473ffffffffffffffffffffffffffffffffffffffff1673ffffffffffffffffffffffffffffffffffffffff166338cc48316040518163ffffffff167c0100000000000000000000000000000000000000000000000000000000028152600401602060405180830381600087803b158015610e6757600080fd5b505af1158015610e7b573d6000803e3d6000fd5b505050506040513d6020811015610e9157600080fd5b8101908080519060200190929190505050600160006101000a81548173ffffffffffffffffffffffffffffffffffffffff021916908373ffffffffffffffffffffffffffffffffffffffff1602179055505b600160009054906101000a900473ffffffffffffffffffffffffffffffffffffffff1673ffffffffffffffffffffffffffffffffffffffff1663c281d19e6040518163ffffffff167c0100000000000000000000000000000000000000000000000000000000028152600401602060405180830381600087803b158015610f6957600080fd5b505af1158015610f7d573d6000803e3d6000fd5b505050506040513d6020811015610f9357600080fd5b8101908080519060200190929190505050905090565b6000600560009054906101000a900473ffffffffffffffffffffffffffffffffffffffff1673ffffffffffffffffffffffffffffffffffffffff1663a855d4ce60405180807f707269636555706461746554696d656c696e6500000000000000000000000000815250601301905060405180910390206040518263ffffffff167c0100000000000000000000000000000000000000000000000000000000028152600401808260001916600019168152602001915050602060405180830381600087803b15801561107957600080fd5b505af115801561108d573d6000803e3d6000fd5b505050506040513d60208110156110a357600080fd5b81019080805190602001909291905050509050600560009054906101000a900473ffffffffffffffffffffffffffffffffffffffff1673ffffffffffffffffffffffffffffffffffffffff1663e2a4853a60405180807f6574685553445072696365000000000000000000000000000000000000000000815250600b019050604051809103902061113385611714565b6040518363ffffffff167c010000000000000000000000000000000000000000000000000000000002815260040180836000191660001916815260200182815260200192505050600060405180830381600087803b15801561119457600080fd5b505af11580156111a8573d6000803e3d6000fd5b50505050600560009054906101000a900473ffffffffffffffffffffffffffffffffffffffff1673ffffffffffffffffffffffffffffffffffffffff1663e2a4853a60405180807f657468555344507269636545787069726174696f6e0000000000000000000000815250601501905060405180910390204284016040518363ffffffff167c010000000000000000000000000000000000000000000000000000000002815260040180836000191660001916815260200182815260200192505050600060405180830381600087803b15801561128457600080fd5b505af1158015611298573d6000803e3d6000fd5b50505050600560009054906101000a900473ffffffffffffffffffffffffffffffffffffffff1673ffffffffffffffffffffffffffffffffffffffff16632c62ff2d846040518263ffffffff167c0100000000000000000000000000000000000000000000000000000000028152600401808260001916600019168152602001915050600060405180830381600087803b15801561133557600080fd5b505af1158015611349573d6000803e3d6000fd5b505050507f29212ee7519f8ba77bcd2c58b4e8ec92b7dc65282c7e54da2840e8a2263941298361137884611714565b42604051808460001916600019168152602001838152602001828152602001935050505060405180910390a1505050565b6000600560009054906101000a900473ffffffffffffffffffffffffffffffffffffffff1673ffffffffffffffffffffffffffffffffffffffff1663a855d4ce60405180807f707269636555706461746554696d656c696e6500000000000000000000000000815250601301905060405180910390206040518263ffffffff167c0100000000000000000000000000000000000000000000000000000000028152600401808260001916600019168152602001915050602060405180830381600087803b15801561147957600080fd5b505af115801561148d573d6000803e3d6000fd5b505050506040513d60208110156114a357600080fd5b81019080805190602001909291905050509050600560009054906101000a900473ffffffffffffffffffffffffffffffffffffffff1673ffffffffffffffffffffffffffffffffffffffff1663e2a4853a60405180807f6d79625553445072696365000000000000000000000000000000000000000000815250600b019050604051809103902061153385611714565b6040518363ffffffff167c010000000000000000000000000000000000000000000000000000000002815260040180836000191660001916815260200182815260200192505050600060405180830381600087803b15801561159457600080fd5b505af11580156115a8573d6000803e3d6000fd5b50505050600560009054906101000a900473ffffffffffffffffffffffffffffffffffffffff1673ffffffffffffffffffffffffffffffffffffffff1663e2a4853a60405180807f6d7962555344507269636545787069726174696f6e0000000000000000000000815250601501905060405180910390204284016040518363ffffffff167c010000000000000000000000000000000000000000000000000000000002815260040180836000191660001916815260200182815260200192505050600060405180830381600087803b15801561168457600080fd5b505af1158015611698573d6000803e3d6000fd5b505050507ffc1e74d6978f4558ba10bc991b2f0d06b6732cd2ef51a2bf3c3927b6b8486215836116c784611714565b42604051808460001916600019168152602001838152602001828152602001935050505060405180910390a1505050565b6000813b9050919050565b600061170d611728565b9050919050565b6000611721826000611bb7565b9050919050565b600080611748731d3b2638a7cc9f2cb3d298a3da7a90b67e5506ed6116f8565b11156117e957731d3b2638a7cc9f2cb3d298a3da7a90b67e5506ed6000806101000a81548173ffffffffffffffffffffffffffffffffffffffff021916908373ffffffffffffffffffffffffffffffffffffffff1602179055506117e06040805190810160405280600b81526020017f6574685f6d61696e6e6574000000000000000000000000000000000000000000815250611eab565b60019050611bb4565b600061180873c03a2615d5efaf5f49f60b7bb6583eaec212fdf16116f8565b11156118a95773c03a2615d5efaf5f49f60b7bb6583eaec212fdf16000806101000a81548173ffffffffffffffffffffffffffffffffffffffff021916908373ffffffffffffffffffffffffffffffffffffffff1602179055506118a06040805190810160405280600c81526020017f6574685f726f707374656e330000000000000000000000000000000000000000815250611eab565b60019050611bb4565b60006118c873b7a07bcf2ba2f2703b24c0691b5278999c59ac7e6116f8565b11156119695773b7a07bcf2ba2f2703b24c0691b5278999c59ac7e6000806101000a81548173ffffffffffffffffffffffffffffffffffffffff021916908373ffffffffffffffffffffffffffffffffffffffff1602179055506119606040805190810160405280600981526020017f6574685f6b6f76616e0000000000000000000000000000000000000000000000815250611eab565b60019050611bb4565b600061198873146500cfd35b22e4a392fe0adc06de1a1368ed486116f8565b1115611a295773146500cfd35b22e4a392fe0adc06de1a1368ed486000806101000a81548173ffffffffffffffffffffffffffffffffffffffff021916908373ffffffffffffffffffffffffffffffffffffffff160217905550611a206040805190810160405280600b81526020017f6574685f72696e6b656279000000000000000000000000000000000000000000815250611eab565b60019050611bb4565b6000611a48736f485c8bf6fc43ea212e93bbf8ce046c7f1cb4756116f8565b1115611aab57736f485c8bf6fc43ea212e93bbf8ce046c7f1cb4756000806101000a81548173ffffffffffffffffffffffffffffffffffffffff021916908373ffffffffffffffffffffffffffffffffffffffff16021790555060019050611bb4565b6000611aca7320e12a1f859b3feae5fb2a0a32c18f5a65555bbf6116f8565b1115611b2d577320e12a1f859b3feae5fb2a0a32c18f5a65555bbf6000806101000a81548173ffffffffffffffffffffffffffffffffffffffff021916908373ffffffffffffffffffffffffffffffffffffffff16021790555060019050611bb4565b6000611b4c7351efaf4c8b3c9afbd5ab9f4bbc82784ab6ef8faa6116f8565b1115611baf577351efaf4c8b3c9afbd5ab9f4bbc82784ab6ef8faa6000806101000a81548173ffffffffffffffffffffffffffffffffffffffff021916908373ffffffffffffffffffffffffffffffffffffffff16021790555060019050611bb4565b600090505b90565b6000606060008060008693506000925060009150600090505b8351811015611e8c5760307f0100000000000000000000000000000000000000000000000000000000000000028482815181101515611c0b57fe5b9060200101517f010000000000000000000000000000000000000000000000000000000000000090047f0100000000000000000000000000000000000000000000000000000000000000027effffffffffffffffffffffffffffffffffffffffffffffffffffffffffffff191610158015611d23575060397f0100000000000000000000000000000000000000000000000000000000000000028482815181101515611cb357fe5b9060200101517f010000000000000000000000000000000000000000000000000000000000000090047f0100000000000000000000000000000000000000000000000000000000000000027effffffffffffffffffffffffffffffffffffffffffffffffffffffffffffff191611155b15611dd4578115611d46576000861415611d3c57611e8c565b8580600190039650505b600a8302925060308482815181101515611d5c57fe5b9060200101517f010000000000000000000000000000000000000000000000000000000000000090047f0100000000000000000000000000000000000000000000000000000000000000027f010000000000000000000000000000000000000000000000000000000000000090040383019250611e7f565b602e7f0100000000000000000000000000000000000000000000000000000000000000028482815181101515611e0657fe5b9060200101517f010000000000000000000000000000000000000000000000000000000000000090047f0100000000000000000000000000000000000000000000000000000000000000027effffffffffffffffffffffffffffffffffffffffffffffffffffffffffffff19161415611e7e57600191505b5b8080600101915050611bd0565b6000861115611e9e5785600a0a830292505b8294505050505092915050565b8060029080519060200190611ec1929190611ec5565b5050565b828054600181600116156101000203166002900490600052602060002090601f016020900481019282601f10611f0657805160ff1916838001178555611f34565b82800160010185558215611f34579182015b82811115611f33578251825591602001919060010190611f18565b5b509050611f419190611f45565b5090565b611f6791905b80821115611f63576000816000905550600101611f4b565b5090565b9056005b576f6c6672616d416c7068615d2020313020746f2074686520706f776572206f662033206d756c7469706c69656420627920247b5b55524c5d206a736f6e2868747470733a2f2f6170692e636f696e6d61726b65746361702e636f6d2f76312f7469636b65722f6d796269742d746f6b656e2f292e302e70726963655f7573647da165627a7a723058204903360fd56bd523de04303e37c82944d25f54ddf949736af29778c03cf6c49f0029",
  "source": "pragma solidity 0.4.23;\n\nimport './oraclizeAPI_05.sol';\nimport './Database.sol';\n\n//------------------------------------------------------------------------------------------------------------------\n// All calls to Oraclize can be done here. The results are stored in Databse and expire after x seconds. \n// Can find price expiration time under keccak256(\"priceUpdateTimeline\") in the Database\n//------------------------------------------------------------------------------------------------------------------\ncontract OracleHub is usingOraclize{\n\n  Database public database;\n\n  address OAR;\n\n  //------------------------------------------------------------------------------------------------------------------\n  // Constructor: Initialized database + Oraclize Address Resolver\n  //------------------------------------------------------------------------------------------------------------------\n  constructor(address _database)\n  public {\n    database = Database(_database);\n    OAR = OraclizeAddrResolverI(0x6f485C8BF6fc43eA212E93BBF8ce046C7f1cb475); // only for localhost\n  }\n\n  //------------------------------------------------------------------------------------------------------------------\n  // TODO: get price of call\n  // Asks oraclize what the current price of Ether in USD is\n  //------------------------------------------------------------------------------------------------------------------\n  function ethUSDQuery()\n  external\n  payable\n  requiresEther\n  returns (bool) {\n    bytes32 queryID = oraclize_query('URL', 'json(https://api.coinmarketcap.com/v1/ticker/ethereum/).0.price_usd');\n    database.setBool(queryID, true);\n    emit LogEthUSDQuery(msg.sender, queryID, now);\n    return true;\n  }\n\n  //------------------------------------------------------------------------------------------------------------------\n  // TODO: get price of call\n  // Asks oraclzie what the current price of MyBit in USD is\n  //------------------------------------------------------------------------------------------------------------------\n  function mybUSDQuery()\n  external\n  payable\n  requiresEther\n  returns(bool){\n    bytes32 queryID = oraclize_query('nested', '[WolframAlpha]  10 to the power of 3 multiplied by ${[URL] json(https://api.coinmarketcap.com/v1/ticker/mybit-token/).0.price_usd}');\n    emit LogmybUSDQuery(msg.sender, queryID, now);\n    return true;\n  }\n\n  //------------------------------------------------------------------------------------------------------------------\n  // Oraclize will call this function when it gets requested information. \n  // If ID == bool then the callback is for Ether/USD callback \n  //------------------------------------------------------------------------------------------------------------------\n  function __callback(bytes32 myid, string result)\n  public\n  isOraclize {\n    if (database.boolStorage(myid)) {\n      ethUSDCallback(myid, result);\n    }\n    else {\n      mybUSDCallback(myid, result);\n    }\n  }\n\n  //------------------------------------------------------------------------------------------------------------------\n  // Callback for Ether/USD price requests. Stores current price and expiration time for this price \n  //------------------------------------------------------------------------------------------------------------------\n  function ethUSDCallback(bytes32 myid, string result)\n  internal {\n    uint priceTimeline = database.uintStorage(keccak256(\"priceUpdateTimeline\"));\n    database.setUint(keccak256(\"ethUSDPrice\"), parseInt(result));\n    database.setUint(keccak256(\"ethUSDPriceExpiration\"), (priceTimeline + now));\n    database.deleteBool(myid);\n    emit LogEthUSDCallbackReceived(myid, parseInt(result), now);\n  }\n\n  //------------------------------------------------------------------------------------------------------------------\n  // Callback for MyBit/USD price requests. Stores current price and expiration time for this price.\n  //------------------------------------------------------------------------------------------------------------------\n  function mybUSDCallback(bytes32 myid, string result)\n  internal {\n    uint priceTimeline = database.uintStorage(keccak256(\"priceUpdateTimeline\"));\n    database.setUint(keccak256(\"mybUSDPrice\"), parseInt(result));\n    database.setUint(keccak256(\"mybUSDPriceExpiration\"), (priceTimeline + now));\n    emit LogMYBUSDCallbackReceived(myid, parseInt(result), now);\n  }\n\n\n  //------------------------------------------------------------------------------------------------------------------\n  //                                            Modifiers\n  //------------------------------------------------------------------------------------------------------------------\n\n\n  //------------------------------------------------------------------------------------------------------------------\n  // Veriies that sender is Oraclize \n  //------------------------------------------------------------------------------------------------------------------\n  modifier isOraclize() {\n   require(msg.sender == oraclize_cbAddress());\n   _;\n  }\n\n  //------------------------------------------------------------------------------------------------------------------\n  // Veriies that sender is Oraclize \n  //------------------------------------------------------------------------------------------------------------------\n  modifier requiresEther() {\n    require(msg.value > 0);\n    _;\n  }\n\n\n  //------------------------------------------------------------------------------------------------------------------\n  //                                            Events\n  //------------------------------------------------------------------------------------------------------------------\n\n  event LogmybUSDQuery( address _from, bytes32 _queryID, uint _timestamp);\n  event LogEthUSDQuery(address _funder, bytes32 _queryID, uint _timestamp);\n  event LogMYBUSDCallbackReceived(bytes32 _queryID, uint _tokenPrice, uint _timestamp);\n  event LogEthUSDCallbackReceived(bytes32 queryID, uint _result, uint _timestamp);\n}\n",
  "sourcePath": "/var/www/html/mybit/dapp/Contracts/contracts/OracleHub.sol",
  "compiler": {
    "name": "solc",
    "version": "0.4.23+commit.124ca40d.Emscripten.clang"
  },
  "schemaVersion": "2.0.0",
  "updatedAt": "2018-05-15T12:10:07.900Z"
}