{
  "contractName": "Owned",
  "abi": [
    {
      "constant": true,
      "inputs": [],
      "name": "database",
      "outputs": [
        {
          "name": "",
          "type": "address"
        }
      ],
      "payable": false,
      "stateMutability": "view",
      "type": "function"
    },
    {
      "inputs": [
        {
          "name": "_database",
          "type": "address"
        }
      ],
      "payable": false,
      "stateMutability": "nonpayable",
      "type": "constructor"
    },
    {
      "anonymous": false,
      "inputs": [
        {
          "indexed": false,
          "name": "_contract",
          "type": "address"
        },
        {
          "indexed": false,
          "name": "_timestamp",
          "type": "uint256"
        }
      ],
      "name": "LogPaused",
      "type": "event"
    },
    {
      "anonymous": false,
      "inputs": [
        {
          "indexed": false,
          "name": "_contract",
          "type": "address"
        },
        {
          "indexed": false,
          "name": "_timestamp",
          "type": "uint256"
        }
      ],
      "name": "LogUnpaused",
      "type": "event"
    },
    {
      "anonymous": false,
      "inputs": [
        {
          "indexed": true,
          "name": "_previousOwner",
          "type": "address"
        },
        {
          "indexed": true,
          "name": "_newOwner",
          "type": "address"
        },
        {
          "indexed": true,
          "name": "_timestamp",
          "type": "uint256"
        }
      ],
      "name": "LogOwnerChanged",
      "type": "event"
    },
    {
      "anonymous": false,
      "inputs": [
        {
          "indexed": true,
          "name": "_owner",
          "type": "address"
        },
        {
          "indexed": false,
          "name": "_functionName",
          "type": "string"
        },
        {
          "indexed": true,
          "name": "_beneficiary",
          "type": "bytes32"
        }
      ],
      "name": "LogFunctionAuthorized",
      "type": "event"
    },
    {
      "constant": false,
      "inputs": [
        {
          "name": "_newOwner",
          "type": "address"
        },
        {
          "name": "_oldOwner",
          "type": "address"
        },
        {
          "name": "_functionSigner",
          "type": "address"
        }
      ],
      "name": "changeOwner",
      "outputs": [],
      "payable": false,
      "stateMutability": "nonpayable",
      "type": "function"
    },
    {
      "constant": false,
      "inputs": [
        {
          "name": "_contractAddress",
          "type": "address"
        },
        {
          "name": "_functionName",
          "type": "string"
        },
        {
          "name": "_beneficiary",
          "type": "bytes32"
        }
      ],
      "name": "setFunctionAuthorized",
      "outputs": [
        {
          "name": "",
          "type": "bool"
        }
      ],
      "payable": false,
      "stateMutability": "nonpayable",
      "type": "function"
    },
    {
      "constant": false,
      "inputs": [
        {
          "name": "_contract",
          "type": "address"
        }
      ],
      "name": "pause",
      "outputs": [],
      "payable": false,
      "stateMutability": "nonpayable",
      "type": "function"
    },
    {
      "constant": false,
      "inputs": [
        {
          "name": "_contract",
          "type": "address"
        }
      ],
      "name": "unpause",
      "outputs": [],
      "payable": false,
      "stateMutability": "nonpayable",
      "type": "function"
    }
  ],
  "bytecode": "0x608060405234801561001057600080fd5b5060405160208061146a8339810180604052810190808051906020019092919050505080600073ffffffffffffffffffffffffffffffffffffffff168173ffffffffffffffffffffffffffffffffffffffff161415151561007057600080fd5b816000806101000a81548173ffffffffffffffffffffffffffffffffffffffff021916908373ffffffffffffffffffffffffffffffffffffffff16021790555050506113a9806100c16000396000f30060806040526004361061006d576000357c0100000000000000000000000000000000000000000000000000000000900463ffffffff16806357b001f914610072578063713b563f146100b557806376a67a511461010c57806399df3d7a1461014f578063f11c2cec146101d0575b600080fd5b34801561007e57600080fd5b506100b3600480360381019080803573ffffffffffffffffffffffffffffffffffffffff169060200190929190505050610253565b005b3480156100c157600080fd5b506100ca61054c565b604051808273ffffffffffffffffffffffffffffffffffffffff1673ffffffffffffffffffffffffffffffffffffffff16815260200191505060405180910390f35b34801561011857600080fd5b5061014d600480360381019080803573ffffffffffffffffffffffffffffffffffffffff169060200190929190505050610571565b005b34801561015b57600080fd5b506101b6600480360381019080803573ffffffffffffffffffffffffffffffffffffffff16906020019092919080359060200190820180359060200191909192939192939080356000191690602001909291905050506108a8565b604051808215151515815260200191505060405180910390f35b3480156101dc57600080fd5b50610251600480360381019080803573ffffffffffffffffffffffffffffffffffffffff169060200190929190803573ffffffffffffffffffffffffffffffffffffffff169060200190929190803573ffffffffffffffffffffffffffffffffffffffff169060200190929190505050610bf7565b005b6000809054906101000a900473ffffffffffffffffffffffffffffffffffffffff1673ffffffffffffffffffffffffffffffffffffffff16633b7bfda03360405180807f6f776e65720000000000000000000000000000000000000000000000000000008152506005018273ffffffffffffffffffffffffffffffffffffffff1673ffffffffffffffffffffffffffffffffffffffff166c0100000000000000000000000002815260140191505060405180910390206040518263ffffffff167c0100000000000000000000000000000000000000000000000000000000028152600401808260001916600019168152602001915050602060405180830381600087803b15801561036357600080fd5b505af1158015610377573d6000803e3d6000fd5b505050506040513d602081101561038d57600080fd5b810190808051906020019092919050505015156103a957600080fd5b6000809054906101000a900473ffffffffffffffffffffffffffffffffffffffff1673ffffffffffffffffffffffffffffffffffffffff1663abfdcced8260405180807f70617573650000000000000000000000000000000000000000000000000000008152506005018273ffffffffffffffffffffffffffffffffffffffff1673ffffffffffffffffffffffffffffffffffffffff166c01000000000000000000000000028152601401915050604051809103902060006040518363ffffffff167c01000000000000000000000000000000000000000000000000000000000281526004018083600019166000191681526020018215151515815260200192505050600060405180830381600087803b1580156104c657600080fd5b505af11580156104da573d6000803e3d6000fd5b505050507f7c1be5e8f30ea52d2c25d654d7df8e10c85ae566b56dfecad3be63cdd98f18238142604051808373ffffffffffffffffffffffffffffffffffffffff1673ffffffffffffffffffffffffffffffffffffffff1681526020018281526020019250505060405180910390a150565b6000809054906101000a900473ffffffffffffffffffffffffffffffffffffffff1681565b6000809054906101000a900473ffffffffffffffffffffffffffffffffffffffff1673ffffffffffffffffffffffffffffffffffffffff16633b7bfda03360405180807f6f776e65720000000000000000000000000000000000000000000000000000008152506005018273ffffffffffffffffffffffffffffffffffffffff1673ffffffffffffffffffffffffffffffffffffffff166c0100000000000000000000000002815260140191505060405180910390206040518263ffffffff167c0100000000000000000000000000000000000000000000000000000000028152600401808260001916600019168152602001915050602060405180830381600087803b15801561068157600080fd5b505af1158015610695573d6000803e3d6000fd5b505050506040513d60208110156106ab57600080fd5b810190808051906020019092919050505015156106c757600080fd5b80600073ffffffffffffffffffffffffffffffffffffffff168173ffffffffffffffffffffffffffffffffffffffff161415151561070457600080fd5b6000809054906101000a900473ffffffffffffffffffffffffffffffffffffffff1673ffffffffffffffffffffffffffffffffffffffff1663abfdcced8360405180807f70617573650000000000000000000000000000000000000000000000000000008152506005018273ffffffffffffffffffffffffffffffffffffffff1673ffffffffffffffffffffffffffffffffffffffff166c01000000000000000000000000028152601401915050604051809103902060016040518363ffffffff167c01000000000000000000000000000000000000000000000000000000000281526004018083600019166000191681526020018215151515815260200192505050600060405180830381600087803b15801561082157600080fd5b505af1158015610835573d6000803e3d6000fd5b505050507feb6fd17308ad47cec589d8c760e66e0a3737376364165d6559d9ee17cf02a2b98242604051808373ffffffffffffffffffffffffffffffffffffffff1673ffffffffffffffffffffffffffffffffffffffff1681526020018281526020019250505060405180910390a15050565b60008060009054906101000a900473ffffffffffffffffffffffffffffffffffffffff1673ffffffffffffffffffffffffffffffffffffffff16633b7bfda03360405180807f6f776e65720000000000000000000000000000000000000000000000000000008152506005018273ffffffffffffffffffffffffffffffffffffffff1673ffffffffffffffffffffffffffffffffffffffff166c0100000000000000000000000002815260140191505060405180910390206040518263ffffffff167c0100000000000000000000000000000000000000000000000000000000028152600401808260001916600019168152602001915050602060405180830381600087803b1580156109ba57600080fd5b505af11580156109ce573d6000803e3d6000fd5b505050506040513d60208110156109e457600080fd5b81019080805190602001909291905050501515610a0057600080fd5b60008484905014151515610a1357600080fd5b6000809054906101000a900473ffffffffffffffffffffffffffffffffffffffff1673ffffffffffffffffffffffffffffffffffffffff1663abfdcced8633878787604051808673ffffffffffffffffffffffffffffffffffffffff1673ffffffffffffffffffffffffffffffffffffffff166c010000000000000000000000000281526014018573ffffffffffffffffffffffffffffffffffffffff1673ffffffffffffffffffffffffffffffffffffffff166c010000000000000000000000000281526014018484808284378201915050826000191660001916815260200195505050505050604051809103902060016040518363ffffffff167c01000000000000000000000000000000000000000000000000000000000281526004018083600019166000191681526020018215151515815260200192505050600060405180830381600087803b158015610b6a57600080fd5b505af1158015610b7e573d6000803e3d6000fd5b5050505081600019163373ffffffffffffffffffffffffffffffffffffffff167ff61640770d88492514debd57d0aa7f8bdbc14f2c137af3c45332ba7a121598558686604051808060200182810382528484828181526020019250808284378201915050935050505060405180910390a3949350505050565b60008060009054906101000a900473ffffffffffffffffffffffffffffffffffffffff1673ffffffffffffffffffffffffffffffffffffffff16633b7bfda03360405180807f6f776e65720000000000000000000000000000000000000000000000000000008152506005018273ffffffffffffffffffffffffffffffffffffffff1673ffffffffffffffffffffffffffffffffffffffff166c0100000000000000000000000002815260140191505060405180910390206040518263ffffffff167c0100000000000000000000000000000000000000000000000000000000028152600401808260001916600019168152602001915050602060405180830381600087803b158015610d0957600080fd5b505af1158015610d1d573d6000803e3d6000fd5b505050506040513d6020811015610d3357600080fd5b81019080805190602001909291905050501515610d4f57600080fd5b83600073ffffffffffffffffffffffffffffffffffffffff168173ffffffffffffffffffffffffffffffffffffffff1614151515610d8c57600080fd5b82600073ffffffffffffffffffffffffffffffffffffffff168173ffffffffffffffffffffffffffffffffffffffff1614151515610dc957600080fd5b8373ffffffffffffffffffffffffffffffffffffffff163373ffffffffffffffffffffffffffffffffffffffff1614151515610e0457600080fd5b308487604051808273ffffffffffffffffffffffffffffffffffffffff1673ffffffffffffffffffffffffffffffffffffffff166c010000000000000000000000000281526014019150506040518091039020604051808473ffffffffffffffffffffffffffffffffffffffff1673ffffffffffffffffffffffffffffffffffffffff166c010000000000000000000000000281526014018373ffffffffffffffffffffffffffffffffffffffff1673ffffffffffffffffffffffffffffffffffffffff166c01000000000000000000000000028152601401807f6368616e67654f776e6572000000000000000000000000000000000000000000815250600b0182600019166000191681526020019350505050604051809103902092506000809054906101000a900473ffffffffffffffffffffffffffffffffffffffff1673ffffffffffffffffffffffffffffffffffffffff16633b7bfda0846040518263ffffffff167c0100000000000000000000000000000000000000000000000000000000028152600401808260001916600019168152602001915050602060405180830381600087803b158015610fba57600080fd5b505af1158015610fce573d6000803e3d6000fd5b505050506040513d6020811015610fe457600080fd5b8101908080519060200190929190505050151561100057600080fd5b6000809054906101000a900473ffffffffffffffffffffffffffffffffffffffff1673ffffffffffffffffffffffffffffffffffffffff1663abfdcced8460006040518363ffffffff167c01000000000000000000000000000000000000000000000000000000000281526004018083600019166000191681526020018215151515815260200192505050600060405180830381600087803b1580156110a557600080fd5b505af11580156110b9573d6000803e3d6000fd5b505050506000809054906101000a900473ffffffffffffffffffffffffffffffffffffffff1673ffffffffffffffffffffffffffffffffffffffff16632c62ff2d8660405180807f6f776e65720000000000000000000000000000000000000000000000000000008152506005018273ffffffffffffffffffffffffffffffffffffffff1673ffffffffffffffffffffffffffffffffffffffff166c0100000000000000000000000002815260140191505060405180910390206040518263ffffffff167c0100000000000000000000000000000000000000000000000000000000028152600401808260001916600019168152602001915050600060405180830381600087803b1580156111cd57600080fd5b505af11580156111e1573d6000803e3d6000fd5b505050506000809054906101000a900473ffffffffffffffffffffffffffffffffffffffff1673ffffffffffffffffffffffffffffffffffffffff1663abfdcced8760405180807f6f776e65720000000000000000000000000000000000000000000000000000008152506005018273ffffffffffffffffffffffffffffffffffffffff1673ffffffffffffffffffffffffffffffffffffffff166c01000000000000000000000000028152601401915050604051809103902060016040518363ffffffff167c01000000000000000000000000000000000000000000000000000000000281526004018083600019166000191681526020018215151515815260200192505050600060405180830381600087803b15801561130257600080fd5b505af1158015611316573d6000803e3d6000fd5b50505050428673ffffffffffffffffffffffffffffffffffffffff168673ffffffffffffffffffffffffffffffffffffffff167ffd9811cc4bfef4ca9785d9259e0617f24c7cdf56abc9bdddfa595f44f1ef3fa960405160405180910390a45050505050505600a165627a7a72305820d9fd3c4316ca5e4c574f44dcc82420b2f4bb27aa500320c247c1415475d05bd50029",
  "source": "pragma solidity 0.4.23;\nimport './Database.sol';\n\n//------------------------------------------------------------------------------------------------------------------\n// This contract handles owner authorization, freezing and access to critical functions\n//------------------------------------------------------------------------------------------------------------------\ncontract Owned {\n\n  Database public database;\n\n  //------------------------------------------------------------------------------------------------------------------\n  // Constructor: Initialize database\n  //------------------------------------------------------------------------------------------------------------------\n  constructor(address _database) \n  noZeroAddress(_database)\n  public {\n    database = Database(_database);\n  }\n\n  //------------------------------------------------------------------------------------------------------------------\n  // This function requires 2 of 3 owners to sign off on. Will replace one owner for another. \n  // @Param: The address of the new owner address \n  // @Param: The index of the new owner \n  // @Param: The address of the first signer, who has approved the calling of this function\n  //------------------------------------------------------------------------------------------------------------------\n  function changeOwner(address _newOwner, address _oldOwner, address _functionSigner) \n  anyOwner\n  noZeroAddress(_newOwner)\n  noZeroAddress(_functionSigner)\n  external {\n    require(msg.sender != _functionSigner);         // Check that this is different owner than the one who authorized\n    bytes32 functionHash = keccak256(this, _functionSigner, \"changeOwner\", keccak256(_newOwner)); \n    require(database.boolStorage(functionHash));   // Check that fuction has been authorized to be called with these parameters\n    database.setBool(functionHash, false);         // Reset changeOwner() authorization\n    database.deleteBool(keccak256(\"owner\", _oldOwner));      // Remove old owners privileges\n    database.setBool(keccak256(\"owner\", _newOwner), true);\n    emit LogOwnerChanged(_oldOwner, _newOwner, block.timestamp);\n  }\n\n  //------------------------------------------------------------------------------------------------------------------\n  // This function authorizes other owners to call critical functions such as selfdestruct or changeOwner() or add/remove contracts in ContractManager.\n  // The address that will be used in the function requiring multisig capabilities. The critical functions often involve having a critical address change. If address is not critical any agreed address will work\n  // Note: beneficiary is used in case an attacker gains control of one owner wallet, they would need to also agree on the critical parameter, which if not of type bytes32, is keccak256(criticalParameter)\n  //------------------------------------------------------------------------------------------------------------------\n  function setFunctionAuthorized(address _contractAddress, string _functionName, bytes32 _beneficiary) \n  external\n  anyOwner\n  returns (bool) { \n    require(bytes(_functionName).length != 0); \n    database.setBool(keccak256(_contractAddress, msg.sender, _functionName, _beneficiary), true);    // Sign the function name + parameter\n    emit LogFunctionAuthorized(msg.sender, _functionName, _beneficiary); \n  }\n\n  //------------------------------------------------------------------------------------------------------------------\n  // This will pause all critical activity for the supplied address \n  // @Param: The address of the contract which is to be paused\\\n  //------------------------------------------------------------------------------------------------------------------\n  function pause(address _contract) \n  anyOwner  \n  noZeroAddress(_contract)\n  public {\n    database.setBool(keccak256(\"pause\", _contract), true);\n    emit LogPaused(_contract, block.timestamp);\n  }\n  \n  //------------------------------------------------------------------------------------------------------------------\n  // This will unpause all critical activity for the supplied address\n  // @Param: The address of the contract which is to be unpaused\n  //------------------------------------------------------------------------------------------------------------------\n  function unpause(address _contract) \n  anyOwner  \n  public {\n    database.setBool(keccak256(\"pause\", _contract), false);\n    emit LogUnpaused(_contract, block.timestamp);\n  }\n\n\n\n\n  //------------------------------------------------------------------------------------------------------------------\n  //                                                Modifiers \n  //------------------------------------------------------------------------------------------------------------------\n\n\n  //------------------------------------------------------------------------------------------------------------------\n  // Verifies sthat sender is an owners \n  //------------------------------------------------------------------------------------------------------------------\n  modifier anyOwner { \n    require(database.boolStorage(keccak256(\"owner\", msg.sender)));\n    _;\n  }\n\n  //------------------------------------------------------------------------------------------------------------------\n  // Verifies no empty addresses are input \n  //------------------------------------------------------------------------------------------------------------------\n  modifier noZeroAddress(address _param) { \n    require (_param != address(0)); \n    _;\n  }\n\n\n  //------------------------------------------------------------------------------------------------------------------\n  //                                              Events\n  //------------------------------------------------------------------------------------------------------------------\n  event LogPaused(address _contract, uint _timestamp);\n  event LogUnpaused(address _contract, uint _timestamp);\n  event LogOwnerChanged(address indexed _previousOwner, address indexed _newOwner, uint indexed _timestamp);\n  event LogFunctionAuthorized(address indexed _owner, string _functionName, bytes32 indexed _beneficiary);\n}\n",
  "sourcePath": "/var/www/html/mybit/dapp/Contracts/contracts/Owned.sol",
  "compiler": {
    "name": "solc",
    "version": "0.4.23+commit.124ca40d.Emscripten.clang"
  },
  "schemaVersion": "2.0.0",
  "updatedAt": "2018-05-15T12:10:07.901Z"
}