{
  "contractName": "Test",
  "abi": [
    {
      "constant": true,
      "inputs": [],
      "name": "assetFunded",
      "outputs": [
        {
          "name": "",
          "type": "bytes32"
        }
      ],
      "payable": false,
      "stateMutability": "view",
      "type": "function"
    },
    {
      "constant": true,
      "inputs": [],
      "name": "database",
      "outputs": [
        {
          "name": "",
          "type": "address"
        }
      ],
      "payable": false,
      "stateMutability": "view",
      "type": "function"
    },
    {
      "inputs": [
        {
          "name": "_database",
          "type": "address"
        }
      ],
      "payable": false,
      "stateMutability": "nonpayable",
      "type": "constructor"
    },
    {
      "payable": true,
      "stateMutability": "payable",
      "type": "fallback"
    },
    {
      "anonymous": false,
      "inputs": [
        {
          "indexed": false,
          "name": "_sender",
          "type": "address"
        },
        {
          "indexed": false,
          "name": "_amount",
          "type": "uint256"
        },
        {
          "indexed": false,
          "name": "_timestamp",
          "type": "uint256"
        }
      ],
      "name": "logpayment",
      "type": "event"
    },
    {
      "constant": false,
      "inputs": [
        {
          "name": "_spender",
          "type": "address"
        },
        {
          "name": "_amount",
          "type": "uint256"
        }
      ],
      "name": "withdrawAndApprove",
      "outputs": [],
      "payable": false,
      "stateMutability": "nonpayable",
      "type": "function"
    },
    {
      "constant": false,
      "inputs": [
        {
          "name": "_accessLevel",
          "type": "uint256"
        }
      ],
      "name": "burnAccessTokens",
      "outputs": [],
      "payable": false,
      "stateMutability": "nonpayable",
      "type": "function"
    },
    {
      "constant": false,
      "inputs": [
        {
          "name": "_assetID",
          "type": "bytes32"
        },
        {
          "name": "_amountToBeRaised",
          "type": "uint256"
        },
        {
          "name": "_operatorPercentage",
          "type": "uint256"
        },
        {
          "name": "_amountToEscrow",
          "type": "uint256"
        },
        {
          "name": "_installerID",
          "type": "bytes32"
        },
        {
          "name": "_assetType",
          "type": "bytes32"
        }
      ],
      "name": "createAsset",
      "outputs": [],
      "payable": false,
      "stateMutability": "nonpayable",
      "type": "function"
    },
    {
      "constant": false,
      "inputs": [
        {
          "name": "_assetID",
          "type": "bytes32"
        },
        {
          "name": "_amount",
          "type": "uint256"
        }
      ],
      "name": "fund",
      "outputs": [],
      "payable": false,
      "stateMutability": "nonpayable",
      "type": "function"
    },
    {
      "constant": false,
      "inputs": [],
      "name": "deposit",
      "outputs": [],
      "payable": true,
      "stateMutability": "payable",
      "type": "function"
    },
    {
      "constant": true,
      "inputs": [],
      "name": "getBalance",
      "outputs": [
        {
          "name": "",
          "type": "uint256"
        }
      ],
      "payable": false,
      "stateMutability": "view",
      "type": "function"
    },
    {
      "constant": true,
      "inputs": [
        {
          "name": "_name",
          "type": "string"
        }
      ],
      "name": "getAddress",
      "outputs": [
        {
          "name": "",
          "type": "address"
        }
      ],
      "payable": false,
      "stateMutability": "view",
      "type": "function"
    }
  ],
  "bytecode": "0x608060405234801561001057600080fd5b50604051602080610d0983398101806040528101908080519060200190929190505050806000806101000a81548173ffffffffffffffffffffffffffffffffffffffff021916908373ffffffffffffffffffffffffffffffffffffffff16021790555050610c86806100836000396000f300608060405260043610610099576000357c0100000000000000000000000000000000000000000000000000000000900463ffffffff16806312065fe01461015057806340b4ff251461017b578063713b563f146101ae578063bf40fac114610205578063c9a82bee146102ae578063d0e30db0146102db578063d5733607146102e5578063e46bbc9e14610350578063e87971d21461038b575b3373ffffffffffffffffffffffffffffffffffffffff16637249fbb66001546040518263ffffffff167c0100000000000000000000000000000000000000000000000000000000028152600401808260001916600019168152602001915050602060405180830381600087803b15801561011257600080fd5b505af1158015610126573d6000803e3d6000fd5b505050506040513d602081101561013c57600080fd5b810190808051906020019092919050505050005b34801561015c57600080fd5b506101656103d8565b6040518082815260200191505060405180910390f35b34801561018757600080fd5b506101906103f7565b60405180826000191660001916815260200191505060405180910390f35b3480156101ba57600080fd5b506101c36103fd565b604051808273ffffffffffffffffffffffffffffffffffffffff1673ffffffffffffffffffffffffffffffffffffffff16815260200191505060405180910390f35b34801561021157600080fd5b5061026c600480360381019080803590602001908201803590602001908080601f0160208091040260200160405190810160405280939291908181526020018383808284378201915050505050509192919290505050610422565b604051808273ffffffffffffffffffffffffffffffffffffffff1673ffffffffffffffffffffffffffffffffffffffff16815260200191505060405180910390f35b3480156102ba57600080fd5b506102d960048036038101908080359060200190929190505050610588565b005b6102e361078a565b005b3480156102f157600080fd5b5061034e6004803603810190808035600019169060200190929190803590602001909291908035906020019092919080359060200190929190803560001916906020019092919080356000191690602001909291905050506107ff565b005b34801561035c57600080fd5b5061038960048036038101908080356000191690602001909291908035906020019092919050505061093a565b005b34801561039757600080fd5b506103d6600480360381019080803573ffffffffffffffffffffffffffffffffffffffff16906020019092919080359060200190929190505050610a2f565b005b60003073ffffffffffffffffffffffffffffffffffffffff1631905090565b60015481565b6000809054906101000a900473ffffffffffffffffffffffffffffffffffffffff1681565b60008060009054906101000a900473ffffffffffffffffffffffffffffffffffffffff1673ffffffffffffffffffffffffffffffffffffffff166304f49a3a8360405180807f636f6e747261637400000000000000000000000000000000000000000000000081525060080182805190602001908083835b6020831015156104bf578051825260208201915060208101905060208303925061049a565b6001836020036101000a03801982511681845116808217855250505050505090500191505060405180910390206040518263ffffffff167c0100000000000000000000000000000000000000000000000000000000028152600401808260001916600019168152602001915050602060405180830381600087803b15801561054657600080fd5b505af115801561055a573d6000803e3d6000fd5b505050506040513d602081101561057057600080fd5b81019080805190602001909291905050509050919050565b60008060009054906101000a900473ffffffffffffffffffffffffffffffffffffffff1673ffffffffffffffffffffffffffffffffffffffff1663a855d4ce60405180807f6e756d6265724f66546f6b656e734275726e7400000000000000000000000000815250601301905060405180910390206040518263ffffffff167c0100000000000000000000000000000000000000000000000000000000028152600401808260001916600019168152602001915050602060405180830381600087803b15801561065757600080fd5b505af115801561066b573d6000803e3d6000fd5b505050506040513d602081101561068157600080fd5b810190808051906020019092919050505090506106d26040805190810160405280600981526020017f546f6b656e4275726e0000000000000000000000000000000000000000000000815250610422565b73ffffffffffffffffffffffffffffffffffffffff16636d1b229d836040518263ffffffff167c010000000000000000000000000000000000000000000000000000000002815260040180828152602001915050602060405180830381600087803b15801561074057600080fd5b505af1158015610754573d6000803e3d6000fd5b505050506040513d602081101561076a57600080fd5b8101908080519060200190929190505050151561078657600080fd5b5050565b7faa935ae686fa3223b9a0f240cfc5c389a8309f7c5b44c45e4d1bc0c32c1e1a57333442604051808473ffffffffffffffffffffffffffffffffffffffff1673ffffffffffffffffffffffffffffffffffffffff168152602001838152602001828152602001935050505060405180910390a1565b61083d6040805190810160405280600d81526020017f41737365744372656174696f6e00000000000000000000000000000000000000815250610422565b73ffffffffffffffffffffffffffffffffffffffff166380e903f48787878787876040518763ffffffff167c0100000000000000000000000000000000000000000000000000000000028152600401808760001916600019168152602001868152602001858152602001848152602001836000191660001916815260200182600019166000191681526020019650505050505050602060405180830381600087803b1580156108eb57600080fd5b505af11580156108ff573d6000803e3d6000fd5b505050506040513d602081101561091557600080fd5b8101908080519060200190929190505050508560018160001916905550505050505050565b6109786040805190810160405280600a81526020017f46756e64696e6748756200000000000000000000000000000000000000000000815250610422565b73ffffffffffffffffffffffffffffffffffffffff1663bf14c11982846040518363ffffffff167c01000000000000000000000000000000000000000000000000000000000281526004018082600019166000191681526020019150506020604051808303818588803b1580156109ee57600080fd5b505af1158015610a02573d6000803e3d6000fd5b50505050506040513d6020811015610a1957600080fd5b8101908080519060200190929190505050505050565b610a6d6040805190810160405280600b81526020017f546f6b656e466175636574000000000000000000000000000000000000000000815250610422565b73ffffffffffffffffffffffffffffffffffffffff16632e1a7d4d826040518263ffffffff167c010000000000000000000000000000000000000000000000000000000002815260040180828152602001915050600060405180830381600087803b158015610adb57600080fd5b505af1158015610aef573d6000803e3d6000fd5b50505050610b316040805190810160405280600a81526020017f4d79426974546f6b656e00000000000000000000000000000000000000000000815250610422565b73ffffffffffffffffffffffffffffffffffffffff1663095ea7b3610b8a6040805190810160405280600981526020017f546f6b656e4275726e0000000000000000000000000000000000000000000000815250610422565b836040518363ffffffff167c0100000000000000000000000000000000000000000000000000000000028152600401808373ffffffffffffffffffffffffffffffffffffffff1673ffffffffffffffffffffffffffffffffffffffff16815260200182815260200192505050602060405180830381600087803b158015610c1057600080fd5b505af1158015610c24573d6000803e3d6000fd5b505050506040513d6020811015610c3a57600080fd5b81019080805190602001909291905050501515610c5657600080fd5b50505600a165627a7a723058204eed888eae8a4233741c3a27a32a106a9fc00bd8a255ce6cbc8f1d04d7925ce90029",
  "source": "pragma solidity 0.4.23;\n\nimport './Database.sol';\nimport './Asset.sol';\nimport './AssetCreation.sol';\nimport './ContractManager.sol';\nimport './FunderControls.sol';\nimport './FundingHub.sol';\nimport './InitialVariables.sol';\nimport './AssetExchange.sol';\nimport './ERC20.sol';\nimport './OperatorEscrow.sol';\nimport './OracleHub.sol';\nimport './Owned.sol';\nimport './TokenBurn.sol';\nimport './TokenFaucet.sol';\nimport './UserAccess.sol';\nimport './WithdrawalManager.sol';\n\ncontract  Test { \n\n  Database public database;\n\n  bytes32 public assetFunded;   // ID of asset funded by this contract\n\n  constructor(address _database) \n  public { \n    database = Database(_database);\n  }\n\n  function withdrawAndApprove(address _spender, uint _amount) \n  external { \n    TokenFaucet(getAddress(\"TokenFaucet\")).withdraw(_amount);\n    require(ERC20(getAddress(\"MyBitToken\")).approve(getAddress(\"TokenBurn\"), _amount));\n  }\n\n  function burnAccessTokens(uint _accessLevel)\n  external { \n    uint numTokensBurnt = database.uintStorage(keccak256(\"numberOfTokensBurnt\")); \n    require(TokenBurn(getAddress(\"TokenBurn\")).burnTokens(_accessLevel)); \n  }\n\n  function createAsset(bytes32 _assetID, uint _amountToBeRaised, uint _operatorPercentage, uint _amountToEscrow, bytes32 _installerID, bytes32 _assetType)\n  external { \n    AssetCreation(getAddress(\"AssetCreation\")).newAsset(_assetID, _amountToBeRaised, _operatorPercentage, _amountToEscrow, _installerID, _assetType);\n    assetFunded = _assetID; \n  }\n  \n\n  function fund(bytes32 _assetID, uint _amount)\n  external { \n    FundingHub(getAddress(\"FundingHub\")).fund.value(_amount)(_assetID);\n  }\n\n\n  function deposit()\n  payable\n  public { \n    emit logpayment(msg.sender, msg.value, block.timestamp);\n  }\n\n  function getBalance()\n  public\n  view \n  returns (uint) { \n    return this.balance; \n  }\n\n  function getAddress(string _name)\n  public \n  view \n  returns (address) { \n    return database.addressStorage(keccak256(\"contract\", _name)); \n  }\n\n  // Test Re-entrancy here \n  function()\n  public\n  payable { \n    FundingHub(msg.sender).refund(assetFunded); \n  }\n\n\n  event logpayment(address _sender, uint _amount, uint _timestamp); \n}\n",
  "sourcePath": "/var/www/html/mybit/dapp/Contracts/contracts/Test.sol",
  "compiler": {
    "name": "solc",
    "version": "0.4.23+commit.124ca40d.Emscripten.clang"
  },
  "schemaVersion": "2.0.0",
  "updatedAt": "2018-05-15T12:10:07.903Z"
}