{
  "contractName": "TokenFaucet",
  "abi": [
    {
      "constant": true,
      "inputs": [],
      "name": "tokensInFaucet",
      "outputs": [
        {
          "name": "",
          "type": "uint256"
        }
      ],
      "payable": false,
      "stateMutability": "view",
      "type": "function"
    },
    {
      "constant": true,
      "inputs": [],
      "name": "token",
      "outputs": [
        {
          "name": "",
          "type": "address"
        }
      ],
      "payable": false,
      "stateMutability": "view",
      "type": "function"
    },
    {
      "inputs": [
        {
          "name": "_tokenAddress",
          "type": "address"
        }
      ],
      "payable": false,
      "stateMutability": "nonpayable",
      "type": "constructor"
    },
    {
      "anonymous": false,
      "inputs": [
        {
          "indexed": false,
          "name": "_sender",
          "type": "address"
        },
        {
          "indexed": false,
          "name": "_amount",
          "type": "uint256"
        },
        {
          "indexed": false,
          "name": "_blockNumber",
          "type": "uint256"
        }
      ],
      "name": "TokenWithdraw",
      "type": "event"
    },
    {
      "anonymous": false,
      "inputs": [
        {
          "indexed": false,
          "name": "_depositer",
          "type": "address"
        },
        {
          "indexed": false,
          "name": "_amount",
          "type": "uint256"
        },
        {
          "indexed": false,
          "name": "_blockNumber",
          "type": "uint256"
        }
      ],
      "name": "TokenDeposit",
      "type": "event"
    },
    {
      "constant": false,
      "inputs": [
        {
          "name": "_amount",
          "type": "uint256"
        }
      ],
      "name": "deposit",
      "outputs": [],
      "payable": false,
      "stateMutability": "nonpayable",
      "type": "function"
    },
    {
      "constant": false,
      "inputs": [
        {
          "name": "_amount",
          "type": "uint256"
        }
      ],
      "name": "withdraw",
      "outputs": [],
      "payable": false,
      "stateMutability": "nonpayable",
      "type": "function"
    }
  ],
  "bytecode": "0x608060405234801561001057600080fd5b5060405160208061057883398101806040528101908080519060200190929190505050806000806101000a81548173ffffffffffffffffffffffffffffffffffffffff021916908373ffffffffffffffffffffffffffffffffffffffff160217905550506104f5806100836000396000f300608060405260043610610062576000357c0100000000000000000000000000000000000000000000000000000000900463ffffffff1680632e1a7d4d1461006757806369b384f114610094578063b6b55f25146100bf578063fc0c546a146100ec575b600080fd5b34801561007357600080fd5b5061009260048036038101908080359060200190929190505050610143565b005b3480156100a057600080fd5b506100a96102da565b6040518082815260200191505060405180910390f35b3480156100cb57600080fd5b506100ea600480360381019080803590602001909291905050506102e0565b005b3480156100f857600080fd5b506101016104a4565b604051808273ffffffffffffffffffffffffffffffffffffffff1673ffffffffffffffffffffffffffffffffffffffff16815260200191505060405180910390f35b806001541015151561015457600080fd5b806001600082825403925050819055506000809054906101000a900473ffffffffffffffffffffffffffffffffffffffff1673ffffffffffffffffffffffffffffffffffffffff1663a9059cbb33836040518363ffffffff167c0100000000000000000000000000000000000000000000000000000000028152600401808373ffffffffffffffffffffffffffffffffffffffff1673ffffffffffffffffffffffffffffffffffffffff16815260200182815260200192505050602060405180830381600087803b15801561022857600080fd5b505af115801561023c573d6000803e3d6000fd5b505050506040513d602081101561025257600080fd5b8101908080519060200190929190505050507fa50d41d074ce94f4240b13344e911203e7a2169e7f09812a0d70a882e7c633c7338243604051808473ffffffffffffffffffffffffffffffffffffffff1673ffffffffffffffffffffffffffffffffffffffff168152602001838152602001828152602001935050505060405180910390a150565b60015481565b6000809054906101000a900473ffffffffffffffffffffffffffffffffffffffff1673ffffffffffffffffffffffffffffffffffffffff166323b872dd3330846040518463ffffffff167c0100000000000000000000000000000000000000000000000000000000028152600401808473ffffffffffffffffffffffffffffffffffffffff1673ffffffffffffffffffffffffffffffffffffffff1681526020018373ffffffffffffffffffffffffffffffffffffffff1673ffffffffffffffffffffffffffffffffffffffff1681526020018281526020019350505050602060405180830381600087803b1580156103d857600080fd5b505af11580156103ec573d6000803e3d6000fd5b505050506040513d602081101561040257600080fd5b8101908080519060200190929190505050151561041e57600080fd5b806001600082825401925050819055507fa0b40f8f2322d781b876685a2c48d6be9490125b721fa6240b71d0d4b7d08220338243604051808473ffffffffffffffffffffffffffffffffffffffff1673ffffffffffffffffffffffffffffffffffffffff168152602001838152602001828152602001935050505060405180910390a150565b6000809054906101000a900473ffffffffffffffffffffffffffffffffffffffff16815600a165627a7a7230582055f13fd29d71085389dffacc9d1ce53df6dbea78f466ad82585bc25ddf36f05d0029",
  "source": "pragma solidity 0.4.23;\n\nimport './ERC20.sol';\n\n// Can use this contract to give tokens away. \n// Note: This is not secure and has no limits placed. Use for test-net only.\ncontract TokenFaucet { \n\n  ERC20 public token;\n  uint public tokensInFaucet; \n\n  constructor(address _tokenAddress)\n  public  { \n    token = ERC20(_tokenAddress); \n  }\n\n  function deposit(uint _amount)\n  external { \n    require(token.transferFrom(msg.sender, this, _amount)); \n    tokensInFaucet += _amount;\n    emit TokenDeposit(msg.sender, _amount, block.number); \n  }\n\n  function withdraw(uint _amount)\n  external { \n    require (tokensInFaucet >= _amount); \n    tokensInFaucet -= _amount;\n    token.transfer(msg.sender, _amount);\n    emit TokenWithdraw(msg.sender, _amount, block.number);\n  }\n\n  event TokenWithdraw(address _sender, uint _amount, uint _blockNumber); \n  event TokenDeposit(address _depositer, uint _amount, uint _blockNumber); \n}\n",
  "sourcePath": "/var/www/html/mybit/dapp/Contracts/contracts/TokenFaucet.sol",
  "compiler": {
    "name": "solc",
    "version": "0.4.23+commit.124ca40d.Emscripten.clang"
  },
  "schemaVersion": "2.0.0",
  "updatedAt": "2018-05-15T12:10:07.904Z"
}