{
  "contractName": "TokenBurn",
  "abi": [
    {
      "constant": true,
      "inputs": [],
      "name": "myBitToken",
      "outputs": [
        {
          "name": "",
          "type": "address"
        }
      ],
      "payable": false,
      "stateMutability": "view",
      "type": "function"
    },
    {
      "constant": true,
      "inputs": [],
      "name": "database",
      "outputs": [
        {
          "name": "",
          "type": "address"
        }
      ],
      "payable": false,
      "stateMutability": "view",
      "type": "function"
    },
    {
      "inputs": [
        {
          "name": "_database",
          "type": "address"
        },
        {
          "name": "_myBitToken",
          "type": "address"
        }
      ],
      "payable": false,
      "stateMutability": "nonpayable",
      "type": "constructor"
    },
    {
      "anonymous": false,
      "inputs": [
        {
          "indexed": false,
          "name": "_burner",
          "type": "address"
        },
        {
          "indexed": false,
          "name": "_amount",
          "type": "uint256"
        },
        {
          "indexed": false,
          "name": "_timestamp",
          "type": "uint256"
        }
      ],
      "name": "LogMyBitBurnt",
      "type": "event"
    },
    {
      "constant": false,
      "inputs": [
        {
          "name": "_accessLevelDesired",
          "type": "uint256"
        }
      ],
      "name": "burnTokens",
      "outputs": [
        {
          "name": "",
          "type": "bool"
        }
      ],
      "payable": false,
      "stateMutability": "nonpayable",
      "type": "function"
    }
  ],
  "bytecode": "0x608060405234801561001057600080fd5b50604051604080610e408339810180604052810190808051906020019092919080519060200190929190505050806000806101000a81548173ffffffffffffffffffffffffffffffffffffffff021916908373ffffffffffffffffffffffffffffffffffffffff16021790555081600160006101000a81548173ffffffffffffffffffffffffffffffffffffffff021916908373ffffffffffffffffffffffffffffffffffffffff1602179055505050610d71806100cf6000396000f300608060405260043610610057576000357c0100000000000000000000000000000000000000000000000000000000900463ffffffff16806309afe9fb1461005c5780636d1b229d146100b3578063713b563f146100f8575b600080fd5b34801561006857600080fd5b5061007161014f565b604051808273ffffffffffffffffffffffffffffffffffffffff1673ffffffffffffffffffffffffffffffffffffffff16815260200191505060405180910390f35b3480156100bf57600080fd5b506100de60048036038101908080359060200190929190505050610174565b604051808215151515815260200191505060405180910390f35b34801561010457600080fd5b5061010d610cb0565b604051808273ffffffffffffffffffffffffffffffffffffffff1673ffffffffffffffffffffffffffffffffffffffff16815260200191505060405180910390f35b6000809054906101000a900473ffffffffffffffffffffffffffffffffffffffff1681565b600080600080600160009054906101000a900473ffffffffffffffffffffffffffffffffffffffff1673ffffffffffffffffffffffffffffffffffffffff16633b7bfda03060405180807f70617573650000000000000000000000000000000000000000000000000000008152506005018273ffffffffffffffffffffffffffffffffffffffff1673ffffffffffffffffffffffffffffffffffffffff166c0100000000000000000000000002815260140191505060405180910390206040518263ffffffff167c0100000000000000000000000000000000000000000000000000000000028152600401808260001916600019168152602001915050602060405180830381600087803b15801561028b57600080fd5b505af115801561029f573d6000803e3d6000fd5b505050506040513d60208110156102b557600080fd5b81019080805190602001909291905050501515156102d257600080fd5b600160009054906101000a900473ffffffffffffffffffffffffffffffffffffffff1673ffffffffffffffffffffffffffffffffffffffff1663a855d4ce60405180807f6d7962555344507269636545787069726174696f6e0000000000000000000000815250601501905060405180910390206040518263ffffffff167c0100000000000000000000000000000000000000000000000000000000028152600401808260001916600019168152602001915050602060405180830381600087803b1580156103a057600080fd5b505af11580156103b4573d6000803e3d6000fd5b505050506040513d60208110156103ca57600080fd5b8101908080519060200190929190505050421015156103e857600080fd5b846000600160009054906101000a900473ffffffffffffffffffffffffffffffffffffffff1673ffffffffffffffffffffffffffffffffffffffff1663a855d4ce3360405180807f7573657241636365737300000000000000000000000000000000000000000000815250600a018273ffffffffffffffffffffffffffffffffffffffff1673ffffffffffffffffffffffffffffffffffffffff166c0100000000000000000000000002815260140191505060405180910390206040518263ffffffff167c0100000000000000000000000000000000000000000000000000000000028152600401808260001916600019168152602001915050602060405180830381600087803b1580156104fc57600080fd5b505af1158015610510573d6000803e3d6000fd5b505050506040513d602081101561052657600080fd5b81019080805190602001909291905050509050818110151561054757600080fd5b6004821080156105575750600082115b151561056257600080fd5b600160009054906101000a900473ffffffffffffffffffffffffffffffffffffffff1673ffffffffffffffffffffffffffffffffffffffff1663a855d4ce60405180807f6d79625553445072696365000000000000000000000000000000000000000000815250600b01905060405180910390206040518263ffffffff167c0100000000000000000000000000000000000000000000000000000000028152600401808260001916600019168152602001915050602060405180830381600087803b15801561063057600080fd5b505af1158015610644573d6000803e3d6000fd5b505050506040513d602081101561065a57600080fd5b810190808051906020019092919050505094506107a78561079964174876e800600160009054906101000a900473ffffffffffffffffffffffffffffffffffffffff1673ffffffffffffffffffffffffffffffffffffffff1663a855d4ce8c60405180807f616363657373546f6b656e466565000000000000000000000000000000000000815250600e0182815260200191505060405180910390206040518263ffffffff167c0100000000000000000000000000000000000000000000000000000000028152600401808260001916600019168152602001915050602060405180830381600087803b15801561075057600080fd5b505af1158015610764573d6000803e3d6000fd5b505050506040513d602081101561077a57600080fd5b8101908080519060200190929190505050610cd690919063ffffffff16565b610d1190919063ffffffff16565b93506000841115156107b557fe5b6000809054906101000a900473ffffffffffffffffffffffffffffffffffffffff1673ffffffffffffffffffffffffffffffffffffffff166323b872dd3330876040518463ffffffff167c0100000000000000000000000000000000000000000000000000000000028152600401808473ffffffffffffffffffffffffffffffffffffffff1673ffffffffffffffffffffffffffffffffffffffff1681526020018373ffffffffffffffffffffffffffffffffffffffff1673ffffffffffffffffffffffffffffffffffffffff1681526020018281526020019350505050602060405180830381600087803b1580156108ad57600080fd5b505af11580156108c1573d6000803e3d6000fd5b505050506040513d60208110156108d757600080fd5b810190808051906020019092919050505015156108f357600080fd5b600160009054906101000a900473ffffffffffffffffffffffffffffffffffffffff1673ffffffffffffffffffffffffffffffffffffffff1663e2a4853a3360405180807f7573657241636365737300000000000000000000000000000000000000000000815250600a018273ffffffffffffffffffffffffffffffffffffffff1673ffffffffffffffffffffffffffffffffffffffff166c010000000000000000000000000281526014019150506040518091039020896040518363ffffffff167c010000000000000000000000000000000000000000000000000000000002815260040180836000191660001916815260200182815260200192505050600060405180830381600087803b158015610a0c57600080fd5b505af1158015610a20573d6000803e3d6000fd5b50505050600160009054906101000a900473ffffffffffffffffffffffffffffffffffffffff1673ffffffffffffffffffffffffffffffffffffffff1663a855d4ce60405180807f6e756d6265724f66546f6b656e734275726e7400000000000000000000000000815250601301905060405180910390206040518263ffffffff167c0100000000000000000000000000000000000000000000000000000000028152600401808260001916600019168152602001915050602060405180830381600087803b158015610af257600080fd5b505af1158015610b06573d6000803e3d6000fd5b505050506040513d6020811015610b1c57600080fd5b81019080805190602001909291905050509250600160009054906101000a900473ffffffffffffffffffffffffffffffffffffffff1673ffffffffffffffffffffffffffffffffffffffff1663e2a4853a60405180807f6e756d6265724f66546f6b656e734275726e740000000000000000000000000081525060130190506040518091039020610bb68787610d2790919063ffffffff16565b6040518363ffffffff167c010000000000000000000000000000000000000000000000000000000002815260040180836000191660001916815260200182815260200192505050600060405180830381600087803b158015610c1757600080fd5b505af1158015610c2b573d6000803e3d6000fd5b505050507faa378d00a7f42910837bd9208874442306ae3e6304e7593fd85cf76b47d9f866338542604051808473ffffffffffffffffffffffffffffffffffffffff1673ffffffffffffffffffffffffffffffffffffffff168152602001838152602001828152602001935050505060405180910390a1600195505050505050919050565b600160009054906101000a900473ffffffffffffffffffffffffffffffffffffffff1681565b6000806000841415610ceb5760009150610d0a565b8284029050828482811515610cfc57fe5b04141515610d0657fe5b8091505b5092915050565b60008183811515610d1e57fe5b04905092915050565b6000808284019050838110151515610d3b57fe5b80915050929150505600a165627a7a7230582021a3253cb0d250dac351f4c3b4a4f6adef5765cabfa1f7c7a6840c9a333fff710029",
  "source": "pragma solidity 0.4.23;\nimport './ERC20.sol';\nimport './Database.sol';\nimport './SafeMath.sol';\n\n//------------------------------------------------------------------------------------------------------------------\n// This contract transfers MyBit tokens and holds them forever with no mechanism to transfer them out again.\n//------------------------------------------------------------------------------------------------------------------\ncontract TokenBurn {\n  using SafeMath for *;\n\n\n  ERC20 public myBitToken;\n  Database public database;\n\n  //------------------------------------------------------------------------------------------------------------------\n  // Constructor: Initialize Database and MyBitToken \n  //------------------------------------------------------------------------------------------------------------------\n  constructor(address _database, address _myBitToken)\n  public {\n    myBitToken = ERC20(_myBitToken);\n    database = Database(_database);\n  }\n\n  //------------------------------------------------------------------------------------------------------------------\n  // Users can gain access to the platform by burning tokens here\n  // Every access level has an associated price in USD. The equivalent value of MyBit must be burnt to gain acccess. \n  //------------------------------------------------------------------------------------------------------------------\n  function burnTokens(uint _accessLevelDesired)\n  external\n  whenNotPaused\n  priceUpdated\n  basicVerification(_accessLevelDesired)\n  returns (bool) {\n    uint mybPrice = database.uintStorage(keccak256(\"mybUSDPrice\"));\n    uint accessCostMyB = (database.uintStorage(keccak256(\"accessTokenFee\", _accessLevelDesired)).mul(10**11)).div(mybPrice);\n    assert (accessCostMyB > uint(0));\n    require(myBitToken.transferFrom(msg.sender, this, accessCostMyB));\n    database.setUint(keccak256(\"userAccess\", msg.sender), _accessLevelDesired);\n    uint numTokensBurnt = database.uintStorage(keccak256(\"numberOfTokensBurnt\"));\n    database.setUint(keccak256(\"numberOfTokensBurnt\"), numTokensBurnt.add(accessCostMyB));\n    emit LogMyBitBurnt(msg.sender, accessCostMyB, block.timestamp);\n    return true;\n  }\n\n\n  //------------------------------------------------------------------------------------------------------------------\n  //                                              Modifiers \n  //------------------------------------------------------------------------------------------------------------------\n\n\n  //------------------------------------------------------------------------------------------------------------------\n  // Verifies that desired access level is allowed. No user can downgrade access by burning tokens \n  //------------------------------------------------------------------------------------------------------------------\n  modifier basicVerification(uint _newAccessLevel) { \n  uint currentLevel = database.uintStorage(keccak256(\"userAccess\", msg.sender));\n  require(currentLevel < _newAccessLevel);       // Dont allow burning to downgrade access level\n  require (_newAccessLevel < uint(4) && _newAccessLevel > uint(0));      // Must be 1, 2 or 3\n  _; \n}\n\n  //------------------------------------------------------------------------------------------------------------------\n  // Verifies contracts has not been paused \n  //------------------------------------------------------------------------------------------------------------------\n  modifier whenNotPaused {\n    require(!database.boolStorage(keccak256(\"pause\", this)));\n    _;\n  }\n\n  //------------------------------------------------------------------------------------------------------------------\n  // Verifies that the MyBit/USD price is still valid \n  //------------------------------------------------------------------------------------------------------------------\n  modifier priceUpdated { \n    require (now < database.uintStorage(keccak256(\"mybUSDPriceExpiration\")));\n    _;\n  }\n\n  //------------------------------------------------------------------------------------------------------------------\n  //                                           Events \n  //------------------------------------------------------------------------------------------------------------------\n  event LogMyBitBurnt(address _burner, uint _amount, uint _timestamp);\n\n\n}\n",
  "sourcePath": "/var/www/html/mybit/dapp/Contracts/contracts/TokenBurn.sol",
  "compiler": {
    "name": "solc",
    "version": "0.4.23+commit.124ca40d.Emscripten.clang"
  },
  "schemaVersion": "2.0.0",
  "updatedAt": "2018-05-15T12:10:07.903Z"
}