{
  "contractName": "UserAccess",
  "abi": [
    {
      "constant": true,
      "inputs": [],
      "name": "database",
      "outputs": [
        {
          "name": "",
          "type": "address"
        }
      ],
      "payable": false,
      "stateMutability": "view",
      "type": "function"
    },
    {
      "inputs": [
        {
          "name": "_database",
          "type": "address"
        }
      ],
      "payable": false,
      "stateMutability": "nonpayable",
      "type": "constructor"
    },
    {
      "anonymous": false,
      "inputs": [
        {
          "indexed": true,
          "name": "_user",
          "type": "address"
        },
        {
          "indexed": true,
          "name": "_approvalLevel",
          "type": "uint256"
        },
        {
          "indexed": true,
          "name": "_timestamp",
          "type": "uint256"
        }
      ],
      "name": "LogUserApproved",
      "type": "event"
    },
    {
      "anonymous": false,
      "inputs": [
        {
          "indexed": true,
          "name": "_user",
          "type": "address"
        },
        {
          "indexed": true,
          "name": "_timestamp",
          "type": "uint256"
        }
      ],
      "name": "LogUserRemoved",
      "type": "event"
    },
    {
      "anonymous": false,
      "inputs": [
        {
          "indexed": true,
          "name": "_owner",
          "type": "address"
        },
        {
          "indexed": true,
          "name": "_user",
          "type": "address"
        },
        {
          "indexed": true,
          "name": "_timestamp",
          "type": "uint256"
        }
      ],
      "name": "LogKYCApproved",
      "type": "event"
    },
    {
      "constant": false,
      "inputs": [
        {
          "name": "_newUser",
          "type": "address"
        },
        {
          "name": "_accessLevel",
          "type": "uint256"
        }
      ],
      "name": "approveUser",
      "outputs": [
        {
          "name": "",
          "type": "bool"
        }
      ],
      "payable": false,
      "stateMutability": "nonpayable",
      "type": "function"
    },
    {
      "constant": false,
      "inputs": [
        {
          "name": "_user",
          "type": "address"
        }
      ],
      "name": "removeUser",
      "outputs": [
        {
          "name": "",
          "type": "bool"
        }
      ],
      "payable": false,
      "stateMutability": "nonpayable",
      "type": "function"
    },
    {
      "constant": false,
      "inputs": [
        {
          "name": "_user",
          "type": "address"
        }
      ],
      "name": "approveKYC",
      "outputs": [
        {
          "name": "",
          "type": "bool"
        }
      ],
      "payable": false,
      "stateMutability": "nonpayable",
      "type": "function"
    }
  ],
  "bytecode": "0x608060405234801561001057600080fd5b50604051602080610a4283398101806040528101908080519060200190929190505050806000806101000a81548173ffffffffffffffffffffffffffffffffffffffff021916908373ffffffffffffffffffffffffffffffffffffffff160217905550506109bf806100836000396000f300608060405260043610610062576000357c0100000000000000000000000000000000000000000000000000000000900463ffffffff1680630e27324d146100675780634248083b146100c2578063713b563f14610127578063985751881461017e575b600080fd5b34801561007357600080fd5b506100a8600480360381019080803573ffffffffffffffffffffffffffffffffffffffff1690602001909291905050506101d9565b604051808215151515815260200191505060405180910390f35b3480156100ce57600080fd5b5061010d600480360381019080803573ffffffffffffffffffffffffffffffffffffffff169060200190929190803590602001909291905050506104c6565b604051808215151515815260200191505060405180910390f35b34801561013357600080fd5b5061013c6106a1565b604051808273ffffffffffffffffffffffffffffffffffffffff1673ffffffffffffffffffffffffffffffffffffffff16815260200191505060405180910390f35b34801561018a57600080fd5b506101bf600480360381019080803573ffffffffffffffffffffffffffffffffffffffff1690602001909291905050506106c6565b604051808215151515815260200191505060405180910390f35b60008060009054906101000a900473ffffffffffffffffffffffffffffffffffffffff1673ffffffffffffffffffffffffffffffffffffffff16633b7bfda03360405180807f6f776e65720000000000000000000000000000000000000000000000000000008152506005018273ffffffffffffffffffffffffffffffffffffffff1673ffffffffffffffffffffffffffffffffffffffff166c0100000000000000000000000002815260140191505060405180910390206040518263ffffffff167c0100000000000000000000000000000000000000000000000000000000028152600401808260001916600019168152602001915050602060405180830381600087803b1580156102eb57600080fd5b505af11580156102ff573d6000803e3d6000fd5b505050506040513d602081101561031557600080fd5b8101908080519060200190929190505050151561033157600080fd5b6000809054906101000a900473ffffffffffffffffffffffffffffffffffffffff1673ffffffffffffffffffffffffffffffffffffffff1663abfdcced3360405180807f6b7963417070726f766564000000000000000000000000000000000000000000815250600b018273ffffffffffffffffffffffffffffffffffffffff1673ffffffffffffffffffffffffffffffffffffffff166c01000000000000000000000000028152601401915050604051809103902060016040518363ffffffff167c01000000000000000000000000000000000000000000000000000000000281526004018083600019166000191681526020018215151515815260200192505050600060405180830381600087803b15801561044e57600080fd5b505af1158015610462573d6000803e3d6000fd5b50505050428273ffffffffffffffffffffffffffffffffffffffff163373ffffffffffffffffffffffffffffffffffffffff167fd4a91449aa0f5001cd28cd7536c969e83878c79d3666695254883ccc6d2af5fb60405160405180910390a4919050565b600082600073ffffffffffffffffffffffffffffffffffffffff168173ffffffffffffffffffffffffffffffffffffffff161415151561050557600080fd5b600483108015610516575060008314155b151561052157600080fd5b6000809054906101000a900473ffffffffffffffffffffffffffffffffffffffff1673ffffffffffffffffffffffffffffffffffffffff1663e2a4853a8560405180807f7573657241636365737300000000000000000000000000000000000000000000815250600a018273ffffffffffffffffffffffffffffffffffffffff1673ffffffffffffffffffffffffffffffffffffffff166c010000000000000000000000000281526014019150506040518091039020856040518363ffffffff167c010000000000000000000000000000000000000000000000000000000002815260040180836000191660001916815260200182815260200192505050600060405180830381600087803b15801561063957600080fd5b505af115801561064d573d6000803e3d6000fd5b5050505042838573ffffffffffffffffffffffffffffffffffffffff167f2d79bd8e27cbaecaea9b4bd71b7688399c6cb1df0c57fc996a6840cd4dd64d8660405160405180910390a4600191505092915050565b6000809054906101000a900473ffffffffffffffffffffffffffffffffffffffff1681565b60008060009054906101000a900473ffffffffffffffffffffffffffffffffffffffff1673ffffffffffffffffffffffffffffffffffffffff16633b7bfda03360405180807f6f776e65720000000000000000000000000000000000000000000000000000008152506005018273ffffffffffffffffffffffffffffffffffffffff1673ffffffffffffffffffffffffffffffffffffffff166c0100000000000000000000000002815260140191505060405180910390206040518263ffffffff167c0100000000000000000000000000000000000000000000000000000000028152600401808260001916600019168152602001915050602060405180830381600087803b1580156107d857600080fd5b505af11580156107ec573d6000803e3d6000fd5b505050506040513d602081101561080257600080fd5b8101908080519060200190929190505050151561081e57600080fd5b6000809054906101000a900473ffffffffffffffffffffffffffffffffffffffff1673ffffffffffffffffffffffffffffffffffffffff1663e2b202bf8360405180807f7573657241636365737300000000000000000000000000000000000000000000815250600a018273ffffffffffffffffffffffffffffffffffffffff1673ffffffffffffffffffffffffffffffffffffffff166c0100000000000000000000000002815260140191505060405180910390206040518263ffffffff167c0100000000000000000000000000000000000000000000000000000000028152600401808260001916600019168152602001915050600060405180830381600087803b15801561092e57600080fd5b505af1158015610942573d6000803e3d6000fd5b50505050428273ffffffffffffffffffffffffffffffffffffffff167fe8bca18329debfd209083cfd37b3dbfaa9318ae7bf4dcb40f63ca7be92c26acc60405160405180910390a3600190509190505600a165627a7a72305820c672adde01da1198acf67594d4edac00b3167657b8ad39433fbd3cce1dae87680029",
  "source": "pragma solidity 0.4.23;\n\nimport './Database.sol';\n\n//------------------------------------------------------------------------------------------------------------------\n// This contract controls users access to the MyBit platform. TokenBurn will call this contract to add new users, once MyBit tokens have been burnt\n// There are 3 levels of access on the platform. First is basic access (creating/funding assets), Second is ability to stake, Third is ability to trade assets\n//------------------------------------------------------------------------------------------------------------------\ncontract UserAccess{ \n \n  Database public database;\n\n  //------------------------------------------------------------------------------------------------------------------\n  // Constructor: Inititalize Database \n  //------------------------------------------------------------------------------------------------------------------\n  constructor(address _database) \n  public  { \n    database = Database(_database);\n  }\n\n  //------------------------------------------------------------------------------------------------------------------\n  // Owner can manually grant access to a user here. WIll be used for KYC approval\n  // Invariants: Only called by Token Burning contract or Owner. Access level must be between 1-4\n  // @Param: Address of new user. \n  // @Param: The level of access granted by owner/burningcontract\n  // TODO: owner requirement is removed for alpha testing\n  //------------------------------------------------------------------------------------------------------------------\n  function approveUser(address _newUser, uint _accessLevel)\n  // anyOwner\n  noEmptyAddress(_newUser)\n  external\n  returns (bool) { \n    require(_accessLevel < uint(4) && _accessLevel != uint(0));\n    database.setUint(keccak256(\"userAccess\", _newUser), _accessLevel);\n    emit LogUserApproved(_newUser, _accessLevel, block.timestamp); \n    return true;\n  }\n\n  //------------------------------------------------------------------------------------------------------------------\n  // Owner can remove access for users if needed\n  // Invariants: Only owner can call. \n  // @Param: User to be removed\n  //------------------------------------------------------------------------------------------------------------------\n  function removeUser(address _user)\n  anyOwner\n  external\n  returns (bool) { \n    database.deleteUint(keccak256(\"userAccess\", _user));\n    emit LogUserRemoved(_user, block.timestamp); \n    return true;\n  }\n\n  //------------------------------------------------------------------------------------------------------------------\n  // Owner can approve KYC for user\n  //------------------------------------------------------------------------------------------------------------------\n  function approveKYC(address _user)\n  anyOwner\n  external\n  returns (bool) { \n    database.setBool(keccak256(\"kycApproved\", msg.sender), true);\n    emit LogKYCApproved(msg.sender, _user, block.timestamp);\n  }\n\n  //------------------------------------------------------------------------------------------------------------------\n  // Deny empty address parameters\n  //------------------------------------------------------------------------------------------------------------------\n  modifier noEmptyAddress(address _param) {\n    require(_param != address(0)); \n    _;\n  }\n\n  //------------------------------------------------------------------------------------------------------------------\n  // Only owners can call these functions\n  //------------------------------------------------------------------------------------------------------------------\n  modifier anyOwner { \n    require(database.boolStorage(keccak256(\"owner\", msg.sender)));\n    _;\n  }\n\n  //------------------------------------------------------------------------------------------------------------------\n  //                                        Events \n  //------------------------------------------------------------------------------------------------------------------\n  event LogUserApproved(address indexed _user, uint indexed _approvalLevel, uint indexed _timestamp); \n  event LogUserRemoved(address indexed _user, uint indexed _timestamp); \n  event LogKYCApproved(address indexed _owner, address indexed _user, uint indexed _timestamp);\n}\n",
  "sourcePath": "/var/www/html/mybit/dapp/Contracts/contracts/UserAccess.sol",
  "compiler": {
    "name": "solc",
    "version": "0.4.23+commit.124ca40d.Emscripten.clang"
  },
  "schemaVersion": "2.0.0",
  "updatedAt": "2018-05-15T12:10:07.905Z"
}