{
  "contractName": "AccessHierarchy",
  "abi": [
    {
      "constant": true,
      "inputs": [],
      "name": "database",
      "outputs": [
        {
          "name": "",
          "type": "address"
        }
      ],
      "payable": false,
      "stateMutability": "view",
      "type": "function"
    },
    {
      "constant": true,
      "inputs": [],
      "name": "events",
      "outputs": [
        {
          "name": "",
          "type": "address"
        }
      ],
      "payable": false,
      "stateMutability": "view",
      "type": "function"
    },
    {
      "constant": true,
      "inputs": [],
      "name": "upperAccessLevel",
      "outputs": [
        {
          "name": "",
          "type": "uint8"
        }
      ],
      "payable": false,
      "stateMutability": "view",
      "type": "function"
    },
    {
      "inputs": [
        {
          "name": "_database",
          "type": "address"
        },
        {
          "name": "_events",
          "type": "address"
        }
      ],
      "payable": false,
      "stateMutability": "nonpayable",
      "type": "constructor"
    },
    {
      "anonymous": false,
      "inputs": [
        {
          "indexed": false,
          "name": "_user",
          "type": "address"
        },
        {
          "indexed": false,
          "name": "_approvalLevel",
          "type": "uint256"
        }
      ],
      "name": "LogUserApproved",
      "type": "event"
    },
    {
      "anonymous": false,
      "inputs": [
        {
          "indexed": true,
          "name": "_user",
          "type": "address"
        },
        {
          "indexed": true,
          "name": "_accessLevel",
          "type": "uint256"
        }
      ],
      "name": "LogUserRemoved",
      "type": "event"
    },
    {
      "constant": false,
      "inputs": [
        {
          "name": "_newUser",
          "type": "address"
        },
        {
          "name": "_accessLevel",
          "type": "uint256"
        }
      ],
      "name": "approveUser",
      "outputs": [
        {
          "name": "",
          "type": "bool"
        }
      ],
      "payable": false,
      "stateMutability": "nonpayable",
      "type": "function"
    },
    {
      "constant": false,
      "inputs": [
        {
          "name": "_user",
          "type": "address"
        }
      ],
      "name": "removeUser",
      "outputs": [
        {
          "name": "",
          "type": "bool"
        }
      ],
      "payable": false,
      "stateMutability": "nonpayable",
      "type": "function"
    },
    {
      "constant": false,
      "inputs": [
        {
          "name": "_newUpperLimit",
          "type": "uint8"
        }
      ],
      "name": "setUpperAccessLevel",
      "outputs": [],
      "payable": false,
      "stateMutability": "nonpayable",
      "type": "function"
    },
    {
      "constant": false,
      "inputs": [],
      "name": "destroy",
      "outputs": [],
      "payable": false,
      "stateMutability": "nonpayable",
      "type": "function"
    }
  ],
  "bytecode": "0x608060405234801561001057600080fd5b50604051604080610c4583398101604052805160209091015160008054600160a060020a03938416600160a060020a03199182161790915560018054939092169216919091179055610bde806100676000396000f3006080604052600436106100695763ffffffff60e060020a6000350416634248083b811461006e57806344190a87146100a6578063713b563f146100c357806383197ef0146100f45780639857518814610109578063b5f8558c1461012a578063df3928741461013f575b600080fd5b34801561007a57600080fd5b50610092600160a060020a036004351660243561016a565b604080519115158252519081900360200190f35b3480156100b257600080fd5b506100c160ff60043516610450565b005b3480156100cf57600080fd5b506100d86105d1565b60408051600160a060020a039092168252519081900360200190f35b34801561010057600080fd5b506100c16105e0565b34801561011557600080fd5b50610092600160a060020a03600435166107d2565b34801561013657600080fd5b506100d8610b82565b34801561014b57600080fd5b50610154610b91565b6040805160ff9092168252519081900360200190f35b60008054604080517f636f6e74726163740000000000000000000000000000000000000000000000006020808301919091526c01000000000000000000000000330260288301528251601c818403018152603c909201928390528151600160a060020a0390941693633b7bfda093918291908401908083835b602083106102025780518252601f1990920191602091820191016101e3565b51815160209384036101000a60001901801990921691161790526040805192909401829003822063ffffffff881660e060020a0283526004830152925160248083019650939450929083900301905081600087803b15801561026357600080fd5b505af1158015610277573d6000803e3d6000fd5b505050506040513d602081101561028d57600080fd5b5051151561029a57600080fd5b82600160a060020a03811615156102b057600080fd5b60015474010000000000000000000000000000000000000000900460ff16831080156102db57508215155b15156102e657600080fd5b600054604080517f7573657241636365737300000000000000000000000000000000000000000000602080830191909152600160a060020a038881166c0100000000000000000000000002602a8401528351808403601e018152603e90930193849052825194169363e2a4853a93918291908401908083835b6020831061037e5780518252601f19909201916020918201910161035f565b5181516020939093036101000a60001901801990911692169190911790526040805191909301819003812063ffffffff871660e060020a0282526004820152602481018a9052915160448084019550600094509092839003019050818387803b1580156103ea57600080fd5b505af11580156103fe573d6000803e3d6000fd5b505060408051600160a060020a03881681526020810187905281517fe8b0d2948bfc19ce9cb6dd3be73adffa387a1c6f662adc9c5b8ebeede21deb689450908190039091019150a15060019392505050565b600054604080517f6f776e65720000000000000000000000000000000000000000000000000000006020808301919091526c0100000000000000000000000033026025830152825160198184030181526039909201928390528151600160a060020a0390941693633b7bfda093918291908401908083835b602083106104e75780518252601f1990920191602091820191016104c8565b51815160209384036101000a60001901801990921691161790526040805192909401829003822063ffffffff881660e060020a0283526004830152925160248083019650939450929083900301905081600087803b15801561054857600080fd5b505af115801561055c573d6000803e3d6000fd5b505050506040513d602081101561057257600080fd5b5051151561057f57600080fd5b600060ff82161161058f57600080fd5b6001805460ff909216740100000000000000000000000000000000000000000274ff000000000000000000000000000000000000000019909216919091179055565b600054600160a060020a031681565b600054604080517f6f776e65720000000000000000000000000000000000000000000000000000006020808301919091526c0100000000000000000000000033026025830152825160198184030181526039909201928390528151600160a060020a0390941693633b7bfda093918291908401908083835b602083106106775780518252601f199092019160209182019101610658565b51815160209384036101000a60001901801990921691161790526040805192909401829003822063ffffffff881660e060020a0283526004830152925160248083019650939450929083900301905081600087803b1580156106d857600080fd5b505af11580156106ec573d6000803e3d6000fd5b505050506040513d602081101561070257600080fd5b5051151561070f57600080fd5b600154604080517f68b96270000000000000000000000000000000000000000000000000000000008152306024820181905233604483015231606482015260a06004820152601960a48201527f4163636573734869657261726368792064657374726f7965640000000000000060c48201529051600160a060020a03909216916368b962709160e48082019260009290919082900301818387803b1580156107b657600080fd5b505af11580156107ca573d6000803e3d6000fd5b503392505050ff5b60008054604080517f6f776e65720000000000000000000000000000000000000000000000000000006020808301919091526c01000000000000000000000000330260258301528251601981840301815260399092019283905281518594600160a060020a031693633b7bfda09392909182918401908083835b6020831061086b5780518252601f19909201916020918201910161084c565b51815160209384036101000a60001901801990921691161790526040805192909401829003822063ffffffff881660e060020a0283526004830152925160248083019650939450929083900301905081600087803b1580156108cc57600080fd5b505af11580156108e0573d6000803e3d6000fd5b505050506040513d60208110156108f657600080fd5b5051151561090357600080fd5b600054604080517f7573657241636365737300000000000000000000000000000000000000000000602080830191909152600160a060020a038781166c0100000000000000000000000002602a8401528351808403601e018152603e90930193849052825194169363a855d4ce93918291908401908083835b6020831061099b5780518252601f19909201916020918201910161097c565b51815160209384036101000a60001901801990921691161790526040805192909401829003822063ffffffff881660e060020a0283526004830152925160248083019650939450929083900301905081600087803b1580156109fc57600080fd5b505af1158015610a10573d6000803e3d6000fd5b505050506040513d6020811015610a2657600080fd5b5051600054604080517f7573657241636365737300000000000000000000000000000000000000000000602080830191909152600160a060020a038881166c0100000000000000000000000002602a8401528351808403601e018152603e9093019384905282519596509093169363e2b202bf939192918291908401908083835b60208310610ac65780518252601f199092019160209182019101610aa7565b5181516020939093036101000a60001901801990911692169190911790526040805191909301819003812063ffffffff871660e060020a0282526004820152915160248084019550600094509092839003019050818387803b158015610b2b57600080fd5b505af1158015610b3f573d6000803e3d6000fd5b5050604051839250600160a060020a03861691507fe8bca18329debfd209083cfd37b3dbfaa9318ae7bf4dcb40f63ca7be92c26acc90600090a350600192915050565b600154600160a060020a031681565b60015474010000000000000000000000000000000000000000900460ff16815600a165627a7a723058200e721e9f4337db0191bc2b1304b9add9665143a7290a375af7de0222e1cbc0d80029",
  "source": "pragma solidity ^0.4.24;\n\ninterface Events {  function transaction(string _message, address _from, address _to, uint _amount, bytes32 _id)  external; }\ninterface DB {\n  function uintStorage(bytes32 _key) external view returns (uint);\n  function boolStorage(bytes32 _key) external view returns (bool);\n  function setUint(bytes32 _key, uint _value) external;\n  function setBool(bytes32 _key, bool _value) external;\n  function deleteUint(bytes32 _key) external;\n  function deleteBool(bytes32 _key) external;\n}\n\n// @title A contract for granting and revoking access levels to different users\n// @author Kyle Dewhurst, MyBit Foundation\n// @notice Made for platforms that require hierarchical access restrictions\ncontract AccessHierarchy {\n\n  DB public database;\n  Events public events;\n  uint8 public upperAccessLevel;\n\n  // @notice Constructor: Inititalize Database\n  constructor(address _database, address _events)\n  public  {\n    database = DB(_database);\n    events = Events(_events);\n  }\n\n  // @notice Owner can manually grant access to a user here. WIll be used for KYC approval\n  // @param Address of new user.\n  // @param The level of access granted by owner/burningcontract\n  function approveUser(address _newUser, uint _accessLevel)\n  onlyPlatform\n  noEmptyAddress(_newUser)\n  public\n  returns (bool) {\n    require(_accessLevel < upperAccessLevel && _accessLevel != uint8(0));\n    database.setUint(keccak256(abi.encodePacked(\"userAccess\", _newUser)), _accessLevel);\n    emit LogUserApproved(_newUser, _accessLevel);\n    return true;\n  }\n\n  // @notice Owner can remove access for users\n  // @param User to be removed\n  function removeUser(address _user)\n  onlyOwner\n  public\n  returns (bool) {\n    uint accessLevel = database.uintStorage(keccak256(abi.encodePacked(\"userAccess\", _user)));\n    database.deleteUint(keccak256(abi.encodePacked(\"userAccess\", _user)));\n    emit LogUserRemoved(_user, accessLevel);\n    return true;\n  }\n\n  // @notice Owner can set the upper bound on access levels\n  // @param (uint8) _newUpperLimit = The highest access level on the platform\n  function setUpperAccessLevel(uint8 _newUpperLimit)\n  public\n  onlyOwner {\n    require(_newUpperLimit > uint8(0));\n    upperAccessLevel = _newUpperLimit;\n  }\n\n  // @notice platform owners can destroy contract here\n  function destroy()\n  onlyOwner\n  external {\n    events.transaction('AccessHierarchy destroyed', address(this), msg.sender, address(this).balance, '');\n    selfdestruct(msg.sender);\n  }\n\n  // @notice Deny empty address parameters\n  modifier noEmptyAddress(address _param) {\n    require(_param != address(0));\n    _;\n  }\n\n  // @notice Deny all callers except owner\n  modifier onlyOwner {\n    require(database.boolStorage(keccak256(abi.encodePacked(\"owner\", msg.sender))));\n    _;\n  }\n\n  // @notice only contracts on the platform can call.\n  modifier onlyPlatform {\n    require(database.boolStorage(keccak256(abi.encodePacked(\"contract\", msg.sender))));\n    _;\n  }\n\n  //------------------------------------------------------------------------------------------------------------------\n  //                                        Events\n  //------------------------------------------------------------------------------------------------------------------\n  event LogUserApproved(address _user, uint _approvalLevel);\n  event LogUserRemoved(address indexed _user, uint indexed _accessLevel);\n}\n",
  "sourcePath": "/home/peter/Documents/Work/MyBit/MyBit-Network.tech/contracts/access/AccessHierarchy.sol",
  "compiler": {
    "name": "solc",
    "version": "0.4.24+commit.e67f0147.Emscripten.clang"
  },
  "schemaVersion": "3.0.2",
  "updatedAt": "2019-03-14T21:46:28.458Z",
  "devdoc": {
    "methods": {}
  },
  "userdoc": {
    "methods": {}
  }
}