{
  "contractName": "API",
  "abi": [
    {
      "inputs": [
        {
          "name": "_database",
          "type": "address"
        }
      ],
      "payable": false,
      "stateMutability": "nonpayable",
      "type": "constructor"
    },
    {
      "constant": true,
      "inputs": [
        {
          "name": "_key",
          "type": "bytes32"
        }
      ],
      "name": "getAddr",
      "outputs": [
        {
          "name": "",
          "type": "address"
        }
      ],
      "payable": false,
      "stateMutability": "view",
      "type": "function"
    },
    {
      "constant": true,
      "inputs": [
        {
          "name": "_key",
          "type": "bytes32"
        }
      ],
      "name": "getUint",
      "outputs": [
        {
          "name": "",
          "type": "uint256"
        }
      ],
      "payable": false,
      "stateMutability": "view",
      "type": "function"
    },
    {
      "constant": true,
      "inputs": [
        {
          "name": "_a",
          "type": "string"
        },
        {
          "name": "_b",
          "type": "bytes32"
        }
      ],
      "name": "hashSB",
      "outputs": [
        {
          "name": "",
          "type": "bytes32"
        }
      ],
      "payable": false,
      "stateMutability": "pure",
      "type": "function"
    },
    {
      "constant": true,
      "inputs": [
        {
          "name": "_token",
          "type": "address"
        }
      ],
      "name": "assetGovernance",
      "outputs": [
        {
          "name": "",
          "type": "address"
        }
      ],
      "payable": false,
      "stateMutability": "view",
      "type": "function"
    },
    {
      "constant": true,
      "inputs": [
        {
          "name": "_token",
          "type": "address"
        }
      ],
      "name": "assetVoteDuration",
      "outputs": [
        {
          "name": "",
          "type": "uint256"
        }
      ],
      "payable": false,
      "stateMutability": "view",
      "type": "function"
    },
    {
      "constant": true,
      "inputs": [
        {
          "name": "_token",
          "type": "address"
        }
      ],
      "name": "assetQuorum",
      "outputs": [
        {
          "name": "",
          "type": "uint256"
        }
      ],
      "payable": false,
      "stateMutability": "view",
      "type": "function"
    },
    {
      "constant": true,
      "inputs": [
        {
          "name": "_token",
          "type": "address"
        }
      ],
      "name": "assetThreshold",
      "outputs": [
        {
          "name": "",
          "type": "uint256"
        }
      ],
      "payable": false,
      "stateMutability": "view",
      "type": "function"
    },
    {
      "constant": true,
      "inputs": [
        {
          "name": "_token",
          "type": "address"
        }
      ],
      "name": "assetStakeRequirement",
      "outputs": [
        {
          "name": "",
          "type": "uint256"
        }
      ],
      "payable": false,
      "stateMutability": "view",
      "type": "function"
    },
    {
      "constant": true,
      "inputs": [
        {
          "name": "_token",
          "type": "address"
        },
        {
          "name": "_tokenHolder",
          "type": "address"
        }
      ],
      "name": "commitmentValue",
      "outputs": [
        {
          "name": "",
          "type": "uint256"
        }
      ],
      "payable": false,
      "stateMutability": "view",
      "type": "function"
    },
    {
      "constant": true,
      "inputs": [
        {
          "name": "_token",
          "type": "address"
        },
        {
          "name": "_tokenHolder",
          "type": "address"
        }
      ],
      "name": "commitmentStart",
      "outputs": [
        {
          "name": "",
          "type": "uint256"
        }
      ],
      "payable": false,
      "stateMutability": "view",
      "type": "function"
    },
    {
      "constant": true,
      "inputs": [
        {
          "name": "_token",
          "type": "address"
        },
        {
          "name": "_tokenHolder",
          "type": "address"
        }
      ],
      "name": "commitmentReleaseTime",
      "outputs": [
        {
          "name": "",
          "type": "uint256"
        }
      ],
      "payable": false,
      "stateMutability": "view",
      "type": "function"
    },
    {
      "constant": true,
      "inputs": [
        {
          "name": "_assetToken",
          "type": "address"
        },
        {
          "name": "_executingContract",
          "type": "address"
        },
        {
          "name": "_methodID",
          "type": "bytes4"
        },
        {
          "name": "_parameterHash",
          "type": "bytes32"
        }
      ],
      "name": "getProposalID",
      "outputs": [
        {
          "name": "",
          "type": "bytes32"
        }
      ],
      "payable": false,
      "stateMutability": "pure",
      "type": "function"
    },
    {
      "constant": true,
      "inputs": [
        {
          "name": "_proposalID",
          "type": "bytes32"
        }
      ],
      "name": "proposalInitiator",
      "outputs": [
        {
          "name": "",
          "type": "address"
        }
      ],
      "payable": false,
      "stateMutability": "view",
      "type": "function"
    },
    {
      "constant": true,
      "inputs": [
        {
          "name": "_proposalID",
          "type": "bytes32"
        }
      ],
      "name": "proposalToken",
      "outputs": [
        {
          "name": "",
          "type": "address"
        }
      ],
      "payable": false,
      "stateMutability": "view",
      "type": "function"
    },
    {
      "constant": true,
      "inputs": [
        {
          "name": "_proposalID",
          "type": "bytes32"
        }
      ],
      "name": "proposalStart",
      "outputs": [
        {
          "name": "",
          "type": "uint256"
        }
      ],
      "payable": false,
      "stateMutability": "view",
      "type": "function"
    },
    {
      "constant": true,
      "inputs": [
        {
          "name": "_proposalID",
          "type": "bytes32"
        }
      ],
      "name": "proposalVoteCount",
      "outputs": [
        {
          "name": "",
          "type": "uint256"
        }
      ],
      "payable": false,
      "stateMutability": "view",
      "type": "function"
    },
    {
      "constant": true,
      "inputs": [
        {
          "name": "_proposalID",
          "type": "bytes32"
        },
        {
          "name": "_tokenHolder",
          "type": "address"
        }
      ],
      "name": "proposalVoted",
      "outputs": [
        {
          "name": "",
          "type": "uint256"
        }
      ],
      "payable": false,
      "stateMutability": "view",
      "type": "function"
    },
    {
      "constant": true,
      "inputs": [
        {
          "name": "_proposalID",
          "type": "bytes32"
        }
      ],
      "name": "proposalDissent",
      "outputs": [
        {
          "name": "",
          "type": "uint256"
        }
      ],
      "payable": false,
      "stateMutability": "view",
      "type": "function"
    },
    {
      "constant": true,
      "inputs": [
        {
          "name": "_proposalID",
          "type": "bytes32"
        }
      ],
      "name": "proposalApproval",
      "outputs": [
        {
          "name": "",
          "type": "uint256"
        }
      ],
      "payable": false,
      "stateMutability": "view",
      "type": "function"
    },
    {
      "constant": true,
      "inputs": [
        {
          "name": "_proposalID",
          "type": "bytes32"
        }
      ],
      "name": "proposalQuorum",
      "outputs": [
        {
          "name": "",
          "type": "uint256"
        }
      ],
      "payable": false,
      "stateMutability": "view",
      "type": "function"
    },
    {
      "constant": true,
      "inputs": [
        {
          "name": "_proposalID",
          "type": "bytes32"
        }
      ],
      "name": "proposalThreshold",
      "outputs": [
        {
          "name": "",
          "type": "uint256"
        }
      ],
      "payable": false,
      "stateMutability": "view",
      "type": "function"
    },
    {
      "constant": true,
      "inputs": [
        {
          "name": "proposalID",
          "type": "bytes32"
        }
      ],
      "name": "hasConsensus",
      "outputs": [
        {
          "name": "",
          "type": "bool"
        }
      ],
      "payable": false,
      "stateMutability": "view",
      "type": "function"
    },
    {
      "constant": true,
      "inputs": [
        {
          "name": "_proposalID",
          "type": "bytes32"
        },
        {
          "name": "_investor",
          "type": "address"
        }
      ],
      "name": "getNumTokensAvailable",
      "outputs": [
        {
          "name": "",
          "type": "uint256"
        }
      ],
      "payable": false,
      "stateMutability": "view",
      "type": "function"
    },
    {
      "constant": true,
      "inputs": [
        {
          "name": "_assetToken",
          "type": "address"
        },
        {
          "name": "_oldAssetManager",
          "type": "address"
        },
        {
          "name": "_newAssetManager",
          "type": "address"
        },
        {
          "name": "_amount",
          "type": "uint256"
        },
        {
          "name": "_withhold",
          "type": "bool"
        }
      ],
      "name": "getAssetManagerParameterHash",
      "outputs": [
        {
          "name": "",
          "type": "bytes32"
        }
      ],
      "payable": false,
      "stateMutability": "pure",
      "type": "function"
    },
    {
      "constant": true,
      "inputs": [
        {
          "name": "_functionString",
          "type": "string"
        }
      ],
      "name": "getMethodID",
      "outputs": [
        {
          "name": "",
          "type": "bytes4"
        }
      ],
      "payable": false,
      "stateMutability": "pure",
      "type": "function"
    },
    {
      "constant": true,
      "inputs": [
        {
          "name": "_assetAddress",
          "type": "address"
        },
        {
          "name": "_investor",
          "type": "address"
        },
        {
          "name": "_amount",
          "type": "uint256"
        },
        {
          "name": "_price",
          "type": "uint256"
        },
        {
          "name": "_buyOrder",
          "type": "bool"
        }
      ],
      "name": "getOrderID",
      "outputs": [
        {
          "name": "",
          "type": "bytes32"
        }
      ],
      "payable": false,
      "stateMutability": "pure",
      "type": "function"
    },
    {
      "constant": true,
      "inputs": [
        {
          "name": "_assetAddress",
          "type": "address"
        }
      ],
      "name": "getAssetFundingToken",
      "outputs": [
        {
          "name": "",
          "type": "address"
        }
      ],
      "payable": false,
      "stateMutability": "view",
      "type": "function"
    },
    {
      "constant": true,
      "inputs": [
        {
          "name": "_assetAddress",
          "type": "address"
        }
      ],
      "name": "getAssetROI",
      "outputs": [
        {
          "name": "",
          "type": "uint256"
        }
      ],
      "payable": false,
      "stateMutability": "view",
      "type": "function"
    },
    {
      "constant": true,
      "inputs": [
        {
          "name": "_assetAddress",
          "type": "address"
        }
      ],
      "name": "getCrowdsaleGoal",
      "outputs": [
        {
          "name": "",
          "type": "uint256"
        }
      ],
      "payable": false,
      "stateMutability": "view",
      "type": "function"
    },
    {
      "constant": true,
      "inputs": [
        {
          "name": "_assetAddress",
          "type": "address"
        }
      ],
      "name": "getCrowdsaleDeadline",
      "outputs": [
        {
          "name": "",
          "type": "uint256"
        }
      ],
      "payable": false,
      "stateMutability": "view",
      "type": "function"
    },
    {
      "constant": true,
      "inputs": [
        {
          "name": "_assetAddress",
          "type": "address"
        }
      ],
      "name": "crowdsaleFinalized",
      "outputs": [
        {
          "name": "",
          "type": "bool"
        }
      ],
      "payable": false,
      "stateMutability": "view",
      "type": "function"
    },
    {
      "constant": true,
      "inputs": [
        {
          "name": "_assetAddress",
          "type": "address"
        }
      ],
      "name": "crowdsalePaid",
      "outputs": [
        {
          "name": "",
          "type": "bool"
        }
      ],
      "payable": false,
      "stateMutability": "view",
      "type": "function"
    },
    {
      "constant": true,
      "inputs": [
        {
          "name": "_assetAddress",
          "type": "address"
        }
      ],
      "name": "crowdsaleFailed",
      "outputs": [
        {
          "name": "",
          "type": "bool"
        }
      ],
      "payable": false,
      "stateMutability": "view",
      "type": "function"
    },
    {
      "constant": true,
      "inputs": [
        {
          "name": "_assetAddress",
          "type": "address"
        }
      ],
      "name": "getAssetManager",
      "outputs": [
        {
          "name": "",
          "type": "address"
        }
      ],
      "payable": false,
      "stateMutability": "view",
      "type": "function"
    },
    {
      "constant": true,
      "inputs": [
        {
          "name": "_assetAddress",
          "type": "address"
        }
      ],
      "name": "getAssetManagerFee",
      "outputs": [
        {
          "name": "",
          "type": "uint256"
        }
      ],
      "payable": false,
      "stateMutability": "view",
      "type": "function"
    },
    {
      "constant": true,
      "inputs": [
        {
          "name": "_assetAddress",
          "type": "address"
        }
      ],
      "name": "getAssetPlatformFee",
      "outputs": [
        {
          "name": "",
          "type": "uint256"
        }
      ],
      "payable": false,
      "stateMutability": "view",
      "type": "function"
    },
    {
      "constant": true,
      "inputs": [
        {
          "name": "_assetAddress",
          "type": "address"
        },
        {
          "name": "_manager",
          "type": "address"
        }
      ],
      "name": "getAssetManagerEscrowID",
      "outputs": [
        {
          "name": "",
          "type": "bytes32"
        }
      ],
      "payable": false,
      "stateMutability": "pure",
      "type": "function"
    },
    {
      "constant": true,
      "inputs": [
        {
          "name": "_managerEscrowID",
          "type": "bytes32"
        }
      ],
      "name": "getAssetManagerEscrow",
      "outputs": [
        {
          "name": "",
          "type": "uint256"
        }
      ],
      "payable": false,
      "stateMutability": "view",
      "type": "function"
    },
    {
      "constant": true,
      "inputs": [
        {
          "name": "_managerEscrowID",
          "type": "bytes32"
        }
      ],
      "name": "getAssetManagerEscrowRemaining",
      "outputs": [
        {
          "name": "",
          "type": "uint256"
        }
      ],
      "payable": false,
      "stateMutability": "view",
      "type": "function"
    },
    {
      "constant": true,
      "inputs": [
        {
          "name": "_managerEscrowID",
          "type": "bytes32"
        }
      ],
      "name": "getAssetManagerEscrowRedeemed",
      "outputs": [
        {
          "name": "",
          "type": "uint256"
        }
      ],
      "payable": false,
      "stateMutability": "view",
      "type": "function"
    },
    {
      "constant": true,
      "inputs": [
        {
          "name": "_assetAddress",
          "type": "address"
        }
      ],
      "name": "getAssetOperator",
      "outputs": [
        {
          "name": "",
          "type": "address"
        }
      ],
      "payable": false,
      "stateMutability": "view",
      "type": "function"
    },
    {
      "constant": true,
      "inputs": [
        {
          "name": "_operatorURI",
          "type": "string"
        }
      ],
      "name": "generateOperatorID",
      "outputs": [
        {
          "name": "",
          "type": "bytes32"
        }
      ],
      "payable": false,
      "stateMutability": "pure",
      "type": "function"
    },
    {
      "constant": true,
      "inputs": [
        {
          "name": "_operatorAddress",
          "type": "address"
        }
      ],
      "name": "getOperatorID",
      "outputs": [
        {
          "name": "",
          "type": "bytes32"
        }
      ],
      "payable": false,
      "stateMutability": "view",
      "type": "function"
    },
    {
      "constant": true,
      "inputs": [
        {
          "name": "_operatorID",
          "type": "bytes32"
        }
      ],
      "name": "getOperatorAddress",
      "outputs": [
        {
          "name": "",
          "type": "address"
        }
      ],
      "payable": false,
      "stateMutability": "view",
      "type": "function"
    },
    {
      "constant": true,
      "inputs": [
        {
          "name": "_assetAddress",
          "type": "address"
        },
        {
          "name": "_sender",
          "type": "address"
        },
        {
          "name": "_amount",
          "type": "uint256"
        },
        {
          "name": "_price",
          "type": "uint256"
        },
        {
          "name": "_buyOrder",
          "type": "bool"
        }
      ],
      "name": "generateOrderID",
      "outputs": [
        {
          "name": "",
          "type": "bytes32"
        }
      ],
      "payable": false,
      "stateMutability": "pure",
      "type": "function"
    },
    {
      "constant": true,
      "inputs": [],
      "name": "getPlatformToken",
      "outputs": [
        {
          "name": "",
          "type": "address"
        }
      ],
      "payable": false,
      "stateMutability": "view",
      "type": "function"
    },
    {
      "constant": true,
      "inputs": [],
      "name": "getPlatformWallet",
      "outputs": [
        {
          "name": "",
          "type": "address"
        }
      ],
      "payable": false,
      "stateMutability": "view",
      "type": "function"
    },
    {
      "constant": true,
      "inputs": [
        {
          "name": "_contractName",
          "type": "string"
        }
      ],
      "name": "getContractAddress",
      "outputs": [
        {
          "name": "",
          "type": "address"
        }
      ],
      "payable": false,
      "stateMutability": "view",
      "type": "function"
    },
    {
      "constant": true,
      "inputs": [],
      "name": "getCurrentState",
      "outputs": [
        {
          "name": "",
          "type": "bytes32"
        }
      ],
      "payable": false,
      "stateMutability": "view",
      "type": "function"
    },
    {
      "constant": true,
      "inputs": [
        {
          "name": "_investor",
          "type": "address"
        }
      ],
      "name": "getUserPermission",
      "outputs": [
        {
          "name": "",
          "type": "bool"
        }
      ],
      "payable": false,
      "stateMutability": "view",
      "type": "function"
    },
    {
      "constant": true,
      "inputs": [
        {
          "name": "_sig",
          "type": "bytes4"
        },
        {
          "name": "_contract",
          "type": "address"
        }
      ],
      "name": "getFunctionCost",
      "outputs": [
        {
          "name": "",
          "type": "uint256"
        }
      ],
      "payable": false,
      "stateMutability": "view",
      "type": "function"
    },
    {
      "constant": true,
      "inputs": [
        {
          "name": "_contract",
          "type": "address"
        }
      ],
      "name": "contractPaused",
      "outputs": [
        {
          "name": "",
          "type": "bool"
        }
      ],
      "payable": false,
      "stateMutability": "view",
      "type": "function"
    },
    {
      "constant": true,
      "inputs": [
        {
          "name": "_account",
          "type": "address"
        }
      ],
      "name": "contractOwner",
      "outputs": [
        {
          "name": "",
          "type": "bool"
        }
      ],
      "payable": false,
      "stateMutability": "view",
      "type": "function"
    }
  ],
  "bytecode": "0x608060405234801561001057600080fd5b50604051602080612abf833981016040525160008054600160a060020a03909216600160a060020a0319909216919091179055612a6d806100526000396000f3006080604052600436106102635763ffffffff60e060020a6000350416630109fb8281146102685780630340c1b61461029d57806304433bbc146102c757806306b895b11461033c5780630a58fbce1461035d5780630b98956a146103845780630bb5082a146103a55780630ebaad46146103c95780631c597c83146103ea57806320fe416e146104025780632188cb5c146104235780632fb1c86a14610444578063327615a714610465578063328b263c14610486578063334ae93a1461049e578063378aa701146104b6578063424f33a8146104cb5780634ca9d624146105415780634ccee9b6146105625780634e5dc8701461057a5780635152b14c146105d3578063529d2fe1146105f45780635a48b46b1461060c5780635f05532f1461062d578063743f95fe1461064e57806374a74a5514610680578063756224c6146106a1578063774f32c3146106c25780637bc6cd7a146106f45780637e251d571461070c5780638429ae96146107245780638969e7561461074557806391f0d32214610766578063999c0569146107c15780639a8a301f146107d95780639d3ca1eb146107f15780639d94336f146108125780639ed374f714610836578063a52f2ccf1461084b578063aad01c9614610863578063adf898a41461088a578063b62ff9f6146108a2578063bd02d0f5146108ba578063cf0df157146108d2578063d76a09f414610909578063d76b30e61461091e578063db4be4b714610945578063e41701941461096c578063ef25bb2e1461099a578063fb68bb72146109bb578063fdc82d25146109d3578063fe23e1b2146109f4578063ff002b9f14610a29575b600080fd5b34801561027457600080fd5b50610289600160a060020a0360043516610a4a565b604080519115158252519081900360200190f35b3480156102a957600080fd5b506102b5600435610b6d565b60408051918252519081900360200190f35b3480156102d357600080fd5b506040805160206004803580820135601f8101849004840285018401909552848452610320943694929360249392840191908190840183828082843750949750610bf79650505050505050565b60408051600160a060020a039092168252519081900360200190f35b34801561034857600080fd5b50610320600160a060020a0360043516610d63565b34801561036957600080fd5b506102b5600160a060020a0360043581169060243516610da4565b34801561039057600080fd5b50610320600160a060020a0360043516610e3e565b3480156103b157600080fd5b506102b5600435600160a060020a0360243516610ed5565b3480156103d557600080fd5b506102b5600160a060020a0360043516610f95565b3480156103f657600080fd5b50610289600435611025565b34801561040e57600080fd5b506102b5600160a060020a0360043516611149565b34801561042f57600080fd5b506102b5600160a060020a0360043516611254565b34801561045057600080fd5b50610289600160a060020a03600435166112e4565b34801561047157600080fd5b506102b5600160a060020a036004351661137b565b34801561049257600080fd5b506102b5600435611408565b3480156104aa57600080fd5b506102b5600435611499565b3480156104c257600080fd5b506102b56114c8565b3480156104d757600080fd5b506040805160206004803580820135601f810184900484028501840190955284845261052494369492936024939284019190819084018382808284375094975061154b9650505050505050565b60408051600160e060020a03199092168252519081900360200190f35b34801561054d57600080fd5b50610289600160a060020a0360043516611615565b34801561056e57600080fd5b506103206004356116a5565b34801561058657600080fd5b506040805160206004803580820135601f81018490048402850184019095528484526102b594369492936024939284019190819084018382808284375094975061170c9650505050505050565b3480156105df57600080fd5b50610289600160a060020a0360043516611800565b34801561060057600080fd5b506102b5600435611897565b34801561061857600080fd5b506102b5600160a060020a03600435166118eb565b34801561063957600080fd5b50610289600160a060020a0360043516611982565b34801561065a57600080fd5b506102b5600160a060020a036004358116906024351660443560643560843515156119a7565b34801561068c57600080fd5b506102b5600160a060020a0360043516611a64565b3480156106ad57600080fd5b506102b5600160a060020a0360043516611af4565b3480156106ce57600080fd5b506102b5600160a060020a03600435811690602435166044356064356084351515611b8b565b34801561070057600080fd5b50610320600435611c4c565b34801561071857600080fd5b506102b5600435611ca0565b34801561073057600080fd5b506102b5600160a060020a0360043516611d2a565b34801561075157600080fd5b50610320600160a060020a0360043516611dc1565b34801561077257600080fd5b506040805160206004803580820135601f81018490048402850184019095528484526102b59436949293602493928401919081908401838280828437509497505093359450611e519350505050565b3480156107cd57600080fd5b50610320600435611ee6565b3480156107e557600080fd5b506102b5600435611f3a565b3480156107fd57600080fd5b50610320600160a060020a0360043516611f6b565b34801561081e57600080fd5b506102b5600435600160a060020a0360243516612002565b34801561084257600080fd5b50610320612099565b34801561085757600080fd5b506102b560043561211c565b34801561086f57600080fd5b506102b5600160a060020a03600435811690602435166121a7565b34801561089657600080fd5b506102b560043561226b565b3480156108ae57600080fd5b506102b56004356122f8565b3480156108c657600080fd5b506102b560043561234c565b3480156108de57600080fd5b506102b5600160a060020a0360043581169060243516600160e060020a0319604435166064356123b3565b34801561091557600080fd5b5061032061246b565b34801561092a57600080fd5b506102b5600160a060020a03600435811690602435166124ee565b34801561095157600080fd5b506102b5600160a060020a0360043581169060243516612589565b34801561097857600080fd5b506102b5600160e060020a031960043516600160a060020a0360243516612624565b3480156109a657600080fd5b506102b5600160a060020a0360043516612738565b3480156109c757600080fd5b506103206004356127c8565b3480156109df57600080fd5b50610289600160a060020a0360043516612853565b348015610a0057600080fd5b506102b5600160a060020a036004358116906024358116906044351660643560843515156128cf565b348015610a3557600080fd5b506102b5600160a060020a0360043516612959565b60008054604080517f63726f776473616c652e66696e616c697a656400000000000000000000000000602080830191909152600160a060020a03868116606060020a026033840152835180840360270181526047909301938490528251941693633b7bfda093918291908401908083835b60208310610ada5780518252601f199092019160209182019101610abb565b51815160209384036101000a60001901801990921691161790526040805192909401829003822063ffffffff881660e060020a0283526004830152925160248083019650939450929083900301905081600087803b158015610b3b57600080fd5b505af1158015610b4f573d6000803e3d6000fd5b505050506040513d6020811015610b6557600080fd5b505192915050565b60008054604080517f70726f706f73616c2e7374617274000000000000000000000000000000000000602080830191909152602e80830187905283518084039091018152604e909201928390528151600160a060020a039094169363a855d4ce939182919084019080838360208310610ada5780518252601f199092019160209182019101610abb565b600080546040517f636f6e7472616374000000000000000000000000000000000000000000000000602080830191825285518594600160a060020a0316936304f49a3a9388939092602890920191908401908083835b60208310610c6c5780518252601f199092019160209182019101610c4d565b6001836020036101000a0380198251168184511680821785525050505050509050019150506040516020818303038152906040526040518082805190602001908083835b60208310610ccf5780518252601f199092019160209182019101610cb0565b51815160209384036101000a60001901801990921691161790526040805192909401829003822063ffffffff881660e060020a0283526004830152925160248083019650939450929083900301905081600087803b158015610d3057600080fd5b505af1158015610d44573d6000803e3d6000fd5b505050506040513d6020811015610d5a57600080fd5b50519392505050565b60008082600160a060020a0316634ece90a86040518163ffffffff1660e060020a028152600401602060405180830381600087803b158015610d3057600080fd5b60008054604080517f636f6d6d69746d656e742e737461727400000000000000000000000000000000602080830191909152600160a060020a03878116606060020a908102603085015287821602604484015283518084036038018152605890930193849052825194169363a855d4ce939182919084019080838360208310610ccf5780518252601f199092019160209182019101610cb0565b60008054604080517f61737365742e6d616e6167657200000000000000000000000000000000000000602080830191909152606060020a600160a060020a0387811691909102602d840152835160218185030181526041909301938490528251869591909116936304f49a3a93929091829184019080838360208310610ccf5780518252601f199092019160209182019101610cb0565b600080600080610ee486611ee6565b9250610ef083866124ee565b915082600160a060020a03166370a08231866040518263ffffffff1660e060020a0281526004018082600160a060020a0316600160a060020a03168152602001915050602060405180830381600087803b158015610f4d57600080fd5b505af1158015610f61573d6000803e3d6000fd5b505050506040513d6020811015610f7757600080fd5b50519050610f8b818363ffffffff6129f016565b9695505050505050565b60008054604080517f63726f776473616c652e646561646c696e650000000000000000000000000000602080830191909152600160a060020a03868116606060020a02603284015283518084036026018152604690930193849052825194169363a855d4ce93918291848201918190849084908310610ada5780518252601f199092019160209182019101610abb565b600080600080600080600080600061103c8a611ee6565b975087600160a060020a03166318160ddd6040518163ffffffff1660e060020a028152600401602060405180830381600087803b15801561107c57600080fd5b505af1158015611090573d6000803e3d6000fd5b505050506040513d60208110156110a657600080fd5b505196506110b38a611408565b95506110be8a611897565b94508615806110cb575085155b156110d9576000985061113c565b6110fa876110ee88606463ffffffff612a0216565b9063ffffffff612a3416565b9350611111866110ee87606463ffffffff612a0216565b925061111c8861137b565b841015915061112a88612738565b83101590508180156111395750805b98505b5050505050505050919050565b60008082905080600160a060020a03166318160ddd6040518163ffffffff1660e060020a028152600401602060405180830381600087803b15801561118d57600080fd5b505af11580156111a1573d6000803e3d6000fd5b505050506040513d60208110156111b757600080fd5b5051604080517f2ba1b3a10000000000000000000000000000000000000000000000000000000081529051600160a060020a03841691632ba1b3a19160048083019260209291908290030181600087803b15801561121457600080fd5b505af1158015611228573d6000803e3d6000fd5b505050506040513d602081101561123e57600080fd5b505160640281151561124c57fe5b049392505050565b60008054604080517f61737365742e766f74654475726174696f6e0000000000000000000000000000602080830191909152600160a060020a03868116606060020a02603284015283518084036026018152604690930193849052825194169363a855d4ce93918291848201918190849084908310610ada5780518252601f199092019160209182019101610abb565b60008054604080517f7061757365640000000000000000000000000000000000000000000000000000602080830191909152606060020a600160a060020a038781169190910260268401528351601a818503018152603a90930193849052825186959190911693633b7bfda093929091829184019080838360208310610ccf5780518252601f199092019160209182019101610cb0565b60008054604080517f61737365742e71756f72756d0000000000000000000000000000000000000000602080830191909152600160a060020a03868116606060020a02602c84015283518084038301815292840193849052825194169363a855d4ce93918291848201918190849084908310610ada5780518252601f199092019160209182019101610abb565b6000805460408051808201909152601281527f70726f706f73616c2e766f7465636f756e7400000000000000000000000000006020820152600160a060020a039091169063a855d4ce9061145c9085611e51565b6040805160e060020a63ffffffff851602815260048101929092525160248083019260209291908290030181600087803b158015610b3b57600080fd5b60008060006114a784611897565b91506114b284611408565b826064028115156114bf57fe5b04949350505050565b60008054604080517f63757272656e74537461746500000000000000000000000000000000000000006020808301919091528251808303600c018152602c9092019283905281518594600160a060020a03169363031578af93929091829184019080838360208310610ada5780518252601f199092019160209182019101610abb565b6000816040516020018082805190602001908083835b602083106115805780518252601f199092019160209182019101611561565b6001836020036101000a0380198251168184511680821785525050505050509050019150506040516020818303038152906040526040518082805190602001908083835b602083106115e35780518252601f1990920191602091820191016115c4565b5181516020939093036101000a6000190180199091169216919091179052604051920182900390912095945050505050565b60008054604080517f63726f776473616c652e70616964000000000000000000000000000000000000602080830191909152600160a060020a03868116606060020a02602e840152835180840360220181526042909301938490528251941693633b7bfda093918291848201918190849084908310610ada5780518252601f199092019160209182019101610abb565b60008054604080517f04f49a3a000000000000000000000000000000000000000000000000000000008152600481018590529051600160a060020a03909216916304f49a3a9160248082019260209290919082900301818787803b158015610b3b57600080fd5b6000808260405160200180807f6f70657261746f722e7572690000000000000000000000000000000000000000815250600c0182805190602001908083835b6020831061176a5780518252601f19909201916020918201910161174b565b6001836020036101000a0380198251168184511680821785525050505050509050019150506040516020818303038152906040526040518082805190602001908083835b602083106117cd5780518252601f1990920191602091820191016117ae565b5181516020939093036101000a600019018019909116921691909117905260405192018290039091209695505050505050565b60008054604080517f6f776e6572000000000000000000000000000000000000000000000000000000602080830191909152606060020a600160a060020a0387811691909102602584015283516019818503018152603990930193849052825186959190911693633b7bfda093929091829184019080838360208310610ccf5780518252601f199092019160209182019101610cb0565b6000805460408051808201909152601181527f70726f706f73616c2e617070726f76616c0000000000000000000000000000006020820152600160a060020a039091169063a855d4ce9061145c9085611e51565b60008054604080517f6f70657261746f72000000000000000000000000000000000000000000000000602080830191909152606060020a600160a060020a038781169190910260288401528351601c818503018152603c9093019384905282518695919091169363031578af93929091829184019080838360208310610ccf5780518252601f199092019160209182019101610cb0565b600061198d82610f95565b421180156119a1575061199f82610a4a565b155b92915050565b60408051600160a060020a03878116606060020a908102602080850191909152918816026034830152604882018690526068820185905283151560f860020a026088830152825180830360690181526089909201928390528151600093918291908401908083835b60208310611a2e5780518252601f199092019160209182019101611a0f565b5181516020939093036101000a600019018019909116921691909117905260405192018290039091209998505050505050505050565b60008054604080517f61737365742e7374616b65526571756972656d656e7400000000000000000000602080830191909152600160a060020a03868116606060020a0260368401528351808403602a018152604a90930193849052825194169363a855d4ce93918291848201918190849084908310610ada5780518252601f199092019160209182019101610abb565b60008054604080517f61737365742e6d616e61676572546f6b656e7300000000000000000000000000602080830191909152606060020a600160a060020a038781169190910260338401528351602781850301815260479093019384905282518695919091169363a855d4ce93929091829184019080838360208310610ccf5780518252601f199092019160209182019101610cb0565b60408051600160a060020a03878116606060020a908102602080850191909152918816026034830152604882018690526068820185905283151560f860020a026088830152825180830360690181526089909201928390528151600093849392909182918401908083835b60208310611c155780518252601f199092019160209182019101611bf6565b5181516020939093036101000a600019018019909116921691909117905260405192018290039091209a9950505050505050505050565b6000805460408051808201909152601281527f70726f706f73616c2e696e69746961746f7200000000000000000000000000006020820152600160a060020a03909116906304f49a3a9061145c9085611e51565b60008054604080517f61737365742e657363726f770000000000000000000000000000000000000000602080830191909152602c80830187905283518084039091018152604c909201928390528151600160a060020a039094169363a855d4ce939182919084019080838360208310610ada5780518252601f199092019160209182019101610abb565b60008054604080517f63726f776473616c652e676f616c000000000000000000000000000000000000602080830191909152606060020a600160a060020a0387811691909102602e8401528351602281850301815260429093019384905282518695919091169363a855d4ce93929091829184019080838360208310610ccf5780518252601f199092019160209182019101610cb0565b60008054604080517f61737365742e676f7665726e616e636500000000000000000000000000000000602080830191909152600160a060020a03868116606060020a0260308401528351808403602401815260449093019384905282519416936304f49a3a93918291848201918190849084908310610ada5780518252601f199092019160209182019101610abb565b600082826040516020018083805190602001908083835b60208310611e875780518252601f199092019160209182019101611e68565b51815160209384036101000a60001901801990921691161790529201938452506040805180850381529382019081905283519394509283925090840190808383602083106117cd5780518252601f1990920191602091820191016117ae565b6000805460408051808201909152600e81527f70726f706f73616c2e746f6b656e0000000000000000000000000000000000006020820152600160a060020a03909116906304f49a3a9061145c9085611e51565b6000806000611f488461211c565b9150611f6382611f5786611ca0565b9063ffffffff6129f016565b949350505050565b60008054604080517f61737365742e6f70657261746f72000000000000000000000000000000000000602080830191909152606060020a600160a060020a0387811691909102602e840152835160228185030181526042909301938490528251869591909116936304f49a3a93929091829184019080838360208310610ccf5780518252601f199092019160209182019101610cb0565b60008054604080517f70726f706f73616c2e766f746564000000000000000000000000000000000000602080830191909152602e8201879052600160a060020a03868116606060020a02604e84015283518084036042018152606290930193849052825194169363a855d4ce93918291848201918190849084908310610ccf5780518252601f199092019160209182019101610cb0565b60008054604080517f706c6174666f726d2e746f6b656e0000000000000000000000000000000000006020808301919091528251808303600e018152602e9092019283905281518594600160a060020a0316936304f49a3a93929091829184019080838360208310610ada5780518252601f199092019160209182019101610abb565b60008054604080517f61737365742e657363726f7752656465656d656400000000000000000000000060208083019190915260348083018790528351808403909101815260549092019283905281518594600160a060020a03169363a855d4ce93929091829184019080838360208310610ccf5780518252601f199092019160209182019101610cb0565b60008083836040516020018083600160a060020a0316600160a060020a0316606060020a02815260140182600160a060020a0316600160a060020a0316606060020a028152601401925050506040516020818303038152906040526040518082805190602001908083835b602083106122315780518252601f199092019160209182019101612212565b6001836020036101000a038019825116818451168082178552505050505050905001915050604051809103902090508091505b5092915050565b60008061227783611ee6565b600160a060020a03166318160ddd6040518163ffffffff1660e060020a028152600401602060405180830381600087803b1580156122b457600080fd5b505af11580156122c8573d6000803e3d6000fd5b505050506040513d60208110156122de57600080fd5b50519050806122ec84611408565b60640281151561124c57fe5b6000805460408051808201909152601081527f70726f706f73616c2e64697373656e74000000000000000000000000000000006020820152600160a060020a039091169063a855d4ce9061145c9085611e51565b60008054604080517fa855d4ce000000000000000000000000000000000000000000000000000000008152600481018590529051600160a060020a039092169163a855d4ce9160248082019260209290919082900301818787803b158015610b3b57600080fd5b60408051600160a060020a03868116606060020a908102602080850191909152918716026034830152600160e060020a031985166048830152604c80830185905283518084039091018152606c909201928390528151600093918291908401908083835b602083106124365780518252601f199092019160209182019101612417565b5181516020939093036101000a6000190180199091169216919091179052604051920182900390912098975050505050505050565b60008054604080517f706c6174666f726d2e77616c6c657400000000000000000000000000000000006020808301919091528251808303600f018152602f9092019283905281518594600160a060020a0316936304f49a3a93929091829184019080838360208310610ada5780518252601f199092019160209182019101610abb565b60008054604080517f636f6d6d69746d656e742e76616c756500000000000000000000000000000000602080830191909152606060020a600160a060020a0388811682026030850152878116909102604484015283516038818503018152605890930193849052825194169363a855d4ce939182919084019080838360208310610ccf5780518252601f199092019160209182019101610cb0565b60008054604080517f636f6d6d69746d656e742e72656c6561736574696d6500000000000000000000602080830191909152606060020a600160a060020a0388811682026036850152878116909102604a8401528351603e818503018152605e90930193849052825194169363a855d4ce939182919084019080838360208310610ccf5780518252601f199092019160209182019101610cb0565b6000805460408051600160e060020a03198616602080830191909152600160a060020a03868116606060020a0260248401528351808403601801815260389093019384905282518695919091169363a855d4ce9392909182918401908083835b602083106126a35780518252601f199092019160209182019101612684565b51815160209384036101000a60001901801990921691161790526040805192909401829003822063ffffffff881660e060020a0283526004830152925160248083019650939450929083900301905081600087803b15801561270457600080fd5b505af1158015612718573d6000803e3d6000fd5b505050506040513d602081101561272e57600080fd5b5051949350505050565b60008054604080517f61737365742e7468726573686f6c640000000000000000000000000000000000602080830191909152600160a060020a03868116606060020a02602f84015283518084036023018152604390930193849052825194169363a855d4ce93918291848201918190849084908310610ada5780518252601f199092019160209182019101610abb565b60008054604080517f6f70657261746f7200000000000000000000000000000000000000000000000060208083019190915260288083018790528351808403909101815260489092019283905281518594600160a060020a0316936304f49a3a93929091829184019080838360208310610ccf5780518252601f199092019160209182019101610cb0565b600080548190600160a060020a0316633b7bfda061286f6114c8565b60408051602080820193909352606060020a600160a060020a0389160281830152815160348183030181526054909101918290528051909282919084019080838360208310610ccf5780518252601f199092019160209182019101610cb0565b60408051606060020a600160a060020a038089168202602080850191909152818916830260348501529087169091026048830152605c820185905260f860020a84151502607c8301528251605d818403018152607d9092019283905281516000939182919084019080838360208310611a2e5780518252601f199092019160209182019101611a0f565b60008054604080517f61737365742e706c6174666f726d546f6b656e73000000000000000000000000602080830191909152606060020a600160a060020a038781169190910260348401528351602881850301815260489093019384905282518695919091169363a855d4ce93929091829184019080838360208310610ccf5780518252601f199092019160209182019101610cb0565b6000828211156129fc57fe5b50900390565b600080831515612a155760009150612264565b50828202828482811515612a2557fe5b0414612a2d57fe5b9392505050565b6000818381151561124c57fe00a165627a7a72305820ac6457df21fbdf4b4b2aff42a944aa049d99111ce27c5a6e824d153dec8d6d7e0029",
  "source": "pragma solidity ^0.4.24;\n\n\nimport \"../math/SafeMath.sol\";\nimport \"../interfaces/ERC20DividendInterface.sol\";\n\ninterface TokenView {\n  function totalSupply() external view returns (uint);\n  function balanceOf(address _investor) external view returns (uint);\n  function valuePerToken() external view returns (uint);\n  function scalingFactor() external view returns (uint);\n  function assetIncome() external view returns (uint);\n}\n\ninterface DBView {\n  function uintStorage(bytes32 _key) external view returns (uint);\n  function stringStorage(bytes32 _key) external  view returns (string);\n  function addressStorage(bytes32 _key) external  view returns (address);\n  function bytesStorage(bytes32 _key) external view returns (bytes);\n  function bytes32Storage(bytes32 _key) external view returns (bytes32);\n  function boolStorage(bytes32 _key) external view returns (bool);\n  function intStorage(bytes32 _key) external view returns (bool);\n}\n\n// @title A contract that gets variables from the _database\n// @notice The API contract can only view the database. It has no write privileges\ncontract API {\n  using SafeMath for uint256;\n\n  DBView private database;\n  uint constant scalingFactor = 10e32;\n\n  constructor(address _database)\n  public {\n    database = DBView(_database);\n  }\n\n  function getAddr(bytes32 _key)\n  public\n  view\n  returns (address) {\n    return database.addressStorage(_key);\n  }\n\n  function getUint(bytes32 _key)\n  public\n  view\n  returns (uint) {\n    return database.uintStorage(_key);\n  }\n\n  function hashSB(string _a, bytes32 _b)\n  public\n  pure\n  returns (bytes32) {\n    return keccak256(abi.encodePacked(_a, _b));\n  }\n\n  //////////////////////////////////////////////////////////////////////////////////////////////////////////////////\n  //                                            Asset Info\n  //////////////////////////////////////////////////////////////////////////////////////////////////////////////////\n\n  function assetGovernance(address _token)\n  public\n  view\n  returns (address) {\n    return database.addressStorage(keccak256(abi.encodePacked(\"asset.governance\", _token)));\n  }\n\n  function assetVoteDuration(address _token)\n  public\n  view\n  returns (uint) {\n    return database.uintStorage(keccak256(abi.encodePacked(\"asset.voteDuration\", _token)));\n  }\n\n  function assetQuorum(address _token)\n  public\n  view\n  returns (uint) {\n    return database.uintStorage(keccak256(abi.encodePacked(\"asset.quorum\", _token)));\n  }\n\n  function assetThreshold(address _token)\n  public\n  view\n  returns (uint) {\n    return database.uintStorage(keccak256(abi.encodePacked(\"asset.threshold\", _token)));\n  }\n\n  function assetStakeRequirement(address _token)\n  public\n  view\n  returns (uint) {\n    return database.uintStorage(keccak256(abi.encodePacked(\"asset.stakeRequirement\", _token)));\n  }\n\n\n  //////////////////////////////////////////////////////////////////////////////////////////////////////////////////\n  //                                            Commitments\n  //////////////////////////////////////////////////////////////////////////////////////////////////////////////////\n\n\n  function commitmentValue(address _token, address _tokenHolder)\n  public\n  view\n  returns (uint) {\n    return database.uintStorage(keccak256(abi.encodePacked(\"commitment.value\", _token, _tokenHolder)));\n  }\n\n  function commitmentStart(address _token, address _tokenHolder)\n  public\n  view\n  returns (uint) {\n    return database.uintStorage(keccak256(abi.encodePacked(\"commitment.start\", _token, _tokenHolder)));\n  }\n\n  function commitmentReleaseTime(address _token, address _tokenHolder)\n  public\n  view\n  returns (uint) {\n    return database.uintStorage(keccak256(abi.encodePacked(\"commitment.releasetime\", _token, _tokenHolder)));\n  }\n\n  //////////////////////////////////////////////////////////////////////////////////////////////////////////////////\n  //                                            Proposals\n  //////////////////////////////////////////////////////////////////////////////////////////////////////////////////\n\n  function getProposalID(address _assetToken, address _executingContract, bytes4 _methodID, bytes32 _parameterHash)\n  public\n  pure\n  returns (bytes32) {\n    return keccak256(abi.encodePacked(_assetToken, _executingContract, _methodID, _parameterHash));\n  }\n\n  function proposalInitiator(bytes32 _proposalID)\n  public\n  view\n  returns (address) {\n    return database.addressStorage(hashSB(\"proposal.initiator\", _proposalID));\n  }\n\n  function proposalToken(bytes32 _proposalID)\n  public\n  view\n  returns (address) {\n    return database.addressStorage(hashSB(\"proposal.token\", _proposalID));\n  }\n\n  function proposalStart(bytes32 _proposalID)\n  public\n  view\n  returns (uint) {\n    return database.uintStorage(keccak256(abi.encodePacked(\"proposal.start\", _proposalID)));\n  }\n\n  function proposalVoteCount(bytes32 _proposalID)\n  public\n  view\n  returns (uint) {\n    return database.uintStorage(hashSB(\"proposal.votecount\", _proposalID));\n  }\n\n  // @notice returns how many tokens user has committed towards proposal\n  function proposalVoted(bytes32 _proposalID, address _tokenHolder)\n  public\n  view\n  returns (uint) {\n    return database.uintStorage(keccak256(abi.encodePacked(\"proposal.voted\", _proposalID, _tokenHolder)));\n  }\n\n  // @notice returns number of voteweight is put towards the dissent of a proposal\n  function proposalDissent(bytes32 _proposalID)\n  public\n  view\n  returns (uint) {\n    return database.uintStorage(hashSB(\"proposal.dissent\", _proposalID));\n  }\n\n  function proposalApproval(bytes32 _proposalID)\n  public\n  view\n  returns (uint) {\n    return database.uintStorage(hashSB(\"proposal.approval\", _proposalID));\n  }\n\n  function proposalQuorum(bytes32 _proposalID)\n  public\n  view\n  returns (uint) {\n    uint approval = proposalApproval(_proposalID);\n    uint quorum = (approval * 100) / proposalVoteCount(_proposalID);   // what percentage approved ??\n    return quorum;\n  }\n\n  function proposalThreshold(bytes32 _proposalID)\n  public\n  view\n  returns (uint) {\n    uint totalSupply = TokenView(proposalToken(_proposalID)).totalSupply();\n    return (proposalVoteCount(_proposalID) * 100) / totalSupply;\n  }\n\n  // @notice for quorum/threshold based time restricted voting\n  function hasConsensus(bytes32 proposalID)\n  public\n  view\n  returns (bool) {\n    address assetToken = proposalToken(proposalID);\n    uint256 totalSupply = TokenView(assetToken).totalSupply();\n    uint256 voteCount = proposalVoteCount(proposalID);\n    uint256 approval = proposalApproval(proposalID);\n    if(totalSupply == 0 || voteCount == 0){\n      return false;\n    } else {\n      uint256 quorum = voteCount.mul(100).div(totalSupply);\n      uint256 theshold = approval.mul(100).div(voteCount);\n      bool quorumReached = quorum >= assetQuorum(assetToken);\n      bool thresholdReached = theshold >= assetThreshold(assetToken);\n      return quorumReached && thresholdReached;\n    }\n  }\n\n\n  //////////////////////////////////////////////////////////////////////////////////////////////////////////////////\n  //                                            Function ID's\n  //////////////////////////////////////////////////////////////////////////////////////////////////////////////////\n\n\n  // @notice returns the amount of tokens unlocked and free to spend for _ser\n  function getNumTokensAvailable(bytes32 _proposalID, address _investor)\n  public\n  view\n  returns (uint) {\n    address assetToken = proposalToken(_proposalID);\n    uint amountLocked = commitmentValue(assetToken, _investor);\n    uint balance = TokenView(assetToken).balanceOf(_investor);\n    return balance.sub(amountLocked);\n  }\n\n\n  function getAssetManagerParameterHash(address _assetToken, address _oldAssetManager, address _newAssetManager, uint _amount, bool _withhold)\n  public\n  pure\n  returns (bytes32){\n    return keccak256(abi.encodePacked(_assetToken, _oldAssetManager, _newAssetManager, _amount, _withhold));\n  }\n\n\n  function getMethodID(string _functionString)\n  public\n  pure\n  returns (bytes4) {\n    return bytes4(keccak256(abi.encodePacked(_functionString)));\n  }\n\n  function getOrderID(address _assetAddress, address _investor, uint _amount, uint _price, bool _buyOrder)\n  external\n  pure\n  returns(bytes32) {\n    return keccak256(abi.encodePacked(_assetAddress, _investor, _amount, _price, _buyOrder));\n  }\n\n\n  //////////////////////////////////////////////////////////////////////////////////////////////////////////////////\n  //                                        Crowdsale and Assets\n  //////////////////////////////////////////////////////////////////////////////////////////////////////////////////\n  function getAssetFundingToken(address _assetAddress)\n  public\n  view\n  returns(address) {\n    address fundingTokenAddress = ERC20DividendInterface(_assetAddress).getERC20();\n    return fundingTokenAddress;\n  }\n\n  // IF we decide not to store assetIncome\n  // function getAssetIncome(address _assetAddress)\n  // public\n  // view\n  // returns (uint) {\n  //   TokenView asset = TokenView(_assetAddress);\n  //   uint valuePerToken =  asset.valuePerToken();\n  //   return (valuePerToken * (asset.totalSupply())) / asset.scalingFactor();\n  // }\n\n  function getAssetROI(address _assetAddress)\n  public\n  view\n  returns (uint) {\n    TokenView assetToken = TokenView(_assetAddress);\n    return (assetToken.assetIncome() * 100) /  assetToken.totalSupply();\n  }\n\n  function getCrowdsaleGoal(address _assetAddress)\n  public\n  view\n  returns(uint) {\n    uint fundingGoal = database.uintStorage(keccak256(abi.encodePacked(\"crowdsale.goal\", _assetAddress)));\n    return fundingGoal;\n  }\n\n  function getCrowdsaleDeadline(address _assetAddress)\n  public\n  view\n  returns(uint) {\n    return database.uintStorage(keccak256(abi.encodePacked(\"crowdsale.deadline\", _assetAddress)));\n  }\n\n  function crowdsaleFinalized(address _assetAddress)\n  public\n  view\n  returns(bool) {\n    return database.boolStorage(keccak256(abi.encodePacked(\"crowdsale.finalized\", _assetAddress)));\n  }\n\n  function crowdsalePaid(address _assetAddress)\n  public\n  view\n  returns(bool) {\n    return database.boolStorage(keccak256(abi.encodePacked(\"crowdsale.paid\", _assetAddress)));\n  }\n\n  function crowdsaleFailed(address _assetAddress)\n  public\n  view\n  returns(bool) {\n    return (now > getCrowdsaleDeadline(_assetAddress) && !crowdsaleFinalized(_assetAddress));\n  }\n\n\n  //////////////////////////////////////////////////////////////////////////////////////////////////////////////////\n  //                                        Asset Manager and Operator\n  //////////////////////////////////////////////////////////////////////////////////////////////////////////////////\n\n  function getAssetManager(address _assetAddress)\n  public\n  view\n  returns(address) {\n    address managerAddress = database.addressStorage(keccak256(abi.encodePacked(\"asset.manager\", _assetAddress)));\n    return managerAddress;\n  }\n\n  function getAssetManagerFee(address _assetAddress)\n  public\n  view\n  returns(uint) {\n    uint managerFee = database.uintStorage(keccak256(abi.encodePacked(\"asset.managerTokens\", _assetAddress)));\n    return managerFee;\n  }\n\n  function getAssetPlatformFee(address _assetAddress)\n  public\n  view\n  returns(uint) {\n    uint platformFee = database.uintStorage(keccak256(abi.encodePacked(\"asset.platformTokens\", _assetAddress)));\n    return platformFee;\n  }\n\n  function getAssetManagerEscrowID(address _assetAddress, address _manager)\n  public\n  pure\n  returns(bytes32) {\n    bytes32 managerEscrowID = keccak256(abi.encodePacked(_assetAddress, _manager));\n    return managerEscrowID;\n  }\n\n  function getAssetManagerEscrow(bytes32 _managerEscrowID)\n  public\n  view\n  returns (uint) {\n    return database.uintStorage(keccak256(abi.encodePacked(\"asset.escrow\", _managerEscrowID)));\n  }\n\n  function getAssetManagerEscrowRemaining(bytes32 _managerEscrowID)\n  public\n  view\n  returns(uint) {\n    uint redeemed = getAssetManagerEscrowRedeemed(_managerEscrowID);\n    uint brokerEscrow = getAssetManagerEscrow(_managerEscrowID).sub(redeemed);\n    return brokerEscrow;\n  }\n\n  function getAssetManagerEscrowRedeemed(bytes32 _managerEscrowID)\n  public\n  view\n  returns(uint) {\n    uint escrowRedeemed = database.uintStorage(keccak256(abi.encodePacked(\"asset.escrowRedeemed\", _managerEscrowID)));\n    return escrowRedeemed;\n  }\n\n  function getAssetOperator(address _assetAddress)\n  public\n  view\n  returns(address) {\n    address operatorAddress = database.addressStorage(keccak256(abi.encodePacked(\"asset.operator\", _assetAddress)));\n    return operatorAddress;\n  }\n\n  function generateOperatorID(string _operatorURI)\n  public\n  pure\n  returns(bytes32) {\n    bytes32 operatorID = keccak256(abi.encodePacked(\"operator.uri\", _operatorURI));\n    return operatorID;\n  }\n\n  function getOperatorID(address _operatorAddress)\n  public\n  view\n  returns(bytes32) {\n    bytes32 operatorID = database.bytes32Storage(keccak256(abi.encodePacked(\"operator\", _operatorAddress)));\n    return operatorID;\n  }\n\n  function getOperatorAddress(bytes32 _operatorID)\n  public\n  view\n  returns(address) {\n    address operatorAddress = database.addressStorage(keccak256(abi.encodePacked(\"operator\", _operatorID)));\n    return operatorAddress;\n  }\n\n  //////////////////////////////////////////////////////////////////////////////////////////////////////////////////\n  //                                        Stakeholders\n  //////////////////////////////////////////////////////////////////////////////////////////////////////////////////\n\n  function generateOrderID(address _assetAddress, address _sender, uint _amount, uint _price, bool _buyOrder)\n  public\n  pure\n  returns(bytes32) {\n    bytes32 orderID = keccak256(abi.encodePacked(_assetAddress, _sender, _amount, _price, _buyOrder));\n    return orderID;\n  }\n\n\n  //////////////////////////////////////////////////////////////////////////////////////////////////////////////////\n  //                                        Platform and Contract State\n  //////////////////////////////////////////////////////////////////////////////////////////////////////////////////\n//Platform functions\n  function getPlatformToken()\n  public\n  view\n  returns(address) {\n    address tokenAddress = database.addressStorage(keccak256(abi.encodePacked(\"platform.token\")));\n    return tokenAddress;\n  }\n\n  function getPlatformWallet()\n  public\n  view\n  returns(address) {\n    address walletAddress = database.addressStorage(keccak256(abi.encodePacked(\"platform.wallet\")));\n    return walletAddress;\n  }\n\n  function getContractAddress(string _contractName)\n  public\n  view\n  returns(address) {\n    address contractAddress = database.addressStorage(keccak256(abi.encodePacked(\"contract\", _contractName)));\n    return contractAddress;\n  }\n\n  function getCurrentState()\n  public\n  view\n  returns(bytes32) {\n    bytes32 currentState = database.bytes32Storage(keccak256(abi.encodePacked(\"currentState\")));\n    return currentState;\n  }\n\n  function getUserPermission(address _investor)\n  public\n  view\n  returns(bool) {\n    bool status = database.boolStorage(keccak256(abi.encodePacked(getCurrentState(), _investor)));\n    return status;\n  }\n\n  function getFunctionCost(bytes4 _sig, address _contract)\n  public\n  view\n  returns(uint) {\n    uint cost = database.uintStorage(keccak256(abi.encodePacked(_sig, _contract)));\n    return cost;\n  }\n\n  function contractPaused(address _contract)\n  public\n  view\n  returns(bool) {\n    bool status = database.boolStorage(keccak256(abi.encodePacked(\"paused\", _contract)));\n    return status;\n  }\n\n  //////////////////////////////////////////////////////////////////////////////////////////////////////////////////\n  //                                        Ownership\n  //////////////////////////////////////////////////////////////////////////////////////////////////////////////////\n\n  function contractOwner(address _account)\n  public\n  view\n  returns(bool) {\n    bool status = database.boolStorage(keccak256(abi.encodePacked(\"owner\", _account)));\n    return status;\n  }\n\n}\n",
  "sourcePath": "/home/peter/Documents/Work/MyBit/MyBit-Network.tech/contracts/database/API.sol",
  "compiler": {
    "name": "solc",
    "version": "0.4.24+commit.e67f0147.Emscripten.clang"
  },
  "schemaVersion": "3.0.2",
  "updatedAt": "2019-03-20T20:50:44.446Z",
  "devdoc": {
    "methods": {}
  },
  "userdoc": {
    "methods": {
      "assetGovernance(address)": {
        "notice": "///////////////////////////////////////////////////////////////////////////////////////////////////////////////"
      },
      "commitmentValue(address,address)": {
        "notice": "///////////////////////////////////////////////////////////////////////////////////////////////////////////////"
      },
      "contractOwner(address)": {
        "notice": "///////////////////////////////////////////////////////////////////////////////////////////////////////////////"
      },
      "generateOrderID(address,address,uint256,uint256,bool)": {
        "notice": "///////////////////////////////////////////////////////////////////////////////////////////////////////////////"
      },
      "getAssetFundingToken(address)": {
        "notice": "///////////////////////////////////////////////////////////////////////////////////////////////////////////////"
      },
      "getAssetManager(address)": {
        "notice": "///////////////////////////////////////////////////////////////////////////////////////////////////////////////"
      },
      "getNumTokensAvailable(bytes32,address)": {
        "notice": "///////////////////////////////////////////////////////////////////////////////////////////////////////////////"
      },
      "getPlatformToken()": {
        "notice": "///////////////////////////////////////////////////////////////////////////////////////////////////////////////"
      },
      "getProposalID(address,address,bytes4,bytes32)": {
        "notice": "///////////////////////////////////////////////////////////////////////////////////////////////////////////////"
      }
    }
  }
}