{
  "contractName": "Approval",
  "abi": [
    {
      "inputs": [
        {
          "name": "_database",
          "type": "address"
        },
        {
          "name": "_events",
          "type": "address"
        }
      ],
      "payable": false,
      "stateMutability": "nonpayable",
      "type": "constructor"
    },
    {
      "constant": false,
      "inputs": [
        {
          "name": "_account",
          "type": "address"
        },
        {
          "name": "_contract",
          "type": "address"
        },
        {
          "name": "_function",
          "type": "bytes4"
        }
      ],
      "name": "approve",
      "outputs": [
        {
          "name": "",
          "type": "bool"
        }
      ],
      "payable": false,
      "stateMutability": "nonpayable",
      "type": "function"
    },
    {
      "constant": false,
      "inputs": [
        {
          "name": "_account",
          "type": "address"
        },
        {
          "name": "_contract",
          "type": "address"
        },
        {
          "name": "_function",
          "type": "bytes4"
        }
      ],
      "name": "revoke",
      "outputs": [
        {
          "name": "",
          "type": "bool"
        }
      ],
      "payable": false,
      "stateMutability": "nonpayable",
      "type": "function"
    }
  ],
  "bytecode": "0x608060405234801561001057600080fd5b506040516040806103e783398101604052805160209091015160008054600160a060020a03938416600160a060020a03199182161790915560018054939092169216919091179055610380806100676000396000f3006080604052600436106100325763ffffffff60e060020a6000350416635cf3693c8114610037578063c26840781461008c575b600080fd5b34801561004357600080fd5b5061007873ffffffffffffffffffffffffffffffffffffffff60043581169060243516600160e060020a0319604435166100cd565b604080519115158252519081900360200190f35b34801561009857600080fd5b5061007873ffffffffffffffffffffffffffffffffffffffff60043581169060243516600160e060020a03196044351661021e565b60008054604080517f617070726f76616c0000000000000000000000000000000000000000000000006020808301919091526c01000000000000000000000000338102602884015273ffffffffffffffffffffffffffffffffffffffff8981168202603c8501528881169091026050840152600160e060020a031987166064840152835160488185030181526068909301938490528251941693632c62ff2d93918291908401908083835b602083106101975780518252601f199092019160209182019101610178565b5181516020939093036101000a60001901801990911692169190911790526040805191909301819003812063ffffffff871660e060020a0282526004820152915160248084019550600094509092839003019050818387803b1580156101fc57600080fd5b505af1158015610210573d6000803e3d6000fd5b506001979650505050505050565b60008054604080517f617070726f76616c0000000000000000000000000000000000000000000000006020808301919091526c01000000000000000000000000338102602884015273ffffffffffffffffffffffffffffffffffffffff8981168202603c8501528881169091026050840152600160e060020a03198716606484015283516048818503018152606890930193849052825194169363abfdcced93918291908401908083835b602083106102e85780518252601f1990920191602091820191016102c9565b5181516020939093036101000a60001901801990911692169190911790526040805191909301819003812063ffffffff871660e060020a028252600482015260016024820152915160448084019550600094509092839003019050818387803b1580156101fc57600080fd00a165627a7a72305820e8e4c7fd8eba263576f24a192332915fd240c45f05b5fea7fd569c6a0b40cb400029",
  "source": "pragma solidity ^0.4.24;\n\nimport \"../interfaces/DBInterface.sol\";\nimport \"../database/Events.sol\";\n\ncontract Approval{\n  DBInterface private database;\n  Events private events;\n\n  constructor(address _database, address _events) public{\n    database = DBInterface(_database);\n    events = Events(_events);\n  }\n\n  // @notice A function to approve a user or contract to call functions on another msg.sender's behalf\n  function approve(address _account, address _contract, bytes4 _function)\n  external\n  returns(bool){\n    database.setBool(keccak256(abi.encodePacked(\"approval\", msg.sender, _account, _contract, _function)), true);\n    return true;\n  }\n\n  // @notice The function to revoke approval for another user to call functions for msg.sender\n  function revoke(address _account, address _contract, bytes4 _function)\n  external\n  returns(bool){\n    database.deleteBool(keccak256(abi.encodePacked(\"approval\", msg.sender, _account, _contract, _function)));\n    return true;\n  }\n}\n",
  "sourcePath": "/home/peter/Documents/Work/MyBit/MyBit-Network.tech/contracts/access/Approval.sol",
  "compiler": {
    "name": "solc",
    "version": "0.4.25+commit.59dbf8f1.Emscripten.clang"
  },
  "schemaVersion": "3.0.0-beta.0",
  "updatedAt": "2019-01-16T04:27:15.861Z"
}