{
  "contractName": "AssetManager",
  "abi": [
    {
      "constant": true,
      "inputs": [],
      "name": "database",
      "outputs": [
        {
          "name": "",
          "type": "address"
        }
      ],
      "payable": false,
      "stateMutability": "view",
      "type": "function"
    },
    {
      "inputs": [
        {
          "name": "_database",
          "type": "address"
        }
      ],
      "payable": false,
      "stateMutability": "nonpayable",
      "type": "constructor"
    },
    {
      "anonymous": false,
      "inputs": [
        {
          "indexed": true,
          "name": "_assetID",
          "type": "bytes32"
        },
        {
          "indexed": false,
          "name": "_user",
          "type": "address"
        },
        {
          "indexed": false,
          "name": "_amount",
          "type": "uint256"
        }
      ],
      "name": "LogEscrowUnlocked",
      "type": "event"
    },
    {
      "anonymous": false,
      "inputs": [
        {
          "indexed": true,
          "name": "_assetID",
          "type": "bytes32"
        },
        {
          "indexed": false,
          "name": "oldAssetManager",
          "type": "address"
        },
        {
          "indexed": false,
          "name": "_newManager",
          "type": "address"
        }
      ],
      "name": "LogAssetManagerReplaced",
      "type": "event"
    },
    {
      "constant": false,
      "inputs": [
        {
          "name": "_assetID",
          "type": "bytes32"
        }
      ],
      "name": "unlockEscrow",
      "outputs": [],
      "payable": false,
      "stateMutability": "nonpayable",
      "type": "function"
    },
    {
      "constant": false,
      "inputs": [
        {
          "name": "_newManager",
          "type": "address"
        },
        {
          "name": "_assetID",
          "type": "bytes32"
        }
      ],
      "name": "replaceAssetManager",
      "outputs": [
        {
          "name": "",
          "type": "bool"
        }
      ],
      "payable": false,
      "stateMutability": "nonpayable",
      "type": "function"
    }
  ],
  "bytecode": "0x608060405234801561001057600080fd5b5060405160208061295883398101806040528101908080519060200190929190505050806000806101000a81548173ffffffffffffffffffffffffffffffffffffffff021916908373ffffffffffffffffffffffffffffffffffffffff160217905550506128d5806100836000396000f300608060405260043610610057576000357c0100000000000000000000000000000000000000000000000000000000900463ffffffff168063713b563f1461005c578063914b857e146100b3578063c5495b54146100e4575b600080fd5b34801561006857600080fd5b5061007161014d565b604051808273ffffffffffffffffffffffffffffffffffffffff1673ffffffffffffffffffffffffffffffffffffffff16815260200191505060405180910390f35b3480156100bf57600080fd5b506100e26004803603810190808035600019169060200190929190505050610172565b005b3480156100f057600080fd5b50610133600480360381019080803573ffffffffffffffffffffffffffffffffffffffff169060200190929190803560001916906020019092919050505061147d565b604051808215151515815260200191505060405180910390f35b6000809054906101000a900473ffffffffffffffffffffffffffffffffffffffff1681565b60008060008060006001806000809054906101000a900473ffffffffffffffffffffffffffffffffffffffff1673ffffffffffffffffffffffffffffffffffffffff1663a855d4ce3360405160200180807f7573657241636365737300000000000000000000000000000000000000000000815250600a018273ffffffffffffffffffffffffffffffffffffffff1673ffffffffffffffffffffffffffffffffffffffff166c010000000000000000000000000281526014019150506040516020818303038152906040526040518082805190602001908083835b602083101515610272578051825260208201915060208101905060208303925061024d565b6001836020036101000a03801982511681845116808217855250505050505090500191505060405180910390206040518263ffffffff167c0100000000000000000000000000000000000000000000000000000000028152600401808260001916600019168152602001915050602060405180830381600087803b1580156102f957600080fd5b505af115801561030d573d6000803e3d6000fd5b505050506040513d602081101561032357600080fd5b81019080805190602001909291905050501015151561034157600080fd5b426000809054906101000a900473ffffffffffffffffffffffffffffffffffffffff1673ffffffffffffffffffffffffffffffffffffffff1663a855d4ce3360405160200180807f7573657241636365737345787069726174696f6e0000000000000000000000008152506014018273ffffffffffffffffffffffffffffffffffffffff1673ffffffffffffffffffffffffffffffffffffffff166c010000000000000000000000000281526014019150506040516020818303038152906040526040518082805190602001908083835b6020831015156104375780518252602082019150602081019050602083039250610412565b6001836020036101000a03801982511681845116808217855250505050505090500191505060405180910390206040518263ffffffff167c0100000000000000000000000000000000000000000000000000000000028152600401808260001916600019168152602001915050602060405180830381600087803b1580156104be57600080fd5b505af11580156104d2573d6000803e3d6000fd5b505050506040513d60208110156104e857600080fd5b810190808051906020019092919050505011151561050557600080fd5b600073ffffffffffffffffffffffffffffffffffffffff166000809054906101000a900473ffffffffffffffffffffffffffffffffffffffff1673ffffffffffffffffffffffffffffffffffffffff166304f49a3a8960405160200180807f61737365745374616b6572000000000000000000000000000000000000000000815250600b0182600019166000191681526020019150506040516020818303038152906040526040518082805190602001908083835b6020831015156105df57805182526020820191506020810190506020830392506105ba565b6001836020036101000a03801982511681845116808217855250505050505090500191505060405180910390206040518263ffffffff167c0100000000000000000000000000000000000000000000000000000000028152600401808260001916600019168152602001915050602060405180830381600087803b15801561066657600080fd5b505af115801561067a573d6000803e3d6000fd5b505050506040513d602081101561069057600080fd5b810190808051906020019092919050505073ffffffffffffffffffffffffffffffffffffffff16141515610a11573373ffffffffffffffffffffffffffffffffffffffff166000809054906101000a900473ffffffffffffffffffffffffffffffffffffffff1673ffffffffffffffffffffffffffffffffffffffff166304f49a3a8960405160200180807f61737365745374616b6572000000000000000000000000000000000000000000815250600b0182600019166000191681526020019150506040516020818303038152906040526040518082805190602001908083835b6020831015156107975780518252602082019150602081019050602083039250610772565b6001836020036101000a03801982511681845116808217855250505050505090500191505060405180910390206040518263ffffffff167c0100000000000000000000000000000000000000000000000000000000028152600401808260001916600019168152602001915050602060405180830381600087803b15801561081e57600080fd5b505af1158015610832573d6000803e3d6000fd5b505050506040513d602081101561084857600080fd5b810190808051906020019092919050505073ffffffffffffffffffffffffffffffffffffffff1614151561087b57600080fd5b426000809054906101000a900473ffffffffffffffffffffffffffffffffffffffff1673ffffffffffffffffffffffffffffffffffffffff1663a855d4ce8960405160200180807f7374616b696e6745787069726174696f6e00000000000000000000000000000081525060110182600019166000191681526020019150506040516020818303038152906040526040518082805190602001908083835b60208310151561093e5780518252602082019150602081019050602083039250610919565b6001836020036101000a03801982511681845116808217855250505050505090500191505060405180910390206040518263ffffffff167c0100000000000000000000000000000000000000000000000000000000028152600401808260001916600019168152602001915050602060405180830381600087803b1580156109c557600080fd5b505af11580156109d9573d6000803e3d6000fd5b505050506040513d60208110156109ef57600080fd5b8101908080519060200190929190505050101515610a0c57600080fd5b610bcf565b3373ffffffffffffffffffffffffffffffffffffffff166000809054906101000a900473ffffffffffffffffffffffffffffffffffffffff1673ffffffffffffffffffffffffffffffffffffffff166304f49a3a8960405160200180807f61737365744d616e616765720000000000000000000000000000000000000000815250600c0182600019166000191681526020019150506040516020818303038152906040526040518082805190602001908083835b602083101515610aea5780518252602082019150602081019050602083039250610ac5565b6001836020036101000a03801982511681845116808217855250505050505090500191505060405180910390206040518263ffffffff167c0100000000000000000000000000000000000000000000000000000000028152600401808260001916600019168152602001915050602060405180830381600087803b158015610b7157600080fd5b505af1158015610b85573d6000803e3d6000fd5b505050506040513d6020811015610b9b57600080fd5b810190808051906020019092919050505073ffffffffffffffffffffffffffffffffffffffff16141515610bce57600080fd5b5b6000809054906101000a900473ffffffffffffffffffffffffffffffffffffffff1673ffffffffffffffffffffffffffffffffffffffff1663a855d4ce8860405160200180807f657363726f776564466f7241737365740000000000000000000000000000000081525060100182600019166000191681526020019150506040516020818303038152906040526040518082805190602001908083835b602083101515610c915780518252602082019150602081019050602083039250610c6c565b6001836020036101000a03801982511681845116808217855250505050505090500191505060405180910390206040518263ffffffff167c0100000000000000000000000000000000000000000000000000000000028152600401808260001916600019168152602001915050602060405180830381600087803b158015610d1857600080fd5b505af1158015610d2c573d6000803e3d6000fd5b505050506040513d6020811015610d4257600080fd5b81019080805190602001909291905050509550600086111515610d6157fe5b6000809054906101000a900473ffffffffffffffffffffffffffffffffffffffff1673ffffffffffffffffffffffffffffffffffffffff1663a855d4ce8860405160200180807f66756e64696e6753746167650000000000000000000000000000000000000000815250600c0182600019166000191681526020019150506040516020818303038152906040526040518082805190602001908083835b602083101515610e235780518252602082019150602081019050602083039250610dfe565b6001836020036101000a03801982511681845116808217855250505050505090500191505060405180910390206040518263ffffffff167c0100000000000000000000000000000000000000000000000000000000028152600401808260001916600019168152602001915050602060405180830381600087803b158015610eaa57600080fd5b505af1158015610ebe573d6000803e3d6000fd5b505050506040513d6020811015610ed457600080fd5b810190808051906020019092919050505094506002851480610ef65750600585145b80610f015750600085145b15610f1657610f11873388611dca565b611474565b6000809054906101000a900473ffffffffffffffffffffffffffffffffffffffff1673ffffffffffffffffffffffffffffffffffffffff1663a855d4ce8860405160200180807f616d6f756e745261697365640000000000000000000000000000000000000000815250600c0182600019166000191681526020019150506040516020818303038152906040526040518082805190602001908083835b602083101515610fd85780518252602082019150602081019050602083039250610fb3565b6001836020036101000a03801982511681845116808217855250505050505090500191505060405180910390206040518263ffffffff167c0100000000000000000000000000000000000000000000000000000000028152600401808260001916600019168152602001915050602060405180830381600087803b15801561105f57600080fd5b505af1158015611073573d6000803e3d6000fd5b505050506040513d602081101561108957600080fd5b810190808051906020019092919050505093506000809054906101000a900473ffffffffffffffffffffffffffffffffffffffff1673ffffffffffffffffffffffffffffffffffffffff1663a855d4ce8860405160200180807f6173736574496e636f6d65000000000000000000000000000000000000000000815250600b0182600019166000191681526020019150506040516020818303038152906040526040518082805190602001908083835b60208310151561115e5780518252602082019150602081019050602083039250611139565b6001836020036101000a03801982511681845116808217855250505050505090500191505060405180910390206040518263ffffffff167c0100000000000000000000000000000000000000000000000000000000028152600401808260001916600019168152602001915050602060405180830381600087803b1580156111e557600080fd5b505af11580156111f9573d6000803e3d6000fd5b505050506040513d602081101561120f57600080fd5b810190808051906020019092919050505092506113ab8461139d60646000809054906101000a900473ffffffffffffffffffffffffffffffffffffffff1673ffffffffffffffffffffffffffffffffffffffff1663a855d4ce888d604051602001808381526020018260001916600019168152602001925050506040516020818303038152906040526040518082805190602001908083835b6020831015156112cd57805182526020820191506020810190506020830392506112a8565b6001836020036101000a03801982511681845116808217855250505050505090500191505060405180910390206040518263ffffffff167c0100000000000000000000000000000000000000000000000000000000028152600401808260001916600019168152602001915050602060405180830381600087803b15801561135457600080fd5b505af1158015611368573d6000803e3d6000fd5b505050506040513d602081101561137e57600080fd5b810190808051906020019092919050505061282190919063ffffffff16565b61285c90919063ffffffff16565b915060648211156113c2576113c1873388611dca565b5b604b8211156113fd576113fc87336113f760646113e9604b8c61282190919063ffffffff16565b61285c90919063ffffffff16565b611dca565b5b6032821115611438576114378733611432606461142460328c61282190919063ffffffff16565b61285c90919063ffffffff16565b611dca565b5b601982111561147357611472873361146d606461145f60198c61282190919063ffffffff16565b61285c90919063ffffffff16565b611dca565b5b5b50505050505050565b6000806000809054906101000a900473ffffffffffffffffffffffffffffffffffffffff1673ffffffffffffffffffffffffffffffffffffffff16633b7bfda03360405160200180807f6f776e65720000000000000000000000000000000000000000000000000000008152506005018273ffffffffffffffffffffffffffffffffffffffff1673ffffffffffffffffffffffffffffffffffffffff166c010000000000000000000000000281526014019150506040516020818303038152906040526040518082805190602001908083835b6020831015156115755780518252602082019150602081019050602083039250611550565b6001836020036101000a03801982511681845116808217855250505050505090500191505060405180910390206040518263ffffffff167c0100000000000000000000000000000000000000000000000000000000028152600401808260001916600019168152602001915050602060405180830381600087803b1580156115fc57600080fd5b505af1158015611610573d6000803e3d6000fd5b505050506040513d602081101561162657600080fd5b8101908080519060200190929190505050151561164257600080fd5b60016000809054906101000a900473ffffffffffffffffffffffffffffffffffffffff1673ffffffffffffffffffffffffffffffffffffffff1663a855d4ce8660405160200180807f7573657241636365737300000000000000000000000000000000000000000000815250600a018273ffffffffffffffffffffffffffffffffffffffff1673ffffffffffffffffffffffffffffffffffffffff166c010000000000000000000000000281526014019150506040516020818303038152906040526040518082805190602001908083835b6020831015156117395780518252602082019150602081019050602083039250611714565b6001836020036101000a03801982511681845116808217855250505050505090500191505060405180910390206040518263ffffffff167c0100000000000000000000000000000000000000000000000000000000028152600401808260001916600019168152602001915050602060405180830381600087803b1580156117c057600080fd5b505af11580156117d4573d6000803e3d6000fd5b505050506040513d60208110156117ea57600080fd5b81019080805190602001909291905050501015151561180857600080fd5b426000809054906101000a900473ffffffffffffffffffffffffffffffffffffffff1673ffffffffffffffffffffffffffffffffffffffff1663a855d4ce8660405160200180807f7573657241636365737345787069726174696f6e0000000000000000000000008152506014018273ffffffffffffffffffffffffffffffffffffffff1673ffffffffffffffffffffffffffffffffffffffff166c010000000000000000000000000281526014019150506040516020818303038152906040526040518082805190602001908083835b6020831015156118fe57805182526020820191506020810190506020830392506118d9565b6001836020036101000a03801982511681845116808217855250505050505090500191505060405180910390206040518263ffffffff167c0100000000000000000000000000000000000000000000000000000000028152600401808260001916600019168152602001915050602060405180830381600087803b15801561198557600080fd5b505af1158015611999573d6000803e3d6000fd5b505050506040513d60208110156119af57600080fd5b81019080805190602001909291905050501115156119cc57600080fd5b6000809054906101000a900473ffffffffffffffffffffffffffffffffffffffff1673ffffffffffffffffffffffffffffffffffffffff166304f49a3a8460405160200180807f61737365744d616e616765720000000000000000000000000000000000000000815250600c0182600019166000191681526020019150506040516020818303038152906040526040518082805190602001908083835b602083101515611a8e5780518252602082019150602081019050602083039250611a69565b6001836020036101000a03801982511681845116808217855250505050505090500191505060405180910390206040518263ffffffff167c0100000000000000000000000000000000000000000000000000000000028152600401808260001916600019168152602001915050602060405180830381600087803b158015611b1557600080fd5b505af1158015611b29573d6000803e3d6000fd5b505050506040513d6020811015611b3f57600080fd5b81019080805190602001909291905050509050600073ffffffffffffffffffffffffffffffffffffffff168173ffffffffffffffffffffffffffffffffffffffff1614151515611b8e57600080fd5b6000809054906101000a900473ffffffffffffffffffffffffffffffffffffffff1673ffffffffffffffffffffffffffffffffffffffff1663ca446dd98460405160200180807f61737365744d616e616765720000000000000000000000000000000000000000815250600c0182600019166000191681526020019150506040516020818303038152906040526040518082805190602001908083835b602083101515611c505780518252602082019150602081019050602083039250611c2b565b6001836020036101000a0380198251168184511680821785525050505050509050019150506040518091039020866040518363ffffffff167c01000000000000000000000000000000000000000000000000000000000281526004018083600019166000191681526020018273ffffffffffffffffffffffffffffffffffffffff1673ffffffffffffffffffffffffffffffffffffffff16815260200192505050600060405180830381600087803b158015611d0b57600080fd5b505af1158015611d1f573d6000803e3d6000fd5b5050505082600019167f47dc62cbd36a0ea30ad8ddd0f375b87cdd2a4d8812c3fc5b8a3f58adb3a2635f8286604051808373ffffffffffffffffffffffffffffffffffffffff1673ffffffffffffffffffffffffffffffffffffffff1681526020018273ffffffffffffffffffffffffffffffffffffffff1673ffffffffffffffffffffffffffffffffffffffff1681526020019250505060405180910390a2600191505092915050565b60008060008084111515611dda57fe5b6000809054906101000a900473ffffffffffffffffffffffffffffffffffffffff1673ffffffffffffffffffffffffffffffffffffffff1663a855d4ce8760405160200180807f657363726f776564466f7241737365740000000000000000000000000000000081525060100182600019166000191681526020019150506040516020818303038152906040526040518082805190602001908083835b602083101515611e9c5780518252602082019150602081019050602083039250611e77565b6001836020036101000a03801982511681845116808217855250505050505090500191505060405180910390206040518263ffffffff167c0100000000000000000000000000000000000000000000000000000000028152600401808260001916600019168152602001915050602060405180830381600087803b158015611f2357600080fd5b505af1158015611f37573d6000803e3d6000fd5b505050506040513d6020811015611f4d57600080fd5b810190808051906020019092919050505092506000809054906101000a900473ffffffffffffffffffffffffffffffffffffffff1673ffffffffffffffffffffffffffffffffffffffff1663a855d4ce8660405160200180807f657363726f7765644d5942000000000000000000000000000000000000000000815250600b018273ffffffffffffffffffffffffffffffffffffffff1673ffffffffffffffffffffffffffffffffffffffff166c010000000000000000000000000281526014019150506040516020818303038152906040526040518082805190602001908083835b6020831015156120555780518252602082019150602081019050602083039250612030565b6001836020036101000a03801982511681845116808217855250505050505090500191505060405180910390206040518263ffffffff167c0100000000000000000000000000000000000000000000000000000000028152600401808260001916600019168152602001915050602060405180830381600087803b1580156120dc57600080fd5b505af11580156120f0573d6000803e3d6000fd5b505050506040513d602081101561210657600080fd5b810190808051906020019092919050505091506000809054906101000a900473ffffffffffffffffffffffffffffffffffffffff1673ffffffffffffffffffffffffffffffffffffffff1663a855d4ce8660405160200180807f6465706f73697465644d59420000000000000000000000000000000000000000815250600c018273ffffffffffffffffffffffffffffffffffffffff1673ffffffffffffffffffffffffffffffffffffffff166c010000000000000000000000000281526014019150506040516020818303038152906040526040518082805190602001908083835b60208310151561220e57805182526020820191506020810190506020830392506121e9565b6001836020036101000a03801982511681845116808217855250505050505090500191505060405180910390206040518263ffffffff167c0100000000000000000000000000000000000000000000000000000000028152600401808260001916600019168152602001915050602060405180830381600087803b15801561229557600080fd5b505af11580156122a9573d6000803e3d6000fd5b505050506040513d60208110156122bf57600080fd5b810190808051906020019092919050505090506000809054906101000a900473ffffffffffffffffffffffffffffffffffffffff1673ffffffffffffffffffffffffffffffffffffffff1663e2a4853a8760405160200180807f657363726f776564466f7241737365740000000000000000000000000000000081525060100182600019166000191681526020019150506040516020818303038152906040526040518082805190602001908083835b602083101515612394578051825260208201915060208101905060208303925061236f565b6001836020036101000a03801982511681845116808217855250505050505090500191505060405180910390206123d4878761287290919063ffffffff16565b6040518363ffffffff167c010000000000000000000000000000000000000000000000000000000002815260040180836000191660001916815260200182815260200192505050600060405180830381600087803b15801561243557600080fd5b505af1158015612449573d6000803e3d6000fd5b505050506000809054906101000a900473ffffffffffffffffffffffffffffffffffffffff1673ffffffffffffffffffffffffffffffffffffffff1663e2a4853a8660405160200180807f657363726f7765644d5942000000000000000000000000000000000000000000815250600b018273ffffffffffffffffffffffffffffffffffffffff1673ffffffffffffffffffffffffffffffffffffffff166c010000000000000000000000000281526014019150506040516020818303038152906040526040518082805190602001908083835b602083101515612542578051825260208201915060208101905060208303925061251d565b6001836020036101000a0380198251168184511680821785525050505050509050019150506040518091039020612582878661287290919063ffffffff16565b6040518363ffffffff167c010000000000000000000000000000000000000000000000000000000002815260040180836000191660001916815260200182815260200192505050600060405180830381600087803b1580156125e357600080fd5b505af11580156125f7573d6000803e3d6000fd5b505050506000809054906101000a900473ffffffffffffffffffffffffffffffffffffffff1673ffffffffffffffffffffffffffffffffffffffff1663e2a4853a8660405160200180807f6465706f73697465644d59420000000000000000000000000000000000000000815250600c018273ffffffffffffffffffffffffffffffffffffffff1673ffffffffffffffffffffffffffffffffffffffff166c010000000000000000000000000281526014019150506040516020818303038152906040526040518082805190602001908083835b6020831015156126f057805182526020820191506020810190506020830392506126cb565b6001836020036101000a0380198251168184511680821785525050505050509050019150506040518091039020612730878561288b90919063ffffffff16565b6040518363ffffffff167c010000000000000000000000000000000000000000000000000000000002815260040180836000191660001916815260200182815260200192505050600060405180830381600087803b15801561279157600080fd5b505af11580156127a5573d6000803e3d6000fd5b5050505085600019167f3584162d732030b9995d085fce88d368b116e578d68d900ef52b91ef607a63908686604051808373ffffffffffffffffffffffffffffffffffffffff1673ffffffffffffffffffffffffffffffffffffffff1681526020018281526020019250505060405180910390a2505050505050565b60008060008414156128365760009150612855565b828402905082848281151561284757fe5b0414151561285157fe5b8091505b5092915050565b6000818381151561286957fe5b04905092915050565b600082821115151561288057fe5b818303905092915050565b600080828401905083811015151561289f57fe5b80915050929150505600a165627a7a72305820159703ddb51f7f4146c596871e40d32a6681641f95a9c3b10046ee6a275ea4a40029",
  "source": "  pragma solidity 0.4.24;\nimport './SafeMath.sol';\nimport './Database.sol';\n\n//------------------------------------------------------------------------------------------------------------------\n// @title where AssetManagers and Stakers can manage escrowed tokens\n//------------------------------------------------------------------------------------------------------------------\ncontract AssetManager {\nusing SafeMath for uint;\n\n  Database public database;\n\n\n  //------------------------------------------------------------------------------------------------------------------\n  // Constructor\n  // @Param: Address of the database contract\n  //------------------------------------------------------------------------------------------------------------------\n  constructor(address _database)\n  public {\n    database = Database(_database);\n  }\n\n  //------------------------------------------------------------------------------------------------------------------\n  // AssetManager can withdraw any escrowed tokens that are no longer needed in escrow here\n  // Invariant: If asset has a staker, then the escrow belongs to staker. Otherwise it belongs to AssetManager\n  // TODO: Clean this function up \n  //------------------------------------------------------------------------------------------------------------------\n  function unlockEscrow(bytes32 _assetID)\n  external\n  accessApproved(1) {\n    if (database.addressStorage(keccak256(abi.encodePacked(\"assetStaker\", _assetID))) != address(0)) { \n      require(database.addressStorage(keccak256(abi.encodePacked(\"assetStaker\", _assetID))) == msg.sender);\n      require(database.uintStorage(keccak256(abi.encodePacked(\"stakingExpiration\", _assetID))) < now); \n    }\n    else { require(database.addressStorage(keccak256(abi.encodePacked(\"assetManager\", _assetID))) == msg.sender); }\n    uint amountToUnlock = database.uintStorage(keccak256(abi.encodePacked(\"escrowedForAsset\", _assetID)));\n    assert(amountToUnlock > uint(0));\n    uint fundingStage = database.uintStorage(keccak256(abi.encodePacked(\"fundingStage\", _assetID)));\n    if (fundingStage == uint(2) || fundingStage == uint(5) || fundingStage == uint(0)) { \n      releaseEscrow(_assetID, msg.sender, amountToUnlock);     // Unlock all of the escrowed MYB since asset has finished it's lifecycle or failed to get created\n    }\n    else {\n      uint amountRaised = database.uintStorage(keccak256(abi.encodePacked(\"amountRaised\", _assetID)));\n      uint assetIncome = database.uintStorage(keccak256(abi.encodePacked(\"assetIncome\", _assetID)));\n      uint percentageROI = database.uintStorage(keccak256(abi.encodePacked(assetIncome, _assetID))).mul(uint(100)).div(amountRaised);    // Ratio of  incomeProduced / funding cost  (both in WEI)\n      if (percentageROI > uint(100)) { releaseEscrow(_assetID, msg.sender, amountToUnlock); }\n      if (percentageROI > uint(75)) { releaseEscrow(_assetID, msg.sender, amountToUnlock.mul(uint(75)).div(uint(100))); }\n      if (percentageROI > uint(50)) { releaseEscrow(_assetID, msg.sender, amountToUnlock.mul(uint(50)).div(uint(100))); }\n      if (percentageROI > uint(25)) { releaseEscrow(_assetID, msg.sender, amountToUnlock.mul(uint(25)).div(uint(100))); }\n    }\n  }\n\n  //------------------------------------------------------------------------------------------------------------------\n  // Releases escrowed tokens. Only called internally.\n  // TODO: make sure safemath throws if there is not enough MYB deposited\n  //------------------------------------------------------------------------------------------------------------------\n  function releaseEscrow(bytes32 _assetID, address _user, uint _amount)\n  internal {\n    assert (_amount > 0); \n    uint amountLockedForAsset = database.uintStorage(keccak256(abi.encodePacked(\"escrowedForAsset\", _assetID)));\n    uint totalEscrowedAmount = database.uintStorage(keccak256(abi.encodePacked(\"escrowedMYB\", _user)));\n    uint depositedAmount = database.uintStorage(keccak256(abi.encodePacked(\"depositedMYB\", _user)));\n    database.setUint(keccak256(abi.encodePacked(\"escrowedForAsset\", _assetID)), amountLockedForAsset.sub(_amount));\n    database.setUint(keccak256(abi.encodePacked(\"escrowedMYB\", _user)), totalEscrowedAmount.sub(_amount));\n    database.setUint(keccak256(abi.encodePacked(\"depositedMYB\", _user)), depositedAmount.add(_amount));\n    emit LogEscrowUnlocked(_assetID, _user, _amount);\n  }\n\n    //------------------------------------------------------------------------------------------------------------------\n  // Asset manager can be changed by owner or governance authority here\n  // @Param: Address of the replacement operator\n  // TODO: Put this under control of governance mechanisms\n  //------------------------------------------------------------------------------------------------------------------\n  function replaceAssetManager(address _newManager, bytes32 _assetID)\n  external\n  anyOwner\n  returns (bool) {\n    require(database.uintStorage(keccak256(abi.encodePacked(\"userAccess\", _newManager))) >= uint(1));   // Make sure new asset manager is approved\n    require(database.uintStorage(keccak256(abi.encodePacked(\"userAccessExpiration\", _newManager))) > now);\n    address oldAssetManager = database.addressStorage(keccak256(abi.encodePacked(\"assetManager\", _assetID)));\n    require(oldAssetManager != address(0));\n    database.setAddress(keccak256(abi.encodePacked(\"assetManager\", _assetID)), _newManager);\n    emit LogAssetManagerReplaced(_assetID, oldAssetManager, _newManager);\n    return true;\n  }\n\n\n  //------------------------------------------------------------------------------------------------------------------\n  //                                            Modifiers\n  //------------------------------------------------------------------------------------------------------------------\n\n  //------------------------------------------------------------------------------------------------------------------\n  // Must have access level greater than or equal to 1\n  //------------------------------------------------------------------------------------------------------------------\n  modifier accessApproved(uint _accessLevel) {\n    require(database.uintStorage(keccak256(abi.encodePacked(\"userAccess\", msg.sender))) >= uint(_accessLevel));\n    require(database.uintStorage(keccak256(abi.encodePacked(\"userAccessExpiration\", msg.sender))) > now);\n    _;\n  }\n\n    //------------------------------------------------------------------------------------------------------------------\n  // Verify that the sender is a registered owner\n  //------------------------------------------------------------------------------------------------------------------\n  modifier anyOwner {\n    require(database.boolStorage(keccak256(abi.encodePacked(\"owner\", msg.sender))));\n    _;\n  }\n\n  event LogEscrowUnlocked(bytes32 indexed _assetID, address _user, uint _amount);\n  event LogAssetManagerReplaced(bytes32 indexed _assetID, address oldAssetManager, address _newManager);\n\n\n}\n",
  "sourcePath": "/home/peter/Documents/Work/MyBit/MyBit-Network.tech/contracts/alphacontracts/contracts/AssetManager.sol",
  "compiler": {
    "name": "solc",
    "version": "0.4.24+commit.e67f0147.Emscripten.clang"
  },
  "schemaVersion": "2.0.1",
  "updatedAt": "2018-09-08T14:16:35.179Z"
}