{
  "contractName": "AssetManagerFunds",
  "abi": [
    {
      "constant": true,
      "inputs": [],
      "name": "database",
      "outputs": [
        {
          "name": "",
          "type": "address"
        }
      ],
      "payable": false,
      "stateMutability": "view",
      "type": "function"
    },
    {
      "constant": true,
      "inputs": [],
      "name": "events",
      "outputs": [
        {
          "name": "",
          "type": "address"
        }
      ],
      "payable": false,
      "stateMutability": "view",
      "type": "function"
    },
    {
      "inputs": [
        {
          "name": "_database",
          "type": "address"
        },
        {
          "name": "_events",
          "type": "address"
        }
      ],
      "payable": false,
      "stateMutability": "nonpayable",
      "type": "constructor"
    },
    {
      "payable": true,
      "stateMutability": "payable",
      "type": "fallback"
    },
    {
      "constant": false,
      "inputs": [
        {
          "name": "_assetID",
          "type": "bytes32"
        },
        {
          "name": "_assetManager",
          "type": "address"
        }
      ],
      "name": "withdraw",
      "outputs": [
        {
          "name": "",
          "type": "bool"
        }
      ],
      "payable": false,
      "stateMutability": "nonpayable",
      "type": "function"
    },
    {
      "constant": false,
      "inputs": [
        {
          "name": "_assetID",
          "type": "bytes32[]"
        },
        {
          "name": "_assetManager",
          "type": "address"
        }
      ],
      "name": "retrieveAssetManagerTokens",
      "outputs": [
        {
          "name": "",
          "type": "bool"
        }
      ],
      "payable": false,
      "stateMutability": "nonpayable",
      "type": "function"
    },
    {
      "constant": false,
      "inputs": [
        {
          "name": "_assetID",
          "type": "bytes32[]"
        },
        {
          "name": "_assetManager",
          "type": "address"
        }
      ],
      "name": "retrieveAssetManagerETH",
      "outputs": [
        {
          "name": "",
          "type": "bool"
        }
      ],
      "payable": false,
      "stateMutability": "nonpayable",
      "type": "function"
    },
    {
      "constant": false,
      "inputs": [],
      "name": "destroy",
      "outputs": [],
      "payable": false,
      "stateMutability": "nonpayable",
      "type": "function"
    }
  ],
  "bytecode": "0x608060405234801561001057600080fd5b50604051604080611ce983398101604052805160209091015160008054600160a060020a03938416600160a060020a03199182161790915560018054939092169216919091179055611c82806100676000396000f30060806040526004361061005e5763ffffffff60e060020a6000350416631b1dc69181146100605780631b258d50146100a2578063713b563f146100c657806383197ef0146100f7578063a2bd46511461010c578063b5f8558c1461013a575b005b34801561006c57600080fd5b5061008e6024600480358281019291013590600160a060020a0390351661014f565b604080519115158252519081900360200190f35b3480156100ae57600080fd5b5061008e600435600160a060020a036024351661070d565b3480156100d257600080fd5b506100db611048565b60408051600160a060020a039092168252519081900360200190f35b34801561010357600080fd5b5061005e611057565b34801561011857600080fd5b5061008e6024600480358281019291013590600160a060020a0390351661124c565b34801561014657600080fd5b506100db611bbb565b6002805460010190819055600090819081908190819081908190605d8a111561017757600080fd5b600095505b60ff86168a11156106b65733600160a060020a038a1614806102fb575060008054604080517f617070726f76616c000000000000000000000000000000000000000000000000602080830191909152600160a060020a038e81166c010000000000000000000000009081026028850152338102603c8501523002605084015294357bffffffffffffffffffffffffffffffffffffffffffffffffffffffff191660648301528251808303604801815260689092019283905281519490931693633b7bfda0939192918291908401908083835b6020831061026d5780518252601f19909201916020918201910161024e565b51815160209384036101000a60001901801990921691161790526040805192909401829003822063ffffffff881660e060020a0283526004830152925160248083019650939450929083900301905081600087803b1580156102ce57600080fd5b505af11580156102e2573d6000803e3d6000fd5b505050506040513d60208110156102f857600080fd5b50515b151561030657600080fd5b600054600160a060020a03166304f49a3a8c8c60ff8a1681811061032657fe5b604080517f61737365744d616e6167657200000000000000000000000000000000000000006020828101919091529283029490940135602c8086019190915281518086039091018152604c90940190819052835190925082918401908083835b602083106103a55780518252601f199092019160209182019101610386565b51815160209384036101000a60001901801990921691161790526040805192909401829003822063ffffffff881660e060020a0283526004830152925160248083019650939450929083900301905081600087803b15801561040657600080fd5b505af115801561041a573d6000803e3d6000fd5b505050506040513d602081101561043057600080fd5b5051600160a060020a038a811691161461044957600080fd5b600054600160a060020a03166304f49a3a8c8c60ff8a1681811061046957fe5b604080517f746f6b656e4164647265737300000000000000000000000000000000000000006020828101919091529283029490940135602c8086019190915281518086039091018152604c90940190819052835190925082918401908083835b602083106104e85780518252601f1990920191602091820191016104c9565b51815160209384036101000a60001901801990921691161790526040805192909401829003822063ffffffff881660e060020a0283526004830152925160248083019650939450929083900301905081600087803b15801561054957600080fd5b505af115801561055d573d6000803e3d6000fd5b505050506040513d602081101561057357600080fd5b50516040805160e560020a6301defd490281523060048201819052915192975090319550600160a060020a03871691633bdfa920916024808201926020929091908290030181600087803b1580156105ca57600080fd5b505af11580156105de573d6000803e3d6000fd5b505050506040513d60208110156105f457600080fd5b505192506000831161060557600080fd5b610615848463ffffffff611bca16565b915084600160a060020a0316633ccfd60b6040518163ffffffff1660e060020a028152600401602060405180830381600087803b15801561065557600080fd5b505af1158015610669573d6000803e3d6000fd5b505050506040513d602081101561067f57600080fd5b5051151561068c57600080fd5b3031821461069957600080fd5b6106a9878463ffffffff611bca16565b965060019095019461017c565b604051600160a060020a038a169088156108fc029089906000818181858888f193505050501580156106ec573d6000803e3d6000fd5b506001975060025481146106ff57600080fd5b505050505050509392505050565b60028054600101908190556000908190819081908190819033600160a060020a0389161480610899575060008054604080517f617070726f76616c000000000000000000000000000000000000000000000000602080830191909152600160a060020a038d81166c010000000000000000000000009081026028850152338102603c8501523002605084015294357bffffffffffffffffffffffffffffffffffffffffffffffffffffffff191660648301528251808303604801815260689092019283905281519490931693633b7bfda0939192918291908401908083835b6020831061080b5780518252601f1990920191602091820191016107ec565b51815160209384036101000a60001901801990921691161790526040805192909401829003822063ffffffff881660e060020a0283526004830152925160248083019650939450929083900301905081600087803b15801561086c57600080fd5b505af1158015610880573d6000803e3d6000fd5b505050506040513d602081101561089657600080fd5b50515b15156108a457600080fd5b600054604080517f61737365744d616e616765720000000000000000000000000000000000000000602080830191909152602c8083018e905283518084039091018152604c909201928390528151600160a060020a03909416936304f49a3a93918291908401908083835b6020831061092e5780518252601f19909201916020918201910161090f565b51815160209384036101000a60001901801990921691161790526040805192909401829003822063ffffffff881660e060020a0283526004830152925160248083019650939450929083900301905081600087803b15801561098f57600080fd5b505af11580156109a3573d6000803e3d6000fd5b505050506040513d60208110156109b957600080fd5b5051600160a060020a038981169116146109d257600080fd5b600054604080517f746f6b656e416464726573730000000000000000000000000000000000000000602080830191909152602c8083018e905283518084039091018152604c909201928390528151600160a060020a03909416936304f49a3a93918291908401908083835b60208310610a5c5780518252601f199092019160209182019101610a3d565b51815160209384036101000a60001901801990921691161790526040805192909401829003822063ffffffff881660e060020a0283526004830152925160248083019650939450929083900301905081600087803b158015610abd57600080fd5b505af1158015610ad1573d6000803e3d6000fd5b505050506040513d6020811015610ae757600080fd5b50519550600160a060020a0386161515610b0057600080fd5b6000600160a060020a031686600160a060020a0316634ece90a86040518163ffffffff1660e060020a028152600401602060405180830381600087803b158015610b4957600080fd5b505af1158015610b5d573d6000803e3d6000fd5b505050506040513d6020811015610b7357600080fd5b5051600160a060020a03161415610ce1576040805160e560020a6301defd490281523060048201819052915191319550600160a060020a03881691633bdfa920916024808201926020929091908290030181600087803b158015610bd657600080fd5b505af1158015610bea573d6000803e3d6000fd5b505050506040513d6020811015610c0057600080fd5b5051945060008511610c1157600080fd5b610c21848663ffffffff611bca16565b925085600160a060020a0316633ccfd60b6040518163ffffffff1660e060020a028152600401602060405180830381600087803b158015610c6157600080fd5b505af1158015610c75573d6000803e3d6000fd5b505050506040513d6020811015610c8b57600080fd5b50511515610c9857600080fd5b30318314610ca557600080fd5b604051600160a060020a0389169086156108fc029087906000818181858888f19350505050158015610cdb573d6000803e3d6000fd5b5061102a565b6040805160e560020a6301defd490281523060048201529051600160a060020a03881691633bdfa9209160248083019260209291908290030181600087803b158015610d2c57600080fd5b505af1158015610d40573d6000803e3d6000fd5b505050506040513d6020811015610d5657600080fd5b5051945060008511610d6757600080fd5b85600160a060020a0316634ece90a86040518163ffffffff1660e060020a028152600401602060405180830381600087803b158015610da557600080fd5b505af1158015610db9573d6000803e3d6000fd5b505050506040513d6020811015610dcf57600080fd5b5051604080517f70a082310000000000000000000000000000000000000000000000000000000081523060048201529051919350600160a060020a038416916370a08231916024808201926020929091908290030181600087803b158015610e3657600080fd5b505af1158015610e4a573d6000803e3d6000fd5b505050506040513d6020811015610e6057600080fd5b5051604080517f3ccfd60b0000000000000000000000000000000000000000000000000000000081529051919550600160a060020a03881691633ccfd60b916004808201926020929091908290030181600087803b158015610ec157600080fd5b505af1158015610ed5573d6000803e3d6000fd5b505050506040513d6020811015610eeb57600080fd5b50511515610ef857600080fd5b83610f908684600160a060020a03166370a08231306040518263ffffffff1660e060020a0281526004018082600160a060020a0316600160a060020a03168152602001915050602060405180830381600087803b158015610f5857600080fd5b505af1158015610f6c573d6000803e3d6000fd5b505050506040513d6020811015610f8257600080fd5b50519063ffffffff611be416565b14610f9a57600080fd5b81600160a060020a031663a9059cbb89876040518363ffffffff1660e060020a0281526004018083600160a060020a0316600160a060020a0316815260200182815260200192505050602060405180830381600087803b158015610ffd57600080fd5b505af1158015611011573d6000803e3d6000fd5b505050506040513d602081101561102757600080fd5b50505b60019650600254811461103c57600080fd5b50505050505092915050565b600054600160a060020a031681565b600054604080517f6f776e65720000000000000000000000000000000000000000000000000000006020808301919091526c0100000000000000000000000033026025830152825160198184030181526039909201928390528151600160a060020a0390941693633b7bfda093918291908401908083835b602083106110ee5780518252601f1990920191602091820191016110cf565b51815160209384036101000a60001901801990921691161790526040805192909401829003822063ffffffff881660e060020a0283526004830152925160248083019650939450929083900301905081600087803b15801561114f57600080fd5b505af1158015611163573d6000803e3d6000fd5b505050506040513d602081101561117957600080fd5b5051151560011461118957600080fd5b600154604080517f68b96270000000000000000000000000000000000000000000000000000000008152306024820181905233604483015231606482015260a06004820152601b60a48201527f41737365744d616e6167657246756e64732064657374726f796564000000000060c48201529051600160a060020a03909216916368b962709160e48082019260009290919082900301818387803b15801561123057600080fd5b505af1158015611244573d6000803e3d6000fd5b503392505050ff5b60028054600101908190556000906060908190839081908190819081908190819033600160a060020a038d16148061148157506000809054906101000a9004600160a060020a0316600160a060020a0316633b7bfda08d33306000357bffffffffffffffffffffffffffffffffffffffffffffffffffffffff191660405160200180807f617070726f76616c00000000000000000000000000000000000000000000000081525060080185600160a060020a0316600160a060020a03166c0100000000000000000000000002815260140184600160a060020a0316600160a060020a03166c0100000000000000000000000002815260140183600160a060020a0316600160a060020a03166c01000000000000000000000000028152601401827bffffffffffffffffffffffffffffffffffffffffffffffffffffffff19167bffffffffffffffffffffffffffffffffffffffffffffffffffffffff191681526004019450505050506040516020818303038152906040526040518082805190602001908083835b602083106113f35780518252601f1990920191602091820191016113d4565b51815160209384036101000a60001901801990921691161790526040805192909401829003822063ffffffff881660e060020a0283526004830152925160248083019650939450929083900301905081600087803b15801561145457600080fd5b505af1158015611468573d6000803e3d6000fd5b505050506040513d602081101561147e57600080fd5b50515b151561148c57600080fd5b602a8d111561149a57600080fd5b8d8d90506040519080825280602002602001820160405280156114c7578160200160208202803883390190505b5099508d8d90506040519080825280602002602001820160405280156114f7578160200160208202803883390190505b509850600096505b60ff87168d1115611aac57600054600160a060020a03166304f49a3a8f8f60ff8b1681811061152a57fe5b604080517f61737365744d616e6167657200000000000000000000000000000000000000006020828101919091529283029490940135602c8086019190915281518086039091018152604c90940190819052835190925082918401908083835b602083106115a95780518252601f19909201916020918201910161158a565b51815160209384036101000a60001901801990921691161790526040805192909401829003822063ffffffff881660e060020a0283526004830152925160248083019650939450929083900301905081600087803b15801561160a57600080fd5b505af115801561161e573d6000803e3d6000fd5b505050506040513d602081101561163457600080fd5b5051600160a060020a038d811691161461164d57600080fd5b600054600160a060020a03166304f49a3a8f8f60ff8b1681811061166d57fe5b604080517f746f6b656e4164647265737300000000000000000000000000000000000000006020828101919091529283029490940135602c8086019190915281518086039091018152604c90940190819052835190925082918401908083835b602083106116ec5780518252601f1990920191602091820191016116cd565b51815160209384036101000a60001901801990921691161790526040805192909401829003822063ffffffff881660e060020a0283526004830152925160248083019650939450929083900301905081600087803b15801561174d57600080fd5b505af1158015611761573d6000803e3d6000fd5b505050506040513d602081101561177757600080fd5b50519550600160a060020a038616151561179057600080fd5b6040805160e560020a6301defd490281523060048201529051600160a060020a03881691633bdfa9209160248083019260209291908290030181600087803b1580156117db57600080fd5b505af11580156117ef573d6000803e3d6000fd5b505050506040513d602081101561180557600080fd5b505194506000851161181657600080fd5b85600160a060020a0316634ece90a86040518163ffffffff1660e060020a028152600401602060405180830381600087803b15801561185457600080fd5b505af1158015611868573d6000803e3d6000fd5b505050506040513d602081101561187e57600080fd5b5051604080517f70a082310000000000000000000000000000000000000000000000000000000081523060048201529051919550600160a060020a038616916370a08231916024808201926020929091908290030181600087803b1580156118e557600080fd5b505af11580156118f9573d6000803e3d6000fd5b505050506040513d602081101561190f57600080fd5b5051925061191d8987611bf6565b915060ff82168d111561197557611955858b8460ff1681518110151561193f57fe5b602090810290910101519063ffffffff611bca16565b8a8360ff1681518110151561196657fe5b602090810290910101526119c2565b83898960ff1681518110151561198757fe5b600160a060020a03909216602092830290910190910152895185908b9060ff8b169081106119b157fe5b602090810290910101526001909701965b85600160a060020a0316633ccfd60b6040518163ffffffff1660e060020a028152600401602060405180830381600087803b158015611a0057600080fd5b505af1158015611a14573d6000803e3d6000fd5b505050506040513d6020811015611a2a57600080fd5b50511515611a3757600080fd5b82611a978686600160a060020a03166370a08231306040518263ffffffff1660e060020a0281526004018082600160a060020a0316600160a060020a03168152602001915050602060405180830381600087803b158015610f5857600080fd5b14611aa157600080fd5b6001909601956114ff565b600096505b8760ff168760ff161015611b9857888760ff16815181101515611ad057fe5b90602001906020020151600160a060020a031663a9059cbb8d8c8a60ff16815181101515611afa57fe5b906020019060200201516040518363ffffffff1660e060020a0281526004018083600160a060020a0316600160a060020a0316815260200182815260200192505050602060405180830381600087803b158015611b5657600080fd5b505af1158015611b6a573d6000803e3d6000fd5b505050506040513d6020811015611b8057600080fd5b50511515611b8d57600080fd5b600190960195611ab1565b60019a506002548114611baa57600080fd5b505050505050505050509392505050565b600154600160a060020a031681565b600082820183811015611bd957fe5b8091505b5092915050565b600082821115611bf057fe5b50900390565b6000805b83518160ff161015611c4a5782600160a060020a0316848260ff16815181101515611c2157fe5b90602001906020020151600160a060020a03161415611c4257809150611bdd565b600101611bfa565b505090516001019190505600a165627a7a723058207c881e4af2d04c4744c72c74ccf5214466c7cf22e61838de6d903e22363b86b10029",
  "source": "pragma solidity ^0.4.24;\n\nimport \"../interfaces/ERC20.sol\";\nimport \"../interfaces/DBInterface.sol\";\nimport \"../database/Events.sol\";\nimport \"../math/SafeMath.sol\";\n\ninterface DToken {\n  function withdraw() external returns (bool);\n  function getAmountOwed(address _user) external view returns (uint);\n  function balanceOf(address _tokenHolder) external view returns (uint);\n  function transfer(address _to, uint _amount) external returns (bool success);\n  function getERC20() external  view returns (address);\n}\n\n// @title A dividend-token holding contract that locks tokens and retrieves dividends for assetManagers\n// @notice This contract receives newly minted tokens and retrieves Ether or ERC20 tokens received from the asset\n// @author Kyle Dewhurst & Peter Phillips, MyBit Foundation\ncontract AssetManagerFunds {\n  using SafeMath for uint256;\n\n  DBInterface public database;\n  Events public events;\n\n  uint256 private transactionNumber;\n\n  // @notice constructor: initializes database\n  constructor(address _database, address _events)\n  public {\n    database = DBInterface(_database);\n    events = Events(_events);\n  }\n\n  // @notice asset manager can withdraw his dividend fee from assets here\n  // @param : bytes32 _assetID = the ID of this asset on the platform\n  function withdraw(bytes32 _assetID, address _assetManager)\n  external\n  nonReentrant\n  returns (bool) {\n    require(msg.sender == _assetManager || database.boolStorage(keccak256(abi.encodePacked(\"approval\", _assetManager, msg.sender, address(this), msg.sig))));\n    require(_assetManager == database.addressStorage(keccak256(abi.encodePacked(\"assetManager\", _assetID))));\n    DToken token = DToken(database.addressStorage(keccak256(abi.encodePacked(\"tokenAddress\", _assetID))));\n    require(address(token) != address(0));\n    uint amountOwed;\n    uint balanceBefore;\n    if (token.getERC20() == address(0)){\n      balanceBefore = address(this).balance;\n      amountOwed = token.getAmountOwed(address(this));\n      require(amountOwed > 0);\n      uint balanceAfter = balanceBefore.add(amountOwed);\n      require(token.withdraw());\n      require(address(this).balance == balanceAfter);\n      _assetManager.transfer(amountOwed);\n    }\n    else {\n      amountOwed = token.getAmountOwed(address(this));\n      require(amountOwed > 0);\n      DToken fundingToken = DToken(token.getERC20());\n      balanceBefore = fundingToken.balanceOf(address(this));\n      require(token.withdraw());\n      require(fundingToken.balanceOf(address(this)).sub(amountOwed) == balanceBefore);\n      fundingToken.transfer(_assetManager, amountOwed);\n    }\n    return true;\n  }\n\n  function retrieveAssetManagerTokens(bytes32[] _assetID, address _assetManager)\n  external\n  nonReentrant\n  returns (bool) {\n    require(msg.sender == _assetManager || database.boolStorage(keccak256(abi.encodePacked(\"approval\", _assetManager, msg.sender, address(this), msg.sig))));\n    require(_assetID.length <= 42);\n    uint[] memory payoutAmounts = new uint[](_assetID.length);\n    address[] memory tokenAddresses = new address[](_assetID.length);\n    uint8 numEntries;\n    for(uint8 i = 0; i < _assetID.length; i++){\n      require(_assetManager == database.addressStorage(keccak256(abi.encodePacked(\"assetManager\", _assetID[i]))) );\n      DToken token = DToken(database.addressStorage(keccak256(abi.encodePacked(\"tokenAddress\", _assetID[i]))));\n      require(address(token) != address(0));\n      uint tokensOwed = token.getAmountOwed(address(this));\n      require(tokensOwed > 0);\n      DToken fundingToken = DToken(token.getERC20());\n      uint balanceBefore = fundingToken.balanceOf(address(this));\n      uint8 tokenIndex = containsAddress(tokenAddresses, address(token));\n      if (tokenIndex < _assetID.length) {  payoutAmounts[tokenIndex] = payoutAmounts[tokenIndex].add(tokensOwed); }\n      else {\n        tokenAddresses[numEntries] = address(fundingToken);\n        payoutAmounts[numEntries] = tokensOwed;\n        numEntries++;\n      }\n      require(token.withdraw());\n      require(fundingToken.balanceOf(address(this)).sub(tokensOwed) == balanceBefore);\n    }\n\n    for(i = 0; i < numEntries; i++){\n      require(ERC20(tokenAddresses[i]).transfer(_assetManager, payoutAmounts[i]));\n    }\n    return true;\n  }\n\n\n  function retrieveAssetManagerETH(bytes32[] _assetID, address _assetManager)\n  external\n  nonReentrant\n  returns (bool) {\n    require(_assetID.length <= 93);\n    uint weiOwed;\n    for(uint8 i = 0; i < _assetID.length; i++){\n      require(msg.sender == _assetManager || database.boolStorage(keccak256(abi.encodePacked(\"approval\", _assetManager, msg.sender, address(this), msg.sig))));\n      require(_assetManager == database.addressStorage(keccak256(abi.encodePacked(\"assetManager\", _assetID[i]))));\n      DToken token = DToken(database.addressStorage(keccak256(abi.encodePacked(\"tokenAddress\", _assetID[i]))));\n      uint balanceBefore = address(this).balance;\n      uint amountOwed = token.getAmountOwed(address(this));\n      require(amountOwed > 0);\n      uint balanceAfter = balanceBefore.add(amountOwed);\n      require(token.withdraw());\n      require(address(this).balance == balanceAfter);\n      weiOwed = weiOwed.add(amountOwed);\n    }\n    _assetManager.transfer(weiOwed);\n    return true;\n  }\n\n  // @notice returns the index if the address is in the list, otherwise returns list length + 1\n  function containsAddress(address[] _addressList, address _addr)\n  internal\n  pure\n  returns (uint8) {\n    for (uint8 i = 0; i < _addressList.length; i++){\n      if (_addressList[i] == _addr) return i;\n    }\n    return uint8(_addressList.length + 1);\n  }\n\n  // @notice platform owners can destroy contract here\n  function destroy()\n  onlyOwner\n  external {\n    events.transaction('AssetManagerFunds destroyed', address(this), msg.sender, address(this).balance, '');\n    selfdestruct(msg.sender);\n  }\n\n  // @notice prevents calls from re-entering contract\n  modifier nonReentrant() {\n    transactionNumber += 1;\n    uint256 localCounter = transactionNumber;\n    _;\n    require(localCounter == transactionNumber);\n  }\n\n  // @notice reverts if caller is not the owner\n  modifier onlyOwner {\n    require(database.boolStorage(keccak256(abi.encodePacked(\"owner\", msg.sender))) == true);\n    _;\n  }\n\n  function ()\n  payable\n  public {}\n\n}\n",
  "sourcePath": "/home/peter/Documents/Work/MyBit/MyBit-Network.tech/contracts/roles/AssetManagerFunds.sol",
  "compiler": {
    "name": "solc",
    "version": "0.4.24+commit.e67f0147.Emscripten.clang"
  },
  "schemaVersion": "2.0.1",
  "updatedAt": "2018-12-06T01:09:53.256Z"
}