{
  "contractName": "AssetManagerEscrow",
  "abi": [
    {
      "constant": true,
      "inputs": [],
      "name": "database",
      "outputs": [
        {
          "name": "",
          "type": "address"
        }
      ],
      "payable": false,
      "stateMutability": "view",
      "type": "function"
    },
    {
      "constant": true,
      "inputs": [],
      "name": "events",
      "outputs": [
        {
          "name": "",
          "type": "address"
        }
      ],
      "payable": false,
      "stateMutability": "view",
      "type": "function"
    },
    {
      "constant": true,
      "inputs": [],
      "name": "votingProcess",
      "outputs": [
        {
          "name": "",
          "type": "address"
        }
      ],
      "payable": false,
      "stateMutability": "view",
      "type": "function"
    },
    {
      "inputs": [
        {
          "name": "_database",
          "type": "address"
        },
        {
          "name": "_events",
          "type": "address"
        },
        {
          "name": "_voting",
          "type": "address"
        }
      ],
      "payable": false,
      "stateMutability": "nonpayable",
      "type": "constructor"
    },
    {
      "constant": false,
      "inputs": [
        {
          "name": "_assetID",
          "type": "bytes32"
        },
        {
          "name": "_assetManager",
          "type": "address"
        },
        {
          "name": "_amount",
          "type": "uint256"
        }
      ],
      "name": "lockEscrow",
      "outputs": [
        {
          "name": "",
          "type": "bool"
        }
      ],
      "payable": false,
      "stateMutability": "nonpayable",
      "type": "function"
    },
    {
      "constant": false,
      "inputs": [
        {
          "name": "_assetID",
          "type": "bytes32"
        },
        {
          "name": "_assetManager",
          "type": "address"
        }
      ],
      "name": "unlockEscrow",
      "outputs": [
        {
          "name": "",
          "type": "bool"
        }
      ],
      "payable": false,
      "stateMutability": "nonpayable",
      "type": "function"
    },
    {
      "constant": false,
      "inputs": [
        {
          "name": "_assetID",
          "type": "bytes32"
        },
        {
          "name": "_oldAssetManager",
          "type": "address"
        },
        {
          "name": "_newAssetManager",
          "type": "address"
        },
        {
          "name": "_amount",
          "type": "uint256"
        },
        {
          "name": "_burn",
          "type": "bool"
        }
      ],
      "name": "becomeAssetManager",
      "outputs": [
        {
          "name": "",
          "type": "bool"
        }
      ],
      "payable": false,
      "stateMutability": "nonpayable",
      "type": "function"
    },
    {
      "constant": false,
      "inputs": [
        {
          "name": "_newVotingContract",
          "type": "address"
        }
      ],
      "name": "changeVotingProcess",
      "outputs": [
        {
          "name": "",
          "type": "bool"
        }
      ],
      "payable": false,
      "stateMutability": "nonpayable",
      "type": "function"
    },
    {
      "constant": false,
      "inputs": [],
      "name": "destroy",
      "outputs": [],
      "payable": false,
      "stateMutability": "nonpayable",
      "type": "function"
    }
  ],
  "bytecode": "0x608060405234801561001057600080fd5b50604051606080612c8f83398101604090815281516020830151919092015160008054600160a060020a0319908116600160a060020a03958616178255600180548216948616949094179093556002805490931693909116929092179055612c1190819061007e90396000f3006080604052600436106100745763ffffffff60e060020a60003504166303e55f1c81146100795780636d005028146100b4578063713b563f146100d857806383197ef0146101095780638321aa9014610120578063a7f087ea14610152578063b5f8558c14610173578063e5dff55b14610188575b600080fd5b34801561008557600080fd5b506100a0600435600160a060020a036024351660443561019d565b604080519115158252519081900360200190f35b3480156100c057600080fd5b506100a0600435600160a060020a0360243516610320565b3480156100e457600080fd5b506100ed61126b565b60408051600160a060020a039092168252519081900360200190f35b34801561011557600080fd5b5061011e61127a565b005b34801561012c57600080fd5b506100a0600435600160a060020a03602435811690604435166064356084351515611466565b34801561015e57600080fd5b506100a0600160a060020a0360043516611eaa565b34801561017f57600080fd5b506100ed61212d565b34801561019457600080fd5b506100ed61213c565b600033600160a060020a03841614806102f5575060008054604080517f617070726f76616c000000000000000000000000000000000000000000000000602080830191909152600160a060020a03888116606060020a9081026028850152338102603c850152300260508401529435600160e060020a03191660648301528251808303604801815260689092019283905281519490931693633b7bfda0939192918291908401908083835b602083106102675780518252601f199092019160209182019101610248565b51815160209384036101000a60001901801990921691161790526040805192909401829003822063ffffffff881660e060020a0283526004830152925160248083019650939450929083900301905081600087803b1580156102c857600080fd5b505af11580156102dc573d6000803e3d6000fd5b505050506040513d60208110156102f257600080fd5b50515b151561030057600080fd5b61030b83858461214b565b151561031657600080fd5b5060019392505050565b6000808080808080808033600160a060020a038b1614806104e457506000809054906101000a9004600160a060020a0316600160a060020a0316633b7bfda08b3330600035600160e060020a03191660405160200180807f617070726f76616c00000000000000000000000000000000000000000000000081525060080185600160a060020a0316600160a060020a0316606060020a02815260140184600160a060020a0316600160a060020a0316606060020a02815260140183600160a060020a0316600160a060020a0316606060020a02815260140182600160e060020a031916600160e060020a03191681526004019450505050506040516020818303038152906040526040518082805190602001908083835b602083106104565780518252601f199092019160209182019101610437565b51815160209384036101000a60001901801990921691161790526040805192909401829003822063ffffffff881660e060020a0283526004830152925160248083019650939450929083900301905081600087803b1580156104b757600080fd5b505af11580156104cb573d6000803e3d6000fd5b505050506040513d60208110156104e157600080fd5b50515b15156104ef57600080fd5b89600160a060020a03166000809054906101000a9004600160a060020a0316600160a060020a03166304f49a3a8d6040516020018080600080516020612ba6833981519152815250600c0182600019166000191681526020019150506040516020818303038152906040526040518082805190602001908083835b602083106105895780518252601f19909201916020918201910161056a565b51815160209384036101000a60001901801990921691161790526040805192909401829003822063ffffffff881660e060020a0283526004830152925160248083019650939450929083900301905081600087803b1580156105ea57600080fd5b505af11580156105fe573d6000803e3d6000fd5b505050506040513d602081101561061457600080fd5b5051600160a060020a03161461062957600080fd5b426000809054906101000a9004600160a060020a0316600160a060020a031663a855d4ce8d60405160200180807f66756e64696e67446561646c696e650000000000000000000000000000000000815250600f0182600019166000191681526020019150506040516020818303038152906040526040518082805190602001908083835b602083106106cc5780518252601f1990920191602091820191016106ad565b51815160209384036101000a60001901801990921691161790526040805192909401829003822063ffffffff881660e060020a0283526004830152925160248083019650939450929083900301905081600087803b15801561072d57600080fd5b505af1158015610741573d6000803e3d6000fd5b505050506040513d602081101561075757600080fd5b50511061076357600080fd5b60005460408051600080516020612bc68339815191526020808301919091528251808303600f018152602f909201928390528151600160a060020a03909416936304f49a3a93918291908401908083835b602083106107d35780518252601f1990920191602091820191016107b4565b51815160209384036101000a600019018019909216911617905260408051929094018290038220600080516020612b8683398151915283830152602c8084019190915284518084039091018152604c9092019384905281519195509293508392850191508083835b6020831061085a5780518252601f19909201916020918201910161083b565b51815160209384036101000a60001901801990921691161790526040805192909401829003822063ffffffff881660e060020a0283526004830152925160248083019650939450929083900301905081600087803b1580156108bb57600080fd5b505af11580156108cf573d6000803e3d6000fd5b505050506040513d60208110156108e557600080fd5b50516040805160208181018f9052606060020a600160a060020a038f160282840152825160348184030181526054909201928390528151939b50909282918401908083835b602083106109495780518252601f19909201916020918201910161092a565b51815160209384036101000a600019018019909216911617905260408051929094018290038220600054600080516020612b6683398151915284840152602e80850183905286518086039091018152604e909401958690528351919e50600160a060020a0316965063a855d4ce9550919392508291908401908083835b602083106109e55780518252601f1990920191602091820191016109c6565b51815160209384036101000a60001901801990921691161790526040805192909401829003822063ffffffff881660e060020a0283526004830152925160248083019650939450929083900301905081600087803b158015610a4657600080fd5b505af1158015610a5a573d6000803e3d6000fd5b505050506040513d6020811015610a7057600080fd5b505160005460408051600080516020612b4683398151915260208281019190915260328083018d9052835180840390910181526052909201928390528151949a50610b8b948b94600160a060020a03169363a855d4ce9392909182918401908083835b60208310610af25780518252601f199092019160209182019101610ad3565b51815160209384036101000a60001901801990921691161790526040805192909401829003822063ffffffff881660e060020a0283526004830152925160248083019650939450929083900301905081600087803b158015610b5357600080fd5b505af1158015610b67573d6000803e3d6000fd5b505050506040513d6020811015610b7d57600080fd5b50519063ffffffff6127f016565b94506000809054906101000a9004600160a060020a0316600160a060020a0316633b7bfda08c60405160200180807f63726f776473616c6546696e616c697a6564000000000000000000000000000081525060120182600019166000191681526020019150506040516020818303038152906040526040518082805190602001908083835b60208310610c2f5780518252601f199092019160209182019101610c10565b51815160209384036101000a60001901801990921691161790526040805192909401829003822063ffffffff881660e060020a0283526004830152925160248083019650939450929083900301905081600087803b158015610c9057600080fd5b505af1158015610ca4573d6000803e3d6000fd5b505050506040513d6020811015610cba57600080fd5b50511515610cdc57610ccc8b88612802565b1515610cd757600080fd5b6111c0565b6000809054906101000a9004600160a060020a0316600160a060020a03166304f49a3a8c6040516020018080600080516020612b86833981519152815250600c0182600019166000191681526020019150506040516020818303038152906040526040518082805190602001908083835b60208310610d6c5780518252601f199092019160209182019101610d4d565b51815160209384036101000a60001901801990921691161790526040805192909401829003822063ffffffff881660e060020a0283526004830152925160248083019650939450929083900301905081600087803b158015610dcd57600080fd5b505af1158015610de1573d6000803e3d6000fd5b505050506040513d6020811015610df757600080fd5b5051604080517f18160ddd0000000000000000000000000000000000000000000000000000000081529051919550610f2d91600160a060020a038716916318160ddd9160048083019260209291908290030181600087803b158015610e5b57600080fd5b505af1158015610e6f573d6000803e3d6000fd5b505050506040513d6020811015610e8557600080fd5b5051604080517f2ba1b3a10000000000000000000000000000000000000000000000000000000081529051610f2191606491600160a060020a038a1691632ba1b3a19160048083019260209291908290030181600087803b158015610ee957600080fd5b505af1158015610efd573d6000803e3d6000fd5b505050506040513d6020811015610f1357600080fd5b50519063ffffffff612aeb16565b9063ffffffff612b2116565b9250610f4083601963ffffffff612b2116565b60005460408051600080516020612b4683398151915260208083019190915260328083018d905283518084039091018152605290920192839052815194965061105a94600494600160a060020a03169363a855d4ce9392909182918401908083835b60208310610fc15780518252601f199092019160209182019101610fa2565b51815160209384036101000a60001901801990921691161790526040805192909401829003822063ffffffff881660e060020a0283526004830152925160248083019650939450929083900301905081600087803b15801561102257600080fd5b505af1158015611036573d6000803e3d6000fd5b505050506040513d602081101561104c57600080fd5b50519063ffffffff612b2116565b90506004821115801561106d5750600082115b151561107857600080fd5b6110988661108c848463ffffffff612aeb16565b9063ffffffff6127f016565b9450600085116110a757600080fd5b60005460408051600080516020612b66833981519152602080830191909152602e8083018c905283518084039091018152604e909201928390528151600160a060020a039094169363e2a4853a93918291908401908083835b6020831061111f5780518252601f199092019160209182019101611100565b6001836020036101000a038019825116818451168082178552505050505050905001915050604051809103902061115f888a612b3690919063ffffffff16565b6040518363ffffffff1660e060020a02815260040180836000191660001916815260200182815260200192505050600060405180830381600087803b1580156111a757600080fd5b505af11580156111bb573d6000803e3d6000fd5b505050505b87600160a060020a031663a9059cbb8b876040518363ffffffff1660e060020a0281526004018083600160a060020a0316600160a060020a0316815260200182815260200192505050602060405180830381600087803b15801561122357600080fd5b505af1158015611237573d6000803e3d6000fd5b505050506040513d602081101561124d57600080fd5b5051151561125a57600080fd5b5060019a9950505050505050505050565b600054600160a060020a031681565b600054604080517f6f776e6572000000000000000000000000000000000000000000000000000000602080830191909152606060020a33026025830152825160198184030181526039909201928390528151600160a060020a0390941693633b7bfda093918291908401908083835b602083106113085780518252601f1990920191602091820191016112e9565b51815160209384036101000a60001901801990921691161790526040805192909401829003822063ffffffff881660e060020a0283526004830152925160248083019650939450929083900301905081600087803b15801561136957600080fd5b505af115801561137d573d6000803e3d6000fd5b505050506040513d602081101561139357600080fd5b505115156001146113a357600080fd5b600154604080517f68b96270000000000000000000000000000000000000000000000000000000008152306024820181905233604483015231606482015260a06004820152601c60a48201527f41737365744d616e61676572457363726f772064657374726f7965640000000060c48201529051600160a060020a03909216916368b962709160e48082019260009290919082900301818387803b15801561144a57600080fd5b505af115801561145e573d6000803e3d6000fd5b503392505050ff5b604080516020808201889052606060020a600160a060020a038089168202848601528716026054830152606882018590527f010000000000000000000000000000000000000000000000000000000000000084151502608883015282516069818403018152608990920192839052815160009384938493849384938d93600160e060020a031986351693909282918401908083835b6020831061151a5780518252601f1990920191602091820191016114fb565b51815160209384036101000a60001901801990921691161790526040805192909401829003822030606060020a028383015260348301899052600160e060020a031988166054840152605880840182905285518085039091018152607890930194859052825190965060009550919392508291908401908083835b602083106115b45780518252601f199092019160209182019101611595565b51815160209384036101000a6000190180199092169116179052604080519290940182900382206002547f39a926c4000000000000000000000000000000000000000000000000000000008452600484018290529451909750600160a060020a0390941695506339a926c4945060248083019491935090918290030181600087803b15801561164257600080fd5b505af1158015611656573d6000803e3d6000fd5b505050506040513d602081101561166c57600080fd5b5051151561167957600080fd5b33600160a060020a038d16148061183357506000809054906101000a9004600160a060020a0316600160a060020a0316633b7bfda08d3330600035600160e060020a03191660405160200180807f617070726f76616c00000000000000000000000000000000000000000000000081525060080185600160a060020a0316600160a060020a0316606060020a02815260140184600160a060020a0316600160a060020a0316606060020a02815260140183600160a060020a0316600160a060020a0316606060020a02815260140182600160e060020a031916600160e060020a03191681526004019450505050506040516020818303038152906040526040518082805190602001908083835b602083106117a55780518252601f199092019160209182019101611786565b51815160209384036101000a60001901801990921691161790526040805192909401829003822063ffffffff881660e060020a0283526004830152925160248083019650939450929083900301905081600087803b15801561180657600080fd5b505af115801561181a573d6000803e3d6000fd5b505050506040513d602081101561183057600080fd5b50515b151561183e57600080fd5b6000809054906101000a9004600160a060020a0316600160a060020a03166304f49a3a8f6040516020018080600080516020612ba6833981519152815250600c0182600019166000191681526020019150506040516020818303038152906040526040518082805190602001908083835b602083106118ce5780518252601f1990920191602091820191016118af565b51815160209384036101000a60001901801990921691161790526040805192909401829003822063ffffffff881660e060020a0283526004830152925160248083019650939450929083900301905081600087803b15801561192f57600080fd5b505af1158015611943573d6000803e3d6000fd5b505050506040513d602081101561195957600080fd5b50519750600160a060020a03808916908d161480159061198a57508c600160a060020a031688600160a060020a0316145b151561199557600080fd5b8d8d60405160200180836000191660001916815260200182600160a060020a0316600160a060020a0316606060020a028152601401925050506040516020818303038152906040526040518082805190602001908083835b60208310611a0c5780518252601f1990920191602091820191016119ed565b51815160209384036101000a600019018019909216911617905260408051929094018290038220600054600080516020612b6683398151915284840152602e80850183905286518086039091018152604e909401958690528351919e50611bae9750600160a060020a0316955063a855d4ce9492935082918401908083835b60208310611aaa5780518252601f199092019160209182019101611a8b565b51815160209384036101000a60001901801990921691161790526040805192909401829003822063ffffffff881660e060020a0283526004830152925160248083019650939450929083900301905081600087803b158015611b0b57600080fd5b505af1158015611b1f573d6000803e3d6000fd5b505050506040513d6020811015611b3557600080fd5b505160005460408051600080516020612b4683398151915260208281019190915260328083018e9052835180840390910181526052909201928390528151600160a060020a039094169363a855d4ce939182919084019080838360208310610af25780518252601f199092019160209182019101610ad3565b95506000809054906101000a9004600160a060020a0316600160a060020a03166304f49a3a6040516020018080600080516020612bc6833981519152815250600f0190506040516020818303038152906040526040518082805190602001908083835b60208310611c305780518252601f199092019160209182019101611c11565b51815160209384036101000a600019018019909216911617905260408051929094018290038220600080516020612b8683398151915283830152602c8084019190915284518084039091018152604c9092019384905281519195509293508392850191508083835b60208310611cb75780518252601f199092019160209182019101611c98565b51815160209384036101000a60001901801990921691161790526040805192909401829003822063ffffffff881660e060020a0283526004830152925160248083019650939450929083900301905081600087803b158015611d1857600080fd5b505af1158015611d2c573d6000803e3d6000fd5b505050506040513d6020811015611d4257600080fd5b50519450611d508e88612802565b1515611d5b57600080fd5b8915611de65784600160a060020a03166342966c68876040518263ffffffff1660e060020a02815260040180828152602001915050602060405180830381600087803b158015611daa57600080fd5b505af1158015611dbe573d6000803e3d6000fd5b505050506040513d6020811015611dd457600080fd5b50511515611de157600080fd5b611e80565b84600160a060020a031663a9059cbb8e886040518363ffffffff1660e060020a0281526004018083600160a060020a0316600160a060020a0316815260200182815260200192505050602060405180830381600087803b158015611e4957600080fd5b505af1158015611e5d573d6000803e3d6000fd5b505050506040513d6020811015611e7357600080fd5b50511515611e8057600080fd5b611e8b8c8f8d61214b565b1515611e9657600080fd5b5060019d9c50505050505050505050505050565b60006040516020018080600080516020612bc6833981519152815250600f0190506040516020818303038152906040526040518082805190602001908083835b60208310611f095780518252601f199092019160209182019101611eea565b51815160209384036101000a600019018019909216911617905260408051929094018290038220600160a060020a038916606060020a0283830152845160148185030181526034909301948590528251909650600035600160e060020a0319169550919392508291908401908083835b60208310611f985780518252601f199092019160209182019101611f79565b51815160209384036101000a60001901801990921691161790526040805192909401829003822030606060020a028383015260348301899052600160e060020a031988166054840152605880840182905285518085039091018152607890930194859052825190965060009550919392508291908401908083835b602083106120325780518252601f199092019160209182019101612013565b51815160209384036101000a6000190180199092169116179052604080519290940182900382206002547f39a926c4000000000000000000000000000000000000000000000000000000008452600484018290529451909750600160a060020a0390941695506339a926c4945060248083019491935090918290030181600087803b1580156120c057600080fd5b505af11580156120d4573d6000803e3d6000fd5b505050506040513d60208110156120ea57600080fd5b505115156120f757600080fd5b50506002805473ffffffffffffffffffffffffffffffffffffffff1916600160a060020a03959095169490941790935550919050565b600154600160a060020a031681565b600254600160a060020a031681565b6000805460408051600080516020612ba6833981519152602080830191909152602c80830188905283518084039091018152604c909201928390528151859485948594600160a060020a03909216936304f49a3a9382918401908083835b602083106121c85780518252601f1990920191602091820191016121a9565b51815160209384036101000a60001901801990921691161790526040805192909401829003822063ffffffff881660e060020a0283526004830152925160248083019650939450929083900301905081600087803b15801561222957600080fd5b505af115801561223d573d6000803e3d6000fd5b505050506040513d602081101561225357600080fd5b5051600160a060020a03161461226857600080fd5b604080516020808201889052606060020a600160a060020a038a16028284015282516034818403018152605490920192839052815191929182918401908083835b602083106122c85780518252601f1990920191602091820191016122a9565b51815160209384036101000a600019018019909216911617905260408051929094018290038220600054600080516020612bc6833981519152848401528551600f818603018152602f909401958690528351919950600160a060020a031696506304f49a3a9550919392508291908401908083835b6020831061235c5780518252601f19909201916020918201910161233d565b51815160209384036101000a600019018019909216911617905260408051929094018290038220600080516020612b8683398151915283830152602c8084019190915284518084039091018152604c9092019384905281519195509293508392850191508083835b602083106123e35780518252601f1990920191602091820191016123c4565b51815160209384036101000a60001901801990921691161790526040805192909401829003822063ffffffff881660e060020a0283526004830152925160248083019650939450929083900301905081600087803b15801561244457600080fd5b505af1158015612458573d6000803e3d6000fd5b505050506040513d602081101561246e57600080fd5b5051604080517f23b872dd000000000000000000000000000000000000000000000000000000008152600160a060020a038981166004830152306024830152604482018890529151929350908316916323b872dd916064808201926020929091908290030181600087803b1580156124e557600080fd5b505af11580156124f9573d6000803e3d6000fd5b505050506040513d602081101561250f57600080fd5b5051151561251c57600080fd5b60005460408051600080516020612b468339815191526020808301919091526032808301879052835180840390910181526052909201928390528151600160a060020a039094169363e2a4853a93918291908401908083835b602083106125945780518252601f199092019160209182019101612575565b5181516020939093036101000a60001901801990911692169190911790526040805191909301819003812063ffffffff871660e060020a0282526004820152602481018b9052915160448084019550600094509092839003019050818387803b15801561260057600080fd5b505af1158015612614573d6000803e3d6000fd5b505060005460408051600080516020612ba6833981519152602080830191909152602c8083018c905283518084039091018152604c909201928390528151600160a060020a03909416955063ca446dd99450909282918401908083835b602083106126905780518252601f199092019160209182019101612671565b5181516020939093036101000a60001901801990911692169190911790526040805191909301819003812063ffffffff871660e060020a0282526004820152600160a060020a038d166024820152915160448084019550600094509092839003019050818387803b15801561270457600080fd5b505af1158015612718573d6000803e3d6000fd5b5050600154604080517f35cb4800000000000000000000000000000000000000000000000000000000008152602481018a905260448101879052600160a060020a038b81166064830152608482018a905260a06004830152600d60a48301527f457363726f77206c6f636b65640000000000000000000000000000000000000060c483015291519190921693506335cb4800925060e480830192600092919082900301818387803b1580156127cc57600080fd5b505af11580156127e0573d6000803e3d6000fd5b5060019998505050505050505050565b6000828211156127fc57fe5b50900390565b6000805460408051600080516020612ba6833981519152602080830191909152602c80830188905283518084039091018152604c909201928390528151600160a060020a0390941693630e14a37693918291908401908083835b6020831061287b5780518252601f19909201916020918201910161285c565b5181516020939093036101000a60001901801990911692169190911790526040805191909301819003812063ffffffff871660e060020a0282526004820152915160248084019550600094509092839003019050818387803b1580156128e057600080fd5b505af11580156128f4573d6000803e3d6000fd5b505060005460408051600080516020612b468339815191526020808301919091526032808301899052835180840390910181526052909201928390528151600160a060020a03909416955063e2b202bf9450909282918401908083835b602083106129705780518252601f199092019160209182019101612951565b5181516020939093036101000a60001901801990911692169190911790526040805191909301819003812063ffffffff871660e060020a0282526004820152915160248084019550600094509092839003019050818387803b1580156129d557600080fd5b505af11580156129e9573d6000803e3d6000fd5b505060005460408051600080516020612b66833981519152602080830191909152602e80830189905283518084039091018152604e909201928390528151600160a060020a03909416955063e2b202bf9450909282918401908083835b60208310612a655780518252601f199092019160209182019101612a46565b5181516020939093036101000a60001901801990911692169190911790526040805191909301819003812063ffffffff871660e060020a0282526004820152915160248084019550600094509092839003019050818387803b158015612aca57600080fd5b505af1158015612ade573d6000803e3d6000fd5b5060019695505050505050565b600080831515612afe5760009150612b1a565b50828202828482811515612b0e57fe5b0414612b1657fe5b8091505b5092915050565b60008183811515612b2e57fe5b049392505050565b600082820183811015612b1657fe0061737365744d616e61676572457363726f770000000000000000000000000000657363726f7752656465656d6564000000000000000000000000000000000000746f6b656e41646472657373000000000000000000000000000000000000000061737365744d616e616765720000000000000000000000000000000000000000706c6174666f726d417373657449440000000000000000000000000000000000a165627a7a72305820121efdbaad9736ad11ed229d5e7c23a5a4ff323c6aa9ab6fb7b5e5b111605cf10029",
  "source": "pragma solidity ^0.4.24;\n\n  import \"../math/SafeMath.sol\";\n  import \"../interfaces/DBInterface.sol\";\n  import \"../interfaces/VotingInterface.sol\";\n  import \"../database/Events.sol\";\n  import \"../interfaces/DivToken.sol\";\n  import \"../interfaces/BurnableERC20.sol\";\n\n  interface Governance { function isConsensusReached(address _thisContract, bytes4 _methodID, bytes32 _parameterHash) external view returns (bool); }\n\n  // @title A contract to hold escrow as collateral against assets\n  // @author Kyle Dewhurst, MyBit Foundation\n  // @notice AssetManager can lock his escrow in this contract and retrieve it if asset funding fails or successfully returns ROI\n  contract AssetManagerEscrow {\n    using SafeMath for uint256;\n\n    DBInterface public database;\n    Events public events;\n    VotingInterface public votingProcess;\n\n    //uint public consensus = 66;\n\n    // @notice constructor: initializes database\n    // @param: the address for the database contract used by this platform\n    constructor(address _database, address _events, address _voting)\n    public {\n      database = DBInterface(_database);\n      events = Events(_events);\n      votingProcess = VotingInterface(_voting);\n    }\n\n    // @dev assetID can be computed beforehand with sha3(_assetManager, _amountToRaise, _operatorID, _assetURI))\n    // @dev anybody can make the assetManager escrow if he leaves this contract with approval to transfer\n    function lockEscrow(bytes32 _assetID, address _assetManager, uint _amount)\n    public\n    returns (bool) {\n      require(msg.sender == _assetManager || database.boolStorage(keccak256(abi.encodePacked(\"approval\", _assetManager, msg.sender, address(this), msg.sig))));\n      require(lockEscrowInternal(_assetManager, _assetID, _amount));\n      return true;\n    }\n\n\n\n    // @notice assetManager can unlock his escrow here once funding fails or asset returns sufficient ROI\n    // @dev asset must have fundingDeadline = 0 or have ROI > 25%\n    // @dev returns escrow according to ROI. 25% ROI returns 25% of escrow, 50% ROI returns 50% of escrow etc...\n    function unlockEscrow(bytes32 _assetID, address _assetManager)\n    public\n    returns (bool) {\n      require(msg.sender == _assetManager || database.boolStorage(keccak256(abi.encodePacked(\"approval\", _assetManager, msg.sender, address(this), msg.sig))));\n      require(database.addressStorage(keccak256(abi.encodePacked(\"assetManager\", _assetID))) == _assetManager);\n      require(database.uintStorage(keccak256(abi.encodePacked(\"fundingDeadline\", _assetID))) < now);\n      BurnableERC20 burnToken = BurnableERC20(database.addressStorage(keccak256(abi.encodePacked(\"tokenAddress\", keccak256(abi.encodePacked(\"platformAssetID\"))))));\n      bytes32 assetManagerEscrowID = keccak256(abi.encodePacked(_assetID, _assetManager));\n      uint escrowRedeemed = database.uintStorage(keccak256(abi.encodePacked(\"escrowRedeemed\", assetManagerEscrowID)));\n      uint unlockAmount = database.uintStorage(keccak256(abi.encodePacked(\"assetManagerEscrow\", assetManagerEscrowID))).sub(escrowRedeemed);\n      if(!database.boolStorage(keccak256(abi.encodePacked(\"crowdsaleFinalized\", _assetID)))){\n        //If we're past deadline but crowdsale did NOT finalize, release all escrow\n        require(removeAssetManager(_assetID, assetManagerEscrowID));\n      }\n      else {\n        //Past the deadline with a successful funding. Only pay back based on ROI\n        DivToken assetToken = DivToken(database.addressStorage(keccak256(abi.encodePacked(\"tokenAddress\", _assetID))));\n        uint roi = assetToken.assetIncome().mul(100).div(assetToken.totalSupply());   // Scaled up by 10^2  (approaches 100 as asset income increases)\n        uint roiCheckpoints = roi.div(25);       // How many quarterly increments have been reached?\n        uint quarterEscrow = database.uintStorage(keccak256(abi.encodePacked(\"assetManagerEscrow\", assetManagerEscrowID))).div(4);\n        require(roiCheckpoints <= 4 && roiCheckpoints > 0);    // Can't unlock escrow past 100% ROI\n        //  multiply the number of quarterly increments by a quarter of the escrow and subtract the escrow already redeemed.\n        unlockAmount = roiCheckpoints.mul(quarterEscrow).sub(escrowRedeemed);\n        require(unlockAmount > 0);\n        database.setUint(keccak256(abi.encodePacked(\"escrowRedeemed\", assetManagerEscrowID)), escrowRedeemed.add(unlockAmount));\n      }\n      require(burnToken.transfer(_assetManager, unlockAmount));\n      return true;\n    }\n\n\n    // @notice investors can vote to call this function for the new assetManager to then call\n    // @dev new assetManager must approve this contract to transfer in and lock _ amount of platform tokens\n    function becomeAssetManager(bytes32 _assetID, address _oldAssetManager, address _newAssetManager, uint256 _amount, bool _burn)\n    external\n    hasConsensus(_assetID, msg.sig, keccak256(abi.encodePacked(_assetID, _oldAssetManager, _newAssetManager, _amount, _burn)))\n    returns (bool) {\n      //Check for approval\n      require(msg.sender == _newAssetManager || database.boolStorage(keccak256(abi.encodePacked(\"approval\", _newAssetManager, msg.sender, address(this), msg.sig))));\n      address currentAssetManager = database.addressStorage(keccak256(abi.encodePacked(\"assetManager\", _assetID)));\n      require(currentAssetManager != _newAssetManager && currentAssetManager == _oldAssetManager);\n      bytes32 oldAssetManagerEscrowID = keccak256(abi.encodePacked(_assetID, _oldAssetManager));\n      uint oldEscrowRemaining = database.uintStorage(keccak256(abi.encodePacked(\"assetManagerEscrow\", oldAssetManagerEscrowID))).sub(database.uintStorage(keccak256(abi.encodePacked(\"escrowRedeemed\", oldAssetManagerEscrowID))));\n      BurnableERC20 token = BurnableERC20(database.addressStorage(keccak256(abi.encodePacked(\"tokenAddress\", keccak256(abi.encodePacked(\"platformAssetID\"))))));\n      require(removeAssetManager(_assetID, oldAssetManagerEscrowID));\n      if (_burn) { require(token.burn(oldEscrowRemaining)); }\n      else { require(token.transfer(_oldAssetManager, oldEscrowRemaining));  }\n      require(lockEscrowInternal(_newAssetManager, _assetID, _amount));\n      return true;\n    }\n\n    function changeVotingProcess(address _newVotingContract)\n    external\n    hasConsensus(keccak256(abi.encodePacked(\"platformAssetID\")), msg.sig, keccak256(abi.encodePacked(_newVotingContract)))\n    returns (bool) {\n      votingProcess = VotingInterface(_newVotingContract);\n    }\n\n    // @notice platform owners can destroy contract here\n    function destroy()\n    onlyOwner\n    external {\n      events.transaction('AssetManagerEscrow destroyed', address(this), msg.sender, address(this).balance, '');\n      selfdestruct(msg.sender);\n    }\n\n    //////////////////////////////////////////////////////////////////////////////////////////////////////////////////\n    //                                            Internal Functions\n    //////////////////////////////////////////////////////////////////////////////////////////////////////////////////\n\n\n    function removeAssetManager(bytes32 _assetID, bytes32 _assetManagerEscrowID)\n    internal\n    returns (bool) {\n        database.deleteAddress(keccak256(abi.encodePacked(\"assetManager\", _assetID)));\n        database.deleteUint(keccak256(abi.encodePacked(\"assetManagerEscrow\", _assetManagerEscrowID)));\n        database.deleteUint(keccak256(abi.encodePacked(\"escrowRedeemed\", _assetManagerEscrowID)));\n        return true;\n    }\n\n\n    function lockEscrowInternal(address _assetManager, bytes32 _assetID, uint _amount)\n    internal\n    returns (bool) {\n      require(database.addressStorage(keccak256(abi.encodePacked(\"assetManager\", _assetID))) == address(0));\n      bytes32 assetManagerEscrowID = keccak256(abi.encodePacked(_assetID, _assetManager));\n      address tokenAddress = database.addressStorage(keccak256(abi.encodePacked(\"tokenAddress\", keccak256(abi.encodePacked(\"platformAssetID\")))));\n      require(BurnableERC20(tokenAddress).transferFrom(_assetManager, address(this), _amount));\n      database.setUint(keccak256(abi.encodePacked(\"assetManagerEscrow\", assetManagerEscrowID)), _amount);\n      database.setAddress(keccak256(abi.encodePacked(\"assetManager\", _assetID)), _assetManager);\n      events.escrow('Escrow locked', _assetID, assetManagerEscrowID, _assetManager, _amount);\n      //emit LogEscrowLocked(_assetID, assetManagerEscrowID, _assetManager, _amount);\n      return true;\n    }\n\n\n\n  //////////////////////////////////////////////////////////////////////////////////////////////////////////////////\n  //                                            Modifiers\n  //////////////////////////////////////////////////////////////////////////////////////////////////////////////////\n\n    // @notice add this modifer to functions that you want multi-sig requirements for\n    // @dev function can only be called after at least n >= quorumLevel owners have agreed to call it\n    modifier hasConsensus(bytes32 _assetID, bytes4 _methodID, bytes32 _parameterHash){\n      bytes32 proposalID = keccak256(abi.encodePacked(address(this), _assetID, _methodID, _parameterHash));\n      require(votingProcess.result(proposalID));\n      _;\n    }\n\n    // @notice This modifier checks is msg.sender has approval to call the function\n    modifier hasApproval(address _approver, bytes4 _sig){\n      require(msg.sender == _approver || database.boolStorage(keccak256(abi.encodePacked(\"approval\", _approver, msg.sender, address(this), _sig))));\n      _;\n    }\n\n    // @notice reverts if caller is not the owner\n    modifier onlyOwner {\n      require(database.boolStorage(keccak256(abi.encodePacked(\"owner\", msg.sender))) == true);\n      _;\n    }\n\n    /*\n    event LogConsensus(bytes32 votesID, uint votes, uint tokens, bytes32 executionID, uint quorum);\n    event LogEscrowBurned(bytes32 indexed _assetID, address indexed _assetManager, uint _amountBurnt);\n    event LogEscrowLocked(bytes32 indexed _assetID, bytes32 indexed _assetManagerEscrowID, address indexed _assetManager, uint _amount);\n    */\n}\n",
  "sourcePath": "/home/peter/Documents/Work/MyBit/MyBit-Network.tech/contracts/roles/AssetManagerEscrow.sol",
  "compiler": {
    "name": "solc",
    "version": "0.4.24+commit.e67f0147.Emscripten.clang"
  },
  "schemaVersion": "2.0.1",
  "updatedAt": "2018-12-05T20:40:37.437Z"
}