{
  "contractName": "AssetToken",
  "abi": [
    {
      "constant": true,
      "inputs": [],
      "name": "assetIncome",
      "outputs": [
        {
          "name": "",
          "type": "uint256"
        }
      ],
      "payable": false,
      "stateMutability": "view",
      "type": "function"
    },
    {
      "constant": true,
      "inputs": [],
      "name": "valuePerToken",
      "outputs": [
        {
          "name": "",
          "type": "uint256"
        }
      ],
      "payable": false,
      "stateMutability": "view",
      "type": "function"
    },
    {
      "constant": true,
      "inputs": [],
      "name": "id",
      "outputs": [
        {
          "name": "",
          "type": "string"
        }
      ],
      "payable": false,
      "stateMutability": "view",
      "type": "function"
    },
    {
      "constant": true,
      "inputs": [
        {
          "name": "",
          "type": "address"
        }
      ],
      "name": "incomeClaimed",
      "outputs": [
        {
          "name": "",
          "type": "uint256"
        }
      ],
      "payable": false,
      "stateMutability": "view",
      "type": "function"
    },
    {
      "constant": true,
      "inputs": [
        {
          "name": "",
          "type": "address"
        }
      ],
      "name": "previousValuePerToken",
      "outputs": [
        {
          "name": "",
          "type": "uint256"
        }
      ],
      "payable": false,
      "stateMutability": "view",
      "type": "function"
    },
    {
      "inputs": [
        {
          "name": "_initialAmount",
          "type": "uint256"
        },
        {
          "name": "_id",
          "type": "string"
        }
      ],
      "payable": false,
      "stateMutability": "nonpayable",
      "type": "constructor"
    },
    {
      "payable": true,
      "stateMutability": "payable",
      "type": "fallback"
    },
    {
      "anonymous": false,
      "inputs": [
        {
          "indexed": true,
          "name": "_sender",
          "type": "address"
        },
        {
          "indexed": false,
          "name": "_paymentAmount",
          "type": "uint256"
        }
      ],
      "name": "LogIncomeReceived",
      "type": "event"
    },
    {
      "anonymous": false,
      "inputs": [
        {
          "indexed": true,
          "name": "from",
          "type": "address"
        },
        {
          "indexed": true,
          "name": "to",
          "type": "address"
        },
        {
          "indexed": false,
          "name": "tokens",
          "type": "uint256"
        }
      ],
      "name": "Transfer",
      "type": "event"
    },
    {
      "anonymous": false,
      "inputs": [
        {
          "indexed": true,
          "name": "tokenOwner",
          "type": "address"
        },
        {
          "indexed": true,
          "name": "spender",
          "type": "address"
        },
        {
          "indexed": false,
          "name": "tokens",
          "type": "uint256"
        }
      ],
      "name": "Approval",
      "type": "event"
    },
    {
      "constant": false,
      "inputs": [
        {
          "name": "_to",
          "type": "address"
        },
        {
          "name": "_amount",
          "type": "uint256"
        }
      ],
      "name": "transfer",
      "outputs": [
        {
          "name": "success",
          "type": "bool"
        }
      ],
      "payable": false,
      "stateMutability": "nonpayable",
      "type": "function"
    },
    {
      "constant": false,
      "inputs": [
        {
          "name": "_from",
          "type": "address"
        },
        {
          "name": "_to",
          "type": "address"
        },
        {
          "name": "_amount",
          "type": "uint256"
        }
      ],
      "name": "transferFrom",
      "outputs": [
        {
          "name": "success",
          "type": "bool"
        }
      ],
      "payable": false,
      "stateMutability": "nonpayable",
      "type": "function"
    },
    {
      "constant": false,
      "inputs": [
        {
          "name": "_spender",
          "type": "address"
        },
        {
          "name": "_amount",
          "type": "uint256"
        }
      ],
      "name": "approve",
      "outputs": [
        {
          "name": "success",
          "type": "bool"
        }
      ],
      "payable": false,
      "stateMutability": "nonpayable",
      "type": "function"
    },
    {
      "constant": false,
      "inputs": [
        {
          "name": "_spender",
          "type": "address"
        },
        {
          "name": "_amount",
          "type": "uint256"
        },
        {
          "name": "_data",
          "type": "bytes"
        }
      ],
      "name": "approveAndCall",
      "outputs": [
        {
          "name": "success",
          "type": "bool"
        }
      ],
      "payable": false,
      "stateMutability": "nonpayable",
      "type": "function"
    },
    {
      "constant": true,
      "inputs": [],
      "name": "totalSupply",
      "outputs": [
        {
          "name": "tokenSupply",
          "type": "uint256"
        }
      ],
      "payable": false,
      "stateMutability": "view",
      "type": "function"
    },
    {
      "constant": true,
      "inputs": [
        {
          "name": "_tokenHolder",
          "type": "address"
        }
      ],
      "name": "balanceOf",
      "outputs": [
        {
          "name": "balance",
          "type": "uint256"
        }
      ],
      "payable": false,
      "stateMutability": "view",
      "type": "function"
    },
    {
      "constant": true,
      "inputs": [
        {
          "name": "_tokenHolder",
          "type": "address"
        },
        {
          "name": "_spender",
          "type": "address"
        }
      ],
      "name": "allowance",
      "outputs": [
        {
          "name": "",
          "type": "uint256"
        }
      ],
      "payable": false,
      "stateMutability": "view",
      "type": "function"
    },
    {
      "constant": true,
      "inputs": [
        {
          "name": "_user",
          "type": "address"
        }
      ],
      "name": "getOwedDividends",
      "outputs": [
        {
          "name": "",
          "type": "uint256"
        }
      ],
      "payable": false,
      "stateMutability": "view",
      "type": "function"
    }
  ],
  "bytecode": "0x60806040523480156200001157600080fd5b50604051620019693803806200196983398101806040528101908080519060200190929190805182019291905050508160008190555080600390805190602001906200005f929190620000ce565b503373ffffffffffffffffffffffffffffffffffffffff16600073ffffffffffffffffffffffffffffffffffffffff167fddf252ad1be2c89b69c2b068fc378daa952ba7f163c4a11628f55a4df523b3ef846040518082815260200191505060405180910390a350506200017d565b828054600181600116156101000203166002900490600052602060002090601f016020900481019282601f106200011157805160ff191683800117855562000142565b8280016001018555821562000142579182015b828111156200014157825182559160200191906001019062000124565b5b50905062000151919062000155565b5090565b6200017a91905b80821115620001765760008160009055506001016200015c565b5090565b90565b6117dc806200018d6000396000f3006080604052600436106100c5576000357c0100000000000000000000000000000000000000000000000000000000900463ffffffff168063095ea7b31461018e57806318160ddd146101f357806323b872dd1461021e5780632ba1b3a1146102a357806370a08231146102ce5780638ea390c114610325578063a8fa8e521461037c578063a9059cbb146103a7578063af640d0f1461040c578063b8c8e1e61461049c578063cae9ca51146104f3578063dd62ed3e1461059e578063efcb5dea14610615575b6000341115156100d457600080fd5b61011d61010c6000546100fe6d04ee2d6d415b85acef81000000003461066c90919063ffffffff16565b6106a790919063ffffffff16565b6005546106bd90919063ffffffff16565b600581905550610138346004546106bd90919063ffffffff16565b6004819055503373ffffffffffffffffffffffffffffffffffffffff167fe3166012cb87b3dec8e117fe0e096a47387f94ea2ec12086ed8ae24ff8c237fe346040518082815260200191505060405180910390a2005b34801561019a57600080fd5b506101d9600480360381019080803573ffffffffffffffffffffffffffffffffffffffff169060200190929190803590602001909291905050506106db565b604051808215151515815260200191505060405180910390f35b3480156101ff57600080fd5b506102086107cd565b6040518082815260200191505060405180910390f35b34801561022a57600080fd5b50610289600480360381019080803573ffffffffffffffffffffffffffffffffffffffff169060200190929190803573ffffffffffffffffffffffffffffffffffffffff169060200190929190803590602001909291905050506107d6565b604051808215151515815260200191505060405180910390f35b3480156102af57600080fd5b506102b8610cc2565b6040518082815260200191505060405180910390f35b3480156102da57600080fd5b5061030f600480360381019080803573ffffffffffffffffffffffffffffffffffffffff169060200190929190505050610cc8565b6040518082815260200191505060405180910390f35b34801561033157600080fd5b50610366600480360381019080803573ffffffffffffffffffffffffffffffffffffffff169060200190929190505050610d11565b6040518082815260200191505060405180910390f35b34801561038857600080fd5b50610391610d94565b6040518082815260200191505060405180910390f35b3480156103b357600080fd5b506103f2600480360381019080803573ffffffffffffffffffffffffffffffffffffffff16906020019092919080359060200190929190505050610d9a565b604051808215151515815260200191505060405180910390f35b34801561041857600080fd5b50610421611176565b6040518080602001828103825283818151815260200191508051906020019080838360005b83811015610461578082015181840152602081019050610446565b50505050905090810190601f16801561048e5780820380516001836020036101000a031916815260200191505b509250505060405180910390f35b3480156104a857600080fd5b506104dd600480360381019080803573ffffffffffffffffffffffffffffffffffffffff169060200190929190505050611214565b6040518082815260200191505060405180910390f35b3480156104ff57600080fd5b50610584600480360381019080803573ffffffffffffffffffffffffffffffffffffffff16906020019092919080359060200190929190803590602001908201803590602001908080601f016020809104026020016040519081016040528093929190818152602001838380828437820191505050505050919291929050505061122c565b604051808215151515815260200191505060405180910390f35b3480156105aa57600080fd5b506105ff600480360381019080803573ffffffffffffffffffffffffffffffffffffffff169060200190929190803573ffffffffffffffffffffffffffffffffffffffff169060200190929190505050611645565b6040518082815260200191505060405180910390f35b34801561062157600080fd5b50610656600480360381019080803573ffffffffffffffffffffffffffffffffffffffff1690602001909291905050506116cc565b6040518082815260200191505060405180910390f35b600080600084141561068157600091506106a0565b828402905082848281151561069257fe5b0414151561069c57fe5b8091505b5092915050565b600081838115156106b457fe5b04905092915050565b60008082840190508381101515156106d157fe5b8091505092915050565b600081600260003373ffffffffffffffffffffffffffffffffffffffff1673ffffffffffffffffffffffffffffffffffffffff16815260200190815260200160002060008573ffffffffffffffffffffffffffffffffffffffff1673ffffffffffffffffffffffffffffffffffffffff168152602001908152602001600020819055508273ffffffffffffffffffffffffffffffffffffffff163373ffffffffffffffffffffffffffffffffffffffff167f8c5be1e5ebec7d5bd14f71427d1e84f3dd0314c0f7b2291e5b200ac8c7c3b925846040518082815260200191505060405180910390a36001905092915050565b60008054905090565b6000836108336107e5826116e4565b600660008473ffffffffffffffffffffffffffffffffffffffff1673ffffffffffffffffffffffffffffffffffffffff168152602001908152602001600020546106bd90919063ffffffff16565b600660008373ffffffffffffffffffffffffffffffffffffffff1673ffffffffffffffffffffffffffffffffffffffff16815260200190815260200160002081905550600554600760008373ffffffffffffffffffffffffffffffffffffffff1673ffffffffffffffffffffffffffffffffffffffff16815260200190815260200160002081905550836109176108c9826116e4565b600660008473ffffffffffffffffffffffffffffffffffffffff1673ffffffffffffffffffffffffffffffffffffffff168152602001908152602001600020546106bd90919063ffffffff16565b600660008373ffffffffffffffffffffffffffffffffffffffff1673ffffffffffffffffffffffffffffffffffffffff16815260200190815260200160002081905550600554600760008373ffffffffffffffffffffffffffffffffffffffff1673ffffffffffffffffffffffffffffffffffffffff16815260200190815260200160002081905550600073ffffffffffffffffffffffffffffffffffffffff168573ffffffffffffffffffffffffffffffffffffffff16141515156109dc57600080fd5b3073ffffffffffffffffffffffffffffffffffffffff168573ffffffffffffffffffffffffffffffffffffffff1614151515610a1757600080fd5b610a6984600160008973ffffffffffffffffffffffffffffffffffffffff1673ffffffffffffffffffffffffffffffffffffffff1681526020019081526020016000205461179790919063ffffffff16565b600160008873ffffffffffffffffffffffffffffffffffffffff1673ffffffffffffffffffffffffffffffffffffffff16815260200190815260200160002081905550610b3b84600260008973ffffffffffffffffffffffffffffffffffffffff1673ffffffffffffffffffffffffffffffffffffffff16815260200190815260200160002060003373ffffffffffffffffffffffffffffffffffffffff1673ffffffffffffffffffffffffffffffffffffffff1681526020019081526020016000205461179790919063ffffffff16565b600260008873ffffffffffffffffffffffffffffffffffffffff1673ffffffffffffffffffffffffffffffffffffffff16815260200190815260200160002060003373ffffffffffffffffffffffffffffffffffffffff1673ffffffffffffffffffffffffffffffffffffffff16815260200190815260200160002081905550610c0d84600160008873ffffffffffffffffffffffffffffffffffffffff1673ffffffffffffffffffffffffffffffffffffffff168152602001908152602001600020546106bd90919063ffffffff16565b600160008773ffffffffffffffffffffffffffffffffffffffff1673ffffffffffffffffffffffffffffffffffffffff168152602001908152602001600020819055508473ffffffffffffffffffffffffffffffffffffffff168673ffffffffffffffffffffffffffffffffffffffff167fddf252ad1be2c89b69c2b068fc378daa952ba7f163c4a11628f55a4df523b3ef866040518082815260200191505060405180910390a36001925050509392505050565b60045481565b6000600160008373ffffffffffffffffffffffffffffffffffffffff1673ffffffffffffffffffffffffffffffffffffffff168152602001908152602001600020549050919050565b6000610d8d6d04ee2d6d415b85acef8100000000610d7f600660008673ffffffffffffffffffffffffffffffffffffffff1673ffffffffffffffffffffffffffffffffffffffff16815260200190815260200160002054610d71866116e4565b6106bd90919063ffffffff16565b6106a790919063ffffffff16565b9050919050565b60055481565b600033610df7610da9826116e4565b600660008473ffffffffffffffffffffffffffffffffffffffff1673ffffffffffffffffffffffffffffffffffffffff168152602001908152602001600020546106bd90919063ffffffff16565b600660008373ffffffffffffffffffffffffffffffffffffffff1673ffffffffffffffffffffffffffffffffffffffff16815260200190815260200160002081905550600554600760008373ffffffffffffffffffffffffffffffffffffffff1673ffffffffffffffffffffffffffffffffffffffff1681526020019081526020016000208190555083610edb610e8d826116e4565b600660008473ffffffffffffffffffffffffffffffffffffffff1673ffffffffffffffffffffffffffffffffffffffff168152602001908152602001600020546106bd90919063ffffffff16565b600660008373ffffffffffffffffffffffffffffffffffffffff1673ffffffffffffffffffffffffffffffffffffffff16815260200190815260200160002081905550600554600760008373ffffffffffffffffffffffffffffffffffffffff1673ffffffffffffffffffffffffffffffffffffffff16815260200190815260200160002081905550600073ffffffffffffffffffffffffffffffffffffffff168573ffffffffffffffffffffffffffffffffffffffff1614151515610fa057600080fd5b3073ffffffffffffffffffffffffffffffffffffffff168573ffffffffffffffffffffffffffffffffffffffff1614151515610fdb57600080fd5b61102d84600160003373ffffffffffffffffffffffffffffffffffffffff1673ffffffffffffffffffffffffffffffffffffffff1681526020019081526020016000205461179790919063ffffffff16565b600160003373ffffffffffffffffffffffffffffffffffffffff1673ffffffffffffffffffffffffffffffffffffffff168152602001908152602001600020819055506110c284600160008873ffffffffffffffffffffffffffffffffffffffff1673ffffffffffffffffffffffffffffffffffffffff168152602001908152602001600020546106bd90919063ffffffff16565b600160008773ffffffffffffffffffffffffffffffffffffffff1673ffffffffffffffffffffffffffffffffffffffff168152602001908152602001600020819055508473ffffffffffffffffffffffffffffffffffffffff163373ffffffffffffffffffffffffffffffffffffffff167fddf252ad1be2c89b69c2b068fc378daa952ba7f163c4a11628f55a4df523b3ef866040518082815260200191505060405180910390a360019250505092915050565b60038054600181600116156101000203166002900480601f01602080910402602001604051908101604052809291908181526020018280546001816001161561010002031660029004801561120c5780601f106111e15761010080835404028352916020019161120c565b820191906000526020600020905b8154815290600101906020018083116111ef57829003601f168201915b505050505081565b60066020528060005260406000206000915090505481565b60003361128961123b826116e4565b600660008473ffffffffffffffffffffffffffffffffffffffff1673ffffffffffffffffffffffffffffffffffffffff168152602001908152602001600020546106bd90919063ffffffff16565b600660008373ffffffffffffffffffffffffffffffffffffffff1673ffffffffffffffffffffffffffffffffffffffff16815260200190815260200160002081905550600554600760008373ffffffffffffffffffffffffffffffffffffffff1673ffffffffffffffffffffffffffffffffffffffff168152602001908152602001600020819055508461136d61131f826116e4565b600660008473ffffffffffffffffffffffffffffffffffffffff1673ffffffffffffffffffffffffffffffffffffffff168152602001908152602001600020546106bd90919063ffffffff16565b600660008373ffffffffffffffffffffffffffffffffffffffff1673ffffffffffffffffffffffffffffffffffffffff16815260200190815260200160002081905550600554600760008373ffffffffffffffffffffffffffffffffffffffff1673ffffffffffffffffffffffffffffffffffffffff1681526020019081526020016000208190555084600260003373ffffffffffffffffffffffffffffffffffffffff1673ffffffffffffffffffffffffffffffffffffffff16815260200190815260200160002060008873ffffffffffffffffffffffffffffffffffffffff1673ffffffffffffffffffffffffffffffffffffffff168152602001908152602001600020819055508573ffffffffffffffffffffffffffffffffffffffff163373ffffffffffffffffffffffffffffffffffffffff167f8c5be1e5ebec7d5bd14f71427d1e84f3dd0314c0f7b2291e5b200ac8c7c3b925876040518082815260200191505060405180910390a38573ffffffffffffffffffffffffffffffffffffffff16638f4ffcb1338730886040518563ffffffff167c0100000000000000000000000000000000000000000000000000000000028152600401808573ffffffffffffffffffffffffffffffffffffffff1673ffffffffffffffffffffffffffffffffffffffff1681526020018481526020018373ffffffffffffffffffffffffffffffffffffffff1673ffffffffffffffffffffffffffffffffffffffff16815260200180602001828103825283818151815260200191508051906020019080838360005b838110156115d15780820151818401526020810190506115b6565b50505050905090810190601f1680156115fe5780820380516001836020036101000a031916815260200191505b5095505050505050600060405180830381600087803b15801561162057600080fd5b505af1158015611634573d6000803e3d6000fd5b505050506001925050509392505050565b6000600260008473ffffffffffffffffffffffffffffffffffffffff1673ffffffffffffffffffffffffffffffffffffffff16815260200190815260200160002060008373ffffffffffffffffffffffffffffffffffffffff1673ffffffffffffffffffffffffffffffffffffffff16815260200190815260200160002054905092915050565b60076020528060005260406000206000915090505481565b60008061173b600760008573ffffffffffffffffffffffffffffffffffffffff1673ffffffffffffffffffffffffffffffffffffffff1681526020019081526020016000205460055461179790919063ffffffff16565b905061178f600160008573ffffffffffffffffffffffffffffffffffffffff1673ffffffffffffffffffffffffffffffffffffffff168152602001908152602001600020548261066c90919063ffffffff16565b915050919050565b60008282111515156117a557fe5b8183039050929150505600a165627a7a72305820c56a50e129bf22361939976bb3bdd5c6eb431b7f1d8e11ba7f865be0bd0175d40029",
  "source": "pragma solidity 0.4.24;\n\nimport './SafeMath.sol'; \n\n// ----------------------------------------------------------------------------\n// Receive approval and then execute function\n// ----------------------------------------------------------------------------\ncontract ApproveAndCallFallBack {\n    function receiveApproval(address from, uint tokens, address token, bytes data) public;\n}\n\n// ----------------------------------------------------------------------------\n// ERC Token Standard #20 Interface\n// https://github.com/ethereum/EIPs/blob/master/EIPS/eip-20.md\n// ----------------------------------------------------------------------------\ncontract ERC20Interface {\n    function totalSupply() public constant returns (uint);\n    function balanceOf(address tokenOwner) public constant returns (uint balance);\n    function allowance(address tokenOwner, address spender) public constant returns (uint remaining);\n    function transfer(address to, uint tokens) public returns (bool success);\n    function approve(address spender, uint tokens) public returns (bool success);\n    function transferFrom(address from, address to, uint tokens) public returns (bool success);\n\n    event Transfer(address indexed from, address indexed to, uint tokens);\n    event Approval(address indexed tokenOwner, address indexed spender, uint tokens);\n}\n\n\n// ------------------------------------------------------------------------\n// @notice ERC20 token contract with shared revenue distribution functionality. \n// Credit goes to Nick Johnson for the dividend token\n// https://medium.com/@weka/dividend-bearing-tokens-on-ethereum-42d01c710657\n// Fixed Supply with burn capabilities\n// ------------------------------------------------------------------------\ncontract AssetToken is ERC20Interface{\n    using SafeMath for uint; \n\n    // ------------------------------------------------------------------------\n    /// Token supply, balances and allowance\n    // ------------------------------------------------------------------------\n    uint internal supply;\n    mapping (address => uint) internal balances;\n    mapping (address => mapping (address => uint)) internal allowed;\n\n    // ------------------------------------------------------------------------\n    // Asset Token Information\n    // ------------------------------------------------------------------------\n    string public id;                 // An identifier\n\n    // ------------------------------------------------------------------------\n    // Token Income Information\n    // ------------------------------------------------------------------------\n    uint constant scalingFactor = 1e32;\n    uint public assetIncome;\n    uint public valuePerToken;\n\n\n    mapping (address => uint) public incomeClaimed;\n    mapping (address => uint) public previousValuePerToken;    \n\n\n    // ------------------------------------------------------------------------\n    // Constructor\n    // ------------------------------------------------------------------------\n    constructor(uint _initialAmount, string _id) \n    public {\n        supply = _initialAmount;                        // Update total supply\n        id = _id;                                            // Set the id for reference\n        emit Transfer(address(0), msg.sender, _initialAmount);    // Transfer event indicating token creation\n    }\n\n    // ------------------------------------------------------------------------\n    // TODO: Save gas for crowdfunding\n    // TODO: After crowdsale users can redeem their ownership units from crowdfunding\n    // ------------------------------------------------------------------------\n    // function redeem()\n    // public \n    // returns (bool) { \n    //     return true; \n    // }\n\n\n    // ------------------------------------------------------------------------\n    // Transfer _amount tokens to address _to \n    // Sender must have enough tokens. Cannot send to 0x0.\n    // ------------------------------------------------------------------------\n    function transfer(address _to, uint _amount) \n    public \n    updateIncomeClaimed(msg.sender)\n    updateIncomeClaimed(_to)\n    returns (bool success) {\n        require(_to != address(0));         // Use burn() function instead\n        require(_to != address(this));\n        balances[msg.sender] = balances[msg.sender].sub(_amount);\n        balances[_to] = balances[_to].add(_amount);\n        emit Transfer(msg.sender, _to, _amount);\n        return true;\n    }\n\n    // ------------------------------------------------------------------------\n    // Transfer _amount of tokens if _from has allowed msg.sender to do so\n    //  _from must have enough tokens + must have approved msg.sender \n    // ------------------------------------------------------------------------\n    function transferFrom(address _from, address _to, uint _amount) \n    public \n    updateIncomeClaimed(_from)\n    updateIncomeClaimed(_to)\n    returns (bool success) {\n        require(_to != address(0)); \n        require(_to != address(this)); \n        balances[_from] = balances[_from].sub(_amount);\n        allowed[_from][msg.sender] = allowed[_from][msg.sender].sub(_amount);\n        balances[_to] = balances[_to].add(_amount);\n        emit Transfer(_from, _to, _amount);\n        return true;\n    }\n\n    // ------------------------------------------------------------------------\n    // Token owner can approve for `spender` to transferFrom(...) `tokens`\n    // from the token owner's account\n    // ------------------------------------------------------------------------\n    function approve(address _spender, uint _amount) \n    public \n    returns (bool success) {\n        allowed[msg.sender][_spender] = _amount;\n        emit Approval(msg.sender, _spender, _amount);\n        return true;\n    }\n\n\n    // ------------------------------------------------------------------------\n    // Token holder can notify a contract that it has been approved\n    // to spend _amount of tokens\n    // ------------------------------------------------------------------------\n    function approveAndCall(address _spender, uint _amount, bytes _data) \n    public \n    updateIncomeClaimed(msg.sender)\n    updateIncomeClaimed(_spender)\n    returns (bool success) {\n        allowed[msg.sender][_spender] = _amount;\n        emit Approval(msg.sender, _spender, _amount);\n        ApproveAndCallFallBack(_spender).receiveApproval(msg.sender, _amount, address(this), _data);\n        return true;\n    }\n\n    // // ------------------------------------------------------------------------\n    // // Updates incomeClaimed, sends all wei to the owner\n    // // ------------------------------------------------------------------------\n    // function collectOwedDividends()\n    //   public\n    //   updateIncomeClaimed(msg.sender)\n    //   returns (uint _amount) {\n    //     _amount = incomeClaimed[msg.sender].div(scalingFactor);\n    //     delete incomeClaimed[msg.sender]; \n    //     msg.sender.transfer(_amount); \n    //     emit LogIncomeCollected(now, msg.sender, _amount);\n    // }\n\n    // ------------------------------------------------------------------------\n    // Returns the number of tokens in circulation\n    // ------------------------------------------------------------------------\n    function totalSupply()\n    public \n    view \n    returns (uint tokenSupply) { \n        return supply; \n    }\n\n    // ------------------------------------------------------------------------\n    // Returns the token balance of user\n    // ------------------------------------------------------------------------\n    function balanceOf(address _tokenHolder) \n    public \n    view \n    returns (uint balance) {\n        return balances[_tokenHolder];\n    }\n\n\n    // ------------------------------------------------------------------------\n    //                           Constant functions \n    // ------------------------------------------------------------------------\n\n    // ------------------------------------------------------------------------\n    // Returns amount of tokens _spender is allowed to transfer or burn\n    // ------------------------------------------------------------------------\n    function allowance(address _tokenHolder, address _spender) \n    public \n    view \n    returns (uint) {\n        return allowed[_tokenHolder][_spender];\n    }\n\n    // ------------------------------------------------------------------------\n    // Calculates how value _user holds\n    // ------------------------------------------------------------------------\n    function getAmountOwed(address _user)\n      private\n      view\n      returns (uint) {\n        uint valuePerTokenDifference = valuePerToken.sub(previousValuePerToken[_user]);\n        return valuePerTokenDifference.mul(balances[_user]);\n    }\n\n    // ------------------------------------------------------------------------\n    // Calculates how much wei user is owed. (points + incomeClaimed) / 10**32\n    // ------------------------------------------------------------------------\n    function getOwedDividends(address _user)\n    public\n    constant\n    returns (uint) {\n        return (getAmountOwed(_user).add(incomeClaimed[_user]).div(scalingFactor));\n    }\n\n\n\n    // ------------------------------------------------------------------------\n    //                            Modifiers \n    // ------------------------------------------------------------------------\n\n    // ------------------------------------------------------------------------\n    // Updates the amount owed to user while holding tokenSupply\n    // @dev must be called before transfering tokens\n    // ------------------------------------------------------------------------\n    modifier updateIncomeClaimed(address _user) { \n        incomeClaimed[_user] = incomeClaimed[_user].add(getAmountOwed(_user));\n        previousValuePerToken[_user] = valuePerToken;\n        _; \n    }\n\n    // ------------------------------------------------------------------------\n    // Fallback function:\n    // TODO: Let each Asset handle income or do it all in AssetBank?? \n    // ------------------------------------------------------------------------\n    function ()\n      payable\n      requiresEther\n      public {\n        valuePerToken = valuePerToken.add(msg.value.mul(scalingFactor).div(supply));\n        assetIncome = assetIncome.add(msg.value);\n        emit LogIncomeReceived(msg.sender, msg.value);\n    }\n\n    // ------------------------------------------------------------------------\n    // Fallback function: Reject Ether payments\n    // ------------------------------------------------------------------------\n    // function () \n    // public \n    // payable {\n    //     revert();\n    // }\n\n    //------------------------------------------------------------------------------------------------------------------\n    // Requires that Ether is sent with the transaction\n    //------------------------------------------------------------------------------------------------------------------\n    modifier requiresEther {\n        require(msg.value > 0);\n        _;\n    }\n\n    event LogIncomeReceived(address indexed _sender, uint _paymentAmount);\n\n}\n\n\n",
  "sourcePath": "/home/peter/Documents/Work/MyBit/MyBit-Network.tech/contracts/alphacontracts/contracts/AssetToken.sol",
  "compiler": {
    "name": "solc",
    "version": "0.4.24+commit.e67f0147.Emscripten.clang"
  },
  "schemaVersion": "2.0.1",
  "updatedAt": "2018-09-08T14:16:35.187Z"
}