{
  "contractName": "AssetGovernance",
  "abi": [
    {
      "constant": true,
      "inputs": [],
      "name": "database",
      "outputs": [
        {
          "name": "",
          "type": "address"
        }
      ],
      "payable": false,
      "stateMutability": "view",
      "type": "function"
    },
    {
      "inputs": [
        {
          "name": "_database",
          "type": "address"
        }
      ],
      "payable": false,
      "stateMutability": "nonpayable",
      "type": "constructor"
    },
    {
      "constant": false,
      "inputs": [
        {
          "name": "_executingContract",
          "type": "address"
        },
        {
          "name": "_assetID",
          "type": "bytes32"
        },
        {
          "name": "_methodID",
          "type": "bytes4"
        },
        {
          "name": "_parameterHash",
          "type": "bytes32"
        },
        {
          "name": "_amountToLock",
          "type": "uint256"
        }
      ],
      "name": "voteForExecution",
      "outputs": [
        {
          "name": "",
          "type": "bool"
        }
      ],
      "payable": false,
      "stateMutability": "nonpayable",
      "type": "function"
    },
    {
      "constant": false,
      "inputs": [
        {
          "name": "_executingContract",
          "type": "address"
        },
        {
          "name": "_assetID",
          "type": "bytes32"
        },
        {
          "name": "_methodID",
          "type": "bytes4"
        },
        {
          "name": "_parameterHash",
          "type": "bytes32"
        },
        {
          "name": "_amountToUnlock",
          "type": "uint256"
        }
      ],
      "name": "unlockToken",
      "outputs": [
        {
          "name": "",
          "type": "bool"
        }
      ],
      "payable": false,
      "stateMutability": "nonpayable",
      "type": "function"
    },
    {
      "constant": true,
      "inputs": [
        {
          "name": "_executingContract",
          "type": "address"
        },
        {
          "name": "_assetID",
          "type": "bytes32"
        },
        {
          "name": "_methodID",
          "type": "bytes4"
        },
        {
          "name": "_parameterHash",
          "type": "bytes32"
        }
      ],
      "name": "isConsensusReached",
      "outputs": [
        {
          "name": "",
          "type": "bool"
        }
      ],
      "payable": false,
      "stateMutability": "view",
      "type": "function"
    }
  ],
  "bytecode": "0x608060405234801561001057600080fd5b50604051602080611eeb83398101806040528101908080519060200190929190505050806000806101000a81548173ffffffffffffffffffffffffffffffffffffffff021916908373ffffffffffffffffffffffffffffffffffffffff16021790555050611e68806100836000396000f300608060405260043610610062576000357c0100000000000000000000000000000000000000000000000000000000900463ffffffff168063713b563f146100675780637455add0146100be57806383fb8c3f14610168578063f6702fbf14610208575b600080fd5b34801561007357600080fd5b5061007c6102b2565b604051808273ffffffffffffffffffffffffffffffffffffffff1673ffffffffffffffffffffffffffffffffffffffff16815260200191505060405180910390f35b3480156100ca57600080fd5b5061014e600480360381019080803573ffffffffffffffffffffffffffffffffffffffff169060200190929190803560001916906020019092919080357bffffffffffffffffffffffffffffffffffffffffffffffffffffffff191690602001909291908035600019169060200190929190803590602001909291905050506102d7565b604051808215151515815260200191505060405180910390f35b34801561017457600080fd5b506101ee600480360381019080803573ffffffffffffffffffffffffffffffffffffffff169060200190929190803560001916906020019092919080357bffffffffffffffffffffffffffffffffffffffffffffffffffffffff191690602001909291908035600019169060200190929190505050610a8d565b604051808215151515815260200191505060405180910390f35b34801561021457600080fd5b50610298600480360381019080803573ffffffffffffffffffffffffffffffffffffffff169060200190929190803560001916906020019092919080357bffffffffffffffffffffffffffffffffffffffffffffffffffffffff19169060200190929190803560001916906020019092919080359060200190929190505050610f9f565b604051808215151515815260200191505060405180910390f35b6000809054906101000a900473ffffffffffffffffffffffffffffffffffffffff1681565b60008060008060008089600073ffffffffffffffffffffffffffffffffffffffff166000809054906101000a900473ffffffffffffffffffffffffffffffffffffffff1673ffffffffffffffffffffffffffffffffffffffff166304f49a3a8360405160200180807f746f6b656e416464726573730000000000000000000000000000000000000000815250600c0182600019166000191681526020019150506040516020818303038152906040526040518082805190602001908083835b6020831015156103bb5780518252602082019150602081019050602083039250610396565b6001836020036101000a03801982511681845116808217855250505050505090500191505060405180910390206040518263ffffffff167c0100000000000000000000000000000000000000000000000000000000028152600401808260001916600019168152602001915050602060405180830381600087803b15801561044257600080fd5b505af1158015610456573d6000803e3d6000fd5b505050506040513d602081101561046c57600080fd5b810190808051906020019092919050505073ffffffffffffffffffffffffffffffffffffffff16141515156104a057600080fd5b8b8b8b8b604051602001808573ffffffffffffffffffffffffffffffffffffffff1673ffffffffffffffffffffffffffffffffffffffff166c010000000000000000000000000281526014018460001916600019168152602001837bffffffffffffffffffffffffffffffffffffffffffffffffffffffff19167bffffffffffffffffffffffffffffffffffffffffffffffffffffffff1916815260040182600019166000191681526020019450505050506040516020818303038152906040526040518082805190602001908083835b6020831015156105965780518252602082019150602081019050602083039250610571565b6001836020036101000a038019825116818451168082178552505050505050905001915050604051809103902095508560405160200180807f766f7465546f74616c000000000000000000000000000000000000000000000081525060090182600019166000191681526020019150506040516020818303038152906040526040518082805190602001908083835b60208310151561064a5780518252602082019150602081019050602083039250610625565b6001836020036101000a038019825116818451168082178552505050505050905001915050604051809103902094508560405160200180807f696e766573746f72566f74657300000000000000000000000000000000000000815250600d0182600019166000191681526020019150506040516020818303038152906040526040518082805190602001908083835b6020831015156106fe57805182526020820191506020810190506020830392506106d9565b6001836020036101000a038019825116818451168082178552505050505050905001915050604051809103902093506000809054906101000a900473ffffffffffffffffffffffffffffffffffffffff1673ffffffffffffffffffffffffffffffffffffffff1663a855d4ce856040518263ffffffff167c0100000000000000000000000000000000000000000000000000000000028152600401808260001916600019168152602001915050602060405180830381600087803b1580156107c557600080fd5b505af11580156107d9573d6000803e3d6000fd5b505050506040513d60208110156107ef57600080fd5b810190808051906020019092919050505092506000809054906101000a900473ffffffffffffffffffffffffffffffffffffffff1673ffffffffffffffffffffffffffffffffffffffff1663a855d4ce866040518263ffffffff167c0100000000000000000000000000000000000000000000000000000000028152600401808260001916600019168152602001915050602060405180830381600087803b15801561089a57600080fd5b505af11580156108ae573d6000803e3d6000fd5b505050506040513d60208110156108c457600080fd5b810190808051906020019092919050505091508783111515156108e657600080fd5b6000809054906101000a900473ffffffffffffffffffffffffffffffffffffffff1673ffffffffffffffffffffffffffffffffffffffff1663e2a4853a866109378b8661179f90919063ffffffff16565b6040518363ffffffff167c010000000000000000000000000000000000000000000000000000000002815260040180836000191660001916815260200182815260200192505050600060405180830381600087803b15801561099857600080fd5b505af11580156109ac573d6000803e3d6000fd5b505050506000809054906101000a900473ffffffffffffffffffffffffffffffffffffffff1673ffffffffffffffffffffffffffffffffffffffff1663e2a4853a85610a018b8761179f90919063ffffffff16565b6040518363ffffffff167c010000000000000000000000000000000000000000000000000000000002815260040180836000191660001916815260200182815260200192505050600060405180830381600087803b158015610a6257600080fd5b505af1158015610a76573d6000803e3d6000fd5b505050506001965050505050505095945050505050565b60008060008060008060009054906101000a900473ffffffffffffffffffffffffffffffffffffffff1673ffffffffffffffffffffffffffffffffffffffff166304f49a3a8960405160200180807f746f6b656e416464726573730000000000000000000000000000000000000000815250600c0182600019166000191681526020019150506040516020818303038152906040526040518082805190602001908083835b602083101515610b575780518252602082019150602081019050602083039250610b32565b6001836020036101000a03801982511681845116808217855250505050505090500191505060405180910390206040518263ffffffff167c0100000000000000000000000000000000000000000000000000000000028152600401808260001916600019168152602001915050602060405180830381600087803b158015610bde57600080fd5b505af1158015610bf2573d6000803e3d6000fd5b505050506040513d6020811015610c0857600080fd5b8101908080519060200190929190505050935088888888604051602001808573ffffffffffffffffffffffffffffffffffffffff1673ffffffffffffffffffffffffffffffffffffffff166c010000000000000000000000000281526014018460001916600019168152602001837bffffffffffffffffffffffffffffffffffffffffffffffffffffffff19167bffffffffffffffffffffffffffffffffffffffffffffffffffffffff1916815260040182600019166000191681526020019450505050506040516020818303038152906040526040518082805190602001908083835b602083101515610d115780518252602082019150602081019050602083039250610cec565b6001836020036101000a038019825116818451168082178552505050505050905001915050604051809103902092508260405160200180807f766f7465546f74616c000000000000000000000000000000000000000000000081525060090182600019166000191681526020019150506040516020818303038152906040526040518082805190602001908083835b602083101515610dc55780518252602082019150602081019050602083039250610da0565b6001836020036101000a038019825116818451168082178552505050505050905001915050604051809103902091508373ffffffffffffffffffffffffffffffffffffffff166318160ddd6040518163ffffffff167c0100000000000000000000000000000000000000000000000000000000028152600401602060405180830381600087803b158015610e5857600080fd5b505af1158015610e6c573d6000803e3d6000fd5b505050506040513d6020811015610e8257600080fd5b810190808051906020019092919050505090506021610f8f82610f8160646000809054906101000a900473ffffffffffffffffffffffffffffffffffffffff1673ffffffffffffffffffffffffffffffffffffffff1663a855d4ce886040518263ffffffff167c0100000000000000000000000000000000000000000000000000000000028152600401808260001916600019168152602001915050602060405180830381600087803b158015610f3857600080fd5b505af1158015610f4c573d6000803e3d6000fd5b505050506040513d6020811015610f6257600080fd5b81019080805190602001909291905050506117b890919063ffffffff16565b6117f390919063ffffffff16565b1015945050505050949350505050565b60008060008060008089600073ffffffffffffffffffffffffffffffffffffffff166000809054906101000a900473ffffffffffffffffffffffffffffffffffffffff1673ffffffffffffffffffffffffffffffffffffffff166304f49a3a8360405160200180807f746f6b656e416464726573730000000000000000000000000000000000000000815250600c0182600019166000191681526020019150506040516020818303038152906040526040518082805190602001908083835b602083101515611083578051825260208201915060208101905060208303925061105e565b6001836020036101000a03801982511681845116808217855250505050505090500191505060405180910390206040518263ffffffff167c0100000000000000000000000000000000000000000000000000000000028152600401808260001916600019168152602001915050602060405180830381600087803b15801561110a57600080fd5b505af115801561111e573d6000803e3d6000fd5b505050506040513d602081101561113457600080fd5b810190808051906020019092919050505073ffffffffffffffffffffffffffffffffffffffff161415151561116857600080fd5b8b8b8b8b604051602001808573ffffffffffffffffffffffffffffffffffffffff1673ffffffffffffffffffffffffffffffffffffffff166c010000000000000000000000000281526014018460001916600019168152602001837bffffffffffffffffffffffffffffffffffffffffffffffffffffffff19167bffffffffffffffffffffffffffffffffffffffffffffffffffffffff1916815260040182600019166000191681526020019450505050506040516020818303038152906040526040518082805190602001908083835b60208310151561125e5780518252602082019150602081019050602083039250611239565b6001836020036101000a038019825116818451168082178552505050505050905001915050604051809103902095508560405160200180807f766f7465546f74616c000000000000000000000000000000000000000000000081525060090182600019166000191681526020019150506040516020818303038152906040526040518082805190602001908083835b60208310151561131257805182526020820191506020810190506020830392506112ed565b6001836020036101000a03801982511681845116808217855250505050505090500191505060405180910390209450853360405160200180807f696e766573746f72566f74657300000000000000000000000000000000000000815250600d0183600019166000191681526020018273ffffffffffffffffffffffffffffffffffffffff1673ffffffffffffffffffffffffffffffffffffffff166c01000000000000000000000000028152601401925050506040516020818303038152906040526040518082805190602001908083835b60208310151561140957805182526020820191506020810190506020830392506113e4565b6001836020036101000a038019825116818451168082178552505050505050905001915050604051809103902093506000809054906101000a900473ffffffffffffffffffffffffffffffffffffffff1673ffffffffffffffffffffffffffffffffffffffff1663a855d4ce866040518263ffffffff167c0100000000000000000000000000000000000000000000000000000000028152600401808260001916600019168152602001915050602060405180830381600087803b1580156114d057600080fd5b505af11580156114e4573d6000803e3d6000fd5b505050506040513d60208110156114fa57600080fd5b810190808051906020019092919050505092506000809054906101000a900473ffffffffffffffffffffffffffffffffffffffff1673ffffffffffffffffffffffffffffffffffffffff1663a855d4ce856040518263ffffffff167c0100000000000000000000000000000000000000000000000000000000028152600401808260001916600019168152602001915050602060405180830381600087803b1580156115a557600080fd5b505af11580156115b9573d6000803e3d6000fd5b505050506040513d60208110156115cf57600080fd5b810190808051906020019092919050505091506115ed8b338a611809565b15156115f857600080fd5b6000809054906101000a900473ffffffffffffffffffffffffffffffffffffffff1673ffffffffffffffffffffffffffffffffffffffff1663e2a4853a866116498b87611e1e90919063ffffffff16565b6040518363ffffffff167c010000000000000000000000000000000000000000000000000000000002815260040180836000191660001916815260200182815260200192505050600060405180830381600087803b1580156116aa57600080fd5b505af11580156116be573d6000803e3d6000fd5b505050506000809054906101000a900473ffffffffffffffffffffffffffffffffffffffff1673ffffffffffffffffffffffffffffffffffffffff1663e2a4853a856117138b86611e1e90919063ffffffff16565b6040518363ffffffff167c010000000000000000000000000000000000000000000000000000000002815260040180836000191660001916815260200182815260200192505050600060405180830381600087803b15801561177457600080fd5b505af1158015611788573d6000803e3d6000fd5b505050506001965050505050505095945050505050565b60008282111515156117ad57fe5b818303905092915050565b60008060008414156117cd57600091506117ec565b82840290508284828115156117de57fe5b041415156117e857fe5b8091505b5092915050565b6000818381151561180057fe5b04905092915050565b60008060008060009054906101000a900473ffffffffffffffffffffffffffffffffffffffff1673ffffffffffffffffffffffffffffffffffffffff166304f49a3a8760405160200180807f746f6b656e416464726573730000000000000000000000000000000000000000815250600c0182600019166000191681526020019150506040516020818303038152906040526040518082805190602001908083835b6020831015156118d057805182526020820191506020810190506020830392506118ab565b6001836020036101000a03801982511681845116808217855250505050505090500191505060405180910390206040518263ffffffff167c0100000000000000000000000000000000000000000000000000000000028152600401808260001916600019168152602001915050602060405180830381600087803b15801561195757600080fd5b505af115801561196b573d6000803e3d6000fd5b505050506040513d602081101561198157600080fd5b810190808051906020019092919050505091506000809054906101000a900473ffffffffffffffffffffffffffffffffffffffff1673ffffffffffffffffffffffffffffffffffffffff1663a855d4ce878760405160200180807f746f6b656e734c6f636b65640000000000000000000000000000000000000000815250600c0183600019166000191681526020018273ffffffffffffffffffffffffffffffffffffffff1673ffffffffffffffffffffffffffffffffffffffff166c01000000000000000000000000028152601401925050506040516020818303038152906040526040518082805190602001908083835b602083101515611a995780518252602082019150602081019050602083039250611a74565b6001836020036101000a03801982511681845116808217855250505050505090500191505060405180910390206040518263ffffffff167c0100000000000000000000000000000000000000000000000000000000028152600401808260001916600019168152602001915050602060405180830381600087803b158015611b2057600080fd5b505af1158015611b34573d6000803e3d6000fd5b505050506040513d6020811015611b4a57600080fd5b81019080805190602001909291905050509050611c45818373ffffffffffffffffffffffffffffffffffffffff166370a08231886040518263ffffffff167c0100000000000000000000000000000000000000000000000000000000028152600401808273ffffffffffffffffffffffffffffffffffffffff1673ffffffffffffffffffffffffffffffffffffffff168152602001915050602060405180830381600087803b158015611bfc57600080fd5b505af1158015611c10573d6000803e3d6000fd5b505050506040513d6020811015611c2657600080fd5b810190808051906020019092919050505061179f90919063ffffffff16565b8411151515611c5357600080fd5b6000809054906101000a900473ffffffffffffffffffffffffffffffffffffffff1673ffffffffffffffffffffffffffffffffffffffff1663e2a4853a878760405160200180807f746f6b656e734c6f636b65640000000000000000000000000000000000000000815250600c0183600019166000191681526020018273ffffffffffffffffffffffffffffffffffffffff1673ffffffffffffffffffffffffffffffffffffffff166c01000000000000000000000000028152601401925050506040516020818303038152906040526040518082805190602001908083835b602083101515611d585780518252602082019150602081019050602083039250611d33565b6001836020036101000a0380198251168184511680821785525050505050509050019150506040518091039020611d988785611e1e90919063ffffffff16565b6040518363ffffffff167c010000000000000000000000000000000000000000000000000000000002815260040180836000191660001916815260200182815260200192505050600060405180830381600087803b158015611df957600080fd5b505af1158015611e0d573d6000803e3d6000fd5b505050506001925050509392505050565b6000808284019050838110151515611e3257fe5b80915050929150505600a165627a7a72305820385947dc9c053e44c346d646bd02d5d70f71972bb22d3332f023b2d880f052010029",
  "source": "pragma solidity 0.4.24;\n\nimport \"../math/SafeMath.sol\";\ninterface Burner { function burnEscrow(bytes32 _assetID) external returns (bool); }\ninterface Escrow { function unlockEscrow(bytes32 _assetID) external returns (bool); }\ninterface DB {\n  function addressStorage(bytes32 _key) external  view returns (address);\n  function uintStorage(bytes32 _key) external view returns (uint);\n  function setUint(bytes32 _key, uint _value) external;\n}\ninterface TokenView {\n  function totalSupply() external view returns (uint);\n  function balanceOf(address _tokenHolder) external view returns (uint);\n}\n\n// @title A contract to manage the governance of assets on the platform\n// @author Kyle Dewhurst, MyBit Foundation\n// @notice All token holders of an asset can vote here\ncontract AssetGovernance {\n  using SafeMath for uint256;\n\n  DB public database;\n\n\n  constructor(address _database)\n  public {\n    database = DB(_database);\n  }\n\n\n  // @param (bytes32) _parameterHash = The hash of the exact parameter to be called for function...\n  // @dev ie sha3(_assetID) or sha3(_assetID, someAddress)\n  function voteForExecution(address _executingContract, bytes32 _assetID, bytes4 _methodID, bytes32 _parameterHash, uint _amountToLock)\n  external\n  validAsset(_assetID)\n  returns (bool) {\n    bytes32 executionID = keccak256(abi.encodePacked(_executingContract, _assetID, _methodID, _parameterHash));\n    bytes32 numVotesID = keccak256(abi.encodePacked(\"voteTotal\", executionID));\n    bytes32 investorVotesID = keccak256(abi.encodePacked(\"investorVotes\", executionID, msg.sender));\n    uint256 numVotes = database.uintStorage(numVotesID);\n    uint256 investorVotes = database.uintStorage(investorVotesID);\n    require(lockTokens(_assetID, msg.sender, _amountToLock));\n    database.setUint(numVotesID, numVotes.add(_amountToLock));\n    database.setUint(investorVotesID, investorVotes.add(_amountToLock));\n    return true;\n  }\n\n\n  // @notice unlock tokens, removing them from the vote\n  // @dev _executionID should be looked up in event logs. it is equal to sha3(_assetID, _methodID, _parameterHash)\n  function unlockToken(address _executingContract, bytes32 _assetID, bytes4 _methodID, bytes32 _parameterHash, uint _amountToUnlock)\n  external\n  validAsset(_assetID)\n  returns (bool) {\n    bytes32 executionID = keccak256(abi.encodePacked(_executingContract, _assetID, _methodID, _parameterHash));\n    bytes32 voteTotalID = keccak256(abi.encodePacked(\"voteTotal\", executionID));\n    bytes32 investorVotesID = keccak256(abi.encodePacked(\"investorVotes\", executionID));\n    uint investorVotes = database.uintStorage(investorVotesID);\n    uint totalVotes = database.uintStorage(voteTotalID);\n    require(investorVotes <= _amountToUnlock);   // 1 vote = 1 token\n    database.setUint(voteTotalID, totalVotes.sub(_amountToUnlock));\n    database.setUint(investorVotesID, investorVotes.sub(_amountToUnlock));\n    return true;\n  }\n\n  //////////////////////////////////////////////////////////////////////////////////////////////////////////////////\n  //                                            Public Functions\n  //////////////////////////////////////////////////////////////////////////////////////////////////////////////////\n\n  // @notice  Checks that 1/3 or more of token holders agreed on function call\n  function isConsensusReached(address _executingContract, bytes32 _assetID, bytes4 _methodID, bytes32 _parameterHash)\n  public\n  view\n  returns (bool) {\n    TokenView assetToken = TokenView(database.addressStorage(keccak256(abi.encodePacked(\"tokenAddress\", _assetID))));\n    bytes32 executionID = keccak256(abi.encodePacked(_executingContract, _assetID, _methodID, _parameterHash));\n    bytes32 numVotesID = keccak256(abi.encodePacked(\"voteTotal\", executionID));\n    uint256 numTokens = assetToken.totalSupply();\n    return database.uintStorage(numVotesID).mul(100).div(numTokens) >= 33;\n  }\n\n\n  //////////////////////////////////////////////////////////////////////////////////////////////////////////////////\n  //                                            Internal Functions\n  //////////////////////////////////////////////////////////////////////////////////////////////////////////////////\n\n  // @notice lock asset tokens to be able to vote\n  // @dev keeps track of how many assetTokens this investor has locked (for GovernedToken checks)\n  function lockTokens(bytes32 _assetID, address _investor, uint _amount)\n  internal\n  returns (bool) {\n    TokenView assetToken = TokenView(database.addressStorage(keccak256(abi.encodePacked(\"tokenAddress\", _assetID))));\n    uint numTokensLocked = database.uintStorage(keccak256(abi.encodePacked(\"tokensLocked\", _assetID, _investor)));\n    require(_amount <= assetToken.balanceOf(_investor).sub(numTokensLocked));\n    database.setUint(keccak256(abi.encodePacked(\"tokensLocked\", _assetID, _investor)), numTokensLocked.add(_amount));\n    return true;\n  }\n\n\n  //////////////////////////////////////////////////////////////////////////////////////////////////////////////////\n  //                                            Modifiers\n  //////////////////////////////////////////////////////////////////////////////////////////////////////////////////\n\n  // @notice add this modifer to functions that you want multi-sig requirements for\n  // @dev function can only be called after at least n >= quorumLevel owners have agreed to call it\n  modifier hasConsensus(bytes32 _assetID, bytes4 _methodID, bytes32 _parameterHash) {\n    require(isConsensusReached(address(this), _assetID, _methodID, _parameterHash));   // owners must have agreed on function + parameters\n    _;\n  }\n\n  // @notice reverts if the asset does not have a token address set in the database\n  modifier validAsset(bytes32 _assetID) {\n    require(database.addressStorage(keccak256(abi.encodePacked(\"tokenAddress\", _assetID))) != address(0));\n    _;\n  }\n\n}\n",
  "sourcePath": "/home/peter/Documents/Work/MyBit/MyBit-Network.tech/contracts/ownership/AssetGovernance.sol",
  "compiler": {
    "name": "solc",
    "version": "0.4.24+commit.e67f0147.Emscripten.clang"
  },
  "schemaVersion": "2.0.1",
  "updatedAt": "2018-10-17T18:28:17.839Z"
}