{
  "contractName": "AssetExchange",
  "abi": [
    {
      "constant": true,
      "inputs": [],
      "name": "database",
      "outputs": [
        {
          "name": "",
          "type": "address"
        }
      ],
      "payable": false,
      "stateMutability": "view",
      "type": "function"
    },
    {
      "constant": true,
      "inputs": [],
      "name": "events",
      "outputs": [
        {
          "name": "",
          "type": "address"
        }
      ],
      "payable": false,
      "stateMutability": "view",
      "type": "function"
    },
    {
      "constant": true,
      "inputs": [
        {
          "name": "",
          "type": "address"
        },
        {
          "name": "",
          "type": "bytes32"
        }
      ],
      "name": "orders",
      "outputs": [
        {
          "name": "",
          "type": "bool"
        }
      ],
      "payable": false,
      "stateMutability": "view",
      "type": "function"
    },
    {
      "constant": true,
      "inputs": [
        {
          "name": "",
          "type": "address"
        }
      ],
      "name": "weiOwed",
      "outputs": [
        {
          "name": "",
          "type": "uint256"
        }
      ],
      "payable": false,
      "stateMutability": "view",
      "type": "function"
    },
    {
      "constant": true,
      "inputs": [
        {
          "name": "",
          "type": "address"
        }
      ],
      "name": "weiDeposited",
      "outputs": [
        {
          "name": "",
          "type": "uint256"
        }
      ],
      "payable": false,
      "stateMutability": "view",
      "type": "function"
    },
    {
      "inputs": [
        {
          "name": "_database",
          "type": "address"
        },
        {
          "name": "_events",
          "type": "address"
        }
      ],
      "payable": false,
      "stateMutability": "nonpayable",
      "type": "constructor"
    },
    {
      "constant": false,
      "inputs": [
        {
          "name": "_assetID",
          "type": "bytes32"
        },
        {
          "name": "_buyer",
          "type": "address"
        },
        {
          "name": "_seller",
          "type": "address"
        },
        {
          "name": "_amount",
          "type": "uint256"
        },
        {
          "name": "_price",
          "type": "uint256"
        }
      ],
      "name": "buyAsset",
      "outputs": [
        {
          "name": "",
          "type": "bool"
        }
      ],
      "payable": true,
      "stateMutability": "payable",
      "type": "function"
    },
    {
      "constant": false,
      "inputs": [
        {
          "name": "_assetID",
          "type": "bytes32"
        },
        {
          "name": "_seller",
          "type": "address"
        },
        {
          "name": "_buyer",
          "type": "address"
        },
        {
          "name": "_amount",
          "type": "uint256"
        },
        {
          "name": "_price",
          "type": "uint256"
        }
      ],
      "name": "sellAsset",
      "outputs": [
        {
          "name": "",
          "type": "bool"
        }
      ],
      "payable": false,
      "stateMutability": "nonpayable",
      "type": "function"
    },
    {
      "constant": false,
      "inputs": [
        {
          "name": "_assetID",
          "type": "bytes32"
        },
        {
          "name": "_buyer",
          "type": "address"
        },
        {
          "name": "_amount",
          "type": "uint256"
        },
        {
          "name": "_price",
          "type": "uint256"
        }
      ],
      "name": "createBuyOrder",
      "outputs": [
        {
          "name": "",
          "type": "bool"
        }
      ],
      "payable": true,
      "stateMutability": "payable",
      "type": "function"
    },
    {
      "constant": false,
      "inputs": [
        {
          "name": "_assetID",
          "type": "bytes32"
        },
        {
          "name": "_seller",
          "type": "address"
        },
        {
          "name": "_amount",
          "type": "uint256"
        },
        {
          "name": "_price",
          "type": "uint256"
        }
      ],
      "name": "createSellOrder",
      "outputs": [
        {
          "name": "",
          "type": "bool"
        }
      ],
      "payable": false,
      "stateMutability": "nonpayable",
      "type": "function"
    },
    {
      "constant": false,
      "inputs": [
        {
          "name": "_assetID",
          "type": "bytes32"
        },
        {
          "name": "_orderMaker",
          "type": "address"
        },
        {
          "name": "_amount",
          "type": "uint256"
        },
        {
          "name": "_price",
          "type": "uint256"
        },
        {
          "name": "_buyOrder",
          "type": "bool"
        }
      ],
      "name": "deleteOrder",
      "outputs": [
        {
          "name": "",
          "type": "bool"
        }
      ],
      "payable": false,
      "stateMutability": "nonpayable",
      "type": "function"
    },
    {
      "constant": false,
      "inputs": [],
      "name": "withdraw",
      "outputs": [
        {
          "name": "",
          "type": "bool"
        }
      ],
      "payable": false,
      "stateMutability": "nonpayable",
      "type": "function"
    },
    {
      "constant": false,
      "inputs": [
        {
          "name": "_functionInitiator",
          "type": "address"
        },
        {
          "name": "_holdingAddress",
          "type": "address"
        }
      ],
      "name": "destroy",
      "outputs": [],
      "payable": false,
      "stateMutability": "nonpayable",
      "type": "function"
    }
  ],
  "bytecode": "0x6080604052670de0b6b3a764000060055534801561001c57600080fd5b50604051604080612a1583398101604052805160209091015160008054600160a060020a03938416600160a060020a031991821617909155600180549390921692169190911790556129a2806100736000396000f3006080604052600436106100a05763ffffffff60e060020a600035041663315ee44581146100a557806338a6a737146100e95780633ccfd60b1461011857806362b40f9f1461012d578063713b563f14610156578063737d2f2414610187578063b5f8558c146101aa578063b8ea6864146101bf578063bb5f4629146101e9578063d9c3ffcc1461020d578063e6047d471461022a578063fe6dcca31461025d575b600080fd5b3480156100b157600080fd5b506100d5600435600160a060020a036024358116906044351660643560843561027e565b604080519115158252519081900360200190f35b3480156100f557600080fd5b506100d5600435600160a060020a03602435166044356064356084351515610bc9565b34801561012457600080fd5b506100d5610ec8565b34801561013957600080fd5b50610154600160a060020a036004358116906024351661103a565b005b34801561016257600080fd5b5061016b611421565b60408051600160a060020a039092168252519081900360200190f35b6100d5600435600160a060020a0360243581169060443516606435608435611430565b3480156101b657600080fd5b5061016b611d10565b3480156101cb57600080fd5b506100d5600435600160a060020a0360243516604435606435611d1f565b3480156101f557600080fd5b506100d5600160a060020a03600435166024356122fb565b6100d5600435600160a060020a036024351660443560643561231b565b34801561023657600080fd5b5061024b600160a060020a03600435166128a6565b60408051918252519081900360200190f35b34801561026957600080fd5b5061024b600160a060020a03600435166128b8565b60008054604080517f7061757365640000000000000000000000000000000000000000000000000000602080830191909152606060020a300260268301528251601a818403018152603a909201928390528151859485948594600160a060020a0390921693633b7bfda09382918401908083835b602083106103115780518252601f1990920191602091820191016102f2565b51815160209384036101000a60001901801990921691161790526040805192909401829003822063ffffffff881660e060020a0283526004830152925160248083019650939450929083900301905081600087803b15801561037257600080fd5b505af1158015610386573d6000803e3d6000fd5b505050506040513d602081101561039c57600080fd5b5051156103a857600080fd5b60005460408051600080516020612957833981519152602080830191909152602c8083018e905283518084039091018152604c9092019283905281518d9433948c948594600160a060020a03909316936304f49a3a939192918291908401908083835b6020831061042a5780518252601f19909201916020918201910161040b565b51815160209384036101000a60001901801990921691161790526040805192909401829003822063ffffffff881660e060020a0283526004830152925160248083019650939450929083900301905081600087803b15801561048b57600080fd5b505af115801561049f573d6000803e3d6000fd5b505050506040513d60208110156104b557600080fd5b5051604080517fdd62ed3e000000000000000000000000000000000000000000000000000000008152600160a060020a0386811660048301523060248301529151919092169163dd62ed3e9160448083019260209291908290030181600087803b15801561052257600080fd5b505af1158015610536573d6000803e3d6000fd5b505050506040513d602081101561054c57600080fd5b5051101561055957600080fd5b33600160a060020a038c16148061070157506000809054906101000a9004600160a060020a0316600160a060020a0316633b7bfda08c3330600035600160e060020a031916604051602001808060008051602061293783398151915281525060080185600160a060020a0316600160a060020a0316606060020a02815260140184600160a060020a0316600160a060020a0316606060020a02815260140183600160a060020a0316600160a060020a0316606060020a02815260140182600160e060020a031916600160e060020a03191681526004019450505050506040516020818303038152906040526040518082805190602001908083835b602083106106735780518252601f199092019160209182019101610654565b51815160209384036101000a60001901801990921691161790526040805192909401829003822063ffffffff881660e060020a0283526004830152925160248083019650939450929083900301905081600087803b1580156106d457600080fd5b505af11580156106e8573d6000803e3d6000fd5b505050506040513d60208110156106fe57600080fd5b50515b151561070c57600080fd5b6040805160208082018f9052606060020a600160a060020a038e160282840152605482018c9052607482018b905260f860020a609483015282516075818403018152609590920192839052815191929182918401908083835b602083106107845780518252601f199092019160209182019101610765565b6001836020036101000a03801982511681845116808217855250505050505090500191505060405180910390209550600260008b600160a060020a0316600160a060020a031681526020019081526020016000206000876000191660001916815260200190815260200160002060009054906101000a900460ff16151561080a57600080fd5b60055461082d906108218b8b63ffffffff6128ca16565b9063ffffffff61290016565b94506000809054906101000a9004600160a060020a0316600160a060020a03166304f49a3a8d6040516020018080600080516020612957833981519152815250600c0182600019166000191681526020019150506040516020818303038152906040526040518082805190602001908083835b602083106108bf5780518252601f1990920191602091820191016108a0565b51815160209384036101000a60001901801990921691161790526040805192909401829003822063ffffffff881660e060020a0283526004830152925160248083019650939450929083900301905081600087803b15801561092057600080fd5b505af1158015610934573d6000803e3d6000fd5b505050506040513d602081101561094a57600080fd5b5051604080517f23b872dd000000000000000000000000000000000000000000000000000000008152600160a060020a038e811660048301528d81166024830152604482018d90529151929650908616916323b872dd916064808201926020929091908290030181600087803b1580156109c357600080fd5b505af11580156109d7573d6000803e3d6000fd5b505050506040513d60208110156109ed57600080fd5b505115156109fa57600080fd5b600160a060020a038a16600090815260036020526040902054610a23908663ffffffff61291516565b600160a060020a03808c16600090815260036020908152604080832094909455918e16815260049091522054610a5f908663ffffffff61292716565b600460008d600160a060020a0316600160a060020a0316815260200190815260200160002081905550600260008b600160a060020a0316600160a060020a031681526020019081526020016000206000876000191660001916815260200190815260200160002060006101000a81549060ff0219169055600160009054906101000a9004600160a060020a0316600160a060020a0316631519b2d5878e8e6040518463ffffffff1660e060020a02815260040180806020018560001916600019168152602001846000191660001916815260200183600160a060020a0316600160a060020a03168152602001828103825260138152602001807f427579206f7264657220636f6d706c6574656400000000000000000000000000815250602001945050505050600060405180830381600087803b158015610b9f57600080fd5b505af1158015610bb3573d6000803e3d6000fd5b5060019f9e505050505050505050505050505050565b6000808033600160a060020a0388161480610d1157506000805460408051600080516020612937833981519152602080830191909152600160a060020a038c8116606060020a9081026028850152338102603c850152300260508401529435600160e060020a03191660648301528251808303604801815260689092019283905281519490931693633b7bfda0939192918291908401908083835b60208310610c835780518252601f199092019160209182019101610c64565b51815160209384036101000a60001901801990921691161790526040805192909401829003822063ffffffff881660e060020a0283526004830152925160248083019650939450929083900301905081600087803b158015610ce457600080fd5b505af1158015610cf8573d6000803e3d6000fd5b505050506040513d6020811015610d0e57600080fd5b50515b1515610d1c57600080fd5b6040805160208082018b9052606060020a600160a060020a038b160282840152605482018990526074820188905260f860020a87151502609483015282516075818403018152609590920192839052815191929182918401908083835b60208310610d985780518252601f199092019160209182019101610d79565b51815160209384036101000a60001901801990921691161790526040805192909401829003909120600160a060020a038d16600090815260028352848120828252909252929020549195505060ff1615159150610df6905057600080fd5b8315610e8e57600554610e1390610821888863ffffffff6128ca16565b600160a060020a038816600090815260036020526040902054909150610e3f908263ffffffff61291516565b600160a060020a038816600090815260036020908152604080832093909355600490522054610e74908263ffffffff61292716565b600160a060020a0388166000908152600460205260409020555b600160a060020a03871660009081526002602090815260408083208584529091529020805460ff1916905560019250505095945050505050565b60008054604080517f7061757365640000000000000000000000000000000000000000000000000000602080830191909152606060020a300260268301528251601a818403018152603a9092019283905281518594600160a060020a031693633b7bfda09392909182918401908083835b60208310610f585780518252601f199092019160209182019101610f39565b51815160209384036101000a60001901801990921691161790526040805192909401829003822063ffffffff881660e060020a0283526004830152925160248083019650939450929083900301905081600087803b158015610fb957600080fd5b505af1158015610fcd573d6000803e3d6000fd5b505050506040513d6020811015610fe357600080fd5b505115610fef57600080fd5b5033600081815260046020526040808220805490839055905190929183156108fc02918491818181858888f19350505050158015611031573d6000803e3d6000fd5b50600191505090565b600054604080517f6f776e6572000000000000000000000000000000000000000000000000000000602080830191909152606060020a33026025830152825160198184030181526039909201928390528151600160a060020a0390941693633b7bfda093918291908401908083835b602083106110c85780518252601f1990920191602091820191016110a9565b51815160209384036101000a60001901801990921691161790526040805192909401829003822063ffffffff881660e060020a0283526004830152925160248083019650939450929083900301905081600087803b15801561112957600080fd5b505af115801561113d573d6000803e3d6000fd5b505050506040513d602081101561115357600080fd5b5051151561116057600080fd5b600160a060020a03821633141561117657600080fd5b6000809054906101000a9004600160a060020a0316600160a060020a0316633b7bfda03084846040516020018082600160a060020a0316600160a060020a0316606060020a0281526014019150506040516020818303038152906040526040518082805190602001908083835b602083106112025780518252601f1990920191602091820191016111e3565b51815160209384036101000a600019018019909216911617905260408051929094018290038220600160a060020a03988916606060020a908102848401529790981690960260348201527f64657374726f79000000000000000000000000000000000000000000000000006048820152604f8082019790975282518082039097018752606f01918290525084519093849350850191508083835b602083106112bb5780518252601f19909201916020918201910161129c565b51815160209384036101000a60001901801990921691161790526040805192909401829003822063ffffffff881660e060020a0283526004830152925160248083019650939450929083900301905081600087803b15801561131c57600080fd5b505af1158015611330573d6000803e3d6000fd5b505050506040513d602081101561134657600080fd5b5051151561135357600080fd5b600154604080517f68b962700000000000000000000000000000000000000000000000000000000081523060248201819052600160a060020a0385811660448401529031606483015260a06004830152601060a48301527f44657374726f7920636f6e74726163740000000000000000000000000000000060c4830152915191909216916368b962709160e480830192600092919082900301818387803b1580156113fd57600080fd5b505af1158015611411573d6000803e3d6000fd5b5050505080600160a060020a0316ff5b600054600160a060020a031681565b60008054604080517f7061757365640000000000000000000000000000000000000000000000000000602080830191909152606060020a300260268301528251601a818403018152603a90920192839052815185948594600160a060020a0390911693633b7bfda093909282918401908083835b602083106114c35780518252601f1990920191602091820191016114a4565b51815160209384036101000a60001901801990921691161790526040805192909401829003822063ffffffff881660e060020a0283526004830152925160248083019650939450929083900301905081600087803b15801561152457600080fd5b505af1158015611538573d6000803e3d6000fd5b505050506040513d602081101561154e57600080fd5b50511561155a57600080fd5b60005460408051600080516020612957833981519152602080830191909152602c8083018d905283518084039091018152604c9092019283905281518c948b948b948594600160a060020a03909316936304f49a3a939192918291908401908083835b602083106115dc5780518252601f1990920191602091820191016115bd565b51815160209384036101000a60001901801990921691161790526040805192909401829003822063ffffffff881660e060020a0283526004830152925160248083019650939450929083900301905081600087803b15801561163d57600080fd5b505af1158015611651573d6000803e3d6000fd5b505050506040513d602081101561166757600080fd5b5051604080517fdd62ed3e000000000000000000000000000000000000000000000000000000008152600160a060020a0386811660048301523060248301529151919092169163dd62ed3e9160448083019260209291908290030181600087803b1580156116d457600080fd5b505af11580156116e8573d6000803e3d6000fd5b505050506040513d60208110156116fe57600080fd5b5051101561170b57600080fd5b33600160a060020a038b1614806118b357506000809054906101000a9004600160a060020a0316600160a060020a0316633b7bfda08b3330600035600160e060020a031916604051602001808060008051602061293783398151915281525060080185600160a060020a0316600160a060020a0316606060020a02815260140184600160a060020a0316600160a060020a0316606060020a02815260140183600160a060020a0316600160a060020a0316606060020a02815260140182600160e060020a031916600160e060020a03191681526004019450505050506040516020818303038152906040526040518082805190602001908083835b602083106118255780518252601f199092019160209182019101611806565b51815160209384036101000a60001901801990921691161790526040805192909401829003822063ffffffff881660e060020a0283526004830152925160248083019650939450929083900301905081600087803b15801561188657600080fd5b505af115801561189a573d6000803e3d6000fd5b505050506040513d60208110156118b057600080fd5b50515b15156118be57600080fd5b6040805160208082018e9052606060020a600160a060020a038d160282840152605482018b9052607482018a90526000609483015282516075818403018152609590920192839052815191929182918401908083835b602083106119335780518252601f199092019160209182019101611914565b51815160209384036101000a60001901801990921691161790526040805192909401829003909120600160a060020a038f16600090815260028352848120828252909252929020549198505060ff1615159150611991905057600080fd5b6005546119a8906108218a8a63ffffffff6128ca16565b34146119b357600080fd5b6000809054906101000a9004600160a060020a0316600160a060020a03166304f49a3a8c6040516020018080600080516020612957833981519152815250600c0182600019166000191681526020019150506040516020818303038152906040526040518082805190602001908083835b60208310611a435780518252601f199092019160209182019101611a24565b51815160209384036101000a60001901801990921691161790526040805192909401829003822063ffffffff881660e060020a0283526004830152925160248083019650939450929083900301905081600087803b158015611aa457600080fd5b505af1158015611ab8573d6000803e3d6000fd5b505050506040513d6020811015611ace57600080fd5b5051604080517f23b872dd000000000000000000000000000000000000000000000000000000008152600160a060020a038c811660048301528d81166024830152604482018c90529151929650908616916323b872dd916064808201926020929091908290030181600087803b158015611b4757600080fd5b505af1158015611b5b573d6000803e3d6000fd5b505050506040513d6020811015611b7157600080fd5b50511515611b7e57600080fd5b600160a060020a038916600090815260046020526040902054611ba7903463ffffffff61292716565b600460008b600160a060020a0316600160a060020a0316815260200190815260200160002081905550600260008a600160a060020a0316600160a060020a031681526020019081526020016000206000866000191660001916815260200190815260200160002060006101000a81549060ff0219169055600160009054906101000a9004600160a060020a0316600160a060020a0316631519b2d5868d8d6040518463ffffffff1660e060020a02815260040180806020018560001916600019168152602001846000191660001916815260200183600160a060020a0316600160a060020a03168152602001828103825260148152602001807f53656c6c206f7264657220636f6d706c65746564000000000000000000000000815250602001945050505050600060405180830381600087803b158015611ce757600080fd5b505af1158015611cfb573d6000803e3d6000fd5b5060019e9d5050505050505050505050505050565b600154600160a060020a031681565b600080838382611d35838363ffffffff6128ca16565b11611d3f57600080fd5b87801515611d4c57600080fd5b600054604080517f63726f776473616c6546696e616c697a656400000000000000000000000000006020808301919091526032808301869052835180840390910181526052909201928390528151600160a060020a0390941693633b7bfda093918291908401908083835b60208310611dd65780518252601f199092019160209182019101611db7565b51815160209384036101000a60001901801990921691161790526040805192909401829003822063ffffffff881660e060020a0283526004830152925160248083019650939450929083900301905081600087803b158015611e3757600080fd5b505af1158015611e4b573d6000803e3d6000fd5b505050506040513d6020811015611e6157600080fd5b50511515611e6e57600080fd5b60005460408051600080516020612957833981519152602080830191909152602c8083018e905283518084039091018152604c9092019283905281518d948d948d948594600160a060020a03909316936304f49a3a939192918291908401908083835b60208310611ef05780518252601f199092019160209182019101611ed1565b51815160209384036101000a60001901801990921691161790526040805192909401829003822063ffffffff881660e060020a0283526004830152925160248083019650939450929083900301905081600087803b158015611f5157600080fd5b505af1158015611f65573d6000803e3d6000fd5b505050506040513d6020811015611f7b57600080fd5b5051604080517fdd62ed3e000000000000000000000000000000000000000000000000000000008152600160a060020a0386811660048301523060248301529151919092169163dd62ed3e9160448083019260209291908290030181600087803b158015611fe857600080fd5b505af1158015611ffc573d6000803e3d6000fd5b505050506040513d602081101561201257600080fd5b5051101561201f57600080fd5b6040805160208082018f9052606060020a600160a060020a038f160282840152605482018d9052607482018c90526000609483015282516075818403018152609590920192839052815191929182918401908083835b602083106120945780518252601f199092019160209182019101612075565b6001836020036101000a03801982511681845116808217855250505050505090500191505060405180910390209650600260008c600160a060020a0316600160a060020a031681526020019081526020016000206000886000191660001916815260200190815260200160002060009054906101000a900460ff1615151561211b57600080fd5b6001600260008d600160a060020a0316600160a060020a031681526020019081526020016000206000896000191660001916815260200190815260200160002060006101000a81548160ff021916908315150217905550600160009054906101000a9004600160a060020a0316600160a060020a0316631519b2d5888e8e6040518463ffffffff1660e060020a02815260040180806020018560001916600019168152602001846000191660001916815260200183600160a060020a0316600160a060020a03168152602001828103825260128152602001807f53656c6c206f7264657220637265617465640000000000000000000000000000815250602001945050505050600060405180830381600087803b15801561223b57600080fd5b505af115801561224f573d6000803e3d6000fd5b5050600154604080517fa1c0aafe000000000000000000000000000000000000000000000000000000008152602481018c9052604481018f9052606481018e905260806004820152600a60848201527f53656c6c206f726465720000000000000000000000000000000000000000000060a48201529051600160a060020a03909216935063a1c0aafe925060c48082019260009290919082900301818387803b158015610b9f57600080fd5b600260209081526000928352604080842090915290825290205460ff1681565b60008034811061232a57600080fd5b8383600061233e838363ffffffff6128ca16565b1161234857600080fd5b8780151561235557600080fd5b600054604080517f63726f776473616c6546696e616c697a656400000000000000000000000000006020808301919091526032808301869052835180840390910181526052909201928390528151600160a060020a0390941693633b7bfda093918291908401908083835b602083106123df5780518252601f1990920191602091820191016123c0565b51815160209384036101000a60001901801990921691161790526040805192909401829003822063ffffffff881660e060020a0283526004830152925160248083019650939450929083900301905081600087803b15801561244057600080fd5b505af1158015612454573d6000803e3d6000fd5b505050506040513d602081101561246a57600080fd5b5051151561247757600080fd5b33600160a060020a03891614806125bb57506000805460408051600080516020612937833981519152602080830191909152600160a060020a038d8116606060020a9081026028850152338102603c850152300260508401529435600160e060020a03191660648301528251808303604801815260689092019283905281519490931693633b7bfda0939192918291908401908083835b6020831061252d5780518252601f19909201916020918201910161250e565b51815160209384036101000a60001901801990921691161790526040805192909401829003822063ffffffff881660e060020a0283526004830152925160248083019650939450929083900301905081600087803b15801561258e57600080fd5b505af11580156125a2573d6000803e3d6000fd5b505050506040513d60208110156125b857600080fd5b50515b15156125c657600080fd5b6005546125dd90610821898963ffffffff6128ca16565b34146125e857600080fd5b6040805160208082018c9052606060020a600160a060020a038c160282840152605482018a90526074820189905260f860020a609483015282516075818403018152609590920192839052815191929182918401908083835b602083106126605780518252601f199092019160209182019101612641565b51815160209384036101000a60001901801990921691161790526040805192909401829003909120600160a060020a038e16600090815260028352848120828252909252929020549197505060ff161591506126bd905057600080fd5b600160a060020a03881660008181526002602090815260408083208884528252808320805460ff19166001179055928252600390522054612704903463ffffffff61292716565b600160a060020a03808a166000818152600360205260408082209490945560015484517f1519b2d5000000000000000000000000000000000000000000000000000000008152602481018a9052604481018f9052606481019390935260806004840152601160848401527f427579206f72646572206372656174656400000000000000000000000000000060a484015293519390921692631519b2d59260c48084019391929182900301818387803b1580156127bf57600080fd5b505af11580156127d3573d6000803e3d6000fd5b5050600154604080517fa1c0aafe00000000000000000000000000000000000000000000000000000000815260248101899052604481018c9052606481018b905260806004820152600960848201527f427579206f72646572000000000000000000000000000000000000000000000060a48201529051600160a060020a03909216935063a1c0aafe925060c48082019260009290919082900301818387803b15801561287f57600080fd5b505af1158015612893573d6000803e3d6000fd5b5060019c9b505050505050505050505050565b60046020526000908152604090205481565b60036020526000908152604090205481565b6000808315156128dd57600091506128f9565b508282028284828115156128ed57fe5b04146128f557fe5b8091505b5092915050565b6000818381151561290d57fe5b049392505050565b60008282111561292157fe5b50900390565b6000828201838110156128f557fe00617070726f76616c000000000000000000000000000000000000000000000000746f6b656e416464726573730000000000000000000000000000000000000000a165627a7a7230582076607c0870268bd19def3deb0ca406d3c957728fc5c0eee7d55ff7a4dae7a0440029",
  "source": "pragma solidity ^0.4.24;\nimport '../database/Database.sol';\nimport '../database/Events.sol';\nimport '../math/SafeMath.sol';\nimport '../interfaces/DivToken.sol';\n// import \"../access/ERC20Burner.sol\";\n\n\n// @title Simple decentralized exchange contract\n// @notice A sample contract to implement rudimentary asset-token trading\n// @dev Note: Users can only have 1 sell order and 1 buy order for each individual asset\n// @dev The orders are stored as as sha3 hash of critical parameters to save storage costs\ncontract AssetExchange {\n  using SafeMath for uint;\n\n  Database public database;\n  Events public events;\n  // ERC20Burner private burner;\n\n  mapping (address => mapping (bytes32 => bool)) public orders;  // Hash of (assetID, sellerAddress, amountToBuy, price, boolean(BuyOrder = true))\n\n  mapping (address => uint) public weiDeposited;\n  mapping (address => uint) public weiOwed;\n  uint private decimals = uint256(1e18);\n\n\n  // @notice constructor: initializes database\n  // @param: the address for the database contract used by this platform\n  constructor(address _database, address _events)\n  public {\n    database = Database(_database);\n    events = Events(_events);\n    // burner = ERC20Burner(database.addressStorage(keccak256(abi.encodePacked(\"contract\", \"ERC20Burner\"))));\n  }\n\n  // Gives Ether sent to initatior of this sellOrder and transfers ownership units of asset to purchaser\n  // Note: Check if creator of sell order has enough ownership units left\n  // @Param: ID of the asset, which these ownershipUnits belong to\n  // @Param: Address of the user who created SellOrder\n  // @Param: Number of ownershipUnits being traded\n  // @Param: The WEI cost per unit\n  function buyAsset(bytes32 _assetID, address _buyer, address _seller, uint _amount, uint _price)\n  external\n  payable\n  whenNotPaused\n  isAllowed(_assetID, _seller, _amount)\n  // burnRequired\n  returns (bool){\n    require(msg.sender == _buyer || database.boolStorage(keccak256(abi.encodePacked(\"approval\", _buyer, msg.sender, address(this), msg.sig))));\n    bytes32 thisOrder = keccak256(abi.encodePacked(_assetID, _seller, _amount, _price, false));\n    require(orders[_seller][thisOrder]);\n    require(msg.value == _amount.mul(_price).div(decimals));\n    DivToken assetToken = DivToken(database.addressStorage(keccak256(abi.encodePacked(\"tokenAddress\", _assetID))));\n    require(assetToken.transferFrom(_seller, _buyer, _amount));\n    weiOwed[_seller] = weiOwed[_seller].add(msg.value);\n    delete orders[_seller][thisOrder];\n    events.exchange('Sell order completed', thisOrder, _assetID, _buyer);\n    //emit LogSellOrderCompleted(thisOrder, _assetID, _buyer);\n    return true;\n  }\n\n  // Settles an open SellOrder, giving the deposited ether to sender and sender tokens to initiator of BuyOrder\n  // @Param: ID of the asset, which senders ownershipUnits belong to\n  // @Param: Address of the user who created BuyOrder\n  // @Param: Number of ownershipUnits being sold\n  // @Param: The WEI cost per unit\n  function sellAsset(bytes32 _assetID, address _seller, address _buyer, uint _amount, uint _price)\n  public\n  whenNotPaused\n  isAllowed(_assetID, msg.sender, _amount)\n  returns (bool){\n    require(msg.sender == _seller || database.boolStorage(keccak256(abi.encodePacked(\"approval\", _seller, msg.sender, address(this), msg.sig))));\n    bytes32 thisOrder = keccak256(abi.encodePacked(_assetID, _buyer, _amount, _price, true));       // Get order ID\n    require(orders[_buyer][thisOrder]);    // Check order exists\n    uint value = _amount.mul(_price).div(decimals);\n    DivToken assetToken = DivToken(database.addressStorage(keccak256(abi.encodePacked(\"tokenAddress\", _assetID))));\n    require(assetToken.transferFrom(_seller, _buyer, _amount));\n    weiDeposited[_buyer] = weiDeposited[_buyer].sub(value);\n    weiOwed[_seller] = weiOwed[_seller].add(value);\n    delete orders[_buyer][thisOrder];\n    events.exchange('Buy order completed', thisOrder, _assetID, _seller);\n    //emit LogBuyOrderCompleted(thisOrder, _assetID, _seller);\n    return true;\n  }\n\n  // Create a BuyOrder and leave WEI as a deposit for user that picks up order\n  // @Param: ID of the asset, which the sender wants to purchase ownershipUnits of\n  // @Param: Number of ownershipUnits being bought\n  // @Param: The WEI cost per unit\n  function createBuyOrder(bytes32 _assetID, address _buyer, uint _amount, uint _price)\n  external\n  payable\n  requiresEther\n  aboveZero(_amount, _price)\n  validAsset(_assetID)\n  // burnRequired\n  returns (bool) {\n    require(msg.sender == _buyer || database.boolStorage(keccak256(abi.encodePacked(\"approval\", _buyer, msg.sender, address(this), msg.sig))));\n    require(msg.value == _amount.mul(_price).div(decimals));\n    bytes32 orderID = keccak256(abi.encodePacked(_assetID, _buyer, _amount, _price, true));\n    require(!orders[_buyer][orderID]);\n    orders[_buyer][orderID] = true;\n    weiDeposited[_buyer] = weiDeposited[_buyer].add(msg.value);\n    events.exchange('Buy order created', orderID, _assetID, _buyer);\n    events.order('Buy order', orderID, _amount, _price);\n    //emit LogBuyOrderCreated(orderID, _assetID, _buyer);\n    //emit LogBuyOrderDetails(orderID, _amount, _price);\n    return true;\n  }\n\n  // Create a BuyOrder and leave WEI as a deposit for user that picks up order\n  // @Param: ID of the asset, which sender is trying to sell\n  // @Param: Number of ownershipUnits being sold\n  // @Param: The WEI cost per unit\n  function createSellOrder(bytes32 _assetID, address _seller, uint _amount, uint _price)\n  external\n  aboveZero(_amount, _price)\n  validAsset(_assetID)\n  isAllowed(_assetID, _seller, _amount)\n  returns (bool) {\n    bytes32 orderID = keccak256(abi.encodePacked(_assetID, _seller, _amount, _price, false));\n    require(!orders[_seller][orderID]);\n    orders[_seller][orderID] = true;\n    events.exchange('Sell order created', orderID, _assetID, _seller);\n    events.order('Sell order', orderID, _amount, _price);\n    //emit LogSellOrderCreated(orderID, _assetID, _seller);\n    //emit LogSellOrderDetails(orderID, _amount, _price);\n    return true;\n  }\n\n  //------------------------------------------------------------------------------------------------------------------\n  // Create a BuyOrder and leave WEI as a deposit for user that picks up order\n  // @Param: ID of the asset\n  // @Param: Number of ownershipUnits being sold\n  // @Param: The WEI cost per unit\n  // @Param: Is this order a BuyOrder?\n  //------------------------------------------------------------------------------------------------------------------\n  function deleteOrder(bytes32 _assetID, address _orderMaker, uint _amount, uint _price, bool _buyOrder)\n  external\n  returns (bool) {\n    require(msg.sender == _orderMaker || database.boolStorage(keccak256(abi.encodePacked(\"approval\", _orderMaker, msg.sender, address(this), msg.sig))));\n    bytes32 orderID = keccak256(abi.encodePacked(_assetID, _orderMaker, _amount, _price, _buyOrder));\n    require(orders[_orderMaker][orderID]);\n    if (_buyOrder) {\n      uint returnValue = _amount.mul(_price).div(decimals);\n      weiDeposited[_orderMaker] = weiDeposited[_orderMaker].sub(returnValue);\n      weiOwed[_orderMaker] = weiOwed[_orderMaker].add(returnValue);\n    }\n    delete orders[_orderMaker][orderID];\n    return true;\n  }\n  //------------------------------------------------------------------------------------------------------------------\n  // User can withdraw the wei they are owed here\n  //------------------------------------------------------------------------------------------------------------------\n  function withdraw()\n  external\n  whenNotPaused\n  returns (bool){\n    uint owed = weiOwed[msg.sender];\n    weiOwed[msg.sender] = 0;\n    msg.sender.transfer(owed);\n    return true;\n  }\n\n\n  //------------------------------------------------------------------------------------------------------------------\n  // @notice Destroys contract and sends WEI to _holdingAddress\n  //------------------------------------------------------------------------------------------------------------------\n  function destroy(address _functionInitiator, address _holdingAddress)\n  anyOwner\n  public {\n    require(_functionInitiator != msg.sender);\n    require(database.boolStorage(keccak256(abi.encodePacked(address(this), _functionInitiator, \"destroy\", keccak256(abi.encodePacked(_holdingAddress))))));\n    events.transaction('Destroy contract', address(this), _holdingAddress, address(this).balance, '');\n    //emit LogDestruction(_holdingAddress, address(this).balance, msg.sender);\n    selfdestruct(_holdingAddress);\n  }\n\n\n  //------------------------------------------------------------------------------------------------------------------\n  //                                      Modifiers\n  //------------------------------------------------------------------------------------------------------------------\n\n\n  //------------------------------------------------------------------------------------------------------------------\n  // This verifies that the asset is registered on the MyBit Platform and has successfully completed funding\n  //------------------------------------------------------------------------------------------------------------------\n  modifier validAsset(bytes32 _assetID) {\n    require (_assetID != bytes32(0));\n    require (database.boolStorage(keccak256(abi.encodePacked(\"crowdsaleFinalized\", _assetID))));\n    _;\n  }\n\n  //------------------------------------------------------------------------------------------------------------------\n  // Check if user has enough ownershipUnits to create SellOrder\n  //------------------------------------------------------------------------------------------------------------------\n  modifier isAllowed(bytes32 _assetID, address _sender, uint _tokens) {\n    require(DivToken(database.addressStorage(keccak256(abi.encodePacked(\"tokenAddress\", _assetID)))).allowance(_sender, address(this)) >= _tokens);\n    _;\n  }\n\n  //------------------------------------------------------------------------------------------------------------------\n  // Verifies that _amount or _price aren't null\n  //------------------------------------------------------------------------------------------------------------------\n  modifier aboveZero(uint _amount, uint _price) {\n    require(_amount.mul(_price) > 0);\n    _;\n  }\n\n  // // @notice reverts if user hasn't approved burner to burn platform token\n  // modifier burnRequired {\n  //   //emit LogSig(msg.sig);\n  //   require(burner.burn(msg.sender, database.uintStorage(keccak256(abi.encodePacked(msg.sig, address(this))))));\n  //   _;\n  // }\n\n  //------------------------------------------------------------------------------------------------------------------\n  // Verify contract isn't paused\n  //------------------------------------------------------------------------------------------------------------------\n  modifier whenNotPaused {\n    require(!database.boolStorage(keccak256(abi.encodePacked(\"paused\", address(this)))));\n    _;\n  }\n\n  //------------------------------------------------------------------------------------------------------------------\n  // Throw if Ether hasn't been sent\n  //------------------------------------------------------------------------------------------------------------------\n  modifier requiresEther() {\n    require(msg.value > 0);\n    _;\n  }\n\n  //------------------------------------------------------------------------------------------------------------------\n  // Verify that the sender is a registered owner\n  //------------------------------------------------------------------------------------------------------------------\n  modifier anyOwner {\n    require(database.boolStorage(keccak256(abi.encodePacked(\"owner\", msg.sender))));\n    _;\n  }\n\n\n\n  //------------------------------------------------------------------------------------------------------------------\n  //                                      Events\n  //------------------------------------------------------------------------------------------------------------------\n  /*\n  event LogDestruction(address indexed _locationSent, uint indexed _amountSent, address indexed _caller);\n  event LogBuyOrderCreated(bytes32 _orderID, bytes32 indexed _assetID, address indexed _creator);\n  event LogBuyOrderCompleted(bytes32 _orderID, bytes32 indexed _assetAddress, address indexed _purchaser);\n  event LogSellOrderCreated(bytes32 _orderID, bytes32 indexed _assetAddress, address indexed _creator);\n  event LogSellOrderCompleted(bytes32 _orderID, bytes32 indexed _assetAddress, address indexed _purchaser);\n  event LogBuyOrderDetails(bytes32 _orderID, uint indexed _amount, uint indexed _price);\n  event LogSellOrderDetails(bytes32 orderID, uint indexed _amount, uint indexed _price);\n  event LogSig(bytes4 _sig);\n  */\n}\n",
  "sourcePath": "/home/peter/Documents/Work/MyBit/MyBit-Network.tech/contracts/ecosystem/AssetExchange.sol",
  "compiler": {
    "name": "solc",
    "version": "0.4.24+commit.e67f0147.Emscripten.clang"
  },
  "schemaVersion": "2.0.1",
  "updatedAt": "2018-12-05T20:40:37.321Z"
}