{
  "contractName": "AssetManagerFunds",
  "abi": [
    {
      "constant": true,
      "inputs": [],
      "name": "database",
      "outputs": [
        {
          "name": "",
          "type": "address"
        }
      ],
      "payable": false,
      "stateMutability": "view",
      "type": "function"
    },
    {
      "constant": true,
      "inputs": [],
      "name": "events",
      "outputs": [
        {
          "name": "",
          "type": "address"
        }
      ],
      "payable": false,
      "stateMutability": "view",
      "type": "function"
    },
    {
      "inputs": [
        {
          "name": "_database",
          "type": "address"
        },
        {
          "name": "_events",
          "type": "address"
        }
      ],
      "payable": false,
      "stateMutability": "nonpayable",
      "type": "constructor"
    },
    {
      "payable": true,
      "stateMutability": "payable",
      "type": "fallback"
    },
    {
      "constant": false,
      "inputs": [
        {
          "name": "_assetAddress",
          "type": "address"
        },
        {
          "name": "_assetManager",
          "type": "address"
        }
      ],
      "name": "withdraw",
      "outputs": [
        {
          "name": "",
          "type": "bool"
        }
      ],
      "payable": false,
      "stateMutability": "nonpayable",
      "type": "function"
    },
    {
      "constant": false,
      "inputs": [
        {
          "name": "_assetAddress",
          "type": "address[]"
        },
        {
          "name": "_assetManager",
          "type": "address"
        }
      ],
      "name": "retrieveAssetManagerTokens",
      "outputs": [
        {
          "name": "",
          "type": "bool"
        }
      ],
      "payable": false,
      "stateMutability": "nonpayable",
      "type": "function"
    },
    {
      "constant": false,
      "inputs": [
        {
          "name": "_assetAddress",
          "type": "address[]"
        },
        {
          "name": "_assetManager",
          "type": "address"
        }
      ],
      "name": "retrieveAssetManagerETH",
      "outputs": [
        {
          "name": "",
          "type": "bool"
        }
      ],
      "payable": false,
      "stateMutability": "nonpayable",
      "type": "function"
    },
    {
      "constant": false,
      "inputs": [],
      "name": "destroy",
      "outputs": [],
      "payable": false,
      "stateMutability": "nonpayable",
      "type": "function"
    }
  ],
  "bytecode": "0x608060405234801561001057600080fd5b506040516040806119ca83398101604052805160209091015160008054600160a060020a03938416600160a060020a03199182161790915560018054939092169216919091179055611963806100676000396000f30060806040526004361061005e5763ffffffff60e060020a6000350416634afce61b8114610060578063713b563f146100a257806383197ef0146100d35780638b436676146100e8578063b5f8558c14610116578063f940e3851461012b575b005b34801561006c57600080fd5b5061008e6024600480358281019291013590600160a060020a03903516610152565b604080519115158252519081900360200190f35b3480156100ae57600080fd5b506100b76109fd565b60408051600160a060020a039092168252519081900360200190f35b3480156100df57600080fd5b5061005e610a0c565b3480156100f457600080fd5b5061008e6024600480358281019291013590600160a060020a03903516610bf8565b34801561012257600080fd5b506100b76110b4565b34801561013757600080fd5b5061008e600160a060020a03600435811690602435166110c3565b60028054600101908190556000906060908190839081908190819081908190819033600160a060020a038d16148061036c57506000809054906101000a9004600160a060020a0316600160a060020a0316633b7bfda08d33306000357bffffffffffffffffffffffffffffffffffffffffffffffffffffffff191660405160200180807f617070726f76616c00000000000000000000000000000000000000000000000081525060080185600160a060020a0316600160a060020a0316606060020a02815260140184600160a060020a0316600160a060020a0316606060020a02815260140183600160a060020a0316600160a060020a0316606060020a028152601401827bffffffffffffffffffffffffffffffffffffffffffffffffffffffff19167bffffffffffffffffffffffffffffffffffffffffffffffffffffffff191681526004019450505050506040516020818303038152906040526040518082805190602001908083835b602083106102de5780518252601f1990920191602091820191016102bf565b51815160209384036101000a60001901801990921691161790526040805192909401829003822063ffffffff881660e060020a0283526004830152925160248083019650939450929083900301905081600087803b15801561033f57600080fd5b505af1158015610353573d6000803e3d6000fd5b505050506040513d602081101561036957600080fd5b50515b151561037757600080fd5b602a8d111561038557600080fd5b8d8d90506040519080825280602002602001820160405280156103b2578160200160208202803883390190505b5099508d8d90506040519080825280602002602001820160405280156103e2578160200160208202803883390190505b509850600096505b60ff87168d11156108ee57600054600160a060020a03166304f49a3a8f8f60ff8b1681811061041557fe5b90506020020135600160a060020a031660405160200180807f61737365742e6d616e6167657200000000000000000000000000000000000000815250600d0182600160a060020a0316600160a060020a0316606060020a0281526014019150506040516020818303038152906040526040518082805190602001908083835b602083106104b35780518252601f199092019160209182019101610494565b51815160209384036101000a60001901801990921691161790526040805192909401829003822063ffffffff881660e060020a0283526004830152925160248083019650939450929083900301905081600087803b15801561051457600080fd5b505af1158015610528573d6000803e3d6000fd5b505050506040513d602081101561053e57600080fd5b5051600160a060020a038d811691161461055757600080fd5b8d8d60ff891681811061056657fe5b90506020020135600160a060020a031695506000600160a060020a031686600160a060020a03161415151561059a57600080fd5b6040805160e560020a6301defd490281523060048201529051600160a060020a03881691633bdfa9209160248083019260209291908290030181600087803b1580156105e557600080fd5b505af11580156105f9573d6000803e3d6000fd5b505050506040513d602081101561060f57600080fd5b505194506000851161062057600080fd5b85600160a060020a0316634ece90a86040518163ffffffff1660e060020a028152600401602060405180830381600087803b15801561065e57600080fd5b505af1158015610672573d6000803e3d6000fd5b505050506040513d602081101561068857600080fd5b5051604080517f70a082310000000000000000000000000000000000000000000000000000000081523060048201529051919550600160a060020a038616916370a08231916024808201926020929091908290030181600087803b1580156106ef57600080fd5b505af1158015610703573d6000803e3d6000fd5b505050506040513d602081101561071957600080fd5b5051925061072789876118ac565b915060ff82168d111561077f5761075f858b8460ff1681518110151561074957fe5b602090810290910101519063ffffffff61190f16565b8a8360ff1681518110151561077057fe5b602090810290910101526107cc565b83898960ff1681518110151561079157fe5b600160a060020a03909216602092830290910190910152895185908b9060ff8b169081106107bb57fe5b602090810290910101526001909701965b85600160a060020a0316633ccfd60b6040518163ffffffff1660e060020a028152600401602060405180830381600087803b15801561080a57600080fd5b505af115801561081e573d6000803e3d6000fd5b505050506040513d602081101561083457600080fd5b5051151561084157600080fd5b826108d98686600160a060020a03166370a08231306040518263ffffffff1660e060020a0281526004018082600160a060020a0316600160a060020a03168152602001915050602060405180830381600087803b1580156108a157600080fd5b505af11580156108b5573d6000803e3d6000fd5b505050506040513d60208110156108cb57600080fd5b50519063ffffffff61192516565b146108e357600080fd5b6001909601956103ea565b600096505b8760ff168760ff1610156109da57888760ff1681518110151561091257fe5b90602001906020020151600160a060020a031663a9059cbb8d8c8a60ff1681518110151561093c57fe5b906020019060200201516040518363ffffffff1660e060020a0281526004018083600160a060020a0316600160a060020a0316815260200182815260200192505050602060405180830381600087803b15801561099857600080fd5b505af11580156109ac573d6000803e3d6000fd5b505050506040513d60208110156109c257600080fd5b505115156109cf57600080fd5b6001909601956108f3565b60019a5060025481146109ec57600080fd5b505050505050505050509392505050565b600054600160a060020a031681565b600054604080517f6f776e6572000000000000000000000000000000000000000000000000000000602080830191909152606060020a33026025830152825160198184030181526039909201928390528151600160a060020a0390941693633b7bfda093918291908401908083835b60208310610a9a5780518252601f199092019160209182019101610a7b565b51815160209384036101000a60001901801990921691161790526040805192909401829003822063ffffffff881660e060020a0283526004830152925160248083019650939450929083900301905081600087803b158015610afb57600080fd5b505af1158015610b0f573d6000803e3d6000fd5b505050506040513d6020811015610b2557600080fd5b50511515600114610b3557600080fd5b600154604080517f68b96270000000000000000000000000000000000000000000000000000000008152306024820181905233604483015231606482015260a06004820152601b60a48201527f41737365744d616e6167657246756e64732064657374726f796564000000000060c48201529051600160a060020a03909216916368b962709160e48082019260009290919082900301818387803b158015610bdc57600080fd5b505af1158015610bf0573d6000803e3d6000fd5b503392505050ff5b6002805460010190819055600090819081908190819081908190605d8a1115610c2057600080fd5b600095505b60ff86168a111561105d5733600160a060020a038a161480610d9b575060008054604080517f617070726f76616c000000000000000000000000000000000000000000000000602080830191909152600160a060020a038e8116606060020a9081026028850152338102603c8501523002605084015294357bffffffffffffffffffffffffffffffffffffffffffffffffffffffff191660648301528251808303604801815260689092019283905281519490931693633b7bfda0939192918291908401908083835b60208310610d0d5780518252601f199092019160209182019101610cee565b51815160209384036101000a60001901801990921691161790526040805192909401829003822063ffffffff881660e060020a0283526004830152925160248083019650939450929083900301905081600087803b158015610d6e57600080fd5b505af1158015610d82573d6000803e3d6000fd5b505050506040513d6020811015610d9857600080fd5b50515b1515610da657600080fd5b600054600160a060020a03166304f49a3a8c8c60ff8a16818110610dc657fe5b90506020020135600160a060020a031660405160200180807f61737365742e6d616e6167657200000000000000000000000000000000000000815250600d0182600160a060020a0316600160a060020a0316606060020a0281526014019150506040516020818303038152906040526040518082805190602001908083835b60208310610e645780518252601f199092019160209182019101610e45565b51815160209384036101000a60001901801990921691161790526040805192909401829003822063ffffffff881660e060020a0283526004830152925160248083019650939450929083900301905081600087803b158015610ec557600080fd5b505af1158015610ed9573d6000803e3d6000fd5b505050506040513d6020811015610eef57600080fd5b5051600160a060020a038a8116911614610f0857600080fd5b8a8a60ff8816818110610f1757fe5b6040805160e560020a6301defd490281523060048201819052915160209384029590950135600160a060020a03169950903197508893633bdfa9209350602480830193928290030181600087803b158015610f7157600080fd5b505af1158015610f85573d6000803e3d6000fd5b505050506040513d6020811015610f9b57600080fd5b5051925060008311610fac57600080fd5b610fbc848463ffffffff61190f16565b915084600160a060020a0316633ccfd60b6040518163ffffffff1660e060020a028152600401602060405180830381600087803b158015610ffc57600080fd5b505af1158015611010573d6000803e3d6000fd5b505050506040513d602081101561102657600080fd5b5051151561103357600080fd5b3031821461104057600080fd5b611050878463ffffffff61190f16565b9650600190950194610c25565b604051600160a060020a038a169088156108fc029089906000818181858888f19350505050158015611093573d6000803e3d6000fd5b506001975060025481146110a657600080fd5b505050505050509392505050565b600154600160a060020a031681565b60028054600101908190556000908190819081908190819033600160a060020a0389161480611246575060008054604080517f617070726f76616c000000000000000000000000000000000000000000000000602080830191909152600160a060020a038d8116606060020a9081026028850152338102603c8501523002605084015294357bffffffffffffffffffffffffffffffffffffffffffffffffffffffff191660648301528251808303604801815260689092019283905281519490931693633b7bfda0939192918291908401908083835b602083106111b85780518252601f199092019160209182019101611199565b51815160209384036101000a60001901801990921691161790526040805192909401829003822063ffffffff881660e060020a0283526004830152925160248083019650939450929083900301905081600087803b15801561121957600080fd5b505af115801561122d573d6000803e3d6000fd5b505050506040513d602081101561124357600080fd5b50515b151561125157600080fd5b600054604080517f61737365742e6d616e6167657200000000000000000000000000000000000000602080830191909152600160a060020a038d8116606060020a02602d8401528351808403602101815260419093019384905282519416936304f49a3a93918291908401908083835b602083106112e05780518252601f1990920191602091820191016112c1565b51815160209384036101000a60001901801990921691161790526040805192909401829003822063ffffffff881660e060020a0283526004830152925160248083019650939450929083900301905081600087803b15801561134157600080fd5b505af1158015611355573d6000803e3d6000fd5b505050506040513d602081101561136b57600080fd5b5051600160a060020a0389811691161461138457600080fd5b889550600160a060020a038616151561139c57600080fd5b6000600160a060020a031686600160a060020a0316634ece90a86040518163ffffffff1660e060020a028152600401602060405180830381600087803b1580156113e557600080fd5b505af11580156113f9573d6000803e3d6000fd5b505050506040513d602081101561140f57600080fd5b5051600160a060020a0316141561157d576040805160e560020a6301defd490281523060048201819052915191319550600160a060020a03881691633bdfa920916024808201926020929091908290030181600087803b15801561147257600080fd5b505af1158015611486573d6000803e3d6000fd5b505050506040513d602081101561149c57600080fd5b50519450600085116114ad57600080fd5b6114bd848663ffffffff61190f16565b925085600160a060020a0316633ccfd60b6040518163ffffffff1660e060020a028152600401602060405180830381600087803b1580156114fd57600080fd5b505af1158015611511573d6000803e3d6000fd5b505050506040513d602081101561152757600080fd5b5051151561153457600080fd5b3031831461154157600080fd5b604051600160a060020a0389169086156108fc029087906000818181858888f19350505050158015611577573d6000803e3d6000fd5b5061188e565b6040805160e560020a6301defd490281523060048201529051600160a060020a03881691633bdfa9209160248083019260209291908290030181600087803b1580156115c857600080fd5b505af11580156115dc573d6000803e3d6000fd5b505050506040513d60208110156115f257600080fd5b505194506000851161160357600080fd5b85600160a060020a0316634ece90a86040518163ffffffff1660e060020a028152600401602060405180830381600087803b15801561164157600080fd5b505af1158015611655573d6000803e3d6000fd5b505050506040513d602081101561166b57600080fd5b5051604080517f70a082310000000000000000000000000000000000000000000000000000000081523060048201529051919350600160a060020a038416916370a08231916024808201926020929091908290030181600087803b1580156116d257600080fd5b505af11580156116e6573d6000803e3d6000fd5b505050506040513d60208110156116fc57600080fd5b5051604080517f3ccfd60b0000000000000000000000000000000000000000000000000000000081529051919550600160a060020a03881691633ccfd60b916004808201926020929091908290030181600087803b15801561175d57600080fd5b505af1158015611771573d6000803e3d6000fd5b505050506040513d602081101561178757600080fd5b5051151561179457600080fd5b836117f48684600160a060020a03166370a08231306040518263ffffffff1660e060020a0281526004018082600160a060020a0316600160a060020a03168152602001915050602060405180830381600087803b1580156108a157600080fd5b146117fe57600080fd5b81600160a060020a031663a9059cbb89876040518363ffffffff1660e060020a0281526004018083600160a060020a0316600160a060020a0316815260200182815260200192505050602060405180830381600087803b15801561186157600080fd5b505af1158015611875573d6000803e3d6000fd5b505050506040513d602081101561188b57600080fd5b50505b6001965060025481146118a057600080fd5b50505050505092915050565b6000805b83518160ff1610156119005782600160a060020a0316848260ff168151811015156118d757fe5b90602001906020020151600160a060020a031614156118f857809150611908565b6001016118b0565b835160010191505b5092915050565b60008282018381101561191e57fe5b9392505050565b60008282111561193157fe5b509003905600a165627a7a7230582012e28e178b65511928756e996b0f710add80184fb2ab859f8469cdd5ffbfd93c0029",
  "source": "pragma solidity ^0.4.24;\n\nimport \"../interfaces/ERC20.sol\";\nimport \"../interfaces/DBInterface.sol\";\nimport \"../database/Events.sol\";\nimport \"../math/SafeMath.sol\";\n\ninterface DToken {\n  function withdraw() external returns (bool);\n  function getAmountOwed(address _user) external view returns (uint);\n  function balanceOf(address _tokenHolder) external view returns (uint);\n  function transfer(address _to, uint _amount) external returns (bool success);\n  function getERC20() external  view returns (address);\n}\n\n// @title A dividend-token holding contract that locks tokens and retrieves dividends for assetManagers\n// @notice This contract receives newly minted tokens and retrieves Ether or ERC20 tokens received from the asset\n// @author Kyle Dewhurst & Peter Phillips, MyBit Foundation\ncontract AssetManagerFunds {\n  using SafeMath for uint256;\n\n  DBInterface public database;\n  Events public events;\n\n  uint256 private transactionNumber;\n\n  // @notice constructor: initializes database\n  constructor(address _database, address _events)\n  public {\n    database = DBInterface(_database);\n    events = Events(_events);\n  }\n\n  // @notice asset manager can withdraw his dividend fee from assets here\n  // @param : address _assetAddress = the address of this asset on the platform\n  function withdraw(address _assetAddress, address _assetManager)\n  external\n  nonReentrant\n  returns (bool) {\n    require(msg.sender == _assetManager || database.boolStorage(keccak256(abi.encodePacked(\"approval\", _assetManager, msg.sender, address(this), msg.sig))));\n    require(_assetManager == database.addressStorage(keccak256(abi.encodePacked(\"asset.manager\", _assetAddress))));\n    DToken token = DToken( _assetAddress);\n    require(address(token) != address(0));\n    uint amountOwed;\n    uint balanceBefore;\n    if (token.getERC20() == address(0)){\n      balanceBefore = address(this).balance;\n      amountOwed = token.getAmountOwed(address(this));\n      require(amountOwed > 0);\n      uint balanceAfter = balanceBefore.add(amountOwed);\n      require(token.withdraw());\n      require(address(this).balance == balanceAfter);\n      _assetManager.transfer(amountOwed);\n    }\n    else {\n      amountOwed = token.getAmountOwed(address(this));\n      require(amountOwed > 0);\n      DToken fundingToken = DToken(token.getERC20());\n      balanceBefore = fundingToken.balanceOf(address(this));\n      require(token.withdraw());\n      require(fundingToken.balanceOf(address(this)).sub(amountOwed) == balanceBefore);\n      fundingToken.transfer(_assetManager, amountOwed);\n    }\n    return true;\n  }\n\n  function retrieveAssetManagerTokens(address[] _assetAddress, address _assetManager)\n  external\n  nonReentrant\n  returns (bool) {\n    require(msg.sender == _assetManager || database.boolStorage(keccak256(abi.encodePacked(\"approval\", _assetManager, msg.sender, address(this), msg.sig))));\n    require(_assetAddress.length <= 42);\n    uint[] memory payoutAmounts = new uint[](_assetAddress.length);\n    address[] memory tokenAddresses = new address[](_assetAddress.length);\n    uint8 numEntries;\n    for(uint8 i = 0; i < _assetAddress.length; i++){\n      require(_assetManager == database.addressStorage(keccak256(abi.encodePacked(\"asset.manager\", _assetAddress[i]))) );\n      DToken token = DToken(_assetAddress[i]);\n      require(address(token) != address(0));\n      uint tokensOwed = token.getAmountOwed(address(this));\n      require(tokensOwed > 0);\n      DToken fundingToken = DToken(token.getERC20());\n      uint balanceBefore = fundingToken.balanceOf(address(this));\n      uint8 tokenIndex = containsAddress(tokenAddresses, address(token));\n      if (tokenIndex < _assetAddress.length) {  payoutAmounts[tokenIndex] = payoutAmounts[tokenIndex].add(tokensOwed); }\n      else {\n        tokenAddresses[numEntries] = address(fundingToken);\n        payoutAmounts[numEntries] = tokensOwed;\n        numEntries++;\n      }\n      require(token.withdraw());\n      require(fundingToken.balanceOf(address(this)).sub(tokensOwed) == balanceBefore);\n    }\n\n    for(i = 0; i < numEntries; i++){\n      require(ERC20(tokenAddresses[i]).transfer(_assetManager, payoutAmounts[i]));\n    }\n    return true;\n  }\n\n\n  function retrieveAssetManagerETH(address[] _assetAddress, address _assetManager)\n  external\n  nonReentrant\n  returns (bool) {\n    require(_assetAddress.length <= 93);\n    uint weiOwed;\n    for(uint8 i = 0; i < _assetAddress.length; i++){\n      require(msg.sender == _assetManager || database.boolStorage(keccak256(abi.encodePacked(\"approval\", _assetManager, msg.sender, address(this), msg.sig))));\n      require(_assetManager == database.addressStorage(keccak256(abi.encodePacked(\"asset.manager\", _assetAddress[i]))));\n      DToken token = DToken(_assetAddress[i]);\n      uint balanceBefore = address(this).balance;\n      uint amountOwed = token.getAmountOwed(address(this));\n      require(amountOwed > 0);\n      uint balanceAfter = balanceBefore.add(amountOwed);\n      require(token.withdraw());\n      require(address(this).balance == balanceAfter);\n      weiOwed = weiOwed.add(amountOwed);\n    }\n    _assetManager.transfer(weiOwed);\n    return true;\n  }\n\n  // @notice returns the index if the address is in the list, otherwise returns list length + 1\n  function containsAddress(address[] _addressList, address _addr)\n  internal\n  pure\n  returns (uint8) {\n    for (uint8 i = 0; i < _addressList.length; i++){\n      if (_addressList[i] == _addr) return i;\n    }\n    return uint8(_addressList.length + 1);\n  }\n\n  // @notice platform owners can destroy contract here\n  function destroy()\n  onlyOwner\n  external {\n    events.transaction('AssetManagerFunds destroyed', address(this), msg.sender, address(this).balance, '');\n    selfdestruct(msg.sender);\n  }\n\n  // @notice prevents calls from re-entering contract\n  modifier nonReentrant() {\n    transactionNumber += 1;\n    uint256 localCounter = transactionNumber;\n    _;\n    require(localCounter == transactionNumber);\n  }\n\n  // @notice reverts if caller is not the owner\n  modifier onlyOwner {\n    require(database.boolStorage(keccak256(abi.encodePacked(\"owner\", msg.sender))) == true);\n    _;\n  }\n\n  function ()\n  payable\n  public {}\n\n}\n",
  "sourcePath": "/home/peter/Documents/Work/MyBit/MyBit-Network.tech/contracts/roles/AssetManagerFunds.sol",
  "compiler": {
    "name": "solc",
    "version": "0.4.24+commit.e67f0147.Emscripten.clang"
  },
  "schemaVersion": "3.0.2",
  "updatedAt": "2019-03-14T21:46:28.834Z",
  "devdoc": {
    "methods": {}
  },
  "userdoc": {
    "methods": {}
  }
}