{
  "contractName": "AssetManagerEscrow",
  "abi": [
    {
      "constant": true,
      "inputs": [],
      "name": "database",
      "outputs": [
        {
          "name": "",
          "type": "address"
        }
      ],
      "payable": false,
      "stateMutability": "view",
      "type": "function"
    },
    {
      "constant": true,
      "inputs": [],
      "name": "events",
      "outputs": [
        {
          "name": "",
          "type": "address"
        }
      ],
      "payable": false,
      "stateMutability": "view",
      "type": "function"
    },
    {
      "inputs": [
        {
          "name": "_database",
          "type": "address"
        },
        {
          "name": "_events",
          "type": "address"
        }
      ],
      "payable": false,
      "stateMutability": "nonpayable",
      "type": "constructor"
    },
    {
      "anonymous": false,
      "inputs": [],
      "name": "NotFinalized",
      "type": "event"
    },
    {
      "anonymous": false,
      "inputs": [
        {
          "indexed": false,
          "name": "checkpoint",
          "type": "uint256"
        }
      ],
      "name": "ROICheckpoint",
      "type": "event"
    },
    {
      "constant": false,
      "inputs": [
        {
          "name": "_assetAddress",
          "type": "address"
        },
        {
          "name": "_assetManager",
          "type": "address"
        },
        {
          "name": "_amount",
          "type": "uint256"
        }
      ],
      "name": "lockEscrow",
      "outputs": [
        {
          "name": "",
          "type": "bool"
        }
      ],
      "payable": false,
      "stateMutability": "nonpayable",
      "type": "function"
    },
    {
      "constant": false,
      "inputs": [
        {
          "name": "_assetAddress",
          "type": "address"
        },
        {
          "name": "_assetManager",
          "type": "address"
        }
      ],
      "name": "unlockEscrow",
      "outputs": [
        {
          "name": "",
          "type": "bool"
        }
      ],
      "payable": false,
      "stateMutability": "nonpayable",
      "type": "function"
    },
    {
      "constant": false,
      "inputs": [
        {
          "name": "_assetAddress",
          "type": "address"
        },
        {
          "name": "_newAssetManager",
          "type": "address"
        },
        {
          "name": "_amount",
          "type": "uint256"
        },
        {
          "name": "_withhold",
          "type": "bool"
        }
      ],
      "name": "becomeAssetManager",
      "outputs": [
        {
          "name": "",
          "type": "bool"
        }
      ],
      "payable": false,
      "stateMutability": "nonpayable",
      "type": "function"
    },
    {
      "constant": false,
      "inputs": [
        {
          "name": "_assetAddress",
          "type": "address"
        },
        {
          "name": "_oldAssetManager",
          "type": "address"
        },
        {
          "name": "_currentAssetManager",
          "type": "address"
        }
      ],
      "name": "returnEscrow",
      "outputs": [],
      "payable": false,
      "stateMutability": "nonpayable",
      "type": "function"
    },
    {
      "constant": false,
      "inputs": [
        {
          "name": "_assetAddress",
          "type": "address"
        },
        {
          "name": "_amountToBurn",
          "type": "uint256"
        }
      ],
      "name": "burnEscrow",
      "outputs": [
        {
          "name": "",
          "type": "bool"
        }
      ],
      "payable": false,
      "stateMutability": "nonpayable",
      "type": "function"
    },
    {
      "constant": false,
      "inputs": [],
      "name": "destroy",
      "outputs": [],
      "payable": false,
      "stateMutability": "nonpayable",
      "type": "function"
    },
    {
      "constant": true,
      "inputs": [
        {
          "name": "_assetAddress",
          "type": "address"
        },
        {
          "name": "methodID",
          "type": "bytes4"
        },
        {
          "name": "parameterHash",
          "type": "bytes32"
        }
      ],
      "name": "passed",
      "outputs": [
        {
          "name": "",
          "type": "bool"
        }
      ],
      "payable": false,
      "stateMutability": "view",
      "type": "function"
    }
  ],
  "bytecode": "0x608060405234801561001057600080fd5b5060405160408061343e83398101604052805160209091015160008054600160a060020a03938416600160a060020a031991821617909155600180549390921692169190911790556133d7806100676000396000f30060806040526004361061007f5763ffffffff60e060020a6000350416630c2c4f558114610084578063303d0c6b146100bc578063713b563f146100e657806383197ef014610117578063abc0bbf31461012e578063ad38258b1461015b578063b5f8558c1461018c578063b747efb6146101a1578063f0e01b67146101c8575b600080fd5b34801561009057600080fd5b506100a8600160a060020a03600435166024356101f7565b604080519115158252519081900360200190f35b3480156100c857600080fd5b506100a8600160a060020a0360043581169060243516604435610d17565b3480156100f257600080fd5b506100fb610ec1565b60408051600160a060020a039092168252519081900360200190f35b34801561012357600080fd5b5061012c610ed0565b005b34801561013a57600080fd5b5061012c600160a060020a03600435811690602435811690604435166110bc565b34801561016757600080fd5b506100a8600160a060020a0360043516600160e060020a031960243516604435611377565b34801561019857600080fd5b506100fb61153c565b3480156101ad57600080fd5b506100a8600160a060020a036004358116906024351661154b565b3480156101d457600080fd5b506100a8600160a060020a036004358116906024351660443560643515156123c4565b600080600080600080876000809054906101000a9004600160a060020a0316600160a060020a03166304f49a3a8a604051602001808060008051602061334c833981519152815250600d0182600160a060020a0316600160a060020a0316606060020a0281526014019150506040516020818303038152906040526040518082805190602001908083835b602083106102a15780518252601f199092019160209182019101610282565b51815160209384036101000a60001901801990921691161790526040805192909401829003822063ffffffff881660e060020a0283526004830152925160248083019650939450929083900301905081600087803b15801561030257600080fd5b505af1158015610316573d6000803e3d6000fd5b505050506040513d602081101561032c57600080fd5b505160408051606060020a600160a060020a0394851681026020838101919091529490931690920260348301528051602881840301815260489092019081905281519192909182918401908083835b6020831061039a5780518252601f19909201916020918201910161037b565b6001836020036101000a03801982511681845116808217855250505050505090500191505060405180910390209450873360405160200180807f636f6d6d69746d656e742e76616c75650000000000000000000000000000000081525060100183600160a060020a0316600160a060020a0316606060020a02815260140182600160a060020a0316600160a060020a0316606060020a028152601401925050506040516020818303038152906040526040518082805190602001908083835b602083106104785780518252601f199092019160209182019101610459565b51815160209384036101000a60001901801990921691161790526040805192909401829003822060005460008051602061336c8339815191528484015260348085018e9052865180860390910181526054909401958690528351919b50600160a060020a0316965063a855d4ce9550919392508291908401908083835b602083106105145780518252601f1990920191602091820191016104f5565b51815160209384036101000a60001901801990921691161790526040805192909401829003822063ffffffff881660e060020a0283526004830152925160248083019650939450929083900301905081600087803b15801561057557600080fd5b505af1158015610589573d6000803e3d6000fd5b505050506040513d602081101561059f57600080fd5b50516000546040805160008051602061330c833981519152602082810191909152602c8083018b905283518084039091018152604c9092019283905281519497506106ba948894600160a060020a03169363a855d4ce9392909182918401908083835b602083106106215780518252601f199092019160209182019101610602565b51815160209384036101000a60001901801990921691161790526040805192909401829003822063ffffffff881660e060020a0283526004830152925160248083019650939450929083900301905081600087803b15801561068257600080fd5b505af1158015610696573d6000803e3d6000fd5b505050506040513d60208110156106ac57600080fd5b50519063ffffffff6127b116565b915086821015610714576040805160e560020a62461bcd02815260206004820181905260248201527f6173736574206d616e6167657220686173206e6f20657363726f77206c656674604482015290519081900360640190fd5b600054604080517f706c6174666f726d2e6275726e5261746500000000000000000000000000000060208083019190915282518083036011018152603190920192839052815161083394600160a060020a03169363a855d4ce9392909182918401908083835b602083106107995780518252601f19909201916020918201910161077a565b51815160209384036101000a60001901801990921691161790526040805192909401829003822063ffffffff881660e060020a0283526004830152925160248083019650939450929083900301905081600087803b1580156107fa57600080fd5b505af115801561080e573d6000803e3d6000fd5b505050506040513d602081101561082457600080fd5b5051889063ffffffff6127c316565b604080517f70a0823100000000000000000000000000000000000000000000000000000000815233600482015290519192508291600160a060020a038b16916370a082319160248083019260209291908290030181600087803b15801561089957600080fd5b505af11580156108ad573d6000803e3d6000fd5b505050506040513d60208110156108c357600080fd5b505110156108d057600080fd5b604080517f79cc6790000000000000000000000000000000000000000000000000000000008152336004820152602481018390529051600160a060020a038a16916379cc67909160448083019260209291908290030181600087803b15801561093857600080fd5b505af115801561094c573d6000803e3d6000fd5b505050506040513d602081101561096257600080fd5b5051151561096f57600080fd5b600054604080517f706c6174666f726d2e746f6b656e0000000000000000000000000000000000006020808301919091528251808303600e018152602e909201928390528151600160a060020a03909416936304f49a3a93918291908401908083835b602083106109f15780518252601f1990920191602091820191016109d2565b51815160209384036101000a60001901801990921691161790526040805192909401829003822063ffffffff881660e060020a0283526004830152925160248083019650939450929083900301905081600087803b158015610a5257600080fd5b505af1158015610a66573d6000803e3d6000fd5b505050506040513d6020811015610a7c57600080fd5b5051604080517f42966c68000000000000000000000000000000000000000000000000000000008152600481018a90529051600160a060020a03909216916342966c68916024808201926020929091908290030181600087803b158015610ae257600080fd5b505af1158015610af6573d6000803e3d6000fd5b505050506040513d6020811015610b0c57600080fd5b50511515610b1957600080fd5b6000546040805160008051602061336c83398151915260208083019190915260348083018a9052835180840390910181526054909201928390528151600160a060020a039094169363e2a4853a93918291908401908083835b60208310610b915780518252601f199092019160209182019101610b72565b6001836020036101000a0380198251168184511680821785525050505050509050019150506040518091039020610bd18a876127f990919063ffffffff16565b6040518363ffffffff1660e060020a02815260040180836000191660001916815260200182815260200192505050600060405180830381600087803b158015610c1957600080fd5b505af1158015610c2d573d6000803e3d6000fd5b505060008054604080517fa855d4ce000000000000000000000000000000000000000000000000000000008152600481018a90529051600160a060020a03909216945063e2a4853a93508892610ca9928792879263a855d4ce926024808401936020939083900390910190829087803b15801561068257600080fd5b6040518363ffffffff1660e060020a02815260040180836000191660001916815260200182815260200192505050600060405180830381600087803b158015610cf157600080fd5b505af1158015610d05573d6000803e3d6000fd5b5060019b9a5050505050505050505050565b600033600160a060020a0384161480610e5d5750600080546040805160008051602061332c833981519152602080830191909152600160a060020a03888116606060020a9081026028850152338102603c850152300260508401529435600160e060020a03191660648301528251808303604801815260689092019283905281519490931693633b7bfda0939192918291908401908083835b60208310610dcf5780518252601f199092019160209182019101610db0565b51815160209384036101000a60001901801990921691161790526040805192909401829003822063ffffffff881660e060020a0283526004830152925160248083019650939450929083900301905081600087803b158015610e3057600080fd5b505af1158015610e44573d6000803e3d6000fd5b505050506040513d6020811015610e5a57600080fd5b50515b1515610ea1576040805160e560020a62461bcd028152602060048201526011602482015260008051602061338c833981519152604482015290519081900360640190fd5b610eac838584612808565b1515610eb757600080fd5b5060019392505050565b600054600160a060020a031681565b600054604080517f6f776e6572000000000000000000000000000000000000000000000000000000602080830191909152606060020a33026025830152825160198184030181526039909201928390528151600160a060020a0390941693633b7bfda093918291908401908083835b60208310610f5e5780518252601f199092019160209182019101610f3f565b51815160209384036101000a60001901801990921691161790526040805192909401829003822063ffffffff881660e060020a0283526004830152925160248083019650939450929083900301905081600087803b158015610fbf57600080fd5b505af1158015610fd3573d6000803e3d6000fd5b505050506040513d6020811015610fe957600080fd5b50511515600114610ff957600080fd5b600154604080517f68b96270000000000000000000000000000000000000000000000000000000008152306024820181905233604483015231606482015260a06004820152601c60a48201527f41737365744d616e61676572457363726f772064657374726f7965640000000060c48201529051600160a060020a03909216916368b962709160e48082019260009290919082900301818387803b1580156110a057600080fd5b505af11580156110b4573d6000803e3d6000fd5b503392505050ff5b33600160a060020a03821614806112005750600080546040805160008051602061332c833981519152602080830191909152600160a060020a03868116606060020a9081026028850152338102603c850152300260508401529435600160e060020a03191660648301528251808303604801815260689092019283905281519490931693633b7bfda0939192918291908401908083835b602083106111725780518252601f199092019160209182019101611153565b51815160209384036101000a60001901801990921691161790526040805192909401829003822063ffffffff881660e060020a0283526004830152925160248083019650939450929083900301905081600087803b1580156111d357600080fd5b505af11580156111e7573d6000803e3d6000fd5b505050506040513d60208110156111fd57600080fd5b50515b1515611244576040805160e560020a62461bcd028152602060048201526011602482015260008051602061338c833981519152604482015290519081900360640190fd5b6000546040805160008051602061334c833981519152602080830191909152600160a060020a03878116606060020a02602d8401528351808403602101815260419093019384905282518682169591909116936304f49a3a9392909182918401908083835b602083106112c85780518252601f1990920191602091820191016112a9565b51815160209384036101000a60001901801990921691161790526040805192909401829003822063ffffffff881660e060020a0283526004830152925160248083019650939450929083900301905081600087803b15801561132957600080fd5b505af115801561133d573d6000803e3d6000fd5b505050506040513d602081101561135357600080fd5b5051600160a060020a03161461136857600080fd5b6113728383612d9e565b505050565b60008054604080517f61737365742e676f7665726e616e6365000000000000000000000000000000006020808301919091528251808303601001815260309092019283905281518594600160a060020a0316936304f49a3a9392909182918401908083835b602083106113fb5780518252601f1990920191602091820191016113dc565b51815160209384036101000a60001901801990921691161790526040805192909401829003822063ffffffff881660e060020a0283526004830152925160248083019650939450929083900301905081600087803b15801561145c57600080fd5b505af1158015611470573d6000803e3d6000fd5b505050506040513d602081101561148657600080fd5b5051604080517fa1df5d6f000000000000000000000000000000000000000000000000000000008152600160a060020a038881166004830152600160e060020a0319881660248301526044820187905291519293509083169163a1df5d6f916064808201926020929091908290030181600087803b15801561150757600080fd5b505af115801561151b573d6000803e3d6000fd5b505050506040513d602081101561153157600080fd5b505195945050505050565b600154600160a060020a031681565b6000808080808080808033600160a060020a038b16148061172757506000809054906101000a9004600160a060020a0316600160a060020a0316633b7bfda08b3330600035600160e060020a031916604051602001808060008051602061332c83398151915281525060080185600160a060020a0316600160a060020a0316606060020a02815260140184600160a060020a0316600160a060020a0316606060020a02815260140183600160a060020a0316600160a060020a0316606060020a028152601401827bffffffffffffffffffffffffffffffffffffffffffffffffffffffff19167bffffffffffffffffffffffffffffffffffffffffffffffffffffffff191681526004019450505050506040516020818303038152906040526040518082805190602001908083835b602083106116995780518252601f19909201916020918201910161167a565b51815160209384036101000a60001901801990921691161790526040805192909401829003822063ffffffff881660e060020a0283526004830152925160248083019650939450929083900301905081600087803b1580156116fa57600080fd5b505af115801561170e573d6000803e3d6000fd5b505050506040513d602081101561172457600080fd5b50515b151561176b576040805160e560020a62461bcd028152602060048201526011602482015260008051602061338c833981519152604482015290519081900360640190fd5b8a8a6040516020018083600160a060020a0316600160a060020a0316606060020a02815260140182600160a060020a0316600160a060020a0316606060020a028152601401925050506040516020818303038152906040526040518082805190602001908083835b602083106117f25780518252601f1990920191602091820191016117d3565b51815160209384036101000a60001901801990921691161790526040805192909401829003822060005460008051602061330c83398151915284840152602c80850183905286518086039091018152604c909401958690528351919f50600160a060020a0316965063a855d4ce9550919392508291908401908083835b6020831061188e5780518252601f19909201916020918201910161186f565b51815160209384036101000a60001901801990921691161790526040805192909401829003822063ffffffff881660e060020a0283526004830152925160248083019650939450929083900301905081600087803b1580156118ef57600080fd5b505af1158015611903573d6000803e3d6000fd5b505050506040513d602081101561191957600080fd5b50511515611971576040805160e560020a62461bcd02815260206004820152601460248201527f417373657420657363726f77206973207a65726f000000000000000000000000604482015290519081900360640190fd5b426000809054906101000a9004600160a060020a0316600160a060020a031663a855d4ce8d60405160200180807f63726f776473616c652e646561646c696e65000000000000000000000000000081525060120182600160a060020a0316600160a060020a0316606060020a0281526014019150506040516020818303038152906040526040518082805190602001908083835b60208310611a245780518252601f199092019160209182019101611a05565b51815160209384036101000a60001901801990921691161790526040805192909401829003822063ffffffff881660e060020a0283526004830152925160248083019650939450929083900301905081600087803b158015611a8557600080fd5b505af1158015611a99573d6000803e3d6000fd5b505050506040513d6020811015611aaf57600080fd5b505110611b06576040805160e560020a62461bcd02815260206004820152601960248201527f4265666f72652063726f776473616c6520646561646c696e6500000000000000604482015290519081900360640190fd5b600054604080517f706c6174666f726d2e746f6b656e0000000000000000000000000000000000006020808301919091528251808303600e018152602e909201928390528151600160a060020a03909416936304f49a3a93918291908401908083835b60208310611b885780518252601f199092019160209182019101611b69565b51815160209384036101000a60001901801990921691161790526040805192909401829003822063ffffffff881660e060020a0283526004830152925160248083019650939450929083900301905081600087803b158015611be957600080fd5b505af1158015611bfd573d6000803e3d6000fd5b505050506040513d6020811015611c1357600080fd5b50516000546040805160008051602061336c83398151915260208281019190915260348083018e9052835180840390910181526054909201928390528151949b50600160a060020a039093169363a855d4ce939192918291908401908083835b60208310611c925780518252601f199092019160209182019101611c73565b51815160209384036101000a60001901801990921691161790526040805192909401829003822063ffffffff881660e060020a0283526004830152925160248083019650939450929083900301905081600087803b158015611cf357600080fd5b505af1158015611d07573d6000803e3d6000fd5b505050506040513d6020811015611d1d57600080fd5b50516000546040805160008051602061330c833981519152602082810191909152602c8083018e905283518084039091018152604c909201928390528151949a50611d9e948b94600160a060020a03169363a855d4ce939290918291840190808383602083106106215780518252601f199092019160209182019101610602565b94506000809054906101000a9004600160a060020a0316600160a060020a0316633b7bfda08c60405160200180807f63726f776473616c652e66696e616c697a65640000000000000000000000000081525060130182600160a060020a0316600160a060020a0316606060020a0281526014019150506040516020818303038152906040526040518082805190602001908083835b60208310611e525780518252601f199092019160209182019101611e33565b51815160209384036101000a60001901801990921691161790526040805192909401829003822063ffffffff881660e060020a0283526004830152925160248083019650939450929083900301905081600087803b158015611eb357600080fd5b505af1158015611ec7573d6000803e3d6000fd5b505050506040513d6020811015611edd57600080fd5b50511515611f3b576040517f1bee0d5a3487871ad4e01635c06a95326ecde99999b0a6864aecb98461a9249f90600090a1611f178b613092565b1515611f2257600080fd5b611f2b88613189565b1515611f3657600080fd5b612319565b8a935061205184600160a060020a03166318160ddd6040518163ffffffff1660e060020a028152600401602060405180830381600087803b158015611f7f57600080fd5b505af1158015611f93573d6000803e3d6000fd5b505050506040513d6020811015611fa957600080fd5b5051604080517f2ba1b3a1000000000000000000000000000000000000000000000000000000008152905161204591606491600160a060020a038a1691632ba1b3a19160048083019260209291908290030181600087803b15801561200d57600080fd5b505af1158015612021573d6000803e3d6000fd5b505050506040513d602081101561203757600080fd5b50519063ffffffff6127c316565b9063ffffffff6132f616565b925061206483601963ffffffff6132f616565b6040805182815290519193507ff0ee7a9cde4e5b0e9a9d319bc8cee8ea787f22fc6ebead5e549ba5e0ab7169f9919081900360200190a1600482111580156120ac5750600082115b15156120b757600080fd5b6000546040805160008051602061330c833981519152602080830191909152602c8083018d905283518084039091018152604c9092019283905281516121cf94600494600160a060020a039091169363a855d4ce93909282918401908083835b602083106121365780518252601f199092019160209182019101612117565b51815160209384036101000a60001901801990921691161790526040805192909401829003822063ffffffff881660e060020a0283526004830152925160248083019650939450929083900301905081600087803b15801561219757600080fd5b505af11580156121ab573d6000803e3d6000fd5b505050506040513d60208110156121c157600080fd5b50519063ffffffff6132f616565b90506121f1866121e5848463ffffffff6127c316565b9063ffffffff6127b116565b94506000851161220057600080fd5b6000546040805160008051602061336c83398151915260208083019190915260348083018d9052835180840390910181526054909201928390528151600160a060020a039094169363e2a4853a93918291908401908083835b602083106122785780518252601f199092019160209182019101612259565b6001836020036101000a03801982511681845116808217855250505050505090500191505060405180910390206122b8888a6127f990919063ffffffff16565b6040518363ffffffff1660e060020a02815260040180836000191660001916815260200182815260200192505050600060405180830381600087803b15801561230057600080fd5b505af1158015612314573d6000803e3d6000fd5b505050505b86600160a060020a031663a9059cbb8b876040518363ffffffff1660e060020a0281526004018083600160a060020a0316600160a060020a0316815260200182815260200192505050602060405180830381600087803b15801561237c57600080fd5b505af1158015612390573d6000803e3d6000fd5b505050506040513d60208110156123a657600080fd5b505115156123b357600080fd5b5060019a9950505050505050505050565b60008033600160a060020a038616148061250b5750600080546040805160008051602061332c833981519152602080830191909152600160a060020a038a8116606060020a9081026028850152338102603c850152300260508401529435600160e060020a03191660648301528251808303604801815260689092019283905281519490931693633b7bfda0939192918291908401908083835b6020831061247d5780518252601f19909201916020918201910161245e565b51815160209384036101000a60001901801990921691161790526040805192909401829003822063ffffffff881660e060020a0283526004830152925160248083019650939450929083900301905081600087803b1580156124de57600080fd5b505af11580156124f2573d6000803e3d6000fd5b505050506040513d602081101561250857600080fd5b50515b151561254f576040805160e560020a62461bcd028152602060048201526011602482015260008051602061338c833981519152604482015290519081900360640190fd5b6000546040805160008051602061334c833981519152602080830191909152600160a060020a038a8116606060020a02602d8401528351808403602101815260419093019384905282519416936304f49a3a93918291908401908083835b602083106125cc5780518252601f1990920191602091820191016125ad565b51815160209384036101000a60001901801990921691161790526040805192909401829003822063ffffffff881660e060020a0283526004830152925160248083019650939450929083900301905081600087803b15801561262d57600080fd5b505af1158015612641573d6000803e3d6000fd5b505050506040513d602081101561265757600080fd5b505160408051600160a060020a03898116606060020a90810260208085019190915282861682026034850152918a16026048830152605c82018890528615157f010000000000000000000000000000000000000000000000000000000000000002607c8301528251808303605d018152607d909201928390528151939450612746938a93600035600160e060020a0319169392909182918401908083835b602083106127145780518252601f1990920191602091820191016126f5565b6001836020036101000a0380198251168184511680821785525050505050509050019150506040518091039020611377565b151561275157600080fd5b600160a060020a03818116908616141561276a57600080fd5b61277386613092565b151561277e57600080fd5b82151561278f5761278f8682612d9e565b61279a858786612808565b15156127a557600080fd5b50600195945050505050565b6000828211156127bd57fe5b50900390565b6000808315156127d657600091506127f2565b508282028284828115156127e657fe5b04146127ee57fe5b8091505b5092915050565b6000828201838110156127ee57fe5b600080600084866040516020018083600160a060020a0316600160a060020a0316606060020a02815260140182600160a060020a0316600160a060020a0316606060020a028152601401925050506040516020818303038152906040526040518082805190602001908083835b602083106128945780518252601f199092019160209182019101612875565b51815160209384036101000a60001901801990921691161790526040805192909401829003822060005460008051602061330c83398151915284840152602c80850183905286518086039091018152604c909401958690528351919950600160a060020a0316965063a855d4ce9550919392508291908401908083835b602083106129305780518252601f199092019160209182019101612911565b51815160209384036101000a60001901801990921691161790526040805192909401829003822063ffffffff881660e060020a0283526004830152925160248083019650939450929083900301905081600087803b15801561299157600080fd5b505af11580156129a5573d6000803e3d6000fd5b505050506040513d60208110156129bb57600080fd5b505115612a12576040805160e560020a62461bcd02815260206004820152601860248201527f417373657420657363726f7720616c7265616479207365740000000000000000604482015290519081900360640190fd5b600054604080517f706c6174666f726d2e746f6b656e0000000000000000000000000000000000006020808301919091528251808303600e018152602e909201928390528151600160a060020a03909416936304f49a3a93918291908401908083835b60208310612a945780518252601f199092019160209182019101612a75565b51815160209384036101000a60001901801990921691161790526040805192909401829003822063ffffffff881660e060020a0283526004830152925160248083019650939450929083900301905081600087803b158015612af557600080fd5b505af1158015612b09573d6000803e3d6000fd5b505050506040513d6020811015612b1f57600080fd5b5051604080517f23b872dd000000000000000000000000000000000000000000000000000000008152600160a060020a038981166004830152306024830152604482018890529151929350908316916323b872dd916064808201926020929091908290030181600087803b158015612b9657600080fd5b505af1158015612baa573d6000803e3d6000fd5b505050506040513d6020811015612bc057600080fd5b50511515612bcd57600080fd5b6000546040805160008051602061330c833981519152602080830191909152602c80830187905283518084039091018152604c909201928390528151600160a060020a039094169363e2a4853a93918291908401908083835b60208310612c455780518252601f199092019160209182019101612c26565b5181516020939093036101000a60001901801990911692169190911790526040805191909301819003812063ffffffff871660e060020a0282526004820152602481018b9052915160448084019550600094509092839003019050818387803b158015612cb157600080fd5b505af1158015612cc5573d6000803e3d6000fd5b5050600154604080517f0b94df4c000000000000000000000000000000000000000000000000000000008152600160a060020a038a81166024830152604482018890528b81166064830152608482018a905260a06004830152600d60a48301527f457363726f77206c6f636b65640000000000000000000000000000000000000060c48301529151919092169350630b94df4c925060e480830192600092919082900301818387803b158015612d7a57600080fd5b505af1158015612d8e573d6000803e3d6000fd5b5060019998505050505050505050565b60008083836040516020018083600160a060020a0316600160a060020a0316606060020a02815260140182600160a060020a0316600160a060020a0316606060020a028152601401925050506040516020818303038152906040526040518082805190602001908083835b60208310612e285780518252601f199092019160209182019101612e09565b51815160209384036101000a6000190180199092169116179052604080519290940182900382206000547f657363726f7752656465656d656400000000000000000000000000000000000084840152602e80850183905286518086039091018152604e909401958690528351919950612fdc9750600160a060020a0316955063a855d4ce9492935082918401908083835b60208310612ed85780518252601f199092019160209182019101612eb9565b51815160209384036101000a60001901801990921691161790526040805192909401829003822063ffffffff881660e060020a0283526004830152925160248083019650939450929083900301905081600087803b158015612f3957600080fd5b505af1158015612f4d573d6000803e3d6000fd5b505050506040513d6020811015612f6357600080fd5b50516000546040805160008051602061330c833981519152602082810191909152602c80830189905283518084039091018152604c909201928390528151600160a060020a039094169363a855d4ce9391829190840190808383602083106106215780518252601f199092019160209182019101610602565b9050612fe782613189565b1515612ff257600080fd5b83600160a060020a031663a9059cbb84836040518363ffffffff1660e060020a0281526004018083600160a060020a0316600160a060020a0316815260200182815260200192505050602060405180830381600087803b15801561305557600080fd5b505af1158015613069573d6000803e3d6000fd5b505050506040513d602081101561307f57600080fd5b5051151561308c57600080fd5b50505050565b600080546040805160008051602061334c833981519152602080830191909152600160a060020a03868116606060020a02602d840152835180840360210181526041909301938490528251941693630e14a37693918291908401908083835b602083106131105780518252601f1990920191602091820191016130f1565b5181516020939093036101000a60001901801990911692169190911790526040805191909301819003812063ffffffff871660e060020a0282526004820152915160248084019550600094509092839003019050818387803b15801561317557600080fd5b505af11580156127a5573d6000803e3d6000fd5b600080546040805160008051602061330c833981519152602080830191909152602c80830187905283518084039091018152604c909201928390528151600160a060020a039094169363e2b202bf93918291908401908083835b602083106132025780518252601f1990920191602091820191016131e3565b5181516020939093036101000a60001901801990911692169190911790526040805191909301819003812063ffffffff871660e060020a0282526004820152915160248084019550600094509092839003019050818387803b15801561326757600080fd5b505af115801561327b573d6000803e3d6000fd5b50506000546040805160008051602061336c8339815191526020808301919091526034808301899052835180840390910181526054909201928390528151600160a060020a03909416955063e2b202bf945090928291840190808383602083106131105780518252601f1990920191602091820191016130f1565b6000818381151561330357fe5b049392505050560061737365742e657363726f770000000000000000000000000000000000000000617070726f76616c00000000000000000000000000000000000000000000000061737365742e6d616e616765720000000000000000000000000000000000000061737365742e657363726f7752656465656d656400000000000000000000000055736572206e6f7420617070726f766564000000000000000000000000000000a165627a7a72305820b869408d791475902cbbea9582e88449b65fe203c1abbf1131b590d1df46fbec0029",
  "source": "pragma solidity ^0.4.24;\n\n  import \"../math/SafeMath.sol\";\n  import \"../interfaces/DBInterface.sol\";\n  import \"../database/Events.sol\";\n\n  interface AssetManagerEscrow_ERC20 {\n    function transfer(address _to, uint256 _value) external returns (bool);\n    function transferFrom(address _from, address _to, uint256 _value) external returns (bool);\n    function burn(uint _amount) external returns (bool);\n    function burnFrom(address _user, uint _amount) external returns (bool);\n    function balanceOf(address _user) external view returns (uint);\n  }\n\n  interface AssetManagerEscrow_DivToken {\n    function totalSupply() external view returns (uint);\n    function assetIncome() external view returns (uint);\n  }\n\n  interface Consensus { function hasConsensus(address _assetAddress, bytes4 methodID, bytes32 parameterHash) external view returns (bool); }\n\n  // @title A contract to hold escrow as collateral against assets\n  // @author Kyle Dewhurst, MyBit Foundation\n  // @notice AssetManager can lock his escrow in this contract and retrieve it if asset funding fails or successfully returns ROI\n  contract AssetManagerEscrow {\n\n    using SafeMath for uint256;\n\n    DBInterface public database;\n    Events public events;\n\n    //uint public consensus = 66;\n\n    // @notice constructor: initializes database\n    // @param: the address for the database contract used by this platform\n    constructor(address _database, address _events)\n    public {\n      database = DBInterface(_database);\n      events = Events(_events);\n    }\n\n    // @dev assetID can be computed beforehand with sha3(_assetManager, _amountToRaise, _operatorID, _assetURI))\n    // @dev anybody can make the assetManager escrow if he leaves this contract with approval to transfer\n    function lockEscrow(address _assetAddress, address _assetManager, uint _amount)\n    public\n    returns (bool) {\n      require(msg.sender == _assetManager || database.boolStorage(keccak256(abi.encodePacked(\"approval\", _assetManager, msg.sender, address(this), msg.sig))), 'User not approved');\n      require(lockEscrowInternal(_assetManager, _assetAddress, _amount));\n      return true;\n    }\n\n\n\n    // @notice assetManager can unlock his escrow here once funding fails or asset returns sufficient ROI\n    // @dev asset must have fundingDeadline = 0 or have ROI > 25%\n    // @dev returns escrow according to ROI. 25% ROI returns 25% of escrow, 50% ROI returns 50% of escrow etc...\n    function unlockEscrow(address _assetAddress, address _assetManager)\n    public\n    returns (bool) {\n      require(msg.sender == _assetManager || database.boolStorage(keccak256(abi.encodePacked(\"approval\", _assetManager, msg.sender, address(this), msg.sig))), 'User not approved');\n      bytes32 assetManagerEscrowID = keccak256(abi.encodePacked(_assetAddress, _assetManager));\n      require(database.uintStorage(keccak256(abi.encodePacked(\"asset.escrow\", assetManagerEscrowID))) != 0, 'Asset escrow is zero');\n      require(database.uintStorage(keccak256(abi.encodePacked(\"crowdsale.deadline\", _assetAddress))) < now, 'Before crowdsale deadline');\n      AssetManagerEscrow_ERC20 burnToken = AssetManagerEscrow_ERC20(database.addressStorage(keccak256(abi.encodePacked(\"platform.token\"))));\n      uint escrowRedeemed = database.uintStorage(keccak256(abi.encodePacked(\"asset.escrowRedeemed\", assetManagerEscrowID)));\n      uint unlockAmount = database.uintStorage(keccak256(abi.encodePacked(\"asset.escrow\", assetManagerEscrowID))).sub(escrowRedeemed);\n      if(!database.boolStorage(keccak256(abi.encodePacked(\"crowdsale.finalized\", _assetAddress)))){\n        emit NotFinalized();\n        //If we're past deadline but crowdsale did NOT finalize, release all escrow\n        require(removeAssetManager(_assetAddress));\n        require(removeEscrowData(assetManagerEscrowID));\n      }\n      else {\n        //Past the deadline with a successful funding. Only pay back based on ROI\n        AssetManagerEscrow_DivToken token = AssetManagerEscrow_DivToken(_assetAddress);\n        uint roi = token.assetIncome().mul(100).div(token.totalSupply());   // Scaled up by 10^2  (approaches 100 as asset income increases)\n        uint roiCheckpoints = roi.div(25);       // How many quarterly increments have been reached?\n        emit ROICheckpoint(roiCheckpoints);\n        require(roiCheckpoints <= 4 && roiCheckpoints > 0);    // Can't unlock escrow past 100% ROI\n        //  multiply the number of quarterly increments by a quarter of the escrow and subtract the escrow already redeemed.\n        uint quarterEscrow = database.uintStorage(keccak256(abi.encodePacked(\"asset.escrow\", assetManagerEscrowID))).div(4);\n        unlockAmount = roiCheckpoints.mul(quarterEscrow).sub(escrowRedeemed);\n        require(unlockAmount > 0);\n        database.setUint(keccak256(abi.encodePacked(\"asset.escrowRedeemed\", assetManagerEscrowID)), escrowRedeemed.add(unlockAmount));\n      }\n      require(burnToken.transfer(_assetManager, unlockAmount));\n      return true;\n    }\n\n\n    // @notice investors can vote to call this function for the new assetManager to then call\n    // @dev new assetManager must approve this contract to transfer in and lock _ amount of platform tokens\n    function becomeAssetManager(address _assetAddress, address _newAssetManager, uint256 _amount, bool _withhold)\n    external\n    returns (bool) {\n      //Check for approval\n      require(msg.sender == _newAssetManager || database.boolStorage(keccak256(abi.encodePacked(\"approval\", _newAssetManager, msg.sender, address(this), msg.sig))), 'User not approved');\n      address currentAssetManager = database.addressStorage(keccak256(abi.encodePacked(\"asset.manager\", _assetAddress)));\n      require(passed(_assetAddress, msg.sig, keccak256(abi.encodePacked(_assetAddress, currentAssetManager, _newAssetManager, _amount, _withhold))));\n      require(currentAssetManager != _newAssetManager);\n      //Remove current asset manager\n      require(removeAssetManager(_assetAddress));\n      if(!_withhold){\n        processEscrow(_assetAddress, currentAssetManager);\n      }\n      require(lockEscrowInternal(_newAssetManager, _assetAddress, _amount));\n      return true;\n    }\n\n    function returnEscrow(address _assetAddress, address _oldAssetManager, address _currentAssetManager)\n    external\n    {\n      require(msg.sender == _currentAssetManager || database.boolStorage(keccak256(abi.encodePacked(\"approval\", _currentAssetManager, msg.sender, address(this), msg.sig))), 'User not approved');\n      require(database.addressStorage(keccak256(abi.encodePacked(\"asset.manager\", _assetAddress))) == _currentAssetManager);\n      processEscrow(_assetAddress, _oldAssetManager);\n    }\n\n    function burnEscrow(address _assetAddress, uint _amountToBurn)\n    public\n    returns (bool) {\n      bytes32 assetManagerEscrowID = keccak256(abi.encodePacked(_assetAddress, database.addressStorage(keccak256(abi.encodePacked(\"asset.manager\", _assetAddress)))));\n      bytes32 commitmentID = keccak256(abi.encodePacked(\"commitment.value\", _assetAddress, msg.sender));\n      uint escrowRedeemed = database.uintStorage(keccak256(abi.encodePacked(\"asset.escrowRedeemed\", assetManagerEscrowID)));\n      uint unlockAmount = database.uintStorage(keccak256(abi.encodePacked(\"asset.escrow\", assetManagerEscrowID))).sub(escrowRedeemed);\n      require(unlockAmount >= _amountToBurn, \"asset manager has no escrow left\");\n      uint256 selfBurnAmount = _amountToBurn.mul(database.uintStorage(keccak256(abi.encodePacked(\"platform.burnRate\"))));\n      require(AssetManagerEscrow_ERC20(_assetAddress).balanceOf(msg.sender) >= selfBurnAmount);\n      require(AssetManagerEscrow_ERC20(_assetAddress).burnFrom(msg.sender, selfBurnAmount));  // burn investor tokens\n      require(AssetManagerEscrow_ERC20(database.addressStorage(keccak256(abi.encodePacked(\"platform.token\")))).burn(_amountToBurn));  // burn manager tokens\n      database.setUint(keccak256(abi.encodePacked(\"asset.escrowRedeemed\", assetManagerEscrowID)), escrowRedeemed.add(_amountToBurn));  // mark burned _assetAddresss as redeemed\n      database.setUint(commitmentID, database.uintStorage(commitmentID).sub(selfBurnAmount));   // reduce commitment amount\n      return true;\n    }\n\n    // @notice platform owners can destroy contract here\n    function destroy()\n    onlyOwner\n    external {\n      events.transaction('AssetManagerEscrow destroyed', address(this), msg.sender, address(this).balance, '');\n      selfdestruct(msg.sender);\n    }\n\n    // @notice returns true if vote quorum and vote threshold are reached\n    function passed(address _assetAddress, bytes4 methodID, bytes32 parameterHash)\n    public\n    view\n    returns (bool){\n      address governanceContract = database.addressStorage(keccak256(abi.encodePacked(\"asset.governance\")));\n      return Consensus(governanceContract).hasConsensus(_assetAddress, methodID, parameterHash);\n    }\n\n    //////////////////////////////////////////////////////////////////////////////////////////////////////////////////\n    //                                            Internal/ Private Functions\n    //////////////////////////////////////////////////////////////////////////////////////////////////////////////////\n\n    function processEscrow(address _assetAddress, address _oldAssetManager)\n    private\n    {\n      bytes32 oldAssetManagerEscrowID = keccak256(abi.encodePacked(_assetAddress, _oldAssetManager));\n      uint oldEscrowRemaining = database.uintStorage(keccak256(abi.encodePacked(\"asset.escrow\", oldAssetManagerEscrowID))).sub(database.uintStorage(keccak256(abi.encodePacked(\"escrowRedeemed\", oldAssetManagerEscrowID))));\n      require(removeEscrowData(oldAssetManagerEscrowID));\n      require(AssetManagerEscrow_ERC20(_assetAddress).transfer(_oldAssetManager, oldEscrowRemaining));\n    }\n\n    function removeAssetManager(address _assetAddress)\n    private\n    returns (bool) {\n        database.deleteAddress(keccak256(abi.encodePacked(\"asset.manager\", _assetAddress)));\n        return true;\n    }\n\n    function removeEscrowData(bytes32 _assetManagerEscrowID)\n    private\n    returns (bool) {\n        database.deleteUint(keccak256(abi.encodePacked(\"asset.escrow\", _assetManagerEscrowID)));\n        database.deleteUint(keccak256(abi.encodePacked(\"asset.escrowRedeemed\", _assetManagerEscrowID)));\n        return true;\n    }\n\n    function lockEscrowInternal(address _assetManager, address _assetAddress, uint _amount)\n    private\n    returns (bool) {\n      bytes32 assetManagerEscrowID = keccak256(abi.encodePacked(_assetAddress, _assetManager));\n      require(database.uintStorage(keccak256(abi.encodePacked(\"asset.escrow\", assetManagerEscrowID))) == 0, 'Asset escrow already set');\n      address platformToken = database.addressStorage(keccak256(abi.encodePacked(\"platform.token\")));\n      require(AssetManagerEscrow_ERC20(platformToken).transferFrom(_assetManager, address(this), _amount));\n      database.setUint(keccak256(abi.encodePacked(\"asset.escrow\", assetManagerEscrowID)), _amount);\n      events.escrow('Escrow locked', _assetAddress, assetManagerEscrowID, _assetManager, _amount);\n      return true;\n    }\n\n  //////////////////////////////////////////////////////////////////////////////////////////////////////////////////\n  //                                            Modifiers\n  //////////////////////////////////////////////////////////////////////////////////////////////////////////////////\n\n    // @notice This modifier checks is msg.sender has approval to call the function\n    modifier hasApproval(address _approver, bytes4 _sig){\n      require(msg.sender == _approver || database.boolStorage(keccak256(abi.encodePacked(\"approval\", _approver, msg.sender, address(this), _sig))));\n      _;\n    }\n\n    // @notice reverts if caller is not the owner\n    modifier onlyOwner {\n      require(database.boolStorage(keccak256(abi.encodePacked(\"owner\", msg.sender))) == true);\n      _;\n    }\n\n    event NotFinalized();\n    event ROICheckpoint(uint checkpoint);\n    /*\n    event LogConsensus(bytes32 votesID, uint votes, uint _assetAddresss, bytes32 executionID, uint quorum);\n    event LogEscrowBurned(bytes32 indexed _assetAddress, address indexed _assetManager, uint _amountBurnt);\n    event LogEscrowLocked(bytes32 indexed _assetAddress, bytes32 indexed _assetManagerEscrowID, address indexed _assetManager, uint _amount);\n    */\n}\n",
  "sourcePath": "/home/peter/Documents/Work/MyBit/MyBit-Network.tech/contracts/roles/AssetManagerEscrow.sol",
  "compiler": {
    "name": "solc",
    "version": "0.4.24+commit.e67f0147.Emscripten.clang"
  },
  "schemaVersion": "3.0.1",
  "updatedAt": "2019-03-13T22:36:34.884Z",
  "devdoc": {
    "methods": {}
  },
  "userdoc": {
    "methods": {}
  }
}