{
  "contractName": "AssetManagerEscrow",
  "abi": [
    {
      "constant": true,
      "inputs": [],
      "name": "database",
      "outputs": [
        {
          "name": "",
          "type": "address"
        }
      ],
      "payable": false,
      "stateMutability": "view",
      "type": "function"
    },
    {
      "constant": true,
      "inputs": [],
      "name": "events",
      "outputs": [
        {
          "name": "",
          "type": "address"
        }
      ],
      "payable": false,
      "stateMutability": "view",
      "type": "function"
    },
    {
      "inputs": [
        {
          "name": "_database",
          "type": "address"
        },
        {
          "name": "_events",
          "type": "address"
        }
      ],
      "payable": false,
      "stateMutability": "nonpayable",
      "type": "constructor"
    },
    {
      "anonymous": false,
      "inputs": [],
      "name": "NotFinalized",
      "type": "event"
    },
    {
      "anonymous": false,
      "inputs": [
        {
          "indexed": false,
          "name": "checkpoint",
          "type": "uint256"
        }
      ],
      "name": "ROICheckpoint",
      "type": "event"
    },
    {
      "constant": false,
      "inputs": [
        {
          "name": "_assetAddress",
          "type": "address"
        },
        {
          "name": "_assetManager",
          "type": "address"
        },
        {
          "name": "_amount",
          "type": "uint256"
        }
      ],
      "name": "lockEscrow",
      "outputs": [
        {
          "name": "",
          "type": "bool"
        }
      ],
      "payable": false,
      "stateMutability": "nonpayable",
      "type": "function"
    },
    {
      "constant": false,
      "inputs": [
        {
          "name": "_assetAddress",
          "type": "address"
        },
        {
          "name": "_assetManager",
          "type": "address"
        }
      ],
      "name": "unlockEscrow",
      "outputs": [
        {
          "name": "",
          "type": "bool"
        }
      ],
      "payable": false,
      "stateMutability": "nonpayable",
      "type": "function"
    },
    {
      "constant": false,
      "inputs": [
        {
          "name": "_assetAddress",
          "type": "address"
        },
        {
          "name": "_newAssetManager",
          "type": "address"
        },
        {
          "name": "_amount",
          "type": "uint256"
        },
        {
          "name": "_withhold",
          "type": "bool"
        }
      ],
      "name": "becomeAssetManager",
      "outputs": [
        {
          "name": "",
          "type": "bool"
        }
      ],
      "payable": false,
      "stateMutability": "nonpayable",
      "type": "function"
    },
    {
      "constant": false,
      "inputs": [
        {
          "name": "_assetAddress",
          "type": "address"
        },
        {
          "name": "_oldAssetManager",
          "type": "address"
        },
        {
          "name": "_currentAssetManager",
          "type": "address"
        }
      ],
      "name": "returnEscrow",
      "outputs": [],
      "payable": false,
      "stateMutability": "nonpayable",
      "type": "function"
    },
    {
      "constant": false,
      "inputs": [
        {
          "name": "_assetAddress",
          "type": "address"
        }
      ],
      "name": "voteToBurn",
      "outputs": [
        {
          "name": "",
          "type": "bool"
        }
      ],
      "payable": false,
      "stateMutability": "nonpayable",
      "type": "function"
    },
    {
      "constant": false,
      "inputs": [
        {
          "name": "_assetAddress",
          "type": "address"
        },
        {
          "name": "_amountToBurn",
          "type": "uint256"
        }
      ],
      "name": "mutualBurn",
      "outputs": [
        {
          "name": "",
          "type": "bool"
        }
      ],
      "payable": false,
      "stateMutability": "nonpayable",
      "type": "function"
    },
    {
      "constant": false,
      "inputs": [],
      "name": "destroy",
      "outputs": [],
      "payable": false,
      "stateMutability": "nonpayable",
      "type": "function"
    }
  ],
  "bytecode": "0x60806040523480156200001157600080fd5b5060405160408062003c8c833981016040818152825160209384015160008054600160a060020a03808516600160a060020a03199283161792839055600180548286169316929092179091557f636f6e7472616374000000000000000000000000000000000000000000000000878701527f457363726f7752657365727665000000000000000000000000000000000000006028870152845160158188030181526035909601948590528551939692959116936304f49a3a939192909182918401908083835b60208310620000f85780518252601f199092019160209182019101620000d7565b51815160209384036101000a60001901801990921691161790526040805192909401829003822063ffffffff88167c01000000000000000000000000000000000000000000000000000000000283526004830152925160248083019650939450929083900301905081600087803b1580156200017357600080fd5b505af115801562000188573d6000803e3d6000fd5b505050506040513d60208110156200019f57600080fd5b505160028054600160a060020a031916600160a060020a0390921691909117905550613ab9905080620001d36000396000f30060806040526004361061007f5763ffffffff60e060020a600035041663303d0c6b81146100845780634a364354146100c2578063713b563f146100e357806383197ef014610114578063abc0bbf31461012b578063b5f8558c14610158578063b747efb61461016d578063d753930d14610194578063f0e01b67146101b8575b600080fd5b34801561009057600080fd5b506100ae600160a060020a03600435811690602435166044356101e7565b604080519115158252519081900360200190f35b3480156100ce57600080fd5b506100ae600160a060020a03600435166103ca565b3480156100ef57600080fd5b506100f8610c0b565b60408051600160a060020a039092168252519081900360200190f35b34801561012057600080fd5b50610129610c1a565b005b34801561013757600080fd5b50610129600160a060020a0360043581169060243581169060443516610e0c565b34801561016457600080fd5b506100f8611100565b34801561017957600080fd5b506100ae600160a060020a036004358116906024351661110f565b3480156101a057600080fd5b506100ae600160a060020a0360043516602435611fbf565b3480156101c457600080fd5b506100ae600160a060020a03600435811690602435166044356064351515612a20565b600033600160a060020a0384161480610354575060008054604080517f617070726f76616c000000000000000000000000000000000000000000000000602080830191909152600160a060020a03888116606060020a9081026028850152338102603c8501523002605084015294357bffffffffffffffffffffffffffffffffffffffffffffffffffffffff191660648301528251808303604801815260689092019283905281519490931693633b7bfda0939192918291908401908083835b602083106102c65780518252601f1990920191602091820191016102a7565b51815160209384036101000a60001901801990921691161790526040805192909401829003822063ffffffff881660e060020a0283526004830152925160248083019650939450929083900301905081600087803b15801561032757600080fd5b505af115801561033b573d6000803e3d6000fd5b505050506040513d602081101561035157600080fd5b50515b15156103aa576040805160e560020a62461bcd02815260206004820152601160248201527f55736572206e6f7420617070726f766564000000000000000000000000000000604482015290519081900360640190fd5b6103b5838584612d59565b15156103c057600080fd5b5060019392505050565b60008054604080517f61737365742e64616f2e61646d696e0000000000000000000000000000000000602080830191909152600160a060020a03868116606060020a02602f84015283518084036023018152604390930193849052825186958695869593909116936304f49a3a939282918401908083835b602083106104615780518252601f199092019160209182019101610442565b51815160209384036101000a60001901801990921691161790526040805192909401829003822063ffffffff881660e060020a0283526004830152925160248083019650939450929083900301905081600087803b1580156104c257600080fd5b505af11580156104d6573d6000803e3d6000fd5b505050506040513d60208110156104ec57600080fd5b5051600160a060020a03163314610599576040805160e560020a62461bcd02815260206004820152604660248201527f4f6e6c79207468652061737365742044414f2061646d696e7374726174696f6e60448201527f20636f6e7472616374206d6179206368616e676520746865206173736574206d60648201527f616e616765720000000000000000000000000000000000000000000000000000608482015290519081900360a40190fd5b60005460408051600080516020613a2e833981519152602080830191909152600160a060020a03898116606060020a02602d8401528351808403602101815260419093019384905282518a9591909116936304f49a3a9392909182918401908083835b6020831061061b5780518252601f1990920191602091820191016105fc565b51815160209384036101000a60001901801990921691161790526040805192909401829003822063ffffffff881660e060020a0283526004830152925160248083019650939450929083900301905081600087803b15801561067c57600080fd5b505af1158015610690573d6000803e3d6000fd5b505050506040513d60208110156106a657600080fd5b505160408051606060020a600160a060020a0394851681026020838101919091529490931690920260348301528051602881840301815260489092019081905281519192909182918401908083835b602083106107145780518252601f1990920191602091820191016106f5565b51815160209384036101000a600019018019909216911617905260408051929094018290038220600054600080516020613a4e833981519152848401526034808501839052865180860390910181526054909401958690528351919a50600160a060020a0316965063a855d4ce9550919392508291908401908083835b602083106107b05780518252601f199092019160209182019101610791565b51815160209384036101000a60001901801990921691161790526040805192909401829003822063ffffffff881660e060020a0283526004830152925160248083019650939450929083900301905081600087803b15801561081157600080fd5b505af1158015610825573d6000803e3d6000fd5b505050506040513d602081101561083b57600080fd5b505160005460408051600080516020613a0e833981519152602082810191909152602c80830189905283518084039091018152604c909201928390528151949650610956948794600160a060020a03169363a855d4ce9392909182918401908083835b602083106108bd5780518252601f19909201916020918201910161089e565b51815160209384036101000a60001901801990921691161790526040805192909401829003822063ffffffff881660e060020a0283526004830152925160248083019650939450929083900301905081600087803b15801561091e57600080fd5b505af1158015610932573d6000803e3d6000fd5b505050506040513d602081101561094857600080fd5b50519063ffffffff6132e216565b60025460005460408051600080516020613a6e8339815191526020808301919091528251808303600e018152602e909201928390528151959650600160a060020a039485169563bd4de9cd95889516936304f49a3a9392909182918401908083835b602083106109d75780518252601f1990920191602091820191016109b8565b51815160209384036101000a60001901801990921691161790526040805192909401829003822063ffffffff881660e060020a0283526004830152925160248083019650939450929083900301905081600087803b158015610a3857600080fd5b505af1158015610a4c573d6000803e3d6000fd5b505050506040513d6020811015610a6257600080fd5b50516040805160e060020a63ffffffff86160281526004810193909352600160a060020a0390911660248301525160448083019260209291908290030181600087803b158015610ab157600080fd5b505af1158015610ac5573d6000803e3d6000fd5b505050506040513d6020811015610adb57600080fd5b50511515610ae857600080fd5b60005460408051600080516020613a4e8339815191526020808301919091526034808301889052835180840390910181526054909201928390528151600160a060020a039094169363e2a4853a93918291908401908083835b60208310610b605780518252601f199092019160209182019101610b41565b6001836020036101000a0380198251168184511680821785525050505050509050019150506040518091039020610ba084866132f490919063ffffffff16565b6040518363ffffffff1660e060020a02815260040180836000191660001916815260200182815260200192505050600060405180830381600087803b158015610be857600080fd5b505af1158015610bfc573d6000803e3d6000fd5b50600198975050505050505050565b600054600160a060020a031681565b600054604080517f6f776e6572000000000000000000000000000000000000000000000000000000602080830191909152606060020a33026025830152825160198184030181526039909201928390528151600160a060020a0390941693633b7bfda093918291908401908083835b60208310610ca85780518252601f199092019160209182019101610c89565b51815160209384036101000a60001901801990921691161790526040805192909401829003822063ffffffff881660e060020a0283526004830152925160248083019650939450929083900301905081600087803b158015610d0957600080fd5b505af1158015610d1d573d6000803e3d6000fd5b505050506040513d6020811015610d3357600080fd5b50511515600114610d4357600080fd5b600154604080517f42b425aa000000000000000000000000000000000000000000000000000000008152306024820181905233604483015231606482015260006084820181905260a06004830152601c60a48301527f41737365744d616e61676572457363726f772064657374726f7965640000000060c48301529151600160a060020a03909316926342b425aa9260e48084019391929182900301818387803b158015610df057600080fd5b505af1158015610e04573d6000803e3d6000fd5b503392505050ff5b33600160a060020a0382161480610f77575060008054604080517f617070726f76616c000000000000000000000000000000000000000000000000602080830191909152600160a060020a03868116606060020a9081026028850152338102603c8501523002605084015294357bffffffffffffffffffffffffffffffffffffffffffffffffffffffff191660648301528251808303604801815260689092019283905281519490931693633b7bfda0939192918291908401908083835b60208310610ee95780518252601f199092019160209182019101610eca565b51815160209384036101000a60001901801990921691161790526040805192909401829003822063ffffffff881660e060020a0283526004830152925160248083019650939450929083900301905081600087803b158015610f4a57600080fd5b505af1158015610f5e573d6000803e3d6000fd5b505050506040513d6020811015610f7457600080fd5b50515b1515610fcd576040805160e560020a62461bcd02815260206004820152601160248201527f55736572206e6f7420617070726f766564000000000000000000000000000000604482015290519081900360640190fd5b60005460408051600080516020613a2e833981519152602080830191909152600160a060020a03878116606060020a02602d8401528351808403602101815260419093019384905282518682169591909116936304f49a3a9392909182918401908083835b602083106110515780518252601f199092019160209182019101611032565b51815160209384036101000a60001901801990921691161790526040805192909401829003822063ffffffff881660e060020a0283526004830152925160248083019650939450929083900301905081600087803b1580156110b257600080fd5b505af11580156110c6573d6000803e3d6000fd5b505050506040513d60208110156110dc57600080fd5b5051600160a060020a0316146110f157600080fd5b6110fb838361330e565b505050565b600154600160a060020a031681565b600080808080808080808033600160a060020a038c16148061131357506000809054906101000a9004600160a060020a0316600160a060020a0316633b7bfda08c33306000357bffffffffffffffffffffffffffffffffffffffffffffffffffffffff191660405160200180807f617070726f76616c00000000000000000000000000000000000000000000000081525060080185600160a060020a0316600160a060020a0316606060020a02815260140184600160a060020a0316600160a060020a0316606060020a02815260140183600160a060020a0316600160a060020a0316606060020a028152601401827bffffffffffffffffffffffffffffffffffffffffffffffffffffffff19167bffffffffffffffffffffffffffffffffffffffffffffffffffffffff191681526004019450505050506040516020818303038152906040526040518082805190602001908083835b602083106112855780518252601f199092019160209182019101611266565b51815160209384036101000a60001901801990921691161790526040805192909401829003822063ffffffff881660e060020a0283526004830152925160248083019650939450929083900301905081600087803b1580156112e657600080fd5b505af11580156112fa573d6000803e3d6000fd5b505050506040513d602081101561131057600080fd5b50515b1515611369576040805160e560020a62461bcd02815260206004820152601160248201527f55736572206e6f7420617070726f766564000000000000000000000000000000604482015290519081900360640190fd5b8b8b6040516020018083600160a060020a0316600160a060020a0316606060020a02815260140182600160a060020a0316600160a060020a0316606060020a028152601401925050506040516020818303038152906040526040518082805190602001908083835b602083106113f05780518252601f1990920191602091820191016113d1565b6001836020036101000a038019825116818451168082178552505050505050905001915050604051809103902098506000809054906101000a9004600160a060020a0316600160a060020a031663a855d4ce8a6040516020018080600080516020613a0e833981519152815250600c0182600019166000191681526020019150506040516020818303038152906040526040518082805190602001908083835b602083106114af5780518252601f199092019160209182019101611490565b51815160209384036101000a60001901801990921691161790526040805192909401829003822063ffffffff881660e060020a0283526004830152925160248083019650939450929083900301905081600087803b15801561151057600080fd5b505af1158015611524573d6000803e3d6000fd5b505050506040513d602081101561153a57600080fd5b50511515611592576040805160e560020a62461bcd02815260206004820152601460248201527f417373657420657363726f77206973207a65726f000000000000000000000000604482015290519081900360640190fd5b60005460408051600080516020613a6e8339815191526020808301919091528251808303600e018152602e909201928390528151600160a060020a03909416936304f49a3a93918291908401908083835b602083106116025780518252601f1990920191602091820191016115e3565b51815160209384036101000a60001901801990921691161790526040805192909401829003822063ffffffff881660e060020a0283526004830152925160248083019650939450929083900301905081600087803b15801561166357600080fd5b505af1158015611677573d6000803e3d6000fd5b505050506040513d602081101561168d57600080fd5b505160005460408051600080516020613a0e833981519152602082810191909152602c8083018f905283518084039091018152604c909201928390528151949c50600160a060020a039093169363a855d4ce939192918291908401908083835b6020831061170c5780518252601f1990920191602091820191016116ed565b51815160209384036101000a60001901801990921691161790526040805192909401829003822063ffffffff881660e060020a0283526004830152925160248083019650939450929083900301905081600087803b15801561176d57600080fd5b505af1158015611781573d6000803e3d6000fd5b505050506040513d602081101561179757600080fd5b505160005460408051600080516020613a4e83398151915260208281019190915260348083018f9052835180840390910181526054909201928390528151949b50600160a060020a039093169363a855d4ce939192918291908401908083835b602083106118165780518252601f1990920191602091820191016117f7565b51815160209384036101000a60001901801990921691161790526040805192909401829003822063ffffffff881660e060020a0283526004830152925160248083019650939450929083900301905081600087803b15801561187757600080fd5b505af115801561188b573d6000803e3d6000fd5b505050506040513d60208110156118a157600080fd5b505195506118b5878763ffffffff6132e216565b94506000809054906101000a9004600160a060020a0316600160a060020a0316633b7bfda08d60405160200180807f63726f776473616c652e66696e616c697a65640000000000000000000000000081525060130182600160a060020a0316600160a060020a0316606060020a0281526014019150506040516020818303038152906040526040518082805190602001908083835b602083106119695780518252601f19909201916020918201910161194a565b51815160209384036101000a60001901801990921691161790526040805192909401829003822063ffffffff881660e060020a0283526004830152925160248083019650939450929083900301905081600087803b1580156119ca57600080fd5b505af11580156119de573d6000803e3d6000fd5b505050506040513d60208110156119f457600080fd5b50511515611c4e57426000809054906101000a9004600160a060020a0316600160a060020a031663a855d4ce8e60405160200180807f63726f776473616c652e646561646c696e65000000000000000000000000000081525060120182600160a060020a0316600160a060020a0316606060020a0281526014019150506040516020818303038152906040526040518082805190602001908083835b60208310611aaf5780518252601f199092019160209182019101611a90565b51815160209384036101000a60001901801990921691161790526040805192909401829003822063ffffffff881660e060020a0283526004830152925160248083019650939450929083900301905081600087803b158015611b1057600080fd5b505af1158015611b24573d6000803e3d6000fd5b505050506040513d6020811015611b3a57600080fd5b505110611b4657600080fd5b6040517f1bee0d5a3487871ad4e01635c06a95326ecde99999b0a6864aecb98461a9249f90600090a1611b788c61374c565b1515611b8357600080fd5b611b8c89613843565b1515611b9757600080fd5b600254604080517f080a771c000000000000000000000000000000000000000000000000000000008152600160a060020a038e81166004830152602482018990528b811660448301529151919092169163080a771c9160648083019260209291908290030181600087803b158015611c0e57600080fd5b505af1158015611c22573d6000803e3d6000fd5b505050506040513d6020811015611c3857600080fd5b50511515611c4557600080fd5b60019950611fb0565b8b9350611d6484600160a060020a03166318160ddd6040518163ffffffff1660e060020a028152600401602060405180830381600087803b158015611c9257600080fd5b505af1158015611ca6573d6000803e3d6000fd5b505050506040513d6020811015611cbc57600080fd5b5051604080517f2ba1b3a10000000000000000000000000000000000000000000000000000000081529051611d5891606491600160a060020a038a1691632ba1b3a19160048083019260209291908290030181600087803b158015611d2057600080fd5b505af1158015611d34573d6000803e3d6000fd5b505050506040513d6020811015611d4a57600080fd5b50519063ffffffff6139b016565b9063ffffffff6139db16565b9250611d7783601963ffffffff6139db16565b6040805182815290519193507ff0ee7a9cde4e5b0e9a9d319bc8cee8ea787f22fc6ebead5e549ba5e0ab7169f9919081900360200190a160008211611dbb57600080fd5b60048211611df957611dd487600463ffffffff6139db16565b9050611df686611dea848463ffffffff6139b016565b9063ffffffff6132e216565b94505b60008511611e0657600080fd5b60005460408051600080516020613a4e83398151915260208083019190915260348083018e9052835180840390910181526054909201928390528151600160a060020a039094169363e2a4853a93918291908401908083835b60208310611e7e5780518252601f199092019160209182019101611e5f565b6001836020036101000a0380198251168184511680821785525050505050509050019150506040518091039020611ebe888a6132f490919063ffffffff16565b6040518363ffffffff1660e060020a02815260040180836000191660001916815260200182815260200192505050600060405180830381600087803b158015611f0657600080fd5b505af1158015611f1a573d6000803e3d6000fd5b50505050600260009054906101000a9004600160a060020a0316600160a060020a031663080a771c8c878b6040518463ffffffff1660e060020a0281526004018084600160a060020a0316600160a060020a0316815260200183815260200182600160a060020a0316600160a060020a031681526020019350505050602060405180830381600087803b158015611c0e57600080fd5b50505050505050505092915050565b600080600080600080600088600160a060020a03166370a08231336040518263ffffffff1660e060020a0281526004018082600160a060020a0316600160a060020a03168152602001915050602060405180830381600087803b15801561202557600080fd5b505af1158015612039573d6000803e3d6000fd5b505050506040513d602081101561204f57600080fd5b5051116120a6576040805160e560020a62461bcd02815260206004820152601760248201527f4d75737420626520616e20617373657420686f6c646572000000000000000000604482015290519081900360640190fd5b60005460408051600080516020613a2e833981519152602080830191909152600160a060020a038c8116606060020a02602d8401528351808403602101815260419093019384905282518d9591909116936304f49a3a9392909182918401908083835b602083106121285780518252601f199092019160209182019101612109565b51815160209384036101000a60001901801990921691161790526040805192909401829003822063ffffffff881660e060020a0283526004830152925160248083019650939450929083900301905081600087803b15801561218957600080fd5b505af115801561219d573d6000803e3d6000fd5b505050506040513d60208110156121b357600080fd5b505160408051606060020a600160a060020a0394851681026020838101919091529490931690920260348301528051602881840301815260489092019081905281519192909182918401908083835b602083106122215780518252601f199092019160209182019101612202565b51815160209384036101000a600019018019909216911617905260408051929094018290038220600054600080516020613a4e833981519152848401526034808501839052865180860390910181526054909401958690528351919c50600160a060020a0316965063a855d4ce9550919392508291908401908083835b602083106122bd5780518252601f19909201916020918201910161229e565b51815160209384036101000a60001901801990921691161790526040805192909401829003822063ffffffff881660e060020a0283526004830152925160248083019650939450929083900301905081600087803b15801561231e57600080fd5b505af1158015612332573d6000803e3d6000fd5b505050506040513d602081101561234857600080fd5b505160005460408051600080516020613a0e833981519152602082810191909152602c8083018b905283518084039091018152604c9092019283905281519498506123c9948994600160a060020a03169363a855d4ce939290918291840190808383602083106108bd5780518252601f19909201916020918201910161089e565b925086831015612423576040805160e560020a62461bcd02815260206004820181905260248201527f6173736574206d616e6167657220686173206e6f20657363726f77206c656674604482015290519081900360640190fd5b600054604080517f706c6174666f726d2e6275726e5261746500000000000000000000000000000060208083019190915282518083036011018152603190920192839052815161254294600160a060020a03169363a855d4ce9392909182918401908083835b602083106124a85780518252601f199092019160209182019101612489565b51815160209384036101000a60001901801990921691161790526040805192909401829003822063ffffffff881660e060020a0283526004830152925160248083019650939450929083900301905081600087803b15801561250957600080fd5b505af115801561251d573d6000803e3d6000fd5b505050506040513d602081101561253357600080fd5b5051889063ffffffff6139f016565b91506000809054906101000a9004600160a060020a0316600160a060020a03166304f49a3a6040516020018080600080516020613a6e833981519152815250600e0190506040516020818303038152906040526040518082805190602001908083835b602083106125c45780518252601f1990920191602091820191016125a5565b51815160209384036101000a60001901801990921691161790526040805192909401829003822063ffffffff881660e060020a0283526004830152925160248083019650939450929083900301905081600087803b15801561262557600080fd5b505af1158015612639573d6000803e3d6000fd5b505050506040513d602081101561264f57600080fd5b5051604080517f70a0823100000000000000000000000000000000000000000000000000000000815233600482015290519192508391600160a060020a038416916370a082319160248083019260209291908290030181600087803b1580156126b757600080fd5b505af11580156126cb573d6000803e3d6000fd5b505050506040513d60208110156126e157600080fd5b505110156126ee57600080fd5b604080517f79cc6790000000000000000000000000000000000000000000000000000000008152336004820152602481018490529051600160a060020a038316916379cc67909160448083019260209291908290030181600087803b15801561275657600080fd5b505af115801561276a573d6000803e3d6000fd5b505050506040513d602081101561278057600080fd5b5051151561278d57600080fd5b600254604080517fbd4de9cd000000000000000000000000000000000000000000000000000000008152600481018a9052600160a060020a0384811660248301529151919092169163bd4de9cd9160448083019260209291908290030181600087803b1580156127fc57600080fd5b505af1158015612810573d6000803e3d6000fd5b505050506040513d602081101561282657600080fd5b5051151561283357600080fd5b60005460408051600080516020613a4e83398151915260208083019190915260348083018a9052835180840390910181526054909201928390528151600160a060020a039094169363e2a4853a93918291908401908083835b602083106128ab5780518252601f19909201916020918201910161288c565b6001836020036101000a03801982511681845116808217855250505050505090500191505060405180910390206128eb8a886132f490919063ffffffff16565b6040518363ffffffff1660e060020a02815260040180836000191660001916815260200182815260200192505050600060405180830381600087803b15801561293357600080fd5b505af1158015612947573d6000803e3d6000fd5b5050600154604080517f0b94df4c000000000000000000000000000000000000000000000000000000008152600160a060020a038d81166024830152604482018b9052336064830152608482018d905260a06004830152601660a48301527f457363726f77206d757475616c6c79206275726e65640000000000000000000060c48301529151919092169350630b94df4c925060e480830192600092919082900301818387803b1580156129fa57600080fd5b505af1158015612a0e573d6000803e3d6000fd5b5060019b9a5050505050505050505050565b60008054604080517f61737365742e64616f2e61646d696e0000000000000000000000000000000000602080830191909152600160a060020a03898116606060020a02602f840152835180840360230181526043909301938490528251869591909116936304f49a3a9392909182918401908083835b60208310612ab55780518252601f199092019160209182019101612a96565b51815160209384036101000a60001901801990921691161790526040805192909401829003822063ffffffff881660e060020a0283526004830152925160248083019650939450929083900301905081600087803b158015612b1657600080fd5b505af1158015612b2a573d6000803e3d6000fd5b505050506040513d6020811015612b4057600080fd5b5051600160a060020a03163314612bed576040805160e560020a62461bcd02815260206004820152604660248201527f4f6e6c79207468652061737365742044414f2061646d696e7374726174696f6e60448201527f20636f6e7472616374206d6179206368616e676520746865206173736574206d60648201527f616e616765720000000000000000000000000000000000000000000000000000608482015290519081900360a40190fd5b60005460408051600080516020613a2e833981519152602080830191909152600160a060020a038a8116606060020a02602d8401528351808403602101815260419093019384905282519416936304f49a3a93918291908401908083835b60208310612c6a5780518252601f199092019160209182019101612c4b565b51815160209384036101000a60001901801990921691161790526040805192909401829003822063ffffffff881660e060020a0283526004830152925160248083019650939450929083900301905081600087803b158015612ccb57600080fd5b505af1158015612cdf573d6000803e3d6000fd5b505050506040513d6020811015612cf557600080fd5b50519050600160a060020a038082169086161415612d1257600080fd5b612d1b8661374c565b1515612d2657600080fd5b821515612d3757612d37868261330e565b612d42858786612d59565b1515612d4d57600080fd5b50600195945050505050565b600080600084866040516020018083600160a060020a0316600160a060020a0316606060020a02815260140182600160a060020a0316600160a060020a0316606060020a028152601401925050506040516020818303038152906040526040518082805190602001908083835b60208310612de55780518252601f199092019160209182019101612dc6565b51815160209384036101000a600019018019909216911617905260408051929094018290038220600054600080516020613a0e83398151915284840152602c80850183905286518086039091018152604c909401958690528351919950600160a060020a0316965063a855d4ce9550919392508291908401908083835b60208310612e815780518252601f199092019160209182019101612e62565b51815160209384036101000a60001901801990921691161790526040805192909401829003822063ffffffff881660e060020a0283526004830152925160248083019650939450929083900301905081600087803b158015612ee257600080fd5b505af1158015612ef6573d6000803e3d6000fd5b505050506040513d6020811015612f0c57600080fd5b505115612f63576040805160e560020a62461bcd02815260206004820152601860248201527f417373657420657363726f7720616c7265616479207365740000000000000000604482015290519081900360640190fd5b60005460408051600080516020613a6e8339815191526020808301919091528251808303600e018152602e909201928390528151600160a060020a03909416936304f49a3a93918291908401908083835b60208310612fd35780518252601f199092019160209182019101612fb4565b51815160209384036101000a60001901801990921691161790526040805192909401829003822063ffffffff881660e060020a0283526004830152925160248083019650939450929083900301905081600087803b15801561303457600080fd5b505af1158015613048573d6000803e3d6000fd5b505050506040513d602081101561305e57600080fd5b5051600254604080517f23b872dd000000000000000000000000000000000000000000000000000000008152600160a060020a038a811660048301529283166024820152604481018890529051929350908316916323b872dd916064808201926020929091908290030181600087803b1580156130da57600080fd5b505af11580156130ee573d6000803e3d6000fd5b505050506040513d602081101561310457600080fd5b5051151561311157600080fd5b60005460408051600080516020613a0e833981519152602080830191909152602c80830187905283518084039091018152604c909201928390528151600160a060020a039094169363e2a4853a93918291908401908083835b602083106131895780518252601f19909201916020918201910161316a565b5181516020939093036101000a60001901801990911692169190911790526040805191909301819003812063ffffffff871660e060020a0282526004820152602481018b9052915160448084019550600094509092839003019050818387803b1580156131f557600080fd5b505af1158015613209573d6000803e3d6000fd5b5050600154604080517f0b94df4c000000000000000000000000000000000000000000000000000000008152600160a060020a038a81166024830152604482018890528b81166064830152608482018a905260a06004830152600d60a48301527f457363726f77206c6f636b65640000000000000000000000000000000000000060c48301529151919092169350630b94df4c925060e480830192600092919082900301818387803b1580156132be57600080fd5b505af11580156132d2573d6000803e3d6000fd5b5060019998505050505050505050565b6000828211156132ee57fe5b50900390565b60008282018381101561330357fe5b8091505b5092915050565b60008083836040516020018083600160a060020a0316600160a060020a0316606060020a02815260140182600160a060020a0316600160a060020a0316606060020a028152601401925050506040516020818303038152906040526040518082805190602001908083835b602083106133985780518252601f199092019160209182019101613379565b51815160209384036101000a6000190180199092169116179052604080519290940182900382206000547f657363726f7752656465656d656400000000000000000000000000000000000084840152602e80850183905286518086039091018152604e90940195869052835191995061354c9750600160a060020a0316955063a855d4ce9492935082918401908083835b602083106134485780518252601f199092019160209182019101613429565b51815160209384036101000a60001901801990921691161790526040805192909401829003822063ffffffff881660e060020a0283526004830152925160248083019650939450929083900301905081600087803b1580156134a957600080fd5b505af11580156134bd573d6000803e3d6000fd5b505050506040513d60208110156134d357600080fd5b505160005460408051600080516020613a0e833981519152602082810191909152602c80830189905283518084039091018152604c909201928390528151600160a060020a039094169363a855d4ce9391829190840190808383602083106108bd5780518252601f19909201916020918201910161089e565b905061355782613843565b151561356257600080fd5b60025460005460408051600080516020613a6e8339815191526020808301919091528251600e818403018152602e909201928390528151600160a060020a039586169563080a771c958a95899592909116936304f49a3a9382918401908083835b602083106135e25780518252601f1990920191602091820191016135c3565b51815160209384036101000a60001901801990921691161790526040805192909401829003822063ffffffff881660e060020a0283526004830152925160248083019650939450929083900301905081600087803b15801561364357600080fd5b505af1158015613657573d6000803e3d6000fd5b505050506040513d602081101561366d57600080fd5b50516040805160e060020a63ffffffff8716028152600160a060020a039485166004820152602481019390935292166044820152905160648083019260209291908290030181600087803b1580156136c457600080fd5b505af11580156136d8573d6000803e3d6000fd5b505050506040513d60208110156136ee57600080fd5b50511515613746576040805160e560020a62461bcd02815260206004820152601260248201527f46756e6473206e6f742072657475726e65640000000000000000000000000000604482015290519081900360640190fd5b50505050565b6000805460408051600080516020613a2e833981519152602080830191909152600160a060020a03868116606060020a02602d840152835180840360210181526041909301938490528251941693630e14a37693918291908401908083835b602083106137ca5780518252601f1990920191602091820191016137ab565b5181516020939093036101000a60001901801990911692169190911790526040805191909301819003812063ffffffff871660e060020a0282526004820152915160248084019550600094509092839003019050818387803b15801561382f57600080fd5b505af1158015612d4d573d6000803e3d6000fd5b6000805460408051600080516020613a0e833981519152602080830191909152602c80830187905283518084039091018152604c909201928390528151600160a060020a039094169363e2b202bf93918291908401908083835b602083106138bc5780518252601f19909201916020918201910161389d565b5181516020939093036101000a60001901801990911692169190911790526040805191909301819003812063ffffffff871660e060020a0282526004820152915160248084019550600094509092839003019050818387803b15801561392157600080fd5b505af1158015613935573d6000803e3d6000fd5b505060005460408051600080516020613a4e8339815191526020808301919091526034808301899052835180840390910181526054909201928390528151600160a060020a03909416955063e2b202bf945090928291840190808383602083106137ca5780518252601f1990920191602091820191016137ab565b6000808315156139c35760009150613307565b508282028284828115156139d357fe5b041461330357fe5b600081838115156139e857fe5b049392505050565b6000613a066139ff84846139b0565b60646139db565b9392505050560061737365742e657363726f77000000000000000000000000000000000000000061737365742e6d616e616765720000000000000000000000000000000000000061737365742e657363726f7752656465656d6564000000000000000000000000706c6174666f726d2e746f6b656e000000000000000000000000000000000000a165627a7a723058209d2599688d66793125f5b76c24672ef0dc1a5968930c82a19bf9ee157b3b85c00029",
  "source": "pragma solidity ^0.4.24;\n\n  import \"../math/SafeMath.sol\";\n  import \"../interfaces/DBInterface.sol\";\n  import \"../database/Events.sol\";\n  import \"../interfaces/EscrowReserveInterface.sol\";\n\n  interface AssetManagerEscrow_ERC20 {\n    function transfer(address _to, uint256 _value) external returns (bool);\n    function transferFrom(address _from, address _to, uint256 _value) external returns (bool);\n    function burn(uint _amount) external returns (bool);\n    function burnFrom(address _user, uint _amount) external returns (bool);\n    function balanceOf(address _user) external view returns (uint);\n  }\n\n  interface AssetManagerEscrow_DivToken {\n    function totalSupply() external view returns (uint);\n    function assetIncome() external view returns (uint);\n    function balanceOf(address _user) external view returns (uint);\n  }\n\n  // @title A contract to hold escrow as collateral against assets\n  // @author Kyle Dewhurst, MyBit Foundation\n  // @notice AssetManager can lock his escrow in this contract and retrieve it if asset funding fails or successfully returns ROI\n  contract AssetManagerEscrow {\n\n    using SafeMath for uint256;\n\n    DBInterface public database;\n    Events public events;\n    EscrowReserveInterface private reserve;\n\n    //uint public consensus = 66;\n\n    // @notice constructor: initializes database\n    // @param: the address for the database contract used by this platform\n    constructor(address _database, address _events)\n    public {\n      database = DBInterface(_database);\n      events = Events(_events);\n      reserve = EscrowReserveInterface(database.addressStorage(keccak256(abi.encodePacked(\"contract\", \"EscrowReserve\"))));\n    }\n\n    // @dev anybody can make the assetManager escrow if he leaves this contract with approval to transfer\n    function lockEscrow(address _assetAddress, address _assetManager, uint _amount)\n    public\n    returns (bool) {\n      require(msg.sender == _assetManager || database.boolStorage(keccak256(abi.encodePacked(\"approval\", _assetManager, msg.sender, address(this), msg.sig))), 'User not approved');\n      require(lockEscrowInternal(_assetManager, _assetAddress, _amount));\n      return true;\n    }\n\n    // @notice assetManager can unlock his escrow here once funding fails or asset returns sufficient ROI\n    // @dev asset must have fundingDeadline = 0 or have ROI > 25%\n    // @dev returns escrow according to ROI. 25% ROI returns 25% of escrow, 50% ROI returns 50% of escrow etc...\n    function unlockEscrow(address _assetAddress, address _assetManager)\n    public\n    returns (bool) {\n      require(msg.sender == _assetManager || database.boolStorage(keccak256(abi.encodePacked(\"approval\", _assetManager, msg.sender, address(this), msg.sig))), 'User not approved');\n      bytes32 assetManagerEscrowID = keccak256(abi.encodePacked(_assetAddress, _assetManager));\n      require(database.uintStorage(keccak256(abi.encodePacked(\"asset.escrow\", assetManagerEscrowID))) != 0, 'Asset escrow is zero');\n      //require(database.uintStorage(keccak256(abi.encodePacked(\"crowdsale.deadline\", _assetAddress))) < now, 'Before crowdsale deadline');\n      address platformToken = database.addressStorage(keccak256(abi.encodePacked(\"platform.token\")));\n      uint totalEscrow = database.uintStorage(keccak256(abi.encodePacked(\"asset.escrow\", assetManagerEscrowID)));\n      uint escrowRedeemed = database.uintStorage(keccak256(abi.encodePacked(\"asset.escrowRedeemed\", assetManagerEscrowID)));\n      uint unlockAmount = totalEscrow.sub(escrowRedeemed);\n      if(!database.boolStorage(keccak256(abi.encodePacked(\"crowdsale.finalized\", _assetAddress)))){\n        require(database.uintStorage(keccak256(abi.encodePacked(\"crowdsale.deadline\", _assetAddress))) < now);\n        //Crowdsale failed, return escrow\n        emit NotFinalized();\n        //If we're past deadline but crowdsale did NOT finalize, release all escrow\n        require(removeAssetManager(_assetAddress));\n        require(removeEscrowData(assetManagerEscrowID));\n        require(reserve.issueERC20(_assetManager, unlockAmount, platformToken));\n        return true;\n      } else {\n        //Crowdsale finalized. Only pay back based on ROI\n        AssetManagerEscrow_DivToken token = AssetManagerEscrow_DivToken(_assetAddress);\n        uint roiPercent = token.assetIncome().mul(100).div(token.totalSupply());   // Scaled up by 10^2  (approaches 100 as asset income increases)\n        uint roiCheckpoints = roiPercent.div(25);       // How many quarterly increments have been reached?\n        emit ROICheckpoint(roiCheckpoints);\n        require(roiCheckpoints > 0);\n        if(roiCheckpoints <= 4){\n          // Can't unlock escrow past 100% ROI\n          //  multiply the number of quarterly increments by a quarter of the escrow and subtract the escrow already redeemed.\n          uint quarterEscrow = totalEscrow.div(4);\n          unlockAmount = roiCheckpoints.mul(quarterEscrow).sub(escrowRedeemed);\n        }\n        require(unlockAmount > 0);\n        database.setUint(keccak256(abi.encodePacked(\"asset.escrowRedeemed\", assetManagerEscrowID)), escrowRedeemed.add(unlockAmount));\n        require(reserve.issueERC20(_assetManager, unlockAmount, platformToken));\n        return true;\n      }\n    }\n\n\n    // @notice investors can vote to call this function for the new assetManager to then call\n    // @dev new assetManager must approve this contract to transfer in and lock _ amount of platform tokens\n    function becomeAssetManager(address _assetAddress, address _newAssetManager, uint256 _amount, bool _withhold)\n    external\n    returns (bool) {\n      require(msg.sender == database.addressStorage(keccak256(abi.encodePacked(\"asset.dao.admin\", _assetAddress))), \"Only the asset DAO adminstration contract may change the asset manager\");\n      address currentAssetManager = database.addressStorage(keccak256(abi.encodePacked(\"asset.manager\", _assetAddress)));\n      require(currentAssetManager != _newAssetManager);\n      //Remove current asset manager\n      require(removeAssetManager(_assetAddress));\n      if(!_withhold){\n        processEscrow(_assetAddress, currentAssetManager);\n      }\n      require(lockEscrowInternal(_newAssetManager, _assetAddress, _amount));\n      return true;\n    }\n\n    function returnEscrow(address _assetAddress, address _oldAssetManager, address _currentAssetManager)\n    external\n    {\n      require(msg.sender == _currentAssetManager || database.boolStorage(keccak256(abi.encodePacked(\"approval\", _currentAssetManager, msg.sender, address(this), msg.sig))), 'User not approved');\n      require(database.addressStorage(keccak256(abi.encodePacked(\"asset.manager\", _assetAddress))) == _currentAssetManager);\n      processEscrow(_assetAddress, _oldAssetManager);\n    }\n\n    function voteToBurn(address _assetAddress)\n    external\n    returns (bool) {\n      require(msg.sender == database.addressStorage(keccak256(abi.encodePacked(\"asset.dao.admin\", _assetAddress))), \"Only the asset DAO adminstration contract may change the asset manager\");\n      bytes32 assetManagerEscrowID = keccak256(abi.encodePacked(_assetAddress, database.addressStorage(keccak256(abi.encodePacked(\"asset.manager\", _assetAddress)))));\n      uint escrowRedeemed = database.uintStorage(keccak256(abi.encodePacked(\"asset.escrowRedeemed\", assetManagerEscrowID)));\n      uint unlockAmount = database.uintStorage(keccak256(abi.encodePacked(\"asset.escrow\", assetManagerEscrowID))).sub(escrowRedeemed);\n      require(reserve.burnERC20(unlockAmount, database.addressStorage(keccak256(abi.encodePacked(\"platform.token\"))))); // burn manager tokens\n      database.setUint(keccak256(abi.encodePacked(\"asset.escrowRedeemed\", assetManagerEscrowID)), escrowRedeemed.add(unlockAmount));  // mark burned _assetAddresss as redeemed\n      return true;\n    }\n\n    //Burn platform tokens to unilaterally burn asset manager's escrow\n    function mutualBurn(address _assetAddress, uint _amountToBurn)\n    external\n    returns (bool) {\n      require(AssetManagerEscrow_DivToken(_assetAddress).balanceOf(msg.sender) > 0, 'Must be an asset holder');\n      bytes32 assetManagerEscrowID = keccak256(abi.encodePacked(_assetAddress, database.addressStorage(keccak256(abi.encodePacked(\"asset.manager\", _assetAddress)))));\n      uint escrowRedeemed = database.uintStorage(keccak256(abi.encodePacked(\"asset.escrowRedeemed\", assetManagerEscrowID)));\n      uint unlockAmount = database.uintStorage(keccak256(abi.encodePacked(\"asset.escrow\", assetManagerEscrowID))).sub(escrowRedeemed);\n      require(unlockAmount >= _amountToBurn, \"asset manager has no escrow left\");\n      uint256 selfBurnAmount = _amountToBurn.getFractionalAmount(database.uintStorage(keccak256(abi.encodePacked(\"platform.burnRate\"))));\n      AssetManagerEscrow_ERC20 platformToken = AssetManagerEscrow_ERC20(database.addressStorage(keccak256(abi.encodePacked(\"platform.token\"))));\n      require(platformToken.balanceOf(msg.sender) >= selfBurnAmount);\n      require(platformToken.burnFrom(msg.sender, selfBurnAmount));  // burn investor tokens\n      require(reserve.burnERC20(_amountToBurn, address(platformToken))); // burn manager tokens\n      database.setUint(keccak256(abi.encodePacked(\"asset.escrowRedeemed\", assetManagerEscrowID)), escrowRedeemed.add(_amountToBurn));  // mark burned _assetAddresss as redeemed\n      events.escrow('Escrow mutually burned', _assetAddress, assetManagerEscrowID, msg.sender, _amountToBurn);\n      return true;\n    }\n\n    // @notice platform owners can destroy contract here\n    function destroy()\n    onlyOwner\n    external {\n      events.transaction('AssetManagerEscrow destroyed', address(this), msg.sender, address(this).balance, address(0));\n      selfdestruct(msg.sender);\n    }\n\n    //////////////////////////////////////////////////////////////////////////////////////////////////////////////////\n    //                                            Internal/ Private Functions\n    //////////////////////////////////////////////////////////////////////////////////////////////////////////////////\n\n    function processEscrow(address _assetAddress, address _oldAssetManager)\n    private\n    {\n      bytes32 oldAssetManagerEscrowID = keccak256(abi.encodePacked(_assetAddress, _oldAssetManager));\n      uint oldEscrowRemaining = database.uintStorage(keccak256(abi.encodePacked(\"asset.escrow\", oldAssetManagerEscrowID))).sub(database.uintStorage(keccak256(abi.encodePacked(\"escrowRedeemed\", oldAssetManagerEscrowID))));\n      require(removeEscrowData(oldAssetManagerEscrowID));\n      require(reserve.issueERC20(_oldAssetManager, oldEscrowRemaining, database.addressStorage(keccak256(abi.encodePacked(\"platform.token\")))), 'Funds not returned');\n    }\n\n    function removeAssetManager(address _assetAddress)\n    private\n    returns (bool) {\n        database.deleteAddress(keccak256(abi.encodePacked(\"asset.manager\", _assetAddress)));\n        return true;\n    }\n\n    function removeEscrowData(bytes32 _assetManagerEscrowID)\n    private\n    returns (bool) {\n        database.deleteUint(keccak256(abi.encodePacked(\"asset.escrow\", _assetManagerEscrowID)));\n        database.deleteUint(keccak256(abi.encodePacked(\"asset.escrowRedeemed\", _assetManagerEscrowID)));\n        return true;\n    }\n\n    function lockEscrowInternal(address _assetManager, address _assetAddress, uint _amount)\n    private\n    returns (bool) {\n      bytes32 assetManagerEscrowID = keccak256(abi.encodePacked(_assetAddress, _assetManager));\n      require(database.uintStorage(keccak256(abi.encodePacked(\"asset.escrow\", assetManagerEscrowID))) == 0, 'Asset escrow already set');\n      AssetManagerEscrow_ERC20 platformToken = AssetManagerEscrow_ERC20(database.addressStorage(keccak256(abi.encodePacked(\"platform.token\"))));\n      require(platformToken.transferFrom(_assetManager, address(reserve), _amount));\n      database.setUint(keccak256(abi.encodePacked(\"asset.escrow\", assetManagerEscrowID)), _amount);\n      events.escrow('Escrow locked', _assetAddress, assetManagerEscrowID, _assetManager, _amount);\n      return true;\n    }\n\n  //////////////////////////////////////////////////////////////////////////////////////////////////////////////////\n  //                                            Modifiers\n  //////////////////////////////////////////////////////////////////////////////////////////////////////////////////\n\n    // @notice This modifier checks is msg.sender has approval to call the function\n    modifier hasApproval(address _approver, bytes4 _sig){\n      require(msg.sender == _approver || database.boolStorage(keccak256(abi.encodePacked(\"approval\", _approver, msg.sender, address(this), _sig))));\n      _;\n    }\n\n    // @notice reverts if caller is not the owner\n    modifier onlyOwner {\n      require(database.boolStorage(keccak256(abi.encodePacked(\"owner\", msg.sender))) == true);\n      _;\n    }\n\n    event NotFinalized();\n    event ROICheckpoint(uint checkpoint);\n    /*\n    event LogConsensus(bytes32 votesID, uint votes, uint _assetAddresss, bytes32 executionID, uint quorum);\n    event LogEscrowBurned(bytes32 indexed _assetAddress, address indexed _assetManager, uint _amountBurnt);\n    event LogEscrowLocked(bytes32 indexed _assetAddress, bytes32 indexed _assetManagerEscrowID, address indexed _assetManager, uint _amount);\n    */\n}\n",
  "sourcePath": "/home/peter/Documents/Work/MyBit/MyBit-Network.tech/contracts/roles/AssetManagerEscrow.sol",
  "compiler": {
    "name": "solc",
    "version": "0.4.24+commit.e67f0147.Emscripten.clang"
  },
  "schemaVersion": "3.0.2",
  "updatedAt": "2019-04-08T20:56:11.045Z",
  "devdoc": {
    "methods": {}
  },
  "userdoc": {
    "methods": {}
  }
}