{
  "contractName": "AssetExchange",
  "abi": [
    {
      "constant": true,
      "inputs": [],
      "name": "database",
      "outputs": [
        {
          "name": "",
          "type": "address"
        }
      ],
      "payable": false,
      "stateMutability": "view",
      "type": "function"
    },
    {
      "constant": true,
      "inputs": [
        {
          "name": "",
          "type": "address"
        },
        {
          "name": "",
          "type": "bytes32"
        }
      ],
      "name": "orders",
      "outputs": [
        {
          "name": "",
          "type": "bool"
        }
      ],
      "payable": false,
      "stateMutability": "view",
      "type": "function"
    },
    {
      "constant": true,
      "inputs": [
        {
          "name": "",
          "type": "address"
        }
      ],
      "name": "weiOwed",
      "outputs": [
        {
          "name": "",
          "type": "uint256"
        }
      ],
      "payable": false,
      "stateMutability": "view",
      "type": "function"
    },
    {
      "constant": true,
      "inputs": [
        {
          "name": "",
          "type": "address"
        }
      ],
      "name": "weiDeposited",
      "outputs": [
        {
          "name": "",
          "type": "uint256"
        }
      ],
      "payable": false,
      "stateMutability": "view",
      "type": "function"
    },
    {
      "inputs": [
        {
          "name": "_database",
          "type": "address"
        }
      ],
      "payable": false,
      "stateMutability": "nonpayable",
      "type": "constructor"
    },
    {
      "anonymous": false,
      "inputs": [
        {
          "indexed": true,
          "name": "_locationSent",
          "type": "address"
        },
        {
          "indexed": true,
          "name": "_amountSent",
          "type": "uint256"
        },
        {
          "indexed": true,
          "name": "_caller",
          "type": "address"
        }
      ],
      "name": "LogDestruction",
      "type": "event"
    },
    {
      "anonymous": false,
      "inputs": [
        {
          "indexed": false,
          "name": "_orderID",
          "type": "bytes32"
        },
        {
          "indexed": true,
          "name": "_assetID",
          "type": "bytes32"
        },
        {
          "indexed": true,
          "name": "_creator",
          "type": "address"
        }
      ],
      "name": "LogBuyOrderCreated",
      "type": "event"
    },
    {
      "anonymous": false,
      "inputs": [
        {
          "indexed": false,
          "name": "_orderID",
          "type": "bytes32"
        },
        {
          "indexed": true,
          "name": "_assetAddress",
          "type": "bytes32"
        },
        {
          "indexed": true,
          "name": "_purchaser",
          "type": "address"
        }
      ],
      "name": "LogBuyOrderCompleted",
      "type": "event"
    },
    {
      "anonymous": false,
      "inputs": [
        {
          "indexed": false,
          "name": "_orderID",
          "type": "bytes32"
        },
        {
          "indexed": true,
          "name": "_assetAddress",
          "type": "bytes32"
        },
        {
          "indexed": true,
          "name": "_creator",
          "type": "address"
        }
      ],
      "name": "LogSellOrderCreated",
      "type": "event"
    },
    {
      "anonymous": false,
      "inputs": [
        {
          "indexed": false,
          "name": "_orderID",
          "type": "bytes32"
        },
        {
          "indexed": true,
          "name": "_assetAddress",
          "type": "bytes32"
        },
        {
          "indexed": true,
          "name": "_purchaser",
          "type": "address"
        }
      ],
      "name": "LogSellOrderCompleted",
      "type": "event"
    },
    {
      "anonymous": false,
      "inputs": [
        {
          "indexed": false,
          "name": "_orderID",
          "type": "bytes32"
        },
        {
          "indexed": true,
          "name": "_amount",
          "type": "uint256"
        },
        {
          "indexed": true,
          "name": "_price",
          "type": "uint256"
        }
      ],
      "name": "LogBuyOrderDetails",
      "type": "event"
    },
    {
      "anonymous": false,
      "inputs": [
        {
          "indexed": false,
          "name": "orderID",
          "type": "bytes32"
        },
        {
          "indexed": true,
          "name": "_amount",
          "type": "uint256"
        },
        {
          "indexed": true,
          "name": "_price",
          "type": "uint256"
        }
      ],
      "name": "LogSellOrderDetails",
      "type": "event"
    },
    {
      "anonymous": false,
      "inputs": [
        {
          "indexed": false,
          "name": "_assetID",
          "type": "bytes32"
        },
        {
          "indexed": false,
          "name": "_from",
          "type": "address"
        },
        {
          "indexed": false,
          "name": "_to",
          "type": "address"
        },
        {
          "indexed": false,
          "name": "_amount",
          "type": "uint256"
        }
      ],
      "name": "LogownershipUnitsTraded",
      "type": "event"
    },
    {
      "anonymous": false,
      "inputs": [
        {
          "indexed": false,
          "name": "_sig",
          "type": "bytes4"
        }
      ],
      "name": "LogSig",
      "type": "event"
    },
    {
      "constant": false,
      "inputs": [
        {
          "name": "_assetID",
          "type": "bytes32"
        },
        {
          "name": "_seller",
          "type": "address"
        },
        {
          "name": "_amount",
          "type": "uint256"
        },
        {
          "name": "_price",
          "type": "uint256"
        }
      ],
      "name": "buyAsset",
      "outputs": [
        {
          "name": "",
          "type": "bool"
        }
      ],
      "payable": true,
      "stateMutability": "payable",
      "type": "function"
    },
    {
      "constant": false,
      "inputs": [
        {
          "name": "_assetID",
          "type": "bytes32"
        },
        {
          "name": "_buyer",
          "type": "address"
        },
        {
          "name": "_amount",
          "type": "uint256"
        },
        {
          "name": "_price",
          "type": "uint256"
        }
      ],
      "name": "sellAsset",
      "outputs": [
        {
          "name": "",
          "type": "bool"
        }
      ],
      "payable": false,
      "stateMutability": "nonpayable",
      "type": "function"
    },
    {
      "constant": false,
      "inputs": [
        {
          "name": "_assetID",
          "type": "bytes32"
        },
        {
          "name": "_amount",
          "type": "uint256"
        },
        {
          "name": "_price",
          "type": "uint256"
        }
      ],
      "name": "createBuyOrder",
      "outputs": [
        {
          "name": "",
          "type": "bool"
        }
      ],
      "payable": true,
      "stateMutability": "payable",
      "type": "function"
    },
    {
      "constant": false,
      "inputs": [
        {
          "name": "_assetID",
          "type": "bytes32"
        },
        {
          "name": "_amount",
          "type": "uint256"
        },
        {
          "name": "_price",
          "type": "uint256"
        }
      ],
      "name": "createSellOrder",
      "outputs": [
        {
          "name": "",
          "type": "bool"
        }
      ],
      "payable": false,
      "stateMutability": "nonpayable",
      "type": "function"
    },
    {
      "constant": false,
      "inputs": [
        {
          "name": "_assetID",
          "type": "bytes32"
        },
        {
          "name": "_amount",
          "type": "uint256"
        },
        {
          "name": "_price",
          "type": "uint256"
        },
        {
          "name": "_buyOrder",
          "type": "bool"
        }
      ],
      "name": "deleteOrder",
      "outputs": [
        {
          "name": "",
          "type": "bool"
        }
      ],
      "payable": false,
      "stateMutability": "nonpayable",
      "type": "function"
    },
    {
      "constant": false,
      "inputs": [],
      "name": "withdraw",
      "outputs": [
        {
          "name": "",
          "type": "bool"
        }
      ],
      "payable": false,
      "stateMutability": "nonpayable",
      "type": "function"
    },
    {
      "constant": false,
      "inputs": [
        {
          "name": "_functionInitiator",
          "type": "address"
        },
        {
          "name": "_holdingAddress",
          "type": "address"
        }
      ],
      "name": "destroy",
      "outputs": [],
      "payable": false,
      "stateMutability": "nonpayable",
      "type": "function"
    }
  ],
  "bytecode": "0x6080604052670de0b6b3a76400006005553480156200001d57600080fd5b5060405160208062003ad983398101806040528101908080519060200190929190505050806000806101000a81548173ffffffffffffffffffffffffffffffffffffffff021916908373ffffffffffffffffffffffffffffffffffffffff1602179055506000809054906101000a900473ffffffffffffffffffffffffffffffffffffffff1673ffffffffffffffffffffffffffffffffffffffff166304f49a3a60405160200180807f636f6e7472616374000000000000000000000000000000000000000000000000815250600801807f45524332304275726e6572000000000000000000000000000000000000000000815250600b0190506040516020818303038152906040526040518082805190602001908083835b6020831015156200015d578051825260208201915060208101905060208303925062000136565b6001836020036101000a03801982511681845116808217855250505050505090500191505060405180910390206040518263ffffffff167c0100000000000000000000000000000000000000000000000000000000028152600401808260001916600019168152602001915050602060405180830381600087803b158015620001e557600080fd5b505af1158015620001fa573d6000803e3d6000fd5b505050506040513d60208110156200021157600080fd5b8101908080519060200190929190505050600160006101000a81548173ffffffffffffffffffffffffffffffffffffffff021916908373ffffffffffffffffffffffffffffffffffffffff1602179055505061386680620002736000396000f3006080604052600436106100af576000357c0100000000000000000000000000000000000000000000000000000000900463ffffffff1680632ec008e3146100b45780633ccfd60b1461011d57806362b40f9f1461014c578063713b563f146101af578063a4bc92cd14610206578063bb5f462914610263578063e6047d47146102cc578063f08fa7b014610323578063f5e20d6f14610393578063f9fe2497146103e3578063fe6dcca314610460575b600080fd5b3480156100c057600080fd5b50610103600480360381019080803560001916906020019092919080359060200190929190803590602001909291908035151590602001909291905050506104b7565b604051808215151515815260200191505060405180910390f35b34801561012957600080fd5b5061013261080a565b604051808215151515815260200191505060405180910390f35b34801561015857600080fd5b506101ad600480360381019080803573ffffffffffffffffffffffffffffffffffffffff169060200190929190803573ffffffffffffffffffffffffffffffffffffffff169060200190929190505050610aa6565b005b3480156101bb57600080fd5b506101c4610fff565b604051808273ffffffffffffffffffffffffffffffffffffffff1673ffffffffffffffffffffffffffffffffffffffff16815260200191505060405180910390f35b34801561021257600080fd5b5061024960048036038101908080356000191690602001909291908035906020019092919080359060200190929190505050611024565b604051808215151515815260200191505060405180910390f35b34801561026f57600080fd5b506102b2600480360381019080803573ffffffffffffffffffffffffffffffffffffffff1690602001909291908035600019169060200190929190505050611732565b604051808215151515815260200191505060405180910390f35b3480156102d857600080fd5b5061030d600480360381019080803573ffffffffffffffffffffffffffffffffffffffff169060200190929190505050611761565b6040518082815260200191505060405180910390f35b6103796004803603810190808035600019169060200190929190803573ffffffffffffffffffffffffffffffffffffffff1690602001909291908035906020019092919080359060200190929190505050611779565b604051808215151515815260200191505060405180910390f35b6103c9600480360381019080803560001916906020019092919080359060200190929190803590602001909291905050506124a1565b604051808215151515815260200191505060405180910390f35b3480156103ef57600080fd5b506104466004803603810190808035600019169060200190929190803573ffffffffffffffffffffffffffffffffffffffff1690602001909291908035906020019092919080359060200190929190505050612ce9565b604051808215151515815260200191505060405180910390f35b34801561046c57600080fd5b506104a1600480360381019080803573ffffffffffffffffffffffffffffffffffffffff16906020019092919050505061379a565b6040518082815260200191505060405180910390f35b600080600086338787876040516020018086600019166000191681526020018573ffffffffffffffffffffffffffffffffffffffff1673ffffffffffffffffffffffffffffffffffffffff166c0100000000000000000000000002815260140184815260200183815260200182151515157f0100000000000000000000000000000000000000000000000000000000000000028152600101955050505050506040516020818303038152906040526040518082805190602001908083835b60208310151561059a5780518252602082019150602081019050602083039250610575565b6001836020036101000a03801982511681845116808217855250505050505090500191505060405180910390209150600260003373ffffffffffffffffffffffffffffffffffffffff1673ffffffffffffffffffffffffffffffffffffffff1681526020019081526020016000206000836000191660001916815260200190815260200160002060009054906101000a900460ff16151561063a57600080fd5b83156107945761066760055461065987896137b290919063ffffffff16565b6137ed90919063ffffffff16565b90506106bb81600360003373ffffffffffffffffffffffffffffffffffffffff1673ffffffffffffffffffffffffffffffffffffffff1681526020019081526020016000205461380390919063ffffffff16565b600360003373ffffffffffffffffffffffffffffffffffffffff1673ffffffffffffffffffffffffffffffffffffffff1681526020019081526020016000208190555061075081600460003373ffffffffffffffffffffffffffffffffffffffff1673ffffffffffffffffffffffffffffffffffffffff1681526020019081526020016000205461381c90919063ffffffff16565b600460003373ffffffffffffffffffffffffffffffffffffffff1673ffffffffffffffffffffffffffffffffffffffff168152602001908152602001600020819055505b600260003373ffffffffffffffffffffffffffffffffffffffff1673ffffffffffffffffffffffffffffffffffffffff1681526020019081526020016000206000836000191660001916815260200190815260200160002060006101000a81549060ff0219169055600192505050949350505050565b6000806000809054906101000a900473ffffffffffffffffffffffffffffffffffffffff1673ffffffffffffffffffffffffffffffffffffffff16633b7bfda03060405160200180807f70617573656400000000000000000000000000000000000000000000000000008152506006018273ffffffffffffffffffffffffffffffffffffffff1673ffffffffffffffffffffffffffffffffffffffff166c010000000000000000000000000281526014019150506040516020818303038152906040526040518082805190602001908083835b60208310151561090257805182526020820191506020810190506020830392506108dd565b6001836020036101000a03801982511681845116808217855250505050505090500191505060405180910390206040518263ffffffff167c0100000000000000000000000000000000000000000000000000000000028152600401808260001916600019168152602001915050602060405180830381600087803b15801561098957600080fd5b505af115801561099d573d6000803e3d6000fd5b505050506040513d60208110156109b357600080fd5b81019080805190602001909291905050501515156109d057600080fd5b600460003373ffffffffffffffffffffffffffffffffffffffff1673ffffffffffffffffffffffffffffffffffffffff1681526020019081526020016000205490506000600460003373ffffffffffffffffffffffffffffffffffffffff1673ffffffffffffffffffffffffffffffffffffffff168152602001908152602001600020819055503373ffffffffffffffffffffffffffffffffffffffff166108fc829081150290604051600060405180830381858888f19350505050158015610a9d573d6000803e3d6000fd5b50600191505090565b6000809054906101000a900473ffffffffffffffffffffffffffffffffffffffff1673ffffffffffffffffffffffffffffffffffffffff16633b7bfda03360405160200180807f6f776e65720000000000000000000000000000000000000000000000000000008152506005018273ffffffffffffffffffffffffffffffffffffffff1673ffffffffffffffffffffffffffffffffffffffff166c010000000000000000000000000281526014019150506040516020818303038152906040526040518082805190602001908083835b602083101515610b9b5780518252602082019150602081019050602083039250610b76565b6001836020036101000a03801982511681845116808217855250505050505090500191505060405180910390206040518263ffffffff167c0100000000000000000000000000000000000000000000000000000000028152600401808260001916600019168152602001915050602060405180830381600087803b158015610c2257600080fd5b505af1158015610c36573d6000803e3d6000fd5b505050506040513d6020811015610c4c57600080fd5b81019080805190602001909291905050501515610c6857600080fd5b3373ffffffffffffffffffffffffffffffffffffffff168273ffffffffffffffffffffffffffffffffffffffff1614151515610ca357600080fd5b6000809054906101000a900473ffffffffffffffffffffffffffffffffffffffff1673ffffffffffffffffffffffffffffffffffffffff16633b7bfda0308484604051602001808273ffffffffffffffffffffffffffffffffffffffff1673ffffffffffffffffffffffffffffffffffffffff166c010000000000000000000000000281526014019150506040516020818303038152906040526040518082805190602001908083835b602083101515610d725780518252602082019150602081019050602083039250610d4d565b6001836020036101000a0380198251168184511680821785525050505050509050019150506040518091039020604051602001808473ffffffffffffffffffffffffffffffffffffffff1673ffffffffffffffffffffffffffffffffffffffff166c010000000000000000000000000281526014018373ffffffffffffffffffffffffffffffffffffffff1673ffffffffffffffffffffffffffffffffffffffff166c01000000000000000000000000028152601401807f64657374726f7900000000000000000000000000000000000000000000000000815250600701826000191660001916815260200193505050506040516020818303038152906040526040518082805190602001908083835b602083101515610ea75780518252602082019150602081019050602083039250610e82565b6001836020036101000a03801982511681845116808217855250505050505090500191505060405180910390206040518263ffffffff167c0100000000000000000000000000000000000000000000000000000000028152600401808260001916600019168152602001915050602060405180830381600087803b158015610f2e57600080fd5b505af1158015610f42573d6000803e3d6000fd5b505050506040513d6020811015610f5857600080fd5b81019080805190602001909291905050501515610f7457600080fd5b3373ffffffffffffffffffffffffffffffffffffffff163073ffffffffffffffffffffffffffffffffffffffff16318273ffffffffffffffffffffffffffffffffffffffff167f8c7ae8776186c2e87b266886e8af282b7fdb52b47993376583987a14656a367860405160405180910390a48073ffffffffffffffffffffffffffffffffffffffff16ff5b6000809054906101000a900473ffffffffffffffffffffffffffffffffffffffff1681565b6000808383600061103e82846137b290919063ffffffff16565b11151561104a57600080fd5b8660006001026000191681600019161415151561106657600080fd5b6000809054906101000a900473ffffffffffffffffffffffffffffffffffffffff1673ffffffffffffffffffffffffffffffffffffffff16633b7bfda08260405160200180807f63726f776473616c6546696e616c697a6564000000000000000000000000000081525060120182600019166000191681526020019150506040516020818303038152906040526040518082805190602001908083835b6020831015156111285780518252602082019150602081019050602083039250611103565b6001836020036101000a03801982511681845116808217855250505050505090500191505060405180910390206040518263ffffffff167c0100000000000000000000000000000000000000000000000000000000028152600401808260001916600019168152602001915050602060405180830381600087803b1580156111af57600080fd5b505af11580156111c3573d6000803e3d6000fd5b505050506040513d60208110156111d957600080fd5b810190808051906020019092919050505015156111f557600080fd5b873388806000809054906101000a900473ffffffffffffffffffffffffffffffffffffffff1673ffffffffffffffffffffffffffffffffffffffff166304f49a3a8560405160200180807f746f6b656e416464726573730000000000000000000000000000000000000000815250600c0182600019166000191681526020019150506040516020818303038152906040526040518082805190602001908083835b6020831015156112bb5780518252602082019150602081019050602083039250611296565b6001836020036101000a03801982511681845116808217855250505050505090500191505060405180910390206040518263ffffffff167c0100000000000000000000000000000000000000000000000000000000028152600401808260001916600019168152602001915050602060405180830381600087803b15801561134257600080fd5b505af1158015611356573d6000803e3d6000fd5b505050506040513d602081101561136c57600080fd5b810190808051906020019092919050505073ffffffffffffffffffffffffffffffffffffffff1663dd62ed3e84306040518363ffffffff167c0100000000000000000000000000000000000000000000000000000000028152600401808373ffffffffffffffffffffffffffffffffffffffff1673ffffffffffffffffffffffffffffffffffffffff1681526020018273ffffffffffffffffffffffffffffffffffffffff1673ffffffffffffffffffffffffffffffffffffffff16815260200192505050602060405180830381600087803b15801561144b57600080fd5b505af115801561145f573d6000803e3d6000fd5b505050506040513d602081101561147557600080fd5b81019080805190602001909291905050501015151561149357600080fd5b8a338b8b60006040516020018086600019166000191681526020018573ffffffffffffffffffffffffffffffffffffffff1673ffffffffffffffffffffffffffffffffffffffff166c0100000000000000000000000002815260140184815260200183815260200182151515157f0100000000000000000000000000000000000000000000000000000000000000028152600101955050505050506040516020818303038152906040526040518082805190602001908083835b602083101515611572578051825260208201915060208101905060208303925061154d565b6001836020036101000a03801982511681845116808217855250505050505090500191505060405180910390209650600260003373ffffffffffffffffffffffffffffffffffffffff1673ffffffffffffffffffffffffffffffffffffffff1681526020019081526020016000206000886000191660001916815260200190815260200160002060009054906101000a900460ff1615151561161357600080fd5b6001600260003373ffffffffffffffffffffffffffffffffffffffff1673ffffffffffffffffffffffffffffffffffffffff1681526020019081526020016000206000896000191660001916815260200190815260200160002060006101000a81548160ff0219169083151502179055503373ffffffffffffffffffffffffffffffffffffffff168b600019167fed9a0ea8e95226dc6749809b6c95495b24885d83456d74d36b6edfe527e57d228960405180826000191660001916815260200191505060405180910390a3888a7f0c3724b93379ffb35fb5036cf9ab03a6e42e333fb25d9897a61eb9abf1ce7a198960405180826000191660001916815260200191505060405180910390a360019750505050505050509392505050565b60026020528160005260406000206020528060005260406000206000915091509054906101000a900460ff1681565b60046020528060005260406000206000915090505481565b60008060008060009054906101000a900473ffffffffffffffffffffffffffffffffffffffff1673ffffffffffffffffffffffffffffffffffffffff16633b7bfda03060405160200180807f70617573656400000000000000000000000000000000000000000000000000008152506006018273ffffffffffffffffffffffffffffffffffffffff1673ffffffffffffffffffffffffffffffffffffffff166c010000000000000000000000000281526014019150506040516020818303038152906040526040518082805190602001908083835b602083101515611873578051825260208201915060208101905060208303925061184e565b6001836020036101000a03801982511681845116808217855250505050505090500191505060405180910390206040518263ffffffff167c0100000000000000000000000000000000000000000000000000000000028152600401808260001916600019168152602001915050602060405180830381600087803b1580156118fa57600080fd5b505af115801561190e573d6000803e3d6000fd5b505050506040513d602081101561192457600080fd5b810190808051906020019092919050505015151561194157600080fd5b868686806000809054906101000a900473ffffffffffffffffffffffffffffffffffffffff1673ffffffffffffffffffffffffffffffffffffffff166304f49a3a8560405160200180807f746f6b656e416464726573730000000000000000000000000000000000000000815250600c0182600019166000191681526020019150506040516020818303038152906040526040518082805190602001908083835b602083101515611a0757805182526020820191506020810190506020830392506119e2565b6001836020036101000a03801982511681845116808217855250505050505090500191505060405180910390206040518263ffffffff167c0100000000000000000000000000000000000000000000000000000000028152600401808260001916600019168152602001915050602060405180830381600087803b158015611a8e57600080fd5b505af1158015611aa2573d6000803e3d6000fd5b505050506040513d6020811015611ab857600080fd5b810190808051906020019092919050505073ffffffffffffffffffffffffffffffffffffffff1663dd62ed3e84306040518363ffffffff167c0100000000000000000000000000000000000000000000000000000000028152600401808373ffffffffffffffffffffffffffffffffffffffff1673ffffffffffffffffffffffffffffffffffffffff1681526020018273ffffffffffffffffffffffffffffffffffffffff1673ffffffffffffffffffffffffffffffffffffffff16815260200192505050602060405180830381600087803b158015611b9757600080fd5b505af1158015611bab573d6000803e3d6000fd5b505050506040513d6020811015611bc157600080fd5b810190808051906020019092919050505010151515611bdf57600080fd5b600160009054906101000a900473ffffffffffffffffffffffffffffffffffffffff1673ffffffffffffffffffffffffffffffffffffffff16639dc29fac336000809054906101000a900473ffffffffffffffffffffffffffffffffffffffff1673ffffffffffffffffffffffffffffffffffffffff1663a855d4ce6000357fffffffff00000000000000000000000000000000000000000000000000000000163060405160200180837bffffffffffffffffffffffffffffffffffffffffffffffffffffffff19167bffffffffffffffffffffffffffffffffffffffffffffffffffffffff191681526004018273ffffffffffffffffffffffffffffffffffffffff1673ffffffffffffffffffffffffffffffffffffffff166c01000000000000000000000000028152601401925050506040516020818303038152906040526040518082805190602001908083835b602083101515611d555780518252602082019150602081019050602083039250611d30565b6001836020036101000a03801982511681845116808217855250505050505090500191505060405180910390206040518263ffffffff167c0100000000000000000000000000000000000000000000000000000000028152600401808260001916600019168152602001915050602060405180830381600087803b158015611ddc57600080fd5b505af1158015611df0573d6000803e3d6000fd5b505050506040513d6020811015611e0657600080fd5b81019080805190602001909291905050506040518363ffffffff167c0100000000000000000000000000000000000000000000000000000000028152600401808373ffffffffffffffffffffffffffffffffffffffff1673ffffffffffffffffffffffffffffffffffffffff16815260200182815260200192505050602060405180830381600087803b158015611e9c57600080fd5b505af1158015611eb0573d6000803e3d6000fd5b505050506040513d6020811015611ec657600080fd5b81019080805190602001909291905050501515611ee257600080fd5b8989898960006040516020018086600019166000191681526020018573ffffffffffffffffffffffffffffffffffffffff1673ffffffffffffffffffffffffffffffffffffffff166c0100000000000000000000000002815260140184815260200183815260200182151515157f0100000000000000000000000000000000000000000000000000000000000000028152600101955050505050506040516020818303038152906040526040518082805190602001908083835b602083101515611fc15780518252602082019150602081019050602083039250611f9c565b6001836020036101000a03801982511681845116808217855250505050505090500191505060405180910390209450600260008a73ffffffffffffffffffffffffffffffffffffffff1673ffffffffffffffffffffffffffffffffffffffff1681526020019081526020016000206000866000191660001916815260200190815260200160002060009054906101000a900460ff16151561206157600080fd5b61208860055461207a898b6137b290919063ffffffff16565b6137ed90919063ffffffff16565b3414151561209557600080fd5b6000809054906101000a900473ffffffffffffffffffffffffffffffffffffffff1673ffffffffffffffffffffffffffffffffffffffff166304f49a3a8b60405160200180807f746f6b656e416464726573730000000000000000000000000000000000000000815250600c0182600019166000191681526020019150506040516020818303038152906040526040518082805190602001908083835b6020831015156121575780518252602082019150602081019050602083039250612132565b6001836020036101000a03801982511681845116808217855250505050505090500191505060405180910390206040518263ffffffff167c0100000000000000000000000000000000000000000000000000000000028152600401808260001916600019168152602001915050602060405180830381600087803b1580156121de57600080fd5b505af11580156121f2573d6000803e3d6000fd5b505050506040513d602081101561220857600080fd5b810190808051906020019092919050505093508373ffffffffffffffffffffffffffffffffffffffff166323b872dd8a338b6040518463ffffffff167c0100000000000000000000000000000000000000000000000000000000028152600401808473ffffffffffffffffffffffffffffffffffffffff1673ffffffffffffffffffffffffffffffffffffffff1681526020018373ffffffffffffffffffffffffffffffffffffffff1673ffffffffffffffffffffffffffffffffffffffff1681526020018281526020019350505050602060405180830381600087803b1580156122f257600080fd5b505af1158015612306573d6000803e3d6000fd5b505050506040513d602081101561231c57600080fd5b8101908080519060200190929190505050151561233857600080fd5b61238a34600460008c73ffffffffffffffffffffffffffffffffffffffff1673ffffffffffffffffffffffffffffffffffffffff1681526020019081526020016000205461381c90919063ffffffff16565b600460008b73ffffffffffffffffffffffffffffffffffffffff1673ffffffffffffffffffffffffffffffffffffffff16815260200190815260200160002081905550600260008a73ffffffffffffffffffffffffffffffffffffffff1673ffffffffffffffffffffffffffffffffffffffff1681526020019081526020016000206000866000191660001916815260200190815260200160002060006101000a81549060ff02191690553373ffffffffffffffffffffffffffffffffffffffff168a600019167fbc0fd0fd7dceb92655382ef6bd309a8be74233204a2de7adaa3a05f43c222a878760405180826000191660001916815260200191505060405180910390a3600195505050505050949350505050565b6000806000341115156124b357600080fd5b838360006124ca82846137b290919063ffffffff16565b1115156124d657600080fd5b866000600102600019168160001916141515156124f257600080fd5b6000809054906101000a900473ffffffffffffffffffffffffffffffffffffffff1673ffffffffffffffffffffffffffffffffffffffff16633b7bfda08260405160200180807f63726f776473616c6546696e616c697a6564000000000000000000000000000081525060120182600019166000191681526020019150506040516020818303038152906040526040518082805190602001908083835b6020831015156125b4578051825260208201915060208101905060208303925061258f565b6001836020036101000a03801982511681845116808217855250505050505090500191505060405180910390206040518263ffffffff167c0100000000000000000000000000000000000000000000000000000000028152600401808260001916600019168152602001915050602060405180830381600087803b15801561263b57600080fd5b505af115801561264f573d6000803e3d6000fd5b505050506040513d602081101561266557600080fd5b8101908080519060200190929190505050151561268157600080fd5b600160009054906101000a900473ffffffffffffffffffffffffffffffffffffffff1673ffffffffffffffffffffffffffffffffffffffff16639dc29fac336000809054906101000a900473ffffffffffffffffffffffffffffffffffffffff1673ffffffffffffffffffffffffffffffffffffffff1663a855d4ce6000357fffffffff00000000000000000000000000000000000000000000000000000000163060405160200180837bffffffffffffffffffffffffffffffffffffffffffffffffffffffff19167bffffffffffffffffffffffffffffffffffffffffffffffffffffffff191681526004018273ffffffffffffffffffffffffffffffffffffffff1673ffffffffffffffffffffffffffffffffffffffff166c01000000000000000000000000028152601401925050506040516020818303038152906040526040518082805190602001908083835b6020831015156127f757805182526020820191506020810190506020830392506127d2565b6001836020036101000a03801982511681845116808217855250505050505090500191505060405180910390206040518263ffffffff167c0100000000000000000000000000000000000000000000000000000000028152600401808260001916600019168152602001915050602060405180830381600087803b15801561287e57600080fd5b505af1158015612892573d6000803e3d6000fd5b505050506040513d60208110156128a857600080fd5b81019080805190602001909291905050506040518363ffffffff167c0100000000000000000000000000000000000000000000000000000000028152600401808373ffffffffffffffffffffffffffffffffffffffff1673ffffffffffffffffffffffffffffffffffffffff16815260200182815260200192505050602060405180830381600087803b15801561293e57600080fd5b505af1158015612952573d6000803e3d6000fd5b505050506040513d602081101561296857600080fd5b8101908080519060200190929190505050151561298457600080fd5b6129ab60055461299d888a6137b290919063ffffffff16565b6137ed90919063ffffffff16565b341415156129b857600080fd5b8733888860016040516020018086600019166000191681526020018573ffffffffffffffffffffffffffffffffffffffff1673ffffffffffffffffffffffffffffffffffffffff166c0100000000000000000000000002815260140184815260200183815260200182151515157f0100000000000000000000000000000000000000000000000000000000000000028152600101955050505050506040516020818303038152906040526040518082805190602001908083835b602083101515612a975780518252602082019150602081019050602083039250612a72565b6001836020036101000a03801982511681845116808217855250505050505090500191505060405180910390209350600260003373ffffffffffffffffffffffffffffffffffffffff1673ffffffffffffffffffffffffffffffffffffffff1681526020019081526020016000206000856000191660001916815260200190815260200160002060009054906101000a900460ff16151515612b3857600080fd5b6001600260003373ffffffffffffffffffffffffffffffffffffffff1673ffffffffffffffffffffffffffffffffffffffff1681526020019081526020016000206000866000191660001916815260200190815260200160002060006101000a81548160ff021916908315150217905550612bfb34600360003373ffffffffffffffffffffffffffffffffffffffff1673ffffffffffffffffffffffffffffffffffffffff1681526020019081526020016000205461381c90919063ffffffff16565b600360003373ffffffffffffffffffffffffffffffffffffffff1673ffffffffffffffffffffffffffffffffffffffff168152602001908152602001600020819055503373ffffffffffffffffffffffffffffffffffffffff1688600019167f90ffa6e4395bc55c230e6156d105587e336710d5ef7c1f406834a7c970d2ebce8660405180826000191660001916815260200191505060405180910390a385877ff683e1ce3417145318e6bcb7f570d90b2dd65130c605d7d2c762b278214fd5d88660405180826000191660001916815260200191505060405180910390a360019450505050509392505050565b6000806000806000809054906101000a900473ffffffffffffffffffffffffffffffffffffffff1673ffffffffffffffffffffffffffffffffffffffff16633b7bfda03060405160200180807f70617573656400000000000000000000000000000000000000000000000000008152506006018273ffffffffffffffffffffffffffffffffffffffff1673ffffffffffffffffffffffffffffffffffffffff166c010000000000000000000000000281526014019150506040516020818303038152906040526040518082805190602001908083835b602083101515612de45780518252602082019150602081019050602083039250612dbf565b6001836020036101000a03801982511681845116808217855250505050505090500191505060405180910390206040518263ffffffff167c0100000000000000000000000000000000000000000000000000000000028152600401808260001916600019168152602001915050602060405180830381600087803b158015612e6b57600080fd5b505af1158015612e7f573d6000803e3d6000fd5b505050506040513d6020811015612e9557600080fd5b8101908080519060200190929190505050151515612eb257600080fd5b873387806000809054906101000a900473ffffffffffffffffffffffffffffffffffffffff1673ffffffffffffffffffffffffffffffffffffffff166304f49a3a8560405160200180807f746f6b656e416464726573730000000000000000000000000000000000000000815250600c0182600019166000191681526020019150506040516020818303038152906040526040518082805190602001908083835b602083101515612f785780518252602082019150602081019050602083039250612f53565b6001836020036101000a03801982511681845116808217855250505050505090500191505060405180910390206040518263ffffffff167c0100000000000000000000000000000000000000000000000000000000028152600401808260001916600019168152602001915050602060405180830381600087803b158015612fff57600080fd5b505af1158015613013573d6000803e3d6000fd5b505050506040513d602081101561302957600080fd5b810190808051906020019092919050505073ffffffffffffffffffffffffffffffffffffffff1663dd62ed3e84306040518363ffffffff167c0100000000000000000000000000000000000000000000000000000000028152600401808373ffffffffffffffffffffffffffffffffffffffff1673ffffffffffffffffffffffffffffffffffffffff1681526020018273ffffffffffffffffffffffffffffffffffffffff1673ffffffffffffffffffffffffffffffffffffffff16815260200192505050602060405180830381600087803b15801561310857600080fd5b505af115801561311c573d6000803e3d6000fd5b505050506040513d602081101561313257600080fd5b81019080805190602001909291905050501015151561315057600080fd5b8a8a8a8a60016040516020018086600019166000191681526020018573ffffffffffffffffffffffffffffffffffffffff1673ffffffffffffffffffffffffffffffffffffffff166c0100000000000000000000000002815260140184815260200183815260200182151515157f0100000000000000000000000000000000000000000000000000000000000000028152600101955050505050506040516020818303038152906040526040518082805190602001908083835b60208310151561322f578051825260208201915060208101905060208303925061320a565b6001836020036101000a03801982511681845116808217855250505050505090500191505060405180910390209550600260008b73ffffffffffffffffffffffffffffffffffffffff1673ffffffffffffffffffffffffffffffffffffffff1681526020019081526020016000206000876000191660001916815260200190815260200160002060009054906101000a900460ff1615156132cf57600080fd5b6132f66005546132e88a8c6137b290919063ffffffff16565b6137ed90919063ffffffff16565b94506000809054906101000a900473ffffffffffffffffffffffffffffffffffffffff1673ffffffffffffffffffffffffffffffffffffffff166304f49a3a8c60405160200180807f746f6b656e416464726573730000000000000000000000000000000000000000815250600c0182600019166000191681526020019150506040516020818303038152906040526040518082805190602001908083835b6020831015156133ba5780518252602082019150602081019050602083039250613395565b6001836020036101000a03801982511681845116808217855250505050505090500191505060405180910390206040518263ffffffff167c0100000000000000000000000000000000000000000000000000000000028152600401808260001916600019168152602001915050602060405180830381600087803b15801561344157600080fd5b505af1158015613455573d6000803e3d6000fd5b505050506040513d602081101561346b57600080fd5b810190808051906020019092919050505093508373ffffffffffffffffffffffffffffffffffffffff166323b872dd338c8c6040518463ffffffff167c0100000000000000000000000000000000000000000000000000000000028152600401808473ffffffffffffffffffffffffffffffffffffffff1673ffffffffffffffffffffffffffffffffffffffff1681526020018373ffffffffffffffffffffffffffffffffffffffff1673ffffffffffffffffffffffffffffffffffffffff1681526020018281526020019350505050602060405180830381600087803b15801561355557600080fd5b505af1158015613569573d6000803e3d6000fd5b505050506040513d602081101561357f57600080fd5b8101908080519060200190929190505050151561359b57600080fd5b6135ed85600360008d73ffffffffffffffffffffffffffffffffffffffff1673ffffffffffffffffffffffffffffffffffffffff1681526020019081526020016000205461380390919063ffffffff16565b600360008c73ffffffffffffffffffffffffffffffffffffffff1673ffffffffffffffffffffffffffffffffffffffff1681526020019081526020016000208190555061368285600460003373ffffffffffffffffffffffffffffffffffffffff1673ffffffffffffffffffffffffffffffffffffffff1681526020019081526020016000205461381c90919063ffffffff16565b600460003373ffffffffffffffffffffffffffffffffffffffff1673ffffffffffffffffffffffffffffffffffffffff16815260200190815260200160002081905550600260008b73ffffffffffffffffffffffffffffffffffffffff1673ffffffffffffffffffffffffffffffffffffffff1681526020019081526020016000206000876000191660001916815260200190815260200160002060006101000a81549060ff02191690553373ffffffffffffffffffffffffffffffffffffffff168b600019167f752cf0fbee9c3cd1cab55a1a5d683e3962eaecb18a9145e4fb4399c0e7c55d1e8860405180826000191660001916815260200191505060405180910390a360019650505050505050949350505050565b60036020528060005260406000206000915090505481565b60008060008414156137c757600091506137e6565b82840290508284828115156137d857fe5b041415156137e257fe5b8091505b5092915050565b600081838115156137fa57fe5b04905092915050565b600082821115151561381157fe5b818303905092915050565b600080828401905083811015151561383057fe5b80915050929150505600a165627a7a72305820fe88f61783715375b3e1fa581e4823e03e17f3ee68bb6fb75b554ec31b9d31a50029",
  "source": "pragma solidity 0.4.24;\nimport '../database/Database.sol';\nimport '../math/SafeMath.sol';\nimport '../interfaces/DivToken.sol';\nimport \"../access/ERC20Burner.sol\";\n\n\n// @title Simple decentralized exchange contract\n// @notice A sample contract to implement rudimentary asset-token trading\n// @dev Note: Users can only have 1 sell order and 1 buy order for each individual asset\n// @dev The orders are stored as as sha3 hash of critical parameters to save storage costs\ncontract AssetExchange {\n  using SafeMath for uint;\n\n  Database public database;\n  ERC20Burner private burner;\n\n  mapping (address => mapping (bytes32 => bool)) public orders;  // Hash of (assetID, sellerAddress, amountToBuy, price, boolean(BuyOrder = true))\n\n  mapping (address => uint) public weiDeposited;\n  mapping (address => uint) public weiOwed;\n  uint private decimals = uint256(1e18);\n\n\n  // @notice constructor: initializes database\n  // @param: the address for the database contract used by this platform\n  constructor(address _database)\n  public {\n    database = Database(_database);\n    burner = ERC20Burner(database.addressStorage(keccak256(abi.encodePacked(\"contract\", \"ERC20Burner\"))));\n  }\n\n  // Gives Ether sent to initatior of this sellOrder and transfers ownership units of asset to purchaser\n  // Note: Check if creator of sell order has enough ownership units left\n  // @Param: ID of the asset, which these ownershipUnits belong to\n  // @Param: Address of the user who created SellOrder\n  // @Param: Number of ownershipUnits being traded\n  // @Param: The WEI cost per unit\n  function buyAsset(bytes32 _assetID, address _seller, uint _amount, uint _price)\n  external\n  payable\n  whenNotPaused\n  isAllowed(_assetID, _seller, _amount)\n  burnRequired\n  returns (bool){\n    bytes32 thisOrder = keccak256(abi.encodePacked(_assetID, _seller, _amount, _price, false));\n    require(orders[_seller][thisOrder]);\n    require(msg.value == _amount.mul(_price).div(decimals));\n    DivToken assetToken = DivToken(database.addressStorage(keccak256(abi.encodePacked(\"tokenAddress\", _assetID))));\n    require(assetToken.transferFrom(_seller, msg.sender, _amount));\n    weiOwed[_seller] = weiOwed[_seller].add(msg.value);\n    delete orders[_seller][thisOrder];\n    emit LogSellOrderCompleted(thisOrder, _assetID, msg.sender);\n    return true;\n  }\n\n  // Settles an open SellOrder, giving the deposited ether to sender and sender tokens to initiator of BuyOrder\n  // @Param: ID of the asset, which senders ownershipUnits belong to\n  // @Param: Address of the user who created BuyOrder\n  // @Param: Number of ownershipUnits being sold\n  // @Param: The WEI cost per unit\n  function sellAsset(bytes32 _assetID, address _buyer, uint _amount, uint _price)\n  public\n  whenNotPaused\n  isAllowed(_assetID, msg.sender, _amount)\n  returns (bool){\n    bytes32 thisOrder = keccak256(abi.encodePacked(_assetID, _buyer, _amount, _price, true));       // Get order ID\n    require(orders[_buyer][thisOrder]);    // Check order exists\n    uint value = _amount.mul(_price).div(decimals);\n    DivToken assetToken = DivToken(database.addressStorage(keccak256(abi.encodePacked(\"tokenAddress\", _assetID))));\n    require(assetToken.transferFrom(msg.sender, _buyer, _amount));\n    weiDeposited[_buyer] = weiDeposited[_buyer].sub(value);\n    weiOwed[msg.sender] = weiOwed[msg.sender].add(value);\n    delete orders[_buyer][thisOrder];\n    emit LogBuyOrderCompleted(thisOrder, _assetID, msg.sender);\n    return true;\n  }\n\n  // Create a BuyOrder and leave WEI as a deposit for user that picks up order\n  // @Param: ID of the asset, which the sender wants to purchase ownershipUnits of\n  // @Param: Number of ownershipUnits being bought\n  // @Param: The WEI cost per unit\n  function createBuyOrder(bytes32 _assetID, uint _amount, uint _price)\n  external\n  payable\n  requiresEther\n  aboveZero(_amount, _price)\n  validAsset(_assetID)\n  burnRequired\n  returns (bool) {\n    require(msg.value == _amount.mul(_price).div(decimals));\n    bytes32 orderID = keccak256(abi.encodePacked(_assetID, msg.sender, _amount, _price, true));\n    require(!orders[msg.sender][orderID]);\n    orders[msg.sender][orderID] = true;\n    weiDeposited[msg.sender] = weiDeposited[msg.sender].add(msg.value);\n    emit LogBuyOrderCreated(orderID, _assetID, msg.sender);\n    emit LogBuyOrderDetails(orderID, _amount, _price);\n    return true;\n  }\n\n  // Create a BuyOrder and leave WEI as a deposit for user that picks up order\n  // @Param: ID of the asset, which sender is trying to sell\n  // @Param: Number of ownershipUnits being sold\n  // @Param: The WEI cost per unit\n  function createSellOrder(bytes32 _assetID, uint _amount, uint _price)\n  external\n  aboveZero(_amount, _price)\n  validAsset(_assetID)\n  isAllowed(_assetID, msg.sender, _amount)\n  returns (bool) {\n    bytes32 orderID = keccak256(abi.encodePacked(_assetID, msg.sender, _amount, _price, false));\n    require(!orders[msg.sender][orderID]);\n    orders[msg.sender][orderID] = true;\n    emit LogSellOrderCreated(orderID, _assetID, msg.sender);\n    emit LogSellOrderDetails(orderID, _amount, _price);\n    return true;\n  }\n\n  //------------------------------------------------------------------------------------------------------------------\n  // Create a BuyOrder and leave WEI as a deposit for user that picks up order\n  // @Param: ID of the asset\n  // @Param: Number of ownershipUnits being sold\n  // @Param: The WEI cost per unit\n  // @Param: Is this order a BuyOrder?\n  //------------------------------------------------------------------------------------------------------------------\n  function deleteOrder(bytes32 _assetID, uint _amount, uint _price, bool _buyOrder)\n  external\n  returns (bool) {\n    bytes32 orderID = keccak256(abi.encodePacked(_assetID, msg.sender, _amount, _price, _buyOrder));\n    require(orders[msg.sender][orderID]);\n    if (_buyOrder) {\n      uint returnValue = _amount.mul(_price).div(decimals);\n      weiDeposited[msg.sender] = weiDeposited[msg.sender].sub(returnValue);\n      weiOwed[msg.sender] = weiOwed[msg.sender].add(returnValue);\n    }\n    delete orders[msg.sender][orderID];\n    return true;\n  }\n  //------------------------------------------------------------------------------------------------------------------\n  // User can withdraw the wei they are owed here\n  //------------------------------------------------------------------------------------------------------------------\n  function withdraw()\n  external\n  whenNotPaused\n  returns (bool){\n    uint owed = weiOwed[msg.sender];\n    weiOwed[msg.sender] = 0;\n    msg.sender.transfer(owed);\n    return true;\n  }\n\n\n  //------------------------------------------------------------------------------------------------------------------\n  // @notice Destroys contract and sends WEI to _holdingAddress\n  //------------------------------------------------------------------------------------------------------------------\n  function destroy(address _functionInitiator, address _holdingAddress)\n  anyOwner\n  public {\n    require(_functionInitiator != msg.sender);\n    require(database.boolStorage(keccak256(abi.encodePacked(address(this), _functionInitiator, \"destroy\", keccak256(abi.encodePacked(_holdingAddress))))));\n    emit LogDestruction(_holdingAddress, address(this).balance, msg.sender);\n    selfdestruct(_holdingAddress);\n  }\n\n\n  //------------------------------------------------------------------------------------------------------------------\n  //                                      Modifiers\n  //------------------------------------------------------------------------------------------------------------------\n\n\n  //------------------------------------------------------------------------------------------------------------------\n  // This verifies that the asset is registered on the MyBit Platform and has successfully completed funding\n  //------------------------------------------------------------------------------------------------------------------\n  modifier validAsset(bytes32 _assetID) {\n    require (_assetID != bytes32(0));\n    require (database.boolStorage(keccak256(abi.encodePacked(\"crowdsaleFinalized\", _assetID))));\n    _;\n  }\n\n  //------------------------------------------------------------------------------------------------------------------\n  // Check if user has enough ownershipUnits to create SellOrder\n  //------------------------------------------------------------------------------------------------------------------\n  modifier isAllowed(bytes32 _assetID, address _sender, uint _tokens) {\n    require(DivToken(database.addressStorage(keccak256(abi.encodePacked(\"tokenAddress\", _assetID)))).allowance(_sender, address(this)) >= _tokens);\n    _;\n  }\n\n  //------------------------------------------------------------------------------------------------------------------\n  // Verifies that _amount or _price aren't null\n  //------------------------------------------------------------------------------------------------------------------\n  modifier aboveZero(uint _amount, uint _price) {\n    require(_amount.mul(_price) > 0);\n    _;\n  }\n\n  // @notice reverts if user hasn't approved burner to burn platform token\n  modifier burnRequired {\n    //emit LogSig(msg.sig);\n    require(burner.burn(msg.sender, database.uintStorage(keccak256(abi.encodePacked(msg.sig, address(this))))));\n    _;\n  }\n\n  //------------------------------------------------------------------------------------------------------------------\n  // Verify contract isn't paused\n  //------------------------------------------------------------------------------------------------------------------\n  modifier whenNotPaused {\n    require(!database.boolStorage(keccak256(abi.encodePacked(\"paused\", address(this)))));\n    _;\n  }\n\n  //------------------------------------------------------------------------------------------------------------------\n  // Throw if Ether hasn't been sent\n  //------------------------------------------------------------------------------------------------------------------\n  modifier requiresEther() {\n    require(msg.value > 0);\n    _;\n  }\n\n  //------------------------------------------------------------------------------------------------------------------\n  // Verify that the sender is a registered owner\n  //------------------------------------------------------------------------------------------------------------------\n  modifier anyOwner {\n    require(database.boolStorage(keccak256(abi.encodePacked(\"owner\", msg.sender))));\n    _;\n  }\n\n\n\n  //------------------------------------------------------------------------------------------------------------------\n  //                                      Events\n  //------------------------------------------------------------------------------------------------------------------\n\n  event LogDestruction(address indexed _locationSent, uint indexed _amountSent, address indexed _caller);\n  event LogBuyOrderCreated(bytes32 _orderID, bytes32 indexed _assetID, address indexed _creator);\n  event LogBuyOrderCompleted(bytes32 _orderID, bytes32 indexed _assetAddress, address indexed _purchaser);\n  event LogSellOrderCreated(bytes32 _orderID, bytes32 indexed _assetAddress, address indexed _creator);\n  event LogSellOrderCompleted(bytes32 _orderID, bytes32 indexed _assetAddress, address indexed _purchaser);\n  event LogBuyOrderDetails(bytes32 _orderID, uint indexed _amount, uint indexed _price);\n  event LogSellOrderDetails(bytes32 orderID, uint indexed _amount, uint indexed _price);\n  event LogownershipUnitsTraded(bytes32 _assetID, address _from, address _to, uint _amount);\n  event LogSig(bytes4 _sig);\n}\n",
  "sourcePath": "/home/peter/Documents/Work/MyBit/MyBit-Network.tech/contracts/ecosystem/AssetExchange.sol",
  "compiler": {
    "name": "solc",
    "version": "0.4.24+commit.e67f0147.Emscripten.clang"
  },
  "schemaVersion": "2.0.1",
  "updatedAt": "2018-10-17T18:28:17.829Z"
}