{
  "contractName": "AssetManagerEscrow",
  "abi": [
    {
      "constant": true,
      "inputs": [],
      "name": "database",
      "outputs": [
        {
          "name": "",
          "type": "address"
        }
      ],
      "payable": false,
      "stateMutability": "view",
      "type": "function"
    },
    {
      "inputs": [
        {
          "name": "_database",
          "type": "address"
        }
      ],
      "payable": false,
      "stateMutability": "nonpayable",
      "type": "constructor"
    },
    {
      "anonymous": false,
      "inputs": [
        {
          "indexed": true,
          "name": "_assetID",
          "type": "bytes32"
        },
        {
          "indexed": true,
          "name": "_assetManager",
          "type": "address"
        },
        {
          "indexed": false,
          "name": "_amountBurnt",
          "type": "uint256"
        }
      ],
      "name": "LogEscrowBurned",
      "type": "event"
    },
    {
      "anonymous": false,
      "inputs": [
        {
          "indexed": true,
          "name": "_assetID",
          "type": "bytes32"
        },
        {
          "indexed": true,
          "name": "_assetManagerEscrowID",
          "type": "bytes32"
        },
        {
          "indexed": true,
          "name": "_assetManager",
          "type": "address"
        },
        {
          "indexed": false,
          "name": "_amount",
          "type": "uint256"
        }
      ],
      "name": "LogEscrowLocked",
      "type": "event"
    },
    {
      "constant": false,
      "inputs": [
        {
          "name": "_assetID",
          "type": "bytes32"
        },
        {
          "name": "_amount",
          "type": "uint256"
        }
      ],
      "name": "lockEscrow",
      "outputs": [
        {
          "name": "",
          "type": "bool"
        }
      ],
      "payable": false,
      "stateMutability": "nonpayable",
      "type": "function"
    },
    {
      "constant": false,
      "inputs": [
        {
          "name": "_assetID",
          "type": "bytes32"
        }
      ],
      "name": "unlockEscrow",
      "outputs": [
        {
          "name": "",
          "type": "bool"
        }
      ],
      "payable": false,
      "stateMutability": "nonpayable",
      "type": "function"
    },
    {
      "constant": false,
      "inputs": [
        {
          "name": "_assetID",
          "type": "bytes32"
        },
        {
          "name": "_oldAssetManager",
          "type": "address"
        },
        {
          "name": "_amount",
          "type": "uint256"
        },
        {
          "name": "_burn",
          "type": "bool"
        }
      ],
      "name": "becomeAssetManager",
      "outputs": [
        {
          "name": "",
          "type": "bool"
        }
      ],
      "payable": false,
      "stateMutability": "nonpayable",
      "type": "function"
    }
  ],
  "bytecode": "0x608060405234801561001057600080fd5b5060405160208061316783398101806040528101908080519060200190929190505050806000806101000a81548173ffffffffffffffffffffffffffffffffffffffff021916908373ffffffffffffffffffffffffffffffffffffffff160217905550506130e4806100836000396000f300608060405260043610610062576000357c0100000000000000000000000000000000000000000000000000000000900463ffffffff168063095767b814610067578063713b563f146100e657806383b30ad41461013d578063914b857e14610190575b600080fd5b34801561007357600080fd5b506100cc6004803603810190808035600019169060200190929190803573ffffffffffffffffffffffffffffffffffffffff169060200190929190803590602001909291908035151590602001909291905050506101d9565b604051808215151515815260200191505060405180910390f35b3480156100f257600080fd5b506100fb611192565b604051808273ffffffffffffffffffffffffffffffffffffffff1673ffffffffffffffffffffffffffffffffffffffff16815260200191505060405180910390f35b34801561014957600080fd5b506101766004803603810190808035600019169060200190929190803590602001909291905050506111b7565b604051808215151515815260200191505060405180910390f35b34801561019c57600080fd5b506101bf6004803603810190808035600019169060200190929190505050611a3d565b604051808215151515815260200191505060405180910390f35b6000806000806000886000357fffffffff00000000000000000000000000000000000000000000000000000000168a8a338b8b6040516020018086600019166000191681526020018573ffffffffffffffffffffffffffffffffffffffff1673ffffffffffffffffffffffffffffffffffffffff166c010000000000000000000000000281526014018473ffffffffffffffffffffffffffffffffffffffff1673ffffffffffffffffffffffffffffffffffffffff166c0100000000000000000000000002815260140183815260200182151515157f0100000000000000000000000000000000000000000000000000000000000000028152600101955050505050506040516020818303038152906040526040518082805190602001908083835b60208310151561032057805182526020820191506020810190506020830392506102fb565b6001836020036101000a038019825116818451168082178552505050505050905001915050604051809103902060008030858585604051602001808573ffffffffffffffffffffffffffffffffffffffff1673ffffffffffffffffffffffffffffffffffffffff166c010000000000000000000000000281526014018460001916600019168152602001837bffffffffffffffffffffffffffffffffffffffffffffffffffffffff19167bffffffffffffffffffffffffffffffffffffffffffffffffffffffff1916815260040182600019166000191681526020019450505050506040516020818303038152906040526040518082805190602001908083835b6020831015156104465780518252602082019150602081019050602083039250610421565b6001836020036101000a038019825116818451168082178552505050505050905001915050604051809103902060405160200180807f766f7465546f74616c000000000000000000000000000000000000000000000081525060090182600019166000191681526020019150506040516020818303038152906040526040518082805190602001908083835b6020831015156104f757805182526020820191506020810190506020830392506104d2565b6001836020036101000a038019825116818451168082178552505050505050905001915050604051809103902091506000809054906101000a900473ffffffffffffffffffffffffffffffffffffffff1673ffffffffffffffffffffffffffffffffffffffff166304f49a3a8660405160200180807f746f6b656e416464726573730000000000000000000000000000000000000000815250600c0182600019166000191681526020019150506040516020818303038152906040526040518082805190602001908083835b6020831015156105e857805182526020820191506020810190506020830392506105c3565b6001836020036101000a03801982511681845116808217855250505050505090500191505060405180910390206040518263ffffffff167c0100000000000000000000000000000000000000000000000000000000028152600401808260001916600019168152602001915050602060405180830381600087803b15801561066f57600080fd5b505af1158015610683573d6000803e3d6000fd5b505050506040513d602081101561069957600080fd5b810190808051906020019092919050505073ffffffffffffffffffffffffffffffffffffffff166318160ddd6040518163ffffffff167c0100000000000000000000000000000000000000000000000000000000028152600401602060405180830381600087803b15801561070d57600080fd5b505af1158015610721573d6000803e3d6000fd5b505050506040513d602081101561073757600080fd5b8101908080519060200190929190505050905060216108448261083660646000809054906101000a900473ffffffffffffffffffffffffffffffffffffffff1673ffffffffffffffffffffffffffffffffffffffff1663a855d4ce886040518263ffffffff167c0100000000000000000000000000000000000000000000000000000000028152600401808260001916600019168152602001915050602060405180830381600087803b1580156107ed57600080fd5b505af1158015610801573d6000803e3d6000fd5b505050506040513d602081101561081757600080fd5b8101908080519060200190929190505050612c0190919063ffffffff16565b612c3c90919063ffffffff16565b1015151561085157600080fd5b6000809054906101000a900473ffffffffffffffffffffffffffffffffffffffff1673ffffffffffffffffffffffffffffffffffffffff166304f49a3a8f60405160200180807f61737365744d616e616765720000000000000000000000000000000000000000815250600c0182600019166000191681526020019150506040516020818303038152906040526040518082805190602001908083835b60208310151561091357805182526020820191506020810190506020830392506108ee565b6001836020036101000a03801982511681845116808217855250505050505090500191505060405180910390206040518263ffffffff167c0100000000000000000000000000000000000000000000000000000000028152600401808260001916600019168152602001915050602060405180830381600087803b15801561099a57600080fd5b505af11580156109ae573d6000803e3d6000fd5b505050506040513d60208110156109c457600080fd5b810190808051906020019092919050505098503373ffffffffffffffffffffffffffffffffffffffff168973ffffffffffffffffffffffffffffffffffffffff1614158015610a3e57508c73ffffffffffffffffffffffffffffffffffffffff168973ffffffffffffffffffffffffffffffffffffffff16145b1515610a4957600080fd5b8d8d6040516020018083600019166000191681526020018273ffffffffffffffffffffffffffffffffffffffff1673ffffffffffffffffffffffffffffffffffffffff166c01000000000000000000000000028152601401925050506040516020818303038152906040526040518082805190602001908083835b602083101515610ae95780518252602082019150602081019050602083039250610ac4565b6001836020036101000a03801982511681845116808217855250505050505090500191505060405180910390209750610e316000809054906101000a900473ffffffffffffffffffffffffffffffffffffffff1673ffffffffffffffffffffffffffffffffffffffff1663a855d4ce8a60405160200180807f657363726f7752656465656d6564000000000000000000000000000000000000815250600e0182600019166000191681526020019150506040516020818303038152906040526040518082805190602001908083835b602083101515610bdd5780518252602082019150602081019050602083039250610bb8565b6001836020036101000a03801982511681845116808217855250505050505090500191505060405180910390206040518263ffffffff167c0100000000000000000000000000000000000000000000000000000000028152600401808260001916600019168152602001915050602060405180830381600087803b158015610c6457600080fd5b505af1158015610c78573d6000803e3d6000fd5b505050506040513d6020811015610c8e57600080fd5b81019080805190602001909291905050506000809054906101000a900473ffffffffffffffffffffffffffffffffffffffff1673ffffffffffffffffffffffffffffffffffffffff1663a855d4ce8b60405160200180807f61737365744d616e61676572457363726f77000000000000000000000000000081525060120182600019166000191681526020019150506040516020818303038152906040526040518082805190602001908083835b602083101515610d615780518252602082019150602081019050602083039250610d3c565b6001836020036101000a03801982511681845116808217855250505050505090500191505060405180910390206040518263ffffffff167c0100000000000000000000000000000000000000000000000000000000028152600401808260001916600019168152602001915050602060405180830381600087803b158015610de857600080fd5b505af1158015610dfc573d6000803e3d6000fd5b505050506040513d6020811015610e1257600080fd5b8101908080519060200190929190505050612c5290919063ffffffff16565b96506000809054906101000a900473ffffffffffffffffffffffffffffffffffffffff1673ffffffffffffffffffffffffffffffffffffffff166304f49a3a60405160200180807f706c6174666f726d546f6b656e00000000000000000000000000000000000000815250600d0190506040516020818303038152906040526040518082805190602001908083835b602083101515610ee55780518252602082019150602081019050602083039250610ec0565b6001836020036101000a03801982511681845116808217855250505050505090500191505060405180910390206040518263ffffffff167c0100000000000000000000000000000000000000000000000000000000028152600401808260001916600019168152602001915050602060405180830381600087803b158015610f6c57600080fd5b505af1158015610f80573d6000803e3d6000fd5b505050506040513d6020811015610f9657600080fd5b81019080805190602001909291905050509550610fb38e89612c6b565b1515610fbe57600080fd5b8a1561107e578573ffffffffffffffffffffffffffffffffffffffff166342966c68886040518263ffffffff167c010000000000000000000000000000000000000000000000000000000002815260040180828152602001915050602060405180830381600087803b15801561103357600080fd5b505af1158015611047573d6000803e3d6000fd5b505050506040513d602081101561105d57600080fd5b8101908080519060200190929190505050151561107957600080fd5b611168565b8573ffffffffffffffffffffffffffffffffffffffff1663a9059cbb8e896040518363ffffffff167c0100000000000000000000000000000000000000000000000000000000028152600401808373ffffffffffffffffffffffffffffffffffffffff1673ffffffffffffffffffffffffffffffffffffffff16815260200182815260200192505050602060405180830381600087803b15801561112157600080fd5b505af1158015611135573d6000803e3d6000fd5b505050506040513d602081101561114b57600080fd5b8101908080519060200190929190505050151561116757600080fd5b5b6111728e8d6111b7565b151561117d57600080fd5b60019950505050505050505050949350505050565b6000809054906101000a900473ffffffffffffffffffffffffffffffffffffffff1681565b60008060008073ffffffffffffffffffffffffffffffffffffffff166000809054906101000a900473ffffffffffffffffffffffffffffffffffffffff1673ffffffffffffffffffffffffffffffffffffffff166304f49a3a8760405160200180807f61737365744d616e616765720000000000000000000000000000000000000000815250600c0182600019166000191681526020019150506040516020818303038152906040526040518082805190602001908083835b6020831015156112955780518252602082019150602081019050602083039250611270565b6001836020036101000a03801982511681845116808217855250505050505090500191505060405180910390206040518263ffffffff167c0100000000000000000000000000000000000000000000000000000000028152600401808260001916600019168152602001915050602060405180830381600087803b15801561131c57600080fd5b505af1158015611330573d6000803e3d6000fd5b505050506040513d602081101561134657600080fd5b810190808051906020019092919050505073ffffffffffffffffffffffffffffffffffffffff1614151561137957600080fd5b84336040516020018083600019166000191681526020018273ffffffffffffffffffffffffffffffffffffffff1673ffffffffffffffffffffffffffffffffffffffff166c01000000000000000000000000028152601401925050506040516020818303038152906040526040518082805190602001908083835b60208310151561141957805182526020820191506020810190506020830392506113f4565b6001836020036101000a038019825116818451168082178552505050505050905001915050604051809103902091506000809054906101000a900473ffffffffffffffffffffffffffffffffffffffff1673ffffffffffffffffffffffffffffffffffffffff166304f49a3a60405160200180807f706c6174666f726d546f6b656e00000000000000000000000000000000000000815250600d0190506040516020818303038152906040526040518082805190602001908083835b6020831015156114fa57805182526020820191506020810190506020830392506114d5565b6001836020036101000a03801982511681845116808217855250505050505090500191505060405180910390206040518263ffffffff167c0100000000000000000000000000000000000000000000000000000000028152600401808260001916600019168152602001915050602060405180830381600087803b15801561158157600080fd5b505af1158015611595573d6000803e3d6000fd5b505050506040513d60208110156115ab57600080fd5b810190808051906020019092919050505090508073ffffffffffffffffffffffffffffffffffffffff166323b872dd3330876040518463ffffffff167c0100000000000000000000000000000000000000000000000000000000028152600401808473ffffffffffffffffffffffffffffffffffffffff1673ffffffffffffffffffffffffffffffffffffffff1681526020018373ffffffffffffffffffffffffffffffffffffffff1673ffffffffffffffffffffffffffffffffffffffff1681526020018281526020019350505050602060405180830381600087803b15801561169557600080fd5b505af11580156116a9573d6000803e3d6000fd5b505050506040513d60208110156116bf57600080fd5b810190808051906020019092919050505015156116db57600080fd5b6000809054906101000a900473ffffffffffffffffffffffffffffffffffffffff1673ffffffffffffffffffffffffffffffffffffffff1663e2a4853a8360405160200180807f61737365744d616e61676572457363726f77000000000000000000000000000081525060120182600019166000191681526020019150506040516020818303038152906040526040518082805190602001908083835b60208310151561179d5780518252602082019150602081019050602083039250611778565b6001836020036101000a0380198251168184511680821785525050505050509050019150506040518091039020866040518363ffffffff167c010000000000000000000000000000000000000000000000000000000002815260040180836000191660001916815260200182815260200192505050600060405180830381600087803b15801561182c57600080fd5b505af1158015611840573d6000803e3d6000fd5b505050506000809054906101000a900473ffffffffffffffffffffffffffffffffffffffff1673ffffffffffffffffffffffffffffffffffffffff1663ca446dd98660405160200180807f61737365744d616e616765720000000000000000000000000000000000000000815250600c0182600019166000191681526020019150506040516020818303038152906040526040518082805190602001908083835b60208310151561190657805182526020820191506020810190506020830392506118e1565b6001836020036101000a0380198251168184511680821785525050505050509050019150506040518091039020336040518363ffffffff167c01000000000000000000000000000000000000000000000000000000000281526004018083600019166000191681526020018273ffffffffffffffffffffffffffffffffffffffff1673ffffffffffffffffffffffffffffffffffffffff16815260200192505050600060405180830381600087803b1580156119c157600080fd5b505af11580156119d5573d6000803e3d6000fd5b505050503373ffffffffffffffffffffffffffffffffffffffff16826000191686600019167f8b62a0c8fa9a5dd6ebd3760f2bcd1c4330412a17ced259aae291de3612dde0aa876040518082815260200191505060405180910390a460019250505092915050565b60008060008060008060008060003373ffffffffffffffffffffffffffffffffffffffff166000809054906101000a900473ffffffffffffffffffffffffffffffffffffffff1673ffffffffffffffffffffffffffffffffffffffff166304f49a3a8c60405160200180807f61737365744d616e616765720000000000000000000000000000000000000000815250600c0182600019166000191681526020019150506040516020818303038152906040526040518082805190602001908083835b602083101515611b245780518252602082019150602081019050602083039250611aff565b6001836020036101000a03801982511681845116808217855250505050505090500191505060405180910390206040518263ffffffff167c0100000000000000000000000000000000000000000000000000000000028152600401808260001916600019168152602001915050602060405180830381600087803b158015611bab57600080fd5b505af1158015611bbf573d6000803e3d6000fd5b505050506040513d6020811015611bd557600080fd5b810190808051906020019092919050505073ffffffffffffffffffffffffffffffffffffffff16141515611c0857600080fd5b426000809054906101000a900473ffffffffffffffffffffffffffffffffffffffff1673ffffffffffffffffffffffffffffffffffffffff1663a855d4ce8c60405160200180807f66756e64696e67446561646c696e650000000000000000000000000000000000815250600f0182600019166000191681526020019150506040516020818303038152906040526040518082805190602001908083835b602083101515611ccb5780518252602082019150602081019050602083039250611ca6565b6001836020036101000a03801982511681845116808217855250505050505090500191505060405180910390206040518263ffffffff167c0100000000000000000000000000000000000000000000000000000000028152600401808260001916600019168152602001915050602060405180830381600087803b158015611d5257600080fd5b505af1158015611d66573d6000803e3d6000fd5b505050506040513d6020811015611d7c57600080fd5b8101908080519060200190929190505050101515611d9957600080fd5b6000809054906101000a900473ffffffffffffffffffffffffffffffffffffffff1673ffffffffffffffffffffffffffffffffffffffff166304f49a3a60405160200180807f706c6174666f726d546f6b656e00000000000000000000000000000000000000815250600d0190506040516020818303038152906040526040518082805190602001908083835b602083101515611e4b5780518252602082019150602081019050602083039250611e26565b6001836020036101000a03801982511681845116808217855250505050505090500191505060405180910390206040518263ffffffff167c0100000000000000000000000000000000000000000000000000000000028152600401808260001916600019168152602001915050602060405180830381600087803b158015611ed257600080fd5b505af1158015611ee6573d6000803e3d6000fd5b505050506040513d6020811015611efc57600080fd5b8101908080519060200190929190505050975089336040516020018083600019166000191681526020018273ffffffffffffffffffffffffffffffffffffffff1673ffffffffffffffffffffffffffffffffffffffff166c01000000000000000000000000028152601401925050506040516020818303038152906040526040518082805190602001908083835b602083101515611faf5780518252602082019150602081019050602083039250611f8a565b6001836020036101000a038019825116818451168082178552505050505050905001915050604051809103902096506000809054906101000a900473ffffffffffffffffffffffffffffffffffffffff1673ffffffffffffffffffffffffffffffffffffffff1663a855d4ce8860405160200180807f657363726f7752656465656d6564000000000000000000000000000000000000815250600e0182600019166000191681526020019150506040516020818303038152906040526040518082805190602001908083835b6020831015156120a0578051825260208201915060208101905060208303925061207b565b6001836020036101000a03801982511681845116808217855250505050505090500191505060405180910390206040518263ffffffff167c0100000000000000000000000000000000000000000000000000000000028152600401808260001916600019168152602001915050602060405180830381600087803b15801561212757600080fd5b505af115801561213b573d6000803e3d6000fd5b505050506040513d602081101561215157600080fd5b810190808051906020019092919050505095506122fa866000809054906101000a900473ffffffffffffffffffffffffffffffffffffffff1673ffffffffffffffffffffffffffffffffffffffff1663a855d4ce8a60405160200180807f61737365744d616e61676572457363726f77000000000000000000000000000081525060120182600019166000191681526020019150506040516020818303038152906040526040518082805190602001908083835b60208310151561222a5780518252602082019150602081019050602083039250612205565b6001836020036101000a03801982511681845116808217855250505050505090500191505060405180910390206040518263ffffffff167c0100000000000000000000000000000000000000000000000000000000028152600401808260001916600019168152602001915050602060405180830381600087803b1580156122b157600080fd5b505af11580156122c5573d6000803e3d6000fd5b505050506040513d60208110156122db57600080fd5b8101908080519060200190929190505050612c5290919063ffffffff16565b94506000809054906101000a900473ffffffffffffffffffffffffffffffffffffffff1673ffffffffffffffffffffffffffffffffffffffff16633b7bfda08b60405160200180807f63726f776473616c6546696e616c697a6564000000000000000000000000000081525060120182600019166000191681526020019150506040516020818303038152906040526040518082805190602001908083835b6020831015156123be5780518252602082019150602081019050602083039250612399565b6001836020036101000a03801982511681845116808217855250505050505090500191505060405180910390206040518263ffffffff167c0100000000000000000000000000000000000000000000000000000000028152600401808260001916600019168152602001915050602060405180830381600087803b15801561244557600080fd5b505af1158015612459573d6000803e3d6000fd5b505050506040513d602081101561246f57600080fd5b810190808051906020019092919050505015156124a0576124908a88612c6b565b151561249b57600080fd5b612b07565b6000809054906101000a900473ffffffffffffffffffffffffffffffffffffffff1673ffffffffffffffffffffffffffffffffffffffff166304f49a3a8b60405160200180807f746f6b656e416464726573730000000000000000000000000000000000000000815250600c0182600019166000191681526020019150506040516020818303038152906040526040518082805190602001908083835b602083101515612562578051825260208201915060208101905060208303925061253d565b6001836020036101000a03801982511681845116808217855250505050505090500191505060405180910390206040518263ffffffff167c0100000000000000000000000000000000000000000000000000000000028152600401808260001916600019168152602001915050602060405180830381600087803b1580156125e957600080fd5b505af11580156125fd573d6000803e3d6000fd5b505050506040513d602081101561261357600080fd5b810190808051906020019092919050505093506127888473ffffffffffffffffffffffffffffffffffffffff166318160ddd6040518163ffffffff167c0100000000000000000000000000000000000000000000000000000000028152600401602060405180830381600087803b15801561268d57600080fd5b505af11580156126a1573d6000803e3d6000fd5b505050506040513d60208110156126b757600080fd5b810190808051906020019092919050505061277a60648773ffffffffffffffffffffffffffffffffffffffff16632ba1b3a16040518163ffffffff167c0100000000000000000000000000000000000000000000000000000000028152600401602060405180830381600087803b15801561273157600080fd5b505af1158015612745573d6000803e3d6000fd5b505050506040513d602081101561275b57600080fd5b8101908080519060200190929190505050612c0190919063ffffffff16565b612c3c90919063ffffffff16565b925061279e601984612c3c90919063ffffffff16565b915061293760046000809054906101000a900473ffffffffffffffffffffffffffffffffffffffff1673ffffffffffffffffffffffffffffffffffffffff1663a855d4ce8a60405160200180807f61737365744d616e61676572457363726f77000000000000000000000000000081525060120182600019166000191681526020019150506040516020818303038152906040526040518082805190602001908083835b6020831015156128675780518252602082019150602081019050602083039250612842565b6001836020036101000a03801982511681845116808217855250505050505090500191505060405180910390206040518263ffffffff167c0100000000000000000000000000000000000000000000000000000000028152600401808260001916600019168152602001915050602060405180830381600087803b1580156128ee57600080fd5b505af1158015612902573d6000803e3d6000fd5b505050506040513d602081101561291857600080fd5b8101908080519060200190929190505050612c3c90919063ffffffff16565b90506004821115801561294a5750600082115b151561295557600080fd5b61297a8661296c8385612c0190919063ffffffff16565b612c5290919063ffffffff16565b945060008511151561298b57600080fd5b6000809054906101000a900473ffffffffffffffffffffffffffffffffffffffff1673ffffffffffffffffffffffffffffffffffffffff1663e2a4853a8860405160200180807f657363726f7752656465656d6564000000000000000000000000000000000000815250600e0182600019166000191681526020019150506040516020818303038152906040526040518082805190602001908083835b602083101515612a4d5780518252602082019150602081019050602083039250612a28565b6001836020036101000a0380198251168184511680821785525050505050509050019150506040518091039020612a8d888a61309a90919063ffffffff16565b6040518363ffffffff167c010000000000000000000000000000000000000000000000000000000002815260040180836000191660001916815260200182815260200192505050600060405180830381600087803b158015612aee57600080fd5b505af1158015612b02573d6000803e3d6000fd5b505050505b8773ffffffffffffffffffffffffffffffffffffffff1663a9059cbb33876040518363ffffffff167c0100000000000000000000000000000000000000000000000000000000028152600401808373ffffffffffffffffffffffffffffffffffffffff1673ffffffffffffffffffffffffffffffffffffffff16815260200182815260200192505050602060405180830381600087803b158015612baa57600080fd5b505af1158015612bbe573d6000803e3d6000fd5b505050506040513d6020811015612bd457600080fd5b81019080805190602001909291905050501515612bf057600080fd5b600198505050505050505050919050565b6000806000841415612c165760009150612c35565b8284029050828482811515612c2757fe5b04141515612c3157fe5b8091505b5092915050565b60008183811515612c4957fe5b04905092915050565b6000828211151515612c6057fe5b818303905092915050565b60008060009054906101000a900473ffffffffffffffffffffffffffffffffffffffff1673ffffffffffffffffffffffffffffffffffffffff16630e14a3768460405160200180807f61737365744d616e616765720000000000000000000000000000000000000000815250600c0182600019166000191681526020019150506040516020818303038152906040526040518082805190602001908083835b602083101515612d2f5780518252602082019150602081019050602083039250612d0a565b6001836020036101000a03801982511681845116808217855250505050505090500191505060405180910390206040518263ffffffff167c0100000000000000000000000000000000000000000000000000000000028152600401808260001916600019168152602001915050600060405180830381600087803b158015612db657600080fd5b505af1158015612dca573d6000803e3d6000fd5b505050506000809054906101000a900473ffffffffffffffffffffffffffffffffffffffff1673ffffffffffffffffffffffffffffffffffffffff1663e2b202bf8360405160200180807f61737365744d616e61676572457363726f77000000000000000000000000000081525060120182600019166000191681526020019150506040516020818303038152906040526040518082805190602001908083835b602083101515612e905780518252602082019150602081019050602083039250612e6b565b6001836020036101000a03801982511681845116808217855250505050505090500191505060405180910390206040518263ffffffff167c0100000000000000000000000000000000000000000000000000000000028152600401808260001916600019168152602001915050600060405180830381600087803b158015612f1757600080fd5b505af1158015612f2b573d6000803e3d6000fd5b505050506000809054906101000a900473ffffffffffffffffffffffffffffffffffffffff1673ffffffffffffffffffffffffffffffffffffffff1663e2b202bf8360405160200180807f657363726f7752656465656d6564000000000000000000000000000000000000815250600e0182600019166000191681526020019150506040516020818303038152906040526040518082805190602001908083835b602083101515612ff15780518252602082019150602081019050602083039250612fcc565b6001836020036101000a03801982511681845116808217855250505050505090500191505060405180910390206040518263ffffffff167c0100000000000000000000000000000000000000000000000000000000028152600401808260001916600019168152602001915050600060405180830381600087803b15801561307857600080fd5b505af115801561308c573d6000803e3d6000fd5b505050506001905092915050565b60008082840190508381101515156130ae57fe5b80915050929150505600a165627a7a7230582098d1836b0bb96f1ea23b4378cb18372a9fc891d79bb7cbf85856ee611011fe900029",
  "source": "  pragma solidity ^0.4.24;\n\n  import \"../math/SafeMath.sol\";\n  import \"../interfaces/DBInterface.sol\";\n  import \"../interfaces/DivToken.sol\";\n  import \"../interfaces/BurnableERC20.sol\";\n\n  interface Governance { function isConsensusReached(address _thisContract, bytes4 _methodID, bytes32 _parameterHash) external view returns (bool); }\n\n  // @title A contract to hold escrow as collateral against assets\n  // @author Kyle Dewhurst, MyBit Foundation\n  // @notice AssetManager can lock his escrow in this contract and retrieve it if asset funding fails or successfully returns ROI\n  contract AssetManagerEscrow {\n    using SafeMath for uint256;\n\n    DBInterface public database;\n\n    // @notice constructor: initializes database\n    // @param: the address for the database contract used by this platform\n    constructor(address _database)\n    public {\n      database = DBInterface(_database);\n    }\n\n    // @dev assetID can be computed beforehand with sha3(msg.sender, _amountToRaise, _operatorID, _assetURI))\n    // @dev anybody can make the assetManager escrow if he leaves this contract with approval to transfer\n    function lockEscrow(bytes32 _assetID, uint _amount)\n    public\n    returns (bool) {\n      require(database.addressStorage(keccak256(abi.encodePacked(\"assetManager\", _assetID))) == address(0));\n      bytes32 assetManagerEscrowID = keccak256(abi.encodePacked(_assetID, msg.sender));\n      address tokenAddress = database.addressStorage(keccak256(abi.encodePacked(\"platformToken\")));\n      require(BurnableERC20(tokenAddress).transferFrom(msg.sender, address(this), _amount));\n      database.setUint(keccak256(abi.encodePacked(\"assetManagerEscrow\", assetManagerEscrowID)), _amount);\n      database.setAddress(keccak256(abi.encodePacked(\"assetManager\", _assetID)), msg.sender);\n      emit LogEscrowLocked(_assetID, assetManagerEscrowID, msg.sender, _amount);\n      return true;\n    }\n\n\n    // @notice assetManager can unlock his escrow here once funding fails or asset returns sufficient ROI\n    // @dev asset must have fundingDeadline = 0 or have ROI > 25%\n    // @dev returns escrow according to ROI. 25% ROI returns 25% of escrow, 50% ROI returns 50% of escrow etc...\n    function unlockEscrow(bytes32 _assetID)\n    public\n    returns (bool) {\n      require(database.addressStorage(keccak256(abi.encodePacked(\"assetManager\", _assetID))) == msg.sender);\n      require(database.uintStorage(keccak256(abi.encodePacked(\"fundingDeadline\", _assetID))) < now);\n      BurnableERC20 burnToken = BurnableERC20(database.addressStorage(keccak256(abi.encodePacked(\"platformToken\"))));\n      bytes32 assetManagerEscrowID = keccak256(abi.encodePacked(_assetID, msg.sender));\n      uint escrowRedeemed = database.uintStorage(keccak256(abi.encodePacked(\"escrowRedeemed\", assetManagerEscrowID)));\n      uint unlockAmount = database.uintStorage(keccak256(abi.encodePacked(\"assetManagerEscrow\", assetManagerEscrowID))).sub(escrowRedeemed);\n      if(!database.boolStorage(keccak256(abi.encodePacked(\"crowdsaleFinalized\", _assetID)))){\n        //If we're past deadline but crowdsale did NOT finalize, release all escrow\n        require(removeAssetManager(_assetID, assetManagerEscrowID));\n      }\n      else {\n        //Past the deadline with a successful funding. Only pay back based on ROI\n        DivToken assetToken = DivToken(database.addressStorage(keccak256(abi.encodePacked(\"tokenAddress\", _assetID))));\n        uint roi = assetToken.assetIncome().mul(100).div(assetToken.totalSupply());   // Scaled up by 10^2  (approaches 100 as asset income increases)\n        uint roiCheckpoints = roi.div(25);       // How many quarterly increments have been reached?\n        uint quarterEscrow = database.uintStorage(keccak256(abi.encodePacked(\"assetManagerEscrow\", assetManagerEscrowID))).div(4);\n        require(roiCheckpoints <= 4 && roiCheckpoints > 0);    // Can't unlock escrow past 100% ROI\n        //  multiply the number of quarterly increments by a quarter of the escrow and subtract the escrow already redeemed.\n        unlockAmount = roiCheckpoints.mul(quarterEscrow).sub(escrowRedeemed);\n        require(unlockAmount > 0);\n        database.setUint(keccak256(abi.encodePacked(\"escrowRedeemed\", assetManagerEscrowID)), escrowRedeemed.add(unlockAmount));\n      }\n      require(burnToken.transfer(msg.sender, unlockAmount));\n      return true;\n    }\n\n\n    // @notice investors can vote to call this function for the new assetManager to then call\n    // @dev new assetManager must approve this contract to transfer in and lock _ amount of platform tokens\n    function becomeAssetManager(bytes32 _assetID, address _oldAssetManager, uint _amount, bool _burn)\n    external\n    hasConsensus(_assetID, msg.sig, keccak256(abi.encodePacked(_assetID, _oldAssetManager, msg.sender, _amount, _burn)))\n    returns (bool) {\n      address currentAssetManager = database.addressStorage(keccak256(abi.encodePacked(\"assetManager\", _assetID)));\n      require(currentAssetManager != msg.sender && currentAssetManager == _oldAssetManager);\n      bytes32 assetManagerEscrowID = keccak256(abi.encodePacked(_assetID, _oldAssetManager));\n      uint oldEscrowRemaining = database.uintStorage(keccak256(abi.encodePacked(\"assetManagerEscrow\", assetManagerEscrowID))).sub(database.uintStorage(keccak256(abi.encodePacked(\"escrowRedeemed\", assetManagerEscrowID))));\n      BurnableERC20 token = BurnableERC20(database.addressStorage(keccak256(abi.encodePacked(\"platformToken\"))));\n      require(removeAssetManager(_assetID, assetManagerEscrowID));\n      if (_burn) { require(token.burn(oldEscrowRemaining)); }\n      else { require(token.transfer(_oldAssetManager, oldEscrowRemaining));  }\n      require(lockEscrow(_assetID, _amount));\n      return true;\n    }\n\n\n    //////////////////////////////////////////////////////////////////////////////////////////////////////////////////\n    //                                            Internal Functions\n    //////////////////////////////////////////////////////////////////////////////////////////////////////////////////\n\n\n    function removeAssetManager(bytes32 _assetID, bytes32 _assetManagerEscrowID)\n    internal\n    returns (bool) {\n        database.deleteAddress(keccak256(abi.encodePacked(\"assetManager\", _assetID)));\n        database.deleteUint(keccak256(abi.encodePacked(\"assetManagerEscrow\", _assetManagerEscrowID)));\n        database.deleteUint(keccak256(abi.encodePacked(\"escrowRedeemed\", _assetManagerEscrowID)));\n        return true;\n    }\n\n\n  //////////////////////////////////////////////////////////////////////////////////////////////////////////////////\n  //                                            Modifiers\n  //////////////////////////////////////////////////////////////////////////////////////////////////////////////////\n\n    // @notice add this modifer to functions that you want multi-sig requirements for\n    // @dev function can only be called after at least n >= quorumLevel owners have agreed to call it\n    modifier hasConsensus(bytes32 _assetID, bytes4 _methodID, bytes32 _parameterHash) {\n      bytes32 numVotesID = keccak256(abi.encodePacked(\"voteTotal\", keccak256(abi.encodePacked(address(this), _assetID, _methodID, _parameterHash))));\n      uint256 numTokens = DivToken(database.addressStorage(keccak256(abi.encodePacked(\"tokenAddress\", _assetID)))).totalSupply();\n      require(database.uintStorage(numVotesID).mul(100).div(numTokens) >= 33);\n      _;\n    }\n\n\n    event LogEscrowBurned(bytes32 indexed _assetID, address indexed _assetManager, uint _amountBurnt);\n    event LogEscrowLocked(bytes32 indexed _assetID, bytes32 indexed _assetManagerEscrowID, address indexed _assetManager, uint _amount);\n\n}\n",
  "sourcePath": "/home/peter/Documents/Work/MyBit/MyBit-Network.tech/contracts/roles/AssetManagerEscrow.sol",
  "compiler": {
    "name": "solc",
    "version": "0.4.24+commit.e67f0147.Emscripten.clang"
  },
  "schemaVersion": "2.0.1",
  "updatedAt": "2018-10-17T01:56:53.288Z"
}