{
  "contractName": "Asset",
  "abi": [
    {
      "constant": true,
      "inputs": [],
      "name": "database",
      "outputs": [
        {
          "name": "",
          "type": "address"
        }
      ],
      "payable": false,
      "stateMutability": "view",
      "type": "function"
    },
    {
      "inputs": [
        {
          "name": "_database",
          "type": "address"
        }
      ],
      "payable": false,
      "stateMutability": "nonpayable",
      "type": "constructor"
    },
    {
      "payable": false,
      "stateMutability": "nonpayable",
      "type": "fallback"
    },
    {
      "anonymous": false,
      "inputs": [
        {
          "indexed": true,
          "name": "_locationSent",
          "type": "address"
        },
        {
          "indexed": true,
          "name": "_amountSent",
          "type": "uint256"
        },
        {
          "indexed": true,
          "name": "_caller",
          "type": "address"
        }
      ],
      "name": "LogDestruction",
      "type": "event"
    },
    {
      "anonymous": false,
      "inputs": [
        {
          "indexed": true,
          "name": "_assetID",
          "type": "bytes32"
        },
        {
          "indexed": false,
          "name": "_sender",
          "type": "address"
        },
        {
          "indexed": false,
          "name": "_amount",
          "type": "uint256"
        },
        {
          "indexed": false,
          "name": "_note",
          "type": "bytes32"
        }
      ],
      "name": "LogIncomeReceived",
      "type": "event"
    },
    {
      "anonymous": false,
      "inputs": [
        {
          "indexed": false,
          "name": "_funder",
          "type": "address"
        },
        {
          "indexed": false,
          "name": "_amount",
          "type": "uint256"
        }
      ],
      "name": "LogIncomeWithdrawl",
      "type": "event"
    },
    {
      "constant": false,
      "inputs": [
        {
          "name": "_assetID",
          "type": "bytes32"
        },
        {
          "name": "_note",
          "type": "bytes32"
        }
      ],
      "name": "receiveIncome",
      "outputs": [
        {
          "name": "",
          "type": "bool"
        }
      ],
      "payable": true,
      "stateMutability": "payable",
      "type": "function"
    },
    {
      "constant": false,
      "inputs": [
        {
          "name": "_assetID",
          "type": "bytes32"
        }
      ],
      "name": "withdrawManagerIncome",
      "outputs": [
        {
          "name": "",
          "type": "bool"
        }
      ],
      "payable": false,
      "stateMutability": "nonpayable",
      "type": "function"
    },
    {
      "constant": false,
      "inputs": [
        {
          "name": "_assetID",
          "type": "bytes32"
        }
      ],
      "name": "withdraw",
      "outputs": [
        {
          "name": "",
          "type": "bool"
        }
      ],
      "payable": false,
      "stateMutability": "nonpayable",
      "type": "function"
    },
    {
      "constant": false,
      "inputs": [
        {
          "name": "_assetIDs",
          "type": "bytes32[]"
        }
      ],
      "name": "batchWithdraw",
      "outputs": [
        {
          "name": "",
          "type": "bool"
        }
      ],
      "payable": false,
      "stateMutability": "nonpayable",
      "type": "function"
    },
    {
      "constant": false,
      "inputs": [
        {
          "name": "_functionInitiator",
          "type": "address"
        },
        {
          "name": "_holdingAddress",
          "type": "address"
        }
      ],
      "name": "destroy",
      "outputs": [],
      "payable": false,
      "stateMutability": "nonpayable",
      "type": "function"
    }
  ],
  "bytecode": "0x608060405234801561001057600080fd5b50604051602080613c2f83398101806040528101908080519060200190929190505050806000806101000a81548173ffffffffffffffffffffffffffffffffffffffff021916908373ffffffffffffffffffffffffffffffffffffffff16021790555050613bac806100836000396000f300608060405260043610610078576000357c0100000000000000000000000000000000000000000000000000000000900463ffffffff16806359c19cee1461008a57806362b40f9f146100dd578063713b563f146101405780638e19899e146101975780639fd58182146101e0578063c71c6c5514610229575b34801561008457600080fd5b50600080fd5b34801561009657600080fd5b506100c3600480360381019080803590602001908201803590602001919091929391929390505050610273565b604051808215151515815260200191505060405180910390f35b3480156100e957600080fd5b5061013e600480360381019080803573ffffffffffffffffffffffffffffffffffffffff169060200190929190803573ffffffffffffffffffffffffffffffffffffffff16906020019092919050505061112b565b005b34801561014c57600080fd5b50610155611746565b604051808273ffffffffffffffffffffffffffffffffffffffff1673ffffffffffffffffffffffffffffffffffffffff16815260200191505060405180910390f35b3480156101a357600080fd5b506101c6600480360381019080803560001916906020019092919050505061176b565b604051808215151515815260200191505060405180910390f35b3480156101ec57600080fd5b5061020f60048036038101908080356000191690602001909291905050506125b8565b604051808215151515815260200191505060405180910390f35b61025960048036038101908080356000191690602001909291908035600019169060200190929190505050612b03565b604051808215151515815260200191505060405180910390f35b6000806000806000806000806000806000809054906101000a900473ffffffffffffffffffffffffffffffffffffffff1673ffffffffffffffffffffffffffffffffffffffff16633b7bfda03060405160200180807f70617573650000000000000000000000000000000000000000000000000000008152506005018273ffffffffffffffffffffffffffffffffffffffff1673ffffffffffffffffffffffffffffffffffffffff166c010000000000000000000000000281526014019150506040516020818303038152906040526040518082805190602001908083835b6020831015156103775780518252602082019150602081019050602083039250610352565b6001836020036101000a03801982511681845116808217855250505050505090500191505060405180910390206040518263ffffffff167c0100000000000000000000000000000000000000000000000000000000028152600401808260001916600019168152602001915050602060405180830381600087803b1580156103fe57600080fd5b505af1158015610412573d6000803e3d6000fd5b505050506040513d602081101561042857600080fd5b810190808051906020019092919050505015151561044557600080fd5b60058c8c905010151561045757600080fd5b60009850600097505b8b8b9050881015611066578b8b89818110151561047957fe5b905060200201356000191696506000809054906101000a900473ffffffffffffffffffffffffffffffffffffffff1673ffffffffffffffffffffffffffffffffffffffff1663a855d4ce883360405160200180807f6f776e657273686970556e697473000000000000000000000000000000000000815250600e0183600019166000191681526020018273ffffffffffffffffffffffffffffffffffffffff1673ffffffffffffffffffffffffffffffffffffffff166c01000000000000000000000000028152601401925050506040516020818303038152906040526040518082805190602001908083835b60208310151561058b5780518252602082019150602081019050602083039250610566565b6001836020036101000a03801982511681845116808217855250505050505090500191505060405180910390206040518263ffffffff167c0100000000000000000000000000000000000000000000000000000000028152600401808260001916600019168152602001915050602060405180830381600087803b15801561061257600080fd5b505af1158015610626573d6000803e3d6000fd5b505050506040513d602081101561063c57600080fd5b8101908080519060200190929190505050955060008611151561065e57600080fd5b6000809054906101000a900473ffffffffffffffffffffffffffffffffffffffff1673ffffffffffffffffffffffffffffffffffffffff1663a855d4ce8860405160200180807f616d6f756e745261697365640000000000000000000000000000000000000000815250600c0182600019166000191681526020019150506040516020818303038152906040526040518082805190602001908083835b60208310151561072057805182526020820191506020810190506020830392506106fb565b6001836020036101000a03801982511681845116808217855250505050505090500191505060405180910390206040518263ffffffff167c0100000000000000000000000000000000000000000000000000000000028152600401808260001916600019168152602001915050602060405180830381600087803b1580156107a757600080fd5b505af11580156107bb573d6000803e3d6000fd5b505050506040513d60208110156107d157600080fd5b810190808051906020019092919050505094506000809054906101000a900473ffffffffffffffffffffffffffffffffffffffff1673ffffffffffffffffffffffffffffffffffffffff1663a855d4ce8860405160200180807f746f74616c50616964546f46756e64657273000000000000000000000000000081525060120182600019166000191681526020019150506040516020818303038152906040526040518082805190602001908083835b6020831015156108a65780518252602082019150602081019050602083039250610881565b6001836020036101000a03801982511681845116808217855250505050505090500191505060405180910390206040518263ffffffff167c0100000000000000000000000000000000000000000000000000000000028152600401808260001916600019168152602001915050602060405180830381600087803b15801561092d57600080fd5b505af1158015610941573d6000803e3d6000fd5b505050506040513d602081101561095757600080fd5b810190808051906020019092919050505093506000809054906101000a900473ffffffffffffffffffffffffffffffffffffffff1673ffffffffffffffffffffffffffffffffffffffff1663a855d4ce883360405160200180807f746f74616c50616964546f46756e64657200000000000000000000000000000081525060110183600019166000191681526020018273ffffffffffffffffffffffffffffffffffffffff1673ffffffffffffffffffffffffffffffffffffffff166c01000000000000000000000000028152601401925050506040516020818303038152906040526040518082805190602001908083835b602083101515610a6f5780518252602082019150602081019050602083039250610a4a565b6001836020036101000a03801982511681845116808217855250505050505090500191505060405180910390206040518263ffffffff167c0100000000000000000000000000000000000000000000000000000000028152600401808260001916600019168152602001915050602060405180830381600087803b158015610af657600080fd5b505af1158015610b0a573d6000803e3d6000fd5b505050506040513d6020811015610b2057600080fd5b810190808051906020019092919050505092506000809054906101000a900473ffffffffffffffffffffffffffffffffffffffff1673ffffffffffffffffffffffffffffffffffffffff1663a855d4ce8860405160200180807f6173736574496e636f6d65000000000000000000000000000000000000000000815250600b0182600019166000191681526020019150506040516020818303038152906040526040518082805190602001908083835b602083101515610bf55780518252602082019150602081019050602083039250610bd0565b6001836020036101000a03801982511681845116808217855250505050505090500191505060405180910390206040518263ffffffff167c0100000000000000000000000000000000000000000000000000000000028152600401808260001916600019168152602001915050602060405180830381600087803b158015610c7c57600080fd5b505af1158015610c90573d6000803e3d6000fd5b505050506040513d6020811015610ca657600080fd5b81019080805190602001909291905050509150610cf083610ce287610cd48a876131f890919063ffffffff16565b61323390919063ffffffff16565b61324990919063ffffffff16565b905060008114151515610cff57fe5b818411151515610d0b57fe5b6000809054906101000a900473ffffffffffffffffffffffffffffffffffffffff1673ffffffffffffffffffffffffffffffffffffffff1663e2a4853a883360405160200180807f746f74616c50616964546f46756e64657200000000000000000000000000000081525060110183600019166000191681526020018273ffffffffffffffffffffffffffffffffffffffff1673ffffffffffffffffffffffffffffffffffffffff166c01000000000000000000000000028152601401925050506040516020818303038152906040526040518082805190602001908083835b602083101515610e105780518252602082019150602081019050602083039250610deb565b6001836020036101000a0380198251168184511680821785525050505050509050019150506040518091039020610e50848761326290919063ffffffff16565b6040518363ffffffff167c010000000000000000000000000000000000000000000000000000000002815260040180836000191660001916815260200182815260200192505050600060405180830381600087803b158015610eb157600080fd5b505af1158015610ec5573d6000803e3d6000fd5b505050506000809054906101000a900473ffffffffffffffffffffffffffffffffffffffff1673ffffffffffffffffffffffffffffffffffffffff1663e2a4853a8860405160200180807f746f74616c50616964546f46756e64657273000000000000000000000000000081525060120182600019166000191681526020019150506040516020818303038152906040526040518082805190602001908083835b602083101515610f8b5780518252602082019150602081019050602083039250610f66565b6001836020036101000a0380198251168184511680821785525050505050509050019150506040518091039020610fcb848861326290919063ffffffff16565b6040518363ffffffff167c010000000000000000000000000000000000000000000000000000000002815260040180836000191660001916815260200182815260200192505050600060405180830381600087803b15801561102c57600080fd5b505af1158015611040573d6000803e3d6000fd5b50505050611057818a61326290919063ffffffff16565b98508780600101985050610460565b3373ffffffffffffffffffffffffffffffffffffffff166108fc8a9081150290604051600060405180830381858888f193505050501580156110ac573d6000803e3d6000fd5b507f2e5086ab45200e0c8c24cdf6bedc2d2485bb82b66f97b9b3a282445a1b5c35e3338a604051808373ffffffffffffffffffffffffffffffffffffffff1673ffffffffffffffffffffffffffffffffffffffff1681526020018281526020019250505060405180910390a16001995050505050505050505092915050565b60008060009054906101000a900473ffffffffffffffffffffffffffffffffffffffff1673ffffffffffffffffffffffffffffffffffffffff16633b7bfda03360405160200180807f6f776e65720000000000000000000000000000000000000000000000000000008152506005018273ffffffffffffffffffffffffffffffffffffffff1673ffffffffffffffffffffffffffffffffffffffff166c010000000000000000000000000281526014019150506040516020818303038152906040526040518082805190602001908083835b60208310151561122257805182526020820191506020810190506020830392506111fd565b6001836020036101000a03801982511681845116808217855250505050505090500191505060405180910390206040518263ffffffff167c0100000000000000000000000000000000000000000000000000000000028152600401808260001916600019168152602001915050602060405180830381600087803b1580156112a957600080fd5b505af11580156112bd573d6000803e3d6000fd5b505050506040513d60208110156112d357600080fd5b810190808051906020019092919050505015156112ef57600080fd5b3373ffffffffffffffffffffffffffffffffffffffff168373ffffffffffffffffffffffffffffffffffffffff161415151561132a57600080fd5b308383604051602001808273ffffffffffffffffffffffffffffffffffffffff1673ffffffffffffffffffffffffffffffffffffffff166c010000000000000000000000000281526014019150506040516020818303038152906040526040518082805190602001908083835b6020831015156113bc5780518252602082019150602081019050602083039250611397565b6001836020036101000a0380198251168184511680821785525050505050509050019150506040518091039020604051602001808473ffffffffffffffffffffffffffffffffffffffff1673ffffffffffffffffffffffffffffffffffffffff166c010000000000000000000000000281526014018373ffffffffffffffffffffffffffffffffffffffff1673ffffffffffffffffffffffffffffffffffffffff166c01000000000000000000000000028152601401807f64657374726f7900000000000000000000000000000000000000000000000000815250600701826000191660001916815260200193505050506040516020818303038152906040526040518082805190602001908083835b6020831015156114f157805182526020820191506020810190506020830392506114cc565b6001836020036101000a038019825116818451168082178552505050505050905001915050604051809103902090506000809054906101000a900473ffffffffffffffffffffffffffffffffffffffff1673ffffffffffffffffffffffffffffffffffffffff16633b7bfda0826040518263ffffffff167c0100000000000000000000000000000000000000000000000000000000028152600401808260001916600019168152602001915050602060405180830381600087803b1580156115b857600080fd5b505af11580156115cc573d6000803e3d6000fd5b505050506040513d60208110156115e257600080fd5b810190808051906020019092919050505015156115fe57600080fd5b6000809054906101000a900473ffffffffffffffffffffffffffffffffffffffff1673ffffffffffffffffffffffffffffffffffffffff1663abfdcced8260006040518363ffffffff167c01000000000000000000000000000000000000000000000000000000000281526004018083600019166000191681526020018215151515815260200192505050600060405180830381600087803b1580156116a357600080fd5b505af11580156116b7573d6000803e3d6000fd5b505050503373ffffffffffffffffffffffffffffffffffffffff163073ffffffffffffffffffffffffffffffffffffffff16318373ffffffffffffffffffffffffffffffffffffffff167f8c7ae8776186c2e87b266886e8af282b7fdb52b47993376583987a14656a367860405160405180910390a48173ffffffffffffffffffffffffffffffffffffffff16ff5b6000809054906101000a900473ffffffffffffffffffffffffffffffffffffffff1681565b60008060008060008060008060009054906101000a900473ffffffffffffffffffffffffffffffffffffffff1673ffffffffffffffffffffffffffffffffffffffff16633b7bfda03060405160200180807f70617573650000000000000000000000000000000000000000000000000000008152506005018273ffffffffffffffffffffffffffffffffffffffff1673ffffffffffffffffffffffffffffffffffffffff166c010000000000000000000000000281526014019150506040516020818303038152906040526040518082805190602001908083835b60208310151561186b5780518252602082019150602081019050602083039250611846565b6001836020036101000a03801982511681845116808217855250505050505090500191505060405180910390206040518263ffffffff167c0100000000000000000000000000000000000000000000000000000000028152600401808260001916600019168152602001915050602060405180830381600087803b1580156118f257600080fd5b505af1158015611906573d6000803e3d6000fd5b505050506040513d602081101561191c57600080fd5b810190808051906020019092919050505015151561193957600080fd5b6000809054906101000a900473ffffffffffffffffffffffffffffffffffffffff1673ffffffffffffffffffffffffffffffffffffffff1663a855d4ce893360405160200180807f6f776e657273686970556e697473000000000000000000000000000000000000815250600e0183600019166000191681526020018273ffffffffffffffffffffffffffffffffffffffff1673ffffffffffffffffffffffffffffffffffffffff166c01000000000000000000000000028152601401925050506040516020818303038152906040526040518082805190602001908083835b602083101515611a3e5780518252602082019150602081019050602083039250611a19565b6001836020036101000a03801982511681845116808217855250505050505090500191505060405180910390206040518263ffffffff167c0100000000000000000000000000000000000000000000000000000000028152600401808260001916600019168152602001915050602060405180830381600087803b158015611ac557600080fd5b505af1158015611ad9573d6000803e3d6000fd5b505050506040513d6020811015611aef57600080fd5b81019080805190602001909291905050509550600086111515611b1157600080fd5b6000809054906101000a900473ffffffffffffffffffffffffffffffffffffffff1673ffffffffffffffffffffffffffffffffffffffff1663a855d4ce8960405160200180807f616d6f756e745261697365640000000000000000000000000000000000000000815250600c0182600019166000191681526020019150506040516020818303038152906040526040518082805190602001908083835b602083101515611bd35780518252602082019150602081019050602083039250611bae565b6001836020036101000a03801982511681845116808217855250505050505090500191505060405180910390206040518263ffffffff167c0100000000000000000000000000000000000000000000000000000000028152600401808260001916600019168152602001915050602060405180830381600087803b158015611c5a57600080fd5b505af1158015611c6e573d6000803e3d6000fd5b505050506040513d6020811015611c8457600080fd5b810190808051906020019092919050505094506000809054906101000a900473ffffffffffffffffffffffffffffffffffffffff1673ffffffffffffffffffffffffffffffffffffffff1663a855d4ce8960405160200180807f746f74616c50616964546f46756e64657273000000000000000000000000000081525060120182600019166000191681526020019150506040516020818303038152906040526040518082805190602001908083835b602083101515611d595780518252602082019150602081019050602083039250611d34565b6001836020036101000a03801982511681845116808217855250505050505090500191505060405180910390206040518263ffffffff167c0100000000000000000000000000000000000000000000000000000000028152600401808260001916600019168152602001915050602060405180830381600087803b158015611de057600080fd5b505af1158015611df4573d6000803e3d6000fd5b505050506040513d6020811015611e0a57600080fd5b810190808051906020019092919050505093506000809054906101000a900473ffffffffffffffffffffffffffffffffffffffff1673ffffffffffffffffffffffffffffffffffffffff1663a855d4ce893360405160200180807f746f74616c50616964546f46756e64657200000000000000000000000000000081525060110183600019166000191681526020018273ffffffffffffffffffffffffffffffffffffffff1673ffffffffffffffffffffffffffffffffffffffff166c01000000000000000000000000028152601401925050506040516020818303038152906040526040518082805190602001908083835b602083101515611f225780518252602082019150602081019050602083039250611efd565b6001836020036101000a03801982511681845116808217855250505050505090500191505060405180910390206040518263ffffffff167c0100000000000000000000000000000000000000000000000000000000028152600401808260001916600019168152602001915050602060405180830381600087803b158015611fa957600080fd5b505af1158015611fbd573d6000803e3d6000fd5b505050506040513d6020811015611fd357600080fd5b810190808051906020019092919050505092506000809054906101000a900473ffffffffffffffffffffffffffffffffffffffff1673ffffffffffffffffffffffffffffffffffffffff1663a855d4ce8960405160200180807f6173736574496e636f6d65000000000000000000000000000000000000000000815250600b0182600019166000191681526020019150506040516020818303038152906040526040518082805190602001908083835b6020831015156120a85780518252602082019150602081019050602083039250612083565b6001836020036101000a03801982511681845116808217855250505050505090500191505060405180910390206040518263ffffffff167c0100000000000000000000000000000000000000000000000000000000028152600401808260001916600019168152602001915050602060405180830381600087803b15801561212f57600080fd5b505af1158015612143573d6000803e3d6000fd5b505050506040513d602081101561215957600080fd5b810190808051906020019092919050505091506121a383612195876121878a876131f890919063ffffffff16565b61323390919063ffffffff16565b61324990919063ffffffff16565b9050600081141515156121b257fe5b8184111515156121be57fe5b6000809054906101000a900473ffffffffffffffffffffffffffffffffffffffff1673ffffffffffffffffffffffffffffffffffffffff1663e2a4853a893360405160200180807f746f74616c50616964546f46756e64657200000000000000000000000000000081525060110183600019166000191681526020018273ffffffffffffffffffffffffffffffffffffffff1673ffffffffffffffffffffffffffffffffffffffff166c01000000000000000000000000028152601401925050506040516020818303038152906040526040518082805190602001908083835b6020831015156122c3578051825260208201915060208101905060208303925061229e565b6001836020036101000a0380198251168184511680821785525050505050509050019150506040518091039020612303848761326290919063ffffffff16565b6040518363ffffffff167c010000000000000000000000000000000000000000000000000000000002815260040180836000191660001916815260200182815260200192505050600060405180830381600087803b15801561236457600080fd5b505af1158015612378573d6000803e3d6000fd5b505050506000809054906101000a900473ffffffffffffffffffffffffffffffffffffffff1673ffffffffffffffffffffffffffffffffffffffff1663e2a4853a8960405160200180807f746f74616c50616964546f46756e64657273000000000000000000000000000081525060120182600019166000191681526020019150506040516020818303038152906040526040518082805190602001908083835b60208310151561243e5780518252602082019150602081019050602083039250612419565b6001836020036101000a038019825116818451168082178552505050505050905001915050604051809103902061247e848861326290919063ffffffff16565b6040518363ffffffff167c010000000000000000000000000000000000000000000000000000000002815260040180836000191660001916815260200182815260200192505050600060405180830381600087803b1580156124df57600080fd5b505af11580156124f3573d6000803e3d6000fd5b505050503373ffffffffffffffffffffffffffffffffffffffff166108fc829081150290604051600060405180830381858888f1935050505015801561253d573d6000803e3d6000fd5b507f2e5086ab45200e0c8c24cdf6bedc2d2485bb82b66f97b9b3a282445a1b5c35e33382604051808373ffffffffffffffffffffffffffffffffffffffff1673ffffffffffffffffffffffffffffffffffffffff1681526020018281526020019250505060405180910390a160019650505050505050919050565b600080826004806000809054906101000a900473ffffffffffffffffffffffffffffffffffffffff1673ffffffffffffffffffffffffffffffffffffffff1663a855d4ce8460405160200180807f66756e64696e6753746167650000000000000000000000000000000000000000815250600c0182600019166000191681526020019150506040516020818303038152906040526040518082805190602001908083835b602083101515612681578051825260208201915060208101905060208303925061265c565b6001836020036101000a03801982511681845116808217855250505050505090500191505060405180910390206040518263ffffffff167c0100000000000000000000000000000000000000000000000000000000028152600401808260001916600019168152602001915050602060405180830381600087803b15801561270857600080fd5b505af115801561271c573d6000803e3d6000fd5b505050506040513d602081101561273257600080fd5b810190808051906020019092919050505014151561274f57600080fd5b6000809054906101000a900473ffffffffffffffffffffffffffffffffffffffff1673ffffffffffffffffffffffffffffffffffffffff1663a855d4ce3360405160200180807f6d616e61676572496e636f6d6500000000000000000000000000000000000000815250600d018273ffffffffffffffffffffffffffffffffffffffff1673ffffffffffffffffffffffffffffffffffffffff166c010000000000000000000000000281526014019150506040516020818303038152906040526040518082805190602001908083835b602083101515612844578051825260208201915060208101905060208303925061281f565b6001836020036101000a03801982511681845116808217855250505050505090500191505060405180910390206040518263ffffffff167c0100000000000000000000000000000000000000000000000000000000028152600401808260001916600019168152602001915050602060405180830381600087803b1580156128cb57600080fd5b505af11580156128df573d6000803e3d6000fd5b505050506040513d60208110156128f557600080fd5b8101908080519060200190929190505050925060008311151561291757600080fd5b6000809054906101000a900473ffffffffffffffffffffffffffffffffffffffff1673ffffffffffffffffffffffffffffffffffffffff1663e2a4853a3360405160200180807f6d616e61676572496e636f6d6500000000000000000000000000000000000000815250600d018273ffffffffffffffffffffffffffffffffffffffff1673ffffffffffffffffffffffffffffffffffffffff166c010000000000000000000000000281526014019150506040516020818303038152906040526040518082805190602001908083835b602083101515612a0c57805182526020820191506020810190506020830392506129e7565b6001836020036101000a038019825116818451168082178552505050505050905001915050604051809103902060006040518363ffffffff167c010000000000000000000000000000000000000000000000000000000002815260040180836000191660001916815260200182815260200192505050600060405180830381600087803b158015612a9c57600080fd5b505af1158015612ab0573d6000803e3d6000fd5b505050503373ffffffffffffffffffffffffffffffffffffffff166108fc849081150290604051600060405180830381858888f19350505050158015612afa573d6000803e3d6000fd5b50505050919050565b60008060008034111515612b1657600080fd5b846004806000809054906101000a900473ffffffffffffffffffffffffffffffffffffffff1673ffffffffffffffffffffffffffffffffffffffff1663a855d4ce8460405160200180807f66756e64696e6753746167650000000000000000000000000000000000000000815250600c0182600019166000191681526020019150506040516020818303038152906040526040518082805190602001908083835b602083101515612bdc5780518252602082019150602081019050602083039250612bb7565b6001836020036101000a03801982511681845116808217855250505050505090500191505060405180910390206040518263ffffffff167c0100000000000000000000000000000000000000000000000000000000028152600401808260001916600019168152602001915050602060405180830381600087803b158015612c6357600080fd5b505af1158015612c77573d6000803e3d6000fd5b505050506040513d6020811015612c8d57600080fd5b8101908080519060200190929190505050141515612caa57600080fd5b6000809054906101000a900473ffffffffffffffffffffffffffffffffffffffff1673ffffffffffffffffffffffffffffffffffffffff1663a855d4ce8860405160200180807f6173736574496e636f6d65000000000000000000000000000000000000000000815250600b0182600019166000191681526020019150506040516020818303038152906040526040518082805190602001908083835b602083101515612d6c5780518252602082019150602081019050602083039250612d47565b6001836020036101000a03801982511681845116808217855250505050505090500191505060405180910390206040518263ffffffff167c0100000000000000000000000000000000000000000000000000000000028152600401808260001916600019168152602001915050602060405180830381600087803b158015612df357600080fd5b505af1158015612e07573d6000803e3d6000fd5b505050506040513d6020811015612e1d57600080fd5b81019080805190602001909291905050509350612fc66000809054906101000a900473ffffffffffffffffffffffffffffffffffffffff1673ffffffffffffffffffffffffffffffffffffffff1663a855d4ce8960405160200180807f6d616e6167657250657263656e7461676500000000000000000000000000000081525060110182600019166000191681526020019150506040516020818303038152906040526040518082805190602001908083835b602083101515612ef55780518252602082019150602081019050602083039250612ed0565b6001836020036101000a03801982511681845116808217855250505050505090500191505060405180910390206040518263ffffffff167c0100000000000000000000000000000000000000000000000000000000028152600401808260001916600019168152602001915050602060405180830381600087803b158015612f7c57600080fd5b505af1158015612f90573d6000803e3d6000fd5b505050506040513d6020811015612fa657600080fd5b81019080805190602001909291905050503461328090919063ffffffff16565b9250612fd2878461329e565b1515612fdd57600080fd5b6000809054906101000a900473ffffffffffffffffffffffffffffffffffffffff1673ffffffffffffffffffffffffffffffffffffffff1663e2a4853a8860405160200180807f6173736574496e636f6d65000000000000000000000000000000000000000000815250600b0182600019166000191681526020019150506040516020818303038152906040526040518082805190602001908083835b60208310151561309f578051825260208201915060208101905060208303925061307a565b6001836020036101000a03801982511681845116808217855250505050505090500191505060405180910390206130f16130e2873461324990919063ffffffff16565b8861326290919063ffffffff16565b6040518363ffffffff167c010000000000000000000000000000000000000000000000000000000002815260040180836000191660001916815260200182815260200192505050600060405180830381600087803b15801561315257600080fd5b505af1158015613166573d6000803e3d6000fd5b5050505086600019167f89ece3edc9862380c6910eec7d84d032389a15327dc233e63e444f1df3b32370333489604051808473ffffffffffffffffffffffffffffffffffffffff1673ffffffffffffffffffffffffffffffffffffffff1681526020018381526020018260001916600019168152602001935050505060405180910390a2600194505050505092915050565b600080600084141561320d576000915061322c565b828402905082848281151561321e57fe5b0414151561322857fe5b8091505b5092915050565b6000818381151561324057fe5b04905092915050565b600082821115151561325757fe5b818303905092915050565b600080828401905083811015151561327657fe5b8091505092915050565b600061329661328f84846131f8565b6064613233565b905092915050565b60008060008060008060009054906101000a900473ffffffffffffffffffffffffffffffffffffffff1673ffffffffffffffffffffffffffffffffffffffff166304f49a3a8860405160200180807f61737365745374616b6572000000000000000000000000000000000000000000815250600b0182600019166000191681526020019150506040516020818303038152906040526040518082805190602001908083835b6020831015156133685780518252602082019150602081019050602083039250613343565b6001836020036101000a03801982511681845116808217855250505050505090500191505060405180910390206040518263ffffffff167c0100000000000000000000000000000000000000000000000000000000028152600401808260001916600019168152602001915050602060405180830381600087803b1580156133ef57600080fd5b505af1158015613403573d6000803e3d6000fd5b505050506040513d602081101561341957600080fd5b810190808051906020019092919050505093506000809054906101000a900473ffffffffffffffffffffffffffffffffffffffff1673ffffffffffffffffffffffffffffffffffffffff166304f49a3a8860405160200180807f61737365744d616e616765720000000000000000000000000000000000000000815250600c0182600019166000191681526020019150506040516020818303038152906040526040518082805190602001908083835b6020831015156134ee57805182526020820191506020810190506020830392506134c9565b6001836020036101000a03801982511681845116808217855250505050505090500191505060405180910390206040518263ffffffff167c0100000000000000000000000000000000000000000000000000000000028152600401808260001916600019168152602001915050602060405180830381600087803b15801561357557600080fd5b505af1158015613589573d6000803e3d6000fd5b505050506040513d602081101561359f57600080fd5b81019080805190602001909291905050509250600073ffffffffffffffffffffffffffffffffffffffff168473ffffffffffffffffffffffffffffffffffffffff161415156137ea576000809054906101000a900473ffffffffffffffffffffffffffffffffffffffff1673ffffffffffffffffffffffffffffffffffffffff1663a855d4ce8860405160200180807f7374616b6572496e636f6d65536861726500000000000000000000000000000081525060110182600019166000191681526020019150506040516020818303038152906040526040518082805190602001908083835b6020831015156136aa5780518252602082019150602081019050602083039250613685565b6001836020036101000a03801982511681845116808217855250505050505090500191505060405180910390206040518263ffffffff167c0100000000000000000000000000000000000000000000000000000000028152600401808260001916600019168152602001915050602060405180830381600087803b15801561373157600080fd5b505af1158015613745573d6000803e3d6000fd5b505050506040513d602081101561375b57600080fd5b81019080805190602001909291905050509150613794606461378684896131f890919063ffffffff16565b61323390919063ffffffff16565b90506000811115156137a257fe5b6137ac848261380b565b15156137b457fe5b858110156137e1576137d8836137d3838961324990919063ffffffff16565b61380b565b15156137e057fe5b5b60019450613801565b6137f4838761380b565b15156137fc57fe5b600194505b5050505092915050565b6000806000809054906101000a900473ffffffffffffffffffffffffffffffffffffffff1673ffffffffffffffffffffffffffffffffffffffff1663a855d4ce8560405160200180807f6d616e61676572496e636f6d6500000000000000000000000000000000000000815250600d018273ffffffffffffffffffffffffffffffffffffffff1673ffffffffffffffffffffffffffffffffffffffff166c010000000000000000000000000281526014019150506040516020818303038152906040526040518082805190602001908083835b60208310151561390357805182526020820191506020810190506020830392506138de565b6001836020036101000a03801982511681845116808217855250505050505090500191505060405180910390206040518263ffffffff167c0100000000000000000000000000000000000000000000000000000000028152600401808260001916600019168152602001915050602060405180830381600087803b15801561398a57600080fd5b505af115801561399e573d6000803e3d6000fd5b505050506040513d60208110156139b457600080fd5b810190808051906020019092919050505090506000809054906101000a900473ffffffffffffffffffffffffffffffffffffffff1673ffffffffffffffffffffffffffffffffffffffff1663e2a4853a8560405160200180807f6d616e61676572496e636f6d6500000000000000000000000000000000000000815250600d018273ffffffffffffffffffffffffffffffffffffffff1673ffffffffffffffffffffffffffffffffffffffff166c010000000000000000000000000281526014019150506040516020818303038152906040526040518082805190602001908083835b602083101515613abc5780518252602082019150602081019050602083039250613a97565b6001836020036101000a0380198251168184511680821785525050505050509050019150506040518091039020613afc868561326290919063ffffffff16565b6040518363ffffffff167c010000000000000000000000000000000000000000000000000000000002815260040180836000191660001916815260200182815260200192505050600060405180830381600087803b158015613b5d57600080fd5b505af1158015613b71573d6000803e3d6000fd5b505050506001915050929150505600a165627a7a72305820ef831526ba088a7215ecc78eb3adfad3c5c273820b3963f1f7c2ac13a62b47ec0029",
  "source": "pragma solidity 0.4.24;\nimport './SafeMath.sol';\nimport './Database.sol';\n\n//------------------------------------------------------------------------------------------------------------------\n// Asset contract manages all payments, withdrawls and trading of ownershipUnits for live assets\n// All information about assets are stored in Database.sol.\n//------------------------------------------------------------------------------------------------------------------\ncontract Asset {\nusing SafeMath for uint;\n\n  Database public database;\n\n\n  //------------------------------------------------------------------------------------------------------------------\n  // Constructor\n  // @Param: Address of the database contract\n  //------------------------------------------------------------------------------------------------------------------\n  constructor(address _database)\n  public {\n    database = Database(_database);\n  }\n\n  //------------------------------------------------------------------------------------------------------------------\n  // Revenue produced by the asset will be sent here\n  // Invariants: Requires Eth is sent with transaction | Asset must be \"live\" (stage 4)\n  // @Param: The ID of the asset to send to\n  // @Param: A note that can be left by the payee\n  //------------------------------------------------------------------------------------------------------------------\n  function receiveIncome(bytes32 _assetID, bytes32 _note)\n  external\n  payable\n  requiresEther\n  atStage(_assetID, uint(4))\n  returns (bool)  {\n    uint assetIncome = database.uintStorage(keccak256(abi.encodePacked(\"assetIncome\", _assetID)));\n    uint managerShare = msg.value.getFractionalAmount(database.uintStorage(keccak256(abi.encodePacked(\"managerPercentage\", _assetID))));\n    require(distributeStakingShare(_assetID, managerShare)); \n    database.setUint(keccak256(abi.encodePacked(\"assetIncome\", _assetID)), assetIncome.add(msg.value.sub(managerShare)));\n    emit LogIncomeReceived(_assetID, msg.sender, msg.value, _note);\n    return true;\n  }\n\n  //------------------------------------------------------------------------------------------------------------------\n  // Revenue produced by the asset will be sent here\n  // Invariants: Requires Eth is sent with transaction | Asset must be \"live\" (stage 4)\n  // @Param: The ID of the asset earning income\n  // @Param: The amount of WEI owed to the staker or manager\n  //------------------------------------------------------------------------------------------------------------------\n  function distributeStakingShare(bytes32 _assetID, uint _managerAmount)\n  internal \n  returns (bool) { \n    address staker = database.addressStorage(keccak256(abi.encodePacked(\"assetStaker\", _assetID))); \n    address manager = database.addressStorage(keccak256(abi.encodePacked(\"assetManager\", _assetID))); \n    if (staker != address(0)){ \n      uint stakerShare = database.uintStorage(keccak256(abi.encodePacked(\"stakerIncomeShare\", _assetID))); \n      uint stakerPortion = _managerAmount.mul(stakerShare).div(100); \n      assert (stakerPortion > 0); \n      assert (setManagerIncome(staker, stakerPortion)); \n      if (stakerPortion < _managerAmount){ assert (setManagerIncome(manager, _managerAmount.sub(stakerPortion)));  }\n      return true;  \n    }\n    else { \n      assert (setManagerIncome(manager, _managerAmount)); \n      return true;\n    }\n  }\n\n  //------------------------------------------------------------------------------------------------------------------\n  // Revenue produced by the asset will be sent here\n  // Invariants: Requires Eth is sent with transaction | Asset must be \"live\" (stage 4)\n  // @Param: The ID of the asset earning income\n  // @Param: The amount of WEI owed to the staker or manager\n  //------------------------------------------------------------------------------------------------------------------\n  function setManagerIncome(address _manager, uint _managerAmount)\n  internal \n  returns (bool) { \n      uint managerOwed = database.uintStorage(keccak256(abi.encodePacked(\"managerIncome\", _manager))); \n      database.setUint(keccak256(abi.encodePacked(\"managerIncome\", _manager)), managerOwed.add(_managerAmount)); \n      return true;\n  }\n\n  //------------------------------------------------------------------------------------------------------------------\n  // Revenue produced by the asset will be sent here\n  // @dev: Requires Eth is sent with transaction | Asset must be \"live\" (stage 4)\n  // @param: bytes32: The ID of the asset \n  //------------------------------------------------------------------------------------------------------------------\n  function withdrawManagerIncome(bytes32 _assetID)\n  external\n  atStage(_assetID, uint(4))\n  returns (bool) { \n    uint owed = database.uintStorage(keccak256(abi.encodePacked(\"managerIncome\", msg.sender))); \n    require(owed > 0); \n    database.setUint(keccak256(abi.encodePacked(\"managerIncome\", msg.sender)), 0); \n    msg.sender.transfer(owed); \n  }\n\n  //------------------------------------------------------------------------------------------------------------------\n  // Asset funders can receive their share of the income here\n  // Invariants: Asset must be live. Sender must have ownershipUnits in the asset. There must be income earned.\n  // @Param: The assetID this funder is trying to withdraw from\n  // @Param: Boolean, whether or not the user wants the withdraw to go to an external address\n  //------------------------------------------------------------------------------------------------------------------\n  function withdraw(bytes32 _assetID)\n  external\n  whenNotPaused\n  returns (bool){\n    uint ownershipUnits = database.uintStorage(keccak256(abi.encodePacked(\"ownershipUnits\", _assetID, msg.sender)));\n    require (ownershipUnits > uint(0));\n    uint amountRaised = database.uintStorage(keccak256(abi.encodePacked(\"amountRaised\", _assetID)));\n    uint totalPaidToFunders = database.uintStorage(keccak256(abi.encodePacked(\"totalPaidToFunders\", _assetID)));\n    uint totalPaidToFunder = database.uintStorage(keccak256(abi.encodePacked(\"totalPaidToFunder\", _assetID, msg.sender)));\n    uint assetIncome = database.uintStorage(keccak256(abi.encodePacked(\"assetIncome\", _assetID)));\n    uint payment = (assetIncome.mul(ownershipUnits).div(amountRaised)).sub(totalPaidToFunder);\n    assert (payment != uint(0));\n    assert (totalPaidToFunders <= assetIncome);    // Don't let amount paid to funders exceed amount received\n    database.setUint(keccak256(abi.encodePacked(\"totalPaidToFunder\", _assetID, msg.sender)), totalPaidToFunder.add(payment));\n    database.setUint(keccak256(abi.encodePacked(\"totalPaidToFunders\", _assetID)), totalPaidToFunders.add(payment));\n    msg.sender.transfer(payment);\n    emit LogIncomeWithdrawl(msg.sender, payment);\n    return true;\n  }\n\n  //------------------------------------------------------------------------------------------------------------------\n  // Asset funders can receive their share of the income here\n  // Invariants: Asset must be live. Sender must have ownershipUnits in the asset. There must be income earned.\n  // @Param: The assetID this funder is trying to withdraw from\n  // @Param: Boolean, whether or not the user wants the withdraw to go to an external address\n  //------------------------------------------------------------------------------------------------------------------\n  function batchWithdraw(bytes32[] _assetIDs)\n  external\n  whenNotPaused\n  returns (bool){\n    require(_assetIDs.length < 5); \n    uint payment = 0; \n    for (uint i = 0; i < _assetIDs.length; i++){\n      bytes32 assetID = _assetIDs[i];\n      uint ownershipUnits = database.uintStorage(keccak256(abi.encodePacked(\"ownershipUnits\", assetID, msg.sender)));\n      require (ownershipUnits > uint(0));\n      uint amountRaised = database.uintStorage(keccak256(abi.encodePacked(\"amountRaised\", assetID)));\n      uint totalPaidToFunders = database.uintStorage(keccak256(abi.encodePacked(\"totalPaidToFunders\", assetID)));\n      uint totalPaidToFunder = database.uintStorage(keccak256(abi.encodePacked(\"totalPaidToFunder\", assetID, msg.sender)));\n      uint assetIncome = database.uintStorage(keccak256(abi.encodePacked(\"assetIncome\", assetID)));\n      uint thisPayment = (assetIncome.mul(ownershipUnits).div(amountRaised)).sub(totalPaidToFunder);\n      assert (thisPayment != uint(0));\n      assert (totalPaidToFunders <= assetIncome);    // Don't let amount paid to funders exceed amount received\n      database.setUint(keccak256(abi.encodePacked(\"totalPaidToFunder\", assetID, msg.sender)), totalPaidToFunder.add(thisPayment));\n      database.setUint(keccak256(abi.encodePacked(\"totalPaidToFunders\", assetID)), totalPaidToFunders.add(thisPayment));\n      payment = payment.add(thisPayment); \n    }\n    msg.sender.transfer(payment);\n    emit LogIncomeWithdrawl(msg.sender, payment);\n    return true;\n  }\n\n\n  //------------------------------------------------------------------------------------------------------------------\n  // Must be authorized by 1 of the 3 owners and then can be called by any of the other 2\n  // @Param: The address of the owner who authorized this function to be called in\n  // Invariants: Must be 1 of 3 owners. Cannot be called by same owner who authorized the function to be called.\n  //------------------------------------------------------------------------------------------------------------------\n  function destroy(address _functionInitiator, address _holdingAddress)\n  anyOwner\n  public {\n    require(_functionInitiator != msg.sender);\n    bytes32 functionHash = keccak256(abi.encodePacked(address(this), _functionInitiator, \"destroy\", keccak256(abi.encodePacked(_holdingAddress))));\n    require(database.boolStorage(functionHash));\n    database.setBool(functionHash, false);\n    emit LogDestruction(_holdingAddress, address(this).balance, msg.sender);\n    selfdestruct(_holdingAddress);\n  }\n\n  //------------------------------------------------------------------------------------------------------------------\n  //                                            Modifiers\n  //------------------------------------------------------------------------------------------------------------------\n\n  //------------------------------------------------------------------------------------------------------------------\n  // Checks that the asset is at the proper funding stage\n  //------------------------------------------------------------------------------------------------------------------\n  modifier atStage(bytes32 _assetID, uint _stage) {\n    require(database.uintStorage(keccak256(abi.encodePacked(\"fundingStage\", _assetID))) == _stage);\n    _;\n  }\n\n  //------------------------------------------------------------------------------------------------------------------\n  // Checks that the user has reached a high enough access level\n  //------------------------------------------------------------------------------------------------------------------\n  modifier onlyApproved(uint8 _accessLevel) {\n    require(database.uintStorage(keccak256(abi.encodePacked(\"userAccess\", msg.sender))) >= _accessLevel);\n    require(database.uintStorage(keccak256(abi.encodePacked(\"userAccessExpiration\", msg.sender))) > now);\n    _;\n  }\n\n  //------------------------------------------------------------------------------------------------------------------\n  // Makes sure function won't run when contract has been paused\n  //------------------------------------------------------------------------------------------------------------------\n  modifier whenNotPaused {\n    require(!database.boolStorage(keccak256(abi.encodePacked(\"pause\", this))));\n    _;\n  }\n\n  //------------------------------------------------------------------------------------------------------------------\n  // Throw if Ether hasn't been sent\n  //------------------------------------------------------------------------------------------------------------------\n  modifier requiresEther() {\n    require(msg.value > 0);\n    _;\n  }\n\n  //------------------------------------------------------------------------------------------------------------------\n  // Verify that the sender is a registered owner\n  //------------------------------------------------------------------------------------------------------------------\n  modifier anyOwner {\n    require(database.boolStorage(keccak256(abi.encodePacked(\"owner\", msg.sender))));\n    _;\n  }\n\n  //------------------------------------------------------------------------------------------------------------------\n  // Fallback\n  //------------------------------------------------------------------------------------------------------------------\n  function ()\n  public {\n    revert();\n  }\n\n  //------------------------------------------------------------------------------------------------------------------\n  //------------------------------------------------------------------------------------------------------------------\n  //                                     Events\n  //------------------------------------------------------------------------------------------------------------------\n  //------------------------------------------------------------------------------------------------------------------\n\n  event LogDestruction(address indexed _locationSent, uint indexed _amountSent, address indexed _caller);\n  event LogIncomeReceived(bytes32 indexed _assetID, address _sender, uint  _amount, bytes32 _note);\n  event LogIncomeWithdrawl(address _funder, uint _amount);\n}\n",
  "sourcePath": "/home/peter/Documents/Work/MyBit/MyBit-Network.tech/contracts/alphacontracts/contracts/Asset.sol",
  "compiler": {
    "name": "solc",
    "version": "0.4.24+commit.e67f0147.Emscripten.clang"
  },
  "schemaVersion": "2.0.1",
  "updatedAt": "2018-09-08T14:16:35.154Z"
}