{
  "contractName": "AssetGenerator",
  "abi": [
    {
      "inputs": [
        {
          "name": "_database",
          "type": "address"
        },
        {
          "name": "_events",
          "type": "address"
        }
      ],
      "payable": false,
      "stateMutability": "nonpayable",
      "type": "constructor"
    },
    {
      "constant": false,
      "inputs": [
        {
          "name": "_tokenURI",
          "type": "string"
        },
        {
          "name": "_assetManager",
          "type": "address"
        },
        {
          "name": "_tokenHolders",
          "type": "address[]"
        },
        {
          "name": "_amount",
          "type": "uint256[]"
        }
      ],
      "name": "createAsset",
      "outputs": [
        {
          "name": "",
          "type": "bool"
        }
      ],
      "payable": false,
      "stateMutability": "nonpayable",
      "type": "function"
    },
    {
      "constant": false,
      "inputs": [
        {
          "name": "_tokenURI",
          "type": "string"
        },
        {
          "name": "_assetManager",
          "type": "address"
        },
        {
          "name": "_tokenHolders",
          "type": "address[]"
        },
        {
          "name": "_amount",
          "type": "uint256[]"
        }
      ],
      "name": "createTradeableAsset",
      "outputs": [
        {
          "name": "",
          "type": "bool"
        }
      ],
      "payable": false,
      "stateMutability": "nonpayable",
      "type": "function"
    },
    {
      "constant": false,
      "inputs": [],
      "name": "destroy",
      "outputs": [],
      "payable": false,
      "stateMutability": "nonpayable",
      "type": "function"
    }
  ],
  "bytecode": "0x608060405234801561001057600080fd5b50604051604080612f7883398101604052805160209091015160008054600160a060020a03938416600160a060020a03199182161790915560018054939092169216919091179055612f11806100676000396000f30060806040526004361061003d5763ffffffff60e060020a6000350416630e1caef4811461004257806383197ef01461009b578063d10ab469146100b2575b600080fd5b34801561004e57600080fd5b50610087602460048035828101929082013591600160a060020a03823516916044358082019290810135916064359081019101356100f7565b604080519115158252519081900360200190f35b3480156100a757600080fd5b506100b0610670565b005b3480156100be57600080fd5b50610087602460048035828101929082013591600160a060020a03823516916044358082019290810135916064359081019101356108ca565b6000808033600160a060020a038916148061026f575060008054604080517f617070726f76616c000000000000000000000000000000000000000000000000602080830191909152600160a060020a038d81166c010000000000000000000000009081026028850152338102603c8501523002605084015294357bffffffffffffffffffffffffffffffffffffffffffffffffffffffff191660648301528251808303604801815260689092019283905281519490931693633b7bfda0939192918291908401908083835b602083106101e15780518252601f1990920191602091820191016101c2565b51815160209384036101000a60001901801990921691161790526040805192909401829003822063ffffffff881660e060020a0283526004830152925160248083019650939450929083900301905081600087803b15801561024257600080fd5b505af1158015610256573d6000803e3d6000fd5b505050506040513d602081101561026c57600080fd5b50515b151561027a57600080fd5b858414801561028a575060648611155b151561029557600080fd5b89893060006102a2610d12565b600160a060020a03808416602083015282166040820152606080825281018490528060808101868680828437820191505095505050505050604051809103906000f0801580156102f6573d6000803e3d6000fd5b509150600090505b60ff81168611156103d557600160a060020a0382166340c10f19888860ff851681811061032757fe5b90506020020135600160a060020a031687878560ff16818110151561034857fe5b905060200201356040518363ffffffff1660e060020a0281526004018083600160a060020a0316600160a060020a0316815260200182815260200192505050602060405180830381600087803b1580156103a157600080fd5b505af11580156103b5573d6000803e3d6000fd5b505050506040513d60208110156103cb57600080fd5b50506001016102fe565b81600160a060020a0316637d64bcb46040518163ffffffff1660e060020a028152600401602060405180830381600087803b15801561041357600080fd5b505af1158015610427573d6000803e3d6000fd5b505050506040513d602081101561043d57600080fd5b5050600054604080517f61737365742e6d616e6167657200000000000000000000000000000000000000602080830191909152600160a060020a038681166c0100000000000000000000000002602d84015283518084036021018152604190930193849052825194169363ca446dd993918291908401908083835b602083106104d75780518252601f1990920191602091820191016104b8565b5181516020939093036101000a60001901801990911692169190911790526040805191909301819003812063ffffffff871660e060020a0282526004820152600160a060020a038f166024820152915160448084019550600094509092839003019050818387803b15801561054b57600080fd5b505af115801561055f573d6000803e3d6000fd5b50505050600160009054906101000a9004600160a060020a0316600160a060020a03166378576a918b8b858c6040518563ffffffff1660e060020a02815260040180806020018060200185600160a060020a0316600160a060020a0316815260200184600160a060020a0316600160a060020a031681526020018381038352600d8152602001807f4173736574206372656174656400000000000000000000000000000000000000815250602001838103825287878281815260200192508082843782019150509650505050505050600060405180830381600087803b15801561064857600080fd5b505af115801561065c573d6000803e3d6000fd5b5060019d9c50505050505050505050505050565b600054604080517f6f776e65720000000000000000000000000000000000000000000000000000006020808301919091526c0100000000000000000000000033026025830152825160198184030181526039909201928390528151600160a060020a0390941693633b7bfda093918291908401908083835b602083106107075780518252601f1990920191602091820191016106e8565b51815160209384036101000a60001901801990921691161790526040805192909401829003822063ffffffff881660e060020a0283526004830152925160248083019650939450929083900301905081600087803b15801561076857600080fd5b505af115801561077c573d6000803e3d6000fd5b505050506040513d602081101561079257600080fd5b5051151561080157604080517f08c379a000000000000000000000000000000000000000000000000000000000815260206004820152600960248201527f4e6f74206f776e65720000000000000000000000000000000000000000000000604482015290519081900360640190fd5b600154604080517f42b425aa000000000000000000000000000000000000000000000000000000008152306024820181905233604483015231606482015260006084820181905260a06004830152601860a48301527f417373657447656e657261746f722064657374726f796564000000000000000060c48301529151600160a060020a03909316926342b425aa9260e48084019391929182900301818387803b1580156108ae57600080fd5b505af11580156108c2573d6000803e3d6000fd5b503392505050ff5b60008033600160a060020a0388161480610a41575060008054604080517f617070726f76616c000000000000000000000000000000000000000000000000602080830191909152600160a060020a038c81166c010000000000000000000000009081026028850152338102603c8501523002605084015294357bffffffffffffffffffffffffffffffffffffffffffffffffffffffff191660648301528251808303604801815260689092019283905281519490931693633b7bfda0939192918291908401908083835b602083106109b35780518252601f199092019160209182019101610994565b51815160209384036101000a60001901801990921691161790526040805192909401829003822063ffffffff881660e060020a0283526004830152925160248083019650939450929083900301905081600087803b158015610a1457600080fd5b505af1158015610a28573d6000803e3d6000fd5b505050506040513d6020811015610a3e57600080fd5b50515b1515610a4c57600080fd5b8483148015610a5c575060648511155b1515610a6757600080fd5b888887878787610a75610d22565b60608082528101869052806020810160408201608083018a8a808284379091018581038452888152602090810191508990890280828437909101858103835286815260209081019150879087028082843782019150509950505050505050505050604051809103906000f080158015610af2573d6000803e3d6000fd5b50600054604080517f61737365742e6d616e6167657200000000000000000000000000000000000000602080830191909152600160a060020a038581166c0100000000000000000000000002602d8401528351808403602101815260419093019384905282519596509093169363ca446dd9939192918291908401908083835b60208310610b915780518252601f199092019160209182019101610b72565b5181516020939093036101000a60001901801990911692169190911790526040805191909301819003812063ffffffff871660e060020a0282526004820152600160a060020a038e166024820152915160448084019550600094509092839003019050818387803b158015610c0557600080fd5b505af1158015610c19573d6000803e3d6000fd5b50506001546040517f78576a91000000000000000000000000000000000000000000000000000000008152600160a060020a0385811660448301528b81166064830152608060048301908152600d60848401527f417373657420637265617465640000000000000000000000000000000000000060a484015260c06024840190815260c484018f90529190931694506378576a9193508d928d9287928e929182919060e40187878082843782019150509650505050505050600060405180830381600087803b158015610ceb57600080fd5b505af1158015610cff573d6000803e3d6000fd5b5060019c9b505050505050505050505050565b6040516118dc80610d3383390190565b6040516108d78061260f83390190560060806040523480156200001157600080fd5b50604051620018dc380380620018dc83398101604090815281516020808401519284015191909301805190938491829160129186916200005791600391860190620000d6565b5082516200006d906004906020860190620000d6565b506005805460006002556201000060b060020a03191662010000600160a060020a03938416021760ff191660ff93909316929092179091558316159150620000cd90505760068054600160a060020a031916600160a060020a0383161790555b5050506200017b565b828054600181600116156101000203166002900490600052602060002090601f016020900481019282601f106200011957805160ff191683800117855562000149565b8280016001018555821562000149579182015b82811115620001495782518255916020019190600101906200012c565b50620001579291506200015b565b5090565b6200017891905b8082111562000157576000815560010162000162565b90565b611751806200018b6000396000f30060806040526004361061015e5763ffffffff7c010000000000000000000000000000000000000000000000000000000060003504166305d2035b811461020957806306fdde0314610232578063095ea7b3146102bc57806318160ddd146102e057806323b872dd146103075780632ba1b3a1146103315780632da208e51461034657806330d0e75f1461035b578063313ce567146103725780633bdfa9201461039d5780633ccfd60b146103be57806340c10f19146103d35780634ece90a8146103f757806352ff7fa914610428578063661884631461043357806370a0823114610457578063785e9e86146104785780637d64bcb41461048d57806395d89b41146104a2578063a8fa8e52146104b7578063a9059cbb146104cc578063b5a83d43146104f0578063cae9ca5114610511578063d4a191161461057a578063d73dd6231461058f578063dd62ed3e146105b3578063efcb5dea146105da575b600654600160a060020a03161561017457600080fd5b600854610187903463ffffffff6105fb16565b6008556002546101ce906101bf906101b3346d04ee2d6d415b85acef810000000063ffffffff61061516565b9063ffffffff61064016565b6007549063ffffffff6105fb16565b60075560408051348152905133917fe3166012cb87b3dec8e117fe0e096a47387f94ea2ec12086ed8ae24ff8c237fe919081900360200190a2005b34801561021557600080fd5b5061021e610655565b604080519115158252519081900360200190f35b34801561023e57600080fd5b50610247610663565b6040805160208082528351818301528351919283929083019185019080838360005b83811015610281578181015183820152602001610269565b50505050905090810190601f1680156102ae5780820380516001836020036101000a031916815260200191505b509250505060405180910390f35b3480156102c857600080fd5b5061021e600160a060020a03600435166024356106f1565b3480156102ec57600080fd5b506102f5610745565b60408051918252519081900360200190f35b34801561031357600080fd5b5061021e600160a060020a036004358116906024351660443561074b565b34801561033d57600080fd5b506102f561080c565b34801561035257600080fd5b506102f5610812565b34801561036757600080fd5b50610370610818565b005b34801561037e57600080fd5b5061038761097d565b6040805160ff9092168252519081900360200190f35b3480156103a957600080fd5b506102f5600160a060020a0360043516610986565b3480156103ca57600080fd5b5061021e6109d2565b3480156103df57600080fd5b5061021e600160a060020a0360043516602435610b86565b34801561040357600080fd5b5061040c610c95565b60408051600160a060020a039092168252519081900360200190f35b61021e600435610ca4565b34801561043f57600080fd5b5061021e600160a060020a0360043516602435610ece565b34801561046357600080fd5b506102f5600160a060020a0360043516610fab565b34801561048457600080fd5b5061040c610fc6565b34801561049957600080fd5b5061021e610fd5565b3480156104ae57600080fd5b50610247611020565b3480156104c357600080fd5b506102f561107b565b3480156104d857600080fd5b5061021e600160a060020a0360043516602435611081565b3480156104fc57600080fd5b506102f5600160a060020a036004351661111b565b34801561051d57600080fd5b50604080516020600460443581810135601f810184900484028501840190955284845261021e948235600160a060020a031694602480359536959460649492019190819084018382808284375094975061112d9650505050505050565b34801561058657600080fd5b506102476112e3565b34801561059b57600080fd5b5061021e600160a060020a0360043516602435611379565b3480156105bf57600080fd5b506102f5600160a060020a0360043581169060243516611400565b3480156105e657600080fd5b506102f5600160a060020a036004351661142b565b60008282018381101561060a57fe5b8091505b5092915050565b600080831515610628576000915061060e565b5082820282848281151561063857fe5b041461060a57fe5b6000818381151561064d57fe5b049392505050565b600554610100900460ff1681565b6003805460408051602060026001851615610100026000190190941693909304601f810184900484028201840190925281815292918301828280156106e95780601f106106be576101008083540402835291602001916106e9565b820191906000526020600020905b8154815290600101906020018083116106cc57829003601f168201915b505050505081565b336000818152600160209081526040808320600160a060020a03871680855290835281842086905581518681529151939490939092600080516020611706833981519152928290030190a350600192915050565b60025490565b60008361077f61075a8261143d565b600160a060020a0383166000908152600a60205260409020549063ffffffff6105fb16565b600160a060020a0382166000908152600a6020908152604080832093909355600754600b90915291902055836107b761075a8261143d565b600160a060020a038083166000908152600a6020908152604080832094909455600754600b9091529290209190915585163014156107f457600080fd5b6107ff86868661149f565b5060019695505050505050565b60085481565b60095481565b600080600061083460095460085461161490919063ffffffff16565b600654909350600160a060020a0316151561085257303191506108e7565b600654604080517f70a082310000000000000000000000000000000000000000000000000000000081523060048201529051600160a060020a03909216916370a08231916024808201926020929091908290030181600087803b1580156108b857600080fd5b505af11580156108cc573d6000803e3d6000fd5b505050506040513d60208110156108e257600080fd5b505191505b6108f7828463ffffffff61161416565b905060008111156109455760025461092b906101bf906101b3846d04ee2d6d415b85acef810000000063ffffffff61061516565b600755600854610941908263ffffffff6105fb16565b6008555b6040805182815290517f0d7ab7150531466ac81cc2479d86788246bab0e9cc606a06ec6af5c8ab0d6f8e9181900360200190a1505050565b60055460ff1690565b600160a060020a0381166000908152600a60205260408120546109cc906d04ee2d6d415b85acef8100000000906101b3906109c08661143d565b9063ffffffff6105fb16565b92915050565b600080336109e261075a8261143d565b600160a060020a0382166000908152600a6020818152604080842094909455600754600b825284842055338352522054610a30906d04ee2d6d415b85acef810000000063ffffffff61064016565b336000908152600a6020526040812055600954909250610a56908363ffffffff6105fb16565b600955600654600160a060020a03161515610a9e57604051339083156108fc029084906000818181858888f19350505050158015610a98573d6000803e3d6000fd5b50610b42565b600654604080517fa9059cbb000000000000000000000000000000000000000000000000000000008152336004820152602481018590529051600160a060020a039092169163a9059cbb916044808201926020929091908290030181600087803b158015610b0b57600080fd5b505af1158015610b1f573d6000803e3d6000fd5b505050506040513d6020811015610b3557600080fd5b50511515610b4257600080fd5b604080513381526020810184905281517ff5b510c554f6c572235f7e531ec8f287b350b15c212250b993180473a6aeb7d1929181900390910190a160019250505090565b600554600090610100900460ff16158015610bb15750600554620100009004600160a060020a031633145b1515610bbc57600080fd5b600254610bcf908363ffffffff6105fb16565b600255600160a060020a038316600090815260208190526040902054610bfb908363ffffffff6105fb16565b600160a060020a03841660008181526020818152604091829020939093558051858152905191927f0f6798a560793a54c3bcfe86a93cde1e73087d944c0ea20544137d412139688592918290030190a2604080518381529051600160a060020a038516916000917fddf252ad1be2c89b69c2b068fc378daa952ba7f163c4a11628f55a4df523b3ef9181900360200190a350600192915050565b600654600160a060020a031690565b6000808211610d1457604080517f08c379a000000000000000000000000000000000000000000000000000000000815260206004820152601060248201527f43616e6e6f742073656e64207a65726f00000000000000000000000000000000604482015290519081900360640190fd5b600654600160a060020a03161515610d3757348214610d3257600080fd5b610e4e565b3415610d4257600080fd5b600654604080517f23b872dd000000000000000000000000000000000000000000000000000000008152336004820152306024820152604481018590529051600160a060020a03909216916323b872dd916064808201926020929091908290030181600087803b158015610db557600080fd5b505af1158015610dc9573d6000803e3d6000fd5b505050506040513d6020811015610ddf57600080fd5b50511515610e4e57604080517f08c379a000000000000000000000000000000000000000000000000000000000815260206004820152600f60248201527f5472616e73666572206661696c65640000000000000000000000000000000000604482015290519081900360640190fd5b600854610e61908363ffffffff6105fb16565b600855600254610e8d906101bf906101b3856d04ee2d6d415b85acef810000000063ffffffff61061516565b60075560408051838152905133917fe3166012cb87b3dec8e117fe0e096a47387f94ea2ec12086ed8ae24ff8c237fe919081900360200190a2506001919050565b336000908152600160209081526040808320600160a060020a0386168452909152812054808310610f2257336000908152600160209081526040808320600160a060020a0388168452909152812055610f57565b610f32818463ffffffff61161416565b336000908152600160209081526040808320600160a060020a03891684529091529020555b336000818152600160209081526040808320600160a060020a038916808552908352928190205481519081529051929392600080516020611706833981519152929181900390910190a35060019392505050565b600160a060020a031660009081526020819052604090205490565b600654600160a060020a031681565b600554600090610100900460ff161580156110005750600554620100009004600160a060020a031633145b151561100b57600080fd5b506005805461ff001916610100179055600190565b6004805460408051602060026001851615610100026000190190941693909304601f810184900484028201840190925281815292918301828280156106e95780601f106106be576101008083540402835291602001916106e9565b60075481565b60003361109061075a8261143d565b600160a060020a0382166000908152600a6020908152604080832093909355600754600b90915291902055836110c861075a8261143d565b600160a060020a038083166000908152600a6020908152604080832094909455600754600b90915292902091909155851630141561110557600080fd5b61110f8585611626565b50600195945050505050565b600a6020526000908152604090205481565b60003361113c61075a8261143d565b600160a060020a0382166000908152600a6020908152604080832093909355600754600b909152919020558461117461075a8261143d565b600160a060020a038083166000908152600a6020908152604080832094909455600754600b8252848320553380835260018252848320938b168084529382529184902089905583518981529351929391926000805160206117068339815191529281900390910190a36040517f8f4ffcb10000000000000000000000000000000000000000000000000000000081523360048201818152602483018890523060448401819052608060648501908152885160848601528851600160a060020a038c1695638f4ffcb195948c94938c939192909160a490910190602085019080838360005b83811015611270578181015183820152602001611258565b50505050905090810190601f16801561129d5780820380516001836020036101000a031916815260200191505b5095505050505050600060405180830381600087803b1580156112bf57600080fd5b505af11580156112d3573d6000803e3d6000fd5b5060019998505050505050505050565b60038054604080516020601f600260001961010060018816150201909516949094049384018190048102820181019092528281526060939092909183018282801561136f5780601f106113445761010080835404028352916020019161136f565b820191906000526020600020905b81548152906001019060200180831161135257829003601f168201915b5050505050905090565b336000908152600160209081526040808320600160a060020a03861684529091528120546113ad908363ffffffff6105fb16565b336000818152600160209081526040808320600160a060020a038916808552908352928190208590558051948552519193600080516020611706833981519152929081900390910190a350600192915050565b600160a060020a03918216600090815260016020908152604080832093909416825291909152205490565b600b6020526000908152604090205481565b600160a060020a0381166000908152600b6020526040812054600754829161146b919063ffffffff61161416565b600160a060020a03841660009081526020819052604090205490915061149890829063ffffffff61061516565b9392505050565b600160a060020a0383166000908152602081905260408120548211156114c457600080fd5b600160a060020a03841660009081526001602090815260408083203384529091529020548211156114f457600080fd5b600160a060020a038316151561150957600080fd5b600160a060020a038416600090815260208190526040902054611532908363ffffffff61161416565b600160a060020a038086166000908152602081905260408082209390935590851681522054611567908363ffffffff6105fb16565b600160a060020a038085166000908152602081815260408083209490945591871681526001825282812033825290915220546115a9908363ffffffff61161416565b600160a060020a03808616600081815260016020908152604080832033845282529182902094909455805186815290519287169391927fddf252ad1be2c89b69c2b068fc378daa952ba7f163c4a11628f55a4df523b3ef929181900390910190a35060019392505050565b60008282111561162057fe5b50900390565b3360009081526020819052604081205482111561164257600080fd5b600160a060020a038316151561165757600080fd5b33600090815260208190526040902054611677908363ffffffff61161416565b3360009081526020819052604080822092909255600160a060020a038516815220546116a9908363ffffffff6105fb16565b600160a060020a038416600081815260208181526040918290209390935580518581529051919233927fddf252ad1be2c89b69c2b068fc378daa952ba7f163c4a11628f55a4df523b3ef9281900390910190a35060019291505056008c5be1e5ebec7d5bd14f71427d1e84f3dd0314c0f7b2291e5b200ac8c7c3b925a165627a7a72305820edd1b0fc042d3a2dbc384ed1a94bfdb37168a8042a11e83c44e1ebdbcb26778a0029608060405234801561001057600080fd5b506040516108d73803806108d7833981016040908152815160208301519183015191830180519184019390920190600090819060c8118015610053575082518451145b151561005e57600080fd5b8451610071906002906020880190610183565b50600090505b83518160ff161015610160576100b5838260ff1681518110151561009757fe5b60209081029091010151839064010000000061034d61016d82021704565b9150610120838260ff168151811015156100cb57fe5b9060200190602002015160016000878560ff168151811015156100ea57fe5b6020908102909101810151600160a060020a03168252810191909152604001600020549064010000000061034d61016d82021704565b60016000868460ff1681518110151561013557fe5b6020908102909101810151600160a060020a0316825281019190915260400160002055600101610077565b506000555061021e915050565b60008282018381101561017c57fe5b9392505050565b828054600181600116156101000203166002900490600052602060002090601f016020900481019282601f106101c457805160ff19168380011785556101f1565b828001600101855582156101f1579182015b828111156101f15782518255916020019190600101906101d6565b506101fd929150610201565b5090565b61021b91905b808211156101fd5760008155600101610207565b90565b6106aa8061022d6000396000f3006080604052600436106100b95763ffffffff7c0100000000000000000000000000000000000000000000000000000000600035041663047fc9aa811461014e57806318160ddd146101755780632ba1b3a11461018a5780633c130d901461019f5780633ccfd60b1461022957806370a082311461023e578063a8fa8e521461025f578063b815239514610274578063eba74e5c14610295578063ec8593be1461029f578063efcb5dea146102c0578063f1c5d6c2146102e1575b6000546100fd906100ee906100e2346d04ee2d6d415b85acef810000000063ffffffff61030216565b9063ffffffff61033816565b6004549063ffffffff61034d16565b600455600354610113903463ffffffff61034d16565b60035560408051348152905133917fe3166012cb87b3dec8e117fe0e096a47387f94ea2ec12086ed8ae24ff8c237fe919081900360200190a2005b34801561015a57600080fd5b5061016361035c565b60408051918252519081900360200190f35b34801561018157600080fd5b50610163610362565b34801561019657600080fd5b50610163610368565b3480156101ab57600080fd5b506101b461036e565b6040805160208082528351818301528351919283929083019185019080838360005b838110156101ee5781810151838201526020016101d6565b50505050905090810190601f16801561021b5780820380516001836020036101000a031916815260200191505b509250505060405180910390f35b34801561023557600080fd5b506101636103f9565b34801561024a57600080fd5b50610163600160a060020a03600435166104ff565b34801561026b57600080fd5b5061016361051a565b34801561028057600080fd5b50610163600160a060020a0360043516610520565b61029d61056c565b005b3480156102ab57600080fd5b50610163600160a060020a03600435166105e6565b3480156102cc57600080fd5b50610163600160a060020a03600435166105f8565b3480156102ed57600080fd5b50610163600160a060020a036004351661060a565b6000808315156103155760009150610331565b5082820282848281151561032557fe5b041461032d57fe5b8091505b5092915050565b6000818381151561034557fe5b049392505050565b60008282018381101561032d57fe5b60005481565b60005490565b60035481565b6002805460408051602060018416156101000260001901909316849004601f810184900484028201840190925281815292918301828280156103f15780601f106103c6576101008083540402835291602001916103f1565b820191906000526020600020905b8154815290600101906020018083116103d457829003601f168201915b505050505081565b60003361042d6104088261060a565b600160a060020a0383166000908152600560205260409020549063ffffffff61034d16565b600160a060020a038216600090815260056020818152604080842094909455600454600682528484205533835252205461047b906d04ee2d6d415b85acef810000000063ffffffff61033816565b3360008181526005602052604080822082905551929450909184156108fc0291859190818181858888f193505050501580156104bb573d6000803e3d6000fd5b506040805142815233602082015280820184905290517f10db2ba5699bf5dbd1070a0c0b207f229dc1ecb78bbe555b84cab3db9576ac429181900360600190a15090565b600160a060020a031660009081526001602052604090205490565b60045481565b600160a060020a038116600090815260056020526040812054610566906d04ee2d6d415b85acef8100000000906100e29061055a8661060a565b9063ffffffff61034d16565b92915050565b600054610595906100ee906100e2346d04ee2d6d415b85acef810000000063ffffffff61030216565b6004556003546105ab903463ffffffff61034d16565b60035560408051348152905133917fe3166012cb87b3dec8e117fe0e096a47387f94ea2ec12086ed8ae24ff8c237fe919081900360200190a2565b60056020526000908152604090205481565b60066020526000908152604090205481565b600160a060020a0381166000908152600660205260408120546004548291610638919063ffffffff61066c16565b600160a060020a03841660009081526001602052604090205490915061066590829063ffffffff61030216565b9392505050565b60008282111561067857fe5b509003905600a165627a7a723058209dcc5453cdafbb5bb930e6a23a25a207afe66d7a47eaf016dc73b626ba0045fa0029a165627a7a72305820038570be8aaee76588562e3847f63cbe273e353b02872306c05c10b3c590a23a0029",
  "source": "pragma solidity ^0.4.24;\n\nimport \"../math/SafeMath.sol\";\nimport \"../interfaces/DBInterface.sol\";\nimport '../database/Events.sol';\n// import \"../access/ERC20Burner.sol\";\nimport \"../tokens/erc20/DividendToken.sol\";\nimport \"../tokens/distribution/FixedDistribution.sol\";\n\n// @title An asset generator contract for onboarding existing real-world assets\n// @notice This contract creates ERC20 dividend tokens and give sthem to the _tokenHolders provided\n// @author Kyle Dewhurst, MyBit Foundation\ncontract AssetGenerator {\n  using SafeMath for uint256;\n\n  DBInterface private database;\n  Events private events;\n\n\n  // @notice This contract\n  // @param: The address for the database contract used by this platform\n  constructor(address _database, address _events)\n  public{\n      database = DBInterface(_database);\n      events = Events(_events);\n  }\n\n\n  // @notice users can on-board non-tradeable assets here\n  // @dev creates an ERC20 dividend token (tradeable) or distribution token (not-tradeable)\n  function createAsset(string _tokenURI, address _assetManager, address[] _tokenHolders, uint[] _amount)\n  external\n  // burnRequired\n  returns (bool) {\n    require(msg.sender == _assetManager || database.boolStorage(keccak256(abi.encodePacked(\"approval\", _assetManager, msg.sender, address(this), msg.sig))));\n    require (_tokenHolders.length == _amount.length && _tokenHolders.length <= 100);\n    FixedDistribution assetInstance = new FixedDistribution(_tokenURI, _tokenHolders, _amount);\n    database.setAddress(keccak256(abi.encodePacked(\"asset.manager\", address(assetInstance))), _assetManager);\n    events.asset('Asset created', _tokenURI, address(assetInstance), _assetManager);\n    return true;\n  }\n\n  // @notice users can on-board tradeable assets here\n  // @dev creates an ERC20 dividend token (tradeable) or\n  function createTradeableAsset(string _tokenURI, address _assetManager, address[] _tokenHolders, uint[] _amount)\n  external\n  // burnRequired\n  returns (bool) {\n    require(msg.sender == _assetManager || database.boolStorage(keccak256(abi.encodePacked(\"approval\", _assetManager, msg.sender, address(this), msg.sig))));\n    require (_tokenHolders.length == _amount.length && _tokenHolders.length <= uint8(100));\n    DividendToken assetInstance = new DividendToken(_tokenURI, address(this), address(0));   // Gives this contract all new asset tokens\n    for (uint8 i = 0; i < _tokenHolders.length; i++) {\n      assetInstance.mint(_tokenHolders[i], _amount[i]);\n    }\n    assetInstance.finishMinting();\n    database.setAddress(keccak256(abi.encodePacked(\"asset.manager\", address(assetInstance))), _assetManager);\n    events.asset('Asset created', _tokenURI, address(assetInstance), _assetManager);\n    return true;\n  }\n\n  // @notice platform owners can destroy contract here\n  function destroy()\n  onlyOwner\n  external {\n    events.transaction('AssetGenerator destroyed', address(this), msg.sender, address(this).balance, address(0));\n    selfdestruct(msg.sender);\n  }\n\n  // @notice reverts if user hasn't approved burner to burn platform token\n  // modifier burnRequired {\n  //   ERC20Burner burner = ERC20Burner(database.addressStorage(keccak256(abi.encodePacked(\"contract\", \"ERC20Burner\"))));\n  //   require(burner.burn(msg.sender, database.uintStorage(keccak256(abi.encodePacked(msg.sig, address(this))))));\n  //   _;\n  // }\n\n  // @notice Sender must be a registered owner\n  modifier onlyOwner {\n    require(database.boolStorage(keccak256(abi.encodePacked(\"owner\", msg.sender))), \"Not owner\");\n    _;\n  }\n\n\n  //event LogAssetCreated(bytes32 indexed _assetAddress, address indexed _tokenAddress, address indexed _assetManager, string _tokenURI);\n  //event LogTradeableAssetCreated(bytes32 indexed _assetAddress, address indexed _tokenAddress, address indexed _assetManager, string _tokenURI);\n\n\n}\n",
  "sourcePath": "/home/peter/Documents/Work/MyBit/MyBit-Network.tech/contracts/ecosystem/AssetGenerator.sol",
  "compiler": {
    "name": "solc",
    "version": "0.4.24+commit.e67f0147.Emscripten.clang"
  },
  "schemaVersion": "3.0.2",
  "updatedAt": "2019-04-08T19:44:50.219Z",
  "devdoc": {
    "methods": {}
  },
  "userdoc": {
    "methods": {}
  }
}