{
  "contractName": "AssetManagerFunds",
  "abi": [
    {
      "constant": true,
      "inputs": [],
      "name": "database",
      "outputs": [
        {
          "name": "",
          "type": "address"
        }
      ],
      "payable": false,
      "stateMutability": "view",
      "type": "function"
    },
    {
      "constant": true,
      "inputs": [],
      "name": "events",
      "outputs": [
        {
          "name": "",
          "type": "address"
        }
      ],
      "payable": false,
      "stateMutability": "view",
      "type": "function"
    },
    {
      "inputs": [
        {
          "name": "_database",
          "type": "address"
        },
        {
          "name": "_events",
          "type": "address"
        }
      ],
      "payable": false,
      "stateMutability": "nonpayable",
      "type": "constructor"
    },
    {
      "payable": true,
      "stateMutability": "payable",
      "type": "fallback"
    },
    {
      "constant": false,
      "inputs": [
        {
          "name": "_assetAddress",
          "type": "address"
        },
        {
          "name": "_assetManager",
          "type": "address"
        }
      ],
      "name": "withdraw",
      "outputs": [
        {
          "name": "",
          "type": "bool"
        }
      ],
      "payable": false,
      "stateMutability": "nonpayable",
      "type": "function"
    },
    {
      "constant": false,
      "inputs": [
        {
          "name": "_assetAddress",
          "type": "address[]"
        },
        {
          "name": "_assetManager",
          "type": "address"
        }
      ],
      "name": "retrieveAssetManagerTokens",
      "outputs": [
        {
          "name": "",
          "type": "bool"
        }
      ],
      "payable": false,
      "stateMutability": "nonpayable",
      "type": "function"
    },
    {
      "constant": false,
      "inputs": [
        {
          "name": "_assetAddress",
          "type": "address[]"
        },
        {
          "name": "_assetManager",
          "type": "address"
        }
      ],
      "name": "retrieveAssetManagerETH",
      "outputs": [
        {
          "name": "",
          "type": "bool"
        }
      ],
      "payable": false,
      "stateMutability": "nonpayable",
      "type": "function"
    },
    {
      "constant": true,
      "inputs": [
        {
          "name": "_assetAddress",
          "type": "address"
        },
        {
          "name": "_assetManager",
          "type": "address"
        }
      ],
      "name": "viewBalance",
      "outputs": [
        {
          "name": "",
          "type": "uint256"
        }
      ],
      "payable": false,
      "stateMutability": "view",
      "type": "function"
    },
    {
      "constant": true,
      "inputs": [
        {
          "name": "_assetAddress",
          "type": "address"
        },
        {
          "name": "_assetManager",
          "type": "address"
        }
      ],
      "name": "viewAmountOwed",
      "outputs": [
        {
          "name": "",
          "type": "uint256"
        }
      ],
      "payable": false,
      "stateMutability": "view",
      "type": "function"
    },
    {
      "constant": false,
      "inputs": [],
      "name": "destroy",
      "outputs": [],
      "payable": false,
      "stateMutability": "nonpayable",
      "type": "function"
    }
  ],
  "bytecode": "0x608060405234801561001057600080fd5b50604051604080611f0383398101604052805160209091015160008054600160a060020a03938416600160a060020a03199182161790915560018054939092169216919091179055611e9c806100676000396000f3006080604052600436106100745763ffffffff60e060020a6000350416630cf3939f81146100765780630e014cf8146100af5780634afce61b146100d6578063713b563f1461011857806383197ef0146101495780638b4366761461015e578063b5f8558c1461018c578063f940e385146101a1575b005b34801561008257600080fd5b5061009d600160a060020a03600435811690602435166101c8565b60408051918252519081900360200190f35b3480156100bb57600080fd5b5061009d600160a060020a0360043581169060243516610441565b3480156100e257600080fd5b506101046024600480358281019291013590600160a060020a0390351661069b565b604080519115158252519081900360200190f35b34801561012457600080fd5b5061012d610f34565b60408051600160a060020a039092168252519081900360200190f35b34801561015557600080fd5b50610074610f43565b34801561016a57600080fd5b506101046024600480358281019291013590600160a060020a03903516611135565b34801561019857600080fd5b5061012d6115df565b3480156101ad57600080fd5b50610104600160a060020a03600435811690602435166115ee565b60008080600160a060020a038516151561022c576040805160e560020a62461bcd02815260206004820152601460248201527f456d707479206164647265737320706173736564000000000000000000000000604482015290519081900360640190fd5b60005460408051600080516020611e51833981519152602080830191909152600160a060020a03898116606060020a02602d8401528351808403602101815260419093019384905282519416936304f49a3a93918291908401908083835b602083106102a95780518252601f19909201916020918201910161028a565b51815160209384036101000a60001901801990921691161790526040805192909401829003822063ffffffff881660e060020a0283526004830152925160248083019650939450929083900301905081600087803b15801561030a57600080fd5b505af115801561031e573d6000803e3d6000fd5b505050506040513d602081101561033457600080fd5b5051600160a060020a038581169116146103be576040805160e560020a62461bcd02815260206004820152602360248201527f54686174207573657220646f6573206e6f74206d616e6167652074686520617360448201527f7365740000000000000000000000000000000000000000000000000000000000606482015290519081900360840190fd5b6040805160e560020a6301defd490281523060048201529051869350600160a060020a03841691633bdfa9209160248083019260209291908290030181600087803b15801561040c57600080fd5b505af1158015610420573d6000803e3d6000fd5b505050506040513d602081101561043657600080fd5b505195945050505050565b60008080600160a060020a03851615156104a5576040805160e560020a62461bcd02815260206004820152601460248201527f456d707479206164647265737320706173736564000000000000000000000000604482015290519081900360640190fd5b60005460408051600080516020611e51833981519152602080830191909152600160a060020a03898116606060020a02602d8401528351808403602101815260419093019384905282519416936304f49a3a93918291908401908083835b602083106105225780518252601f199092019160209182019101610503565b51815160209384036101000a60001901801990921691161790526040805192909401829003822063ffffffff881660e060020a0283526004830152925160248083019650939450929083900301905081600087803b15801561058357600080fd5b505af1158015610597573d6000803e3d6000fd5b505050506040513d60208110156105ad57600080fd5b5051600160a060020a03858116911614610637576040805160e560020a62461bcd02815260206004820152602360248201527f54686174207573657220646f6573206e6f74206d616e6167652074686520617360448201527f7365740000000000000000000000000000000000000000000000000000000000606482015290519081900360840190fd5b604080517f70a082310000000000000000000000000000000000000000000000000000000081523060048201529051869350600160a060020a038416916370a082319160248083019260209291908290030181600087803b15801561040c57600080fd5b60028054600101908190556000906060908190839081908190819081908190819033600160a060020a038d1614806108b557506000809054906101000a9004600160a060020a0316600160a060020a0316633b7bfda08d33306000357bffffffffffffffffffffffffffffffffffffffffffffffffffffffff191660405160200180807f617070726f76616c00000000000000000000000000000000000000000000000081525060080185600160a060020a0316600160a060020a0316606060020a02815260140184600160a060020a0316600160a060020a0316606060020a02815260140183600160a060020a0316600160a060020a0316606060020a028152601401827bffffffffffffffffffffffffffffffffffffffffffffffffffffffff19167bffffffffffffffffffffffffffffffffffffffffffffffffffffffff191681526004019450505050506040516020818303038152906040526040518082805190602001908083835b602083106108275780518252601f199092019160209182019101610808565b51815160209384036101000a60001901801990921691161790526040805192909401829003822063ffffffff881660e060020a0283526004830152925160248083019650939450929083900301905081600087803b15801561088857600080fd5b505af115801561089c573d6000803e3d6000fd5b505050506040513d60208110156108b257600080fd5b50515b15156108c057600080fd5b602a8d11156108ce57600080fd5b8d8d90506040519080825280602002602001820160405280156108fb578160200160208202803883390190505b5099508d8d905060405190808252806020026020018201604052801561092b578160200160208202803883390190505b509850600096505b60ff87168d1115610e2557600054600160a060020a03166304f49a3a8f8f60ff8b1681811061095e57fe5b90506020020135600160a060020a03166040516020018080600080516020611e51833981519152815250600d0182600160a060020a0316600160a060020a0316606060020a0281526014019150506040516020818303038152906040526040518082805190602001908083835b602083106109ea5780518252601f1990920191602091820191016109cb565b51815160209384036101000a60001901801990921691161790526040805192909401829003822063ffffffff881660e060020a0283526004830152925160248083019650939450929083900301905081600087803b158015610a4b57600080fd5b505af1158015610a5f573d6000803e3d6000fd5b505050506040513d6020811015610a7557600080fd5b5051600160a060020a038d8116911614610a8e57600080fd5b8d8d60ff8916818110610a9d57fe5b90506020020135600160a060020a031695506000600160a060020a031686600160a060020a031614151515610ad157600080fd5b6040805160e560020a6301defd490281523060048201529051600160a060020a03881691633bdfa9209160248083019260209291908290030181600087803b158015610b1c57600080fd5b505af1158015610b30573d6000803e3d6000fd5b505050506040513d6020811015610b4657600080fd5b5051945060008511610b5757600080fd5b85600160a060020a0316634ece90a86040518163ffffffff1660e060020a028152600401602060405180830381600087803b158015610b9557600080fd5b505af1158015610ba9573d6000803e3d6000fd5b505050506040513d6020811015610bbf57600080fd5b5051604080517f70a082310000000000000000000000000000000000000000000000000000000081523060048201529051919550600160a060020a038616916370a08231916024808201926020929091908290030181600087803b158015610c2657600080fd5b505af1158015610c3a573d6000803e3d6000fd5b505050506040513d6020811015610c5057600080fd5b50519250610c5e8987611dc5565b915060ff82168d1115610cb657610c96858b8460ff16815181101515610c8057fe5b602090810290910101519063ffffffff611e2816565b8a8360ff16815181101515610ca757fe5b60209081029091010152610d03565b83898960ff16815181101515610cc857fe5b600160a060020a03909216602092830290910190910152895185908b9060ff8b16908110610cf257fe5b602090810290910101526001909701965b85600160a060020a0316633ccfd60b6040518163ffffffff1660e060020a028152600401602060405180830381600087803b158015610d4157600080fd5b505af1158015610d55573d6000803e3d6000fd5b505050506040513d6020811015610d6b57600080fd5b50511515610d7857600080fd5b82610e108686600160a060020a03166370a08231306040518263ffffffff1660e060020a0281526004018082600160a060020a0316600160a060020a03168152602001915050602060405180830381600087803b158015610dd857600080fd5b505af1158015610dec573d6000803e3d6000fd5b505050506040513d6020811015610e0257600080fd5b50519063ffffffff611e3e16565b14610e1a57600080fd5b600190960195610933565b600096505b8760ff168760ff161015610f1157888760ff16815181101515610e4957fe5b90602001906020020151600160a060020a031663a9059cbb8d8c8a60ff16815181101515610e7357fe5b906020019060200201516040518363ffffffff1660e060020a0281526004018083600160a060020a0316600160a060020a0316815260200182815260200192505050602060405180830381600087803b158015610ecf57600080fd5b505af1158015610ee3573d6000803e3d6000fd5b505050506040513d6020811015610ef957600080fd5b50511515610f0657600080fd5b600190960195610e2a565b60019a506002548114610f2357600080fd5b505050505050505050509392505050565b600054600160a060020a031681565b600054604080517f6f776e6572000000000000000000000000000000000000000000000000000000602080830191909152606060020a33026025830152825160198184030181526039909201928390528151600160a060020a0390941693633b7bfda093918291908401908083835b60208310610fd15780518252601f199092019160209182019101610fb2565b51815160209384036101000a60001901801990921691161790526040805192909401829003822063ffffffff881660e060020a0283526004830152925160248083019650939450929083900301905081600087803b15801561103257600080fd5b505af1158015611046573d6000803e3d6000fd5b505050506040513d602081101561105c57600080fd5b5051151560011461106c57600080fd5b600154604080517f42b425aa000000000000000000000000000000000000000000000000000000008152306024820181905233604483015231606482015260006084820181905260a06004830152601b60a48301527f41737365744d616e6167657246756e64732064657374726f796564000000000060c48301529151600160a060020a03909316926342b425aa9260e48084019391929182900301818387803b15801561111957600080fd5b505af115801561112d573d6000803e3d6000fd5b503392505050ff5b6002805460010190819055600090819081908190819081908190605d8a111561115d57600080fd5b600095505b60ff86168a11156115885733600160a060020a038a1614806112d8575060008054604080517f617070726f76616c000000000000000000000000000000000000000000000000602080830191909152600160a060020a038e8116606060020a9081026028850152338102603c8501523002605084015294357bffffffffffffffffffffffffffffffffffffffffffffffffffffffff191660648301528251808303604801815260689092019283905281519490931693633b7bfda0939192918291908401908083835b6020831061124a5780518252601f19909201916020918201910161122b565b51815160209384036101000a60001901801990921691161790526040805192909401829003822063ffffffff881660e060020a0283526004830152925160248083019650939450929083900301905081600087803b1580156112ab57600080fd5b505af11580156112bf573d6000803e3d6000fd5b505050506040513d60208110156112d557600080fd5b50515b15156112e357600080fd5b600054600160a060020a03166304f49a3a8c8c60ff8a1681811061130357fe5b90506020020135600160a060020a03166040516020018080600080516020611e51833981519152815250600d0182600160a060020a0316600160a060020a0316606060020a0281526014019150506040516020818303038152906040526040518082805190602001908083835b6020831061138f5780518252601f199092019160209182019101611370565b51815160209384036101000a60001901801990921691161790526040805192909401829003822063ffffffff881660e060020a0283526004830152925160248083019650939450929083900301905081600087803b1580156113f057600080fd5b505af1158015611404573d6000803e3d6000fd5b505050506040513d602081101561141a57600080fd5b5051600160a060020a038a811691161461143357600080fd5b8a8a60ff881681811061144257fe5b6040805160e560020a6301defd490281523060048201819052915160209384029590950135600160a060020a03169950903197508893633bdfa9209350602480830193928290030181600087803b15801561149c57600080fd5b505af11580156114b0573d6000803e3d6000fd5b505050506040513d60208110156114c657600080fd5b50519250600083116114d757600080fd5b6114e7848463ffffffff611e2816565b915084600160a060020a0316633ccfd60b6040518163ffffffff1660e060020a028152600401602060405180830381600087803b15801561152757600080fd5b505af115801561153b573d6000803e3d6000fd5b505050506040513d602081101561155157600080fd5b5051151561155e57600080fd5b3031821461156b57600080fd5b61157b878463ffffffff611e2816565b9650600190950194611162565b604051600160a060020a038a169088156108fc029089906000818181858888f193505050501580156115be573d6000803e3d6000fd5b506001975060025481146115d157600080fd5b505050505050509392505050565b600154600160a060020a031681565b60028054600101908190556000908190819081908190819033600160a060020a0389161480611771575060008054604080517f617070726f76616c000000000000000000000000000000000000000000000000602080830191909152600160a060020a038d8116606060020a9081026028850152338102603c8501523002605084015294357bffffffffffffffffffffffffffffffffffffffffffffffffffffffff191660648301528251808303604801815260689092019283905281519490931693633b7bfda0939192918291908401908083835b602083106116e35780518252601f1990920191602091820191016116c4565b51815160209384036101000a60001901801990921691161790526040805192909401829003822063ffffffff881660e060020a0283526004830152925160248083019650939450929083900301905081600087803b15801561174457600080fd5b505af1158015611758573d6000803e3d6000fd5b505050506040513d602081101561176e57600080fd5b50515b151561177c57600080fd5b600160a060020a038916151561179157600080fd5b60005460408051600080516020611e51833981519152602080830191909152600160a060020a038d8116606060020a02602d8401528351808403602101815260419093019384905282519416936304f49a3a93918291908401908083835b6020831061180e5780518252601f1990920191602091820191016117ef565b51815160209384036101000a60001901801990921691161790526040805192909401829003822063ffffffff881660e060020a0283526004830152925160248083019650939450929083900301905081600087803b15801561186f57600080fd5b505af1158015611883573d6000803e3d6000fd5b505050506040513d602081101561189957600080fd5b5051600160a060020a038981169116146118b257600080fd5b8895506000600160a060020a031686600160a060020a0316634ece90a86040518163ffffffff1660e060020a028152600401602060405180830381600087803b1580156118fe57600080fd5b505af1158015611912573d6000803e3d6000fd5b505050506040513d602081101561192857600080fd5b5051600160a060020a03161415611a96576040805160e560020a6301defd490281523060048201819052915191319550600160a060020a03881691633bdfa920916024808201926020929091908290030181600087803b15801561198b57600080fd5b505af115801561199f573d6000803e3d6000fd5b505050506040513d60208110156119b557600080fd5b50519450600085116119c657600080fd5b6119d6848663ffffffff611e2816565b925085600160a060020a0316633ccfd60b6040518163ffffffff1660e060020a028152600401602060405180830381600087803b158015611a1657600080fd5b505af1158015611a2a573d6000803e3d6000fd5b505050506040513d6020811015611a4057600080fd5b50511515611a4d57600080fd5b30318314611a5a57600080fd5b604051600160a060020a0389169086156108fc029087906000818181858888f19350505050158015611a90573d6000803e3d6000fd5b50611da7565b6040805160e560020a6301defd490281523060048201529051600160a060020a03881691633bdfa9209160248083019260209291908290030181600087803b158015611ae157600080fd5b505af1158015611af5573d6000803e3d6000fd5b505050506040513d6020811015611b0b57600080fd5b5051945060008511611b1c57600080fd5b85600160a060020a0316634ece90a86040518163ffffffff1660e060020a028152600401602060405180830381600087803b158015611b5a57600080fd5b505af1158015611b6e573d6000803e3d6000fd5b505050506040513d6020811015611b8457600080fd5b5051604080517f70a082310000000000000000000000000000000000000000000000000000000081523060048201529051919350600160a060020a038416916370a08231916024808201926020929091908290030181600087803b158015611beb57600080fd5b505af1158015611bff573d6000803e3d6000fd5b505050506040513d6020811015611c1557600080fd5b5051604080517f3ccfd60b0000000000000000000000000000000000000000000000000000000081529051919550600160a060020a03881691633ccfd60b916004808201926020929091908290030181600087803b158015611c7657600080fd5b505af1158015611c8a573d6000803e3d6000fd5b505050506040513d6020811015611ca057600080fd5b50511515611cad57600080fd5b83611d0d8684600160a060020a03166370a08231306040518263ffffffff1660e060020a0281526004018082600160a060020a0316600160a060020a03168152602001915050602060405180830381600087803b158015610dd857600080fd5b14611d1757600080fd5b81600160a060020a031663a9059cbb89876040518363ffffffff1660e060020a0281526004018083600160a060020a0316600160a060020a0316815260200182815260200192505050602060405180830381600087803b158015611d7a57600080fd5b505af1158015611d8e573d6000803e3d6000fd5b505050506040513d6020811015611da457600080fd5b50505b600196506002548114611db957600080fd5b50505050505092915050565b6000805b83518160ff161015611e195782600160a060020a0316848260ff16815181101515611df057fe5b90602001906020020151600160a060020a03161415611e1157809150611e21565b600101611dc9565b835160010191505b5092915050565b600082820183811015611e3757fe5b9392505050565b600082821115611e4a57fe5b50900390560061737365742e6d616e6167657200000000000000000000000000000000000000a165627a7a723058203049c2fa3e1069191cd8dfbf6db80521360e322fa9453734b0e0c6bfb2e854840029",
  "source": "pragma solidity ^0.4.24;\n\nimport \"../interfaces/ERC20.sol\";\nimport \"../interfaces/DBInterface.sol\";\nimport \"../database/Events.sol\";\nimport \"../math/SafeMath.sol\";\n\ninterface DToken {\n  function withdraw() external returns (bool);\n  function getAmountOwed(address _user) external view returns (uint);\n  function balanceOf(address _tokenHolder) external view returns (uint);\n  function transfer(address _to, uint _amount) external returns (bool success);\n  function getERC20() external  view returns (address);\n}\n\n// @title A dividend-token holding contract that locks tokens and retrieves dividends for assetManagers\n// @notice This contract receives newly minted tokens and retrieves Ether or ERC20 tokens received from the asset\n// @author Kyle Dewhurst & Peter Phillips, MyBit Foundation\ncontract AssetManagerFunds {\n  using SafeMath for uint256;\n\n  DBInterface public database;\n  Events public events;\n\n  uint256 private transactionNumber;\n\n  // @notice constructor: initializes database\n  constructor(address _database, address _events)\n  public {\n    database = DBInterface(_database);\n    events = Events(_events);\n  }\n\n  // @notice asset manager can withdraw his dividend fee from assets here\n  // @param : address _assetAddress = the address of this asset on the platform\n  function withdraw(address _assetAddress, address _assetManager)\n  external\n  nonReentrant\n  returns (bool) {\n    require(msg.sender == _assetManager || database.boolStorage(keccak256(abi.encodePacked(\"approval\", _assetManager, msg.sender, address(this), msg.sig))));\n    require(_assetAddress != address(0));\n    require(_assetManager == database.addressStorage(keccak256(abi.encodePacked(\"asset.manager\", _assetAddress))));\n    DToken token = DToken( _assetAddress);\n    uint amountOwed;\n    uint balanceBefore;\n    if (token.getERC20() == address(0)){\n      balanceBefore = address(this).balance;\n      amountOwed = token.getAmountOwed(address(this));\n      require(amountOwed > 0);\n      uint balanceAfter = balanceBefore.add(amountOwed);\n      require(token.withdraw());\n      require(address(this).balance == balanceAfter);\n      _assetManager.transfer(amountOwed);\n    }\n    else {\n      amountOwed = token.getAmountOwed(address(this));\n      require(amountOwed > 0);\n      DToken fundingToken = DToken(token.getERC20());\n      balanceBefore = fundingToken.balanceOf(address(this));\n      require(token.withdraw());\n      require(fundingToken.balanceOf(address(this)).sub(amountOwed) == balanceBefore);\n      fundingToken.transfer(_assetManager, amountOwed);\n    }\n    return true;\n  }\n\n  function retrieveAssetManagerTokens(address[] _assetAddress, address _assetManager)\n  external\n  nonReentrant\n  returns (bool) {\n    require(msg.sender == _assetManager || database.boolStorage(keccak256(abi.encodePacked(\"approval\", _assetManager, msg.sender, address(this), msg.sig))));\n    require(_assetAddress.length <= 42);\n    uint[] memory payoutAmounts = new uint[](_assetAddress.length);\n    address[] memory tokenAddresses = new address[](_assetAddress.length);\n    uint8 numEntries;\n    for(uint8 i = 0; i < _assetAddress.length; i++){\n      require(_assetManager == database.addressStorage(keccak256(abi.encodePacked(\"asset.manager\", _assetAddress[i]))) );\n      DToken token = DToken(_assetAddress[i]);\n      require(address(token) != address(0));\n      uint tokensOwed = token.getAmountOwed(address(this));\n      require(tokensOwed > 0);\n      DToken fundingToken = DToken(token.getERC20());\n      uint balanceBefore = fundingToken.balanceOf(address(this));\n      uint8 tokenIndex = containsAddress(tokenAddresses, address(token));\n      if (tokenIndex < _assetAddress.length) {  payoutAmounts[tokenIndex] = payoutAmounts[tokenIndex].add(tokensOwed); }\n      else {\n        tokenAddresses[numEntries] = address(fundingToken);\n        payoutAmounts[numEntries] = tokensOwed;\n        numEntries++;\n      }\n      require(token.withdraw());\n      require(fundingToken.balanceOf(address(this)).sub(tokensOwed) == balanceBefore);\n    }\n\n    for(i = 0; i < numEntries; i++){\n      require(ERC20(tokenAddresses[i]).transfer(_assetManager, payoutAmounts[i]));\n    }\n    return true;\n  }\n\n\n  function retrieveAssetManagerETH(address[] _assetAddress, address _assetManager)\n  external\n  nonReentrant\n  returns (bool) {\n    require(_assetAddress.length <= 93);\n    uint weiOwed;\n    for(uint8 i = 0; i < _assetAddress.length; i++){\n      require(msg.sender == _assetManager || database.boolStorage(keccak256(abi.encodePacked(\"approval\", _assetManager, msg.sender, address(this), msg.sig))));\n      require(_assetManager == database.addressStorage(keccak256(abi.encodePacked(\"asset.manager\", _assetAddress[i]))));\n      DToken token = DToken(_assetAddress[i]);\n      uint balanceBefore = address(this).balance;\n      uint amountOwed = token.getAmountOwed(address(this));\n      require(amountOwed > 0);\n      uint balanceAfter = balanceBefore.add(amountOwed);\n      require(token.withdraw());\n      require(address(this).balance == balanceAfter);\n      weiOwed = weiOwed.add(amountOwed);\n    }\n    _assetManager.transfer(weiOwed);\n    return true;\n  }\n\n  function viewBalance(address _assetAddress, address _assetManager)\n  external\n  view\n  returns (uint){\n    require(_assetAddress != address(0), 'Empty address passed');\n    require(_assetManager == database.addressStorage(keccak256(abi.encodePacked(\"asset.manager\", _assetAddress))), 'That user does not manage the asset');\n    DToken token = DToken( _assetAddress);\n    uint balance = token.balanceOf(address(this));\n    return balance;\n  }\n\n  function viewAmountOwed(address _assetAddress, address _assetManager)\n  external\n  view\n  returns (uint){\n    require(_assetAddress != address(0), 'Empty address passed');\n    require(_assetManager == database.addressStorage(keccak256(abi.encodePacked(\"asset.manager\", _assetAddress))), 'That user does not manage the asset');\n    DToken token = DToken( _assetAddress);\n    uint amountOwed = token.getAmountOwed(address(this));\n    return amountOwed;\n  }\n\n  // @notice returns the index if the address is in the list, otherwise returns list length + 1\n  function containsAddress(address[] _addressList, address _addr)\n  internal\n  pure\n  returns (uint8) {\n    for (uint8 i = 0; i < _addressList.length; i++){\n      if (_addressList[i] == _addr) return i;\n    }\n    return uint8(_addressList.length + 1);\n  }\n\n  // @notice platform owners can destroy contract here\n  function destroy()\n  onlyOwner\n  external {\n    events.transaction('AssetManagerFunds destroyed', address(this), msg.sender, address(this).balance, address(0));\n    selfdestruct(msg.sender);\n  }\n\n  // @notice prevents calls from re-entering contract\n  modifier nonReentrant() {\n    transactionNumber += 1;\n    uint256 localCounter = transactionNumber;\n    _;\n    require(localCounter == transactionNumber);\n  }\n\n  // @notice reverts if caller is not the owner\n  modifier onlyOwner {\n    require(database.boolStorage(keccak256(abi.encodePacked(\"owner\", msg.sender))) == true);\n    _;\n  }\n\n  function ()\n  payable\n  public {}\n\n}\n",
  "sourcePath": "/home/peter/Documents/Work/MyBit/MyBit-Network.tech/contracts/roles/AssetManagerFunds.sol",
  "compiler": {
    "name": "solc",
    "version": "0.4.24+commit.e67f0147.Emscripten.clang"
  },
  "schemaVersion": "3.0.2",
  "updatedAt": "2019-04-08T19:44:50.757Z",
  "devdoc": {
    "methods": {}
  },
  "userdoc": {
    "methods": {}
  }
}