{
  "contractName": "AssetGenerator",
  "abi": [
    {
      "inputs": [
        {
          "name": "_database",
          "type": "address"
        },
        {
          "name": "_events",
          "type": "address"
        }
      ],
      "payable": false,
      "stateMutability": "nonpayable",
      "type": "constructor"
    },
    {
      "constant": false,
      "inputs": [
        {
          "name": "_tokenURI",
          "type": "string"
        },
        {
          "name": "_assetManager",
          "type": "address"
        },
        {
          "name": "_tokenHolders",
          "type": "address[]"
        },
        {
          "name": "_amount",
          "type": "uint256[]"
        }
      ],
      "name": "createAsset",
      "outputs": [
        {
          "name": "",
          "type": "bool"
        }
      ],
      "payable": false,
      "stateMutability": "nonpayable",
      "type": "function"
    },
    {
      "constant": false,
      "inputs": [
        {
          "name": "_tokenURI",
          "type": "string"
        },
        {
          "name": "_assetManager",
          "type": "address"
        },
        {
          "name": "_tokenHolders",
          "type": "address[]"
        },
        {
          "name": "_amount",
          "type": "uint256[]"
        }
      ],
      "name": "createTradeableAsset",
      "outputs": [
        {
          "name": "",
          "type": "bool"
        }
      ],
      "payable": false,
      "stateMutability": "nonpayable",
      "type": "function"
    },
    {
      "constant": false,
      "inputs": [],
      "name": "destroy",
      "outputs": [],
      "payable": false,
      "stateMutability": "nonpayable",
      "type": "function"
    }
  ],
  "bytecode": "0x608060405234801561001057600080fd5b50604051604080612f0b83398101604052805160209091015160008054600160a060020a03938416600160a060020a03199182161790915560018054939092169216919091179055612ea4806100676000396000f30060806040526004361061003d5763ffffffff60e060020a6000350416630e1caef4811461004257806383197ef01461009b578063d10ab469146100b2575b600080fd5b34801561004e57600080fd5b50610087602460048035828101929082013591600160a060020a03823516916044358082019290810135916064359081019101356100f7565b604080519115158252519081900360200190f35b3480156100a757600080fd5b506100b061093d565b005b3480156100be57600080fd5b50610087602460048035828101929082013591600160a060020a0382351691604435808201929081013591606435908101910135610b91565b600080808033600160a060020a038a161480610270575060008054604080517f617070726f76616c000000000000000000000000000000000000000000000000602080830191909152600160a060020a038e81166c010000000000000000000000009081026028850152338102603c8501523002605084015294357bffffffffffffffffffffffffffffffffffffffffffffffffffffffff191660648301528251808303604801815260689092019283905281519490931693633b7bfda0939192918291908401908083835b602083106101e25780518252601f1990920191602091820191016101c3565b51815160209384036101000a60001901801990921691161790526040805192909401829003822063ffffffff881660e060020a0283526004830152925160248083019650939450929083900301905081600087803b15801561024357600080fd5b505af1158015610257573d6000803e3d6000fd5b505050506040513d602081101561026d57600080fd5b50515b151561027b57600080fd5b868514801561028b575060648711155b151561029657600080fd5b888b8b6040516020018084600160a060020a0316600160a060020a03166c01000000000000000000000000028152601401838380828437820191505093505050506040516020818303038152906040526040518082805190602001908083835b602083106103155780518252601f1990920191602091820191016102f6565b51815160209384036101000a60001901801990921691161790526040805192909401829003822060008054600080516020612e5983398151915285850152602c80860184905287518087039091018152604c909501968790528451929b50909750600160a060020a031695506304f49a3a9492935082918401908083835b602083106103b25780518252601f199092019160209182019101610393565b51815160209384036101000a60001901801990921691161790526040805192909401829003822063ffffffff881660e060020a0283526004830152925160248083019650939450929083900301905081600087803b15801561041357600080fd5b505af1158015610427573d6000803e3d6000fd5b505050506040513d602081101561043d57600080fd5b5051600160a060020a03161461045257600080fd5b8a8a3061045d6112b3565b600160a060020a03821660208201526040808252810183905280606081018585808284378201915050945050505050604051809103906000f0801580156104a8573d6000803e3d6000fd5b509150600090505b60ff811687111561058757600160a060020a0382166340c10f19898960ff85168181106104d957fe5b90506020020135600160a060020a031688888560ff1681811015156104fa57fe5b905060200201356040518363ffffffff1660e060020a0281526004018083600160a060020a0316600160a060020a0316815260200182815260200192505050602060405180830381600087803b15801561055357600080fd5b505af1158015610567573d6000803e3d6000fd5b505050506040513d602081101561057d57600080fd5b50506001016104b0565b81600160a060020a0316637d64bcb46040518163ffffffff1660e060020a028152600401602060405180830381600087803b1580156105c557600080fd5b505af11580156105d9573d6000803e3d6000fd5b505050506040513d60208110156105ef57600080fd5b5050600054604080517f61737365744d616e616765720000000000000000000000000000000000000000602082810191909152602c80830188905283518084039091018152604c909201928390528151600160a060020a039094169363ca446dd993918291908401908083835b6020831061067b5780518252601f19909201916020918201910161065c565b6001836020036101000a03801982511681845116808217855250505050505090500191505060405180910390208b6040518363ffffffff1660e060020a02815260040180836000191660001916815260200182600160a060020a0316600160a060020a0316815260200192505050600060405180830381600087803b15801561070357600080fd5b505af1158015610717573d6000803e3d6000fd5b505060005460408051600080516020612e59833981519152602080830191909152602c8083018a905283518084039091018152604c909201928390528151600160a060020a03909416955063ca446dd99450909282918401908083835b602083106107935780518252601f199092019160209182019101610774565b5181516020939093036101000a60001901801990911692169190911790526040805191909301819003812063ffffffff871660e060020a0282526004820152600160a060020a0389166024820152915160448084019550600094509092839003019050818387803b15801561080757600080fd5b505af115801561081b573d6000803e3d6000fd5b50505050600160009054906101000a9004600160a060020a0316600160a060020a03166377f7b7a78c8c86868e6040518663ffffffff1660e060020a028152600401808060200180602001866000191660001916815260200185600160a060020a0316600160a060020a0316815260200184600160a060020a0316600160a060020a03168152602001838103835260178152602001807f547261646561626c65206173736574206372656174656400000000000000000081525060200183810382528888828181526020019250808284378201915050975050505050505050600060405180830381600087803b15801561091457600080fd5b505af1158015610928573d6000803e3d6000fd5b5060019e9d5050505050505050505050505050565b600054604080517f6f776e65720000000000000000000000000000000000000000000000000000006020808301919091526c0100000000000000000000000033026025830152825160198184030181526039909201928390528151600160a060020a0390941693633b7bfda093918291908401908083835b602083106109d45780518252601f1990920191602091820191016109b5565b51815160209384036101000a60001901801990921691161790526040805192909401829003822063ffffffff881660e060020a0283526004830152925160248083019650939450929083900301905081600087803b158015610a3557600080fd5b505af1158015610a49573d6000803e3d6000fd5b505050506040513d6020811015610a5f57600080fd5b50511515610ace57604080517f08c379a000000000000000000000000000000000000000000000000000000000815260206004820152600960248201527f4e6f74206f776e65720000000000000000000000000000000000000000000000604482015290519081900360640190fd5b600154604080517f68b96270000000000000000000000000000000000000000000000000000000008152306024820181905233604483015231606482015260a06004820152601860a48201527f417373657447656e657261746f722064657374726f796564000000000000000060c48201529051600160a060020a03909216916368b962709160e48082019260009290919082900301818387803b158015610b7557600080fd5b505af1158015610b89573d6000803e3d6000fd5b503392505050ff5b6000808033600160a060020a0389161480610d09575060008054604080517f617070726f76616c000000000000000000000000000000000000000000000000602080830191909152600160a060020a038d81166c010000000000000000000000009081026028850152338102603c8501523002605084015294357bffffffffffffffffffffffffffffffffffffffffffffffffffffffff191660648301528251808303604801815260689092019283905281519490931693633b7bfda0939192918291908401908083835b60208310610c7b5780518252601f199092019160209182019101610c5c565b51815160209384036101000a60001901801990921691161790526040805192909401829003822063ffffffff881660e060020a0283526004830152925160248083019650939450929083900301905081600087803b158015610cdc57600080fd5b505af1158015610cf0573d6000803e3d6000fd5b505050506040513d6020811015610d0657600080fd5b50515b1515610d1457600080fd5b8584148015610d24575060648611155b1515610d2f57600080fd5b878a8a6040516020018084600160a060020a0316600160a060020a03166c01000000000000000000000000028152601401838380828437820191505093505050506040516020818303038152906040526040518082805190602001908083835b60208310610dae5780518252601f199092019160209182019101610d8f565b51815160209384036101000a60001901801990921691161790526040805192909401829003822060008054600080516020612e5983398151915285850152602c80860184905287518087039091018152604c909501968790528451929a50909750600160a060020a031695506304f49a3a9492935082918401908083835b60208310610e4b5780518252601f199092019160209182019101610e2c565b51815160209384036101000a60001901801990921691161790526040805192909401829003822063ffffffff881660e060020a0283526004830152925160248083019650939450929083900301905081600087803b158015610eac57600080fd5b505af1158015610ec0573d6000803e3d6000fd5b505050506040513d6020811015610ed657600080fd5b5051600160a060020a031614610eeb57600080fd5b898988888888610ef96112c3565b60608082528101869052806020810160408201608083018a8a808284379091018581038452888152602090810191508990890280828437909101858103835286815260209081019150879087028082843782019150509950505050505050505050604051809103906000f080158015610f76573d6000803e3d6000fd5b50600054604080517f61737365744d616e616765720000000000000000000000000000000000000000602080830191909152602c80830188905283518084039091018152604c909201928390528151949550600160a060020a039093169363ca446dd9939192918291908401908083835b602083106110065780518252601f199092019160209182019101610fe7565b5181516020939093036101000a60001901801990911692169190911790526040805191909301819003812063ffffffff871660e060020a0282526004820152600160a060020a038f166024820152915160448084019550600094509092839003019050818387803b15801561107a57600080fd5b505af115801561108e573d6000803e3d6000fd5b505060005460408051600080516020612e59833981519152602080830191909152602c80830189905283518084039091018152604c909201928390528151600160a060020a03909416955063ca446dd99450909282918401908083835b6020831061110a5780518252601f1990920191602091820191016110eb565b5181516020939093036101000a60001901801990911692169190911790526040805191909301819003812063ffffffff871660e060020a0282526004820152600160a060020a0388166024820152915160448084019550600094509092839003019050818387803b15801561117e57600080fd5b505af1158015611192573d6000803e3d6000fd5b50505050600160009054906101000a9004600160a060020a0316600160a060020a03166377f7b7a78b8b85858d6040518663ffffffff1660e060020a028152600401808060200180602001866000191660001916815260200185600160a060020a0316600160a060020a0316815260200184600160a060020a0316600160a060020a031681526020018381038352600d8152602001807f417373657420637265617465640000000000000000000000000000000000000081525060200183810382528888828181526020019250808284378201915050975050505050505050600060405180830381600087803b15801561128b57600080fd5b505af115801561129f573d6000803e3d6000fd5b5060019d9c50505050505050505050505050565b6040516112ae806112d483390190565b6040516108d780612582833901905600608060405234801561001057600080fd5b50604051620012ae380380620012ae8339810160405280516020808301519190920180519092839183916100499160049185019061007d565b5060038054600160a060020a039092166101000261010060a860020a03199092169190911790555050600060025550610118565b828054600181600116156101000203166002900490600052602060002090601f016020900481019282601f106100be57805160ff19168380011785556100eb565b828001600101855582156100eb579182015b828111156100eb5782518255916020019190600101906100d0565b506100f79291506100fb565b5090565b61011591905b808211156100f75760008155600101610101565b90565b61118680620001286000396000f30060806040526004361061011c5763ffffffff7c010000000000000000000000000000000000000000000000000000000060003504166305d2035b81146101b1578063095ea7b3146101da57806318160ddd146101fe57806323b872dd146102255780632ba1b3a11461024f5780633bdfa920146102645780633ccfd60b1461028557806340c10f191461029a5780634ece90a8146102be57806366188463146102ef57806370a08231146103135780637d64bcb414610334578063a8fa8e5214610349578063a9059cbb1461035e578063b5a83d4314610382578063cae9ca51146103a3578063d4a191161461040c578063d73dd62314610496578063dd62ed3e146104ba578063eba74e5c146104e1578063efcb5dea146104e9575b60065461012f903463ffffffff61050a16565b600655600254610176906101679061015b346d04ee2d6d415b85acef810000000063ffffffff61052416565b9063ffffffff61054f16565b6005549063ffffffff61050a16565b60055560408051348152905133917fe3166012cb87b3dec8e117fe0e096a47387f94ea2ec12086ed8ae24ff8c237fe919081900360200190a2005b3480156101bd57600080fd5b506101c6610564565b604080519115158252519081900360200190f35b3480156101e657600080fd5b506101c6600160a060020a036004351660243561056d565b34801561020a57600080fd5b506102136105c1565b60408051918252519081900360200190f35b34801561023157600080fd5b506101c6600160a060020a03600435811690602435166044356105c7565b34801561025b57600080fd5b50610213610688565b34801561027057600080fd5b50610213600160a060020a036004351661068e565b34801561029157600080fd5b506101c66106da565b3480156102a657600080fd5b506101c6600160a060020a03600435166024356107bd565b3480156102ca57600080fd5b506102d36108c6565b60408051600160a060020a039092168252519081900360200190f35b3480156102fb57600080fd5b506101c6600160a060020a03600435166024356108cb565b34801561031f57600080fd5b50610213600160a060020a03600435166109a8565b34801561034057600080fd5b506101c66109c3565b34801561035557600080fd5b50610213610a2f565b34801561036a57600080fd5b506101c6600160a060020a0360043516602435610a35565b34801561038e57600080fd5b50610213600160a060020a0360043516610acf565b3480156103af57600080fd5b50604080516020600460443581810135601f81018490048402850184019095528484526101c6948235600160a060020a0316946024803595369594606494920191908190840183828082843750949750610ae19650505050505050565b34801561041857600080fd5b50610421610c97565b6040805160208082528351818301528351919283929083019185019080838360005b8381101561045b578181015183820152602001610443565b50505050905090810190601f1680156104885780820380516001836020036101000a031916815260200191505b509250505060405180910390f35b3480156104a257600080fd5b506101c6600160a060020a0360043516602435610d2d565b3480156104c657600080fd5b50610213600160a060020a0360043581169060243516610db4565b6101c6610ddf565b3480156104f557600080fd5b50610213600160a060020a0360043516610e60565b60008282018381101561051957fe5b8091505b5092915050565b600080831515610537576000915061051d565b5082820282848281151561054757fe5b041461051957fe5b6000818381151561055c57fe5b049392505050565b60035460ff1681565b336000818152600160209081526040808320600160a060020a0387168085529083528184208690558151868152915193949093909260008051602061113b833981519152928290030190a350600192915050565b60025490565b6000836105fb6105d682610e72565b600160a060020a0383166000908152600760205260409020549063ffffffff61050a16565b600160a060020a038216600090815260076020908152604080832093909355600554600890915291902055836106336105d682610e72565b600160a060020a03808316600090815260076020908152604080832094909455600554600890915292902091909155851630141561067057600080fd5b61067b868686610ed4565b5060019695505050505050565b60065481565b600160a060020a0381166000908152600760205260408120546106d4906d04ee2d6d415b85acef81000000009061015b906106c886610e72565b9063ffffffff61050a16565b92915050565b600080336106ea6105d682610e72565b600160a060020a0382166000908152600760208181526040808420949094556005546008825284842055338352522054610738906d04ee2d6d415b85acef810000000063ffffffff61054f16565b336000818152600760209081526040808320929092558151928352820183905280519294507ff5b510c554f6c572235f7e531ec8f287b350b15c212250b993180473a6aeb7d192918290030190a1604051339083156108fc029084906000818181858888f193505050501580156107b3573d6000803e3d6000fd5b5060019250505090565b60035460009060ff161580156107e257506003546101009004600160a060020a031633145b15156107ed57600080fd5b600254610800908363ffffffff61050a16565b600255600160a060020a03831660009081526020819052604090205461082c908363ffffffff61050a16565b600160a060020a03841660008181526020818152604091829020939093558051858152905191927f0f6798a560793a54c3bcfe86a93cde1e73087d944c0ea20544137d412139688592918290030190a2604080518381529051600160a060020a038516916000917fddf252ad1be2c89b69c2b068fc378daa952ba7f163c4a11628f55a4df523b3ef9181900360200190a350600192915050565b600090565b336000908152600160209081526040808320600160a060020a038616845290915281205480831061091f57336000908152600160209081526040808320600160a060020a0388168452909152812055610954565b61092f818463ffffffff61104916565b336000908152600160209081526040808320600160a060020a03891684529091529020555b336000818152600160209081526040808320600160a060020a03891680855290835292819020548151908152905192939260008051602061113b833981519152929181900390910190a35060019392505050565b600160a060020a031660009081526020819052604090205490565b60035460009060ff161580156109e857506003546101009004600160a060020a031633145b15156109f357600080fd5b6003805460ff191660011790556040517fae5184fba832cb2b1f702aca6117b8d265eaf03ad33eb133f19dde0f5920fa0890600090a150600190565b60055481565b600033610a446105d682610e72565b600160a060020a03821660009081526007602090815260408083209390935560055460089091529190205583610a7c6105d682610e72565b600160a060020a038083166000908152600760209081526040808320949094556005546008909152929020919091558516301415610ab957600080fd5b610ac3858561105b565b50600195945050505050565b60076020526000908152604090205481565b600033610af06105d682610e72565b600160a060020a03821660009081526007602090815260408083209390935560055460089091529190205584610b286105d682610e72565b600160a060020a0380831660009081526007602090815260408083209490945560055460088252848320553380835260018252848320938b1680845293825291849020899055835189815293519293919260008051602061113b8339815191529281900390910190a36040517f8f4ffcb10000000000000000000000000000000000000000000000000000000081523360048201818152602483018890523060448401819052608060648501908152885160848601528851600160a060020a038c1695638f4ffcb195948c94938c939192909160a490910190602085019080838360005b83811015610c24578181015183820152602001610c0c565b50505050905090810190601f168015610c515780820380516001836020036101000a031916815260200191505b5095505050505050600060405180830381600087803b158015610c7357600080fd5b505af1158015610c87573d6000803e3d6000fd5b5060019998505050505050505050565b60048054604080516020601f6002600019610100600188161502019095169490940493840181900481028201810190925282815260609390929091830182828015610d235780601f10610cf857610100808354040283529160200191610d23565b820191906000526020600020905b815481529060010190602001808311610d0657829003601f168201915b5050505050905090565b336000908152600160209081526040808320600160a060020a0386168452909152812054610d61908363ffffffff61050a16565b336000818152600160209081526040808320600160a060020a03891680855290835292819020859055805194855251919360008051602061113b833981519152929081900390910190a350600192915050565b600160a060020a03918216600090815260016020908152604080832093909416825291909152205490565b600654600090610df5903463ffffffff61050a16565b600655600254610e21906101679061015b346d04ee2d6d415b85acef810000000063ffffffff61052416565b60055560408051348152905133917fe3166012cb87b3dec8e117fe0e096a47387f94ea2ec12086ed8ae24ff8c237fe919081900360200190a250600190565b60086020526000908152604090205481565b600160a060020a0381166000908152600860205260408120546005548291610ea0919063ffffffff61104916565b600160a060020a038416600090815260208190526040902054909150610ecd90829063ffffffff61052416565b9392505050565b600160a060020a038316600090815260208190526040812054821115610ef957600080fd5b600160a060020a0384166000908152600160209081526040808320338452909152902054821115610f2957600080fd5b600160a060020a0383161515610f3e57600080fd5b600160a060020a038416600090815260208190526040902054610f67908363ffffffff61104916565b600160a060020a038086166000908152602081905260408082209390935590851681522054610f9c908363ffffffff61050a16565b600160a060020a03808516600090815260208181526040808320949094559187168152600182528281203382529091522054610fde908363ffffffff61104916565b600160a060020a03808616600081815260016020908152604080832033845282529182902094909455805186815290519287169391927fddf252ad1be2c89b69c2b068fc378daa952ba7f163c4a11628f55a4df523b3ef929181900390910190a35060019392505050565b60008282111561105557fe5b50900390565b3360009081526020819052604081205482111561107757600080fd5b600160a060020a038316151561108c57600080fd5b336000908152602081905260409020546110ac908363ffffffff61104916565b3360009081526020819052604080822092909255600160a060020a038516815220546110de908363ffffffff61050a16565b600160a060020a038416600081815260208181526040918290209390935580518581529051919233927fddf252ad1be2c89b69c2b068fc378daa952ba7f163c4a11628f55a4df523b3ef9281900390910190a35060019291505056008c5be1e5ebec7d5bd14f71427d1e84f3dd0314c0f7b2291e5b200ac8c7c3b925a165627a7a72305820c26c18d370030e107bb1b7fd577480d136d3ceb25df1cb91f91909fb54580c2b0029608060405234801561001057600080fd5b506040516108d73803806108d7833981016040908152815160208301519183015191830180519184019390920190600090819060c8118015610053575082518451145b151561005e57600080fd5b8451610071906002906020880190610183565b50600090505b83518160ff161015610160576100b5838260ff1681518110151561009757fe5b60209081029091010151839064010000000061034d61016d82021704565b9150610120838260ff168151811015156100cb57fe5b9060200190602002015160016000878560ff168151811015156100ea57fe5b6020908102909101810151600160a060020a03168252810191909152604001600020549064010000000061034d61016d82021704565b60016000868460ff1681518110151561013557fe5b6020908102909101810151600160a060020a0316825281019190915260400160002055600101610077565b506000555061021e915050565b60008282018381101561017c57fe5b9392505050565b828054600181600116156101000203166002900490600052602060002090601f016020900481019282601f106101c457805160ff19168380011785556101f1565b828001600101855582156101f1579182015b828111156101f15782518255916020019190600101906101d6565b506101fd929150610201565b5090565b61021b91905b808211156101fd5760008155600101610207565b90565b6106aa8061022d6000396000f3006080604052600436106100b95763ffffffff7c0100000000000000000000000000000000000000000000000000000000600035041663047fc9aa811461014e57806318160ddd146101755780632ba1b3a11461018a5780633c130d901461019f5780633ccfd60b1461022957806370a082311461023e578063a8fa8e521461025f578063b815239514610274578063eba74e5c14610295578063ec8593be1461029f578063efcb5dea146102c0578063f1c5d6c2146102e1575b6000546100fd906100ee906100e2346d04ee2d6d415b85acef810000000063ffffffff61030216565b9063ffffffff61033816565b6004549063ffffffff61034d16565b600455600354610113903463ffffffff61034d16565b60035560408051348152905133917fe3166012cb87b3dec8e117fe0e096a47387f94ea2ec12086ed8ae24ff8c237fe919081900360200190a2005b34801561015a57600080fd5b5061016361035c565b60408051918252519081900360200190f35b34801561018157600080fd5b50610163610362565b34801561019657600080fd5b50610163610368565b3480156101ab57600080fd5b506101b461036e565b6040805160208082528351818301528351919283929083019185019080838360005b838110156101ee5781810151838201526020016101d6565b50505050905090810190601f16801561021b5780820380516001836020036101000a031916815260200191505b509250505060405180910390f35b34801561023557600080fd5b506101636103f9565b34801561024a57600080fd5b50610163600160a060020a03600435166104ff565b34801561026b57600080fd5b5061016361051a565b34801561028057600080fd5b50610163600160a060020a0360043516610520565b61029d61056c565b005b3480156102ab57600080fd5b50610163600160a060020a03600435166105e6565b3480156102cc57600080fd5b50610163600160a060020a03600435166105f8565b3480156102ed57600080fd5b50610163600160a060020a036004351661060a565b6000808315156103155760009150610331565b5082820282848281151561032557fe5b041461032d57fe5b8091505b5092915050565b6000818381151561034557fe5b049392505050565b60008282018381101561032d57fe5b60005481565b60005490565b60035481565b6002805460408051602060018416156101000260001901909316849004601f810184900484028201840190925281815292918301828280156103f15780601f106103c6576101008083540402835291602001916103f1565b820191906000526020600020905b8154815290600101906020018083116103d457829003601f168201915b505050505081565b60003361042d6104088261060a565b600160a060020a0383166000908152600560205260409020549063ffffffff61034d16565b600160a060020a038216600090815260056020818152604080842094909455600454600682528484205533835252205461047b906d04ee2d6d415b85acef810000000063ffffffff61033816565b3360008181526005602052604080822082905551929450909184156108fc0291859190818181858888f193505050501580156104bb573d6000803e3d6000fd5b506040805142815233602082015280820184905290517f10db2ba5699bf5dbd1070a0c0b207f229dc1ecb78bbe555b84cab3db9576ac429181900360600190a15090565b600160a060020a031660009081526001602052604090205490565b60045481565b600160a060020a038116600090815260056020526040812054610566906d04ee2d6d415b85acef8100000000906100e29061055a8661060a565b9063ffffffff61034d16565b92915050565b600054610595906100ee906100e2346d04ee2d6d415b85acef810000000063ffffffff61030216565b6004556003546105ab903463ffffffff61034d16565b60035560408051348152905133917fe3166012cb87b3dec8e117fe0e096a47387f94ea2ec12086ed8ae24ff8c237fe919081900360200190a2565b60056020526000908152604090205481565b60066020526000908152604090205481565b600160a060020a0381166000908152600660205260408120546004548291610638919063ffffffff61066c16565b600160a060020a03841660009081526001602052604090205490915061066590829063ffffffff61030216565b9392505050565b60008282111561067857fe5b509003905600a165627a7a723058209dcc5453cdafbb5bb930e6a23a25a207afe66d7a47eaf016dc73b626ba0045fa0029746f6b656e416464726573730000000000000000000000000000000000000000a165627a7a7230582089ed2a08c422d9ffa0ddcfd71875c6bfe23680bf5945a526833410f1764f49e70029",
  "source": "pragma solidity ^0.4.24;\n\nimport \"../math/SafeMath.sol\";\nimport \"../interfaces/DBInterface.sol\";\nimport '../database/Events.sol';\n// import \"../access/ERC20Burner.sol\";\nimport \"../tokens/erc20/DividendToken.sol\";\nimport \"../tokens/distribution/FixedDistribution.sol\";\n\n// @title An asset generator contract for onboarding existing real-world assets\n// @notice This contract creates ERC20 dividend tokens and give sthem to the _tokenHolders provided\n// @author Kyle Dewhurst, MyBit Foundation\ncontract AssetGenerator {\n  using SafeMath for uint256;\n\n  DBInterface private database;\n  Events private events;\n\n\n  // @notice This contract\n  // @param: The address for the database contract used by this platform\n  constructor(address _database, address _events)\n  public{\n      database = DBInterface(_database);\n      events = Events(_events);\n  }\n\n\n  // @notice users can on-board non-tradeable assets here\n  // @dev creates an ERC20 dividend token (tradeable) or distribution token (not-tradeable)\n  function createAsset(string _tokenURI, address _assetManager, address[] _tokenHolders, uint[] _amount)\n  external\n  // burnRequired\n  returns (bool) {\n    require(msg.sender == _assetManager || database.boolStorage(keccak256(abi.encodePacked(\"approval\", _assetManager, msg.sender, address(this), msg.sig))));\n    require (_tokenHolders.length == _amount.length && _tokenHolders.length <= 100);\n    bytes32 assetID = keccak256(abi.encodePacked(_assetManager, _tokenURI));\n    require(database.addressStorage(keccak256(abi.encodePacked(\"tokenAddress\", assetID))) == address(0));\n    FixedDistribution assetInstance = new FixedDistribution(_tokenURI, _tokenHolders, _amount);\n    database.setAddress(keccak256(abi.encodePacked(\"assetManager\", assetID)), _assetManager);\n    database.setAddress(keccak256(abi.encodePacked(\"tokenAddress\", assetID)), address(assetInstance));\n    //emit LogAssetCreated(assetID, address(assetInstance), _assetManager, _tokenURI);\n    events.asset('Asset created', _tokenURI, assetID, address(assetInstance), _assetManager);\n    return true;\n  }\n\n  // @notice users can on-board tradeable assets here\n  // @dev creates an ERC20 dividend token (tradeable) or\n  function createTradeableAsset(string _tokenURI, address _assetManager, address[] _tokenHolders, uint[] _amount)\n  external\n  // burnRequired\n  returns (bool) {\n    require(msg.sender == _assetManager || database.boolStorage(keccak256(abi.encodePacked(\"approval\", _assetManager, msg.sender, address(this), msg.sig))));\n    require (_tokenHolders.length == _amount.length && _tokenHolders.length <= uint8(100));\n    bytes32 assetID = keccak256(abi.encodePacked(_assetManager, _tokenURI));\n    require(database.addressStorage(keccak256(abi.encodePacked(\"tokenAddress\", assetID))) == address(0));\n    DividendToken assetInstance = new DividendToken(_tokenURI, address(this));   // Gives this contract all new asset tokens\n    for (uint8 i = 0; i < _tokenHolders.length; i++) {\n      assetInstance.mint(_tokenHolders[i], _amount[i]);\n    }\n    assetInstance.finishMinting();\n    database.setAddress(keccak256(abi.encodePacked(\"assetManager\", assetID)), _assetManager);\n    database.setAddress(keccak256(abi.encodePacked(\"tokenAddress\", assetID)), address(assetInstance));\n    //emit LogTradeableAssetCreated(assetID, address(assetInstance), _assetManager, _tokenURI);\n    events.asset('Tradeable asset created', _tokenURI, assetID, address(assetInstance), _assetManager);\n    return true;\n  }\n\n  // @notice platform owners can destroy contract here\n  function destroy()\n  onlyOwner\n  external {\n    events.transaction('AssetGenerator destroyed', address(this), msg.sender, address(this).balance, '');\n    selfdestruct(msg.sender);\n  }\n\n  // @notice reverts if user hasn't approved burner to burn platform token\n  // modifier burnRequired {\n  //   ERC20Burner burner = ERC20Burner(database.addressStorage(keccak256(abi.encodePacked(\"contract\", \"ERC20Burner\"))));\n  //   require(burner.burn(msg.sender, database.uintStorage(keccak256(abi.encodePacked(msg.sig, address(this))))));\n  //   _;\n  // }\n\n  // @notice Sender must be a registered owner\n  modifier onlyOwner {\n    require(database.boolStorage(keccak256(abi.encodePacked(\"owner\", msg.sender))), \"Not owner\");\n    _;\n  }\n\n\n  //event LogAssetCreated(bytes32 indexed _assetID, address indexed _tokenAddress, address indexed _assetManager, string _tokenURI);\n  //event LogTradeableAssetCreated(bytes32 indexed _assetID, address indexed _tokenAddress, address indexed _assetManager, string _tokenURI);\n\n\n}\n",
  "sourcePath": "/home/peter/Documents/Work/MyBit/MyBit-Network.tech/contracts/ecosystem/AssetGenerator.sol",
  "compiler": {
    "name": "solc",
    "version": "0.4.24+commit.e67f0147.Emscripten.clang"
  },
  "schemaVersion": "2.0.1",
  "updatedAt": "2018-12-03T18:35:12.129Z"
}