{
  "contractName": "AssetGenerator",
  "abi": [
    {
      "inputs": [
        {
          "name": "_database",
          "type": "address"
        }
      ],
      "payable": false,
      "stateMutability": "nonpayable",
      "type": "constructor"
    },
    {
      "anonymous": false,
      "inputs": [
        {
          "indexed": true,
          "name": "_assetID",
          "type": "bytes32"
        },
        {
          "indexed": true,
          "name": "_tokenAddress",
          "type": "address"
        },
        {
          "indexed": true,
          "name": "_assetManager",
          "type": "address"
        },
        {
          "indexed": false,
          "name": "_tokenURI",
          "type": "string"
        }
      ],
      "name": "LogAssetCreated",
      "type": "event"
    },
    {
      "anonymous": false,
      "inputs": [
        {
          "indexed": true,
          "name": "_assetID",
          "type": "bytes32"
        },
        {
          "indexed": true,
          "name": "_tokenAddress",
          "type": "address"
        },
        {
          "indexed": true,
          "name": "_assetManager",
          "type": "address"
        },
        {
          "indexed": false,
          "name": "_tokenURI",
          "type": "string"
        }
      ],
      "name": "LogTradeableAssetCreated",
      "type": "event"
    },
    {
      "constant": false,
      "inputs": [
        {
          "name": "_tokenURI",
          "type": "string"
        },
        {
          "name": "_tokenHolders",
          "type": "address[]"
        },
        {
          "name": "_amount",
          "type": "uint256[]"
        }
      ],
      "name": "createAsset",
      "outputs": [
        {
          "name": "",
          "type": "bool"
        }
      ],
      "payable": false,
      "stateMutability": "nonpayable",
      "type": "function"
    },
    {
      "constant": false,
      "inputs": [
        {
          "name": "_tokenURI",
          "type": "string"
        },
        {
          "name": "_tokenHolders",
          "type": "address[]"
        },
        {
          "name": "_amount",
          "type": "uint256[]"
        }
      ],
      "name": "createTradeableAsset",
      "outputs": [
        {
          "name": "",
          "type": "bool"
        }
      ],
      "payable": false,
      "stateMutability": "nonpayable",
      "type": "function"
    }
  ],
  "bytecode": "0x608060405234801561001057600080fd5b506040516020806151b583398101806040528101908080519060200190929190505050806000806101000a81548173ffffffffffffffffffffffffffffffffffffffff021916908373ffffffffffffffffffffffffffffffffffffffff16021790555050615132806100836000396000f3006080604052600436106200004f576000357c0100000000000000000000000000000000000000000000000000000000900463ffffffff1680634e38c7f41462000054578063d23efae714620000da575b600080fd5b3480156200006157600080fd5b50620000c060048036038101908080359060200190820180359060200191909192939192939080359060200190820180359060200191909192939192939080359060200190820180359060200191909192939192939050505062000160565b604051808215151515815260200191505060405180910390f35b348015620000e757600080fd5b50620001466004803603810190808035906020019082018035906020019190919293919293908035906020019082018035906020019190919293919293908035906020019082018035906020019190919293919293905050506200108f565b604051808215151515815260200191505060405180910390f35b6000806000806000806000809054906101000a900473ffffffffffffffffffffffffffffffffffffffff1673ffffffffffffffffffffffffffffffffffffffff166304f49a3a60405160200180807f636f6e7472616374000000000000000000000000000000000000000000000000815250600801807f45524332304275726e6572000000000000000000000000000000000000000000815250600b0190506040516020818303038152906040526040518082805190602001908083835b6020831015156200024557805182526020820191506020810190506020830392506200021e565b6001836020036101000a03801982511681845116808217855250505050505090500191505060405180910390206040518263ffffffff167c0100000000000000000000000000000000000000000000000000000000028152600401808260001916600019168152602001915050602060405180830381600087803b158015620002cd57600080fd5b505af1158015620002e2573d6000803e3d6000fd5b505050506040513d6020811015620002f957600080fd5b810190808051906020019092919050505090508073ffffffffffffffffffffffffffffffffffffffff16639dc29fac336000809054906101000a900473ffffffffffffffffffffffffffffffffffffffff1673ffffffffffffffffffffffffffffffffffffffff1663a855d4ce6000357fffffffff00000000000000000000000000000000000000000000000000000000163060405160200180837bffffffffffffffffffffffffffffffffffffffffffffffffffffffff19167bffffffffffffffffffffffffffffffffffffffffffffffffffffffff191681526004018273ffffffffffffffffffffffffffffffffffffffff1673ffffffffffffffffffffffffffffffffffffffff166c01000000000000000000000000028152601401925050506040516020818303038152906040526040518082805190602001908083835b6020831015156200046257805182526020820191506020810190506020830392506200043b565b6001836020036101000a03801982511681845116808217855250505050505090500191505060405180910390206040518263ffffffff167c0100000000000000000000000000000000000000000000000000000000028152600401808260001916600019168152602001915050602060405180830381600087803b158015620004ea57600080fd5b505af1158015620004ff573d6000803e3d6000fd5b505050506040513d60208110156200051657600080fd5b81019080805190602001909291905050506040518363ffffffff167c0100000000000000000000000000000000000000000000000000000000028152600401808373ffffffffffffffffffffffffffffffffffffffff1673ffffffffffffffffffffffffffffffffffffffff16815260200182815260200192505050602060405180830381600087803b158015620005ad57600080fd5b505af1158015620005c2573d6000803e3d6000fd5b505050506040513d6020811015620005d957600080fd5b81019080805190602001909291905050501515620005f657600080fd5b878790508a8a905014801562000613575060c860ff168a8a905011155b15156200061f57600080fd5b6000809054906101000a900473ffffffffffffffffffffffffffffffffffffffff1673ffffffffffffffffffffffffffffffffffffffff166304f49a3a60405160200180807f636f6e7472616374000000000000000000000000000000000000000000000000815250600801807f417373657447656e657261746f72000000000000000000000000000000000000815250600e0190506040516020818303038152906040526040518082805190602001908083835b602083101515620006fb5780518252602082019150602081019050602083039250620006d4565b6001836020036101000a03801982511681845116808217855250505050505090500191505060405180910390206040518263ffffffff167c0100000000000000000000000000000000000000000000000000000000028152600401808260001916600019168152602001915050602060405180830381600087803b1580156200078357600080fd5b505af115801562000798573d6000803e3d6000fd5b505050506040513d6020811015620007af57600080fd5b81019080805190602001909291905050509450338c8c604051602001808473ffffffffffffffffffffffffffffffffffffffff1673ffffffffffffffffffffffffffffffffffffffff166c01000000000000000000000000028152601401838380828437820191505093505050506040516020818303038152906040526040518082805190602001908083835b6020831015156200086357805182526020820191506020810190506020830392506200083c565b6001836020036101000a03801982511681845116808217855250505050505090500191505060405180910390209350600073ffffffffffffffffffffffffffffffffffffffff166000809054906101000a900473ffffffffffffffffffffffffffffffffffffffff1673ffffffffffffffffffffffffffffffffffffffff166304f49a3a8660405160200180807f746f6b656e416464726573730000000000000000000000000000000000000000815250600c0182600019166000191681526020019150506040516020818303038152906040526040518082805190602001908083835b6020831015156200096e578051825260208201915060208101905060208303925062000947565b6001836020036101000a03801982511681845116808217855250505050505090500191505060405180910390206040518263ffffffff167c0100000000000000000000000000000000000000000000000000000000028152600401808260001916600019168152602001915050602060405180830381600087803b158015620009f657600080fd5b505af115801562000a0b573d6000803e3d6000fd5b505050506040513d602081101562000a2257600080fd5b810190808051906020019092919050505073ffffffffffffffffffffffffffffffffffffffff1614151562000a5657600080fd5b8b8b8662000a6362001c3c565b80806020018373ffffffffffffffffffffffffffffffffffffffff1673ffffffffffffffffffffffffffffffffffffffff16815260200182810382528585828181526020019250808284378201915050945050505050604051809103906000f08015801562000ad6573d6000803e3d6000fd5b509250600091505b898990508260ff16101562000c23578273ffffffffffffffffffffffffffffffffffffffff166340c10f198b8b8560ff16818110151562000b1b57fe5b9050602002013573ffffffffffffffffffffffffffffffffffffffff168a8a8660ff16818110151562000b4a57fe5b905060200201356040518363ffffffff167c0100000000000000000000000000000000000000000000000000000000028152600401808373ffffffffffffffffffffffffffffffffffffffff1673ffffffffffffffffffffffffffffffffffffffff16815260200182815260200192505050602060405180830381600087803b15801562000bd757600080fd5b505af115801562000bec573d6000803e3d6000fd5b505050506040513d602081101562000c0357600080fd5b810190808051906020019092919050505050818060010192505062000ade565b8273ffffffffffffffffffffffffffffffffffffffff16637d64bcb46040518163ffffffff167c0100000000000000000000000000000000000000000000000000000000028152600401602060405180830381600087803b15801562000c8857600080fd5b505af115801562000c9d573d6000803e3d6000fd5b505050506040513d602081101562000cb457600080fd5b8101908080519060200190929190505050506000809054906101000a900473ffffffffffffffffffffffffffffffffffffffff1673ffffffffffffffffffffffffffffffffffffffff1663ca446dd98560405160200180807f61737365744d616e616765720000000000000000000000000000000000000000815250600c0182600019166000191681526020019150506040516020818303038152906040526040518082805190602001908083835b60208310151562000d8a578051825260208201915060208101905060208303925062000d63565b6001836020036101000a0380198251168184511680821785525050505050509050019150506040518091039020336040518363ffffffff167c01000000000000000000000000000000000000000000000000000000000281526004018083600019166000191681526020018273ffffffffffffffffffffffffffffffffffffffff1673ffffffffffffffffffffffffffffffffffffffff16815260200192505050600060405180830381600087803b15801562000e4657600080fd5b505af115801562000e5b573d6000803e3d6000fd5b505050506000809054906101000a900473ffffffffffffffffffffffffffffffffffffffff1673ffffffffffffffffffffffffffffffffffffffff1663ca446dd98560405160200180807f746f6b656e416464726573730000000000000000000000000000000000000000815250600c0182600019166000191681526020019150506040516020818303038152906040526040518082805190602001908083835b60208310151562000f23578051825260208201915060208101905060208303925062000efc565b6001836020036101000a0380198251168184511680821785525050505050509050019150506040518091039020856040518363ffffffff167c01000000000000000000000000000000000000000000000000000000000281526004018083600019166000191681526020018273ffffffffffffffffffffffffffffffffffffffff1673ffffffffffffffffffffffffffffffffffffffff16815260200192505050600060405180830381600087803b15801562000fdf57600080fd5b505af115801562000ff4573d6000803e3d6000fd5b505050503373ffffffffffffffffffffffffffffffffffffffff168373ffffffffffffffffffffffffffffffffffffffff1685600019167f67a61b275343875f302606bdd88f1f480a8b1fc95ab9f16d3ac55dfaaef9ad368f8f604051808060200182810382528484828181526020019250808284378201915050935050505060405180910390a46001955050505050509695505050505050565b6000806000806000809054906101000a900473ffffffffffffffffffffffffffffffffffffffff1673ffffffffffffffffffffffffffffffffffffffff166304f49a3a60405160200180807f636f6e7472616374000000000000000000000000000000000000000000000000815250600801807f45524332304275726e6572000000000000000000000000000000000000000000815250600b0190506040516020818303038152906040526040518082805190602001908083835b6020831015156200117157805182526020820191506020810190506020830392506200114a565b6001836020036101000a03801982511681845116808217855250505050505090500191505060405180910390206040518263ffffffff167c0100000000000000000000000000000000000000000000000000000000028152600401808260001916600019168152602001915050602060405180830381600087803b158015620011f957600080fd5b505af11580156200120e573d6000803e3d6000fd5b505050506040513d60208110156200122557600080fd5b810190808051906020019092919050505090508073ffffffffffffffffffffffffffffffffffffffff16639dc29fac336000809054906101000a900473ffffffffffffffffffffffffffffffffffffffff1673ffffffffffffffffffffffffffffffffffffffff1663a855d4ce6000357fffffffff00000000000000000000000000000000000000000000000000000000163060405160200180837bffffffffffffffffffffffffffffffffffffffffffffffffffffffff19167bffffffffffffffffffffffffffffffffffffffffffffffffffffffff191681526004018273ffffffffffffffffffffffffffffffffffffffff1673ffffffffffffffffffffffffffffffffffffffff166c01000000000000000000000000028152601401925050506040516020818303038152906040526040518082805190602001908083835b6020831015156200138e578051825260208201915060208101905060208303925062001367565b6001836020036101000a03801982511681845116808217855250505050505090500191505060405180910390206040518263ffffffff167c0100000000000000000000000000000000000000000000000000000000028152600401808260001916600019168152602001915050602060405180830381600087803b1580156200141657600080fd5b505af11580156200142b573d6000803e3d6000fd5b505050506040513d60208110156200144257600080fd5b81019080805190602001909291905050506040518363ffffffff167c0100000000000000000000000000000000000000000000000000000000028152600401808373ffffffffffffffffffffffffffffffffffffffff1673ffffffffffffffffffffffffffffffffffffffff16815260200182815260200192505050602060405180830381600087803b158015620014d957600080fd5b505af1158015620014ee573d6000803e3d6000fd5b505050506040513d60208110156200150557600080fd5b810190808051906020019092919050505015156200152257600080fd5b85859050888890501480156200153c575060c88888905011155b15156200154857600080fd5b338a8a604051602001808473ffffffffffffffffffffffffffffffffffffffff1673ffffffffffffffffffffffffffffffffffffffff166c01000000000000000000000000028152601401838380828437820191505093505050506040516020818303038152906040526040518082805190602001908083835b602083101515620015e95780518252602082019150602081019050602083039250620015c2565b6001836020036101000a03801982511681845116808217855250505050505090500191505060405180910390209250600073ffffffffffffffffffffffffffffffffffffffff166000809054906101000a900473ffffffffffffffffffffffffffffffffffffffff1673ffffffffffffffffffffffffffffffffffffffff166304f49a3a8560405160200180807f746f6b656e416464726573730000000000000000000000000000000000000000815250600c0182600019166000191681526020019150506040516020818303038152906040526040518082805190602001908083835b602083101515620016f45780518252602082019150602081019050602083039250620016cd565b6001836020036101000a03801982511681845116808217855250505050505090500191505060405180910390206040518263ffffffff167c0100000000000000000000000000000000000000000000000000000000028152600401808260001916600019168152602001915050602060405180830381600087803b1580156200177c57600080fd5b505af115801562001791573d6000803e3d6000fd5b505050506040513d6020811015620017a857600080fd5b810190808051906020019092919050505073ffffffffffffffffffffffffffffffffffffffff16141515620017dc57600080fd5b898989898989620017ec62001c4d565b8080602001806020018060200184810384528a8a82818152602001925080828437820191505084810383528888828181526020019250602002808284378201915050848103825286868281815260200192506020028082843782019150509950505050505050505050604051809103906000f08015801562001872573d6000803e3d6000fd5b5091506000809054906101000a900473ffffffffffffffffffffffffffffffffffffffff1673ffffffffffffffffffffffffffffffffffffffff1663ca446dd98460405160200180807f61737365744d616e616765720000000000000000000000000000000000000000815250600c0182600019166000191681526020019150506040516020818303038152906040526040518082805190602001908083835b60208310151562001939578051825260208201915060208101905060208303925062001912565b6001836020036101000a0380198251168184511680821785525050505050509050019150506040518091039020336040518363ffffffff167c01000000000000000000000000000000000000000000000000000000000281526004018083600019166000191681526020018273ffffffffffffffffffffffffffffffffffffffff1673ffffffffffffffffffffffffffffffffffffffff16815260200192505050600060405180830381600087803b158015620019f557600080fd5b505af115801562001a0a573d6000803e3d6000fd5b505050506000809054906101000a900473ffffffffffffffffffffffffffffffffffffffff1673ffffffffffffffffffffffffffffffffffffffff1663ca446dd98460405160200180807f746f6b656e416464726573730000000000000000000000000000000000000000815250600c0182600019166000191681526020019150506040516020818303038152906040526040518082805190602001908083835b60208310151562001ad2578051825260208201915060208101905060208303925062001aab565b6001836020036101000a0380198251168184511680821785525050505050509050019150506040518091039020846040518363ffffffff167c01000000000000000000000000000000000000000000000000000000000281526004018083600019166000191681526020018273ffffffffffffffffffffffffffffffffffffffff1673ffffffffffffffffffffffffffffffffffffffff16815260200192505050600060405180830381600087803b15801562001b8e57600080fd5b505af115801562001ba3573d6000803e3d6000fd5b505050503373ffffffffffffffffffffffffffffffffffffffff168273ffffffffffffffffffffffffffffffffffffffff1684600019167f155cd877f57604989b43a61db1318dff719e72e7e56075a3f04b5fc35301e95b8d8d604051808060200182810382528484828181526020019250808284378201915050935050505060405180910390a4600193505050509695505050505050565b6040516127268062001c5f83390190565b604051610d82806200438583390190560060806040523480156200001157600080fd5b5060405162002726380380620027268339810180604052810190808051820192919060200180519060200190929190505050818181600490805190602001906200005d929190620000b1565b5080600360016101000a81548173ffffffffffffffffffffffffffffffffffffffff021916908373ffffffffffffffffffffffffffffffffffffffff16021790555060006002819055505050505062000160565b828054600181600116156101000203166002900490600052602060002090601f016020900481019282601f10620000f457805160ff191683800117855562000125565b8280016001018555821562000125579182015b828111156200012457825182559160200191906001019062000107565b5b50905062000134919062000138565b5090565b6200015d91905b80821115620001595760008160009055506001016200013f565b5090565b90565b6125b680620001706000396000f300608060405260043610610112576000357c0100000000000000000000000000000000000000000000000000000000900463ffffffff168063095ea7b3146101cc57806318160ddd1461023157806323b872dd1461025c5780632ba1b3a1146102e15780633bdfa9201461030c5780633ccfd60b1461036357806340c10f19146103925780634ece90a8146103f7578063661884631461044e57806370a08231146104b35780637d64bcb41461050a578063a8fa8e5214610539578063a9059cbb14610564578063b5a83d43146105c9578063cae9ca5114610620578063d4a19116146106cb578063d73dd6231461075b578063dd62ed3e146107c0578063eba74e5c14610837578063efcb5dea14610859575b610127346006546108b090919063ffffffff16565b6006819055506101766101656002546101576d04ee2d6d415b85acef8100000000346108ce90919063ffffffff16565b61090990919063ffffffff16565b6005546108b090919063ffffffff16565b6005819055503373ffffffffffffffffffffffffffffffffffffffff167fe3166012cb87b3dec8e117fe0e096a47387f94ea2ec12086ed8ae24ff8c237fe346040518082815260200191505060405180910390a2005b3480156101d857600080fd5b50610217600480360381019080803573ffffffffffffffffffffffffffffffffffffffff1690602001909291908035906020019092919050505061091f565b604051808215151515815260200191505060405180910390f35b34801561023d57600080fd5b50610246610a11565b6040518082815260200191505060405180910390f35b34801561026857600080fd5b506102c7600480360381019080803573ffffffffffffffffffffffffffffffffffffffff169060200190929190803573ffffffffffffffffffffffffffffffffffffffff16906020019092919080359060200190929190505050610a1b565b604051808215151515815260200191505060405180910390f35b3480156102ed57600080fd5b506102f6610c39565b6040518082815260200191505060405180910390f35b34801561031857600080fd5b5061034d600480360381019080803573ffffffffffffffffffffffffffffffffffffffff169060200190929190505050610c3f565b6040518082815260200191505060405180910390f35b34801561036f57600080fd5b50610378610cc2565b604051808215151515815260200191505060405180910390f35b34801561039e57600080fd5b506103dd600480360381019080803573ffffffffffffffffffffffffffffffffffffffff16906020019092919080359060200190929190505050610f09565b604051808215151515815260200191505060405180910390f35b34801561040357600080fd5b5061040c6110ec565b604051808273ffffffffffffffffffffffffffffffffffffffff1673ffffffffffffffffffffffffffffffffffffffff16815260200191505060405180910390f35b34801561045a57600080fd5b50610499600480360381019080803573ffffffffffffffffffffffffffffffffffffffff169060200190929190803590602001909291905050506110f4565b604051808215151515815260200191505060405180910390f35b3480156104bf57600080fd5b506104f4600480360381019080803573ffffffffffffffffffffffffffffffffffffffff169060200190929190505050611386565b6040518082815260200191505060405180910390f35b34801561051657600080fd5b5061051f6113ce565b604051808215151515815260200191505060405180910390f35b34801561054557600080fd5b5061054e611493565b6040518082815260200191505060405180910390f35b34801561057057600080fd5b506105af600480360381019080803573ffffffffffffffffffffffffffffffffffffffff16906020019092919080359060200190929190505050611499565b604051808215151515815260200191505060405180910390f35b3480156105d557600080fd5b5061060a600480360381019080803573ffffffffffffffffffffffffffffffffffffffff1690602001909291905050506116b5565b6040518082815260200191505060405180910390f35b34801561062c57600080fd5b506106b1600480360381019080803573ffffffffffffffffffffffffffffffffffffffff16906020019092919080359060200190929190803590602001908201803590602001908080601f01602080910402602001604051908101604052809392919081815260200183838082843782019150505050505091929192905050506116cd565b604051808215151515815260200191505060405180910390f35b3480156106d757600080fd5b506106e0611ae6565b6040518080602001828103825283818151815260200191508051906020019080838360005b83811015610720578082015181840152602081019050610705565b50505050905090810190601f16801561074d5780820380516001836020036101000a031916815260200191505b509250505060405180910390f35b34801561076757600080fd5b506107a6600480360381019080803573ffffffffffffffffffffffffffffffffffffffff16906020019092919080359060200190929190505050611b88565b604051808215151515815260200191505060405180910390f35b3480156107cc57600080fd5b50610821600480360381019080803573ffffffffffffffffffffffffffffffffffffffff169060200190929190803573ffffffffffffffffffffffffffffffffffffffff169060200190929190505050611d84565b6040518082815260200191505060405180910390f35b61083f611e0b565b604051808215151515815260200191505060405180910390f35b34801561086557600080fd5b5061089a600480360381019080803573ffffffffffffffffffffffffffffffffffffffff169060200190929190505050611ecc565b6040518082815260200191505060405180910390f35b60008082840190508381101515156108c457fe5b8091505092915050565b60008060008414156108e35760009150610902565b82840290508284828115156108f457fe5b041415156108fe57fe5b8091505b5092915050565b6000818381151561091657fe5b04905092915050565b600081600160003373ffffffffffffffffffffffffffffffffffffffff1673ffffffffffffffffffffffffffffffffffffffff16815260200190815260200160002060008573ffffffffffffffffffffffffffffffffffffffff1673ffffffffffffffffffffffffffffffffffffffff168152602001908152602001600020819055508273ffffffffffffffffffffffffffffffffffffffff163373ffffffffffffffffffffffffffffffffffffffff167f8c5be1e5ebec7d5bd14f71427d1e84f3dd0314c0f7b2291e5b200ac8c7c3b925846040518082815260200191505060405180910390a36001905092915050565b6000600254905090565b600083610a78610a2a82611ee4565b600760008473ffffffffffffffffffffffffffffffffffffffff1673ffffffffffffffffffffffffffffffffffffffff168152602001908152602001600020546108b090919063ffffffff16565b600760008373ffffffffffffffffffffffffffffffffffffffff1673ffffffffffffffffffffffffffffffffffffffff16815260200190815260200160002081905550600554600860008373ffffffffffffffffffffffffffffffffffffffff1673ffffffffffffffffffffffffffffffffffffffff1681526020019081526020016000208190555083610b5c610b0e82611ee4565b600760008473ffffffffffffffffffffffffffffffffffffffff1673ffffffffffffffffffffffffffffffffffffffff168152602001908152602001600020546108b090919063ffffffff16565b600760008373ffffffffffffffffffffffffffffffffffffffff1673ffffffffffffffffffffffffffffffffffffffff16815260200190815260200160002081905550600554600860008373ffffffffffffffffffffffffffffffffffffffff1673ffffffffffffffffffffffffffffffffffffffff168152602001908152602001600020819055503073ffffffffffffffffffffffffffffffffffffffff168573ffffffffffffffffffffffffffffffffffffffff1614151515610c2057600080fd5b610c2b868686611f96565b506001925050509392505050565b60065481565b6000610cbb6d04ee2d6d415b85acef8100000000610cad600760008673ffffffffffffffffffffffffffffffffffffffff1673ffffffffffffffffffffffffffffffffffffffff16815260200190815260200160002054610c9f86611ee4565b6108b090919063ffffffff16565b61090990919063ffffffff16565b9050919050565b60008033610d20610cd282611ee4565b600760008473ffffffffffffffffffffffffffffffffffffffff1673ffffffffffffffffffffffffffffffffffffffff168152602001908152602001600020546108b090919063ffffffff16565b600760008373ffffffffffffffffffffffffffffffffffffffff1673ffffffffffffffffffffffffffffffffffffffff16815260200190815260200160002081905550600554600860008373ffffffffffffffffffffffffffffffffffffffff1673ffffffffffffffffffffffffffffffffffffffff16815260200190815260200160002081905550610e096d04ee2d6d415b85acef8100000000600760003373ffffffffffffffffffffffffffffffffffffffff1673ffffffffffffffffffffffffffffffffffffffff1681526020019081526020016000205461090990919063ffffffff16565b9150600760003373ffffffffffffffffffffffffffffffffffffffff1673ffffffffffffffffffffffffffffffffffffffff168152602001908152602001600020600090557ff5b510c554f6c572235f7e531ec8f287b350b15c212250b993180473a6aeb7d13383604051808373ffffffffffffffffffffffffffffffffffffffff1673ffffffffffffffffffffffffffffffffffffffff1681526020018281526020019250505060405180910390a13373ffffffffffffffffffffffffffffffffffffffff166108fc839081150290604051600060405180830381858888f19350505050158015610eff573d6000803e3d6000fd5b5060019250505090565b6000600360009054906101000a900460ff16158015610f755750600360019054906101000a900473ffffffffffffffffffffffffffffffffffffffff1673ffffffffffffffffffffffffffffffffffffffff163373ffffffffffffffffffffffffffffffffffffffff16145b1515610f8057600080fd5b610f95826002546108b090919063ffffffff16565b600281905550610fec826000808673ffffffffffffffffffffffffffffffffffffffff1673ffffffffffffffffffffffffffffffffffffffff168152602001908152602001600020546108b090919063ffffffff16565b6000808573ffffffffffffffffffffffffffffffffffffffff1673ffffffffffffffffffffffffffffffffffffffff168152602001908152602001600020819055508273ffffffffffffffffffffffffffffffffffffffff167f0f6798a560793a54c3bcfe86a93cde1e73087d944c0ea20544137d4121396885836040518082815260200191505060405180910390a28273ffffffffffffffffffffffffffffffffffffffff16600073ffffffffffffffffffffffffffffffffffffffff167fddf252ad1be2c89b69c2b068fc378daa952ba7f163c4a11628f55a4df523b3ef846040518082815260200191505060405180910390a36001905092915050565b600080905090565b600080600160003373ffffffffffffffffffffffffffffffffffffffff1673ffffffffffffffffffffffffffffffffffffffff16815260200190815260200160002060008573ffffffffffffffffffffffffffffffffffffffff1673ffffffffffffffffffffffffffffffffffffffff1681526020019081526020016000205490508083101515611206576000600160003373ffffffffffffffffffffffffffffffffffffffff1673ffffffffffffffffffffffffffffffffffffffff16815260200190815260200160002060008673ffffffffffffffffffffffffffffffffffffffff1673ffffffffffffffffffffffffffffffffffffffff1681526020019081526020016000208190555061129a565b611219838261235190919063ffffffff16565b600160003373ffffffffffffffffffffffffffffffffffffffff1673ffffffffffffffffffffffffffffffffffffffff16815260200190815260200160002060008673ffffffffffffffffffffffffffffffffffffffff1673ffffffffffffffffffffffffffffffffffffffff168152602001908152602001600020819055505b8373ffffffffffffffffffffffffffffffffffffffff163373ffffffffffffffffffffffffffffffffffffffff167f8c5be1e5ebec7d5bd14f71427d1e84f3dd0314c0f7b2291e5b200ac8c7c3b925600160003373ffffffffffffffffffffffffffffffffffffffff1673ffffffffffffffffffffffffffffffffffffffff16815260200190815260200160002060008873ffffffffffffffffffffffffffffffffffffffff1673ffffffffffffffffffffffffffffffffffffffff168152602001908152602001600020546040518082815260200191505060405180910390a3600191505092915050565b60008060008373ffffffffffffffffffffffffffffffffffffffff1673ffffffffffffffffffffffffffffffffffffffff168152602001908152602001600020549050919050565b6000600360009054906101000a900460ff1615801561143a5750600360019054906101000a900473ffffffffffffffffffffffffffffffffffffffff1673ffffffffffffffffffffffffffffffffffffffff163373ffffffffffffffffffffffffffffffffffffffff16145b151561144557600080fd5b6001600360006101000a81548160ff0219169083151502179055507fae5184fba832cb2b1f702aca6117b8d265eaf03ad33eb133f19dde0f5920fa0860405160405180910390a16001905090565b60055481565b6000336114f66114a882611ee4565b600760008473ffffffffffffffffffffffffffffffffffffffff1673ffffffffffffffffffffffffffffffffffffffff168152602001908152602001600020546108b090919063ffffffff16565b600760008373ffffffffffffffffffffffffffffffffffffffff1673ffffffffffffffffffffffffffffffffffffffff16815260200190815260200160002081905550600554600860008373ffffffffffffffffffffffffffffffffffffffff1673ffffffffffffffffffffffffffffffffffffffff16815260200190815260200160002081905550836115da61158c82611ee4565b600760008473ffffffffffffffffffffffffffffffffffffffff1673ffffffffffffffffffffffffffffffffffffffff168152602001908152602001600020546108b090919063ffffffff16565b600760008373ffffffffffffffffffffffffffffffffffffffff1673ffffffffffffffffffffffffffffffffffffffff16815260200190815260200160002081905550600554600860008373ffffffffffffffffffffffffffffffffffffffff1673ffffffffffffffffffffffffffffffffffffffff168152602001908152602001600020819055503073ffffffffffffffffffffffffffffffffffffffff168573ffffffffffffffffffffffffffffffffffffffff161415151561169e57600080fd5b6116a8858561236a565b5060019250505092915050565b60076020528060005260406000206000915090505481565b60003361172a6116dc82611ee4565b600760008473ffffffffffffffffffffffffffffffffffffffff1673ffffffffffffffffffffffffffffffffffffffff168152602001908152602001600020546108b090919063ffffffff16565b600760008373ffffffffffffffffffffffffffffffffffffffff1673ffffffffffffffffffffffffffffffffffffffff16815260200190815260200160002081905550600554600860008373ffffffffffffffffffffffffffffffffffffffff1673ffffffffffffffffffffffffffffffffffffffff168152602001908152602001600020819055508461180e6117c082611ee4565b600760008473ffffffffffffffffffffffffffffffffffffffff1673ffffffffffffffffffffffffffffffffffffffff168152602001908152602001600020546108b090919063ffffffff16565b600760008373ffffffffffffffffffffffffffffffffffffffff1673ffffffffffffffffffffffffffffffffffffffff16815260200190815260200160002081905550600554600860008373ffffffffffffffffffffffffffffffffffffffff1673ffffffffffffffffffffffffffffffffffffffff1681526020019081526020016000208190555084600160003373ffffffffffffffffffffffffffffffffffffffff1673ffffffffffffffffffffffffffffffffffffffff16815260200190815260200160002060008873ffffffffffffffffffffffffffffffffffffffff1673ffffffffffffffffffffffffffffffffffffffff168152602001908152602001600020819055508573ffffffffffffffffffffffffffffffffffffffff163373ffffffffffffffffffffffffffffffffffffffff167f8c5be1e5ebec7d5bd14f71427d1e84f3dd0314c0f7b2291e5b200ac8c7c3b925876040518082815260200191505060405180910390a38573ffffffffffffffffffffffffffffffffffffffff16638f4ffcb1338730886040518563ffffffff167c0100000000000000000000000000000000000000000000000000000000028152600401808573ffffffffffffffffffffffffffffffffffffffff1673ffffffffffffffffffffffffffffffffffffffff1681526020018481526020018373ffffffffffffffffffffffffffffffffffffffff1673ffffffffffffffffffffffffffffffffffffffff16815260200180602001828103825283818151815260200191508051906020019080838360005b83811015611a72578082015181840152602081019050611a57565b50505050905090810190601f168015611a9f5780820380516001836020036101000a031916815260200191505b5095505050505050600060405180830381600087803b158015611ac157600080fd5b505af1158015611ad5573d6000803e3d6000fd5b505050506001925050509392505050565b606060048054600181600116156101000203166002900480601f016020809104026020016040519081016040528092919081815260200182805460018160011615610100020316600290048015611b7e5780601f10611b5357610100808354040283529160200191611b7e565b820191906000526020600020905b815481529060010190602001808311611b6157829003601f168201915b5050505050905090565b6000611c1982600160003373ffffffffffffffffffffffffffffffffffffffff1673ffffffffffffffffffffffffffffffffffffffff16815260200190815260200160002060008673ffffffffffffffffffffffffffffffffffffffff1673ffffffffffffffffffffffffffffffffffffffff168152602001908152602001600020546108b090919063ffffffff16565b600160003373ffffffffffffffffffffffffffffffffffffffff1673ffffffffffffffffffffffffffffffffffffffff16815260200190815260200160002060008573ffffffffffffffffffffffffffffffffffffffff1673ffffffffffffffffffffffffffffffffffffffff168152602001908152602001600020819055508273ffffffffffffffffffffffffffffffffffffffff163373ffffffffffffffffffffffffffffffffffffffff167f8c5be1e5ebec7d5bd14f71427d1e84f3dd0314c0f7b2291e5b200ac8c7c3b925600160003373ffffffffffffffffffffffffffffffffffffffff1673ffffffffffffffffffffffffffffffffffffffff16815260200190815260200160002060008773ffffffffffffffffffffffffffffffffffffffff1673ffffffffffffffffffffffffffffffffffffffff168152602001908152602001600020546040518082815260200191505060405180910390a36001905092915050565b6000600160008473ffffffffffffffffffffffffffffffffffffffff1673ffffffffffffffffffffffffffffffffffffffff16815260200190815260200160002060008373ffffffffffffffffffffffffffffffffffffffff1673ffffffffffffffffffffffffffffffffffffffff16815260200190815260200160002054905092915050565b6000611e22346006546108b090919063ffffffff16565b600681905550611e71611e60600254611e526d04ee2d6d415b85acef8100000000346108ce90919063ffffffff16565b61090990919063ffffffff16565b6005546108b090919063ffffffff16565b6005819055503373ffffffffffffffffffffffffffffffffffffffff167fe3166012cb87b3dec8e117fe0e096a47387f94ea2ec12086ed8ae24ff8c237fe346040518082815260200191505060405180910390a26001905090565b60086020528060005260406000206000915090505481565b600080611f3b600860008573ffffffffffffffffffffffffffffffffffffffff1673ffffffffffffffffffffffffffffffffffffffff1681526020019081526020016000205460055461235190919063ffffffff16565b9050611f8e6000808573ffffffffffffffffffffffffffffffffffffffff1673ffffffffffffffffffffffffffffffffffffffff16815260200190815260200160002054826108ce90919063ffffffff16565b915050919050565b60008060008573ffffffffffffffffffffffffffffffffffffffff1673ffffffffffffffffffffffffffffffffffffffff168152602001908152602001600020548211151515611fe557600080fd5b600160008573ffffffffffffffffffffffffffffffffffffffff1673ffffffffffffffffffffffffffffffffffffffff16815260200190815260200160002060003373ffffffffffffffffffffffffffffffffffffffff1673ffffffffffffffffffffffffffffffffffffffff16815260200190815260200160002054821115151561207057600080fd5b600073ffffffffffffffffffffffffffffffffffffffff168373ffffffffffffffffffffffffffffffffffffffff16141515156120ac57600080fd5b6120fd826000808773ffffffffffffffffffffffffffffffffffffffff1673ffffffffffffffffffffffffffffffffffffffff1681526020019081526020016000205461235190919063ffffffff16565b6000808673ffffffffffffffffffffffffffffffffffffffff1673ffffffffffffffffffffffffffffffffffffffff16815260200190815260200160002081905550612190826000808673ffffffffffffffffffffffffffffffffffffffff1673ffffffffffffffffffffffffffffffffffffffff168152602001908152602001600020546108b090919063ffffffff16565b6000808573ffffffffffffffffffffffffffffffffffffffff1673ffffffffffffffffffffffffffffffffffffffff1681526020019081526020016000208190555061226182600160008773ffffffffffffffffffffffffffffffffffffffff1673ffffffffffffffffffffffffffffffffffffffff16815260200190815260200160002060003373ffffffffffffffffffffffffffffffffffffffff1673ffffffffffffffffffffffffffffffffffffffff1681526020019081526020016000205461235190919063ffffffff16565b600160008673ffffffffffffffffffffffffffffffffffffffff1673ffffffffffffffffffffffffffffffffffffffff16815260200190815260200160002060003373ffffffffffffffffffffffffffffffffffffffff1673ffffffffffffffffffffffffffffffffffffffff168152602001908152602001600020819055508273ffffffffffffffffffffffffffffffffffffffff168473ffffffffffffffffffffffffffffffffffffffff167fddf252ad1be2c89b69c2b068fc378daa952ba7f163c4a11628f55a4df523b3ef846040518082815260200191505060405180910390a3600190509392505050565b600082821115151561235f57fe5b818303905092915050565b60008060003373ffffffffffffffffffffffffffffffffffffffff1673ffffffffffffffffffffffffffffffffffffffff1681526020019081526020016000205482111515156123b957600080fd5b600073ffffffffffffffffffffffffffffffffffffffff168373ffffffffffffffffffffffffffffffffffffffff16141515156123f557600080fd5b612446826000803373ffffffffffffffffffffffffffffffffffffffff1673ffffffffffffffffffffffffffffffffffffffff1681526020019081526020016000205461235190919063ffffffff16565b6000803373ffffffffffffffffffffffffffffffffffffffff1673ffffffffffffffffffffffffffffffffffffffff168152602001908152602001600020819055506124d9826000808673ffffffffffffffffffffffffffffffffffffffff1673ffffffffffffffffffffffffffffffffffffffff168152602001908152602001600020546108b090919063ffffffff16565b6000808573ffffffffffffffffffffffffffffffffffffffff1673ffffffffffffffffffffffffffffffffffffffff168152602001908152602001600020819055508273ffffffffffffffffffffffffffffffffffffffff163373ffffffffffffffffffffffffffffffffffffffff167fddf252ad1be2c89b69c2b068fc378daa952ba7f163c4a11628f55a4df523b3ef846040518082815260200191505060405180910390a360019050929150505600a165627a7a72305820b5428482b27ad8131c28d103c8948a2db77484436a188c3699b8f327b8191185002960806040523480156200001157600080fd5b5060405162000d8238038062000d8283398101806040528101908080518201929190602001805182019291906020018051820192919050505060008060fa845110801562000060575082518451145b15156200006c57600080fd5b8460029080519060200190620000849291906200020c565b50600090505b83518160ff161015620001db57620000d5838260ff16815181101515620000ad57fe5b9060200190602002015183620001ed64010000000002620004e9179091906401000000009004565b91506200016f838260ff16815181101515620000ed57fe5b9060200190602002015160016000878560ff168151811015156200010d57fe5b9060200190602002015173ffffffffffffffffffffffffffffffffffffffff1673ffffffffffffffffffffffffffffffffffffffff16815260200190815260200160002054620001ed64010000000002620004e9179091906401000000009004565b60016000868460ff168151811015156200018557fe5b9060200190602002015173ffffffffffffffffffffffffffffffffffffffff1673ffffffffffffffffffffffffffffffffffffffff1681526020019081526020016000208190555080806001019150506200008a565b816000819055505050505050620002bb565b60008082840190508381101515156200020257fe5b8091505092915050565b828054600181600116156101000203166002900490600052602060002090601f016020900481019282601f106200024f57805160ff191683800117855562000280565b8280016001018555821562000280579182015b828111156200027f57825182559160200191906001019062000262565b5b5090506200028f919062000293565b5090565b620002b891905b80821115620002b45760008160009055506001016200029a565b5090565b90565b610ab780620002cb6000396000f3006080604052600436106100ba576000357c0100000000000000000000000000000000000000000000000000000000900463ffffffff168063047fc9aa1461017457806318160ddd1461019f5780632ba1b3a1146101ca5780633c130d90146101f55780633ccfd60b1461028557806370a08231146102b0578063a8fa8e5214610307578063b815239514610332578063eba74e5c14610389578063ec8593be14610393578063efcb5dea146103ea578063f1c5d6c214610441575b6101036100f26000546100e46d04ee2d6d415b85acef81000000003461049890919063ffffffff16565b6104d390919063ffffffff16565b6004546104e990919063ffffffff16565b60048190555061011e346003546104e990919063ffffffff16565b6003819055503373ffffffffffffffffffffffffffffffffffffffff167fe3166012cb87b3dec8e117fe0e096a47387f94ea2ec12086ed8ae24ff8c237fe346040518082815260200191505060405180910390a2005b34801561018057600080fd5b50610189610507565b6040518082815260200191505060405180910390f35b3480156101ab57600080fd5b506101b461050d565b6040518082815260200191505060405180910390f35b3480156101d657600080fd5b506101df610516565b6040518082815260200191505060405180910390f35b34801561020157600080fd5b5061020a61051c565b6040518080602001828103825283818151815260200191508051906020019080838360005b8381101561024a57808201518184015260208101905061022f565b50505050905090810190601f1680156102775780820380516001836020036101000a031916815260200191505b509250505060405180910390f35b34801561029157600080fd5b5061029a6105ba565b6040518082815260200191505060405180910390f35b3480156102bc57600080fd5b506102f1600480360381019080803573ffffffffffffffffffffffffffffffffffffffff169060200190929190505050610803565b6040518082815260200191505060405180910390f35b34801561031357600080fd5b5061031c61084c565b6040518082815260200191505060405180910390f35b34801561033e57600080fd5b50610373600480360381019080803573ffffffffffffffffffffffffffffffffffffffff169060200190929190505050610852565b6040518082815260200191505060405180910390f35b6103916108d5565b005b34801561039f57600080fd5b506103d4600480360381019080803573ffffffffffffffffffffffffffffffffffffffff16906020019092919050505061098f565b6040518082815260200191505060405180910390f35b3480156103f657600080fd5b5061042b600480360381019080803573ffffffffffffffffffffffffffffffffffffffff1690602001909291905050506109a7565b6040518082815260200191505060405180910390f35b34801561044d57600080fd5b50610482600480360381019080803573ffffffffffffffffffffffffffffffffffffffff1690602001909291905050506109bf565b6040518082815260200191505060405180910390f35b60008060008414156104ad57600091506104cc565b82840290508284828115156104be57fe5b041415156104c857fe5b8091505b5092915050565b600081838115156104e057fe5b04905092915050565b60008082840190508381101515156104fd57fe5b8091505092915050565b60005481565b60008054905090565b60035481565b60028054600181600116156101000203166002900480601f0160208091040260200160405190810160405280929190818152602001828054600181600116156101000203166002900480156105b25780601f10610587576101008083540402835291602001916105b2565b820191906000526020600020905b81548152906001019060200180831161059557829003601f168201915b505050505081565b6000336106176105c9826109bf565b600560008473ffffffffffffffffffffffffffffffffffffffff1673ffffffffffffffffffffffffffffffffffffffff168152602001908152602001600020546104e990919063ffffffff16565b600560008373ffffffffffffffffffffffffffffffffffffffff1673ffffffffffffffffffffffffffffffffffffffff16815260200190815260200160002081905550600454600660008373ffffffffffffffffffffffffffffffffffffffff1673ffffffffffffffffffffffffffffffffffffffff168152602001908152602001600020819055506107006d04ee2d6d415b85acef8100000000600560003373ffffffffffffffffffffffffffffffffffffffff1673ffffffffffffffffffffffffffffffffffffffff168152602001908152602001600020546104d390919063ffffffff16565b9150600560003373ffffffffffffffffffffffffffffffffffffffff1673ffffffffffffffffffffffffffffffffffffffff168152602001908152602001600020600090553373ffffffffffffffffffffffffffffffffffffffff166108fc839081150290604051600060405180830381858888f1935050505015801561078b573d6000803e3d6000fd5b507f10db2ba5699bf5dbd1070a0c0b207f229dc1ecb78bbe555b84cab3db9576ac42423384604051808481526020018373ffffffffffffffffffffffffffffffffffffffff1673ffffffffffffffffffffffffffffffffffffffff168152602001828152602001935050505060405180910390a15090565b6000600160008373ffffffffffffffffffffffffffffffffffffffff1673ffffffffffffffffffffffffffffffffffffffff168152602001908152602001600020549050919050565b60045481565b60006108ce6d04ee2d6d415b85acef81000000006108c0600560008673ffffffffffffffffffffffffffffffffffffffff1673ffffffffffffffffffffffffffffffffffffffff168152602001908152602001600020546108b2866109bf565b6104e990919063ffffffff16565b6104d390919063ffffffff16565b9050919050565b61091e61090d6000546108ff6d04ee2d6d415b85acef81000000003461049890919063ffffffff16565b6104d390919063ffffffff16565b6004546104e990919063ffffffff16565b600481905550610939346003546104e990919063ffffffff16565b6003819055503373ffffffffffffffffffffffffffffffffffffffff167fe3166012cb87b3dec8e117fe0e096a47387f94ea2ec12086ed8ae24ff8c237fe346040518082815260200191505060405180910390a2565b60056020528060005260406000206000915090505481565b60066020528060005260406000206000915090505481565b600080610a16600660008573ffffffffffffffffffffffffffffffffffffffff1673ffffffffffffffffffffffffffffffffffffffff16815260200190815260200160002054600454610a7290919063ffffffff16565b9050610a6a600160008573ffffffffffffffffffffffffffffffffffffffff1673ffffffffffffffffffffffffffffffffffffffff168152602001908152602001600020548261049890919063ffffffff16565b915050919050565b6000828211151515610a8057fe5b8183039050929150505600a165627a7a7230582006e6b0313e36a916567374f7ec0b0ef9019b2416d7f68f2fbc8c60bae12818920029a165627a7a72305820447eb88e7a77b6d0b14b0a358d37253ca48eed2234a6bc4c2d7b62482fa0809b0029",
  "source": "pragma solidity 0.4.24;\n\nimport \"../math/SafeMath.sol\";\nimport \"../interfaces/DBInterface.sol\";\nimport \"../access/ERC20Burner.sol\";\nimport \"../tokens/erc20/DividendToken.sol\";\nimport \"../tokens/distribution/FixedDistribution.sol\";\n\n// @title An asset generator contract for onboarding existing real-world assets\n// @author Kyle Dewhurst, MyBit Foundation\ncontract AssetGenerator {\n  using SafeMath for uint256;\n\n  DBInterface private database;\n\n\n  // @notice This contract\n  // @param: The address for the database contract used by this platform\n  constructor(address _database)\n  public{\n      database = DBInterface(_database);\n  }\n\n\n  // @notice users can on-board non-tradeable assets here\n  // @dev creates an ERC20 dividend token (tradeable) or distribution token (not-tradeable)\n  function createAsset(string _tokenURI, address[] _tokenHolders, uint[] _amount)\n  external\n  burnRequired\n  returns (bool) {\n    require (_tokenHolders.length == _amount.length && _tokenHolders.length <= 200);\n    bytes32 assetID = keccak256(abi.encodePacked(msg.sender, _tokenURI));\n    require(database.addressStorage(keccak256(abi.encodePacked(\"tokenAddress\", assetID))) == address(0));\n    FixedDistribution assetInstance = new FixedDistribution(_tokenURI, _tokenHolders, _amount);\n    database.setAddress(keccak256(abi.encodePacked(\"assetManager\", assetID)), msg.sender);\n    database.setAddress(keccak256(abi.encodePacked(\"tokenAddress\", assetID)), address(assetInstance));\n    emit LogAssetCreated(assetID, address(assetInstance), msg.sender, _tokenURI);\n    return true;\n  }\n\n  // @notice users can on-board tradeable assets here\n  // @dev creates an ERC20 dividend token (tradeable) or\n  function createTradeableAsset(string _tokenURI, address[] _tokenHolders, uint[] _amount)\n  external\n  burnRequired\n  returns (bool) {\n    require (_tokenHolders.length == _amount.length && _tokenHolders.length <= uint8(200));\n    address assetGeneratorAddress = database.addressStorage(keccak256(abi.encodePacked(\"contract\", \"AssetGenerator\")));\n    bytes32 assetID = keccak256(abi.encodePacked(msg.sender, _tokenURI));\n    require(database.addressStorage(keccak256(abi.encodePacked(\"tokenAddress\", assetID))) == address(0));\n    DividendToken assetInstance = new DividendToken(_tokenURI, assetGeneratorAddress);   // Gives this contract all new asset tokens\n    for (uint8 i = 0; i < _tokenHolders.length; i++) {\n      assetInstance.mint(_tokenHolders[i], _amount[i]);\n    }\n    assetInstance.finishMinting();\n    database.setAddress(keccak256(abi.encodePacked(\"assetManager\", assetID)), msg.sender);\n    database.setAddress(keccak256(abi.encodePacked(\"tokenAddress\", assetID)), address(assetInstance));\n    emit LogTradeableAssetCreated(assetID, address(assetInstance), msg.sender, _tokenURI);\n    return true;\n  }\n\n\n  // @notice reverts if user hasn't approved burner to burn platform token\n  modifier burnRequired {\n    ERC20Burner burner = ERC20Burner(database.addressStorage(keccak256(abi.encodePacked(\"contract\", \"ERC20Burner\"))));\n    require(burner.burn(msg.sender, database.uintStorage(keccak256(abi.encodePacked(msg.sig, address(this))))));\n    _;\n  }\n\n\n  event LogAssetCreated(bytes32 indexed _assetID, address indexed _tokenAddress, address indexed _assetManager, string _tokenURI);\n  event LogTradeableAssetCreated(bytes32 indexed _assetID, address indexed _tokenAddress, address indexed _assetManager, string _tokenURI);\n\n\n}\n",
  "sourcePath": "/home/peter/Documents/Work/MyBit/MyBit-Network.tech/contracts/ecosystem/AssetGenerator.sol",
  "compiler": {
    "name": "solc",
    "version": "0.4.24+commit.e67f0147.Emscripten.clang"
  },
  "schemaVersion": "2.0.1",
  "updatedAt": "2018-10-17T01:56:53.447Z"
}