{
  "contractName": "AssetExchange",
  "abi": [
    {
      "constant": true,
      "inputs": [],
      "name": "database",
      "outputs": [
        {
          "name": "",
          "type": "address"
        }
      ],
      "payable": false,
      "stateMutability": "view",
      "type": "function"
    },
    {
      "constant": true,
      "inputs": [],
      "name": "events",
      "outputs": [
        {
          "name": "",
          "type": "address"
        }
      ],
      "payable": false,
      "stateMutability": "view",
      "type": "function"
    },
    {
      "constant": true,
      "inputs": [
        {
          "name": "",
          "type": "address"
        },
        {
          "name": "",
          "type": "bytes32"
        }
      ],
      "name": "orders",
      "outputs": [
        {
          "name": "",
          "type": "bool"
        }
      ],
      "payable": false,
      "stateMutability": "view",
      "type": "function"
    },
    {
      "constant": true,
      "inputs": [
        {
          "name": "",
          "type": "address"
        }
      ],
      "name": "weiOwed",
      "outputs": [
        {
          "name": "",
          "type": "uint256"
        }
      ],
      "payable": false,
      "stateMutability": "view",
      "type": "function"
    },
    {
      "constant": true,
      "inputs": [
        {
          "name": "",
          "type": "address"
        }
      ],
      "name": "weiDeposited",
      "outputs": [
        {
          "name": "",
          "type": "uint256"
        }
      ],
      "payable": false,
      "stateMutability": "view",
      "type": "function"
    },
    {
      "inputs": [
        {
          "name": "_database",
          "type": "address"
        },
        {
          "name": "_events",
          "type": "address"
        }
      ],
      "payable": false,
      "stateMutability": "nonpayable",
      "type": "constructor"
    },
    {
      "constant": false,
      "inputs": [
        {
          "name": "_assetAddress",
          "type": "address"
        },
        {
          "name": "_buyer",
          "type": "address"
        },
        {
          "name": "_seller",
          "type": "address"
        },
        {
          "name": "_amount",
          "type": "uint256"
        },
        {
          "name": "_price",
          "type": "uint256"
        }
      ],
      "name": "buyAsset",
      "outputs": [
        {
          "name": "",
          "type": "bool"
        }
      ],
      "payable": true,
      "stateMutability": "payable",
      "type": "function"
    },
    {
      "constant": false,
      "inputs": [
        {
          "name": "_assetAddress",
          "type": "address"
        },
        {
          "name": "_seller",
          "type": "address"
        },
        {
          "name": "_buyer",
          "type": "address"
        },
        {
          "name": "_amount",
          "type": "uint256"
        },
        {
          "name": "_price",
          "type": "uint256"
        }
      ],
      "name": "sellAsset",
      "outputs": [
        {
          "name": "",
          "type": "bool"
        }
      ],
      "payable": false,
      "stateMutability": "nonpayable",
      "type": "function"
    },
    {
      "constant": false,
      "inputs": [
        {
          "name": "_assetAddress",
          "type": "address"
        },
        {
          "name": "_buyer",
          "type": "address"
        },
        {
          "name": "_amount",
          "type": "uint256"
        },
        {
          "name": "_price",
          "type": "uint256"
        }
      ],
      "name": "createBuyOrder",
      "outputs": [
        {
          "name": "",
          "type": "bool"
        }
      ],
      "payable": true,
      "stateMutability": "payable",
      "type": "function"
    },
    {
      "constant": false,
      "inputs": [
        {
          "name": "_assetAddress",
          "type": "address"
        },
        {
          "name": "_seller",
          "type": "address"
        },
        {
          "name": "_amount",
          "type": "uint256"
        },
        {
          "name": "_price",
          "type": "uint256"
        }
      ],
      "name": "createSellOrder",
      "outputs": [
        {
          "name": "",
          "type": "bool"
        }
      ],
      "payable": false,
      "stateMutability": "nonpayable",
      "type": "function"
    },
    {
      "constant": false,
      "inputs": [
        {
          "name": "_assetAddress",
          "type": "address"
        },
        {
          "name": "_orderMaker",
          "type": "address"
        },
        {
          "name": "_amount",
          "type": "uint256"
        },
        {
          "name": "_price",
          "type": "uint256"
        },
        {
          "name": "_buyOrder",
          "type": "bool"
        }
      ],
      "name": "deleteOrder",
      "outputs": [
        {
          "name": "",
          "type": "bool"
        }
      ],
      "payable": false,
      "stateMutability": "nonpayable",
      "type": "function"
    },
    {
      "constant": false,
      "inputs": [],
      "name": "withdraw",
      "outputs": [
        {
          "name": "",
          "type": "bool"
        }
      ],
      "payable": false,
      "stateMutability": "nonpayable",
      "type": "function"
    },
    {
      "constant": false,
      "inputs": [
        {
          "name": "_functionInitiator",
          "type": "address"
        },
        {
          "name": "_holdingAddress",
          "type": "address"
        }
      ],
      "name": "destroy",
      "outputs": [],
      "payable": false,
      "stateMutability": "nonpayable",
      "type": "function"
    }
  ],
  "bytecode": "0x6080604052670de0b6b3a764000060055534801561001c57600080fd5b50604051604080612cd883398101604052805160209091015160008054600160a060020a03938416600160a060020a03199182161790915560018054939092169216919091179055612c65806100736000396000f3006080604052600436106100a05763ffffffff60e060020a6000350416633ccfd60b81146100a55780633d5eb16c146100ce5780634ad5665c146100f45780635dcfd8391461012657806362b40f9f14610159578063713b563f14610182578063afa832dd146101b3578063b5f8558c146101e0578063bb5f4629146101f5578063c5a5123f14610219578063e6047d4714610239578063fe6dcca31461026c575b600080fd5b3480156100b157600080fd5b506100ba61028d565b604080519115158252519081900360200190f35b6100ba600160a060020a036004358116906024358116906044351660643560843561044a565b34801561010057600080fd5b506100ba600160a060020a03600435811690602435166044356064356084351515610c2a565b34801561013257600080fd5b506100ba600160a060020a0360043581169060243581169060443516606435608435610f32565b34801561016557600080fd5b50610180600160a060020a036004358116906024351661178f565b005b34801561018e57600080fd5b50610197611bc1565b60408051600160a060020a039092168252519081900360200190f35b3480156101bf57600080fd5b506100ba600160a060020a0360043581169060243516604435606435611bd0565b3480156101ec57600080fd5b50610197612440565b34801561020157600080fd5b506100ba600160a060020a036004351660243561244f565b6100ba600160a060020a036004358116906024351660443560643561246f565b34801561024557600080fd5b5061025a600160a060020a0360043516612b89565b60408051918252519081900360200190f35b34801561027857600080fd5b5061025a600160a060020a0360043516612b9b565b60008054604080517f7061757365640000000000000000000000000000000000000000000000000000602080830191909152606060020a300260268301528251601a818403018152603a9092019283905281518594600160a060020a031693633b7bfda09392909182918401908083835b6020831061031d5780518252601f1990920191602091820191016102fe565b51815160209384036101000a60001901801990921691161790526040805192909401829003822063ffffffff881660e060020a0283526004830152925160248083019650939450929083900301905081600087803b15801561037e57600080fd5b505af1158015610392573d6000803e3d6000fd5b505050506040513d60208110156103a857600080fd5b5051156103ff576040805160e560020a62461bcd02815260206004820152600f60248201527f436f6e7472616374207061757365640000000000000000000000000000000000604482015290519081900360640190fd5b5033600081815260046020526040808220805490839055905190929183156108fc02918491818181858888f19350505050158015610441573d6000803e3d6000fd5b50600191505090565b60008054604080517f7061757365640000000000000000000000000000000000000000000000000000602080830191909152606060020a300260268301528251601a818403018152603a90920192839052815185948594600160a060020a0390911693633b7bfda093909282918401908083835b602083106104dd5780518252601f1990920191602091820191016104be565b51815160209384036101000a60001901801990921691161790526040805192909401829003822063ffffffff881660e060020a0283526004830152925160248083019650939450929083900301905081600087803b15801561053e57600080fd5b505af1158015610552573d6000803e3d6000fd5b505050506040513d602081101561056857600080fd5b5051156105bf576040805160e560020a62461bcd02815260206004820152600f60248201527f436f6e7472616374207061757365640000000000000000000000000000000000604482015290519081900360640190fd5b604080517fdd62ed3e000000000000000000000000000000000000000000000000000000008152600160a060020a03808916600483015230602483015291518a9289928992839286169163dd62ed3e9160448083019260209291908290030181600087803b15801561063057600080fd5b505af1158015610644573d6000803e3d6000fd5b505050506040513d602081101561065a57600080fd5b505110156106d8576040805160e560020a62461bcd02815260206004820152602360248201527f5573657220686173206e6f7420676976656e20656e6f75676820616c6c6f776160448201527f6e63650000000000000000000000000000000000000000000000000000000000606482015290519081900360840190fd5b33600160a060020a038b16148061088057506000809054906101000a9004600160a060020a0316600160a060020a0316633b7bfda08b3330600035600160e060020a0319166040516020018080600080516020612c1a83398151915281525060080185600160a060020a0316600160a060020a0316606060020a02815260140184600160a060020a0316600160a060020a0316606060020a02815260140183600160a060020a0316600160a060020a0316606060020a02815260140182600160e060020a031916600160e060020a03191681526004019450505050506040516020818303038152906040526040518082805190602001908083835b602083106107f25780518252601f1990920191602091820191016107d3565b51815160209384036101000a60001901801990921691161790526040805192909401829003822063ffffffff881660e060020a0283526004830152925160248083019650939450929083900301905081600087803b15801561085357600080fd5b505af1158015610867573d6000803e3d6000fd5b505050506040513d602081101561087d57600080fd5b50515b15156108d6576040805160e560020a62461bcd02815260206004820152601c60248201527f427579657220686173206e6f7420676976656e20617070726f76616c00000000604482015290519081900360640190fd5b60408051600160a060020a038d8116606060020a908102602080850191909152918d16026034830152604882018b9052606882018a90526000608883015282518083036069018152608990920192839052815191929182918401908083835b602083106109545780518252601f199092019160209182019101610935565b51815160209384036101000a60001901801990921691161790526040805192909401829003909120600160a060020a038f16600090815260028352848120828252909252929020549198505060ff16151591506109b2905057600080fd5b6005546109d5906109c98a8a63ffffffff612bad16565b9063ffffffff612be316565b34146109e057600080fd5b604080517f23b872dd000000000000000000000000000000000000000000000000000000008152600160a060020a038b811660048301528c81166024830152604482018b905291518d9650918616916323b872dd916064808201926020929091908290030181600087803b158015610a5757600080fd5b505af1158015610a6b573d6000803e3d6000fd5b505050506040513d6020811015610a8157600080fd5b50511515610a8e57600080fd5b600160a060020a038916600090815260046020526040902054610ab7903463ffffffff612bf816565b600460008b600160a060020a0316600160a060020a0316815260200190815260200160002081905550600260008a600160a060020a0316600160a060020a031681526020019081526020016000206000866000191660001916815260200190815260200160002060006101000a81549060ff0219169055600160009054906101000a9004600160a060020a0316600160a060020a031663e609295c868d8d6040518463ffffffff1660e060020a0281526004018080602001856000191660001916815260200184600160a060020a0316600160a060020a0316815260200183600160a060020a0316600160a060020a03168152602001828103825260148152602001807f53656c6c206f7264657220636f6d706c65746564000000000000000000000000815250602001945050505050600060405180830381600087803b158015610c0157600080fd5b505af1158015610c15573d6000803e3d6000fd5b5060019e9d5050505050505050505050505050565b6000808033600160a060020a0388161480610d7257506000805460408051600080516020612c1a833981519152602080830191909152600160a060020a038c8116606060020a9081026028850152338102603c850152300260508401529435600160e060020a03191660648301528251808303604801815260689092019283905281519490931693633b7bfda0939192918291908401908083835b60208310610ce45780518252601f199092019160209182019101610cc5565b51815160209384036101000a60001901801990921691161790526040805192909401829003822063ffffffff881660e060020a0283526004830152925160248083019650939450929083900301905081600087803b158015610d4557600080fd5b505af1158015610d59573d6000803e3d6000fd5b505050506040513d6020811015610d6f57600080fd5b50515b1515610d7d57600080fd5b60408051600160a060020a038a8116606060020a908102602080850191909152918b16026034830152604882018990526068820188905286151560f860020a02608883015282518083036069018152608990920192839052815191929182918401908083835b60208310610e025780518252601f199092019160209182019101610de3565b51815160209384036101000a60001901801990921691161790526040805192909401829003909120600160a060020a038d16600090815260028352848120828252909252929020549195505060ff1615159150610e60905057600080fd5b8315610ef857600554610e7d906109c9888863ffffffff612bad16565b600160a060020a038816600090815260036020526040902054909150610ea9908263ffffffff612c0716565b600160a060020a038816600090815260036020908152604080832093909355600490522054610ede908263ffffffff612bf816565b600160a060020a0388166000908152600460205260409020555b600160a060020a03871660009081526002602090815260408083208584529091529020805460ff1916905560019250505095945050505050565b60008054604080517f7061757365640000000000000000000000000000000000000000000000000000602080830191909152606060020a300260268301528251601a818403018152603a909201928390528151859485948594600160a060020a0390921693633b7bfda09382918401908083835b60208310610fc55780518252601f199092019160209182019101610fa6565b51815160209384036101000a60001901801990921691161790526040805192909401829003822063ffffffff881660e060020a0283526004830152925160248083019650939450929083900301905081600087803b15801561102657600080fd5b505af115801561103a573d6000803e3d6000fd5b505050506040513d602081101561105057600080fd5b5051156110a7576040805160e560020a62461bcd02815260206004820152600f60248201527f436f6e7472616374207061757365640000000000000000000000000000000000604482015290519081900360640190fd5b604080517fdd62ed3e000000000000000000000000000000000000000000000000000000008152336004820181905230602483015291518b929189918291600160a060020a0386169163dd62ed3e916044808201926020929091908290030181600087803b15801561111857600080fd5b505af115801561112c573d6000803e3d6000fd5b505050506040513d602081101561114257600080fd5b505110156111c0576040805160e560020a62461bcd02815260206004820152602360248201527f5573657220686173206e6f7420676976656e20656e6f75676820616c6c6f776160448201527f6e63650000000000000000000000000000000000000000000000000000000000606482015290519081900360840190fd5b33600160a060020a038c16148061136857506000809054906101000a9004600160a060020a0316600160a060020a0316633b7bfda08c3330600035600160e060020a0319166040516020018080600080516020612c1a83398151915281525060080185600160a060020a0316600160a060020a0316606060020a02815260140184600160a060020a0316600160a060020a0316606060020a02815260140183600160a060020a0316600160a060020a0316606060020a02815260140182600160e060020a031916600160e060020a03191681526004019450505050506040516020818303038152906040526040518082805190602001908083835b602083106112da5780518252601f1990920191602091820191016112bb565b51815160209384036101000a60001901801990921691161790526040805192909401829003822063ffffffff881660e060020a0283526004830152925160248083019650939450929083900301905081600087803b15801561133b57600080fd5b505af115801561134f573d6000803e3d6000fd5b505050506040513d602081101561136557600080fd5b50515b15156113be576040805160e560020a62461bcd02815260206004820152601d60248201527f53656c6c657220686173206e6f7420676976656e20617070726f76616c000000604482015290519081900360640190fd5b8b8a8a8a60016040516020018086600160a060020a0316600160a060020a0316606060020a02815260140185600160a060020a0316600160a060020a0316606060020a028152601401848152602001838152602001821515151560f860020a028152600101955050505050506040516020818303038152906040526040518082805190602001908083835b602083106114685780518252601f199092019160209182019101611449565b6001836020036101000a03801982511681845116808217855250505050505090500191505060405180910390209550600260008b600160a060020a0316600160a060020a031681526020019081526020016000206000876000191660001916815260200190815260200160002060009054906101000a900460ff1615156114ee57600080fd5b600554611505906109c98b8b63ffffffff612bad16565b604080517f23b872dd000000000000000000000000000000000000000000000000000000008152600160a060020a038e811660048301528d81166024830152604482018d905291519297508e9650908616916323b872dd916064808201926020929091908290030181600087803b15801561157f57600080fd5b505af1158015611593573d6000803e3d6000fd5b505050506040513d60208110156115a957600080fd5b505115156115b657600080fd5b600160a060020a038a166000908152600360205260409020546115df908663ffffffff612c0716565b600160a060020a03808c16600090815260036020908152604080832094909455918e1681526004909152205461161b908663ffffffff612bf816565b600460008d600160a060020a0316600160a060020a0316815260200190815260200160002081905550600260008b600160a060020a0316600160a060020a031681526020019081526020016000206000876000191660001916815260200190815260200160002060006101000a81549060ff0219169055600160009054906101000a9004600160a060020a0316600160a060020a031663e609295c878e8e6040518463ffffffff1660e060020a0281526004018080602001856000191660001916815260200184600160a060020a0316600160a060020a0316815260200183600160a060020a0316600160a060020a03168152602001828103825260138152602001807f427579206f7264657220636f6d706c6574656400000000000000000000000000815250602001945050505050600060405180830381600087803b15801561176557600080fd5b505af1158015611779573d6000803e3d6000fd5b5060019f9e505050505050505050505050505050565b600054604080517f6f776e6572000000000000000000000000000000000000000000000000000000602080830191909152606060020a33026025830152825160198184030181526039909201928390528151600160a060020a0390941693633b7bfda093918291908401908083835b6020831061181d5780518252601f1990920191602091820191016117fe565b51815160209384036101000a60001901801990921691161790526040805192909401829003822063ffffffff881660e060020a0283526004830152925160248083019650939450929083900301905081600087803b15801561187e57600080fd5b505af1158015611892573d6000803e3d6000fd5b505050506040513d60208110156118a857600080fd5b50511515611900576040805160e560020a62461bcd02815260206004820152600960248201527f4e6f74206f776e65720000000000000000000000000000000000000000000000604482015290519081900360640190fd5b600160a060020a03821633141561191657600080fd5b6000809054906101000a9004600160a060020a0316600160a060020a0316633b7bfda03084846040516020018082600160a060020a0316600160a060020a0316606060020a0281526014019150506040516020818303038152906040526040518082805190602001908083835b602083106119a25780518252601f199092019160209182019101611983565b51815160209384036101000a600019018019909216911617905260408051929094018290038220600160a060020a03988916606060020a908102848401529790981690960260348201527f64657374726f79000000000000000000000000000000000000000000000000006048820152604f8082019790975282518082039097018752606f01918290525084519093849350850191508083835b60208310611a5b5780518252601f199092019160209182019101611a3c565b51815160209384036101000a60001901801990921691161790526040805192909401829003822063ffffffff881660e060020a0283526004830152925160248083019650939450929083900301905081600087803b158015611abc57600080fd5b505af1158015611ad0573d6000803e3d6000fd5b505050506040513d6020811015611ae657600080fd5b50511515611af357600080fd5b600154604080517f68b962700000000000000000000000000000000000000000000000000000000081523060248201819052600160a060020a0385811660448401529031606483015260a06004830152601060a48301527f44657374726f7920636f6e74726163740000000000000000000000000000000060c4830152915191909216916368b962709160e480830192600092919082900301818387803b158015611b9d57600080fd5b505af1158015611bb1573d6000803e3d6000fd5b5050505080600160a060020a0316ff5b600054600160a060020a031681565b600080838382611be6838363ffffffff612bad16565b11611c3b576040805160e560020a62461bcd02815260206004820152601960248201527f5f616d6f756e74206f72205f7072696365206973207a65726f00000000000000604482015290519081900360640190fd5b87600160a060020a0381161515611c9c576040805160e560020a62461bcd02815260206004820152601660248201527f4164647265737320646f6573206e6f7420657869737400000000000000000000604482015290519081900360640190fd5b600054604080517f63726f776473616c652e66696e616c697a656400000000000000000000000000602080830191909152600160a060020a03858116606060020a026033840152835180840360270181526047909301938490528251941693633b7bfda093918291908401908083835b60208310611d2b5780518252601f199092019160209182019101611d0c565b51815160209384036101000a60001901801990921691161790526040805192909401829003822063ffffffff881660e060020a0283526004830152925160248083019650939450929083900301905081600087803b158015611d8c57600080fd5b505af1158015611da0573d6000803e3d6000fd5b505050506040513d6020811015611db657600080fd5b50511515611e0e576040805160e560020a62461bcd02815260206004820152601760248201527f43726f776473616c65206e6f742066696e616c697a6564000000000000000000604482015290519081900360640190fd5b604080517fdd62ed3e000000000000000000000000000000000000000000000000000000008152600160a060020a03808b16600483015230602483015291518b928b928b92839286169163dd62ed3e9160448083019260209291908290030181600087803b158015611e7f57600080fd5b505af1158015611e93573d6000803e3d6000fd5b505050506040513d6020811015611ea957600080fd5b50511015611f27576040805160e560020a62461bcd02815260206004820152602360248201527f5573657220686173206e6f7420676976656e20656e6f75676820616c6c6f776160448201527f6e63650000000000000000000000000000000000000000000000000000000000606482015290519081900360840190fd5b33600160a060020a038c1614806120cf57506000809054906101000a9004600160a060020a0316600160a060020a0316633b7bfda08c3330600035600160e060020a0319166040516020018080600080516020612c1a83398151915281525060080185600160a060020a0316600160a060020a0316606060020a02815260140184600160a060020a0316600160a060020a0316606060020a02815260140183600160a060020a0316600160a060020a0316606060020a02815260140182600160e060020a031916600160e060020a03191681526004019450505050506040516020818303038152906040526040518082805190602001908083835b602083106120415780518252601f199092019160209182019101612022565b51815160209384036101000a60001901801990921691161790526040805192909401829003822063ffffffff881660e060020a0283526004830152925160248083019650939450929083900301905081600087803b1580156120a257600080fd5b505af11580156120b6573d6000803e3d6000fd5b505050506040513d60208110156120cc57600080fd5b50515b1515612125576040805160e560020a62461bcd02815260206004820152601d60248201527f53656c6c657220686173206e6f7420676976656e20617070726f76616c000000604482015290519081900360640190fd5b8b8b8b8b60006040516020018086600160a060020a0316600160a060020a0316606060020a02815260140185600160a060020a0316600160a060020a0316606060020a028152601401848152602001838152602001821515151560f860020a028152600101955050505050506040516020818303038152906040526040518082805190602001908083835b602083106121cf5780518252601f1990920191602091820191016121b0565b6001836020036101000a03801982511681845116808217855250505050505090500191505060405180910390209650600260008c600160a060020a0316600160a060020a031681526020019081526020016000206000886000191660001916815260200190815260200160002060009054906101000a900460ff1615151561225657600080fd5b6001600260008d600160a060020a0316600160a060020a031681526020019081526020016000206000896000191660001916815260200190815260200160002060006101000a81548160ff021916908315150217905550600160009054906101000a9004600160a060020a0316600160a060020a031663e609295c888e8e6040518463ffffffff1660e060020a0281526004018080602001856000191660001916815260200184600160a060020a0316600160a060020a0316815260200183600160a060020a0316600160a060020a03168152602001828103825260128152602001807f53656c6c206f7264657220637265617465640000000000000000000000000000815250602001945050505050600060405180830381600087803b15801561238057600080fd5b505af1158015612394573d6000803e3d6000fd5b5050600154604080517fa1c0aafe000000000000000000000000000000000000000000000000000000008152602481018c9052604481018f9052606481018e905260806004820152600a60848201527f53656c6c206f726465720000000000000000000000000000000000000000000060a48201529051600160a060020a03909216935063a1c0aafe925060c48082019260009290919082900301818387803b15801561176557600080fd5b600154600160a060020a031681565b600260209081526000928352604080842090915290825290205460ff1681565b6000803481106124c9576040805160e560020a62461bcd02815260206004820152601760248201527f457468657220686173206e6f74206265656e2073656e74000000000000000000604482015290519081900360640190fd5b838360006124dd838363ffffffff612bad16565b11612532576040805160e560020a62461bcd02815260206004820152601960248201527f5f616d6f756e74206f72205f7072696365206973207a65726f00000000000000604482015290519081900360640190fd5b87600160a060020a0381161515612593576040805160e560020a62461bcd02815260206004820152601660248201527f4164647265737320646f6573206e6f7420657869737400000000000000000000604482015290519081900360640190fd5b600054604080517f63726f776473616c652e66696e616c697a656400000000000000000000000000602080830191909152600160a060020a03858116606060020a026033840152835180840360270181526047909301938490528251941693633b7bfda093918291908401908083835b602083106126225780518252601f199092019160209182019101612603565b51815160209384036101000a60001901801990921691161790526040805192909401829003822063ffffffff881660e060020a0283526004830152925160248083019650939450929083900301905081600087803b15801561268357600080fd5b505af1158015612697573d6000803e3d6000fd5b505050506040513d60208110156126ad57600080fd5b50511515612705576040805160e560020a62461bcd02815260206004820152601760248201527f43726f776473616c65206e6f742066696e616c697a6564000000000000000000604482015290519081900360640190fd5b33600160a060020a038916148061284957506000805460408051600080516020612c1a833981519152602080830191909152600160a060020a038d8116606060020a9081026028850152338102603c850152300260508401529435600160e060020a03191660648301528251808303604801815260689092019283905281519490931693633b7bfda0939192918291908401908083835b602083106127bb5780518252601f19909201916020918201910161279c565b51815160209384036101000a60001901801990921691161790526040805192909401829003822063ffffffff881660e060020a0283526004830152925160248083019650939450929083900301905081600087803b15801561281c57600080fd5b505af1158015612830573d6000803e3d6000fd5b505050506040513d602081101561284657600080fd5b50515b151561289f576040805160e560020a62461bcd02815260206004820152601c60248201527f427579657220686173206e6f7420676976656e20617070726f76616c00000000604482015290519081900360640190fd5b6005546128b6906109c9898963ffffffff612bad16565b34146128c157600080fd5b60408051600160a060020a038b8116606060020a908102602080850191909152918c16026034830152604882018a90526068820189905260f860020a608883015282518083036069018152608990920192839052815191929182918401908083835b602083106129425780518252601f199092019160209182019101612923565b51815160209384036101000a60001901801990921691161790526040805192909401829003909120600160a060020a038e16600090815260028352848120828252909252929020549197505060ff1615915061299f905057600080fd5b600160a060020a03881660008181526002602090815260408083208884528252808320805460ff191660011790559282526003905220546129e6903463ffffffff612bf816565b600160a060020a03808a166000818152600360205260408082209490945560015484517fe609295c000000000000000000000000000000000000000000000000000000008152602481018a90528e85166044820152606481019390935260806004840152601160848401527f427579206f72646572206372656174656400000000000000000000000000000060a48401529351939092169263e609295c9260c48084019391929182900301818387803b158015612aa257600080fd5b505af1158015612ab6573d6000803e3d6000fd5b5050600154604080517fa1c0aafe00000000000000000000000000000000000000000000000000000000815260248101899052604481018c9052606481018b905260806004820152600960848201527f427579206f72646572000000000000000000000000000000000000000000000060a48201529051600160a060020a03909216935063a1c0aafe925060c48082019260009290919082900301818387803b158015612b6257600080fd5b505af1158015612b76573d6000803e3d6000fd5b5060019c9b505050505050505050505050565b60046020526000908152604090205481565b60036020526000908152604090205481565b600080831515612bc05760009150612bdc565b50828202828482811515612bd057fe5b0414612bd857fe5b8091505b5092915050565b60008183811515612bf057fe5b049392505050565b600082820183811015612bd857fe5b600082821115612c1357fe5b509003905600617070726f76616c000000000000000000000000000000000000000000000000a165627a7a723058201910e3a9121be05ec1f56bdc9b5156b65c0cbef3b8dd4fb11ee7e3e96da529480029",
  "source": "pragma solidity ^0.4.24;\nimport '../database/Database.sol';\nimport '../database/Events.sol';\nimport '../math/SafeMath.sol';\nimport '../interfaces/DivToken.sol';\n// import \"../access/ERC20Burner.sol\";\n\n\n// @title Simple decentralized exchange contract\n// @notice A sample contract to implement rudimentary asset-token trading\n// @dev Note: Users can only have 1 sell order and 1 buy order for each individual asset\n// @dev The orders are stored as as sha3 hash of critical parameters to save storage costs\ncontract AssetExchange {\n  using SafeMath for uint;\n\n  Database public database;\n  Events public events;\n  // ERC20Burner private burner;\n\n  mapping (address => mapping (bytes32 => bool)) public orders;  // Hash of (assetAddress, sellerAddress, amountToBuy, price, boolean(BuyOrder = true))\n\n  mapping (address => uint) public weiDeposited;\n  mapping (address => uint) public weiOwed;\n  uint private decimals = uint256(1e18);\n\n\n  // @notice constructor: initializes database\n  // @param: the address for the database contract used by this platform\n  constructor(address _database, address _events)\n  public {\n    database = Database(_database);\n    events = Events(_events);\n    // burner = ERC20Burner(database.addressStorage(keccak256(abi.encodePacked(\"contract\", \"ERC20Burner\"))));\n  }\n\n  // Gives Ether sent to initatior of this sellOrder and transfers ownership units of asset to purchaser\n  // Note: Check if creator of sell order has enough ownership units left\n  // @Param: ID of the asset, which these ownershipUnits belong to\n  // @Param: Address of the user who created SellOrder\n  // @Param: Number of ownershipUnits being traded\n  // @Param: The WEI cost per unit\n  function buyAsset(address _assetAddress, address _buyer, address _seller, uint _amount, uint _price)\n  external\n  payable\n  whenNotPaused\n  isAllowed(_assetAddress, _seller, _amount)\n  // burnRequired\n  returns (bool){\n    require(msg.sender == _buyer || database.boolStorage(keccak256(abi.encodePacked(\"approval\", _buyer, msg.sender, address(this), msg.sig))), \"Buyer has not given approval\");\n    bytes32 thisOrder = keccak256(abi.encodePacked(_assetAddress, _seller, _amount, _price, false));\n    require(orders[_seller][thisOrder]);\n    require(msg.value == _amount.mul(_price).div(decimals));\n    DivToken assetToken = DivToken(_assetAddress);\n    require(assetToken.transferFrom(_seller, _buyer, _amount));\n    weiOwed[_seller] = weiOwed[_seller].add(msg.value);\n    delete orders[_seller][thisOrder];\n    events.exchange('Sell order completed', thisOrder, _assetAddress, _buyer);\n    //emit LogSellOrderCompleted(thisOrder, _assetAddress, _buyer);\n    return true;\n  }\n\n  // Settles an open SellOrder, giving the deposited ether to sender and sender tokens to initiator of BuyOrder\n  // @Param: ID of the asset, which senders ownershipUnits belong to\n  // @Param: Address of the user who created BuyOrder\n  // @Param: Number of ownershipUnits being sold\n  // @Param: The WEI cost per unit\n  function sellAsset(address _assetAddress, address _seller, address _buyer, uint _amount, uint _price)\n  public\n  whenNotPaused\n  isAllowed(_assetAddress, msg.sender, _amount)\n  returns (bool){\n    require(msg.sender == _seller || database.boolStorage(keccak256(abi.encodePacked(\"approval\", _seller, msg.sender, address(this), msg.sig))), \"Seller has not given approval\");\n    bytes32 thisOrder = keccak256(abi.encodePacked(_assetAddress, _buyer, _amount, _price, true));       // Get order ID\n    require(orders[_buyer][thisOrder]);    // Check order exists\n    uint value = _amount.mul(_price).div(decimals);\n    DivToken assetToken = DivToken(_assetAddress);\n    require(assetToken.transferFrom(_seller, _buyer, _amount));\n    weiDeposited[_buyer] = weiDeposited[_buyer].sub(value);\n    weiOwed[_seller] = weiOwed[_seller].add(value);\n    delete orders[_buyer][thisOrder];\n    events.exchange('Buy order completed', thisOrder, _assetAddress, _seller);\n    //emit LogBuyOrderCompleted(thisOrder, _assetAddress, _seller);\n    return true;\n  }\n\n  // Create a BuyOrder and leave WEI as a deposit for user that picks up order\n  // @Param: ID of the asset, which the sender wants to purchase ownershipUnits of\n  // @Param: Number of ownershipUnits being bought\n  // @Param: The WEI cost per unit\n  function createBuyOrder(address _assetAddress, address _buyer, uint _amount, uint _price)\n  external\n  payable\n  requiresEther\n  aboveZero(_amount, _price)\n  validAsset(_assetAddress)\n  // burnRequired\n  returns (bool) {\n    require(msg.sender == _buyer || database.boolStorage(keccak256(abi.encodePacked(\"approval\", _buyer, msg.sender, address(this), msg.sig))), \"Buyer has not given approval\");\n    require(msg.value == _amount.mul(_price).div(decimals));\n    bytes32 orderID = keccak256(abi.encodePacked(_assetAddress, _buyer, _amount, _price, true));\n    require(!orders[_buyer][orderID]);\n    orders[_buyer][orderID] = true;\n    weiDeposited[_buyer] = weiDeposited[_buyer].add(msg.value);\n    events.exchange('Buy order created', orderID, _assetAddress, _buyer);\n    events.order('Buy order', orderID, _amount, _price);\n    //emit LogBuyOrderCreated(orderID, _assetAddress, _buyer);\n    //emit LogBuyOrderDetails(orderID, _amount, _price);\n    return true;\n  }\n\n  // Create a BuyOrder and leave WEI as a deposit for user that picks up order\n  // @Param: ID of the asset, which sender is trying to sell\n  // @Param: Number of ownershipUnits being sold\n  // @Param: The WEI cost per unit\n  function createSellOrder(address _assetAddress, address _seller, uint _amount, uint _price)\n  external\n  aboveZero(_amount, _price)\n  validAsset(_assetAddress)\n  isAllowed(_assetAddress, _seller, _amount)\n  returns (bool) {\n    require(msg.sender == _seller || database.boolStorage(keccak256(abi.encodePacked(\"approval\", _seller, msg.sender, address(this), msg.sig))), \"Seller has not given approval\");\n    bytes32 orderID = keccak256(abi.encodePacked(_assetAddress, _seller, _amount, _price, false));\n    require(!orders[_seller][orderID]);\n    orders[_seller][orderID] = true;\n    events.exchange('Sell order created', orderID, _assetAddress, _seller);\n    events.order('Sell order', orderID, _amount, _price);\n    //emit LogSellOrderCreated(orderID, _assetAddress, _seller);\n    //emit LogSellOrderDetails(orderID, _amount, _price);\n    return true;\n  }\n\n  //------------------------------------------------------------------------------------------------------------------\n  // Create a BuyOrder and leave WEI as a deposit for user that picks up order\n  // @Param: ID of the asset\n  // @Param: Number of ownershipUnits being sold\n  // @Param: The WEI cost per unit\n  // @Param: Is this order a BuyOrder?\n  //------------------------------------------------------------------------------------------------------------------\n  function deleteOrder(address _assetAddress, address _orderMaker, uint _amount, uint _price, bool _buyOrder)\n  external\n  returns (bool) {\n    require(msg.sender == _orderMaker || database.boolStorage(keccak256(abi.encodePacked(\"approval\", _orderMaker, msg.sender, address(this), msg.sig))));\n    bytes32 orderID = keccak256(abi.encodePacked(_assetAddress, _orderMaker, _amount, _price, _buyOrder));\n    require(orders[_orderMaker][orderID]);\n    if (_buyOrder) {\n      uint returnValue = _amount.mul(_price).div(decimals);\n      weiDeposited[_orderMaker] = weiDeposited[_orderMaker].sub(returnValue);\n      weiOwed[_orderMaker] = weiOwed[_orderMaker].add(returnValue);\n    }\n    delete orders[_orderMaker][orderID];\n    return true;\n  }\n  //------------------------------------------------------------------------------------------------------------------\n  // User can withdraw the wei they are owed here\n  //------------------------------------------------------------------------------------------------------------------\n  function withdraw()\n  external\n  whenNotPaused\n  returns (bool){\n    uint owed = weiOwed[msg.sender];\n    weiOwed[msg.sender] = 0;\n    msg.sender.transfer(owed);\n    return true;\n  }\n\n\n  //------------------------------------------------------------------------------------------------------------------\n  // @notice Destroys contract and sends WEI to _holdingAddress\n  //------------------------------------------------------------------------------------------------------------------\n  function destroy(address _functionInitiator, address _holdingAddress)\n  anyOwner\n  public {\n    require(_functionInitiator != msg.sender);\n    require(database.boolStorage(keccak256(abi.encodePacked(address(this), _functionInitiator, \"destroy\", keccak256(abi.encodePacked(_holdingAddress))))));\n    events.transaction('Destroy contract', address(this), _holdingAddress, address(this).balance, '');\n    //emit LogDestruction(_holdingAddress, address(this).balance, msg.sender);\n    selfdestruct(_holdingAddress);\n  }\n\n\n  //------------------------------------------------------------------------------------------------------------------\n  //                                      Modifiers\n  //------------------------------------------------------------------------------------------------------------------\n\n\n  //------------------------------------------------------------------------------------------------------------------\n  // This verifies that the asset is registered on the MyBit Platform and has successfully completed funding\n  //------------------------------------------------------------------------------------------------------------------\n  modifier validAsset(address _assetAddress) {\n    require (_assetAddress != address(0), \"Address does not exist\");\n    require (database.boolStorage(keccak256(abi.encodePacked(\"crowdsale.finalized\", _assetAddress))), \"Crowdsale not finalized\");\n    _;\n  }\n\n  //------------------------------------------------------------------------------------------------------------------\n  // Check if user has enough ownershipUnits to create SellOrder\n  //------------------------------------------------------------------------------------------------------------------\n  modifier isAllowed(address _assetAddress, address _sender, uint _tokens) {\n    require(DivToken(_assetAddress).allowance(_sender, address(this)) >= _tokens, \"User has not given enough allowance\");\n    _;\n  }\n\n  //------------------------------------------------------------------------------------------------------------------\n  // Verifies that _amount or _price aren't null\n  //------------------------------------------------------------------------------------------------------------------\n  modifier aboveZero(uint _amount, uint _price) {\n    require(_amount.mul(_price) > 0, \"_amount or _price is zero\");\n    _;\n  }\n\n  // // @notice reverts if user hasn't approved burner to burn platform token\n  // modifier burnRequired {\n  //   //emit LogSig(msg.sig);\n  //   require(burner.burn(msg.sender, database.uintStorage(keccak256(abi.encodePacked(msg.sig, address(this))))));\n  //   _;\n  // }\n\n  //------------------------------------------------------------------------------------------------------------------\n  // Verify contract isn't paused\n  //------------------------------------------------------------------------------------------------------------------\n  modifier whenNotPaused {\n    require(!database.boolStorage(keccak256(abi.encodePacked(\"paused\", address(this)))), \"Contract paused\");\n    _;\n  }\n\n  //------------------------------------------------------------------------------------------------------------------\n  // Throw if Ether hasn't been sent\n  //------------------------------------------------------------------------------------------------------------------\n  modifier requiresEther() {\n    require(msg.value > 0, \"Ether has not been sent\");\n    _;\n  }\n\n  //------------------------------------------------------------------------------------------------------------------\n  // Verify that the sender is a registered owner\n  //------------------------------------------------------------------------------------------------------------------\n  modifier anyOwner {\n    require(database.boolStorage(keccak256(abi.encodePacked(\"owner\", msg.sender))), \"Not owner\");\n    _;\n  }\n\n}\n",
  "sourcePath": "/home/peter/Documents/Work/MyBit/MyBit-Network.tech/contracts/ecosystem/AssetExchange.sol",
  "compiler": {
    "name": "solc",
    "version": "0.4.24+commit.e67f0147.Emscripten.clang"
  },
  "schemaVersion": "3.0.1",
  "updatedAt": "2019-03-11T22:02:15.804Z",
  "devdoc": {
    "methods": {}
  },
  "userdoc": {
    "methods": {}
  }
}