{
  "contractName": "BancorGasPriceLimit",
  "abi": [
    {
      "constant": false,
      "inputs": [],
      "name": "acceptOwnership",
      "outputs": [],
      "payable": false,
      "stateMutability": "nonpayable",
      "type": "function"
    },
    {
      "constant": true,
      "inputs": [],
      "name": "owner",
      "outputs": [
        {
          "name": "",
          "type": "address"
        }
      ],
      "payable": false,
      "stateMutability": "view",
      "type": "function"
    },
    {
      "constant": true,
      "inputs": [],
      "name": "newOwner",
      "outputs": [
        {
          "name": "",
          "type": "address"
        }
      ],
      "payable": false,
      "stateMutability": "view",
      "type": "function"
    },
    {
      "constant": false,
      "inputs": [
        {
          "name": "_newOwner",
          "type": "address"
        }
      ],
      "name": "transferOwnership",
      "outputs": [],
      "payable": false,
      "stateMutability": "nonpayable",
      "type": "function"
    },
    {
      "constant": true,
      "inputs": [],
      "name": "gasPrice",
      "outputs": [
        {
          "name": "",
          "type": "uint256"
        }
      ],
      "payable": false,
      "stateMutability": "view",
      "type": "function"
    },
    {
      "inputs": [
        {
          "name": "_gasPrice",
          "type": "uint256"
        }
      ],
      "payable": false,
      "stateMutability": "nonpayable",
      "type": "constructor"
    },
    {
      "anonymous": false,
      "inputs": [
        {
          "indexed": true,
          "name": "_prevOwner",
          "type": "address"
        },
        {
          "indexed": true,
          "name": "_newOwner",
          "type": "address"
        }
      ],
      "name": "OwnerUpdate",
      "type": "event"
    },
    {
      "constant": false,
      "inputs": [
        {
          "name": "_gasPrice",
          "type": "uint256"
        }
      ],
      "name": "setGasPrice",
      "outputs": [],
      "payable": false,
      "stateMutability": "nonpayable",
      "type": "function"
    },
    {
      "constant": true,
      "inputs": [
        {
          "name": "_gasPrice",
          "type": "uint256"
        }
      ],
      "name": "validateGasPrice",
      "outputs": [],
      "payable": false,
      "stateMutability": "view",
      "type": "function"
    }
  ],
  "bytecode": "0x6080604052600060025534801561001557600080fd5b5060405160208061033a833981016040525160008054600160a060020a031916331781558190811161004657600080fd5b506002556102e1806100596000396000f3006080604052600436106100825763ffffffff7c01000000000000000000000000000000000000000000000000000000006000350416636b4dff1f811461008757806379ba5097146100a15780638da5cb5b146100b6578063bf1fe420146100e7578063d4ee1d90146100ff578063f2fde38b14610114578063fe173b9714610135575b600080fd5b34801561009357600080fd5b5061009f60043561015c565b005b3480156100ad57600080fd5b5061009f61017d565b3480156100c257600080fd5b506100cb610205565b60408051600160a060020a039092168252519081900360200190f35b3480156100f357600080fd5b5061009f600435610214565b34801561010b57600080fd5b506100cb61023f565b34801561012057600080fd5b5061009f600160a060020a036004351661024e565b34801561014157600080fd5b5061014a6102af565b60408051918252519081900360200190f35b806000811161016a57600080fd5b60025482111561017957600080fd5b5050565b600154600160a060020a0316331461019457600080fd5b60015460008054604051600160a060020a0393841693909116917f343765429aea5a34b3ff6a3785a98a5abb2597aca87bfbb58632c173d585373a91a3600180546000805473ffffffffffffffffffffffffffffffffffffffff19908116600160a060020a03841617909155169055565b600054600160a060020a031681565b600054600160a060020a0316331461022b57600080fd5b806000811161023957600080fd5b50600255565b600154600160a060020a031681565b600054600160a060020a0316331461026557600080fd5b600054600160a060020a038281169116141561028057600080fd5b6001805473ffffffffffffffffffffffffffffffffffffffff1916600160a060020a0392909216919091179055565b600254815600a165627a7a723058209d9eb8703cc5204780233af833b6361021d90c1a0f0d9c1b28ed760221a459a30029",
  "source": "pragma solidity ^0.4.24;\nimport './interfaces/IBancorGasPriceLimit.sol';\nimport '../utility/Owned.sol';\nimport '../utility/Utils.sol';\n\n/*\n    The BancorGasPriceLimit contract serves as an extra front-running attack mitigation mechanism.\n    It sets a maximum gas price on all bancor conversions, which prevents users from \"cutting in line\"\n    in order to front-run other transactions.\n    The gas price limit is universal to all converters and it can be updated by the owner to be in line\n    with the network's current gas price.\n*/\ncontract BancorGasPriceLimit is IBancorGasPriceLimit, Owned, Utils {\n    uint256 public gasPrice = 0 wei;    // maximum gas price for bancor transactions\n    \n    /**\n        @dev constructor\n\n        @param _gasPrice    gas price limit\n    */\n    constructor(uint256 _gasPrice)\n        public\n        greaterThanZero(_gasPrice)\n    {\n        gasPrice = _gasPrice;\n    }\n\n    /*\n        @dev allows the owner to update the gas price limit\n\n        @param _gasPrice    new gas price limit\n    */\n    function setGasPrice(uint256 _gasPrice)\n        public\n        ownerOnly\n        greaterThanZero(_gasPrice)\n    {\n        gasPrice = _gasPrice;\n    }\n\n    /*\n        @dev validate that the given gas price is equal to the current network gas price\n\n        @param _gasPrice    tested gas price\n    */\n    function validateGasPrice(uint256 _gasPrice)\n        public\n        view\n        greaterThanZero(_gasPrice)\n    {\n        require(_gasPrice <= gasPrice);\n    }\n}\n",
  "sourcePath": "/home/peter/Documents/Work/MyBit/MyBit-Network.tech/contracts/bancor/converter/BancorGasPriceLimit.sol",
  "compiler": {
    "name": "solc",
    "version": "0.4.24+commit.e67f0147.Emscripten.clang"
  },
  "schemaVersion": "2.0.1",
  "updatedAt": "2018-12-03T18:35:11.902Z"
}