{
  "contractName": "BancorConverterFactory",
  "abi": [
    {
      "inputs": [],
      "payable": false,
      "stateMutability": "nonpayable",
      "type": "constructor"
    },
    {
      "anonymous": false,
      "inputs": [
        {
          "indexed": true,
          "name": "_converter",
          "type": "address"
        },
        {
          "indexed": true,
          "name": "_owner",
          "type": "address"
        }
      ],
      "name": "NewConverter",
      "type": "event"
    },
    {
      "constant": false,
      "inputs": [
        {
          "name": "_token",
          "type": "address"
        },
        {
          "name": "_registry",
          "type": "address"
        },
        {
          "name": "_maxConversionFee",
          "type": "uint32"
        },
        {
          "name": "_connectorToken",
          "type": "address"
        },
        {
          "name": "_connectorWeight",
          "type": "uint32"
        }
      ],
      "name": "createConverter",
      "outputs": [
        {
          "name": "converterAddress",
          "type": "address"
        }
      ],
      "payable": false,
      "stateMutability": "nonpayable",
      "type": "function"
    }
  ],
  "bytecode": "0x608060405234801561001057600080fd5b50614ac8806100206000396000f3006080604052600436106100405763ffffffff7c0100000000000000000000000000000000000000000000000000000000600035041663034efaeb8114610045575b600080fd5b34801561005157600080fd5b5061008f73ffffffffffffffffffffffffffffffffffffffff60043581169060243581169063ffffffff6044358116916064351690608435166100b8565b6040805173ffffffffffffffffffffffffffffffffffffffff9092168252519081900360200190f35b600080600087878787876100ca61028c565b73ffffffffffffffffffffffffffffffffffffffff9586168152938516602085015263ffffffff9283166040808601919091529190941660608401529216608082015290519081900360a001906000f08015801561012c573d6000803e3d6000fd5b50604080517ff2fde38b000000000000000000000000000000000000000000000000000000008152336004820152905191935073ffffffffffffffffffffffffffffffffffffffff84169163f2fde38b9160248082019260009290919082900301818387803b15801561019e57600080fd5b505af11580156101b2573d6000803e3d6000fd5b5050604080517fe4edf852000000000000000000000000000000000000000000000000000000008152336004820152905173ffffffffffffffffffffffffffffffffffffffff8616935063e4edf8529250602480830192600092919082900301818387803b15801561022357600080fd5b505af1158015610237573d6000803e3d6000fd5b505060405184935033925073ffffffffffffffffffffffffffffffffffffffff841691507fb54eb8f70476910bea510b4ca1ece1fdb11eeb345b0d46221dd40ba86e64953390600090a3979650505050505050565b6040516148008061029d8339019056007f302e31310000000000000000000000000000000000000000000000000000000060055560c0604052600660808190527f62616e636f72000000000000000000000000000000000000000000000000000060a0908152620000629190816200058d565b506007805461ff001960ff19909116600117169055600c80546001606860020a0319166c01000000000000000000000000179055348015620000a357600080fd5b5060405160a080620048008339810160409081528151602083015191830151606084015160809094015160008054600160a060020a03191633178155929491928580600160a060020a0381161515620000fb57600080fd5b5060028054600160a060020a03928316600160a060020a03199182161790915560038054909116331790558590811615156200013657600080fd5b8460008163ffffffff1610158015620001585750620f424063ffffffff821611155b15156200016457600080fd5b60088054600160a060020a031916600160a060020a0389811691821792839055600780546201000060b060020a0319166201000090930292909217909155604080517fbb34534c0000000000000000000000000000000000000000000000000000000081527f436f6e747261637446656174757265730000000000000000000000000000000060048201529051929091169163bb34534c916024808201926020929091908290030181600087803b1580156200021f57600080fd5b505af115801562000234573d6000803e3d6000fd5b505050506040513d60208110156200024b57600080fd5b50519250600160a060020a03831615620002e257604080517f2c7077c000000000000000000000000000000000000000000000000000000000815260016004820181905260248201529051600160a060020a03851691632c7077c091604480830192600092919082900301818387803b158015620002c857600080fd5b505af1158015620002dd573d6000803e3d6000fd5b505050505b600c805467ffffffff00000000191664010000000063ffffffff891602179055600160a060020a038516156200032957620003298585600064010000000062000337810204565b505050505050505062000632565b600054600160a060020a031633146200034f57600080fd5b600254604080517f8da5cb5b00000000000000000000000000000000000000000000000000000000815290513092600160a060020a031691638da5cb5b9160048083019260209291908290030181600087803b158015620003af57600080fd5b505af1158015620003c4573d6000803e3d6000fd5b505050506040513d6020811015620003db57600080fd5b5051600160a060020a03161415620003f257600080fd5b82600160a060020a03811615156200040957600080fd5b83600160a060020a0381163014156200042157600080fd5b8360008163ffffffff16118015620004425750620f424063ffffffff821611155b15156200044e57600080fd5b600254600160a060020a03878116911614801590620004935750600160a060020a0386166000908152600b60205260409020600101546601000000000000900460ff16155b8015620004b25750600c54620f424063ffffffff918216870190911611155b1515620004be57600080fd5b505050600160a060020a039092166000818152600b602052604081208181556001908101805466ff0000000000001965ff0000000000199715156401000000000264ff000000001963ffffffff808a1663ffffffff1995861617919091169190911798909816650100000000001716660100000000000017909155600a805492830181559092527fc65a7bb8d6351c1cf70c95a316cc6a92839c986682d98bc35f958f4883f9d2a8018054600160a060020a031916909217909155600c80548085169093019093169116179055565b828054600181600116156101000203166002900490600052602060002090601f016020900481019282601f10620005d057805160ff191683800117855562000600565b8280016001018555821562000600579182015b8281111562000600578251825591602001919060010190620005e3565b506200060e92915062000612565b5090565b6200062f91905b808211156200060e576000815560010162000619565b90565b6141be80620006426000396000f3006080604052600436106102d15763ffffffff60e060020a6000350416630c87355e81146102d65780630ca78923146102fd5780630e53aae91461033157806319b64015146103865780631d000b61146103ba5780631e1401f8146103cf57806320d7d3671461041257806321e6b53d1461043b578063227425641461045c578063228d2820146104c457806325f9bfef146104de5780632a2e2f0c146104f357806338a5e016146105205780633aa0145a146105355780633e8ff43f146105535780633f4d2fc2146105dd578063415f12401461060c57806341a5b33d14610624578063429060291461064e578063481c6a751461066357806349d10b64146106785780634af80f0e1461068d578063514385be146106ae57806354fd4d50146106d4578063579cd3ca146106e95780635a46f06c146107175780635e35359e1461072c5780635e5144eb1461075657806361cd756e1461078357806362614ae6146107985780636d7bd3fc146107ad57806371f52bf3146107c257806372b44b2c146107ee57806375892cf11461081257806379ba50971461083f5780637b1039991461085457806383315b6e1461086957806385d5e6311461087e5780638b34839f146108985780638da5cb5b146108ad5780638e3047e0146108c25780639232494e146108ec5780639249993a1461090157806392d1abb71461091657806394c275ad1461092b578063a2c4c33614610940578063ad374f5b14610964578063b4a176d31461097e578063bf75455814610993578063c45d3d92146109a8578063c4a8598e146109bd578063c8c2fe6c146109d2578063ca1d209d146109e7578063d4ee1d90146109ff578063d55ec69714610a14578063d895951214610a29578063e4edf85214610a4a578063ecbca55d14610a6b578063f0843ba914610a89578063f2fde38b14610ada578063fa1c594e14610afb578063fc0c546a14610b15578063fe417fa514610b2a575b600080fd5b3480156102e257600080fd5b506102eb610b4e565b60408051918252519081900360200190f35b34801561030957600080fd5b5061032f600160a060020a036004351663ffffffff602435166044351515606435610b60565b005b34801561033d57600080fd5b50610352600160a060020a0360043516610c73565b6040805195865263ffffffff9094166020860152911515848401521515606084015215156080830152519081900360a00190f35b34801561039257600080fd5b5061039e600435610cb9565b60408051600160a060020a039092168252519081900360200190f35b3480156103c657600080fd5b506102eb610ce1565b3480156103db57600080fd5b506103f9600160a060020a0360043581169060243516604435610d05565b6040805192835260208301919091528051918290030190f35b34801561041e57600080fd5b50610427610d82565b604080519115158252519081900360200190f35b34801561044757600080fd5b5061032f600160a060020a0360043516610d8b565b604080516020600480358082013583810280860185019096528085526102eb95369593946024949385019291829185019084908082843750949750508435955050506020830135926040810135925060ff606082013516915060808101359060a00135610e55565b3480156104d057600080fd5b5061032f6004351515611212565b3480156104ea57600080fd5b506102eb6112d1565b3480156104ff57600080fd5b506102eb600160a060020a03600435811690602435166044356064356112f5565b34801561052c57600080fd5b5061032f6117d7565b34801561054157600080fd5b506102eb60043560ff6024351661185b565b34801561055f57600080fd5b506105686118b7565b6040805160208082528351818301528351919283929083019185019080838360005b838110156105a257818101518382015260200161058a565b50505050905090810190601f1680156105cf5780820380516001836020036101000a031916815260200191505b509250505060405180910390f35b3480156105e957600080fd5b5061032f600160a060020a036004351663ffffffff602435166044351515611945565b34801561061857600080fd5b5061032f600435611b8f565b34801561063057600080fd5b5061032f600160a060020a0360043581169060243516604435611e39565b34801561065a57600080fd5b5061039e611eda565b34801561066f57600080fd5b5061039e611ee9565b34801561068457600080fd5b5061032f611ef8565b34801561069957600080fd5b5061032f600160a060020a036004351661203f565b3480156106ba57600080fd5b5061032f600160a060020a03600435166024351515612090565b3480156106e057600080fd5b506102eb612118565b3480156106f557600080fd5b506106fe61211e565b6040805163ffffffff9092168252519081900360200190f35b34801561072357600080fd5b506102eb612136565b34801561073857600080fd5b5061032f600160a060020a036004358116906024351660443561215a565b34801561076257600080fd5b506102eb600160a060020a03600435811690602435166044356064356122db565b34801561078f57600080fd5b5061039e6122f2565b3480156107a457600080fd5b506102eb612307565b3480156107b957600080fd5b506102eb61232b565b3480156107ce57600080fd5b506107d761233d565b6040805161ffff9092168252519081900360200190f35b3480156107fa57600080fd5b506103f9600160a060020a0360043516602435612344565b34801561081e57600080fd5b506102eb600160a060020a0360043581169060243516604435606435612628565b34801561084b57600080fd5b5061032f6126c9565b34801561086057600080fd5b5061039e612744565b34801561087557600080fd5b506102eb612753565b34801561088a57600080fd5b5061032f6004351515612777565b3480156108a457600080fd5b50610427612810565b3480156108b957600080fd5b5061039e61281e565b3480156108ce57600080fd5b506103f9600160a060020a036004358116906024351660443561282d565b3480156108f857600080fd5b506102eb612aec565b34801561090d57600080fd5b506102eb612b10565b34801561092257600080fd5b506102eb612b34565b34801561093757600080fd5b506106fe612b39565b34801561094c57600080fd5b506103f9600160a060020a0360043516602435612b4d565b34801561097057600080fd5b5061032f6004351515612dfe565b34801561098a57600080fd5b5061032f612e2f565b34801561099f57600080fd5b50610427612e89565b3480156109b457600080fd5b5061039e612ea2565b3480156109c957600080fd5b506102eb612eb1565b3480156109de57600080fd5b5061032f612ed5565b3480156109f357600080fd5b5061032f600435612f52565b348015610a0b57600080fd5b5061039e61321f565b348015610a2057600080fd5b5061032f61322e565b348015610a3557600080fd5b506102eb600160a060020a036004351661335f565b348015610a5657600080fd5b5061032f600160a060020a0360043516613463565b348015610a7757600080fd5b5061032f63ffffffff600435166134ce565b604080516020600480358082013583810280860185019096528085526102eb953695939460249493850192918291850190849080828437509497505084359550505060209092013591506135b59050565b348015610ae657600080fd5b5061032f600160a060020a03600435166135f7565b348015610b0757600080fd5b5061032f600435151561364b565b348015610b2157600080fd5b5061039e61368b565b348015610b3657600080fd5b5061032f600160a060020a036004351660243561369a565b60008051602061415383398151915281565b60008054600160a060020a03163314610b7857600080fd5b600160a060020a0385166000908152600b602052604090206001015485906601000000000000900460ff161515610bae57600080fd5b8460008163ffffffff16118015610bce5750620f424063ffffffff821611155b1515610bd957600080fd5b600160a060020a0387166000908152600b602052604090206001810154600c54919450620f424063ffffffff918216928216929092038801161115610c1d57600080fd5b5050600181018054600c805463ffffffff928316818416038801831663ffffffff199182161790915582549515156401000000000264ff0000000019929097169516949094179390931693909317909155905550565b600b602052600090815260409020805460019091015463ffffffff81169060ff640100000000820481169165010000000000810482169166010000000000009091041685565b600a805482908110610cc757fe5b600091825260209091200154600160a060020a0316905081565b7f424e54546f6b656e00000000000000000000000000000000000000000000000081565b600080600160a060020a038581169085161415610d2157600080fd5b600254600160a060020a0385811691161415610d4a57610d418584612b4d565b91509150610d7a565b600254600160a060020a0386811691161415610d6a57610d418484612344565b610d7585858561282d565b915091505b935093915050565b60075460ff1681565b600054600160a060020a03163314610da257600080fd5b6008546040805160e260020a632ecd14d302815260008051602061415383398151915260048201529051600092600160a060020a03169163bb34534c91602480830192602092919082900301818787803b158015610dff57600080fd5b505af1158015610e13573d6000803e3d6000fd5b505050506040513d6020811015610e2957600080fd5b5051600054909150600160a060020a03808316911614610e4857600080fd5b610e5182613844565b5050565b60008060008960028151118015610e6e57506015815111155b8015610e7f57508051600290066001145b1515610e8a57600080fd5b8a6000815181101515610e9957fe5b60209081029091018101516008546040805160e260020a632ecd14d30281527f42616e636f724e6574776f726b0000000000000000000000000000000000000060048201529051929650600160a060020a039091169263bb34534c926024808401938290030181600087803b158015610f1157600080fd5b505af1158015610f25573d6000803e3d6000fd5b505050506040513d6020811015610f3b57600080fd5b505191503415156110ef57600254600160a060020a038481169116141561105f576002546040805160e060020a63a24835d1028152336004820152602481018d90529051600160a060020a039092169163a24835d19160448082019260009290919082900301818387803b158015610fb257600080fd5b505af1158015610fc6573d6000803e3d6000fd5b50505050600260009054906101000a9004600160a060020a0316600160a060020a031663867904b4838c6040518363ffffffff1660e060020a0281526004018083600160a060020a0316600160a060020a0316815260200182815260200192505050600060405180830381600087803b15801561104257600080fd5b505af1158015611056573d6000803e3d6000fd5b505050506110ef565b6040805160e060020a6323b872dd028152336004820152600160a060020a038481166024830152604482018d90529151918516916323b872dd916064808201926020929091908290030181600087803b1580156110bb57600080fd5b505af11580156110cf573d6000803e3d6000fd5b505050506040513d60208110156110e557600080fd5b505115156110ef57fe5b81600160a060020a0316636b08f2ef348d8d8d338e8e8e8e6040518a63ffffffff1660e060020a028152600401808060200189815260200188815260200187600160a060020a0316600160a060020a031681526020018681526020018560ff1660ff1681526020018460001916600019168152602001836000191660001916815260200182810382528a818151815260200191508051906020019060200280838360005b838110156111ab578181015183820152602001611193565b5050505090500199505050505050505050506020604051808303818588803b1580156111d657600080fd5b505af11580156111ea573d6000803e3d6000fd5b50505050506040513d602081101561120157600080fd5b50519b9a5050505050505050505050565b600054600160a060020a03163314806112355750600354600160a060020a031633145b151561124057600080fd5b600c5460ff6c0100000000000000000000000090910416151581151514156112ce57600c80546c01000000000000000000000000831581026cff000000000000000000000000199092169190911791829055604080519190920460ff161515815290517fb8e670608a57255ce4f35952b324cba70211a4200a91ce81d26e06d488c1f66b9181900360200190a15b50565b7f436f6e747261637452656769737472790000000000000000000000000000000081565b6008546040805160e260020a632ecd14d30281527f42616e636f724e6574776f726b0000000000000000000000000000000000000060048201529051600092839283928392839283928392600160a060020a03169163bb34534c91602480830192602092919082900301818787803b15801561137057600080fd5b505af1158015611384573d6000803e3d6000fd5b505050506040513d602081101561139a57600080fd5b5051905033600160a060020a038216146113b357600080fd5b600c546c01000000000000000000000000900460ff1615156113d157fe5b87600081116113df57600080fd5b600160a060020a038c8116908c1614156113f857600080fd5b600254600160a060020a038c811691161415611420576114198c8b8b6138c2565b97506117c8565b600254600160a060020a038d811691161415611441576114198b8b8b613b2c565b61144c8c8c8c61282d565b909750955086158015906114605750888710155b151561146b57600080fd5b600160a060020a038c166000908152600b602052604090206001810154909550640100000000900460ff16156114aa5784546114a7908b613ee0565b85555b600160a060020a038b166000908152600b602052604090206001810154909450640100000000900460ff16156114e95783546114e69088613ef6565b84555b6114f28b61335f565b92508287106114fd57fe5b6040805160e060020a6323b872dd028152336004820152306024820152604481018c90529051600160a060020a038e16916323b872dd9160648083019260209291908290030181600087803b15801561155557600080fd5b505af1158015611569573d6000803e3d6000fd5b505050506040513d602081101561157f57600080fd5b5051151561158957fe5b604080517fa9059cbb000000000000000000000000000000000000000000000000000000008152336004820152602481018990529051600160a060020a038d169163a9059cbb9160448083019260209291908290030181600087803b1580156115f157600080fd5b505af1158015611605573d6000803e3d6000fd5b505050506040513d602081101561161b57600080fd5b5051151561162557fe5b6116328c8c8c8a8a613f08565b8b600160a060020a0316600080516020614173833981519152600260009054906101000a9004600160a060020a0316600160a060020a03166318160ddd6040518163ffffffff1660e060020a028152600401602060405180830381600087803b15801561169e57600080fd5b505af11580156116b2573d6000803e3d6000fd5b505050506040513d60208110156116c857600080fd5b50516116d38f61335f565b600189015460408051938452602084019290925263ffffffff1682820152519081900360600190a28a600160a060020a0316600080516020614173833981519152600260009054906101000a9004600160a060020a0316600160a060020a03166318160ddd6040518163ffffffff1660e060020a028152600401602060405180830381600087803b15801561176757600080fd5b505af115801561177b573d6000803e3d6000fd5b505050506040513d602081101561179157600080fd5b505161179c8e61335f565b600188015460408051938452602084019290925263ffffffff1682820152519081900360600190a28697505b50505050505050949350505050565b600054600160a060020a031633146117ee57600080fd5b600260009054906101000a9004600160a060020a0316600160a060020a03166379ba50976040518163ffffffff1660e060020a028152600401600060405180830381600087803b15801561184157600080fd5b505af1158015611855573d6000803e3d6000fd5b50505050565b60008160ff16620f42400a67ffffffffffffffff166118a6848460ff16600c60089054906101000a900463ffffffff1663ffffffff16620f4240030a67ffffffffffffffff16613f8c565b8115156118af57fe5b049392505050565b6006805460408051602060026001851615610100026000190190941693909304601f8101849004840282018401909252818152929183018282801561193d5780601f106119125761010080835404028352916020019161193d565b820191906000526020600020905b81548152906001019060200180831161192057829003601f168201915b505050505081565b600054600160a060020a0316331461195c57600080fd5b600254604080517f8da5cb5b00000000000000000000000000000000000000000000000000000000815290513092600160a060020a031691638da5cb5b9160048083019260209291908290030181600087803b1580156119bb57600080fd5b505af11580156119cf573d6000803e3d6000fd5b505050506040513d60208110156119e557600080fd5b5051600160a060020a031614156119fb57600080fd5b82600160a060020a0381161515611a1157600080fd5b83600160a060020a038116301415611a2857600080fd5b8360008163ffffffff16118015611a485750620f424063ffffffff821611155b1515611a5357600080fd5b600254600160a060020a03878116911614801590611a975750600160a060020a0386166000908152600b60205260409020600101546601000000000000900460ff16155b8015611ab55750600c54620f424063ffffffff918216870190911611155b1515611ac057600080fd5b505050600160a060020a039092166000818152600b602052604081208181556001908101805466ff0000000000001965ff0000000000199715156401000000000264ff000000001963ffffffff808a1663ffffffff1995861617919091169190911798909816650100000000001716660100000000000017909155600a805492830181559092527fc65a7bb8d6351c1cf70c95a316cc6a92839c986682d98bc35f958f4883f9d2a8018054600160a060020a031916909217909155600c80548085169093019093169116179055565b600c546000908190819081908190819063ffffffff16620f424014611bb357600080fd5b600260009054906101000a9004600160a060020a0316600160a060020a03166318160ddd6040518163ffffffff1660e060020a028152600401602060405180830381600087803b158015611c0657600080fd5b505af1158015611c1a573d6000803e3d6000fd5b505050506040513d6020811015611c3057600080fd5b50516002546040805160e060020a63a24835d1028152336004820152602481018b90529051929850600160a060020a039091169163a24835d19160448082019260009290919082900301818387803b158015611c8b57600080fd5b505af1158015611c9f573d6000803e3d6000fd5b50505050600091505b600a5461ffff83161015611e3057600a805461ffff8416908110611cc857fe5b600091825260209091200154600160a060020a03169450611ce88561335f565b935085611cf58886613f8c565b811515611cfe57fe5b600160a060020a0387166000908152600b6020526040902060018101549290910494509150640100000000900460ff1615611d42578054611d3f9084613ef6565b81555b604080517fa9059cbb000000000000000000000000000000000000000000000000000000008152336004820152602481018590529051600160a060020a0387169163a9059cbb9160448083019260209291908290030181600087803b158015611daa57600080fd5b505af1158015611dbe573d6000803e3d6000fd5b505050506040513d6020811015611dd457600080fd5b50511515611dde57fe5b6001810154604080518989038152858703602082015263ffffffff9092168282015251600160a060020a03871691600080516020614173833981519152919081900360600190a2600190910190611ca8565b50505050505050565b600054600160a060020a03163314611e5057600080fd5b600254604080517f5e35359e000000000000000000000000000000000000000000000000000000008152600160a060020a03868116600483015285811660248301526044820185905291519190921691635e35359e91606480830192600092919082900301818387803b158015611ec657600080fd5b505af1158015611e30573d6000803e3d6000fd5b600454600160a060020a031681565b600354600160a060020a031681565b60075460009060ff1680611f165750600054600160a060020a031633145b1515611f2157600080fd5b6008546040805160e260020a632ecd14d30281527f436f6e747261637452656769737472790000000000000000000000000000000060048201529051600160a060020a039092169163bb34534c916024808201926020929091908290030181600087803b158015611f9157600080fd5b505af1158015611fa5573d6000803e3d6000fd5b505050506040513d6020811015611fbb57600080fd5b5051600854909150600160a060020a03808316911614801590611fe65750600160a060020a03811615155b1515611ff157600080fd5b600880546007805475ffffffffffffffffffffffffffffffffffffffff00001916600160a060020a03808416620100000291909117909155600160a060020a03199091169216919091179055565b600054600160a060020a0316331461205657600080fd5b80600160a060020a03811630141561206d57600080fd5b5060098054600160a060020a031916600160a060020a0392909216919091179055565b600054600160a060020a031633146120a757600080fd5b600160a060020a0382166000908152600b602052604090206001015482906601000000000000900460ff1615156120dd57600080fd5b50600160a060020a03919091166000908152600b60205260409020600101805465ff0000000000191691156501000000000002919091179055565b60055481565b600c5468010000000000000000900463ffffffff1681565b7f42616e636f72436f6e766572746572466163746f72790000000000000000000081565b6008546040805160e260020a632ecd14d302815260008051602061415383398151915260048201529051600092600160a060020a03169163bb34534c91602480830192602092919082900301818787803b1580156121b757600080fd5b505af11580156121cb573d6000803e3d6000fd5b505050506040513d60208110156121e157600080fd5b5051600160a060020a0385166000908152600b60205260409020600101549091506601000000000000900460ff1615806122ad5750600254604080517f8da5cb5b00000000000000000000000000000000000000000000000000000000815290513092600160a060020a031691638da5cb5b9160048083019260209291908290030181600087803b15801561227557600080fd5b505af1158015612289573d6000803e3d6000fd5b505050506040513d602081101561229f57600080fd5b5051600160a060020a031614155b806122c55750600054600160a060020a038281169116145b15156122d057600080fd5b611855848484613fb0565b60006122e9858585856112f5565b95945050505050565b600754620100009004600160a060020a031681565b7f424e54436f6e766572746572000000000000000000000000000000000000000081565b60008051602061413383398151915281565b600a545b90565b60008060008060008060008030600160a060020a0316600260009054906101000a9004600160a060020a0316600160a060020a0316638da5cb5b6040518163ffffffff1660e060020a028152600401602060405180830381600087803b1580156123ad57600080fd5b505af11580156123c1573d6000803e3d6000fd5b505050506040513d60208110156123d757600080fd5b5051600160a060020a0316146123ec57600080fd5b600160a060020a038a166000908152600b60205260409020600101548a906601000000000000900460ff16151561242257600080fd5b600160a060020a03808c166000908152600b6020908152604080832060025482517f18160ddd0000000000000000000000000000000000000000000000000000000081529251919c50909416936318160ddd93600480840194938390030190829087803b15801561249257600080fd5b505af11580156124a6573d6000803e3d6000fd5b505050506040513d60208110156124bc57600080fd5b505195506124c98b61335f565b6008546040805160e260020a632ecd14d302815260008051602061413383398151915260048201529051929750600160a060020a039091169163bb34534c916024808201926020929091908290030181600087803b15801561252a57600080fd5b505af115801561253e573d6000803e3d6000fd5b505050506040513d602081101561255457600080fd5b50516001880154604080517f49f9b0f7000000000000000000000000000000000000000000000000000000008152600481018a90526024810189905263ffffffff9092166044830152606482018d905251919550600160a060020a038616916349f9b0f7916084808201926020929091908290030181600087803b1580156125db57600080fd5b505af11580156125ef573d6000803e3d6000fd5b505050506040513d602081101561260557600080fd5b5051925061261483600161185b565b9b928c90039a509198505050505050505050565b60408051606081018252600160a060020a0380871682526002548116602083015285169181019190915260009061266390600d9060036140a9565b506122e9600d8054806020026020016040519081016040528092919081815260200182805480156126bd57602002820191906000526020600020905b8154600160a060020a0316815260019091019060200180831161269f575b505050505084846135b5565b600154600160a060020a031633146126e057600080fd5b60015460008054604051600160a060020a0393841693909116917f343765429aea5a34b3ff6a3785a98a5abb2597aca87bfbb58632c173d585373a91a36001805460008054600160a060020a0319908116600160a060020a03841617909155169055565b600854600160a060020a031681565b7f436f6e747261637446656174757265730000000000000000000000000000000081565b600054600160a060020a0316331461278e57600080fd5b600254604080517f1608f18f00000000000000000000000000000000000000000000000000000000815283151560048201529051600160a060020a0390921691631608f18f9160248082019260009290919082900301818387803b1580156127f557600080fd5b505af1158015612809573d6000803e3d6000fd5b5050505050565b600754610100900460ff1681565b600054600160a060020a031681565b600080600080600080600030600160a060020a0316600260009054906101000a9004600160a060020a0316600160a060020a0316638da5cb5b6040518163ffffffff1660e060020a028152600401602060405180830381600087803b15801561289557600080fd5b505af11580156128a9573d6000803e3d6000fd5b505050506040513d60208110156128bf57600080fd5b5051600160a060020a0316146128d457600080fd5b600160a060020a038a166000908152600b60205260409020600101548a906601000000000000900460ff16151561290a57600080fd5b600160a060020a038a166000908152600b60205260409020600101548a906601000000000000900460ff16151561294057600080fd5b600160a060020a038c81166000908152600b6020526040808220928e16825290206001810154919850965065010000000000900460ff16151561298257600080fd5b6008546040805160e260020a632ecd14d302815260008051602061413383398151915260048201529051600160a060020a039092169163bb34534c916024808201926020929091908290030181600087803b1580156129e057600080fd5b505af11580156129f4573d6000803e3d6000fd5b505050506040513d6020811015612a0a57600080fd5b50519450600160a060020a0385166365098bb3612a268e61335f565b60018a015463ffffffff16612a3a8f61335f565b60018b01546040805163ffffffff87811660e060020a028252600482019690965293851660248501526044840192909252929092166064820152608481018e9052905160a48083019260209291908290030181600087803b158015612a9e57600080fd5b505af1158015612ab2573d6000803e3d6000fd5b505050506040513d6020811015612ac857600080fd5b50519350612ad784600261185b565b9c938d90039b50929950505050505050505050565b7f42616e636f724e6574776f726b0000000000000000000000000000000000000081565b7f42616e636f7247617350726963654c696d69740000000000000000000000000081565b600181565b600c54640100000000900463ffffffff1681565b60008060008060008060008030600160a060020a0316600260009054906101000a9004600160a060020a0316600160a060020a0316638da5cb5b6040518163ffffffff1660e060020a028152600401602060405180830381600087803b158015612bb657600080fd5b505af1158015612bca573d6000803e3d6000fd5b505050506040513d6020811015612be057600080fd5b5051600160a060020a031614612bf557600080fd5b600160a060020a038a166000908152600b60205260409020600101548a906601000000000000900460ff161515612c2b57600080fd5b600160a060020a038b166000908152600b60205260409020600181015490975065010000000000900460ff161515612c6257600080fd5b600260009054906101000a9004600160a060020a0316600160a060020a03166318160ddd6040518163ffffffff1660e060020a028152600401602060405180830381600087803b158015612cb557600080fd5b505af1158015612cc9573d6000803e3d6000fd5b505050506040513d6020811015612cdf57600080fd5b50519550612cec8b61335f565b6008546040805160e260020a632ecd14d302815260008051602061413383398151915260048201529051929750600160a060020a039091169163bb34534c916024808201926020929091908290030181600087803b158015612d4d57600080fd5b505af1158015612d61573d6000803e3d6000fd5b505050506040513d6020811015612d7757600080fd5b50516001880154604080517f29a00e7c000000000000000000000000000000000000000000000000000000008152600481018a90526024810189905263ffffffff9092166044830152606482018d905251919550600160a060020a038616916329a00e7c916084808201926020929091908290030181600087803b1580156125db57600080fd5b600054600160a060020a03163314612e1557600080fd5b600780549115156101000261ff0019909216919091179055565b600054600160a060020a0316331480612e525750600354600160a060020a031633145b1515612e5d57600080fd5b6007805460088054600160a060020a031916600160a060020a036201000084041617905560ff19169055565b600c546c01000000000000000000000000900460ff1681565b600954600160a060020a031681565b7f42616e636f72580000000000000000000000000000000000000000000000000081565b600454600160a060020a03163314612eec57600080fd5b600454600354604051600160a060020a0392831692909116907fbe4cc281795971a471c980e842627a7f1ea3892ddfce8c5b6357cd2611c1973290600090a36004805460038054600160a060020a0319908116600160a060020a03841617909155169055565b600c546000908190819081908190819063ffffffff16620f424014612f7657600080fd5b600c546c01000000000000000000000000900460ff161515612f9457fe5b600260009054906101000a9004600160a060020a0316600160a060020a03166318160ddd6040518163ffffffff1660e060020a028152600401602060405180830381600087803b158015612fe757600080fd5b505af1158015612ffb573d6000803e3d6000fd5b505050506040513d602081101561301157600080fd5b50519550600091505b600a5461ffff8316101561319257600a805461ffff841690811061303a57fe5b600091825260209091200154600160a060020a0316945061305a8561335f565b9350856130678886613f8c565b81151561307057fe5b600160a060020a0387166000908152600b6020526040902060018101549290910494509150640100000000900460ff16156130b45780546130b19084613ee0565b81555b6040805160e060020a6323b872dd028152336004820152306024820152604481018590529051600160a060020a038716916323b872dd9160648083019260209291908290030181600087803b15801561310c57600080fd5b505af1158015613120573d6000803e3d6000fd5b505050506040513d602081101561313657600080fd5b5051151561314057fe5b600181015460408051888a018152868601602082015263ffffffff9092168282015251600160a060020a03871691600080516020614173833981519152919081900360600190a260019091019061301a565b600254604080517f867904b4000000000000000000000000000000000000000000000000000000008152336004820152602481018a90529051600160a060020a039092169163867904b49160448082019260009290919082900301818387803b1580156131fe57600080fd5b505af1158015613212573d6000803e3d6000fd5b5050505050505050505050565b600154600160a060020a031681565b60008054600160a060020a0316331461324657600080fd5b6008546040805160e260020a632ecd14d302815260008051602061415383398151915260048201529051600160a060020a039092169163bb34534c916024808201926020929091908290030181600087803b1580156132a457600080fd5b505af11580156132b8573d6000803e3d6000fd5b505050506040513d60208110156132ce57600080fd5b505190506132db816135f7565b600554604080517fbc444e13000000000000000000000000000000000000000000000000000000008152600481019290925251600160a060020a0383169163bc444e1391602480830192600092919082900301818387803b15801561333f57600080fd5b505af1158015613353573d6000803e3d6000fd5b505050506112ce6126c9565b600160a060020a0381166000908152600b6020526040812060010154819083906601000000000000900460ff16151561339757600080fd5b600160a060020a0384166000908152600b602052604090206001810154909250640100000000900460ff1661345857604080517f70a082310000000000000000000000000000000000000000000000000000000081523060048201529051600160a060020a038616916370a082319160248083019260209291908290030181600087803b15801561342757600080fd5b505af115801561343b573d6000803e3d6000fd5b505050506040513d602081101561345157600080fd5b505161345b565b81545b949350505050565b600054600160a060020a03163314806134865750600354600160a060020a031633145b151561349157600080fd5b600354600160a060020a03828116911614156134ac57600080fd5b60048054600160a060020a031916600160a060020a0392909216919091179055565b600054600160a060020a03163314806134f15750600354600160a060020a031633145b15156134fc57600080fd5b8060008163ffffffff16101580156135285750600c5463ffffffff640100000000909104811690821611155b151561353357600080fd5b600c546040805163ffffffff6801000000000000000090930483168152918416602083015280517f81cd2ffb37dd237c0e4e2a3de5265fcf9deb43d3e7801e80db9f1ccfba7ee6009281900390910190a150600c805463ffffffff90921668010000000000000000026bffffffff000000000000000019909216919091179055565b600083600281511180156135cb57506015815111155b80156135dc57508051600290066001145b15156135e757600080fd5b6122e98585856000808080610e55565b600054600160a060020a0316331461360e57600080fd5b600054600160a060020a038281169116141561362957600080fd5b60018054600160a060020a031916600160a060020a0392909216919091179055565b600054600160a060020a031633148061366e5750600354600160a060020a031633145b151561367957600080fd5b6007805460ff19169115919091179055565b600254600160a060020a031681565b600754600090610100900460ff1615156136b357600080fd5b6008546040805160e260020a632ecd14d30281527f42616e636f72580000000000000000000000000000000000000000000000000060048201529051600160a060020a039092169163bb34534c916024808201926020929091908290030181600087803b15801561372357600080fd5b505af1158015613737573d6000803e3d6000fd5b505050506040513d602081101561374d57600080fd5b5051905033600160a060020a0382161461376657600080fd5b6002546040805160e060020a63a24835d1028152600160a060020a038681166004830152602482018690529151919092169163a24835d191604480830192600092919082900301818387803b1580156137be57600080fd5b505af11580156137d2573d6000803e3d6000fd5b5050600254604080517f867904b4000000000000000000000000000000000000000000000000000000008152600160a060020a03868116600483015260248201889052915191909216935063867904b49250604480830192600092919082900301818387803b158015611ec657600080fd5b600054600160a060020a0316331461385b57600080fd5b600254604080517ff2fde38b000000000000000000000000000000000000000000000000000000008152600160a060020a0384811660048301529151919092169163f2fde38b91602480830192600092919082900301818387803b1580156127f557600080fd5b6000806000806138d28787612b4d565b909350915082158015906138e65750848310155b15156138f157600080fd5b50600160a060020a0386166000908152600b602052604090206001810154640100000000900460ff161561392e57805461392b9087613ee0565b81555b6040805160e060020a6323b872dd028152336004820152306024820152604481018890529051600160a060020a038916916323b872dd9160648083019260209291908290030181600087803b15801561398657600080fd5b505af115801561399a573d6000803e3d6000fd5b505050506040513d60208110156139b057600080fd5b505115156139ba57fe5b600254604080517f867904b4000000000000000000000000000000000000000000000000000000008152336004820152602481018690529051600160a060020a039092169163867904b49160448082019260009290919082900301818387803b158015613a2657600080fd5b505af1158015613a3a573d6000803e3d6000fd5b5050600254613a589250899150600160a060020a0316888686613f08565b86600160a060020a0316600080516020614173833981519152600260009054906101000a9004600160a060020a0316600160a060020a03166318160ddd6040518163ffffffff1660e060020a028152600401602060405180830381600087803b158015613ac457600080fd5b505af1158015613ad8573d6000803e3d6000fd5b505050506040513d6020811015613aee57600080fd5b5051613af98a61335f565b600185015460408051938452602084019290925263ffffffff1682820152519081900360600190a2509095945050505050565b600254604080517f70a08231000000000000000000000000000000000000000000000000000000008152336004820152905160009283928392839283928392600160a060020a03909216916370a082319160248082019260209290919082900301818787803b158015613b9e57600080fd5b505af1158015613bb2573d6000803e3d6000fd5b505050506040513d6020811015613bc857600080fd5b5051881115613bd657600080fd5b613be08989612344565b90955093508415801590613bf45750868510155b1515613bff57600080fd5b600260009054906101000a9004600160a060020a0316600160a060020a03166318160ddd6040518163ffffffff1660e060020a028152600401602060405180830381600087803b158015613c5257600080fd5b505af1158015613c66573d6000803e3d6000fd5b505050506040513d6020811015613c7c57600080fd5b50519250613c898961335f565b915081851080613ca257508185148015613ca257508288145b1515613caa57fe5b50600160a060020a0388166000908152600b602052604090206001810154640100000000900460ff1615613ce7578054613ce49086613ef6565b81555b6002546040805160e060020a63a24835d1028152336004820152602481018b90529051600160a060020a039092169163a24835d19160448082019260009290919082900301818387803b158015613d3d57600080fd5b505af1158015613d51573d6000803e3d6000fd5b5050604080517fa9059cbb000000000000000000000000000000000000000000000000000000008152336004820152602481018990529051600160a060020a038d16935063a9059cbb925060448083019260209291908290030181600087803b158015613dbd57600080fd5b505af1158015613dd1573d6000803e3d6000fd5b505050506040513d6020811015613de757600080fd5b50511515613df157fe5b600254613e0a90600160a060020a03168a8a8888613f08565b88600160a060020a0316600080516020614173833981519152600260009054906101000a9004600160a060020a0316600160a060020a03166318160ddd6040518163ffffffff1660e060020a028152600401602060405180830381600087803b158015613e7657600080fd5b505af1158015613e8a573d6000803e3d6000fd5b505050506040513d6020811015613ea057600080fd5b5051613eab8c61335f565b600185015460408051938452602084019290925263ffffffff1682820152519081900360600190a25092979650505050505050565b600082820183811015613eef57fe5b9392505050565b600081831015613f0257fe5b50900390565b7f8000000000000000000000000000000000000000000000000000000000000000811115613f3257fe5b604080518481526020810184905280820183905290513391600160a060020a0387811692908916917f276856b36cbc45526a0ba64f44611557a2a8b68662c5388e9fe6d72e86e1c8cb919081900360600190a45050505050565b6000828202831580613fa85750828482811515613fa557fe5b04145b1515613eef57fe5b600054600160a060020a03163314613fc757600080fd5b82600160a060020a0381161515613fdd57600080fd5b82600160a060020a0381161515613ff357600080fd5b83600160a060020a03811630141561400a57600080fd5b85600160a060020a031663a9059cbb86866040518363ffffffff1660e060020a0281526004018083600160a060020a0316600160a060020a0316815260200182815260200192505050602060405180830381600087803b15801561406d57600080fd5b505af1158015614081573d6000803e3d6000fd5b505050506040513d602081101561409757600080fd5b505115156140a157fe5b505050505050565b8280548282559060005260206000209081019282156140fe579160200282015b828111156140fe5782518254600160a060020a031916600160a060020a039091161782556020909201916001909101906140c9565b5061410a92915061410e565b5090565b61234191905b8082111561410a578054600160a060020a0319168155600101614114560042616e636f72466f726d756c610000000000000000000000000000000000000042616e636f72436f6e76657274657255706772616465720000000000000000008a6a7f53b3c8fa1dc4b83e3f1be668c1b251ff8d44cdcb83eb3acec3fec6a788a165627a7a72305820ac7e87770290b1b51b94e8c1c63e6667c95a2a68123907917b21e567c43f9e9a0029a165627a7a723058201fa7b900503b24465469f832f668d243c5863c8151afb884e9039143af0f55f70029",
  "source": "pragma solidity ^0.4.24;\nimport './BancorConverter.sol';\nimport './interfaces/IBancorConverterFactory.sol';\nimport '../utility/interfaces/IContractRegistry.sol';\n\n/*\n    Bancor Converter Factory\n*/\ncontract BancorConverterFactory is IBancorConverterFactory {\n    // triggered when a new converter is created\n    event NewConverter(address indexed _converter, address indexed _owner);\n\n    /**\n        @dev constructor\n    */\n    constructor() public {\n    }\n\n    /**\n        @dev creates a new converter with the given arguments and transfers\n        the ownership and management to the sender.\n\n        @param  _token              smart token governed by the converter\n        @param  _registry           address of a contract registry contract\n        @param  _maxConversionFee   maximum conversion fee, represented in ppm\n        @param  _connectorToken     optional, initial connector, allows defining the first connector at deployment time\n        @param  _connectorWeight    optional, weight for the initial connector\n\n        @return a new converter\n    */\n    function createConverter(\n        ISmartToken _token,\n        IContractRegistry _registry,\n        uint32 _maxConversionFee,\n        IERC20Token _connectorToken,\n        uint32 _connectorWeight\n    ) public returns(address converterAddress) {\n        BancorConverter converter = new BancorConverter(\n            _token,\n            _registry,\n            _maxConversionFee,\n            _connectorToken,\n            _connectorWeight\n        );\n\n        converter.transferOwnership(msg.sender);\n        converter.transferManagement(msg.sender);\n\n        address _converterAddress = address(converter);\n        emit NewConverter(_converterAddress, msg.sender);\n        return _converterAddress;\n    }\n}\n",
  "sourcePath": "/home/peter/Documents/Work/MyBit/MyBit-Network.tech/contracts/bancor/converter/BancorConverterFactory.sol",
  "compiler": {
    "name": "solc",
    "version": "0.4.24+commit.e67f0147.Emscripten.clang"
  },
  "schemaVersion": "2.0.1",
  "updatedAt": "2018-12-06T01:09:52.832Z"
}