{
  "contractName": "BrokerEscrow",
  "abi": [
    {
      "constant": true,
      "inputs": [],
      "name": "database",
      "outputs": [
        {
          "name": "",
          "type": "address"
        }
      ],
      "payable": false,
      "stateMutability": "view",
      "type": "function"
    },
    {
      "inputs": [
        {
          "name": "_database",
          "type": "address"
        }
      ],
      "payable": false,
      "stateMutability": "nonpayable",
      "type": "constructor"
    },
    {
      "anonymous": false,
      "inputs": [
        {
          "indexed": true,
          "name": "_assetID",
          "type": "bytes32"
        },
        {
          "indexed": true,
          "name": "_broker",
          "type": "address"
        },
        {
          "indexed": false,
          "name": "_amountBurnt",
          "type": "uint256"
        }
      ],
      "name": "LogEscrowBurned",
      "type": "event"
    },
    {
      "anonymous": false,
      "inputs": [
        {
          "indexed": true,
          "name": "_assetID",
          "type": "bytes32"
        },
        {
          "indexed": true,
          "name": "_brokerEscrowID",
          "type": "bytes32"
        },
        {
          "indexed": true,
          "name": "_broker",
          "type": "address"
        },
        {
          "indexed": false,
          "name": "_amount",
          "type": "uint256"
        }
      ],
      "name": "LogEscrowLocked",
      "type": "event"
    },
    {
      "constant": false,
      "inputs": [
        {
          "name": "_assetID",
          "type": "bytes32"
        },
        {
          "name": "_amount",
          "type": "uint256"
        }
      ],
      "name": "lockEscrow",
      "outputs": [
        {
          "name": "",
          "type": "bool"
        }
      ],
      "payable": false,
      "stateMutability": "nonpayable",
      "type": "function"
    },
    {
      "constant": false,
      "inputs": [
        {
          "name": "_assetID",
          "type": "bytes32"
        }
      ],
      "name": "unlockEscrow",
      "outputs": [
        {
          "name": "",
          "type": "bool"
        }
      ],
      "payable": false,
      "stateMutability": "nonpayable",
      "type": "function"
    },
    {
      "constant": false,
      "inputs": [
        {
          "name": "_assetID",
          "type": "bytes32"
        },
        {
          "name": "_oldBroker",
          "type": "address"
        },
        {
          "name": "_amount",
          "type": "uint256"
        },
        {
          "name": "_burn",
          "type": "bool"
        }
      ],
      "name": "becomeBroker",
      "outputs": [
        {
          "name": "",
          "type": "bool"
        }
      ],
      "payable": false,
      "stateMutability": "nonpayable",
      "type": "function"
    }
  ],
  "bytecode": "0x608060405234801561001057600080fd5b50604051602080612f2983398101806040528101908080519060200190929190505050806000806101000a81548173ffffffffffffffffffffffffffffffffffffffff021916908373ffffffffffffffffffffffffffffffffffffffff16021790555050612ea6806100836000396000f300608060405260043610610062576000357c0100000000000000000000000000000000000000000000000000000000900463ffffffff168063305cf94c14610067578063713b563f146100e657806383b30ad41461013d578063914b857e14610190575b600080fd5b34801561007357600080fd5b506100cc6004803603810190808035600019169060200190929190803573ffffffffffffffffffffffffffffffffffffffff169060200190929190803590602001909291908035151590602001909291905050506101d9565b604051808215151515815260200191505060405180910390f35b3480156100f257600080fd5b506100fb610f54565b604051808273ffffffffffffffffffffffffffffffffffffffff1673ffffffffffffffffffffffffffffffffffffffff16815260200191505060405180910390f35b34801561014957600080fd5b50610176600480360381019080803560001916906020019092919080359060200190929190505050610f79565b604051808215151515815260200191505060405180910390f35b34801561019c57600080fd5b506101bf60048036038101908080356000191690602001909291905050506117ff565b604051808215151515815260200191505060405180910390f35b600080600080876000357fffffffff0000000000000000000000000000000000000000000000000000000016898989896040516020018085600019166000191681526020018473ffffffffffffffffffffffffffffffffffffffff1673ffffffffffffffffffffffffffffffffffffffff166c0100000000000000000000000002815260140183815260200182151515157f01000000000000000000000000000000000000000000000000000000000000000281526001019450505050506040516020818303038152906040526040518082805190602001908083835b6020831015156102db57805182526020820191506020810190506020830392506102b6565b6001836020036101000a038019825116818451168082178552505050505050905001915050604051809103902060008030858585604051602001808573ffffffffffffffffffffffffffffffffffffffff1673ffffffffffffffffffffffffffffffffffffffff166c010000000000000000000000000281526014018460001916600019168152602001837bffffffffffffffffffffffffffffffffffffffffffffffffffffffff19167bffffffffffffffffffffffffffffffffffffffffffffffffffffffff1916815260040182600019166000191681526020019450505050506040516020818303038152906040526040518082805190602001908083835b60208310151561040157805182526020820191506020810190506020830392506103dc565b6001836020036101000a038019825116818451168082178552505050505050905001915050604051809103902060405160200180807f766f7465546f74616c000000000000000000000000000000000000000000000081525060090182600019166000191681526020019150506040516020818303038152906040526040518082805190602001908083835b6020831015156104b2578051825260208201915060208101905060208303925061048d565b6001836020036101000a038019825116818451168082178552505050505050905001915050604051809103902091506000809054906101000a900473ffffffffffffffffffffffffffffffffffffffff1673ffffffffffffffffffffffffffffffffffffffff166304f49a3a8660405160200180807f746f6b656e416464726573730000000000000000000000000000000000000000815250600c0182600019166000191681526020019150506040516020818303038152906040526040518082805190602001908083835b6020831015156105a3578051825260208201915060208101905060208303925061057e565b6001836020036101000a03801982511681845116808217855250505050505090500191505060405180910390206040518263ffffffff167c0100000000000000000000000000000000000000000000000000000000028152600401808260001916600019168152602001915050602060405180830381600087803b15801561062a57600080fd5b505af115801561063e573d6000803e3d6000fd5b505050506040513d602081101561065457600080fd5b810190808051906020019092919050505073ffffffffffffffffffffffffffffffffffffffff166318160ddd6040518163ffffffff167c0100000000000000000000000000000000000000000000000000000000028152600401602060405180830381600087803b1580156106c857600080fd5b505af11580156106dc573d6000803e3d6000fd5b505050506040513d60208110156106f257600080fd5b8101908080519060200190929190505050905060216107ff826107f160646000809054906101000a900473ffffffffffffffffffffffffffffffffffffffff1673ffffffffffffffffffffffffffffffffffffffff1663a855d4ce886040518263ffffffff167c0100000000000000000000000000000000000000000000000000000000028152600401808260001916600019168152602001915050602060405180830381600087803b1580156107a857600080fd5b505af11580156107bc573d6000803e3d6000fd5b505050506040513d60208110156107d257600080fd5b81019080805190602001909291905050506129c390919063ffffffff16565b6129fe90919063ffffffff16565b1015151561080c57600080fd5b8c8c6040516020018083600019166000191681526020018273ffffffffffffffffffffffffffffffffffffffff1673ffffffffffffffffffffffffffffffffffffffff166c01000000000000000000000000028152601401925050506040516020818303038152906040526040518082805190602001908083835b6020831015156108ac5780518252602082019150602081019050602083039250610887565b6001836020036101000a03801982511681845116808217855250505050505090500191505060405180910390209750610bf46000809054906101000a900473ffffffffffffffffffffffffffffffffffffffff1673ffffffffffffffffffffffffffffffffffffffff1663a855d4ce8a60405160200180807f657363726f7752656465656d6564000000000000000000000000000000000000815250600e0182600019166000191681526020019150506040516020818303038152906040526040518082805190602001908083835b6020831015156109a0578051825260208201915060208101905060208303925061097b565b6001836020036101000a03801982511681845116808217855250505050505090500191505060405180910390206040518263ffffffff167c0100000000000000000000000000000000000000000000000000000000028152600401808260001916600019168152602001915050602060405180830381600087803b158015610a2757600080fd5b505af1158015610a3b573d6000803e3d6000fd5b505050506040513d6020811015610a5157600080fd5b81019080805190602001909291905050506000809054906101000a900473ffffffffffffffffffffffffffffffffffffffff1673ffffffffffffffffffffffffffffffffffffffff1663a855d4ce8b60405160200180807f62726f6b6572457363726f770000000000000000000000000000000000000000815250600c0182600019166000191681526020019150506040516020818303038152906040526040518082805190602001908083835b602083101515610b245780518252602082019150602081019050602083039250610aff565b6001836020036101000a03801982511681845116808217855250505050505090500191505060405180910390206040518263ffffffff167c0100000000000000000000000000000000000000000000000000000000028152600401808260001916600019168152602001915050602060405180830381600087803b158015610bab57600080fd5b505af1158015610bbf573d6000803e3d6000fd5b505050506040513d6020811015610bd557600080fd5b8101908080519060200190929190505050612a1490919063ffffffff16565b96506000809054906101000a900473ffffffffffffffffffffffffffffffffffffffff1673ffffffffffffffffffffffffffffffffffffffff166304f49a3a60405160200180807f706c6174666f726d546f6b656e00000000000000000000000000000000000000815250600d0190506040516020818303038152906040526040518082805190602001908083835b602083101515610ca85780518252602082019150602081019050602083039250610c83565b6001836020036101000a03801982511681845116808217855250505050505090500191505060405180910390206040518263ffffffff167c0100000000000000000000000000000000000000000000000000000000028152600401808260001916600019168152602001915050602060405180830381600087803b158015610d2f57600080fd5b505af1158015610d43573d6000803e3d6000fd5b505050506040513d6020811015610d5957600080fd5b81019080805190602001909291905050509550610d768d89612a2d565b1515610d8157600080fd5b8915610e41578573ffffffffffffffffffffffffffffffffffffffff166342966c68886040518263ffffffff167c010000000000000000000000000000000000000000000000000000000002815260040180828152602001915050602060405180830381600087803b158015610df657600080fd5b505af1158015610e0a573d6000803e3d6000fd5b505050506040513d6020811015610e2057600080fd5b81019080805190602001909291905050501515610e3c57600080fd5b610f2b565b8573ffffffffffffffffffffffffffffffffffffffff1663a9059cbb8d896040518363ffffffff167c0100000000000000000000000000000000000000000000000000000000028152600401808373ffffffffffffffffffffffffffffffffffffffff1673ffffffffffffffffffffffffffffffffffffffff16815260200182815260200192505050602060405180830381600087803b158015610ee457600080fd5b505af1158015610ef8573d6000803e3d6000fd5b505050506040513d6020811015610f0e57600080fd5b81019080805190602001909291905050501515610f2a57600080fd5b5b610f358d8c610f79565b1515610f4057600080fd5b600198505050505050505050949350505050565b6000809054906101000a900473ffffffffffffffffffffffffffffffffffffffff1681565b60008060008073ffffffffffffffffffffffffffffffffffffffff166000809054906101000a900473ffffffffffffffffffffffffffffffffffffffff1673ffffffffffffffffffffffffffffffffffffffff166304f49a3a8760405160200180807f62726f6b6572000000000000000000000000000000000000000000000000000081525060060182600019166000191681526020019150506040516020818303038152906040526040518082805190602001908083835b6020831015156110575780518252602082019150602081019050602083039250611032565b6001836020036101000a03801982511681845116808217855250505050505090500191505060405180910390206040518263ffffffff167c0100000000000000000000000000000000000000000000000000000000028152600401808260001916600019168152602001915050602060405180830381600087803b1580156110de57600080fd5b505af11580156110f2573d6000803e3d6000fd5b505050506040513d602081101561110857600080fd5b810190808051906020019092919050505073ffffffffffffffffffffffffffffffffffffffff1614151561113b57600080fd5b84336040516020018083600019166000191681526020018273ffffffffffffffffffffffffffffffffffffffff1673ffffffffffffffffffffffffffffffffffffffff166c01000000000000000000000000028152601401925050506040516020818303038152906040526040518082805190602001908083835b6020831015156111db57805182526020820191506020810190506020830392506111b6565b6001836020036101000a038019825116818451168082178552505050505050905001915050604051809103902091506000809054906101000a900473ffffffffffffffffffffffffffffffffffffffff1673ffffffffffffffffffffffffffffffffffffffff166304f49a3a60405160200180807f706c6174666f726d546f6b656e00000000000000000000000000000000000000815250600d0190506040516020818303038152906040526040518082805190602001908083835b6020831015156112bc5780518252602082019150602081019050602083039250611297565b6001836020036101000a03801982511681845116808217855250505050505090500191505060405180910390206040518263ffffffff167c0100000000000000000000000000000000000000000000000000000000028152600401808260001916600019168152602001915050602060405180830381600087803b15801561134357600080fd5b505af1158015611357573d6000803e3d6000fd5b505050506040513d602081101561136d57600080fd5b810190808051906020019092919050505090508073ffffffffffffffffffffffffffffffffffffffff166323b872dd3330876040518463ffffffff167c0100000000000000000000000000000000000000000000000000000000028152600401808473ffffffffffffffffffffffffffffffffffffffff1673ffffffffffffffffffffffffffffffffffffffff1681526020018373ffffffffffffffffffffffffffffffffffffffff1673ffffffffffffffffffffffffffffffffffffffff1681526020018281526020019350505050602060405180830381600087803b15801561145757600080fd5b505af115801561146b573d6000803e3d6000fd5b505050506040513d602081101561148157600080fd5b8101908080519060200190929190505050151561149d57600080fd5b6000809054906101000a900473ffffffffffffffffffffffffffffffffffffffff1673ffffffffffffffffffffffffffffffffffffffff1663e2a4853a8360405160200180807f62726f6b6572457363726f770000000000000000000000000000000000000000815250600c0182600019166000191681526020019150506040516020818303038152906040526040518082805190602001908083835b60208310151561155f578051825260208201915060208101905060208303925061153a565b6001836020036101000a0380198251168184511680821785525050505050509050019150506040518091039020866040518363ffffffff167c010000000000000000000000000000000000000000000000000000000002815260040180836000191660001916815260200182815260200192505050600060405180830381600087803b1580156115ee57600080fd5b505af1158015611602573d6000803e3d6000fd5b505050506000809054906101000a900473ffffffffffffffffffffffffffffffffffffffff1673ffffffffffffffffffffffffffffffffffffffff1663ca446dd98660405160200180807f62726f6b6572000000000000000000000000000000000000000000000000000081525060060182600019166000191681526020019150506040516020818303038152906040526040518082805190602001908083835b6020831015156116c857805182526020820191506020810190506020830392506116a3565b6001836020036101000a0380198251168184511680821785525050505050509050019150506040518091039020336040518363ffffffff167c01000000000000000000000000000000000000000000000000000000000281526004018083600019166000191681526020018273ffffffffffffffffffffffffffffffffffffffff1673ffffffffffffffffffffffffffffffffffffffff16815260200192505050600060405180830381600087803b15801561178357600080fd5b505af1158015611797573d6000803e3d6000fd5b505050503373ffffffffffffffffffffffffffffffffffffffff16826000191686600019167f8b62a0c8fa9a5dd6ebd3760f2bcd1c4330412a17ced259aae291de3612dde0aa876040518082815260200191505060405180910390a460019250505092915050565b60008060008060008060008060003373ffffffffffffffffffffffffffffffffffffffff166000809054906101000a900473ffffffffffffffffffffffffffffffffffffffff1673ffffffffffffffffffffffffffffffffffffffff166304f49a3a8c60405160200180807f62726f6b6572000000000000000000000000000000000000000000000000000081525060060182600019166000191681526020019150506040516020818303038152906040526040518082805190602001908083835b6020831015156118e657805182526020820191506020810190506020830392506118c1565b6001836020036101000a03801982511681845116808217855250505050505090500191505060405180910390206040518263ffffffff167c0100000000000000000000000000000000000000000000000000000000028152600401808260001916600019168152602001915050602060405180830381600087803b15801561196d57600080fd5b505af1158015611981573d6000803e3d6000fd5b505050506040513d602081101561199757600080fd5b810190808051906020019092919050505073ffffffffffffffffffffffffffffffffffffffff161415156119ca57600080fd5b426000809054906101000a900473ffffffffffffffffffffffffffffffffffffffff1673ffffffffffffffffffffffffffffffffffffffff1663a855d4ce8c60405160200180807f66756e64696e67446561646c696e650000000000000000000000000000000000815250600f0182600019166000191681526020019150506040516020818303038152906040526040518082805190602001908083835b602083101515611a8d5780518252602082019150602081019050602083039250611a68565b6001836020036101000a03801982511681845116808217855250505050505090500191505060405180910390206040518263ffffffff167c0100000000000000000000000000000000000000000000000000000000028152600401808260001916600019168152602001915050602060405180830381600087803b158015611b1457600080fd5b505af1158015611b28573d6000803e3d6000fd5b505050506040513d6020811015611b3e57600080fd5b8101908080519060200190929190505050101515611b5b57600080fd5b6000809054906101000a900473ffffffffffffffffffffffffffffffffffffffff1673ffffffffffffffffffffffffffffffffffffffff166304f49a3a60405160200180807f706c6174666f726d546f6b656e00000000000000000000000000000000000000815250600d0190506040516020818303038152906040526040518082805190602001908083835b602083101515611c0d5780518252602082019150602081019050602083039250611be8565b6001836020036101000a03801982511681845116808217855250505050505090500191505060405180910390206040518263ffffffff167c0100000000000000000000000000000000000000000000000000000000028152600401808260001916600019168152602001915050602060405180830381600087803b158015611c9457600080fd5b505af1158015611ca8573d6000803e3d6000fd5b505050506040513d6020811015611cbe57600080fd5b8101908080519060200190929190505050975089336040516020018083600019166000191681526020018273ffffffffffffffffffffffffffffffffffffffff1673ffffffffffffffffffffffffffffffffffffffff166c01000000000000000000000000028152601401925050506040516020818303038152906040526040518082805190602001908083835b602083101515611d715780518252602082019150602081019050602083039250611d4c565b6001836020036101000a038019825116818451168082178552505050505050905001915050604051809103902096506000809054906101000a900473ffffffffffffffffffffffffffffffffffffffff1673ffffffffffffffffffffffffffffffffffffffff1663a855d4ce8860405160200180807f657363726f7752656465656d6564000000000000000000000000000000000000815250600e0182600019166000191681526020019150506040516020818303038152906040526040518082805190602001908083835b602083101515611e625780518252602082019150602081019050602083039250611e3d565b6001836020036101000a03801982511681845116808217855250505050505090500191505060405180910390206040518263ffffffff167c0100000000000000000000000000000000000000000000000000000000028152600401808260001916600019168152602001915050602060405180830381600087803b158015611ee957600080fd5b505af1158015611efd573d6000803e3d6000fd5b505050506040513d6020811015611f1357600080fd5b810190808051906020019092919050505095506120bc866000809054906101000a900473ffffffffffffffffffffffffffffffffffffffff1673ffffffffffffffffffffffffffffffffffffffff1663a855d4ce8a60405160200180807f62726f6b6572457363726f770000000000000000000000000000000000000000815250600c0182600019166000191681526020019150506040516020818303038152906040526040518082805190602001908083835b602083101515611fec5780518252602082019150602081019050602083039250611fc7565b6001836020036101000a03801982511681845116808217855250505050505090500191505060405180910390206040518263ffffffff167c0100000000000000000000000000000000000000000000000000000000028152600401808260001916600019168152602001915050602060405180830381600087803b15801561207357600080fd5b505af1158015612087573d6000803e3d6000fd5b505050506040513d602081101561209d57600080fd5b8101908080519060200190929190505050612a1490919063ffffffff16565b94506000809054906101000a900473ffffffffffffffffffffffffffffffffffffffff1673ffffffffffffffffffffffffffffffffffffffff16633b7bfda08b60405160200180807f63726f776473616c6546696e616c697a6564000000000000000000000000000081525060120182600019166000191681526020019150506040516020818303038152906040526040518082805190602001908083835b602083101515612180578051825260208201915060208101905060208303925061215b565b6001836020036101000a03801982511681845116808217855250505050505090500191505060405180910390206040518263ffffffff167c0100000000000000000000000000000000000000000000000000000000028152600401808260001916600019168152602001915050602060405180830381600087803b15801561220757600080fd5b505af115801561221b573d6000803e3d6000fd5b505050506040513d602081101561223157600080fd5b81019080805190602001909291905050501515612262576122528a88612a2d565b151561225d57600080fd5b6128c9565b6000809054906101000a900473ffffffffffffffffffffffffffffffffffffffff1673ffffffffffffffffffffffffffffffffffffffff166304f49a3a8b60405160200180807f746f6b656e416464726573730000000000000000000000000000000000000000815250600c0182600019166000191681526020019150506040516020818303038152906040526040518082805190602001908083835b60208310151561232457805182526020820191506020810190506020830392506122ff565b6001836020036101000a03801982511681845116808217855250505050505090500191505060405180910390206040518263ffffffff167c0100000000000000000000000000000000000000000000000000000000028152600401808260001916600019168152602001915050602060405180830381600087803b1580156123ab57600080fd5b505af11580156123bf573d6000803e3d6000fd5b505050506040513d60208110156123d557600080fd5b8101908080519060200190929190505050935061254a8473ffffffffffffffffffffffffffffffffffffffff166318160ddd6040518163ffffffff167c0100000000000000000000000000000000000000000000000000000000028152600401602060405180830381600087803b15801561244f57600080fd5b505af1158015612463573d6000803e3d6000fd5b505050506040513d602081101561247957600080fd5b810190808051906020019092919050505061253c60648773ffffffffffffffffffffffffffffffffffffffff16632ba1b3a16040518163ffffffff167c0100000000000000000000000000000000000000000000000000000000028152600401602060405180830381600087803b1580156124f357600080fd5b505af1158015612507573d6000803e3d6000fd5b505050506040513d602081101561251d57600080fd5b81019080805190602001909291905050506129c390919063ffffffff16565b6129fe90919063ffffffff16565b92506125606019846129fe90919063ffffffff16565b91506126f960046000809054906101000a900473ffffffffffffffffffffffffffffffffffffffff1673ffffffffffffffffffffffffffffffffffffffff1663a855d4ce8a60405160200180807f62726f6b6572457363726f770000000000000000000000000000000000000000815250600c0182600019166000191681526020019150506040516020818303038152906040526040518082805190602001908083835b6020831015156126295780518252602082019150602081019050602083039250612604565b6001836020036101000a03801982511681845116808217855250505050505090500191505060405180910390206040518263ffffffff167c0100000000000000000000000000000000000000000000000000000000028152600401808260001916600019168152602001915050602060405180830381600087803b1580156126b057600080fd5b505af11580156126c4573d6000803e3d6000fd5b505050506040513d60208110156126da57600080fd5b81019080805190602001909291905050506129fe90919063ffffffff16565b90506004821115801561270c5750600082115b151561271757600080fd5b61273c8661272e83856129c390919063ffffffff16565b612a1490919063ffffffff16565b945060008511151561274d57600080fd5b6000809054906101000a900473ffffffffffffffffffffffffffffffffffffffff1673ffffffffffffffffffffffffffffffffffffffff1663e2a4853a8860405160200180807f657363726f7752656465656d6564000000000000000000000000000000000000815250600e0182600019166000191681526020019150506040516020818303038152906040526040518082805190602001908083835b60208310151561280f57805182526020820191506020810190506020830392506127ea565b6001836020036101000a038019825116818451168082178552505050505050905001915050604051809103902061284f888a612e5c90919063ffffffff16565b6040518363ffffffff167c010000000000000000000000000000000000000000000000000000000002815260040180836000191660001916815260200182815260200192505050600060405180830381600087803b1580156128b057600080fd5b505af11580156128c4573d6000803e3d6000fd5b505050505b8773ffffffffffffffffffffffffffffffffffffffff1663a9059cbb33876040518363ffffffff167c0100000000000000000000000000000000000000000000000000000000028152600401808373ffffffffffffffffffffffffffffffffffffffff1673ffffffffffffffffffffffffffffffffffffffff16815260200182815260200192505050602060405180830381600087803b15801561296c57600080fd5b505af1158015612980573d6000803e3d6000fd5b505050506040513d602081101561299657600080fd5b810190808051906020019092919050505015156129b257600080fd5b600198505050505050505050919050565b60008060008414156129d857600091506129f7565b82840290508284828115156129e957fe5b041415156129f357fe5b8091505b5092915050565b60008183811515612a0b57fe5b04905092915050565b6000828211151515612a2257fe5b818303905092915050565b60008060009054906101000a900473ffffffffffffffffffffffffffffffffffffffff1673ffffffffffffffffffffffffffffffffffffffff16630e14a3768460405160200180807f62726f6b6572000000000000000000000000000000000000000000000000000081525060060182600019166000191681526020019150506040516020818303038152906040526040518082805190602001908083835b602083101515612af15780518252602082019150602081019050602083039250612acc565b6001836020036101000a03801982511681845116808217855250505050505090500191505060405180910390206040518263ffffffff167c0100000000000000000000000000000000000000000000000000000000028152600401808260001916600019168152602001915050600060405180830381600087803b158015612b7857600080fd5b505af1158015612b8c573d6000803e3d6000fd5b505050506000809054906101000a900473ffffffffffffffffffffffffffffffffffffffff1673ffffffffffffffffffffffffffffffffffffffff1663e2b202bf8360405160200180807f62726f6b6572457363726f770000000000000000000000000000000000000000815250600c0182600019166000191681526020019150506040516020818303038152906040526040518082805190602001908083835b602083101515612c525780518252602082019150602081019050602083039250612c2d565b6001836020036101000a03801982511681845116808217855250505050505090500191505060405180910390206040518263ffffffff167c0100000000000000000000000000000000000000000000000000000000028152600401808260001916600019168152602001915050600060405180830381600087803b158015612cd957600080fd5b505af1158015612ced573d6000803e3d6000fd5b505050506000809054906101000a900473ffffffffffffffffffffffffffffffffffffffff1673ffffffffffffffffffffffffffffffffffffffff1663e2b202bf8360405160200180807f657363726f7752656465656d6564000000000000000000000000000000000000815250600e0182600019166000191681526020019150506040516020818303038152906040526040518082805190602001908083835b602083101515612db35780518252602082019150602081019050602083039250612d8e565b6001836020036101000a03801982511681845116808217855250505050505090500191505060405180910390206040518263ffffffff167c0100000000000000000000000000000000000000000000000000000000028152600401808260001916600019168152602001915050600060405180830381600087803b158015612e3a57600080fd5b505af1158015612e4e573d6000803e3d6000fd5b505050506001905092915050565b6000808284019050838110151515612e7057fe5b80915050929150505600a165627a7a72305820da32330003d8eb4a0e34d7935d6cc0fa5950bfe990d34ebd7ad1f73dc7647bd60029",
  "source": "  pragma solidity ^0.4.24;\n\n  import \"../math/SafeMath.sol\";\n  import \"../interfaces/DBInterface.sol\";\n  import \"../interfaces/DivToken.sol\";\n  import \"../interfaces/BurnableERC20.sol\";\n  import \"./ERC20Burner.sol\";\n\n  interface Governance { function isConsensusReached(address _thisContract, bytes4 _methodID, bytes32 _parameterHash) external view returns (bool); }\n\n  // @title A contract to hold escrow as collateral against assets\n  // @author Kyle Dewhurst, MyBit Foundation\n  // @notice Broker can lock his escrow in this contract and retrieve it if asset funding fails or successfully returns ROI\n  contract BrokerEscrow {\n    using SafeMath for uint256;\n\n    DBInterface public database;\n\n    // @notice constructor: initializes database\n    // @param: the address for the database contract used by this platform\n    constructor(address _database)\n    public {\n      database = DBInterface(_database);\n    }\n\n    // @dev assetID can be computed beforehand with sha3(msg.sender, _amountToRaise, _operatorID, _assetURI))\n    // @dev anybody can make the broker escrow if he leaves this contract with approval to transfer\n    function lockEscrow(bytes32 _assetID, uint _amount)\n    public\n    returns (bool) {\n      require(database.addressStorage(keccak256(abi.encodePacked(\"broker\", _assetID))) == address(0));\n      bytes32 brokerEscrowID = keccak256(abi.encodePacked(_assetID, msg.sender));\n      address tokenAddress = database.addressStorage(keccak256(abi.encodePacked(\"platformToken\")));\n      require(BurnableERC20(tokenAddress).transferFrom(msg.sender, address(this), _amount));\n      database.setUint(keccak256(abi.encodePacked(\"brokerEscrow\", brokerEscrowID)), _amount);\n      database.setAddress(keccak256(abi.encodePacked(\"broker\", _assetID)), msg.sender);\n      emit LogEscrowLocked(_assetID, brokerEscrowID, msg.sender, _amount);\n      return true;\n    }\n\n\n    // @notice broker can unlock his escrow here once funding fails or asset returns sufficient ROI\n    // @dev asset must have fundingDeadline = 0 or have ROI > 25%\n    // @dev returns escrow according to ROI. 25% ROI returns 25% of escrow, 50% ROI returns 50% of escrow etc...\n    function unlockEscrow(bytes32 _assetID)\n    public\n    returns (bool) {\n      require(database.addressStorage(keccak256(abi.encodePacked(\"broker\", _assetID))) == msg.sender);\n      require(database.uintStorage(keccak256(abi.encodePacked(\"fundingDeadline\", _assetID))) < now);\n      BurnableERC20 burnToken = BurnableERC20(database.addressStorage(keccak256(abi.encodePacked(\"platformToken\"))));\n      bytes32 brokerEscrowID = keccak256(abi.encodePacked(_assetID, msg.sender));\n      uint escrowRedeemed = database.uintStorage(keccak256(abi.encodePacked(\"escrowRedeemed\", brokerEscrowID)));\n      uint unlockAmount = database.uintStorage(keccak256(abi.encodePacked(\"brokerEscrow\", brokerEscrowID))).sub(escrowRedeemed);\n      if(!database.boolStorage(keccak256(abi.encodePacked(\"crowdsaleFinalized\", _assetID)))){\n        //If we're past deadline but crowdsale did NOT finalize, release all escrow\n        require(removeBroker(_assetID, brokerEscrowID));\n      }\n      else {\n        //Past the deadline with a successful funding. Only pay back based on ROI\n        DivToken assetToken = DivToken(database.addressStorage(keccak256(abi.encodePacked(\"tokenAddress\", _assetID))));\n        uint roi = assetToken.assetIncome().mul(100).div(assetToken.totalSupply());   // Scaled up by 10^2  (approaches 100 as asset income increases)\n        uint roiCheckpoints = roi.div(25);       // How many quarterly increments have been reached?\n        uint quarterEscrow = database.uintStorage(keccak256(abi.encodePacked(\"brokerEscrow\", brokerEscrowID))).div(4);\n        require(roiCheckpoints <= 4 && roiCheckpoints > 0);    // Can't unlock escrow past 100% ROI\n        //  multiply the number of quarterly increments by a quarter of the escrow and subtract the escrow already redeemed.\n        unlockAmount = roiCheckpoints.mul(quarterEscrow).sub(escrowRedeemed);\n        require(unlockAmount > 0);\n        database.setUint(keccak256(abi.encodePacked(\"escrowRedeemed\", brokerEscrowID)), escrowRedeemed.add(unlockAmount));\n      }\n      require(burnToken.transfer(msg.sender, unlockAmount));\n      return true;\n    }\n\n\n    // @notice investors can vote to call this function for the new broker to then call\n    // @dev new broker must approve this contract to transfer in and lock _ amount of platform tokens\n    function becomeBroker(bytes32 _assetID, address _oldBroker, uint _amount, bool _burn)\n    external\n    hasConsensus(_assetID, msg.sig, keccak256(abi.encodePacked(_assetID, _oldBroker, _amount, _burn)))\n    returns (bool) {\n      bytes32 brokerEscrowID = keccak256(abi.encodePacked(_assetID, _oldBroker));\n      uint oldEscrowRemaining = database.uintStorage(keccak256(abi.encodePacked(\"brokerEscrow\", brokerEscrowID))).sub(database.uintStorage(keccak256(abi.encodePacked(\"escrowRedeemed\", brokerEscrowID))));\n      BurnableERC20 token = BurnableERC20(database.addressStorage(keccak256(abi.encodePacked(\"platformToken\"))));\n      require(removeBroker(_assetID, brokerEscrowID));\n      if (_burn) { require(token.burn(oldEscrowRemaining)); }\n      else { require(token.transfer(_oldBroker, oldEscrowRemaining));  }\n      require(lockEscrow(_assetID, _amount));\n      return true;\n    }\n\n\n    //////////////////////////////////////////////////////////////////////////////////////////////////////////////////\n    //                                            Internal Functions\n    //////////////////////////////////////////////////////////////////////////////////////////////////////////////////\n\n\n    function removeBroker(bytes32 _assetID, bytes32 _brokerEscrowID)\n    internal\n    returns (bool) {\n        database.deleteAddress(keccak256(abi.encodePacked(\"broker\", _assetID)));\n        database.deleteUint(keccak256(abi.encodePacked(\"brokerEscrow\", _brokerEscrowID)));\n        database.deleteUint(keccak256(abi.encodePacked(\"escrowRedeemed\", _brokerEscrowID)));\n        return true;\n    }\n\n\n  //////////////////////////////////////////////////////////////////////////////////////////////////////////////////\n  //                                            Modifiers\n  //////////////////////////////////////////////////////////////////////////////////////////////////////////////////\n\n    // @notice add this modifer to functions that you want multi-sig requirements for\n    // @dev function can only be called after at least n >= quorumLevel owners have agreed to call it\n    modifier hasConsensus(bytes32 _assetID, bytes4 _methodID, bytes32 _parameterHash) {\n      bytes32 numVotesID = keccak256(abi.encodePacked(\"voteTotal\", keccak256(abi.encodePacked(address(this), _assetID, _methodID, _parameterHash))));\n      uint256 numTokens = DivToken(database.addressStorage(keccak256(abi.encodePacked(\"tokenAddress\", _assetID)))).totalSupply();\n      require(database.uintStorage(numVotesID).mul(100).div(numTokens) >= 33);\n      _;\n    }\n\n\n    event LogEscrowBurned(bytes32 indexed _assetID, address indexed _broker, uint _amountBurnt);\n    event LogEscrowLocked(bytes32 indexed _assetID, bytes32 indexed _brokerEscrowID, address indexed _broker, uint _amount);\n\n}\n",
  "sourcePath": "/home/peter/Documents/Work/MyBit/MyBit-Network.tech/contracts/ecosystem/BrokerEscrow.sol",
  "compiler": {
    "name": "solc",
    "version": "0.4.24+commit.e67f0147.Emscripten.clang"
  },
  "schemaVersion": "2.0.1",
  "updatedAt": "2018-10-17T02:00:48.048Z"
}