{
  "contractName": "BurnableToken",
  "abi": [
    {
      "constant": true,
      "inputs": [],
      "name": "tokenURI",
      "outputs": [
        {
          "name": "",
          "type": "string"
        }
      ],
      "payable": false,
      "stateMutability": "view",
      "type": "function"
    },
    {
      "inputs": [
        {
          "name": "_tokenURI",
          "type": "string"
        },
        {
          "name": "_totalSupply",
          "type": "uint256"
        }
      ],
      "payable": false,
      "stateMutability": "nonpayable",
      "type": "constructor"
    },
    {
      "anonymous": false,
      "inputs": [
        {
          "indexed": true,
          "name": "from",
          "type": "address"
        },
        {
          "indexed": true,
          "name": "to",
          "type": "address"
        },
        {
          "indexed": false,
          "name": "value",
          "type": "uint256"
        }
      ],
      "name": "Transfer",
      "type": "event"
    },
    {
      "anonymous": false,
      "inputs": [
        {
          "indexed": true,
          "name": "owner",
          "type": "address"
        },
        {
          "indexed": true,
          "name": "spender",
          "type": "address"
        },
        {
          "indexed": false,
          "name": "value",
          "type": "uint256"
        }
      ],
      "name": "Approval",
      "type": "event"
    },
    {
      "anonymous": false,
      "inputs": [
        {
          "indexed": true,
          "name": "_spender",
          "type": "address"
        },
        {
          "indexed": false,
          "name": "_value",
          "type": "uint256"
        }
      ],
      "name": "LogBurn",
      "type": "event"
    },
    {
      "constant": false,
      "inputs": [
        {
          "name": "_to",
          "type": "address"
        },
        {
          "name": "_value",
          "type": "uint256"
        }
      ],
      "name": "transfer",
      "outputs": [
        {
          "name": "",
          "type": "bool"
        }
      ],
      "payable": false,
      "stateMutability": "nonpayable",
      "type": "function"
    },
    {
      "constant": false,
      "inputs": [
        {
          "name": "_spender",
          "type": "address"
        },
        {
          "name": "_value",
          "type": "uint256"
        }
      ],
      "name": "approve",
      "outputs": [
        {
          "name": "",
          "type": "bool"
        }
      ],
      "payable": false,
      "stateMutability": "nonpayable",
      "type": "function"
    },
    {
      "constant": false,
      "inputs": [
        {
          "name": "_from",
          "type": "address"
        },
        {
          "name": "_to",
          "type": "address"
        },
        {
          "name": "_value",
          "type": "uint256"
        }
      ],
      "name": "transferFrom",
      "outputs": [
        {
          "name": "",
          "type": "bool"
        }
      ],
      "payable": false,
      "stateMutability": "nonpayable",
      "type": "function"
    },
    {
      "constant": false,
      "inputs": [
        {
          "name": "_spender",
          "type": "address"
        },
        {
          "name": "_addedValue",
          "type": "uint256"
        }
      ],
      "name": "increaseApproval",
      "outputs": [
        {
          "name": "",
          "type": "bool"
        }
      ],
      "payable": false,
      "stateMutability": "nonpayable",
      "type": "function"
    },
    {
      "constant": false,
      "inputs": [
        {
          "name": "_spender",
          "type": "address"
        },
        {
          "name": "_subtractedValue",
          "type": "uint256"
        }
      ],
      "name": "decreaseApproval",
      "outputs": [
        {
          "name": "",
          "type": "bool"
        }
      ],
      "payable": false,
      "stateMutability": "nonpayable",
      "type": "function"
    },
    {
      "constant": false,
      "inputs": [
        {
          "name": "_amount",
          "type": "uint256"
        }
      ],
      "name": "burn",
      "outputs": [
        {
          "name": "success",
          "type": "bool"
        }
      ],
      "payable": false,
      "stateMutability": "nonpayable",
      "type": "function"
    },
    {
      "constant": false,
      "inputs": [
        {
          "name": "_from",
          "type": "address"
        },
        {
          "name": "_amount",
          "type": "uint256"
        }
      ],
      "name": "burnFrom",
      "outputs": [
        {
          "name": "success",
          "type": "bool"
        }
      ],
      "payable": false,
      "stateMutability": "nonpayable",
      "type": "function"
    },
    {
      "constant": true,
      "inputs": [],
      "name": "totalSupply",
      "outputs": [
        {
          "name": "",
          "type": "uint256"
        }
      ],
      "payable": false,
      "stateMutability": "view",
      "type": "function"
    },
    {
      "constant": true,
      "inputs": [
        {
          "name": "_owner",
          "type": "address"
        }
      ],
      "name": "balanceOf",
      "outputs": [
        {
          "name": "",
          "type": "uint256"
        }
      ],
      "payable": false,
      "stateMutability": "view",
      "type": "function"
    },
    {
      "constant": true,
      "inputs": [
        {
          "name": "_owner",
          "type": "address"
        },
        {
          "name": "_spender",
          "type": "address"
        }
      ],
      "name": "allowance",
      "outputs": [
        {
          "name": "",
          "type": "uint256"
        }
      ],
      "payable": false,
      "stateMutability": "view",
      "type": "function"
    }
  ],
  "bytecode": "0x60806040523480156200001157600080fd5b50604051620017283803806200172883398101806040528101908080518201929190602001805190602001909291905050508060038190555081600090805190602001906200006292919062000115565b5080600160003373ffffffffffffffffffffffffffffffffffffffff1673ffffffffffffffffffffffffffffffffffffffff168152602001908152602001600020819055503373ffffffffffffffffffffffffffffffffffffffff16600073ffffffffffffffffffffffffffffffffffffffff167fddf252ad1be2c89b69c2b068fc378daa952ba7f163c4a11628f55a4df523b3ef836040518082815260200191505060405180910390a35050620001c4565b828054600181600116156101000203166002900490600052602060002090601f016020900481019282601f106200015857805160ff191683800117855562000189565b8280016001018555821562000189579182015b82811115620001885782518255916020019190600101906200016b565b5b5090506200019891906200019c565b5090565b620001c191905b80821115620001bd576000816000905550600101620001a3565b5090565b90565b61155480620001d46000396000f3006080604052600436106100af576000357c0100000000000000000000000000000000000000000000000000000000900463ffffffff168063095ea7b3146100b457806318160ddd1461011957806323b872dd146101445780633c130d90146101c957806342966c6814610259578063661884631461029e57806370a082311461030357806379cc67901461035a578063a9059cbb146103bf578063d73dd62314610424578063dd62ed3e14610489575b600080fd5b3480156100c057600080fd5b506100ff600480360381019080803573ffffffffffffffffffffffffffffffffffffffff16906020019092919080359060200190929190505050610500565b604051808215151515815260200191505060405180910390f35b34801561012557600080fd5b5061012e6105f2565b6040518082815260200191505060405180910390f35b34801561015057600080fd5b506101af600480360381019080803573ffffffffffffffffffffffffffffffffffffffff169060200190929190803573ffffffffffffffffffffffffffffffffffffffff169060200190929190803590602001909291905050506105fc565b604051808215151515815260200191505060405180910390f35b3480156101d557600080fd5b506101de6108e2565b6040518080602001828103825283818151815260200191508051906020019080838360005b8381101561021e578082015181840152602081019050610203565b50505050905090810190601f16801561024b5780820380516001836020036101000a031916815260200191505b509250505060405180910390f35b34801561026557600080fd5b5061028460048036038101908080359060200190929190505050610980565b604051808215151515815260200191505060405180910390f35b3480156102aa57600080fd5b506102e9600480360381019080803573ffffffffffffffffffffffffffffffffffffffff16906020019092919080359060200190929190505050610aef565b604051808215151515815260200191505060405180910390f35b34801561030f57600080fd5b50610344600480360381019080803573ffffffffffffffffffffffffffffffffffffffff169060200190929190505050610d81565b6040518082815260200191505060405180910390f35b34801561036657600080fd5b506103a5600480360381019080803573ffffffffffffffffffffffffffffffffffffffff16906020019092919080359060200190929190505050610dca565b604051808215151515815260200191505060405180910390f35b3480156103cb57600080fd5b5061040a600480360381019080803573ffffffffffffffffffffffffffffffffffffffff16906020019092919080359060200190929190505050611049565b604051808215151515815260200191505060405180910390f35b34801561043057600080fd5b5061046f600480360381019080803573ffffffffffffffffffffffffffffffffffffffff1690602001909291908035906020019092919050505061126e565b604051808215151515815260200191505060405180910390f35b34801561049557600080fd5b506104ea600480360381019080803573ffffffffffffffffffffffffffffffffffffffff169060200190929190803573ffffffffffffffffffffffffffffffffffffffff16906020019092919050505061146a565b6040518082815260200191505060405180910390f35b600081600260003373ffffffffffffffffffffffffffffffffffffffff1673ffffffffffffffffffffffffffffffffffffffff16815260200190815260200160002060008573ffffffffffffffffffffffffffffffffffffffff1673ffffffffffffffffffffffffffffffffffffffff168152602001908152602001600020819055508273ffffffffffffffffffffffffffffffffffffffff163373ffffffffffffffffffffffffffffffffffffffff167f8c5be1e5ebec7d5bd14f71427d1e84f3dd0314c0f7b2291e5b200ac8c7c3b925846040518082815260200191505060405180910390a36001905092915050565b6000600354905090565b60008073ffffffffffffffffffffffffffffffffffffffff168373ffffffffffffffffffffffffffffffffffffffff161415151561063957600080fd5b61068b82600160008773ffffffffffffffffffffffffffffffffffffffff1673ffffffffffffffffffffffffffffffffffffffff168152602001908152602001600020546114f190919063ffffffff16565b600160008673ffffffffffffffffffffffffffffffffffffffff1673ffffffffffffffffffffffffffffffffffffffff1681526020019081526020016000208190555061072082600160008673ffffffffffffffffffffffffffffffffffffffff1673ffffffffffffffffffffffffffffffffffffffff1681526020019081526020016000205461150a90919063ffffffff16565b600160008573ffffffffffffffffffffffffffffffffffffffff1673ffffffffffffffffffffffffffffffffffffffff168152602001908152602001600020819055506107f282600260008773ffffffffffffffffffffffffffffffffffffffff1673ffffffffffffffffffffffffffffffffffffffff16815260200190815260200160002060003373ffffffffffffffffffffffffffffffffffffffff1673ffffffffffffffffffffffffffffffffffffffff168152602001908152602001600020546114f190919063ffffffff16565b600260008673ffffffffffffffffffffffffffffffffffffffff1673ffffffffffffffffffffffffffffffffffffffff16815260200190815260200160002060003373ffffffffffffffffffffffffffffffffffffffff1673ffffffffffffffffffffffffffffffffffffffff168152602001908152602001600020819055508273ffffffffffffffffffffffffffffffffffffffff168473ffffffffffffffffffffffffffffffffffffffff167fddf252ad1be2c89b69c2b068fc378daa952ba7f163c4a11628f55a4df523b3ef846040518082815260200191505060405180910390a3600190509392505050565b60008054600181600116156101000203166002900480601f0160208091040260200160405190810160405280929190818152602001828054600181600116156101000203166002900480156109785780601f1061094d57610100808354040283529160200191610978565b820191906000526020600020905b81548152906001019060200180831161095b57829003601f168201915b505050505081565b60006109d482600160003373ffffffffffffffffffffffffffffffffffffffff1673ffffffffffffffffffffffffffffffffffffffff168152602001908152602001600020546114f190919063ffffffff16565b600160003373ffffffffffffffffffffffffffffffffffffffff1673ffffffffffffffffffffffffffffffffffffffff16815260200190815260200160002081905550610a2c826003546114f190919063ffffffff16565b6003819055503373ffffffffffffffffffffffffffffffffffffffff167f38d762ef507761291a578e921acfe29c1af31a7331ea03e391cf16cfc4d4f581836040518082815260200191505060405180910390a2600073ffffffffffffffffffffffffffffffffffffffff163373ffffffffffffffffffffffffffffffffffffffff167fddf252ad1be2c89b69c2b068fc378daa952ba7f163c4a11628f55a4df523b3ef846040518082815260200191505060405180910390a360019050919050565b600080600260003373ffffffffffffffffffffffffffffffffffffffff1673ffffffffffffffffffffffffffffffffffffffff16815260200190815260200160002060008573ffffffffffffffffffffffffffffffffffffffff1673ffffffffffffffffffffffffffffffffffffffff1681526020019081526020016000205490508083101515610c01576000600260003373ffffffffffffffffffffffffffffffffffffffff1673ffffffffffffffffffffffffffffffffffffffff16815260200190815260200160002060008673ffffffffffffffffffffffffffffffffffffffff1673ffffffffffffffffffffffffffffffffffffffff16815260200190815260200160002081905550610c95565b610c1483826114f190919063ffffffff16565b600260003373ffffffffffffffffffffffffffffffffffffffff1673ffffffffffffffffffffffffffffffffffffffff16815260200190815260200160002060008673ffffffffffffffffffffffffffffffffffffffff1673ffffffffffffffffffffffffffffffffffffffff168152602001908152602001600020819055505b8373ffffffffffffffffffffffffffffffffffffffff163373ffffffffffffffffffffffffffffffffffffffff167f8c5be1e5ebec7d5bd14f71427d1e84f3dd0314c0f7b2291e5b200ac8c7c3b925600260003373ffffffffffffffffffffffffffffffffffffffff1673ffffffffffffffffffffffffffffffffffffffff16815260200190815260200160002060008873ffffffffffffffffffffffffffffffffffffffff1673ffffffffffffffffffffffffffffffffffffffff168152602001908152602001600020546040518082815260200191505060405180910390a3600191505092915050565b6000600160008373ffffffffffffffffffffffffffffffffffffffff1673ffffffffffffffffffffffffffffffffffffffff168152602001908152602001600020549050919050565b6000610e1e82600160008673ffffffffffffffffffffffffffffffffffffffff1673ffffffffffffffffffffffffffffffffffffffff168152602001908152602001600020546114f190919063ffffffff16565b600160008573ffffffffffffffffffffffffffffffffffffffff1673ffffffffffffffffffffffffffffffffffffffff16815260200190815260200160002081905550610ef082600260008673ffffffffffffffffffffffffffffffffffffffff1673ffffffffffffffffffffffffffffffffffffffff16815260200190815260200160002060003373ffffffffffffffffffffffffffffffffffffffff1673ffffffffffffffffffffffffffffffffffffffff168152602001908152602001600020546114f190919063ffffffff16565b600260008573ffffffffffffffffffffffffffffffffffffffff1673ffffffffffffffffffffffffffffffffffffffff16815260200190815260200160002060003373ffffffffffffffffffffffffffffffffffffffff1673ffffffffffffffffffffffffffffffffffffffff16815260200190815260200160002081905550610f85826003546114f190919063ffffffff16565b6003819055508273ffffffffffffffffffffffffffffffffffffffff167f38d762ef507761291a578e921acfe29c1af31a7331ea03e391cf16cfc4d4f581836040518082815260200191505060405180910390a2600073ffffffffffffffffffffffffffffffffffffffff168373ffffffffffffffffffffffffffffffffffffffff167fddf252ad1be2c89b69c2b068fc378daa952ba7f163c4a11628f55a4df523b3ef846040518082815260200191505060405180910390a36001905092915050565b6000600160003373ffffffffffffffffffffffffffffffffffffffff1673ffffffffffffffffffffffffffffffffffffffff16815260200190815260200160002054821115151561109957600080fd5b600073ffffffffffffffffffffffffffffffffffffffff168373ffffffffffffffffffffffffffffffffffffffff16141515156110d557600080fd5b61112782600160003373ffffffffffffffffffffffffffffffffffffffff1673ffffffffffffffffffffffffffffffffffffffff168152602001908152602001600020546114f190919063ffffffff16565b600160003373ffffffffffffffffffffffffffffffffffffffff1673ffffffffffffffffffffffffffffffffffffffff168152602001908152602001600020819055506111bc82600160008673ffffffffffffffffffffffffffffffffffffffff1673ffffffffffffffffffffffffffffffffffffffff1681526020019081526020016000205461150a90919063ffffffff16565b600160008573ffffffffffffffffffffffffffffffffffffffff1673ffffffffffffffffffffffffffffffffffffffff168152602001908152602001600020819055508273ffffffffffffffffffffffffffffffffffffffff163373ffffffffffffffffffffffffffffffffffffffff167fddf252ad1be2c89b69c2b068fc378daa952ba7f163c4a11628f55a4df523b3ef846040518082815260200191505060405180910390a36001905092915050565b60006112ff82600260003373ffffffffffffffffffffffffffffffffffffffff1673ffffffffffffffffffffffffffffffffffffffff16815260200190815260200160002060008673ffffffffffffffffffffffffffffffffffffffff1673ffffffffffffffffffffffffffffffffffffffff1681526020019081526020016000205461150a90919063ffffffff16565b600260003373ffffffffffffffffffffffffffffffffffffffff1673ffffffffffffffffffffffffffffffffffffffff16815260200190815260200160002060008573ffffffffffffffffffffffffffffffffffffffff1673ffffffffffffffffffffffffffffffffffffffff168152602001908152602001600020819055508273ffffffffffffffffffffffffffffffffffffffff163373ffffffffffffffffffffffffffffffffffffffff167f8c5be1e5ebec7d5bd14f71427d1e84f3dd0314c0f7b2291e5b200ac8c7c3b925600260003373ffffffffffffffffffffffffffffffffffffffff1673ffffffffffffffffffffffffffffffffffffffff16815260200190815260200160002060008773ffffffffffffffffffffffffffffffffffffffff1673ffffffffffffffffffffffffffffffffffffffff168152602001908152602001600020546040518082815260200191505060405180910390a36001905092915050565b6000600260008473ffffffffffffffffffffffffffffffffffffffff1673ffffffffffffffffffffffffffffffffffffffff16815260200190815260200160002060008373ffffffffffffffffffffffffffffffffffffffff1673ffffffffffffffffffffffffffffffffffffffff16815260200190815260200160002054905092915050565b60008282111515156114ff57fe5b818303905092915050565b600080828401905083811015151561151e57fe5b80915050929150505600a165627a7a72305820ac43c3fe975fd9de3f29cb760304efe0fefe6af3d027180efc0e6e579592383a0029",
  "source": "pragma solidity 0.4.24;\n\nimport \"./StandardToken.sol\";\nimport \"../../interfaces/BurnableERC20.sol\";\nimport \"../../math/SafeMath.sol\";\n\n// @title ERC20 token contract with burning capabilities\n// @notice Standard ERC20 contract with a deflationary supply.\ncontract BurnableToken is BurnableERC20 {\n  using SafeMath for uint256;\n\n  string public tokenURI;\n\n  mapping(address => uint256) internal balances;\n\n  mapping (address => mapping (address => uint256)) internal allowed;\n\n  uint256 internal supply;\n\n\n    // @notice constructor: initialized\n    // @param (string) _tokenURI = The URI where information about this token can be found\n    // @param (uint) _totalSupply = The initial supply of the token\n    constructor(string _tokenURI, uint _totalSupply)\n    public {\n        supply = _totalSupply;                        // Update total supply\n        tokenURI = _tokenURI;                         // Set the id for reference\n        balances[msg.sender] = _totalSupply;\n        emit Transfer(address(0), msg.sender, _totalSupply);    // Transfer event indicating token creation\n    }\n\n\n  /**\n  * @dev Transfer token for a specified address\n  * @param _to The address to transfer to.\n  * @param _value The amount to be transferred.\n  */\n  function transfer(address _to, uint256 _value)\n  public\n  returns (bool) {\n    require(_value <= balances[msg.sender]);\n    require(_to != address(0));\n    balances[msg.sender] = balances[msg.sender].sub(_value);\n    balances[_to] = balances[_to].add(_value);\n    emit Transfer(msg.sender, _to, _value);\n    return true;\n  }\n\n  /**\n  * @dev Approve the passed address to spend the specified amount of tokens on behalf of msg.sender.\n  * Beware that changing an allowance with this method brings the risk that someone may use both the old\n  * and the new allowance by unfortunate transaction ordering. One possible solution to mitigate this\n  * race condition is to first reduce the spender's allowance to 0 and set the desired value afterwards:\n  * https://github.com/ethereum/EIPs/issues/20#issuecomment-263524729\n  * @param _spender The address which will spend the funds.\n  * @param _value The amount of tokens to be spent.\n  */\n  function approve(address _spender, uint256 _value)\n  public\n  returns (bool) {\n    allowed[msg.sender][_spender] = _value;\n    emit Approval(msg.sender, _spender, _value);\n    return true;\n  }\n\n  /**\n  * @dev Transfer tokens from one address to another\n  * @param _from address The address which you want to send tokens from\n  * @param _to address The address which you want to transfer to\n  * @param _value uint256 the amount of tokens to be transferred\n  */\n  function transferFrom(address _from, address _to, uint256 _value)\n  public\n  returns (bool) {\n    require(_to != address(0));     // use burn instead\n    balances[_from] = balances[_from].sub(_value);\n    balances[_to] = balances[_to].add(_value);\n    allowed[_from][msg.sender] = allowed[_from][msg.sender].sub(_value);\n    emit Transfer(_from, _to, _value);\n    return true;\n  }\n\n  /**\n  * @dev Increase the amount of tokens that an owner allowed to a spender.\n  * approve should be called when allowed[_spender] == 0. To increment\n  * allowed value is better to use this function to avoid 2 calls (and wait until\n  * the first transaction is mined)\n  * From MonolithDAO Token.sol\n  * @param _spender The address which will spend the funds.\n  * @param _addedValue The amount of tokens to increase the allowance by.\n  */\n  function increaseApproval(address _spender, uint256 _addedValue)\n  public\n  returns (bool) {\n    allowed[msg.sender][_spender] = (\n    allowed[msg.sender][_spender].add(_addedValue));\n    emit Approval(msg.sender, _spender, allowed[msg.sender][_spender]);\n    return true;\n  }\n\n  /**\n  * @dev Decrease the amount of tokens that an owner allowed to a spender.\n  * approve should be called when allowed[_spender] == 0. To decrement\n  * allowed value is better to use this function to avoid 2 calls (and wait until\n  * the first transaction is mined)\n  * From MonolithDAO Token.sol\n  * @param _spender The address which will spend the funds.\n  * @param _subtractedValue The amount of tokens to decrease the allowance by.\n  */\n  function decreaseApproval(address _spender, uint256 _subtractedValue)\n  public\n  returns (bool) {\n    uint256 oldValue = allowed[msg.sender][_spender];\n    if (_subtractedValue >= oldValue) {\n      allowed[msg.sender][_spender] = 0;\n    }\n    else {\n      allowed[msg.sender][_spender] = oldValue.sub(_subtractedValue);\n    }\n    emit Approval(msg.sender, _spender, allowed[msg.sender][_spender]);\n    return true;\n  }\n\n\n\n  // ------------------------------------------------------------------------\n  // Removes senders tokens from supply.\n  // Lowers user balance and totalSupply by _amount\n  // ------------------------------------------------------------------------\n  function burn(uint _amount)\n  public\n  returns (bool success) {\n    balances[msg.sender] = balances[msg.sender].sub(_amount);\n    supply = supply.sub(_amount);\n    emit LogBurn(msg.sender, _amount);\n    emit Transfer(msg.sender, address(0), _amount);\n    return true;\n  }\n\n  // ------------------------------------------------------------------------\n  // An approved sender can burn _amount tokens of user _from\n  // Lowers user balance and supply by _amount\n  // ------------------------------------------------------------------------\n  function burnFrom(address _from, uint _amount)\n  public\n  returns (bool success) {\n    balances[_from] = balances[_from].sub(_amount);                         // Subtract from the targeted balance\n    allowed[_from][msg.sender] = allowed[_from][msg.sender].sub(_amount);             // Subtract from the sender's allowance\n    supply = supply.sub(_amount);                              // Update supply\n    emit LogBurn(_from, _amount);\n    emit Transfer(_from, address(0), _amount);\n    return true;\n  }\n\n\n\n  /**\n  * @dev Total number of tokens in existence\n  */\n  function totalSupply() public view returns (uint256) {\n    return supply;\n  }\n\n  /**\n  * @dev Gets the balance of the specified address.\n  * @param _owner The address to query the the balance of.\n  * @return An uint256 representing the amount owned by the passed address.\n  */\n  function balanceOf(address _owner) public view returns (uint256) {\n    return balances[_owner];\n  }\n\n\n    /**\n   * @dev Function to check the amount of tokens that an owner allowed to a spender.\n   * @param _owner address The address which owns the funds.\n   * @param _spender address The address which will spend the funds.\n   * @return A uint256 specifying the amount of tokens still available for the spender.\n   */\n  function allowance(address _owner, address _spender)\n  public\n  view\n  returns (uint256) {\n    return allowed[_owner][_spender];\n  }\n\n}\n",
  "sourcePath": "/home/peter/Documents/Work/MyBit/MyBit-Network.tech/contracts/tokens/erc20/BurnableToken.sol",
  "compiler": {
    "name": "solc",
    "version": "0.4.24+commit.e67f0147.Emscripten.clang"
  },
  "schemaVersion": "2.0.1",
  "updatedAt": "2018-10-17T02:00:47.983Z"
}