{
  "contractName": "CollectiveOwned",
  "abi": [
    {
      "constant": true,
      "inputs": [],
      "name": "database",
      "outputs": [
        {
          "name": "",
          "type": "address"
        }
      ],
      "payable": false,
      "stateMutability": "view",
      "type": "function"
    },
    {
      "constant": true,
      "inputs": [],
      "name": "events",
      "outputs": [
        {
          "name": "",
          "type": "address"
        }
      ],
      "payable": false,
      "stateMutability": "view",
      "type": "function"
    },
    {
      "inputs": [
        {
          "name": "_database",
          "type": "address"
        },
        {
          "name": "_events",
          "type": "address"
        },
        {
          "name": "_baseQuorum",
          "type": "uint256"
        }
      ],
      "payable": false,
      "stateMutability": "nonpayable",
      "type": "constructor"
    },
    {
      "constant": false,
      "inputs": [
        {
          "name": "_newOwner",
          "type": "address"
        }
      ],
      "name": "addOwner",
      "outputs": [],
      "payable": false,
      "stateMutability": "nonpayable",
      "type": "function"
    },
    {
      "constant": false,
      "inputs": [
        {
          "name": "_owner",
          "type": "address"
        }
      ],
      "name": "removeOwner",
      "outputs": [],
      "payable": false,
      "stateMutability": "nonpayable",
      "type": "function"
    },
    {
      "constant": false,
      "inputs": [
        {
          "name": "_contractAddress",
          "type": "address"
        },
        {
          "name": "_methodID",
          "type": "bytes4"
        },
        {
          "name": "_quorumLevel",
          "type": "uint256"
        }
      ],
      "name": "setQuorumLevel",
      "outputs": [
        {
          "name": "",
          "type": "bool"
        }
      ],
      "payable": false,
      "stateMutability": "nonpayable",
      "type": "function"
    },
    {
      "constant": false,
      "inputs": [
        {
          "name": "_contractAddress",
          "type": "address"
        },
        {
          "name": "_methodID",
          "type": "bytes4"
        },
        {
          "name": "_parameterHash",
          "type": "bytes32"
        }
      ],
      "name": "voteForExecution",
      "outputs": [
        {
          "name": "",
          "type": "bool"
        }
      ],
      "payable": false,
      "stateMutability": "nonpayable",
      "type": "function"
    },
    {
      "constant": false,
      "inputs": [],
      "name": "destroy",
      "outputs": [],
      "payable": false,
      "stateMutability": "nonpayable",
      "type": "function"
    },
    {
      "constant": true,
      "inputs": [
        {
          "name": "_contractAddress",
          "type": "address"
        },
        {
          "name": "_methodID",
          "type": "bytes4"
        },
        {
          "name": "_parameterHash",
          "type": "bytes32"
        }
      ],
      "name": "isQuorumReached",
      "outputs": [
        {
          "name": "",
          "type": "bool"
        }
      ],
      "payable": false,
      "stateMutability": "view",
      "type": "function"
    }
  ],
  "bytecode": "0x608060405234801561001057600080fd5b50604051606080611a1383398101604081815282516020808501519483015160008054600160a060020a03808616600160a060020a031992831617835560018054918a16919092161790557f73657451756f72756d4c6576656c28616464726573732c206279746573342c20838701527f75696e7432353629000000000000000000000000000000000000000000000000858701528451808703602801815260489096019485905285519396959194909384938291908401908083835b602083106100ec5780518252601f1990920191602091820191016100cd565b51815160209384036101000a600019018019909216911617905260408051929094018290038220306c0100000000000000000000000002838301527fffffffff00000000000000000000000000000000000000000000000000000000811660348401528451808403601801815260389093019485905282519098509195509293508392850191508083835b602083106101965780518252601f199092019160209182019101610177565b5181516020939093036101000a600019018019909116921691909117905260408051919093018190038120600080547fe2a4853a00000000000000000000000000000000000000000000000000000000845260048401839052602484018b90529451919750600160a060020a03909416955063e2a4853a94506044808301949350909182900301818387803b15801561022e57600080fd5b505af1158015610242573d6000803e3d6000fd5b5050505050505050506117b98061025a6000396000f3006080604052600436106100745763ffffffff60e060020a600035041663173825d981146100795780631ce96a601461009c5780637065cb48146100e1578063713b563f1461010257806383197ef014610133578063911558a114610148578063b5f8558c14610179578063ec57bab01461018e575b600080fd5b34801561008557600080fd5b5061009a600160a060020a03600435166101bf565b005b3480156100a857600080fd5b506100cd600160a060020a0360043516600160e060020a031960243516604435610583565b604080519115158252519081900360200190f35b3480156100ed57600080fd5b5061009a600160a060020a03600435166107ea565b34801561010e57600080fd5b50610117610def565b60408051600160a060020a039092168252519081900360200190f35b34801561013f57600080fd5b5061009a610dfe565b34801561015457600080fd5b506100cd600160a060020a0360043516600160e060020a031960243516604435610fd5565b34801561018557600080fd5b50610117611305565b34801561019a57600080fd5b506100cd600160a060020a0360043516600160e060020a031960243516604435611314565b600035600160e060020a031916816040516020018082600160a060020a0316600160a060020a0316606060020a0281526014019150506040516020818303038152906040526040518082805190602001908083835b602083106102335780518252601f199092019160209182019101610214565b6001836020036101000a038019825116818451168082178552505050505050905001915050604051809103902061026b308383611314565b151561027657600080fd5b6000546040805160d960020a6437bbb732b902602080830191909152606060020a33026025830152825160198184030181526039909201928390528151600160a060020a0390941693633b7bfda093918291908401908083835b602083106102ef5780518252601f1990920191602091820191016102d0565b51815160209384036101000a60001901801990921691161790526040805192909401829003822063ffffffff881660e060020a0283526004830152925160248083019650939450929083900301905081600087803b15801561035057600080fd5b505af1158015610364573d6000803e3d6000fd5b505050506040513d602081101561037a57600080fd5b5051151560011461038a57600080fd5b6000546040805160d960020a6437bbb732b902602080830191909152600160a060020a03878116606060020a026025840152835180840360190181526039909301938490528251941693632c62ff2d93918291908401908083835b602083106104045780518252601f1990920191602091820191016103e5565b5181516020939093036101000a60001901801990911692169190911790526040805191909301819003812063ffffffff871660e060020a0282526004820152915160248084019550600094509092839003019050818387803b15801561046957600080fd5b505af115801561047d573d6000803e3d6000fd5b505060005460408051606060020a3002602080830191909152600160e060020a0319881660348301526038808301889052835180840390910181526058909201928390528151600160a060020a039094169550632c62ff2d9450909282918401908083835b602083106105015780518252601f1990920191602091820191016104e2565b5181516020939093036101000a60001901801990911692169190911790526040805191909301819003812063ffffffff871660e060020a0282526004820152915160248084019550600094509092839003019050818387803b15801561056657600080fd5b505af115801561057a573d6000803e3d6000fd5b50505050505050565b60408051606060020a600160a060020a03861602602080830191909152600160e060020a031985166034830152603880830185905283518084039091018152605890920192839052815160009384938493849391929182918401908083835b602083106106015780518252601f1990920191602091820191016105e2565b51815160209384036101000a6000190180199092169116179052604080519290940182900382207f6e756d6265724f665369676e61747572657300000000000000000000000000008383015260328084018290528551808503909101815260529093019485905282519099509195509293508392850191508083835b6020831061069c5780518252601f19909201916020918201910161067d565b51815160209384036101000a600019018019909216911617905260408051929094018290038220600080547fa855d4ce000000000000000000000000000000000000000000000000000000008552600485018390529551919950600160a060020a03909516965063a855d4ce955060248084019592945090928390030190829087803b15801561072b57600080fd5b505af115801561073f573d6000803e3d6000fd5b505050506040513d602081101561075557600080fd5b5051600054909150600160a060020a031663e2a4853a8361077d84600163ffffffff61173316565b6040518363ffffffff1660e060020a02815260040180836000191660001916815260200182815260200192505050600060405180830381600087803b1580156107c557600080fd5b505af11580156107d9573d6000803e3d6000fd5b5060019a9950505050505050505050565b60008035600160e060020a031916826040516020018082600160a060020a0316600160a060020a0316606060020a0281526014019150506040516020818303038152906040526040518082805190602001908083835b6020831061085f5780518252601f199092019160209182019101610840565b6001836020036101000a0380198251168184511680821785525050505050509050019150506040518091039020610897308383611314565b15156108a257600080fd5b6000546040805160d960020a6437bbb732b902602080830191909152606060020a33026025830152825160198184030181526039909201928390528151600160a060020a0390941693633b7bfda093918291908401908083835b6020831061091b5780518252601f1990920191602091820191016108fc565b51815160209384036101000a60001901801990921691161790526040805192909401829003822063ffffffff881660e060020a0283526004830152925160248083019650939450929083900301905081600087803b15801561097c57600080fd5b505af1158015610990573d6000803e3d6000fd5b505050506040513d60208110156109a657600080fd5b505115156001146109b657600080fd5b600054604080517f6e756d6265724f664f776e6572730000000000000000000000000000000000006020808301919091528251808303600e018152602e909201928390528151600160a060020a039094169363a855d4ce93918291908401908083835b60208310610a385780518252601f199092019160209182019101610a19565b51815160209384036101000a60001901801990921691161790526040805192909401829003822063ffffffff881660e060020a0283526004830152925160248083019650939450929083900301905081600087803b158015610a9957600080fd5b505af1158015610aad573d6000803e3d6000fd5b505050506040513d6020811015610ac357600080fd5b50516000546040805160d960020a6437bbb732b902602080830191909152600160a060020a03898116606060020a0260258401528351808403601901815260399093019384905282519598509093169363abfdcced939192918291908401908083835b60208310610b455780518252601f199092019160209182019101610b26565b5181516020939093036101000a60001901801990911692169190911790526040805191909301819003812063ffffffff871660e060020a028252600482015260016024820152915160448084019550600094509092839003019050818387803b158015610bb157600080fd5b505af1158015610bc5573d6000803e3d6000fd5b5050600054604080517f6e756d6265724f664f776e6572730000000000000000000000000000000000006020808301919091528251808303600e018152602e909201928390528151600160a060020a03909416955063e2a4853a9450909282918401908083835b60208310610c4b5780518252601f199092019160209182019101610c2c565b6001836020036101000a0380198251168184511680821785525050505050509050019150506040518091039020610c8c60018761173390919063ffffffff16565b6040518363ffffffff1660e060020a02815260040180836000191660001916815260200182815260200192505050600060405180830381600087803b158015610cd457600080fd5b505af1158015610ce8573d6000803e3d6000fd5b505060005460408051606060020a3002602080830191909152600160e060020a0319881660348301526038808301889052835180840390910181526058909201928390528151600160a060020a039094169550632c62ff2d9450909282918401908083835b60208310610d6c5780518252601f199092019160209182019101610d4d565b5181516020939093036101000a60001901801990911692169190911790526040805191909301819003812063ffffffff871660e060020a0282526004820152915160248084019550600094509092839003019050818387803b158015610dd157600080fd5b505af1158015610de5573d6000803e3d6000fd5b5050505050505050565b600054600160a060020a031681565b6000546040805160d960020a6437bbb732b902602080830191909152606060020a33026025830152825160198184030181526039909201928390528151600160a060020a0390941693633b7bfda093918291908401908083835b60208310610e775780518252601f199092019160209182019101610e58565b51815160209384036101000a60001901801990921691161790526040805192909401829003822063ffffffff881660e060020a0283526004830152925160248083019650939450929083900301905081600087803b158015610ed857600080fd5b505af1158015610eec573d6000803e3d6000fd5b505050506040513d6020811015610f0257600080fd5b50511515600114610f1257600080fd5b600154604080517f68b96270000000000000000000000000000000000000000000000000000000008152306024820181905233604483015231606482015260a06004820152601960a48201527f436f6c6c6563746976654f776e65642064657374726f7965640000000000000060c48201529051600160a060020a03909216916368b962709160e48082019260009290919082900301818387803b158015610fb957600080fd5b505af1158015610fcd573d6000803e3d6000fd5b503392505050ff5b600080600035600160e060020a0319168585856040516020018084600160a060020a0316600160a060020a0316606060020a028152601401837bffffffffffffffffffffffffffffffffffffffffffffffffffffffff19167bffffffffffffffffffffffffffffffffffffffffffffffffffffffff1916815260040182815260200193505050506040516020818303038152906040526040518082805190602001908083835b6020831061109a5780518252601f19909201916020918201910161107b565b6001836020036101000a03801982511681845116808217855250505050505090500191505060405180910390206110d2308383611314565b15156110dd57600080fd5b60408051606060020a600160a060020a038a1602602080830191909152600160e060020a03198916603483015282516018818403018152603890920192839052815191929182918401908083835b6020831061114a5780518252601f19909201916020918201910161112b565b5181516020939093036101000a600019018019909116921691909117905260408051919093018190038120600080547fe2a4853a00000000000000000000000000000000000000000000000000000000845260048401839052602484018d90529451919950600160a060020a03909416955063e2a4853a94506044808301949350909182900301818387803b1580156111e257600080fd5b505af11580156111f6573d6000803e3d6000fd5b505050506001935060005460408051606060020a3002602080830191909152600160e060020a0319861660348301526038808301869052835180840390910181526058909201928390528151600160a060020a0390941693632c62ff2d93918291908401908083835b6020831061127e5780518252601f19909201916020918201910161125f565b5181516020939093036101000a60001901801990911692169190911790526040805191909301819003812063ffffffff871660e060020a0282526004820152915160248084019550600094509092839003019050818387803b1580156112e357600080fd5b505af11580156112f7573d6000803e3d6000fd5b505050505050509392505050565b600154600160a060020a031681565b6000805460408051600160a060020a03878116606060020a02602080840191909152600160e060020a03198816603484015283518084036018018152603890930193849052825186958695869586959092169363a855d4ce9382918401908083835b602083106113955780518252601f199092019160209182019101611376565b51815160209384036101000a60001901801990921691161790526040805192909401829003822063ffffffff881660e060020a0283526004830152925160248083019650939450929083900301905081600087803b1580156113f657600080fd5b505af115801561140a573d6000803e3d6000fd5b505050506040513d602081101561142057600080fd5b505160408051606060020a600160a060020a038c1602602082810191909152600160e060020a03198b16603483015260388083018b9052835180840390910181526058909201928390528151939750909282918401908083835b602083106114995780518252601f19909201916020918201910161147a565b51815160209384036101000a6000190180199092169116179052604080519290940182900382207f6e756d6265724f66566f7465730000000000000000000000000000000000000083830152602d80840182905285518085039091018152604d9093019485905282519099509195509293508392850191508083835b602083106115345780518252601f199092019160209182019101611515565b51815160209384036101000a6000190180199092169116179052604080519290940182900382206000547f6e756d6265724f664f776e657273000000000000000000000000000000000000848401528551600e818603018152602e909401958690528351919950600160a060020a0316965063a855d4ce9550919392508291908401908083835b602083106115da5780518252601f1990920191602091820191016115bb565b51815160209384036101000a60001901801990921691161790526040805192909401829003822063ffffffff881660e060020a0283526004830152925160248083019650939450929083900301905081600087803b15801561163b57600080fd5b505af115801561164f573d6000803e3d6000fd5b505050506040513d602081101561166557600080fd5b505160008054604080517fa855d4ce000000000000000000000000000000000000000000000000000000008152600481018790529051939450879361172593869361171993606493600160a060020a039092169263a855d4ce926024808401936020939083900390910190829087803b1580156116e157600080fd5b505af11580156116f5573d6000803e3d6000fd5b505050506040513d602081101561170b57600080fd5b50519063ffffffff61174d16565b9063ffffffff61177816565b101598975050505050505050565b60008282018381101561174257fe5b8091505b5092915050565b6000808315156117605760009150611746565b5082820282848281151561177057fe5b041461174257fe5b6000818381151561178557fe5b0493925050505600a165627a7a7230582054e3d3d28dcb6e2b98ce8a65a6a09f3b7d402283cdd785fd916e285d4643b49b0029",
  "source": "pragma solidity ^0.4.24;\n\nimport '../database/Database.sol';\nimport '../database/Events.sol';\nimport '../math/SafeMath.sol';\nimport '../interfaces/ERC20.sol';\n\n\n// @title A contract which allows for platform owners to come to consensus on important functionality\n// @notice Can hold any number of owners. Each getting 1 vote.\n// @dev An owner has already been initialized when database is deployed\n// @author Kyle Dewhurst, MyBit Foundation\ncontract CollectiveOwned {\n  using SafeMath for uint256;\n\n  Database public database;\n  Events public events;\n\n  // @param (address) _database = the address of the platform database\n  // @param (uint) _baseQuorum = the percentage of owners needed to approve a function call\n  constructor(address _database, address _events, uint256 _baseQuorum)\n  public {\n    database = Database(_database);\n    events = Events(_events);\n    bytes4 methodID = bytes4(keccak256(abi.encodePacked(\"setQuorumLevel(address, bytes4, uint256)\")));\n    bytes32 functionID = keccak256(abi.encodePacked(address(this), methodID));\n    database.setUint(functionID, _baseQuorum);   // the initial quorum level to set further quorum levels\n  }\n\n  // @notice any owner on the platform can call this function to add a new user if it has receieve quorum level of signatures\n  // @notice must\n  // @param (address) _newOwner the address of the new owner\n  function addOwner(address _newOwner)\n  external\n  isRestricted(msg.sig, keccak256(abi.encodePacked(_newOwner)))\n  onlyOwner {\n    uint numOwners = database.uintStorage(keccak256(abi.encodePacked(\"numberOfOwners\")));\n    database.setBool(keccak256(abi.encodePacked(\"owner\", _newOwner)), true);\n    database.setUint(keccak256(abi.encodePacked(\"numberOfOwners\")), numOwners.add(1));\n  }\n\n  // @notice any owner can call this function to remove an owner if the the function receives quorum level of signatures\n  // @param (address) _owner = the owner to be removed from the group of owners\n  function removeOwner(address _owner)\n  external\n  isRestricted(msg.sig, keccak256(abi.encodePacked(_owner)))\n  onlyOwner {\n    database.deleteBool(keccak256(abi.encodePacked(\"owner\", _owner)));\n  }\n\n  // @notice restricts a function, forcing it to require _quorumLevel of votes to be executed\n  function setQuorumLevel(address _contractAddress, bytes4 _methodID, uint256 _quorumLevel)\n  external\n  isRestricted(msg.sig, keccak256(abi.encodePacked(_contractAddress, _methodID, _quorumLevel)))\n  returns (bool) {\n    bytes32 functionID = keccak256(abi.encodePacked(_contractAddress, _methodID));\n    database.setUint(functionID, _quorumLevel);\n    return true;\n  }\n\n  // @param (bytes32) _parameterHash = The hash of the exact parameter to be called for function...ie sha3(true, 55)\n  function voteForExecution(address _contractAddress, bytes4 _methodID, bytes32 _parameterHash)\n  external\n  returns (bool) {\n    bytes32 executionID = keccak256(abi.encodePacked(_contractAddress, _methodID, _parameterHash));\n    bytes32 numVotesID = keccak256(abi.encodePacked(\"numberOfSignatures\", executionID));\n    uint256 numSignatures = database.uintStorage(numVotesID);\n    database.setUint(numVotesID, numSignatures.add(1));\n    return true;\n  }\n\n  // @notice platform owners can destroy contract here\n  function destroy()\n  onlyOwner\n  external {\n    events.transaction('CollectiveOwned destroyed', address(this), msg.sender, address(this).balance, '');\n    selfdestruct(msg.sender);\n  }\n\n  //------------------------------------------------------------------------------------------------------------------\n  //                                                View Functions\n  //------------------------------------------------------------------------------------------------------------------\n\n  function isQuorumReached(address _contractAddress, bytes4 _methodID, bytes32 _parameterHash)\n  public\n  view\n  returns (bool) {\n    uint256 quorumLevel = database.uintStorage(keccak256(abi.encodePacked(_contractAddress, _methodID)));\n    bytes32 executionID = keccak256(abi.encodePacked(_contractAddress, _methodID, _parameterHash));\n    bytes32 numVotesID = keccak256(abi.encodePacked(\"numberOfVotes\", executionID));\n    uint256 numOwners = database.uintStorage(keccak256(abi.encodePacked(\"numberOfOwners\")));\n    // check that number of signatures are greater than required quorum\n    return database.uintStorage(numVotesID).mul(100).div(numOwners) >= quorumLevel;\n  }\n\n\n  //------------------------------------------------------------------------------------------------------------------\n  //                                                Modifiers\n  //------------------------------------------------------------------------------------------------------------------\n\n\n  // @notice reverts if caller is not the owner\n  modifier onlyOwner {\n    require(database.boolStorage(keccak256(abi.encodePacked(\"owner\", msg.sender))) == true);\n    _;\n  }\n\n  // @notice add this modifer to functions that you want multi-sig requirements for\n  // @dev function can only be called after at least n >= quorumLevel owners have agreed to call it\n  modifier isRestricted(bytes4 _methodID, bytes32 _parameterHash) {\n    require(isQuorumReached(address(this), _methodID, _parameterHash));  // owners must have agreed on function + parameters\n    _;\n    database.deleteBool(keccak256(abi.encodePacked(address(this), _methodID, _parameterHash)));\n  }\n\n\n  //------------------------------------------------------------------------------------------------------------------\n  //                                              Events\n  //------------------------------------------------------------------------------------------------------------------\n  /*\n  event LogOwnerChanged(address indexed _previousOwner, address indexed _newOwner);\n  event LogFunctionAuthorized(address indexed _owner, string indexed _functionName, bytes32 indexed _beneficiary, bytes32 _authHash);\n  */\n}\n",
  "sourcePath": "/home/peter/Documents/Work/MyBit/MyBit-Network.tech/contracts/ownership/CollectiveOwned.sol",
  "compiler": {
    "name": "solc",
    "version": "0.4.24+commit.e67f0147.Emscripten.clang"
  },
  "schemaVersion": "3.0.2",
  "updatedAt": "2019-04-03T05:17:35.092Z",
  "devdoc": {
    "methods": {}
  },
  "userdoc": {
    "methods": {}
  }
}