{
  "contractName": "Commitment",
  "abi": [
    {
      "constant": true,
      "inputs": [],
      "name": "database",
      "outputs": [
        {
          "name": "",
          "type": "address"
        }
      ],
      "payable": false,
      "stateMutability": "view",
      "type": "function"
    },
    {
      "constant": true,
      "inputs": [],
      "name": "events",
      "outputs": [
        {
          "name": "",
          "type": "address"
        }
      ],
      "payable": false,
      "stateMutability": "view",
      "type": "function"
    },
    {
      "inputs": [
        {
          "name": "_database",
          "type": "address"
        },
        {
          "name": "_events",
          "type": "address"
        }
      ],
      "payable": false,
      "stateMutability": "nonpayable",
      "type": "constructor"
    },
    {
      "anonymous": false,
      "inputs": [
        {
          "indexed": true,
          "name": "account",
          "type": "address"
        },
        {
          "indexed": false,
          "name": "value",
          "type": "uint256"
        }
      ],
      "name": "Commit",
      "type": "event"
    },
    {
      "anonymous": false,
      "inputs": [
        {
          "indexed": true,
          "name": "account",
          "type": "address"
        },
        {
          "indexed": false,
          "name": "value",
          "type": "uint256"
        }
      ],
      "name": "Withdraw",
      "type": "event"
    },
    {
      "constant": false,
      "inputs": [
        {
          "name": "_value",
          "type": "uint256"
        },
        {
          "name": "_token",
          "type": "address"
        }
      ],
      "name": "commit",
      "outputs": [
        {
          "name": "",
          "type": "bool"
        }
      ],
      "payable": false,
      "stateMutability": "nonpayable",
      "type": "function"
    },
    {
      "constant": false,
      "inputs": [
        {
          "name": "_token",
          "type": "address"
        }
      ],
      "name": "cancelCommitment",
      "outputs": [
        {
          "name": "",
          "type": "bool"
        }
      ],
      "payable": false,
      "stateMutability": "nonpayable",
      "type": "function"
    },
    {
      "constant": false,
      "inputs": [
        {
          "name": "_tokenHolder",
          "type": "address"
        },
        {
          "name": "_token",
          "type": "address"
        }
      ],
      "name": "withdrawTokens",
      "outputs": [
        {
          "name": "",
          "type": "bool"
        }
      ],
      "payable": false,
      "stateMutability": "nonpayable",
      "type": "function"
    }
  ],
  "bytecode": "0x608060405234801561001057600080fd5b5060405160408061137783398101604052805160209091015160008054600160a060020a03938416600160a060020a03199182161790915560018054939092169216919091179055611310806100676000396000f3006080604052600436106100535763ffffffff60e060020a6000350416630d64b0718114610058578063713b563f146100905780639dac7288146100c1578063a522ad25146100e2578063b5f8558c14610109575b600080fd5b34801561006457600080fd5b5061007c600435600160a060020a036024351661011e565b604080519115158252519081900360200190f35b34801561009c57600080fd5b506100a561079c565b60408051600160a060020a039092168252519081900360200190f35b3480156100cd57600080fd5b5061007c600160a060020a03600435166107ab565b3480156100ee57600080fd5b5061007c600160a060020a0360043581169060243516610c3b565b34801561011557600080fd5b506100a5611155565b6000808311610177576040805160e560020a62461bcd02815260206004820152601760248201527f4e6f6e207a65726f2076616c7565207265717569726564000000000000000000604482015290519081900360640190fd5b6101813383611164565b156101d6576040805160e560020a62461bcd02815260206004820152601760248201527f636f6d6d69746d656e7420616c7265616479206d616465000000000000000000604482015290519081900360640190fd5b600054604080517f636f6d6d69746d656e742e72656c6561736574696d6500000000000000000000602080830191909152600160a060020a03868116606060020a90810260368501523302604a8401528351808403603e018152605e90930193849052825194169363a855d4ce93918291908401908083835b6020831061026e5780518252601f19909201916020918201910161024f565b51815160209384036101000a60001901801990921691161790526040805192909401829003822063ffffffff881660e060020a0283526004830152925160248083019650939450929083900301905081600087803b1580156102cf57600080fd5b505af11580156102e3573d6000803e3d6000fd5b505050506040513d60208110156102f957600080fd5b50511561030557600080fd5b60008054604080517f61737365742e676f7665726e616e636500000000000000000000000000000000602080830191909152600160a060020a03878116606060020a0260308401528351808403602401815260449093019384905282519416936304f49a3a93918291908401908083835b602083106103955780518252601f199092019160209182019101610376565b51815160209384036101000a60001901801990921691161790526040805192909401829003822063ffffffff881660e060020a0283526004830152925160248083019650939450929083900301905081600087803b1580156103f657600080fd5b505af115801561040a573d6000803e3d6000fd5b505050506040513d602081101561042057600080fd5b5051600160a060020a0316141561043657600080fd5b604080517f23b872dd000000000000000000000000000000000000000000000000000000008152336004820152306024820152604481018590529051600160a060020a038416916323b872dd9160648083019260209291908290030181600087803b1580156104a457600080fd5b505af11580156104b8573d6000803e3d6000fd5b505050506040513d60208110156104ce57600080fd5b50511515610526576040805160e560020a62461bcd02815260206004820152601360248201527f7472616e7366657246726f6d206661696c656400000000000000000000000000604482015290519081900360640190fd5b600054604080517f636f6d6d69746d656e742e76616c756500000000000000000000000000000000602080830191909152600160a060020a03868116606060020a90810260308501523302604484015283518084036038018152605890930193849052825194169363e2a4853a93918291908401908083835b602083106105be5780518252601f19909201916020918201910161059f565b5181516020939093036101000a60001901801990911692169190911790526040805191909301819003812063ffffffff871660e060020a0282526004820152602481018a9052915160448084019550600094509092839003019050818387803b15801561062a57600080fd5b505af115801561063e573d6000803e3d6000fd5b5050600054604080517f636f6d6d69746d656e742e737461727400000000000000000000000000000000602080830191909152600160a060020a03888116606060020a9081026030850152330260448401528351808403603801815260589093019384905282519416955063e2a4853a9450909282918401908083835b602083106106da5780518252601f1990920191602091820191016106bb565b5181516020939093036101000a60001901801990911692169190911790526040805191909301819003812063ffffffff871660e060020a0282526004820152426024820152915160448084019550600094509092839003019050818387803b15801561074557600080fd5b505af1158015610759573d6000803e3d6000fd5b50506040805186815290513393507f5e1dd8c4451717d5ca4ffbefdada35e22e0871220b9ed9dd03a351f0938c5ed792509081900360200190a250600192915050565b600054600160a060020a031681565b60008060006107ba3385611164565b11610835576040805160e560020a62461bcd02815260206004820152602360248201527f746f6b656e20686f6c646572206861736e7420636f6d6d697474656420746f6b60448201527f656e730000000000000000000000000000000000000000000000000000000000606482015290519081900360840190fd5b604080517f636f6d6d69746d656e742e72656c6561736574696d6500000000000000000000602080830191909152606060020a600160a060020a038716810260368401523302604a8301528251603e818403018152605e90920192839052815191929182918401908083835b602083106108c05780518252601f1990920191602091820191016108a1565b51815160209384036101000a600019018019909216911617905260408051929094018290038220600080547fa855d4ce000000000000000000000000000000000000000000000000000000008552600485018390529551919850600160a060020a03909516965063a855d4ce955060248084019592945090928390030190829087803b15801561094f57600080fd5b505af1158015610963573d6000803e3d6000fd5b505050506040513d602081101561097957600080fd5b5051421061098657600080fd5b600054604080517f636f6d6d69746d656e742e737461727400000000000000000000000000000000602080830191909152600160a060020a03878116606060020a90810260308501523302604484015283518084036038018152605890930193849052825194169363e2b202bf93918291908401908083835b60208310610a1e5780518252601f1990920191602091820191016109ff565b5181516020939093036101000a60001901801990911692169190911790526040805191909301819003812063ffffffff871660e060020a0282526004820152915160248084019550600094509092839003019050818387803b158015610a8357600080fd5b505af1158015610a97573d6000803e3d6000fd5b5050600054604080517f61737365742e766f74654475726174696f6e0000000000000000000000000000602080830191909152600160a060020a03898116606060020a0260328401528351808403602601815260469093019384905282519416955063e2a4853a94508693610bd293879363a855d4ce93909282918401908083835b60208310610b385780518252601f199092019160209182019101610b19565b51815160209384036101000a60001901801990921691161790526040805192909401829003822063ffffffff881660e060020a0283526004830152925160248083019650939450929083900301905081600087803b158015610b9957600080fd5b505af1158015610bad573d6000803e3d6000fd5b505050506040513d6020811015610bc357600080fd5b5051429063ffffffff6112bc16565b6040518363ffffffff1660e060020a02815260040180836000191660001916815260200182815260200192505050600060405180830381600087803b158015610c1a57600080fd5b505af1158015610c2e573d6000803e3d6000fd5b5060019695505050505050565b600080600080600080610c4e8888611164565b11610cc9576040805160e560020a62461bcd02815260206004820152602360248201527f746f6b656e20686f6c646572206861736e7420636f6d6d697474656420746f6b60448201527f656e730000000000000000000000000000000000000000000000000000000000606482015290519081900360840190fd5b604080517f636f6d6d69746d656e742e72656c6561736574696d6500000000000000000000602080830191909152606060020a600160a060020a03808b16820260368501528b1602604a8301528251603e818403018152605e90920192839052815191929182918401908083835b60208310610d565780518252601f199092019160209182019101610d37565b51815160209384036101000a600019018019909216911617905260408051929094018290038220600080547fa855d4ce000000000000000000000000000000000000000000000000000000008552600485018390529551919b50600160a060020a03909516965063a855d4ce955060248084019592945090928390030190829087803b158015610de557600080fd5b505af1158015610df9573d6000803e3d6000fd5b505050506040513d6020811015610e0f57600080fd5b505192504283108015610e225750600083115b1515610e2d57600080fd5b60008054604080517fe2b202bf000000000000000000000000000000000000000000000000000000008152600481018890529051600160a060020a039092169263e2b202bf9260248084019382900301818387803b158015610e8e57600080fd5b505af1158015610ea2573d6000803e3d6000fd5b505050508660405160200180807f636f6d6d69746d656e742e76616c75650000000000000000000000000000000081525060100182600160a060020a0316600160a060020a0316606060020a0281526014019150506040516020818303038152906040526040518082805190602001908083835b60208310610f355780518252601f199092019160209182019101610f16565b51815160209384036101000a600019018019909216911617905260408051929094018290038220600080547fa855d4ce000000000000000000000000000000000000000000000000000000008552600485018390529551919950600160a060020a03909516965063a855d4ce955060248084019592945090928390030190829087803b158015610fc457600080fd5b505af1158015610fd8573d6000803e3d6000fd5b505050506040513d6020811015610fee57600080fd5b505160008054604080517fe2b202bf000000000000000000000000000000000000000000000000000000008152600481018790529051939450600160a060020a039091169263e2b202bf9260248084019391929182900301818387803b15801561105757600080fd5b505af115801561106b573d6000803e3d6000fd5b5050505085600160a060020a031663a9059cbb88836040518363ffffffff1660e060020a0281526004018083600160a060020a0316600160a060020a0316815260200182815260200192505050602060405180830381600087803b1580156110d257600080fd5b505af11580156110e6573d6000803e3d6000fd5b505050506040513d60208110156110fc57600080fd5b5051151561110957600080fd5b604080518281529051600160a060020a038916917f884edad9ce6fa2440d8a54cc123490eb96d2768479d49ff9c7366125a9424364919081900360200190a25060019695505050505050565b600154600160a060020a031681565b60008054604080517f636f6d6d69746d656e742e737461727400000000000000000000000000000000602080830191909152600160a060020a03868116606060020a90810260308501528882160260448401528351808403603801815260589093019384905282518695919091169363a855d4ce9392909182918401908083835b602083106112045780518252601f1990920191602091820191016111e5565b51815160209384036101000a60001901801990921691161790526040805192909401829003822063ffffffff881660e060020a0283526004830152925160248083019650939450929083900301905081600087803b15801561126557600080fd5b505af1158015611279573d6000803e3d6000fd5b505050506040513d602081101561128f57600080fd5b505190508015156112a2578091506112b5565b6112b2428263ffffffff6112d216565b91505b5092915050565b6000828201838110156112cb57fe5b9392505050565b6000828211156112de57fe5b509003905600a165627a7a723058209c0dad079ca8cc5213fb073a8db1a94c5ad3872573a4a8f3a942ca3470c920930029",
  "source": "pragma solidity ^0.4.24;\n\n\nimport \"../math/SafeMath.sol\";\nimport \"../database/Events.sol\";\n\ninterface Commitment_ERC20 {\n  function transfer(address _to, uint256 _value) external returns (bool);\n  function transferFrom(address _from, address _to, uint256 _value) external returns (bool);\n}\ninterface Commitment_Database {\n  function addressStorage(bytes32 _key) external view returns (address);\n  function uintStorage(bytes32 _key) external view returns (uint);\n  function boolStorage(bytes32 _key) external view returns (bool);\n  function deleteUint(bytes32 _key) external;\n  function setBool(bytes32 _key, bool _bool) external;\n  function setUint(bytes32 _key, uint _value) external;\n  function setBytes32(bytes32 _key, bytes32 _value) external;\n  function setAddress(bytes32 _key, address _value) external;\n}\n\ncontract Commitment {\n  using SafeMath for uint256;\n\n  Commitment_Database public database;\n  Events public events;\n\n\n  constructor(address _database, address _events)\n  public {\n    database = Commitment_Database(_database);\n    events = Events(_events);\n  }\n\n\n  /**\n  * Commit asset token to voting\n  * @notice Commits specified amount of your token to voting.\n  * @dev Fails if you already have an active commitment. Emits Commit on success.\n  * @param _value - MYB amount to commit.\n  */\n  function commit(uint256 _value, address _token)\n  external\n  returns (bool){\n    require(_value > 0, \"Non zero value required\");\n    require(commitmentAge(msg.sender, _token) == 0, \"commitment already made\");\n    require(database.uintStorage(keccak256(abi.encodePacked(\"commitment.releasetime\", _token, msg.sender))) == 0); // make sure user isn't withdrawing tokens\n    require(database.addressStorage(keccak256(abi.encodePacked(\"asset.governance\", _token))) != address(0));  // make sure token is governed\n    require(Commitment_ERC20(_token).transferFrom(msg.sender, address(this), _value), \"transferFrom failed\");\n    database.setUint(keccak256(abi.encodePacked(\"commitment.value\", _token, msg.sender)), _value);\n    database.setUint(keccak256(abi.encodePacked(\"commitment.start\", _token, msg.sender)), now);\n    emit Commit(msg.sender, _value);\n    return true;\n  }\n\n  // @notice token holder can signal their commitment to be withdrawn after proposal time has elapsed\n  // @param _tokenHolder : the address of the tokenholder to cancelCommitment\n  function cancelCommitment(address _token)\n  external\n  returns (bool){\n    require(commitmentAge(msg.sender, _token) > 0, \"token holder hasnt committed tokens\");\n    bytes32 releaseTimeID = keccak256(abi.encodePacked(\"commitment.releasetime\", _token, msg.sender));\n    require(now < database.uintStorage(releaseTimeID));\n    database.deleteUint(keccak256(abi.encodePacked(\"commitment.start\", _token, msg.sender)));   // remove reference to start date which is the authortiy check\n    database.setUint(releaseTimeID, now.add(database.uintStorage(keccak256(abi.encodePacked(\"asset.voteDuration\", _token)))));\n    return true;\n  }\n\n\n  // @notice Withdraws all of your committed MYB to the original address.\n  // @dev Fails if your commitment is locked.\n  function withdrawTokens(address _tokenHolder, address _token)\n  external\n  returns (bool){\n    require(commitmentAge(_tokenHolder, _token) > 0, \"token holder hasnt committed tokens\");\n    bytes32 releaseTimeID = keccak256(abi.encodePacked(\"commitment.releasetime\", _token, _tokenHolder));\n    uint releaseTime = database.uintStorage(releaseTimeID);\n    require(now > releaseTime && releaseTime > 0);\n    database.deleteUint(releaseTimeID);\n    bytes32 commitmentValueID = keccak256(abi.encodePacked(\"commitment.value\", _tokenHolder));\n    uint256 value = database.uintStorage(commitmentValueID);\n    database.deleteUint(commitmentValueID);\n    require(Commitment_ERC20(_token).transfer(_tokenHolder, value));\n    emit Withdraw(_tokenHolder, value);\n    return true;\n  }\n\n  /**\n   * @dev Assumes active commitment.\n   * @param _account - Account owning commitment to get age of.\n   * @return age - Commitment age.\n   */\n  function commitmentAge(address _account, address _token)\n  internal\n  view\n  returns (uint256) {\n    uint start = database.uintStorage(keccak256(abi.encodePacked(\"commitment.start\", _token, _account)));\n    if(start == 0){\n      return start;\n    } else {\n      return now.sub(start);\n    }\n  }\n\n\n\n  /** MYB committed to voting */\n  event Commit(\n    address indexed account,                    // Committing account\n    uint256 value                               // MYB amount committed\n  );\n\n\n  /** Commitment withdrawn */\n  event Withdraw(\n    address indexed account,                    // Withdrawing account\n    uint256 value                               // MYB amount withdrawn\n  );\n\n}\n",
  "sourcePath": "/home/peter/Documents/Work/MyBit/MyBit-Network.tech/contracts/ownership/Commitment.sol",
  "compiler": {
    "name": "solc",
    "version": "0.4.24+commit.e67f0147.Emscripten.clang"
  },
  "schemaVersion": "3.0.2",
  "updatedAt": "2019-03-21T21:34:45.320Z",
  "devdoc": {
    "methods": {
      "commit(uint256,address)": {
        "details": "Fails if you already have an active commitment. Emits Commit on success.",
        "params": {
          "_value": "- MYB amount to commit."
        }
      }
    }
  },
  "userdoc": {
    "methods": {
      "commit(uint256,address)": {
        "notice": "Commit asset token to votingCommits specified amount of your token to voting."
      }
    }
  }
}