{
  "contractName": "ConsensusTest",
  "abi": [
    {
      "constant": true,
      "inputs": [],
      "name": "api",
      "outputs": [
        {
          "name": "",
          "type": "address"
        }
      ],
      "payable": false,
      "stateMutability": "view",
      "type": "function"
    },
    {
      "inputs": [
        {
          "name": "_api",
          "type": "address"
        }
      ],
      "payable": false,
      "stateMutability": "nonpayable",
      "type": "constructor"
    },
    {
      "constant": true,
      "inputs": [
        {
          "name": "user",
          "type": "address"
        },
        {
          "name": "token",
          "type": "address"
        },
        {
          "name": "tokens",
          "type": "uint256"
        }
      ],
      "name": "checkConsensus",
      "outputs": [
        {
          "name": "",
          "type": "bool"
        }
      ],
      "payable": false,
      "stateMutability": "view",
      "type": "function"
    },
    {
      "constant": true,
      "inputs": [
        {
          "name": "user",
          "type": "address"
        },
        {
          "name": "_token",
          "type": "address"
        },
        {
          "name": "_tokens",
          "type": "uint256"
        }
      ],
      "name": "consensusTestParameterHash",
      "outputs": [
        {
          "name": "",
          "type": "bytes32"
        }
      ],
      "payable": false,
      "stateMutability": "pure",
      "type": "function"
    }
  ],
  "bytecode": "0x608060405234801561001057600080fd5b50604051602080610542833981016040525160008054600160a060020a03909216600160a060020a03199092169190911790556104f0806100526000396000f3006080604052600436106100565763ffffffff7c0100000000000000000000000000000000000000000000000000000000600035041663822b8d69811461005b5780639bace5fc14610097578063d2c18e0b146100d5575b600080fd5b34801561006757600080fd5b50610085600160a060020a0360043581169060243516604435610106565b60408051918252519081900360200190f35b3480156100a357600080fd5b506100c1600160a060020a03600435811690602435166044356101dd565b604080519115158252519081900360200190f35b3480156100e157600080fd5b506100ea6104b5565b60408051600160a060020a039092168252519081900360200190f35b60008383836040516020018084600160a060020a0316600160a060020a03166c0100000000000000000000000002815260140183600160a060020a0316600160a060020a03166c0100000000000000000000000002815260140182815260200193505050506040516020818303038152906040526040518082805190602001908083835b602083106101a95780518252601f19909201916020918201910161018a565b5181516020939093036101000a60001901801990911692169190911790526040519201829003909120979650505050505050565b6000806000808686866040516020018084600160a060020a0316600160a060020a03166c0100000000000000000000000002815260140183600160a060020a0316600160a060020a03166c0100000000000000000000000002815260140182815260200193505050506040516020818303038152906040526040518082805190602001908083835b602083106102845780518252601f199092019160209182019101610265565b51815160209384036101000a600019018019909216911617905260408051929094018290038220600080547f8969e756000000000000000000000000000000000000000000000000000000008552600160a060020a038f811660048701529651929b50959095169650638969e756955060248084019592945090928390030190829087803b15801561031557600080fd5b505af1158015610329573d6000803e3d6000fd5b505050506040513d602081101561033f57600080fd5b505160408051600160a060020a038981166c010000000000000000000000009081026020808501919091529185160260348301526000357fffffffff00000000000000000000000000000000000000000000000000000000166048830152604c80830188905283518084039091018152606c909201928390528151939550909282918401908083835b602083106103e75780518252601f1990920191602091820191016103c8565b51815160209384036101000a6000190180199092169116179052604080519290940182900382207f1c597c83000000000000000000000000000000000000000000000000000000008352600483018190529351939650600160a060020a0388169550631c597c83945060248083019491935090918290030181600087803b15801561047157600080fd5b505af1158015610485573d6000803e3d6000fd5b505050506040513d602081101561049b57600080fd5b505115156104a857600080fd5b5060019695505050505050565b600054600160a060020a0316815600a165627a7a72305820d8cd9f6e7e15d4fc5c14b7e2c9a7db06e804e58390cede58fa32b0a6a7c00dda0029",
  "source": "pragma solidity ^0.4.24;\n\nimport '../database/API.sol';\n\ninterface Token { function totalSupply() external view returns (uint); }\ninterface Consensus { function hasConsensus(bytes32 proposalID) external view returns (bool); }\n\ncontract ConsensusTest {\n\n  API public api;\n\n  constructor(address _api)\n  public {\n    api = API(_api);\n  }\n\n  function checkConsensus(address user, address token, uint tokens)\n  public\n  view\n  returns (bool){\n    bytes32 parameterHash = keccak256(abi.encodePacked(user, token, tokens));\n    address governanceContract = api.assetGovernance(token);\n    bytes32 proposalID = keccak256(abi.encodePacked(token, governanceContract, msg.sig, parameterHash));\n    require(Consensus(governanceContract).hasConsensus(proposalID));\n    return true;\n  }\n\n\n  function consensusTestParameterHash(address user, address _token, uint _tokens)\n  public\n  pure\n  returns (bytes32){\n    return keccak256(abi.encodePacked(user, _token, _tokens));\n  }\n\n}\n",
  "sourcePath": "/home/peter/Documents/Work/MyBit/MyBit-Network.tech/contracts/test/ConsensusTest.sol",
  "compiler": {
    "name": "solc",
    "version": "0.4.24+commit.e67f0147.Emscripten.clang"
  },
  "schemaVersion": "3.0.2",
  "updatedAt": "2019-04-08T19:44:50.768Z",
  "devdoc": {
    "methods": {}
  },
  "userdoc": {
    "methods": {}
  }
}