{
  "contractName": "ContractManager",
  "abi": [
    {
      "constant": true,
      "inputs": [],
      "name": "database",
      "outputs": [
        {
          "name": "",
          "type": "address"
        }
      ],
      "payable": false,
      "stateMutability": "view",
      "type": "function"
    },
    {
      "constant": true,
      "inputs": [],
      "name": "events",
      "outputs": [
        {
          "name": "",
          "type": "address"
        }
      ],
      "payable": false,
      "stateMutability": "view",
      "type": "function"
    },
    {
      "inputs": [
        {
          "name": "_database",
          "type": "address"
        },
        {
          "name": "_events",
          "type": "address"
        }
      ],
      "payable": false,
      "stateMutability": "nonpayable",
      "type": "constructor"
    },
    {
      "anonymous": false,
      "inputs": [
        {
          "indexed": false,
          "name": "_contractAddress",
          "type": "address"
        },
        {
          "indexed": false,
          "name": "_name",
          "type": "string"
        },
        {
          "indexed": false,
          "name": "_blockNumber",
          "type": "uint256"
        }
      ],
      "name": "LogContractAdded",
      "type": "event"
    },
    {
      "anonymous": false,
      "inputs": [
        {
          "indexed": false,
          "name": "contractToDelete",
          "type": "address"
        },
        {
          "indexed": false,
          "name": "_name",
          "type": "string"
        },
        {
          "indexed": false,
          "name": "_blockNumber",
          "type": "uint256"
        }
      ],
      "name": "LogContractRemoved",
      "type": "event"
    },
    {
      "anonymous": false,
      "inputs": [
        {
          "indexed": false,
          "name": "oldAddress",
          "type": "address"
        },
        {
          "indexed": false,
          "name": "_name",
          "type": "string"
        },
        {
          "indexed": false,
          "name": "_blockNumber",
          "type": "uint256"
        }
      ],
      "name": "LogContractUpdated",
      "type": "event"
    },
    {
      "anonymous": false,
      "inputs": [
        {
          "indexed": false,
          "name": "_contractAddress",
          "type": "address"
        },
        {
          "indexed": false,
          "name": "_name",
          "type": "string"
        },
        {
          "indexed": false,
          "name": "_blockNumber",
          "type": "uint256"
        }
      ],
      "name": "LogNewContractLocation",
      "type": "event"
    },
    {
      "anonymous": false,
      "inputs": [
        {
          "indexed": true,
          "name": "_user",
          "type": "address"
        },
        {
          "indexed": false,
          "name": "_currentStateAcceptance",
          "type": "bool"
        },
        {
          "indexed": false,
          "name": "_ignoreStateChanges",
          "type": "bool"
        }
      ],
      "name": "LogContractStatePreferenceChanged",
      "type": "event"
    },
    {
      "constant": false,
      "inputs": [
        {
          "name": "_name",
          "type": "string"
        },
        {
          "name": "_contractAddress",
          "type": "address"
        }
      ],
      "name": "addContract",
      "outputs": [
        {
          "name": "",
          "type": "bool"
        }
      ],
      "payable": false,
      "stateMutability": "nonpayable",
      "type": "function"
    },
    {
      "constant": false,
      "inputs": [
        {
          "name": "_name",
          "type": "string"
        }
      ],
      "name": "removeContract",
      "outputs": [],
      "payable": false,
      "stateMutability": "nonpayable",
      "type": "function"
    },
    {
      "constant": false,
      "inputs": [
        {
          "name": "_name",
          "type": "string"
        },
        {
          "name": "_newContractAddress",
          "type": "address"
        }
      ],
      "name": "updateContract",
      "outputs": [],
      "payable": false,
      "stateMutability": "nonpayable",
      "type": "function"
    },
    {
      "constant": false,
      "inputs": [
        {
          "name": "_acceptCurrentState",
          "type": "bool"
        },
        {
          "name": "_ignoreStateChanges",
          "type": "bool"
        }
      ],
      "name": "setContractStatePreferences",
      "outputs": [
        {
          "name": "",
          "type": "bool"
        }
      ],
      "payable": false,
      "stateMutability": "nonpayable",
      "type": "function"
    }
  ],
  "bytecode": "0x608060405234801561001057600080fd5b5060405160408061284d83398101604052805160209091015160008054600160a060020a03938416600160a060020a031991821617909155600180549390921692169190911790556127e6806100676000396000f30060806040526004361061005e5763ffffffff60e060020a600035041663697a60b38114610063578063713b563f1461009357806397623b58146100c4578063a559dea4146100e4578063b5f8558c14610117578063bf5b60161461012c575b600080fd5b34801561006f57600080fd5b506100916024600480358281019291013590600160a060020a0390351661015a565b005b34801561009f57600080fd5b506100a861101c565b60408051600160a060020a039092168252519081900360200190f35b3480156100d057600080fd5b50610091600480356024810191013561102b565b3480156100f057600080fd5b5061010360043515156024351515611a3e565b604080519115158252519081900360200190f35b34801561012357600080fd5b506100a8611d8f565b34801561013857600080fd5b506101036024600480358281019291013590600160a060020a03903516611d9e565b60008080600160a060020a0384161515806101bf576040805160e560020a62461bcd02815260206004820152600860248201527f4e6f742074727565000000000000000000000000000000000000000000000000604482015290519081900360640190fd5b60005460405160008051602061277b83398151915260208201908152600160a060020a03909216916304f49a3a918a918a916028018383808284378201915050925050506040516020818303038152906040526040518082805190602001908083835b602083106102415780518252601f199092019160209182019101610222565b51815160209384036101000a60001901801990921691161790526040805192909401829003822063ffffffff881660e060020a0283526004830152925160248083019650939450929083900301905081600087803b1580156102a257600080fd5b505af11580156102b6573d6000803e3d6000fd5b505050506040513d60208110156102cc57600080fd5b50516000546040805160008051602061277b833981519152602080830191909152600160a060020a03808616606060020a0260288401528351808403601c018152603c909301938490528251941693633b7bfda093918291908401908083835b6020831061034b5780518252601f19909201916020918201910161032c565b51815160209384036101000a60001901801990921691161790526040805192909401829003822063ffffffff881660e060020a0283526004830152925160248083019650939450929083900301905081600087803b1580156103ac57600080fd5b505af11580156103c0573d6000803e3d6000fd5b505050506040513d60208110156103d657600080fd5b5051151561042e576040805160e560020a62461bcd02815260206004820152601760248201527f436f6e747261637420646f6573206e6f74206578697374000000000000000000604482015290519081900360640190fd5b6000546040805160008051602061275b8339815191526020808301919091528251808303600b018152602b909201928390528151600160a060020a0390941693633b7bfda093918291908401908083835b6020831061049e5780518252601f19909201916020918201910161047f565b51815160209384036101000a60001901801990921691161790526040805192909401829003822063ffffffff881660e060020a0283526004830152925160248083019650939450929083900301905081600087803b1580156104ff57600080fd5b505af1158015610513573d6000803e3d6000fd5b505050506040513d602081101561052957600080fd5b50511515610581576040805160e560020a62461bcd02815260206004820152600f60248201527f4e6f74207570677261646561626c650000000000000000000000000000000000604482015290519081900360640190fd5b600054604080517f6f776e6572000000000000000000000000000000000000000000000000000000602080830191909152606060020a33026025830152825160198184030181526039909201928390528151600160a060020a0390941693633b7bfda093918291908401908083835b6020831061060f5780518252601f1990920191602091820191016105f0565b51815160209384036101000a60001901801990921691161790526040805192909401829003822063ffffffff881660e060020a0283526004830152925160248083019650939450929083900301905081600087803b15801561067057600080fd5b505af1158015610684573d6000803e3d6000fd5b505050506040513d602081101561069a57600080fd5b505115156106f2576040805160e560020a62461bcd02815260206004820152600960248201527f4e6f74206f776e65720000000000000000000000000000000000000000000000604482015290519081900360640190fd5b6000546040805160008051602061275b8339815191526020808301919091528251808303600b018152602b909201928390528151600160a060020a0390941693633b7bfda093918291908401908083835b602083106107625780518252601f199092019160209182019101610743565b51815160209384036101000a60001901801990921691161790526040805192909401829003822063ffffffff881660e060020a0283526004830152925160248083019650939450929083900301905081600087803b1580156107c357600080fd5b505af11580156107d7573d6000803e3d6000fd5b505050506040513d60208110156107ed57600080fd5b505115156107fa57600080fd5b60005460405160008051602061277b83398151915260208201908152600160a060020a03909216916304f49a3a918b918b916028018383808284378201915050925050506040516020818303038152906040526040518082805190602001908083835b6020831061087c5780518252601f19909201916020918201910161085d565b51815160209384036101000a60001901801990921691161790526040805192909401829003822063ffffffff881660e060020a0283526004830152925160248083019650939450929083900301905081600087803b1580156108dd57600080fd5b505af11580156108f1573d6000803e3d6000fd5b505050506040513d602081101561090757600080fd5b505160005460405160008051602061277b83398151915260208201908152929750600160a060020a039091169163ca446dd9918b918b916028018383808284378201915050925050506040516020818303038152906040526040518082805190602001908083835b6020831061098e5780518252601f19909201916020918201910161096f565b5181516020939093036101000a60001901801990911692169190911790526040805191909301819003812063ffffffff871660e060020a0282526004820152600160a060020a038d166024820152915160448084019550600094509092839003019050818387803b158015610a0257600080fd5b505af1158015610a16573d6000803e3d6000fd5b50506000546040805160008051602061277b833981519152602080830191909152600160a060020a038c8116606060020a0260288401528351808403601c018152603c9093019384905282519416955063abfdcced9450909282918401908083835b60208310610a975780518252601f199092019160209182019101610a78565b5181516020939093036101000a60001901801990911692169190911790526040805191909301819003812063ffffffff871660e060020a028252600482015260016024820152915160448084019550600094509092839003019050818387803b158015610b0357600080fd5b505af1158015610b17573d6000803e3d6000fd5b50506000546040805160008051602061277b833981519152602080830191909152600160a060020a038b8116606060020a0260288401528351808403601c018152603c90930193849052825194169550632c62ff2d9450909282918401908083835b60208310610b985780518252601f199092019160209182019101610b79565b5181516020939093036101000a60001901801990911692169190911790526040805191909301819003812063ffffffff871660e060020a0282526004820152915160248084019550600094509092839003019050818387803b158015610bfd57600080fd5b505af1158015610c11573d6000803e3d6000fd5b50506000546040805160008051602061279b8339815191526020808301919091528251808303600c018152602c909201928390528151600160a060020a03909416955063031578af9450909282918401908083835b60208310610c855780518252601f199092019160209182019101610c66565b51815160209384036101000a60001901801990921691161790526040805192909401829003822063ffffffff881660e060020a0283526004830152925160248083019650939450929083900301905081600087803b158015610ce657600080fd5b505af1158015610cfa573d6000803e3d6000fd5b505050506040513d6020811015610d1057600080fd5b5051604080516020818101849052606060020a600160a060020a038b160282840152825160348184030181526054909201928390528151939750909282918401908083835b60208310610d745780518252601f199092019160209182019101610d55565b51815160209384036101000a60001901801990921691161790526040805192909401829003822060005460008051602061279b833981519152848401528551600c818603018152602c909401958690528351919a50600160a060020a03169650634e91db089550919392508291908401908083835b60208310610e085780518252601f199092019160209182019101610de9565b5181516020939093036101000a60001901801990911692169190911790526040805191909301819003812063ffffffff871660e060020a0282526004820152602481018a9052915160448084019550600094509092839003019050818387803b158015610e7457600080fd5b505af1158015610e88573d6000803e3d6000fd5b505060015460405160e660020a6303d6b7a1028152600160a060020a038981166024830152606060048301908152601660648401527f436f6e7472616374207570646174656420286f6c642900000000000000000000608484015260a06044840190815260a484018e905291909316945063f5ade840935089928d928d92829160c401858580828437820191505095505050505050600060405180830381600087803b158015610f3757600080fd5b505af1158015610f4b573d6000803e3d6000fd5b505060015460405160e660020a6303d6b7a1028152600160a060020a038a81166024830152606060048301908152601660648401527f436f6e7472616374207570646174656420286e65772900000000000000000000608484015260a06044840190815260a484018e905291909316945063f5ade84093508a928d928d92829160c401858580828437820191505095505050505050600060405180830381600087803b158015610ffa57600080fd5b505af115801561100e573d6000803e3d6000fd5b505050505050505050505050565b600054600160a060020a031681565b6000805460405160008051602061277b83398151915260208201908152600160a060020a03909216916304f49a3a91869186916028018383808284378201915050925050506040516020818303038152906040526040518082805190602001908083835b602083106110ae5780518252601f19909201916020918201910161108f565b51815160209384036101000a60001901801990921691161790526040805192909401829003822063ffffffff881660e060020a0283526004830152925160248083019650939450929083900301905081600087803b15801561110f57600080fd5b505af1158015611123573d6000803e3d6000fd5b505050506040513d602081101561113957600080fd5b50516000546040805160008051602061277b833981519152602080830191909152600160a060020a03808616606060020a0260288401528351808403601c018152603c909301938490528251941693633b7bfda093918291908401908083835b602083106111b85780518252601f199092019160209182019101611199565b51815160209384036101000a60001901801990921691161790526040805192909401829003822063ffffffff881660e060020a0283526004830152925160248083019650939450929083900301905081600087803b15801561121957600080fd5b505af115801561122d573d6000803e3d6000fd5b505050506040513d602081101561124357600080fd5b5051151561129b576040805160e560020a62461bcd02815260206004820152601760248201527f436f6e747261637420646f6573206e6f74206578697374000000000000000000604482015290519081900360640190fd5b6000546040805160008051602061275b8339815191526020808301919091528251808303600b018152602b909201928390528151600160a060020a0390941693633b7bfda093918291908401908083835b6020831061130b5780518252601f1990920191602091820191016112ec565b51815160209384036101000a60001901801990921691161790526040805192909401829003822063ffffffff881660e060020a0283526004830152925160248083019650939450929083900301905081600087803b15801561136c57600080fd5b505af1158015611380573d6000803e3d6000fd5b505050506040513d602081101561139657600080fd5b505115156113ee576040805160e560020a62461bcd02815260206004820152600f60248201527f4e6f74207570677261646561626c650000000000000000000000000000000000604482015290519081900360640190fd5b600054604080517f6f776e6572000000000000000000000000000000000000000000000000000000602080830191909152606060020a33026025830152825160198184030181526039909201928390528151600160a060020a0390941693633b7bfda093918291908401908083835b6020831061147c5780518252601f19909201916020918201910161145d565b51815160209384036101000a60001901801990921691161790526040805192909401829003822063ffffffff881660e060020a0283526004830152925160248083019650939450929083900301905081600087803b1580156114dd57600080fd5b505af11580156114f1573d6000803e3d6000fd5b505050506040513d602081101561150757600080fd5b5051151561155f576040805160e560020a62461bcd02815260206004820152600960248201527f4e6f74206f776e65720000000000000000000000000000000000000000000000604482015290519081900360640190fd5b6000546040805160008051602061275b8339815191526020808301919091528251808303600b018152602b909201928390528151600160a060020a0390941693633b7bfda093918291908401908083835b602083106115cf5780518252601f1990920191602091820191016115b0565b51815160209384036101000a60001901801990921691161790526040805192909401829003822063ffffffff881660e060020a0283526004830152925160248083019650939450929083900301905081600087803b15801561163057600080fd5b505af1158015611644573d6000803e3d6000fd5b505050506040513d602081101561165a57600080fd5b5051151561166757600080fd5b60005460405160008051602061277b83398151915260208201908152600160a060020a03909216916304f49a3a91879187916028018383808284378201915050925050506040516020818303038152906040526040518082805190602001908083835b602083106116e95780518252601f1990920191602091820191016116ca565b51815160209384036101000a60001901801990921691161790526040805192909401829003822063ffffffff881660e060020a0283526004830152925160248083019650939450929083900301905081600087803b15801561174a57600080fd5b505af115801561175e573d6000803e3d6000fd5b505050506040513d602081101561177457600080fd5b50516000546040805160008051602061277b833981519152602080830191909152600160a060020a03808616606060020a0260288401528351808403601c018152603c90930193849052825195975090931693632c62ff2d939192918291908401908083835b602083106117f95780518252601f1990920191602091820191016117da565b5181516020939093036101000a60001901801990911692169190911790526040805191909301819003812063ffffffff871660e060020a0282526004820152915160248084019550600094509092839003019050818387803b15801561185e57600080fd5b505af1158015611872573d6000803e3d6000fd5b505060005460405160008051602061277b83398151915260208201908152600160a060020a039092169350630e14a3769250879187916028018383808284378201915050925050506040516020818303038152906040526040518082805190602001908083835b602083106118f85780518252601f1990920191602091820191016118d9565b5181516020939093036101000a60001901801990911692169190911790526040805191909301819003812063ffffffff871660e060020a0282526004820152915160248084019550600094509092839003019050818387803b15801561195d57600080fd5b505af1158015611971573d6000803e3d6000fd5b505060015460405160e660020a6303d6b7a1028152600160a060020a038681166024830152606060048301908152601060648401527f436f6e74726163742072656d6f76656400000000000000000000000000000000608484015260a06044840190815260a484018a905291909316945063f5ade8409350869289928992829160c401858580828437820191505095505050505050600060405180830381600087803b158015611a2057600080fd5b505af1158015611a34573d6000803e3d6000fd5b5050505050505050565b600080546040805160008051602061279b8339815191526020808301919091528251808303600c018152602c9092019283905281518594600160a060020a03169363031578af9392909182918401908083835b60208310611ab05780518252601f199092019160209182019101611a91565b51815160209384036101000a60001901801990921691161790526040805192909401829003822063ffffffff881660e060020a0283526004830152925160248083019650939450929083900301905081600087803b158015611b1157600080fd5b505af1158015611b25573d6000803e3d6000fd5b505050506040513d6020811015611b3b57600080fd5b5051600054604080516020818101859052606060020a330282840152825160348184030181526054909201928390528151949550600160a060020a039093169363abfdcced939192918291908401908083835b60208310611bad5780518252601f199092019160209182019101611b8e565b5181516020939093036101000a60001901801990911692169190911790526040805191909301819003812063ffffffff871660e060020a02825260048201528a15156024820152915160448084019550600094509092839003019050818387803b158015611c1a57600080fd5b505af1158015611c2e573d6000803e3d6000fd5b5050600054604080517f69676e6f726553746174654368616e6765730000000000000000000000000000602080830191909152606060020a33026032830152825160268184030181526046909201928390528151600160a060020a03909416955063abfdcced9450909282918401908083835b60208310611cc05780518252601f199092019160209182019101611ca1565b5181516020939093036101000a60001901801990911692169190911790526040805191909301819003812063ffffffff871660e060020a02825260048201528915156024820152915160448084019550600094509092839003019050818387803b158015611d2d57600080fd5b505af1158015611d41573d6000803e3d6000fd5b5050604080518715158152861515602082015281513394507f2a8e3a90deecaea9a0a281268fe581c97137089b2da8b29ef69788da110174d793509081900390910190a25060019392505050565b600154600160a060020a031681565b60008080600160a060020a038416151580611e03576040805160e560020a62461bcd02815260206004820152600860248201527f4e6f742074727565000000000000000000000000000000000000000000000000604482015290519081900360640190fd5b85151580611e5b576040805160e560020a62461bcd02815260206004820152600860248201527f4e6f742074727565000000000000000000000000000000000000000000000000604482015290519081900360640190fd5b600054604080517f6f776e6572000000000000000000000000000000000000000000000000000000602080830191909152606060020a33026025830152825160198184030181526039909201928390528151600160a060020a0390941693633b7bfda093918291908401908083835b60208310611ee95780518252601f199092019160209182019101611eca565b51815160209384036101000a60001901801990921691161790526040805192909401829003822063ffffffff881660e060020a0283526004830152925160248083019650939450929083900301905081600087803b158015611f4a57600080fd5b505af1158015611f5e573d6000803e3d6000fd5b505050506040513d6020811015611f7457600080fd5b50511515611fcc576040805160e560020a62461bcd02815260206004820152600960248201527f4e6f74206f776e65720000000000000000000000000000000000000000000000604482015290519081900360640190fd5b6000546040805160008051602061277b833981519152602080830191909152600160a060020a038a8116606060020a0260288401528351808403601c018152603c909301938490528251941693633b7bfda093918291908401908083835b602083106120495780518252601f19909201916020918201910161202a565b51815160209384036101000a60001901801990921691161790526040805192909401829003822063ffffffff881660e060020a0283526004830152925160248083019650939450929083900301905081600087803b1580156120aa57600080fd5b505af11580156120be573d6000803e3d6000fd5b505050506040513d60208110156120d457600080fd5b5051156120e057600080fd5b6000805460405160008051602061277b83398151915260208201908152600160a060020a03909216916304f49a3a918c918c916028018383808284378201915050925050506040516020818303038152906040526040518082805190602001908083835b602083106121635780518252601f199092019160209182019101612144565b51815160209384036101000a60001901801990921691161790526040805192909401829003822063ffffffff881660e060020a0283526004830152925160248083019650939450929083900301905081600087803b1580156121c457600080fd5b505af11580156121d8573d6000803e3d6000fd5b505050506040513d60208110156121ee57600080fd5b5051600160a060020a03161461220357600080fd5b60005460405160008051602061277b83398151915260208201908152600160a060020a039092169163ca446dd9918b918b916028018383808284378201915050925050506040516020818303038152906040526040518082805190602001908083835b602083106122855780518252601f199092019160209182019101612266565b5181516020939093036101000a60001901801990911692169190911790526040805191909301819003812063ffffffff871660e060020a0282526004820152600160a060020a038d166024820152915160448084019550600094509092839003019050818387803b1580156122f957600080fd5b505af115801561230d573d6000803e3d6000fd5b50506000546040805160008051602061277b833981519152602080830191909152600160a060020a038c8116606060020a0260288401528351808403601c018152603c9093019384905282519416955063abfdcced9450909282918401908083835b6020831061238e5780518252601f19909201916020918201910161236f565b5181516020939093036101000a60001901801990911692169190911790526040805191909301819003812063ffffffff871660e060020a028252600482015260016024820152915160448084019550600094509092839003019050818387803b1580156123fa57600080fd5b505af115801561240e573d6000803e3d6000fd5b50506000546040805160008051602061279b8339815191526020808301919091528251808303600c018152602c909201928390528151600160a060020a03909416955063031578af9450909282918401908083835b602083106124825780518252601f199092019160209182019101612463565b51815160209384036101000a60001901801990921691161790526040805192909401829003822063ffffffff881660e060020a0283526004830152925160248083019650939450929083900301905081600087803b1580156124e357600080fd5b505af11580156124f7573d6000803e3d6000fd5b505050506040513d602081101561250d57600080fd5b5051604080516020818101849052606060020a600160a060020a038b160282840152825160348184030181526054909201928390528151939750909282918401908083835b602083106125715780518252601f199092019160209182019101612552565b51815160209384036101000a60001901801990921691161790526040805192909401829003822060005460008051602061279b833981519152848401528551600c818603018152602c909401958690528351919a50600160a060020a03169650634e91db089550919392508291908401908083835b602083106126055780518252601f1990920191602091820191016125e6565b5181516020939093036101000a60001901801990911692169190911790526040805191909301819003812063ffffffff871660e060020a0282526004820152602481018a9052915160448084019550600094509092839003019050818387803b15801561267157600080fd5b505af1158015612685573d6000803e3d6000fd5b505060015460405160e660020a6303d6b7a1028152600160a060020a038a81166024830152606060048301908152600e60648401527f436f6e7472616374206164646564000000000000000000000000000000000000608484015260a06044840190815260a484018e905291909316945063f5ade84093508a928d928d92829160c401858580828437820191505095505050505050600060405180830381600087803b15801561273457600080fd5b505af1158015612748573d6000803e3d6000fd5b5060019b9a505050505050505050505056007570677261646561626c65000000000000000000000000000000000000000000636f6e747261637400000000000000000000000000000000000000000000000063757272656e7453746174650000000000000000000000000000000000000000a165627a7a72305820410daee1e487b576e54f8f7b15831ea34985315266155ea74062796995766cd90029",
  "source": "pragma solidity ^0.4.24;\n\nimport \"../interfaces/DBInterface.sol\";\nimport \"./Events.sol\";\n\n// @title A contract manager that determines which contracts have write access to platform database\n// @notice This contract determines which contracts are allowed to make changes to the database contract.\n// @author Kyle Dewhurst, MyBit Foundation\ncontract ContractManager{\n  DBInterface public database;\n  Events public events;\n\n  // @notice constructor: initializes database\n  // @param: the address for the database contract used by this platform\n  constructor(address _database, address _events)\n  public {\n    database = DBInterface(_database);\n    events = Events(_events);\n  }\n\n  // @notice This function adds new contracts to the platform. Giving them write access to Database.sol\n  // @Param: The name of the contract\n  // @Param: The address of the new contract\n  function addContract(string _name, address _contractAddress)\n  external\n  isTrue(_contractAddress != address(0))\n  isTrue(bytes(_name).length != uint(0))\n  anyOwner\n  returns (bool) {\n    require(!database.boolStorage(keccak256(abi.encodePacked(\"contract\", _contractAddress))));\n    require(database.addressStorage(keccak256(abi.encodePacked(\"contract\", _name))) == address(0));\n    database.setAddress(keccak256(abi.encodePacked(\"contract\", _name)), _contractAddress);\n    database.setBool(keccak256(abi.encodePacked(\"contract\", _contractAddress)), true);\n    bytes32 currentState = database.bytes32Storage(keccak256(abi.encodePacked(\"currentState\")));      //Update currentState\n    bytes32 newState = keccak256(abi.encodePacked(currentState, _contractAddress));\n    database.setBytes32(keccak256(abi.encodePacked(\"currentState\")), newState);\n    events.contractChange(\"Contract added\", _contractAddress, _name);\n    return true;\n  }\n\n  // @notice Owner can remove an existing contract on the platform.\n  // @Param: The name of the contract\n  // @Param: The owner who authorized this function to be called\n  function removeContract(string _name)\n  external\n  contractExists(database.addressStorage(keccak256(abi.encodePacked(\"contract\", _name))))\n  isUpgradeable\n  anyOwner {\n    require(database.boolStorage(keccak256(abi.encodePacked(\"upgradeable\"))));\n    address contractToDelete = database.addressStorage(keccak256(abi.encodePacked(\"contract\", _name)));\n    database.deleteBool(keccak256(abi.encodePacked(\"contract\", contractToDelete)));\n    database.deleteAddress(keccak256(abi.encodePacked(\"contract\", _name)));\n    events.contractChange(\"Contract removed\", contractToDelete, _name);\n  }\n\n  // @notice Owner can update an existing contract on the platform, giving it write access to Database\n  // @Param: The name of the contract (First Letter Capitalized)\n  // @Param: The address of the new contract\n  function updateContract(string _name, address _newContractAddress)\n  external\n  isTrue(_newContractAddress != 0)\n  contractExists(database.addressStorage(keccak256(abi.encodePacked(\"contract\", _name))))\n  isUpgradeable\n  anyOwner {\n    require(database.boolStorage(keccak256(abi.encodePacked(\"upgradeable\"))));\n    address oldAddress = database.addressStorage(keccak256(abi.encodePacked(\"contract\", _name)));\n    database.setAddress(keccak256(abi.encodePacked(\"contract\", _name)), _newContractAddress);\n    database.setBool(keccak256(abi.encodePacked(\"contract\", _newContractAddress)), true);\n    database.deleteBool(keccak256(abi.encodePacked(\"contract\", oldAddress)));\n    bytes32 currentState = database.bytes32Storage(keccak256(abi.encodePacked(\"currentState\")));      //Update currentState\n    bytes32 newState = keccak256(abi.encodePacked(currentState, _newContractAddress));\n    database.setBytes32(keccak256(abi.encodePacked(\"currentState\")), newState);\n    events.contractChange(\"Contract updated (old)\", oldAddress, _name);\n    events.contractChange(\"Contract updated (new)\", _newContractAddress, _name);\n  }\n\n  // @notice user can decide to accept or deny the current and future state of the platform contracts\n  // @notice if user accepts future upgrades they will automatically be able to interact with upgraded contracts\n  // @param (bool) _acceptCurrentState: does the user agree to use the current contracts in the platform\n  // @param (bool) _ignoreStateChanges: does the user agree to use the platform despite contract changes\n  function setContractStatePreferences(bool _acceptCurrentState, bool _ignoreStateChanges)\n  external\n  returns (bool) {\n    bytes32 currentState = database.bytes32Storage(keccak256(abi.encodePacked(\"currentState\")));\n    database.setBool(keccak256(abi.encodePacked(currentState, msg.sender)), _acceptCurrentState);\n    database.setBool(keccak256(abi.encodePacked(\"ignoreStateChanges\", msg.sender)), _ignoreStateChanges);\n    emit LogContractStatePreferenceChanged(msg.sender, _acceptCurrentState, _ignoreStateChanges);\n    return true;\n  }\n\n\n  // ------------------------------------------------------------------------------------------------\n  //                                                Modifiers\n  // ------------------------------------------------------------------------------------------------\n\n  modifier isUpgradeable {\n    require(database.boolStorage(keccak256(abi.encodePacked(\"upgradeable\"))), \"Not upgradeable\");\n    _;\n  }\n\n  // @notice Verify that sender is an owner\n  modifier anyOwner {\n    require(database.boolStorage(keccak256(abi.encodePacked(\"owner\", msg.sender))), \"Not owner\");\n    _;\n  }\n\n  // @notice add this modifer to functions that you want multi-sig requirements for\n  // @dev function can only be called after at least n >= quorumLevel owners have agreed to call it\n  modifier isRestricted(bytes4 _methodID, bytes32 _parameterHash) {\n    require(database.boolStorage(keccak256(abi.encodePacked(address(this), _methodID, _parameterHash))));  // owners must have agreed on function + parameters\n    _;\n    database.deleteBool(keccak256(abi.encodePacked(address(this), _methodID, _parameterHash)));\n  }\n\n  modifier contractExists(address _contract) {\n    require(database.boolStorage(keccak256(abi.encodePacked(\"contract\", _contract))), \"Contract does not exist\");\n    _;\n  }\n\n  modifier isTrue(bool _conditional) {\n    require(_conditional, \"Not true\");\n    _;\n  }\n\n\n\n  // ------------------------------------------------------------------------------------------------\n  //                                    Events\n  // ------------------------------------------------------------------------------------------------\n  event LogContractAdded(address _contractAddress, string _name, uint _blockNumber);\n  event LogContractRemoved(address contractToDelete, string _name, uint _blockNumber);\n  event LogContractUpdated(address oldAddress, string _name, uint _blockNumber);\n  event LogNewContractLocation(address _contractAddress, string _name, uint _blockNumber);\n  event LogContractStatePreferenceChanged(address indexed _user, bool _currentStateAcceptance, bool _ignoreStateChanges);\n}\n",
  "sourcePath": "/home/peter/Documents/Work/MyBit/MyBit-Network.tech/contracts/database/ContractManager.sol",
  "compiler": {
    "name": "solc",
    "version": "0.4.24+commit.e67f0147.Emscripten.clang"
  },
  "schemaVersion": "3.0.1",
  "updatedAt": "2019-03-13T22:36:34.118Z",
  "devdoc": {
    "methods": {}
  },
  "userdoc": {
    "methods": {}
  }
}