{
  "contractName": "CrowdsaleERC20",
  "abi": [
    {
      "constant": true,
      "inputs": [],
      "name": "database",
      "outputs": [
        {
          "name": "",
          "type": "address"
        }
      ],
      "payable": false,
      "stateMutability": "view",
      "type": "function"
    },
    {
      "constant": true,
      "inputs": [],
      "name": "events",
      "outputs": [
        {
          "name": "",
          "type": "address"
        }
      ],
      "payable": false,
      "stateMutability": "view",
      "type": "function"
    },
    {
      "inputs": [
        {
          "name": "_database",
          "type": "address"
        },
        {
          "name": "_events",
          "type": "address"
        }
      ],
      "payable": false,
      "stateMutability": "nonpayable",
      "type": "constructor"
    },
    {
      "constant": false,
      "inputs": [
        {
          "name": "_assetAddress",
          "type": "address"
        },
        {
          "name": "_investor",
          "type": "address"
        },
        {
          "name": "_amount",
          "type": "uint256"
        }
      ],
      "name": "buyAssetOrderERC20",
      "outputs": [
        {
          "name": "",
          "type": "bool"
        }
      ],
      "payable": false,
      "stateMutability": "nonpayable",
      "type": "function"
    },
    {
      "constant": false,
      "inputs": [
        {
          "name": "_assetAddress",
          "type": "address"
        }
      ],
      "name": "refund",
      "outputs": [
        {
          "name": "",
          "type": "bool"
        }
      ],
      "payable": false,
      "stateMutability": "nonpayable",
      "type": "function"
    },
    {
      "constant": false,
      "inputs": [
        {
          "name": "_erc20Token",
          "type": "address"
        }
      ],
      "name": "recoverTokens",
      "outputs": [],
      "payable": false,
      "stateMutability": "nonpayable",
      "type": "function"
    },
    {
      "constant": false,
      "inputs": [],
      "name": "destroy",
      "outputs": [],
      "payable": false,
      "stateMutability": "nonpayable",
      "type": "function"
    }
  ],
  "bytecode": "0x608060405234801561001057600080fd5b506040516040806132c483398101604052805160209091015160008054600160a060020a03938416600160a060020a0319918216179091556001805493909216921691909117905561325d806100676000396000f30060806040526004361061005e5763ffffffff60e060020a60003504166316114acd8114610063578063713b563f1461008657806383197ef0146100b7578063b5f8558c146100cc578063e8500335146100e1578063fa89401a1461011f575b600080fd5b34801561006f57600080fd5b50610084600160a060020a0360043516610140565b005b34801561009257600080fd5b5061009b6103e0565b60408051600160a060020a039092168252519081900360200190f35b3480156100c357600080fd5b506100846103ef565b3480156100d857600080fd5b5061009b610623565b3480156100ed57600080fd5b5061010b600160a060020a0360043581169060243516604435610632565b604080519115158252519081900360200190f35b34801561012b57600080fd5b5061010b600160a060020a0360043516611b14565b60008054604080517f6f776e6572000000000000000000000000000000000000000000000000000000602080830191909152606060020a330260258301528251601981840301815260399092019283905281518594600160a060020a031693633b7bfda09392909182918401908083835b602083106101d05780518252601f1990920191602091820191016101b1565b51815160209384036101000a60001901801990921691161790526040805192909401829003822063ffffffff881660e060020a0283526004830152925160248083019650939450929083900301905081600087803b15801561023157600080fd5b505af1158015610245573d6000803e3d6000fd5b505050506040513d602081101561025b57600080fd5b505115156102b3576040805160e560020a62461bcd02815260206004820152600960248201527f4e6f74206f776e65720000000000000000000000000000000000000000000000604482015290519081900360640190fd5b604080517f70a082310000000000000000000000000000000000000000000000000000000081523060048201529051849350600160a060020a038416916370a082319160248083019260209291908290030181600087803b15801561031757600080fd5b505af115801561032b573d6000803e3d6000fd5b505050506040513d602081101561034157600080fd5b5051604080517fa9059cbb000000000000000000000000000000000000000000000000000000008152336004820152602481018390529051919250600160a060020a0384169163a9059cbb916044808201926020929091908290030181600087803b1580156103af57600080fd5b505af11580156103c3573d6000803e3d6000fd5b505050506040513d60208110156103d957600080fd5b5050505050565b600054600160a060020a031681565b600054604080517f6f776e6572000000000000000000000000000000000000000000000000000000602080830191909152606060020a33026025830152825160198184030181526039909201928390528151600160a060020a0390941693633b7bfda093918291908401908083835b6020831061047d5780518252601f19909201916020918201910161045e565b51815160209384036101000a60001901801990921691161790526040805192909401829003822063ffffffff881660e060020a0283526004830152925160248083019650939450929083900301905081600087803b1580156104de57600080fd5b505af11580156104f2573d6000803e3d6000fd5b505050506040513d602081101561050857600080fd5b50511515610560576040805160e560020a62461bcd02815260206004820152600960248201527f4e6f74206f776e65720000000000000000000000000000000000000000000000604482015290519081900360640190fd5b600154604080517f68b96270000000000000000000000000000000000000000000000000000000008152306024820181905233604483015231606482015260a06004820152601860a48201527f43726f776473616c6545524332302064657374726f796564000000000000000060c48201529051600160a060020a03909216916368b962709160e48082019260009290919082900301818387803b15801561060757600080fd5b505af115801561061b573d6000803e3d6000fd5b503392505050ff5b600154600160a060020a031681565b60008054604080517f61737365742e6d616e6167657200000000000000000000000000000000000000602080830191909152600160a060020a03888116606060020a02602d84015283518084036021018152604190930193849052825186958695869586958d9587959416936304f49a3a93918291908401908083835b602083106106ce5780518252601f1990920191602091820191016106af565b51815160209384036101000a60001901801990921691161790526040805192909401829003822063ffffffff881660e060020a0283526004830152925160248083019650939450929083900301905081600087803b15801561072f57600080fd5b505af1158015610743573d6000803e3d6000fd5b505050506040513d602081101561075957600080fd5b5051600160a060020a031614156107ba576040805160e560020a62461bcd02815260206004820152600d60248201527f496e76616c696420617373657400000000000000000000000000000000000000604482015290519081900360640190fd5b60005460408051600080516020613212833981519152602080830191909152600160a060020a038d8116606060020a0260328401528351808403602601815260469093019384905282518e95919091169363a855d4ce9392909182918401908083835b6020831061083c5780518252601f19909201916020918201910161081d565b51815160209384036101000a60001901801990921691161790526040805192909401829003822063ffffffff881660e060020a0283526004830152925160248083019650939450929083900301905081600087803b15801561089d57600080fd5b505af11580156108b1573d6000803e3d6000fd5b505050506040513d60208110156108c757600080fd5b5051421115610920576040805160e560020a62461bcd02815260206004820152600d60248201527f5061737420646561646c696e6500000000000000000000000000000000000000604482015290519081900360640190fd5b600054604080517f63726f776473616c652e73746172740000000000000000000000000000000000602080830191909152600160a060020a03858116606060020a02602f84015283518084036023018152604390930193849052825194169363a855d4ce93918291908401908083835b602083106109af5780518252601f199092019160209182019101610990565b51815160209384036101000a60001901801990921691161790526040805192909401829003822063ffffffff881660e060020a0283526004830152925160248083019650939450929083900301905081600087803b158015610a1057600080fd5b505af1158015610a24573d6000803e3d6000fd5b505050506040513d6020811015610a3a57600080fd5b5051421015610a93576040805160e560020a62461bcd02815260206004820152601160248201527f4265666f72652073746172742074696d65000000000000000000000000000000604482015290519081900360640190fd5b896000809054906101000a9004600160a060020a0316600160a060020a0316633b7bfda08260405160200180807f63726f776473616c652e66696e616c697a65640000000000000000000000000081525060130182600160a060020a0316600160a060020a0316606060020a0281526014019150506040516020818303038152906040526040518082805190602001908083835b60208310610b465780518252601f199092019160209182019101610b27565b51815160209384036101000a60001901801990921691161790526040805192909401829003822063ffffffff881660e060020a0283526004830152925160248083019650939450929083900301905081600087803b158015610ba757600080fd5b505af1158015610bbb573d6000803e3d6000fd5b505050506040513d6020811015610bd157600080fd5b505115610c28576040805160e560020a62461bcd02815260206004820152601360248201527f43726f776473616c652066696e616c697a656400000000000000000000000000604482015290519081900360640190fd5b33600160a060020a038b161480610e2457506000809054906101000a9004600160a060020a0316600160a060020a0316633b7bfda08b33306000357fffffffff000000000000000000000000000000000000000000000000000000001660405160200180807f617070726f76616c00000000000000000000000000000000000000000000000081525060080185600160a060020a0316600160a060020a0316606060020a02815260140184600160a060020a0316600160a060020a0316606060020a02815260140183600160a060020a0316600160a060020a0316606060020a028152601401827bffffffffffffffffffffffffffffffffffffffffffffffffffffffff19167bffffffffffffffffffffffffffffffffffffffffffffffffffffffff191681526004019450505050506040516020818303038152906040526040518082805190602001908083835b60208310610d965780518252601f199092019160209182019101610d77565b51815160209384036101000a60001901801990921691161790526040805192909401829003822063ffffffff881660e060020a0283526004830152925160248083019650939450929083900301905081600087803b158015610df757600080fd5b505af1158015610e0b573d6000803e3d6000fd5b505050506040513d6020811015610e2157600080fd5b50515b1515610e7a576040805160e560020a62461bcd02815260206004820152601160248201527f55736572206e6f7420617070726f766564000000000000000000000000000000604482015290519081900360640190fd5b8a96506000809054906101000a9004600160a060020a0316600160a060020a03166304f49a3a8c60405160200180807f63726f776473616c652e66756e64696e67546f6b656e0000000000000000000081525060160182600160a060020a0316600160a060020a0316606060020a0281526014019150506040516020818303038152906040526040518082805190602001908083835b60208310610f2f5780518252601f199092019160209182019101610f10565b51815160209384036101000a60001901801990921691161790526040805192909401829003822063ffffffff881660e060020a0283526004830152925160248083019650939450929083900301905081600087803b158015610f9057600080fd5b505af1158015610fa4573d6000803e3d6000fd5b505050506040513d6020811015610fba57600080fd5b810190808051906020019092919050505095506000809054906101000a9004600160a060020a0316600160a060020a031663a855d4ce8c60405160200180807f63726f776473616c652e676f616c000000000000000000000000000000000000815250600e0182600160a060020a0316600160a060020a0316606060020a0281526014019150506040516020818303038152906040526040518082805190602001908083835b6020831061107f5780518252601f199092019160209182019101611060565b51815160209384036101000a60001901801990921691161790526040805192909401829003822063ffffffff881660e060020a0283526004830152925160248083019650939450929083900301905081600087803b1580156110e057600080fd5b505af11580156110f4573d6000803e3d6000fd5b505050506040513d602081101561110a57600080fd5b5051604080517f18160ddd00000000000000000000000000000000000000000000000000000000815290519196506111a791600160a060020a038a16916318160ddd9160048083019260209291908290030181600087803b15801561116e57600080fd5b505af1158015611182573d6000803e3d6000fd5b505050506040513d602081101561119857600080fd5b5051869063ffffffff61259916565b935083891061186857604080517f23b872dd000000000000000000000000000000000000000000000000000000008152600160a060020a038c81166004830152306024830152604482018790529151918816916323b872dd916064808201926020929091908290030181600087803b15801561122257600080fd5b505af1158015611236573d6000803e3d6000fd5b505050506040513d602081101561124c57600080fd5b505115156112a4576040805160e560020a62461bcd02815260206004820152600f60248201527f5472616e73666572206661696c65640000000000000000000000000000000000604482015290519081900360640190fd5b600054604080517f636f6e74726163740000000000000000000000000000000000000000000000006020808301919091527f41737365744d616e6167657246756e64730000000000000000000000000000006028830152825160198184030181526039909201928390528151600160a060020a03808d16956340c10f19959116936304f49a3a93909282918401908083835b602083106113555780518252601f199092019160209182019101611336565b51815160209384036101000a60001901801990921691161790526040805192909401829003822063ffffffff881660e060020a0283526004830152925160248083019650939450929083900301905081600087803b1580156113b657600080fd5b505af11580156113ca573d6000803e3d6000fd5b505050506040513d60208110156113e057600080fd5b81019080805190602001909291905050506000809054906101000a9004600160a060020a0316600160a060020a031663a855d4ce8f60405160200180807f61737365742e6d616e616765724665650000000000000000000000000000000081525060100182600160a060020a0316600160a060020a0316606060020a0281526014019150506040516020818303038152906040526040518082805190602001908083835b602083106114a35780518252601f199092019160209182019101611484565b51815160209384036101000a60001901801990921691161790526040805192909401829003822063ffffffff881660e060020a0283526004830152925160248083019650939450929083900301905081600087803b15801561150457600080fd5b505af1158015611518573d6000803e3d6000fd5b505050506040513d602081101561152e57600080fd5b50516040805160e060020a63ffffffff8616028152600160a060020a03909316600484015260248301919091525160448083019260209291908290030181600087803b15801561157d57600080fd5b505af1158015611591573d6000803e3d6000fd5b505050506040513d60208110156115a757600080fd5b505115156115ff576040805160e560020a62461bcd02815260206004820152601660248201527f4d616e61676572206d696e74696e67206661696c656400000000000000000000604482015290519081900360640190fd5b6116088b6125ab565b151561165e576040805160e560020a62461bcd02815260206004820152601a60248201527f43726f776473616c6520646964206e6f742066696e616c697a65000000000000604482015290519081900360640190fd5b86600160a060020a03166340c10f198b866040518363ffffffff1660e060020a0281526004018083600160a060020a0316600160a060020a0316815260200182815260200192505050602060405180830381600087803b1580156116c157600080fd5b505af11580156116d5573d6000803e3d6000fd5b505050506040513d60208110156116eb57600080fd5b50511515611743576040805160e560020a62461bcd02815260206004820152601760248201527f496e766573746f72206d696e74696e67206661696c6564000000000000000000604482015290519081900360640190fd5b86600160a060020a0316637d64bcb46040518163ffffffff1660e060020a028152600401602060405180830381600087803b15801561178157600080fd5b505af1158015611795573d6000803e3d6000fd5b505050506040513d60208110156117ab57600080fd5b50511515611803576040805160e560020a62461bcd02815260206004820152601460248201527f4d696e74696e67206e6f742066696e6973686564000000000000000000000000604482015290519081900360640190fd5b61180d8b86612b10565b1515611863576040805160e560020a62461bcd02815260206004820152600d60248201527f5061796f7574206661696c656400000000000000000000000000000000000000604482015290519081900360640190fd5b611a41565b604080517f23b872dd000000000000000000000000000000000000000000000000000000008152600160a060020a038c81166004830152306024830152604482018c90529151918816916323b872dd916064808201926020929091908290030181600087803b1580156118da57600080fd5b505af11580156118ee573d6000803e3d6000fd5b505050506040513d602081101561190457600080fd5b5051151561195c576040805160e560020a62461bcd02815260206004820152600f60248201527f5472616e73666572206661696c65640000000000000000000000000000000000604482015290519081900360640190fd5b86600160a060020a03166340c10f198b8b6040518363ffffffff1660e060020a0281526004018083600160a060020a0316600160a060020a0316815260200182815260200192505050602060405180830381600087803b1580156119bf57600080fd5b505af11580156119d3573d6000803e3d6000fd5b505050506040513d60208110156119e957600080fd5b50511515611a41576040805160e560020a62461bcd02815260206004820152601760248201527f496e766573746f72206d696e74696e67206661696c6564000000000000000000604482015290519081900360640190fd5b600154604080517f68b96270000000000000000000000000000000000000000000000000000000008152600160a060020a038d811660248301528e81166044830152606482018d905260a06004830152600f60a48301527f417373657420707572636861736564000000000000000000000000000000000060c4830152915191909216916368b962709160e480830192600092919082900301818387803b158015611aeb57600080fd5b505af1158015611aff573d6000803e3d6000fd5b5060019e9d5050505050505050505050505050565b60008054604080517f7061757365640000000000000000000000000000000000000000000000000000602080830191909152606060020a300260268301528251601a818403018152603a909201928390528151859485948594600160a060020a0390921693633b7bfda09382918401908083835b60208310611ba75780518252601f199092019160209182019101611b88565b51815160209384036101000a60001901801990921691161790526040805192909401829003822063ffffffff881660e060020a0283526004830152925160248083019650939450929083900301905081600087803b158015611c0857600080fd5b505af1158015611c1c573d6000803e3d6000fd5b505050506040513d6020811015611c3257600080fd5b505115611c3e57600080fd5b60008054604080517f61737365742e6d616e6167657200000000000000000000000000000000000000602080830191909152600160a060020a038a8116606060020a02602d8401528351808403602101815260419093019384905282518b969591909116936304f49a3a9392909182918401908083835b60208310611cd45780518252601f199092019160209182019101611cb5565b51815160209384036101000a60001901801990921691161790526040805192909401829003822063ffffffff881660e060020a0283526004830152925160248083019650939450929083900301905081600087803b158015611d3557600080fd5b505af1158015611d49573d6000803e3d6000fd5b505050506040513d6020811015611d5f57600080fd5b5051600160a060020a03161415611dc0576040805160e560020a62461bcd02815260206004820152600d60248201527f496e76616c696420617373657400000000000000000000000000000000000000604482015290519081900360640190fd5b60005460408051600080516020613212833981519152602080830191909152600160a060020a038a8116606060020a0260328401528351808403602601815260469093019384905282518b95919091169363a855d4ce9392909182918401908083835b60208310611e425780518252601f199092019160209182019101611e23565b51815160209384036101000a60001901801990921691161790526040805192909401829003822063ffffffff881660e060020a0283526004830152925160248083019650939450929083900301905081600087803b158015611ea357600080fd5b505af1158015611eb7573d6000803e3d6000fd5b505050506040513d6020811015611ecd57600080fd5b50514211611f25576040805160e560020a62461bcd02815260206004820152600f60248201527f4265666f726520646561646c696e650000000000000000000000000000000000604482015290519081900360640190fd5b600054604080517f63726f776473616c652e66696e616c697a656400000000000000000000000000602080830191909152600160a060020a038b8116606060020a0260338401528351808403602701815260479093019384905282518c959190911693633b7bfda09392909182918401908083835b60208310611fb95780518252601f199092019160209182019101611f9a565b51815160209384036101000a60001901801990921691161790526040805192909401829003822063ffffffff881660e060020a0283526004830152925160248083019650939450929083900301905081600087803b15801561201a57600080fd5b505af115801561202e573d6000803e3d6000fd5b505050506040513d602081101561204457600080fd5b50511561209b576040805160e560020a62461bcd02815260206004820152601360248201527f43726f776473616c652066696e616c697a656400000000000000000000000000604482015290519081900360640190fd5b60005460408051600080516020613212833981519152602080830191909152600160a060020a038c8116606060020a02603284015283518084036026018152604690930193849052825194169363a855d4ce93918291908401908083835b602083106121185780518252601f1990920191602091820191016120f9565b51815160209384036101000a60001901801990921691161790526040805192909401829003822063ffffffff881660e060020a0283526004830152925160248083019650939450929083900301905081600087803b15801561217957600080fd5b505af115801561218d573d6000803e3d6000fd5b505050506040513d60208110156121a357600080fd5b505115156121b057600080fd5b60005460408051600080516020613212833981519152602080830191909152600160a060020a038c8116606060020a02603284015283518084036026018152604690930193849052825194169363e2b202bf93918291908401908083835b6020831061222d5780518252601f19909201916020918201910161220e565b5181516020939093036101000a60001901801990911692169190911790526040805191909301819003812063ffffffff871660e060020a0282526004820152915160248084019550600094509092839003019050818387803b15801561229257600080fd5b505af11580156122a6573d6000803e3d6000fd5b505050508795506000809054906101000a9004600160a060020a0316600160a060020a03166304f49a3a8960405160200180807f63726f776473616c652e66756e64696e67546f6b656e0000000000000000000081525060160182600160a060020a0316600160a060020a0316606060020a0281526014019150506040516020818303038152906040526040518082805190602001908083835b6020831061235f5780518252601f199092019160209182019101612340565b51815160209384036101000a60001901801990921691161790526040805192909401829003822063ffffffff881660e060020a0283526004830152925160248083019650939450929083900301905081600087803b1580156123c057600080fd5b505af11580156123d4573d6000803e3d6000fd5b505050506040513d60208110156123ea57600080fd5b5051604080517f18160ddd0000000000000000000000000000000000000000000000000000000081529051919650600160a060020a038816916318160ddd916004808201926020929091908290030181600087803b15801561244b57600080fd5b505af115801561245f573d6000803e3d6000fd5b505050506040513d602081101561247557600080fd5b5051604080517f095ea7b3000000000000000000000000000000000000000000000000000000008152600160a060020a038b811660048301526024820184905291519296509087169163095ea7b3916044808201926020929091908290030181600087803b1580156124e657600080fd5b505af11580156124fa573d6000803e3d6000fd5b505050506040513d602081101561251057600080fd5b5050604080517f52ff7fa9000000000000000000000000000000000000000000000000000000008152600481018690529051600160a060020a038816916352ff7fa991602480830192600092919082900301818387803b15801561257357600080fd5b505af1158015612587573d6000803e3d6000fd5b5060019b9a5050505050505050505050565b6000828211156125a557fe5b50900390565b60008054604080517f7061757365640000000000000000000000000000000000000000000000000000602080830191909152606060020a300260268301528251601a818403018152603a909201928390528151600160a060020a0390941693633b7bfda093918291908401908083835b6020831061263a5780518252601f19909201916020918201910161261b565b51815160209384036101000a60001901801990921691161790526040805192909401829003822063ffffffff881660e060020a0283526004830152925160248083019650939450929083900301905081600087803b15801561269b57600080fd5b505af11580156126af573d6000803e3d6000fd5b505050506040513d60208110156126c557600080fd5b5051156126d157600080fd5b600054604080517f63726f776473616c652e66696e616c697a656400000000000000000000000000602080830191909152600160a060020a03868116606060020a02603384015283518084036027018152604790930193849052825194169363abfdcced93918291908401908083835b602083106127605780518252601f199092019160209182019101612741565b5181516020939093036101000a60001901801990911692169190911790526040805191909301819003812063ffffffff871660e060020a028252600482015260016024820152915160448084019550600094509092839003019050818387803b1580156127cc57600080fd5b505af11580156127e0573d6000803e3d6000fd5b5050600054604080517f63726f776473616c652e676f616c000000000000000000000000000000000000602080830191909152600160a060020a03888116606060020a02602e8401528351808403602201815260429093019384905282519416955063e2b202bf9450909282918401908083835b602083106128735780518252601f199092019160209182019101612854565b5181516020939093036101000a60001901801990911692169190911790526040805191909301819003812063ffffffff871660e060020a0282526004820152915160248084019550600094509092839003019050818387803b1580156128d857600080fd5b505af11580156128ec573d6000803e3d6000fd5b5050600054604080517f61737365742e6d616e6167657246656500000000000000000000000000000000602080830191909152600160a060020a03888116606060020a0260308401528351808403602401815260449093019384905282519416955063e2b202bf9450909282918401908083835b6020831061297f5780518252601f199092019160209182019101612960565b5181516020939093036101000a60001901801990911692169190911790526040805191909301819003812063ffffffff871660e060020a0282526004820152915160248084019550600094509092839003019050818387803b1580156129e457600080fd5b505af11580156129f8573d6000803e3d6000fd5b5050600054604080517f63726f776473616c652e73746172740000000000000000000000000000000000602080830191909152600160a060020a03888116606060020a02602f8401528351808403602301815260439093019384905282519416955063e2b202bf9450909282918401908083835b60208310612a8b5780518252601f199092019160209182019101612a6c565b5181516020939093036101000a60001901801990911692169190911790526040805191909301819003812063ffffffff871660e060020a0282526004820152915160248084019550600094509092839003019050818387803b158015612af057600080fd5b505af1158015612b04573d6000803e3d6000fd5b50600195945050505050565b60008054604080517f7061757365640000000000000000000000000000000000000000000000000000602080830191909152606060020a300260268301528251601a818403018152603a90920192839052815185948594859485948594600160a060020a0390941693633b7bfda093918291908401908083835b60208310612ba95780518252601f199092019160209182019101612b8a565b51815160209384036101000a60001901801990921691161790526040805192909401829003822063ffffffff881660e060020a0283526004830152925160248083019650939450929083900301905081600087803b158015612c0a57600080fd5b505af1158015612c1e573d6000803e3d6000fd5b505050506040513d6020811015612c3457600080fd5b505115612c4057600080fd5b600054604080517f63726f776473616c652e66756e64696e67546f6b656e00000000000000000000602080830191909152600160a060020a038c8116606060020a0260368401528351808403602a018152604a9093019384905282519416936304f49a3a93918291908401908083835b60208310612ccf5780518252601f199092019160209182019101612cb0565b51815160209384036101000a60001901801990921691161790526040805192909401829003822063ffffffff881660e060020a0283526004830152925160248083019650939450929083900301905081600087803b158015612d3057600080fd5b505af1158015612d44573d6000803e3d6000fd5b505050506040513d6020811015612d5a57600080fd5b5051600054604080517f61737365742e6f70657261746f72000000000000000000000000000000000000602080830191909152600160a060020a038d8116606060020a02602e840152835180840360220181526042909301938490528251959a50909316936304f49a3a939192918291908401908083835b60208310612df15780518252601f199092019160209182019101612dd2565b51815160209384036101000a60001901801990921691161790526040805192909401829003822063ffffffff881660e060020a0283526004830152925160248083019650939450929083900301905081600087803b158015612e5257600080fd5b505af1158015612e66573d6000803e3d6000fd5b505050506040513d6020811015612e7c57600080fd5b5051600054604080517f706c6174666f726d2e77616c6c657400000000000000000000000000000000006020828101919091528251808303600f018152602f909201928390528151949850600160a060020a03909316936304f49a3a939192918291908401908083835b60208310612f055780518252601f199092019160209182019101612ee6565b51815160209384036101000a60001901801990921691161790526040805192909401829003822063ffffffff881660e060020a0283526004830152925160248083019650939450929083900301905081600087803b158015612f6657600080fd5b505af1158015612f7a573d6000803e3d6000fd5b505050506040513d6020811015612f9057600080fd5b50519250600160a060020a03841615801590612fb45750600160a060020a03831615155b1515612fbf57600080fd5b612fe16064612fd589606363ffffffff6131c616565b9063ffffffff6131fc16565b9150612ff3878363ffffffff61259916565b905084600160a060020a031663a9059cbb84836040518363ffffffff1660e060020a0281526004018083600160a060020a0316600160a060020a0316815260200182815260200192505050602060405180830381600087803b15801561305857600080fd5b505af115801561306c573d6000803e3d6000fd5b505050506040513d602081101561308257600080fd5b5050604080517fa9059cbb000000000000000000000000000000000000000000000000000000008152600160a060020a0386811660048301526024820185905291519187169163a9059cbb916044808201926020929091908290030181600087803b1580156130f057600080fd5b505af1158015613104573d6000803e3d6000fd5b505050506040513d602081101561311a57600080fd5b5050600154604080517f68b96270000000000000000000000000000000000000000000000000000000008152600160a060020a038b811660248301528781166044830152606482018b905260a06004830152600c60a48301527f4173736574207061796f7574000000000000000000000000000000000000000060c4830152915191909216916368b962709160e480830192600092919082900301818387803b15801561257357600080fd5b6000808315156131d957600091506131f5565b508282028284828115156131e957fe5b04146131f157fe5b8091505b5092915050565b6000818381151561320957fe5b049392505050560063726f776473616c652e646561646c696e650000000000000000000000000000a165627a7a7230582067bf909871ec692932ef039f39f9714f912fe23e4281dbe5c78900f10be657d50029",
  "source": "pragma solidity ^0.4.24;\n\nimport \"../math/SafeMath.sol\";\nimport \"../interfaces/ERC20.sol\";\nimport \"../interfaces/ERC20DividendInterface.sol\";\n// import \"../access/ERC20Burner.sol\";\n\ninterface Events {  function transaction(string _message, address _from, address _to, uint _amount, bytes32 _id)  external; }\ninterface DB {\n  function addressStorage(bytes32 _key) external view returns (address);\n  function uintStorage(bytes32 _key) external view returns (uint);\n  function deleteUint(bytes32 _key) external;\n  function setBool(bytes32 _key, bool _value) external;\n  function boolStorage(bytes32 _key) external view returns (bool);\n}\n\n// @title An asset crowdsale contract which accepts funding from ERC20 tokens.\n// @notice Begins a crowdfunding period for a digital asset, minting asset dividend tokens to investors when particular ERC20 token is received\n// @author Kyle Dewhurst, MyBit Foundation\n// @notice creates a dividend token to represent the newly created asset.\ncontract CrowdsaleERC20{\n  using SafeMath for uint256;\n\n  DB public database;\n  Events public events;\n  // ERC20Burner public burner;\n\n  // @notice Constructor: initializes database instance\n  // @param: The address for the platform database\n  constructor(address _database, address _events)\n  public{\n      database = DB(_database);\n      events = Events(_events);\n      // burner = ERC20Burner(database.addressStorage(keccak256(abi.encodePacked(\"contract\", \"ERC20Burner\"))));\n  }\n\n\n  // @notice Investors can send ERC20 tokens here to fund an asset, receiving an equivalent number of asset-tokens.\n  // @dev investor must approve this contract to transfer tokens\n  // @param (address) _assetAddress = The address of the asset tokens, investor wishes to purchase\n  // @param (uint) _amount = The amount to spend purchasing this asset\n  function buyAssetOrderERC20(address _assetAddress, address _investor, uint _amount)\n  external\n  validAsset(_assetAddress)\n  betweenDeadlines(_assetAddress)\n  notFinalized(_assetAddress)\n  // burnRequired\n  returns (bool) {\n    require(msg.sender == _investor || database.boolStorage(keccak256(abi.encodePacked(\"approval\", _investor, msg.sender, address(this), msg.sig))), \"User not approved\");\n    ERC20DividendInterface assetToken = ERC20DividendInterface(_assetAddress);\n    ERC20 fundingToken = ERC20(database.addressStorage(keccak256(abi.encodePacked(\"crowdsale.fundingToken\", _assetAddress))));\n    uint amountToRaise = database.uintStorage(keccak256(abi.encodePacked(\"crowdsale.goal\", _assetAddress)));\n    uint tokensRemaining = amountToRaise.sub(assetToken.totalSupply());\n    if (_amount >= tokensRemaining) {\n      require(fundingToken.transferFrom(_investor, address(this), tokensRemaining), \"Transfer failed\");    // transfer investors tokens into contract\n      require(assetToken.mint(database.addressStorage(keccak256(abi.encodePacked(\"contract\", \"AssetManagerFunds\"))), database.uintStorage(keccak256(abi.encodePacked(\"asset.managerFee\", _assetAddress)))), \"Manager minting failed\");\n      require(finalizeCrowdsale(_assetAddress), \"Crowdsale did not finalize\");\n      require(assetToken.mint(_investor, tokensRemaining), \"Investor minting failed\");   // Send remaining asset tokens to investor\n      require(assetToken.finishMinting(), \"Minting not finished\");\n      require(payoutERC20(_assetAddress, amountToRaise), \"Payout failed\");          // 1 token = 1 wei\n    }\n    else {\n      require(fundingToken.transferFrom(_investor, address(this), _amount), \"Transfer failed\");\n      require(assetToken.mint(_investor, _amount), \"Investor minting failed\");\n    }\n    events.transaction('Asset purchased', _investor, _assetAddress, _amount, '');\n    return true;\n  }\n\n\n  // @notice Contributors can retrieve their funds here if crowdsale has paased deadline\n  // @param (address) _assetAddress =  The address of the asset which didn't reach it's crowdfunding goals\n  function refund(address _assetAddress)\n  external\n  whenNotPaused\n  validAsset(_assetAddress)\n  afterDeadline(_assetAddress)\n  notFinalized(_assetAddress)\n  returns (bool) {\n    require(database.uintStorage(keccak256(abi.encodePacked(\"crowdsale.deadline\", _assetAddress))) != 0);\n    database.deleteUint(keccak256(abi.encodePacked(\"crowdsale.deadline\", _assetAddress)));\n    ERC20DividendInterface assetToken = ERC20DividendInterface(_assetAddress);\n    ERC20 fundingToken = ERC20(database.addressStorage(keccak256(abi.encodePacked(\"crowdsale.fundingToken\", _assetAddress))));\n    uint refundValue = assetToken.totalSupply(); //token=wei\n    fundingToken.approve(_assetAddress, refundValue);\n    assetToken.issueDividends(refundValue);\n    return true;\n  }\n\n  //------------------------------------------------------------------------------------------------------------------\n  //                                            Internal Functions\n  //------------------------------------------------------------------------------------------------------------------\n\n  // @notice This is called once funding has succeeded. Sends Ether to a distribution contract where operator/assetManager can withdraw\n  // @dev The contract manager needs to know  the address PlatformDistribution contract\n  function payoutERC20(address _assetAddress, uint _amount)\n  private\n  whenNotPaused\n  returns (bool) {\n    ERC20 fundingToken = ERC20(database.addressStorage(keccak256(abi.encodePacked(\"crowdsale.fundingToken\", _assetAddress))));\n    address operator = database.addressStorage(keccak256(abi.encodePacked(\"asset.operator\", _assetAddress)));\n    address platformWallet = database.addressStorage(keccak256(abi.encodePacked(\"platform.wallet\")));\n    require(operator != address(0) && platformWallet != address(0));\n    uint operatorPortion = _amount.mul(99).div(100);\n    uint platformPortion = _amount.sub(operatorPortion);\n    fundingToken.transfer(platformWallet, platformPortion);\n    fundingToken.transfer(operator, operatorPortion);\n    events.transaction('Asset payout', _assetAddress, operator, _amount, '');\n    //emit LogAssetPayout(_assetAddress, operator, _amount);\n    return true;\n  }\n\n  // @notice platform owners can recover tokens here\n  function recoverTokens(address _erc20Token)\n  onlyOwner\n  external {\n    ERC20 thisToken = ERC20(_erc20Token);\n    uint contractBalance = thisToken.balanceOf(address(this));\n    thisToken.transfer(msg.sender, contractBalance);\n  }\n\n  // @notice platform owners can destroy contract here\n  function destroy()\n  onlyOwner\n  external {\n    events.transaction('CrowdsaleERC20 destroyed', address(this), msg.sender, address(this).balance, '');\n    //emit LogDestruction(address(this).balance, msg.sender);\n    selfdestruct(msg.sender);\n  }\n\n\n  //------------------------------------------------------------------------------------------------------------------\n  //                                            Internal functions\n  //------------------------------------------------------------------------------------------------------------------\n\n  // @notice internal function for freeing up storage after crowdsale finishes\n  // @param the ID of this asset.\n  function finalizeCrowdsale(address _assetAddress)\n  internal\n  whenNotPaused\n  returns (bool) {\n      database.setBool(keccak256(abi.encodePacked(\"crowdsale.finalized\", _assetAddress)), true);\n      database.deleteUint(keccak256(abi.encodePacked(\"crowdsale.goal\", _assetAddress)));\n      database.deleteUint(keccak256(abi.encodePacked(\"asset.managerFee\", _assetAddress)));\n      database.deleteUint(keccak256(abi.encodePacked(\"crowdsale.start\", _assetAddress)));\n      return true;\n  }\n\n  //------------------------------------------------------------------------------------------------------------------\n  //                                            Modifiers\n  //------------------------------------------------------------------------------------------------------------------\n\n  // @notice Sender must be a registered owner\n  modifier onlyOwner {\n    require(database.boolStorage(keccak256(abi.encodePacked(\"owner\", msg.sender))), \"Not owner\");\n    _;\n  }\n\n  // @notice function won't run if owners have paused this contract\n  modifier whenNotPaused {\n    require(!database.boolStorage(keccak256(abi.encodePacked(\"paused\", address(this)))));\n    _;\n  }\n\n  // // @notice reverts if investor hasn't approved burner to burn platform token\n  // modifier burnRequired {\n  //   require(burner.burn(msg.sender, database.uintStorage(keccak256(abi.encodePacked(msg.sig, address(this))))));\n  //   _;\n  // }\n\n  // @notice reverts if the asset does not have a token address set in the database\n  modifier validAsset(address _assetAddress) {\n    require(database.addressStorage(keccak256(abi.encodePacked(\"asset.manager\", _assetAddress))) != address(0), \"Invalid asset\");\n    _;\n  }\n\n  // @notice reverts if the funding deadline has already past\n  modifier betweenDeadlines(address _assetAddress) {\n    require(now <= database.uintStorage(keccak256(abi.encodePacked(\"crowdsale.deadline\", _assetAddress))), \"Past deadline\");\n    require(now >= database.uintStorage(keccak256(abi.encodePacked(\"crowdsale.start\", _assetAddress))), \"Before start time\");\n    _;\n  }\n\n  // @notice reverts if the funding deadline has already past\n  modifier afterDeadline(address _assetAddress) {\n    require(now > database.uintStorage(keccak256(abi.encodePacked(\"crowdsale.deadline\", _assetAddress))), \"Before deadline\");\n    _;\n  }\n\n  // @notice returns true if crowdsale is not finshed\n  modifier notFinalized(address _assetAddress) {\n    require( !database.boolStorage(keccak256(abi.encodePacked(\"crowdsale.finalized\", _assetAddress))), \"Crowdsale finalized\");\n    _;\n  }\n}\n",
  "sourcePath": "/home/peter/Documents/Work/MyBit/MyBit-Network.tech/contracts/crowdsale/CrowdsaleERC20.sol",
  "compiler": {
    "name": "solc",
    "version": "0.4.24+commit.e67f0147.Emscripten.clang"
  },
  "schemaVersion": "2.0.1",
  "updatedAt": "2019-01-15T20:50:39.119Z"
}