{
  "contractName": "CrowdsaleERC20",
  "abi": [
    {
      "inputs": [
        {
          "name": "_database",
          "type": "address"
        },
        {
          "name": "_events",
          "type": "address"
        },
        {
          "name": "_kyber",
          "type": "address"
        }
      ],
      "payable": false,
      "stateMutability": "nonpayable",
      "type": "constructor"
    },
    {
      "anonymous": false,
      "inputs": [
        {
          "indexed": false,
          "name": "token",
          "type": "address"
        },
        {
          "indexed": false,
          "name": "change",
          "type": "uint256"
        },
        {
          "indexed": false,
          "name": "investment",
          "type": "uint256"
        }
      ],
      "name": "Convert",
      "type": "event"
    },
    {
      "constant": false,
      "inputs": [
        {
          "name": "_assetAddress",
          "type": "address"
        },
        {
          "name": "_investor",
          "type": "address"
        },
        {
          "name": "_amount",
          "type": "uint256"
        },
        {
          "name": "_paymentToken",
          "type": "address"
        }
      ],
      "name": "buyAssetOrderERC20",
      "outputs": [
        {
          "name": "",
          "type": "bool"
        }
      ],
      "payable": true,
      "stateMutability": "payable",
      "type": "function"
    },
    {
      "constant": false,
      "inputs": [
        {
          "name": "_assetAddress",
          "type": "address"
        }
      ],
      "name": "payoutERC20",
      "outputs": [
        {
          "name": "",
          "type": "bool"
        }
      ],
      "payable": false,
      "stateMutability": "nonpayable",
      "type": "function"
    },
    {
      "constant": false,
      "inputs": [
        {
          "name": "_assetAddress",
          "type": "address"
        }
      ],
      "name": "refund",
      "outputs": [
        {
          "name": "",
          "type": "bool"
        }
      ],
      "payable": false,
      "stateMutability": "nonpayable",
      "type": "function"
    },
    {
      "constant": false,
      "inputs": [
        {
          "name": "_erc20Token",
          "type": "address"
        }
      ],
      "name": "recoverTokens",
      "outputs": [],
      "payable": false,
      "stateMutability": "nonpayable",
      "type": "function"
    },
    {
      "constant": false,
      "inputs": [],
      "name": "destroy",
      "outputs": [],
      "payable": false,
      "stateMutability": "nonpayable",
      "type": "function"
    }
  ],
  "bytecode": "0x608060405234801561001057600080fd5b506040516060806142aa83398101604090815281516020830151919092015160008054600160a060020a0319908116600160a060020a0395861617825560018054821694861694909417909355600280549093169390911692909217905561422c90819061007e90396000f3006080604052600436106100535763ffffffff60e060020a6000350416630329cf4a811461005857806316114acd1461008d57806383197ef0146100b0578063dbfaee12146100c5578063fa89401a146100e9575b600080fd5b34801561006457600080fd5b50610079600160a060020a036004351661010a565b604080519115158252519081900360200190f35b34801561009957600080fd5b506100ae600160a060020a0360043516611531565b005b3480156100bc57600080fd5b506100ae6117bb565b610079600160a060020a0360043581169060243581169060443590606435166119ef565b3480156100f557600080fd5b50610079600160a060020a0360043516612e22565b60008054604080517f7061757365640000000000000000000000000000000000000000000000000000602080830191909152606060020a300260268301528251601a818403018152603a909201928390528151859485948594859485948594600160a060020a031693633b7bfda09392909182918401908083835b602083106101a45780518252601f199092019160209182019101610185565b51815160209384036101000a60001901801990921691161790526040805192909401829003822063ffffffff881660e060020a0283526004830152925160248083019650939450929083900301905081600087803b15801561020557600080fd5b505af1158015610219573d6000803e3d6000fd5b505050506040513d602081101561022f57600080fd5b50511561023b57600080fd5b600054604080516000805160206141a1833981519152602080830191909152600160a060020a038c8116606060020a0260338401528351808403602701815260479093019384905282518d959190911693633b7bfda09392909182918401908083835b602083106102bd5780518252601f19909201916020918201910161029e565b51815160209384036101000a60001901801990921691161790526040805192909401829003822063ffffffff881660e060020a0283526004830152925160248083019650939450929083900301905081600087803b15801561031e57600080fd5b505af1158015610332573d6000803e3d6000fd5b505050506040513d602081101561034857600080fd5b505115156103a0576040805160e560020a62461bcd02815260206004820152601760248201527f43726f776473616c65206e6f742066696e616c697a6564000000000000000000604482015290519081900360640190fd5b600054604080517f63726f776473616c652e70616964000000000000000000000000000000000000602080830191909152600160a060020a038d8116606060020a02602e8401528351808403602201815260429093019384905282518e959190911693633b7bfda09392909182918401908083835b602083106104345780518252601f199092019160209182019101610415565b51815160209384036101000a60001901801990921691161790526040805192909401829003822063ffffffff881660e060020a0283526004830152925160248083019650939450929083900301905081600087803b15801561049557600080fd5b505af11580156104a9573d6000803e3d6000fd5b505050506040513d60208110156104bf57600080fd5b505115610516576040805160e560020a62461bcd02815260206004820152601660248201527f43726f776473616c65206861732070616964206f757400000000000000000000604482015290519081900360640190fd5b600054604080517f63726f776473616c652e70616964000000000000000000000000000000000000602080830191909152600160a060020a038e8116606060020a02602e84015283518084036022018152604290930193849052825194169363abfdcced93918291908401908083835b602083106105a55780518252601f199092019160209182019101610586565b5181516020939093036101000a60001901801990911692169190911790526040805191909301819003812063ffffffff871660e060020a028252600482015260016024820152915160448084019550600094509092839003019050818387803b15801561061157600080fd5b505af1158015610625573d6000803e3d6000fd5b5050505089975087600160a060020a0316634ece90a86040518163ffffffff1660e060020a028152600401602060405180830381600087803b15801561066a57600080fd5b505af115801561067e573d6000803e3d6000fd5b505050506040513d602081101561069457600080fd5b5051600054604080517f636f6e74726163740000000000000000000000000000000000000000000000006020828101919091527f41737365744d616e6167657246756e64730000000000000000000000000000006028830152825160198184030181526039909201928390528151949b50600160a060020a03808e16956340c10f1995909116936304f49a3a9392909182918401908083835b6020831061074c5780518252601f19909201916020918201910161072d565b51815160209384036101000a60001901801990921691161790526040805192909401829003822063ffffffff881660e060020a0283526004830152925160248083019650939450929083900301905081600087803b1580156107ad57600080fd5b505af11580156107c1573d6000803e3d6000fd5b505050506040513d60208110156107d757600080fd5b81019080805190602001909291905050506000809054906101000a9004600160a060020a0316600160a060020a031663a855d4ce8e60405160200180807f61737365742e6d616e61676572546f6b656e730000000000000000000000000081525060130182600160a060020a0316600160a060020a0316606060020a0281526014019150506040516020818303038152906040526040518082805190602001908083835b6020831061089a5780518252601f19909201916020918201910161087b565b51815160209384036101000a60001901801990921691161790526040805192909401829003822063ffffffff881660e060020a0283526004830152925160248083019650939450929083900301905081600087803b1580156108fb57600080fd5b505af115801561090f573d6000803e3d6000fd5b505050506040513d602081101561092557600080fd5b50516040805160e060020a63ffffffff8616028152600160a060020a03909316600484015260248301919091525160448083019260209291908290030181600087803b15801561097457600080fd5b505af1158015610988573d6000803e3d6000fd5b505050506040513d602081101561099e57600080fd5b505115156109f6576040805160e560020a62461bcd02815260206004820152601660248201527f4d616e61676572206d696e74696e67206661696c656400000000000000000000604482015290519081900360640190fd5b600054604080517f706c6174666f726d2e77616c6c657400000000000000000000000000000000006020808301919091528251808303600f018152602f909201928390528151600160a060020a03808e16956340c10f19959116936304f49a3a93909282918401908083835b60208310610a815780518252601f199092019160209182019101610a62565b51815160209384036101000a60001901801990921691161790526040805192909401829003822063ffffffff881660e060020a0283526004830152925160248083019650939450929083900301905081600087803b158015610ae257600080fd5b505af1158015610af6573d6000803e3d6000fd5b505050506040513d6020811015610b0c57600080fd5b81019080805190602001909291905050506000809054906101000a9004600160a060020a0316600160a060020a031663a855d4ce8e60405160200180807f61737365742e706c6174666f726d546f6b656e7300000000000000000000000081525060140182600160a060020a0316600160a060020a0316606060020a0281526014019150506040516020818303038152906040526040518082805190602001908083835b60208310610bcf5780518252601f199092019160209182019101610bb0565b51815160209384036101000a60001901801990921691161790526040805192909401829003822063ffffffff881660e060020a0283526004830152925160248083019650939450929083900301905081600087803b158015610c3057600080fd5b505af1158015610c44573d6000803e3d6000fd5b505050506040513d6020811015610c5a57600080fd5b50516040805160e060020a63ffffffff8616028152600160a060020a03909316600484015260248301919091525160448083019260209291908290030181600087803b158015610ca957600080fd5b505af1158015610cbd573d6000803e3d6000fd5b505050506040513d6020811015610cd357600080fd5b50511515610d2b576040805160e560020a62461bcd02815260206004820152601760248201527f506c6174666f726d206d696e74696e67206661696c6564000000000000000000604482015290519081900360640190fd5b87600160a060020a0316637d64bcb46040518163ffffffff1660e060020a028152600401602060405180830381600087803b158015610d6957600080fd5b505af1158015610d7d573d6000803e3d6000fd5b505050506040513d6020811015610d9357600080fd5b50511515610da057600080fd5b600054604080517f61737365742e6f70657261746f72000000000000000000000000000000000000602080830191909152600160a060020a038e8116606060020a02602e8401528351808403602201815260429093019384905282519416936304f49a3a93918291908401908083835b60208310610e2f5780518252601f199092019160209182019101610e10565b51815160209384036101000a60001901801990921691161790526040805192909401829003822063ffffffff881660e060020a0283526004830152925160248083019650939450929083900301905081600087803b158015610e9057600080fd5b505af1158015610ea4573d6000803e3d6000fd5b505050506040513d6020811015610eba57600080fd5b5051600054604080517f706c6174666f726d2e77616c6c657400000000000000000000000000000000006020828101919091528251808303600f018152602f909201928390528151949a50600160a060020a03909316936304f49a3a939192918291908401908083835b60208310610f435780518252601f199092019160209182019101610f24565b51815160209384036101000a60001901801990921691161790526040805192909401829003822063ffffffff881660e060020a0283526004830152925160248083019650939450929083900301905081600087803b158015610fa457600080fd5b505af1158015610fb8573d6000803e3d6000fd5b505050506040513d6020811015610fce57600080fd5b50519450600160a060020a03861615801590610ff25750600160a060020a03851615155b1515610ffd57600080fd5b600054604080517f63726f776473616c652e676f616c000000000000000000000000000000000000602080830191909152600160a060020a038e8116606060020a02602e84015283518084036022018152604290930193849052825194169363a855d4ce93918291908401908083835b6020831061108c5780518252601f19909201916020918201910161106d565b51815160209384036101000a60001901801990921691161790526040805192909401829003822063ffffffff881660e060020a0283526004830152925160248083019650939450929083900301905081600087803b1580156110ed57600080fd5b505af1158015611101573d6000803e3d6000fd5b505050506040513d602081101561111757600080fd5b5051600054604080516000805160206141c18339815191526020828101919091528251808303600c018152602c90920192839052815194985061122a94600160a060020a039094169363a855d4ce93918291908401908083835b602083106111905780518252601f199092019160209182019101611171565b51815160209384036101000a60001901801990921691161790526040805192909401829003822063ffffffff881660e060020a0283526004830152925160248083019650939450929083900301905081600087803b1580156111f157600080fd5b505af1158015611205573d6000803e3d6000fd5b505050506040513d602081101561121b57600080fd5b5051859063ffffffff61382016565b925086600160a060020a031663a9059cbb86856040518363ffffffff1660e060020a0281526004018083600160a060020a0316600160a060020a0316815260200182815260200192505050602060405180830381600087803b15801561128f57600080fd5b505af11580156112a3573d6000803e3d6000fd5b505050506040513d60208110156112b957600080fd5b5050604080517fa9059cbb000000000000000000000000000000000000000000000000000000008152600160a060020a0388811660048301526024820187905291519189169163a9059cbb916044808201926020929091908290030181600087803b15801561132757600080fd5b505af115801561133b573d6000803e3d6000fd5b505050506040513d602081101561135157600080fd5b5050600054604080517f63726f776473616c652e73746172740000000000000000000000000000000000602080830191909152600160a060020a038e8116606060020a02602f84015283518084036023018152604390930193849052825194169363e2b202bf93918291908401908083835b602083106113e25780518252601f1990920191602091820191016113c3565b5181516020939093036101000a60001901801990911692169190911790526040805191909301819003812063ffffffff871660e060020a0282526004820152915160248084019550600094509092839003019050818387803b15801561144757600080fd5b505af115801561145b573d6000803e3d6000fd5b5050600154604080517f68b96270000000000000000000000000000000000000000000000000000000008152600160a060020a038f811660248301528b81166044830152606482018a905260a06004830152600c60a48301527f4173736574207061796f7574000000000000000000000000000000000000000060c483015291519190921693506368b96270925060e480830192600092919082900301818387803b15801561150957600080fd5b505af115801561151d573d6000803e3d6000fd5b5060019d9c50505050505050505050505050565b60008054604080517f6f776e6572000000000000000000000000000000000000000000000000000000602080830191909152606060020a330260258301528251601981840301815260399092019283905281518594600160a060020a031693633b7bfda09392909182918401908083835b602083106115c15780518252601f1990920191602091820191016115a2565b51815160209384036101000a60001901801990921691161790526040805192909401829003822063ffffffff881660e060020a0283526004830152925160248083019650939450929083900301905081600087803b15801561162257600080fd5b505af1158015611636573d6000803e3d6000fd5b505050506040513d602081101561164c57600080fd5b505115156116a4576040805160e560020a62461bcd02815260206004820152600960248201527f4e6f74206f776e65720000000000000000000000000000000000000000000000604482015290519081900360640190fd5b6040805160e060020a6370a082310281523060048201529051849350600160a060020a038416916370a082319160248083019260209291908290030181600087803b1580156116f257600080fd5b505af1158015611706573d6000803e3d6000fd5b505050506040513d602081101561171c57600080fd5b5051604080517fa9059cbb000000000000000000000000000000000000000000000000000000008152336004820152602481018390529051919250600160a060020a0384169163a9059cbb916044808201926020929091908290030181600087803b15801561178a57600080fd5b505af115801561179e573d6000803e3d6000fd5b505050506040513d60208110156117b457600080fd5b5050505050565b600054604080517f6f776e6572000000000000000000000000000000000000000000000000000000602080830191909152606060020a33026025830152825160198184030181526039909201928390528151600160a060020a0390941693633b7bfda093918291908401908083835b602083106118495780518252601f19909201916020918201910161182a565b51815160209384036101000a60001901801990921691161790526040805192909401829003822063ffffffff881660e060020a0283526004830152925160248083019650939450929083900301905081600087803b1580156118aa57600080fd5b505af11580156118be573d6000803e3d6000fd5b505050506040513d60208110156118d457600080fd5b5051151561192c576040805160e560020a62461bcd02815260206004820152600960248201527f4e6f74206f776e65720000000000000000000000000000000000000000000000604482015290519081900360640190fd5b600154604080517f68b96270000000000000000000000000000000000000000000000000000000008152306024820181905233604483015231606482015260a06004820152601860a48201527f43726f776473616c6545524332302064657374726f796564000000000000000060c48201529051600160a060020a03909216916368b962709160e48082019260009290919082900301818387803b1580156119d357600080fd5b505af11580156119e7573d6000803e3d6000fd5b503392505050ff5b600080600080600080896000600160a060020a03166000809054906101000a9004600160a060020a0316600160a060020a03166304f49a3a8360405160200180807f61737365742e6d616e6167657200000000000000000000000000000000000000815250600d0182600160a060020a0316600160a060020a0316606060020a0281526014019150506040516020818303038152906040526040518082805190602001908083835b60208310611ab65780518252601f199092019160209182019101611a97565b51815160209384036101000a60001901801990921691161790526040805192909401829003822063ffffffff881660e060020a0283526004830152925160248083019650939450929083900301905081600087803b158015611b1757600080fd5b505af1158015611b2b573d6000803e3d6000fd5b505050506040513d6020811015611b4157600080fd5b5051600160a060020a03161415611ba2576040805160e560020a62461bcd02815260206004820152600d60248201527f496e76616c696420617373657400000000000000000000000000000000000000604482015290519081900360640190fd5b8a6000809054906101000a9004600160a060020a0316600160a060020a031663a855d4ce8260405160200180806000805160206141e183398151915281525060120182600160a060020a0316600160a060020a0316606060020a0281526014019150506040516020818303038152906040526040518082805190602001908083835b60208310611c435780518252601f199092019160209182019101611c24565b51815160209384036101000a60001901801990921691161790526040805192909401829003822063ffffffff881660e060020a0283526004830152925160248083019650939450929083900301905081600087803b158015611ca457600080fd5b505af1158015611cb8573d6000803e3d6000fd5b505050506040513d6020811015611cce57600080fd5b5051421115611d27576040805160e560020a62461bcd02815260206004820152600d60248201527f5061737420646561646c696e6500000000000000000000000000000000000000604482015290519081900360640190fd5b600054604080517f63726f776473616c652e73746172740000000000000000000000000000000000602080830191909152600160a060020a03858116606060020a02602f84015283518084036023018152604390930193849052825194169363a855d4ce93918291908401908083835b60208310611db65780518252601f199092019160209182019101611d97565b51815160209384036101000a60001901801990921691161790526040805192909401829003822063ffffffff881660e060020a0283526004830152925160248083019650939450929083900301905081600087803b158015611e1757600080fd5b505af1158015611e2b573d6000803e3d6000fd5b505050506040513d6020811015611e4157600080fd5b5051421015611e9a576040805160e560020a62461bcd02815260206004820152601160248201527f4265666f72652073746172742074696d65000000000000000000000000000000604482015290519081900360640190fd5b8b6000809054906101000a9004600160a060020a0316600160a060020a0316633b7bfda08260405160200180806000805160206141a183398151915281525060130182600160a060020a0316600160a060020a0316606060020a0281526014019150506040516020818303038152906040526040518082805190602001908083835b60208310611f3b5780518252601f199092019160209182019101611f1c565b51815160209384036101000a60001901801990921691161790526040805192909401829003822063ffffffff881660e060020a0283526004830152925160248083019650939450929083900301905081600087803b158015611f9c57600080fd5b505af1158015611fb0573d6000803e3d6000fd5b505050506040513d6020811015611fc657600080fd5b50511561201d576040805160e560020a62461bcd02815260206004820152601360248201527f43726f776473616c652066696e616c697a656400000000000000000000000000604482015290519081900360640190fd5b600160a060020a038a1673eeeeeeeeeeeeeeeeeeeeeeeeeeeeeeeeeeeeeeee141561209e57348b14612099576040805160e560020a62461bcd02815260206004820152601f60248201527f4d73672e76616c756520646f6573206e6f74206d6174636820616d6f756e7400604482015290519081900360640190fd5b6120f4565b34156120f4576040805160e560020a62461bcd02815260206004820152601b60248201527f4d73672e76616c75652073686f756c6420657175616c207a65726f0000000000604482015290519081900360640190fd5b33600160a060020a038d1614806122f057506000809054906101000a9004600160a060020a0316600160a060020a0316633b7bfda08d33306000357fffffffff000000000000000000000000000000000000000000000000000000001660405160200180807f617070726f76616c00000000000000000000000000000000000000000000000081525060080185600160a060020a0316600160a060020a0316606060020a02815260140184600160a060020a0316600160a060020a0316606060020a02815260140183600160a060020a0316600160a060020a0316606060020a028152601401827bffffffffffffffffffffffffffffffffffffffffffffffffffffffff19167bffffffffffffffffffffffffffffffffffffffffffffffffffffffff191681526004019450505050506040516020818303038152906040526040518082805190602001908083835b602083106122625780518252601f199092019160209182019101612243565b51815160209384036101000a60001901801990921691161790526040805192909401829003822063ffffffff881660e060020a0283526004830152925160248083019650939450929083900301905081600087803b1580156122c357600080fd5b505af11580156122d7573d6000803e3d6000fd5b505050506040513d60208110156122ed57600080fd5b50515b1515612346576040805160e560020a62461bcd02815260206004820152601160248201527f55736572206e6f7420617070726f766564000000000000000000000000000000604482015290519081900360640190fd5b8c975087600160a060020a0316634ece90a86040518163ffffffff1660e060020a028152600401602060405180830381600087803b15801561238757600080fd5b505af115801561239b573d6000803e3d6000fd5b505050506040513d60208110156123b157600080fd5b810190808051906020019092919050505096506000809054906101000a9004600160a060020a0316600160a060020a031663a855d4ce8e60405160200180807f63726f776473616c652e72656d61696e696e670000000000000000000000000081525060130182600160a060020a0316600160a060020a0316606060020a0281526014019150506040516020818303038152906040526040518082805190602001908083835b602083106124765780518252601f199092019160209182019101612457565b51815160209384036101000a60001901801990921691161790526040805192909401829003822063ffffffff881660e060020a0283526004830152925160248083019650939450929083900301905081600087803b1580156124d757600080fd5b505af11580156124eb573d6000803e3d6000fd5b505050506040513d602081101561250157600080fd5b50519550600160a060020a038a8116908816141561252c576125258c8c888a61383d565b945061253c565b6125398c8c898d8a61399d565b94505b6000851161254957600080fd5b858510156128bf57600054604080516000805160206141c18339815191526020808301919091528251808303600c018152602c9092019283905281516126819461266494600160a060020a039091169363a855d4ce93909282918401908083835b602083106125c95780518252601f1990920191602091820191016125aa565b51815160209384036101000a60001901801990921691161790526040805192909401829003822063ffffffff881660e060020a0283526004830152925160248083019650939450929083900301905081600087803b15801561262a57600080fd5b505af115801561263e573d6000803e3d6000fd5b505050506040513d602081101561265457600080fd5b505160649063ffffffff61413416565b61267587606463ffffffff61414e16565b9063ffffffff61417916565b93506000809054906101000a9004600160a060020a0316600160a060020a031663e2a4853a8e60405160200180807f63726f776473616c652e72656d61696e696e670000000000000000000000000081525060130182600160a060020a0316600160a060020a0316606060020a0281526014019150506040516020818303038152906040526040518082805190602001908083835b602083106127355780518252601f199092019160209182019101612716565b6001836020036101000a0380198251168184511680821785525050505050509050019150506040518091039020612775888a61418e90919063ffffffff16565b6040518363ffffffff1660e060020a02815260040180836000191660001916815260200182815260200192505050600060405180830381600087803b1580156127bd57600080fd5b505af11580156127d1573d6000803e3d6000fd5b5050505087600160a060020a03166340c10f198d866040518363ffffffff1660e060020a0281526004018083600160a060020a0316600160a060020a0316815260200182815260200192505050602060405180830381600087803b15801561283857600080fd5b505af115801561284c573d6000803e3d6000fd5b505050506040513d602081101561286257600080fd5b505115156128ba576040805160e560020a62461bcd02815260206004820152601760248201527f496e766573746f72206d696e74696e67206661696c6564000000000000000000604482015290519081900360640190fd5b612d28565b600054604080516000805160206141c18339815191526020808301919091528251808303600c018152602c9092019283905281516129479461293694600160a060020a039091169363a855d4ce9390928291840190808383602083106125c95780518252601f1990920191602091820191016125aa565b61267588606463ffffffff61414e16565b93506000809054906101000a9004600160a060020a0316600160a060020a031663abfdcced8e60405160200180806000805160206141a183398151915281525060130182600160a060020a0316600160a060020a0316606060020a0281526014019150506040516020818303038152906040526040518082805190602001908083835b602083106129e95780518252601f1990920191602091820191016129ca565b5181516020939093036101000a60001901801990911692169190911790526040805191909301819003812063ffffffff871660e060020a028252600482015260016024820152915160448084019550600094509092839003019050818387803b158015612a5557600080fd5b505af1158015612a69573d6000803e3d6000fd5b505050506000809054906101000a9004600160a060020a0316600160a060020a031663e2b202bf8e60405160200180807f63726f776473616c652e72656d61696e696e670000000000000000000000000081525060130182600160a060020a0316600160a060020a0316606060020a0281526014019150506040516020818303038152906040526040518082805190602001908083835b60208310612b1f5780518252601f199092019160209182019101612b00565b5181516020939093036101000a60001901801990911692169190911790526040805191909301819003812063ffffffff871660e060020a0282526004820152915160248084019550600094509092839003019050818387803b158015612b8457600080fd5b505af1158015612b98573d6000803e3d6000fd5b5050505087600160a060020a03166340c10f198d866040518363ffffffff1660e060020a0281526004018083600160a060020a0316600160a060020a0316815260200182815260200192505050602060405180830381600087803b158015612bff57600080fd5b505af1158015612c13573d6000803e3d6000fd5b505050506040513d6020811015612c2957600080fd5b50511515612c81576040805160e560020a62461bcd02815260206004820152601760248201527f496e766573746f72206d696e74696e67206661696c6564000000000000000000604482015290519081900360640190fd5b85851115612d2857600160a060020a03871663a9059cbb8d612ca9888a63ffffffff61418e16565b6040518363ffffffff1660e060020a0281526004018083600160a060020a0316600160a060020a0316815260200182815260200192505050602060405180830381600087803b158015612cfb57600080fd5b505af1158015612d0f573d6000803e3d6000fd5b505050506040513d6020811015612d2557600080fd5b50505b600160009054906101000a9004600160a060020a0316600160a060020a03166368b962708d8f876040518463ffffffff1660e060020a028152600401808060200185600160a060020a0316600160a060020a0316815260200184600160a060020a0316600160a060020a031681526020018381526020016020018281038252600f8152602001807f4173736574207075726368617365640000000000000000000000000000000000815250602001945050505050600060405180830381600087803b158015612df657600080fd5b505af1158015612e0a573d6000803e3d6000fd5b50505050600198505050505050505050949350505050565b60008054604080517f7061757365640000000000000000000000000000000000000000000000000000602080830191909152606060020a300260268301528251601a818403018152603a909201928390528151859485948594600160a060020a0390921693633b7bfda09382918401908083835b60208310612eb55780518252601f199092019160209182019101612e96565b51815160209384036101000a60001901801990921691161790526040805192909401829003822063ffffffff881660e060020a0283526004830152925160248083019650939450929083900301905081600087803b158015612f1657600080fd5b505af1158015612f2a573d6000803e3d6000fd5b505050506040513d6020811015612f4057600080fd5b505115612f4c57600080fd5b60008054604080517f61737365742e6d616e6167657200000000000000000000000000000000000000602080830191909152600160a060020a038a8116606060020a02602d8401528351808403602101815260419093019384905282518b969591909116936304f49a3a9392909182918401908083835b60208310612fe25780518252601f199092019160209182019101612fc3565b51815160209384036101000a60001901801990921691161790526040805192909401829003822063ffffffff881660e060020a0283526004830152925160248083019650939450929083900301905081600087803b15801561304357600080fd5b505af1158015613057573d6000803e3d6000fd5b505050506040513d602081101561306d57600080fd5b5051600160a060020a031614156130ce576040805160e560020a62461bcd02815260206004820152600d60248201527f496e76616c696420617373657400000000000000000000000000000000000000604482015290519081900360640190fd5b600054604080516000805160206141e1833981519152602080830191909152600160a060020a038a8116606060020a0260328401528351808403602601815260469093019384905282518b95919091169363a855d4ce9392909182918401908083835b602083106131505780518252601f199092019160209182019101613131565b51815160209384036101000a60001901801990921691161790526040805192909401829003822063ffffffff881660e060020a0283526004830152925160248083019650939450929083900301905081600087803b1580156131b157600080fd5b505af11580156131c5573d6000803e3d6000fd5b505050506040513d60208110156131db57600080fd5b50514211613233576040805160e560020a62461bcd02815260206004820152600f60248201527f4265666f726520646561646c696e650000000000000000000000000000000000604482015290519081900360640190fd5b600054604080516000805160206141a1833981519152602080830191909152600160a060020a038b8116606060020a0260338401528351808403602701815260479093019384905282518c959190911693633b7bfda09392909182918401908083835b602083106132b55780518252601f199092019160209182019101613296565b51815160209384036101000a60001901801990921691161790526040805192909401829003822063ffffffff881660e060020a0283526004830152925160248083019650939450929083900301905081600087803b15801561331657600080fd5b505af115801561332a573d6000803e3d6000fd5b505050506040513d602081101561334057600080fd5b505115613397576040805160e560020a62461bcd02815260206004820152601360248201527f43726f776473616c652066696e616c697a656400000000000000000000000000604482015290519081900360640190fd5b600054604080516000805160206141e1833981519152602080830191909152600160a060020a038c8116606060020a02603284015283518084036026018152604690930193849052825194169363a855d4ce93918291908401908083835b602083106134145780518252601f1990920191602091820191016133f5565b51815160209384036101000a60001901801990921691161790526040805192909401829003822063ffffffff881660e060020a0283526004830152925160248083019650939450929083900301905081600087803b15801561347557600080fd5b505af1158015613489573d6000803e3d6000fd5b505050506040513d602081101561349f57600080fd5b505115156134ac57600080fd5b600054604080516000805160206141e1833981519152602080830191909152600160a060020a038c8116606060020a02603284015283518084036026018152604690930193849052825194169363e2b202bf93918291908401908083835b602083106135295780518252601f19909201916020918201910161350a565b5181516020939093036101000a60001901801990911692169190911790526040805191909301819003812063ffffffff871660e060020a0282526004820152915160248084019550600094509092839003019050818387803b15801561358e57600080fd5b505af11580156135a2573d6000803e3d6000fd5b5050505087955085600160a060020a0316634ece90a86040518163ffffffff1660e060020a028152600401602060405180830381600087803b1580156135e757600080fd5b505af11580156135fb573d6000803e3d6000fd5b505050506040513d602081101561361157600080fd5b5051600054604080516000805160206141c18339815191526020828101919091528251808303600c018152602c909201928390528151949950613708946064946126759461369294600160a060020a039092169363a855d4ce938291840190808383602083106125c95780518252601f1990920191602091820191016125aa565b89600160a060020a03166318160ddd6040518163ffffffff1660e060020a028152600401602060405180830381600087803b1580156136d057600080fd5b505af11580156136e4573d6000803e3d6000fd5b505050506040513d60208110156136fa57600080fd5b50519063ffffffff61414e16565b935084600160a060020a031663095ea7b389866040518363ffffffff1660e060020a0281526004018083600160a060020a0316600160a060020a0316815260200182815260200192505050602060405180830381600087803b15801561376d57600080fd5b505af1158015613781573d6000803e3d6000fd5b505050506040513d602081101561379757600080fd5b5050604080517f52ff7fa9000000000000000000000000000000000000000000000000000000008152600481018690529051600160a060020a038816916352ff7fa991602480830192600092919082900301818387803b1580156137fa57600080fd5b505af115801561380e573d6000803e3d6000fd5b5060019b9a5050505050505050505050565b600061383661382f848461414e565b6064614179565b9392505050565b6000828411156138ee57604080517f23b872dd000000000000000000000000000000000000000000000000000000008152600160a060020a038781166004830152306024830152604482018690529151918416916323b872dd916064808201926020929091908290030181600087803b1580156138b957600080fd5b505af11580156138cd573d6000803e3d6000fd5b505050506040513d60208110156138e357600080fd5b508391506139959050565b604080517f23b872dd000000000000000000000000000000000000000000000000000000008152600160a060020a038781166004830152306024830152604482018790529151918416916323b872dd916064808201926020929091908290030181600087803b15801561396057600080fd5b505af1158015613974573d6000803e3d6000fd5b505050506040513d602081101561398a57600080fd5b508491506139959050565b949350505050565b600080808080600160a060020a03871673eeeeeeeeeeeeeeeeeeeeeeeeeeeeeeeeeeeeeeee1415613c59576040805160e060020a6370a082310281523060048201819052915191319550600160a060020a038a16916370a08231916024808201926020929091908290030181600087803b158015613a1a57600080fd5b505af1158015613a2e573d6000803e3d6000fd5b505050506040513d6020811015613a4457600080fd5b5051600254604080517fcb3c28c7000000000000000000000000000000000000000000000000000000008152600160a060020a038b81166004830152602482018e90528c81166044830152306064830152608482018b9052600060a4830181905260c4830152915193965091169163cb3c28c7918c9160e480830192602092919082900301818588803b158015613ada57600080fd5b505af1158015613aee573d6000803e3d6000fd5b50505050506040513d6020811015613b0557600080fd5b50613b299050613b1c85303163ffffffff61418e16565b8a9063ffffffff61418e16565b9150613bc28389600160a060020a03166370a08231306040518263ffffffff1660e060020a0281526004018082600160a060020a0316600160a060020a03168152602001915050602060405180830381600087803b158015613b8a57600080fd5b505af1158015613b9e573d6000803e3d6000fd5b505050506040513d6020811015613bb457600080fd5b50519063ffffffff61418e16565b905086600160a060020a031663a9059cbb8b846040518363ffffffff1660e060020a0281526004018083600160a060020a0316600160a060020a0316815260200182815260200192505050602060405180830381600087803b158015613c2757600080fd5b505af1158015613c3b573d6000803e3d6000fd5b505050506040513d6020811015613c5157600080fd5b506140de9050565b613c658a8a8b8a61383d565b50600254604080517f095ea7b3000000000000000000000000000000000000000000000000000000008152600160a060020a0392831660048201526000602482018190529151928a169263095ea7b392604480840193602093929083900390910190829087803b158015613cd857600080fd5b505af1158015613cec573d6000803e3d6000fd5b505050506040513d6020811015613d0257600080fd5b50511515613d0f57600080fd5b600254604080517f095ea7b3000000000000000000000000000000000000000000000000000000008152600160a060020a039283166004820152602481018c905290519189169163095ea7b3916044808201926020929091908290030181600087803b158015613d7e57600080fd5b505af1158015613d92573d6000803e3d6000fd5b505050506040513d6020811015613da857600080fd5b50506040805160e060020a6370a082310281523060048201529051600160a060020a038916916370a082319160248083019260209291908290030181600087803b158015613df557600080fd5b505af1158015613e09573d6000803e3d6000fd5b505050506040513d6020811015613e1f57600080fd5b50516040805160e060020a6370a082310281523060048201529051919550600160a060020a038a16916370a08231916024808201926020929091908290030181600087803b158015613e7057600080fd5b505af1158015613e84573d6000803e3d6000fd5b505050506040513d6020811015613e9a57600080fd5b5051600254604080517fcb3c28c7000000000000000000000000000000000000000000000000000000008152600160a060020a038b81166004830152602482018e90528c81166044830152306064830152608482018b9052600060a4830181905260c4830181905292519497509092169263cb3c28c79260e4808201936020939283900390910190829087803b158015613f3357600080fd5b505af1158015613f47573d6000803e3d6000fd5b505050506040513d6020811015613f5d57600080fd5b50506040805160e060020a6370a082310281523060048201529051613feb91613b1c91600160a060020a038b16916370a082319160248083019260209291908290030181600087803b158015613fb257600080fd5b505af1158015613fc6573d6000803e3d6000fd5b505050506040513d6020811015613fdc57600080fd5b5051869063ffffffff61418e16565b915061404c8389600160a060020a03166370a08231306040518263ffffffff1660e060020a0281526004018082600160a060020a0316600160a060020a03168152602001915050602060405180830381600087803b158015613b8a57600080fd5b905086600160a060020a031663a9059cbb8b846040518363ffffffff1660e060020a0281526004018083600160a060020a0316600160a060020a0316815260200182815260200192505050602060405180830381600087803b1580156140b157600080fd5b505af11580156140c5573d6000803e3d6000fd5b505050506040513d60208110156140db57600080fd5b50505b60408051600160a060020a03891681526020810184905280820183905290517f9018eade4aec2a696b34b0f5459a1a7dc058389bab8e2380d880817a9e22b2139181900360600190a19998505050505050505050565b60008282018381101561414357fe5b8091505b5092915050565b6000808315156141615760009150614147565b5082820282848281151561417157fe5b041461414357fe5b6000818381151561418657fe5b049392505050565b60008282111561419a57fe5b50900390560063726f776473616c652e66696e616c697a656400000000000000000000000000706c6174666f726d2e666565000000000000000000000000000000000000000063726f776473616c652e646561646c696e650000000000000000000000000000a165627a7a723058204fcda7521e24ec3b02ca29c7c0e610f4698c6332e1cb1ef4d329f2b1ab3b20700029",
  "source": "pragma solidity ^0.4.24;\n\nimport \"../math/SafeMath.sol\";\nimport \"../interfaces/ERC20.sol\";\nimport \"../interfaces/ERC20DividendInterface.sol\";\nimport \"../interfaces/KyberInterface.sol\";\n\ninterface Events {  function transaction(string _message, address _from, address _to, uint _amount, bytes32 _id)  external; }\ninterface DB {\n  function addressStorage(bytes32 _key) external view returns (address);\n  function uintStorage(bytes32 _key) external view returns (uint);\n  function setUint(bytes32 _key, uint _value) external;\n  function deleteUint(bytes32 _key) external;\n  function setBool(bytes32 _key, bool _value) external;\n  function boolStorage(bytes32 _key) external view returns (bool);\n}\n\n// @title An asset crowdsale contract which accepts funding from ERC20 tokens.\n// @notice Begins a crowdfunding period for a digital asset, minting asset dividend tokens to investors when particular ERC20 token is received\n// @author Kyle Dewhurst, MyBit Foundation\n// @notice creates a dividend token to represent the newly created asset.\ncontract CrowdsaleERC20{\n  using SafeMath for uint256;\n\n  DB private database;\n  Events private events;\n  KyberInterface private kyber;\n\n  // @notice Constructor: initializes database instance\n  // @param: The address for the platform database\n  constructor(address _database, address _events, address _kyber)\n  public{\n      database = DB(_database);\n      events = Events(_events);\n      kyber = KyberInterface(_kyber);\n  }\n\n\n  // @notice Investors can send ERC20 tokens here to fund an asset, receiving an equivalent number of asset-tokens.\n  // @dev investor must approve this contract to transfer tokens\n  // @param (address) _assetAddress = The address of the asset tokens, investor wishes to purchase\n  // @param (uint) _amount = The amount to spend purchasing this asset\n  function buyAssetOrderERC20(address _assetAddress, address _investor, uint _amount, address _paymentToken)\n  external\n  payable\n  validAsset(_assetAddress)\n  betweenDeadlines(_assetAddress)\n  notFinalized(_assetAddress)\n  returns (bool) {\n    if(_paymentToken == address(0xEeeeeEeeeEeEeeEeEeEeeEEEeeeeEeeeeeeeEEeE)){\n      require(msg.value == _amount, 'Msg.value does not match amount');\n    } else {\n      require(msg.value == 0, 'Msg.value should equal zero');\n    }\n    require(msg.sender == _investor || database.boolStorage(keccak256(abi.encodePacked(\"approval\", _investor, msg.sender, address(this), msg.sig))), \"User not approved\");\n    ERC20DividendInterface assetToken = ERC20DividendInterface(_assetAddress);\n    ERC20 fundingToken = ERC20(assetToken.getERC20());\n    //uint amountToRaise = database.uintStorage(keccak256(abi.encodePacked(\"crowdsale.goal\", _assetAddress)));\n    uint fundingRemaining = database.uintStorage(keccak256(abi.encodePacked(\"crowdsale.remaining\", _assetAddress)));\n    //uint fundingRemaining = amountToRaise.sub(assetToken.totalSupply()).mul(uint(100).add(database.uintStorage(keccak256(abi.encodePacked(\"platform.fee\"))))).div(100);\n    uint collected; //This will be the value received by the contract after any conversions\n    uint amount; //The number of tokens that will be minted\n    //Check if the payment token is the same as the funding token. If not, convert, else just collect the funds\n    if(_paymentToken == address(fundingToken)){\n      collected = collectPayment(_investor, _amount, fundingRemaining, fundingToken);\n    } else {\n      collected = convertTokens(_investor, _amount, fundingToken, ERC20(_paymentToken), fundingRemaining);\n    }\n    require(collected > 0);\n    if(collected < fundingRemaining){\n      amount = collected.mul(100).div(uint(100).add(database.uintStorage(keccak256(abi.encodePacked(\"platform.fee\")))));\n      database.setUint(keccak256(abi.encodePacked(\"crowdsale.remaining\", _assetAddress)), fundingRemaining.sub(collected));\n      require(assetToken.mint(_investor, amount), \"Investor minting failed\");\n    } else {\n      amount = fundingRemaining.mul(100).div(uint(100).add(database.uintStorage(keccak256(abi.encodePacked(\"platform.fee\")))));\n      database.setBool(keccak256(abi.encodePacked(\"crowdsale.finalized\", _assetAddress)), true);\n      database.deleteUint(keccak256(abi.encodePacked(\"crowdsale.remaining\", _assetAddress)));\n      require(assetToken.mint(_investor, amount), \"Investor minting failed\");   // Send remaining asset tokens to investor\n      if(collected > fundingRemaining){\n        fundingToken.transfer(_investor, collected.sub(fundingRemaining));    // return extra funds\n      }\n    }\n    events.transaction('Asset purchased', _investor, _assetAddress, amount, '');\n    return true;\n  }\n\n  // @notice This is called once funding has succeeded. Sends Ether to a distribution contract where operator/assetManager can withdraw\n  // @dev The contract manager needs to know  the address PlatformDistribution contract\n  function payoutERC20(address _assetAddress)\n  external\n  whenNotPaused\n  finalized(_assetAddress)\n  notPaid(_assetAddress)\n  returns (bool) {\n    //Set paid to true\n    database.setBool(keccak256(abi.encodePacked(\"crowdsale.paid\", _assetAddress)), true);\n    //Setup tokens\n    ERC20DividendInterface assetToken = ERC20DividendInterface(_assetAddress);\n    ERC20 fundingToken = ERC20(assetToken.getERC20());\n    //Mint tokens for the asset manager and platform\n    require(assetToken.mint(database.addressStorage(keccak256(abi.encodePacked(\"contract\", \"AssetManagerFunds\"))), database.uintStorage(keccak256(abi.encodePacked(\"asset.managerTokens\", _assetAddress)))), \"Manager minting failed\");\n    require(assetToken.mint(database.addressStorage(keccak256(abi.encodePacked(\"platform.wallet\"))), database.uintStorage(keccak256(abi.encodePacked(\"asset.platformTokens\", _assetAddress)))), \"Platform minting failed\");\n    require(assetToken.finishMinting());\n    //Get the addresses for the operator and platform\n    address operator = database.addressStorage(keccak256(abi.encodePacked(\"asset.operator\", _assetAddress)));\n    address platformWallet = database.addressStorage(keccak256(abi.encodePacked(\"platform.wallet\")));\n    require(operator != address(0) && platformWallet != address(0));\n    //Calculate amounts for platform and operator\n    uint amount = database.uintStorage(keccak256(abi.encodePacked(\"crowdsale.goal\", _assetAddress)));\n    uint platformFee = amount.getFractionalAmount(database.uintStorage(keccak256(abi.encodePacked(\"platform.fee\"))));\n    //Transfer funds to operator and platform\n    fundingToken.transfer(platformWallet, platformFee);\n    fundingToken.transfer(operator, amount);\n    //Delete crowdsale start time\n    database.deleteUint(keccak256(abi.encodePacked(\"crowdsale.start\", _assetAddress)));\n    //Emit event\n    events.transaction('Asset payout', _assetAddress, operator, amount, '');\n    return true;\n  }\n\n  // @notice Contributors can retrieve their funds here if crowdsale has paased deadline\n  // @param (address) _assetAddress =  The address of the asset which didn't reach it's crowdfunding goals\n  function refund(address _assetAddress)\n  external\n  whenNotPaused\n  validAsset(_assetAddress)\n  afterDeadline(_assetAddress)\n  notFinalized(_assetAddress)\n  returns (bool) {\n    require(database.uintStorage(keccak256(abi.encodePacked(\"crowdsale.deadline\", _assetAddress))) != 0);\n    database.deleteUint(keccak256(abi.encodePacked(\"crowdsale.deadline\", _assetAddress)));\n    ERC20DividendInterface assetToken = ERC20DividendInterface(_assetAddress);\n    ERC20 fundingToken = ERC20(assetToken.getERC20());\n    uint refundValue = assetToken.totalSupply().mul(uint(100).add(database.uintStorage(keccak256(abi.encodePacked(\"platform.fee\"))))).div(100); //total supply plus platform fees\n    fundingToken.approve(_assetAddress, refundValue);\n    assetToken.issueDividends(refundValue);\n    return true;\n  }\n\n  //------------------------------------------------------------------------------------------------------------------\n  //                                            Internal Functions\n  //------------------------------------------------------------------------------------------------------------------\n\n  function collectPayment(address user, uint amount, uint max, ERC20 token)\n  private\n  returns (uint){\n    if(amount > max){\n      token.transferFrom(user, address(this), max);\n      return max;\n    } else {\n      token.transferFrom(user, address(this), amount);\n      return amount;\n    }\n  }\n\n  /*\n  function fundBurn(address _investor, uint _amount, bytes4 _sig, ERC20 _burnToken)\n  private\n  returns (uint) {\n    require(_burnToken.transferFrom(_investor, address(this), _amount), \"Transfer failed\"); // transfer investors tokens into contract\n    uint balanceBefore = _burnToken.balanceOf(this);\n    require(burner.burn(address(this), database.uintStorage(keccak256(abi.encodePacked(_sig, address(this)))), address(_burnToken)));\n    uint change = _burnToken.balanceOf(this) - balanceBefore;\n    return change;\n  }\n  */\n\n  function convertTokens(address _investor, uint _amount, /*bytes4 _sig,*/ ERC20 _fundingToken, ERC20 _paymentToken, uint _maxTokens)\n  private\n  returns (uint) {\n    //( , uint minRate) = kyber.getExpectedRate(address(_paymentToken), address(_fundingToken), 0);\n    uint paymentBalanceBefore;\n    uint fundingBalanceBefore;\n    uint change;\n    uint investment;\n    if(address(_paymentToken) == address(0xEeeeeEeeeEeEeeEeEeEeeEEEeeeeEeeeeeeeEEeE)){\n      paymentBalanceBefore = address(this).balance;\n      fundingBalanceBefore = _fundingToken.balanceOf(this);\n      //Convert remaining funds into the funding token\n      kyber.trade.value(_amount)(_paymentToken, _amount, _fundingToken, address(this), _maxTokens, 0, 0);\n      change = _amount.sub(paymentBalanceBefore.sub(address(this).balance));\n      investment = _fundingToken.balanceOf(this).sub(fundingBalanceBefore);\n      _paymentToken.transfer(_investor, change);\n    } else {\n      //Collect funds\n      collectPayment(_investor, _amount, _amount, _paymentToken);\n      // Mitigate ERC20 Approve front-running attack, by initially setting\n      // allowance to 0\n      require(_paymentToken.approve(address(kyber), 0));\n      // Approve tokens so network can take them during the swap\n      _paymentToken.approve(address(kyber), _amount);\n      paymentBalanceBefore = _paymentToken.balanceOf(this);\n      fundingBalanceBefore = _fundingToken.balanceOf(this);\n      //Convert remaining funds into the funding token\n      kyber.trade(_paymentToken, _amount, _fundingToken, address(this), _maxTokens, 0, 0);\n      // Return any remaining source tokens to user\n      change = _amount.sub(paymentBalanceBefore.sub(_paymentToken.balanceOf(this)));\n      investment = _fundingToken.balanceOf(this).sub(fundingBalanceBefore);\n      _paymentToken.transfer(_investor, change);\n    }\n\n    emit Convert(address(_paymentToken), change, investment);\n    return investment;\n  }\n\n  // @notice platform owners can recover tokens here\n  function recoverTokens(address _erc20Token)\n  onlyOwner\n  external {\n    ERC20 thisToken = ERC20(_erc20Token);\n    uint contractBalance = thisToken.balanceOf(address(this));\n    thisToken.transfer(msg.sender, contractBalance);\n  }\n\n  // @notice platform owners can destroy contract here\n  function destroy()\n  onlyOwner\n  external {\n    events.transaction('CrowdsaleERC20 destroyed', address(this), msg.sender, address(this).balance, '');\n    //emit LogDestruction(address(this).balance, msg.sender);\n    selfdestruct(msg.sender);\n  }\n\n  //------------------------------------------------------------------------------------------------------------------\n  //                                            Modifiers\n  //------------------------------------------------------------------------------------------------------------------\n\n  // @notice Sender must be a registered owner\n  modifier onlyOwner {\n    require(database.boolStorage(keccak256(abi.encodePacked(\"owner\", msg.sender))), \"Not owner\");\n    _;\n  }\n\n  // @notice function won't run if owners have paused this contract\n  modifier whenNotPaused {\n    require(!database.boolStorage(keccak256(abi.encodePacked(\"paused\", address(this)))));\n    _;\n  }\n\n  // @notice reverts if the asset does not have a token address set in the database\n  modifier validAsset(address _assetAddress) {\n    require(database.addressStorage(keccak256(abi.encodePacked(\"asset.manager\", _assetAddress))) != address(0), \"Invalid asset\");\n    _;\n  }\n\n  // @notice reverts if the funding deadline has already past\n  modifier betweenDeadlines(address _assetAddress) {\n    require(now <= database.uintStorage(keccak256(abi.encodePacked(\"crowdsale.deadline\", _assetAddress))), \"Past deadline\");\n    require(now >= database.uintStorage(keccak256(abi.encodePacked(\"crowdsale.start\", _assetAddress))), \"Before start time\");\n    _;\n  }\n\n  // @notice reverts if the funding deadline has already past\n  modifier afterDeadline(address _assetAddress) {\n    require(now > database.uintStorage(keccak256(abi.encodePacked(\"crowdsale.deadline\", _assetAddress))), \"Before deadline\");\n    _;\n  }\n\n  // @notice returns true if crowdsale is finshed\n  modifier finalized(address _assetAddress) {\n    require( database.boolStorage(keccak256(abi.encodePacked(\"crowdsale.finalized\", _assetAddress))), \"Crowdsale not finalized\");\n    _;\n  }\n\n  // @notice returns true if crowdsale is not finshed\n  modifier notFinalized(address _assetAddress) {\n    require( !database.boolStorage(keccak256(abi.encodePacked(\"crowdsale.finalized\", _assetAddress))), \"Crowdsale finalized\");\n    _;\n  }\n\n  // @notice returns true if crowdsale has not paid out\n  modifier notPaid(address _assetAddress) {\n    require( !database.boolStorage(keccak256(abi.encodePacked(\"crowdsale.paid\", _assetAddress))), \"Crowdsale has paid out\");\n    _;\n  }\n\n  event Convert(address token, uint change, uint investment);\n}\n",
  "sourcePath": "/home/peter/Documents/Work/MyBit/MyBit-Network.tech/contracts/crowdsale/CrowdsaleERC20.sol",
  "compiler": {
    "name": "solc",
    "version": "0.4.24+commit.e67f0147.Emscripten.clang"
  },
  "schemaVersion": "3.0.2",
  "updatedAt": "2019-04-03T05:20:12.319Z",
  "devdoc": {
    "methods": {}
  },
  "userdoc": {
    "methods": {}
  }
}