{
  "contractName": "CrowdsaleETH",
  "abi": [
    {
      "constant": true,
      "inputs": [],
      "name": "database",
      "outputs": [
        {
          "name": "",
          "type": "address"
        }
      ],
      "payable": false,
      "stateMutability": "view",
      "type": "function"
    },
    {
      "constant": true,
      "inputs": [],
      "name": "events",
      "outputs": [
        {
          "name": "",
          "type": "address"
        }
      ],
      "payable": false,
      "stateMutability": "view",
      "type": "function"
    },
    {
      "inputs": [
        {
          "name": "_database",
          "type": "address"
        },
        {
          "name": "_events",
          "type": "address"
        }
      ],
      "payable": false,
      "stateMutability": "nonpayable",
      "type": "constructor"
    },
    {
      "payable": true,
      "stateMutability": "payable",
      "type": "fallback"
    },
    {
      "constant": false,
      "inputs": [
        {
          "name": "_assetAddress",
          "type": "address"
        },
        {
          "name": "_investor",
          "type": "address"
        }
      ],
      "name": "buyAssetOrderETH",
      "outputs": [
        {
          "name": "",
          "type": "bool"
        }
      ],
      "payable": true,
      "stateMutability": "payable",
      "type": "function"
    },
    {
      "constant": false,
      "inputs": [
        {
          "name": "_assetAddress",
          "type": "address"
        }
      ],
      "name": "refund",
      "outputs": [
        {
          "name": "",
          "type": "bool"
        }
      ],
      "payable": false,
      "stateMutability": "nonpayable",
      "type": "function"
    },
    {
      "constant": false,
      "inputs": [
        {
          "name": "_erc20Token",
          "type": "address"
        }
      ],
      "name": "recoverTokens",
      "outputs": [],
      "payable": false,
      "stateMutability": "nonpayable",
      "type": "function"
    },
    {
      "constant": false,
      "inputs": [],
      "name": "destroy",
      "outputs": [],
      "payable": false,
      "stateMutability": "nonpayable",
      "type": "function"
    }
  ],
  "bytecode": "0x608060405234801561001057600080fd5b506040516040806126d983398101604052805160209091015160008054600160a060020a03938416600160a060020a03199182161790915560018054939092169216919091179055612672806100676000396000f30060806040526004361061005e5763ffffffff60e060020a60003504166316114acd811461006357806369fa8a3814610086578063713b563f146100b457806383197ef0146100e5578063b5f8558c146100fa578063fa89401a1461010f575b600080fd5b34801561006f57600080fd5b50610084600160a060020a0360043516610130565b005b6100a0600160a060020a03600435811690602435166103d0565b604080519115158252519081900360200190f35b3480156100c057600080fd5b506100c9610fe7565b60408051600160a060020a039092168252519081900360200190f35b3480156100f157600080fd5b50610084610ff6565b34801561010657600080fd5b506100c961122a565b34801561011b57600080fd5b506100a0600160a060020a0360043516611239565b60008054604080517f6f776e6572000000000000000000000000000000000000000000000000000000602080830191909152606060020a330260258301528251601981840301815260399092019283905281518594600160a060020a031693633b7bfda09392909182918401908083835b602083106101c05780518252601f1990920191602091820191016101a1565b51815160209384036101000a60001901801990921691161790526040805192909401829003822063ffffffff881660e060020a0283526004830152925160248083019650939450929083900301905081600087803b15801561022157600080fd5b505af1158015610235573d6000803e3d6000fd5b505050506040513d602081101561024b57600080fd5b505115156102a3576040805160e560020a62461bcd02815260206004820152600960248201527f4e6f74206f776e65720000000000000000000000000000000000000000000000604482015290519081900360640190fd5b604080517f70a082310000000000000000000000000000000000000000000000000000000081523060048201529051849350600160a060020a038416916370a082319160248083019260209291908290030181600087803b15801561030757600080fd5b505af115801561031b573d6000803e3d6000fd5b505050506040513d602081101561033157600080fd5b5051604080517fa9059cbb000000000000000000000000000000000000000000000000000000008152336004820152602481018390529051919250600160a060020a0384169163a9059cbb916044808201926020929091908290030181600087803b15801561039f57600080fd5b505af11580156103b3573d6000803e3d6000fd5b505050506040513d60208110156103c957600080fd5b5050505050565b60008080803481106103e157600080fd5b60008054604080517f61737365742e6d616e6167657200000000000000000000000000000000000000602080830191909152600160a060020a038b8116606060020a02602d8401528351808403602101815260419093019384905282518c969591909116936304f49a3a9392909182918401908083835b602083106104775780518252601f199092019160209182019101610458565b51815160209384036101000a60001901801990921691161790526040805192909401829003822063ffffffff881660e060020a0283526004830152925160248083019650939450929083900301905081600087803b1580156104d857600080fd5b505af11580156104ec573d6000803e3d6000fd5b505050506040513d602081101561050257600080fd5b5051600160a060020a03161415610563576040805160e560020a62461bcd02815260206004820152600d60248201527f496e76616c696420617373657400000000000000000000000000000000000000604482015290519081900360640190fd5b60005460408051600080516020612627833981519152602080830191909152600160a060020a038b8116606060020a0260328401528351808403602601815260469093019384905282518c95919091169363a855d4ce9392909182918401908083835b602083106105e55780518252601f1990920191602091820191016105c6565b51815160209384036101000a60001901801990921691161790526040805192909401829003822063ffffffff881660e060020a0283526004830152925160248083019650939450929083900301905081600087803b15801561064657600080fd5b505af115801561065a573d6000803e3d6000fd5b505050506040513d602081101561067057600080fd5b50514211156106c9576040805160e560020a62461bcd02815260206004820152600d60248201527f5061737420646561646c696e6500000000000000000000000000000000000000604482015290519081900360640190fd5b600054604080517f63726f776473616c652e73746172740000000000000000000000000000000000602080830191909152600160a060020a03858116606060020a02602f84015283518084036023018152604390930193849052825194169363a855d4ce93918291908401908083835b602083106107585780518252601f199092019160209182019101610739565b51815160209384036101000a60001901801990921691161790526040805192909401829003822063ffffffff881660e060020a0283526004830152925160248083019650939450929083900301905081600087803b1580156107b957600080fd5b505af11580156107cd573d6000803e3d6000fd5b505050506040513d60208110156107e357600080fd5b505142101561083c576040805160e560020a62461bcd02815260206004820152601160248201527f4265666f72652073746172742074696d65000000000000000000000000000000604482015290519081900360640190fd5b600054604080517f63726f776473616c652e66696e616c697a656400000000000000000000000000602080830191909152600160a060020a038c8116606060020a0260338401528351808403602701815260479093019384905282518d959190911693633b7bfda09392909182918401908083835b602083106108d05780518252601f1990920191602091820191016108b1565b51815160209384036101000a60001901801990921691161790526040805192909401829003822063ffffffff881660e060020a0283526004830152925160248083019650939450929083900301905081600087803b15801561093157600080fd5b505af1158015610945573d6000803e3d6000fd5b505050506040513d602081101561095b57600080fd5b5051156109b2576040805160e560020a62461bcd02815260206004820152601360248201527f43726f776473616c652066696e616c697a656400000000000000000000000000604482015290519081900360640190fd5b33600160a060020a0389161480610b20575060008054604080517f617070726f76616c000000000000000000000000000000000000000000000000602080830191909152600160a060020a038d8116606060020a9081026028850152338102603c8501523002605084015294357fffffffff000000000000000000000000000000000000000000000000000000001660648301528251808303604801815260689092019283905281519490931693633b7bfda0939192918291908401908083835b60208310610a925780518252601f199092019160209182019101610a73565b51815160209384036101000a60001901801990921691161790526040805192909401829003822063ffffffff881660e060020a0283526004830152925160248083019650939450929083900301905081600087803b158015610af357600080fd5b505af1158015610b07573d6000803e3d6000fd5b505050506040513d6020811015610b1d57600080fd5b50515b1515610b2b57600080fd5b600054604080517f63726f776473616c652e676f616c000000000000000000000000000000000000602080830191909152600160a060020a038d8116606060020a02602e8401528351808403602201815260429093019384905282518e9b5094169363a855d4ce93918291908401908083835b60208310610bbd5780518252601f199092019160209182019101610b9e565b51815160209384036101000a60001901801990921691161790526040805192909401829003822063ffffffff881660e060020a0283526004830152925160248083019650939450929083900301905081600087803b158015610c1e57600080fd5b505af1158015610c32573d6000803e3d6000fd5b505050506040513d6020811015610c4857600080fd5b5051604080517f18160ddd0000000000000000000000000000000000000000000000000000000081529051919650610ce591600160a060020a038916916318160ddd9160048083019260209291908290030181600087803b158015610cac57600080fd5b505af1158015610cc0573d6000803e3d6000fd5b505050506040513d6020811015610cd657600080fd5b5051869063ffffffff611b0c16565b9350348411610e2a5785600160a060020a03166340c10f1989866040518363ffffffff1660e060020a0281526004018083600160a060020a0316600160a060020a0316815260200182815260200192505050602060405180830381600087803b158015610d5157600080fd5b505af1158015610d65573d6000803e3d6000fd5b505050506040513d6020811015610d7b57600080fd5b50511515610dd3576040805160e560020a62461bcd02815260206004820152601760248201527f496e766573746f72206d696e74696e67206661696c6564000000000000000000604482015290519081900360640190fd5b610ddd8686611b1e565b1515610de857600080fd5b336108fc610dfc348763ffffffff611b0c16565b6040518115909202916000818181858888f19350505050158015610e24573d6000803e3d6000fd5b50610f17565b604080517f40c10f19000000000000000000000000000000000000000000000000000000008152600160a060020a038a811660048301523460248301529151918816916340c10f19916044808201926020929091908290030181600087803b158015610e9557600080fd5b505af1158015610ea9573d6000803e3d6000fd5b505050506040513d6020811015610ebf57600080fd5b50511515610f17576040805160e560020a62461bcd02815260206004820152601760248201527f496e766573746f72206d696e74696e67206661696c6564000000000000000000604482015290519081900360640190fd5b600154604080517f68b96270000000000000000000000000000000000000000000000000000000008152600160a060020a038b811660248301528c8116604483015234606483015260a06004830152600f60a48301527f417373657420707572636861736564000000000000000000000000000000000060c4830152915191909216916368b962709160e480830192600092919082900301818387803b158015610fc057600080fd5b505af1158015610fd4573d6000803e3d6000fd5b5060019c9b505050505050505050505050565b600054600160a060020a031681565b600054604080517f6f776e6572000000000000000000000000000000000000000000000000000000602080830191909152606060020a33026025830152825160198184030181526039909201928390528151600160a060020a0390941693633b7bfda093918291908401908083835b602083106110845780518252601f199092019160209182019101611065565b51815160209384036101000a60001901801990921691161790526040805192909401829003822063ffffffff881660e060020a0283526004830152925160248083019650939450929083900301905081600087803b1580156110e557600080fd5b505af11580156110f9573d6000803e3d6000fd5b505050506040513d602081101561110f57600080fd5b50511515611167576040805160e560020a62461bcd02815260206004820152600960248201527f4e6f74206f776e65720000000000000000000000000000000000000000000000604482015290519081900360640190fd5b600154604080517f68b96270000000000000000000000000000000000000000000000000000000008152306024820181905233604483015231606482015260a06004820152601660a48201527f43726f776473616c654554482064657374726f7965640000000000000000000060c48201529051600160a060020a03909216916368b962709160e48082019260009290919082900301818387803b15801561120e57600080fd5b505af1158015611222573d6000803e3d6000fd5b503392505050ff5b600154600160a060020a031681565b60008054604080517f7061757365640000000000000000000000000000000000000000000000000000602080830191909152606060020a300260268301528251601a818403018152603a90920192839052815185948594600160a060020a0390911693633b7bfda093909282918401908083835b602083106112cc5780518252601f1990920191602091820191016112ad565b51815160209384036101000a60001901801990921691161790526040805192909401829003822063ffffffff881660e060020a0283526004830152925160248083019650939450929083900301905081600087803b15801561132d57600080fd5b505af1158015611341573d6000803e3d6000fd5b505050506040513d602081101561135757600080fd5b5051156113ae576040805160e560020a62461bcd02815260206004820152600f60248201527f436f6e7472616374207061757365640000000000000000000000000000000000604482015290519081900360640190fd5b60008054604080517f61737365742e6d616e6167657200000000000000000000000000000000000000602080830191909152600160a060020a03898116606060020a02602d8401528351808403602101815260419093019384905282518a969591909116936304f49a3a9392909182918401908083835b602083106114445780518252601f199092019160209182019101611425565b51815160209384036101000a60001901801990921691161790526040805192909401829003822063ffffffff881660e060020a0283526004830152925160248083019650939450929083900301905081600087803b1580156114a557600080fd5b505af11580156114b9573d6000803e3d6000fd5b505050506040513d60208110156114cf57600080fd5b5051600160a060020a03161415611530576040805160e560020a62461bcd02815260206004820152600d60248201527f496e76616c696420617373657400000000000000000000000000000000000000604482015290519081900360640190fd5b60005460408051600080516020612627833981519152602080830191909152600160a060020a03898116606060020a0260328401528351808403602601815260469093019384905282518a95919091169363a855d4ce9392909182918401908083835b602083106115b25780518252601f199092019160209182019101611593565b51815160209384036101000a60001901801990921691161790526040805192909401829003822063ffffffff881660e060020a0283526004830152925160248083019650939450929083900301905081600087803b15801561161357600080fd5b505af1158015611627573d6000803e3d6000fd5b505050506040513d602081101561163d57600080fd5b50514211611695576040805160e560020a62461bcd02815260206004820152600f60248201527f4265666f726520646561646c696e650000000000000000000000000000000000604482015290519081900360640190fd5b600054604080517f63726f776473616c652e66696e616c697a656400000000000000000000000000602080830191909152600160a060020a038a8116606060020a0260338401528351808403602701815260479093019384905282518b959190911693633b7bfda09392909182918401908083835b602083106117295780518252601f19909201916020918201910161170a565b51815160209384036101000a60001901801990921691161790526040805192909401829003822063ffffffff881660e060020a0283526004830152925160248083019650939450929083900301905081600087803b15801561178a57600080fd5b505af115801561179e573d6000803e3d6000fd5b505050506040513d60208110156117b457600080fd5b50511561180b576040805160e560020a62461bcd02815260206004820152601360248201527f43726f776473616c652066696e616c697a656400000000000000000000000000604482015290519081900360640190fd5b60005460408051600080516020612627833981519152602080830191909152600160a060020a038b8116606060020a02603284015283518084036026018152604690930193849052825194169363a855d4ce93918291908401908083835b602083106118885780518252601f199092019160209182019101611869565b51815160209384036101000a60001901801990921691161790526040805192909401829003822063ffffffff881660e060020a0283526004830152925160248083019650939450929083900301905081600087803b1580156118e957600080fd5b505af11580156118fd573d6000803e3d6000fd5b505050506040513d602081101561191357600080fd5b5051151561192057600080fd5b60005460408051600080516020612627833981519152602080830191909152600160a060020a038b8116606060020a02603284015283518084036026018152604690930193849052825194169363e2b202bf93918291908401908083835b6020831061199d5780518252601f19909201916020918201910161197e565b5181516020939093036101000a60001901801990911692169190911790526040805191909301819003812063ffffffff871660e060020a0282526004820152915160248084019550600094509092839003019050818387803b158015611a0257600080fd5b505af1158015611a16573d6000803e3d6000fd5b5050505086945084600160a060020a03166318160ddd6040518163ffffffff1660e060020a028152600401602060405180830381600087803b158015611a5b57600080fd5b505af1158015611a6f573d6000803e3d6000fd5b505050506040513d6020811015611a8557600080fd5b5051604080517feba74e5c0000000000000000000000000000000000000000000000000000000081529051919550600160a060020a0387169163eba74e5c918791600480830192600092919082900301818588803b158015611ae657600080fd5b505af1158015611afa573d6000803e3d6000fd5b5060019b9a5050505050505050505050565b600082821115611b1857fe5b50900390565b60008054604080517f636f6e74726163740000000000000000000000000000000000000000000000006020808301919091527f41737365744d616e6167657246756e64730000000000000000000000000000006028830152825160198184030181526039909201928390528151600160a060020a03808916956340c10f19959116936304f49a3a93909282918401908083835b60208310611bd05780518252601f199092019160209182019101611bb1565b51815160209384036101000a60001901801990921691161790526040805192909401829003822063ffffffff881660e060020a0283526004830152925160248083019650939450929083900301905081600087803b158015611c3157600080fd5b505af1158015611c45573d6000803e3d6000fd5b505050506040513d6020811015611c5b57600080fd5b5051600054604080517f61737365742e6d616e6167657246656500000000000000000000000000000000602080830191909152600160a060020a038a8116606060020a02603084015283518084036024018152604490930193849052825194169363a855d4ce93918291908401908083835b60208310611cec5780518252601f199092019160209182019101611ccd565b51815160209384036101000a60001901801990921691161790526040805192909401829003822063ffffffff881660e060020a0283526004830152925160248083019650939450929083900301905081600087803b158015611d4d57600080fd5b505af1158015611d61573d6000803e3d6000fd5b505050506040513d6020811015611d7757600080fd5b50516040805160e060020a63ffffffff8616028152600160a060020a03909316600484015260248301919091525160448083019260209291908290030181600087803b158015611dc657600080fd5b505af1158015611dda573d6000803e3d6000fd5b505050506040513d6020811015611df057600080fd5b50511515611e48576040805160e560020a62461bcd02815260206004820152601660248201527f4d616e61676572206d696e74696e67206661696c656400000000000000000000604482015290519081900360640190fd5b600054604080517f63726f776473616c652e66696e616c697a656400000000000000000000000000602080830191909152600160a060020a03878116606060020a02603384015283518084036027018152604790930193849052825194169363abfdcced93918291908401908083835b60208310611ed75780518252601f199092019160209182019101611eb8565b5181516020939093036101000a60001901801990911692169190911790526040805191909301819003812063ffffffff871660e060020a028252600482015260016024820152915160448084019550600094509092839003019050818387803b158015611f4357600080fd5b505af1158015611f57573d6000803e3d6000fd5b5050600054604080517f63726f776473616c652e73746172740000000000000000000000000000000000602080830191909152600160a060020a03898116606060020a02602f8401528351808403602301815260439093019384905282519416955063e2b202bf9450909282918401908083835b60208310611fea5780518252601f199092019160209182019101611fcb565b5181516020939093036101000a60001901801990911692169190911790526040805191909301819003812063ffffffff871660e060020a0282526004820152915160248084019550600094509092839003019050818387803b15801561204f57600080fd5b505af1158015612063573d6000803e3d6000fd5b5050505082600160a060020a0316637d64bcb46040518163ffffffff1660e060020a028152600401602060405180830381600087803b1580156120a557600080fd5b505af11580156120b9573d6000803e3d6000fd5b505050506040513d60208110156120cf57600080fd5b50511515612127576040805160e560020a62461bcd02815260206004820152601460248201527f4d696e74696e67206e6f742066696e6973686564000000000000000000000000604482015290519081900360640190fd5b6121318383612190565b1515612187576040805160e560020a62461bcd02815260206004820152600d60248201527f5061796f7574206661696c656400000000000000000000000000000000000000604482015290519081900360640190fd5b50600192915050565b60008054604080517f61737365742e6f70657261746f72000000000000000000000000000000000000602080830191909152600160a060020a03878116606060020a02602e840152835180840360220181526042909301938490528251869586958695869594909216936304f49a3a9382918401908083835b602083106122285780518252601f199092019160209182019101612209565b51815160209384036101000a60001901801990921691161790526040805192909401829003822063ffffffff881660e060020a0283526004830152925160248083019650939450929083900301905081600087803b15801561228957600080fd5b505af115801561229d573d6000803e3d6000fd5b505050506040513d60208110156122b357600080fd5b5051600054604080517f706c6174666f726d2e77616c6c657400000000000000000000000000000000006020828101919091528251808303600f018152602f909201928390528151949850600160a060020a03909316936304f49a3a939192918291908401908083835b6020831061233c5780518252601f19909201916020918201910161231d565b51815160209384036101000a60001901801990921691161790526040805192909401829003822063ffffffff881660e060020a0283526004830152925160248083019650939450929083900301905081600087803b15801561239d57600080fd5b505af11580156123b1573d6000803e3d6000fd5b505050506040513d60208110156123c757600080fd5b50519250600160a060020a038416158015906123eb5750600160a060020a03831615155b1515612467576040805160e560020a62461bcd02815260206004820152602360248201527f4f70657261746f72206f7220706c6174666f726d2077616c6c6574206e6f742060448201527f7365740000000000000000000000000000000000000000000000000000000000606482015290519081900360840190fd5b612489606461247d88606363ffffffff6125db16565b9063ffffffff61261116565b915061249b868363ffffffff611b0c16565b604051909150600160a060020a0384169082156108fc029083906000818181858888f193505050501580156124d4573d6000803e3d6000fd5b50604051600160a060020a0385169083156108fc029084906000818181858888f1935050505015801561250b573d6000803e3d6000fd5b50600154604080517f68b96270000000000000000000000000000000000000000000000000000000008152600160a060020a038a811660248301528781166044830152606482018a905260a06004830152600c60a48301527f4173736574207061796f7574000000000000000000000000000000000000000060c4830152915191909216916368b962709160e480830192600092919082900301818387803b1580156125b657600080fd5b505af11580156125ca573d6000803e3d6000fd5b5060019a9950505050505050505050565b6000808315156125ee576000915061260a565b508282028284828115156125fe57fe5b041461260657fe5b8091505b5092915050565b6000818381151561261e57fe5b049392505050560063726f776473616c652e646561646c696e650000000000000000000000000000a165627a7a723058207d62065fe975112be6d0e1a7ebc2fd24caeacae3ec95b8932ab79d09656060e00029",
  "source": "pragma solidity ^0.4.24;\n\nimport \"../math/SafeMath.sol\";\nimport \"../interfaces/ERC20.sol\";\nimport \"../interfaces/EtherDividendInterface.sol\";\n// import \"../access/ERC20Burner.sol\";\n\ninterface Events {  function transaction(string _message, address _from, address _to, uint _amount, bytes32 _id)  external; }\ninterface DB {\n  function addressStorage(bytes32 _key) external view returns (address);\n  function uintStorage(bytes32 _key) external view returns (uint);\n  function deleteUint(bytes32 _key) external;\n  function setBool(bytes32 _key, bool _value) external;\n  function boolStorage(bytes32 _key) external view returns (bool);\n}\n\n// @title An asset crowdsale contract, which accepts Ether for funding.\n// @author Kyle Dewhurst & Peter Phillips, MyBit Foundation\n// @notice Starts a new crowdsale and returns asset dividend tokens for Wei received.\n// @dev The AssetManager\ncontract CrowdsaleETH {\n    using SafeMath for uint256;\n\n    DB public database;\n    Events public events;\n    // ERC20Burner public burner;\n\n    // @notice Constructor: Initiates the database\n    // @param: The address for the database contract\n    constructor(address _database, address _events)\n    public {\n        database = DB(_database);\n        events = Events(_events);\n        // burner = ERC20Burner(database.addressStorage(keccak256(abi.encodePacked(\"contract\", \"ERC20Burner\"))));\n    }\n\n\n    // @notice Investors can send Ether here to fund asset, receiving an equivalent number of asset-tokens.\n    // @param (bytes32) _assetAddress = The address of the asset which completed the crowdsale\n    function buyAssetOrderETH(address _assetAddress, address _investor)\n    external\n    payable\n    requiresEther\n    validAsset(_assetAddress)\n    betweenDeadlines(_assetAddress)\n    notFinalized(_assetAddress)\n    // burnRequired\n    returns (bool) {\n      require(msg.sender == _investor || database.boolStorage(keccak256(abi.encodePacked(\"approval\", _investor, msg.sender, address(this), msg.sig))));\n      EtherDividendInterface assetToken = EtherDividendInterface(_assetAddress);\n      uint amountToRaise = database.uintStorage(keccak256(abi.encodePacked(\"crowdsale.goal\", _assetAddress)));\n      uint tokensRemaining = amountToRaise.sub(assetToken.totalSupply());\n      if (msg.value >= tokensRemaining) {\n        // Give assetManager his portion of tokens\n        //require(assetToken.mint(database.addressStorage(keccak256(abi.encodePacked(\"contract\", \"AssetManagerFunds\"))), database.uintStorage(keccak256(abi.encodePacked(\"asset.managerFee\", _assetAddress)))), \"Manager minting failed\");\n        require(assetToken.mint(_investor, tokensRemaining), \"Investor minting failed\");   // Send remaining asset tokens\n        require(finalizeCrowdsale(assetToken, amountToRaise));    // delete unnecessary variables\n        //require(assetToken.finishMinting(), \"Minting not finished\");\n        //require(payoutETH(_assetAddress, amountToRaise), \"Payout failed\");          // 1 token = 1 wei\n        msg.sender.transfer(msg.value.sub(tokensRemaining));     // Return leftover WEI after cost of tokens calculated and subtracted from msg.value to msg.sender *NOT _investor\n      }\n      else {\n        require(assetToken.mint(_investor, msg.value), \"Investor minting failed\");\n      }\n      events.transaction('Asset purchased', _investor, _assetAddress, msg.value, '');\n      return true;\n    }\n\n\n    // @notice Contributors can retrieve their funds here if crowdsale has paased deadline and not reached its goal\n    // @param (bytes32) _assetAddress = The address of the asset which completed the crowdsale\n    function refund(address _assetAddress)\n    external\n    whenNotPaused\n    validAsset(_assetAddress)\n    afterDeadline(_assetAddress)\n    notFinalized(_assetAddress)\n    returns (bool) {\n      require(database.uintStorage(keccak256(abi.encodePacked(\"crowdsale.deadline\", _assetAddress))) != 0);\n      database.deleteUint(keccak256(abi.encodePacked(\"crowdsale.deadline\", _assetAddress)));\n      EtherDividendInterface assetToken = EtherDividendInterface(_assetAddress);\n      uint refundValue = assetToken.totalSupply(); //token=wei\n      assetToken.issueDividends.value(refundValue)();\n      return true;\n    }\n\n    // @notice platform owners can recover tokens here\n    function recoverTokens(address _erc20Token)\n    onlyOwner\n    external {\n      ERC20 thisToken = ERC20(_erc20Token);\n      uint contractBalance = thisToken.balanceOf(address(this));\n      thisToken.transfer(msg.sender, contractBalance);\n    }\n\n    // @notice platform owners can destroy contract here\n    function destroy()\n    onlyOwner\n    external {\n      events.transaction('CrowdsaleETH destroyed', address(this), msg.sender, address(this).balance, '');\n      selfdestruct(msg.sender);\n    }\n\n    // @notice fallback function: reject ether\n    function ()\n    public\n    payable {\n      revert();\n    }\n\n    //------------------------------------------------------------------------------------------------------------------\n    //                                            Internal Functions\n    //------------------------------------------------------------------------------------------------------------------\n\n    // @notice This is called once funding has succeeded. Sends Ether to a distribution contract where operator & assetManager can withdraw\n    // @dev The contract manager needs to know  the address PlatformDistribution contract\n    // @param (bytes32) _assetAddress = The address of the asset which completed the crowdsale\n    // @param (uint) _amount = The amount of WEI to be sent to the platform + the operator\n    function payoutETH(address _assetAddress, uint _amount)\n    internal\n    returns (bool) {\n      address operator = database.addressStorage(keccak256(abi.encodePacked(\"asset.operator\", _assetAddress)));\n      address platformWallet = database.addressStorage(keccak256(abi.encodePacked(\"platform.wallet\")));\n      require(operator != address(0) && platformWallet != address(0), \"Operator or platform wallet not set\");\n      uint operatorPortion = _amount.mul(99).div(100);\n      uint platformPortion = _amount.sub(operatorPortion);\n      platformWallet.transfer(platformPortion);\n      operator.transfer(operatorPortion);\n      events.transaction('Asset payout', _assetAddress, operator, _amount, '');\n      return true;\n    }\n\n    // @notice internal function for freeing up storage after crowdsale finishes\n    // @param the ID of this asset.\n    function finalizeCrowdsale(EtherDividendInterface _asset, uint _amountToRaise)\n    internal\n    returns (bool) {\n      require(_asset.mint(database.addressStorage(keccak256(abi.encodePacked(\"contract\", \"AssetManagerFunds\"))), database.uintStorage(keccak256(abi.encodePacked(\"asset.managerFee\", address(_asset))))), \"Manager minting failed\");\n      database.setBool(keccak256(abi.encodePacked(\"crowdsale.finalized\", address(_asset))), true);\n      //database.deleteUint(keccak256(abi.encodePacked(\"crowdsale.goal\", _assetAddress)));     // This is now represented as totalSupply in the asset-token\n      //database.deleteUint(keccak256(abi.encodePacked(\"asset.managerFee\", _assetAddress)));   // This is now represented as tokens in AssetManagerFunds.sol\n      database.deleteUint(keccak256(abi.encodePacked(\"crowdsale.start\", address(_asset))));\n      require(_asset.finishMinting(), \"Minting not finished\");\n      require(payoutETH(address(_asset), _amountToRaise), \"Payout failed\");          // 1 token = 1 wei\n      return true;\n    }\n\n\n    //------------------------------------------------------------------------------------------------------------------\n    //                                            Modifiers\n    //------------------------------------------------------------------------------------------------------------------\n\n\n    // @notice Requires that Ether is sent with the transaction\n    modifier requiresEther() {\n      require(msg.value > 0);\n      _;\n    }\n\n    // @notice Sender must be a registered owner\n    modifier onlyOwner {\n      require(database.boolStorage(keccak256(abi.encodePacked(\"owner\", msg.sender))), \"Not owner\");\n      _;\n    }\n\n    // // @notice reverts if investor hasn't approved burner to burn platform token\n    // modifier burnRequired {\n    //   require(burner.burn(msg.sender, database.uintStorage(keccak256(abi.encodePacked(msg.sig, address(this))))), \"Burn failed\");\n    //   _;\n    // }\n\n    // @notice function won't run if owners have paused this contract\n    modifier whenNotPaused {\n      require(!database.boolStorage(keccak256(abi.encodePacked(\"paused\", address(this)))), \"Contract paused\");\n      _;\n    }\n\n    // @notice reverts if the asset does not have a token address set in the database\n    modifier validAsset(address _assetAddress) {\n      require(database.addressStorage(keccak256(abi.encodePacked(\"asset.manager\", _assetAddress))) != address(0), \"Invalid asset\");\n      _;\n    }\n\n    // @notice reverts if the funding deadline has already past\n    modifier betweenDeadlines(address _assetAddress) {\n      require(now <= database.uintStorage(keccak256(abi.encodePacked(\"crowdsale.deadline\", _assetAddress))), \"Past deadline\");\n      require(now >= database.uintStorage(keccak256(abi.encodePacked(\"crowdsale.start\", _assetAddress))), \"Before start time\");\n      _;\n    }\n\n    // @notice reverts if the funding deadline has already past\n    modifier afterDeadline(address _assetAddress) {\n      require(now > database.uintStorage(keccak256(abi.encodePacked(\"crowdsale.deadline\", _assetAddress))), \"Before deadline\");\n      _;\n    }\n\n    // @notice returns true if crowdsale is not finshed\n    modifier notFinalized(address _assetAddress) {\n      require( !database.boolStorage(keccak256(abi.encodePacked(\"crowdsale.finalized\", _assetAddress))), \"Crowdsale finalized\");\n      _;\n    }\n\n  }\n",
  "sourcePath": "/home/peter/Documents/Work/MyBit/MyBit-Network.tech/contracts/crowdsale/CrowdsaleETH.sol",
  "compiler": {
    "name": "solc",
    "version": "0.4.24+commit.e67f0147.Emscripten.clang"
  },
  "schemaVersion": "3.0.1",
  "updatedAt": "2019-03-13T22:36:33.964Z",
  "devdoc": {
    "methods": {}
  },
  "userdoc": {
    "methods": {}
  }
}