{
  "contractName": "CrowdsaleETH",
  "abi": [
    {
      "constant": true,
      "inputs": [],
      "name": "database",
      "outputs": [
        {
          "name": "",
          "type": "address"
        }
      ],
      "payable": false,
      "stateMutability": "view",
      "type": "function"
    },
    {
      "constant": true,
      "inputs": [],
      "name": "events",
      "outputs": [
        {
          "name": "",
          "type": "address"
        }
      ],
      "payable": false,
      "stateMutability": "view",
      "type": "function"
    },
    {
      "inputs": [
        {
          "name": "_database",
          "type": "address"
        },
        {
          "name": "_events",
          "type": "address"
        }
      ],
      "payable": false,
      "stateMutability": "nonpayable",
      "type": "constructor"
    },
    {
      "payable": true,
      "stateMutability": "payable",
      "type": "fallback"
    },
    {
      "constant": false,
      "inputs": [
        {
          "name": "_assetID",
          "type": "bytes32"
        },
        {
          "name": "_investor",
          "type": "address"
        }
      ],
      "name": "buyAssetOrderETH",
      "outputs": [
        {
          "name": "",
          "type": "bool"
        }
      ],
      "payable": true,
      "stateMutability": "payable",
      "type": "function"
    },
    {
      "constant": false,
      "inputs": [
        {
          "name": "_assetID",
          "type": "bytes32"
        }
      ],
      "name": "refund",
      "outputs": [
        {
          "name": "",
          "type": "bool"
        }
      ],
      "payable": false,
      "stateMutability": "nonpayable",
      "type": "function"
    },
    {
      "constant": false,
      "inputs": [
        {
          "name": "_erc20Token",
          "type": "address"
        }
      ],
      "name": "recoverTokens",
      "outputs": [],
      "payable": false,
      "stateMutability": "nonpayable",
      "type": "function"
    },
    {
      "constant": false,
      "inputs": [],
      "name": "destroy",
      "outputs": [],
      "payable": false,
      "stateMutability": "nonpayable",
      "type": "function"
    }
  ],
  "bytecode": "0x608060405234801561001057600080fd5b50604051604080612af883398101604052805160209091015160008054600160a060020a03938416600160a060020a03199182161790915560018054939092169216919091179055612a91806100676000396000f30060806040526004361061005e5763ffffffff60e060020a60003504166316114acd8114610063578063281c20eb14610086578063713b563f146100b15780637249fbb6146100e257806383197ef0146100fa578063b5f8558c1461010f575b600080fd5b34801561006f57600080fd5b50610084600160a060020a0360043516610124565b005b61009d600435600160a060020a03602435166103cd565b604080519115158252519081900360200190f35b3480156100bd57600080fd5b506100c661152c565b60408051600160a060020a039092168252519081900360200190f35b3480156100ee57600080fd5b5061009d60043561153b565b34801561010657600080fd5b5061008461200a565b34801561011b57600080fd5b506100c6612247565b60008054604080517f6f776e65720000000000000000000000000000000000000000000000000000006020808301919091526c01000000000000000000000000330260258301528251601981840301815260399092019283905281518594600160a060020a031693633b7bfda09392909182918401908083835b602083106101bd5780518252601f19909201916020918201910161019e565b51815160209384036101000a60001901801990921691161790526040805192909401829003822063ffffffff881660e060020a0283526004830152925160248083019650939450929083900301905081600087803b15801561021e57600080fd5b505af1158015610232573d6000803e3d6000fd5b505050506040513d602081101561024857600080fd5b505115156102a0576040805160e560020a62461bcd02815260206004820152600960248201527f4e6f74206f776e65720000000000000000000000000000000000000000000000604482015290519081900360640190fd5b604080517f70a082310000000000000000000000000000000000000000000000000000000081523060048201529051849350600160a060020a038416916370a082319160248083019260209291908290030181600087803b15801561030457600080fd5b505af1158015610318573d6000803e3d6000fd5b505050506040513d602081101561032e57600080fd5b5051604080517fa9059cbb000000000000000000000000000000000000000000000000000000008152336004820152602481018390529051919250600160a060020a0384169163a9059cbb916044808201926020929091908290030181600087803b15801561039c57600080fd5b505af11580156103b0573d6000803e3d6000fd5b505050506040513d60208110156103c657600080fd5b5050505050565b60008080803481106103de57600080fd5b6000805460408051600080516020612a26833981519152602080830191909152602c8083018c905283518084039091018152604c9092019283905281518b9594600160a060020a0316936304f49a3a9392909182918401908083835b602083106104595780518252601f19909201916020918201910161043a565b51815160209384036101000a60001901801990921691161790526040805192909401829003822063ffffffff881660e060020a0283526004830152925160248083019650939450929083900301905081600087803b1580156104ba57600080fd5b505af11580156104ce573d6000803e3d6000fd5b505050506040513d60208110156104e457600080fd5b5051600160a060020a03161415610545576040805160e560020a62461bcd02815260206004820152601060248201527f496e76616c696420617373657420494400000000000000000000000000000000604482015290519081900360640190fd5b60005460408051600080516020612a46833981519152602080830191909152602f8083018c905283518084039091018152604f9092019283905281518b94600160a060020a03169363a855d4ce9392909182918401908083835b602083106105be5780518252601f19909201916020918201910161059f565b51815160209384036101000a60001901801990921691161790526040805192909401829003822063ffffffff881660e060020a0283526004830152925160248083019650939450929083900301905081600087803b15801561061f57600080fd5b505af1158015610633573d6000803e3d6000fd5b505050506040513d602081101561064957600080fd5b50514211156106a2576040805160e560020a62461bcd02815260206004820152600d60248201527f5061737420646561646c696e6500000000000000000000000000000000000000604482015290519081900360640190fd5b600054604080517f737461727454696d6500000000000000000000000000000000000000000000006020808301919091526029808301869052835180840390910181526049909201928390528151600160a060020a039094169363a855d4ce93918291908401908083835b6020831061072c5780518252601f19909201916020918201910161070d565b51815160209384036101000a60001901801990921691161790526040805192909401829003822063ffffffff881660e060020a0283526004830152925160248083019650939450929083900301905081600087803b15801561078d57600080fd5b505af11580156107a1573d6000803e3d6000fd5b505050506040513d60208110156107b757600080fd5b5051421015610810576040805160e560020a62461bcd02815260206004820152601160248201527f4265666f72652073746172742074696d65000000000000000000000000000000604482015290519081900360640190fd5b600054604080517f63726f776473616c6546696e616c697a6564000000000000000000000000000060208083019190915260328083018d90528351808403909101815260529092019283905281518c94600160a060020a031693633b7bfda09392909182918401908083835b6020831061089b5780518252601f19909201916020918201910161087c565b51815160209384036101000a60001901801990921691161790526040805192909401829003822063ffffffff881660e060020a0283526004830152925160248083019650939450929083900301905081600087803b1580156108fc57600080fd5b505af1158015610910573d6000803e3d6000fd5b505050506040513d602081101561092657600080fd5b50511561097d576040805160e560020a62461bcd02815260206004820152601760248201527f43726f776473616c65206e6f742066696e616c697a6564000000000000000000604482015290519081900360640190fd5b33600160a060020a0389161480610af4575060008054604080517f617070726f76616c000000000000000000000000000000000000000000000000602080830191909152600160a060020a038d81166c010000000000000000000000009081026028850152338102603c8501523002605084015294357fffffffff000000000000000000000000000000000000000000000000000000001660648301528251808303604801815260689092019283905281519490931693633b7bfda0939192918291908401908083835b60208310610a665780518252601f199092019160209182019101610a47565b51815160209384036101000a60001901801990921691161790526040805192909401829003822063ffffffff881660e060020a0283526004830152925160248083019650939450929083900301905081600087803b158015610ac757600080fd5b505af1158015610adb573d6000803e3d6000fd5b505050506040513d6020811015610af157600080fd5b50515b1515610aff57600080fd5b60005460408051600080516020612a26833981519152602080830191909152602c8083018e905283518084039091018152604c909201928390528151600160a060020a03909416936304f49a3a93918291908401908083835b60208310610b775780518252601f199092019160209182019101610b58565b51815160209384036101000a60001901801990921691161790526040805192909401829003822063ffffffff881660e060020a0283526004830152925160248083019650939450929083900301905081600087803b158015610bd857600080fd5b505af1158015610bec573d6000803e3d6000fd5b505050506040513d6020811015610c0257600080fd5b5051600054604080517f616d6f756e74546f526169736500000000000000000000000000000000000000602082810191909152602d8083018f905283518084039091018152604d909201928390528151949a50600160a060020a039093169363a855d4ce939192918291908401908083835b60208310610c935780518252601f199092019160209182019101610c74565b51815160209384036101000a60001901801990921691161790526040805192909401829003822063ffffffff881660e060020a0283526004830152925160248083019650939450929083900301905081600087803b158015610cf457600080fd5b505af1158015610d08573d6000803e3d6000fd5b505050506040513d6020811015610d1e57600080fd5b5051604080517f18160ddd0000000000000000000000000000000000000000000000000000000081529051919650610dbb91600160a060020a038916916318160ddd9160048083019260209291908290030181600087803b158015610d8257600080fd5b505af1158015610d96573d6000803e3d6000fd5b505050506040513d6020811015610dac57600080fd5b5051869063ffffffff61225616565b935034841161136a57600054604080517f636f6e74726163740000000000000000000000000000000000000000000000006020808301919091527f41737365744d616e6167657246756e64730000000000000000000000000000006028830152825160198184030181526039909201928390528151600160a060020a03808c16956340c10f19959116936304f49a3a93909282918401908083835b60208310610e755780518252601f199092019160209182019101610e56565b51815160209384036101000a60001901801990921691161790526040805192909401829003822063ffffffff881660e060020a0283526004830152925160248083019650939450929083900301905081600087803b158015610ed657600080fd5b505af1158015610eea573d6000803e3d6000fd5b505050506040513d6020811015610f0057600080fd5b81019080805190602001909291905050506000809054906101000a9004600160a060020a0316600160a060020a031663a855d4ce8d60405160200180807f61737365744d616e616765724665650000000000000000000000000000000000815250600f0182600019166000191681526020019150506040516020818303038152906040526040518082805190602001908083835b60208310610fb35780518252601f199092019160209182019101610f94565b51815160209384036101000a60001901801990921691161790526040805192909401829003822063ffffffff881660e060020a0283526004830152925160248083019650939450929083900301905081600087803b15801561101457600080fd5b505af1158015611028573d6000803e3d6000fd5b505050506040513d602081101561103e57600080fd5b50516040805160e060020a63ffffffff8616028152600160a060020a03909316600484015260248301919091525160448083019260209291908290030181600087803b15801561108d57600080fd5b505af11580156110a1573d6000803e3d6000fd5b505050506040513d60208110156110b757600080fd5b5051151561110f576040805160e560020a62461bcd02815260206004820152601f60248201527f4173736574206d616e6167657220746f6b656e73206e6f74206d696e74656400604482015290519081900360640190fd5b61111889612268565b151561112357600080fd5b85600160a060020a03166340c10f1989866040518363ffffffff1660e060020a0281526004018083600160a060020a0316600160a060020a0316815260200182815260200192505050602060405180830381600087803b15801561118657600080fd5b505af115801561119a573d6000803e3d6000fd5b505050506040513d60208110156111b057600080fd5b50511515611208576040805160e560020a62461bcd02815260206004820152601a60248201527f496e766573746f7220746f6b656e73206e6f74206d696e746564000000000000604482015290519081900360640190fd5b85600160a060020a0316637d64bcb46040518163ffffffff1660e060020a028152600401602060405180830381600087803b15801561124657600080fd5b505af115801561125a573d6000803e3d6000fd5b505050506040513d602081101561127057600080fd5b505115156112c8576040805160e560020a62461bcd02815260206004820152601460248201527f4d696e74696e67206e6f742066696e6973686564000000000000000000000000604482015290519081900360640190fd5b6112d2898661258d565b1515611328576040805160e560020a62461bcd02815260206004820152600d60248201527f5061796f7574206661696c656400000000000000000000000000000000000000604482015290519081900360640190fd5b336108fc61133c348763ffffffff61225616565b6040518115909202916000818181858888f19350505050158015611364573d6000803e3d6000fd5b50611457565b604080517f40c10f19000000000000000000000000000000000000000000000000000000008152600160a060020a038a811660048301523460248301529151918816916340c10f19916044808201926020929091908290030181600087803b1580156113d557600080fd5b505af11580156113e9573d6000803e3d6000fd5b505050506040513d60208110156113ff57600080fd5b50511515611457576040805160e560020a62461bcd02815260206004820152601a60248201527f496e766573746f7220746f6b656e73206e6f74206d696e746564000000000000604482015290519081900360640190fd5b600154604080517f68b96270000000000000000000000000000000000000000000000000000000008152600160a060020a038b81166024830152306044830152346064830152608482018d905260a06004830152600f60a48301527f417373657420707572636861736564000000000000000000000000000000000060c4830152915191909216916368b962709160e480830192600092919082900301818387803b15801561150557600080fd5b505af1158015611519573d6000803e3d6000fd5b5060019c9b505050505050505050505050565b600054600160a060020a031681565b60008054604080517f70617573656400000000000000000000000000000000000000000000000000006020808301919091526c01000000000000000000000000300260268301528251601a818403018152603a90920192839052815185948594600160a060020a0390911693633b7bfda093909282918401908083835b602083106115d75780518252601f1990920191602091820191016115b8565b51815160209384036101000a60001901801990921691161790526040805192909401829003822063ffffffff881660e060020a0283526004830152925160248083019650939450929083900301905081600087803b15801561163857600080fd5b505af115801561164c573d6000803e3d6000fd5b505050506040513d602081101561166257600080fd5b5051156116b9576040805160e560020a62461bcd02815260206004820152600f60248201527f436f6e7472616374207061757365640000000000000000000000000000000000604482015290519081900360640190fd5b6000805460408051600080516020612a26833981519152602080830191909152602c8083018a905283518084039091018152604c909201928390528151899594600160a060020a0316936304f49a3a9392909182918401908083835b602083106117345780518252601f199092019160209182019101611715565b51815160209384036101000a60001901801990921691161790526040805192909401829003822063ffffffff881660e060020a0283526004830152925160248083019650939450929083900301905081600087803b15801561179557600080fd5b505af11580156117a9573d6000803e3d6000fd5b505050506040513d60208110156117bf57600080fd5b5051600160a060020a03161415611820576040805160e560020a62461bcd02815260206004820152601060248201527f496e76616c696420617373657420494400000000000000000000000000000000604482015290519081900360640190fd5b60005460408051600080516020612a46833981519152602080830191909152602f8083018a905283518084039091018152604f9092019283905281518994600160a060020a03169363a855d4ce9392909182918401908083835b602083106118995780518252601f19909201916020918201910161187a565b51815160209384036101000a60001901801990921691161790526040805192909401829003822063ffffffff881660e060020a0283526004830152925160248083019650939450929083900301905081600087803b1580156118fa57600080fd5b505af115801561190e573d6000803e3d6000fd5b505050506040513d602081101561192457600080fd5b5051421161197c576040805160e560020a62461bcd02815260206004820152601160248201527f446561646c696e65206e6f742070617374000000000000000000000000000000604482015290519081900360640190fd5b600054604080517f63726f776473616c6546696e616c697a6564000000000000000000000000000060208083019190915260328083018b90528351808403909101815260529092019283905281518a94600160a060020a031693633b7bfda09392909182918401908083835b60208310611a075780518252601f1990920191602091820191016119e8565b51815160209384036101000a60001901801990921691161790526040805192909401829003822063ffffffff881660e060020a0283526004830152925160248083019650939450929083900301905081600087803b158015611a6857600080fd5b505af1158015611a7c573d6000803e3d6000fd5b505050506040513d6020811015611a9257600080fd5b505115611ae9576040805160e560020a62461bcd02815260206004820152601760248201527f43726f776473616c65206e6f742066696e616c697a6564000000000000000000604482015290519081900360640190fd5b60005460408051600080516020612a46833981519152602080830191909152602f8083018c905283518084039091018152604f909201928390528151600160a060020a039094169363a855d4ce93918291908401908083835b60208310611b615780518252601f199092019160209182019101611b42565b51815160209384036101000a60001901801990921691161790526040805192909401829003822063ffffffff881660e060020a0283526004830152925160248083019650939450929083900301905081600087803b158015611bc257600080fd5b505af1158015611bd6573d6000803e3d6000fd5b505050506040513d6020811015611bec57600080fd5b50511515611bf957600080fd5b60005460408051600080516020612a46833981519152602080830191909152602f8083018c905283518084039091018152604f909201928390528151600160a060020a039094169363e2b202bf93918291908401908083835b60208310611c715780518252601f199092019160209182019101611c52565b5181516020939093036101000a60001901801990911692169190911790526040805191909301819003812063ffffffff871660e060020a0282526004820152915160248084019550600094509092839003019050818387803b158015611cd657600080fd5b505af1158015611cea573d6000803e3d6000fd5b5050600054604080517f696e766573746f72537570706c79000000000000000000000000000000000000602080830191909152602e8083018e905283518084039091018152604e909201928390528151600160a060020a03909416955063e2b202bf9450909282918401908083835b60208310611d785780518252601f199092019160209182019101611d59565b5181516020939093036101000a60001901801990911692169190911790526040805191909301819003812063ffffffff871660e060020a0282526004820152915160248084019550600094509092839003019050818387803b158015611ddd57600080fd5b505af1158015611df1573d6000803e3d6000fd5b505060005460408051600080516020612a26833981519152602080830191909152602c8083018e905283518084039091018152604c909201928390528151600160a060020a0390941695506304f49a3a9450909282918401908083835b60208310611e6d5780518252601f199092019160209182019101611e4e565b51815160209384036101000a60001901801990921691161790526040805192909401829003822063ffffffff881660e060020a0283526004830152925160248083019650939450929083900301905081600087803b158015611ece57600080fd5b505af1158015611ee2573d6000803e3d6000fd5b505050506040513d6020811015611ef857600080fd5b5051604080517f18160ddd0000000000000000000000000000000000000000000000000000000081529051919650600160a060020a038716916318160ddd916004808201926020929091908290030181600087803b158015611f5957600080fd5b505af1158015611f6d573d6000803e3d6000fd5b505050506040513d6020811015611f8357600080fd5b5051604080517feba74e5c0000000000000000000000000000000000000000000000000000000081529051919550600160a060020a0387169163eba74e5c918791600480830192600092919082900301818588803b158015611fe457600080fd5b505af1158015611ff8573d6000803e3d6000fd5b5060019b9a5050505050505050505050565b600054604080517f6f776e65720000000000000000000000000000000000000000000000000000006020808301919091526c0100000000000000000000000033026025830152825160198184030181526039909201928390528151600160a060020a0390941693633b7bfda093918291908401908083835b602083106120a15780518252601f199092019160209182019101612082565b51815160209384036101000a60001901801990921691161790526040805192909401829003822063ffffffff881660e060020a0283526004830152925160248083019650939450929083900301905081600087803b15801561210257600080fd5b505af1158015612116573d6000803e3d6000fd5b505050506040513d602081101561212c57600080fd5b50511515612184576040805160e560020a62461bcd02815260206004820152600960248201527f4e6f74206f776e65720000000000000000000000000000000000000000000000604482015290519081900360640190fd5b600154604080517f68b96270000000000000000000000000000000000000000000000000000000008152306024820181905233604483015231606482015260a06004820152601660a48201527f43726f776473616c654554482064657374726f7965640000000000000000000060c48201529051600160a060020a03909216916368b962709160e48082019260009290919082900301818387803b15801561222b57600080fd5b505af115801561223f573d6000803e3d6000fd5b503392505050ff5b600154600160a060020a031681565b60008282111561226257fe5b50900390565b60008054604080517f63726f776473616c6546696e616c697a656400000000000000000000000000006020808301919091526032808301879052835180840390910181526052909201928390528151600160a060020a039094169363abfdcced93918291908401908083835b602083106122f35780518252601f1990920191602091820191016122d4565b5181516020939093036101000a60001901801990911692169190911790526040805191909301819003812063ffffffff871660e060020a028252600482015260016024820152915160448084019550600094509092839003019050818387803b15801561235f57600080fd5b505af1158015612373573d6000803e3d6000fd5b5050600054604080517f616d6f756e74546f526169736500000000000000000000000000000000000000602080830191909152602d80830189905283518084039091018152604d909201928390528151600160a060020a03909416955063e2b202bf9450909282918401908083835b602083106124015780518252601f1990920191602091820191016123e2565b5181516020939093036101000a60001901801990911692169190911790526040805191909301819003812063ffffffff871660e060020a0282526004820152915160248084019550600094509092839003019050818387803b15801561246657600080fd5b505af115801561247a573d6000803e3d6000fd5b5050600054604080517f61737365744d616e616765724665650000000000000000000000000000000000602080830191909152602f80830189905283518084039091018152604f909201928390528151600160a060020a03909416955063e2b202bf9450909282918401908083835b602083106125085780518252601f1990920191602091820191016124e9565b5181516020939093036101000a60001901801990911692169190911790526040805191909301819003812063ffffffff871660e060020a0282526004820152915160248084019550600094509092839003019050818387803b15801561256d57600080fd5b505af1158015612581573d6000803e3d6000fd5b50600195945050505050565b60008054604080517f6f70657261746f7200000000000000000000000000000000000000000000000060208083019190915260288083018890528351808403909101815260489092019283905281518594859485948594600160a060020a03909316936304f49a3a939192918291908401908083835b602083106126225780518252601f199092019160209182019101612603565b51815160209384036101000a60001901801990921691161790526040805192909401829003822063ffffffff881660e060020a0283526004830152925160248083019650939450929083900301905081600087803b15801561268357600080fd5b505af1158015612697573d6000803e3d6000fd5b505050506040513d60208110156126ad57600080fd5b5051600054604080517f706c6174666f726d57616c6c65740000000000000000000000000000000000006020828101919091528251808303600e018152602e909201928390528151949850600160a060020a03909316936304f49a3a939192918291908401908083835b602083106127365780518252601f199092019160209182019101612717565b51815160209384036101000a60001901801990921691161790526040805192909401829003822063ffffffff881660e060020a0283526004830152925160248083019650939450929083900301905081600087803b15801561279757600080fd5b505af11580156127ab573d6000803e3d6000fd5b505050506040513d60208110156127c157600080fd5b50519250600160a060020a038416158015906127e55750600160a060020a03831615155b1515612861576040805160e560020a62461bcd02815260206004820152602360248201527f4f70657261746f72206f7220706c6174666f726d2077616c6c6574206e6f742060448201527f7365740000000000000000000000000000000000000000000000000000000000606482015290519081900360840190fd5b612883606461287788606363ffffffff6129da16565b9063ffffffff612a1016565b9150612895868363ffffffff61225616565b604051909150600160a060020a0384169082156108fc029083906000818181858888f193505050501580156128ce573d6000803e3d6000fd5b50604051600160a060020a0385169083156108fc029084906000818181858888f19350505050158015612905573d6000803e3d6000fd5b50600154604080517f68b96270000000000000000000000000000000000000000000000000000000008152306024820152600160a060020a038781166044830152606482018a9052608482018b905260a06004830152600c60a48301527f4173736574207061796f7574000000000000000000000000000000000000000060c4830152915191909216916368b962709160e480830192600092919082900301818387803b1580156129b557600080fd5b505af11580156129c9573d6000803e3d6000fd5b5060019a9950505050505050505050565b6000808315156129ed5760009150612a09565b508282028284828115156129fd57fe5b0414612a0557fe5b8091505b5092915050565b60008183811515612a1d57fe5b0493925050505600746f6b656e41646472657373000000000000000000000000000000000000000066756e64696e67446561646c696e650000000000000000000000000000000000a165627a7a7230582005452414e51a30b13b12d2078535b1ff2db715ea69a5d9af69a0aa4e7b1f82950029",
  "source": "pragma solidity ^0.4.24;\n\nimport \"../math/SafeMath.sol\";\nimport \"../interfaces/ERC20.sol\";\nimport \"../interfaces/EtherDividendInterface.sol\";\n// import \"../access/ERC20Burner.sol\";\n\ninterface Events {  function transaction(string _message, address _from, address _to, uint _amount, bytes32 _id)  external; }\ninterface DB {\n  function addressStorage(bytes32 _key) external view returns (address);\n  function uintStorage(bytes32 _key) external view returns (uint);\n  function deleteUint(bytes32 _key) external;\n  function setBool(bytes32 _key, bool _value) external;\n  function boolStorage(bytes32 _key) external view returns (bool);\n}\n\n// @title An asset crowdsale contract, which accepts Ether for funding.\n// @author Kyle Dewhurst & Peter Phillips, MyBit Foundation\n// @notice Starts a new crowdsale and returns asset dividend tokens for Wei received.\n// @dev The AssetManager\ncontract CrowdsaleETH {\n    using SafeMath for uint256;\n\n    DB public database;\n    Events public events;\n    // ERC20Burner public burner;\n\n    // @notice Constructor: Initiates the database\n    // @param: The address for the database contract\n    constructor(address _database, address _events)\n    public {\n        database = DB(_database);\n        events = Events(_events);\n        // burner = ERC20Burner(database.addressStorage(keccak256(abi.encodePacked(\"contract\", \"ERC20Burner\"))));\n    }\n\n\n    // @notice Investors can send Ether here to fund asset, receiving an equivalent number of asset-tokens.\n    // @param (bytes32) _assetID = The ID of the asset which completed the crowdsale\n    function buyAssetOrderETH(bytes32 _assetID, address _investor)\n    external\n    payable\n    requiresEther\n    validAsset(_assetID)\n    betweenDeadlines(_assetID)\n    notFinalized(_assetID)\n    // burnRequired\n    returns (bool) {\n      require(msg.sender == _investor || database.boolStorage(keccak256(abi.encodePacked(\"approval\", _investor, msg.sender, address(this), msg.sig))));\n      EtherDividendInterface assetToken = EtherDividendInterface(database.addressStorage(keccak256(abi.encodePacked(\"tokenAddress\", _assetID))));\n      uint amountToRaise = database.uintStorage(keccak256(abi.encodePacked(\"amountToRaise\", _assetID)));\n      uint tokensRemaining = amountToRaise.sub(assetToken.totalSupply());\n      if (msg.value >= tokensRemaining) {\n        // Give assetManager his portion of tokens\n        require(assetToken.mint(database.addressStorage(keccak256(abi.encodePacked(\"contract\", \"AssetManagerFunds\"))), database.uintStorage(keccak256(abi.encodePacked(\"assetManagerFee\", _assetID)))), \"Asset manager tokens not minted\");\n        require(finalizeCrowdsale(_assetID));    // delete unnecessary variables\n        require(assetToken.mint(_investor, tokensRemaining), \"Investor tokens not minted\");   // Send remaining asset tokens\n        require(assetToken.finishMinting(), \"Minting not finished\");\n        require(payoutETH(_assetID, amountToRaise), \"Payout failed\");          // 1 token = 1 wei\n        msg.sender.transfer(msg.value.sub(tokensRemaining));     // Return leftover WEI after cost of tokens calculated and subtracted from msg.value to msg.sender *NOT _investor\n      }\n      else {\n        require(assetToken.mint(_investor, msg.value), \"Investor tokens not minted\");\n      }\n      events.transaction('Asset purchased', _investor, address(this), msg.value, _assetID);\n      return true;\n    }\n\n\n    // @notice Contributors can retrieve their funds here if crowdsale has paased deadline and not reached its goal\n    // @param (bytes32) _assetID = The ID of the asset which completed the crowdsale\n    function refund(bytes32 _assetID)\n    external\n    whenNotPaused\n    validAsset(_assetID)\n    afterDeadline(_assetID)\n    notFinalized(_assetID)\n    returns (bool) {\n      require(database.uintStorage(keccak256(abi.encodePacked(\"fundingDeadline\", _assetID))) != 0);\n      database.deleteUint(keccak256(abi.encodePacked(\"fundingDeadline\", _assetID)));\n      database.deleteUint(keccak256(abi.encodePacked(\"investorSupply\", _assetID)));\n      EtherDividendInterface assetToken = EtherDividendInterface(database.addressStorage(keccak256(abi.encodePacked(\"tokenAddress\", _assetID))));\n      uint refundValue = assetToken.totalSupply(); //token=wei\n      assetToken.issueDividends.value(refundValue)();\n      return true;\n    }\n\n    // @notice platform owners can recover tokens here\n    function recoverTokens(address _erc20Token)\n    onlyOwner\n    external {\n      ERC20 thisToken = ERC20(_erc20Token);\n      uint contractBalance = thisToken.balanceOf(address(this));\n      thisToken.transfer(msg.sender, contractBalance);\n    }\n\n    // @notice platform owners can destroy contract here\n    function destroy()\n    onlyOwner\n    external {\n      events.transaction('CrowdsaleETH destroyed', address(this), msg.sender, address(this).balance, '');\n      selfdestruct(msg.sender);\n    }\n\n    // @notice fallback function: reject ether\n    function ()\n    public\n    payable {\n      revert();\n    }\n\n    //------------------------------------------------------------------------------------------------------------------\n    //                                            Internal Functions\n    //------------------------------------------------------------------------------------------------------------------\n\n    // @notice This is called once funding has succeeded. Sends Ether to a distribution contract where operator & assetManager can withdraw\n    // @dev The contract manager needs to know  the address PlatformDistribution contract\n    // @param (bytes32) _assetID = The ID of the asset which completed the crowdsale\n    // @param (uint) _amount = The amount of WEI to be sent to the platform + the operator\n    function payoutETH(bytes32 _assetID, uint _amount)\n    internal\n    returns (bool) {\n      address operator = database.addressStorage(keccak256(abi.encodePacked(\"operator\", _assetID)));\n      address platformWallet = database.addressStorage(keccak256(abi.encodePacked(\"platformWallet\")));\n      require(operator != address(0) && platformWallet != address(0), \"Operator or platform wallet not set\");\n      uint operatorPortion = _amount.mul(99).div(100);\n      uint platformPortion = _amount.sub(operatorPortion);\n      platformWallet.transfer(platformPortion);\n      operator.transfer(operatorPortion);\n      events.transaction('Asset payout', address(this), operator, _amount, _assetID);\n      return true;\n    }\n\n    // @notice internal function for freeing up storage after crowdsale finishes\n    // @param the ID of this asset.\n    function finalizeCrowdsale(bytes32 _assetID)\n    internal\n    returns (bool) {\n        database.setBool(keccak256(abi.encodePacked(\"crowdsaleFinalized\", _assetID)), true);\n        database.deleteUint(keccak256(abi.encodePacked(\"amountToRaise\", _assetID)));     // This is now represented as totalSupply in the asset-token\n        database.deleteUint(keccak256(abi.encodePacked(\"assetManagerFee\", _assetID)));   // This is now represented as tokens in AssetManagerFunds.sol\n        return true;\n    }\n\n\n    //------------------------------------------------------------------------------------------------------------------\n    //                                            Modifiers\n    //------------------------------------------------------------------------------------------------------------------\n\n\n    // @notice Requires that Ether is sent with the transaction\n    modifier requiresEther() {\n      require(msg.value > 0);\n      _;\n    }\n\n    // @notice Sender must be a registered owner\n    modifier onlyOwner {\n      require(database.boolStorage(keccak256(abi.encodePacked(\"owner\", msg.sender))), \"Not owner\");\n      _;\n    }\n\n    // // @notice reverts if investor hasn't approved burner to burn platform token\n    // modifier burnRequired {\n    //   require(burner.burn(msg.sender, database.uintStorage(keccak256(abi.encodePacked(msg.sig, address(this))))), \"Burn failed\");\n    //   _;\n    // }\n\n    // @notice function won't run if owners have paused this contract\n    modifier whenNotPaused {\n      require(!database.boolStorage(keccak256(abi.encodePacked(\"paused\", address(this)))), \"Contract paused\");\n      _;\n    }\n\n    // @notice reverts if the asset does not have a token address set in the database\n    modifier validAsset(bytes32 _assetID) {\n      require(database.addressStorage(keccak256(abi.encodePacked(\"tokenAddress\", _assetID))) != address(0), \"Invalid asset ID\");\n      _;\n    }\n\n    // @notice reverts if the funding deadline has already past\n    modifier betweenDeadlines(bytes32 _assetID) {\n      require(now <= database.uintStorage(keccak256(abi.encodePacked(\"fundingDeadline\", _assetID))), \"Past deadline\");\n      require(now >= database.uintStorage(keccak256(abi.encodePacked(\"startTime\", _assetID))), \"Before start time\");\n      _;\n    }\n\n    // @notice reverts if the funding deadline has already past\n    modifier afterDeadline(bytes32 _assetID) {\n      require(now > database.uintStorage(keccak256(abi.encodePacked(\"fundingDeadline\", _assetID))), \"Deadline not past\");\n      _;\n    }\n\n    // @notice returns true if crowdsale is not finshed\n    modifier notFinalized(bytes32 _assetID) {\n      require( !database.boolStorage(keccak256(abi.encodePacked(\"crowdsaleFinalized\", _assetID))), \"Crowdsale not finalized\");\n      _;\n    }\n\n  }\n",
  "sourcePath": "/home/peter/Documents/Work/MyBit/MyBit-Network.tech/contracts/crowdsale/CrowdsaleETH.sol",
  "compiler": {
    "name": "solc",
    "version": "0.4.25+commit.59dbf8f1.Emscripten.clang"
  },
  "schemaVersion": "3.0.0-beta.0",
  "updatedAt": "2018-12-06T01:19:16.610Z"
}