{
  "contractName": "CrowdsaleGeneratorETH",
  "abi": [
    {
      "constant": true,
      "inputs": [],
      "name": "database",
      "outputs": [
        {
          "name": "",
          "type": "address"
        }
      ],
      "payable": false,
      "stateMutability": "view",
      "type": "function"
    },
    {
      "constant": true,
      "inputs": [],
      "name": "events",
      "outputs": [
        {
          "name": "",
          "type": "address"
        }
      ],
      "payable": false,
      "stateMutability": "view",
      "type": "function"
    },
    {
      "inputs": [
        {
          "name": "_database",
          "type": "address"
        },
        {
          "name": "_events",
          "type": "address"
        },
        {
          "name": "_kyber",
          "type": "address"
        }
      ],
      "payable": false,
      "stateMutability": "nonpayable",
      "type": "constructor"
    },
    {
      "constant": false,
      "inputs": [
        {
          "name": "_assetURI",
          "type": "string"
        },
        {
          "name": "_assetManager",
          "type": "address"
        },
        {
          "name": "_operatorID",
          "type": "bytes32"
        },
        {
          "name": "_fundingLength",
          "type": "uint256"
        },
        {
          "name": "_startTime",
          "type": "uint256"
        },
        {
          "name": "_amountToRaise",
          "type": "uint256"
        },
        {
          "name": "_assetManagerPerc",
          "type": "uint256"
        },
        {
          "name": "_escrow",
          "type": "uint256"
        },
        {
          "name": "_paymentToken",
          "type": "address"
        }
      ],
      "name": "createAssetOrderETH",
      "outputs": [
        {
          "name": "",
          "type": "bool"
        }
      ],
      "payable": true,
      "stateMutability": "payable",
      "type": "function"
    },
    {
      "constant": false,
      "inputs": [],
      "name": "destroy",
      "outputs": [],
      "payable": false,
      "stateMutability": "nonpayable",
      "type": "function"
    }
  ],
  "bytecode": "0x608060405234801561001057600080fd5b5060405160608061402783398101604090815281516020830151919092015160008054600160a060020a0319908116600160a060020a03958616178255600180548216948616949094179093556002805490931693909116929092179055613fa990819061007e90396000f3006080604052600436106200004d5763ffffffff60e060020a60003504166329eddadf811462000052578063713b563f14620000a857806383197ef014620000dc578063b5f8558c14620000f6575b600080fd5b620000946024600480358281019291013590600160a060020a03903581169060443590606435906084359060a4359060c4359060e4359061010435166200010e565b604080519115158252519081900360200190f35b348015620000b557600080fd5b50620000c062000c80565b60408051600160a060020a039092168252519081900360200190f35b348015620000e957600080fd5b50620000f462000c8f565b005b3480156200010357600080fd5b50620000c062000ecb565b60008080600160a060020a03841673eeeeeeeeeeeeeeeeeeeeeeeeeeeeeeeeeeeeeeee14156200014b573485146200014557600080fd5b62000157565b34156200015757600080fd5b33600160a060020a038c1614806200035957506000809054906101000a9004600160a060020a0316600160a060020a0316633b7bfda08c33306000357fffffffff000000000000000000000000000000000000000000000000000000001660405160200180807f617070726f76616c00000000000000000000000000000000000000000000000081525060080185600160a060020a0316600160a060020a0316606060020a02815260140184600160a060020a0316600160a060020a0316606060020a02815260140183600160a060020a0316600160a060020a0316606060020a028152601401827bffffffffffffffffffffffffffffffffffffffffffffffffffffffff19167bffffffffffffffffffffffffffffffffffffffffffffffffffffffff191681526004019450505050506040516020818303038152906040526040518082805190602001908083835b60208310620002c85780518252601f199092019160209182019101620002a7565b51815160209384036101000a60001901801990921691161790526040805192909401829003822063ffffffff881660e060020a0283526004830152925160248083019650939450929083900301905081600087803b1580156200032a57600080fd5b505af11580156200033f573d6000803e3d6000fd5b505050506040513d60208110156200035657600080fd5b50515b1515620003b0576040805160e560020a62461bcd02815260206004820152601160248201527f55736572206e6f7420617070726f766564000000000000000000000000000000604482015290519081900360640190fd5b60648710156200040a576040805160e560020a62461bcd02815260206004820152601b60248201527f43726f776473616c6520676f616c20697320746f6f20736d616c6c0000000000604482015290519081900360640190fd5b6064861062000489576040805160e560020a62461bcd02815260206004820152602860248201527f4d616e616765722070657263656e74206e65656420746f206265206c6573732060448201527f7468616e20313030000000000000000000000000000000000000000000000000606482015290519081900360840190fd5b600054604080517f6f70657261746f722e616363657074734574686572000000000000000000000060208083019190915260358083018f9052835180840390910181526055909201928390528151600160a060020a0390941693633b7bfda093918291908401908083835b60208310620005155780518252601f199092019160209182019101620004f4565b51815160209384036101000a60001901801990921691161790526040805192909401829003822063ffffffff881660e060020a0283526004830152925160248083019650939450929083900301905081600087803b1580156200057757600080fd5b505af11580156200058c573d6000803e3d6000fd5b505050506040513d6020811015620005a357600080fd5b50511515620005fc576040805160e560020a62461bcd02815260206004820152601e60248201527f4f70657261746f7220646f6573206e6f74206163636570742045746865720000604482015290519081900360640190fd5b6000600160a060020a03166000809054906101000a9004600160a060020a0316600160a060020a03166304f49a3a8c60405160200180807f6f70657261746f7200000000000000000000000000000000000000000000000081525060080182600019166000191681526020019150506040516020818303038152906040526040518082805190602001908083835b60208310620006ab5780518252601f1990920191602091820191016200068a565b51815160209384036101000a60001901801990921691161790526040805192909401829003822063ffffffff881660e060020a0283526004830152925160248083019650939450929083900301905081600087803b1580156200070d57600080fd5b505af115801562000722573d6000803e3d6000fd5b505050506040513d60208110156200073957600080fd5b5051600160a060020a031614156200079b576040805160e560020a62461bcd02815260206004820152601760248201527f4f70657261746f7220646f6573206e6f74206578697374000000000000000000604482015290519081900360640190fd5b6000809054906101000a9004600160a060020a0316600160a060020a0316633b7bfda08e8e60405160200180807f61737365742e75726900000000000000000000000000000000000000000000008152506009018383808284378201915050925050506040516020818303038152906040526040518082805190602001908083835b602083106200083e5780518252601f1990920191602091820191016200081d565b51815160209384036101000a60001901801990921691161790526040805192909401829003822063ffffffff881660e060020a0283526004830152925160248083019650939450929083900301905081600087803b158015620008a057600080fd5b505af1158015620008b5573d6000803e3d6000fd5b505050506040513d6020811015620008cc57600080fd5b50511562000924576040805160e560020a62461bcd02815260206004820152601760248201527f417373657420555249206973206e6f7420756e69717565000000000000000000604482015290519081900360640190fd5b4288101562000936574291506200093a565b8791505b8c8c6000809054906101000a9004600160a060020a0316600160a060020a03166304f49a3a60405160200180807f636f6e7472616374000000000000000000000000000000000000000000000000815250600801807f43726f776473616c654554480000000000000000000000000000000000000000815250600c0190506040516020818303038152906040526040518082805190602001908083835b60208310620009f85780518252601f199092019160209182019101620009d7565b51815160209384036101000a60001901801990921691161790526040805192909401829003822063ffffffff881660e060020a0283526004830152925160248083019650939450929083900301905081600087803b15801562000a5a57600080fd5b505af115801562000a6f573d6000803e3d6000fd5b505050506040513d602081101562000a8657600080fd5b505162000a9262002b2f565b600160a060020a03821660208201526040808252810183905280606081018585808284378201915050945050505050604051809103906000f08015801562000ade573d6000803e3d6000fd5b50905062000aef81838b8a62000eda565b151562000afb57600080fd5b62000b3d818e8e8080601f0160208091040260200160405190810160405280939291908181526020018383808284378201915050505050508c8e8a8c620014ad565b151562000b4957600080fd5b600085111562000b6d5762000b618b82868862001e59565b151562000b6d57600080fd5b600160009054906101000a9004600160a060020a0316600160a060020a03166378576a918e8e848f6040518563ffffffff1660e060020a02815260040180806020018060200185600160a060020a0316600160a060020a0316815260200184600160a060020a0316600160a060020a03168152602001838103835260158152602001807f41737365742066756e64696e6720737461727465640000000000000000000000815250602001838103825287878281815260200192508082843782019150509650505050505050600060405180830381600087803b15801562000c5357600080fd5b505af115801562000c68573d6000803e3d6000fd5b505050506001925050509a9950505050505050505050565b600054600160a060020a031681565b600054604080517f6f776e6572000000000000000000000000000000000000000000000000000000602080830191909152606060020a33026025830152825160198184030181526039909201928390528151600160a060020a0390941693633b7bfda093918291908401908083835b6020831062000d1f5780518252601f19909201916020918201910162000cfe565b51815160209384036101000a60001901801990921691161790526040805192909401829003822063ffffffff881660e060020a0283526004830152925160248083019650939450929083900301905081600087803b15801562000d8157600080fd5b505af115801562000d96573d6000803e3d6000fd5b505050506040513d602081101562000dad57600080fd5b5051151562000e06576040805160e560020a62461bcd02815260206004820152600960248201527f4e6f74206f776e65720000000000000000000000000000000000000000000000604482015290519081900360640190fd5b600154604080517f68b96270000000000000000000000000000000000000000000000000000000008152306024820181905233604483015231606482015260a06004820152601f60a48201527f43726f776473616c6547656e657261746f724554482064657374726f7965640060c48201529051600160a060020a03909216916368b962709160e48082019260009290919082900301818387803b15801562000eae57600080fd5b505af115801562000ec3573d6000803e3d6000fd5b503392505050ff5b600154600160a060020a031681565b60008054604080517f63726f776473616c652e73746172740000000000000000000000000000000000602080830191909152600160a060020a03898116606060020a02602f84015283518084036023018152604390930193849052825194169363e2a4853a93918291908401908083835b6020831062000f6c5780518252601f19909201916020918201910162000f4b565b5181516020939093036101000a60001901801990911692169190911790526040805191909301819003812063ffffffff871660e060020a0282526004820152602481018b9052915160448084019550600094509092839003019050818387803b15801562000fd957600080fd5b505af115801562000fee573d6000803e3d6000fd5b5050600054604080517f63726f776473616c652e646561646c696e650000000000000000000000000000602080830191909152600160a060020a038b8116606060020a0260328401528351808403602601815260469093019384905282519416955063e2a4853a9450909282918401908083835b60208310620010835780518252601f19909201916020918201910162001062565b6001836020036101000a0380198251168184511680821785525050505050509050019150506040518091039020620010c5868862002a9b90919063ffffffff16565b6040518363ffffffff1660e060020a02815260040180836000191660001916815260200182815260200192505050600060405180830381600087803b1580156200110e57600080fd5b505af115801562001123573d6000803e3d6000fd5b5050600054604080517f63726f776473616c652e676f616c000000000000000000000000000000000000602080830191909152600160a060020a038b8116606060020a02602e8401528351808403602201815260429093019384905282519416955063e2a4853a9450909282918401908083835b60208310620011b85780518252601f19909201916020918201910162001197565b5181516020939093036101000a60001901801990911692169190911790526040805191909301819003812063ffffffff871660e060020a028252600482015260248101899052915160448084019550600094509092839003019050818387803b1580156200122557600080fd5b505af11580156200123a573d6000803e3d6000fd5b5050600054604080517f63726f776473616c652e72656d61696e696e6700000000000000000000000000602080830191909152600160a060020a038b8116606060020a0260338401528351808403602701815260479093019384905282519416955063e2a4853a9450909282918401908083835b60208310620012cf5780518252601f199092019160209182019101620012ae565b51815160209384036101000a6000190180199092169116179052604080519290940182900382206000547f706c6174666f726d2e6665650000000000000000000000000000000000000000848401528551600c818603018152602c9094019586905283519197506200144096506064956200143395506200142594600160a060020a039092169363a855d4ce9382918401908083835b60208310620013865780518252601f19909201916020918201910162001365565b51815160209384036101000a60001901801990921691161790526040805192909401829003822063ffffffff881660e060020a0283526004830152925160248083019650939450929083900301905081600087803b158015620013e857600080fd5b505af1158015620013fd573d6000803e3d6000fd5b505050506040513d60208110156200141457600080fd5b505160649063ffffffff62002a9b16565b889063ffffffff62002ab616565b9063ffffffff62002ae516565b6040518363ffffffff1660e060020a02815260040180836000191660001916815260200182815260200192505050600060405180830381600087803b1580156200148957600080fd5b505af11580156200149e573d6000803e3d6000fd5b50600198975050505050505050565b60008054604080517f706c6174666f726d2e70657263656e74616765000000000000000000000000006020808301919091528251808303601301815260339092019283905281518594620015ff94620015ec94600160a060020a039092169363a855d4ce9382918401908083835b602083106200153c5780518252601f1990920191602091820191016200151b565b51815160209384036101000a60001901801990921691161790526040805192909401829003822063ffffffff881660e060020a0283526004830152925160248083019650939450929083900301905081600087803b1580156200159e57600080fd5b505af1158015620015b3573d6000803e3d6000fd5b505050506040513d6020811015620015ca57600080fd5b5051620015df60648863ffffffff62002afb16565b9063ffffffff62002afb16565b6200143385606463ffffffff62002ab616565b600054604080517f61737365742e6d616e61676572546f6b656e7300000000000000000000000000602080830191909152600160a060020a038d8116606060020a0260338401528351808403602701815260479093019384905282519596509093169363e2a4853a939192918291908401908083835b60208310620016965780518252601f19909201916020918201910162001675565b6001836020036101000a0380198251168184511680821785525050505050509050019150506040518091039020620016d8878562002b0e90919063ffffffff16565b6040518363ffffffff1660e060020a02815260040180836000191660001916815260200182815260200192505050600060405180830381600087803b1580156200172157600080fd5b505af115801562001736573d6000803e3d6000fd5b5050600054604080517f61737365742e706c6174666f726d546f6b656e73000000000000000000000000602080830191909152600160a060020a038e8116606060020a0260348401528351808403602801815260489093019384905282519416955063e2a4853a9450909282918401908083835b60208310620017cb5780518252601f199092019160209182019101620017aa565b51815160209384036101000a6000190180199092169116179052604080519290940182900382206000547f706c6174666f726d2e70657263656e746167650000000000000000000000000084840152855160138186030181526033909401958690528351919750620019139650600160a060020a03169463a855d4ce9450918291908401908083835b60208310620018755780518252601f19909201916020918201910162001854565b51815160209384036101000a60001901801990921691161790526040805192909401829003822063ffffffff881660e060020a0283526004830152925160248083019650939450929083900301905081600087803b158015620018d757600080fd5b505af1158015620018ec573d6000803e3d6000fd5b505050506040513d60208110156200190357600080fd5b5051859063ffffffff62002b0e16565b6040518363ffffffff1660e060020a02815260040180836000191660001916815260200182815260200192505050600060405180830381600087803b1580156200195c57600080fd5b505af115801562001971573d6000803e3d6000fd5b5050600054604080517f61737365742e6d616e6167657200000000000000000000000000000000000000602080830191909152600160a060020a038e8116606060020a02602d8401528351808403602101815260419093019384905282519416955063ca446dd99450909282918401908083835b6020831062001a065780518252601f199092019160209182019101620019e5565b5181516020939093036101000a60001901801990911692169190911790526040805191909301819003812063ffffffff871660e060020a0282526004820152600160a060020a038c166024820152915160448084019550600094509092839003019050818387803b15801562001a7b57600080fd5b505af115801562001a90573d6000803e3d6000fd5b5050600054604080517f61737365742e6f70657261746f72000000000000000000000000000000000000602080830191909152600160a060020a038e8116606060020a02602e8401528351808403602201815260429093019384905282519416955063ca446dd99450909282918401908083835b6020831062001b255780518252601f19909201916020918201910162001b04565b6001836020036101000a03801982511681845116808217855250505050505090500191505060405180910390206000809054906101000a9004600160a060020a0316600160a060020a03166304f49a3a8a60405160200180807f6f70657261746f7200000000000000000000000000000000000000000000000081525060080182600019166000191681526020019150506040516020818303038152906040526040518082805190602001908083835b6020831062001bf65780518252601f19909201916020918201910162001bd5565b51815160209384036101000a60001901801990921691161790526040805192909401829003822063ffffffff881660e060020a0283526004830152925160248083019650939450929083900301905081600087803b15801562001c5857600080fd5b505af115801562001c6d573d6000803e3d6000fd5b505050506040513d602081101562001c8457600080fd5b50516040805160e060020a63ffffffff86160281526004810193909352600160a060020a03909116602483015251604480830192600092919082900301818387803b15801562001cd357600080fd5b505af115801562001ce8573d6000803e3d6000fd5b50506000546040517f61737365742e757269000000000000000000000000000000000000000000000060208083019182528c51600160a060020a03909416955063abfdcced94508c93919260290191908401908083835b6020831062001d605780518252601f19909201916020918201910162001d3f565b6001836020036101000a0380198251168184511680821785525050505050509050019150506040516020818303038152906040526040518082805190602001908083835b6020831062001dc55780518252601f19909201916020918201910162001da4565b5181516020939093036101000a60001901801990911692169190911790526040805191909301819003812063ffffffff871660e060020a028252600482015260016024820152915160448084019550600094509092839003019050818387803b15801562001e3257600080fd5b505af115801562001e47573d6000803e3d6000fd5b5060019b9a5050505050505050505050565b6000806000806000806000898b6040516020018083600160a060020a0316600160a060020a0316606060020a02815260140182600160a060020a0316600160a060020a0316606060020a028152601401925050506040516020818303038152906040526040518082805190602001908083835b6020831062001eed5780518252601f19909201916020918201910162001ecc565b51815160209384036101000a6000190180199092169116179052604080519290940182900382206000547f706c6174666f726d2e746f6b656e000000000000000000000000000000000000848401528551600e818603018152602e909401958690528351919c50600160a060020a031696506304f49a3a9550919392508291908401908083835b6020831062001f955780518252601f19909201916020918201910162001f74565b51815160209384036101000a60001901801990921691161790526040805192909401829003822063ffffffff881660e060020a0283526004830152925160248083019650939450929083900301905081600087803b15801562001ff757600080fd5b505af11580156200200c573d6000803e3d6000fd5b505050506040513d60208110156200202357600080fd5b50519350600160a060020a03898116908516146200269457604080517f70a082310000000000000000000000000000000000000000000000000000000081523060048201529051859450600160a060020a038516916370a082319160248083019260209291908290030181600087803b158015620020a057600080fd5b505af1158015620020b5573d6000803e3d6000fd5b505050506040513d6020811015620020cc57600080fd5b50519150600160a060020a03891673eeeeeeeeeeeeeeeeeeeeeeeeeeeeeeeeeeeeeeee1415620021e057600254604080517fcb3c28c7000000000000000000000000000000000000000000000000000000008152600160a060020a038c81166004830152602482018c905287811660448301523060648301527f80000000000000000000000000000000000000000000000000000000000000006084830152600060a4830181905260c48301529151919092169163cb3c28c7918b9160e48082019260209290919082900301818588803b158015620021aa57600080fd5b505af1158015620021bf573d6000803e3d6000fd5b50505050506040513d6020811015620021d757600080fd5b506200241b9050565b50604080517f23b872dd000000000000000000000000000000000000000000000000000000008152600160a060020a038c81166004830152306024830152604482018a905291518a928316916323b872dd9160648083019260209291908290030181600087803b1580156200225457600080fd5b505af115801562002269573d6000803e3d6000fd5b505050506040513d60208110156200228057600080fd5b505115156200228e57600080fd5b600254604080517f095ea7b3000000000000000000000000000000000000000000000000000000008152600160a060020a039283166004820152602481018b905290519183169163095ea7b3916044808201926020929091908290030181600087803b158015620022fe57600080fd5b505af115801562002313573d6000803e3d6000fd5b505050506040513d60208110156200232a57600080fd5b505115156200233857600080fd5b600254604080517fcb3c28c7000000000000000000000000000000000000000000000000000000008152600160a060020a038c81166004830152602482018c905287811660448301523060648301527f80000000000000000000000000000000000000000000000000000000000000006084830152600060a4830181905260c48301819052925193169263cb3c28c79260e480840193602093929083900390910190829087803b158015620023ec57600080fd5b505af115801562002401573d6000803e3d6000fd5b505050506040513d60208110156200241857600080fd5b50505b604080517f70a082310000000000000000000000000000000000000000000000000000000081523060048201529051620024bf918491600160a060020a038716916370a082319160248083019260209291908290030181600087803b1580156200248457600080fd5b505af115801562002499573d6000803e3d6000fd5b505050506040513d6020811015620024b057600080fd5b50519063ffffffff62002afb16565b600054604080517f636f6e74726163740000000000000000000000000000000000000000000000006020808301919091527f41737365744d616e61676572457363726f77000000000000000000000000000060288301528251601a818403018152603a909201928390528151949a50600160a060020a038089169563a9059cbb95909116936304f49a3a9392909182918401908083835b60208310620025775780518252601f19909201916020918201910162002556565b51815160209384036101000a60001901801990921691161790526040805192909401829003822063ffffffff881660e060020a0283526004830152925160248083019650939450929083900301905081600087803b158015620025d957600080fd5b505af1158015620025ee573d6000803e3d6000fd5b505050506040513d60208110156200260557600080fd5b50516040805160e060020a63ffffffff8516028152600160a060020a039092166004830152602482018a90525160448083019260209291908290030181600087803b1580156200265457600080fd5b505af115801562002669573d6000803e3d6000fd5b505050506040513d60208110156200268057600080fd5b505115156200268e57600080fd5b62002883565b87955083600160a060020a03166323b872dd8c6000809054906101000a9004600160a060020a0316600160a060020a03166304f49a3a60405160200180807f636f6e7472616374000000000000000000000000000000000000000000000000815250600801807f41737365744d616e61676572457363726f77000000000000000000000000000081525060120190506040516020818303038152906040526040518082805190602001908083835b60208310620027635780518252601f19909201916020918201910162002742565b51815160209384036101000a60001901801990921691161790526040805192909401829003822063ffffffff881660e060020a0283526004830152925160248083019650939450929083900301905081600087803b158015620027c557600080fd5b505af1158015620027da573d6000803e3d6000fd5b505050506040513d6020811015620027f157600080fd5b50516040805160e060020a63ffffffff8616028152600160a060020a039384166004820152929091166024830152604482018a90525160648083019260209291908290030181600087803b1580156200284957600080fd5b505af11580156200285e573d6000803e3d6000fd5b505050506040513d60208110156200287557600080fd5b505115156200288357600080fd5b600054604080517f61737365742e657363726f770000000000000000000000000000000000000000602080830191909152602c8083018a905283518084039091018152604c909201928390528151600160a060020a039094169363e2a4853a93918291908401908083835b602083106200290f5780518252601f199092019160209182019101620028ee565b5181516020939093036101000a60001901801990911692169190911790526040805191909301819003812063ffffffff871660e060020a0282526004820152602481018d9052915160448084019550600094509092839003019050818387803b1580156200297c57600080fd5b505af115801562002991573d6000803e3d6000fd5b50505050600160009054906101000a9004600160a060020a0316600160a060020a0316630b94df4c8b878e8a6040518563ffffffff1660e060020a028152600401808060200186600160a060020a0316600160a060020a03168152602001856000191660001916815260200184600160a060020a0316600160a060020a031681526020018381526020018281038252600d8152602001807f457363726f77206c6f636b65640000000000000000000000000000000000000081525060200195505050505050600060405180830381600087803b15801562002a7157600080fd5b505af115801562002a86573d6000803e3d6000fd5b5060019e9d5050505050505050505050505050565b60008282018381101562002aab57fe5b8091505b5092915050565b60008083151562002acb576000915062002aaf565b5082820282848281151562002adc57fe5b041462002aab57fe5b6000818381151562002af357fe5b049392505050565b60008282111562002b0857fe5b50900390565b600062002b2862002b20848462002ab6565b606462002ae5565b9392505050565b60405161143d8062002b4183390190560060806040523480156200001157600080fd5b506040516200143d3803806200143d83398101604052805160208083015191909201805190928391829160129185916200005191600391860190620000b0565b50825162000067906004906020860190620000b0565b5060058054600060025560ff90931660ff19600160a060020a0390931662010000026201000060b060020a03199094169390931791909116919091179055506200015592505050565b828054600181600116156101000203166002900490600052602060002090601f016020900481019282601f10620000f357805160ff191683800117855562000123565b8280016001018555821562000123579182015b828111156200012357825182559160200191906001019062000106565b506200013192915062000135565b5090565b6200015291905b808211156200013157600081556001016200013c565b90565b6112d880620001656000396000f30060806040526004361061013d5763ffffffff7c010000000000000000000000000000000000000000000000000000000060003504166305d2035b81146101d257806306fdde03146101fb578063095ea7b31461028557806318160ddd146102a957806323b872dd146102d05780632ba1b3a1146102fa578063313ce5671461030f5780633bdfa9201461033a5780633ccfd60b1461035b57806340c10f19146103705780634ece90a81461039457806366188463146103c557806370a08231146103e95780637d64bcb41461040a57806395d89b411461041f578063a8fa8e5214610434578063a9059cbb14610449578063b5a83d431461046d578063cae9ca511461048e578063d4a19116146104f7578063d73dd6231461050c578063dd62ed3e14610530578063eba74e5c14610557578063efcb5dea1461055f575b600754610150903463ffffffff61058016565b600755600254610197906101889061017c346d04ee2d6d415b85acef810000000063ffffffff61059a16565b9063ffffffff6105c516565b6006549063ffffffff61058016565b60065560408051348152905133917fe3166012cb87b3dec8e117fe0e096a47387f94ea2ec12086ed8ae24ff8c237fe919081900360200190a2005b3480156101de57600080fd5b506101e76105da565b604080519115158252519081900360200190f35b34801561020757600080fd5b506102106105e8565b6040805160208082528351818301528351919283929083019185019080838360005b8381101561024a578181015183820152602001610232565b50505050905090810190601f1680156102775780820380516001836020036101000a031916815260200191505b509250505060405180910390f35b34801561029157600080fd5b506101e7600160a060020a0360043516602435610676565b3480156102b557600080fd5b506102be6106ca565b60408051918252519081900360200190f35b3480156102dc57600080fd5b506101e7600160a060020a03600435811690602435166044356106d0565b34801561030657600080fd5b506102be610791565b34801561031b57600080fd5b50610324610797565b6040805160ff9092168252519081900360200190f35b34801561034657600080fd5b506102be600160a060020a03600435166107a0565b34801561036757600080fd5b506101e76107ec565b34801561037c57600080fd5b506101e7600160a060020a03600435166024356108cf565b3480156103a057600080fd5b506103a96109de565b60408051600160a060020a039092168252519081900360200190f35b3480156103d157600080fd5b506101e7600160a060020a03600435166024356109e3565b3480156103f557600080fd5b506102be600160a060020a0360043516610ac0565b34801561041657600080fd5b506101e7610adb565b34801561042b57600080fd5b50610210610b26565b34801561044057600080fd5b506102be610b81565b34801561045557600080fd5b506101e7600160a060020a0360043516602435610b87565b34801561047957600080fd5b506102be600160a060020a0360043516610c21565b34801561049a57600080fd5b50604080516020600460443581810135601f81018490048402850184019095528484526101e7948235600160a060020a0316946024803595369594606494920191908190840183828082843750949750610c339650505050505050565b34801561050357600080fd5b50610210610de9565b34801561051857600080fd5b506101e7600160a060020a0360043516602435610e7f565b34801561053c57600080fd5b506102be600160a060020a0360043581169060243516610f06565b6101e7610f31565b34801561056b57600080fd5b506102be600160a060020a0360043516610fb2565b60008282018381101561058f57fe5b8091505b5092915050565b6000808315156105ad5760009150610593565b508282028284828115156105bd57fe5b041461058f57fe5b600081838115156105d257fe5b049392505050565b600554610100900460ff1681565b6003805460408051602060026001851615610100026000190190941693909304601f8101849004840282018401909252818152929183018282801561066e5780601f106106435761010080835404028352916020019161066e565b820191906000526020600020905b81548152906001019060200180831161065157829003601f168201915b505050505081565b336000818152600160209081526040808320600160a060020a0387168085529083528184208690558151868152915193949093909260008051602061128d833981519152928290030190a350600192915050565b60025490565b6000836107046106df82610fc4565b600160a060020a0383166000908152600860205260409020549063ffffffff61058016565b600160a060020a0382166000908152600860209081526040808320939093556006546009909152919020558361073c6106df82610fc4565b600160a060020a03808316600090815260086020908152604080832094909455600654600990915292902091909155851630141561077957600080fd5b610784868686611026565b5060019695505050505050565b60075481565b60055460ff1690565b600160a060020a0381166000908152600860205260408120546107e6906d04ee2d6d415b85acef81000000009061017c906107da86610fc4565b9063ffffffff61058016565b92915050565b600080336107fc6106df82610fc4565b600160a060020a038216600090815260086020818152604080842094909455600654600982528484205533835252205461084a906d04ee2d6d415b85acef810000000063ffffffff6105c516565b336000818152600860209081526040808320929092558151928352820183905280519294507ff5b510c554f6c572235f7e531ec8f287b350b15c212250b993180473a6aeb7d192918290030190a1604051339083156108fc029084906000818181858888f193505050501580156108c5573d6000803e3d6000fd5b5060019250505090565b600554600090610100900460ff161580156108fa5750600554620100009004600160a060020a031633145b151561090557600080fd5b600254610918908363ffffffff61058016565b600255600160a060020a038316600090815260208190526040902054610944908363ffffffff61058016565b600160a060020a03841660008181526020818152604091829020939093558051858152905191927f0f6798a560793a54c3bcfe86a93cde1e73087d944c0ea20544137d412139688592918290030190a2604080518381529051600160a060020a038516916000917fddf252ad1be2c89b69c2b068fc378daa952ba7f163c4a11628f55a4df523b3ef9181900360200190a350600192915050565b600090565b336000908152600160209081526040808320600160a060020a0386168452909152812054808310610a3757336000908152600160209081526040808320600160a060020a0388168452909152812055610a6c565b610a47818463ffffffff61119b16565b336000908152600160209081526040808320600160a060020a03891684529091529020555b336000818152600160209081526040808320600160a060020a03891680855290835292819020548151908152905192939260008051602061128d833981519152929181900390910190a35060019392505050565b600160a060020a031660009081526020819052604090205490565b600554600090610100900460ff16158015610b065750600554620100009004600160a060020a031633145b1515610b1157600080fd5b506005805461ff001916610100179055600190565b6004805460408051602060026001851615610100026000190190941693909304601f8101849004840282018401909252818152929183018282801561066e5780601f106106435761010080835404028352916020019161066e565b60065481565b600033610b966106df82610fc4565b600160a060020a03821660009081526008602090815260408083209390935560065460099091529190205583610bce6106df82610fc4565b600160a060020a038083166000908152600860209081526040808320949094556006546009909152929020919091558516301415610c0b57600080fd5b610c1585856111ad565b50600195945050505050565b60086020526000908152604090205481565b600033610c426106df82610fc4565b600160a060020a03821660009081526008602090815260408083209390935560065460099091529190205584610c7a6106df82610fc4565b600160a060020a0380831660009081526008602090815260408083209490945560065460098252848320553380835260018252848320938b1680845293825291849020899055835189815293519293919260008051602061128d8339815191529281900390910190a36040517f8f4ffcb10000000000000000000000000000000000000000000000000000000081523360048201818152602483018890523060448401819052608060648501908152885160848601528851600160a060020a038c1695638f4ffcb195948c94938c939192909160a490910190602085019080838360005b83811015610d76578181015183820152602001610d5e565b50505050905090810190601f168015610da35780820380516001836020036101000a031916815260200191505b5095505050505050600060405180830381600087803b158015610dc557600080fd5b505af1158015610dd9573d6000803e3d6000fd5b5060019998505050505050505050565b60038054604080516020601f6002600019610100600188161502019095169490940493840181900481028201810190925282815260609390929091830182828015610e755780601f10610e4a57610100808354040283529160200191610e75565b820191906000526020600020905b815481529060010190602001808311610e5857829003601f168201915b5050505050905090565b336000908152600160209081526040808320600160a060020a0386168452909152812054610eb3908363ffffffff61058016565b336000818152600160209081526040808320600160a060020a03891680855290835292819020859055805194855251919360008051602061128d833981519152929081900390910190a350600192915050565b600160a060020a03918216600090815260016020908152604080832093909416825291909152205490565b600754600090610f47903463ffffffff61058016565b600755600254610f73906101889061017c346d04ee2d6d415b85acef810000000063ffffffff61059a16565b60065560408051348152905133917fe3166012cb87b3dec8e117fe0e096a47387f94ea2ec12086ed8ae24ff8c237fe919081900360200190a250600190565b60096020526000908152604090205481565b600160a060020a0381166000908152600960205260408120546006548291610ff2919063ffffffff61119b16565b600160a060020a03841660009081526020819052604090205490915061101f90829063ffffffff61059a16565b9392505050565b600160a060020a03831660009081526020819052604081205482111561104b57600080fd5b600160a060020a038416600090815260016020908152604080832033845290915290205482111561107b57600080fd5b600160a060020a038316151561109057600080fd5b600160a060020a0384166000908152602081905260409020546110b9908363ffffffff61119b16565b600160a060020a0380861660009081526020819052604080822093909355908516815220546110ee908363ffffffff61058016565b600160a060020a03808516600090815260208181526040808320949094559187168152600182528281203382529091522054611130908363ffffffff61119b16565b600160a060020a03808616600081815260016020908152604080832033845282529182902094909455805186815290519287169391927fddf252ad1be2c89b69c2b068fc378daa952ba7f163c4a11628f55a4df523b3ef929181900390910190a35060019392505050565b6000828211156111a757fe5b50900390565b336000908152602081905260408120548211156111c957600080fd5b600160a060020a03831615156111de57600080fd5b336000908152602081905260409020546111fe908363ffffffff61119b16565b3360009081526020819052604080822092909255600160a060020a03851681522054611230908363ffffffff61058016565b600160a060020a038416600081815260208181526040918290209390935580518581529051919233927fddf252ad1be2c89b69c2b068fc378daa952ba7f163c4a11628f55a4df523b3ef9281900390910190a35060019291505056008c5be1e5ebec7d5bd14f71427d1e84f3dd0314c0f7b2291e5b200ac8c7c3b925a165627a7a723058205e480572016f7e8cfbb6a08ab68fbf411688b5ba9b72886d76d45a06c6b120e70029a165627a7a723058200f96747efc26bb8228ab35d86720b9ec4938857b210f8ce43b690a432326608f0029",
  "source": "pragma solidity ^0.4.24;\n\nimport \"../math/SafeMath.sol\";\nimport \"../interfaces/DBInterface.sol\";\nimport \"../database/Events.sol\";\nimport \"../tokens/erc20/DividendToken.sol\";\nimport \"../interfaces/KyberInterface.sol\";\n\ninterface CrowdsaleGeneratorETH_ERC20 {\n  function balanceOf(address _who) external view returns (uint256);\n  function approve(address _spender, uint256 _value) external returns (bool);\n  function transfer(address _to, uint256 _value) external returns (bool);\n  function transferFrom(address _from, address _to, uint256 _value) external returns (bool);\n}\n\n// @title A crowdsale generator contract\n// @author Kyle Dewhurst, MyBit Foundation\n// @notice AssetManagers can initiate a crowdsale that accepts Ether as payment here\ncontract CrowdsaleGeneratorETH {\n  using SafeMath for uint256;\n\n  DBInterface public database;\n  Events public events;\n  KyberInterface private kyber;\n\n  //uint constant scalingFactor = 1e32;   // Used to avoid rounding errors\n\n  // @notice This contract\n  // @param: The address for the database contract used by this platform\n  constructor(address _database, address _events, address _kyber)\n  public{\n      database = DBInterface(_database);\n      events = Events(_events);\n      kyber = KyberInterface(_kyber);\n  }\n\n  // @notice AssetManagers can initiate a crowdfund for a new asset here\n  // @dev the crowdsaleETH contract is granted rights to mint asset-tokens as it receives funding\n  // @param (string) _assetURI = The location where information about the asset can be found\n  // @param (bytes32) _operatorID = The ID of the operator who is to create and install this asset\n  // @param (uint) _fundingLength = The number of seconds this crowdsale is to go on for until it fails\n  // @param (uint) _amountToRaise = The amount of WEI required to raise for the crowdsale to be a success\n  // @param (uint) _assetManagerPerc = The percentage of the total revenue which is to go to the AssetManager if asset is a success\n  function createAssetOrderETH(string _assetURI, address _assetManager, bytes32 _operatorID, uint _fundingLength, uint _startTime, uint _amountToRaise, uint _assetManagerPerc, uint _escrow, address _paymentToken)\n  external\n  payable\n  returns (bool) {\n    if(_paymentToken == address(0xEeeeeEeeeEeEeeEeEeEeeEEEeeeeEeeeeeeeEEeE)){\n      require(msg.value == _escrow);\n    } else {\n      require(msg.value == 0);\n    }\n    require(msg.sender == _assetManager || database.boolStorage(keccak256(abi.encodePacked(\"approval\", _assetManager, msg.sender, address(this), msg.sig))), \"User not approved\");\n    require(_amountToRaise >= 100, \"Crowdsale goal is too small\");\n    require(_assetManagerPerc < 100, \"Manager percent need to be less than 100\");\n    require(database.boolStorage(keccak256(abi.encodePacked(\"operator.acceptsEther\", _operatorID))), \"Operator does not accept Ether\");\n    require(database.addressStorage(keccak256(abi.encodePacked(\"operator\", _operatorID))) != address(0), \"Operator does not exist\");\n    require(!database.boolStorage(keccak256(abi.encodePacked(\"asset.uri\", _assetURI))), \"Asset URI is not unique\"); //Check that asset URI is unique\n    uint startTime;\n    if(_startTime < now){\n      startTime = now;\n    } else {\n      startTime = _startTime;\n    }\n    address assetAddress = address(new DividendToken(_assetURI, database.addressStorage(keccak256(abi.encodePacked(\"contract\", \"CrowdsaleETH\")))));   // Gives this contract all new asset tokens\n    require(setCrowdsaleValues(assetAddress, startTime, _fundingLength, _amountToRaise));\n    require(setAssetValues(assetAddress, _assetURI, _operatorID, _assetManager, _assetManagerPerc, _amountToRaise));\n    //If escrow, lock\n    if(_escrow > 0){ require(lockEscrowInternal(_assetManager, assetAddress, _paymentToken, _escrow));}\n    events.asset('Asset funding started', _assetURI, assetAddress, _assetManager);\n    return true;\n  }\n\n  // @notice platform owners can destroy contract here\n  function destroy()\n  onlyOwner\n  external {\n    events.transaction('CrowdsaleGeneratorETH destroyed', address(this), msg.sender, address(this).balance, '');\n    selfdestruct(msg.sender);\n  }\n\n  //////////////////////////////////////////////////////////////////////////////////////////////////////////////////\n  //                                            Internal/ Private Functions\n  //////////////////////////////////////////////////////////////////////////////////////////////////////////////////\n\n  function setCrowdsaleValues(address _assetAddress, uint _startTime, uint _fundingLength, uint _amountToRaise)\n  private\n  returns (bool){\n    database.setUint(keccak256(abi.encodePacked(\"crowdsale.start\", _assetAddress)), _startTime);\n    database.setUint(keccak256(abi.encodePacked(\"crowdsale.deadline\", _assetAddress)), _startTime.add(_fundingLength));\n    database.setUint(keccak256(abi.encodePacked(\"crowdsale.goal\", _assetAddress)), _amountToRaise);\n    database.setUint(keccak256(abi.encodePacked(\"crowdsale.remaining\", _assetAddress)), _amountToRaise.mul(uint(100).add(database.uintStorage(keccak256(abi.encodePacked(\"platform.fee\"))))).div(100));\n    return true;\n  }\n\n  function setAssetValues(address _assetAddress, string _assetURI, bytes32 _operatorID, address _assetManager, uint _assetManagerPerc, uint _amountToRaise)\n  private\n  returns (bool){\n    uint totalTokens = _amountToRaise.mul(100).div(uint(100).sub(_assetManagerPerc).sub(database.uintStorage(keccak256(abi.encodePacked(\"platform.percentage\")))));\n    //database.setUint(keccak256(abi.encodePacked(\"asset.managerTokens\", assetAddress)), _amountToRaise.mul(uint(100).mul(scalingFactor).div(uint(100).sub(_assetManagerPerc)).sub(scalingFactor)).div(scalingFactor));\n    database.setUint(keccak256(abi.encodePacked(\"asset.managerTokens\", _assetAddress)), totalTokens.getFractionalAmount(_assetManagerPerc));\n    database.setUint(keccak256(abi.encodePacked(\"asset.platformTokens\", _assetAddress)), totalTokens.getFractionalAmount(database.uintStorage(keccak256(abi.encodePacked(\"platform.percentage\")))));\n    database.setAddress(keccak256(abi.encodePacked(\"asset.manager\", _assetAddress)), _assetManager);\n    database.setAddress(keccak256(abi.encodePacked(\"asset.operator\", _assetAddress)), database.addressStorage(keccak256(abi.encodePacked(\"operator\", _operatorID))));\n    database.setBool(keccak256(abi.encodePacked(\"asset.uri\", _assetURI)), true); //Set to ensure a unique asset URI\n    return true;\n  }\n\n  function lockEscrowInternal(address _assetManager, address _assetAddress, address _paymentTokenAddress, uint _amount)\n  private\n  returns (bool) {\n    uint amount;\n    bytes32 assetManagerEscrowID = keccak256(abi.encodePacked(_assetAddress, _assetManager));\n    address platformTokenAddress = database.addressStorage(keccak256(abi.encodePacked(\"platform.token\")));\n    if(_paymentTokenAddress != platformTokenAddress){\n      //Setup platform token and get current balance for comparison\n      CrowdsaleGeneratorETH_ERC20 platformToken = CrowdsaleGeneratorETH_ERC20(platformTokenAddress);\n      uint balanceBefore = platformToken.balanceOf(this);\n      //Convert the payment token into the platform token\n      if(_paymentTokenAddress == address(0xEeeeeEeeeEeEeeEeEeEeeEEEeeeeEeeeeeeeEEeE)){\n        kyber.trade.value(_amount)(_paymentTokenAddress, _amount, platformTokenAddress, address(this), 2**255, 0, 0); //Currently no minimum rate is set, so watch out for slippage!\n      } else {\n        CrowdsaleGeneratorETH_ERC20 paymentToken = CrowdsaleGeneratorETH_ERC20(_paymentTokenAddress);\n        require(paymentToken.transferFrom(_assetManager, address(this), _amount));\n        require(paymentToken.approve(address(kyber), _amount));\n        kyber.trade(_paymentTokenAddress, _amount, platformTokenAddress, address(this), 2**255, 0, 0); //Currently no minimum rate is set, so watch out for slippage!\n      }\n      amount = platformToken.balanceOf(this).sub(balanceBefore);\n      require(platformToken.transfer(database.addressStorage(keccak256(abi.encodePacked(\"contract\", \"AssetManagerEscrow\"))), amount));\n    } else {\n      amount = _amount;\n      require(CrowdsaleGeneratorETH_ERC20(platformTokenAddress).transferFrom(_assetManager, database.addressStorage(keccak256(abi.encodePacked(\"contract\", \"AssetManagerEscrow\"))), amount));\n    }\n    database.setUint(keccak256(abi.encodePacked(\"asset.escrow\", assetManagerEscrowID)), amount);\n    events.escrow('Escrow locked', _assetAddress, assetManagerEscrowID, _assetManager, amount);\n    return true;\n  }\n\n  //////////////////////////////////////////////////////////////////////////////////////////////////////////////////\n  //                                            Modifiers\n  //////////////////////////////////////////////////////////////////////////////////////////////////////////////////\n\n\n  // // @notice reverts if asset manager is unable to burn pp\n  // modifier burnRequired {\n  //   //emit LogSig(msg.sig);\n  //   require(burner.burn(msg.sender, database.uintStorage(keccak256(abi.encodePacked(msg.sig, address(this))))));\n  //   _;\n  // }\n\n  // @notice Sender must be a registered owner\n  modifier onlyOwner {\n    require(database.boolStorage(keccak256(abi.encodePacked(\"owner\", msg.sender))), \"Not owner\");\n    _;\n  }\n\n  //////////////////////////////////////////////////////////////////////////////////////////////////////////////////\n  //                                            Events\n  //////////////////////////////////////////////////////////////////////////////////////////////////////////////////\n\n  //event LogAssetFundingStarted(bytes32 indexed _assetID, address indexed _assetManager, string _assetURI, address indexed _tokenAddress);\n  //event LogSig(bytes4 _sig);\n\n}\n",
  "sourcePath": "/home/peter/Documents/Work/MyBit/MyBit-Network.tech/contracts/crowdsale/CrowdsaleGeneratorETH.sol",
  "compiler": {
    "name": "solc",
    "version": "0.4.24+commit.e67f0147.Emscripten.clang"
  },
  "schemaVersion": "3.0.2",
  "updatedAt": "2019-03-20T20:50:44.433Z",
  "devdoc": {
    "methods": {}
  },
  "userdoc": {
    "methods": {}
  }
}