{
  "contractName": "CrowdsaleETH",
  "abi": [
    {
      "inputs": [
        {
          "name": "_database",
          "type": "address"
        },
        {
          "name": "_events",
          "type": "address"
        }
      ],
      "payable": false,
      "stateMutability": "nonpayable",
      "type": "constructor"
    },
    {
      "payable": true,
      "stateMutability": "payable",
      "type": "fallback"
    },
    {
      "constant": false,
      "inputs": [
        {
          "name": "_assetAddress",
          "type": "address"
        },
        {
          "name": "_investor",
          "type": "address"
        }
      ],
      "name": "buyAssetOrderETH",
      "outputs": [
        {
          "name": "",
          "type": "bool"
        }
      ],
      "payable": true,
      "stateMutability": "payable",
      "type": "function"
    },
    {
      "constant": false,
      "inputs": [
        {
          "name": "_assetAddress",
          "type": "address"
        }
      ],
      "name": "payoutETH",
      "outputs": [
        {
          "name": "",
          "type": "bool"
        }
      ],
      "payable": false,
      "stateMutability": "nonpayable",
      "type": "function"
    },
    {
      "constant": false,
      "inputs": [
        {
          "name": "_assetAddress",
          "type": "address"
        }
      ],
      "name": "refund",
      "outputs": [
        {
          "name": "",
          "type": "bool"
        }
      ],
      "payable": false,
      "stateMutability": "nonpayable",
      "type": "function"
    },
    {
      "constant": false,
      "inputs": [
        {
          "name": "_erc20Token",
          "type": "address"
        }
      ],
      "name": "recoverTokens",
      "outputs": [],
      "payable": false,
      "stateMutability": "nonpayable",
      "type": "function"
    },
    {
      "constant": false,
      "inputs": [],
      "name": "destroy",
      "outputs": [],
      "payable": false,
      "stateMutability": "nonpayable",
      "type": "function"
    }
  ],
  "bytecode": "0x60806040523480156200001157600080fd5b5060405160408062003ae4833981016040818152825160209384015160008054600160a060020a03808516600160a060020a03199283161792839055600180548286169316929092179091557f636f6e7472616374000000000000000000000000000000000000000000000000878701527f4d696e746572000000000000000000000000000000000000000000000000000060288701528451600e818803018152602e909601948590528551939692959116936304f49a3a939192909182918401908083835b60208310620000f85780518252601f199092019160209182019101620000d7565b51815160209384036101000a60001901801990921691161790526040805192909401829003822063ffffffff88167c01000000000000000000000000000000000000000000000000000000000283526004830152925160248083019650939450929083900301905081600087803b1580156200017357600080fd5b505af115801562000188573d6000803e3d6000fd5b505050506040513d60208110156200019f57600080fd5b505160028054600160a060020a031916600160a060020a03928316179055600054604080517f636f6e74726163740000000000000000000000000000000000000000000000006020808301919091527f43726f776473616c655265736572766500000000000000000000000000000000602883015282518083036018018152603890920192839052815193909416936304f49a3a9391929182918401908083835b60208310620002615780518252601f19909201916020918201910162000240565b51815160209384036101000a60001901801990921691161790526040805192909401829003822063ffffffff88167c01000000000000000000000000000000000000000000000000000000000283526004830152925160248083019650939450929083900301905081600087803b158015620002dc57600080fd5b505af1158015620002f1573d6000803e3d6000fd5b505050506040513d60208110156200030857600080fd5b505160038054600160a060020a031916600160a060020a03909216919091179055506137a89050806200033c6000396000f3006080604052600436106100535763ffffffff60e060020a60003504166316114acd811461005857806369fa8a381461007b57806383197ef0146100a9578063dd00da7c146100be578063fa89401a146100df575b600080fd5b34801561006457600080fd5b50610079600160a060020a0360043516610100565b005b610095600160a060020a03600435811690602435166103a0565b604080519115158252519081900360200190f35b3480156100b557600080fd5b50610079611549565b3480156100ca57600080fd5b50610095600160a060020a0360043516611783565b3480156100eb57600080fd5b50610095600160a060020a0360043516612d17565b60008054604080517f6f776e6572000000000000000000000000000000000000000000000000000000602080830191909152606060020a330260258301528251601981840301815260399092019283905281518594600160a060020a031693633b7bfda09392909182918401908083835b602083106101905780518252601f199092019160209182019101610171565b51815160209384036101000a60001901801990921691161790526040805192909401829003822063ffffffff881660e060020a0283526004830152925160248083019650939450929083900301905081600087803b1580156101f157600080fd5b505af1158015610205573d6000803e3d6000fd5b505050506040513d602081101561021b57600080fd5b50511515610273576040805160e560020a62461bcd02815260206004820152600960248201527f4e6f74206f776e65720000000000000000000000000000000000000000000000604482015290519081900360640190fd5b604080517f70a082310000000000000000000000000000000000000000000000000000000081523060048201529051849350600160a060020a038416916370a082319160248083019260209291908290030181600087803b1580156102d757600080fd5b505af11580156102eb573d6000803e3d6000fd5b505050506040513d602081101561030157600080fd5b5051604080517fa9059cbb000000000000000000000000000000000000000000000000000000008152336004820152602481018390529051919250600160a060020a0384169163a9059cbb916044808201926020929091908290030181600087803b15801561036f57600080fd5b505af1158015610383573d6000803e3d6000fd5b505050506040513d602081101561039957600080fd5b5050505050565b600080803481106103b057600080fd5b60008054604080517f61737365742e6d616e6167657200000000000000000000000000000000000000602080830191909152600160a060020a038a8116606060020a02602d8401528351808403602101815260419093019384905282518b969591909116936304f49a3a9392909182918401908083835b602083106104465780518252601f199092019160209182019101610427565b51815160209384036101000a60001901801990921691161790526040805192909401829003822063ffffffff881660e060020a0283526004830152925160248083019650939450929083900301905081600087803b1580156104a757600080fd5b505af11580156104bb573d6000803e3d6000fd5b505050506040513d60208110156104d157600080fd5b5051600160a060020a03161415610532576040805160e560020a62461bcd02815260206004820152600d60248201527f496e76616c696420617373657400000000000000000000000000000000000000604482015290519081900360640190fd5b6000546040805160008051602061375d833981519152602080830191909152600160a060020a038a8116606060020a0260328401528351808403602601815260469093019384905282518b95919091169363a855d4ce9392909182918401908083835b602083106105b45780518252601f199092019160209182019101610595565b51815160209384036101000a60001901801990921691161790526040805192909401829003822063ffffffff881660e060020a0283526004830152925160248083019650939450929083900301905081600087803b15801561061557600080fd5b505af1158015610629573d6000803e3d6000fd5b505050506040513d602081101561063f57600080fd5b5051421115610698576040805160e560020a62461bcd02815260206004820152600d60248201527f5061737420646561646c696e6500000000000000000000000000000000000000604482015290519081900360640190fd5b600054604080517f63726f776473616c652e73746172740000000000000000000000000000000000602080830191909152600160a060020a03858116606060020a02602f84015283518084036023018152604390930193849052825194169363a855d4ce93918291908401908083835b602083106107275780518252601f199092019160209182019101610708565b51815160209384036101000a60001901801990921691161790526040805192909401829003822063ffffffff881660e060020a0283526004830152925160248083019650939450929083900301905081600087803b15801561078857600080fd5b505af115801561079c573d6000803e3d6000fd5b505050506040513d60208110156107b257600080fd5b505142101561080b576040805160e560020a62461bcd02815260206004820152601160248201527f4265666f72652073746172742074696d65000000000000000000000000000000604482015290519081900360640190fd5b6000546040805160008051602061371d833981519152602080830191909152600160a060020a038b8116606060020a0260338401528351808403602701815260479093019384905282518c959190911693633b7bfda09392909182918401908083835b6020831061088d5780518252601f19909201916020918201910161086e565b51815160209384036101000a60001901801990921691161790526040805192909401829003822063ffffffff881660e060020a0283526004830152925160248083019650939450929083900301905081600087803b1580156108ee57600080fd5b505af1158015610902573d6000803e3d6000fd5b505050506040513d602081101561091857600080fd5b50511561096f576040805160e560020a62461bcd02815260206004820152601360248201527f43726f776473616c652066696e616c697a656400000000000000000000000000604482015290519081900360640190fd5b33600160a060020a0388161480610add575060008054604080517f617070726f76616c000000000000000000000000000000000000000000000000602080830191909152600160a060020a038c8116606060020a9081026028850152338102603c8501523002605084015294357fffffffff000000000000000000000000000000000000000000000000000000001660648301528251808303604801815260689092019283905281519490931693633b7bfda0939192918291908401908083835b60208310610a4f5780518252601f199092019160209182019101610a30565b51815160209384036101000a60001901801990921691161790526040805192909401829003822063ffffffff881660e060020a0283526004830152925160248083019650939450929083900301905081600087803b158015610ab057600080fd5b505af1158015610ac4573d6000803e3d6000fd5b505050506040513d6020811015610ada57600080fd5b50515b1515610ae857600080fd5b600054604080517f63726f776473616c652e72656d61696e696e6700000000000000000000000000602080830191909152600160a060020a038c8116606060020a02603384015283518084036027018152604790930193849052825194169363a855d4ce93918291908401908083835b60208310610b775780518252601f199092019160209182019101610b58565b51815160209384036101000a60001901801990921691161790526040805192909401829003822063ffffffff881660e060020a0283526004830152925160248083019650939450929083900301905081600087803b158015610bd857600080fd5b505af1158015610bec573d6000803e3d6000fd5b505050506040513d6020811015610c0257600080fd5b5051945034851115611009576000546040805160008051602061373d8339815191526020808301919091528251808303600c018152602c909201928390528151610d3e94610d2194600160a060020a039091169363a855d4ce93909282918401908083835b60208310610c865780518252601f199092019160209182019101610c67565b51815160209384036101000a60001901801990921691161790526040805192909401829003822063ffffffff881660e060020a0283526004830152925160248083019650939450929083900301905081600087803b158015610ce757600080fd5b505af1158015610cfb573d6000803e3d6000fd5b505050506040513d6020811015610d1157600080fd5b505160649063ffffffff61369316565b610d3234606463ffffffff6136ad16565b9063ffffffff6136d816565b600054604080517f63726f776473616c652e72656d61696e696e6700000000000000000000000000602080830191909152600160a060020a038d8116606060020a0260338401528351808403602701815260479093019384905282519599509093169363e2a4853a939192918291908401908083835b60208310610dd35780518252601f199092019160209182019101610db4565b6001836020036101000a0380198251168184511680821785525050505050509050019150506040518091039020610e1334896136ed90919063ffffffff16565b6040518363ffffffff1660e060020a02815260040180836000191660001916815260200182815260200192505050600060405180830381600087803b158015610e5b57600080fd5b505af1158015610e6f573d6000803e3d6000fd5b5050600254604080517fd5895a3c000000000000000000000000000000000000000000000000000000008152600160a060020a038d811660048301528c81166024830152604482018a9052915191909216935063d5895a3c925060648083019260209291908290030181600087803b158015610eea57600080fd5b505af1158015610efe573d6000803e3d6000fd5b505050506040513d6020811015610f1457600080fd5b50511515610f6c576040805160e560020a62461bcd02815260206004820152601760248201527f496e766573746f72206d696e74696e67206661696c6564000000000000000000604482015290519081900360640190fd5b600354604080517f8c53f61d000000000000000000000000000000000000000000000000000000008152600160a060020a038a8116600483015291519190921691638c53f61d91349160248082019260209290919082900301818588803b158015610fd657600080fd5b505af1158015610fea573d6000803e3d6000fd5b50505050506040513d602081101561100157600080fd5b506114739050565b6000546040805160008051602061373d8339815191526020808301919091528251808303600c018152602c9092019283905281516110919461108094600160a060020a039091169363a855d4ce939092829184019080838360208310610c865780518252601f199092019160209182019101610c67565b610d3287606463ffffffff6136ad16565b6000546040805160008051602061371d833981519152602080830191909152600160a060020a038d8116606060020a0260338401528351808403602701815260479093019384905282519599509093169363abfdcced939192918291908401908083835b602083106111145780518252601f1990920191602091820191016110f5565b5181516020939093036101000a60001901801990911692169190911790526040805191909301819003812063ffffffff871660e060020a028252600482015260016024820152915160448084019550600094509092839003019050818387803b15801561118057600080fd5b505af1158015611194573d6000803e3d6000fd5b5050600054604080517f63726f776473616c652e72656d61696e696e6700000000000000000000000000602080830191909152600160a060020a038e8116606060020a0260338401528351808403602701815260479093019384905282519416955063e2b202bf9450909282918401908083835b602083106112275780518252601f199092019160209182019101611208565b5181516020939093036101000a60001901801990911692169190911790526040805191909301819003812063ffffffff871660e060020a0282526004820152915160248084019550600094509092839003019050818387803b15801561128c57600080fd5b505af11580156112a0573d6000803e3d6000fd5b5050600254604080517fd5895a3c000000000000000000000000000000000000000000000000000000008152600160a060020a038d811660048301528c81166024830152604482018a9052915191909216935063d5895a3c925060648083019260209291908290030181600087803b15801561131b57600080fd5b505af115801561132f573d6000803e3d6000fd5b505050506040513d602081101561134557600080fd5b5051151561139d576040805160e560020a62461bcd02815260206004820152601760248201527f496e766573746f72206d696e74696e67206661696c6564000000000000000000604482015290519081900360640190fd5b600354604080517f8c53f61d000000000000000000000000000000000000000000000000000000008152600160a060020a038a8116600483015291519190921691638c53f61d91889160248082019260209290919082900301818588803b15801561140757600080fd5b505af115801561141b573d6000803e3d6000fd5b50505050506040513d602081101561143257600080fd5b503390506108fc611449348863ffffffff6136ed16565b6040518115909202916000818181858888f19350505050158015611471573d6000803e3d6000fd5b505b600154604080517f42b425aa000000000000000000000000000000000000000000000000000000008152306024820152600160a060020a038a81166044830152606482018890528b8116608483015260a06004830152600f60a48301527f417373657420707572636861736564000000000000000000000000000000000060c4830152915191909216916342b425aa9160e480830192600092919082900301818387803b15801561152357600080fd5b505af1158015611537573d6000803e3d6000fd5b5060019b9a5050505050505050505050565b600054604080517f6f776e6572000000000000000000000000000000000000000000000000000000602080830191909152606060020a33026025830152825160198184030181526039909201928390528151600160a060020a0390941693633b7bfda093918291908401908083835b602083106115d75780518252601f1990920191602091820191016115b8565b51815160209384036101000a60001901801990921691161790526040805192909401829003822063ffffffff881660e060020a0283526004830152925160248083019650939450929083900301905081600087803b15801561163857600080fd5b505af115801561164c573d6000803e3d6000fd5b505050506040513d602081101561166257600080fd5b505115156116ba576040805160e560020a62461bcd02815260206004820152600960248201527f4e6f74206f776e65720000000000000000000000000000000000000000000000604482015290519081900360640190fd5b600154604080517f42b425aa000000000000000000000000000000000000000000000000000000008152306024820181905233604483015231606482015260006084820181905260a06004830152601660a48301527f43726f776473616c654554482064657374726f7965640000000000000000000060c48301529151600160a060020a03909316926342b425aa9260e48084019391929182900301818387803b15801561176757600080fd5b505af115801561177b573d6000803e3d6000fd5b503392505050ff5b60008054604080517f7061757365640000000000000000000000000000000000000000000000000000602080830191909152606060020a300260268301528251601a818403018152603a9092019283905281518594859485948594600160a060020a0390931693633b7bfda0939192918291908401908083835b6020831061181c5780518252601f1990920191602091820191016117fd565b51815160209384036101000a60001901801990921691161790526040805192909401829003822063ffffffff881660e060020a0283526004830152925160248083019650939450929083900301905081600087803b15801561187d57600080fd5b505af1158015611891573d6000803e3d6000fd5b505050506040513d60208110156118a757600080fd5b5051156118fe576040805160e560020a62461bcd02815260206004820152600f60248201527f436f6e7472616374207061757365640000000000000000000000000000000000604482015290519081900360640190fd5b6000546040805160008051602061371d833981519152602080830191909152600160a060020a038a8116606060020a0260338401528351808403602701815260479093019384905282518b959190911693633b7bfda09392909182918401908083835b602083106119805780518252601f199092019160209182019101611961565b51815160209384036101000a60001901801990921691161790526040805192909401829003822063ffffffff881660e060020a0283526004830152925160248083019650939450929083900301905081600087803b1580156119e157600080fd5b505af11580156119f5573d6000803e3d6000fd5b505050506040513d6020811015611a0b57600080fd5b50511515611a63576040805160e560020a62461bcd02815260206004820152601760248201527f43726f776473616c65206e6f742066696e616c697a6564000000000000000000604482015290519081900360640190fd5b600054604080517f63726f776473616c652e70616964000000000000000000000000000000000000602080830191909152600160a060020a038b8116606060020a02602e8401528351808403602201815260429093019384905282518c959190911693633b7bfda09392909182918401908083835b60208310611af75780518252601f199092019160209182019101611ad8565b51815160209384036101000a60001901801990921691161790526040805192909401829003822063ffffffff881660e060020a0283526004830152925160248083019650939450929083900301905081600087803b158015611b5857600080fd5b505af1158015611b6c573d6000803e3d6000fd5b505050506040513d6020811015611b8257600080fd5b505115611bd9576040805160e560020a62461bcd02815260206004820152601660248201527f43726f776473616c65206861642070616964206f757400000000000000000000604482015290519081900360640190fd5b600054604080517f63726f776473616c652e70616964000000000000000000000000000000000000602080830191909152600160a060020a038c8116606060020a02602e84015283518084036022018152604290930193849052825194169363abfdcced93918291908401908083835b60208310611c685780518252601f199092019160209182019101611c49565b5181516020939093036101000a60001901801990911692169190911790526040805191909301819003812063ffffffff871660e060020a028252600482015260016024820152915160448084019550600094509092839003019050818387803b158015611cd457600080fd5b505af1158015611ce8573d6000803e3d6000fd5b5050600254600054604080517f636f6e74726163740000000000000000000000000000000000000000000000006020808301919091527f41737365744d616e6167657246756e64730000000000000000000000000000006028830152825180830360190181526039909201928390528151600160a060020a03958616975063d5895a3c96508f95909416936304f49a3a93918291908401908083835b60208310611da35780518252601f199092019160209182019101611d84565b51815160209384036101000a60001901801990921691161790526040805192909401829003822063ffffffff881660e060020a0283526004830152925160248083019650939450929083900301905081600087803b158015611e0457600080fd5b505af1158015611e18573d6000803e3d6000fd5b505050506040513d6020811015611e2e57600080fd5b81019080805190602001909291905050506000809054906101000a9004600160a060020a0316600160a060020a031663a855d4ce8d60405160200180807f61737365742e6d616e61676572546f6b656e730000000000000000000000000081525060130182600160a060020a0316600160a060020a0316606060020a0281526014019150506040516020818303038152906040526040518082805190602001908083835b60208310611ef15780518252601f199092019160209182019101611ed2565b51815160209384036101000a60001901801990921691161790526040805192909401829003822063ffffffff881660e060020a0283526004830152925160248083019650939450929083900301905081600087803b158015611f5257600080fd5b505af1158015611f66573d6000803e3d6000fd5b505050506040513d6020811015611f7c57600080fd5b50516040805160e060020a63ffffffff8716028152600160a060020a0394851660048201529290931660248301526044820152905160648083019260209291908290030181600087803b158015611fd257600080fd5b505af1158015611fe6573d6000803e3d6000fd5b505050506040513d6020811015611ffc57600080fd5b50511515612054576040805160e560020a62461bcd02815260206004820152601660248201527f4d616e61676572206d696e74696e67206661696c656400000000000000000000604482015290519081900360640190fd5b600254600054604080517f706c6174666f726d2e77616c6c657400000000000000000000000000000000006020808301919091528251808303600f018152602f909201928390528151600160a060020a039586169563d5895a3c958f959116936304f49a3a93909282918401908083835b602083106120e45780518252601f1990920191602091820191016120c5565b51815160209384036101000a60001901801990921691161790526040805192909401829003822063ffffffff881660e060020a0283526004830152925160248083019650939450929083900301905081600087803b15801561214557600080fd5b505af1158015612159573d6000803e3d6000fd5b505050506040513d602081101561216f57600080fd5b81019080805190602001909291905050506000809054906101000a9004600160a060020a0316600160a060020a031663a855d4ce8d60405160200180807f61737365742e706c6174666f726d546f6b656e7300000000000000000000000081525060140182600160a060020a0316600160a060020a0316606060020a0281526014019150506040516020818303038152906040526040518082805190602001908083835b602083106122325780518252601f199092019160209182019101612213565b51815160209384036101000a60001901801990921691161790526040805192909401829003822063ffffffff881660e060020a0283526004830152925160248083019650939450929083900301905081600087803b15801561229357600080fd5b505af11580156122a7573d6000803e3d6000fd5b505050506040513d60208110156122bd57600080fd5b50516040805160e060020a63ffffffff8716028152600160a060020a0394851660048201529290931660248301526044820152905160648083019260209291908290030181600087803b15801561231357600080fd5b505af1158015612327573d6000803e3d6000fd5b505050506040513d602081101561233d57600080fd5b50511515612395576040805160e560020a62461bcd02815260206004820152601760248201527f506c6174666f726d206d696e74696e67206661696c6564000000000000000000604482015290519081900360640190fd5b600254604080517f97d45353000000000000000000000000000000000000000000000000000000008152600160a060020a038b81166004830152915191909216916397d453539160248083019260209291908290030181600087803b1580156123fd57600080fd5b505af1158015612411573d6000803e3d6000fd5b505050506040513d602081101561242757600080fd5b5051151561247f576040805160e560020a62461bcd02815260206004820152601360248201527f53746f70206d696e74696e67206661696c656400000000000000000000000000604482015290519081900360640190fd5b600054604080517f61737365742e6f70657261746f72000000000000000000000000000000000000602080830191909152600160a060020a038c8116606060020a02602e8401528351808403602201815260429093019384905282519416936304f49a3a93918291908401908083835b6020831061250e5780518252601f1990920191602091820191016124ef565b51815160209384036101000a60001901801990921691161790526040805192909401829003822063ffffffff881660e060020a0283526004830152925160248083019650939450929083900301905081600087803b15801561256f57600080fd5b505af1158015612583573d6000803e3d6000fd5b505050506040513d602081101561259957600080fd5b5051600054604080517f706c6174666f726d2e77616c6c657400000000000000000000000000000000006020828101919091528251808303600f018152602f909201928390528151949a50600160a060020a03909316936304f49a3a939192918291908401908083835b602083106126225780518252601f199092019160209182019101612603565b51815160209384036101000a60001901801990921691161790526040805192909401829003822063ffffffff881660e060020a0283526004830152925160248083019650939450929083900301905081600087803b15801561268357600080fd5b505af1158015612697573d6000803e3d6000fd5b505050506040513d60208110156126ad57600080fd5b50519450600160a060020a038616158015906126d15750600160a060020a03851615155b151561274d576040805160e560020a62461bcd02815260206004820152602360248201527f4f70657261746f72206f7220706c6174666f726d2077616c6c6574206e6f742060448201527f7365740000000000000000000000000000000000000000000000000000000000606482015290519081900360840190fd5b600054604080517f63726f776473616c652e676f616c000000000000000000000000000000000000602080830191909152600160a060020a038c8116606060020a02602e84015283518084036022018152604290930193849052825194169363a855d4ce93918291908401908083835b602083106127dc5780518252601f1990920191602091820191016127bd565b51815160209384036101000a60001901801990921691161790526040805192909401829003822063ffffffff881660e060020a0283526004830152925160248083019650939450929083900301905081600087803b15801561283d57600080fd5b505af1158015612851573d6000803e3d6000fd5b505050506040513d602081101561286757600080fd5b50516000546040805160008051602061373d8339815191526020828101919091528251808303600c018152602c90920192839052815194985061297a94600160a060020a039094169363a855d4ce93918291908401908083835b602083106128e05780518252601f1990920191602091820191016128c1565b51815160209384036101000a60001901801990921691161790526040805192909401829003822063ffffffff881660e060020a0283526004830152925160248083019650939450929083900301905081600087803b15801561294157600080fd5b505af1158015612955573d6000803e3d6000fd5b505050506040513d602081101561296b57600080fd5b5051859063ffffffff6136ff16565b600354604080517f25127520000000000000000000000000000000000000000000000000000000008152600160a060020a0389811660048301526024820185905291519396509116916325127520916044808201926020929091908290030181600087803b1580156129eb57600080fd5b505af11580156129ff573d6000803e3d6000fd5b505050506040513d6020811015612a1557600080fd5b50511515612a6d576040805160e560020a62461bcd02815260206004820152601760248201527f506c6174666f726d2066756e6473206e6f742070616964000000000000000000604482015290519081900360640190fd5b600354604080517f25127520000000000000000000000000000000000000000000000000000000008152600160a060020a038981166004830152602482018890529151919092169163251275209160448083019260209291908290030181600087803b158015612adc57600080fd5b505af1158015612af0573d6000803e3d6000fd5b505050506040513d6020811015612b0657600080fd5b50511515612b5e576040805160e560020a62461bcd02815260206004820152601760248201527f4f70657261746f722066756e6473206e6f742070616964000000000000000000604482015290519081900360640190fd5b600054604080517f63726f776473616c652e73746172740000000000000000000000000000000000602080830191909152600160a060020a038c8116606060020a02602f84015283518084036023018152604390930193849052825194169363e2b202bf93918291908401908083835b60208310612bed5780518252601f199092019160209182019101612bce565b5181516020939093036101000a60001901801990911692169190911790526040805191909301819003812063ffffffff871660e060020a0282526004820152915160248084019550600094509092839003019050818387803b158015612c5257600080fd5b505af1158015612c66573d6000803e3d6000fd5b5050600154604080517f42b425aa000000000000000000000000000000000000000000000000000000008152600160a060020a038d811660248301528b81166044830152606482018a905260006084830181905260a06004840152600c60a48401527f4173736574207061796f7574000000000000000000000000000000000000000060c48401529251931694506342b425aa935060e4808201939182900301818387803b15801561152357600080fd5b60008054604080517f7061757365640000000000000000000000000000000000000000000000000000602080830191909152606060020a300260268301528251601a818403018152603a90920192839052815185948594600160a060020a0390911693633b7bfda093909282918401908083835b60208310612daa5780518252601f199092019160209182019101612d8b565b51815160209384036101000a60001901801990921691161790526040805192909401829003822063ffffffff881660e060020a0283526004830152925160248083019650939450929083900301905081600087803b158015612e0b57600080fd5b505af1158015612e1f573d6000803e3d6000fd5b505050506040513d6020811015612e3557600080fd5b505115612e8c576040805160e560020a62461bcd02815260206004820152600f60248201527f436f6e7472616374207061757365640000000000000000000000000000000000604482015290519081900360640190fd5b60008054604080517f61737365742e6d616e6167657200000000000000000000000000000000000000602080830191909152600160a060020a03898116606060020a02602d8401528351808403602101815260419093019384905282518a969591909116936304f49a3a9392909182918401908083835b60208310612f225780518252601f199092019160209182019101612f03565b51815160209384036101000a60001901801990921691161790526040805192909401829003822063ffffffff881660e060020a0283526004830152925160248083019650939450929083900301905081600087803b158015612f8357600080fd5b505af1158015612f97573d6000803e3d6000fd5b505050506040513d6020811015612fad57600080fd5b5051600160a060020a0316141561300e576040805160e560020a62461bcd02815260206004820152600d60248201527f496e76616c696420617373657400000000000000000000000000000000000000604482015290519081900360640190fd5b6000546040805160008051602061375d833981519152602080830191909152600160a060020a03898116606060020a0260328401528351808403602601815260469093019384905282518a95919091169363a855d4ce9392909182918401908083835b602083106130905780518252601f199092019160209182019101613071565b51815160209384036101000a60001901801990921691161790526040805192909401829003822063ffffffff881660e060020a0283526004830152925160248083019650939450929083900301905081600087803b1580156130f157600080fd5b505af1158015613105573d6000803e3d6000fd5b505050506040513d602081101561311b57600080fd5b50514211613173576040805160e560020a62461bcd02815260206004820152600f60248201527f4265666f726520646561646c696e650000000000000000000000000000000000604482015290519081900360640190fd5b6000546040805160008051602061371d833981519152602080830191909152600160a060020a038a8116606060020a0260338401528351808403602701815260479093019384905282518b959190911693633b7bfda09392909182918401908083835b602083106131f55780518252601f1990920191602091820191016131d6565b51815160209384036101000a60001901801990921691161790526040805192909401829003822063ffffffff881660e060020a0283526004830152925160248083019650939450929083900301905081600087803b15801561325657600080fd5b505af115801561326a573d6000803e3d6000fd5b505050506040513d602081101561328057600080fd5b5051156132d7576040805160e560020a62461bcd02815260206004820152601360248201527f43726f776473616c652066696e616c697a656400000000000000000000000000604482015290519081900360640190fd5b6000546040805160008051602061375d833981519152602080830191909152600160a060020a038b8116606060020a02603284015283518084036026018152604690930193849052825194169363a855d4ce93918291908401908083835b602083106133545780518252601f199092019160209182019101613335565b51815160209384036101000a60001901801990921691161790526040805192909401829003822063ffffffff881660e060020a0283526004830152925160248083019650939450929083900301905081600087803b1580156133b557600080fd5b505af11580156133c9573d6000803e3d6000fd5b505050506040513d60208110156133df57600080fd5b505115156133ec57600080fd5b6000546040805160008051602061375d833981519152602080830191909152600160a060020a038b8116606060020a02603284015283518084036026018152604690930193849052825194169363e2b202bf93918291908401908083835b602083106134695780518252601f19909201916020918201910161344a565b5181516020939093036101000a60001901801990911692169190911790526040805191909301819003812063ffffffff871660e060020a0282526004820152915160248084019550600094509092839003019050818387803b1580156134ce57600080fd5b505af11580156134e2573d6000803e3d6000fd5b505050508694506135e96064610d326135736000809054906101000a9004600160a060020a0316600160a060020a031663a855d4ce604051602001808060008051602061373d833981519152815250600c01905060405160208183030381529060405260405180828051906020019080838360208310610c865780518252601f199092019160209182019101610c67565b88600160a060020a03166318160ddd6040518163ffffffff1660e060020a028152600401602060405180830381600087803b1580156135b157600080fd5b505af11580156135c5573d6000803e3d6000fd5b505050506040513d60208110156135db57600080fd5b50519063ffffffff6136ad16565b600354604080517f785bc786000000000000000000000000000000000000000000000000000000008152600160a060020a038b8116600483015260248201859052915193975091169163785bc786916044808201926020929091908290030181600087803b15801561365a57600080fd5b505af115801561366e573d6000803e3d6000fd5b505050506040513d602081101561368457600080fd5b50600198975050505050505050565b6000828201838110156136a257fe5b8091505b5092915050565b6000808315156136c057600091506136a6565b508282028284828115156136d057fe5b04146136a257fe5b600081838115156136e557fe5b049392505050565b6000828211156136f957fe5b50900390565b600061371561370e84846136ad565b60646136d8565b9392505050560063726f776473616c652e66696e616c697a656400000000000000000000000000706c6174666f726d2e666565000000000000000000000000000000000000000063726f776473616c652e646561646c696e650000000000000000000000000000a165627a7a723058205d05530a2ad4d539323369f4995e09cba31d60d7ad4f2ecd4399fd90bdf52ba10029",
  "source": "pragma solidity ^0.4.24;\n\nimport \"../math/SafeMath.sol\";\nimport \"../interfaces/ERC20.sol\";\nimport \"../interfaces/MinterInterface.sol\";\nimport \"../interfaces/CrowdsaleReserveInterface.sol\";\n\ninterface Events {  function transaction(string _message, address _from, address _to, uint _amount, address _token)  external; }\ninterface DB {\n  function addressStorage(bytes32 _key) external view returns (address);\n  function uintStorage(bytes32 _key) external view returns (uint);\n  function setUint(bytes32 _key, uint _value) external;\n  function deleteUint(bytes32 _key) external;\n  function setBool(bytes32 _key, bool _value) external;\n  function boolStorage(bytes32 _key) external view returns (bool);\n}\n\n// @title An asset crowdsale contract, which accepts Ether for funding.\n// @author Kyle Dewhurst & Peter Phillips, MyBit Foundation\n// @notice Starts a new crowdsale and returns asset dividend tokens for Wei received.\n// @dev The AssetManager\ncontract CrowdsaleETH {\n    using SafeMath for uint256;\n\n    DB private database;\n    Events private events;\n    MinterInterface private minter;\n    CrowdsaleReserveInterface private reserve;\n\n    // @notice Constructor: Initiates the database\n    // @param: The address for the database contract\n    constructor(address _database, address _events)\n    public {\n      database = DB(_database);\n      events = Events(_events);\n      minter = MinterInterface(database.addressStorage(keccak256(abi.encodePacked(\"contract\", \"Minter\"))));\n      reserve = CrowdsaleReserveInterface(database.addressStorage(keccak256(abi.encodePacked(\"contract\", \"CrowdsaleReserve\"))));\n    }\n\n\n    // @notice Investors can send Ether here to fund asset, receiving an equivalent number of asset-tokens.\n    // @param (bytes32) _assetAddress = The address of the asset which completed the crowdsale\n    function buyAssetOrderETH(address _assetAddress, address _investor)\n    external\n    payable\n    requiresEther\n    validAsset(_assetAddress)\n    betweenDeadlines(_assetAddress)\n    notFinalized(_assetAddress)\n    returns (bool) {\n      require(msg.sender == _investor || database.boolStorage(keccak256(abi.encodePacked(\"approval\", _investor, msg.sender, address(this), msg.sig))));\n      uint fundingRemaining = database.uintStorage(keccak256(abi.encodePacked(\"crowdsale.remaining\", _assetAddress)));\n      uint amount; //The number of tokens that will be minted\n      if (msg.value < fundingRemaining) {\n        amount = msg.value.mul(100).div(uint(100).add(database.uintStorage(keccak256(abi.encodePacked(\"platform.fee\")))));\n        database.setUint(keccak256(abi.encodePacked(\"crowdsale.remaining\", _assetAddress)), fundingRemaining.sub(msg.value));\n        //Mint tokens equal to the msg.value\n        require(minter.mintAssetTokens(_assetAddress, _investor, amount), \"Investor minting failed\");\n        reserve.receiveETH.value(msg.value)(_investor);\n      } else {\n        amount = fundingRemaining.mul(100).div(uint(100).add(database.uintStorage(keccak256(abi.encodePacked(\"platform.fee\")))));\n        //Funding complete, finalize crowdsale\n        database.setBool(keccak256(abi.encodePacked(\"crowdsale.finalized\", _assetAddress)), true);\n        database.deleteUint(keccak256(abi.encodePacked(\"crowdsale.remaining\", _assetAddress)));\n        //Since investor paid equal to or over the funding remaining, just mint for tokensRemaining\n        require(minter.mintAssetTokens(_assetAddress, _investor, amount), \"Investor minting failed\");\n        reserve.receiveETH.value(fundingRemaining)(_investor);\n        //Return leftover WEI after cost of tokens calculated and subtracted from msg.value to msg.sender *NOT _investor\n        msg.sender.transfer(msg.value.sub(fundingRemaining));\n      }\n      events.transaction('Asset purchased', address(this), _investor, amount, _assetAddress);\n\n      return true;\n    }\n\n    // @notice This is called once funding has succeeded. Sends Ether to a distribution contract where operator & assetManager can withdraw\n    // @dev The contract manager needs to know  the address PlatformDistribution contract\n    // @param (bytes32) _assetAddress = The address of the asset which completed the crowdsale\n    function payoutETH(address _assetAddress)\n    external\n    whenNotPaused\n    finalized(_assetAddress)\n    notPaid(_assetAddress)\n    returns (bool) {\n      //Set paid to true\n      database.setBool(keccak256(abi.encodePacked(\"crowdsale.paid\", _assetAddress)), true);\n      //Setup token\n      //Mint tokens for the asset manager and platform + finish minting\n      require(minter.mintAssetTokens(_assetAddress, database.addressStorage(keccak256(abi.encodePacked(\"contract\", \"AssetManagerFunds\"))), database.uintStorage(keccak256(abi.encodePacked(\"asset.managerTokens\", _assetAddress)))), \"Manager minting failed\");\n      require(minter.mintAssetTokens(_assetAddress, database.addressStorage(keccak256(abi.encodePacked(\"platform.wallet\"))), database.uintStorage(keccak256(abi.encodePacked(\"asset.platformTokens\", _assetAddress)))), \"Platform minting failed\");\n      require(minter.stopMint(_assetAddress), \"Stop minting failed\");\n      //Get the addresses for the operator and platform\n      address operator = database.addressStorage(keccak256(abi.encodePacked(\"asset.operator\", _assetAddress)));\n      address platformWallet = database.addressStorage(keccak256(abi.encodePacked(\"platform.wallet\")));\n      require(operator != address(0) && platformWallet != address(0), \"Operator or platform wallet not set\");\n      //Calculate amounts for platform and operator\n      uint amount = database.uintStorage(keccak256(abi.encodePacked(\"crowdsale.goal\", _assetAddress)));\n      uint platformFee = amount.getFractionalAmount(database.uintStorage(keccak256(abi.encodePacked(\"platform.fee\"))));\n      //Transfer funds to operator and platform\n      require(reserve.issueETH(platformWallet, platformFee), 'Platform funds not paid');\n      require(reserve.issueETH(operator, amount), 'Operator funds not paid');\n      //Delete crowdsale start time\n      database.deleteUint(keccak256(abi.encodePacked(\"crowdsale.start\", _assetAddress)));\n      //Emit event\n      events.transaction('Asset payout', _assetAddress, operator, amount, address(0));\n      return true;\n    }\n\n    // @notice Contributors can retrieve their funds here if crowdsale has paased deadline and not reached its goal\n    // @param (bytes32) _assetAddress = The address of the asset which completed the crowdsale\n    function refund(address _assetAddress)\n    external\n    whenNotPaused\n    validAsset(_assetAddress)\n    afterDeadline(_assetAddress)\n    notFinalized(_assetAddress)\n    returns (bool) {\n      require(database.uintStorage(keccak256(abi.encodePacked(\"crowdsale.deadline\", _assetAddress))) != 0);\n      database.deleteUint(keccak256(abi.encodePacked(\"crowdsale.deadline\", _assetAddress)));\n      ERC20 assetToken = ERC20(_assetAddress);\n      uint refundValue = assetToken.totalSupply().mul(uint(100).add(database.uintStorage(keccak256(abi.encodePacked(\"platform.fee\"))))).div(100); //total supply plus platform fees\n      reserve.refundETHAsset(_assetAddress, refundValue);\n      return true;\n    }\n\n    // @notice platform owners can recover tokens here\n    function recoverTokens(address _erc20Token)\n    onlyOwner\n    external {\n      ERC20 thisToken = ERC20(_erc20Token);\n      uint contractBalance = thisToken.balanceOf(address(this));\n      thisToken.transfer(msg.sender, contractBalance);\n    }\n\n    // @notice platform owners can destroy contract here\n    function destroy()\n    onlyOwner\n    external {\n      events.transaction('CrowdsaleETH destroyed', address(this), msg.sender, address(this).balance, address(0));\n      selfdestruct(msg.sender);\n    }\n\n    // @notice fallback function: reject ether\n    function ()\n    public\n    payable {\n      revert();\n    }\n\n    //------------------------------------------------------------------------------------------------------------------\n    //                                            Modifiers\n    //------------------------------------------------------------------------------------------------------------------\n\n\n    // @notice Requires that Ether is sent with the transaction\n    modifier requiresEther() {\n      require(msg.value > 0);\n      _;\n    }\n\n    // @notice Sender must be a registered owner\n    modifier onlyOwner {\n      require(database.boolStorage(keccak256(abi.encodePacked(\"owner\", msg.sender))), \"Not owner\");\n      _;\n    }\n\n    // @notice function won't run if owners have paused this contract\n    modifier whenNotPaused {\n      require(!database.boolStorage(keccak256(abi.encodePacked(\"paused\", address(this)))), \"Contract paused\");\n      _;\n    }\n\n    // @notice reverts if the asset does not have a token address set in the database\n    modifier validAsset(address _assetAddress) {\n      require(database.addressStorage(keccak256(abi.encodePacked(\"asset.manager\", _assetAddress))) != address(0), \"Invalid asset\");\n      _;\n    }\n\n    // @notice reverts if the funding deadline has already past\n    modifier betweenDeadlines(address _assetAddress) {\n      require(now <= database.uintStorage(keccak256(abi.encodePacked(\"crowdsale.deadline\", _assetAddress))), \"Past deadline\");\n      require(now >= database.uintStorage(keccak256(abi.encodePacked(\"crowdsale.start\", _assetAddress))), \"Before start time\");\n      _;\n    }\n\n    // @notice reverts if the funding deadline has already past\n    modifier afterDeadline(address _assetAddress) {\n      require(now > database.uintStorage(keccak256(abi.encodePacked(\"crowdsale.deadline\", _assetAddress))), \"Before deadline\");\n      _;\n    }\n\n    // @notice returns true if crowdsale is finshed\n    modifier finalized(address _assetAddress) {\n      require( database.boolStorage(keccak256(abi.encodePacked(\"crowdsale.finalized\", _assetAddress))), \"Crowdsale not finalized\");\n      _;\n    }\n\n    // @notice returns true if crowdsale is not finshed\n    modifier notFinalized(address _assetAddress) {\n      require( !database.boolStorage(keccak256(abi.encodePacked(\"crowdsale.finalized\", _assetAddress))), \"Crowdsale finalized\");\n      _;\n    }\n\n    // @notice returns true if crowdsale has not paid out\n    modifier notPaid(address _assetAddress) {\n      require( !database.boolStorage(keccak256(abi.encodePacked(\"crowdsale.paid\", _assetAddress))), \"Crowdsale had paid out\");\n      _;\n    }\n\n  }\n",
  "sourcePath": "/home/peter/Documents/Work/MyBit/MyBit-Network.tech/contracts/crowdsale/CrowdsaleETH.sol",
  "compiler": {
    "name": "solc",
    "version": "0.4.24+commit.e67f0147.Emscripten.clang"
  },
  "schemaVersion": "3.0.2",
  "updatedAt": "2019-04-08T19:44:50.079Z",
  "devdoc": {
    "methods": {}
  },
  "userdoc": {
    "methods": {}
  }
}