{
  "contractName": "CrowdsaleGeneratorERC20",
  "abi": [
    {
      "inputs": [
        {
          "name": "_database",
          "type": "address"
        },
        {
          "name": "_events",
          "type": "address"
        },
        {
          "name": "_kyber",
          "type": "address"
        }
      ],
      "payable": false,
      "stateMutability": "nonpayable",
      "type": "constructor"
    },
    {
      "constant": false,
      "inputs": [
        {
          "name": "_assetURI",
          "type": "string"
        },
        {
          "name": "_assetManager",
          "type": "address"
        },
        {
          "name": "_operatorID",
          "type": "bytes32"
        },
        {
          "name": "_fundingLength",
          "type": "uint256"
        },
        {
          "name": "_startTime",
          "type": "uint256"
        },
        {
          "name": "_amountToRaise",
          "type": "uint256"
        },
        {
          "name": "_assetManagerPerc",
          "type": "uint256"
        },
        {
          "name": "_escrow",
          "type": "uint256"
        },
        {
          "name": "_fundingToken",
          "type": "address"
        },
        {
          "name": "_paymentToken",
          "type": "address"
        }
      ],
      "name": "createAssetOrderERC20",
      "outputs": [],
      "payable": true,
      "stateMutability": "payable",
      "type": "function"
    },
    {
      "constant": false,
      "inputs": [],
      "name": "destroy",
      "outputs": [],
      "payable": false,
      "stateMutability": "nonpayable",
      "type": "function"
    }
  ],
  "bytecode": "0x608060405234801561001057600080fd5b5060405160608061439d83398101604090815281516020830151919092015160008054600160a060020a0319908116600160a060020a0395861617825560018054821694861694909417909355600280549093169390911692909217905561431f90819061007e90396000f300608060405260043610620000355763ffffffff60e060020a60003504166372bf3c5781146200003a57806383197ef01462000085575b600080fd5b620000836024600480358281019291013590600160a060020a03903581169060443590606435906084359060a4359060c4359060e435906101043581169061012435166200009d565b005b3480156200009257600080fd5b506200008362000c45565b600080600160a060020a03831673eeeeeeeeeeeeeeeeeeeeeeeeeeeeeeeeeeeeeeee1415620000d957348514620000d357600080fd5b620000e5565b3415620000e557600080fd5b33600160a060020a038c161480620002e757506000809054906101000a9004600160a060020a0316600160a060020a0316633b7bfda08c33306000357fffffffff000000000000000000000000000000000000000000000000000000001660405160200180807f617070726f76616c00000000000000000000000000000000000000000000000081525060080185600160a060020a0316600160a060020a0316606060020a02815260140184600160a060020a0316600160a060020a0316606060020a02815260140183600160a060020a0316600160a060020a0316606060020a028152601401827bffffffffffffffffffffffffffffffffffffffffffffffffffffffff19167bffffffffffffffffffffffffffffffffffffffffffffffffffffffff191681526004019450505050506040516020818303038152906040526040518082805190602001908083835b60208310620002565780518252601f19909201916020918201910162000235565b51815160209384036101000a60001901801990921691161790526040805192909401829003822063ffffffff881660e060020a0283526004830152925160248083019650939450929083900301905081600087803b158015620002b857600080fd5b505af1158015620002cd573d6000803e3d6000fd5b505050506040513d6020811015620002e457600080fd5b50515b15156200033e576040805160e560020a62461bcd02815260206004820152601160248201527f55736572206e6f7420617070726f766564000000000000000000000000000000604482015290519081900360640190fd5b606487101562000398576040805160e560020a62461bcd02815260206004820152601b60248201527f43726f776473616c6520676f616c20697320746f6f20736d616c6c0000000000604482015290519081900360640190fd5b6064861062000417576040805160e560020a62461bcd02815260206004820152602860248201527f4d616e616765722070657263656e74206e65656420746f206265206c6573732060448201527f7468616e20313030000000000000000000000000000000000000000000000000606482015290519081900360840190fd5b600054604080517f6f70657261746f722e61636365707473546f6b656e0000000000000000000000602080830191909152603582018e9052600160a060020a03888116606060020a026055840152835180840360490181526069909301938490528251941693633b7bfda093918291908401908083835b60208310620004af5780518252601f1990920191602091820191016200048e565b51815160209384036101000a60001901801990921691161790526040805192909401829003822063ffffffff881660e060020a0283526004830152925160248083019650939450929083900301905081600087803b1580156200051157600080fd5b505af115801562000526573d6000803e3d6000fd5b505050506040513d60208110156200053d57600080fd5b50511515620005bc576040805160e560020a62461bcd02815260206004820152602360248201527f4f70657261746f7220646f6573206e6f7420616363657074207468697320746f60448201527f6b656e0000000000000000000000000000000000000000000000000000000000606482015290519081900360840190fd5b6000600160a060020a03166000809054906101000a9004600160a060020a0316600160a060020a03166304f49a3a8c60405160200180807f6f70657261746f7200000000000000000000000000000000000000000000000081525060080182600019166000191681526020019150506040516020818303038152906040526040518082805190602001908083835b602083106200066b5780518252601f1990920191602091820191016200064a565b51815160209384036101000a60001901801990921691161790526040805192909401829003822063ffffffff881660e060020a0283526004830152925160248083019650939450929083900301905081600087803b158015620006cd57600080fd5b505af1158015620006e2573d6000803e3d6000fd5b505050506040513d6020811015620006f957600080fd5b5051600160a060020a031614156200075b576040805160e560020a62461bcd02815260206004820152601760248201527f4f70657261746f7220646f6573206e6f74206578697374000000000000000000604482015290519081900360640190fd5b6000809054906101000a9004600160a060020a0316600160a060020a0316633b7bfda08e8e60405160200180807f61737365742e75726900000000000000000000000000000000000000000000008152506009018383808284378201915050925050506040516020818303038152906040526040518082805190602001908083835b60208310620007fe5780518252601f199092019160209182019101620007dd565b51815160209384036101000a60001901801990921691161790526040805192909401829003822063ffffffff881660e060020a0283526004830152925160248083019650939450929083900301905081600087803b1580156200086057600080fd5b505af115801562000875573d6000803e3d6000fd5b505050506040513d60208110156200088c57600080fd5b505115620008e4576040805160e560020a62461bcd02815260206004820152601760248201527f417373657420555249206973206e6f7420756e69717565000000000000000000604482015290519081900360640190fd5b42881015620008f657429150620008fa565b8791505b8c8c6000809054906101000a9004600160a060020a0316600160a060020a03166304f49a3a60405160200180807f636f6e7472616374000000000000000000000000000000000000000000000000815250600801807f43726f776473616c654552433230000000000000000000000000000000000000815250600e0190506040516020818303038152906040526040518082805190602001908083835b60208310620009b85780518252601f19909201916020918201910162000997565b51815160209384036101000a60001901801990921691161790526040805192909401829003822063ffffffff881660e060020a0283526004830152925160248083019650939450929083900301905081600087803b15801562000a1a57600080fd5b505af115801562000a2f573d6000803e3d6000fd5b505050506040513d602081101562000a4657600080fd5b50518662000a5362002afd565b600160a060020a03808416602083015282166040820152606080825281018490528060808101868680828437820191505095505050505050604051809103906000f08015801562000aa8573d6000803e3d6000fd5b50905062000ab981838b8a62000ea8565b151562000ac557600080fd5b62000b07818e8e8080601f0160208091040260200160405190810160405280939291908181526020018383808284378201915050505050508c8e8a8c6200147b565b151562000b1357600080fd5b600085111562000b375762000b2b8b82858862001e27565b151562000b3757600080fd5b600160009054906101000a9004600160a060020a0316600160a060020a03166378576a918e8e848f6040518563ffffffff1660e060020a02815260040180806020018060200185600160a060020a0316600160a060020a0316815260200184600160a060020a0316600160a060020a03168152602001838103835260158152602001807f41737365742066756e64696e6720737461727465640000000000000000000000815250602001838103825287878281815260200192508082843782019150509650505050505050600060405180830381600087803b15801562000c1d57600080fd5b505af115801562000c32573d6000803e3d6000fd5b5050505050505050505050505050505050565b600054604080517f6f776e6572000000000000000000000000000000000000000000000000000000602080830191909152606060020a33026025830152825160198184030181526039909201928390528151600160a060020a0390941693633b7bfda093918291908401908083835b6020831062000cd55780518252601f19909201916020918201910162000cb4565b51815160209384036101000a60001901801990921691161790526040805192909401829003822063ffffffff881660e060020a0283526004830152925160248083019650939450929083900301905081600087803b15801562000d3757600080fd5b505af115801562000d4c573d6000803e3d6000fd5b505050506040513d602081101562000d6357600080fd5b5051151562000dbc576040805160e560020a62461bcd02815260206004820152600960248201527f4e6f74206f776e65720000000000000000000000000000000000000000000000604482015290519081900360640190fd5b600154604080517f68b96270000000000000000000000000000000000000000000000000000000008152306024820181905233604483015231606482015260a06004820152602160a48201527f43726f776473616c6547656e657261746f7245524332302064657374726f796560c48201527f640000000000000000000000000000000000000000000000000000000000000060e48201529051600160a060020a03909216916368b96270916101048082019260009290919082900301818387803b15801562000e8b57600080fd5b505af115801562000ea0573d6000803e3d6000fd5b503392505050ff5b60008054604080517f63726f776473616c652e73746172740000000000000000000000000000000000602080830191909152600160a060020a03898116606060020a02602f84015283518084036023018152604390930193849052825194169363e2a4853a93918291908401908083835b6020831062000f3a5780518252601f19909201916020918201910162000f19565b5181516020939093036101000a60001901801990911692169190911790526040805191909301819003812063ffffffff871660e060020a0282526004820152602481018b9052915160448084019550600094509092839003019050818387803b15801562000fa757600080fd5b505af115801562000fbc573d6000803e3d6000fd5b5050600054604080517f63726f776473616c652e646561646c696e650000000000000000000000000000602080830191909152600160a060020a038b8116606060020a0260328401528351808403602601815260469093019384905282519416955063e2a4853a9450909282918401908083835b60208310620010515780518252601f19909201916020918201910162001030565b6001836020036101000a038019825116818451168082178552505050505050905001915050604051809103902062001093868862002a6990919063ffffffff16565b6040518363ffffffff1660e060020a02815260040180836000191660001916815260200182815260200192505050600060405180830381600087803b158015620010dc57600080fd5b505af1158015620010f1573d6000803e3d6000fd5b5050600054604080517f63726f776473616c652e676f616c000000000000000000000000000000000000602080830191909152600160a060020a038b8116606060020a02602e8401528351808403602201815260429093019384905282519416955063e2a4853a9450909282918401908083835b60208310620011865780518252601f19909201916020918201910162001165565b5181516020939093036101000a60001901801990911692169190911790526040805191909301819003812063ffffffff871660e060020a028252600482015260248101899052915160448084019550600094509092839003019050818387803b158015620011f357600080fd5b505af115801562001208573d6000803e3d6000fd5b5050600054604080517f63726f776473616c652e72656d61696e696e6700000000000000000000000000602080830191909152600160a060020a038b8116606060020a0260338401528351808403602701815260479093019384905282519416955063e2a4853a9450909282918401908083835b602083106200129d5780518252601f1990920191602091820191016200127c565b51815160209384036101000a6000190180199092169116179052604080519290940182900382206000547f706c6174666f726d2e6665650000000000000000000000000000000000000000848401528551600c818603018152602c9094019586905283519197506200140e9650606495620014019550620013f394600160a060020a039092169363a855d4ce9382918401908083835b60208310620013545780518252601f19909201916020918201910162001333565b51815160209384036101000a60001901801990921691161790526040805192909401829003822063ffffffff881660e060020a0283526004830152925160248083019650939450929083900301905081600087803b158015620013b657600080fd5b505af1158015620013cb573d6000803e3d6000fd5b505050506040513d6020811015620013e257600080fd5b505160649063ffffffff62002a6916565b889063ffffffff62002a8416565b9063ffffffff62002ab316565b6040518363ffffffff1660e060020a02815260040180836000191660001916815260200182815260200192505050600060405180830381600087803b1580156200145757600080fd5b505af11580156200146c573d6000803e3d6000fd5b50600198975050505050505050565b60008054604080517f706c6174666f726d2e70657263656e74616765000000000000000000000000006020808301919091528251808303601301815260339092019283905281518594620015cd94620015ba94600160a060020a039092169363a855d4ce9382918401908083835b602083106200150a5780518252601f199092019160209182019101620014e9565b51815160209384036101000a60001901801990921691161790526040805192909401829003822063ffffffff881660e060020a0283526004830152925160248083019650939450929083900301905081600087803b1580156200156c57600080fd5b505af115801562001581573d6000803e3d6000fd5b505050506040513d60208110156200159857600080fd5b5051620015ad60648863ffffffff62002ac916565b9063ffffffff62002ac916565b6200140185606463ffffffff62002a8416565b600054604080517f61737365742e6d616e61676572546f6b656e7300000000000000000000000000602080830191909152600160a060020a038d8116606060020a0260338401528351808403602701815260479093019384905282519596509093169363e2a4853a939192918291908401908083835b60208310620016645780518252601f19909201916020918201910162001643565b6001836020036101000a0380198251168184511680821785525050505050509050019150506040518091039020620016a6878562002adc90919063ffffffff16565b6040518363ffffffff1660e060020a02815260040180836000191660001916815260200182815260200192505050600060405180830381600087803b158015620016ef57600080fd5b505af115801562001704573d6000803e3d6000fd5b5050600054604080517f61737365742e706c6174666f726d546f6b656e73000000000000000000000000602080830191909152600160a060020a038e8116606060020a0260348401528351808403602801815260489093019384905282519416955063e2a4853a9450909282918401908083835b60208310620017995780518252601f19909201916020918201910162001778565b51815160209384036101000a6000190180199092169116179052604080519290940182900382206000547f706c6174666f726d2e70657263656e746167650000000000000000000000000084840152855160138186030181526033909401958690528351919750620018e19650600160a060020a03169463a855d4ce9450918291908401908083835b60208310620018435780518252601f19909201916020918201910162001822565b51815160209384036101000a60001901801990921691161790526040805192909401829003822063ffffffff881660e060020a0283526004830152925160248083019650939450929083900301905081600087803b158015620018a557600080fd5b505af1158015620018ba573d6000803e3d6000fd5b505050506040513d6020811015620018d157600080fd5b5051859063ffffffff62002adc16565b6040518363ffffffff1660e060020a02815260040180836000191660001916815260200182815260200192505050600060405180830381600087803b1580156200192a57600080fd5b505af11580156200193f573d6000803e3d6000fd5b5050600054604080517f61737365742e6d616e6167657200000000000000000000000000000000000000602080830191909152600160a060020a038e8116606060020a02602d8401528351808403602101815260419093019384905282519416955063ca446dd99450909282918401908083835b60208310620019d45780518252601f199092019160209182019101620019b3565b5181516020939093036101000a60001901801990911692169190911790526040805191909301819003812063ffffffff871660e060020a0282526004820152600160a060020a038c166024820152915160448084019550600094509092839003019050818387803b15801562001a4957600080fd5b505af115801562001a5e573d6000803e3d6000fd5b5050600054604080517f61737365742e6f70657261746f72000000000000000000000000000000000000602080830191909152600160a060020a038e8116606060020a02602e8401528351808403602201815260429093019384905282519416955063ca446dd99450909282918401908083835b6020831062001af35780518252601f19909201916020918201910162001ad2565b6001836020036101000a03801982511681845116808217855250505050505090500191505060405180910390206000809054906101000a9004600160a060020a0316600160a060020a03166304f49a3a8a60405160200180807f6f70657261746f7200000000000000000000000000000000000000000000000081525060080182600019166000191681526020019150506040516020818303038152906040526040518082805190602001908083835b6020831062001bc45780518252601f19909201916020918201910162001ba3565b51815160209384036101000a60001901801990921691161790526040805192909401829003822063ffffffff881660e060020a0283526004830152925160248083019650939450929083900301905081600087803b15801562001c2657600080fd5b505af115801562001c3b573d6000803e3d6000fd5b505050506040513d602081101562001c5257600080fd5b50516040805160e060020a63ffffffff86160281526004810193909352600160a060020a03909116602483015251604480830192600092919082900301818387803b15801562001ca157600080fd5b505af115801562001cb6573d6000803e3d6000fd5b50506000546040517f61737365742e757269000000000000000000000000000000000000000000000060208083019182528c51600160a060020a03909416955063abfdcced94508c93919260290191908401908083835b6020831062001d2e5780518252601f19909201916020918201910162001d0d565b6001836020036101000a0380198251168184511680821785525050505050509050019150506040516020818303038152906040526040518082805190602001908083835b6020831062001d935780518252601f19909201916020918201910162001d72565b5181516020939093036101000a60001901801990911692169190911790526040805191909301819003812063ffffffff871660e060020a028252600482015260016024820152915160448084019550600094509092839003019050818387803b15801562001e0057600080fd5b505af115801562001e15573d6000803e3d6000fd5b5060019b9a5050505050505050505050565b6000806000806000806000898b6040516020018083600160a060020a0316600160a060020a0316606060020a02815260140182600160a060020a0316600160a060020a0316606060020a028152601401925050506040516020818303038152906040526040518082805190602001908083835b6020831062001ebb5780518252601f19909201916020918201910162001e9a565b51815160209384036101000a6000190180199092169116179052604080519290940182900382206000547f706c6174666f726d2e746f6b656e000000000000000000000000000000000000848401528551600e818603018152602e909401958690528351919c50600160a060020a031696506304f49a3a9550919392508291908401908083835b6020831062001f635780518252601f19909201916020918201910162001f42565b51815160209384036101000a60001901801990921691161790526040805192909401829003822063ffffffff881660e060020a0283526004830152925160248083019650939450929083900301905081600087803b15801562001fc557600080fd5b505af115801562001fda573d6000803e3d6000fd5b505050506040513d602081101562001ff157600080fd5b50519350600160a060020a03898116908516146200266257604080517f70a082310000000000000000000000000000000000000000000000000000000081523060048201529051859450600160a060020a038516916370a082319160248083019260209291908290030181600087803b1580156200206e57600080fd5b505af115801562002083573d6000803e3d6000fd5b505050506040513d60208110156200209a57600080fd5b50519150600160a060020a03891673eeeeeeeeeeeeeeeeeeeeeeeeeeeeeeeeeeeeeeee1415620021ae57600254604080517fcb3c28c7000000000000000000000000000000000000000000000000000000008152600160a060020a038c81166004830152602482018c905287811660448301523060648301527f80000000000000000000000000000000000000000000000000000000000000006084830152600060a4830181905260c48301529151919092169163cb3c28c7918b9160e48082019260209290919082900301818588803b1580156200217857600080fd5b505af11580156200218d573d6000803e3d6000fd5b50505050506040513d6020811015620021a557600080fd5b50620023e99050565b50604080517f23b872dd000000000000000000000000000000000000000000000000000000008152600160a060020a038c81166004830152306024830152604482018a905291518a928316916323b872dd9160648083019260209291908290030181600087803b1580156200222257600080fd5b505af115801562002237573d6000803e3d6000fd5b505050506040513d60208110156200224e57600080fd5b505115156200225c57600080fd5b600254604080517f095ea7b3000000000000000000000000000000000000000000000000000000008152600160a060020a039283166004820152602481018b905290519183169163095ea7b3916044808201926020929091908290030181600087803b158015620022cc57600080fd5b505af1158015620022e1573d6000803e3d6000fd5b505050506040513d6020811015620022f857600080fd5b505115156200230657600080fd5b600254604080517fcb3c28c7000000000000000000000000000000000000000000000000000000008152600160a060020a038c81166004830152602482018c905287811660448301523060648301527f80000000000000000000000000000000000000000000000000000000000000006084830152600060a4830181905260c48301819052925193169263cb3c28c79260e480840193602093929083900390910190829087803b158015620023ba57600080fd5b505af1158015620023cf573d6000803e3d6000fd5b505050506040513d6020811015620023e657600080fd5b50505b604080517f70a0823100000000000000000000000000000000000000000000000000000000815230600482015290516200248d918491600160a060020a038716916370a082319160248083019260209291908290030181600087803b1580156200245257600080fd5b505af115801562002467573d6000803e3d6000fd5b505050506040513d60208110156200247e57600080fd5b50519063ffffffff62002ac916565b600054604080517f636f6e74726163740000000000000000000000000000000000000000000000006020808301919091527f41737365744d616e61676572457363726f77000000000000000000000000000060288301528251601a818403018152603a909201928390528151949a50600160a060020a038089169563a9059cbb95909116936304f49a3a9392909182918401908083835b60208310620025455780518252601f19909201916020918201910162002524565b51815160209384036101000a60001901801990921691161790526040805192909401829003822063ffffffff881660e060020a0283526004830152925160248083019650939450929083900301905081600087803b158015620025a757600080fd5b505af1158015620025bc573d6000803e3d6000fd5b505050506040513d6020811015620025d357600080fd5b50516040805160e060020a63ffffffff8516028152600160a060020a039092166004830152602482018a90525160448083019260209291908290030181600087803b1580156200262257600080fd5b505af115801562002637573d6000803e3d6000fd5b505050506040513d60208110156200264e57600080fd5b505115156200265c57600080fd5b62002851565b87955083600160a060020a03166323b872dd8c6000809054906101000a9004600160a060020a0316600160a060020a03166304f49a3a60405160200180807f636f6e7472616374000000000000000000000000000000000000000000000000815250600801807f41737365744d616e61676572457363726f77000000000000000000000000000081525060120190506040516020818303038152906040526040518082805190602001908083835b60208310620027315780518252601f19909201916020918201910162002710565b51815160209384036101000a60001901801990921691161790526040805192909401829003822063ffffffff881660e060020a0283526004830152925160248083019650939450929083900301905081600087803b1580156200279357600080fd5b505af1158015620027a8573d6000803e3d6000fd5b505050506040513d6020811015620027bf57600080fd5b50516040805160e060020a63ffffffff8616028152600160a060020a039384166004820152929091166024830152604482018a90525160648083019260209291908290030181600087803b1580156200281757600080fd5b505af11580156200282c573d6000803e3d6000fd5b505050506040513d60208110156200284357600080fd5b505115156200285157600080fd5b600054604080517f61737365742e657363726f770000000000000000000000000000000000000000602080830191909152602c8083018a905283518084039091018152604c909201928390528151600160a060020a039094169363e2a4853a93918291908401908083835b60208310620028dd5780518252601f199092019160209182019101620028bc565b5181516020939093036101000a60001901801990911692169190911790526040805191909301819003812063ffffffff871660e060020a0282526004820152602481018d9052915160448084019550600094509092839003019050818387803b1580156200294a57600080fd5b505af11580156200295f573d6000803e3d6000fd5b50505050600160009054906101000a9004600160a060020a0316600160a060020a0316630b94df4c8b878e8a6040518563ffffffff1660e060020a028152600401808060200186600160a060020a0316600160a060020a03168152602001856000191660001916815260200184600160a060020a0316600160a060020a031681526020018381526020018281038252600d8152602001807f457363726f77206c6f636b65640000000000000000000000000000000000000081525060200195505050505050600060405180830381600087803b15801562002a3f57600080fd5b505af115801562002a54573d6000803e3d6000fd5b5060019e9d5050505050505050505050505050565b60008282018381101562002a7957fe5b8091505b5092915050565b60008083151562002a99576000915062002a7d565b5082820282848281151562002aaa57fe5b041462002a7957fe5b6000818381151562002ac157fe5b049392505050565b60008282111562002ad657fe5b50900390565b600062002af662002aee848462002a84565b606462002ab3565b9392505050565b6040516117e58062002b0f83390190560060806040523480156200001157600080fd5b50604051620017e5380380620017e583398101604090815281516020808401519284015191909301805190938491829160129186916200005791600391860190620000c9565b5082516200006d906004906020860190620000c9565b506005805460006002556201000060b060020a03191662010000600160a060020a03938416021760ff191660ff939093169290921790915560068054600160a060020a0319169490911693909317909255506200016e92505050565b828054600181600116156101000203166002900490600052602060002090601f016020900481019282601f106200010c57805160ff19168380011785556200013c565b828001600101855582156200013c579182015b828111156200013c5782518255916020019190600101906200011f565b506200014a9291506200014e565b5090565b6200016b91905b808211156200014a576000815560010162000155565b90565b611667806200017e6000396000f3006080604052600436106101695763ffffffff7c010000000000000000000000000000000000000000000000000000000060003504166305d2035b811461016e57806306fdde0314610197578063095ea7b31461022157806318160ddd1461024557806323b872dd1461026c5780632ba1b3a1146102965780632da208e5146102ab57806330d0e75f146102c0578063313ce567146102d75780633bdfa920146103025780633ccfd60b1461032357806340c10f19146103385780634ece90a81461035c57806352ff7fa91461038d57806355ed47c9146103a557806366188463146103c657806370a08231146103ea578063785e9e861461040b5780637d64bcb41461042057806395d89b4114610435578063a8fa8e521461044a578063a9059cbb1461045f578063b8c8e1e614610483578063cae9ca51146104a4578063d4a191161461050d578063d73dd62314610522578063dd62ed3e14610546578063efcb5dea1461056d575b600080fd5b34801561017a57600080fd5b5061018361058e565b604080519115158252519081900360200190f35b3480156101a357600080fd5b506101ac61059c565b6040805160208082528351818301528351919283929083019185019080838360005b838110156101e65781810151838201526020016101ce565b50505050905090810190601f1680156102135780820380516001836020036101000a031916815260200191505b509250505060405180910390f35b34801561022d57600080fd5b50610183600160a060020a036004351660243561062a565b34801561025157600080fd5b5061025a61067e565b60408051918252519081900360200190f35b34801561027857600080fd5b50610183600160a060020a0360043581169060243516604435610684565b3480156102a257600080fd5b5061025a610745565b3480156102b757600080fd5b5061025a61074b565b3480156102cc57600080fd5b506102d5610751565b005b3480156102e357600080fd5b506102ec6108b5565b6040805160ff9092168252519081900360200190f35b34801561030e57600080fd5b5061025a600160a060020a03600435166108be565b34801561032f57600080fd5b5061018361090a565b34801561034457600080fd5b50610183600160a060020a0360043516602435610a79565b34801561036857600080fd5b50610371610b88565b60408051600160a060020a039092168252519081900360200190f35b34801561039957600080fd5b50610183600435610b97565b3480156103b157600080fd5b5061025a600160a060020a0360043516610d93565b3480156103d257600080fd5b50610183600160a060020a0360043516602435610df5565b3480156103f657600080fd5b5061025a600160a060020a0360043516610ed4565b34801561041757600080fd5b50610371610eef565b34801561042c57600080fd5b50610183610efe565b34801561044157600080fd5b506101ac610f49565b34801561045657600080fd5b5061025a610fa4565b34801561046b57600080fd5b50610183600160a060020a0360043516602435610faa565b34801561048f57600080fd5b5061025a600160a060020a0360043516611044565b3480156104b057600080fd5b50604080516020600460443581810135601f8101849004840285018401909552848452610183948235600160a060020a03169460248035953695946064949201919081908401838280828437509497506110569650505050505050565b34801561051957600080fd5b506101ac61120c565b34801561052e57600080fd5b50610183600160a060020a03600435166024356112a2565b34801561055257600080fd5b5061025a600160a060020a0360043581169060243516611329565b34801561057957600080fd5b5061025a600160a060020a0360043516611354565b600554610100900460ff1681565b6003805460408051602060026001851615610100026000190190941693909304601f810184900484028201840190925281815292918301828280156106225780601f106105f757610100808354040283529160200191610622565b820191906000526020600020905b81548152906001019060200180831161060557829003601f168201915b505050505081565b336000818152600160209081526040808320600160a060020a0387168085529083528184208690558151868152915193949093909260008051602061161c833981519152928290030190a350600192915050565b60025490565b6000836106b861069382610d93565b600160a060020a0383166000908152600a60205260409020549063ffffffff61136616565b600160a060020a0382166000908152600a6020908152604080832093909355600954600b90915291902055836106f061069382610d93565b600160a060020a038083166000908152600a6020908152604080832094909455600954600b90915292902091909155851630141561072d57600080fd5b610738868686611375565b5060019695505050505050565b60075481565b60085481565b600080600061076d6008546007546114ea90919063ffffffff16565b600654604080517f70a082310000000000000000000000000000000000000000000000000000000081523060048201529051929550600160a060020a03909116916370a08231916024808201926020929091908290030181600087803b1580156107d657600080fd5b505af11580156107ea573d6000803e3d6000fd5b505050506040513d602081101561080057600080fd5b50519150610814828463ffffffff6114ea16565b9050600081111561087d576002546108639061085490610848846d04ee2d6d415b85acef810000000063ffffffff6114fc16565b9063ffffffff61152716565b6009549063ffffffff61136616565b600955600754610879908263ffffffff61136616565b6007555b6040805182815290517f0d7ab7150531466ac81cc2479d86788246bab0e9cc606a06ec6af5c8ab0d6f8e9181900360200190a1505050565b60055460ff1690565b600160a060020a0381166000908152600a6020526040812054610904906d04ee2d6d415b85acef810000000090610848906108f886610d93565b9063ffffffff61136616565b92915050565b6000803361091a61069382610d93565b600160a060020a0382166000908152600a6020818152604080842094909455600954600b825284842055338352522054610968906d04ee2d6d415b85acef810000000063ffffffff61152716565b336000908152600a602052604081205560085490925061098e908363ffffffff61136616565b600855600654604080517fa9059cbb000000000000000000000000000000000000000000000000000000008152336004820152602481018590529051600160a060020a039092169163a9059cbb916044808201926020929091908290030181600087803b1580156109fe57600080fd5b505af1158015610a12573d6000803e3d6000fd5b505050506040513d6020811015610a2857600080fd5b50511515610a3557600080fd5b604080513381526020810184905281517ff5b510c554f6c572235f7e531ec8f287b350b15c212250b993180473a6aeb7d1929181900390910190a160019250505090565b600554600090610100900460ff16158015610aa45750600554620100009004600160a060020a031633145b1515610aaf57600080fd5b600254610ac2908363ffffffff61136616565b600255600160a060020a038316600090815260208190526040902054610aee908363ffffffff61136616565b600160a060020a03841660008181526020818152604091829020939093558051858152905191927f0f6798a560793a54c3bcfe86a93cde1e73087d944c0ea20544137d412139688592918290030190a2604080518381529051600160a060020a038516916000917fddf252ad1be2c89b69c2b068fc378daa952ba7f163c4a11628f55a4df523b3ef9181900360200190a350600192915050565b600654600160a060020a031690565b6000808211610c0757604080517f08c379a000000000000000000000000000000000000000000000000000000000815260206004820152601060248201527f43616e6e6f742073656e64207a65726f00000000000000000000000000000000604482015290519081900360640190fd5b600654604080517f23b872dd000000000000000000000000000000000000000000000000000000008152336004820152306024820152604481018590529051600160a060020a03909216916323b872dd916064808201926020929091908290030181600087803b158015610c7a57600080fd5b505af1158015610c8e573d6000803e3d6000fd5b505050506040513d6020811015610ca457600080fd5b50511515610d1357604080517f08c379a000000000000000000000000000000000000000000000000000000000815260206004820152600f60248201527f5472616e73666572206661696c65640000000000000000000000000000000000604482015290519081900360640190fd5b600254610d3c9061085490610848856d04ee2d6d415b85acef810000000063ffffffff6114fc16565b600955600754610d52908363ffffffff61136616565b60075560408051838152905133917fe3166012cb87b3dec8e117fe0e096a47387f94ea2ec12086ed8ae24ff8c237fe919081900360200190a2506001919050565b600160a060020a0381166000908152600b60205260408120546009548291610dc1919063ffffffff6114ea16565b600160a060020a038416600090815260208190526040902054909150610dee90829063ffffffff6114fc16565b9392505050565b336000908152600160209081526040808320600160a060020a0386168452909152812054808310610e4957336000908152600160209081526040808320600160a060020a0388168452909152812055610e7e565b610e59818463ffffffff6114ea16565b336000908152600160209081526040808320600160a060020a03891684529091529020555b336000818152600160209081526040808320600160a060020a03891680855290835292819020548151908152905192939260008051602061161c833981519152929181900390910190a3600191505b5092915050565b600160a060020a031660009081526020819052604090205490565b600654600160a060020a031681565b600554600090610100900460ff16158015610f295750600554620100009004600160a060020a031633145b1515610f3457600080fd5b506005805461ff001916610100179055600190565b6004805460408051602060026001851615610100026000190190941693909304601f810184900484028201840190925281815292918301828280156106225780601f106105f757610100808354040283529160200191610622565b60095481565b600033610fb961069382610d93565b600160a060020a0382166000908152600a6020908152604080832093909355600954600b9091529190205583610ff161069382610d93565b600160a060020a038083166000908152600a6020908152604080832094909455600954600b90915292902091909155851630141561102e57600080fd5b611038858561153c565b50600195945050505050565b600a6020526000908152604090205481565b60003361106561069382610d93565b600160a060020a0382166000908152600a6020908152604080832093909355600954600b909152919020558461109d61069382610d93565b600160a060020a038083166000908152600a6020908152604080832094909455600954600b8252848320553380835260018252848320938b1680845293825291849020899055835189815293519293919260008051602061161c8339815191529281900390910190a36040517f8f4ffcb10000000000000000000000000000000000000000000000000000000081523360048201818152602483018890523060448401819052608060648501908152885160848601528851600160a060020a038c1695638f4ffcb195948c94938c939192909160a490910190602085019080838360005b83811015611199578181015183820152602001611181565b50505050905090810190601f1680156111c65780820380516001836020036101000a031916815260200191505b5095505050505050600060405180830381600087803b1580156111e857600080fd5b505af11580156111fc573d6000803e3d6000fd5b5060019998505050505050505050565b60038054604080516020601f60026000196101006001881615020190951694909404938401819004810282018101909252828152606093909290918301828280156112985780601f1061126d57610100808354040283529160200191611298565b820191906000526020600020905b81548152906001019060200180831161127b57829003601f168201915b5050505050905090565b336000908152600160209081526040808320600160a060020a03861684529091528120546112d6908363ffffffff61136616565b336000818152600160209081526040808320600160a060020a03891680855290835292819020859055805194855251919360008051602061161c833981519152929081900390910190a350600192915050565b600160a060020a03918216600090815260016020908152604080832093909416825291909152205490565b600b6020526000908152604090205481565b600082820183811015610dee57fe5b600160a060020a03831660009081526020819052604081205482111561139a57600080fd5b600160a060020a03841660009081526001602090815260408083203384529091529020548211156113ca57600080fd5b600160a060020a03831615156113df57600080fd5b600160a060020a038416600090815260208190526040902054611408908363ffffffff6114ea16565b600160a060020a03808616600090815260208190526040808220939093559085168152205461143d908363ffffffff61136616565b600160a060020a0380851660009081526020818152604080832094909455918716815260018252828120338252909152205461147f908363ffffffff6114ea16565b600160a060020a03808616600081815260016020908152604080832033845282529182902094909455805186815290519287169391927fddf252ad1be2c89b69c2b068fc378daa952ba7f163c4a11628f55a4df523b3ef929181900390910190a35060019392505050565b6000828211156114f657fe5b50900390565b60008083151561150f5760009150610ecd565b5082820282848281151561151f57fe5b0414610dee57fe5b6000818381151561153457fe5b049392505050565b3360009081526020819052604081205482111561155857600080fd5b600160a060020a038316151561156d57600080fd5b3360009081526020819052604090205461158d908363ffffffff6114ea16565b3360009081526020819052604080822092909255600160a060020a038516815220546115bf908363ffffffff61136616565b600160a060020a038416600081815260208181526040918290209390935580518581529051919233927fddf252ad1be2c89b69c2b068fc378daa952ba7f163c4a11628f55a4df523b3ef9281900390910190a35060019291505056008c5be1e5ebec7d5bd14f71427d1e84f3dd0314c0f7b2291e5b200ac8c7c3b925a165627a7a723058200c6398bd7298a69093eb42cabcc5722c6adcd629a162cc365bca1d1f4e91f1920029a165627a7a72305820d3c13d2e01e3df251c43688924211dd8d60159ac686f7ae5d94b0186aa71befa0029",
  "source": " pragma solidity ^0.4.24;\n\nimport \"../math/SafeMath.sol\";\nimport \"../interfaces/DBInterface.sol\";\nimport \"../tokens/erc20/DividendTokenERC20.sol\";\nimport \"../database/Events.sol\";\nimport \"../interfaces/KyberInterface.sol\";\n\ninterface CrowdsaleGeneratorERC20_ERC20 {\n  function balanceOf(address _who) external view returns (uint256);\n  function approve(address _spender, uint256 _value) external returns (bool);\n  function transfer(address _to, uint256 _value) external returns (bool);\n  function transferFrom(address _from, address _to, uint256 _value) external returns (bool);\n}\n\n// @title A crowdsale generator contract\n// @author Kyle Dewhurst & Peter Phillips, MyBit Foundation\n// @notice AssetManagers can initiate a crowdsale that accepts ERC20 tokens as payment here\ncontract CrowdsaleGeneratorERC20 {\n  using SafeMath for uint256;\n\n  DBInterface private database;\n  Events private events;\n  KyberInterface private kyber;\n  //CrowdsaleGeneratorERC20_ERC20Burner private burner;\n\n  //uint constant scalingFactor = 10**32;\n\n  // @notice This contract\n  // @param: The address for the database contract used by this platform\n  constructor(address _database, address _events, address _kyber)\n  public{\n      database = DBInterface(_database);\n      events = Events(_events);\n      kyber = KyberInterface(_kyber);\n  }\n\n  // @notice AssetManagers can initiate a crowdfund for a new asset here\n  // @dev the crowdsaleERC20 contract is granted rights to mint asset-tokens as it receives funding\n  // @param (string) _assetURI = The location where information about the asset can be found\n  // @param (bytes32) _operatorID = The ID of the operator who is to create and install this asset\n  // @param (uint) _fundingLength = The number of seconds this crowdsale is to go on for until it fails\n  // @param (uint) _startTime = The timestamp at which funding for this asset begins\n  // @param (uint) _amountToRaise = The amount of tokens required to raise for the crowdsale to be a success\n  // @param (uint) _assetManagerPerc = The percentage of the total revenue which is to go to the AssetManager if asset is a success\n  // @param (address) _fundingToken = The ERC20 token to be used to fund the crowdsale (Operator must accept this token as payment)\n  function createAssetOrderERC20(string _assetURI, address _assetManager, bytes32 _operatorID, uint _fundingLength, uint _startTime, uint _amountToRaise, uint _assetManagerPerc, uint _escrow, address _fundingToken, address _paymentToken)\n  payable\n  external\n  {\n    if(_paymentToken == address(0xEeeeeEeeeEeEeeEeEeEeeEEEeeeeEeeeeeeeEEeE)){\n      require(msg.value == _escrow);\n    } else {\n      require(msg.value == 0);\n    }\n    require(msg.sender == _assetManager || database.boolStorage(keccak256(abi.encodePacked(\"approval\", _assetManager, msg.sender, address(this), msg.sig))), \"User not approved\");\n    require(_amountToRaise >= 100, \"Crowdsale goal is too small\");\n    require(_assetManagerPerc < 100, \"Manager percent need to be less than 100\");\n    require(database.boolStorage(keccak256(abi.encodePacked(\"operator.acceptsToken\", _operatorID, _fundingToken))), \"Operator does not accept this token\");\n    require(database.addressStorage(keccak256(abi.encodePacked(\"operator\", _operatorID))) != address(0), \"Operator does not exist\");\n    require(!database.boolStorage(keccak256(abi.encodePacked(\"asset.uri\", _assetURI))), \"Asset URI is not unique\"); //Check that asset URI is unique\n    uint startTime;\n    if(_startTime < now){\n      startTime = now;\n    } else {\n      startTime = _startTime;\n    }\n    address assetAddress = address(new DividendTokenERC20(_assetURI, database.addressStorage(keccak256(abi.encodePacked(\"contract\", \"CrowdsaleERC20\"))), _fundingToken));\n    require(setCrowdsaleValues(assetAddress, startTime, _fundingLength, _amountToRaise));\n    require(setAssetValues(assetAddress, _assetURI, _operatorID, _assetManager, _assetManagerPerc, _amountToRaise));\n    //If escrow, lock\n    if(_escrow > 0){ require(lockEscrowInternal(_assetManager, assetAddress, _paymentToken, _escrow));}\n    events.asset('Asset funding started', _assetURI, assetAddress, _assetManager);\n  }\n\n  // @notice platform owners can destroy contract here\n  function destroy()\n  onlyOwner\n  external {\n    events.transaction('CrowdsaleGeneratorERC20 destroyed', address(this), msg.sender, address(this).balance, '');\n    selfdestruct(msg.sender);\n  }\n\n  //////////////////////////////////////////////////////////////////////////////////////////////////////////////////\n  //                                            Internal/ Private Functions\n  //////////////////////////////////////////////////////////////////////////////////////////////////////////////////\n\n  function setCrowdsaleValues(address _assetAddress, uint _startTime, uint _fundingLength, uint _amountToRaise)\n  private\n  returns (bool){\n    database.setUint(keccak256(abi.encodePacked(\"crowdsale.start\", _assetAddress)), _startTime);\n    database.setUint(keccak256(abi.encodePacked(\"crowdsale.deadline\", _assetAddress)), _startTime.add(_fundingLength));\n    database.setUint(keccak256(abi.encodePacked(\"crowdsale.goal\", _assetAddress)), _amountToRaise);\n    database.setUint(keccak256(abi.encodePacked(\"crowdsale.remaining\", _assetAddress)), _amountToRaise.mul(uint(100).add(database.uintStorage(keccak256(abi.encodePacked(\"platform.fee\"))))).div(100));\n    return true;\n  }\n\n  function setAssetValues(address _assetAddress, string _assetURI, bytes32 _operatorID, address _assetManager, uint _assetManagerPerc, uint _amountToRaise)\n  private\n  returns (bool){\n    uint totalTokens = _amountToRaise.mul(100).div(uint(100).sub(_assetManagerPerc).sub(database.uintStorage(keccak256(abi.encodePacked(\"platform.percentage\")))));\n    //database.setUint(keccak256(abi.encodePacked(\"asset.managerTokens\", assetAddress)), _amountToRaise.mul(uint(100).mul(scalingFactor).div(uint(100).sub(_assetManagerPerc)).sub(scalingFactor)).div(scalingFactor));\n    database.setUint(keccak256(abi.encodePacked(\"asset.managerTokens\", _assetAddress)), totalTokens.getFractionalAmount(_assetManagerPerc));\n    database.setUint(keccak256(abi.encodePacked(\"asset.platformTokens\", _assetAddress)), totalTokens.getFractionalAmount(database.uintStorage(keccak256(abi.encodePacked(\"platform.percentage\")))));\n    database.setAddress(keccak256(abi.encodePacked(\"asset.manager\", _assetAddress)), _assetManager);\n    database.setAddress(keccak256(abi.encodePacked(\"asset.operator\", _assetAddress)), database.addressStorage(keccak256(abi.encodePacked(\"operator\", _operatorID))));\n    database.setBool(keccak256(abi.encodePacked(\"asset.uri\", _assetURI)), true); //Set to ensure a unique asset URI\n    return true;\n  }\n\n  function lockEscrowInternal(address _assetManager, address _assetAddress, address _paymentTokenAddress, uint _amount)\n  private\n  returns (bool) {\n    uint amount;\n    bytes32 assetManagerEscrowID = keccak256(abi.encodePacked(_assetAddress, _assetManager));\n    address platformTokenAddress = database.addressStorage(keccak256(abi.encodePacked(\"platform.token\")));\n    if(_paymentTokenAddress != platformTokenAddress){\n      //Setup platform token and get current balance for comparison\n      CrowdsaleGeneratorERC20_ERC20 platformToken = CrowdsaleGeneratorERC20_ERC20(platformTokenAddress);\n      uint balanceBefore = platformToken.balanceOf(this);\n      //Convert the payment token into the platform token\n      if(_paymentTokenAddress == address(0xEeeeeEeeeEeEeeEeEeEeeEEEeeeeEeeeeeeeEEeE)){\n        kyber.trade.value(_amount)(_paymentTokenAddress, _amount, platformTokenAddress, address(this), 2**255, 0, 0); //Currently no minimum rate is set, so watch out for slippage!\n      } else {\n        CrowdsaleGeneratorERC20_ERC20 paymentToken = CrowdsaleGeneratorERC20_ERC20(_paymentTokenAddress);\n        require(paymentToken.transferFrom(_assetManager, address(this), _amount));\n        require(paymentToken.approve(address(kyber), _amount));\n        kyber.trade(_paymentTokenAddress, _amount, platformTokenAddress, address(this), 2**255, 0, 0); //Currently no minimum rate is set, so watch out for slippage!\n      }\n      amount = platformToken.balanceOf(this).sub(balanceBefore);\n      require(platformToken.transfer(database.addressStorage(keccak256(abi.encodePacked(\"contract\", \"AssetManagerEscrow\"))), amount));\n    } else {\n      amount = _amount;\n      require(CrowdsaleGeneratorERC20_ERC20(platformTokenAddress).transferFrom(_assetManager, database.addressStorage(keccak256(abi.encodePacked(\"contract\", \"AssetManagerEscrow\"))), amount));\n    }\n    database.setUint(keccak256(abi.encodePacked(\"asset.escrow\", assetManagerEscrowID)), amount);\n    events.escrow('Escrow locked', _assetAddress, assetManagerEscrowID, _assetManager, amount);\n    return true;\n  }\n\n\n  //////////////////////////////////////////////////////////////////////////////////////////////////////////////////\n  //                                            Modifiers\n  //////////////////////////////////////////////////////////////////////////////////////////////////////////////////\n\n  // // @notice reverts if AssetManager hasn't approved burner to burn platform token\n  // modifier burnRequired {\n  //   //emit LogSig(msg.sig);\n  //   require(burner.burn(msg.sender, database.uintStorage(keccak256(abi.encodePacked(msg.sig, address(this))))));\n  //   _;\n  // }\n\n  // @notice Sender must be a registered owner\n  modifier onlyOwner {\n    require(database.boolStorage(keccak256(abi.encodePacked(\"owner\", msg.sender))), \"Not owner\");\n    _;\n  }\n\n  //////////////////////////////////////////////////////////////////////////////////////////////////////////////////\n  //                                            Events\n  //////////////////////////////////////////////////////////////////////////////////////////////////////////////////\n\n  //event LogAssetFundingStarted(bytes32 indexed _assetID, address indexed _assetManager, string _assetURI, address indexed _tokenAddress);\n  //event LogSig(bytes4 _sig);\n}\n",
  "sourcePath": "/home/peter/Documents/Work/MyBit/MyBit-Network.tech/contracts/crowdsale/CrowdsaleGeneratorERC20.sol",
  "compiler": {
    "name": "solc",
    "version": "0.4.24+commit.e67f0147.Emscripten.clang"
  },
  "schemaVersion": "3.0.2",
  "updatedAt": "2019-04-03T20:11:28.105Z",
  "devdoc": {
    "methods": {}
  },
  "userdoc": {
    "methods": {}
  }
}