{
  "contractName": "CrowdsaleETH",
  "abi": [
    {
      "constant": true,
      "inputs": [],
      "name": "burner",
      "outputs": [
        {
          "name": "",
          "type": "address"
        }
      ],
      "payable": false,
      "stateMutability": "view",
      "type": "function"
    },
    {
      "constant": true,
      "inputs": [],
      "name": "database",
      "outputs": [
        {
          "name": "",
          "type": "address"
        }
      ],
      "payable": false,
      "stateMutability": "view",
      "type": "function"
    },
    {
      "inputs": [
        {
          "name": "_database",
          "type": "address"
        }
      ],
      "payable": false,
      "stateMutability": "nonpayable",
      "type": "constructor"
    },
    {
      "payable": true,
      "stateMutability": "payable",
      "type": "fallback"
    },
    {
      "anonymous": false,
      "inputs": [
        {
          "indexed": true,
          "name": "_assetID",
          "type": "bytes32"
        },
        {
          "indexed": true,
          "name": "_sender",
          "type": "address"
        },
        {
          "indexed": false,
          "name": "_amount",
          "type": "uint256"
        }
      ],
      "name": "LogAssetPurchased",
      "type": "event"
    },
    {
      "anonymous": false,
      "inputs": [
        {
          "indexed": true,
          "name": "_assetID",
          "type": "bytes32"
        },
        {
          "indexed": true,
          "name": "_funder",
          "type": "address"
        },
        {
          "indexed": false,
          "name": "_amount",
          "type": "uint256"
        }
      ],
      "name": "LogRefund",
      "type": "event"
    },
    {
      "anonymous": false,
      "inputs": [
        {
          "indexed": true,
          "name": "_assetID",
          "type": "bytes32"
        },
        {
          "indexed": true,
          "name": "_distributionContract",
          "type": "address"
        },
        {
          "indexed": false,
          "name": "_amount",
          "type": "uint256"
        }
      ],
      "name": "LogAssetPayout",
      "type": "event"
    },
    {
      "anonymous": false,
      "inputs": [
        {
          "indexed": false,
          "name": "_amountSent",
          "type": "uint256"
        },
        {
          "indexed": true,
          "name": "_caller",
          "type": "address"
        }
      ],
      "name": "LogDestruction",
      "type": "event"
    },
    {
      "constant": false,
      "inputs": [
        {
          "name": "_assetID",
          "type": "bytes32"
        }
      ],
      "name": "buyAssetOrderETH",
      "outputs": [
        {
          "name": "",
          "type": "bool"
        }
      ],
      "payable": true,
      "stateMutability": "payable",
      "type": "function"
    },
    {
      "constant": false,
      "inputs": [
        {
          "name": "_assetID",
          "type": "bytes32"
        }
      ],
      "name": "refund",
      "outputs": [
        {
          "name": "",
          "type": "bool"
        }
      ],
      "payable": false,
      "stateMutability": "nonpayable",
      "type": "function"
    },
    {
      "constant": false,
      "inputs": [
        {
          "name": "_erc20Token",
          "type": "address"
        }
      ],
      "name": "recoverTokens",
      "outputs": [],
      "payable": false,
      "stateMutability": "nonpayable",
      "type": "function"
    },
    {
      "constant": false,
      "inputs": [],
      "name": "destroy",
      "outputs": [],
      "payable": false,
      "stateMutability": "nonpayable",
      "type": "function"
    }
  ],
  "bytecode": "0x60806040523480156200001157600080fd5b50604051602080620034c283398101806040528101908080519060200190929190505050806000806101000a81548173ffffffffffffffffffffffffffffffffffffffff021916908373ffffffffffffffffffffffffffffffffffffffff1602179055506000809054906101000a900473ffffffffffffffffffffffffffffffffffffffff1673ffffffffffffffffffffffffffffffffffffffff166304f49a3a60405160200180807f636f6e7472616374000000000000000000000000000000000000000000000000815250600801807f45524332304275726e6572000000000000000000000000000000000000000000815250600b0190506040516020818303038152906040526040518082805190602001908083835b6020831015156200015157805182526020820191506020810190506020830392506200012a565b6001836020036101000a03801982511681845116808217855250505050505090500191505060405180910390206040518263ffffffff167c0100000000000000000000000000000000000000000000000000000000028152600401808260001916600019168152602001915050602060405180830381600087803b158015620001d957600080fd5b505af1158015620001ee573d6000803e3d6000fd5b505050506040513d60208110156200020557600080fd5b8101908080519060200190929190505050600160006101000a81548173ffffffffffffffffffffffffffffffffffffffff021916908373ffffffffffffffffffffffffffffffffffffffff1602179055505061325b80620002676000396000f300608060405260043610610078576000357c0100000000000000000000000000000000000000000000000000000000900463ffffffff16806316114acd1461007d57806327810b6e146100c0578063713b563f146101175780637249fbb61461016e57806383197ef0146101b7578063a71d4c6a146101ce575b600080fd5b34801561008957600080fd5b506100be600480360381019080803573ffffffffffffffffffffffffffffffffffffffff16906020019092919050505061020a565b005b3480156100cc57600080fd5b506100d561058e565b604051808273ffffffffffffffffffffffffffffffffffffffff1673ffffffffffffffffffffffffffffffffffffffff16815260200191505060405180910390f35b34801561012357600080fd5b5061012c6105b4565b604051808273ffffffffffffffffffffffffffffffffffffffff1673ffffffffffffffffffffffffffffffffffffffff16815260200191505060405180910390f35b34801561017a57600080fd5b5061019d60048036038101908080356000191690602001909291905050506105d9565b604051808215151515815260200191505060405180910390f35b3480156101c357600080fd5b506101cc61138b565b005b6101f060048036038101908080356000191690602001909291905050506115cb565b604051808215151515815260200191505060405180910390f35b6000806000809054906101000a900473ffffffffffffffffffffffffffffffffffffffff1673ffffffffffffffffffffffffffffffffffffffff16633b7bfda03360405160200180807f6f776e65720000000000000000000000000000000000000000000000000000008152506005018273ffffffffffffffffffffffffffffffffffffffff1673ffffffffffffffffffffffffffffffffffffffff166c010000000000000000000000000281526014019150506040516020818303038152906040526040518082805190602001908083835b60208310151561030257805182526020820191506020810190506020830392506102dd565b6001836020036101000a03801982511681845116808217855250505050505090500191505060405180910390206040518263ffffffff167c0100000000000000000000000000000000000000000000000000000000028152600401808260001916600019168152602001915050602060405180830381600087803b15801561038957600080fd5b505af115801561039d573d6000803e3d6000fd5b505050506040513d60208110156103b357600080fd5b810190808051906020019092919050505015156103cf57600080fd5b8291508173ffffffffffffffffffffffffffffffffffffffff166370a08231306040518263ffffffff167c0100000000000000000000000000000000000000000000000000000000028152600401808273ffffffffffffffffffffffffffffffffffffffff1673ffffffffffffffffffffffffffffffffffffffff168152602001915050602060405180830381600087803b15801561046d57600080fd5b505af1158015610481573d6000803e3d6000fd5b505050506040513d602081101561049757600080fd5b810190808051906020019092919050505090508173ffffffffffffffffffffffffffffffffffffffff1663a9059cbb33836040518363ffffffff167c0100000000000000000000000000000000000000000000000000000000028152600401808373ffffffffffffffffffffffffffffffffffffffff1673ffffffffffffffffffffffffffffffffffffffff16815260200182815260200192505050602060405180830381600087803b15801561054d57600080fd5b505af1158015610561573d6000803e3d6000fd5b505050506040513d602081101561057757600080fd5b810190808051906020019092919050505050505050565b600160009054906101000a900473ffffffffffffffffffffffffffffffffffffffff1681565b6000809054906101000a900473ffffffffffffffffffffffffffffffffffffffff1681565b60008060008060009054906101000a900473ffffffffffffffffffffffffffffffffffffffff1673ffffffffffffffffffffffffffffffffffffffff16633b7bfda03060405160200180807f70617573656400000000000000000000000000000000000000000000000000008152506006018273ffffffffffffffffffffffffffffffffffffffff1673ffffffffffffffffffffffffffffffffffffffff166c010000000000000000000000000281526014019150506040516020818303038152906040526040518082805190602001908083835b6020831015156106d357805182526020820191506020810190506020830392506106ae565b6001836020036101000a03801982511681845116808217855250505050505090500191505060405180910390206040518263ffffffff167c0100000000000000000000000000000000000000000000000000000000028152600401808260001916600019168152602001915050602060405180830381600087803b15801561075a57600080fd5b505af115801561076e573d6000803e3d6000fd5b505050506040513d602081101561078457600080fd5b81019080805190602001909291905050501515156107a157600080fd5b83600073ffffffffffffffffffffffffffffffffffffffff166000809054906101000a900473ffffffffffffffffffffffffffffffffffffffff1673ffffffffffffffffffffffffffffffffffffffff166304f49a3a8360405160200180807f746f6b656e416464726573730000000000000000000000000000000000000000815250600c0182600019166000191681526020019150506040516020818303038152906040526040518082805190602001908083835b60208310151561087c5780518252602082019150602081019050602083039250610857565b6001836020036101000a03801982511681845116808217855250505050505090500191505060405180910390206040518263ffffffff167c0100000000000000000000000000000000000000000000000000000000028152600401808260001916600019168152602001915050602060405180830381600087803b15801561090357600080fd5b505af1158015610917573d6000803e3d6000fd5b505050506040513d602081101561092d57600080fd5b810190808051906020019092919050505073ffffffffffffffffffffffffffffffffffffffff161415151561096157600080fd5b846000809054906101000a900473ffffffffffffffffffffffffffffffffffffffff1673ffffffffffffffffffffffffffffffffffffffff1663a855d4ce8260405160200180807f66756e64696e67446561646c696e650000000000000000000000000000000000815250600f0182600019166000191681526020019150506040516020818303038152906040526040518082805190602001908083835b602083101515610a2457805182526020820191506020810190506020830392506109ff565b6001836020036101000a03801982511681845116808217855250505050505090500191505060405180910390206040518263ffffffff167c0100000000000000000000000000000000000000000000000000000000028152600401808260001916600019168152602001915050602060405180830381600087803b158015610aab57600080fd5b505af1158015610abf573d6000803e3d6000fd5b505050506040513d6020811015610ad557600080fd5b810190808051906020019092919050505042111515610af357600080fd5b856000809054906101000a900473ffffffffffffffffffffffffffffffffffffffff1673ffffffffffffffffffffffffffffffffffffffff16633b7bfda08260405160200180807f63726f776473616c6546696e616c697a6564000000000000000000000000000081525060120182600019166000191681526020019150506040516020818303038152906040526040518082805190602001908083835b602083101515610bb65780518252602082019150602081019050602083039250610b91565b6001836020036101000a03801982511681845116808217855250505050505090500191505060405180910390206040518263ffffffff167c0100000000000000000000000000000000000000000000000000000000028152600401808260001916600019168152602001915050602060405180830381600087803b158015610c3d57600080fd5b505af1158015610c51573d6000803e3d6000fd5b505050506040513d6020811015610c6757600080fd5b8101908080519060200190929190505050151515610c8457600080fd5b60008060009054906101000a900473ffffffffffffffffffffffffffffffffffffffff1673ffffffffffffffffffffffffffffffffffffffff1663a855d4ce8960405160200180807f66756e64696e67446561646c696e650000000000000000000000000000000000815250600f0182600019166000191681526020019150506040516020818303038152906040526040518082805190602001908083835b602083101515610d485780518252602082019150602081019050602083039250610d23565b6001836020036101000a03801982511681845116808217855250505050505090500191505060405180910390206040518263ffffffff167c0100000000000000000000000000000000000000000000000000000000028152600401808260001916600019168152602001915050602060405180830381600087803b158015610dcf57600080fd5b505af1158015610de3573d6000803e3d6000fd5b505050506040513d6020811015610df957600080fd5b810190808051906020019092919050505014151515610e1757600080fd5b6000809054906101000a900473ffffffffffffffffffffffffffffffffffffffff1673ffffffffffffffffffffffffffffffffffffffff1663e2b202bf8860405160200180807f66756e64696e67446561646c696e650000000000000000000000000000000000815250600f0182600019166000191681526020019150506040516020818303038152906040526040518082805190602001908083835b602083101515610ed95780518252602082019150602081019050602083039250610eb4565b6001836020036101000a03801982511681845116808217855250505050505090500191505060405180910390206040518263ffffffff167c0100000000000000000000000000000000000000000000000000000000028152600401808260001916600019168152602001915050600060405180830381600087803b158015610f6057600080fd5b505af1158015610f74573d6000803e3d6000fd5b505050506000809054906101000a900473ffffffffffffffffffffffffffffffffffffffff1673ffffffffffffffffffffffffffffffffffffffff1663e2b202bf8860405160200180807f696e766573746f72537570706c79000000000000000000000000000000000000815250600e0182600019166000191681526020019150506040516020818303038152906040526040518082805190602001908083835b60208310151561103a5780518252602082019150602081019050602083039250611015565b6001836020036101000a03801982511681845116808217855250505050505090500191505060405180910390206040518263ffffffff167c0100000000000000000000000000000000000000000000000000000000028152600401808260001916600019168152602001915050600060405180830381600087803b1580156110c157600080fd5b505af11580156110d5573d6000803e3d6000fd5b505050506000809054906101000a900473ffffffffffffffffffffffffffffffffffffffff1673ffffffffffffffffffffffffffffffffffffffff166304f49a3a8860405160200180807f746f6b656e416464726573730000000000000000000000000000000000000000815250600c0182600019166000191681526020019150506040516020818303038152906040526040518082805190602001908083835b60208310151561119b5780518252602082019150602081019050602083039250611176565b6001836020036101000a03801982511681845116808217855250505050505090500191505060405180910390206040518263ffffffff167c0100000000000000000000000000000000000000000000000000000000028152600401808260001916600019168152602001915050602060405180830381600087803b15801561122257600080fd5b505af1158015611236573d6000803e3d6000fd5b505050506040513d602081101561124c57600080fd5b810190808051906020019092919050505094508473ffffffffffffffffffffffffffffffffffffffff166318160ddd6040518163ffffffff167c0100000000000000000000000000000000000000000000000000000000028152600401602060405180830381600087803b1580156112c357600080fd5b505af11580156112d7573d6000803e3d6000fd5b505050506040513d60208110156112ed57600080fd5b810190808051906020019092919050505093508473ffffffffffffffffffffffffffffffffffffffff1663eba74e5c856040518263ffffffff167c01000000000000000000000000000000000000000000000000000000000281526004016000604051808303818588803b15801561136457600080fd5b505af1158015611378573d6000803e3d6000fd5b5050505050600195505050505050919050565b6000809054906101000a900473ffffffffffffffffffffffffffffffffffffffff1673ffffffffffffffffffffffffffffffffffffffff16633b7bfda03360405160200180807f6f776e65720000000000000000000000000000000000000000000000000000008152506005018273ffffffffffffffffffffffffffffffffffffffff1673ffffffffffffffffffffffffffffffffffffffff166c010000000000000000000000000281526014019150506040516020818303038152906040526040518082805190602001908083835b602083101515611480578051825260208201915060208101905060208303925061145b565b6001836020036101000a03801982511681845116808217855250505050505090500191505060405180910390206040518263ffffffff167c0100000000000000000000000000000000000000000000000000000000028152600401808260001916600019168152602001915050602060405180830381600087803b15801561150757600080fd5b505af115801561151b573d6000803e3d6000fd5b505050506040513d602081101561153157600080fd5b8101908080519060200190929190505050151561154d57600080fd5b3373ffffffffffffffffffffffffffffffffffffffff167f62a91a9a510cd5e7b0339f181bd27ac473283c39544a34798c376d6197b3572c3073ffffffffffffffffffffffffffffffffffffffff16316040518082815260200191505060405180910390a23373ffffffffffffffffffffffffffffffffffffffff16ff5b6000806000806000341115156115e057600080fd5b84600073ffffffffffffffffffffffffffffffffffffffff166000809054906101000a900473ffffffffffffffffffffffffffffffffffffffff1673ffffffffffffffffffffffffffffffffffffffff166304f49a3a8360405160200180807f746f6b656e416464726573730000000000000000000000000000000000000000815250600c0182600019166000191681526020019150506040516020818303038152906040526040518082805190602001908083835b6020831015156116bb5780518252602082019150602081019050602083039250611696565b6001836020036101000a03801982511681845116808217855250505050505090500191505060405180910390206040518263ffffffff167c0100000000000000000000000000000000000000000000000000000000028152600401808260001916600019168152602001915050602060405180830381600087803b15801561174257600080fd5b505af1158015611756573d6000803e3d6000fd5b505050506040513d602081101561176c57600080fd5b810190808051906020019092919050505073ffffffffffffffffffffffffffffffffffffffff16141515156117a057600080fd5b856000809054906101000a900473ffffffffffffffffffffffffffffffffffffffff1673ffffffffffffffffffffffffffffffffffffffff1663a855d4ce8260405160200180807f66756e64696e67446561646c696e650000000000000000000000000000000000815250600f0182600019166000191681526020019150506040516020818303038152906040526040518082805190602001908083835b602083101515611863578051825260208201915060208101905060208303925061183e565b6001836020036101000a03801982511681845116808217855250505050505090500191505060405180910390206040518263ffffffff167c0100000000000000000000000000000000000000000000000000000000028152600401808260001916600019168152602001915050602060405180830381600087803b1580156118ea57600080fd5b505af11580156118fe573d6000803e3d6000fd5b505050506040513d602081101561191457600080fd5b8101908080519060200190929190505050421115151561193357600080fd5b866000809054906101000a900473ffffffffffffffffffffffffffffffffffffffff1673ffffffffffffffffffffffffffffffffffffffff16633b7bfda08260405160200180807f63726f776473616c6546696e616c697a6564000000000000000000000000000081525060120182600019166000191681526020019150506040516020818303038152906040526040518082805190602001908083835b6020831015156119f657805182526020820191506020810190506020830392506119d1565b6001836020036101000a03801982511681845116808217855250505050505090500191505060405180910390206040518263ffffffff167c0100000000000000000000000000000000000000000000000000000000028152600401808260001916600019168152602001915050602060405180830381600087803b158015611a7d57600080fd5b505af1158015611a91573d6000803e3d6000fd5b505050506040513d6020811015611aa757600080fd5b8101908080519060200190929190505050151515611ac457600080fd5b600160009054906101000a900473ffffffffffffffffffffffffffffffffffffffff1673ffffffffffffffffffffffffffffffffffffffff16639dc29fac336000809054906101000a900473ffffffffffffffffffffffffffffffffffffffff1673ffffffffffffffffffffffffffffffffffffffff1663a855d4ce6000357fffffffff00000000000000000000000000000000000000000000000000000000163060405160200180837bffffffffffffffffffffffffffffffffffffffffffffffffffffffff19167bffffffffffffffffffffffffffffffffffffffffffffffffffffffff191681526004018273ffffffffffffffffffffffffffffffffffffffff1673ffffffffffffffffffffffffffffffffffffffff166c01000000000000000000000000028152601401925050506040516020818303038152906040526040518082805190602001908083835b602083101515611c3a5780518252602082019150602081019050602083039250611c15565b6001836020036101000a03801982511681845116808217855250505050505090500191505060405180910390206040518263ffffffff167c0100000000000000000000000000000000000000000000000000000000028152600401808260001916600019168152602001915050602060405180830381600087803b158015611cc157600080fd5b505af1158015611cd5573d6000803e3d6000fd5b505050506040513d6020811015611ceb57600080fd5b81019080805190602001909291905050506040518363ffffffff167c0100000000000000000000000000000000000000000000000000000000028152600401808373ffffffffffffffffffffffffffffffffffffffff1673ffffffffffffffffffffffffffffffffffffffff16815260200182815260200192505050602060405180830381600087803b158015611d8157600080fd5b505af1158015611d95573d6000803e3d6000fd5b505050506040513d6020811015611dab57600080fd5b81019080805190602001909291905050501515611dc757600080fd5b6000809054906101000a900473ffffffffffffffffffffffffffffffffffffffff1673ffffffffffffffffffffffffffffffffffffffff166304f49a3a8960405160200180807f746f6b656e416464726573730000000000000000000000000000000000000000815250600c0182600019166000191681526020019150506040516020818303038152906040526040518082805190602001908083835b602083101515611e895780518252602082019150602081019050602083039250611e64565b6001836020036101000a03801982511681845116808217855250505050505090500191505060405180910390206040518263ffffffff167c0100000000000000000000000000000000000000000000000000000000028152600401808260001916600019168152602001915050602060405180830381600087803b158015611f1057600080fd5b505af1158015611f24573d6000803e3d6000fd5b505050506040513d6020811015611f3a57600080fd5b810190808051906020019092919050505095506000809054906101000a900473ffffffffffffffffffffffffffffffffffffffff1673ffffffffffffffffffffffffffffffffffffffff1663a855d4ce8960405160200180807f616d6f756e74546f526169736500000000000000000000000000000000000000815250600d0182600019166000191681526020019150506040516020818303038152906040526040518082805190602001908083835b60208310151561200f5780518252602082019150602081019050602083039250611fea565b6001836020036101000a03801982511681845116808217855250505050505090500191505060405180910390206040518263ffffffff167c0100000000000000000000000000000000000000000000000000000000028152600401808260001916600019168152602001915050602060405180830381600087803b15801561209657600080fd5b505af11580156120aa573d6000803e3d6000fd5b505050506040513d60208110156120c057600080fd5b810190808051906020019092919050505094506121848673ffffffffffffffffffffffffffffffffffffffff166318160ddd6040518163ffffffff167c0100000000000000000000000000000000000000000000000000000000028152600401602060405180830381600087803b15801561213a57600080fd5b505af115801561214e573d6000803e3d6000fd5b505050506040513d602081101561216457600080fd5b8101908080519060200190929190505050866128e490919063ffffffff16565b93508334101515612798578573ffffffffffffffffffffffffffffffffffffffff166340c10f196000809054906101000a900473ffffffffffffffffffffffffffffffffffffffff1673ffffffffffffffffffffffffffffffffffffffff166304f49a3a8b60405160200180807f61737365744d616e616765720000000000000000000000000000000000000000815250600c0182600019166000191681526020019150506040516020818303038152906040526040518082805190602001908083835b60208310151561226d5780518252602082019150602081019050602083039250612248565b6001836020036101000a03801982511681845116808217855250505050505090500191505060405180910390206040518263ffffffff167c0100000000000000000000000000000000000000000000000000000000028152600401808260001916600019168152602001915050602060405180830381600087803b1580156122f457600080fd5b505af1158015612308573d6000803e3d6000fd5b505050506040513d602081101561231e57600080fd5b81019080805190602001909291905050506000809054906101000a900473ffffffffffffffffffffffffffffffffffffffff1673ffffffffffffffffffffffffffffffffffffffff1663a855d4ce8c60405160200180807f61737365744d616e616765724665650000000000000000000000000000000000815250600f0182600019166000191681526020019150506040516020818303038152906040526040518082805190602001908083835b6020831015156123f157805182526020820191506020810190506020830392506123cc565b6001836020036101000a03801982511681845116808217855250505050505090500191505060405180910390206040518263ffffffff167c0100000000000000000000000000000000000000000000000000000000028152600401808260001916600019168152602001915050602060405180830381600087803b15801561247857600080fd5b505af115801561248c573d6000803e3d6000fd5b505050506040513d60208110156124a257600080fd5b81019080805190602001909291905050506040518363ffffffff167c0100000000000000000000000000000000000000000000000000000000028152600401808373ffffffffffffffffffffffffffffffffffffffff1673ffffffffffffffffffffffffffffffffffffffff16815260200182815260200192505050602060405180830381600087803b15801561253857600080fd5b505af115801561254c573d6000803e3d6000fd5b505050506040513d602081101561256257600080fd5b8101908080519060200190929190505050151561257e57600080fd5b612587886128fd565b151561259257600080fd5b8573ffffffffffffffffffffffffffffffffffffffff166340c10f1933866040518363ffffffff167c0100000000000000000000000000000000000000000000000000000000028152600401808373ffffffffffffffffffffffffffffffffffffffff1673ffffffffffffffffffffffffffffffffffffffff16815260200182815260200192505050602060405180830381600087803b15801561263557600080fd5b505af1158015612649573d6000803e3d6000fd5b505050506040513d602081101561265f57600080fd5b8101908080519060200190929190505050151561267b57600080fd5b8573ffffffffffffffffffffffffffffffffffffffff16637d64bcb46040518163ffffffff167c0100000000000000000000000000000000000000000000000000000000028152600401602060405180830381600087803b1580156126df57600080fd5b505af11580156126f3573d6000803e3d6000fd5b505050506040513d602081101561270957600080fd5b8101908080519060200190929190505050151561272557600080fd5b61272f8886612d38565b151561273a57600080fd5b3373ffffffffffffffffffffffffffffffffffffffff166108fc61276786346128e490919063ffffffff16565b9081150290604051600060405180830381858888f19350505050158015612792573d6000803e3d6000fd5b50612882565b8573ffffffffffffffffffffffffffffffffffffffff166340c10f1933346040518363ffffffff167c0100000000000000000000000000000000000000000000000000000000028152600401808373ffffffffffffffffffffffffffffffffffffffff1673ffffffffffffffffffffffffffffffffffffffff16815260200182815260200192505050602060405180830381600087803b15801561283b57600080fd5b505af115801561284f573d6000803e3d6000fd5b505050506040513d602081101561286557600080fd5b8101908080519060200190929190505050151561288157600080fd5b5b3373ffffffffffffffffffffffffffffffffffffffff1688600019167fc84c15778d9a99058c0a9fc10a64cca3a419418b5b1b695db6fc03df94252fe8346040518082815260200191505060405180910390a360019650505050505050919050565b60008282111515156128f257fe5b818303905092915050565b60008060009054906101000a900473ffffffffffffffffffffffffffffffffffffffff1673ffffffffffffffffffffffffffffffffffffffff1663abfdcced8360405160200180807f63726f776473616c6546696e616c697a6564000000000000000000000000000081525060120182600019166000191681526020019150506040516020818303038152906040526040518082805190602001908083835b6020831015156129c1578051825260208201915060208101905060208303925061299c565b6001836020036101000a038019825116818451168082178552505050505050905001915050604051809103902060016040518363ffffffff167c01000000000000000000000000000000000000000000000000000000000281526004018083600019166000191681526020018215151515815260200192505050600060405180830381600087803b158015612a5557600080fd5b505af1158015612a69573d6000803e3d6000fd5b505050506000809054906101000a900473ffffffffffffffffffffffffffffffffffffffff1673ffffffffffffffffffffffffffffffffffffffff1663e2b202bf8360405160200180807f616d6f756e74546f526169736500000000000000000000000000000000000000815250600d0182600019166000191681526020019150506040516020818303038152906040526040518082805190602001908083835b602083101515612b2f5780518252602082019150602081019050602083039250612b0a565b6001836020036101000a03801982511681845116808217855250505050505090500191505060405180910390206040518263ffffffff167c0100000000000000000000000000000000000000000000000000000000028152600401808260001916600019168152602001915050600060405180830381600087803b158015612bb657600080fd5b505af1158015612bca573d6000803e3d6000fd5b505050506000809054906101000a900473ffffffffffffffffffffffffffffffffffffffff1673ffffffffffffffffffffffffffffffffffffffff1663e2b202bf8360405160200180807f61737365744d616e616765724665650000000000000000000000000000000000815250600f0182600019166000191681526020019150506040516020818303038152906040526040518082805190602001908083835b602083101515612c905780518252602082019150602081019050602083039250612c6b565b6001836020036101000a03801982511681845116808217855250505050505090500191505060405180910390206040518263ffffffff167c0100000000000000000000000000000000000000000000000000000000028152600401808260001916600019168152602001915050600060405180830381600087803b158015612d1757600080fd5b505af1158015612d2b573d6000803e3d6000fd5b5050505060019050919050565b60008060008060008060009054906101000a900473ffffffffffffffffffffffffffffffffffffffff1673ffffffffffffffffffffffffffffffffffffffff166304f49a3a8860405160200180807f6f70657261746f7200000000000000000000000000000000000000000000000081525060080182600019166000191681526020019150506040516020818303038152906040526040518082805190602001908083835b602083101515612e025780518252602082019150602081019050602083039250612ddd565b6001836020036101000a03801982511681845116808217855250505050505090500191505060405180910390206040518263ffffffff167c0100000000000000000000000000000000000000000000000000000000028152600401808260001916600019168152602001915050602060405180830381600087803b158015612e8957600080fd5b505af1158015612e9d573d6000803e3d6000fd5b505050506040513d6020811015612eb357600080fd5b810190808051906020019092919050505093506000809054906101000a900473ffffffffffffffffffffffffffffffffffffffff1673ffffffffffffffffffffffffffffffffffffffff166304f49a3a60405160200180807f706c6174666f726d57616c6c6574000000000000000000000000000000000000815250600e0190506040516020818303038152906040526040518082805190602001908083835b602083101515612f785780518252602082019150602081019050602083039250612f53565b6001836020036101000a03801982511681845116808217855250505050505090500191505060405180910390206040518263ffffffff167c0100000000000000000000000000000000000000000000000000000000028152600401808260001916600019168152602001915050602060405180830381600087803b158015612fff57600080fd5b505af1158015613013573d6000803e3d6000fd5b505050506040513d602081101561302957600080fd5b81019080805190602001909291905050509250600073ffffffffffffffffffffffffffffffffffffffff168473ffffffffffffffffffffffffffffffffffffffff16141580156130a65750600073ffffffffffffffffffffffffffffffffffffffff168373ffffffffffffffffffffffffffffffffffffffff1614155b15156130b157600080fd5b6130d860646130ca6063896131de90919063ffffffff16565b61321990919063ffffffff16565b91506130ed82876128e490919063ffffffff16565b90508273ffffffffffffffffffffffffffffffffffffffff166108fc829081150290604051600060405180830381858888f19350505050158015613135573d6000803e3d6000fd5b508373ffffffffffffffffffffffffffffffffffffffff166108fc839081150290604051600060405180830381858888f1935050505015801561317c573d6000803e3d6000fd5b508373ffffffffffffffffffffffffffffffffffffffff1687600019167f104f01b44de0f8f9d4ae175ac9fc604fbd67ff572163c08c19981661659aa614886040518082815260200191505060405180910390a3600194505050505092915050565b60008060008414156131f35760009150613212565b828402905082848281151561320457fe5b0414151561320e57fe5b8091505b5092915050565b6000818381151561322657fe5b049050929150505600a165627a7a72305820cbf9d2f7ecd81ae6bbd1fbf2732e7b99de5c32cabd66d438eaf28f090da0a8120029",
  "source": "pragma solidity 0.4.24;\n\nimport \"../math/SafeMath.sol\";\nimport \"../interfaces/ERC20.sol\";\nimport \"../interfaces/DBInterface.sol\";\nimport \"../interfaces/EtherDividendInterface.sol\";\nimport \"../access/ERC20Burner.sol\";\n\n// @title An asset crowdsale contract, which accepts Ether for funding.\n// @author Kyle Dewhurst & Peter Phillips, MyBit Foundation\n// @notice Starts a new crowdsale and returns asset dividend tokens for Wei received.\n// @dev The AssetManager\ncontract CrowdsaleETH {\n    using SafeMath for uint256;\n\n    DBInterface public database;\n    ERC20Burner public burner;\n\n    // @notice Constructor: Initiates the database\n    // @param: The address for the database contract\n    constructor(address _database)\n    public {\n        database = DBInterface(_database);\n        burner = ERC20Burner(database.addressStorage(keccak256(abi.encodePacked(\"contract\", \"ERC20Burner\"))));\n    }\n\n\n    // @notice Investors can send Ether here to fund asset, receiving an equivalent number of asset-tokens.\n    // @param (bytes32) _assetID = The ID of the asset which completed the crowdsale\n    function buyAssetOrderETH(bytes32 _assetID)\n    external\n    payable\n    requiresEther\n    validAsset(_assetID)\n    beforeDeadline(_assetID)\n    notFinalized(_assetID)\n    burnRequired\n    returns (bool) {\n      EtherDividendInterface assetToken = EtherDividendInterface(database.addressStorage(keccak256(abi.encodePacked(\"tokenAddress\", _assetID))));\n      uint amountToRaise = database.uintStorage(keccak256(abi.encodePacked(\"amountToRaise\", _assetID)));\n      uint tokensRemaining = amountToRaise.sub(assetToken.totalSupply());\n      if (msg.value >= tokensRemaining) {\n        // Give assetManager his portion of tokens\n        require(assetToken.mint(database.addressStorage(keccak256(abi.encodePacked(\"assetManager\", _assetID))), database.uintStorage(keccak256(abi.encodePacked(\"assetManagerFee\", _assetID)))));\n        require(finalizeCrowdsale(_assetID));    // delete unnecessary variables\n        require(assetToken.mint(msg.sender, tokensRemaining));   // Send remaining asset tokens\n        require(assetToken.finishMinting());\n        require(payoutETH(_assetID, amountToRaise));          // 1 token = 1 wei\n        msg.sender.transfer(msg.value.sub(tokensRemaining));     // Return leftover WEI after cost of tokens calculated and subtracted from msg.value\n      }\n      else {\n        require(assetToken.mint(msg.sender, msg.value));\n      }\n      emit LogAssetPurchased(_assetID, msg.sender, msg.value);\n      return true;\n    }\n\n\n    // @notice Contributors can retrieve their funds here if crowdsale has paased deadline and not reached its goal\n    // @param (bytes32) _assetID = The ID of the asset which completed the crowdsale\n    function refund(bytes32 _assetID)\n    external\n    whenNotPaused\n    validAsset(_assetID)\n    afterDeadline(_assetID)\n    notFinalized(_assetID)\n    returns (bool) {\n      require(database.uintStorage(keccak256(abi.encodePacked(\"fundingDeadline\", _assetID))) != 0);\n      database.deleteUint(keccak256(abi.encodePacked(\"fundingDeadline\", _assetID)));\n      database.deleteUint(keccak256(abi.encodePacked(\"investorSupply\", _assetID)));\n      EtherDividendInterface assetToken = EtherDividendInterface(database.addressStorage(keccak256(abi.encodePacked(\"tokenAddress\", _assetID))));\n      uint refundValue = assetToken.totalSupply(); //token=wei\n      assetToken.issueDividends.value(refundValue)();\n      return true;\n    }\n\n    // @notice platform owners can recover tokens here\n    function recoverTokens(address _erc20Token)\n    onlyOwner\n    external {\n      ERC20 thisToken = ERC20(_erc20Token);\n      uint contractBalance = thisToken.balanceOf(address(this));\n      thisToken.transfer(msg.sender, contractBalance);\n    }\n\n    // @notice platform owners can destroy contract here\n    function destroy()\n    onlyOwner\n    external {\n      emit LogDestruction(address(this).balance, msg.sender);\n      selfdestruct(msg.sender);\n    }\n\n    // @notice fallback function: reject ether\n    function ()\n    public\n    payable {\n      revert();\n    }\n\n    //------------------------------------------------------------------------------------------------------------------\n    //                                            Internal Functions\n    //------------------------------------------------------------------------------------------------------------------\n\n    // @notice This is called once funding has succeeded. Sends Ether to a distribution contract where operator & assetManager can withdraw\n    // @dev The contract manager needs to know  the address PlatformDistribution contract\n    // @param (bytes32) _assetID = The ID of the asset which completed the crowdsale\n    // @param (uint) _amount = The amount of WEI to be sent to the platform + the operator\n    function payoutETH(bytes32 _assetID, uint _amount)\n    internal\n    returns (bool) {\n      address operatorAddress = database.addressStorage(keccak256(abi.encodePacked(\"operator\", _assetID)));\n      address platformWallet = database.addressStorage(keccak256(abi.encodePacked(\"platformWallet\")));\n      require(operatorAddress != address(0) && platformWallet != address(0));\n      uint operatorPortion = _amount.mul(99).div(100);\n      uint platformPortion = _amount.sub(operatorPortion);\n      platformWallet.transfer(platformPortion);\n      operatorAddress.transfer(operatorPortion);\n      emit LogAssetPayout(_assetID, operatorAddress, _amount);\n      return true;\n    }\n\n    // @notice internal function for freeing up storage after crowdsale finishes\n    // @param the ID of this asset.\n    function finalizeCrowdsale(bytes32 _assetID)\n    internal\n    returns (bool) {\n        database.setBool(keccak256(abi.encodePacked(\"crowdsaleFinalized\", _assetID)), true);\n        database.deleteUint(keccak256(abi.encodePacked(\"amountToRaise\", _assetID)));     // This is now represented as totalSupply in the asset-token\n        database.deleteUint(keccak256(abi.encodePacked(\"assetManagerFee\", _assetID)));   // This is now represented as tokens in AssetManagerFunds.sol\n        return true;\n    }\n\n\n    //------------------------------------------------------------------------------------------------------------------\n    //                                            Modifiers\n    //------------------------------------------------------------------------------------------------------------------\n\n\n    // @notice Requires that Ether is sent with the transaction\n    modifier requiresEther() {\n      require(msg.value > 0);\n      _;\n    }\n\n    // @notice Sender must be a registered owner\n    modifier onlyOwner {\n      require(database.boolStorage(keccak256(abi.encodePacked(\"owner\", msg.sender))));\n      _;\n    }\n\n    // @notice reverts if investor hasn't approved burner to burn platform token\n    modifier burnRequired {\n      require(burner.burn(msg.sender, database.uintStorage(keccak256(abi.encodePacked(msg.sig, address(this))))));\n      _;\n    }\n\n    // @notice function won't run if owners have paused this contract\n    modifier whenNotPaused {\n      require(!database.boolStorage(keccak256(abi.encodePacked(\"paused\", address(this)))));\n      _;\n    }\n\n    // @notice reverts if the asset does not have a token address set in the database\n    modifier validAsset(bytes32 _assetID) {\n      require(database.addressStorage(keccak256(abi.encodePacked(\"tokenAddress\", _assetID))) != address(0));\n      _;\n    }\n\n    // @notice reverts if the funding deadline has already past\n    modifier beforeDeadline(bytes32 _assetID) {\n      require(now <= database.uintStorage(keccak256(abi.encodePacked(\"fundingDeadline\", _assetID))));\n      _;\n    }\n\n    // @notice reverts if the funding deadline has already past\n    modifier afterDeadline(bytes32 _assetID) {\n      require(now > database.uintStorage(keccak256(abi.encodePacked(\"fundingDeadline\", _assetID))));\n      _;\n    }\n\n    // @notice returns true if crowdsale is not finshed\n    modifier notFinalized(bytes32 _assetID) {\n      require( !database.boolStorage(keccak256(abi.encodePacked(\"crowdsaleFinalized\", _assetID))) );\n      _;\n    }\n\n    //------------------------------------------------------------------------------------------------------------------\n    //                                            Events\n    //------------------------------------------------------------------------------------------------------------------\n\n    event LogAssetPurchased(bytes32 indexed _assetID, address indexed _sender, uint _amount);\n    event LogRefund(bytes32 indexed _assetID, address indexed _funder, uint _amount);\n    event LogAssetPayout(bytes32 indexed _assetID, address indexed _distributionContract, uint _amount);\n    event LogDestruction(uint _amountSent, address indexed _caller);\n  }\n",
  "sourcePath": "/home/peter/Documents/Work/MyBit/MyBit-Network.tech/contracts/crowdsale/CrowdsaleETH.sol",
  "compiler": {
    "name": "solc",
    "version": "0.4.24+commit.e67f0147.Emscripten.clang"
  },
  "schemaVersion": "2.0.1",
  "updatedAt": "2018-10-17T18:28:17.757Z"
}