{
  "contractName": "CrowdsaleERC20",
  "abi": [
    {
      "constant": true,
      "inputs": [],
      "name": "database",
      "outputs": [
        {
          "name": "",
          "type": "address"
        }
      ],
      "payable": false,
      "stateMutability": "view",
      "type": "function"
    },
    {
      "constant": true,
      "inputs": [],
      "name": "events",
      "outputs": [
        {
          "name": "",
          "type": "address"
        }
      ],
      "payable": false,
      "stateMutability": "view",
      "type": "function"
    },
    {
      "inputs": [
        {
          "name": "_database",
          "type": "address"
        },
        {
          "name": "_events",
          "type": "address"
        }
      ],
      "payable": false,
      "stateMutability": "nonpayable",
      "type": "constructor"
    },
    {
      "constant": false,
      "inputs": [
        {
          "name": "_assetID",
          "type": "bytes32"
        },
        {
          "name": "_investor",
          "type": "address"
        },
        {
          "name": "_amount",
          "type": "uint256"
        }
      ],
      "name": "buyAssetOrderERC20",
      "outputs": [
        {
          "name": "",
          "type": "bool"
        }
      ],
      "payable": false,
      "stateMutability": "nonpayable",
      "type": "function"
    },
    {
      "constant": false,
      "inputs": [
        {
          "name": "_assetID",
          "type": "bytes32"
        }
      ],
      "name": "refund",
      "outputs": [
        {
          "name": "",
          "type": "bool"
        }
      ],
      "payable": false,
      "stateMutability": "nonpayable",
      "type": "function"
    },
    {
      "constant": false,
      "inputs": [
        {
          "name": "_erc20Token",
          "type": "address"
        }
      ],
      "name": "recoverTokens",
      "outputs": [],
      "payable": false,
      "stateMutability": "nonpayable",
      "type": "function"
    },
    {
      "constant": false,
      "inputs": [],
      "name": "destroy",
      "outputs": [],
      "payable": false,
      "stateMutability": "nonpayable",
      "type": "function"
    }
  ],
  "bytecode": "0x608060405234801561001057600080fd5b50604051604080612f1f83398101604052805160209091015160008054600160a060020a03938416600160a060020a03199182161790915560018054939092169216919091179055612eb8806100676000396000f30060806040526004361061005e5763ffffffff60e060020a60003504166316114acd8114610063578063713b563f146100865780637249fbb6146100b757806383197ef0146100e3578063b5f8558c146100f8578063c674f7fe1461010d575b600080fd5b34801561006f57600080fd5b50610084600160a060020a0360043516610134565b005b34801561009257600080fd5b5061009b6103f4565b60408051600160a060020a039092168252519081900360200190f35b3480156100c357600080fd5b506100cf600435610403565b604080519115158252519081900360200190f35b3480156100ef57600080fd5b50610084610e7a565b34801561010457600080fd5b5061009b6110ce565b34801561011957600080fd5b506100cf600435600160a060020a03602435166044356110dd565b60008054604080517f6f776e65720000000000000000000000000000000000000000000000000000006020808301919091526c01000000000000000000000000330260258301528251601981840301815260399092019283905281518594600160a060020a031693633b7bfda09392909182918401908083835b602083106101cd5780518252601f1990920191602091820191016101ae565b51815160209384036101000a60001901801990921691161790526040805192909401829003822063ffffffff881660e060020a0283526004830152925160248083019650939450929083900301905081600087803b15801561022e57600080fd5b505af1158015610242573d6000803e3d6000fd5b505050506040513d602081101561025857600080fd5b505115156102c757604080517f08c379a000000000000000000000000000000000000000000000000000000000815260206004820152600960248201527f4e6f74206f776e65720000000000000000000000000000000000000000000000604482015290519081900360640190fd5b604080517f70a082310000000000000000000000000000000000000000000000000000000081523060048201529051849350600160a060020a038416916370a082319160248083019260209291908290030181600087803b15801561032b57600080fd5b505af115801561033f573d6000803e3d6000fd5b505050506040513d602081101561035557600080fd5b5051604080517fa9059cbb000000000000000000000000000000000000000000000000000000008152336004820152602481018390529051919250600160a060020a0384169163a9059cbb916044808201926020929091908290030181600087803b1580156103c357600080fd5b505af11580156103d7573d6000803e3d6000fd5b505050506040513d60208110156103ed57600080fd5b5050505050565b600054600160a060020a031681565b60008054604080517f70617573656400000000000000000000000000000000000000000000000000006020808301919091526c01000000000000000000000000300260268301528251601a818403018152603a9092019283905281518594859485948594600160a060020a0390931693633b7bfda0939192918291908401908083835b602083106104a55780518252601f199092019160209182019101610486565b51815160209384036101000a60001901801990921691161790526040805192909401829003822063ffffffff881660e060020a0283526004830152925160248083019650939450929083900301905081600087803b15801561050657600080fd5b505af115801561051a573d6000803e3d6000fd5b505050506040513d602081101561053057600080fd5b50511561053c57600080fd5b6000805460408051600080516020612e4d833981519152602080830191909152602c8083018c905283518084039091018152604c9092019283905281518b9594600160a060020a0316936304f49a3a9392909182918401908083835b602083106105b75780518252601f199092019160209182019101610598565b51815160209384036101000a60001901801990921691161790526040805192909401829003822063ffffffff881660e060020a0283526004830152925160248083019650939450929083900301905081600087803b15801561061857600080fd5b505af115801561062c573d6000803e3d6000fd5b505050506040513d602081101561064257600080fd5b5051600160a060020a0316141561065857600080fd5b60005460408051600080516020612e6d833981519152602080830191909152602f8083018c905283518084039091018152604f9092019283905281518b94600160a060020a03169363a855d4ce9392909182918401908083835b602083106106d15780518252601f1990920191602091820191016106b2565b51815160209384036101000a60001901801990921691161790526040805192909401829003822063ffffffff881660e060020a0283526004830152925160248083019650939450929083900301905081600087803b15801561073257600080fd5b505af1158015610746573d6000803e3d6000fd5b505050506040513d602081101561075c57600080fd5b5051421161076957600080fd5b600054604080517f63726f776473616c6546696e616c697a6564000000000000000000000000000060208083019190915260328083018d90528351808403909101815260529092019283905281518c94600160a060020a031693633b7bfda09392909182918401908083835b602083106107f45780518252601f1990920191602091820191016107d5565b51815160209384036101000a60001901801990921691161790526040805192909401829003822063ffffffff881660e060020a0283526004830152925160248083019650939450929083900301905081600087803b15801561085557600080fd5b505af1158015610869573d6000803e3d6000fd5b505050506040513d602081101561087f57600080fd5b50511561088b57600080fd5b60005460408051600080516020612e6d833981519152602080830191909152602f8083018e905283518084039091018152604f909201928390528151600160a060020a039094169363a855d4ce93918291908401908083835b602083106109035780518252601f1990920191602091820191016108e4565b51815160209384036101000a60001901801990921691161790526040805192909401829003822063ffffffff881660e060020a0283526004830152925160248083019650939450929083900301905081600087803b15801561096457600080fd5b505af1158015610978573d6000803e3d6000fd5b505050506040513d602081101561098e57600080fd5b5051151561099b57600080fd5b60005460408051600080516020612e6d833981519152602080830191909152602f8083018e905283518084039091018152604f909201928390528151600160a060020a039094169363e2b202bf93918291908401908083835b60208310610a135780518252601f1990920191602091820191016109f4565b5181516020939093036101000a60001901801990911692169190911790526040805191909301819003812063ffffffff871660e060020a0282526004820152915160248084019550600094509092839003019050818387803b158015610a7857600080fd5b505af1158015610a8c573d6000803e3d6000fd5b505050506000809054906101000a9004600160a060020a0316600160a060020a03166304f49a3a8a6040516020018080600080516020612e4d833981519152815250600c0182600019166000191681526020019150506040516020818303038152906040526040518082805190602001908083835b60208310610b205780518252601f199092019160209182019101610b01565b51815160209384036101000a60001901801990921691161790526040805192909401829003822063ffffffff881660e060020a0283526004830152925160248083019650939450929083900301905081600087803b158015610b8157600080fd5b505af1158015610b95573d6000803e3d6000fd5b505050506040513d6020811015610bab57600080fd5b5051600054604080517f66756e64696e67546f6b656e0000000000000000000000000000000000000000602082810191909152602c8083018f905283518084039091018152604c909201928390528151949b508b9a50600160a060020a03909316936304f49a3a939192918291908401908083835b60208310610c3f5780518252601f199092019160209182019101610c20565b51815160209384036101000a60001901801990921691161790526040805192909401829003822063ffffffff881660e060020a0283526004830152925160248083019650939450929083900301905081600087803b158015610ca057600080fd5b505af1158015610cb4573d6000803e3d6000fd5b505050506040513d6020811015610cca57600080fd5b5051604080517f18160ddd0000000000000000000000000000000000000000000000000000000081529051919650600160a060020a038816916318160ddd916004808201926020929091908290030181600087803b158015610d2b57600080fd5b505af1158015610d3f573d6000803e3d6000fd5b505050506040513d6020811015610d5557600080fd5b5051604080517f095ea7b3000000000000000000000000000000000000000000000000000000008152600160a060020a038a811660048301526024820184905291519296509087169163095ea7b3916044808201926020929091908290030181600087803b158015610dc657600080fd5b505af1158015610dda573d6000803e3d6000fd5b505050506040513d6020811015610df057600080fd5b5050604080517f52ff7fa9000000000000000000000000000000000000000000000000000000008152600481018690529051600160a060020a038816916352ff7fa991602480830192600092919082900301818387803b158015610e5357600080fd5b505af1158015610e67573d6000803e3d6000fd5b5060019c9b505050505050505050505050565b600054604080517f6f776e65720000000000000000000000000000000000000000000000000000006020808301919091526c0100000000000000000000000033026025830152825160198184030181526039909201928390528151600160a060020a0390941693633b7bfda093918291908401908083835b60208310610f115780518252601f199092019160209182019101610ef2565b51815160209384036101000a60001901801990921691161790526040805192909401829003822063ffffffff881660e060020a0283526004830152925160248083019650939450929083900301905081600087803b158015610f7257600080fd5b505af1158015610f86573d6000803e3d6000fd5b505050506040513d6020811015610f9c57600080fd5b5051151561100b57604080517f08c379a000000000000000000000000000000000000000000000000000000000815260206004820152600960248201527f4e6f74206f776e65720000000000000000000000000000000000000000000000604482015290519081900360640190fd5b600154604080517f68b96270000000000000000000000000000000000000000000000000000000008152306024820181905233604483015231606482015260a06004820152601860a48201527f43726f776473616c6545524332302064657374726f796564000000000000000060c48201529051600160a060020a03909216916368b962709160e48082019260009290919082900301818387803b1580156110b257600080fd5b505af11580156110c6573d6000803e3d6000fd5b503392505050ff5b600154600160a060020a031681565b6000805460408051600080516020612e4d833981519152602080830191909152602c80830189905283518084039091018152604c90920192839052815185948594859485948c948694600160a060020a0316936304f49a3a9392909182918401908083835b602083106111615780518252601f199092019160209182019101611142565b51815160209384036101000a60001901801990921691161790526040805192909401829003822063ffffffff881660e060020a0283526004830152925160248083019650939450929083900301905081600087803b1580156111c257600080fd5b505af11580156111d6573d6000803e3d6000fd5b505050506040513d60208110156111ec57600080fd5b5051600160a060020a0316141561120257600080fd5b60005460408051600080516020612e6d833981519152602080830191909152602f8083018e905283518084039091018152604f9092019283905281518d94600160a060020a03169363a855d4ce9392909182918401908083835b6020831061127b5780518252601f19909201916020918201910161125c565b51815160209384036101000a60001901801990921691161790526040805192909401829003822063ffffffff881660e060020a0283526004830152925160248083019650939450929083900301905081600087803b1580156112dc57600080fd5b505af11580156112f0573d6000803e3d6000fd5b505050506040513d602081101561130657600080fd5b505142111561131457600080fd5b600054604080517f737461727454696d6500000000000000000000000000000000000000000000006020808301919091526029808301869052835180840390910181526049909201928390528151600160a060020a039094169363a855d4ce93918291908401908083835b6020831061139e5780518252601f19909201916020918201910161137f565b51815160209384036101000a60001901801990921691161790526040805192909401829003822063ffffffff881660e060020a0283526004830152925160248083019650939450929083900301905081600087803b1580156113ff57600080fd5b505af1158015611413573d6000803e3d6000fd5b505050506040513d602081101561142957600080fd5b505142101561143757600080fd5b600054604080517f63726f776473616c6546696e616c697a6564000000000000000000000000000060208083019190915260328083018f90528351808403909101815260529092019283905281518e94600160a060020a031693633b7bfda09392909182918401908083835b602083106114c25780518252601f1990920191602091820191016114a3565b51815160209384036101000a60001901801990921691161790526040805192909401829003822063ffffffff881660e060020a0283526004830152925160248083019650939450929083900301905081600087803b15801561152357600080fd5b505af1158015611537573d6000803e3d6000fd5b505050506040513d602081101561154d57600080fd5b50511561155957600080fd5b33600160a060020a038b16148061177057506000809054906101000a9004600160a060020a0316600160a060020a0316633b7bfda08b33306000357fffffffff000000000000000000000000000000000000000000000000000000001660405160200180807f617070726f76616c00000000000000000000000000000000000000000000000081525060080185600160a060020a0316600160a060020a03166c0100000000000000000000000002815260140184600160a060020a0316600160a060020a03166c0100000000000000000000000002815260140183600160a060020a0316600160a060020a03166c01000000000000000000000000028152601401827bffffffffffffffffffffffffffffffffffffffffffffffffffffffff19167bffffffffffffffffffffffffffffffffffffffffffffffffffffffff191681526004019450505050506040516020818303038152906040526040518082805190602001908083835b602083106116e25780518252601f1990920191602091820191016116c3565b51815160209384036101000a60001901801990921691161790526040805192909401829003822063ffffffff881660e060020a0283526004830152925160248083019650939450929083900301905081600087803b15801561174357600080fd5b505af1158015611757573d6000803e3d6000fd5b505050506040513d602081101561176d57600080fd5b50515b151561177b57600080fd5b6000809054906101000a9004600160a060020a0316600160a060020a03166304f49a3a8c6040516020018080600080516020612e4d833981519152815250600c0182600019166000191681526020019150506040516020818303038152906040526040518082805190602001908083835b6020831061180b5780518252601f1990920191602091820191016117ec565b51815160209384036101000a60001901801990921691161790526040805192909401829003822063ffffffff881660e060020a0283526004830152925160248083019650939450929083900301905081600087803b15801561186c57600080fd5b505af1158015611880573d6000803e3d6000fd5b505050506040513d602081101561189657600080fd5b810190808051906020019092919050505096506000809054906101000a9004600160a060020a0316600160a060020a03166304f49a3a8c60405160200180807f66756e64696e67546f6b656e0000000000000000000000000000000000000000815250600c0182600019166000191681526020019150506040516020818303038152906040526040518082805190602001908083835b6020831061194b5780518252601f19909201916020918201910161192c565b51815160209384036101000a60001901801990921691161790526040805192909401829003822063ffffffff881660e060020a0283526004830152925160248083019650939450929083900301905081600087803b1580156119ac57600080fd5b505af11580156119c0573d6000803e3d6000fd5b505050506040513d60208110156119d657600080fd5b810190808051906020019092919050505095506000809054906101000a9004600160a060020a0316600160a060020a031663a855d4ce8c60405160200180807f616d6f756e74546f526169736500000000000000000000000000000000000000815250600d0182600019166000191681526020019150506040516020818303038152906040526040518082805190602001908083835b60208310611a8b5780518252601f199092019160209182019101611a6c565b51815160209384036101000a60001901801990921691161790526040805192909401829003822063ffffffff881660e060020a0283526004830152925160248083019650939450929083900301905081600087803b158015611aec57600080fd5b505af1158015611b00573d6000803e3d6000fd5b505050506040513d6020811015611b1657600080fd5b5051604080517f18160ddd0000000000000000000000000000000000000000000000000000000081529051919650611bb391600160a060020a038a16916318160ddd9160048083019260209291908290030181600087803b158015611b7a57600080fd5b505af1158015611b8e573d6000803e3d6000fd5b505050506040513d6020811015611ba457600080fd5b5051869063ffffffff6122bd16565b93508389106120a257604080517f23b872dd000000000000000000000000000000000000000000000000000000008152600160a060020a038c81166004830152306024830152604482018790529151918816916323b872dd916064808201926020929091908290030181600087803b158015611c2e57600080fd5b505af1158015611c42573d6000803e3d6000fd5b505050506040513d6020811015611c5857600080fd5b50511515611c6557600080fd5b600054604080517f636f6e74726163740000000000000000000000000000000000000000000000006020808301919091527f41737365744d616e6167657246756e64730000000000000000000000000000006028830152825160198184030181526039909201928390528151600160a060020a03808d16956340c10f19959116936304f49a3a93909282918401908083835b60208310611d165780518252601f199092019160209182019101611cf7565b51815160209384036101000a60001901801990921691161790526040805192909401829003822063ffffffff881660e060020a0283526004830152925160248083019650939450929083900301905081600087803b158015611d7757600080fd5b505af1158015611d8b573d6000803e3d6000fd5b505050506040513d6020811015611da157600080fd5b81019080805190602001909291905050506000809054906101000a9004600160a060020a0316600160a060020a031663a855d4ce8f60405160200180807f61737365744d616e616765724665650000000000000000000000000000000000815250600f0182600019166000191681526020019150506040516020818303038152906040526040518082805190602001908083835b60208310611e545780518252601f199092019160209182019101611e35565b51815160209384036101000a60001901801990921691161790526040805192909401829003822063ffffffff881660e060020a0283526004830152925160248083019650939450929083900301905081600087803b158015611eb557600080fd5b505af1158015611ec9573d6000803e3d6000fd5b505050506040513d6020811015611edf57600080fd5b50516040805160e060020a63ffffffff8616028152600160a060020a03909316600484015260248301919091525160448083019260209291908290030181600087803b158015611f2e57600080fd5b505af1158015611f42573d6000803e3d6000fd5b505050506040513d6020811015611f5857600080fd5b50511515611f6557600080fd5b611f6e8b6122cf565b1515611f7957600080fd5b86600160a060020a03166340c10f198b866040518363ffffffff1660e060020a0281526004018083600160a060020a0316600160a060020a0316815260200182815260200192505050602060405180830381600087803b158015611fdc57600080fd5b505af1158015611ff0573d6000803e3d6000fd5b505050506040513d602081101561200657600080fd5b5051151561201357600080fd5b86600160a060020a0316637d64bcb46040518163ffffffff1660e060020a028152600401602060405180830381600087803b15801561205157600080fd5b505af1158015612065573d6000803e3d6000fd5b505050506040513d602081101561207b57600080fd5b5051151561208857600080fd5b6120928b86612722565b151561209d57600080fd5b6121e5565b604080517f23b872dd000000000000000000000000000000000000000000000000000000008152600160a060020a038c81166004830152306024830152604482018c90529151918816916323b872dd916064808201926020929091908290030181600087803b15801561211457600080fd5b505af1158015612128573d6000803e3d6000fd5b505050506040513d602081101561213e57600080fd5b5051151561214b57600080fd5b86600160a060020a03166340c10f198b8b6040518363ffffffff1660e060020a0281526004018083600160a060020a0316600160a060020a0316815260200182815260200192505050602060405180830381600087803b1580156121ae57600080fd5b505af11580156121c2573d6000803e3d6000fd5b505050506040513d60208110156121d857600080fd5b505115156121e557600080fd5b600154604080517f68b96270000000000000000000000000000000000000000000000000000000008152600160a060020a038d81166024830152306044830152606482018d9052608482018f905260a06004830152600f60a48301527f417373657420707572636861736564000000000000000000000000000000000060c4830152915191909216916368b962709160e480830192600092919082900301818387803b15801561229457600080fd5b505af11580156122a8573d6000803e3d6000fd5b5060019e9d5050505050505050505050505050565b6000828211156122c957fe5b50900390565b60008054604080517f70617573656400000000000000000000000000000000000000000000000000006020808301919091526c01000000000000000000000000300260268301528251601a818403018152603a909201928390528151600160a060020a0390941693633b7bfda093918291908401908083835b602083106123675780518252601f199092019160209182019101612348565b51815160209384036101000a60001901801990921691161790526040805192909401829003822063ffffffff881660e060020a0283526004830152925160248083019650939450929083900301905081600087803b1580156123c857600080fd5b505af11580156123dc573d6000803e3d6000fd5b505050506040513d60208110156123f257600080fd5b5051156123fe57600080fd5b600054604080517f63726f776473616c6546696e616c697a656400000000000000000000000000006020808301919091526032808301879052835180840390910181526052909201928390528151600160a060020a039094169363abfdcced93918291908401908083835b602083106124885780518252601f199092019160209182019101612469565b5181516020939093036101000a60001901801990911692169190911790526040805191909301819003812063ffffffff871660e060020a028252600482015260016024820152915160448084019550600094509092839003019050818387803b1580156124f457600080fd5b505af1158015612508573d6000803e3d6000fd5b5050600054604080517f616d6f756e74546f526169736500000000000000000000000000000000000000602080830191909152602d80830189905283518084039091018152604d909201928390528151600160a060020a03909416955063e2b202bf9450909282918401908083835b602083106125965780518252601f199092019160209182019101612577565b5181516020939093036101000a60001901801990911692169190911790526040805191909301819003812063ffffffff871660e060020a0282526004820152915160248084019550600094509092839003019050818387803b1580156125fb57600080fd5b505af115801561260f573d6000803e3d6000fd5b5050600054604080517f61737365744d616e616765724665650000000000000000000000000000000000602080830191909152602f80830189905283518084039091018152604f909201928390528151600160a060020a03909416955063e2b202bf9450909282918401908083835b6020831061269d5780518252601f19909201916020918201910161267e565b5181516020939093036101000a60001901801990911692169190911790526040805191909301819003812063ffffffff871660e060020a0282526004820152915160248084019550600094509092839003019050818387803b15801561270257600080fd5b505af1158015612716573d6000803e3d6000fd5b50600195945050505050565b60008054604080517f70617573656400000000000000000000000000000000000000000000000000006020808301919091526c01000000000000000000000000300260268301528251601a818403018152603a90920192839052815185948594859485948594600160a060020a0390941693633b7bfda093918291908401908083835b602083106127c45780518252601f1990920191602091820191016127a5565b51815160209384036101000a60001901801990921691161790526040805192909401829003822063ffffffff881660e060020a0283526004830152925160248083019650939450929083900301905081600087803b15801561282557600080fd5b505af1158015612839573d6000803e3d6000fd5b505050506040513d602081101561284f57600080fd5b50511561285b57600080fd5b600054604080517f66756e64696e67546f6b656e0000000000000000000000000000000000000000602080830191909152602c8083018d905283518084039091018152604c909201928390528151600160a060020a03909416936304f49a3a93918291908401908083835b602083106128e55780518252601f1990920191602091820191016128c6565b51815160209384036101000a60001901801990921691161790526040805192909401829003822063ffffffff881660e060020a0283526004830152925160248083019650939450929083900301905081600087803b15801561294657600080fd5b505af115801561295a573d6000803e3d6000fd5b505050506040513d602081101561297057600080fd5b5051600054604080517f6f70657261746f7200000000000000000000000000000000000000000000000060208281019190915260288083018e9052835180840390910181526048909201928390528151949950600160a060020a03909316936304f49a3a939192918291908401908083835b60208310612a015780518252601f1990920191602091820191016129e2565b51815160209384036101000a60001901801990921691161790526040805192909401829003822063ffffffff881660e060020a0283526004830152925160248083019650939450929083900301905081600087803b158015612a6257600080fd5b505af1158015612a76573d6000803e3d6000fd5b505050506040513d6020811015612a8c57600080fd5b5051600054604080517f706c6174666f726d57616c6c65740000000000000000000000000000000000006020828101919091528251808303600e018152602e909201928390528151949850600160a060020a03909316936304f49a3a939192918291908401908083835b60208310612b155780518252601f199092019160209182019101612af6565b51815160209384036101000a60001901801990921691161790526040805192909401829003822063ffffffff881660e060020a0283526004830152925160248083019650939450929083900301905081600087803b158015612b7657600080fd5b505af1158015612b8a573d6000803e3d6000fd5b505050506040513d6020811015612ba057600080fd5b50519250600160a060020a03841615801590612bc45750600160a060020a03831615155b1515612bcf57600080fd5b612bf16064612be589606363ffffffff612e0116565b9063ffffffff612e3716565b9150612c03878363ffffffff6122bd16565b905084600160a060020a031663a9059cbb84836040518363ffffffff1660e060020a0281526004018083600160a060020a0316600160a060020a0316815260200182815260200192505050602060405180830381600087803b158015612c6857600080fd5b505af1158015612c7c573d6000803e3d6000fd5b505050506040513d6020811015612c9257600080fd5b5050604080517fa9059cbb000000000000000000000000000000000000000000000000000000008152600160a060020a0386811660048301526024820185905291519187169163a9059cbb916044808201926020929091908290030181600087803b158015612d0057600080fd5b505af1158015612d14573d6000803e3d6000fd5b505050506040513d6020811015612d2a57600080fd5b5050600154604080517f68b96270000000000000000000000000000000000000000000000000000000008152306024820152600160a060020a038781166044830152606482018b9052608482018c905260a06004830152600c60a48301527f4173736574207061796f7574000000000000000000000000000000000000000060c4830152915191909216916368b962709160e480830192600092919082900301818387803b158015612ddb57600080fd5b505af1158015612def573d6000803e3d6000fd5b5060019b9a5050505050505050505050565b600080831515612e145760009150612e30565b50828202828482811515612e2457fe5b0414612e2c57fe5b8091505b5092915050565b60008183811515612e4457fe5b0493925050505600746f6b656e41646472657373000000000000000000000000000000000000000066756e64696e67446561646c696e650000000000000000000000000000000000a165627a7a723058206b9a3370cad1cebee0173de036ee41791bc86a9ecb2bbe341be550491dc2ec100029",
  "source": "pragma solidity ^0.4.24;\n\nimport \"../math/SafeMath.sol\";\nimport \"../interfaces/ERC20.sol\";\nimport \"../interfaces/ERC20DividendInterface.sol\";\n// import \"../access/ERC20Burner.sol\";\n\ninterface Events {  function transaction(string _message, address _from, address _to, uint _amount, bytes32 _id)  external; }\ninterface DB {\n  function addressStorage(bytes32 _key) external view returns (address);\n  function uintStorage(bytes32 _key) external view returns (uint);\n  function deleteUint(bytes32 _key) external;\n  function setBool(bytes32 _key, bool _value) external;\n  function boolStorage(bytes32 _key) external view returns (bool);\n}\n\n// @title An asset crowdsale contract which accepts funding from ERC20 tokens.\n// @notice Begins a crowdfunding period for a digital asset, minting asset dividend tokens to investors when particular ERC20 token is received\n// @author Kyle Dewhurst, MyBit Foundation\n// @notice creates a dividend token to represent the newly created asset.\ncontract CrowdsaleERC20{\n  using SafeMath for uint256;\n\n  DB public database;\n  Events public events;\n  // ERC20Burner public burner;\n\n  // @notice Constructor: initializes database instance\n  // @param: The address for the platform database\n  constructor(address _database, address _events)\n  public{\n      database = DB(_database);\n      events = Events(_events);\n      // burner = ERC20Burner(database.addressStorage(keccak256(abi.encodePacked(\"contract\", \"ERC20Burner\"))));\n  }\n\n\n  // @notice Investors can send ERC20 tokens here to fund an asset, receiving an equivalent number of asset-tokens.\n  // @dev investor must approve this contract to transfer tokens\n  // @param (bytes32) _assetID = The ID of the asset tokens, investor wishes to purchase\n  // @param (uint) _amount = The amount to spend purchasing this asset\n  function buyAssetOrderERC20(bytes32 _assetID, address _investor, uint _amount)\n  external\n  validAsset(_assetID)\n  betweenDeadlines(_assetID)\n  notFinalized(_assetID)\n  // burnRequired\n  returns (bool) {\n    require(msg.sender == _investor || database.boolStorage(keccak256(abi.encodePacked(\"approval\", _investor, msg.sender, address(this), msg.sig))));\n    ERC20DividendInterface assetToken = ERC20DividendInterface(database.addressStorage(keccak256(abi.encodePacked(\"tokenAddress\", _assetID))));\n    ERC20 fundingToken = ERC20(database.addressStorage(keccak256(abi.encodePacked(\"fundingToken\", _assetID))));\n    uint amountToRaise = database.uintStorage(keccak256(abi.encodePacked(\"amountToRaise\", _assetID)));\n    uint tokensRemaining = amountToRaise.sub(assetToken.totalSupply());\n    if (_amount >= tokensRemaining) {\n      require(fundingToken.transferFrom(_investor, address(this), tokensRemaining));    // transfer investors tokens into contract\n      require(assetToken.mint(database.addressStorage(keccak256(abi.encodePacked(\"contract\", \"AssetManagerFunds\"))), database.uintStorage(keccak256(abi.encodePacked(\"assetManagerFee\", _assetID))) ));\n      require(finalizeCrowdsale(_assetID));\n      require(assetToken.mint(_investor, tokensRemaining));   // Send remaining asset tokens to investor\n      require(assetToken.finishMinting());\n      require(payoutERC20(_assetID, amountToRaise));          // 1 token = 1 wei\n    }\n    else {\n      require(fundingToken.transferFrom(_investor, address(this), _amount));\n      require(assetToken.mint(_investor, _amount));\n    }\n    events.transaction('Asset purchased', _investor, address(this), _amount, _assetID);\n    return true;\n  }\n\n\n  // @notice Contributors can retrieve their funds here if crowdsale has paased deadline\n  // @param (bytes32) _assetID =  The ID of the asset which didn't reach it's crowdfunding goals\n  function refund(bytes32 _assetID)\n  external\n  whenNotPaused\n  validAsset(_assetID)\n  afterDeadline(_assetID)\n  notFinalized(_assetID)\n  returns (bool) {\n    require(database.uintStorage(keccak256(abi.encodePacked(\"fundingDeadline\", _assetID))) != 0);\n    database.deleteUint(keccak256(abi.encodePacked(\"fundingDeadline\", _assetID)));\n    address tokenAddress = database.addressStorage(keccak256(abi.encodePacked(\"tokenAddress\", _assetID)));\n    ERC20DividendInterface assetToken = ERC20DividendInterface(tokenAddress);\n    ERC20 fundingToken = ERC20(database.addressStorage(keccak256(abi.encodePacked(\"fundingToken\", _assetID))));\n    uint refundValue = assetToken.totalSupply(); //token=wei\n    fundingToken.approve(tokenAddress, refundValue);\n    assetToken.issueDividends(refundValue);\n    return true;\n  }\n\n  //------------------------------------------------------------------------------------------------------------------\n  //                                            Internal Functions\n  //------------------------------------------------------------------------------------------------------------------\n\n  // @notice This is called once funding has succeeded. Sends Ether to a distribution contract where operator/assetManager can withdraw\n  // @dev The contract manager needs to know  the address PlatformDistribution contract\n  function payoutERC20(bytes32 _assetID, uint _amount)\n  private\n  whenNotPaused\n  returns (bool) {\n    ERC20 fundingToken = ERC20(database.addressStorage(keccak256(abi.encodePacked(\"fundingToken\", _assetID))));\n    address operator = database.addressStorage(keccak256(abi.encodePacked(\"operator\", _assetID)));\n    address platformWallet = database.addressStorage(keccak256(abi.encodePacked(\"platformWallet\")));\n    require(operator != address(0) && platformWallet != address(0));\n    uint operatorPortion = _amount.mul(99).div(100);\n    uint platformPortion = _amount.sub(operatorPortion);\n    fundingToken.transfer(platformWallet, platformPortion);\n    fundingToken.transfer(operator, operatorPortion);\n    events.transaction('Asset payout', address(this), operator, _amount, _assetID);\n    //emit LogAssetPayout(_assetID, operator, _amount);\n    return true;\n  }\n\n  // @notice platform owners can recover tokens here\n  function recoverTokens(address _erc20Token)\n  onlyOwner\n  external {\n    ERC20 thisToken = ERC20(_erc20Token);\n    uint contractBalance = thisToken.balanceOf(address(this));\n    thisToken.transfer(msg.sender, contractBalance);\n  }\n\n  // @notice platform owners can destroy contract here\n  function destroy()\n  onlyOwner\n  external {\n    events.transaction('CrowdsaleERC20 destroyed', address(this), msg.sender, address(this).balance, '');\n    //emit LogDestruction(address(this).balance, msg.sender);\n    selfdestruct(msg.sender);\n  }\n\n\n  //------------------------------------------------------------------------------------------------------------------\n  //                                            Internal functions\n  //------------------------------------------------------------------------------------------------------------------\n\n  // @notice internal function for freeing up storage after crowdsale finishes\n  // @param the ID of this asset.\n  function finalizeCrowdsale(bytes32 _assetID)\n  internal\n  whenNotPaused\n  returns (bool) {\n      database.setBool(keccak256(abi.encodePacked(\"crowdsaleFinalized\", _assetID)), true);\n      database.deleteUint(keccak256(abi.encodePacked(\"amountToRaise\", _assetID)));\n      database.deleteUint(keccak256(abi.encodePacked(\"assetManagerFee\", _assetID)));\n      return true;\n  }\n\n  //------------------------------------------------------------------------------------------------------------------\n  //                                            Modifiers\n  //------------------------------------------------------------------------------------------------------------------\n\n  // @notice Sender must be a registered owner\n  modifier onlyOwner {\n    require(database.boolStorage(keccak256(abi.encodePacked(\"owner\", msg.sender))), \"Not owner\");\n    _;\n  }\n\n  // @notice function won't run if owners have paused this contract\n  modifier whenNotPaused {\n    require(!database.boolStorage(keccak256(abi.encodePacked(\"paused\", address(this)))));\n    _;\n  }\n\n  // // @notice reverts if investor hasn't approved burner to burn platform token\n  // modifier burnRequired {\n  //   require(burner.burn(msg.sender, database.uintStorage(keccak256(abi.encodePacked(msg.sig, address(this))))));\n  //   _;\n  // }\n\n      // @notice reverts if the asset does not have a token address set in the database\n  modifier validAsset(bytes32 _assetID) {\n    require(database.addressStorage(keccak256(abi.encodePacked(\"tokenAddress\", _assetID))) != address(0));\n    _;\n  }\n\n  // @notice reverts if the funding deadline has already past\n  modifier betweenDeadlines(bytes32 _assetID) {\n    require(now <= database.uintStorage(keccak256(abi.encodePacked(\"fundingDeadline\", _assetID))));\n    require(now >= database.uintStorage(keccak256(abi.encodePacked(\"startTime\", _assetID))));\n    _;\n  }\n\n  // @notice reverts if the funding deadline has already past\n  modifier afterDeadline(bytes32 _assetID) {\n    require(now > database.uintStorage(keccak256(abi.encodePacked(\"fundingDeadline\", _assetID))));\n    _;\n  }\n\n  // @notice returns true if crowdsale is not finshed\n  modifier notFinalized(bytes32 _assetID) {\n    require( !database.boolStorage(keccak256(abi.encodePacked(\"crowdsaleFinalized\", _assetID))) );\n    _;\n  }\n\n  //------------------------------------------------------------------------------------------------------------------\n  //                                            Events\n  //------------------------------------------------------------------------------------------------------------------\n  /*\n  event LogAssetPurchased(bytes32 indexed _assetID, address indexed _sender, uint _amount);\n  event LogAssetPayout(bytes32 indexed _assetID, address indexed _operator, uint _amount);\n  event LogDestruction(uint _amountSent, address indexed _caller);\n  */\n}\n",
  "sourcePath": "/home/peter/Documents/Work/MyBit/MyBit-Network.tech/contracts/crowdsale/CrowdsaleERC20.sol",
  "compiler": {
    "name": "solc",
    "version": "0.4.24+commit.e67f0147.Emscripten.clang"
  },
  "schemaVersion": "2.0.1",
  "updatedAt": "2018-12-06T01:09:52.936Z"
}