{
  "contractName": "CrowdsaleGeneratorETH",
  "abi": [
    {
      "constant": true,
      "inputs": [],
      "name": "database",
      "outputs": [
        {
          "name": "",
          "type": "address"
        }
      ],
      "payable": false,
      "stateMutability": "view",
      "type": "function"
    },
    {
      "constant": true,
      "inputs": [],
      "name": "events",
      "outputs": [
        {
          "name": "",
          "type": "address"
        }
      ],
      "payable": false,
      "stateMutability": "view",
      "type": "function"
    },
    {
      "inputs": [
        {
          "name": "_database",
          "type": "address"
        },
        {
          "name": "_events",
          "type": "address"
        },
        {
          "name": "_kyber",
          "type": "address"
        }
      ],
      "payable": false,
      "stateMutability": "nonpayable",
      "type": "constructor"
    },
    {
      "constant": false,
      "inputs": [
        {
          "name": "_assetURI",
          "type": "string"
        },
        {
          "name": "_assetManager",
          "type": "address"
        },
        {
          "name": "_operatorID",
          "type": "bytes32"
        },
        {
          "name": "_fundingLength",
          "type": "uint256"
        },
        {
          "name": "_startTime",
          "type": "uint256"
        },
        {
          "name": "_amountToRaise",
          "type": "uint256"
        },
        {
          "name": "_assetManagerPerc",
          "type": "uint256"
        },
        {
          "name": "_escrow",
          "type": "uint256"
        },
        {
          "name": "_paymentToken",
          "type": "address"
        }
      ],
      "name": "createAssetOrderETH",
      "outputs": [
        {
          "name": "",
          "type": "bool"
        }
      ],
      "payable": true,
      "stateMutability": "payable",
      "type": "function"
    },
    {
      "constant": false,
      "inputs": [],
      "name": "destroy",
      "outputs": [],
      "payable": false,
      "stateMutability": "nonpayable",
      "type": "function"
    }
  ],
  "bytecode": "0x608060405234801561001057600080fd5b506040516060806144d783398101604090815281516020830151919092015160008054600160a060020a0319908116600160a060020a0395861617825560018054821694861694909417909355600280549093169390911692909217905561445990819061007e90396000f3006080604052600436106200004d5763ffffffff60e060020a60003504166329eddadf811462000052578063713b563f14620000a857806383197ef014620000dc578063b5f8558c14620000f6575b600080fd5b620000946024600480358281019291013590600160a060020a03903581169060443590606435906084359060a4359060c4359060e4359061010435166200010e565b604080519115158252519081900360200190f35b348015620000b557600080fd5b50620000c062000c8b565b60408051600160a060020a039092168252519081900360200190f35b348015620000e957600080fd5b50620000f462000c9a565b005b3480156200010357600080fd5b50620000c062000edc565b60008080600160a060020a03841673eeeeeeeeeeeeeeeeeeeeeeeeeeeeeeeeeeeeeeee14156200014b573485146200014557600080fd5b62000157565b34156200015757600080fd5b33600160a060020a038c1614806200035957506000809054906101000a9004600160a060020a0316600160a060020a0316633b7bfda08c33306000357fffffffff000000000000000000000000000000000000000000000000000000001660405160200180807f617070726f76616c00000000000000000000000000000000000000000000000081525060080185600160a060020a0316600160a060020a0316606060020a02815260140184600160a060020a0316600160a060020a0316606060020a02815260140183600160a060020a0316600160a060020a0316606060020a028152601401827bffffffffffffffffffffffffffffffffffffffffffffffffffffffff19167bffffffffffffffffffffffffffffffffffffffffffffffffffffffff191681526004019450505050506040516020818303038152906040526040518082805190602001908083835b60208310620002c85780518252601f199092019160209182019101620002a7565b51815160209384036101000a60001901801990921691161790526040805192909401829003822063ffffffff881660e060020a0283526004830152925160248083019650939450929083900301905081600087803b1580156200032a57600080fd5b505af11580156200033f573d6000803e3d6000fd5b505050506040513d60208110156200035657600080fd5b50515b1515620003b0576040805160e560020a62461bcd02815260206004820152601160248201527f55736572206e6f7420617070726f766564000000000000000000000000000000604482015290519081900360640190fd5b60648710156200040a576040805160e560020a62461bcd02815260206004820152601b60248201527f43726f776473616c6520676f616c20697320746f6f20736d616c6c0000000000604482015290519081900360640190fd5b6064861062000489576040805160e560020a62461bcd02815260206004820152602860248201527f4d616e616765722070657263656e74206e65656420746f206265206c6573732060448201527f7468616e20313030000000000000000000000000000000000000000000000000606482015290519081900360840190fd5b600054604080517f6f70657261746f722e616363657074734574686572000000000000000000000060208083019190915260358083018f9052835180840390910181526055909201928390528151600160a060020a0390941693633b7bfda093918291908401908083835b60208310620005155780518252601f199092019160209182019101620004f4565b51815160209384036101000a60001901801990921691161790526040805192909401829003822063ffffffff881660e060020a0283526004830152925160248083019650939450929083900301905081600087803b1580156200057757600080fd5b505af11580156200058c573d6000803e3d6000fd5b505050506040513d6020811015620005a357600080fd5b50511515620005fc576040805160e560020a62461bcd02815260206004820152601e60248201527f4f70657261746f7220646f6573206e6f74206163636570742045746865720000604482015290519081900360640190fd5b6000600160a060020a03166000809054906101000a9004600160a060020a0316600160a060020a03166304f49a3a8c60405160200180807f6f70657261746f7200000000000000000000000000000000000000000000000081525060080182600019166000191681526020019150506040516020818303038152906040526040518082805190602001908083835b60208310620006ab5780518252601f1990920191602091820191016200068a565b51815160209384036101000a60001901801990921691161790526040805192909401829003822063ffffffff881660e060020a0283526004830152925160248083019650939450929083900301905081600087803b1580156200070d57600080fd5b505af115801562000722573d6000803e3d6000fd5b505050506040513d60208110156200073957600080fd5b5051600160a060020a031614156200079b576040805160e560020a62461bcd02815260206004820152601760248201527f4f70657261746f7220646f6573206e6f74206578697374000000000000000000604482015290519081900360640190fd5b6000809054906101000a9004600160a060020a0316600160a060020a0316633b7bfda08e8e60405160200180807f61737365742e75726900000000000000000000000000000000000000000000008152506009018383808284378201915050925050506040516020818303038152906040526040518082805190602001908083835b602083106200083e5780518252601f1990920191602091820191016200081d565b51815160209384036101000a60001901801990921691161790526040805192909401829003822063ffffffff881660e060020a0283526004830152925160248083019650939450929083900301905081600087803b158015620008a057600080fd5b505af1158015620008b5573d6000803e3d6000fd5b505050506040513d6020811015620008cc57600080fd5b50511562000924576040805160e560020a62461bcd02815260206004820152601760248201527f417373657420555249206973206e6f7420756e69717565000000000000000000604482015290519081900360640190fd5b4288101562000936574291506200093a565b8791505b8c8c6000809054906101000a9004600160a060020a0316600160a060020a03166304f49a3a60405160200180807f636f6e7472616374000000000000000000000000000000000000000000000000815250600801807f4d696e746572000000000000000000000000000000000000000000000000000081525060060190506040516020818303038152906040526040518082805190602001908083835b60208310620009f85780518252601f199092019160209182019101620009d7565b51815160209384036101000a60001901801990921691161790526040805192909401829003822063ffffffff881660e060020a0283526004830152925160248083019650939450929083900301905081600087803b15801562000a5a57600080fd5b505af115801562000a6f573d6000803e3d6000fd5b505050506040513d602081101562000a8657600080fd5b5051600062000a9462002b40565b600160a060020a03808416602083015282166040820152606080825281018490528060808101868680828437820191505095505050505050604051809103906000f08015801562000ae9573d6000803e3d6000fd5b50905062000afa81838b8a62000eeb565b151562000b0657600080fd5b62000b48818e8e8080601f0160208091040260200160405190810160405280939291908181526020018383808284378201915050505050508c8e8a8c620014be565b151562000b5457600080fd5b600085111562000b785762000b6c8b82868862001e6a565b151562000b7857600080fd5b600160009054906101000a9004600160a060020a0316600160a060020a03166378576a918e8e848f6040518563ffffffff1660e060020a02815260040180806020018060200185600160a060020a0316600160a060020a0316815260200184600160a060020a0316600160a060020a03168152602001838103835260158152602001807f41737365742066756e64696e6720737461727465640000000000000000000000815250602001838103825287878281815260200192508082843782019150509650505050505050600060405180830381600087803b15801562000c5e57600080fd5b505af115801562000c73573d6000803e3d6000fd5b505050506001925050509a9950505050505050505050565b600054600160a060020a031681565b600054604080517f6f776e6572000000000000000000000000000000000000000000000000000000602080830191909152606060020a33026025830152825160198184030181526039909201928390528151600160a060020a0390941693633b7bfda093918291908401908083835b6020831062000d2a5780518252601f19909201916020918201910162000d09565b51815160209384036101000a60001901801990921691161790526040805192909401829003822063ffffffff881660e060020a0283526004830152925160248083019650939450929083900301905081600087803b15801562000d8c57600080fd5b505af115801562000da1573d6000803e3d6000fd5b505050506040513d602081101562000db857600080fd5b5051151562000e11576040805160e560020a62461bcd02815260206004820152600960248201527f4e6f74206f776e65720000000000000000000000000000000000000000000000604482015290519081900360640190fd5b600154604080517f42b425aa000000000000000000000000000000000000000000000000000000008152306024820181905233604483015231606482015260006084820181905260a06004830152601f60a48301527f43726f776473616c6547656e657261746f724554482064657374726f7965640060c48301529151600160a060020a03909316926342b425aa9260e48084019391929182900301818387803b15801562000ebf57600080fd5b505af115801562000ed4573d6000803e3d6000fd5b503392505050ff5b600154600160a060020a031681565b60008054604080517f63726f776473616c652e73746172740000000000000000000000000000000000602080830191909152600160a060020a03898116606060020a02602f84015283518084036023018152604390930193849052825194169363e2a4853a93918291908401908083835b6020831062000f7d5780518252601f19909201916020918201910162000f5c565b5181516020939093036101000a60001901801990911692169190911790526040805191909301819003812063ffffffff871660e060020a0282526004820152602481018b9052915160448084019550600094509092839003019050818387803b15801562000fea57600080fd5b505af115801562000fff573d6000803e3d6000fd5b5050600054604080517f63726f776473616c652e646561646c696e650000000000000000000000000000602080830191909152600160a060020a038b8116606060020a0260328401528351808403602601815260469093019384905282519416955063e2a4853a9450909282918401908083835b60208310620010945780518252601f19909201916020918201910162001073565b6001836020036101000a0380198251168184511680821785525050505050509050019150506040518091039020620010d6868862002aac90919063ffffffff16565b6040518363ffffffff1660e060020a02815260040180836000191660001916815260200182815260200192505050600060405180830381600087803b1580156200111f57600080fd5b505af115801562001134573d6000803e3d6000fd5b5050600054604080517f63726f776473616c652e676f616c000000000000000000000000000000000000602080830191909152600160a060020a038b8116606060020a02602e8401528351808403602201815260429093019384905282519416955063e2a4853a9450909282918401908083835b60208310620011c95780518252601f199092019160209182019101620011a8565b5181516020939093036101000a60001901801990911692169190911790526040805191909301819003812063ffffffff871660e060020a028252600482015260248101899052915160448084019550600094509092839003019050818387803b1580156200123657600080fd5b505af11580156200124b573d6000803e3d6000fd5b5050600054604080517f63726f776473616c652e72656d61696e696e6700000000000000000000000000602080830191909152600160a060020a038b8116606060020a0260338401528351808403602701815260479093019384905282519416955063e2a4853a9450909282918401908083835b60208310620012e05780518252601f199092019160209182019101620012bf565b51815160209384036101000a6000190180199092169116179052604080519290940182900382206000547f706c6174666f726d2e6665650000000000000000000000000000000000000000848401528551600c818603018152602c9094019586905283519197506200145196506064956200144495506200143694600160a060020a039092169363a855d4ce9382918401908083835b60208310620013975780518252601f19909201916020918201910162001376565b51815160209384036101000a60001901801990921691161790526040805192909401829003822063ffffffff881660e060020a0283526004830152925160248083019650939450929083900301905081600087803b158015620013f957600080fd5b505af11580156200140e573d6000803e3d6000fd5b505050506040513d60208110156200142557600080fd5b505160649063ffffffff62002aac16565b889063ffffffff62002ac716565b9063ffffffff62002af616565b6040518363ffffffff1660e060020a02815260040180836000191660001916815260200182815260200192505050600060405180830381600087803b1580156200149a57600080fd5b505af1158015620014af573d6000803e3d6000fd5b50600198975050505050505050565b60008054604080517f706c6174666f726d2e70657263656e746167650000000000000000000000000060208083019190915282518083036013018152603390920192839052815185946200161094620015fd94600160a060020a039092169363a855d4ce9382918401908083835b602083106200154d5780518252601f1990920191602091820191016200152c565b51815160209384036101000a60001901801990921691161790526040805192909401829003822063ffffffff881660e060020a0283526004830152925160248083019650939450929083900301905081600087803b158015620015af57600080fd5b505af1158015620015c4573d6000803e3d6000fd5b505050506040513d6020811015620015db57600080fd5b5051620015f060648863ffffffff62002b0c16565b9063ffffffff62002b0c16565b6200144485606463ffffffff62002ac716565b600054604080517f61737365742e6d616e61676572546f6b656e7300000000000000000000000000602080830191909152600160a060020a038d8116606060020a0260338401528351808403602701815260479093019384905282519596509093169363e2a4853a939192918291908401908083835b60208310620016a75780518252601f19909201916020918201910162001686565b6001836020036101000a0380198251168184511680821785525050505050509050019150506040518091039020620016e9878562002b1f90919063ffffffff16565b6040518363ffffffff1660e060020a02815260040180836000191660001916815260200182815260200192505050600060405180830381600087803b1580156200173257600080fd5b505af115801562001747573d6000803e3d6000fd5b5050600054604080517f61737365742e706c6174666f726d546f6b656e73000000000000000000000000602080830191909152600160a060020a038e8116606060020a0260348401528351808403602801815260489093019384905282519416955063e2a4853a9450909282918401908083835b60208310620017dc5780518252601f199092019160209182019101620017bb565b51815160209384036101000a6000190180199092169116179052604080519290940182900382206000547f706c6174666f726d2e70657263656e746167650000000000000000000000000084840152855160138186030181526033909401958690528351919750620019249650600160a060020a03169463a855d4ce9450918291908401908083835b60208310620018865780518252601f19909201916020918201910162001865565b51815160209384036101000a60001901801990921691161790526040805192909401829003822063ffffffff881660e060020a0283526004830152925160248083019650939450929083900301905081600087803b158015620018e857600080fd5b505af1158015620018fd573d6000803e3d6000fd5b505050506040513d60208110156200191457600080fd5b5051859063ffffffff62002b1f16565b6040518363ffffffff1660e060020a02815260040180836000191660001916815260200182815260200192505050600060405180830381600087803b1580156200196d57600080fd5b505af115801562001982573d6000803e3d6000fd5b5050600054604080517f61737365742e6d616e6167657200000000000000000000000000000000000000602080830191909152600160a060020a038e8116606060020a02602d8401528351808403602101815260419093019384905282519416955063ca446dd99450909282918401908083835b6020831062001a175780518252601f199092019160209182019101620019f6565b5181516020939093036101000a60001901801990911692169190911790526040805191909301819003812063ffffffff871660e060020a0282526004820152600160a060020a038c166024820152915160448084019550600094509092839003019050818387803b15801562001a8c57600080fd5b505af115801562001aa1573d6000803e3d6000fd5b5050600054604080517f61737365742e6f70657261746f72000000000000000000000000000000000000602080830191909152600160a060020a038e8116606060020a02602e8401528351808403602201815260429093019384905282519416955063ca446dd99450909282918401908083835b6020831062001b365780518252601f19909201916020918201910162001b15565b6001836020036101000a03801982511681845116808217855250505050505090500191505060405180910390206000809054906101000a9004600160a060020a0316600160a060020a03166304f49a3a8a60405160200180807f6f70657261746f7200000000000000000000000000000000000000000000000081525060080182600019166000191681526020019150506040516020818303038152906040526040518082805190602001908083835b6020831062001c075780518252601f19909201916020918201910162001be6565b51815160209384036101000a60001901801990921691161790526040805192909401829003822063ffffffff881660e060020a0283526004830152925160248083019650939450929083900301905081600087803b15801562001c6957600080fd5b505af115801562001c7e573d6000803e3d6000fd5b505050506040513d602081101562001c9557600080fd5b50516040805160e060020a63ffffffff86160281526004810193909352600160a060020a03909116602483015251604480830192600092919082900301818387803b15801562001ce457600080fd5b505af115801562001cf9573d6000803e3d6000fd5b50506000546040517f61737365742e757269000000000000000000000000000000000000000000000060208083019182528c51600160a060020a03909416955063abfdcced94508c93919260290191908401908083835b6020831062001d715780518252601f19909201916020918201910162001d50565b6001836020036101000a0380198251168184511680821785525050505050509050019150506040516020818303038152906040526040518082805190602001908083835b6020831062001dd65780518252601f19909201916020918201910162001db5565b5181516020939093036101000a60001901801990911692169190911790526040805191909301819003812063ffffffff871660e060020a028252600482015260016024820152915160448084019550600094509092839003019050818387803b15801562001e4357600080fd5b505af115801562001e58573d6000803e3d6000fd5b5060019b9a5050505050505050505050565b6000806000806000806000898b6040516020018083600160a060020a0316600160a060020a0316606060020a02815260140182600160a060020a0316600160a060020a0316606060020a028152601401925050506040516020818303038152906040526040518082805190602001908083835b6020831062001efe5780518252601f19909201916020918201910162001edd565b51815160209384036101000a6000190180199092169116179052604080519290940182900382206000547f706c6174666f726d2e746f6b656e000000000000000000000000000000000000848401528551600e818603018152602e909401958690528351919c50600160a060020a031696506304f49a3a9550919392508291908401908083835b6020831062001fa65780518252601f19909201916020918201910162001f85565b51815160209384036101000a60001901801990921691161790526040805192909401829003822063ffffffff881660e060020a0283526004830152925160248083019650939450929083900301905081600087803b1580156200200857600080fd5b505af11580156200201d573d6000803e3d6000fd5b505050506040513d60208110156200203457600080fd5b50519350600160a060020a0389811690851614620026a557604080517f70a082310000000000000000000000000000000000000000000000000000000081523060048201529051859450600160a060020a038516916370a082319160248083019260209291908290030181600087803b158015620020b157600080fd5b505af1158015620020c6573d6000803e3d6000fd5b505050506040513d6020811015620020dd57600080fd5b50519150600160a060020a03891673eeeeeeeeeeeeeeeeeeeeeeeeeeeeeeeeeeeeeeee1415620021f157600254604080517fcb3c28c7000000000000000000000000000000000000000000000000000000008152600160a060020a038c81166004830152602482018c905287811660448301523060648301527f80000000000000000000000000000000000000000000000000000000000000006084830152600060a4830181905260c48301529151919092169163cb3c28c7918b9160e48082019260209290919082900301818588803b158015620021bb57600080fd5b505af1158015620021d0573d6000803e3d6000fd5b50505050506040513d6020811015620021e857600080fd5b506200242c9050565b50604080517f23b872dd000000000000000000000000000000000000000000000000000000008152600160a060020a038c81166004830152306024830152604482018a905291518a928316916323b872dd9160648083019260209291908290030181600087803b1580156200226557600080fd5b505af11580156200227a573d6000803e3d6000fd5b505050506040513d60208110156200229157600080fd5b505115156200229f57600080fd5b600254604080517f095ea7b3000000000000000000000000000000000000000000000000000000008152600160a060020a039283166004820152602481018b905290519183169163095ea7b3916044808201926020929091908290030181600087803b1580156200230f57600080fd5b505af115801562002324573d6000803e3d6000fd5b505050506040513d60208110156200233b57600080fd5b505115156200234957600080fd5b600254604080517fcb3c28c7000000000000000000000000000000000000000000000000000000008152600160a060020a038c81166004830152602482018c905287811660448301523060648301527f80000000000000000000000000000000000000000000000000000000000000006084830152600060a4830181905260c48301819052925193169263cb3c28c79260e480840193602093929083900390910190829087803b158015620023fd57600080fd5b505af115801562002412573d6000803e3d6000fd5b505050506040513d60208110156200242957600080fd5b50505b604080517f70a082310000000000000000000000000000000000000000000000000000000081523060048201529051620024d0918491600160a060020a038716916370a082319160248083019260209291908290030181600087803b1580156200249557600080fd5b505af1158015620024aa573d6000803e3d6000fd5b505050506040513d6020811015620024c157600080fd5b50519063ffffffff62002b0c16565b600054604080517f636f6e74726163740000000000000000000000000000000000000000000000006020808301919091527f457363726f7752657365727665000000000000000000000000000000000000006028830152825160158184030181526035909201928390528151949a50600160a060020a038089169563a9059cbb95909116936304f49a3a9392909182918401908083835b60208310620025885780518252601f19909201916020918201910162002567565b51815160209384036101000a60001901801990921691161790526040805192909401829003822063ffffffff881660e060020a0283526004830152925160248083019650939450929083900301905081600087803b158015620025ea57600080fd5b505af1158015620025ff573d6000803e3d6000fd5b505050506040513d60208110156200261657600080fd5b50516040805160e060020a63ffffffff8516028152600160a060020a039092166004830152602482018a90525160448083019260209291908290030181600087803b1580156200266557600080fd5b505af11580156200267a573d6000803e3d6000fd5b505050506040513d60208110156200269157600080fd5b505115156200269f57600080fd5b62002894565b87955083600160a060020a03166323b872dd8c6000809054906101000a9004600160a060020a0316600160a060020a03166304f49a3a60405160200180807f636f6e7472616374000000000000000000000000000000000000000000000000815250600801807f457363726f775265736572766500000000000000000000000000000000000000815250600d0190506040516020818303038152906040526040518082805190602001908083835b60208310620027745780518252601f19909201916020918201910162002753565b51815160209384036101000a60001901801990921691161790526040805192909401829003822063ffffffff881660e060020a0283526004830152925160248083019650939450929083900301905081600087803b158015620027d657600080fd5b505af1158015620027eb573d6000803e3d6000fd5b505050506040513d60208110156200280257600080fd5b50516040805160e060020a63ffffffff8616028152600160a060020a039384166004820152929091166024830152604482018a90525160648083019260209291908290030181600087803b1580156200285a57600080fd5b505af11580156200286f573d6000803e3d6000fd5b505050506040513d60208110156200288657600080fd5b505115156200289457600080fd5b600054604080517f61737365742e657363726f770000000000000000000000000000000000000000602080830191909152602c8083018a905283518084039091018152604c909201928390528151600160a060020a039094169363e2a4853a93918291908401908083835b60208310620029205780518252601f199092019160209182019101620028ff565b5181516020939093036101000a60001901801990911692169190911790526040805191909301819003812063ffffffff871660e060020a0282526004820152602481018d9052915160448084019550600094509092839003019050818387803b1580156200298d57600080fd5b505af1158015620029a2573d6000803e3d6000fd5b50505050600160009054906101000a9004600160a060020a0316600160a060020a0316630b94df4c8b878e8a6040518563ffffffff1660e060020a028152600401808060200186600160a060020a0316600160a060020a03168152602001856000191660001916815260200184600160a060020a0316600160a060020a031681526020018381526020018281038252600d8152602001807f457363726f77206c6f636b65640000000000000000000000000000000000000081525060200195505050505050600060405180830381600087803b15801562002a8257600080fd5b505af115801562002a97573d6000803e3d6000fd5b5060019e9d5050505050505050505050505050565b60008282018381101562002abc57fe5b8091505b5092915050565b60008083151562002adc576000915062002ac0565b5082820282848281151562002aed57fe5b041462002abc57fe5b6000818381151562002b0457fe5b049392505050565b60008282111562002b1957fe5b50900390565b600062002b3962002b31848462002ac7565b606462002af6565b9392505050565b6040516118dc8062002b5283390190560060806040523480156200001157600080fd5b50604051620018dc380380620018dc83398101604090815281516020808401519284015191909301805190938491829160129186916200005791600391860190620000d6565b5082516200006d906004906020860190620000d6565b506005805460006002556201000060b060020a03191662010000600160a060020a03938416021760ff191660ff93909316929092179091558316159150620000cd90505760068054600160a060020a031916600160a060020a0383161790555b5050506200017b565b828054600181600116156101000203166002900490600052602060002090601f016020900481019282601f106200011957805160ff191683800117855562000149565b8280016001018555821562000149579182015b82811115620001495782518255916020019190600101906200012c565b50620001579291506200015b565b5090565b6200017891905b8082111562000157576000815560010162000162565b90565b611751806200018b6000396000f30060806040526004361061015e5763ffffffff7c010000000000000000000000000000000000000000000000000000000060003504166305d2035b811461020957806306fdde0314610232578063095ea7b3146102bc57806318160ddd146102e057806323b872dd146103075780632ba1b3a1146103315780632da208e51461034657806330d0e75f1461035b578063313ce567146103725780633bdfa9201461039d5780633ccfd60b146103be57806340c10f19146103d35780634ece90a8146103f757806352ff7fa914610428578063661884631461043357806370a0823114610457578063785e9e86146104785780637d64bcb41461048d57806395d89b41146104a2578063a8fa8e52146104b7578063a9059cbb146104cc578063b5a83d43146104f0578063cae9ca5114610511578063d4a191161461057a578063d73dd6231461058f578063dd62ed3e146105b3578063efcb5dea146105da575b600654600160a060020a03161561017457600080fd5b600854610187903463ffffffff6105fb16565b6008556002546101ce906101bf906101b3346d04ee2d6d415b85acef810000000063ffffffff61061516565b9063ffffffff61064016565b6007549063ffffffff6105fb16565b60075560408051348152905133917fe3166012cb87b3dec8e117fe0e096a47387f94ea2ec12086ed8ae24ff8c237fe919081900360200190a2005b34801561021557600080fd5b5061021e610655565b604080519115158252519081900360200190f35b34801561023e57600080fd5b50610247610663565b6040805160208082528351818301528351919283929083019185019080838360005b83811015610281578181015183820152602001610269565b50505050905090810190601f1680156102ae5780820380516001836020036101000a031916815260200191505b509250505060405180910390f35b3480156102c857600080fd5b5061021e600160a060020a03600435166024356106f1565b3480156102ec57600080fd5b506102f5610745565b60408051918252519081900360200190f35b34801561031357600080fd5b5061021e600160a060020a036004358116906024351660443561074b565b34801561033d57600080fd5b506102f561080c565b34801561035257600080fd5b506102f5610812565b34801561036757600080fd5b50610370610818565b005b34801561037e57600080fd5b5061038761097d565b6040805160ff9092168252519081900360200190f35b3480156103a957600080fd5b506102f5600160a060020a0360043516610986565b3480156103ca57600080fd5b5061021e6109d2565b3480156103df57600080fd5b5061021e600160a060020a0360043516602435610b86565b34801561040357600080fd5b5061040c610c95565b60408051600160a060020a039092168252519081900360200190f35b61021e600435610ca4565b34801561043f57600080fd5b5061021e600160a060020a0360043516602435610ece565b34801561046357600080fd5b506102f5600160a060020a0360043516610fab565b34801561048457600080fd5b5061040c610fc6565b34801561049957600080fd5b5061021e610fd5565b3480156104ae57600080fd5b50610247611020565b3480156104c357600080fd5b506102f561107b565b3480156104d857600080fd5b5061021e600160a060020a0360043516602435611081565b3480156104fc57600080fd5b506102f5600160a060020a036004351661111b565b34801561051d57600080fd5b50604080516020600460443581810135601f810184900484028501840190955284845261021e948235600160a060020a031694602480359536959460649492019190819084018382808284375094975061112d9650505050505050565b34801561058657600080fd5b506102476112e3565b34801561059b57600080fd5b5061021e600160a060020a0360043516602435611379565b3480156105bf57600080fd5b506102f5600160a060020a0360043581169060243516611400565b3480156105e657600080fd5b506102f5600160a060020a036004351661142b565b60008282018381101561060a57fe5b8091505b5092915050565b600080831515610628576000915061060e565b5082820282848281151561063857fe5b041461060a57fe5b6000818381151561064d57fe5b049392505050565b600554610100900460ff1681565b6003805460408051602060026001851615610100026000190190941693909304601f810184900484028201840190925281815292918301828280156106e95780601f106106be576101008083540402835291602001916106e9565b820191906000526020600020905b8154815290600101906020018083116106cc57829003601f168201915b505050505081565b336000818152600160209081526040808320600160a060020a03871680855290835281842086905581518681529151939490939092600080516020611706833981519152928290030190a350600192915050565b60025490565b60008361077f61075a8261143d565b600160a060020a0383166000908152600a60205260409020549063ffffffff6105fb16565b600160a060020a0382166000908152600a6020908152604080832093909355600754600b90915291902055836107b761075a8261143d565b600160a060020a038083166000908152600a6020908152604080832094909455600754600b9091529290209190915585163014156107f457600080fd5b6107ff86868661149f565b5060019695505050505050565b60085481565b60095481565b600080600061083460095460085461161490919063ffffffff16565b600654909350600160a060020a0316151561085257303191506108e7565b600654604080517f70a082310000000000000000000000000000000000000000000000000000000081523060048201529051600160a060020a03909216916370a08231916024808201926020929091908290030181600087803b1580156108b857600080fd5b505af11580156108cc573d6000803e3d6000fd5b505050506040513d60208110156108e257600080fd5b505191505b6108f7828463ffffffff61161416565b905060008111156109455760025461092b906101bf906101b3846d04ee2d6d415b85acef810000000063ffffffff61061516565b600755600854610941908263ffffffff6105fb16565b6008555b6040805182815290517f0d7ab7150531466ac81cc2479d86788246bab0e9cc606a06ec6af5c8ab0d6f8e9181900360200190a1505050565b60055460ff1690565b600160a060020a0381166000908152600a60205260408120546109cc906d04ee2d6d415b85acef8100000000906101b3906109c08661143d565b9063ffffffff6105fb16565b92915050565b600080336109e261075a8261143d565b600160a060020a0382166000908152600a6020818152604080842094909455600754600b825284842055338352522054610a30906d04ee2d6d415b85acef810000000063ffffffff61064016565b336000908152600a6020526040812055600954909250610a56908363ffffffff6105fb16565b600955600654600160a060020a03161515610a9e57604051339083156108fc029084906000818181858888f19350505050158015610a98573d6000803e3d6000fd5b50610b42565b600654604080517fa9059cbb000000000000000000000000000000000000000000000000000000008152336004820152602481018590529051600160a060020a039092169163a9059cbb916044808201926020929091908290030181600087803b158015610b0b57600080fd5b505af1158015610b1f573d6000803e3d6000fd5b505050506040513d6020811015610b3557600080fd5b50511515610b4257600080fd5b604080513381526020810184905281517ff5b510c554f6c572235f7e531ec8f287b350b15c212250b993180473a6aeb7d1929181900390910190a160019250505090565b600554600090610100900460ff16158015610bb15750600554620100009004600160a060020a031633145b1515610bbc57600080fd5b600254610bcf908363ffffffff6105fb16565b600255600160a060020a038316600090815260208190526040902054610bfb908363ffffffff6105fb16565b600160a060020a03841660008181526020818152604091829020939093558051858152905191927f0f6798a560793a54c3bcfe86a93cde1e73087d944c0ea20544137d412139688592918290030190a2604080518381529051600160a060020a038516916000917fddf252ad1be2c89b69c2b068fc378daa952ba7f163c4a11628f55a4df523b3ef9181900360200190a350600192915050565b600654600160a060020a031690565b6000808211610d1457604080517f08c379a000000000000000000000000000000000000000000000000000000000815260206004820152601060248201527f43616e6e6f742073656e64207a65726f00000000000000000000000000000000604482015290519081900360640190fd5b600654600160a060020a03161515610d3757348214610d3257600080fd5b610e4e565b3415610d4257600080fd5b600654604080517f23b872dd000000000000000000000000000000000000000000000000000000008152336004820152306024820152604481018590529051600160a060020a03909216916323b872dd916064808201926020929091908290030181600087803b158015610db557600080fd5b505af1158015610dc9573d6000803e3d6000fd5b505050506040513d6020811015610ddf57600080fd5b50511515610e4e57604080517f08c379a000000000000000000000000000000000000000000000000000000000815260206004820152600f60248201527f5472616e73666572206661696c65640000000000000000000000000000000000604482015290519081900360640190fd5b600854610e61908363ffffffff6105fb16565b600855600254610e8d906101bf906101b3856d04ee2d6d415b85acef810000000063ffffffff61061516565b60075560408051838152905133917fe3166012cb87b3dec8e117fe0e096a47387f94ea2ec12086ed8ae24ff8c237fe919081900360200190a2506001919050565b336000908152600160209081526040808320600160a060020a0386168452909152812054808310610f2257336000908152600160209081526040808320600160a060020a0388168452909152812055610f57565b610f32818463ffffffff61161416565b336000908152600160209081526040808320600160a060020a03891684529091529020555b336000818152600160209081526040808320600160a060020a038916808552908352928190205481519081529051929392600080516020611706833981519152929181900390910190a35060019392505050565b600160a060020a031660009081526020819052604090205490565b600654600160a060020a031681565b600554600090610100900460ff161580156110005750600554620100009004600160a060020a031633145b151561100b57600080fd5b506005805461ff001916610100179055600190565b6004805460408051602060026001851615610100026000190190941693909304601f810184900484028201840190925281815292918301828280156106e95780601f106106be576101008083540402835291602001916106e9565b60075481565b60003361109061075a8261143d565b600160a060020a0382166000908152600a6020908152604080832093909355600754600b90915291902055836110c861075a8261143d565b600160a060020a038083166000908152600a6020908152604080832094909455600754600b90915292902091909155851630141561110557600080fd5b61110f8585611626565b50600195945050505050565b600a6020526000908152604090205481565b60003361113c61075a8261143d565b600160a060020a0382166000908152600a6020908152604080832093909355600754600b909152919020558461117461075a8261143d565b600160a060020a038083166000908152600a6020908152604080832094909455600754600b8252848320553380835260018252848320938b168084529382529184902089905583518981529351929391926000805160206117068339815191529281900390910190a36040517f8f4ffcb10000000000000000000000000000000000000000000000000000000081523360048201818152602483018890523060448401819052608060648501908152885160848601528851600160a060020a038c1695638f4ffcb195948c94938c939192909160a490910190602085019080838360005b83811015611270578181015183820152602001611258565b50505050905090810190601f16801561129d5780820380516001836020036101000a031916815260200191505b5095505050505050600060405180830381600087803b1580156112bf57600080fd5b505af11580156112d3573d6000803e3d6000fd5b5060019998505050505050505050565b60038054604080516020601f600260001961010060018816150201909516949094049384018190048102820181019092528281526060939092909183018282801561136f5780601f106113445761010080835404028352916020019161136f565b820191906000526020600020905b81548152906001019060200180831161135257829003601f168201915b5050505050905090565b336000908152600160209081526040808320600160a060020a03861684529091528120546113ad908363ffffffff6105fb16565b336000818152600160209081526040808320600160a060020a038916808552908352928190208590558051948552519193600080516020611706833981519152929081900390910190a350600192915050565b600160a060020a03918216600090815260016020908152604080832093909416825291909152205490565b600b6020526000908152604090205481565b600160a060020a0381166000908152600b6020526040812054600754829161146b919063ffffffff61161416565b600160a060020a03841660009081526020819052604090205490915061149890829063ffffffff61061516565b9392505050565b600160a060020a0383166000908152602081905260408120548211156114c457600080fd5b600160a060020a03841660009081526001602090815260408083203384529091529020548211156114f457600080fd5b600160a060020a038316151561150957600080fd5b600160a060020a038416600090815260208190526040902054611532908363ffffffff61161416565b600160a060020a038086166000908152602081905260408082209390935590851681522054611567908363ffffffff6105fb16565b600160a060020a038085166000908152602081815260408083209490945591871681526001825282812033825290915220546115a9908363ffffffff61161416565b600160a060020a03808616600081815260016020908152604080832033845282529182902094909455805186815290519287169391927fddf252ad1be2c89b69c2b068fc378daa952ba7f163c4a11628f55a4df523b3ef929181900390910190a35060019392505050565b60008282111561162057fe5b50900390565b3360009081526020819052604081205482111561164257600080fd5b600160a060020a038316151561165757600080fd5b33600090815260208190526040902054611677908363ffffffff61161416565b3360009081526020819052604080822092909255600160a060020a038516815220546116a9908363ffffffff6105fb16565b600160a060020a038416600081815260208181526040918290209390935580518581529051919233927fddf252ad1be2c89b69c2b068fc378daa952ba7f163c4a11628f55a4df523b3ef9281900390910190a35060019291505056008c5be1e5ebec7d5bd14f71427d1e84f3dd0314c0f7b2291e5b200ac8c7c3b925a165627a7a72305820edd1b0fc042d3a2dbc384ed1a94bfdb37168a8042a11e83c44e1ebdbcb26778a0029a165627a7a72305820fd40837983398f8fafbf619396f16096d7e3ee010ab447a7630322db7aea14600029",
  "source": "pragma solidity ^0.4.24;\n\nimport \"../math/SafeMath.sol\";\nimport \"../interfaces/DBInterface.sol\";\nimport \"../database/Events.sol\";\nimport \"../tokens/erc20/DividendToken.sol\";\nimport \"../interfaces/KyberInterface.sol\";\n\ninterface CrowdsaleGeneratorETH_ERC20 {\n  function balanceOf(address _who) external view returns (uint256);\n  function approve(address _spender, uint256 _value) external returns (bool);\n  function transfer(address _to, uint256 _value) external returns (bool);\n  function transferFrom(address _from, address _to, uint256 _value) external returns (bool);\n}\n\n// @title A crowdsale generator contract\n// @author Kyle Dewhurst, MyBit Foundation\n// @notice AssetManagers can initiate a crowdsale that accepts Ether as payment here\ncontract CrowdsaleGeneratorETH {\n  using SafeMath for uint256;\n\n  DBInterface public database;\n  Events public events;\n  KyberInterface private kyber;\n\n  //uint constant scalingFactor = 1e32;   // Used to avoid rounding errors\n\n  // @notice This contract\n  // @param: The address for the database contract used by this platform\n  constructor(address _database, address _events, address _kyber)\n  public{\n      database = DBInterface(_database);\n      events = Events(_events);\n      kyber = KyberInterface(_kyber);\n  }\n\n  // @notice AssetManagers can initiate a crowdfund for a new asset here\n  // @dev the crowdsaleETH contract is granted rights to mint asset-tokens as it receives funding\n  // @param (string) _assetURI = The location where information about the asset can be found\n  // @param (bytes32) _operatorID = The ID of the operator who is to create and install this asset\n  // @param (uint) _fundingLength = The number of seconds this crowdsale is to go on for until it fails\n  // @param (uint) _amountToRaise = The amount of WEI required to raise for the crowdsale to be a success\n  // @param (uint) _assetManagerPerc = The percentage of the total revenue which is to go to the AssetManager if asset is a success\n  function createAssetOrderETH(string _assetURI, address _assetManager, bytes32 _operatorID, uint _fundingLength, uint _startTime, uint _amountToRaise, uint _assetManagerPerc, uint _escrow, address _paymentToken)\n  external\n  payable\n  returns (bool) {\n    if(_paymentToken == address(0xEeeeeEeeeEeEeeEeEeEeeEEEeeeeEeeeeeeeEEeE)){\n      require(msg.value == _escrow);\n    } else {\n      require(msg.value == 0);\n    }\n    require(msg.sender == _assetManager || database.boolStorage(keccak256(abi.encodePacked(\"approval\", _assetManager, msg.sender, address(this), msg.sig))), \"User not approved\");\n    require(_amountToRaise >= 100, \"Crowdsale goal is too small\");\n    require(_assetManagerPerc < 100, \"Manager percent need to be less than 100\");\n    require(database.boolStorage(keccak256(abi.encodePacked(\"operator.acceptsEther\", _operatorID))), \"Operator does not accept Ether\");\n    require(database.addressStorage(keccak256(abi.encodePacked(\"operator\", _operatorID))) != address(0), \"Operator does not exist\");\n    require(!database.boolStorage(keccak256(abi.encodePacked(\"asset.uri\", _assetURI))), \"Asset URI is not unique\"); //Check that asset URI is unique\n    uint startTime;\n    if(_startTime < now){\n      startTime = now;\n    } else {\n      startTime = _startTime;\n    }\n    address assetAddress = address(new DividendToken(_assetURI, database.addressStorage(keccak256(abi.encodePacked(\"contract\", \"Minter\"))), address(0)));   // Gives this contract all new asset tokens\n    require(setCrowdsaleValues(assetAddress, startTime, _fundingLength, _amountToRaise));\n    require(setAssetValues(assetAddress, _assetURI, _operatorID, _assetManager, _assetManagerPerc, _amountToRaise));\n    //If escrow, lock\n    if(_escrow > 0){ require(lockEscrowInternal(_assetManager, assetAddress, _paymentToken, _escrow));}\n    events.asset('Asset funding started', _assetURI, assetAddress, _assetManager);\n    return true;\n  }\n\n  // @notice platform owners can destroy contract here\n  function destroy()\n  onlyOwner\n  external {\n    events.transaction('CrowdsaleGeneratorETH destroyed', address(this), msg.sender, address(this).balance, address(0));\n    selfdestruct(msg.sender);\n  }\n\n  //////////////////////////////////////////////////////////////////////////////////////////////////////////////////\n  //                                            Internal/ Private Functions\n  //////////////////////////////////////////////////////////////////////////////////////////////////////////////////\n\n  function setCrowdsaleValues(address _assetAddress, uint _startTime, uint _fundingLength, uint _amountToRaise)\n  private\n  returns (bool){\n    database.setUint(keccak256(abi.encodePacked(\"crowdsale.start\", _assetAddress)), _startTime);\n    database.setUint(keccak256(abi.encodePacked(\"crowdsale.deadline\", _assetAddress)), _startTime.add(_fundingLength));\n    database.setUint(keccak256(abi.encodePacked(\"crowdsale.goal\", _assetAddress)), _amountToRaise);\n    database.setUint(keccak256(abi.encodePacked(\"crowdsale.remaining\", _assetAddress)), _amountToRaise.mul(uint(100).add(database.uintStorage(keccak256(abi.encodePacked(\"platform.fee\"))))).div(100));\n    return true;\n  }\n\n  function setAssetValues(address _assetAddress, string _assetURI, bytes32 _operatorID, address _assetManager, uint _assetManagerPerc, uint _amountToRaise)\n  private\n  returns (bool){\n    uint totalTokens = _amountToRaise.mul(100).div(uint(100).sub(_assetManagerPerc).sub(database.uintStorage(keccak256(abi.encodePacked(\"platform.percentage\")))));\n    //database.setUint(keccak256(abi.encodePacked(\"asset.managerTokens\", assetAddress)), _amountToRaise.mul(uint(100).mul(scalingFactor).div(uint(100).sub(_assetManagerPerc)).sub(scalingFactor)).div(scalingFactor));\n    database.setUint(keccak256(abi.encodePacked(\"asset.managerTokens\", _assetAddress)), totalTokens.getFractionalAmount(_assetManagerPerc));\n    database.setUint(keccak256(abi.encodePacked(\"asset.platformTokens\", _assetAddress)), totalTokens.getFractionalAmount(database.uintStorage(keccak256(abi.encodePacked(\"platform.percentage\")))));\n    database.setAddress(keccak256(abi.encodePacked(\"asset.manager\", _assetAddress)), _assetManager);\n    database.setAddress(keccak256(abi.encodePacked(\"asset.operator\", _assetAddress)), database.addressStorage(keccak256(abi.encodePacked(\"operator\", _operatorID))));\n    database.setBool(keccak256(abi.encodePacked(\"asset.uri\", _assetURI)), true); //Set to ensure a unique asset URI\n    return true;\n  }\n\n  function lockEscrowInternal(address _assetManager, address _assetAddress, address _paymentTokenAddress, uint _amount)\n  private\n  returns (bool) {\n    uint amount;\n    bytes32 assetManagerEscrowID = keccak256(abi.encodePacked(_assetAddress, _assetManager));\n    address platformTokenAddress = database.addressStorage(keccak256(abi.encodePacked(\"platform.token\")));\n    if(_paymentTokenAddress != platformTokenAddress){\n      //Setup platform token and get current balance for comparison\n      CrowdsaleGeneratorETH_ERC20 platformToken = CrowdsaleGeneratorETH_ERC20(platformTokenAddress);\n      uint balanceBefore = platformToken.balanceOf(this);\n      //Convert the payment token into the platform token\n      if(_paymentTokenAddress == address(0xEeeeeEeeeEeEeeEeEeEeeEEEeeeeEeeeeeeeEEeE)){\n        kyber.trade.value(_amount)(_paymentTokenAddress, _amount, platformTokenAddress, address(this), 2**255, 0, 0); //Currently no minimum rate is set, so watch out for slippage!\n      } else {\n        CrowdsaleGeneratorETH_ERC20 paymentToken = CrowdsaleGeneratorETH_ERC20(_paymentTokenAddress);\n        require(paymentToken.transferFrom(_assetManager, address(this), _amount));\n        require(paymentToken.approve(address(kyber), _amount));\n        kyber.trade(_paymentTokenAddress, _amount, platformTokenAddress, address(this), 2**255, 0, 0); //Currently no minimum rate is set, so watch out for slippage!\n      }\n      amount = platformToken.balanceOf(this).sub(balanceBefore);\n      require(platformToken.transfer(database.addressStorage(keccak256(abi.encodePacked(\"contract\", \"EscrowReserve\"))), amount));\n    } else {\n      amount = _amount;\n      require(CrowdsaleGeneratorETH_ERC20(platformTokenAddress).transferFrom(_assetManager, database.addressStorage(keccak256(abi.encodePacked(\"contract\", \"EscrowReserve\"))), amount));\n    }\n    database.setUint(keccak256(abi.encodePacked(\"asset.escrow\", assetManagerEscrowID)), amount);\n    events.escrow('Escrow locked', _assetAddress, assetManagerEscrowID, _assetManager, amount);\n    return true;\n  }\n\n  //////////////////////////////////////////////////////////////////////////////////////////////////////////////////\n  //                                            Modifiers\n  //////////////////////////////////////////////////////////////////////////////////////////////////////////////////\n\n\n  // // @notice reverts if asset manager is unable to burn pp\n  // modifier burnRequired {\n  //   //emit LogSig(msg.sig);\n  //   require(burner.burn(msg.sender, database.uintStorage(keccak256(abi.encodePacked(msg.sig, address(this))))));\n  //   _;\n  // }\n\n  // @notice Sender must be a registered owner\n  modifier onlyOwner {\n    require(database.boolStorage(keccak256(abi.encodePacked(\"owner\", msg.sender))), \"Not owner\");\n    _;\n  }\n\n  //////////////////////////////////////////////////////////////////////////////////////////////////////////////////\n  //                                            Events\n  //////////////////////////////////////////////////////////////////////////////////////////////////////////////////\n\n  //event LogAssetFundingStarted(bytes32 indexed _assetID, address indexed _assetManager, string _assetURI, address indexed _tokenAddress);\n  //event LogSig(bytes4 _sig);\n\n}\n",
  "sourcePath": "/home/peter/Documents/Work/MyBit/MyBit-Network.tech/contracts/crowdsale/CrowdsaleGeneratorETH.sol",
  "compiler": {
    "name": "solc",
    "version": "0.4.24+commit.e67f0147.Emscripten.clang"
  },
  "schemaVersion": "3.0.2",
  "updatedAt": "2019-04-08T20:56:10.454Z",
  "devdoc": {
    "methods": {}
  },
  "userdoc": {
    "methods": {}
  }
}