{
  "contractName": "CrowdsaleETH",
  "abi": [
    {
      "constant": true,
      "inputs": [],
      "name": "database",
      "outputs": [
        {
          "name": "",
          "type": "address"
        }
      ],
      "payable": false,
      "stateMutability": "view",
      "type": "function"
    },
    {
      "inputs": [
        {
          "name": "_database",
          "type": "address"
        }
      ],
      "payable": false,
      "stateMutability": "nonpayable",
      "type": "constructor"
    },
    {
      "payable": true,
      "stateMutability": "payable",
      "type": "fallback"
    },
    {
      "anonymous": false,
      "inputs": [
        {
          "indexed": true,
          "name": "_assetID",
          "type": "bytes32"
        },
        {
          "indexed": true,
          "name": "_sender",
          "type": "address"
        },
        {
          "indexed": false,
          "name": "_amount",
          "type": "uint256"
        }
      ],
      "name": "LogAssetPurchased",
      "type": "event"
    },
    {
      "anonymous": false,
      "inputs": [
        {
          "indexed": true,
          "name": "_assetID",
          "type": "bytes32"
        },
        {
          "indexed": true,
          "name": "_funder",
          "type": "address"
        },
        {
          "indexed": false,
          "name": "_amount",
          "type": "uint256"
        }
      ],
      "name": "LogRefund",
      "type": "event"
    },
    {
      "anonymous": false,
      "inputs": [
        {
          "indexed": true,
          "name": "_assetID",
          "type": "bytes32"
        },
        {
          "indexed": true,
          "name": "_distributionContract",
          "type": "address"
        },
        {
          "indexed": false,
          "name": "_amount",
          "type": "uint256"
        }
      ],
      "name": "LogAssetPayout",
      "type": "event"
    },
    {
      "anonymous": false,
      "inputs": [
        {
          "indexed": false,
          "name": "_amountSent",
          "type": "uint256"
        },
        {
          "indexed": true,
          "name": "_caller",
          "type": "address"
        }
      ],
      "name": "LogDestruction",
      "type": "event"
    },
    {
      "constant": false,
      "inputs": [
        {
          "name": "_assetID",
          "type": "bytes32"
        }
      ],
      "name": "buyAssetOrderETH",
      "outputs": [
        {
          "name": "",
          "type": "bool"
        }
      ],
      "payable": true,
      "stateMutability": "payable",
      "type": "function"
    },
    {
      "constant": false,
      "inputs": [
        {
          "name": "_assetID",
          "type": "bytes32"
        }
      ],
      "name": "refund",
      "outputs": [
        {
          "name": "",
          "type": "bool"
        }
      ],
      "payable": false,
      "stateMutability": "nonpayable",
      "type": "function"
    },
    {
      "constant": false,
      "inputs": [
        {
          "name": "_erc20Token",
          "type": "address"
        }
      ],
      "name": "recoverTokens",
      "outputs": [],
      "payable": false,
      "stateMutability": "nonpayable",
      "type": "function"
    },
    {
      "constant": false,
      "inputs": [],
      "name": "destroy",
      "outputs": [],
      "payable": false,
      "stateMutability": "nonpayable",
      "type": "function"
    }
  ],
  "bytecode": "0x60806040523480156200001157600080fd5b506040516020806200343a83398101806040528101908080519060200190929190505050806000806101000a81548173ffffffffffffffffffffffffffffffffffffffff021916908373ffffffffffffffffffffffffffffffffffffffff1602179055506000809054906101000a900473ffffffffffffffffffffffffffffffffffffffff1673ffffffffffffffffffffffffffffffffffffffff166304f49a3a60405160200180807f636f6e7472616374000000000000000000000000000000000000000000000000815250600801807f45524332304275726e6572000000000000000000000000000000000000000000815250600b0190506040516020818303038152906040526040518082805190602001908083835b6020831015156200015157805182526020820191506020810190506020830392506200012a565b6001836020036101000a03801982511681845116808217855250505050505090500191505060405180910390206040518263ffffffff167c0100000000000000000000000000000000000000000000000000000000028152600401808260001916600019168152602001915050602060405180830381600087803b158015620001d957600080fd5b505af1158015620001ee573d6000803e3d6000fd5b505050506040513d60208110156200020557600080fd5b8101908080519060200190929190505050600160006101000a81548173ffffffffffffffffffffffffffffffffffffffff021916908373ffffffffffffffffffffffffffffffffffffffff160217905550506131d380620002676000396000f30060806040526004361061006d576000357c0100000000000000000000000000000000000000000000000000000000900463ffffffff16806316114acd14610072578063713b563f146100b55780637249fbb61461010c57806383197ef014610155578063a71d4c6a1461016c575b600080fd5b34801561007e57600080fd5b506100b3600480360381019080803573ffffffffffffffffffffffffffffffffffffffff1690602001909291905050506101a8565b005b3480156100c157600080fd5b506100ca61052c565b604051808273ffffffffffffffffffffffffffffffffffffffff1673ffffffffffffffffffffffffffffffffffffffff16815260200191505060405180910390f35b34801561011857600080fd5b5061013b6004803603810190808035600019169060200190929190505050610551565b604051808215151515815260200191505060405180910390f35b34801561016157600080fd5b5061016a611303565b005b61018e6004803603810190808035600019169060200190929190505050611543565b604051808215151515815260200191505060405180910390f35b6000806000809054906101000a900473ffffffffffffffffffffffffffffffffffffffff1673ffffffffffffffffffffffffffffffffffffffff16633b7bfda03360405160200180807f6f776e65720000000000000000000000000000000000000000000000000000008152506005018273ffffffffffffffffffffffffffffffffffffffff1673ffffffffffffffffffffffffffffffffffffffff166c010000000000000000000000000281526014019150506040516020818303038152906040526040518082805190602001908083835b6020831015156102a0578051825260208201915060208101905060208303925061027b565b6001836020036101000a03801982511681845116808217855250505050505090500191505060405180910390206040518263ffffffff167c0100000000000000000000000000000000000000000000000000000000028152600401808260001916600019168152602001915050602060405180830381600087803b15801561032757600080fd5b505af115801561033b573d6000803e3d6000fd5b505050506040513d602081101561035157600080fd5b8101908080519060200190929190505050151561036d57600080fd5b8291508173ffffffffffffffffffffffffffffffffffffffff166370a08231306040518263ffffffff167c0100000000000000000000000000000000000000000000000000000000028152600401808273ffffffffffffffffffffffffffffffffffffffff1673ffffffffffffffffffffffffffffffffffffffff168152602001915050602060405180830381600087803b15801561040b57600080fd5b505af115801561041f573d6000803e3d6000fd5b505050506040513d602081101561043557600080fd5b810190808051906020019092919050505090508173ffffffffffffffffffffffffffffffffffffffff1663a9059cbb33836040518363ffffffff167c0100000000000000000000000000000000000000000000000000000000028152600401808373ffffffffffffffffffffffffffffffffffffffff1673ffffffffffffffffffffffffffffffffffffffff16815260200182815260200192505050602060405180830381600087803b1580156104eb57600080fd5b505af11580156104ff573d6000803e3d6000fd5b505050506040513d602081101561051557600080fd5b810190808051906020019092919050505050505050565b6000809054906101000a900473ffffffffffffffffffffffffffffffffffffffff1681565b60008060008060009054906101000a900473ffffffffffffffffffffffffffffffffffffffff1673ffffffffffffffffffffffffffffffffffffffff16633b7bfda03060405160200180807f70617573656400000000000000000000000000000000000000000000000000008152506006018273ffffffffffffffffffffffffffffffffffffffff1673ffffffffffffffffffffffffffffffffffffffff166c010000000000000000000000000281526014019150506040516020818303038152906040526040518082805190602001908083835b60208310151561064b5780518252602082019150602081019050602083039250610626565b6001836020036101000a03801982511681845116808217855250505050505090500191505060405180910390206040518263ffffffff167c0100000000000000000000000000000000000000000000000000000000028152600401808260001916600019168152602001915050602060405180830381600087803b1580156106d257600080fd5b505af11580156106e6573d6000803e3d6000fd5b505050506040513d60208110156106fc57600080fd5b810190808051906020019092919050505015151561071957600080fd5b83600073ffffffffffffffffffffffffffffffffffffffff166000809054906101000a900473ffffffffffffffffffffffffffffffffffffffff1673ffffffffffffffffffffffffffffffffffffffff166304f49a3a8360405160200180807f746f6b656e416464726573730000000000000000000000000000000000000000815250600c0182600019166000191681526020019150506040516020818303038152906040526040518082805190602001908083835b6020831015156107f457805182526020820191506020810190506020830392506107cf565b6001836020036101000a03801982511681845116808217855250505050505090500191505060405180910390206040518263ffffffff167c0100000000000000000000000000000000000000000000000000000000028152600401808260001916600019168152602001915050602060405180830381600087803b15801561087b57600080fd5b505af115801561088f573d6000803e3d6000fd5b505050506040513d60208110156108a557600080fd5b810190808051906020019092919050505073ffffffffffffffffffffffffffffffffffffffff16141515156108d957600080fd5b846000809054906101000a900473ffffffffffffffffffffffffffffffffffffffff1673ffffffffffffffffffffffffffffffffffffffff1663a855d4ce8260405160200180807f66756e64696e67446561646c696e650000000000000000000000000000000000815250600f0182600019166000191681526020019150506040516020818303038152906040526040518082805190602001908083835b60208310151561099c5780518252602082019150602081019050602083039250610977565b6001836020036101000a03801982511681845116808217855250505050505090500191505060405180910390206040518263ffffffff167c0100000000000000000000000000000000000000000000000000000000028152600401808260001916600019168152602001915050602060405180830381600087803b158015610a2357600080fd5b505af1158015610a37573d6000803e3d6000fd5b505050506040513d6020811015610a4d57600080fd5b810190808051906020019092919050505042111515610a6b57600080fd5b856000809054906101000a900473ffffffffffffffffffffffffffffffffffffffff1673ffffffffffffffffffffffffffffffffffffffff16633b7bfda08260405160200180807f63726f776473616c6546696e616c697a6564000000000000000000000000000081525060120182600019166000191681526020019150506040516020818303038152906040526040518082805190602001908083835b602083101515610b2e5780518252602082019150602081019050602083039250610b09565b6001836020036101000a03801982511681845116808217855250505050505090500191505060405180910390206040518263ffffffff167c0100000000000000000000000000000000000000000000000000000000028152600401808260001916600019168152602001915050602060405180830381600087803b158015610bb557600080fd5b505af1158015610bc9573d6000803e3d6000fd5b505050506040513d6020811015610bdf57600080fd5b8101908080519060200190929190505050151515610bfc57600080fd5b60008060009054906101000a900473ffffffffffffffffffffffffffffffffffffffff1673ffffffffffffffffffffffffffffffffffffffff1663a855d4ce8960405160200180807f66756e64696e67446561646c696e650000000000000000000000000000000000815250600f0182600019166000191681526020019150506040516020818303038152906040526040518082805190602001908083835b602083101515610cc05780518252602082019150602081019050602083039250610c9b565b6001836020036101000a03801982511681845116808217855250505050505090500191505060405180910390206040518263ffffffff167c0100000000000000000000000000000000000000000000000000000000028152600401808260001916600019168152602001915050602060405180830381600087803b158015610d4757600080fd5b505af1158015610d5b573d6000803e3d6000fd5b505050506040513d6020811015610d7157600080fd5b810190808051906020019092919050505014151515610d8f57600080fd5b6000809054906101000a900473ffffffffffffffffffffffffffffffffffffffff1673ffffffffffffffffffffffffffffffffffffffff1663e2b202bf8860405160200180807f66756e64696e67446561646c696e650000000000000000000000000000000000815250600f0182600019166000191681526020019150506040516020818303038152906040526040518082805190602001908083835b602083101515610e515780518252602082019150602081019050602083039250610e2c565b6001836020036101000a03801982511681845116808217855250505050505090500191505060405180910390206040518263ffffffff167c0100000000000000000000000000000000000000000000000000000000028152600401808260001916600019168152602001915050600060405180830381600087803b158015610ed857600080fd5b505af1158015610eec573d6000803e3d6000fd5b505050506000809054906101000a900473ffffffffffffffffffffffffffffffffffffffff1673ffffffffffffffffffffffffffffffffffffffff1663e2b202bf8860405160200180807f696e766573746f72537570706c79000000000000000000000000000000000000815250600e0182600019166000191681526020019150506040516020818303038152906040526040518082805190602001908083835b602083101515610fb25780518252602082019150602081019050602083039250610f8d565b6001836020036101000a03801982511681845116808217855250505050505090500191505060405180910390206040518263ffffffff167c0100000000000000000000000000000000000000000000000000000000028152600401808260001916600019168152602001915050600060405180830381600087803b15801561103957600080fd5b505af115801561104d573d6000803e3d6000fd5b505050506000809054906101000a900473ffffffffffffffffffffffffffffffffffffffff1673ffffffffffffffffffffffffffffffffffffffff166304f49a3a8860405160200180807f746f6b656e416464726573730000000000000000000000000000000000000000815250600c0182600019166000191681526020019150506040516020818303038152906040526040518082805190602001908083835b60208310151561111357805182526020820191506020810190506020830392506110ee565b6001836020036101000a03801982511681845116808217855250505050505090500191505060405180910390206040518263ffffffff167c0100000000000000000000000000000000000000000000000000000000028152600401808260001916600019168152602001915050602060405180830381600087803b15801561119a57600080fd5b505af11580156111ae573d6000803e3d6000fd5b505050506040513d60208110156111c457600080fd5b810190808051906020019092919050505094508473ffffffffffffffffffffffffffffffffffffffff166318160ddd6040518163ffffffff167c0100000000000000000000000000000000000000000000000000000000028152600401602060405180830381600087803b15801561123b57600080fd5b505af115801561124f573d6000803e3d6000fd5b505050506040513d602081101561126557600080fd5b810190808051906020019092919050505093508473ffffffffffffffffffffffffffffffffffffffff1663eba74e5c856040518263ffffffff167c01000000000000000000000000000000000000000000000000000000000281526004016000604051808303818588803b1580156112dc57600080fd5b505af11580156112f0573d6000803e3d6000fd5b5050505050600195505050505050919050565b6000809054906101000a900473ffffffffffffffffffffffffffffffffffffffff1673ffffffffffffffffffffffffffffffffffffffff16633b7bfda03360405160200180807f6f776e65720000000000000000000000000000000000000000000000000000008152506005018273ffffffffffffffffffffffffffffffffffffffff1673ffffffffffffffffffffffffffffffffffffffff166c010000000000000000000000000281526014019150506040516020818303038152906040526040518082805190602001908083835b6020831015156113f857805182526020820191506020810190506020830392506113d3565b6001836020036101000a03801982511681845116808217855250505050505090500191505060405180910390206040518263ffffffff167c0100000000000000000000000000000000000000000000000000000000028152600401808260001916600019168152602001915050602060405180830381600087803b15801561147f57600080fd5b505af1158015611493573d6000803e3d6000fd5b505050506040513d60208110156114a957600080fd5b810190808051906020019092919050505015156114c557600080fd5b3373ffffffffffffffffffffffffffffffffffffffff167f62a91a9a510cd5e7b0339f181bd27ac473283c39544a34798c376d6197b3572c3073ffffffffffffffffffffffffffffffffffffffff16316040518082815260200191505060405180910390a23373ffffffffffffffffffffffffffffffffffffffff16ff5b60008060008060003411151561155857600080fd5b84600073ffffffffffffffffffffffffffffffffffffffff166000809054906101000a900473ffffffffffffffffffffffffffffffffffffffff1673ffffffffffffffffffffffffffffffffffffffff166304f49a3a8360405160200180807f746f6b656e416464726573730000000000000000000000000000000000000000815250600c0182600019166000191681526020019150506040516020818303038152906040526040518082805190602001908083835b602083101515611633578051825260208201915060208101905060208303925061160e565b6001836020036101000a03801982511681845116808217855250505050505090500191505060405180910390206040518263ffffffff167c0100000000000000000000000000000000000000000000000000000000028152600401808260001916600019168152602001915050602060405180830381600087803b1580156116ba57600080fd5b505af11580156116ce573d6000803e3d6000fd5b505050506040513d60208110156116e457600080fd5b810190808051906020019092919050505073ffffffffffffffffffffffffffffffffffffffff161415151561171857600080fd5b856000809054906101000a900473ffffffffffffffffffffffffffffffffffffffff1673ffffffffffffffffffffffffffffffffffffffff1663a855d4ce8260405160200180807f66756e64696e67446561646c696e650000000000000000000000000000000000815250600f0182600019166000191681526020019150506040516020818303038152906040526040518082805190602001908083835b6020831015156117db57805182526020820191506020810190506020830392506117b6565b6001836020036101000a03801982511681845116808217855250505050505090500191505060405180910390206040518263ffffffff167c0100000000000000000000000000000000000000000000000000000000028152600401808260001916600019168152602001915050602060405180830381600087803b15801561186257600080fd5b505af1158015611876573d6000803e3d6000fd5b505050506040513d602081101561188c57600080fd5b810190808051906020019092919050505042111515156118ab57600080fd5b866000809054906101000a900473ffffffffffffffffffffffffffffffffffffffff1673ffffffffffffffffffffffffffffffffffffffff16633b7bfda08260405160200180807f63726f776473616c6546696e616c697a6564000000000000000000000000000081525060120182600019166000191681526020019150506040516020818303038152906040526040518082805190602001908083835b60208310151561196e5780518252602082019150602081019050602083039250611949565b6001836020036101000a03801982511681845116808217855250505050505090500191505060405180910390206040518263ffffffff167c0100000000000000000000000000000000000000000000000000000000028152600401808260001916600019168152602001915050602060405180830381600087803b1580156119f557600080fd5b505af1158015611a09573d6000803e3d6000fd5b505050506040513d6020811015611a1f57600080fd5b8101908080519060200190929190505050151515611a3c57600080fd5b600160009054906101000a900473ffffffffffffffffffffffffffffffffffffffff1673ffffffffffffffffffffffffffffffffffffffff16639dc29fac336000809054906101000a900473ffffffffffffffffffffffffffffffffffffffff1673ffffffffffffffffffffffffffffffffffffffff1663a855d4ce6000357fffffffff00000000000000000000000000000000000000000000000000000000163060405160200180837bffffffffffffffffffffffffffffffffffffffffffffffffffffffff19167bffffffffffffffffffffffffffffffffffffffffffffffffffffffff191681526004018273ffffffffffffffffffffffffffffffffffffffff1673ffffffffffffffffffffffffffffffffffffffff166c01000000000000000000000000028152601401925050506040516020818303038152906040526040518082805190602001908083835b602083101515611bb25780518252602082019150602081019050602083039250611b8d565b6001836020036101000a03801982511681845116808217855250505050505090500191505060405180910390206040518263ffffffff167c0100000000000000000000000000000000000000000000000000000000028152600401808260001916600019168152602001915050602060405180830381600087803b158015611c3957600080fd5b505af1158015611c4d573d6000803e3d6000fd5b505050506040513d6020811015611c6357600080fd5b81019080805190602001909291905050506040518363ffffffff167c0100000000000000000000000000000000000000000000000000000000028152600401808373ffffffffffffffffffffffffffffffffffffffff1673ffffffffffffffffffffffffffffffffffffffff16815260200182815260200192505050602060405180830381600087803b158015611cf957600080fd5b505af1158015611d0d573d6000803e3d6000fd5b505050506040513d6020811015611d2357600080fd5b81019080805190602001909291905050501515611d3f57600080fd5b6000809054906101000a900473ffffffffffffffffffffffffffffffffffffffff1673ffffffffffffffffffffffffffffffffffffffff166304f49a3a8960405160200180807f746f6b656e416464726573730000000000000000000000000000000000000000815250600c0182600019166000191681526020019150506040516020818303038152906040526040518082805190602001908083835b602083101515611e015780518252602082019150602081019050602083039250611ddc565b6001836020036101000a03801982511681845116808217855250505050505090500191505060405180910390206040518263ffffffff167c0100000000000000000000000000000000000000000000000000000000028152600401808260001916600019168152602001915050602060405180830381600087803b158015611e8857600080fd5b505af1158015611e9c573d6000803e3d6000fd5b505050506040513d6020811015611eb257600080fd5b810190808051906020019092919050505095506000809054906101000a900473ffffffffffffffffffffffffffffffffffffffff1673ffffffffffffffffffffffffffffffffffffffff1663a855d4ce8960405160200180807f616d6f756e74546f526169736500000000000000000000000000000000000000815250600d0182600019166000191681526020019150506040516020818303038152906040526040518082805190602001908083835b602083101515611f875780518252602082019150602081019050602083039250611f62565b6001836020036101000a03801982511681845116808217855250505050505090500191505060405180910390206040518263ffffffff167c0100000000000000000000000000000000000000000000000000000000028152600401808260001916600019168152602001915050602060405180830381600087803b15801561200e57600080fd5b505af1158015612022573d6000803e3d6000fd5b505050506040513d602081101561203857600080fd5b810190808051906020019092919050505094506120fc8673ffffffffffffffffffffffffffffffffffffffff166318160ddd6040518163ffffffff167c0100000000000000000000000000000000000000000000000000000000028152600401602060405180830381600087803b1580156120b257600080fd5b505af11580156120c6573d6000803e3d6000fd5b505050506040513d60208110156120dc57600080fd5b81019080805190602001909291905050508661285c90919063ffffffff16565b935083341015156127105761211088612875565b151561211b57600080fd5b8573ffffffffffffffffffffffffffffffffffffffff166340c10f196000809054906101000a900473ffffffffffffffffffffffffffffffffffffffff1673ffffffffffffffffffffffffffffffffffffffff166304f49a3a8b60405160200180807f61737365744d616e616765720000000000000000000000000000000000000000815250600c0182600019166000191681526020019150506040516020818303038152906040526040518082805190602001908083835b6020831015156121f957805182526020820191506020810190506020830392506121d4565b6001836020036101000a03801982511681845116808217855250505050505090500191505060405180910390206040518263ffffffff167c0100000000000000000000000000000000000000000000000000000000028152600401808260001916600019168152602001915050602060405180830381600087803b15801561228057600080fd5b505af1158015612294573d6000803e3d6000fd5b505050506040513d60208110156122aa57600080fd5b81019080805190602001909291905050506000809054906101000a900473ffffffffffffffffffffffffffffffffffffffff1673ffffffffffffffffffffffffffffffffffffffff1663a855d4ce8c60405160200180807f61737365744d616e616765724665650000000000000000000000000000000000815250600f0182600019166000191681526020019150506040516020818303038152906040526040518082805190602001908083835b60208310151561237d5780518252602082019150602081019050602083039250612358565b6001836020036101000a03801982511681845116808217855250505050505090500191505060405180910390206040518263ffffffff167c0100000000000000000000000000000000000000000000000000000000028152600401808260001916600019168152602001915050602060405180830381600087803b15801561240457600080fd5b505af1158015612418573d6000803e3d6000fd5b505050506040513d602081101561242e57600080fd5b81019080805190602001909291905050506040518363ffffffff167c0100000000000000000000000000000000000000000000000000000000028152600401808373ffffffffffffffffffffffffffffffffffffffff1673ffffffffffffffffffffffffffffffffffffffff16815260200182815260200192505050602060405180830381600087803b1580156124c457600080fd5b505af11580156124d8573d6000803e3d6000fd5b505050506040513d60208110156124ee57600080fd5b8101908080519060200190929190505050151561250a57600080fd5b8573ffffffffffffffffffffffffffffffffffffffff166340c10f1933866040518363ffffffff167c0100000000000000000000000000000000000000000000000000000000028152600401808373ffffffffffffffffffffffffffffffffffffffff1673ffffffffffffffffffffffffffffffffffffffff16815260200182815260200192505050602060405180830381600087803b1580156125ad57600080fd5b505af11580156125c1573d6000803e3d6000fd5b505050506040513d60208110156125d757600080fd5b810190808051906020019092919050505015156125f357600080fd5b8573ffffffffffffffffffffffffffffffffffffffff16637d64bcb46040518163ffffffff167c0100000000000000000000000000000000000000000000000000000000028152600401602060405180830381600087803b15801561265757600080fd5b505af115801561266b573d6000803e3d6000fd5b505050506040513d602081101561268157600080fd5b8101908080519060200190929190505050151561269d57600080fd5b6126a78886612cb0565b15156126b257600080fd5b3373ffffffffffffffffffffffffffffffffffffffff166108fc6126df863461285c90919063ffffffff16565b9081150290604051600060405180830381858888f1935050505015801561270a573d6000803e3d6000fd5b506127fa565b8573ffffffffffffffffffffffffffffffffffffffff166340c10f1933346040518363ffffffff167c0100000000000000000000000000000000000000000000000000000000028152600401808373ffffffffffffffffffffffffffffffffffffffff1673ffffffffffffffffffffffffffffffffffffffff16815260200182815260200192505050602060405180830381600087803b1580156127b357600080fd5b505af11580156127c7573d6000803e3d6000fd5b505050506040513d60208110156127dd57600080fd5b810190808051906020019092919050505015156127f957600080fd5b5b3373ffffffffffffffffffffffffffffffffffffffff1688600019167fc84c15778d9a99058c0a9fc10a64cca3a419418b5b1b695db6fc03df94252fe8346040518082815260200191505060405180910390a360019650505050505050919050565b600082821115151561286a57fe5b818303905092915050565b60008060009054906101000a900473ffffffffffffffffffffffffffffffffffffffff1673ffffffffffffffffffffffffffffffffffffffff1663abfdcced8360405160200180807f63726f776473616c6546696e616c697a6564000000000000000000000000000081525060120182600019166000191681526020019150506040516020818303038152906040526040518082805190602001908083835b6020831015156129395780518252602082019150602081019050602083039250612914565b6001836020036101000a038019825116818451168082178552505050505050905001915050604051809103902060016040518363ffffffff167c01000000000000000000000000000000000000000000000000000000000281526004018083600019166000191681526020018215151515815260200192505050600060405180830381600087803b1580156129cd57600080fd5b505af11580156129e1573d6000803e3d6000fd5b505050506000809054906101000a900473ffffffffffffffffffffffffffffffffffffffff1673ffffffffffffffffffffffffffffffffffffffff1663e2b202bf8360405160200180807f616d6f756e74546f526169736500000000000000000000000000000000000000815250600d0182600019166000191681526020019150506040516020818303038152906040526040518082805190602001908083835b602083101515612aa75780518252602082019150602081019050602083039250612a82565b6001836020036101000a03801982511681845116808217855250505050505090500191505060405180910390206040518263ffffffff167c0100000000000000000000000000000000000000000000000000000000028152600401808260001916600019168152602001915050600060405180830381600087803b158015612b2e57600080fd5b505af1158015612b42573d6000803e3d6000fd5b505050506000809054906101000a900473ffffffffffffffffffffffffffffffffffffffff1673ffffffffffffffffffffffffffffffffffffffff1663e2b202bf8360405160200180807f61737365744d616e616765724665650000000000000000000000000000000000815250600f0182600019166000191681526020019150506040516020818303038152906040526040518082805190602001908083835b602083101515612c085780518252602082019150602081019050602083039250612be3565b6001836020036101000a03801982511681845116808217855250505050505090500191505060405180910390206040518263ffffffff167c0100000000000000000000000000000000000000000000000000000000028152600401808260001916600019168152602001915050600060405180830381600087803b158015612c8f57600080fd5b505af1158015612ca3573d6000803e3d6000fd5b5050505060019050919050565b60008060008060008060009054906101000a900473ffffffffffffffffffffffffffffffffffffffff1673ffffffffffffffffffffffffffffffffffffffff166304f49a3a8860405160200180807f6f70657261746f7200000000000000000000000000000000000000000000000081525060080182600019166000191681526020019150506040516020818303038152906040526040518082805190602001908083835b602083101515612d7a5780518252602082019150602081019050602083039250612d55565b6001836020036101000a03801982511681845116808217855250505050505090500191505060405180910390206040518263ffffffff167c0100000000000000000000000000000000000000000000000000000000028152600401808260001916600019168152602001915050602060405180830381600087803b158015612e0157600080fd5b505af1158015612e15573d6000803e3d6000fd5b505050506040513d6020811015612e2b57600080fd5b810190808051906020019092919050505093506000809054906101000a900473ffffffffffffffffffffffffffffffffffffffff1673ffffffffffffffffffffffffffffffffffffffff166304f49a3a60405160200180807f706c6174666f726d57616c6c6574000000000000000000000000000000000000815250600e0190506040516020818303038152906040526040518082805190602001908083835b602083101515612ef05780518252602082019150602081019050602083039250612ecb565b6001836020036101000a03801982511681845116808217855250505050505090500191505060405180910390206040518263ffffffff167c0100000000000000000000000000000000000000000000000000000000028152600401808260001916600019168152602001915050602060405180830381600087803b158015612f7757600080fd5b505af1158015612f8b573d6000803e3d6000fd5b505050506040513d6020811015612fa157600080fd5b81019080805190602001909291905050509250600073ffffffffffffffffffffffffffffffffffffffff168473ffffffffffffffffffffffffffffffffffffffff161415801561301e5750600073ffffffffffffffffffffffffffffffffffffffff168373ffffffffffffffffffffffffffffffffffffffff1614155b151561302957600080fd5b613050606461304260638961315690919063ffffffff16565b61319190919063ffffffff16565b9150613065828761285c90919063ffffffff16565b90508273ffffffffffffffffffffffffffffffffffffffff166108fc829081150290604051600060405180830381858888f193505050501580156130ad573d6000803e3d6000fd5b508373ffffffffffffffffffffffffffffffffffffffff166108fc839081150290604051600060405180830381858888f193505050501580156130f4573d6000803e3d6000fd5b508373ffffffffffffffffffffffffffffffffffffffff1687600019167f104f01b44de0f8f9d4ae175ac9fc604fbd67ff572163c08c19981661659aa614886040518082815260200191505060405180910390a3600194505050505092915050565b600080600084141561316b576000915061318a565b828402905082848281151561317c57fe5b0414151561318657fe5b8091505b5092915050565b6000818381151561319e57fe5b049050929150505600a165627a7a723058200050619fb8b6bca5a4d0d59cf7966f4b96f871b07153aa76e794366c322753640029",
  "source": "pragma solidity 0.4.24;\n\nimport \"../math/SafeMath.sol\";\nimport \"../interfaces/ERC20.sol\";\nimport \"../interfaces/DBInterface.sol\";\nimport \"../interfaces/EtherDividendInterface.sol\";\nimport \"../access/ERC20Burner.sol\";\n\n// @title An asset crowdsale contract.\n// @author Kyle Dewhurst & Peter Phillips, MyBit Foundation\n// @notice handles the funding and refunding of a newly created asset crowdsale.\n// @dev this contract only accepts Ether\ncontract CrowdsaleETH {\n    using SafeMath for uint256;\n\n    DBInterface public database;\n    ERC20Burner private burner;\n\n    // @notice Constructor: Initiates the database\n    // @param: The address for the database contract\n    constructor(address _database)\n    public {\n        database = DBInterface(_database);\n        burner = ERC20Burner(database.addressStorage(keccak256(abi.encodePacked(\"contract\", \"ERC20Burner\"))));\n    }\n\n\n    // @notice Users can send Ether here to fund asset if the deadline has not already passed.\n    function buyAssetOrderETH(bytes32 _assetID)\n    external\n    payable\n    requiresEther\n    validAsset(_assetID)\n    beforeDeadline(_assetID)\n    notFinalized(_assetID)\n    burnRequired\n    returns (bool) {\n      EtherDividendInterface assetToken = EtherDividendInterface(database.addressStorage(keccak256(abi.encodePacked(\"tokenAddress\", _assetID))));\n      uint amountToRaise = database.uintStorage(keccak256(abi.encodePacked(\"amountToRaise\", _assetID)));\n      uint tokensRemaining = amountToRaise.sub(assetToken.totalSupply());\n      if (msg.value >= tokensRemaining) {\n        // Give assetManager his portion of tokens\n        require(finalizeCrowdsale(_assetID));    // delete unnecessary variables\n        require(assetToken.mint(database.addressStorage(keccak256(abi.encodePacked(\"assetManager\", _assetID))), database.uintStorage(keccak256(abi.encodePacked(\"assetManagerFee\", _assetID))) ));\n        require(assetToken.mint(msg.sender, tokensRemaining));   // Send remaining asset tokens\n        require(assetToken.finishMinting());\n        require(payoutETH(_assetID, amountToRaise));          // 1 token = 1 wei\n        msg.sender.transfer(msg.value.sub(tokensRemaining));     // Return leftover WEI after cost of tokens calculated and subtracted from msg.value\n      }\n      else {\n        require(assetToken.mint(msg.sender, msg.value));\n      }\n      emit LogAssetPurchased(_assetID, msg.sender, msg.value);\n      return true;\n    }\n\n\n    // @notice Contributors can retrieve their funds here if crowdsale has paased deadline\n    // TODO: call this on receiveApproval() so we can do it in a single transaction?\n    function refund(bytes32 _assetID)\n    external\n    whenNotPaused\n    validAsset(_assetID)\n    afterDeadline(_assetID)\n    notFinalized(_assetID)\n    returns (bool) {\n      require(database.uintStorage(keccak256(abi.encodePacked(\"fundingDeadline\", _assetID))) != 0);\n      database.deleteUint(keccak256(abi.encodePacked(\"fundingDeadline\", _assetID)));\n      database.deleteUint(keccak256(abi.encodePacked(\"investorSupply\", _assetID)));\n      EtherDividendInterface assetToken = EtherDividendInterface(database.addressStorage(keccak256(abi.encodePacked(\"tokenAddress\", _assetID))));\n      uint refundValue = assetToken.totalSupply(); //token=wei\n      assetToken.issueDividends.value(refundValue)();\n      return true;\n    }\n\n    // @notice platform owners can recover tokens here\n    function recoverTokens(address _erc20Token)\n    onlyOwner\n    external {\n      ERC20 thisToken = ERC20(_erc20Token);\n      uint contractBalance = thisToken.balanceOf(address(this));\n      thisToken.transfer(msg.sender, contractBalance);\n    }\n\n    // @notice platform owners can destroy contract here\n    function destroy()\n    onlyOwner\n    external {\n      emit LogDestruction(address(this).balance, msg.sender);\n      selfdestruct(msg.sender);\n    }\n\n    // @notice fallback function: reject ether\n    function ()\n    public\n    payable {\n      revert();\n    }\n\n    //------------------------------------------------------------------------------------------------------------------\n    //                                            Internal Functions\n    //------------------------------------------------------------------------------------------------------------------\n\n    // @notice This is called once funding has succeeded. Sends Ether to a distribution contract where operator/assetManager can withdraw\n    // @dev The contract manager needs to know  the address PlatformDistribution contract\n    function payoutETH(bytes32 _assetID, uint _amount)\n    internal\n    returns (bool) {\n      address operatorAddress = database.addressStorage(keccak256(abi.encodePacked(\"operator\", _assetID)));\n      address platformWallet = database.addressStorage(keccak256(abi.encodePacked(\"platformWallet\")));\n      require(operatorAddress != address(0) && platformWallet != address(0));\n      uint operatorPortion = _amount.mul(99).div(100);\n      uint platformPortion = _amount.sub(operatorPortion);\n      platformWallet.transfer(platformPortion);\n      operatorAddress.transfer(operatorPortion);\n      emit LogAssetPayout(_assetID, operatorAddress, _amount);\n      return true;\n    }\n\n    // @notice internal function for freeing up storage after crowdsale finishes\n    // @param the ID of this asset.\n    function finalizeCrowdsale(bytes32 _assetID)\n    internal\n    returns (bool) {\n        database.setBool(keccak256(abi.encodePacked(\"crowdsaleFinalized\", _assetID)), true);\n        database.deleteUint(keccak256(abi.encodePacked(\"amountToRaise\", _assetID)));\n        database.deleteUint(keccak256(abi.encodePacked(\"assetManagerFee\", _assetID)));\n        return true;\n    }\n\n\n    //------------------------------------------------------------------------------------------------------------------\n    //                                            Modifiers\n    //------------------------------------------------------------------------------------------------------------------\n\n\n    // @notice Requires that Ether is sent with the transaction\n    modifier requiresEther() {\n      require(msg.value > 0);\n      _;\n    }\n\n    // @notice Sender must be a registered owner\n    modifier onlyOwner {\n      require(database.boolStorage(keccak256(abi.encodePacked(\"owner\", msg.sender))));\n      _;\n    }\n\n    // @notice reverts if user hasn't approved burner to burn platform token\n    modifier burnRequired {\n      require(burner.burn(msg.sender, database.uintStorage(keccak256(abi.encodePacked(msg.sig, address(this))))));\n      _;\n    }\n\n    // @notice function won't run if owners have paused this contract\n    modifier whenNotPaused {\n      require(!database.boolStorage(keccak256(abi.encodePacked(\"paused\", address(this)))));\n      _;\n    }\n\n    // @notice reverts if the asset does not have a token address set in the database\n    modifier validAsset(bytes32 _assetID) {\n      require(database.addressStorage(keccak256(abi.encodePacked(\"tokenAddress\", _assetID))) != address(0));\n      _;\n    }\n\n    // @notice reverts if the funding deadline has already past\n    modifier beforeDeadline(bytes32 _assetID) {\n      require(now <= database.uintStorage(keccak256(abi.encodePacked(\"fundingDeadline\", _assetID))));\n      _;\n    }\n\n    // @notice reverts if the funding deadline has already past\n    modifier afterDeadline(bytes32 _assetID) {\n      require(now > database.uintStorage(keccak256(abi.encodePacked(\"fundingDeadline\", _assetID))));\n      _;\n    }\n\n    // @notice returns true if crowdsale is not finshed\n    modifier notFinalized(bytes32 _assetID) {\n      require( !database.boolStorage(keccak256(abi.encodePacked(\"crowdsaleFinalized\", _assetID))) );\n      _;\n    }\n\n    //------------------------------------------------------------------------------------------------------------------\n    //                                            Events\n    //------------------------------------------------------------------------------------------------------------------\n\n    event LogAssetPurchased(bytes32 indexed _assetID, address indexed _sender, uint _amount);\n    event LogRefund(bytes32 indexed _assetID, address indexed _funder, uint _amount);\n    event LogAssetPayout(bytes32 indexed _assetID, address indexed _distributionContract, uint _amount);\n    event LogDestruction(uint _amountSent, address indexed _caller);\n  }\n",
  "sourcePath": "/home/peter/Documents/Work/MyBit/MyBit-Network.tech/contracts/crowdsale/CrowdsaleETH.sol",
  "compiler": {
    "name": "solc",
    "version": "0.4.24+commit.e67f0147.Emscripten.clang"
  },
  "schemaVersion": "2.0.1",
  "updatedAt": "2018-10-17T02:00:48.066Z"
}