{
  "contractName": "CrowdsaleERC20",
  "abi": [
    {
      "inputs": [
        {
          "name": "_database",
          "type": "address"
        },
        {
          "name": "_events",
          "type": "address"
        },
        {
          "name": "_kyber",
          "type": "address"
        }
      ],
      "payable": false,
      "stateMutability": "nonpayable",
      "type": "constructor"
    },
    {
      "payable": true,
      "stateMutability": "payable",
      "type": "fallback"
    },
    {
      "anonymous": false,
      "inputs": [
        {
          "indexed": false,
          "name": "token",
          "type": "address"
        },
        {
          "indexed": false,
          "name": "change",
          "type": "uint256"
        },
        {
          "indexed": false,
          "name": "investment",
          "type": "uint256"
        }
      ],
      "name": "Convert",
      "type": "event"
    },
    {
      "anonymous": false,
      "inputs": [
        {
          "indexed": false,
          "name": "sender",
          "type": "address"
        },
        {
          "indexed": false,
          "name": "amount",
          "type": "uint256"
        }
      ],
      "name": "EtherReceived",
      "type": "event"
    },
    {
      "constant": false,
      "inputs": [
        {
          "name": "_assetAddress",
          "type": "address"
        },
        {
          "name": "_investor",
          "type": "address"
        },
        {
          "name": "_amount",
          "type": "uint256"
        },
        {
          "name": "_paymentToken",
          "type": "address"
        }
      ],
      "name": "buyAssetOrderERC20",
      "outputs": [
        {
          "name": "",
          "type": "bool"
        }
      ],
      "payable": true,
      "stateMutability": "payable",
      "type": "function"
    },
    {
      "constant": false,
      "inputs": [
        {
          "name": "_assetAddress",
          "type": "address"
        }
      ],
      "name": "payoutERC20",
      "outputs": [
        {
          "name": "",
          "type": "bool"
        }
      ],
      "payable": false,
      "stateMutability": "nonpayable",
      "type": "function"
    },
    {
      "constant": false,
      "inputs": [
        {
          "name": "_assetAddress",
          "type": "address"
        }
      ],
      "name": "refund",
      "outputs": [
        {
          "name": "",
          "type": "bool"
        }
      ],
      "payable": false,
      "stateMutability": "nonpayable",
      "type": "function"
    },
    {
      "constant": false,
      "inputs": [
        {
          "name": "_erc20Token",
          "type": "address"
        }
      ],
      "name": "recoverTokens",
      "outputs": [],
      "payable": false,
      "stateMutability": "nonpayable",
      "type": "function"
    },
    {
      "constant": false,
      "inputs": [],
      "name": "destroy",
      "outputs": [],
      "payable": false,
      "stateMutability": "nonpayable",
      "type": "function"
    }
  ],
  "bytecode": "0x60806040523480156200001157600080fd5b50604051606080620046b783398101604081815282516020808501519483015160008054600160a060020a03808616600160a060020a0319928316179283905560018054828b169316929092179091557f636f6e7472616374000000000000000000000000000000000000000000000000848801527f4d696e746572000000000000000000000000000000000000000000000000000060288801528551600e818903018152602e90970195869052865194979692959116936304f49a3a938291908401908083835b60208310620000fa5780518252601f199092019160209182019101620000d9565b51815160209384036101000a60001901801990921691161790526040805192909401829003822063ffffffff88167c01000000000000000000000000000000000000000000000000000000000283526004830152925160248083019650939450929083900301905081600087803b1580156200017557600080fd5b505af11580156200018a573d6000803e3d6000fd5b505050506040513d6020811015620001a157600080fd5b505160028054600160a060020a031916600160a060020a03928316179055600054604080517f636f6e74726163740000000000000000000000000000000000000000000000006020808301919091527f43726f776473616c655265736572766500000000000000000000000000000000602883015282518083036018018152603890920192839052815193909416936304f49a3a9391929182918401908083835b60208310620002635780518252601f19909201916020918201910162000242565b51815160209384036101000a60001901801990921691161790526040805192909401829003822063ffffffff88167c01000000000000000000000000000000000000000000000000000000000283526004830152925160248083019650939450929083900301905081600087803b158015620002de57600080fd5b505af1158015620002f3573d6000803e3d6000fd5b505050506040513d60208110156200030a57600080fd5b505160038054600160a060020a03928316600160a060020a03199182161790915560048054939092169216919091179055505061436a806200034d6000396000f3006080604052600436106100535763ffffffff60e060020a6000350416630329cf4a811461008f57806316114acd146100c457806383197ef0146100e7578063dbfaee12146100fc578063fa89401a14610120575b6040805133815234602082015281517f1e57e3bb474320be3d2c77138f75b7c3941292d647f5f9634e33a8e94e0e069b929181900390910190a1005b34801561009b57600080fd5b506100b0600160a060020a0360043516610141565b604080519115158252519081900360200190f35b3480156100d057600080fd5b506100e5600160a060020a036004351661171f565b005b3480156100f357600080fd5b506100e56119a9565b6100b0600160a060020a036004358116906024358116906044359060643516611be3565b34801561012c57600080fd5b506100b0600160a060020a0360043516613002565b60008054604080517f7061757365640000000000000000000000000000000000000000000000000000602080830191909152606060020a300260268301528251601a818403018152603a90920192839052815185948594859485948594600160a060020a0390941693633b7bfda093918291908401908083835b602083106101da5780518252601f1990920191602091820191016101bb565b51815160209384036101000a60001901801990921691161790526040805192909401829003822063ffffffff881660e060020a0283526004830152925160248083019650939450929083900301905081600087803b15801561023b57600080fd5b505af115801561024f573d6000803e3d6000fd5b505050506040513d602081101561026557600080fd5b50511561027157600080fd5b600054604080516000805160206142df833981519152602080830191909152600160a060020a038b8116606060020a0260338401528351808403602701815260479093019384905282518c959190911693633b7bfda09392909182918401908083835b602083106102f35780518252601f1990920191602091820191016102d4565b51815160209384036101000a60001901801990921691161790526040805192909401829003822063ffffffff881660e060020a0283526004830152925160248083019650939450929083900301905081600087803b15801561035457600080fd5b505af1158015610368573d6000803e3d6000fd5b505050506040513d602081101561037e57600080fd5b505115156103d6576040805160e560020a62461bcd02815260206004820152601760248201527f43726f776473616c65206e6f742066696e616c697a6564000000000000000000604482015290519081900360640190fd5b600054604080517f63726f776473616c652e70616964000000000000000000000000000000000000602080830191909152600160a060020a038c8116606060020a02602e8401528351808403602201815260429093019384905282518d959190911693633b7bfda09392909182918401908083835b6020831061046a5780518252601f19909201916020918201910161044b565b51815160209384036101000a60001901801990921691161790526040805192909401829003822063ffffffff881660e060020a0283526004830152925160248083019650939450929083900301905081600087803b1580156104cb57600080fd5b505af11580156104df573d6000803e3d6000fd5b505050506040513d60208110156104f557600080fd5b50511561054c576040805160e560020a62461bcd02815260206004820152601660248201527f43726f776473616c65206861732070616964206f757400000000000000000000604482015290519081900360640190fd5b600054604080517f63726f776473616c652e70616964000000000000000000000000000000000000602080830191909152600160a060020a038d8116606060020a02602e84015283518084036022018152604290930193849052825194169363abfdcced93918291908401908083835b602083106105db5780518252601f1990920191602091820191016105bc565b5181516020939093036101000a60001901801990911692169190911790526040805191909301819003812063ffffffff871660e060020a028252600482015260016024820152915160448084019550600094509092839003019050818387803b15801561064757600080fd5b505af115801561065b573d6000803e3d6000fd5b5050505088600160a060020a0316634ece90a86040518163ffffffff1660e060020a028152600401602060405180830381600087803b15801561069d57600080fd5b505af11580156106b1573d6000803e3d6000fd5b505050506040513d60208110156106c757600080fd5b81019080805190602001909291905050509650600260009054906101000a9004600160a060020a0316600160a060020a031663d5895a3c8a6000809054906101000a9004600160a060020a0316600160a060020a03166304f49a3a60405160200180807f636f6e7472616374000000000000000000000000000000000000000000000000815250600801807f41737365744d616e6167657246756e647300000000000000000000000000000081525060110190506040516020818303038152906040526040518082805190602001908083835b602083106107b95780518252601f19909201916020918201910161079a565b51815160209384036101000a60001901801990921691161790526040805192909401829003822063ffffffff881660e060020a0283526004830152925160248083019650939450929083900301905081600087803b15801561081a57600080fd5b505af115801561082e573d6000803e3d6000fd5b505050506040513d602081101561084457600080fd5b81019080805190602001909291905050506000809054906101000a9004600160a060020a0316600160a060020a031663a855d4ce8e60405160200180807f61737365742e6d616e61676572546f6b656e730000000000000000000000000081525060130182600160a060020a0316600160a060020a0316606060020a0281526014019150506040516020818303038152906040526040518082805190602001908083835b602083106109075780518252601f1990920191602091820191016108e8565b51815160209384036101000a60001901801990921691161790526040805192909401829003822063ffffffff881660e060020a0283526004830152925160248083019650939450929083900301905081600087803b15801561096857600080fd5b505af115801561097c573d6000803e3d6000fd5b505050506040513d602081101561099257600080fd5b50516040805160e060020a63ffffffff8716028152600160a060020a0394851660048201529290931660248301526044820152905160648083019260209291908290030181600087803b1580156109e857600080fd5b505af11580156109fc573d6000803e3d6000fd5b505050506040513d6020811015610a1257600080fd5b50511515610a6a576040805160e560020a62461bcd02815260206004820152601660248201527f4d616e61676572206d696e74696e67206661696c656400000000000000000000604482015290519081900360640190fd5b600260009054906101000a9004600160a060020a0316600160a060020a031663d5895a3c8a6000809054906101000a9004600160a060020a0316600160a060020a03166304f49a3a60405160200180807f706c6174666f726d2e77616c6c65740000000000000000000000000000000000815250600f0190506040516020818303038152906040526040518082805190602001908083835b60208310610b215780518252601f199092019160209182019101610b02565b51815160209384036101000a60001901801990921691161790526040805192909401829003822063ffffffff881660e060020a0283526004830152925160248083019650939450929083900301905081600087803b158015610b8257600080fd5b505af1158015610b96573d6000803e3d6000fd5b505050506040513d6020811015610bac57600080fd5b81019080805190602001909291905050506000809054906101000a9004600160a060020a0316600160a060020a031663a855d4ce8e60405160200180807f61737365742e706c6174666f726d546f6b656e7300000000000000000000000081525060140182600160a060020a0316600160a060020a0316606060020a0281526014019150506040516020818303038152906040526040518082805190602001908083835b60208310610c6f5780518252601f199092019160209182019101610c50565b51815160209384036101000a60001901801990921691161790526040805192909401829003822063ffffffff881660e060020a0283526004830152925160248083019650939450929083900301905081600087803b158015610cd057600080fd5b505af1158015610ce4573d6000803e3d6000fd5b505050506040513d6020811015610cfa57600080fd5b50516040805160e060020a63ffffffff8716028152600160a060020a0394851660048201529290931660248301526044820152905160648083019260209291908290030181600087803b158015610d5057600080fd5b505af1158015610d64573d6000803e3d6000fd5b505050506040513d6020811015610d7a57600080fd5b50511515610dd2576040805160e560020a62461bcd02815260206004820152601760248201527f506c6174666f726d206d696e74696e67206661696c6564000000000000000000604482015290519081900360640190fd5b600254604080517f97d45353000000000000000000000000000000000000000000000000000000008152600160a060020a038c81166004830152915191909216916397d453539160248083019260209291908290030181600087803b158015610e3a57600080fd5b505af1158015610e4e573d6000803e3d6000fd5b505050506040513d6020811015610e6457600080fd5b50511515610ebc576040805160e560020a62461bcd02815260206004820152601360248201527f53746f70206d696e74696e67206661696c656400000000000000000000000000604482015290519081900360640190fd5b600054604080517f61737365742e6f70657261746f72000000000000000000000000000000000000602080830191909152600160a060020a038d8116606060020a02602e8401528351808403602201815260429093019384905282519416936304f49a3a93918291908401908083835b60208310610f4b5780518252601f199092019160209182019101610f2c565b51815160209384036101000a60001901801990921691161790526040805192909401829003822063ffffffff881660e060020a0283526004830152925160248083019650939450929083900301905081600087803b158015610fac57600080fd5b505af1158015610fc0573d6000803e3d6000fd5b505050506040513d6020811015610fd657600080fd5b5051600054604080517f706c6174666f726d2e77616c6c657400000000000000000000000000000000006020828101919091528251808303600f018152602f909201928390528151949a50600160a060020a03909316936304f49a3a939192918291908401908083835b6020831061105f5780518252601f199092019160209182019101611040565b51815160209384036101000a60001901801990921691161790526040805192909401829003822063ffffffff881660e060020a0283526004830152925160248083019650939450929083900301905081600087803b1580156110c057600080fd5b505af11580156110d4573d6000803e3d6000fd5b505050506040513d60208110156110ea57600080fd5b50519450600160a060020a0386161580159061110e5750600160a060020a03851615155b151561111957600080fd5b600054604080517f63726f776473616c652e676f616c000000000000000000000000000000000000602080830191909152600160a060020a038d8116606060020a02602e84015283518084036022018152604290930193849052825194169363a855d4ce93918291908401908083835b602083106111a85780518252601f199092019160209182019101611189565b51815160209384036101000a60001901801990921691161790526040805192909401829003822063ffffffff881660e060020a0283526004830152925160248083019650939450929083900301905081600087803b15801561120957600080fd5b505af115801561121d573d6000803e3d6000fd5b505050506040513d602081101561123357600080fd5b5051600054604080516000805160206142ff8339815191526020828101919091528251808303600c018152602c90920192839052815194985061134694600160a060020a039094169363a855d4ce93918291908401908083835b602083106112ac5780518252601f19909201916020918201910161128d565b51815160209384036101000a60001901801990921691161790526040805192909401829003822063ffffffff881660e060020a0283526004830152925160248083019650939450929083900301905081600087803b15801561130d57600080fd5b505af1158015611321573d6000803e3d6000fd5b505050506040513d602081101561133757600080fd5b5051859063ffffffff61399b16565b600354604080517f080a771c000000000000000000000000000000000000000000000000000000008152600160a060020a038981166004830152602482018590528b81166044830152915193965091169163080a771c916064808201926020929091908290030181600087803b1580156113bf57600080fd5b505af11580156113d3573d6000803e3d6000fd5b505050506040513d60208110156113e957600080fd5b50511515611441576040805160e560020a62461bcd02815260206004820152601760248201527f506c6174666f726d2066756e6473206e6f742070616964000000000000000000604482015290519081900360640190fd5b600354604080517f080a771c000000000000000000000000000000000000000000000000000000008152600160a060020a038981166004830152602482018890528a811660448301529151919092169163080a771c9160648083019260209291908290030181600087803b1580156114b857600080fd5b505af11580156114cc573d6000803e3d6000fd5b505050506040513d60208110156114e257600080fd5b5051151561153a576040805160e560020a62461bcd02815260206004820152601760248201527f4f70657261746f722066756e6473206e6f742070616964000000000000000000604482015290519081900360640190fd5b600054604080517f63726f776473616c652e73746172740000000000000000000000000000000000602080830191909152600160a060020a038d8116606060020a02602f84015283518084036023018152604390930193849052825194169363e2b202bf93918291908401908083835b602083106115c95780518252601f1990920191602091820191016115aa565b5181516020939093036101000a60001901801990911692169190911790526040805191909301819003812063ffffffff871660e060020a0282526004820152915160248084019550600094509092839003019050818387803b15801561162e57600080fd5b505af1158015611642573d6000803e3d6000fd5b5050600154604080517f42b425aa000000000000000000000000000000000000000000000000000000008152600160a060020a038e811660248301528b81166044830152606482018a90528c8116608483015260a06004830152600c60a48301527f4173736574207061796f7574000000000000000000000000000000000000000060c483015291519190921693506342b425aa925060e480830192600092919082900301818387803b1580156116f857600080fd5b505af115801561170c573d6000803e3d6000fd5b5060019c9b505050505050505050505050565b60008054604080517f6f776e6572000000000000000000000000000000000000000000000000000000602080830191909152606060020a330260258301528251601981840301815260399092019283905281518594600160a060020a031693633b7bfda09392909182918401908083835b602083106117af5780518252601f199092019160209182019101611790565b51815160209384036101000a60001901801990921691161790526040805192909401829003822063ffffffff881660e060020a0283526004830152925160248083019650939450929083900301905081600087803b15801561181057600080fd5b505af1158015611824573d6000803e3d6000fd5b505050506040513d602081101561183a57600080fd5b50511515611892576040805160e560020a62461bcd02815260206004820152600960248201527f4e6f74206f776e65720000000000000000000000000000000000000000000000604482015290519081900360640190fd5b6040805160e060020a6370a082310281523060048201529051849350600160a060020a038416916370a082319160248083019260209291908290030181600087803b1580156118e057600080fd5b505af11580156118f4573d6000803e3d6000fd5b505050506040513d602081101561190a57600080fd5b5051604080517fa9059cbb000000000000000000000000000000000000000000000000000000008152336004820152602481018390529051919250600160a060020a0384169163a9059cbb916044808201926020929091908290030181600087803b15801561197857600080fd5b505af115801561198c573d6000803e3d6000fd5b505050506040513d60208110156119a257600080fd5b5050505050565b600054604080517f6f776e6572000000000000000000000000000000000000000000000000000000602080830191909152606060020a33026025830152825160198184030181526039909201928390528151600160a060020a0390941693633b7bfda093918291908401908083835b60208310611a375780518252601f199092019160209182019101611a18565b51815160209384036101000a60001901801990921691161790526040805192909401829003822063ffffffff881660e060020a0283526004830152925160248083019650939450929083900301905081600087803b158015611a9857600080fd5b505af1158015611aac573d6000803e3d6000fd5b505050506040513d6020811015611ac257600080fd5b50511515611b1a576040805160e560020a62461bcd02815260206004820152600960248201527f4e6f74206f776e65720000000000000000000000000000000000000000000000604482015290519081900360640190fd5b600154604080517f42b425aa000000000000000000000000000000000000000000000000000000008152306024820181905233604483015231606482015260006084820181905260a06004830152601860a48301527f43726f776473616c6545524332302064657374726f796564000000000000000060c48301529151600160a060020a03909316926342b425aa9260e48084019391929182900301818387803b158015611bc757600080fd5b505af1158015611bdb573d6000803e3d6000fd5b503392505050ff5b600080600080600080600160a060020a03166000809054906101000a9004600160a060020a0316600160a060020a03166304f49a3a8b60405160200180807f61737365742e6d616e6167657200000000000000000000000000000000000000815250600d0182600160a060020a0316600160a060020a0316606060020a0281526014019150506040516020818303038152906040526040518082805190602001908083835b60208310611ca75780518252601f199092019160209182019101611c88565b51815160209384036101000a60001901801990921691161790526040805192909401829003822063ffffffff881660e060020a0283526004830152925160248083019650939450929083900301905081600087803b158015611d0857600080fd5b505af1158015611d1c573d6000803e3d6000fd5b505050506040513d6020811015611d3257600080fd5b5051600160a060020a03161415611d93576040805160e560020a62461bcd02815260206004820152600d60248201527f496e76616c696420617373657400000000000000000000000000000000000000604482015290519081900360640190fd5b6000546040805160008051602061431f833981519152602080830191909152600160a060020a038d8116606060020a02603284015283518084036026018152604690930193849052825194169363a855d4ce93918291908401908083835b60208310611e105780518252601f199092019160209182019101611df1565b51815160209384036101000a60001901801990921691161790526040805192909401829003822063ffffffff881660e060020a0283526004830152925160248083019650939450929083900301905081600087803b158015611e7157600080fd5b505af1158015611e85573d6000803e3d6000fd5b505050506040513d6020811015611e9b57600080fd5b5051421115611ef4576040805160e560020a62461bcd02815260206004820152600d60248201527f5061737420646561646c696e6500000000000000000000000000000000000000604482015290519081900360640190fd5b600054604080517f63726f776473616c652e73746172740000000000000000000000000000000000602080830191909152600160a060020a038d8116606060020a02602f84015283518084036023018152604390930193849052825194169363a855d4ce93918291908401908083835b60208310611f835780518252601f199092019160209182019101611f64565b51815160209384036101000a60001901801990921691161790526040805192909401829003822063ffffffff881660e060020a0283526004830152925160248083019650939450929083900301905081600087803b158015611fe457600080fd5b505af1158015611ff8573d6000803e3d6000fd5b505050506040513d602081101561200e57600080fd5b5051421015612067576040805160e560020a62461bcd02815260206004820152601160248201527f4265666f72652073746172742074696d65000000000000000000000000000000604482015290519081900360640190fd5b600054604080516000805160206142df833981519152602080830191909152600160a060020a038d8116606060020a026033840152835180840360270181526047909301938490528251941693633b7bfda093918291908401908083835b602083106120e45780518252601f1990920191602091820191016120c5565b51815160209384036101000a60001901801990921691161790526040805192909401829003822063ffffffff881660e060020a0283526004830152925160248083019650939450929083900301905081600087803b15801561214557600080fd5b505af1158015612159573d6000803e3d6000fd5b505050506040513d602081101561216f57600080fd5b5051156121c6576040805160e560020a62461bcd02815260206004820152601760248201527f43726f776473616c65206e6f742066696e616c697a6564000000000000000000604482015290519081900360640190fd5b600160a060020a03861673eeeeeeeeeeeeeeeeeeeeeeeeeeeeeeeeeeeeeeee141561224757348714612242576040805160e560020a62461bcd02815260206004820152601f60248201527f4d73672e76616c756520646f6573206e6f74206d6174636820616d6f756e7400604482015290519081900360640190fd5b61229d565b341561229d576040805160e560020a62461bcd02815260206004820152601b60248201527f4d73672e76616c75652073686f756c6420657175616c207a65726f0000000000604482015290519081900360640190fd5b33600160a060020a038916148061240b575060008054604080517f617070726f76616c000000000000000000000000000000000000000000000000602080830191909152600160a060020a038d8116606060020a9081026028850152338102603c8501523002605084015294357fffffffff000000000000000000000000000000000000000000000000000000001660648301528251808303604801815260689092019283905281519490931693633b7bfda0939192918291908401908083835b6020831061237d5780518252601f19909201916020918201910161235e565b51815160209384036101000a60001901801990921691161790526040805192909401829003822063ffffffff881660e060020a0283526004830152925160248083019650939450929083900301905081600087803b1580156123de57600080fd5b505af11580156123f2573d6000803e3d6000fd5b505050506040513d602081101561240857600080fd5b50515b1515612461576040805160e560020a62461bcd02815260206004820152601160248201527f55736572206e6f7420617070726f766564000000000000000000000000000000604482015290519081900360640190fd5b88600160a060020a0316634ece90a86040518163ffffffff1660e060020a028152600401602060405180830381600087803b15801561249f57600080fd5b505af11580156124b3573d6000803e3d6000fd5b505050506040513d60208110156124c957600080fd5b5051600054604080517f63726f776473616c652e72656d61696e696e6700000000000000000000000000602080830191909152600160a060020a038e8116606060020a0260338401528351808403602701815260479093019384905282519599509093169363a855d4ce939192918291908401908083835b602083106125605780518252601f199092019160209182019101612541565b51815160209384036101000a60001901801990921691161790526040805192909401829003822063ffffffff881660e060020a0283526004830152925160248083019650939450929083900301905081600087803b1580156125c157600080fd5b505af11580156125d5573d6000803e3d6000fd5b505050506040513d60208110156125eb57600080fd5b50519250600160a060020a0386811690851614156126165761260f888885876139b8565b9150612626565b6126238888868987613b18565b91505b6000821161263357600080fd5b82821015612a4457600054604080516000805160206142ff8339815191526020808301919091528251808303600c018152602c90920192839052815161276b9461274e94600160a060020a039091169363a855d4ce93909282918401908083835b602083106126b35780518252601f199092019160209182019101612694565b51815160209384036101000a60001901801990921691161790526040805192909401829003822063ffffffff881660e060020a0283526004830152925160248083019650939450929083900301905081600087803b15801561271457600080fd5b505af1158015612728573d6000803e3d6000fd5b505050506040513d602081101561273e57600080fd5b505160649063ffffffff61427216565b61275f84606463ffffffff61428c16565b9063ffffffff6142b716565b600054604080517f63726f776473616c652e72656d61696e696e6700000000000000000000000000602080830191909152600160a060020a038e8116606060020a0260338401528351808403602701815260479093019384905282519596509093169363e2a4853a939192918291908401908083835b602083106128005780518252601f1990920191602091820191016127e1565b6001836020036101000a038019825116818451168082178552505050505050905001915050604051809103902061284085876142cc90919063ffffffff16565b6040518363ffffffff1660e060020a02815260040180836000191660001916815260200182815260200192505050600060405180830381600087803b15801561288857600080fd5b505af115801561289c573d6000803e3d6000fd5b5050600254604080517fd5895a3c000000000000000000000000000000000000000000000000000000008152600160a060020a038e811660048301528d8116602483015260448201879052915191909216935063d5895a3c925060648083019260209291908290030181600087803b15801561291757600080fd5b505af115801561292b573d6000803e3d6000fd5b505050506040513d602081101561294157600080fd5b50511515612999576040805160e560020a62461bcd02815260206004820152601760248201527f496e766573746f72206d696e74696e67206661696c6564000000000000000000604482015290519081900360640190fd5b600354604080517fa9059cbb000000000000000000000000000000000000000000000000000000008152600160a060020a0392831660048201526024810185905290519186169163a9059cbb916044808201926020929091908290030181600087803b158015612a0857600080fd5b505af1158015612a1c573d6000803e3d6000fd5b505050506040513d6020811015612a3257600080fd5b50511515612a3f57600080fd5b612f52565b600054604080516000805160206142ff8339815191526020808301919091528251808303600c018152602c909201928390528151612acc94612abb94600160a060020a039091169363a855d4ce9390928291840190808383602083106126b35780518252601f199092019160209182019101612694565b61275f85606463ffffffff61428c16565b600054604080516000805160206142df833981519152602080830191909152600160a060020a038e8116606060020a0260338401528351808403602701815260479093019384905282519596509093169363abfdcced939192918291908401908083835b60208310612b4f5780518252601f199092019160209182019101612b30565b5181516020939093036101000a60001901801990911692169190911790526040805191909301819003812063ffffffff871660e060020a028252600482015260016024820152915160448084019550600094509092839003019050818387803b158015612bbb57600080fd5b505af1158015612bcf573d6000803e3d6000fd5b505050506000809054906101000a9004600160a060020a0316600160a060020a031663e2b202bf8a60405160200180807f63726f776473616c652e72656d61696e696e670000000000000000000000000081525060130182600160a060020a0316600160a060020a0316606060020a0281526014019150506040516020818303038152906040526040518082805190602001908083835b60208310612c855780518252601f199092019160209182019101612c66565b5181516020939093036101000a60001901801990911692169190911790526040805191909301819003812063ffffffff871660e060020a0282526004820152915160248084019550600094509092839003019050818387803b158015612cea57600080fd5b505af1158015612cfe573d6000803e3d6000fd5b5050600254604080517fd5895a3c000000000000000000000000000000000000000000000000000000008152600160a060020a038e811660048301528d8116602483015260448201879052915191909216935063d5895a3c925060648083019260209291908290030181600087803b158015612d7957600080fd5b505af1158015612d8d573d6000803e3d6000fd5b505050506040513d6020811015612da357600080fd5b50511515612dfb576040805160e560020a62461bcd02815260206004820152601760248201527f496e766573746f72206d696e74696e67206661696c6564000000000000000000604482015290519081900360640190fd5b600354604080517fa9059cbb000000000000000000000000000000000000000000000000000000008152600160a060020a0392831660048201526024810186905290519186169163a9059cbb916044808201926020929091908290030181600087803b158015612e6a57600080fd5b505af1158015612e7e573d6000803e3d6000fd5b505050506040513d6020811015612e9457600080fd5b50511515612ea157600080fd5b82821115612f5257600160a060020a03841663a9059cbb89612ec9858763ffffffff6142cc16565b6040518363ffffffff1660e060020a0281526004018083600160a060020a0316600160a060020a0316815260200182815260200192505050602060405180830381600087803b158015612f1b57600080fd5b505af1158015612f2f573d6000803e3d6000fd5b505050506040513d6020811015612f4557600080fd5b50511515612f5257600080fd5b600154604080517f42b425aa000000000000000000000000000000000000000000000000000000008152306024820152600160a060020a038b81166044830152606482018590528c8116608483015260a06004830152600f60a48301527f417373657420707572636861736564000000000000000000000000000000000060c4830152915191909216916342b425aa9160e480830192600092919082900301818387803b1580156116f857600080fd5b60008054604080517f7061757365640000000000000000000000000000000000000000000000000000602080830191909152606060020a300260268301528251601a818403018152603a909201928390528151859485948594600160a060020a0390921693633b7bfda09382918401908083835b602083106130955780518252601f199092019160209182019101613076565b51815160209384036101000a60001901801990921691161790526040805192909401829003822063ffffffff881660e060020a0283526004830152925160248083019650939450929083900301905081600087803b1580156130f657600080fd5b505af115801561310a573d6000803e3d6000fd5b505050506040513d602081101561312057600080fd5b50511561312c57600080fd5b60008054604080517f61737365742e6d616e6167657200000000000000000000000000000000000000602080830191909152600160a060020a038a8116606060020a02602d8401528351808403602101815260419093019384905282518b969591909116936304f49a3a9392909182918401908083835b602083106131c25780518252601f1990920191602091820191016131a3565b51815160209384036101000a60001901801990921691161790526040805192909401829003822063ffffffff881660e060020a0283526004830152925160248083019650939450929083900301905081600087803b15801561322357600080fd5b505af1158015613237573d6000803e3d6000fd5b505050506040513d602081101561324d57600080fd5b5051600160a060020a031614156132ae576040805160e560020a62461bcd02815260206004820152600d60248201527f496e76616c696420617373657400000000000000000000000000000000000000604482015290519081900360640190fd5b6000546040805160008051602061431f833981519152602080830191909152600160a060020a038a8116606060020a0260328401528351808403602601815260469093019384905282518b95919091169363a855d4ce9392909182918401908083835b602083106133305780518252601f199092019160209182019101613311565b51815160209384036101000a60001901801990921691161790526040805192909401829003822063ffffffff881660e060020a0283526004830152925160248083019650939450929083900301905081600087803b15801561339157600080fd5b505af11580156133a5573d6000803e3d6000fd5b505050506040513d60208110156133bb57600080fd5b50514211613413576040805160e560020a62461bcd02815260206004820152600f60248201527f4265666f726520646561646c696e650000000000000000000000000000000000604482015290519081900360640190fd5b600054604080516000805160206142df833981519152602080830191909152600160a060020a038b8116606060020a0260338401528351808403602701815260479093019384905282518c959190911693633b7bfda09392909182918401908083835b602083106134955780518252601f199092019160209182019101613476565b51815160209384036101000a60001901801990921691161790526040805192909401829003822063ffffffff881660e060020a0283526004830152925160248083019650939450929083900301905081600087803b1580156134f657600080fd5b505af115801561350a573d6000803e3d6000fd5b505050506040513d602081101561352057600080fd5b505115613577576040805160e560020a62461bcd02815260206004820152601360248201527f43726f776473616c652066696e616c697a656400000000000000000000000000604482015290519081900360640190fd5b6000546040805160008051602061431f833981519152602080830191909152600160a060020a038c8116606060020a02603284015283518084036026018152604690930193849052825194169363a855d4ce93918291908401908083835b602083106135f45780518252601f1990920191602091820191016135d5565b51815160209384036101000a60001901801990921691161790526040805192909401829003822063ffffffff881660e060020a0283526004830152925160248083019650939450929083900301905081600087803b15801561365557600080fd5b505af1158015613669573d6000803e3d6000fd5b505050506040513d602081101561367f57600080fd5b5051151561368c57600080fd5b6000546040805160008051602061431f833981519152602080830191909152600160a060020a038c8116606060020a02603284015283518084036026018152604690930193849052825194169363e2b202bf93918291908401908083835b602083106137095780518252601f1990920191602091820191016136ea565b5181516020939093036101000a60001901801990911692169190911790526040805191909301819003812063ffffffff871660e060020a0282526004820152915160248084019550600094509092839003019050818387803b15801561376e57600080fd5b505af1158015613782573d6000803e3d6000fd5b5050505087955085600160a060020a0316634ece90a86040518163ffffffff1660e060020a028152600401602060405180830381600087803b1580156137c757600080fd5b505af11580156137db573d6000803e3d6000fd5b505050506040513d60208110156137f157600080fd5b5051600054604080516000805160206142ff8339815191526020828101919091528251808303600c018152602c9092019283905281519499506138e89460649461275f9461387294600160a060020a039092169363a855d4ce938291840190808383602083106126b35780518252601f199092019160209182019101612694565b89600160a060020a03166318160ddd6040518163ffffffff1660e060020a028152600401602060405180830381600087803b1580156138b057600080fd5b505af11580156138c4573d6000803e3d6000fd5b505050506040513d60208110156138da57600080fd5b50519063ffffffff61428c16565b600354604080517fdeca3ea9000000000000000000000000000000000000000000000000000000008152600160a060020a038c81166004830152602482018590528981166044830152915193975091169163deca3ea9916064808201926020929091908290030181600087803b15801561396157600080fd5b505af1158015613975573d6000803e3d6000fd5b505050506040513d602081101561398b57600080fd5b5060019998505050505050505050565b60006139b16139aa848461428c565b60646142b7565b9392505050565b600082841115613a6957604080517f23b872dd000000000000000000000000000000000000000000000000000000008152600160a060020a038781166004830152306024830152604482018690529151918416916323b872dd916064808201926020929091908290030181600087803b158015613a3457600080fd5b505af1158015613a48573d6000803e3d6000fd5b505050506040513d6020811015613a5e57600080fd5b50839150613b109050565b604080517f23b872dd000000000000000000000000000000000000000000000000000000008152600160a060020a038781166004830152306024830152604482018790529151918416916323b872dd916064808201926020929091908290030181600087803b158015613adb57600080fd5b505af1158015613aef573d6000803e3d6000fd5b505050506040513d6020811015613b0557600080fd5b50849150613b109050565b949350505050565b600080808080600160a060020a03871673eeeeeeeeeeeeeeeeeeeeeeeeeeeeeeeeeeeeeeee1415613d88576040805160e060020a6370a082310281523060048201819052915191319550600160a060020a038a16916370a08231916024808201926020929091908290030181600087803b158015613b9557600080fd5b505af1158015613ba9573d6000803e3d6000fd5b505050506040513d6020811015613bbf57600080fd5b505160048054604080517fcb3c28c7000000000000000000000000000000000000000000000000000000008152600160a060020a038c811694820194909452602481018e90528c84166044820152306064820152608481018b9052600060a4820181905260c4820152905193965091169163cb3c28c7918c9160e480830192602092919082900301818588803b158015613c5857600080fd5b505af1158015613c6c573d6000803e3d6000fd5b50505050506040513d6020811015613c8357600080fd5b50613ca79050613c9a85303163ffffffff6142cc16565b8a9063ffffffff6142cc16565b9150613d408389600160a060020a03166370a08231306040518263ffffffff1660e060020a0281526004018082600160a060020a0316600160a060020a03168152602001915050602060405180830381600087803b158015613d0857600080fd5b505af1158015613d1c573d6000803e3d6000fd5b505050506040513d6020811015613d3257600080fd5b50519063ffffffff6142cc16565b90506000821115613d8357604051600160a060020a038b169083156108fc029084906000818181858888f19350505050158015613d81573d6000803e3d6000fd5b505b61421c565b613d948a8a8b8a6139b8565b5060048054604080517f095ea7b3000000000000000000000000000000000000000000000000000000008152600160a060020a03928316938101939093526000602484018190529051918a169263095ea7b39260448083019360209383900390910190829087803b158015613e0857600080fd5b505af1158015613e1c573d6000803e3d6000fd5b505050506040513d6020811015613e3257600080fd5b50511515613e3f57600080fd5b60048054604080517f095ea7b3000000000000000000000000000000000000000000000000000000008152600160a060020a0392831693810193909352602483018c9052519089169163095ea7b39160448083019260209291908290030181600087803b158015613eaf57600080fd5b505af1158015613ec3573d6000803e3d6000fd5b505050506040513d6020811015613ed957600080fd5b50506040805160e060020a6370a082310281523060048201529051600160a060020a038916916370a082319160248083019260209291908290030181600087803b158015613f2657600080fd5b505af1158015613f3a573d6000803e3d6000fd5b505050506040513d6020811015613f5057600080fd5b50516040805160e060020a6370a082310281523060048201529051919550600160a060020a038a16916370a08231916024808201926020929091908290030181600087803b158015613fa157600080fd5b505af1158015613fb5573d6000803e3d6000fd5b505050506040513d6020811015613fcb57600080fd5b505160048054604080517fcb3c28c7000000000000000000000000000000000000000000000000000000008152600160a060020a038c811694820194909452602481018e90528c84166044820152306064820152608481018b9052600060a4820181905260c482018190529151949750929091169263cb3c28c79260e4808201936020939283900390910190829087803b15801561406857600080fd5b505af115801561407c573d6000803e3d6000fd5b505050506040513d602081101561409257600080fd5b50506040805160e060020a6370a08231028152306004820152905161412091613c9a91600160a060020a038b16916370a082319160248083019260209291908290030181600087803b1580156140e757600080fd5b505af11580156140fb573d6000803e3d6000fd5b505050506040513d602081101561411157600080fd5b5051869063ffffffff6142cc16565b91506141818389600160a060020a03166370a08231306040518263ffffffff1660e060020a0281526004018082600160a060020a0316600160a060020a03168152602001915050602060405180830381600087803b158015613d0857600080fd5b9050600082111561421c5786600160a060020a031663a9059cbb8b846040518363ffffffff1660e060020a0281526004018083600160a060020a0316600160a060020a0316815260200182815260200192505050602060405180830381600087803b1580156141ef57600080fd5b505af1158015614203573d6000803e3d6000fd5b505050506040513d602081101561421957600080fd5b50505b60408051600160a060020a03891681526020810184905280820183905290517f9018eade4aec2a696b34b0f5459a1a7dc058389bab8e2380d880817a9e22b2139181900360600190a19998505050505050505050565b60008282018381101561428157fe5b8091505b5092915050565b60008083151561429f5760009150614285565b508282028284828115156142af57fe5b041461428157fe5b600081838115156142c457fe5b049392505050565b6000828211156142d857fe5b50900390560063726f776473616c652e66696e616c697a656400000000000000000000000000706c6174666f726d2e666565000000000000000000000000000000000000000063726f776473616c652e646561646c696e650000000000000000000000000000a165627a7a72305820eea5daa85fd21f6a497ef9d96a6ffca87103ea1cf402b51baa5c59b6fed1b6830029",
  "source": "pragma solidity ^0.4.24;\n\nimport \"../math/SafeMath.sol\";\nimport \"../interfaces/ERC20.sol\";\nimport \"../interfaces/DividendInterface.sol\";\nimport \"../interfaces/KyberInterface.sol\";\nimport \"../interfaces/MinterInterface.sol\";\nimport \"../interfaces/CrowdsaleReserveInterface.sol\";\n\ninterface Events {  function transaction(string _message, address _from, address _to, uint _amount, address _token)  external; }\ninterface DB {\n  function addressStorage(bytes32 _key) external view returns (address);\n  function uintStorage(bytes32 _key) external view returns (uint);\n  function setUint(bytes32 _key, uint _value) external;\n  function deleteUint(bytes32 _key) external;\n  function setBool(bytes32 _key, bool _value) external;\n  function boolStorage(bytes32 _key) external view returns (bool);\n}\n\n// @title An asset crowdsale contract which accepts funding from ERC20 tokens.\n// @notice Begins a crowdfunding period for a digital asset, minting asset dividend tokens to investors when particular ERC20 token is received\n// @author Kyle Dewhurst, MyBit Foundation\n// @notice creates a dividend token to represent the newly created asset.\ncontract CrowdsaleERC20{\n  using SafeMath for uint256;\n\n  DB private database;\n  Events private events;\n  MinterInterface private minter;\n  CrowdsaleReserveInterface private reserve;\n  KyberInterface private kyber;\n\n  // @notice Constructor: initializes database instance\n  // @param: The address for the platform database\n  constructor(address _database, address _events, address _kyber)\n  public{\n      database = DB(_database);\n      events = Events(_events);\n      minter = MinterInterface(database.addressStorage(keccak256(abi.encodePacked(\"contract\", \"Minter\"))));\n      reserve = CrowdsaleReserveInterface(database.addressStorage(keccak256(abi.encodePacked(\"contract\", \"CrowdsaleReserve\"))));\n      kyber = KyberInterface(_kyber);\n  }\n\n  // @notice Investors can send ERC20 tokens here to fund an asset, receiving an equivalent number of asset-tokens.\n  // @dev investor must approve this contract to transfer tokens\n  // @param (address) _assetAddress = The address of the asset tokens, investor wishes to purchase\n  // @param (uint) _amount = The amount to spend purchasing this asset\n  function buyAssetOrderERC20(address _assetAddress, address _investor, uint _amount, address _paymentToken)\n  external\n  payable\n  returns (bool) {\n    require(database.addressStorage(keccak256(abi.encodePacked(\"asset.manager\", _assetAddress))) != address(0), \"Invalid asset\");\n    require(now <= database.uintStorage(keccak256(abi.encodePacked(\"crowdsale.deadline\", _assetAddress))), \"Past deadline\");\n    require(now >= database.uintStorage(keccak256(abi.encodePacked(\"crowdsale.start\", _assetAddress))), \"Before start time\");\n    require(!database.boolStorage(keccak256(abi.encodePacked(\"crowdsale.finalized\", _assetAddress))), \"Crowdsale not finalized\");\n\n    if(_paymentToken == address(0xEeeeeEeeeEeEeeEeEeEeeEEEeeeeEeeeeeeeEEeE)){\n      require(msg.value == _amount, 'Msg.value does not match amount');\n    } else {\n      require(msg.value == 0, 'Msg.value should equal zero');\n    }\n    require(msg.sender == _investor || database.boolStorage(keccak256(abi.encodePacked(\"approval\", _investor, msg.sender, address(this), msg.sig))), \"User not approved\");\n    ERC20 fundingToken = ERC20(DividendInterface(_assetAddress).getERC20());\n    uint fundingRemaining = database.uintStorage(keccak256(abi.encodePacked(\"crowdsale.remaining\", _assetAddress)));\n    uint collected; //This will be the value received by the contract after any conversions\n    uint amount; //The number of tokens that will be minted\n    //Check if the payment token is the same as the funding token. If not, convert, else just collect the funds\n    if(_paymentToken == address(fundingToken)){\n      collected = collectPayment(_investor, _amount, fundingRemaining, fundingToken);\n    } else {\n      collected = convertTokens(_investor, _amount, fundingToken, ERC20(_paymentToken), fundingRemaining);\n    }\n    require(collected > 0);\n    if(collected < fundingRemaining){\n      amount = collected.mul(100).div(uint(100).add(database.uintStorage(keccak256(abi.encodePacked(\"platform.fee\")))));\n      database.setUint(keccak256(abi.encodePacked(\"crowdsale.remaining\", _assetAddress)), fundingRemaining.sub(collected));\n      require(minter.mintAssetTokens(_assetAddress, _investor, amount), \"Investor minting failed\");\n      require(fundingToken.transfer(address(reserve), collected));\n    } else {\n      amount = fundingRemaining.mul(100).div(uint(100).add(database.uintStorage(keccak256(abi.encodePacked(\"platform.fee\")))));\n      database.setBool(keccak256(abi.encodePacked(\"crowdsale.finalized\", _assetAddress)), true);\n      database.deleteUint(keccak256(abi.encodePacked(\"crowdsale.remaining\", _assetAddress)));\n      require(minter.mintAssetTokens(_assetAddress, _investor, amount), \"Investor minting failed\");   // Send remaining asset tokens to investor\n      require(fundingToken.transfer(address(reserve), fundingRemaining));\n      if(collected > fundingRemaining){\n        require(fundingToken.transfer(_investor, collected.sub(fundingRemaining)));    // return extra funds\n      }\n    }\n    events.transaction('Asset purchased', address(this), _investor, amount, _assetAddress);\n    return true;\n  }\n\n  // @notice This is called once funding has succeeded. Sends Ether to a distribution contract where operator/assetManager can withdraw\n  // @dev The contract manager needs to know  the address PlatformDistribution contract\n  function payoutERC20(address _assetAddress)\n  external\n  whenNotPaused\n  finalized(_assetAddress)\n  notPaid(_assetAddress)\n  returns (bool) {\n    //Set paid to true\n    database.setBool(keccak256(abi.encodePacked(\"crowdsale.paid\", _assetAddress)), true);\n    //Setup token\n    address fundingToken = DividendInterface(_assetAddress).getERC20();\n    //Mint tokens for the asset manager and platform\n    require(minter.mintAssetTokens(_assetAddress, database.addressStorage(keccak256(abi.encodePacked(\"contract\", \"AssetManagerFunds\"))), database.uintStorage(keccak256(abi.encodePacked(\"asset.managerTokens\", _assetAddress)))), \"Manager minting failed\");\n    require(minter.mintAssetTokens(_assetAddress, database.addressStorage(keccak256(abi.encodePacked(\"platform.wallet\"))), database.uintStorage(keccak256(abi.encodePacked(\"asset.platformTokens\", _assetAddress)))), \"Platform minting failed\");\n    require(minter.stopMint(_assetAddress), \"Stop minting failed\");\n    //Get the addresses for the operator and platform\n    address operator = database.addressStorage(keccak256(abi.encodePacked(\"asset.operator\", _assetAddress)));\n    address platformWallet = database.addressStorage(keccak256(abi.encodePacked(\"platform.wallet\")));\n    require(operator != address(0) && platformWallet != address(0));\n    //Calculate amounts for platform and operator\n    uint amount = database.uintStorage(keccak256(abi.encodePacked(\"crowdsale.goal\", _assetAddress)));\n    uint platformFee = amount.getFractionalAmount(database.uintStorage(keccak256(abi.encodePacked(\"platform.fee\"))));\n    //Transfer funds to operator and platform\n    require(reserve.issueERC20(platformWallet, platformFee, fundingToken), 'Platform funds not paid');\n    require(reserve.issueERC20(operator, amount, fundingToken), 'Operator funds not paid');\n    //Delete crowdsale start time\n    database.deleteUint(keccak256(abi.encodePacked(\"crowdsale.start\", _assetAddress)));\n    //Emit event\n    events.transaction('Asset payout', _assetAddress, operator, amount, fundingToken);\n    return true;\n  }\n\n  // @notice Contributors can retrieve their funds here if crowdsale has paased deadline\n  // @param (address) _assetAddress =  The address of the asset which didn't reach it's crowdfunding goals\n  function refund(address _assetAddress)\n  external\n  whenNotPaused\n  validAsset(_assetAddress)\n  afterDeadline(_assetAddress)\n  notFinalized(_assetAddress)\n  returns (bool) {\n    require(database.uintStorage(keccak256(abi.encodePacked(\"crowdsale.deadline\", _assetAddress))) != 0);\n    database.deleteUint(keccak256(abi.encodePacked(\"crowdsale.deadline\", _assetAddress)));\n    DividendInterface assetToken = DividendInterface(_assetAddress);\n    address tokenAddress = assetToken.getERC20();\n    uint refundValue = assetToken.totalSupply().mul(uint(100).add(database.uintStorage(keccak256(abi.encodePacked(\"platform.fee\"))))).div(100); //total supply plus platform fees\n    reserve.refundERC20Asset(_assetAddress, refundValue, tokenAddress);\n    return true;\n  }\n\n  //------------------------------------------------------------------------------------------------------------------\n  //                                            Internal Functions\n  //------------------------------------------------------------------------------------------------------------------\n\n  function collectPayment(address user, uint amount, uint max, ERC20 token)\n  private\n  returns (uint){\n    if(amount > max){\n      token.transferFrom(user, address(this), max);\n      return max;\n    } else {\n      token.transferFrom(user, address(this), amount);\n      return amount;\n    }\n  }\n\n  /*\n  function fundBurn(address _investor, uint _amount, bytes4 _sig, ERC20 _burnToken)\n  private\n  returns (uint) {\n    require(_burnToken.transferFrom(_investor, address(this), _amount), \"Transfer failed\"); // transfer investors tokens into contract\n    uint balanceBefore = _burnToken.balanceOf(this);\n    require(burner.burn(address(this), database.uintStorage(keccak256(abi.encodePacked(_sig, address(this)))), address(_burnToken)));\n    uint change = _burnToken.balanceOf(this) - balanceBefore;\n    return change;\n  }\n  */\n\n  function convertTokens(address _investor, uint _amount, /*bytes4 _sig,*/ ERC20 _fundingToken, ERC20 _paymentToken, uint _maxTokens)\n  private\n  returns (uint) {\n    //( , uint minRate) = kyber.getExpectedRate(address(_paymentToken), address(_fundingToken), 0);\n    uint paymentBalanceBefore;\n    uint fundingBalanceBefore;\n    uint change;\n    uint investment;\n    if(address(_paymentToken) == address(0xEeeeeEeeeEeEeeEeEeEeeEEEeeeeEeeeeeeeEEeE)){\n      paymentBalanceBefore = address(this).balance;\n      fundingBalanceBefore = _fundingToken.balanceOf(this);\n      //Convert remaining funds into the funding token\n      kyber.trade.value(_amount)(address(_paymentToken), _amount, address(_fundingToken), address(this), _maxTokens, 0, 0);\n      change = _amount.sub(paymentBalanceBefore.sub(address(this).balance));\n      investment = _fundingToken.balanceOf(this).sub(fundingBalanceBefore);\n      if(change > 0){\n        _investor.transfer(change);\n      }\n    } else {\n      //Collect funds\n      collectPayment(_investor, _amount, _amount, _paymentToken);\n      // Mitigate ERC20 Approve front-running attack, by initially setting\n      // allowance to 0\n      require(_paymentToken.approve(address(kyber), 0));\n      // Approve tokens so network can take them during the swap\n      _paymentToken.approve(address(kyber), _amount);\n      paymentBalanceBefore = _paymentToken.balanceOf(this);\n      fundingBalanceBefore = _fundingToken.balanceOf(this);\n      //Convert remaining funds into the funding token\n      kyber.trade(address(_paymentToken), _amount, address(_fundingToken), address(this), _maxTokens, 0, 0);\n      // Return any remaining source tokens to user\n      change = _amount.sub(paymentBalanceBefore.sub(_paymentToken.balanceOf(this)));\n      investment = _fundingToken.balanceOf(this).sub(fundingBalanceBefore);\n      if(change > 0){\n        _paymentToken.transfer(_investor, change);\n      }\n    }\n\n    emit Convert(address(_paymentToken), change, investment);\n    return investment;\n  }\n\n  // @notice platform owners can recover tokens here\n  function recoverTokens(address _erc20Token)\n  onlyOwner\n  external {\n    ERC20 thisToken = ERC20(_erc20Token);\n    uint contractBalance = thisToken.balanceOf(address(this));\n    thisToken.transfer(msg.sender, contractBalance);\n  }\n\n  // @notice platform owners can destroy contract here\n  function destroy()\n  onlyOwner\n  external {\n    events.transaction('CrowdsaleERC20 destroyed', address(this), msg.sender, address(this).balance, address(0));\n    //emit LogDestruction(address(this).balance, msg.sender);\n    selfdestruct(msg.sender);\n  }\n\n  // @notice fallback function. We need to receive Ether from Kyber Network\n  function ()\n  external\n  payable {\n    emit EtherReceived(msg.sender, msg.value);\n  }\n\n  //------------------------------------------------------------------------------------------------------------------\n  //                                            Modifiers\n  //------------------------------------------------------------------------------------------------------------------\n\n  // @notice Sender must be a registered owner\n  modifier onlyOwner {\n    require(database.boolStorage(keccak256(abi.encodePacked(\"owner\", msg.sender))), \"Not owner\");\n    _;\n  }\n\n  // @notice function won't run if owners have paused this contract\n  modifier whenNotPaused {\n    require(!database.boolStorage(keccak256(abi.encodePacked(\"paused\", address(this)))));\n    _;\n  }\n\n  // @notice reverts if the asset does not have a token address set in the database\n  modifier validAsset(address _assetAddress) {\n    require(database.addressStorage(keccak256(abi.encodePacked(\"asset.manager\", _assetAddress))) != address(0), \"Invalid asset\");\n    _;\n  }\n\n  // @notice reverts if the funding deadline has already past\n  modifier betweenDeadlines(address _assetAddress) {\n    require(now <= database.uintStorage(keccak256(abi.encodePacked(\"crowdsale.deadline\", _assetAddress))), \"Past deadline\");\n    require(now >= database.uintStorage(keccak256(abi.encodePacked(\"crowdsale.start\", _assetAddress))), \"Before start time\");\n    _;\n  }\n\n  // @notice reverts if the funding deadline has already past\n  modifier afterDeadline(address _assetAddress) {\n    require(now > database.uintStorage(keccak256(abi.encodePacked(\"crowdsale.deadline\", _assetAddress))), \"Before deadline\");\n    _;\n  }\n\n  // @notice returns true if crowdsale is finshed\n  modifier finalized(address _assetAddress) {\n    require(database.boolStorage(keccak256(abi.encodePacked(\"crowdsale.finalized\", _assetAddress))), \"Crowdsale not finalized\");\n    _;\n  }\n\n  // @notice returns true if crowdsale is not finshed\n  modifier notFinalized(address _assetAddress) {\n    require(!database.boolStorage(keccak256(abi.encodePacked(\"crowdsale.finalized\", _assetAddress))), \"Crowdsale finalized\");\n    _;\n  }\n\n  // @notice returns true if crowdsale has not paid out\n  modifier notPaid(address _assetAddress) {\n    require(!database.boolStorage(keccak256(abi.encodePacked(\"crowdsale.paid\", _assetAddress))), \"Crowdsale has paid out\");\n    _;\n  }\n\n  event Convert(address token, uint change, uint investment);\n  event EtherReceived(address sender, uint amount);\n}\n",
  "sourcePath": "/home/peter/Documents/Work/MyBit/MyBit-Network.tech/contracts/crowdsale/CrowdsaleERC20.sol",
  "compiler": {
    "name": "solc",
    "version": "0.4.24+commit.e67f0147.Emscripten.clang"
  },
  "schemaVersion": "3.0.2",
  "updatedAt": "2019-04-08T20:56:10.409Z",
  "devdoc": {
    "methods": {}
  },
  "userdoc": {
    "methods": {}
  }
}