{
  "contractName": "CrowdsaleGeneratorETH",
  "abi": [
    {
      "constant": true,
      "inputs": [],
      "name": "burner",
      "outputs": [
        {
          "name": "",
          "type": "address"
        }
      ],
      "payable": false,
      "stateMutability": "view",
      "type": "function"
    },
    {
      "constant": true,
      "inputs": [],
      "name": "database",
      "outputs": [
        {
          "name": "",
          "type": "address"
        }
      ],
      "payable": false,
      "stateMutability": "view",
      "type": "function"
    },
    {
      "constant": true,
      "inputs": [],
      "name": "events",
      "outputs": [
        {
          "name": "",
          "type": "address"
        }
      ],
      "payable": false,
      "stateMutability": "view",
      "type": "function"
    },
    {
      "inputs": [
        {
          "name": "_database",
          "type": "address"
        },
        {
          "name": "_events",
          "type": "address"
        }
      ],
      "payable": false,
      "stateMutability": "nonpayable",
      "type": "constructor"
    },
    {
      "constant": false,
      "inputs": [
        {
          "name": "_assetURI",
          "type": "string"
        },
        {
          "name": "_assetManager",
          "type": "address"
        },
        {
          "name": "_operatorID",
          "type": "bytes32"
        },
        {
          "name": "_fundingLength",
          "type": "uint256"
        },
        {
          "name": "_startTime",
          "type": "uint256"
        },
        {
          "name": "_amountToRaise",
          "type": "uint256"
        },
        {
          "name": "_assetManagerPerc",
          "type": "uint256"
        },
        {
          "name": "_escrow",
          "type": "uint256"
        },
        {
          "name": "_burnToken",
          "type": "address"
        }
      ],
      "name": "createAssetOrderETH",
      "outputs": [
        {
          "name": "",
          "type": "bool"
        }
      ],
      "payable": true,
      "stateMutability": "payable",
      "type": "function"
    },
    {
      "constant": false,
      "inputs": [],
      "name": "destroy",
      "outputs": [],
      "payable": false,
      "stateMutability": "nonpayable",
      "type": "function"
    }
  ],
  "bytecode": "0x608060405234801561001057600080fd5b5060405160408062003961833981016040818152825160209384015160008054600160a060020a03808516600160a060020a03199283161792839055600180548286169316929092179091557f636f6e7472616374000000000000000000000000000000000000000000000000878701527f45524332304275726e65720000000000000000000000000000000000000000006028870152845160138188030181526033909601948590528551939692959116936304f49a3a939192909182918401908083835b602083106100f55780518252601f1990920191602091820191016100d6565b51815160209384036101000a60001901801990921691161790526040805192909401829003822063ffffffff88167c01000000000000000000000000000000000000000000000000000000000283526004830152925160248083019650939450929083900301905081600087803b15801561016f57600080fd5b505af1158015610183573d6000803e3d6000fd5b505050506040513d602081101561019957600080fd5b505160028054600160a060020a031916600160a060020a0390921691909117905550613794905080620001cd6000396000f300608060405260043610620000595763ffffffff60e060020a60003504166327810b6e81146200005e57806329eddadf1462000092578063713b563f14620000e857806383197ef01462000100578063b5f8558c146200011a575b600080fd5b3480156200006b57600080fd5b506200007662000132565b60408051600160a060020a039092168252519081900360200190f35b620000d46024600480358281019291013590600160a060020a03903581169060443590606435906084359060a4359060c4359060e43590610104351662000141565b604080519115158252519081900360200190f35b348015620000f557600080fd5b50620000766200197d565b3480156200010d57600080fd5b50620001186200198c565b005b3480156200012757600080fd5b506200007662001bc8565b600254600160a060020a031681565b60008080600160a060020a03841673eeeeeeeeeeeeeeeeeeeeeeeeeeeeeeeeeeeeeeee14156200033457600254600080546040805192357bffffffffffffffffffffffffffffffffffffffffffffffffffffffff191660208085019190915230606060020a026024850152815180850360180181526038909401918290528351600160a060020a039586169563b8ce670d953495339592169363a855d4ce9391929182918401908083835b602083106200020d5780518252601f199092019160209182019101620001ec565b51815160209384036101000a60001901801990921691161790526040805192909401829003822063ffffffff881660e060020a0283526004830152925160248083019650939450929083900301905081600087803b1580156200026f57600080fd5b505af115801562000284573d6000803e3d6000fd5b505050506040513d60208110156200029b57600080fd5b50516040805160e060020a63ffffffff8716028152600160a060020a039384166004820152602481019290925291891660448201529051606480830192602092919082900301818588803b158015620002f357600080fd5b505af115801562000308573d6000803e3d6000fd5b50505050506040513d60208110156200032057600080fd5b505115156200032e57600080fd5b620004f9565b600254600080546040805192357bffffffffffffffffffffffffffffffffffffffffffffffffffffffff191660208085019190915230606060020a026024850152815180850360180181526038909401918290528351600160a060020a039586169563b8ce670d953395919091169363a855d4ce93919290918291908401908083835b60208310620003d85780518252601f199092019160209182019101620003b7565b51815160209384036101000a60001901801990921691161790526040805192909401829003822063ffffffff881660e060020a0283526004830152925160248083019650939450929083900301905081600087803b1580156200043a57600080fd5b505af11580156200044f573d6000803e3d6000fd5b505050506040513d60208110156200046657600080fd5b50516040805160e060020a63ffffffff8616028152600160a060020a03938416600482015260248101929092529188166044820152905160648083019260209291908290030181600087803b158015620004bf57600080fd5b505af1158015620004d4573d6000803e3d6000fd5b505050506040513d6020811015620004eb57600080fd5b50511515620004f957600080fd5b33600160a060020a038c161480620006f857506000809054906101000a9004600160a060020a0316600160a060020a0316633b7bfda08c33306000357bffffffffffffffffffffffffffffffffffffffffffffffffffffffff191660405160200180807f617070726f76616c00000000000000000000000000000000000000000000000081525060080185600160a060020a0316600160a060020a0316606060020a02815260140184600160a060020a0316600160a060020a0316606060020a02815260140183600160a060020a0316600160a060020a0316606060020a028152601401827bffffffffffffffffffffffffffffffffffffffffffffffffffffffff19167bffffffffffffffffffffffffffffffffffffffffffffffffffffffff191681526004019450505050506040516020818303038152906040526040518082805190602001908083835b60208310620006675780518252601f19909201916020918201910162000646565b51815160209384036101000a60001901801990921691161790526040805192909401829003822063ffffffff881660e060020a0283526004830152925160248083019650939450929083900301905081600087803b158015620006c957600080fd5b505af1158015620006de573d6000803e3d6000fd5b505050506040513d6020811015620006f557600080fd5b50515b15156200074f576040805160e560020a62461bcd02815260206004820152601160248201527f55736572206e6f7420617070726f766564000000000000000000000000000000604482015290519081900360640190fd5b60008711620007a8576040805160e560020a62461bcd02815260206004820152601660248201527f43726f776473616c6520676f616c206973207a65726f00000000000000000000604482015290519081900360640190fd5b6064861062000827576040805160e560020a62461bcd02815260206004820152602860248201527f4d616e616765722070657263656e74206e65656420746f206265206c6573732060448201527f7468616e20313030000000000000000000000000000000000000000000000000606482015290519081900360840190fd5b600054604080517f6f70657261746f722e616363657074734574686572000000000000000000000060208083019190915260358083018f9052835180840390910181526055909201928390528151600160a060020a0390941693633b7bfda093918291908401908083835b60208310620008b35780518252601f19909201916020918201910162000892565b51815160209384036101000a60001901801990921691161790526040805192909401829003822063ffffffff881660e060020a0283526004830152925160248083019650939450929083900301905081600087803b1580156200091557600080fd5b505af11580156200092a573d6000803e3d6000fd5b505050506040513d60208110156200094157600080fd5b505115156200099a576040805160e560020a62461bcd02815260206004820152601e60248201527f4f70657261746f7220646f6573206e6f74206163636570742045746865720000604482015290519081900360640190fd5b6000600160a060020a03166000809054906101000a9004600160a060020a0316600160a060020a03166304f49a3a8c60405160200180807f6f70657261746f7200000000000000000000000000000000000000000000000081525060080182600019166000191681526020019150506040516020818303038152906040526040518082805190602001908083835b6020831062000a495780518252601f19909201916020918201910162000a28565b51815160209384036101000a60001901801990921691161790526040805192909401829003822063ffffffff881660e060020a0283526004830152925160248083019650939450929083900301905081600087803b15801562000aab57600080fd5b505af115801562000ac0573d6000803e3d6000fd5b505050506040513d602081101562000ad757600080fd5b5051600160a060020a0316141562000b39576040805160e560020a62461bcd02815260206004820152601760248201527f4f70657261746f7220646f6573206e6f74206578697374000000000000000000604482015290519081900360640190fd5b6000809054906101000a9004600160a060020a0316600160a060020a0316633b7bfda08e8e60405160200180807f61737365742e75726900000000000000000000000000000000000000000000008152506009018383808284378201915050925050506040516020818303038152906040526040518082805190602001908083835b6020831062000bdc5780518252601f19909201916020918201910162000bbb565b51815160209384036101000a60001901801990921691161790526040805192909401829003822063ffffffff881660e060020a0283526004830152925160248083019650939450929083900301905081600087803b15801562000c3e57600080fd5b505af115801562000c53573d6000803e3d6000fd5b505050506040513d602081101562000c6a57600080fd5b50511562000cc2576040805160e560020a62461bcd02815260206004820152601760248201527f417373657420555249206973206e6f7420756e69717565000000000000000000604482015290519081900360640190fd5b4288101562000cd45742915062000cd8565b8791505b8c8c6000809054906101000a9004600160a060020a0316600160a060020a03166304f49a3a60405160200180807f636f6e7472616374000000000000000000000000000000000000000000000000815250600801807f43726f776473616c654554480000000000000000000000000000000000000000815250600c0190506040516020818303038152906040526040518082805190602001908083835b6020831062000d965780518252601f19909201916020918201910162000d75565b51815160209384036101000a60001901801990921691161790526040805192909401829003822063ffffffff881660e060020a0283526004830152925160248083019650939450929083900301905081600087803b15801562000df857600080fd5b505af115801562000e0d573d6000803e3d6000fd5b505050506040513d602081101562000e2457600080fd5b505162000e30620022f1565b600160a060020a03821660208201526040808252810183905280606081018585808284378201915050945050505050604051809103906000f08015801562000e7c573d6000803e3d6000fd5b50600054604080517f63726f776473616c652e73746172740000000000000000000000000000000000602080830191909152600160a060020a03858116606060020a02602f8401528351808403602301815260439093019384905282519596509093169363e2a4853a939192918291908401908083835b6020831062000f145780518252601f19909201916020918201910162000ef3565b5181516020939093036101000a60001901801990911692169190911790526040805191909301819003812063ffffffff871660e060020a028252600482015260248101899052915160448084019550600094509092839003019050818387803b15801562000f8157600080fd5b505af115801562000f96573d6000803e3d6000fd5b5050600054604080517f63726f776473616c652e646561646c696e650000000000000000000000000000602080830191909152600160a060020a03878116606060020a0260328401528351808403602601815260469093019384905282519416955063e2a4853a9450909282918401908083835b602083106200102b5780518252601f1990920191602091820191016200100a565b6001836020036101000a03801982511681845116808217855250505050505090500191505060405180910390206200106d8c8662001bd790919063ffffffff16565b6040518363ffffffff1660e060020a02815260040180836000191660001916815260200182815260200192505050600060405180830381600087803b158015620010b657600080fd5b505af1158015620010cb573d6000803e3d6000fd5b5050600054604080517f61737365742e6d616e6167657246656500000000000000000000000000000000602080830191909152600160a060020a03878116606060020a0260308401528351808403602401815260449093019384905282519416955063e2a4853a9450909282918401908083835b60208310620011605780518252601f1990920191602091820191016200113f565b6001836020036101000a03801982511681845116808217855250505050505090500191505060405180910390206200121a6d04ee2d6d415b85acef8100000000620011f26200120c6d04ee2d6d415b85acef8100000000620011ff620011d18f606462001bf290919063ffffffff16565b620011f260646d04ee2d6d415b85acef810000000063ffffffff62001c0516565b9063ffffffff62001c3416565b9063ffffffff62001bf216565b8d9063ffffffff62001c0516565b6040518363ffffffff1660e060020a02815260040180836000191660001916815260200182815260200192505050600060405180830381600087803b1580156200126357600080fd5b505af115801562001278573d6000803e3d6000fd5b5050600054604080517f63726f776473616c652e676f616c000000000000000000000000000000000000602080830191909152600160a060020a03878116606060020a02602e8401528351808403602201815260429093019384905282519416955063e2a4853a9450909282918401908083835b602083106200130d5780518252601f199092019160209182019101620012ec565b5181516020939093036101000a60001901801990911692169190911790526040805191909301819003812063ffffffff871660e060020a0282526004820152602481018e9052915160448084019550600094509092839003019050818387803b1580156200137a57600080fd5b505af11580156200138f573d6000803e3d6000fd5b5050600054604080517f61737365742e6d616e6167657200000000000000000000000000000000000000602080830191909152600160a060020a03878116606060020a02602d8401528351808403602101815260419093019384905282519416955063ca446dd99450909282918401908083835b60208310620014245780518252601f19909201916020918201910162001403565b6001836020036101000a03801982511681845116808217855250505050505090500191505060405180910390208d6040518363ffffffff1660e060020a02815260040180836000191660001916815260200182600160a060020a0316600160a060020a0316815260200192505050600060405180830381600087803b158015620014ad57600080fd5b505af1158015620014c2573d6000803e3d6000fd5b5050600054604080517f61737365742e6f70657261746f72000000000000000000000000000000000000602080830191909152600160a060020a03878116606060020a02602e8401528351808403602201815260429093019384905282519416955063ca446dd99450909282918401908083835b60208310620015575780518252601f19909201916020918201910162001536565b6001836020036101000a03801982511681845116808217855250505050505090500191505060405180910390206000809054906101000a9004600160a060020a0316600160a060020a03166304f49a3a8e60405160200180807f6f70657261746f7200000000000000000000000000000000000000000000000081525060080182600019166000191681526020019150506040516020818303038152906040526040518082805190602001908083835b60208310620016285780518252601f19909201916020918201910162001607565b51815160209384036101000a60001901801990921691161790526040805192909401829003822063ffffffff881660e060020a0283526004830152925160248083019650939450929083900301905081600087803b1580156200168a57600080fd5b505af11580156200169f573d6000803e3d6000fd5b505050506040513d6020811015620016b657600080fd5b50516040805160e060020a63ffffffff86160281526004810193909352600160a060020a03909116602483015251604480830192600092919082900301818387803b1580156200170557600080fd5b505af11580156200171a573d6000803e3d6000fd5b505050506000809054906101000a9004600160a060020a0316600160a060020a031663abfdcced8e8e60405160200180807f61737365742e75726900000000000000000000000000000000000000000000008152506009018383808284378201915050925050506040516020818303038152906040526040518082805190602001908083835b60208310620017c15780518252601f199092019160209182019101620017a0565b5181516020939093036101000a60001901801990911692169190911790526040805191909301819003812063ffffffff871660e060020a028252600482015260016024820152915160448084019550600094509092839003019050818387803b1580156200182e57600080fd5b505af115801562001843573d6000803e3d6000fd5b5050505060008511156200186a576200185e8b828762001c4a565b15156200186a57600080fd5b600160009054906101000a9004600160a060020a0316600160a060020a03166378576a918e8e848f6040518563ffffffff1660e060020a02815260040180806020018060200185600160a060020a0316600160a060020a0316815260200184600160a060020a0316600160a060020a03168152602001838103835260158152602001807f41737365742066756e64696e6720737461727465640000000000000000000000815250602001838103825287878281815260200192508082843782019150509650505050505050600060405180830381600087803b1580156200195057600080fd5b505af115801562001965573d6000803e3d6000fd5b505050506001925050509a9950505050505050505050565b600054600160a060020a031681565b600054604080517f6f776e6572000000000000000000000000000000000000000000000000000000602080830191909152606060020a33026025830152825160198184030181526039909201928390528151600160a060020a0390941693633b7bfda093918291908401908083835b6020831062001a1c5780518252601f199092019160209182019101620019fb565b51815160209384036101000a60001901801990921691161790526040805192909401829003822063ffffffff881660e060020a0283526004830152925160248083019650939450929083900301905081600087803b15801562001a7e57600080fd5b505af115801562001a93573d6000803e3d6000fd5b505050506040513d602081101562001aaa57600080fd5b5051151562001b03576040805160e560020a62461bcd02815260206004820152600960248201527f4e6f74206f776e65720000000000000000000000000000000000000000000000604482015290519081900360640190fd5b600154604080517f68b96270000000000000000000000000000000000000000000000000000000008152306024820181905233604483015231606482015260a06004820152601f60a48201527f43726f776473616c6547656e657261746f724554482064657374726f7965640060c48201529051600160a060020a03909216916368b962709160e48082019260009290919082900301818387803b15801562001bab57600080fd5b505af115801562001bc0573d6000803e3d6000fd5b503392505050ff5b600154600160a060020a031681565b60008282018381101562001be757fe5b8091505b5092915050565b60008282111562001bff57fe5b50900390565b60008083151562001c1a576000915062001beb565b5082820282848281151562001c2b57fe5b041462001be757fe5b6000818381151562001c4257fe5b049392505050565b600080600084866040516020018083600160a060020a0316600160a060020a0316606060020a02815260140182600160a060020a0316600160a060020a0316606060020a028152601401925050506040516020818303038152906040526040518082805190602001908083835b6020831062001cd85780518252601f19909201916020918201910162001cb7565b51815160209384036101000a6000190180199092169116179052604080519290940182900382206000547f706c6174666f726d2e746f6b656e000000000000000000000000000000000000848401528551600e818603018152602e909401958690528351919950600160a060020a031696506304f49a3a9550919392508291908401908083835b6020831062001d805780518252601f19909201916020918201910162001d5f565b51815160209384036101000a60001901801990921691161790526040805192909401829003822063ffffffff881660e060020a0283526004830152925160248083019650939450929083900301905081600087803b15801562001de257600080fd5b505af115801562001df7573d6000803e3d6000fd5b505050506040513d602081101562001e0e57600080fd5b5051600054604080517f636f6e74726163740000000000000000000000000000000000000000000000006020828101919091527f41737365744d616e61676572457363726f77000000000000000000000000000060288301528251601a818403018152603a909201928390528151949550600160a060020a03808716956323b872dd958d959216936304f49a3a9390929182918401908083835b6020831062001ec95780518252601f19909201916020918201910162001ea8565b51815160209384036101000a60001901801990921691161790526040805192909401829003822063ffffffff881660e060020a0283526004830152925160248083019650939450929083900301905081600087803b15801562001f2b57600080fd5b505af115801562001f40573d6000803e3d6000fd5b505050506040513d602081101562001f5757600080fd5b50516040805160e060020a63ffffffff8616028152600160a060020a039384166004820152929091166024830152604482018890525160648083019260209291908290030181600087803b15801562001faf57600080fd5b505af115801562001fc4573d6000803e3d6000fd5b505050506040513d602081101562001fdb57600080fd5b5051151562001fe957600080fd5b600054604080517f61737365742e657363726f770000000000000000000000000000000000000000602080830191909152602c80830187905283518084039091018152604c909201928390528151600160a060020a039094169363e2a4853a93918291908401908083835b60208310620020755780518252601f19909201916020918201910162002054565b5181516020939093036101000a60001901801990911692169190911790526040805191909301819003812063ffffffff871660e060020a0282526004820152602481018b9052915160448084019550600094509092839003019050818387803b158015620020e257600080fd5b505af1158015620020f7573d6000803e3d6000fd5b5050600054604080517f61737365742e6d616e6167657200000000000000000000000000000000000000602080830191909152600160a060020a038b8116606060020a02602d8401528351808403602101815260419093019384905282519416955063ca446dd99450909282918401908083835b602083106200218c5780518252601f1990920191602091820191016200216b565b5181516020939093036101000a60001901801990911692169190911790526040805191909301819003812063ffffffff871660e060020a0282526004820152600160a060020a038d166024820152915160448084019550600094509092839003019050818387803b1580156200220157600080fd5b505af115801562002216573d6000803e3d6000fd5b5050600154604080517f0b94df4c000000000000000000000000000000000000000000000000000000008152600160a060020a038a81166024830152604482018890528b81166064830152608482018a905260a06004830152600d60a48301527f457363726f77206c6f636b65640000000000000000000000000000000000000060c48301529151919092169350630b94df4c925060e480830192600092919082900301818387803b158015620022cc57600080fd5b505af1158015620022e1573d6000803e3d6000fd5b5060019998505050505050505050565b604051611466806200230383390190560060806040523480156200001157600080fd5b50604051620014663803806200146683398101604052805160208083015191909201805190928391829160129185916200005191600391860190620000b0565b50825162000067906004906020860190620000b0565b5060058054600060025560ff90931660ff19600160a060020a0390931662010000026201000060b060020a03199094169390931791909116919091179055506200015592505050565b828054600181600116156101000203166002900490600052602060002090601f016020900481019282601f10620000f357805160ff191683800117855562000123565b8280016001018555821562000123579182015b828111156200012357825182559160200191906001019062000106565b506200013192915062000135565b5090565b6200015291905b808211156200013157600081556001016200013c565b90565b61130180620001656000396000f30060806040526004361061013d5763ffffffff7c010000000000000000000000000000000000000000000000000000000060003504166305d2035b81146101d257806306fdde03146101fb578063095ea7b31461028557806318160ddd146102a957806323b872dd146102d05780632ba1b3a1146102fa578063313ce5671461030f5780633bdfa9201461033a5780633ccfd60b1461035b57806340c10f19146103705780634ece90a81461039457806366188463146103c557806370a08231146103e95780637d64bcb41461040a57806395d89b411461041f578063a8fa8e5214610434578063a9059cbb14610449578063b5a83d431461046d578063cae9ca511461048e578063d4a19116146104f7578063d73dd6231461050c578063dd62ed3e14610530578063eba74e5c14610557578063efcb5dea1461055f575b600754610150903463ffffffff61058016565b600755600254610197906101889061017c346d04ee2d6d415b85acef810000000063ffffffff61059a16565b9063ffffffff6105c516565b6006549063ffffffff61058016565b60065560408051348152905133917fe3166012cb87b3dec8e117fe0e096a47387f94ea2ec12086ed8ae24ff8c237fe919081900360200190a2005b3480156101de57600080fd5b506101e76105da565b604080519115158252519081900360200190f35b34801561020757600080fd5b506102106105e8565b6040805160208082528351818301528351919283929083019185019080838360005b8381101561024a578181015183820152602001610232565b50505050905090810190601f1680156102775780820380516001836020036101000a031916815260200191505b509250505060405180910390f35b34801561029157600080fd5b506101e7600160a060020a0360043516602435610676565b3480156102b557600080fd5b506102be6106ca565b60408051918252519081900360200190f35b3480156102dc57600080fd5b506101e7600160a060020a03600435811690602435166044356106d0565b34801561030657600080fd5b506102be610791565b34801561031b57600080fd5b50610324610797565b6040805160ff9092168252519081900360200190f35b34801561034657600080fd5b506102be600160a060020a03600435166107a0565b34801561036757600080fd5b506101e76107ec565b34801561037c57600080fd5b506101e7600160a060020a03600435166024356108cf565b3480156103a057600080fd5b506103a96109de565b60408051600160a060020a039092168252519081900360200190f35b3480156103d157600080fd5b506101e7600160a060020a03600435166024356109e3565b3480156103f557600080fd5b506102be600160a060020a0360043516610ac0565b34801561041657600080fd5b506101e7610adb565b34801561042b57600080fd5b50610210610b4f565b34801561044057600080fd5b506102be610baa565b34801561045557600080fd5b506101e7600160a060020a0360043516602435610bb0565b34801561047957600080fd5b506102be600160a060020a0360043516610c4a565b34801561049a57600080fd5b50604080516020600460443581810135601f81018490048402850184019095528484526101e7948235600160a060020a0316946024803595369594606494920191908190840183828082843750949750610c5c9650505050505050565b34801561050357600080fd5b50610210610e12565b34801561051857600080fd5b506101e7600160a060020a0360043516602435610ea8565b34801561053c57600080fd5b506102be600160a060020a0360043581169060243516610f2f565b6101e7610f5a565b34801561056b57600080fd5b506102be600160a060020a0360043516610fdb565b60008282018381101561058f57fe5b8091505b5092915050565b6000808315156105ad5760009150610593565b508282028284828115156105bd57fe5b041461058f57fe5b600081838115156105d257fe5b049392505050565b600554610100900460ff1681565b6003805460408051602060026001851615610100026000190190941693909304601f8101849004840282018401909252818152929183018282801561066e5780601f106106435761010080835404028352916020019161066e565b820191906000526020600020905b81548152906001019060200180831161065157829003601f168201915b505050505081565b336000818152600160209081526040808320600160a060020a038716808552908352818420869055815186815291519394909390926000805160206112b6833981519152928290030190a350600192915050565b60025490565b6000836107046106df82610fed565b600160a060020a0383166000908152600860205260409020549063ffffffff61058016565b600160a060020a0382166000908152600860209081526040808320939093556006546009909152919020558361073c6106df82610fed565b600160a060020a03808316600090815260086020908152604080832094909455600654600990915292902091909155851630141561077957600080fd5b61078486868661104f565b5060019695505050505050565b60075481565b60055460ff1690565b600160a060020a0381166000908152600860205260408120546107e6906d04ee2d6d415b85acef81000000009061017c906107da86610fed565b9063ffffffff61058016565b92915050565b600080336107fc6106df82610fed565b600160a060020a038216600090815260086020818152604080842094909455600654600982528484205533835252205461084a906d04ee2d6d415b85acef810000000063ffffffff6105c516565b336000818152600860209081526040808320929092558151928352820183905280519294507ff5b510c554f6c572235f7e531ec8f287b350b15c212250b993180473a6aeb7d192918290030190a1604051339083156108fc029084906000818181858888f193505050501580156108c5573d6000803e3d6000fd5b5060019250505090565b600554600090610100900460ff161580156108fa5750600554620100009004600160a060020a031633145b151561090557600080fd5b600254610918908363ffffffff61058016565b600255600160a060020a038316600090815260208190526040902054610944908363ffffffff61058016565b600160a060020a03841660008181526020818152604091829020939093558051858152905191927f0f6798a560793a54c3bcfe86a93cde1e73087d944c0ea20544137d412139688592918290030190a2604080518381529051600160a060020a038516916000917fddf252ad1be2c89b69c2b068fc378daa952ba7f163c4a11628f55a4df523b3ef9181900360200190a350600192915050565b600090565b336000908152600160209081526040808320600160a060020a0386168452909152812054808310610a3757336000908152600160209081526040808320600160a060020a0388168452909152812055610a6c565b610a47818463ffffffff6111c416565b336000908152600160209081526040808320600160a060020a03891684529091529020555b336000818152600160209081526040808320600160a060020a0389168085529083529281902054815190815290519293926000805160206112b6833981519152929181900390910190a35060019392505050565b600160a060020a031660009081526020819052604090205490565b600554600090610100900460ff16158015610b065750600554620100009004600160a060020a031633145b1515610b1157600080fd5b6005805461ff0019166101001790556040517fae5184fba832cb2b1f702aca6117b8d265eaf03ad33eb133f19dde0f5920fa0890600090a150600190565b6004805460408051602060026001851615610100026000190190941693909304601f8101849004840282018401909252818152929183018282801561066e5780601f106106435761010080835404028352916020019161066e565b60065481565b600033610bbf6106df82610fed565b600160a060020a03821660009081526008602090815260408083209390935560065460099091529190205583610bf76106df82610fed565b600160a060020a038083166000908152600860209081526040808320949094556006546009909152929020919091558516301415610c3457600080fd5b610c3e85856111d6565b50600195945050505050565b60086020526000908152604090205481565b600033610c6b6106df82610fed565b600160a060020a03821660009081526008602090815260408083209390935560065460099091529190205584610ca36106df82610fed565b600160a060020a0380831660009081526008602090815260408083209490945560065460098252848320553380835260018252848320938b168084529382529184902089905583518981529351929391926000805160206112b68339815191529281900390910190a36040517f8f4ffcb10000000000000000000000000000000000000000000000000000000081523360048201818152602483018890523060448401819052608060648501908152885160848601528851600160a060020a038c1695638f4ffcb195948c94938c939192909160a490910190602085019080838360005b83811015610d9f578181015183820152602001610d87565b50505050905090810190601f168015610dcc5780820380516001836020036101000a031916815260200191505b5095505050505050600060405180830381600087803b158015610dee57600080fd5b505af1158015610e02573d6000803e3d6000fd5b5060019998505050505050505050565b60038054604080516020601f6002600019610100600188161502019095169490940493840181900481028201810190925282815260609390929091830182828015610e9e5780601f10610e7357610100808354040283529160200191610e9e565b820191906000526020600020905b815481529060010190602001808311610e8157829003601f168201915b5050505050905090565b336000908152600160209081526040808320600160a060020a0386168452909152812054610edc908363ffffffff61058016565b336000818152600160209081526040808320600160a060020a0389168085529083529281902085905580519485525191936000805160206112b6833981519152929081900390910190a350600192915050565b600160a060020a03918216600090815260016020908152604080832093909416825291909152205490565b600754600090610f70903463ffffffff61058016565b600755600254610f9c906101889061017c346d04ee2d6d415b85acef810000000063ffffffff61059a16565b60065560408051348152905133917fe3166012cb87b3dec8e117fe0e096a47387f94ea2ec12086ed8ae24ff8c237fe919081900360200190a250600190565b60096020526000908152604090205481565b600160a060020a038116600090815260096020526040812054600654829161101b919063ffffffff6111c416565b600160a060020a03841660009081526020819052604090205490915061104890829063ffffffff61059a16565b9392505050565b600160a060020a03831660009081526020819052604081205482111561107457600080fd5b600160a060020a03841660009081526001602090815260408083203384529091529020548211156110a457600080fd5b600160a060020a03831615156110b957600080fd5b600160a060020a0384166000908152602081905260409020546110e2908363ffffffff6111c416565b600160a060020a038086166000908152602081905260408082209390935590851681522054611117908363ffffffff61058016565b600160a060020a03808516600090815260208181526040808320949094559187168152600182528281203382529091522054611159908363ffffffff6111c416565b600160a060020a03808616600081815260016020908152604080832033845282529182902094909455805186815290519287169391927fddf252ad1be2c89b69c2b068fc378daa952ba7f163c4a11628f55a4df523b3ef929181900390910190a35060019392505050565b6000828211156111d057fe5b50900390565b336000908152602081905260408120548211156111f257600080fd5b600160a060020a038316151561120757600080fd5b33600090815260208190526040902054611227908363ffffffff6111c416565b3360009081526020819052604080822092909255600160a060020a03851681522054611259908363ffffffff61058016565b600160a060020a038416600081815260208181526040918290209390935580518581529051919233927fddf252ad1be2c89b69c2b068fc378daa952ba7f163c4a11628f55a4df523b3ef9281900390910190a35060019291505056008c5be1e5ebec7d5bd14f71427d1e84f3dd0314c0f7b2291e5b200ac8c7c3b925a165627a7a72305820de5e57728d2735772b97f195c59d02cede27045b29d043e7a5fc7afecb1b49160029a165627a7a72305820d29b5f74c56b5ac85f20e22dba423b606518f3bc79c199709a0d88648e6efb040029",
  "source": "pragma solidity ^0.4.24;\n\nimport \"../math/SafeMath.sol\";\nimport \"../interfaces/DBInterface.sol\";\nimport \"../database/Events.sol\";\nimport \"../tokens/erc20/DividendToken.sol\";\n\ninterface CrowdsaleGeneratorETH_ERC20 {\n  function transferFrom(address _from, address _to, uint256 _value) external returns (bool);\n}\ninterface CrowdsaleGeneratorETH_ERC20Burner {\n  function burn(address _tokenHolder, uint _amount, address _burnToken) payable external returns (bool);\n}\n\n// @title A crowdsale generator contract\n// @author Kyle Dewhurst, MyBit Foundation\n// @notice AssetManagers can initiate a crowdsale that accepts Ether as payment here\ncontract CrowdsaleGeneratorETH {\n  using SafeMath for uint256;\n\n  DBInterface public database;\n  Events public events;\n  CrowdsaleGeneratorETH_ERC20Burner public burner;\n\n  uint constant scalingFactor = 1e32;   // Used to avoid rounding errors\n\n  // @notice This contract\n  // @param: The address for the database contract used by this platform\n  constructor(address _database, address _events)\n  public{\n      database = DBInterface(_database);\n      events = Events(_events);\n      burner = CrowdsaleGeneratorETH_ERC20Burner(database.addressStorage(keccak256(abi.encodePacked(\"contract\", \"ERC20Burner\"))));\n  }\n\n  // @notice AssetManagers can initiate a crowdfund for a new asset here\n  // @dev the crowdsaleETH contract is granted rights to mint asset-tokens as it receives funding\n  // @param (string) _assetURI = The location where information about the asset can be found\n  // @param (bytes32) _operatorID = The ID of the operator who is to create and install this asset\n  // @param (uint) _fundingLength = The number of seconds this crowdsale is to go on for until it fails\n  // @param (uint) _amountToRaise = The amount of WEI required to raise for the crowdsale to be a success\n  // @param (uint) _assetManagerPerc = The percentage of the total revenue which is to go to the AssetManager if asset is a success\n  function createAssetOrderETH(string _assetURI, address _assetManager, bytes32 _operatorID, uint _fundingLength, uint _startTime, uint _amountToRaise, uint _assetManagerPerc, uint _escrow, address _burnToken)\n  external\n  payable\n  // burnRequired\n  returns (bool) {\n    if(_burnToken == address(0xEeeeeEeeeEeEeeEeEeEeeEEEeeeeEeeeeeeeEEeE)){\n      require(burner.burn.value(msg.value)(msg.sender, database.uintStorage(keccak256(abi.encodePacked(msg.sig, address(this)))), _burnToken));\n    } else {\n      require(burner.burn(msg.sender, database.uintStorage(keccak256(abi.encodePacked(msg.sig, address(this)))), _burnToken));\n    }\n    require(msg.sender == _assetManager || database.boolStorage(keccak256(abi.encodePacked(\"approval\", _assetManager, msg.sender, address(this), msg.sig))), \"User not approved\");\n    require(_amountToRaise > 0, \"Crowdsale goal is zero\");\n    require(_assetManagerPerc < 100, \"Manager percent need to be less than 100\");\n    require(database.boolStorage(keccak256(abi.encodePacked(\"operator.acceptsEther\", _operatorID))), \"Operator does not accept Ether\");\n    require(database.addressStorage(keccak256(abi.encodePacked(\"operator\", _operatorID))) != address(0), \"Operator does not exist\");\n    require(!database.boolStorage(keccak256(abi.encodePacked(\"asset.uri\", _assetURI))), \"Asset URI is not unique\"); //Check that asset URI is unique\n    uint startTime;\n    if(_startTime < now){\n      startTime = now;\n    } else {\n      startTime = _startTime;\n    }\n    address assetAddress = address(new DividendToken(_assetURI, database.addressStorage(keccak256(abi.encodePacked(\"contract\", \"CrowdsaleETH\")))));   // Gives this contract all new asset tokens\n    database.setUint(keccak256(abi.encodePacked(\"crowdsale.start\", assetAddress)), startTime);\n    database.setUint(keccak256(abi.encodePacked(\"crowdsale.deadline\", assetAddress)), startTime.add(_fundingLength));\n    database.setUint(keccak256(abi.encodePacked(\"asset.managerFee\", assetAddress)), _amountToRaise.mul(uint(100).mul(scalingFactor).div(uint(100).sub(_assetManagerPerc)).sub(scalingFactor)).div(scalingFactor));\n    database.setUint(keccak256(abi.encodePacked(\"crowdsale.goal\", assetAddress)), _amountToRaise);\n    database.setAddress(keccak256(abi.encodePacked(\"asset.manager\", assetAddress)), _assetManager);\n    database.setAddress(keccak256(abi.encodePacked(\"asset.operator\", assetAddress)), database.addressStorage(keccak256(abi.encodePacked(\"operator\", _operatorID))));\n    database.setBool(keccak256(abi.encodePacked(\"asset.uri\", _assetURI)), true); //Set to ensure a unique asset URI\n    //If escrow, lock\n    if(_escrow > 0){ require(lockEscrowInternal(_assetManager, assetAddress, _escrow));}\n    events.asset('Asset funding started', _assetURI, assetAddress, _assetManager);\n    return true;\n  }\n\n  // @notice platform owners can destroy contract here\n  function destroy()\n  onlyOwner\n  external {\n    events.transaction('CrowdsaleGeneratorETH destroyed', address(this), msg.sender, address(this).balance, '');\n    selfdestruct(msg.sender);\n  }\n\n  //////////////////////////////////////////////////////////////////////////////////////////////////////////////////\n  //                                            Internal/ Private Functions\n  //////////////////////////////////////////////////////////////////////////////////////////////////////////////////\n\n\n  function lockEscrowInternal(address _assetManager, address _assetAddress, uint _amount)\n  private\n  returns (bool) {\n    bytes32 assetManagerEscrowID = keccak256(abi.encodePacked(_assetAddress, _assetManager));\n    address platformToken = database.addressStorage(keccak256(abi.encodePacked(\"platform.token\")));\n    require(CrowdsaleGeneratorETH_ERC20(platformToken).transferFrom(_assetManager, database.addressStorage(keccak256(abi.encodePacked(\"contract\", \"AssetManagerEscrow\"))), _amount));\n    database.setUint(keccak256(abi.encodePacked(\"asset.escrow\", assetManagerEscrowID)), _amount);\n    database.setAddress(keccak256(abi.encodePacked(\"asset.manager\", _assetAddress)), _assetManager);\n    events.escrow('Escrow locked', _assetAddress, assetManagerEscrowID, _assetManager, _amount);\n    return true;\n  }\n\n  //////////////////////////////////////////////////////////////////////////////////////////////////////////////////\n  //                                            Modifiers\n  //////////////////////////////////////////////////////////////////////////////////////////////////////////////////\n\n\n  // // @notice reverts if asset manager is unable to burn pp\n  // modifier burnRequired {\n  //   //emit LogSig(msg.sig);\n  //   require(burner.burn(msg.sender, database.uintStorage(keccak256(abi.encodePacked(msg.sig, address(this))))));\n  //   _;\n  // }\n\n  // @notice Sender must be a registered owner\n  modifier onlyOwner {\n    require(database.boolStorage(keccak256(abi.encodePacked(\"owner\", msg.sender))), \"Not owner\");\n    _;\n  }\n\n  //////////////////////////////////////////////////////////////////////////////////////////////////////////////////\n  //                                            Events\n  //////////////////////////////////////////////////////////////////////////////////////////////////////////////////\n\n  //event LogAssetFundingStarted(bytes32 indexed _assetID, address indexed _assetManager, string _assetURI, address indexed _tokenAddress);\n  //event LogSig(bytes4 _sig);\n\n}\n",
  "sourcePath": "/home/peter/Documents/Work/MyBit/MyBit-Network.tech/contracts/crowdsale/CrowdsaleGeneratorETH.sol",
  "compiler": {
    "name": "solc",
    "version": "0.4.24+commit.e67f0147.Emscripten.clang"
  },
  "schemaVersion": "3.0.1",
  "updatedAt": "2019-03-13T22:36:34.051Z",
  "devdoc": {
    "methods": {}
  },
  "userdoc": {
    "methods": {}
  }
}