{
  "contractName": "CrowdsaleGeneratorERC20",
  "abi": [
    {
      "inputs": [
        {
          "name": "_database",
          "type": "address"
        },
        {
          "name": "_events",
          "type": "address"
        }
      ],
      "payable": false,
      "stateMutability": "nonpayable",
      "type": "constructor"
    },
    {
      "constant": false,
      "inputs": [
        {
          "name": "_assetURI",
          "type": "string"
        },
        {
          "name": "_assetManager",
          "type": "address"
        },
        {
          "name": "_operatorID",
          "type": "bytes32"
        },
        {
          "name": "_fundingLength",
          "type": "uint256"
        },
        {
          "name": "_startTime",
          "type": "uint256"
        },
        {
          "name": "_amountToRaise",
          "type": "uint256"
        },
        {
          "name": "_assetManagerPerc",
          "type": "uint256"
        },
        {
          "name": "_fundingToken",
          "type": "address"
        }
      ],
      "name": "createAssetOrderERC20",
      "outputs": [],
      "payable": false,
      "stateMutability": "nonpayable",
      "type": "function"
    },
    {
      "constant": false,
      "inputs": [],
      "name": "destroy",
      "outputs": [],
      "payable": false,
      "stateMutability": "nonpayable",
      "type": "function"
    }
  ],
  "bytecode": "0x608060405234801561001057600080fd5b50604051604080612f7a83398101604052805160209091015160008054600160a060020a03938416600160a060020a03199182161790915560018054939092169216919091179055612f13806100676000396000f3006080604052600436106100325763ffffffff60e060020a60003504166383197ef081146100375780638976d9c71461004e575b600080fd5b34801561004357600080fd5b5061004c610096565b005b34801561005a57600080fd5b5061004c6024600480358281019291013590600160a060020a03903581169060443590606435906084359060a4359060c4359060e43516610311565b600054604080517f6f776e65720000000000000000000000000000000000000000000000000000006020808301919091526c0100000000000000000000000033026025830152825160198184030181526039909201928390528151600160a060020a0390941693633b7bfda093918291908401908083835b6020831061012d5780518252601f19909201916020918201910161010e565b51815160209384036101000a60001901801990921691161790526040805192909401829003822063ffffffff881660e060020a0283526004830152925160248083019650939450929083900301905081600087803b15801561018e57600080fd5b505af11580156101a2573d6000803e3d6000fd5b505050506040513d60208110156101b857600080fd5b5051151561022757604080517f08c379a000000000000000000000000000000000000000000000000000000000815260206004820152600960248201527f4e6f74206f776e65720000000000000000000000000000000000000000000000604482015290519081900360640190fd5b600154604080517f68b96270000000000000000000000000000000000000000000000000000000008152306024820181905233604483015231606482015260a06004820152602160a48201527f43726f776473616c6547656e657261746f7245524332302064657374726f796560c48201527f640000000000000000000000000000000000000000000000000000000000000060e48201529051600160a060020a03909216916368b96270916101048082019260009290919082900301818387803b1580156102f557600080fd5b505af1158015610309573d6000803e3d6000fd5b503392505050ff5b600080808033600160a060020a038c16148061052d57506000809054906101000a9004600160a060020a0316600160a060020a0316633b7bfda08c33306000357fffffffff000000000000000000000000000000000000000000000000000000001660405160200180807f617070726f76616c00000000000000000000000000000000000000000000000081525060080185600160a060020a0316600160a060020a03166c0100000000000000000000000002815260140184600160a060020a0316600160a060020a03166c0100000000000000000000000002815260140183600160a060020a0316600160a060020a03166c01000000000000000000000000028152601401827bffffffffffffffffffffffffffffffffffffffffffffffffffffffff19167bffffffffffffffffffffffffffffffffffffffffffffffffffffffff191681526004019450505050506040516020818303038152906040526040518082805190602001908083835b6020831061049f5780518252601f199092019160209182019101610480565b51815160209384036101000a60001901801990921691161790526040805192909401829003822063ffffffff881660e060020a0283526004830152925160248083019650939450929083900301905081600087803b15801561050057600080fd5b505af1158015610514573d6000803e3d6000fd5b505050506040513d602081101561052a57600080fd5b50515b151561053857600080fd5b6000871161054557600080fd5b6064861061055257600080fd5b600054604080517f61636365707473546f6b656e0000000000000000000000000000000000000000602080830191909152602c82018e9052600160a060020a038981166c0100000000000000000000000002604c8401528351808403850181526060909301938490528251941693633b7bfda093918291908401908083835b602083106105f05780518252601f1990920191602091820191016105d1565b51815160209384036101000a60001901801990921691161790526040805192909401829003822063ffffffff881660e060020a0283526004830152925160248083019650939450929083900301905081600087803b15801561065157600080fd5b505af1158015610665573d6000803e3d6000fd5b505050506040513d602081101561067b57600080fd5b5051151561068857600080fd5b6000600160a060020a03166000809054906101000a9004600160a060020a0316600160a060020a03166304f49a3a8c60405160200180807f6f70657261746f7200000000000000000000000000000000000000000000000081525060080182600019166000191681526020019150506040516020818303038152906040526040518082805190602001908083835b602083106107355780518252601f199092019160209182019101610716565b51815160209384036101000a60001901801990921691161790526040805192909401829003822063ffffffff881660e060020a0283526004830152925160248083019650939450929083900301905081600087803b15801561079657600080fd5b505af11580156107aa573d6000803e3d6000fd5b505050506040513d60208110156107c057600080fd5b5051600160a060020a031614156107d657600080fd5b428810156107e6574293506107ea565b8793505b33878b8f8f6040516020018086600160a060020a0316600160a060020a03166c0100000000000000000000000002815260140185815260200184600019166000191681526020018383808284378201915050955050505050506040516020818303038152906040526040518082805190602001908083835b602083106108815780518252601f199092019160209182019101610862565b51815160209384036101000a6000190180199092169116179052604080519290940182900382206000547f66756e64696e67446561646c696e65000000000000000000000000000000000084840152602f80850183905286518086039091018152604f909401958690528351919a50600160a060020a0316965063a855d4ce9550919392508291908401908083835b6020831061092f5780518252601f199092019160209182019101610910565b51815160209384036101000a60001901801990921691161790526040805192909401829003822063ffffffff881660e060020a0283526004830152925160248083019650939450929083900301905081600087803b15801561099057600080fd5b505af11580156109a4573d6000803e3d6000fd5b505050506040513d60208110156109ba57600080fd5b5051156109c657600080fd5b8c8c6000809054906101000a9004600160a060020a0316600160a060020a03166304f49a3a60405160200180807f636f6e7472616374000000000000000000000000000000000000000000000000815250600801807f43726f776473616c654552433230000000000000000000000000000000000000815250600e0190506040516020818303038152906040526040518082805190602001908083835b60208310610a825780518252601f199092019160209182019101610a63565b51815160209384036101000a60001901801990921691161790526040805192909401829003822063ffffffff881660e060020a0283526004830152925160248083019650939450929083900301905081600087803b158015610ae357600080fd5b505af1158015610af7573d6000803e3d6000fd5b505050506040513d6020811015610b0d57600080fd5b505187610b18611871565b600160a060020a03808416602083015282166040820152606080825281018490528060808101868680828437820191505095505050505050604051809103906000f080158015610b6c573d6000803e3d6000fd5b50600054604080517f737461727454696d6500000000000000000000000000000000000000000000006020808301919091526029808301899052835180840390910181526049909201928390528151949650600160a060020a039093169363e2a4853a939192918291908401908083835b60208310610bfc5780518252601f199092019160209182019101610bdd565b5181516020939093036101000a60001901801990911692169190911790526040805191909301819003812063ffffffff871660e060020a0282526004820152602481018b9052915160448084019550600094509092839003019050818387803b158015610c6857600080fd5b505af1158015610c7c573d6000803e3d6000fd5b5050600054604080517f66756e64696e67446561646c696e650000000000000000000000000000000000602080830191909152602f8083018a905283518084039091018152604f909201928390528151600160a060020a03909416955063e2a4853a9450909282918401908083835b60208310610d0a5780518252601f199092019160209182019101610ceb565b6001836020036101000a0380198251168184511680821785525050505050509050019150506040518091039020610d4a8c8861180590919063ffffffff16565b6040518363ffffffff1660e060020a02815260040180836000191660001916815260200182815260200192505050600060405180830381600087803b158015610d9257600080fd5b505af1158015610da6573d6000803e3d6000fd5b50505050610e2c6d04ee2d6d415b85acef8100000000610e07610e1f6d04ee2d6d415b85acef8100000000610e13610de88c606461181f90919063ffffffff16565b610e0760646d04ee2d6d415b85acef810000000063ffffffff61183116565b9063ffffffff61185c16565b9063ffffffff61181f16565b8a9063ffffffff61183116565b600054604080517f616d6f756e74546f526169736500000000000000000000000000000000000000602080830191909152602d80830189905283518084039091018152604d909201928390528151949550600160a060020a039093169363e2a4853a939192918291908401908083835b60208310610ebb5780518252601f199092019160209182019101610e9c565b5181516020939093036101000a60001901801990911692169190911790526040805191909301819003812063ffffffff871660e060020a0282526004820152602481018e9052915160448084019550600094509092839003019050818387803b158015610f2757600080fd5b505af1158015610f3b573d6000803e3d6000fd5b5050600054604080517f61737365744d616e616765724665650000000000000000000000000000000000602080830191909152602f8083018a905283518084039091018152604f909201928390528151600160a060020a03909416955063e2a4853a9450909282918401908083835b60208310610fc95780518252601f199092019160209182019101610faa565b5181516020939093036101000a60001901801990911692169190911790526040805191909301819003812063ffffffff871660e060020a028252600482015260248101889052915160448084019550600094509092839003019050818387803b15801561103557600080fd5b505af1158015611049573d6000803e3d6000fd5b5050600054604080517f746f6b656e416464726573730000000000000000000000000000000000000000602080830191909152602c8083018a905283518084039091018152604c909201928390528151600160a060020a03909416955063ca446dd99450909282918401908083835b602083106110d75780518252601f1990920191602091820191016110b8565b5181516020939093036101000a60001901801990911692169190911790526040805191909301819003812063ffffffff871660e060020a0282526004820152600160a060020a0389166024820152915160448084019550600094509092839003019050818387803b15801561114b57600080fd5b505af115801561115f573d6000803e3d6000fd5b5050600054604080517f6173736574546f6b656e49440000000000000000000000000000000000000000602080830191909152600160a060020a038881166c0100000000000000000000000002602c84015283518084038301815292840193849052825194169550634e91db089450909282918401908083835b602083106111f85780518252601f1990920191602091820191016111d9565b5181516020939093036101000a60001901801990911692169190911790526040805191909301819003812063ffffffff871660e060020a0282526004820152602481018a9052915160448084019550600094509092839003019050818387803b15801561126457600080fd5b505af1158015611278573d6000803e3d6000fd5b5050600054604080517f61737365744d616e616765720000000000000000000000000000000000000000602080830191909152602c8083018a905283518084039091018152604c909201928390528151600160a060020a03909416955063ca446dd99450909282918401908083835b602083106113065780518252601f1990920191602091820191016112e7565b5181516020939093036101000a60001901801990911692169190911790526040805191909301819003812063ffffffff871660e060020a0282526004820152336024820152915160448084019550600094509092839003019050818387803b15801561137157600080fd5b505af1158015611385573d6000803e3d6000fd5b5050600054604080517f6f70657261746f7200000000000000000000000000000000000000000000000060208083019190915260288083018a9052835180840390910181526048909201928390528151600160a060020a03909416955063ca446dd99450909282918401908083835b602083106114135780518252601f1990920191602091820191016113f4565b6001836020036101000a03801982511681845116808217855250505050505090500191505060405180910390206000809054906101000a9004600160a060020a0316600160a060020a03166304f49a3a8e60405160200180807f6f70657261746f7200000000000000000000000000000000000000000000000081525060080182600019166000191681526020019150506040516020818303038152906040526040518082805190602001908083835b602083106114e25780518252601f1990920191602091820191016114c3565b51815160209384036101000a60001901801990921691161790526040805192909401829003822063ffffffff881660e060020a0283526004830152925160248083019650939450929083900301905081600087803b15801561154357600080fd5b505af1158015611557573d6000803e3d6000fd5b505050506040513d602081101561156d57600080fd5b50516040805160e060020a63ffffffff86160281526004810193909352600160a060020a03909116602483015251604480830192600092919082900301818387803b1580156115bb57600080fd5b505af11580156115cf573d6000803e3d6000fd5b5050600054604080517f66756e64696e67546f6b656e0000000000000000000000000000000000000000602080830191909152602c8083018a905283518084039091018152604c909201928390528151600160a060020a03909416955063ca446dd99450909282918401908083835b6020831061165d5780518252601f19909201916020918201910161163e565b5181516020939093036101000a60001901801990911692169190911790526040805191909301819003812063ffffffff871660e060020a0282526004820152600160a060020a038c166024820152915160448084019550600094509092839003019050818387803b1580156116d157600080fd5b505af11580156116e5573d6000803e3d6000fd5b50505050600160009054906101000a9004600160a060020a0316600160a060020a03166377f7b7a78e8e8686336040518663ffffffff1660e060020a028152600401808060200180602001866000191660001916815260200185600160a060020a0316600160a060020a0316815260200184600160a060020a0316600160a060020a03168152602001838103835260158152602001807f41737365742066756e64696e672073746172746564000000000000000000000081525060200183810382528888828181526020019250808284378201915050975050505050505050600060405180830381600087803b1580156117de57600080fd5b505af11580156117f2573d6000803e3d6000fd5b5050505050505050505050505050505050565b60008282018381101561181457fe5b8091505b5092915050565b60008282111561182b57fe5b50900390565b6000808315156118445760009150611818565b5082820282848281151561185457fe5b041461181457fe5b6000818381151561186957fe5b049392505050565b6040516116668061188283390190560060806040523480156200001157600080fd5b50604051620016663803806200166683398101604090815281516020808401519284015191909301805190938491849162000052916004918501906200009c565b506003805461010060a860020a031916610100600160a060020a0393841602179055600060025560058054600160a060020a03191693909116929092179091555062000141915050565b828054600181600116156101000203166002900490600052602060002090601f016020900481019282601f10620000df57805160ff19168380011785556200010f565b828001600101855582156200010f579182015b828111156200010f578251825591602001919060010190620000f2565b506200011d92915062000121565b5090565b6200013e91905b808211156200011d576000815560010162000128565b90565b61151580620001516000396000f3006080604052600436106101485763ffffffff7c010000000000000000000000000000000000000000000000000000000060003504166305d2035b811461014d578063095ea7b31461017657806318160ddd1461019a57806323b872dd146101c15780632ba1b3a1146101eb5780632da208e51461020057806330d0e75f146102155780633bdfa9201461022c5780633ccfd60b1461024d57806340c10f19146102625780634ece90a81461028657806352ff7fa9146102b757806355ed47c9146102cf57806366188463146102f057806370a0823114610314578063785e9e86146103355780637d64bcb41461034a578063a8fa8e521461035f578063a9059cbb14610374578063b8c8e1e614610398578063cae9ca51146103b9578063d4a1911614610422578063d73dd623146104ac578063dd62ed3e146104d0578063efcb5dea146104f7575b600080fd5b34801561015957600080fd5b50610162610518565b604080519115158252519081900360200190f35b34801561018257600080fd5b50610162600160a060020a0360043516602435610521565b3480156101a657600080fd5b506101af610575565b60408051918252519081900360200190f35b3480156101cd57600080fd5b50610162600160a060020a036004358116906024351660443561057b565b3480156101f757600080fd5b506101af61063c565b34801561020c57600080fd5b506101af610642565b34801561022157600080fd5b5061022a610648565b005b34801561023857600080fd5b506101af600160a060020a03600435166107ac565b34801561025957600080fd5b506101626107f8565b34801561026e57600080fd5b50610162600160a060020a0360043516602435610967565b34801561029257600080fd5b5061029b610a70565b60408051600160a060020a039092168252519081900360200190f35b3480156102c357600080fd5b50610162600435610a7f565b3480156102db57600080fd5b506101af600160a060020a0360043516610c7b565b3480156102fc57600080fd5b50610162600160a060020a0360043516602435610cdd565b34801561032057600080fd5b506101af600160a060020a0360043516610dbc565b34801561034157600080fd5b5061029b610dd7565b34801561035657600080fd5b50610162610de6565b34801561036b57600080fd5b506101af610e52565b34801561038057600080fd5b50610162600160a060020a0360043516602435610e58565b3480156103a457600080fd5b506101af600160a060020a0360043516610ef2565b3480156103c557600080fd5b50604080516020600460443581810135601f8101849004840285018401909552848452610162948235600160a060020a0316946024803595369594606494920191908190840183828082843750949750610f049650505050505050565b34801561042e57600080fd5b506104376110ba565b6040805160208082528351818301528351919283929083019185019080838360005b83811015610471578181015183820152602001610459565b50505050905090810190601f16801561049e5780820380516001836020036101000a031916815260200191505b509250505060405180910390f35b3480156104b857600080fd5b50610162600160a060020a0360043516602435611150565b3480156104dc57600080fd5b506101af600160a060020a03600435811690602435166111d7565b34801561050357600080fd5b506101af600160a060020a0360043516611202565b60035460ff1681565b336000818152600160209081526040808320600160a060020a038716808552908352818420869055815186815291519394909390926000805160206114ca833981519152928290030190a350600192915050565b60025490565b6000836105af61058a82610c7b565b600160a060020a0383166000908152600960205260409020549063ffffffff61121416565b600160a060020a038216600090815260096020908152604080832093909355600854600a90915291902055836105e761058a82610c7b565b600160a060020a03808316600090815260096020908152604080832094909455600854600a90915292902091909155851630141561062457600080fd5b61062f868686611223565b5060019695505050505050565b60065481565b60075481565b600080600061066460075460065461139890919063ffffffff16565b600554604080517f70a082310000000000000000000000000000000000000000000000000000000081523060048201529051929550600160a060020a03909116916370a08231916024808201926020929091908290030181600087803b1580156106cd57600080fd5b505af11580156106e1573d6000803e3d6000fd5b505050506040513d60208110156106f757600080fd5b5051915061070b828463ffffffff61139816565b905060008111156107745760025461075a9061074b9061073f846d04ee2d6d415b85acef810000000063ffffffff6113aa16565b9063ffffffff6113d516565b6008549063ffffffff61121416565b600855600654610770908263ffffffff61121416565b6006555b6040805182815290517f0d7ab7150531466ac81cc2479d86788246bab0e9cc606a06ec6af5c8ab0d6f8e9181900360200190a1505050565b600160a060020a0381166000908152600960205260408120546107f2906d04ee2d6d415b85acef81000000009061073f906107e686610c7b565b9063ffffffff61121416565b92915050565b6000803361080861058a82610c7b565b600160a060020a038216600090815260096020818152604080842094909455600854600a825284842055338352522054610856906d04ee2d6d415b85acef810000000063ffffffff6113d516565b3360009081526009602052604081205560075490925061087c908363ffffffff61121416565b600755600554604080517fa9059cbb000000000000000000000000000000000000000000000000000000008152336004820152602481018590529051600160a060020a039092169163a9059cbb916044808201926020929091908290030181600087803b1580156108ec57600080fd5b505af1158015610900573d6000803e3d6000fd5b505050506040513d602081101561091657600080fd5b5051151561092357600080fd5b604080513381526020810184905281517ff5b510c554f6c572235f7e531ec8f287b350b15c212250b993180473a6aeb7d1929181900390910190a160019250505090565b60035460009060ff1615801561098c57506003546101009004600160a060020a031633145b151561099757600080fd5b6002546109aa908363ffffffff61121416565b600255600160a060020a0383166000908152602081905260409020546109d6908363ffffffff61121416565b600160a060020a03841660008181526020818152604091829020939093558051858152905191927f0f6798a560793a54c3bcfe86a93cde1e73087d944c0ea20544137d412139688592918290030190a2604080518381529051600160a060020a038516916000917fddf252ad1be2c89b69c2b068fc378daa952ba7f163c4a11628f55a4df523b3ef9181900360200190a350600192915050565b600554600160a060020a031690565b6000808211610aef57604080517f08c379a000000000000000000000000000000000000000000000000000000000815260206004820152601060248201527f43616e6e6f742073656e64207a65726f00000000000000000000000000000000604482015290519081900360640190fd5b600554604080517f23b872dd000000000000000000000000000000000000000000000000000000008152336004820152306024820152604481018590529051600160a060020a03909216916323b872dd916064808201926020929091908290030181600087803b158015610b6257600080fd5b505af1158015610b76573d6000803e3d6000fd5b505050506040513d6020811015610b8c57600080fd5b50511515610bfb57604080517f08c379a000000000000000000000000000000000000000000000000000000000815260206004820152600f60248201527f5472616e73666572206661696c65640000000000000000000000000000000000604482015290519081900360640190fd5b600254610c249061074b9061073f856d04ee2d6d415b85acef810000000063ffffffff6113aa16565b600855600654610c3a908363ffffffff61121416565b60065560408051838152905133917fe3166012cb87b3dec8e117fe0e096a47387f94ea2ec12086ed8ae24ff8c237fe919081900360200190a2506001919050565b600160a060020a0381166000908152600a60205260408120546008548291610ca9919063ffffffff61139816565b600160a060020a038416600090815260208190526040902054909150610cd690829063ffffffff6113aa16565b9392505050565b336000908152600160209081526040808320600160a060020a0386168452909152812054808310610d3157336000908152600160209081526040808320600160a060020a0388168452909152812055610d66565b610d41818463ffffffff61139816565b336000908152600160209081526040808320600160a060020a03891684529091529020555b336000818152600160209081526040808320600160a060020a0389168085529083529281902054815190815290519293926000805160206114ca833981519152929181900390910190a3600191505b5092915050565b600160a060020a031660009081526020819052604090205490565b600554600160a060020a031681565b60035460009060ff16158015610e0b57506003546101009004600160a060020a031633145b1515610e1657600080fd5b6003805460ff191660011790556040517fae5184fba832cb2b1f702aca6117b8d265eaf03ad33eb133f19dde0f5920fa0890600090a150600190565b60085481565b600033610e6761058a82610c7b565b600160a060020a038216600090815260096020908152604080832093909355600854600a9091529190205583610e9f61058a82610c7b565b600160a060020a03808316600090815260096020908152604080832094909455600854600a909152929020919091558516301415610edc57600080fd5b610ee685856113ea565b50600195945050505050565b60096020526000908152604090205481565b600033610f1361058a82610c7b565b600160a060020a038216600090815260096020908152604080832093909355600854600a9091529190205584610f4b61058a82610c7b565b600160a060020a03808316600090815260096020908152604080832094909455600854600a8252848320553380835260018252848320938b168084529382529184902089905583518981529351929391926000805160206114ca8339815191529281900390910190a36040517f8f4ffcb10000000000000000000000000000000000000000000000000000000081523360048201818152602483018890523060448401819052608060648501908152885160848601528851600160a060020a038c1695638f4ffcb195948c94938c939192909160a490910190602085019080838360005b8381101561104757818101518382015260200161102f565b50505050905090810190601f1680156110745780820380516001836020036101000a031916815260200191505b5095505050505050600060405180830381600087803b15801561109657600080fd5b505af11580156110aa573d6000803e3d6000fd5b5060019998505050505050505050565b60048054604080516020601f60026000196101006001881615020190951694909404938401819004810282018101909252828152606093909290918301828280156111465780601f1061111b57610100808354040283529160200191611146565b820191906000526020600020905b81548152906001019060200180831161112957829003601f168201915b5050505050905090565b336000908152600160209081526040808320600160a060020a0386168452909152812054611184908363ffffffff61121416565b336000818152600160209081526040808320600160a060020a0389168085529083529281902085905580519485525191936000805160206114ca833981519152929081900390910190a350600192915050565b600160a060020a03918216600090815260016020908152604080832093909416825291909152205490565b600a6020526000908152604090205481565b600082820183811015610cd657fe5b600160a060020a03831660009081526020819052604081205482111561124857600080fd5b600160a060020a038416600090815260016020908152604080832033845290915290205482111561127857600080fd5b600160a060020a038316151561128d57600080fd5b600160a060020a0384166000908152602081905260409020546112b6908363ffffffff61139816565b600160a060020a0380861660009081526020819052604080822093909355908516815220546112eb908363ffffffff61121416565b600160a060020a0380851660009081526020818152604080832094909455918716815260018252828120338252909152205461132d908363ffffffff61139816565b600160a060020a03808616600081815260016020908152604080832033845282529182902094909455805186815290519287169391927fddf252ad1be2c89b69c2b068fc378daa952ba7f163c4a11628f55a4df523b3ef929181900390910190a35060019392505050565b6000828211156113a457fe5b50900390565b6000808315156113bd5760009150610db5565b508282028284828115156113cd57fe5b0414610cd657fe5b600081838115156113e257fe5b049392505050565b3360009081526020819052604081205482111561140657600080fd5b600160a060020a038316151561141b57600080fd5b3360009081526020819052604090205461143b908363ffffffff61139816565b3360009081526020819052604080822092909255600160a060020a0385168152205461146d908363ffffffff61121416565b600160a060020a038416600081815260208181526040918290209390935580518581529051919233927fddf252ad1be2c89b69c2b068fc378daa952ba7f163c4a11628f55a4df523b3ef9281900390910190a35060019291505056008c5be1e5ebec7d5bd14f71427d1e84f3dd0314c0f7b2291e5b200ac8c7c3b925a165627a7a7230582081a9375505222bd1fb4ce93635a28eeb6040a59d7e13d3eec5a194649164caa90029a165627a7a72305820a51d94baed6a61368cfe6eb9233bc75c47d86891b3502b28272bb6fd47dd12a30029",
  "source": " pragma solidity ^0.4.24;\n\nimport \"../math/SafeMath.sol\";\nimport \"../interfaces/DBInterface.sol\";\n// import \"../access/ERC20Burner.sol\";\nimport \"../tokens/erc20/DividendTokenERC20.sol\";\nimport \"../database/Events.sol\";\n\n// @title A crowdsale generator contract\n// @author Kyle Dewhurst & Peter Phillips, MyBit Foundation\n// @notice AssetManagers can initiate a crowdsale that accepts ERC20 tokens as payment here\ncontract CrowdsaleGeneratorERC20 {\n  using SafeMath for uint256;\n\n  DBInterface private database;\n  Events private events;\n  // ERC20Burner private burner;\n\n  uint constant scalingFactor = 10**32;\n\n  // @notice This contract\n  // @param: The address for the database contract used by this platform\n  constructor(address _database, address _events)\n  public{\n      database = DBInterface(_database);\n      events = Events(_events);\n      // burner = ERC20Burner(database.addressStorage(keccak256(abi.encodePacked(\"contract\", \"ERC20Burner\"))));\n  }\n\n  // @notice AssetManagers can initiate a crowdfund for a new asset here\n  // @dev the crowdsaleERC20 contract is granted rights to mint asset-tokens as it receives funding\n  // @param (string) _assetURI = The location where information about the asset can be found\n  // @param (bytes32) _operatorID = The ID of the operator who is to create and install this asset\n  // @param (uint) _fundingLength = The number of seconds this crowdsale is to go on for until it fails\n  // @param (uint) _startTime = The timestamp at which funding for this asset begins\n  // @param (uint) _amountToRaise = The amount of tokens required to raise for the crowdsale to be a success\n  // @param (uint) _assetManagerPerc = The percentage of the total revenue which is to go to the AssetManager if asset is a success\n  // @param (address) _fundingToken = The ERC20 token to be used to fund the crowdsale (Operator must accept this token as payment)\n  function createAssetOrderERC20(string _assetURI, address _assetManager, bytes32 _operatorID, uint _fundingLength, uint _startTime, uint _amountToRaise, uint _assetManagerPerc, address _fundingToken)\n  external\n  // burnRequired\n  {\n    require(msg.sender == _assetManager || database.boolStorage(keccak256(abi.encodePacked(\"approval\", _assetManager, msg.sender, address(this), msg.sig))));\n    require(_amountToRaise > 0);\n    require(_assetManagerPerc < 100);\n    require(database.boolStorage(keccak256(abi.encodePacked(\"acceptsToken\", _operatorID, _fundingToken))));\n    require(database.addressStorage(keccak256(abi.encodePacked(\"operator\", _operatorID))) != address(0));\n    uint startTime;\n    if(_startTime < now){\n      startTime = now;\n    } else {\n      startTime = _startTime;\n    }\n    bytes32 assetID = keccak256(abi.encodePacked(msg.sender, _amountToRaise, _operatorID, _assetURI));\n    require(database.uintStorage(keccak256(abi.encodePacked(\"fundingDeadline\", assetID))) == 0);\n    address assetAddress = address(new DividendTokenERC20(_assetURI, database.addressStorage(keccak256(abi.encodePacked(\"contract\", \"CrowdsaleERC20\"))), _fundingToken));\n    database.setUint(keccak256(abi.encodePacked(\"startTime\", assetID)), startTime);\n    database.setUint(keccak256(abi.encodePacked(\"fundingDeadline\", assetID)), startTime.add(_fundingLength));\n    uint assetManagerFee = _amountToRaise.mul(uint(100).mul(scalingFactor).div(uint(100).sub(_assetManagerPerc)).sub(scalingFactor)).div(scalingFactor);\n    database.setUint(keccak256(abi.encodePacked(\"amountToRaise\", assetID)), _amountToRaise);\n    database.setUint(keccak256(abi.encodePacked(\"assetManagerFee\", assetID)), assetManagerFee);\n    database.setAddress(keccak256(abi.encodePacked(\"tokenAddress\", assetID)), assetAddress);\n    database.setBytes32(keccak256(abi.encodePacked(\"assetTokenID\", assetAddress)), assetID);\n    database.setAddress(keccak256(abi.encodePacked(\"assetManager\", assetID)), msg.sender);\n    database.setAddress(keccak256(abi.encodePacked(\"operator\", assetID)), database.addressStorage(keccak256(abi.encodePacked(\"operator\", _operatorID))));\n    database.setAddress(keccak256(abi.encodePacked(\"fundingToken\", assetID)), _fundingToken);\n    events.asset('Asset funding started', _assetURI, assetID, assetAddress, msg.sender);\n  }\n\n  // @notice platform owners can destroy contract here\n  function destroy()\n  onlyOwner\n  external {\n    events.transaction('CrowdsaleGeneratorERC20 destroyed', address(this), msg.sender, address(this).balance, '');\n    selfdestruct(msg.sender);\n  }\n\n\n  //////////////////////////////////////////////////////////////////////////////////////////////////////////////////\n  //                                            Modifiers\n  //////////////////////////////////////////////////////////////////////////////////////////////////////////////////\n\n  // // @notice reverts if AssetManager hasn't approved burner to burn platform token\n  // modifier burnRequired {\n  //   //emit LogSig(msg.sig);\n  //   require(burner.burn(msg.sender, database.uintStorage(keccak256(abi.encodePacked(msg.sig, address(this))))));\n  //   _;\n  // }\n\n  // @notice Sender must be a registered owner\n  modifier onlyOwner {\n    require(database.boolStorage(keccak256(abi.encodePacked(\"owner\", msg.sender))), \"Not owner\");\n    _;\n  }\n\n  //////////////////////////////////////////////////////////////////////////////////////////////////////////////////\n  //                                            Events\n  //////////////////////////////////////////////////////////////////////////////////////////////////////////////////\n\n  //event LogAssetFundingStarted(bytes32 indexed _assetID, address indexed _assetManager, string _assetURI, address indexed _tokenAddress);\n  //event LogSig(bytes4 _sig);\n}\n",
  "sourcePath": "/home/peter/Documents/Work/MyBit/MyBit-Network.tech/contracts/crowdsale/CrowdsaleGeneratorERC20.sol",
  "compiler": {
    "name": "solc",
    "version": "0.4.24+commit.e67f0147.Emscripten.clang"
  },
  "schemaVersion": "2.0.1",
  "updatedAt": "2018-12-05T20:40:37.228Z"
}