{
  "contractName": "CrowdsaleEther",
  "abi": [
    {
      "constant": true,
      "inputs": [],
      "name": "database",
      "outputs": [
        {
          "name": "",
          "type": "address"
        }
      ],
      "payable": false,
      "stateMutability": "view",
      "type": "function"
    },
    {
      "inputs": [
        {
          "name": "_database",
          "type": "address"
        }
      ],
      "payable": false,
      "stateMutability": "nonpayable",
      "type": "constructor"
    },
    {
      "payable": true,
      "stateMutability": "payable",
      "type": "fallback"
    },
    {
      "anonymous": false,
      "inputs": [
        {
          "indexed": true,
          "name": "_assetID",
          "type": "bytes32"
        },
        {
          "indexed": true,
          "name": "_broker",
          "type": "address"
        },
        {
          "indexed": false,
          "name": "_tokenURI",
          "type": "string"
        },
        {
          "indexed": true,
          "name": "_tokenAddress",
          "type": "address"
        }
      ],
      "name": "LogAssetFundingStarted",
      "type": "event"
    },
    {
      "anonymous": false,
      "inputs": [
        {
          "indexed": true,
          "name": "_assetID",
          "type": "bytes32"
        },
        {
          "indexed": true,
          "name": "_sender",
          "type": "address"
        },
        {
          "indexed": false,
          "name": "_amount",
          "type": "uint256"
        }
      ],
      "name": "LogAssetPurchased",
      "type": "event"
    },
    {
      "anonymous": false,
      "inputs": [
        {
          "indexed": true,
          "name": "_assetID",
          "type": "bytes32"
        },
        {
          "indexed": true,
          "name": "_funder",
          "type": "address"
        },
        {
          "indexed": false,
          "name": "_amount",
          "type": "uint256"
        }
      ],
      "name": "LogRefund",
      "type": "event"
    },
    {
      "anonymous": false,
      "inputs": [
        {
          "indexed": true,
          "name": "_assetID",
          "type": "bytes32"
        },
        {
          "indexed": true,
          "name": "_distributionContract",
          "type": "address"
        },
        {
          "indexed": false,
          "name": "_amount",
          "type": "uint256"
        }
      ],
      "name": "LogAssetPayout",
      "type": "event"
    },
    {
      "anonymous": false,
      "inputs": [
        {
          "indexed": false,
          "name": "_amountSent",
          "type": "uint256"
        },
        {
          "indexed": true,
          "name": "_caller",
          "type": "address"
        }
      ],
      "name": "LogDestruction",
      "type": "event"
    },
    {
      "constant": false,
      "inputs": [
        {
          "name": "_assetURI",
          "type": "string"
        },
        {
          "name": "_operatorID",
          "type": "bytes32"
        },
        {
          "name": "_fundingLength",
          "type": "uint256"
        },
        {
          "name": "_amountToRaise",
          "type": "uint256"
        },
        {
          "name": "_brokerFee",
          "type": "uint256"
        }
      ],
      "name": "startFundingPeriod",
      "outputs": [],
      "payable": false,
      "stateMutability": "nonpayable",
      "type": "function"
    },
    {
      "constant": false,
      "inputs": [
        {
          "name": "_assetID",
          "type": "bytes32"
        }
      ],
      "name": "buyAsset",
      "outputs": [
        {
          "name": "",
          "type": "bool"
        }
      ],
      "payable": true,
      "stateMutability": "payable",
      "type": "function"
    },
    {
      "constant": false,
      "inputs": [
        {
          "name": "_assetID",
          "type": "bytes32"
        }
      ],
      "name": "refund",
      "outputs": [
        {
          "name": "",
          "type": "bool"
        }
      ],
      "payable": false,
      "stateMutability": "nonpayable",
      "type": "function"
    },
    {
      "constant": false,
      "inputs": [],
      "name": "destroy",
      "outputs": [],
      "payable": false,
      "stateMutability": "nonpayable",
      "type": "function"
    }
  ],
  "bytecode": "0x608060405234801561001057600080fd5b50604051602080615c2183398101806040528101908080519060200190929190505050806000806101000a81548173ffffffffffffffffffffffffffffffffffffffff021916908373ffffffffffffffffffffffffffffffffffffffff16021790555050615b9e806100836000396000f30060806040526004361062000073576000357c0100000000000000000000000000000000000000000000000000000000900463ffffffff1680633f383ef51462000078578063713b563f14620000b65780637249fbb6146200011057806383197ef0146200015c578063ef9e16d31462000176575b600080fd5b6200009c6004803603810190808035600019169060200190929190505050620001e0565b604051808215151515815260200191505060405180910390f35b348015620000c357600080fd5b50620000ce62001364565b604051808273ffffffffffffffffffffffffffffffffffffffff1673ffffffffffffffffffffffffffffffffffffffff16815260200191505060405180910390f35b3480156200011d57600080fd5b5062000142600480360381019080803560001916906020019092919050505062001389565b604051808215151515815260200191505060405180910390f35b3480156200016957600080fd5b506200017462001cb3565b005b3480156200018357600080fd5b50620001de600480360381019080803590602001908201803590602001919091929391929390803560001916906020019092919080359060200190929190803590602001909291908035906020019092919050505062001ef9565b005b60008060008060008060008034111515620001fa57600080fd5b876000809054906101000a900473ffffffffffffffffffffffffffffffffffffffff1673ffffffffffffffffffffffffffffffffffffffff1663a855d4ce8260405160200180807f66756e64696e67446561646c696e650000000000000000000000000000000000815250600f0182600019166000191681526020019150506040516020818303038152906040526040518082805190602001908083835b602083101515620002bf578051825260208201915060208101905060208303925062000298565b6001836020036101000a03801982511681845116808217855250505050505090500191505060405180910390206040518263ffffffff167c0100000000000000000000000000000000000000000000000000000000028152600401808260001916600019168152602001915050602060405180830381600087803b1580156200034757600080fd5b505af11580156200035c573d6000803e3d6000fd5b505050506040513d60208110156200037357600080fd5b810190808051906020019092919050505042111515156200039357600080fd5b886000809054906101000a900473ffffffffffffffffffffffffffffffffffffffff1673ffffffffffffffffffffffffffffffffffffffff16633b7bfda08260405160200180807f63726f776473616c6546696e697368656400000000000000000000000000000081525060110182600019166000191681526020019150506040516020818303038152906040526040518082805190602001908083835b60208310151562000458578051825260208201915060208101905060208303925062000431565b6001836020036101000a03801982511681845116808217855250505050505090500191505060405180910390206040518263ffffffff167c0100000000000000000000000000000000000000000000000000000000028152600401808260001916600019168152602001915050602060405180830381600087803b158015620004e057600080fd5b505af1158015620004f5573d6000803e3d6000fd5b505050506040513d60208110156200050c57600080fd5b81019080805190602001909291905050501515156200052a57600080fd5b6000809054906101000a900473ffffffffffffffffffffffffffffffffffffffff1673ffffffffffffffffffffffffffffffffffffffff166304f49a3a8b60405160200180807f746f6b656e416464726573730000000000000000000000000000000000000000815250600c0182600019166000191681526020019150506040516020818303038152906040526040518082805190602001908083835b602083101515620005ee5780518252602082019150602081019050602083039250620005c7565b6001836020036101000a03801982511681845116808217855250505050505090500191505060405180910390206040518263ffffffff167c0100000000000000000000000000000000000000000000000000000000028152600401808260001916600019168152602001915050602060405180830381600087803b1580156200067657600080fd5b505af11580156200068b573d6000803e3d6000fd5b505050506040513d6020811015620006a257600080fd5b810190808051906020019092919050505097506000809054906101000a900473ffffffffffffffffffffffffffffffffffffffff1673ffffffffffffffffffffffffffffffffffffffff1663a855d4ce8b60405160200180807f62726f6b6572466565000000000000000000000000000000000000000000000081525060090182600019166000191681526020019150506040516020818303038152906040526040518082805190602001908083835b60208310151562000779578051825260208201915060208101905060208303925062000752565b6001836020036101000a03801982511681845116808217855250505050505090500191505060405180910390206040518263ffffffff167c0100000000000000000000000000000000000000000000000000000000028152600401808260001916600019168152602001915050602060405180830381600087803b1580156200080157600080fd5b505af115801562000816573d6000803e3d6000fd5b505050506040513d60208110156200082d57600080fd5b810190808051906020019092919050505096506200085687606462002d7e90919063ffffffff16565b95506000809054906101000a900473ffffffffffffffffffffffffffffffffffffffff1673ffffffffffffffffffffffffffffffffffffffff1663a855d4ce8b60405160200180807f616d6f756e74546f526169736500000000000000000000000000000000000000815250600d0182600019166000191681526020019150506040516020818303038152906040526040518082805190602001908083835b6020831015156200091c5780518252602082019150602081019050602083039250620008f5565b6001836020036101000a03801982511681845116808217855250505050505090500191505060405180910390206040518263ffffffff167c0100000000000000000000000000000000000000000000000000000000028152600401808260001916600019168152602001915050602060405180830381600087803b158015620009a457600080fd5b505af1158015620009b9573d6000803e3d6000fd5b505050506040513d6020811015620009d057600080fd5b8101908080519060200190929190505050945062000ac28873ffffffffffffffffffffffffffffffffffffffff166318160ddd6040518163ffffffff167c0100000000000000000000000000000000000000000000000000000000028152600401602060405180830381600087803b15801562000a4c57600080fd5b505af115801562000a61573d6000803e3d6000fd5b505050506040513d602081101562000a7857600080fd5b810190808051906020019092919050505062000ab3606462000aa48a8a62002d9890919063ffffffff16565b62002dd790919063ffffffff16565b62002d7e90919063ffffffff16565b93508362000aef606462000ae0893462002d9890919063ffffffff16565b62002dd790919063ffffffff16565b101515620011e9576000809054906101000a900473ffffffffffffffffffffffffffffffffffffffff1673ffffffffffffffffffffffffffffffffffffffff1663abfdcced8b60405160200180807f63726f776473616c6546696e697368656400000000000000000000000000000081525060110182600019166000191681526020019150506040516020818303038152906040526040518082805190602001908083835b60208310151562000bbb578051825260208201915060208101905060208303925062000b94565b6001836020036101000a038019825116818451168082178552505050505050905001915050604051809103902060016040518363ffffffff167c01000000000000000000000000000000000000000000000000000000000281526004018083600019166000191681526020018215151515815260200192505050600060405180830381600087803b15801562000c5057600080fd5b505af115801562000c65573d6000803e3d6000fd5b505050508773ffffffffffffffffffffffffffffffffffffffff166340c10f1933866040518363ffffffff167c0100000000000000000000000000000000000000000000000000000000028152600401808373ffffffffffffffffffffffffffffffffffffffff1673ffffffffffffffffffffffffffffffffffffffff16815260200182815260200192505050602060405180830381600087803b15801562000d0d57600080fd5b505af115801562000d22573d6000803e3d6000fd5b505050506040513d602081101562000d3957600080fd5b8101908080519060200190929190505050151562000d5657600080fd5b62000d80606462000d71898862002d9890919063ffffffff16565b62002dd790919063ffffffff16565b92508773ffffffffffffffffffffffffffffffffffffffff166340c10f196000809054906101000a900473ffffffffffffffffffffffffffffffffffffffff1673ffffffffffffffffffffffffffffffffffffffff166304f49a3a8d60405160200180807f62726f6b6572000000000000000000000000000000000000000000000000000081525060060182600019166000191681526020019150506040516020818303038152906040526040518082805190602001908083835b60208310151562000e62578051825260208201915060208101905060208303925062000e3b565b6001836020036101000a03801982511681845116808217855250505050505090500191505060405180910390206040518263ffffffff167c0100000000000000000000000000000000000000000000000000000000028152600401808260001916600019168152602001915050602060405180830381600087803b15801562000eea57600080fd5b505af115801562000eff573d6000803e3d6000fd5b505050506040513d602081101562000f1657600080fd5b8101908080519060200190929190505050856040518363ffffffff167c0100000000000000000000000000000000000000000000000000000000028152600401808373ffffffffffffffffffffffffffffffffffffffff1673ffffffffffffffffffffffffffffffffffffffff16815260200182815260200192505050602060405180830381600087803b15801562000fae57600080fd5b505af115801562000fc3573d6000803e3d6000fd5b505050506040513d602081101562000fda57600080fd5b8101908080519060200190929190505050151562000ff757600080fd5b8773ffffffffffffffffffffffffffffffffffffffff16637d64bcb46040518163ffffffff167c0100000000000000000000000000000000000000000000000000000000028152600401602060405180830381600087803b1580156200105c57600080fd5b505af115801562001071573d6000803e3d6000fd5b505050506040513d60208110156200108857600080fd5b81019080805190602001909291905050501515620010a557600080fd5b620011528a8973ffffffffffffffffffffffffffffffffffffffff166318160ddd6040518163ffffffff167c0100000000000000000000000000000000000000000000000000000000028152600401602060405180830381600087803b1580156200110f57600080fd5b505af115801562001124573d6000803e3d6000fd5b505050506040513d60208110156200113b57600080fd5b810190808051906020019092919050505062002dee565b15156200115e57600080fd5b3373ffffffffffffffffffffffffffffffffffffffff166108fc620011b6620011a6896200119760648a62002d9890919063ffffffff16565b62002dd790919063ffffffff16565b3462002d7e90919063ffffffff16565b9081150290604051600060405180830381858888f19350505050158015620011e2573d6000803e3d6000fd5b5062001300565b8773ffffffffffffffffffffffffffffffffffffffff166340c10f1933620012306064620012218b3462002d9890919063ffffffff16565b62002dd790919063ffffffff16565b6040518363ffffffff167c0100000000000000000000000000000000000000000000000000000000028152600401808373ffffffffffffffffffffffffffffffffffffffff1673ffffffffffffffffffffffffffffffffffffffff16815260200182815260200192505050602060405180830381600087803b158015620012b657600080fd5b505af1158015620012cb573d6000803e3d6000fd5b505050506040513d6020811015620012e257600080fd5b81019080805190602001909291905050501515620012ff57600080fd5b5b3373ffffffffffffffffffffffffffffffffffffffff168a600019167fc84c15778d9a99058c0a9fc10a64cca3a419418b5b1b695db6fc03df94252fe8346040518082815260200191505060405180910390a3600198505050505050505050919050565b6000809054906101000a900473ffffffffffffffffffffffffffffffffffffffff1681565b60008060008060009054906101000a900473ffffffffffffffffffffffffffffffffffffffff1673ffffffffffffffffffffffffffffffffffffffff16633b7bfda03060405160200180807f70617573656400000000000000000000000000000000000000000000000000008152506006018273ffffffffffffffffffffffffffffffffffffffff1673ffffffffffffffffffffffffffffffffffffffff166c010000000000000000000000000281526014019150506040516020818303038152906040526040518082805190602001908083835b6020831015156200148557805182526020820191506020810190506020830392506200145e565b6001836020036101000a03801982511681845116808217855250505050505090500191505060405180910390206040518263ffffffff167c0100000000000000000000000000000000000000000000000000000000028152600401808260001916600019168152602001915050602060405180830381600087803b1580156200150d57600080fd5b505af115801562001522573d6000803e3d6000fd5b505050506040513d60208110156200153957600080fd5b81019080805190602001909291905050501515156200155757600080fd5b836000809054906101000a900473ffffffffffffffffffffffffffffffffffffffff1673ffffffffffffffffffffffffffffffffffffffff1663a855d4ce8260405160200180807f66756e64696e67446561646c696e650000000000000000000000000000000000815250600f0182600019166000191681526020019150506040516020818303038152906040526040518082805190602001908083835b6020831015156200161c5780518252602082019150602081019050602083039250620015f5565b6001836020036101000a03801982511681845116808217855250505050505090500191505060405180910390206040518263ffffffff167c0100000000000000000000000000000000000000000000000000000000028152600401808260001916600019168152602001915050602060405180830381600087803b158015620016a457600080fd5b505af1158015620016b9573d6000803e3d6000fd5b505050506040513d6020811015620016d057600080fd5b810190808051906020019092919050505042111515620016ef57600080fd5b846000809054906101000a900473ffffffffffffffffffffffffffffffffffffffff1673ffffffffffffffffffffffffffffffffffffffff16633b7bfda08260405160200180807f63726f776473616c6546696e697368656400000000000000000000000000000081525060110182600019166000191681526020019150506040516020818303038152906040526040518082805190602001908083835b602083101515620017b457805182526020820191506020810190506020830392506200178d565b6001836020036101000a03801982511681845116808217855250505050505090500191505060405180910390206040518263ffffffff167c0100000000000000000000000000000000000000000000000000000000028152600401808260001916600019168152602001915050602060405180830381600087803b1580156200183c57600080fd5b505af115801562001851573d6000803e3d6000fd5b505050506040513d60208110156200186857600080fd5b81019080805190602001909291905050501515156200188657600080fd5b6000809054906101000a900473ffffffffffffffffffffffffffffffffffffffff1673ffffffffffffffffffffffffffffffffffffffff166304f49a3a8760405160200180807f746f6b656e416464726573730000000000000000000000000000000000000000815250600c0182600019166000191681526020019150506040516020818303038152906040526040518082805190602001908083835b6020831015156200194a578051825260208201915060208101905060208303925062001923565b6001836020036101000a03801982511681845116808217855250505050505090500191505060405180910390206040518263ffffffff167c0100000000000000000000000000000000000000000000000000000000028152600401808260001916600019168152602001915050602060405180830381600087803b158015620019d257600080fd5b505af1158015620019e7573d6000803e3d6000fd5b505050506040513d6020811015620019fe57600080fd5b810190808051906020019092919050505093508373ffffffffffffffffffffffffffffffffffffffff166318160ddd6040518163ffffffff167c0100000000000000000000000000000000000000000000000000000000028152600401602060405180830381600087803b15801562001a7657600080fd5b505af115801562001a8b573d6000803e3d6000fd5b505050506040513d602081101562001aa257600080fd5b810190808051906020019092919050505092506000809054906101000a900473ffffffffffffffffffffffffffffffffffffffff1673ffffffffffffffffffffffffffffffffffffffff1663abfdcced8760405160200180807f63726f776473616c6546696e697368656400000000000000000000000000000081525060110182600019166000191681526020019150506040516020818303038152906040526040518082805190602001908083835b60208310151562001b79578051825260208201915060208101905060208303925062001b52565b6001836020036101000a038019825116818451168082178552505050505050905001915050604051809103902060016040518363ffffffff167c01000000000000000000000000000000000000000000000000000000000281526004018083600019166000191681526020018215151515815260200192505050600060405180830381600087803b15801562001c0e57600080fd5b505af115801562001c23573d6000803e3d6000fd5b505050508373ffffffffffffffffffffffffffffffffffffffff1663eba74e5c846040518263ffffffff167c01000000000000000000000000000000000000000000000000000000000281526004016000604051808303818588803b15801562001c8c57600080fd5b505af115801562001ca1573d6000803e3d6000fd5b50505050506001945050505050919050565b6000809054906101000a900473ffffffffffffffffffffffffffffffffffffffff1673ffffffffffffffffffffffffffffffffffffffff16633b7bfda03360405160200180807f6f776e65720000000000000000000000000000000000000000000000000000008152506005018273ffffffffffffffffffffffffffffffffffffffff1673ffffffffffffffffffffffffffffffffffffffff166c010000000000000000000000000281526014019150506040516020818303038152906040526040518082805190602001908083835b60208310151562001daa578051825260208201915060208101905060208303925062001d83565b6001836020036101000a03801982511681845116808217855250505050505090500191505060405180910390206040518263ffffffff167c0100000000000000000000000000000000000000000000000000000000028152600401808260001916600019168152602001915050602060405180830381600087803b15801562001e3257600080fd5b505af115801562001e47573d6000803e3d6000fd5b505050506040513d602081101562001e5e57600080fd5b8101908080519060200190929190505050151562001e7b57600080fd5b3373ffffffffffffffffffffffffffffffffffffffff167f62a91a9a510cd5e7b0339f181bd27ac473283c39544a34798c376d6197b3572c3073ffffffffffffffffffffffffffffffffffffffff16316040518082815260200191505060405180910390a23373ffffffffffffffffffffffffffffffffffffffff16ff5b60008060008060009054906101000a900473ffffffffffffffffffffffffffffffffffffffff1673ffffffffffffffffffffffffffffffffffffffff166304f49a3a8860405160200180807f6f70657261746f7200000000000000000000000000000000000000000000000081525060080182600019166000191681526020019150506040516020818303038152906040526040518082805190602001908083835b60208310151562001fc2578051825260208201915060208101905060208303925062001f9b565b6001836020036101000a03801982511681845116808217855250505050505090500191505060405180910390206040518263ffffffff167c0100000000000000000000000000000000000000000000000000000000028152600401808260001916600019168152602001915050602060405180830381600087803b1580156200204a57600080fd5b505af11580156200205f573d6000803e3d6000fd5b505050506040513d60208110156200207657600080fd5b81019080805190602001909291905050509250600073ffffffffffffffffffffffffffffffffffffffff168373ffffffffffffffffffffffffffffffffffffffff1614151515620020c657600080fd5b3385888b8b604051602001808673ffffffffffffffffffffffffffffffffffffffff1673ffffffffffffffffffffffffffffffffffffffff166c0100000000000000000000000002815260140185815260200184600019166000191681526020018383808284378201915050955050505050506040516020818303038152906040526040518082805190602001908083835b6020831015156200217f578051825260208201915060208101905060208303925062002158565b6001836020036101000a0380198251168184511680821785525050505050509050019150506040518091039020915060008060009054906101000a900473ffffffffffffffffffffffffffffffffffffffff1673ffffffffffffffffffffffffffffffffffffffff1663a855d4ce8460405160200180807f66756e64696e67446561646c696e650000000000000000000000000000000000815250600f0182600019166000191681526020019150506040516020818303038152906040526040518082805190602001908083835b6020831015156200227457805182526020820191506020810190506020830392506200224d565b6001836020036101000a03801982511681845116808217855250505050505090500191505060405180910390206040518263ffffffff167c0100000000000000000000000000000000000000000000000000000000028152600401808260001916600019168152602001915050602060405180830381600087803b158015620022fc57600080fd5b505af115801562002311573d6000803e3d6000fd5b505050506040513d60208110156200232857600080fd5b81019080805190602001909291905050501415156200234657600080fd5b888830620023536200348d565b80806020018373ffffffffffffffffffffffffffffffffffffffff1673ffffffffffffffffffffffffffffffffffffffff16815260200182810382528585828181526020019250808284378201915050945050505050604051809103906000f080158015620023c6573d6000803e3d6000fd5b5090506000809054906101000a900473ffffffffffffffffffffffffffffffffffffffff1673ffffffffffffffffffffffffffffffffffffffff1663e2a4853a8360405160200180807f66756e64696e67446561646c696e650000000000000000000000000000000000815250600f0182600019166000191681526020019150506040516020818303038152906040526040518082805190602001908083835b6020831015156200248d578051825260208201915060208101905060208303925062002466565b6001836020036101000a0380198251168184511680821785525050505050509050019150506040518091039020620024cf89426200346e90919063ffffffff16565b6040518363ffffffff167c010000000000000000000000000000000000000000000000000000000002815260040180836000191660001916815260200182815260200192505050600060405180830381600087803b1580156200253157600080fd5b505af115801562002546573d6000803e3d6000fd5b505050506000809054906101000a900473ffffffffffffffffffffffffffffffffffffffff1673ffffffffffffffffffffffffffffffffffffffff1663e2a4853a8360405160200180807f616d6f756e74546f526169736500000000000000000000000000000000000000815250600d0182600019166000191681526020019150506040516020818303038152906040526040518082805190602001908083835b6020831015156200260e5780518252602082019150602081019050602083039250620025e7565b6001836020036101000a0380198251168184511680821785525050505050509050019150506040518091039020876040518363ffffffff167c010000000000000000000000000000000000000000000000000000000002815260040180836000191660001916815260200182815260200192505050600060405180830381600087803b1580156200269e57600080fd5b505af1158015620026b3573d6000803e3d6000fd5b505050506000809054906101000a900473ffffffffffffffffffffffffffffffffffffffff1673ffffffffffffffffffffffffffffffffffffffff1663ca446dd98360405160200180807f746f6b656e416464726573730000000000000000000000000000000000000000815250600c0182600019166000191681526020019150506040516020818303038152906040526040518082805190602001908083835b6020831015156200277b578051825260208201915060208101905060208303925062002754565b6001836020036101000a0380198251168184511680821785525050505050509050019150506040518091039020836040518363ffffffff167c01000000000000000000000000000000000000000000000000000000000281526004018083600019166000191681526020018273ffffffffffffffffffffffffffffffffffffffff1673ffffffffffffffffffffffffffffffffffffffff16815260200192505050600060405180830381600087803b1580156200283757600080fd5b505af11580156200284c573d6000803e3d6000fd5b505050506000809054906101000a900473ffffffffffffffffffffffffffffffffffffffff1673ffffffffffffffffffffffffffffffffffffffff1663ca446dd98360405160200180807f62726f6b6572000000000000000000000000000000000000000000000000000081525060060182600019166000191681526020019150506040516020818303038152906040526040518082805190602001908083835b602083101515620029145780518252602082019150602081019050602083039250620028ed565b6001836020036101000a0380198251168184511680821785525050505050509050019150506040518091039020336040518363ffffffff167c01000000000000000000000000000000000000000000000000000000000281526004018083600019166000191681526020018273ffffffffffffffffffffffffffffffffffffffff1673ffffffffffffffffffffffffffffffffffffffff16815260200192505050600060405180830381600087803b158015620029d057600080fd5b505af1158015620029e5573d6000803e3d6000fd5b505050506000809054906101000a900473ffffffffffffffffffffffffffffffffffffffff1673ffffffffffffffffffffffffffffffffffffffff1663e2a4853a8360405160200180807f62726f6b6572466565000000000000000000000000000000000000000000000081525060090182600019166000191681526020019150506040516020818303038152906040526040518082805190602001908083835b60208310151562002aad578051825260208201915060208101905060208303925062002a86565b6001836020036101000a0380198251168184511680821785525050505050509050019150506040518091039020866040518363ffffffff167c010000000000000000000000000000000000000000000000000000000002815260040180836000191660001916815260200182815260200192505050600060405180830381600087803b15801562002b3d57600080fd5b505af115801562002b52573d6000803e3d6000fd5b505050506000809054906101000a900473ffffffffffffffffffffffffffffffffffffffff1673ffffffffffffffffffffffffffffffffffffffff1663ca446dd98360405160200180807f6f70657261746f7200000000000000000000000000000000000000000000000081525060080182600019166000191681526020019150506040516020818303038152906040526040518082805190602001908083835b60208310151562002c1a578051825260208201915060208101905060208303925062002bf3565b6001836020036101000a0380198251168184511680821785525050505050509050019150506040518091039020856040518363ffffffff167c01000000000000000000000000000000000000000000000000000000000281526004018083600019166000191681526020018273ffffffffffffffffffffffffffffffffffffffff1673ffffffffffffffffffffffffffffffffffffffff16815260200192505050600060405180830381600087803b15801562002cd657600080fd5b505af115801562002ceb573d6000803e3d6000fd5b505050508073ffffffffffffffffffffffffffffffffffffffff163373ffffffffffffffffffffffffffffffffffffffff1683600019167ff978e7bb6e810944872812e93b73dcddf4a093685aca1238835d95163b5162678c8c604051808060200182810382528484828181526020019250808284378201915050935050505060405180910390a4505050505050505050565b600082821115151562002d8d57fe5b818303905092915050565b600080600084141562002daf576000915062002dd0565b828402905082848281151562002dc157fe5b0414151562002dcc57fe5b8091505b5092915050565b6000818381151562002de557fe5b04905092915050565b60008060008060008060009054906101000a900473ffffffffffffffffffffffffffffffffffffffff1673ffffffffffffffffffffffffffffffffffffffff16633b7bfda03060405160200180807f70617573656400000000000000000000000000000000000000000000000000008152506006018273ffffffffffffffffffffffffffffffffffffffff1673ffffffffffffffffffffffffffffffffffffffff166c010000000000000000000000000281526014019150506040516020818303038152906040526040518082805190602001908083835b60208310151562002eed578051825260208201915060208101905060208303925062002ec6565b6001836020036101000a03801982511681845116808217855250505050505090500191505060405180910390206040518263ffffffff167c0100000000000000000000000000000000000000000000000000000000028152600401808260001916600019168152602001915050602060405180830381600087803b15801562002f7557600080fd5b505af115801562002f8a573d6000803e3d6000fd5b505050506040513d602081101562002fa157600080fd5b810190808051906020019092919050505015151562002fbf57600080fd5b6000809054906101000a900473ffffffffffffffffffffffffffffffffffffffff1673ffffffffffffffffffffffffffffffffffffffff166304f49a3a8860405160200180807f6f70657261746f7200000000000000000000000000000000000000000000000081525060080182600019166000191681526020019150506040516020818303038152906040526040518082805190602001908083835b6020831015156200308357805182526020820191506020810190506020830392506200305c565b6001836020036101000a03801982511681845116808217855250505050505090500191505060405180910390206040518263ffffffff167c0100000000000000000000000000000000000000000000000000000000028152600401808260001916600019168152602001915050602060405180830381600087803b1580156200310b57600080fd5b505af115801562003120573d6000803e3d6000fd5b505050506040513d60208110156200313757600080fd5b810190808051906020019092919050505093506000809054906101000a900473ffffffffffffffffffffffffffffffffffffffff1673ffffffffffffffffffffffffffffffffffffffff166304f49a3a60405160200180807f706c6174666f726d57616c6c6574000000000000000000000000000000000000815250600e0190506040516020818303038152906040526040518082805190602001908083835b602083101515620031fe5780518252602082019150602081019050602083039250620031d7565b6001836020036101000a03801982511681845116808217855250505050505090500191505060405180910390206040518263ffffffff167c0100000000000000000000000000000000000000000000000000000000028152600401808260001916600019168152602001915050602060405180830381600087803b1580156200328657600080fd5b505af11580156200329b573d6000803e3d6000fd5b505050506040513d6020811015620032b257600080fd5b81019080805190602001909291905050509250600073ffffffffffffffffffffffffffffffffffffffff168473ffffffffffffffffffffffffffffffffffffffff1614158015620033305750600073ffffffffffffffffffffffffffffffffffffffff168373ffffffffffffffffffffffffffffffffffffffff1614155b15156200333957fe5b6200336460646200335560638962002d9890919063ffffffff16565b62002dd790919063ffffffff16565b91506200337b828762002d7e90919063ffffffff16565b90508373ffffffffffffffffffffffffffffffffffffffff166108fc839081150290604051600060405180830381858888f19350505050158015620033c4573d6000803e3d6000fd5b508273ffffffffffffffffffffffffffffffffffffffff166108fc829081150290604051600060405180830381858888f193505050501580156200340c573d6000803e3d6000fd5b508373ffffffffffffffffffffffffffffffffffffffff1687600019167f104f01b44de0f8f9d4ae175ac9fc604fbd67ff572163c08c19981661659aa614886040518082815260200191505060405180910390a3600194505050505092915050565b60008082840190508381101515156200348357fe5b8091505092915050565b6040516126d4806200349f83390190560060806040526000600360006101000a81548160ff0219169083151502179055503480156200002c57600080fd5b50604051620026d4380380620026d483398101806040528101908080518201929190602001805190602001909291905050508181816004908051906020019062000078929190620000cc565b5080600360016101000a81548173ffffffffffffffffffffffffffffffffffffffff021916908373ffffffffffffffffffffffffffffffffffffffff1602179055506000600281905550505050506200017b565b828054600181600116156101000203166002900490600052602060002090601f016020900481019282601f106200010f57805160ff191683800117855562000140565b8280016001018555821562000140579182015b828111156200013f57825182559160200191906001019062000122565b5b5090506200014f919062000153565b5090565b6200017891905b80821115620001745760008160009055506001016200015a565b5090565b90565b612549806200018b6000396000f300608060405260043610610107576000357c0100000000000000000000000000000000000000000000000000000000900463ffffffff168063095ea7b3146101d057806318160ddd1461023557806323b872dd146102605780632ba1b3a1146102e557806340c10f19146103105780634d2efe4e1461037557806366188463146103a057806370a08231146104055780637d64bcb41461045c5780638ea390c11461048b578063a8fa8e52146104e2578063a9059cbb1461050d578063b8c8e1e614610572578063cae9ca51146105c9578063d4a1911614610674578063d73dd62314610704578063dd62ed3e14610769578063eba74e5c146107e0578063efcb5dea146107ea575b60003411151561011657600080fd5b61015f61014e6002546101406d04ee2d6d415b85acef81000000003461084190919063ffffffff16565b61087c90919063ffffffff16565b60065461089290919063ffffffff16565b60068190555061017a3460055461089290919063ffffffff16565b6005819055503373ffffffffffffffffffffffffffffffffffffffff167fe3166012cb87b3dec8e117fe0e096a47387f94ea2ec12086ed8ae24ff8c237fe346040518082815260200191505060405180910390a2005b3480156101dc57600080fd5b5061021b600480360381019080803573ffffffffffffffffffffffffffffffffffffffff169060200190929190803590602001909291905050506108b0565b604051808215151515815260200191505060405180910390f35b34801561024157600080fd5b5061024a6109a2565b6040518082815260200191505060405180910390f35b34801561026c57600080fd5b506102cb600480360381019080803573ffffffffffffffffffffffffffffffffffffffff169060200190929190803573ffffffffffffffffffffffffffffffffffffffff169060200190929190803590602001909291905050506109ac565b604051808215151515815260200191505060405180910390f35b3480156102f157600080fd5b506102fa610bca565b6040518082815260200191505060405180910390f35b34801561031c57600080fd5b5061035b600480360381019080803573ffffffffffffffffffffffffffffffffffffffff16906020019092919080359060200190929190505050610bd0565b604051808215151515815260200191505060405180910390f35b34801561038157600080fd5b5061038a610db3565b6040518082815260200191505060405180910390f35b3480156103ac57600080fd5b506103eb600480360381019080803573ffffffffffffffffffffffffffffffffffffffff16906020019092919080359060200190929190505050610ffc565b604051808215151515815260200191505060405180910390f35b34801561041157600080fd5b50610446600480360381019080803573ffffffffffffffffffffffffffffffffffffffff16906020019092919050505061128e565b6040518082815260200191505060405180910390f35b34801561046857600080fd5b506104716112d6565b604051808215151515815260200191505060405180910390f35b34801561049757600080fd5b506104cc600480360381019080803573ffffffffffffffffffffffffffffffffffffffff16906020019092919050505061139b565b6040518082815260200191505060405180910390f35b3480156104ee57600080fd5b506104f761141e565b6040518082815260200191505060405180910390f35b34801561051957600080fd5b50610558600480360381019080803573ffffffffffffffffffffffffffffffffffffffff16906020019092919080359060200190929190505050611424565b604051808215151515815260200191505060405180910390f35b34801561057e57600080fd5b506105b3600480360381019080803573ffffffffffffffffffffffffffffffffffffffff169060200190929190505050611640565b6040518082815260200191505060405180910390f35b3480156105d557600080fd5b5061065a600480360381019080803573ffffffffffffffffffffffffffffffffffffffff16906020019092919080359060200190929190803590602001908201803590602001908080601f0160208091040260200160405190810160405280939291908181526020018383808284378201915050505050509192919290505050611658565b604051808215151515815260200191505060405180910390f35b34801561068057600080fd5b50610689611a71565b6040518080602001828103825283818151815260200191508051906020019080838360005b838110156106c95780820151818401526020810190506106ae565b50505050905090810190601f1680156106f65780820380516001836020036101000a031916815260200191505b509250505060405180910390f35b34801561071057600080fd5b5061074f600480360381019080803573ffffffffffffffffffffffffffffffffffffffff16906020019092919080359060200190929190505050611b13565b604051808215151515815260200191505060405180910390f35b34801561077557600080fd5b506107ca600480360381019080803573ffffffffffffffffffffffffffffffffffffffff169060200190929190803573ffffffffffffffffffffffffffffffffffffffff169060200190929190505050611d0f565b6040518082815260200191505060405180910390f35b6107e8611d96565b005b3480156107f657600080fd5b5061082b600480360381019080803573ffffffffffffffffffffffffffffffffffffffff169060200190929190505050611e5f565b6040518082815260200191505060405180910390f35b60008060008414156108565760009150610875565b828402905082848281151561086757fe5b0414151561087157fe5b8091505b5092915050565b6000818381151561088957fe5b04905092915050565b60008082840190508381101515156108a657fe5b8091505092915050565b600081600160003373ffffffffffffffffffffffffffffffffffffffff1673ffffffffffffffffffffffffffffffffffffffff16815260200190815260200160002060008573ffffffffffffffffffffffffffffffffffffffff1673ffffffffffffffffffffffffffffffffffffffff168152602001908152602001600020819055508273ffffffffffffffffffffffffffffffffffffffff163373ffffffffffffffffffffffffffffffffffffffff167f8c5be1e5ebec7d5bd14f71427d1e84f3dd0314c0f7b2291e5b200ac8c7c3b925846040518082815260200191505060405180910390a36001905092915050565b6000600254905090565b600083610a096109bb82611e77565b600760008473ffffffffffffffffffffffffffffffffffffffff1673ffffffffffffffffffffffffffffffffffffffff1681526020019081526020016000205461089290919063ffffffff16565b600760008373ffffffffffffffffffffffffffffffffffffffff1673ffffffffffffffffffffffffffffffffffffffff16815260200190815260200160002081905550600654600860008373ffffffffffffffffffffffffffffffffffffffff1673ffffffffffffffffffffffffffffffffffffffff1681526020019081526020016000208190555083610aed610a9f82611e77565b600760008473ffffffffffffffffffffffffffffffffffffffff1673ffffffffffffffffffffffffffffffffffffffff1681526020019081526020016000205461089290919063ffffffff16565b600760008373ffffffffffffffffffffffffffffffffffffffff1673ffffffffffffffffffffffffffffffffffffffff16815260200190815260200160002081905550600654600860008373ffffffffffffffffffffffffffffffffffffffff1673ffffffffffffffffffffffffffffffffffffffff168152602001908152602001600020819055503073ffffffffffffffffffffffffffffffffffffffff168573ffffffffffffffffffffffffffffffffffffffff1614151515610bb157600080fd5b610bbc868686611f29565b506001925050509392505050565b60055481565b6000600360009054906101000a900460ff16158015610c3c5750600360019054906101000a900473ffffffffffffffffffffffffffffffffffffffff1673ffffffffffffffffffffffffffffffffffffffff163373ffffffffffffffffffffffffffffffffffffffff16145b1515610c4757600080fd5b610c5c8260025461089290919063ffffffff16565b600281905550610cb3826000808673ffffffffffffffffffffffffffffffffffffffff1673ffffffffffffffffffffffffffffffffffffffff1681526020019081526020016000205461089290919063ffffffff16565b6000808573ffffffffffffffffffffffffffffffffffffffff1673ffffffffffffffffffffffffffffffffffffffff168152602001908152602001600020819055508273ffffffffffffffffffffffffffffffffffffffff167f0f6798a560793a54c3bcfe86a93cde1e73087d944c0ea20544137d4121396885836040518082815260200191505060405180910390a28273ffffffffffffffffffffffffffffffffffffffff16600073ffffffffffffffffffffffffffffffffffffffff167fddf252ad1be2c89b69c2b068fc378daa952ba7f163c4a11628f55a4df523b3ef846040518082815260200191505060405180910390a36001905092915050565b600033610e10610dc282611e77565b600760008473ffffffffffffffffffffffffffffffffffffffff1673ffffffffffffffffffffffffffffffffffffffff1681526020019081526020016000205461089290919063ffffffff16565b600760008373ffffffffffffffffffffffffffffffffffffffff1673ffffffffffffffffffffffffffffffffffffffff16815260200190815260200160002081905550600654600860008373ffffffffffffffffffffffffffffffffffffffff1673ffffffffffffffffffffffffffffffffffffffff16815260200190815260200160002081905550610ef96d04ee2d6d415b85acef8100000000600760003373ffffffffffffffffffffffffffffffffffffffff1673ffffffffffffffffffffffffffffffffffffffff1681526020019081526020016000205461087c90919063ffffffff16565b9150600760003373ffffffffffffffffffffffffffffffffffffffff1673ffffffffffffffffffffffffffffffffffffffff168152602001908152602001600020600090553373ffffffffffffffffffffffffffffffffffffffff166108fc839081150290604051600060405180830381858888f19350505050158015610f84573d6000803e3d6000fd5b507f10db2ba5699bf5dbd1070a0c0b207f229dc1ecb78bbe555b84cab3db9576ac42423384604051808481526020018373ffffffffffffffffffffffffffffffffffffffff1673ffffffffffffffffffffffffffffffffffffffff168152602001828152602001935050505060405180910390a15090565b600080600160003373ffffffffffffffffffffffffffffffffffffffff1673ffffffffffffffffffffffffffffffffffffffff16815260200190815260200160002060008573ffffffffffffffffffffffffffffffffffffffff1673ffffffffffffffffffffffffffffffffffffffff168152602001908152602001600020549050808310151561110e576000600160003373ffffffffffffffffffffffffffffffffffffffff1673ffffffffffffffffffffffffffffffffffffffff16815260200190815260200160002060008673ffffffffffffffffffffffffffffffffffffffff1673ffffffffffffffffffffffffffffffffffffffff168152602001908152602001600020819055506111a2565b61112183826122e490919063ffffffff16565b600160003373ffffffffffffffffffffffffffffffffffffffff1673ffffffffffffffffffffffffffffffffffffffff16815260200190815260200160002060008673ffffffffffffffffffffffffffffffffffffffff1673ffffffffffffffffffffffffffffffffffffffff168152602001908152602001600020819055505b8373ffffffffffffffffffffffffffffffffffffffff163373ffffffffffffffffffffffffffffffffffffffff167f8c5be1e5ebec7d5bd14f71427d1e84f3dd0314c0f7b2291e5b200ac8c7c3b925600160003373ffffffffffffffffffffffffffffffffffffffff1673ffffffffffffffffffffffffffffffffffffffff16815260200190815260200160002060008873ffffffffffffffffffffffffffffffffffffffff1673ffffffffffffffffffffffffffffffffffffffff168152602001908152602001600020546040518082815260200191505060405180910390a3600191505092915050565b60008060008373ffffffffffffffffffffffffffffffffffffffff1673ffffffffffffffffffffffffffffffffffffffff168152602001908152602001600020549050919050565b6000600360009054906101000a900460ff161580156113425750600360019054906101000a900473ffffffffffffffffffffffffffffffffffffffff1673ffffffffffffffffffffffffffffffffffffffff163373ffffffffffffffffffffffffffffffffffffffff16145b151561134d57600080fd5b6001600360006101000a81548160ff0219169083151502179055507fae5184fba832cb2b1f702aca6117b8d265eaf03ad33eb133f19dde0f5920fa0860405160405180910390a16001905090565b60006114176d04ee2d6d415b85acef8100000000611409600760008673ffffffffffffffffffffffffffffffffffffffff1673ffffffffffffffffffffffffffffffffffffffff168152602001908152602001600020546113fb86611e77565b61089290919063ffffffff16565b61087c90919063ffffffff16565b9050919050565b60065481565b60003361148161143382611e77565b600760008473ffffffffffffffffffffffffffffffffffffffff1673ffffffffffffffffffffffffffffffffffffffff1681526020019081526020016000205461089290919063ffffffff16565b600760008373ffffffffffffffffffffffffffffffffffffffff1673ffffffffffffffffffffffffffffffffffffffff16815260200190815260200160002081905550600654600860008373ffffffffffffffffffffffffffffffffffffffff1673ffffffffffffffffffffffffffffffffffffffff168152602001908152602001600020819055508361156561151782611e77565b600760008473ffffffffffffffffffffffffffffffffffffffff1673ffffffffffffffffffffffffffffffffffffffff1681526020019081526020016000205461089290919063ffffffff16565b600760008373ffffffffffffffffffffffffffffffffffffffff1673ffffffffffffffffffffffffffffffffffffffff16815260200190815260200160002081905550600654600860008373ffffffffffffffffffffffffffffffffffffffff1673ffffffffffffffffffffffffffffffffffffffff168152602001908152602001600020819055503073ffffffffffffffffffffffffffffffffffffffff168573ffffffffffffffffffffffffffffffffffffffff161415151561162957600080fd5b61163385856122fd565b5060019250505092915050565b60076020528060005260406000206000915090505481565b6000336116b561166782611e77565b600760008473ffffffffffffffffffffffffffffffffffffffff1673ffffffffffffffffffffffffffffffffffffffff1681526020019081526020016000205461089290919063ffffffff16565b600760008373ffffffffffffffffffffffffffffffffffffffff1673ffffffffffffffffffffffffffffffffffffffff16815260200190815260200160002081905550600654600860008373ffffffffffffffffffffffffffffffffffffffff1673ffffffffffffffffffffffffffffffffffffffff168152602001908152602001600020819055508461179961174b82611e77565b600760008473ffffffffffffffffffffffffffffffffffffffff1673ffffffffffffffffffffffffffffffffffffffff1681526020019081526020016000205461089290919063ffffffff16565b600760008373ffffffffffffffffffffffffffffffffffffffff1673ffffffffffffffffffffffffffffffffffffffff16815260200190815260200160002081905550600654600860008373ffffffffffffffffffffffffffffffffffffffff1673ffffffffffffffffffffffffffffffffffffffff1681526020019081526020016000208190555084600160003373ffffffffffffffffffffffffffffffffffffffff1673ffffffffffffffffffffffffffffffffffffffff16815260200190815260200160002060008873ffffffffffffffffffffffffffffffffffffffff1673ffffffffffffffffffffffffffffffffffffffff168152602001908152602001600020819055508573ffffffffffffffffffffffffffffffffffffffff163373ffffffffffffffffffffffffffffffffffffffff167f8c5be1e5ebec7d5bd14f71427d1e84f3dd0314c0f7b2291e5b200ac8c7c3b925876040518082815260200191505060405180910390a38573ffffffffffffffffffffffffffffffffffffffff16638f4ffcb1338730886040518563ffffffff167c0100000000000000000000000000000000000000000000000000000000028152600401808573ffffffffffffffffffffffffffffffffffffffff1673ffffffffffffffffffffffffffffffffffffffff1681526020018481526020018373ffffffffffffffffffffffffffffffffffffffff1673ffffffffffffffffffffffffffffffffffffffff16815260200180602001828103825283818151815260200191508051906020019080838360005b838110156119fd5780820151818401526020810190506119e2565b50505050905090810190601f168015611a2a5780820380516001836020036101000a031916815260200191505b5095505050505050600060405180830381600087803b158015611a4c57600080fd5b505af1158015611a60573d6000803e3d6000fd5b505050506001925050509392505050565b606060048054600181600116156101000203166002900480601f016020809104026020016040519081016040528092919081815260200182805460018160011615610100020316600290048015611b095780601f10611ade57610100808354040283529160200191611b09565b820191906000526020600020905b815481529060010190602001808311611aec57829003601f168201915b5050505050905090565b6000611ba482600160003373ffffffffffffffffffffffffffffffffffffffff1673ffffffffffffffffffffffffffffffffffffffff16815260200190815260200160002060008673ffffffffffffffffffffffffffffffffffffffff1673ffffffffffffffffffffffffffffffffffffffff1681526020019081526020016000205461089290919063ffffffff16565b600160003373ffffffffffffffffffffffffffffffffffffffff1673ffffffffffffffffffffffffffffffffffffffff16815260200190815260200160002060008573ffffffffffffffffffffffffffffffffffffffff1673ffffffffffffffffffffffffffffffffffffffff168152602001908152602001600020819055508273ffffffffffffffffffffffffffffffffffffffff163373ffffffffffffffffffffffffffffffffffffffff167f8c5be1e5ebec7d5bd14f71427d1e84f3dd0314c0f7b2291e5b200ac8c7c3b925600160003373ffffffffffffffffffffffffffffffffffffffff1673ffffffffffffffffffffffffffffffffffffffff16815260200190815260200160002060008773ffffffffffffffffffffffffffffffffffffffff1673ffffffffffffffffffffffffffffffffffffffff168152602001908152602001600020546040518082815260200191505060405180910390a36001905092915050565b6000600160008473ffffffffffffffffffffffffffffffffffffffff1673ffffffffffffffffffffffffffffffffffffffff16815260200190815260200160002060008373ffffffffffffffffffffffffffffffffffffffff1673ffffffffffffffffffffffffffffffffffffffff16815260200190815260200160002054905092915050565b600034111515611da557600080fd5b611dee611ddd600254611dcf6d04ee2d6d415b85acef81000000003461084190919063ffffffff16565b61087c90919063ffffffff16565b60065461089290919063ffffffff16565b600681905550611e093460055461089290919063ffffffff16565b6005819055503373ffffffffffffffffffffffffffffffffffffffff167fe3166012cb87b3dec8e117fe0e096a47387f94ea2ec12086ed8ae24ff8c237fe346040518082815260200191505060405180910390a2565b60086020528060005260406000206000915090505481565b600080611ece600860008573ffffffffffffffffffffffffffffffffffffffff1673ffffffffffffffffffffffffffffffffffffffff168152602001908152602001600020546006546122e490919063ffffffff16565b9050611f216000808573ffffffffffffffffffffffffffffffffffffffff1673ffffffffffffffffffffffffffffffffffffffff168152602001908152602001600020548261084190919063ffffffff16565b915050919050565b60008060008573ffffffffffffffffffffffffffffffffffffffff1673ffffffffffffffffffffffffffffffffffffffff168152602001908152602001600020548211151515611f7857600080fd5b600160008573ffffffffffffffffffffffffffffffffffffffff1673ffffffffffffffffffffffffffffffffffffffff16815260200190815260200160002060003373ffffffffffffffffffffffffffffffffffffffff1673ffffffffffffffffffffffffffffffffffffffff16815260200190815260200160002054821115151561200357600080fd5b600073ffffffffffffffffffffffffffffffffffffffff168373ffffffffffffffffffffffffffffffffffffffff161415151561203f57600080fd5b612090826000808773ffffffffffffffffffffffffffffffffffffffff1673ffffffffffffffffffffffffffffffffffffffff168152602001908152602001600020546122e490919063ffffffff16565b6000808673ffffffffffffffffffffffffffffffffffffffff1673ffffffffffffffffffffffffffffffffffffffff16815260200190815260200160002081905550612123826000808673ffffffffffffffffffffffffffffffffffffffff1673ffffffffffffffffffffffffffffffffffffffff1681526020019081526020016000205461089290919063ffffffff16565b6000808573ffffffffffffffffffffffffffffffffffffffff1673ffffffffffffffffffffffffffffffffffffffff168152602001908152602001600020819055506121f482600160008773ffffffffffffffffffffffffffffffffffffffff1673ffffffffffffffffffffffffffffffffffffffff16815260200190815260200160002060003373ffffffffffffffffffffffffffffffffffffffff1673ffffffffffffffffffffffffffffffffffffffff168152602001908152602001600020546122e490919063ffffffff16565b600160008673ffffffffffffffffffffffffffffffffffffffff1673ffffffffffffffffffffffffffffffffffffffff16815260200190815260200160002060003373ffffffffffffffffffffffffffffffffffffffff1673ffffffffffffffffffffffffffffffffffffffff168152602001908152602001600020819055508273ffffffffffffffffffffffffffffffffffffffff168473ffffffffffffffffffffffffffffffffffffffff167fddf252ad1be2c89b69c2b068fc378daa952ba7f163c4a11628f55a4df523b3ef846040518082815260200191505060405180910390a3600190509392505050565b60008282111515156122f257fe5b818303905092915050565b60008060003373ffffffffffffffffffffffffffffffffffffffff1673ffffffffffffffffffffffffffffffffffffffff16815260200190815260200160002054821115151561234c57600080fd5b600073ffffffffffffffffffffffffffffffffffffffff168373ffffffffffffffffffffffffffffffffffffffff161415151561238857600080fd5b6123d9826000803373ffffffffffffffffffffffffffffffffffffffff1673ffffffffffffffffffffffffffffffffffffffff168152602001908152602001600020546122e490919063ffffffff16565b6000803373ffffffffffffffffffffffffffffffffffffffff1673ffffffffffffffffffffffffffffffffffffffff1681526020019081526020016000208190555061246c826000808673ffffffffffffffffffffffffffffffffffffffff1673ffffffffffffffffffffffffffffffffffffffff1681526020019081526020016000205461089290919063ffffffff16565b6000808573ffffffffffffffffffffffffffffffffffffffff1673ffffffffffffffffffffffffffffffffffffffff168152602001908152602001600020819055508273ffffffffffffffffffffffffffffffffffffffff163373ffffffffffffffffffffffffffffffffffffffff167fddf252ad1be2c89b69c2b068fc378daa952ba7f163c4a11628f55a4df523b3ef846040518082815260200191505060405180910390a360019050929150505600a165627a7a723058201453d6bf579281fba025050a284d204cf188707842e56e313480851ec4e138a90029a165627a7a72305820ac0c22a4b4a0ac9cc1e3b82e64fccf5b12faf85f71ccc2eef31875758c1fee440029",
  "source": "  pragma solidity ^0.4.24;\n\n  import \"../math/SafeMath.sol\";\n  import \"../interfaces/DBInterface.sol\";\n  import \"../tokens/ERC20/DividendToken.sol\";         // Change to Mintable or Burnable if needed\n\n\n  // @title An asset crowdsale contract.\n  // @author Kyle Dewhurst, MyBit Foundation\n  // @notice creates a dividend token to represent the newly created asset.\n  contract CrowdsaleEther{\n    using SafeMath for uint256;\n\n    DBInterface public database;\n\n    // @notice Constructor: Initiates the database\n    // @param: The address for the database contract\n    constructor(address _database)\n    public {\n        database = DBInterface(_database);\n    }\n\n    // @notice brokers can initiate a crowdfund for a new asset here\n    // @dev this crowdsale contract is granted the whole supply to distribute to investors\n    // @dev can lookup the amount of escrow in the database with sha3(\"brokerEscrow\", assetID)\n    function startFundingPeriod(string _assetURI, bytes32 _operatorID, uint _fundingLength, uint _amountToRaise, uint _brokerFee)\n    external {\n      address operatorAddress = database.addressStorage(keccak256(abi.encodePacked(\"operator\", _operatorID)));\n      require(operatorAddress != address(0));\n      bytes32 assetID = keccak256(abi.encodePacked(msg.sender, _amountToRaise, _operatorID, _assetURI));\n      require(database.uintStorage(keccak256(abi.encodePacked(\"fundingDeadline\", assetID))) == 0);\n      DividendToken newAsset = new DividendToken(_assetURI, address(this));   // Gives this contract all new asset tokens\n      database.setUint(keccak256(abi.encodePacked(\"fundingDeadline\", assetID)), now.add(_fundingLength));\n      database.setUint(keccak256(abi.encodePacked(\"amountToRaise\", assetID)), _amountToRaise);\n      database.setAddress(keccak256(abi.encodePacked(\"tokenAddress\", assetID)), address(newAsset));\n      database.setAddress(keccak256(abi.encodePacked(\"broker\", assetID)), msg.sender);\n      database.setUint(keccak256(abi.encodePacked(\"brokerFee\", assetID)), _brokerFee);     // Percentage of income that goes to broker\n      database.setAddress(keccak256(abi.encodePacked(\"operator\", assetID)), operatorAddress);\n      emit LogAssetFundingStarted(assetID, msg.sender, _assetURI, address(newAsset));\n    }\n\n    // @notice Users can send Ether here to fund asset if the deadline has not already passed.\n    function buyAsset(bytes32 _assetID)\n    external\n    payable\n    requiresEther\n    beforeDeadline(_assetID)\n    notFinished(_assetID)\n    returns (bool) {\n      DividendToken thisToken = DividendToken(database.addressStorage(keccak256(abi.encodePacked(\"tokenAddress\", _assetID))));\n      uint brokerPercent = database.uintStorage(keccak256(abi.encodePacked(\"brokerFee\", _assetID)));\n      uint investorPercent = uint(100).sub(brokerPercent);\n      uint amountToRaise = database.uintStorage(keccak256(abi.encodePacked(\"amountToRaise\", _assetID)));\n      uint tokensRemaining = amountToRaise.mul(investorPercent).div(100).sub(thisToken.totalSupply()); //Amount to raise minus the broker's percent\n      if (msg.value.mul(investorPercent).div(100) >= tokensRemaining) {\n        database.setBool(keccak256(abi.encodePacked(\"crowdsaleFinished\", _assetID)), true);\n        require(thisToken.mint(msg.sender, tokensRemaining));   // Send remaining asset tokens\n        uint brokerTokens = amountToRaise.mul(brokerPercent).div(100);\n        require(thisToken.mint(database.addressStorage(keccak256(abi.encodePacked(\"broker\", _assetID))), brokerTokens));\n        require(thisToken.finishMinting());\n        require(payout(_assetID, thisToken.totalSupply()));          // 1 token = 1 wei\n        msg.sender.transfer(msg.value.sub(tokensRemaining.mul(100).div(investorPercent)));     // Return leftover WEI\n      }\n      else {\n        require(thisToken.mint(msg.sender, msg.value.mul(investorPercent).div(100)));\n      }\n      emit LogAssetPurchased(_assetID, msg.sender, msg.value);\n      return true;\n    }\n\n\n    // @notice Contributors can retrieve their funds here if crowdsale has paased deadline\n    // TODO: call this on receiveApproval() so we can do it in a single transaction?\n    function refund(bytes32 _assetID)\n    external\n    whenNotPaused\n    afterDeadline(_assetID)\n    notFinished(_assetID)\n    returns (bool) {\n      //DividendToken assetToken = DividendToken(database.addressStorage(keccak256(abi.encodePacked(\"tokenAddress\", _assetID))));\n      //uint investorBalance = assetToken.balanceOf(msg.sender);\n      //require(investorBalance > 0);\n      //require(assetToken.transferFrom(msg.sender, address(0), investorBalance));\n      //msg.sender.transfer(investorBalance);\n      //emit LogRefund(_assetID, msg.sender, investorBalance);\n\n      DividendToken assetToken = DividendToken(database.addressStorage(keccak256(abi.encodePacked(\"tokenAddress\", _assetID))));\n      //uint tokensRemaining = assetToken.balanceOf(address(this));\n      uint refundValue = assetToken.totalSupply(); //token=wei\n      database.setBool(keccak256(abi.encodePacked(\"crowdsaleFinished\", _assetID)), true);\n      assetToken.issueDividends.value(refundValue)();\n      return true;\n    }\n\n    // @notice platform owners can destroy contract here\n    function destroy()\n    onlyOwner\n    public {\n      emit LogDestruction(address(this).balance, msg.sender);\n      selfdestruct(msg.sender);\n    }\n\n    // @notice fallback function: reject ether\n    function ()\n    public\n    payable {\n      revert();\n    }\n\n    //------------------------------------------------------------------------------------------------------------------\n    //                                            Internal Functions\n    //------------------------------------------------------------------------------------------------------------------\n\n    // @notice This is called once funding has succeeded. Sends Ether to a distribution contract where operator/broker can withdraw\n    // @dev The contract manager needs to know  the address PlatformDistribution contract\n    function payout(bytes32 _assetID, uint _amount)\n    internal\n    whenNotPaused\n    returns (bool) {\n      address operator = database.addressStorage(keccak256(abi.encodePacked(\"operator\", _assetID)));\n      address platformWallet = database.addressStorage(keccak256(abi.encodePacked(\"platformWallet\")));\n      assert (operator != address(0) && platformWallet != address(0));\n      uint operatorPortion = _amount.mul(99).div(100);          // Give operator 99%\n      uint platformPortion = _amount.sub(operatorPortion);      // Give platform 1%\n      operator.transfer(operatorPortion);\n      platformWallet.transfer(platformPortion);\n      emit LogAssetPayout(_assetID, operator, _amount);\n      return true;\n    }\n\n    //------------------------------------------------------------------------------------------------------------------\n    //                                            Modifiers\n    //------------------------------------------------------------------------------------------------------------------\n\n\n    // @notice Requires that Ether is sent with the transaction\n    modifier requiresEther() {\n      require(msg.value > 0);\n      _;\n    }\n\n    // @notice Sender must be a registered owner\n    modifier onlyOwner {\n      require(database.boolStorage(keccak256(abi.encodePacked(\"owner\", msg.sender))));\n      _;\n    }\n\n    // @notice function won't run if owners have paused this contract\n    modifier whenNotPaused {\n      require(!database.boolStorage(keccak256(abi.encodePacked(\"paused\", address(this)))));\n      _;\n    }\n\n\n    // @notice reverts if the funding deadline has already past\n    modifier beforeDeadline(bytes32 _assetID) {\n      require(now <= database.uintStorage(keccak256(abi.encodePacked(\"fundingDeadline\", _assetID))));\n      _;\n    }\n\n    // @notice reverts if the funding deadline has already past\n    modifier afterDeadline(bytes32 _assetID) {\n      require(now > database.uintStorage(keccak256(abi.encodePacked(\"fundingDeadline\", _assetID))));\n      _;\n    }\n\n    // @notice returns true if crowdsale is not finshed\n    modifier notFinished(bytes32 _assetID) {\n      require( !database.boolStorage(keccak256(abi.encodePacked(\"crowdsaleFinished\", _assetID))) );\n      _;\n    }\n\n\n    //------------------------------------------------------------------------------------------------------------------\n    //                                            Events\n    //------------------------------------------------------------------------------------------------------------------\n\n    event LogAssetFundingStarted(bytes32 indexed _assetID, address indexed _broker, string _tokenURI, address indexed _tokenAddress);\n    event LogAssetPurchased(bytes32 indexed _assetID, address indexed _sender, uint _amount);\n    event LogRefund(bytes32 indexed _assetID, address indexed _funder, uint _amount);\n    event LogAssetPayout(bytes32 indexed _assetID, address indexed _distributionContract, uint _amount);\n    event LogDestruction(uint _amountSent, address indexed _caller);\n  }\n",
  "sourcePath": "/home/peter/Documents/Work/MyBit/MyBit-Network.tech/contracts/crowdsale/CrowdsaleEther.sol",
  "compiler": {
    "name": "solc",
    "version": "0.4.24+commit.e67f0147.Emscripten.clang"
  },
  "schemaVersion": "2.0.1",
  "updatedAt": "2018-09-20T20:38:09.330Z"
}