{
  "contractName": "DividendTokenERC20",
  "abi": [
    {
      "constant": true,
      "inputs": [],
      "name": "mintingFinished",
      "outputs": [
        {
          "name": "",
          "type": "bool"
        }
      ],
      "payable": false,
      "stateMutability": "view",
      "type": "function"
    },
    {
      "constant": true,
      "inputs": [],
      "name": "name",
      "outputs": [
        {
          "name": "",
          "type": "string"
        }
      ],
      "payable": false,
      "stateMutability": "view",
      "type": "function"
    },
    {
      "constant": false,
      "inputs": [
        {
          "name": "_spender",
          "type": "address"
        },
        {
          "name": "_value",
          "type": "uint256"
        }
      ],
      "name": "approve",
      "outputs": [
        {
          "name": "",
          "type": "bool"
        }
      ],
      "payable": false,
      "stateMutability": "nonpayable",
      "type": "function"
    },
    {
      "constant": true,
      "inputs": [],
      "name": "totalSupply",
      "outputs": [
        {
          "name": "",
          "type": "uint256"
        }
      ],
      "payable": false,
      "stateMutability": "view",
      "type": "function"
    },
    {
      "constant": true,
      "inputs": [],
      "name": "assetIncome",
      "outputs": [
        {
          "name": "",
          "type": "uint256"
        }
      ],
      "payable": false,
      "stateMutability": "view",
      "type": "function"
    },
    {
      "constant": true,
      "inputs": [],
      "name": "assetIncomeIssued",
      "outputs": [
        {
          "name": "",
          "type": "uint256"
        }
      ],
      "payable": false,
      "stateMutability": "view",
      "type": "function"
    },
    {
      "constant": true,
      "inputs": [],
      "name": "decimals",
      "outputs": [
        {
          "name": "",
          "type": "uint8"
        }
      ],
      "payable": false,
      "stateMutability": "view",
      "type": "function"
    },
    {
      "constant": false,
      "inputs": [
        {
          "name": "_to",
          "type": "address"
        },
        {
          "name": "_amount",
          "type": "uint256"
        }
      ],
      "name": "mint",
      "outputs": [
        {
          "name": "",
          "type": "bool"
        }
      ],
      "payable": false,
      "stateMutability": "nonpayable",
      "type": "function"
    },
    {
      "constant": false,
      "inputs": [
        {
          "name": "_spender",
          "type": "address"
        },
        {
          "name": "_subtractedValue",
          "type": "uint256"
        }
      ],
      "name": "decreaseApproval",
      "outputs": [
        {
          "name": "",
          "type": "bool"
        }
      ],
      "payable": false,
      "stateMutability": "nonpayable",
      "type": "function"
    },
    {
      "constant": true,
      "inputs": [
        {
          "name": "_owner",
          "type": "address"
        }
      ],
      "name": "balanceOf",
      "outputs": [
        {
          "name": "",
          "type": "uint256"
        }
      ],
      "payable": false,
      "stateMutability": "view",
      "type": "function"
    },
    {
      "constant": true,
      "inputs": [],
      "name": "erc20",
      "outputs": [
        {
          "name": "",
          "type": "address"
        }
      ],
      "payable": false,
      "stateMutability": "view",
      "type": "function"
    },
    {
      "constant": false,
      "inputs": [],
      "name": "finishMinting",
      "outputs": [
        {
          "name": "",
          "type": "bool"
        }
      ],
      "payable": false,
      "stateMutability": "nonpayable",
      "type": "function"
    },
    {
      "constant": true,
      "inputs": [],
      "name": "symbol",
      "outputs": [
        {
          "name": "",
          "type": "string"
        }
      ],
      "payable": false,
      "stateMutability": "view",
      "type": "function"
    },
    {
      "constant": true,
      "inputs": [],
      "name": "valuePerToken",
      "outputs": [
        {
          "name": "",
          "type": "uint256"
        }
      ],
      "payable": false,
      "stateMutability": "view",
      "type": "function"
    },
    {
      "constant": true,
      "inputs": [
        {
          "name": "",
          "type": "address"
        }
      ],
      "name": "incomeOwed",
      "outputs": [
        {
          "name": "",
          "type": "uint256"
        }
      ],
      "payable": false,
      "stateMutability": "view",
      "type": "function"
    },
    {
      "constant": true,
      "inputs": [],
      "name": "getTokenURI",
      "outputs": [
        {
          "name": "",
          "type": "string"
        }
      ],
      "payable": false,
      "stateMutability": "view",
      "type": "function"
    },
    {
      "constant": false,
      "inputs": [
        {
          "name": "_spender",
          "type": "address"
        },
        {
          "name": "_addedValue",
          "type": "uint256"
        }
      ],
      "name": "increaseApproval",
      "outputs": [
        {
          "name": "",
          "type": "bool"
        }
      ],
      "payable": false,
      "stateMutability": "nonpayable",
      "type": "function"
    },
    {
      "constant": true,
      "inputs": [
        {
          "name": "_owner",
          "type": "address"
        },
        {
          "name": "_spender",
          "type": "address"
        }
      ],
      "name": "allowance",
      "outputs": [
        {
          "name": "",
          "type": "uint256"
        }
      ],
      "payable": false,
      "stateMutability": "view",
      "type": "function"
    },
    {
      "constant": true,
      "inputs": [
        {
          "name": "",
          "type": "address"
        }
      ],
      "name": "previousValuePerToken",
      "outputs": [
        {
          "name": "",
          "type": "uint256"
        }
      ],
      "payable": false,
      "stateMutability": "view",
      "type": "function"
    },
    {
      "inputs": [
        {
          "name": "_tokenURI",
          "type": "string"
        },
        {
          "name": "_owner",
          "type": "address"
        },
        {
          "name": "_erc20Address",
          "type": "address"
        }
      ],
      "payable": false,
      "stateMutability": "nonpayable",
      "type": "constructor"
    },
    {
      "payable": true,
      "stateMutability": "payable",
      "type": "fallback"
    },
    {
      "anonymous": false,
      "inputs": [
        {
          "indexed": true,
          "name": "_sender",
          "type": "address"
        },
        {
          "indexed": false,
          "name": "_paymentAmount",
          "type": "uint256"
        }
      ],
      "name": "LogIncomeReceived",
      "type": "event"
    },
    {
      "anonymous": false,
      "inputs": [
        {
          "indexed": false,
          "name": "_address",
          "type": "address"
        },
        {
          "indexed": false,
          "name": "_amount",
          "type": "uint256"
        }
      ],
      "name": "LogIncomeCollected",
      "type": "event"
    },
    {
      "anonymous": false,
      "inputs": [
        {
          "indexed": false,
          "name": "_difference",
          "type": "uint256"
        }
      ],
      "name": "LogCheckBalance",
      "type": "event"
    },
    {
      "anonymous": false,
      "inputs": [
        {
          "indexed": true,
          "name": "to",
          "type": "address"
        },
        {
          "indexed": false,
          "name": "amount",
          "type": "uint256"
        }
      ],
      "name": "Mint",
      "type": "event"
    },
    {
      "anonymous": false,
      "inputs": [],
      "name": "MintFinished",
      "type": "event"
    },
    {
      "anonymous": false,
      "inputs": [
        {
          "indexed": true,
          "name": "from",
          "type": "address"
        },
        {
          "indexed": true,
          "name": "to",
          "type": "address"
        },
        {
          "indexed": false,
          "name": "value",
          "type": "uint256"
        }
      ],
      "name": "Transfer",
      "type": "event"
    },
    {
      "anonymous": false,
      "inputs": [
        {
          "indexed": true,
          "name": "owner",
          "type": "address"
        },
        {
          "indexed": true,
          "name": "spender",
          "type": "address"
        },
        {
          "indexed": false,
          "name": "value",
          "type": "uint256"
        }
      ],
      "name": "Approval",
      "type": "event"
    },
    {
      "constant": false,
      "inputs": [
        {
          "name": "_to",
          "type": "address"
        },
        {
          "name": "_amount",
          "type": "uint256"
        }
      ],
      "name": "transfer",
      "outputs": [
        {
          "name": "success",
          "type": "bool"
        }
      ],
      "payable": false,
      "stateMutability": "nonpayable",
      "type": "function"
    },
    {
      "constant": false,
      "inputs": [
        {
          "name": "_from",
          "type": "address"
        },
        {
          "name": "_to",
          "type": "address"
        },
        {
          "name": "_amount",
          "type": "uint256"
        }
      ],
      "name": "transferFrom",
      "outputs": [
        {
          "name": "success",
          "type": "bool"
        }
      ],
      "payable": false,
      "stateMutability": "nonpayable",
      "type": "function"
    },
    {
      "constant": false,
      "inputs": [
        {
          "name": "_spender",
          "type": "address"
        },
        {
          "name": "_amount",
          "type": "uint256"
        },
        {
          "name": "_data",
          "type": "bytes"
        }
      ],
      "name": "approveAndCall",
      "outputs": [
        {
          "name": "success",
          "type": "bool"
        }
      ],
      "payable": false,
      "stateMutability": "nonpayable",
      "type": "function"
    },
    {
      "constant": false,
      "inputs": [],
      "name": "withdraw",
      "outputs": [
        {
          "name": "",
          "type": "bool"
        }
      ],
      "payable": false,
      "stateMutability": "nonpayable",
      "type": "function"
    },
    {
      "constant": false,
      "inputs": [
        {
          "name": "_amount",
          "type": "uint256"
        }
      ],
      "name": "issueDividends",
      "outputs": [
        {
          "name": "",
          "type": "bool"
        }
      ],
      "payable": true,
      "stateMutability": "payable",
      "type": "function"
    },
    {
      "constant": false,
      "inputs": [],
      "name": "checkForTransfers",
      "outputs": [],
      "payable": false,
      "stateMutability": "nonpayable",
      "type": "function"
    },
    {
      "constant": true,
      "inputs": [
        {
          "name": "_investor",
          "type": "address"
        }
      ],
      "name": "getAmountOwed",
      "outputs": [
        {
          "name": "",
          "type": "uint256"
        }
      ],
      "payable": false,
      "stateMutability": "view",
      "type": "function"
    },
    {
      "constant": true,
      "inputs": [],
      "name": "getERC20",
      "outputs": [
        {
          "name": "",
          "type": "address"
        }
      ],
      "payable": false,
      "stateMutability": "view",
      "type": "function"
    }
  ],
  "bytecode": "0x60806040523480156200001157600080fd5b50604051620018dc380380620018dc83398101604090815281516020808401519284015191909301805190938491829160129186916200005791600391860190620000d6565b5082516200006d906004906020860190620000d6565b506005805460006002556201000060b060020a03191662010000600160a060020a03938416021760ff191660ff93909316929092179091558316159150620000cd90505760068054600160a060020a031916600160a060020a0383161790555b5050506200017b565b828054600181600116156101000203166002900490600052602060002090601f016020900481019282601f106200011957805160ff191683800117855562000149565b8280016001018555821562000149579182015b82811115620001495782518255916020019190600101906200012c565b50620001579291506200015b565b5090565b6200017891905b8082111562000157576000815560010162000162565b90565b611751806200018b6000396000f30060806040526004361061015e5763ffffffff7c010000000000000000000000000000000000000000000000000000000060003504166305d2035b811461020957806306fdde0314610232578063095ea7b3146102bc57806318160ddd146102e057806323b872dd146103075780632ba1b3a1146103315780632da208e51461034657806330d0e75f1461035b578063313ce567146103725780633bdfa9201461039d5780633ccfd60b146103be57806340c10f19146103d35780634ece90a8146103f757806352ff7fa914610428578063661884631461043357806370a0823114610457578063785e9e86146104785780637d64bcb41461048d57806395d89b41146104a2578063a8fa8e52146104b7578063a9059cbb146104cc578063b5a83d43146104f0578063cae9ca5114610511578063d4a191161461057a578063d73dd6231461058f578063dd62ed3e146105b3578063efcb5dea146105da575b600654600160a060020a03161561017457600080fd5b600854610187903463ffffffff6105fb16565b6008556002546101ce906101bf906101b3346d04ee2d6d415b85acef810000000063ffffffff61061516565b9063ffffffff61064016565b6007549063ffffffff6105fb16565b60075560408051348152905133917fe3166012cb87b3dec8e117fe0e096a47387f94ea2ec12086ed8ae24ff8c237fe919081900360200190a2005b34801561021557600080fd5b5061021e610655565b604080519115158252519081900360200190f35b34801561023e57600080fd5b50610247610663565b6040805160208082528351818301528351919283929083019185019080838360005b83811015610281578181015183820152602001610269565b50505050905090810190601f1680156102ae5780820380516001836020036101000a031916815260200191505b509250505060405180910390f35b3480156102c857600080fd5b5061021e600160a060020a03600435166024356106f1565b3480156102ec57600080fd5b506102f5610745565b60408051918252519081900360200190f35b34801561031357600080fd5b5061021e600160a060020a036004358116906024351660443561074b565b34801561033d57600080fd5b506102f561080c565b34801561035257600080fd5b506102f5610812565b34801561036757600080fd5b50610370610818565b005b34801561037e57600080fd5b5061038761097d565b6040805160ff9092168252519081900360200190f35b3480156103a957600080fd5b506102f5600160a060020a0360043516610986565b3480156103ca57600080fd5b5061021e6109d2565b3480156103df57600080fd5b5061021e600160a060020a0360043516602435610b86565b34801561040357600080fd5b5061040c610c95565b60408051600160a060020a039092168252519081900360200190f35b61021e600435610ca4565b34801561043f57600080fd5b5061021e600160a060020a0360043516602435610ece565b34801561046357600080fd5b506102f5600160a060020a0360043516610fab565b34801561048457600080fd5b5061040c610fc6565b34801561049957600080fd5b5061021e610fd5565b3480156104ae57600080fd5b50610247611020565b3480156104c357600080fd5b506102f561107b565b3480156104d857600080fd5b5061021e600160a060020a0360043516602435611081565b3480156104fc57600080fd5b506102f5600160a060020a036004351661111b565b34801561051d57600080fd5b50604080516020600460443581810135601f810184900484028501840190955284845261021e948235600160a060020a031694602480359536959460649492019190819084018382808284375094975061112d9650505050505050565b34801561058657600080fd5b506102476112e3565b34801561059b57600080fd5b5061021e600160a060020a0360043516602435611379565b3480156105bf57600080fd5b506102f5600160a060020a0360043581169060243516611400565b3480156105e657600080fd5b506102f5600160a060020a036004351661142b565b60008282018381101561060a57fe5b8091505b5092915050565b600080831515610628576000915061060e565b5082820282848281151561063857fe5b041461060a57fe5b6000818381151561064d57fe5b049392505050565b600554610100900460ff1681565b6003805460408051602060026001851615610100026000190190941693909304601f810184900484028201840190925281815292918301828280156106e95780601f106106be576101008083540402835291602001916106e9565b820191906000526020600020905b8154815290600101906020018083116106cc57829003601f168201915b505050505081565b336000818152600160209081526040808320600160a060020a03871680855290835281842086905581518681529151939490939092600080516020611706833981519152928290030190a350600192915050565b60025490565b60008361077f61075a8261143d565b600160a060020a0383166000908152600a60205260409020549063ffffffff6105fb16565b600160a060020a0382166000908152600a6020908152604080832093909355600754600b90915291902055836107b761075a8261143d565b600160a060020a038083166000908152600a6020908152604080832094909455600754600b9091529290209190915585163014156107f457600080fd5b6107ff86868661149f565b5060019695505050505050565b60085481565b60095481565b600080600061083460095460085461161490919063ffffffff16565b600654909350600160a060020a0316151561085257303191506108e7565b600654604080517f70a082310000000000000000000000000000000000000000000000000000000081523060048201529051600160a060020a03909216916370a08231916024808201926020929091908290030181600087803b1580156108b857600080fd5b505af11580156108cc573d6000803e3d6000fd5b505050506040513d60208110156108e257600080fd5b505191505b6108f7828463ffffffff61161416565b905060008111156109455760025461092b906101bf906101b3846d04ee2d6d415b85acef810000000063ffffffff61061516565b600755600854610941908263ffffffff6105fb16565b6008555b6040805182815290517f0d7ab7150531466ac81cc2479d86788246bab0e9cc606a06ec6af5c8ab0d6f8e9181900360200190a1505050565b60055460ff1690565b600160a060020a0381166000908152600a60205260408120546109cc906d04ee2d6d415b85acef8100000000906101b3906109c08661143d565b9063ffffffff6105fb16565b92915050565b600080336109e261075a8261143d565b600160a060020a0382166000908152600a6020818152604080842094909455600754600b825284842055338352522054610a30906d04ee2d6d415b85acef810000000063ffffffff61064016565b336000908152600a6020526040812055600954909250610a56908363ffffffff6105fb16565b600955600654600160a060020a03161515610a9e57604051339083156108fc029084906000818181858888f19350505050158015610a98573d6000803e3d6000fd5b50610b42565b600654604080517fa9059cbb000000000000000000000000000000000000000000000000000000008152336004820152602481018590529051600160a060020a039092169163a9059cbb916044808201926020929091908290030181600087803b158015610b0b57600080fd5b505af1158015610b1f573d6000803e3d6000fd5b505050506040513d6020811015610b3557600080fd5b50511515610b4257600080fd5b604080513381526020810184905281517ff5b510c554f6c572235f7e531ec8f287b350b15c212250b993180473a6aeb7d1929181900390910190a160019250505090565b600554600090610100900460ff16158015610bb15750600554620100009004600160a060020a031633145b1515610bbc57600080fd5b600254610bcf908363ffffffff6105fb16565b600255600160a060020a038316600090815260208190526040902054610bfb908363ffffffff6105fb16565b600160a060020a03841660008181526020818152604091829020939093558051858152905191927f0f6798a560793a54c3bcfe86a93cde1e73087d944c0ea20544137d412139688592918290030190a2604080518381529051600160a060020a038516916000917fddf252ad1be2c89b69c2b068fc378daa952ba7f163c4a11628f55a4df523b3ef9181900360200190a350600192915050565b600654600160a060020a031690565b6000808211610d1457604080517f08c379a000000000000000000000000000000000000000000000000000000000815260206004820152601060248201527f43616e6e6f742073656e64207a65726f00000000000000000000000000000000604482015290519081900360640190fd5b600654600160a060020a03161515610d3757348214610d3257600080fd5b610e4e565b3415610d4257600080fd5b600654604080517f23b872dd000000000000000000000000000000000000000000000000000000008152336004820152306024820152604481018590529051600160a060020a03909216916323b872dd916064808201926020929091908290030181600087803b158015610db557600080fd5b505af1158015610dc9573d6000803e3d6000fd5b505050506040513d6020811015610ddf57600080fd5b50511515610e4e57604080517f08c379a000000000000000000000000000000000000000000000000000000000815260206004820152600f60248201527f5472616e73666572206661696c65640000000000000000000000000000000000604482015290519081900360640190fd5b600854610e61908363ffffffff6105fb16565b600855600254610e8d906101bf906101b3856d04ee2d6d415b85acef810000000063ffffffff61061516565b60075560408051838152905133917fe3166012cb87b3dec8e117fe0e096a47387f94ea2ec12086ed8ae24ff8c237fe919081900360200190a2506001919050565b336000908152600160209081526040808320600160a060020a0386168452909152812054808310610f2257336000908152600160209081526040808320600160a060020a0388168452909152812055610f57565b610f32818463ffffffff61161416565b336000908152600160209081526040808320600160a060020a03891684529091529020555b336000818152600160209081526040808320600160a060020a038916808552908352928190205481519081529051929392600080516020611706833981519152929181900390910190a35060019392505050565b600160a060020a031660009081526020819052604090205490565b600654600160a060020a031681565b600554600090610100900460ff161580156110005750600554620100009004600160a060020a031633145b151561100b57600080fd5b506005805461ff001916610100179055600190565b6004805460408051602060026001851615610100026000190190941693909304601f810184900484028201840190925281815292918301828280156106e95780601f106106be576101008083540402835291602001916106e9565b60075481565b60003361109061075a8261143d565b600160a060020a0382166000908152600a6020908152604080832093909355600754600b90915291902055836110c861075a8261143d565b600160a060020a038083166000908152600a6020908152604080832094909455600754600b90915292902091909155851630141561110557600080fd5b61110f8585611626565b50600195945050505050565b600a6020526000908152604090205481565b60003361113c61075a8261143d565b600160a060020a0382166000908152600a6020908152604080832093909355600754600b909152919020558461117461075a8261143d565b600160a060020a038083166000908152600a6020908152604080832094909455600754600b8252848320553380835260018252848320938b168084529382529184902089905583518981529351929391926000805160206117068339815191529281900390910190a36040517f8f4ffcb10000000000000000000000000000000000000000000000000000000081523360048201818152602483018890523060448401819052608060648501908152885160848601528851600160a060020a038c1695638f4ffcb195948c94938c939192909160a490910190602085019080838360005b83811015611270578181015183820152602001611258565b50505050905090810190601f16801561129d5780820380516001836020036101000a031916815260200191505b5095505050505050600060405180830381600087803b1580156112bf57600080fd5b505af11580156112d3573d6000803e3d6000fd5b5060019998505050505050505050565b60038054604080516020601f600260001961010060018816150201909516949094049384018190048102820181019092528281526060939092909183018282801561136f5780601f106113445761010080835404028352916020019161136f565b820191906000526020600020905b81548152906001019060200180831161135257829003601f168201915b5050505050905090565b336000908152600160209081526040808320600160a060020a03861684529091528120546113ad908363ffffffff6105fb16565b336000818152600160209081526040808320600160a060020a038916808552908352928190208590558051948552519193600080516020611706833981519152929081900390910190a350600192915050565b600160a060020a03918216600090815260016020908152604080832093909416825291909152205490565b600b6020526000908152604090205481565b600160a060020a0381166000908152600b6020526040812054600754829161146b919063ffffffff61161416565b600160a060020a03841660009081526020819052604090205490915061149890829063ffffffff61061516565b9392505050565b600160a060020a0383166000908152602081905260408120548211156114c457600080fd5b600160a060020a03841660009081526001602090815260408083203384529091529020548211156114f457600080fd5b600160a060020a038316151561150957600080fd5b600160a060020a038416600090815260208190526040902054611532908363ffffffff61161416565b600160a060020a038086166000908152602081905260408082209390935590851681522054611567908363ffffffff6105fb16565b600160a060020a038085166000908152602081815260408083209490945591871681526001825282812033825290915220546115a9908363ffffffff61161416565b600160a060020a03808616600081815260016020908152604080832033845282529182902094909455805186815290519287169391927fddf252ad1be2c89b69c2b068fc378daa952ba7f163c4a11628f55a4df523b3ef929181900390910190a35060019392505050565b60008282111561162057fe5b50900390565b3360009081526020819052604081205482111561164257600080fd5b600160a060020a038316151561165757600080fd5b33600090815260208190526040902054611677908363ffffffff61161416565b3360009081526020819052604080822092909255600160a060020a038516815220546116a9908363ffffffff6105fb16565b600160a060020a038416600081815260208181526040918290209390935580518581529051919233927fddf252ad1be2c89b69c2b068fc378daa952ba7f163c4a11628f55a4df523b3ef9281900390910190a35060019291505056008c5be1e5ebec7d5bd14f71427d1e84f3dd0314c0f7b2291e5b200ac8c7c3b925a165627a7a72305820924afac9509ff760f9e459815499eb772cc848cb0be87b6a0132769e96b847310029",
  "source": "pragma solidity ^0.4.24;\n\nimport './MintableToken.sol';\nimport '../../math/SafeMath.sol';\nimport '../../interfaces/ApproveAndCallFallback.sol';\n\n// @title ERC20 token contract with shared revenue distribution functionality.\n// @notice This token contract can receive payments in the fallback function and token owners receive their share when transferring tokens.\n// @author Kyle Dewhurst & Peter Phillips MyBit Foundation\n// Credit goes to Nick Johnson for the dividend token https://medium.com/@weka/dividend-bearing-tokens-on-ethereum-42d01c710657\ncontract DividendTokenERC20 is MintableToken {\n    using SafeMath for uint;\n\n    ERC20 public erc20;\n\n    // @notice Token Income Information\n    uint constant scalingFactor = 1e32;\n    uint public valuePerToken;\n    uint public assetIncome;\n    uint public assetIncomeIssued;\n\n\n    mapping (address => uint) public incomeOwed;\n    mapping (address => uint) public previousValuePerToken;\n\n\n    // @notice constructor: initialized\n    constructor(string _tokenURI, address _owner, address _erc20Address)\n    public\n    MintableToken(_tokenURI, _tokenURI, uint8(18), _owner){\n      if(_erc20Address != address(0)){\n        erc20 = ERC20(_erc20Address); //Set the address of the ERC20 token that will be issued as dividends\n      }\n    }\n\n    // @notice Transfer _amount tokens to address _to.\n    // @dev Sender must have enough tokens. Cannot send to 0x0.\n    // @param (address) _to = The address which will receive the tokens\n    // @param (uint) _amount = The amount of tokens to send\n    function transfer(address _to, uint _amount)\n    public\n    updateIncomeClaimed(msg.sender)\n    updateIncomeClaimed(_to)\n    returns (bool success) {\n        require(_to != address(this));\n        super.transfer(_to, _amount);\n        return true;\n    }\n\n    // @notice A 3rd party can transfer tokens if investor approves them to do so\n    // @dev Transfer _amount of tokens if _from has allowed msg.sender to do so.\n    // @param (address) _from = The address who approved msg.sender to spend tokens\n    // @param (address) _to = The address who will receive the tokens\n    // @param (uint) _amount = The number of tokens to send\n    function transferFrom(address _from, address _to, uint _amount)\n    public\n    updateIncomeClaimed(_from)\n    updateIncomeClaimed(_to)\n    returns (bool success) {\n        require(_to != address(this));\n        super.transferFrom(_from, _to, _amount);\n        return true;\n    }\n\n    // @notice Token holder can notify a contract that it has been approved to spend _amount of tokens\n    // @param (address) _spender = The contract to call after approval is done\n    // @param (uint) _amount = Number of tokens to send\n    // @param (bytes) _data = Bytes data to send along with the contract call\n    function approveAndCall(address _spender, uint _amount, bytes _data)\n    public\n    updateIncomeClaimed(msg.sender)\n    updateIncomeClaimed(_spender)\n    returns (bool success) {\n        allowed[msg.sender][_spender] = _amount;\n        emit Approval(msg.sender, _spender, _amount);\n        ApproveAndCallFallBack(_spender).receiveApproval(msg.sender, _amount, address(this), _data);\n        return true;\n    }\n\n    // @notice token holders can withdraw income here\n    function withdraw()\n    external\n    updateIncomeClaimed(msg.sender)\n    returns (bool) {\n        uint amount = incomeOwed[msg.sender].div(scalingFactor);\n        delete incomeOwed[msg.sender];\n        assetIncomeIssued = assetIncomeIssued.add(amount);\n        if(address(erc20) == address(0)){\n          msg.sender.transfer(amount);\n        } else {\n          require(erc20.transfer(msg.sender, amount));\n        }\n        emit LogIncomeCollected(msg.sender, amount);\n        return true;\n    }\n\n    // @notice assets can send their income here to be collected by investors\n    function issueDividends(uint256 _amount)\n    payable\n    external\n    returns (bool) {\n        require(_amount > 0, \"Cannot send zero\");\n        if(address(erc20) == address(0)){\n          require(msg.value == _amount);\n        } else {\n          require(msg.value == 0);\n          require(erc20.transferFrom(msg.sender, address(this), _amount), \"Transfer failed\");\n        }\n        assetIncome = assetIncome.add(_amount);\n        valuePerToken = valuePerToken.add(_amount.mul(scalingFactor).div(supply));\n        emit LogIncomeReceived(msg.sender, _amount);\n        return true;\n    }\n\n    //In case a investor transferred a token directly to this contract\n    //anyone can run this function to clean up the balances\n    //and distribute the difference to token holders\n    function checkForTransfers()\n    external {\n      uint bookBalance = assetIncome.sub(assetIncomeIssued);\n      uint actualBalance;\n      if(address(erc20) == address(0)){\n        actualBalance = address(this).balance;\n      } else {\n        actualBalance = erc20.balanceOf(this);\n      }\n      uint diffBalance = actualBalance.sub(bookBalance);\n      if(diffBalance > 0){\n        //Update value per token\n        valuePerToken = valuePerToken.add(diffBalance.mul(scalingFactor).div(supply));\n        assetIncome = assetIncome.add(diffBalance);\n      }\n      emit LogCheckBalance(diffBalance);\n    }\n\n    // Fallback function:\n    // Only works with ERC223\n    // Can't currently detect which token\n    /*\n    function tokenFallback(address _from, uint _value, bytes _data)\n      public {\n        valuePerToken = valuePerToken.add(_value.mul(scalingFactor).div(supply));\n        assetIncome = assetIncome.add(_value);\n        emit LogIncomeReceived(_from, _value);\n    }\n    */\n\n    // Fallback function: receives Ether and updates income ledger\n    function ()\n    payable\n    external {\n      require(address(erc20) == address(0));\n      assetIncome = assetIncome.add(msg.value);\n      valuePerToken = valuePerToken.add(msg.value.mul(scalingFactor).div(supply));\n      emit LogIncomeReceived(msg.sender, msg.value);\n    }\n\n\n    // ------------------------------------------------------------------------\n    //                           View functions\n    // ------------------------------------------------------------------------\n\n    // @notice Calculates how much more income is owed to investor since last calculation\n    function collectLatestPayments(address _investor)\n    private\n    view\n    returns (uint) {\n        uint valuePerTokenDifference = valuePerToken.sub(previousValuePerToken[_investor]);\n        return valuePerTokenDifference.mul(balances[_investor]);\n    }\n\n    // @notice Calculates how much wei investor is owed. (points + incomeOwed) / 10**32\n    function getAmountOwed(address _investor)\n    public\n    view\n    returns (uint) {\n        return (collectLatestPayments(_investor).add(incomeOwed[_investor]).div(scalingFactor));\n    }\n\n    // @notice returns ERC20 token. Returns null if the token uses Ether.\n    function getERC20()\n    external\n    view\n    returns(address){\n      return address(erc20);\n    }\n\n    // ------------------------------------------------------------------------\n    //                            Modifiers\n    // ------------------------------------------------------------------------\n\n    // Updates the amount owed to investor while holding tokenSupply\n    // @dev must be called before transfering tokens\n    modifier updateIncomeClaimed(address _investor) {\n        incomeOwed[_investor] = incomeOwed[_investor].add(collectLatestPayments(_investor));\n        previousValuePerToken[_investor] = valuePerToken;\n        _;\n    }\n\n    event LogIncomeReceived(address indexed _sender, uint _paymentAmount);\n    event LogIncomeCollected(address _address, uint _amount);\n    event LogCheckBalance(uint _difference);\n\n}\n",
  "sourcePath": "/home/peter/Documents/Work/MyBit/MyBit-Network.tech/contracts/tokens/erc20/DividendTokenERC20.sol",
  "compiler": {
    "name": "solc",
    "version": "0.4.24+commit.e67f0147.Emscripten.clang"
  },
  "schemaVersion": "3.0.2",
  "updatedAt": "2019-04-08T20:56:11.107Z",
  "devdoc": {
    "methods": {
      "allowance(address,address)": {
        "details": "Function to check the amount of tokens that an owner allowed to a spender.",
        "params": {
          "_owner": "address The address which owns the funds.",
          "_spender": "address The address which will spend the funds."
        },
        "return": "A uint256 specifying the amount of tokens still available for the spender."
      },
      "approve(address,uint256)": {
        "details": "Approve the passed address to spend the specified amount of tokens on behalf of msg.sender. Beware that changing an allowance with this method brings the risk that someone may use both the old and the new allowance by unfortunate transaction ordering. One possible solution to mitigate this race condition is to first reduce the spender's allowance to 0 and set the desired value afterwards: https://github.com/ethereum/EIPs/issues/20#issuecomment-263524729",
        "params": {
          "_spender": "The address which will spend the funds.",
          "_value": "The amount of tokens to be spent."
        }
      },
      "balanceOf(address)": {
        "details": "Gets the balance of the specified address.",
        "params": {
          "_owner": "The address to query the the balance of."
        },
        "return": "An uint256 representing the amount owned by the passed address."
      },
      "decreaseApproval(address,uint256)": {
        "details": "Decrease the amount of tokens that an owner allowed to a spender. approve should be called when allowed[_spender] == 0. To decrement allowed value is better to use this function to avoid 2 calls (and wait until the first transaction is mined) From MonolithDAO Token.sol",
        "params": {
          "_spender": "The address which will spend the funds.",
          "_subtractedValue": "The amount of tokens to decrease the allowance by."
        }
      },
      "increaseApproval(address,uint256)": {
        "details": "Increase the amount of tokens that an owner allowed to a spender. approve should be called when allowed[_spender] == 0. To increment allowed value is better to use this function to avoid 2 calls (and wait until the first transaction is mined) From MonolithDAO Token.sol",
        "params": {
          "_addedValue": "The amount of tokens to increase the allowance by.",
          "_spender": "The address which will spend the funds."
        }
      },
      "totalSupply()": {
        "details": "Total number of tokens in existence"
      }
    }
  },
  "userdoc": {
    "methods": {}
  }
}