{
  "contractName": "DividendTokenERC20",
  "abi": [
    {
      "constant": true,
      "inputs": [],
      "name": "mintingFinished",
      "outputs": [
        {
          "name": "",
          "type": "bool"
        }
      ],
      "payable": false,
      "stateMutability": "view",
      "type": "function"
    },
    {
      "constant": true,
      "inputs": [],
      "name": "name",
      "outputs": [
        {
          "name": "",
          "type": "string"
        }
      ],
      "payable": false,
      "stateMutability": "view",
      "type": "function"
    },
    {
      "constant": false,
      "inputs": [
        {
          "name": "_spender",
          "type": "address"
        },
        {
          "name": "_value",
          "type": "uint256"
        }
      ],
      "name": "approve",
      "outputs": [
        {
          "name": "",
          "type": "bool"
        }
      ],
      "payable": false,
      "stateMutability": "nonpayable",
      "type": "function"
    },
    {
      "constant": true,
      "inputs": [],
      "name": "totalSupply",
      "outputs": [
        {
          "name": "",
          "type": "uint256"
        }
      ],
      "payable": false,
      "stateMutability": "view",
      "type": "function"
    },
    {
      "constant": true,
      "inputs": [],
      "name": "assetIncome",
      "outputs": [
        {
          "name": "",
          "type": "uint256"
        }
      ],
      "payable": false,
      "stateMutability": "view",
      "type": "function"
    },
    {
      "constant": true,
      "inputs": [],
      "name": "assetIncomeIssued",
      "outputs": [
        {
          "name": "",
          "type": "uint256"
        }
      ],
      "payable": false,
      "stateMutability": "view",
      "type": "function"
    },
    {
      "constant": true,
      "inputs": [],
      "name": "decimals",
      "outputs": [
        {
          "name": "",
          "type": "uint8"
        }
      ],
      "payable": false,
      "stateMutability": "view",
      "type": "function"
    },
    {
      "constant": false,
      "inputs": [
        {
          "name": "_to",
          "type": "address"
        },
        {
          "name": "_amount",
          "type": "uint256"
        }
      ],
      "name": "mint",
      "outputs": [
        {
          "name": "",
          "type": "bool"
        }
      ],
      "payable": false,
      "stateMutability": "nonpayable",
      "type": "function"
    },
    {
      "constant": false,
      "inputs": [
        {
          "name": "_spender",
          "type": "address"
        },
        {
          "name": "_subtractedValue",
          "type": "uint256"
        }
      ],
      "name": "decreaseApproval",
      "outputs": [
        {
          "name": "",
          "type": "bool"
        }
      ],
      "payable": false,
      "stateMutability": "nonpayable",
      "type": "function"
    },
    {
      "constant": true,
      "inputs": [
        {
          "name": "_owner",
          "type": "address"
        }
      ],
      "name": "balanceOf",
      "outputs": [
        {
          "name": "",
          "type": "uint256"
        }
      ],
      "payable": false,
      "stateMutability": "view",
      "type": "function"
    },
    {
      "constant": true,
      "inputs": [],
      "name": "erc20",
      "outputs": [
        {
          "name": "",
          "type": "address"
        }
      ],
      "payable": false,
      "stateMutability": "view",
      "type": "function"
    },
    {
      "constant": false,
      "inputs": [],
      "name": "finishMinting",
      "outputs": [
        {
          "name": "",
          "type": "bool"
        }
      ],
      "payable": false,
      "stateMutability": "nonpayable",
      "type": "function"
    },
    {
      "constant": true,
      "inputs": [],
      "name": "symbol",
      "outputs": [
        {
          "name": "",
          "type": "string"
        }
      ],
      "payable": false,
      "stateMutability": "view",
      "type": "function"
    },
    {
      "constant": true,
      "inputs": [],
      "name": "valuePerToken",
      "outputs": [
        {
          "name": "",
          "type": "uint256"
        }
      ],
      "payable": false,
      "stateMutability": "view",
      "type": "function"
    },
    {
      "constant": true,
      "inputs": [
        {
          "name": "",
          "type": "address"
        }
      ],
      "name": "incomeClaimed",
      "outputs": [
        {
          "name": "",
          "type": "uint256"
        }
      ],
      "payable": false,
      "stateMutability": "view",
      "type": "function"
    },
    {
      "constant": true,
      "inputs": [],
      "name": "getTokenURI",
      "outputs": [
        {
          "name": "",
          "type": "string"
        }
      ],
      "payable": false,
      "stateMutability": "view",
      "type": "function"
    },
    {
      "constant": false,
      "inputs": [
        {
          "name": "_spender",
          "type": "address"
        },
        {
          "name": "_addedValue",
          "type": "uint256"
        }
      ],
      "name": "increaseApproval",
      "outputs": [
        {
          "name": "",
          "type": "bool"
        }
      ],
      "payable": false,
      "stateMutability": "nonpayable",
      "type": "function"
    },
    {
      "constant": true,
      "inputs": [
        {
          "name": "_owner",
          "type": "address"
        },
        {
          "name": "_spender",
          "type": "address"
        }
      ],
      "name": "allowance",
      "outputs": [
        {
          "name": "",
          "type": "uint256"
        }
      ],
      "payable": false,
      "stateMutability": "view",
      "type": "function"
    },
    {
      "constant": true,
      "inputs": [
        {
          "name": "",
          "type": "address"
        }
      ],
      "name": "previousValuePerToken",
      "outputs": [
        {
          "name": "",
          "type": "uint256"
        }
      ],
      "payable": false,
      "stateMutability": "view",
      "type": "function"
    },
    {
      "inputs": [
        {
          "name": "_tokenURI",
          "type": "string"
        },
        {
          "name": "_owner",
          "type": "address"
        },
        {
          "name": "_erc20Address",
          "type": "address"
        }
      ],
      "payable": false,
      "stateMutability": "nonpayable",
      "type": "constructor"
    },
    {
      "anonymous": false,
      "inputs": [
        {
          "indexed": true,
          "name": "_sender",
          "type": "address"
        },
        {
          "indexed": false,
          "name": "_paymentAmount",
          "type": "uint256"
        }
      ],
      "name": "LogIncomeReceived",
      "type": "event"
    },
    {
      "anonymous": false,
      "inputs": [
        {
          "indexed": false,
          "name": "_difference",
          "type": "uint256"
        }
      ],
      "name": "LogCheckBalance",
      "type": "event"
    },
    {
      "anonymous": false,
      "inputs": [
        {
          "indexed": false,
          "name": "_address",
          "type": "address"
        },
        {
          "indexed": false,
          "name": "_amount",
          "type": "uint256"
        }
      ],
      "name": "LogIncomeCollected",
      "type": "event"
    },
    {
      "anonymous": false,
      "inputs": [
        {
          "indexed": true,
          "name": "to",
          "type": "address"
        },
        {
          "indexed": false,
          "name": "amount",
          "type": "uint256"
        }
      ],
      "name": "Mint",
      "type": "event"
    },
    {
      "anonymous": false,
      "inputs": [],
      "name": "MintFinished",
      "type": "event"
    },
    {
      "anonymous": false,
      "inputs": [
        {
          "indexed": true,
          "name": "from",
          "type": "address"
        },
        {
          "indexed": true,
          "name": "to",
          "type": "address"
        },
        {
          "indexed": false,
          "name": "value",
          "type": "uint256"
        }
      ],
      "name": "Transfer",
      "type": "event"
    },
    {
      "anonymous": false,
      "inputs": [
        {
          "indexed": true,
          "name": "owner",
          "type": "address"
        },
        {
          "indexed": true,
          "name": "spender",
          "type": "address"
        },
        {
          "indexed": false,
          "name": "value",
          "type": "uint256"
        }
      ],
      "name": "Approval",
      "type": "event"
    },
    {
      "constant": false,
      "inputs": [
        {
          "name": "_to",
          "type": "address"
        },
        {
          "name": "_amount",
          "type": "uint256"
        }
      ],
      "name": "transfer",
      "outputs": [
        {
          "name": "success",
          "type": "bool"
        }
      ],
      "payable": false,
      "stateMutability": "nonpayable",
      "type": "function"
    },
    {
      "constant": false,
      "inputs": [
        {
          "name": "_from",
          "type": "address"
        },
        {
          "name": "_to",
          "type": "address"
        },
        {
          "name": "_amount",
          "type": "uint256"
        }
      ],
      "name": "transferFrom",
      "outputs": [
        {
          "name": "success",
          "type": "bool"
        }
      ],
      "payable": false,
      "stateMutability": "nonpayable",
      "type": "function"
    },
    {
      "constant": false,
      "inputs": [
        {
          "name": "_spender",
          "type": "address"
        },
        {
          "name": "_amount",
          "type": "uint256"
        },
        {
          "name": "_data",
          "type": "bytes"
        }
      ],
      "name": "approveAndCall",
      "outputs": [
        {
          "name": "success",
          "type": "bool"
        }
      ],
      "payable": false,
      "stateMutability": "nonpayable",
      "type": "function"
    },
    {
      "constant": false,
      "inputs": [
        {
          "name": "_amount",
          "type": "uint256"
        }
      ],
      "name": "issueDividends",
      "outputs": [
        {
          "name": "",
          "type": "bool"
        }
      ],
      "payable": false,
      "stateMutability": "nonpayable",
      "type": "function"
    },
    {
      "constant": false,
      "inputs": [],
      "name": "withdraw",
      "outputs": [
        {
          "name": "",
          "type": "bool"
        }
      ],
      "payable": false,
      "stateMutability": "nonpayable",
      "type": "function"
    },
    {
      "constant": false,
      "inputs": [],
      "name": "checkForTransfers",
      "outputs": [],
      "payable": false,
      "stateMutability": "nonpayable",
      "type": "function"
    },
    {
      "constant": true,
      "inputs": [
        {
          "name": "_investor",
          "type": "address"
        }
      ],
      "name": "collectLatestPayments",
      "outputs": [
        {
          "name": "",
          "type": "uint256"
        }
      ],
      "payable": false,
      "stateMutability": "view",
      "type": "function"
    },
    {
      "constant": true,
      "inputs": [
        {
          "name": "_investor",
          "type": "address"
        }
      ],
      "name": "getAmountOwed",
      "outputs": [
        {
          "name": "",
          "type": "uint256"
        }
      ],
      "payable": false,
      "stateMutability": "view",
      "type": "function"
    },
    {
      "constant": true,
      "inputs": [],
      "name": "getERC20",
      "outputs": [
        {
          "name": "",
          "type": "address"
        }
      ],
      "payable": false,
      "stateMutability": "view",
      "type": "function"
    }
  ],
  "bytecode": "0x60806040523480156200001157600080fd5b50604051620017e5380380620017e583398101604090815281516020808401519284015191909301805190938491829160129186916200005791600391860190620000c9565b5082516200006d906004906020860190620000c9565b506005805460006002556201000060b060020a03191662010000600160a060020a03938416021760ff191660ff939093169290921790915560068054600160a060020a0319169490911693909317909255506200016e92505050565b828054600181600116156101000203166002900490600052602060002090601f016020900481019282601f106200010c57805160ff19168380011785556200013c565b828001600101855582156200013c579182015b828111156200013c5782518255916020019190600101906200011f565b506200014a9291506200014e565b5090565b6200016b91905b808211156200014a576000815560010162000155565b90565b611667806200017e6000396000f3006080604052600436106101695763ffffffff7c010000000000000000000000000000000000000000000000000000000060003504166305d2035b811461016e57806306fdde0314610197578063095ea7b31461022157806318160ddd1461024557806323b872dd1461026c5780632ba1b3a1146102965780632da208e5146102ab57806330d0e75f146102c0578063313ce567146102d75780633bdfa920146103025780633ccfd60b1461032357806340c10f19146103385780634ece90a81461035c57806352ff7fa91461038d57806355ed47c9146103a557806366188463146103c657806370a08231146103ea578063785e9e861461040b5780637d64bcb41461042057806395d89b4114610435578063a8fa8e521461044a578063a9059cbb1461045f578063b8c8e1e614610483578063cae9ca51146104a4578063d4a191161461050d578063d73dd62314610522578063dd62ed3e14610546578063efcb5dea1461056d575b600080fd5b34801561017a57600080fd5b5061018361058e565b604080519115158252519081900360200190f35b3480156101a357600080fd5b506101ac61059c565b6040805160208082528351818301528351919283929083019185019080838360005b838110156101e65781810151838201526020016101ce565b50505050905090810190601f1680156102135780820380516001836020036101000a031916815260200191505b509250505060405180910390f35b34801561022d57600080fd5b50610183600160a060020a036004351660243561062a565b34801561025157600080fd5b5061025a61067e565b60408051918252519081900360200190f35b34801561027857600080fd5b50610183600160a060020a0360043581169060243516604435610684565b3480156102a257600080fd5b5061025a610745565b3480156102b757600080fd5b5061025a61074b565b3480156102cc57600080fd5b506102d5610751565b005b3480156102e357600080fd5b506102ec6108b5565b6040805160ff9092168252519081900360200190f35b34801561030e57600080fd5b5061025a600160a060020a03600435166108be565b34801561032f57600080fd5b5061018361090a565b34801561034457600080fd5b50610183600160a060020a0360043516602435610a79565b34801561036857600080fd5b50610371610b88565b60408051600160a060020a039092168252519081900360200190f35b34801561039957600080fd5b50610183600435610b97565b3480156103b157600080fd5b5061025a600160a060020a0360043516610d93565b3480156103d257600080fd5b50610183600160a060020a0360043516602435610df5565b3480156103f657600080fd5b5061025a600160a060020a0360043516610ed4565b34801561041757600080fd5b50610371610eef565b34801561042c57600080fd5b50610183610efe565b34801561044157600080fd5b506101ac610f49565b34801561045657600080fd5b5061025a610fa4565b34801561046b57600080fd5b50610183600160a060020a0360043516602435610faa565b34801561048f57600080fd5b5061025a600160a060020a0360043516611044565b3480156104b057600080fd5b50604080516020600460443581810135601f8101849004840285018401909552848452610183948235600160a060020a03169460248035953695946064949201919081908401838280828437509497506110569650505050505050565b34801561051957600080fd5b506101ac61120c565b34801561052e57600080fd5b50610183600160a060020a03600435166024356112a2565b34801561055257600080fd5b5061025a600160a060020a0360043581169060243516611329565b34801561057957600080fd5b5061025a600160a060020a0360043516611354565b600554610100900460ff1681565b6003805460408051602060026001851615610100026000190190941693909304601f810184900484028201840190925281815292918301828280156106225780601f106105f757610100808354040283529160200191610622565b820191906000526020600020905b81548152906001019060200180831161060557829003601f168201915b505050505081565b336000818152600160209081526040808320600160a060020a0387168085529083528184208690558151868152915193949093909260008051602061161c833981519152928290030190a350600192915050565b60025490565b6000836106b861069382610d93565b600160a060020a0383166000908152600a60205260409020549063ffffffff61136616565b600160a060020a0382166000908152600a6020908152604080832093909355600954600b90915291902055836106f061069382610d93565b600160a060020a038083166000908152600a6020908152604080832094909455600954600b90915292902091909155851630141561072d57600080fd5b610738868686611375565b5060019695505050505050565b60075481565b60085481565b600080600061076d6008546007546114ea90919063ffffffff16565b600654604080517f70a082310000000000000000000000000000000000000000000000000000000081523060048201529051929550600160a060020a03909116916370a08231916024808201926020929091908290030181600087803b1580156107d657600080fd5b505af11580156107ea573d6000803e3d6000fd5b505050506040513d602081101561080057600080fd5b50519150610814828463ffffffff6114ea16565b9050600081111561087d576002546108639061085490610848846d04ee2d6d415b85acef810000000063ffffffff6114fc16565b9063ffffffff61152716565b6009549063ffffffff61136616565b600955600754610879908263ffffffff61136616565b6007555b6040805182815290517f0d7ab7150531466ac81cc2479d86788246bab0e9cc606a06ec6af5c8ab0d6f8e9181900360200190a1505050565b60055460ff1690565b600160a060020a0381166000908152600a6020526040812054610904906d04ee2d6d415b85acef810000000090610848906108f886610d93565b9063ffffffff61136616565b92915050565b6000803361091a61069382610d93565b600160a060020a0382166000908152600a6020818152604080842094909455600954600b825284842055338352522054610968906d04ee2d6d415b85acef810000000063ffffffff61152716565b336000908152600a602052604081205560085490925061098e908363ffffffff61136616565b600855600654604080517fa9059cbb000000000000000000000000000000000000000000000000000000008152336004820152602481018590529051600160a060020a039092169163a9059cbb916044808201926020929091908290030181600087803b1580156109fe57600080fd5b505af1158015610a12573d6000803e3d6000fd5b505050506040513d6020811015610a2857600080fd5b50511515610a3557600080fd5b604080513381526020810184905281517ff5b510c554f6c572235f7e531ec8f287b350b15c212250b993180473a6aeb7d1929181900390910190a160019250505090565b600554600090610100900460ff16158015610aa45750600554620100009004600160a060020a031633145b1515610aaf57600080fd5b600254610ac2908363ffffffff61136616565b600255600160a060020a038316600090815260208190526040902054610aee908363ffffffff61136616565b600160a060020a03841660008181526020818152604091829020939093558051858152905191927f0f6798a560793a54c3bcfe86a93cde1e73087d944c0ea20544137d412139688592918290030190a2604080518381529051600160a060020a038516916000917fddf252ad1be2c89b69c2b068fc378daa952ba7f163c4a11628f55a4df523b3ef9181900360200190a350600192915050565b600654600160a060020a031690565b6000808211610c0757604080517f08c379a000000000000000000000000000000000000000000000000000000000815260206004820152601060248201527f43616e6e6f742073656e64207a65726f00000000000000000000000000000000604482015290519081900360640190fd5b600654604080517f23b872dd000000000000000000000000000000000000000000000000000000008152336004820152306024820152604481018590529051600160a060020a03909216916323b872dd916064808201926020929091908290030181600087803b158015610c7a57600080fd5b505af1158015610c8e573d6000803e3d6000fd5b505050506040513d6020811015610ca457600080fd5b50511515610d1357604080517f08c379a000000000000000000000000000000000000000000000000000000000815260206004820152600f60248201527f5472616e73666572206661696c65640000000000000000000000000000000000604482015290519081900360640190fd5b600254610d3c9061085490610848856d04ee2d6d415b85acef810000000063ffffffff6114fc16565b600955600754610d52908363ffffffff61136616565b60075560408051838152905133917fe3166012cb87b3dec8e117fe0e096a47387f94ea2ec12086ed8ae24ff8c237fe919081900360200190a2506001919050565b600160a060020a0381166000908152600b60205260408120546009548291610dc1919063ffffffff6114ea16565b600160a060020a038416600090815260208190526040902054909150610dee90829063ffffffff6114fc16565b9392505050565b336000908152600160209081526040808320600160a060020a0386168452909152812054808310610e4957336000908152600160209081526040808320600160a060020a0388168452909152812055610e7e565b610e59818463ffffffff6114ea16565b336000908152600160209081526040808320600160a060020a03891684529091529020555b336000818152600160209081526040808320600160a060020a03891680855290835292819020548151908152905192939260008051602061161c833981519152929181900390910190a3600191505b5092915050565b600160a060020a031660009081526020819052604090205490565b600654600160a060020a031681565b600554600090610100900460ff16158015610f295750600554620100009004600160a060020a031633145b1515610f3457600080fd5b506005805461ff001916610100179055600190565b6004805460408051602060026001851615610100026000190190941693909304601f810184900484028201840190925281815292918301828280156106225780601f106105f757610100808354040283529160200191610622565b60095481565b600033610fb961069382610d93565b600160a060020a0382166000908152600a6020908152604080832093909355600954600b9091529190205583610ff161069382610d93565b600160a060020a038083166000908152600a6020908152604080832094909455600954600b90915292902091909155851630141561102e57600080fd5b611038858561153c565b50600195945050505050565b600a6020526000908152604090205481565b60003361106561069382610d93565b600160a060020a0382166000908152600a6020908152604080832093909355600954600b909152919020558461109d61069382610d93565b600160a060020a038083166000908152600a6020908152604080832094909455600954600b8252848320553380835260018252848320938b1680845293825291849020899055835189815293519293919260008051602061161c8339815191529281900390910190a36040517f8f4ffcb10000000000000000000000000000000000000000000000000000000081523360048201818152602483018890523060448401819052608060648501908152885160848601528851600160a060020a038c1695638f4ffcb195948c94938c939192909160a490910190602085019080838360005b83811015611199578181015183820152602001611181565b50505050905090810190601f1680156111c65780820380516001836020036101000a031916815260200191505b5095505050505050600060405180830381600087803b1580156111e857600080fd5b505af11580156111fc573d6000803e3d6000fd5b5060019998505050505050505050565b60038054604080516020601f60026000196101006001881615020190951694909404938401819004810282018101909252828152606093909290918301828280156112985780601f1061126d57610100808354040283529160200191611298565b820191906000526020600020905b81548152906001019060200180831161127b57829003601f168201915b5050505050905090565b336000908152600160209081526040808320600160a060020a03861684529091528120546112d6908363ffffffff61136616565b336000818152600160209081526040808320600160a060020a03891680855290835292819020859055805194855251919360008051602061161c833981519152929081900390910190a350600192915050565b600160a060020a03918216600090815260016020908152604080832093909416825291909152205490565b600b6020526000908152604090205481565b600082820183811015610dee57fe5b600160a060020a03831660009081526020819052604081205482111561139a57600080fd5b600160a060020a03841660009081526001602090815260408083203384529091529020548211156113ca57600080fd5b600160a060020a03831615156113df57600080fd5b600160a060020a038416600090815260208190526040902054611408908363ffffffff6114ea16565b600160a060020a03808616600090815260208190526040808220939093559085168152205461143d908363ffffffff61136616565b600160a060020a0380851660009081526020818152604080832094909455918716815260018252828120338252909152205461147f908363ffffffff6114ea16565b600160a060020a03808616600081815260016020908152604080832033845282529182902094909455805186815290519287169391927fddf252ad1be2c89b69c2b068fc378daa952ba7f163c4a11628f55a4df523b3ef929181900390910190a35060019392505050565b6000828211156114f657fe5b50900390565b60008083151561150f5760009150610ecd565b5082820282848281151561151f57fe5b0414610dee57fe5b6000818381151561153457fe5b049392505050565b3360009081526020819052604081205482111561155857600080fd5b600160a060020a038316151561156d57600080fd5b3360009081526020819052604090205461158d908363ffffffff6114ea16565b3360009081526020819052604080822092909255600160a060020a038516815220546115bf908363ffffffff61136616565b600160a060020a038416600081815260208181526040918290209390935580518581529051919233927fddf252ad1be2c89b69c2b068fc378daa952ba7f163c4a11628f55a4df523b3ef9281900390910190a35060019291505056008c5be1e5ebec7d5bd14f71427d1e84f3dd0314c0f7b2291e5b200ac8c7c3b925a165627a7a723058200c6398bd7298a69093eb42cabcc5722c6adcd629a162cc365bca1d1f4e91f1920029",
  "source": "pragma solidity ^0.4.24;\n\nimport './MintableToken.sol';\nimport '../../math/SafeMath.sol';\nimport '../../interfaces/ERC20.sol';\nimport '../../interfaces/ApproveAndCallFallback.sol';\n\n// @title ERC20 token contract with shared revenue distribution functionality.\n// @notice This token contract can receive ERC20 tokens as payments and token owners receive their share when transferring tokens.\n// @author Kyle Dewhurst & Peter Phillips, MyBit Foundation\n// Credit goes to Nick Johnson for the dividend token https://medium.com/@weka/dividend-bearing-tokens-on-ethereum-42d01c710657\ncontract DividendTokenERC20 is MintableToken {\n    using SafeMath for uint;\n\n    ERC20 public erc20;\n\n    // @notice Token Income Information\n    uint constant scalingFactor = 1e32;\n\n    uint public assetIncome;\n    uint public assetIncomeIssued;\n    uint public valuePerToken;\n\n\n    mapping (address => uint) public incomeClaimed;\n    mapping (address => uint) public previousValuePerToken;\n\n\n    // @notice constructor: initialized\n    constructor(string _tokenURI, address _owner, address _erc20Address)\n    public  MintableToken(_tokenURI, _tokenURI, uint8(18), _owner){\n        erc20 = ERC20(_erc20Address); //Set the address of the ERC20 token that will be issued as dividends\n    }\n\n\n    function transfer(address _to, uint _amount)\n    public\n    updateIncomeClaimed(msg.sender)\n    updateIncomeClaimed(_to)\n    returns (bool success) {\n        require(_to != address(this));\n        super.transfer(_to, _amount);\n        return true;\n    }\n\n\n    function transferFrom(address _from, address _to, uint _amount)\n    public\n    updateIncomeClaimed(_from)\n    updateIncomeClaimed(_to)\n    returns (bool success) {\n        require(_to != address(this));\n        super.transferFrom(_from, _to, _amount);\n        return true;\n    }\n\n    // @notice Token holder can notify a contract that it has been approved to spend _amount of tokens\n    // @param (address) _spender = The contract to call after approval is done\n    // @param (uint) _amount = Number of tokens to send\n    // @param (bytes) _data = Bytes data to send along with the contract call\n    function approveAndCall(address _spender, uint _amount, bytes _data)\n    public\n    updateIncomeClaimed(msg.sender)\n    updateIncomeClaimed(_spender)\n    returns (bool success) {\n        allowed[msg.sender][_spender] = _amount;\n        emit Approval(msg.sender, _spender, _amount);\n        ApproveAndCallFallBack(_spender).receiveApproval(msg.sender, _amount, address(this), _data);\n        return true;\n    }\n\n    function issueDividends(uint _amount)\n    public\n    returns (bool){\n        require(_amount > 0, \"Cannot send zero\");\n        require(erc20.transferFrom(msg.sender, address(this), _amount), \"Transfer failed\");\n        valuePerToken = valuePerToken.add(_amount.mul(scalingFactor).div(supply));\n        assetIncome = assetIncome.add(_amount);\n        emit LogIncomeReceived(msg.sender, _amount);\n        return true;\n    }\n\n    // @notice Updates incomeClaimed, sends all wei to the token holder\n    function withdraw()\n    public\n    updateIncomeClaimed(msg.sender)\n    returns (bool) {\n        uint amount = incomeClaimed[msg.sender].div(scalingFactor);\n        delete incomeClaimed[msg.sender];\n        assetIncomeIssued = assetIncomeIssued.add(amount);\n        require(erc20.transfer(msg.sender, amount));\n        emit LogIncomeCollected(msg.sender, amount);\n        return true;\n    }\n\n    //In case a investor transferred a token directly to this contract\n    //anyone can run this function to clean up the balances\n    //and distribute the difference to token holders\n    function checkForTransfers()\n    external {\n      uint bookBalance = assetIncome.sub(assetIncomeIssued);\n      uint actualBalance = erc20.balanceOf(address(this));\n      uint diffBalance = actualBalance.sub(bookBalance);\n      if(diffBalance > 0){\n        //Update value per token\n        valuePerToken = valuePerToken.add(diffBalance.mul(scalingFactor).div(supply));\n        assetIncome = assetIncome.add(diffBalance);\n      }\n      emit LogCheckBalance(diffBalance);\n    }\n\n\n    // ------------------------------------------------------------------------\n    //                           View functions\n    // ------------------------------------------------------------------------\n\n    // @notice Calculates how much value _investor holds\n    function collectLatestPayments(address _investor)\n    public\n    view\n    returns (uint) {\n        uint valuePerTokenDifference = valuePerToken.sub(previousValuePerToken[_investor]);\n        return valuePerTokenDifference.mul(balances[_investor]);\n    }\n\n    // @notice Calculates how much wei investor is owed. (points + incomeClaimed) / 10**32\n    function getAmountOwed(address _investor)\n    public\n    view\n    returns (uint) {\n        return (collectLatestPayments(_investor).add(incomeClaimed[_investor]).div(scalingFactor));\n    }\n\n    function getERC20()\n    external\n    view\n    returns(address){\n      return address(erc20);\n    }\n\n    // ------------------------------------------------------------------------\n    //                            Modifiers\n    // ------------------------------------------------------------------------\n\n    // Updates the amount owed to investor while holding tokenSupply\n    // @dev must be called before transfering tokens\n    modifier updateIncomeClaimed(address _investor) {\n        incomeClaimed[_investor] = incomeClaimed[_investor].add(collectLatestPayments(_investor));\n        previousValuePerToken[_investor] = valuePerToken;\n        _;\n    }\n\n    // Fallback function:\n    // Only works with ERC223\n    // Can't currently detect which token\n    /*\n    function tokenFallback(address _from, uint _value, bytes _data)\n      public {\n        valuePerToken = valuePerToken.add(_value.mul(scalingFactor).div(supply));\n        assetIncome = assetIncome.add(_value);\n        emit LogIncomeReceived(_from, _value);\n    }\n    */\n\n    event LogIncomeReceived(address indexed _sender, uint _paymentAmount);\n    event LogCheckBalance(uint _difference);\n    event LogIncomeCollected(address _address, uint _amount);\n\n}\n",
  "sourcePath": "/home/peter/Documents/Work/MyBit/MyBit-Network.tech/contracts/tokens/erc20/DividendTokenERC20.sol",
  "compiler": {
    "name": "solc",
    "version": "0.4.24+commit.e67f0147.Emscripten.clang"
  },
  "schemaVersion": "3.0.2",
  "updatedAt": "2019-03-20T20:50:45.067Z",
  "devdoc": {
    "methods": {
      "allowance(address,address)": {
        "details": "Function to check the amount of tokens that an owner allowed to a spender.",
        "params": {
          "_owner": "address The address which owns the funds.",
          "_spender": "address The address which will spend the funds."
        },
        "return": "A uint256 specifying the amount of tokens still available for the spender."
      },
      "approve(address,uint256)": {
        "details": "Approve the passed address to spend the specified amount of tokens on behalf of msg.sender. Beware that changing an allowance with this method brings the risk that someone may use both the old and the new allowance by unfortunate transaction ordering. One possible solution to mitigate this race condition is to first reduce the spender's allowance to 0 and set the desired value afterwards: https://github.com/ethereum/EIPs/issues/20#issuecomment-263524729",
        "params": {
          "_spender": "The address which will spend the funds.",
          "_value": "The amount of tokens to be spent."
        }
      },
      "balanceOf(address)": {
        "details": "Gets the balance of the specified address.",
        "params": {
          "_owner": "The address to query the the balance of."
        },
        "return": "An uint256 representing the amount owned by the passed address."
      },
      "decreaseApproval(address,uint256)": {
        "details": "Decrease the amount of tokens that an owner allowed to a spender. approve should be called when allowed[_spender] == 0. To decrement allowed value is better to use this function to avoid 2 calls (and wait until the first transaction is mined) From MonolithDAO Token.sol",
        "params": {
          "_spender": "The address which will spend the funds.",
          "_subtractedValue": "The amount of tokens to decrease the allowance by."
        }
      },
      "increaseApproval(address,uint256)": {
        "details": "Increase the amount of tokens that an owner allowed to a spender. approve should be called when allowed[_spender] == 0. To increment allowed value is better to use this function to avoid 2 calls (and wait until the first transaction is mined) From MonolithDAO Token.sol",
        "params": {
          "_addedValue": "The amount of tokens to increase the allowance by.",
          "_spender": "The address which will spend the funds."
        }
      },
      "totalSupply()": {
        "details": "Total number of tokens in existence"
      }
    }
  },
  "userdoc": {
    "methods": {}
  }
}