{
  "contractName": "DividendToken",
  "abi": [
    {
      "constant": true,
      "inputs": [],
      "name": "mintingFinished",
      "outputs": [
        {
          "name": "",
          "type": "bool"
        }
      ],
      "payable": false,
      "stateMutability": "view",
      "type": "function"
    },
    {
      "constant": false,
      "inputs": [
        {
          "name": "_spender",
          "type": "address"
        },
        {
          "name": "_value",
          "type": "uint256"
        }
      ],
      "name": "approve",
      "outputs": [
        {
          "name": "",
          "type": "bool"
        }
      ],
      "payable": false,
      "stateMutability": "nonpayable",
      "type": "function"
    },
    {
      "constant": true,
      "inputs": [],
      "name": "totalSupply",
      "outputs": [
        {
          "name": "",
          "type": "uint256"
        }
      ],
      "payable": false,
      "stateMutability": "view",
      "type": "function"
    },
    {
      "constant": true,
      "inputs": [],
      "name": "assetIncome",
      "outputs": [
        {
          "name": "",
          "type": "uint256"
        }
      ],
      "payable": false,
      "stateMutability": "view",
      "type": "function"
    },
    {
      "constant": false,
      "inputs": [
        {
          "name": "_to",
          "type": "address"
        },
        {
          "name": "_amount",
          "type": "uint256"
        }
      ],
      "name": "mint",
      "outputs": [
        {
          "name": "",
          "type": "bool"
        }
      ],
      "payable": false,
      "stateMutability": "nonpayable",
      "type": "function"
    },
    {
      "constant": false,
      "inputs": [
        {
          "name": "_spender",
          "type": "address"
        },
        {
          "name": "_subtractedValue",
          "type": "uint256"
        }
      ],
      "name": "decreaseApproval",
      "outputs": [
        {
          "name": "",
          "type": "bool"
        }
      ],
      "payable": false,
      "stateMutability": "nonpayable",
      "type": "function"
    },
    {
      "constant": true,
      "inputs": [
        {
          "name": "_owner",
          "type": "address"
        }
      ],
      "name": "balanceOf",
      "outputs": [
        {
          "name": "",
          "type": "uint256"
        }
      ],
      "payable": false,
      "stateMutability": "view",
      "type": "function"
    },
    {
      "constant": false,
      "inputs": [],
      "name": "finishMinting",
      "outputs": [
        {
          "name": "",
          "type": "bool"
        }
      ],
      "payable": false,
      "stateMutability": "nonpayable",
      "type": "function"
    },
    {
      "constant": true,
      "inputs": [],
      "name": "valuePerToken",
      "outputs": [
        {
          "name": "",
          "type": "uint256"
        }
      ],
      "payable": false,
      "stateMutability": "view",
      "type": "function"
    },
    {
      "constant": true,
      "inputs": [
        {
          "name": "",
          "type": "address"
        }
      ],
      "name": "incomeOwed",
      "outputs": [
        {
          "name": "",
          "type": "uint256"
        }
      ],
      "payable": false,
      "stateMutability": "view",
      "type": "function"
    },
    {
      "constant": true,
      "inputs": [],
      "name": "getTokenURI",
      "outputs": [
        {
          "name": "",
          "type": "string"
        }
      ],
      "payable": false,
      "stateMutability": "view",
      "type": "function"
    },
    {
      "constant": false,
      "inputs": [
        {
          "name": "_spender",
          "type": "address"
        },
        {
          "name": "_addedValue",
          "type": "uint256"
        }
      ],
      "name": "increaseApproval",
      "outputs": [
        {
          "name": "",
          "type": "bool"
        }
      ],
      "payable": false,
      "stateMutability": "nonpayable",
      "type": "function"
    },
    {
      "constant": true,
      "inputs": [
        {
          "name": "_owner",
          "type": "address"
        },
        {
          "name": "_spender",
          "type": "address"
        }
      ],
      "name": "allowance",
      "outputs": [
        {
          "name": "",
          "type": "uint256"
        }
      ],
      "payable": false,
      "stateMutability": "view",
      "type": "function"
    },
    {
      "constant": true,
      "inputs": [
        {
          "name": "",
          "type": "address"
        }
      ],
      "name": "previousValuePerToken",
      "outputs": [
        {
          "name": "",
          "type": "uint256"
        }
      ],
      "payable": false,
      "stateMutability": "view",
      "type": "function"
    },
    {
      "inputs": [
        {
          "name": "_tokenURI",
          "type": "string"
        },
        {
          "name": "_owner",
          "type": "address"
        }
      ],
      "payable": false,
      "stateMutability": "nonpayable",
      "type": "constructor"
    },
    {
      "payable": true,
      "stateMutability": "payable",
      "type": "fallback"
    },
    {
      "anonymous": false,
      "inputs": [
        {
          "indexed": true,
          "name": "_sender",
          "type": "address"
        },
        {
          "indexed": false,
          "name": "_paymentAmount",
          "type": "uint256"
        }
      ],
      "name": "LogIncomeReceived",
      "type": "event"
    },
    {
      "anonymous": false,
      "inputs": [
        {
          "indexed": false,
          "name": "_address",
          "type": "address"
        },
        {
          "indexed": false,
          "name": "_amount",
          "type": "uint256"
        }
      ],
      "name": "LogIncomeCollected",
      "type": "event"
    },
    {
      "anonymous": false,
      "inputs": [
        {
          "indexed": true,
          "name": "to",
          "type": "address"
        },
        {
          "indexed": false,
          "name": "amount",
          "type": "uint256"
        }
      ],
      "name": "Mint",
      "type": "event"
    },
    {
      "anonymous": false,
      "inputs": [],
      "name": "MintFinished",
      "type": "event"
    },
    {
      "anonymous": false,
      "inputs": [
        {
          "indexed": true,
          "name": "from",
          "type": "address"
        },
        {
          "indexed": true,
          "name": "to",
          "type": "address"
        },
        {
          "indexed": false,
          "name": "value",
          "type": "uint256"
        }
      ],
      "name": "Transfer",
      "type": "event"
    },
    {
      "anonymous": false,
      "inputs": [
        {
          "indexed": true,
          "name": "owner",
          "type": "address"
        },
        {
          "indexed": true,
          "name": "spender",
          "type": "address"
        },
        {
          "indexed": false,
          "name": "value",
          "type": "uint256"
        }
      ],
      "name": "Approval",
      "type": "event"
    },
    {
      "constant": false,
      "inputs": [
        {
          "name": "_to",
          "type": "address"
        },
        {
          "name": "_amount",
          "type": "uint256"
        }
      ],
      "name": "transfer",
      "outputs": [
        {
          "name": "success",
          "type": "bool"
        }
      ],
      "payable": false,
      "stateMutability": "nonpayable",
      "type": "function"
    },
    {
      "constant": false,
      "inputs": [
        {
          "name": "_from",
          "type": "address"
        },
        {
          "name": "_to",
          "type": "address"
        },
        {
          "name": "_amount",
          "type": "uint256"
        }
      ],
      "name": "transferFrom",
      "outputs": [
        {
          "name": "success",
          "type": "bool"
        }
      ],
      "payable": false,
      "stateMutability": "nonpayable",
      "type": "function"
    },
    {
      "constant": false,
      "inputs": [
        {
          "name": "_spender",
          "type": "address"
        },
        {
          "name": "_amount",
          "type": "uint256"
        },
        {
          "name": "_data",
          "type": "bytes"
        }
      ],
      "name": "approveAndCall",
      "outputs": [
        {
          "name": "success",
          "type": "bool"
        }
      ],
      "payable": false,
      "stateMutability": "nonpayable",
      "type": "function"
    },
    {
      "constant": false,
      "inputs": [],
      "name": "withdraw",
      "outputs": [
        {
          "name": "",
          "type": "bool"
        }
      ],
      "payable": false,
      "stateMutability": "nonpayable",
      "type": "function"
    },
    {
      "constant": false,
      "inputs": [],
      "name": "issueDividends",
      "outputs": [
        {
          "name": "",
          "type": "bool"
        }
      ],
      "payable": true,
      "stateMutability": "payable",
      "type": "function"
    },
    {
      "constant": true,
      "inputs": [],
      "name": "getERC20",
      "outputs": [
        {
          "name": "",
          "type": "address"
        }
      ],
      "payable": false,
      "stateMutability": "pure",
      "type": "function"
    },
    {
      "constant": true,
      "inputs": [
        {
          "name": "_investor",
          "type": "address"
        }
      ],
      "name": "getAmountOwed",
      "outputs": [
        {
          "name": "",
          "type": "uint256"
        }
      ],
      "payable": false,
      "stateMutability": "view",
      "type": "function"
    }
  ],
  "bytecode": "0x608060405234801561001057600080fd5b50604051620012ae380380620012ae8339810160405280516020808301519190920180519092839183916100499160049185019061007d565b5060038054600160a060020a039092166101000261010060a860020a03199092169190911790555050600060025550610118565b828054600181600116156101000203166002900490600052602060002090601f016020900481019282601f106100be57805160ff19168380011785556100eb565b828001600101855582156100eb579182015b828111156100eb5782518255916020019190600101906100d0565b506100f79291506100fb565b5090565b61011591905b808211156100f75760008155600101610101565b90565b61118680620001286000396000f30060806040526004361061011c5763ffffffff7c010000000000000000000000000000000000000000000000000000000060003504166305d2035b81146101b1578063095ea7b3146101da57806318160ddd146101fe57806323b872dd146102255780632ba1b3a11461024f5780633bdfa920146102645780633ccfd60b1461028557806340c10f191461029a5780634ece90a8146102be57806366188463146102ef57806370a08231146103135780637d64bcb414610334578063a8fa8e5214610349578063a9059cbb1461035e578063b5a83d4314610382578063cae9ca51146103a3578063d4a191161461040c578063d73dd62314610496578063dd62ed3e146104ba578063eba74e5c146104e1578063efcb5dea146104e9575b60065461012f903463ffffffff61050a16565b600655600254610176906101679061015b346d04ee2d6d415b85acef810000000063ffffffff61052416565b9063ffffffff61054f16565b6005549063ffffffff61050a16565b60055560408051348152905133917fe3166012cb87b3dec8e117fe0e096a47387f94ea2ec12086ed8ae24ff8c237fe919081900360200190a2005b3480156101bd57600080fd5b506101c6610564565b604080519115158252519081900360200190f35b3480156101e657600080fd5b506101c6600160a060020a036004351660243561056d565b34801561020a57600080fd5b506102136105c1565b60408051918252519081900360200190f35b34801561023157600080fd5b506101c6600160a060020a03600435811690602435166044356105c7565b34801561025b57600080fd5b50610213610688565b34801561027057600080fd5b50610213600160a060020a036004351661068e565b34801561029157600080fd5b506101c66106da565b3480156102a657600080fd5b506101c6600160a060020a03600435166024356107bd565b3480156102ca57600080fd5b506102d36108c6565b60408051600160a060020a039092168252519081900360200190f35b3480156102fb57600080fd5b506101c6600160a060020a03600435166024356108cb565b34801561031f57600080fd5b50610213600160a060020a03600435166109a8565b34801561034057600080fd5b506101c66109c3565b34801561035557600080fd5b50610213610a2f565b34801561036a57600080fd5b506101c6600160a060020a0360043516602435610a35565b34801561038e57600080fd5b50610213600160a060020a0360043516610acf565b3480156103af57600080fd5b50604080516020600460443581810135601f81018490048402850184019095528484526101c6948235600160a060020a0316946024803595369594606494920191908190840183828082843750949750610ae19650505050505050565b34801561041857600080fd5b50610421610c97565b6040805160208082528351818301528351919283929083019185019080838360005b8381101561045b578181015183820152602001610443565b50505050905090810190601f1680156104885780820380516001836020036101000a031916815260200191505b509250505060405180910390f35b3480156104a257600080fd5b506101c6600160a060020a0360043516602435610d2d565b3480156104c657600080fd5b50610213600160a060020a0360043581169060243516610db4565b6101c6610ddf565b3480156104f557600080fd5b50610213600160a060020a0360043516610e60565b60008282018381101561051957fe5b8091505b5092915050565b600080831515610537576000915061051d565b5082820282848281151561054757fe5b041461051957fe5b6000818381151561055c57fe5b049392505050565b60035460ff1681565b336000818152600160209081526040808320600160a060020a0387168085529083528184208690558151868152915193949093909260008051602061113b833981519152928290030190a350600192915050565b60025490565b6000836105fb6105d682610e72565b600160a060020a0383166000908152600760205260409020549063ffffffff61050a16565b600160a060020a038216600090815260076020908152604080832093909355600554600890915291902055836106336105d682610e72565b600160a060020a03808316600090815260076020908152604080832094909455600554600890915292902091909155851630141561067057600080fd5b61067b868686610ed4565b5060019695505050505050565b60065481565b600160a060020a0381166000908152600760205260408120546106d4906d04ee2d6d415b85acef81000000009061015b906106c886610e72565b9063ffffffff61050a16565b92915050565b600080336106ea6105d682610e72565b600160a060020a0382166000908152600760208181526040808420949094556005546008825284842055338352522054610738906d04ee2d6d415b85acef810000000063ffffffff61054f16565b336000818152600760209081526040808320929092558151928352820183905280519294507ff5b510c554f6c572235f7e531ec8f287b350b15c212250b993180473a6aeb7d192918290030190a1604051339083156108fc029084906000818181858888f193505050501580156107b3573d6000803e3d6000fd5b5060019250505090565b60035460009060ff161580156107e257506003546101009004600160a060020a031633145b15156107ed57600080fd5b600254610800908363ffffffff61050a16565b600255600160a060020a03831660009081526020819052604090205461082c908363ffffffff61050a16565b600160a060020a03841660008181526020818152604091829020939093558051858152905191927f0f6798a560793a54c3bcfe86a93cde1e73087d944c0ea20544137d412139688592918290030190a2604080518381529051600160a060020a038516916000917fddf252ad1be2c89b69c2b068fc378daa952ba7f163c4a11628f55a4df523b3ef9181900360200190a350600192915050565b600090565b336000908152600160209081526040808320600160a060020a038616845290915281205480831061091f57336000908152600160209081526040808320600160a060020a0388168452909152812055610954565b61092f818463ffffffff61104916565b336000908152600160209081526040808320600160a060020a03891684529091529020555b336000818152600160209081526040808320600160a060020a03891680855290835292819020548151908152905192939260008051602061113b833981519152929181900390910190a35060019392505050565b600160a060020a031660009081526020819052604090205490565b60035460009060ff161580156109e857506003546101009004600160a060020a031633145b15156109f357600080fd5b6003805460ff191660011790556040517fae5184fba832cb2b1f702aca6117b8d265eaf03ad33eb133f19dde0f5920fa0890600090a150600190565b60055481565b600033610a446105d682610e72565b600160a060020a03821660009081526007602090815260408083209390935560055460089091529190205583610a7c6105d682610e72565b600160a060020a038083166000908152600760209081526040808320949094556005546008909152929020919091558516301415610ab957600080fd5b610ac3858561105b565b50600195945050505050565b60076020526000908152604090205481565b600033610af06105d682610e72565b600160a060020a03821660009081526007602090815260408083209390935560055460089091529190205584610b286105d682610e72565b600160a060020a0380831660009081526007602090815260408083209490945560055460088252848320553380835260018252848320938b1680845293825291849020899055835189815293519293919260008051602061113b8339815191529281900390910190a36040517f8f4ffcb10000000000000000000000000000000000000000000000000000000081523360048201818152602483018890523060448401819052608060648501908152885160848601528851600160a060020a038c1695638f4ffcb195948c94938c939192909160a490910190602085019080838360005b83811015610c24578181015183820152602001610c0c565b50505050905090810190601f168015610c515780820380516001836020036101000a031916815260200191505b5095505050505050600060405180830381600087803b158015610c7357600080fd5b505af1158015610c87573d6000803e3d6000fd5b5060019998505050505050505050565b60048054604080516020601f6002600019610100600188161502019095169490940493840181900481028201810190925282815260609390929091830182828015610d235780601f10610cf857610100808354040283529160200191610d23565b820191906000526020600020905b815481529060010190602001808311610d0657829003601f168201915b5050505050905090565b336000908152600160209081526040808320600160a060020a0386168452909152812054610d61908363ffffffff61050a16565b336000818152600160209081526040808320600160a060020a03891680855290835292819020859055805194855251919360008051602061113b833981519152929081900390910190a350600192915050565b600160a060020a03918216600090815260016020908152604080832093909416825291909152205490565b600654600090610df5903463ffffffff61050a16565b600655600254610e21906101679061015b346d04ee2d6d415b85acef810000000063ffffffff61052416565b60055560408051348152905133917fe3166012cb87b3dec8e117fe0e096a47387f94ea2ec12086ed8ae24ff8c237fe919081900360200190a250600190565b60086020526000908152604090205481565b600160a060020a0381166000908152600860205260408120546005548291610ea0919063ffffffff61104916565b600160a060020a038416600090815260208190526040902054909150610ecd90829063ffffffff61052416565b9392505050565b600160a060020a038316600090815260208190526040812054821115610ef957600080fd5b600160a060020a0384166000908152600160209081526040808320338452909152902054821115610f2957600080fd5b600160a060020a0383161515610f3e57600080fd5b600160a060020a038416600090815260208190526040902054610f67908363ffffffff61104916565b600160a060020a038086166000908152602081905260408082209390935590851681522054610f9c908363ffffffff61050a16565b600160a060020a03808516600090815260208181526040808320949094559187168152600182528281203382529091522054610fde908363ffffffff61104916565b600160a060020a03808616600081815260016020908152604080832033845282529182902094909455805186815290519287169391927fddf252ad1be2c89b69c2b068fc378daa952ba7f163c4a11628f55a4df523b3ef929181900390910190a35060019392505050565b60008282111561105557fe5b50900390565b3360009081526020819052604081205482111561107757600080fd5b600160a060020a038316151561108c57600080fd5b336000908152602081905260409020546110ac908363ffffffff61104916565b3360009081526020819052604080822092909255600160a060020a038516815220546110de908363ffffffff61050a16565b600160a060020a038416600081815260208181526040918290209390935580518581529051919233927fddf252ad1be2c89b69c2b068fc378daa952ba7f163c4a11628f55a4df523b3ef9281900390910190a35060019291505056008c5be1e5ebec7d5bd14f71427d1e84f3dd0314c0f7b2291e5b200ac8c7c3b925a165627a7a723058203df27bb56631afd302a0b5b6f509ad1c457cf7d5086fd43b2678bc7f734f5c5c0029",
  "source": "pragma solidity ^0.4.24;\n\nimport './MintableToken.sol';\nimport '../../math/SafeMath.sol';\nimport '../../interfaces/ApproveAndCallFallback.sol';\n\n// @title ERC20 token contract with shared revenue distribution functionality.\n// @notice This token contract can receive payments in the fallback function and token owners receive their share when transferring tokens.\n// @author Kyle Dewhurst & Peter Phillips MyBit Foundation\n// Credit goes to Nick Johnson for the dividend token https://medium.com/@weka/dividend-bearing-tokens-on-ethereum-42d01c710657\ncontract DividendToken is MintableToken {\n    using SafeMath for uint;\n\n    // @notice Token Income Information\n    uint constant scalingFactor = 1e32;\n    uint public valuePerToken;\n    uint public assetIncome;\n\n    mapping (address => uint) public incomeOwed;\n    mapping (address => uint) public previousValuePerToken;\n\n\n    // @notice constructor: initialized\n    constructor(string _tokenURI, address _owner)\n    public\n    MintableToken(_tokenURI, _owner){}\n\n    // @notice Transfer _amount tokens to address _to.\n    // @dev Sender must have enough tokens. Cannot send to 0x0.\n    // @param (address) _to = The address which will receive the tokens\n    // @param (uint) _amount = The amount of tokens to send\n    function transfer(address _to, uint _amount)\n    public\n    updateIncomeClaimed(msg.sender)\n    updateIncomeClaimed(_to)\n    returns (bool success) {\n        require(_to != address(this));\n        super.transfer(_to, _amount);\n        return true;\n    }\n\n    // @notice A 3rd party can transfer tokens if investor approves them to do so\n    // @dev Transfer _amount of tokens if _from has allowed msg.sender to do so.\n    // @param (address) _from = The address who approved msg.sender to spend tokens\n    // @param (address) _to = The address who will receive the tokens\n    // @param (uint) _amount = The number of tokens to send\n    function transferFrom(address _from, address _to, uint _amount)\n    public\n    updateIncomeClaimed(_from)\n    updateIncomeClaimed(_to)\n    returns (bool success) {\n        require(_to != address(this));\n        super.transferFrom(_from, _to, _amount);\n        return true;\n    }\n\n    // @notice Token holder can notify a contract that it has been approved to spend _amount of tokens\n    // @param (address) _spender = The contract to call after approval is done\n    // @param (uint) _amount = Number of tokens to send\n    // @param (bytes) _data = Bytes data to send along with the contract call\n    function approveAndCall(address _spender, uint _amount, bytes _data)\n    public\n    updateIncomeClaimed(msg.sender)\n    updateIncomeClaimed(_spender)\n    returns (bool success) {\n        allowed[msg.sender][_spender] = _amount;\n        emit Approval(msg.sender, _spender, _amount);\n        ApproveAndCallFallBack(_spender).receiveApproval(msg.sender, _amount, address(this), _data);\n        return true;\n    }\n\n    // @notice token holders can withdraw income here\n    function withdraw()\n    public\n    updateIncomeClaimed(msg.sender)\n    returns (bool) {\n        uint amount = incomeOwed[msg.sender].div(scalingFactor);\n        delete incomeOwed[msg.sender];\n        emit LogIncomeCollected(msg.sender, amount);\n        msg.sender.transfer(amount);\n        return true;\n    }\n\n    // @notice assets can send their income here to be collected by investors\n    function issueDividends()\n    payable\n    public\n    returns (bool) {\n        assetIncome = assetIncome.add(msg.value);\n        valuePerToken = valuePerToken.add(msg.value.mul(scalingFactor).div(supply));\n        emit LogIncomeReceived(msg.sender, msg.value);\n        return true;\n    }\n\n    // @notice returns null address to specify this token accepts only Ether payments\n    function getERC20()\n    external\n    pure\n    returns(address){\n      return address(0);\n    }\n\n    // Fallback function: receives Ether and updates income ledger\n    function ()\n    payable\n    public {\n        assetIncome = assetIncome.add(msg.value);\n        valuePerToken = valuePerToken.add(msg.value.mul(scalingFactor).div(supply));\n        emit LogIncomeReceived(msg.sender, msg.value);\n    }\n\n\n    // ------------------------------------------------------------------------\n    //                           View functions\n    // ------------------------------------------------------------------------\n\n    // @notice Calculates how much more income is owed to investor since last calculation\n    function collectLatestPayments(address _investor)\n    private\n    view\n    returns (uint) {\n        uint valuePerTokenDifference = valuePerToken.sub(previousValuePerToken[_investor]);\n        return valuePerTokenDifference.mul(balances[_investor]);\n    }\n\n    // @notice Calculates how much wei investor is owed. (points + incomeOwed) / 10**32\n    function getAmountOwed(address _investor)\n    public\n    view\n    returns (uint) {\n        return (collectLatestPayments(_investor).add(incomeOwed[_investor]).div(scalingFactor));\n    }\n\n    // ------------------------------------------------------------------------\n    //                            Modifiers\n    // ------------------------------------------------------------------------\n\n    // Updates the amount owed to investor while holding tokenSupply\n    // @dev must be called before transfering tokens\n    modifier updateIncomeClaimed(address _investor) {\n        incomeOwed[_investor] = incomeOwed[_investor].add(collectLatestPayments(_investor));\n        previousValuePerToken[_investor] = valuePerToken;\n        _;\n    }\n\n    event LogIncomeReceived(address indexed _sender, uint _paymentAmount);\n    event LogIncomeCollected(address _address, uint _amount);\n\n}\n",
  "sourcePath": "/home/peter/Documents/Work/MyBit/MyBit-Network.tech/contracts/tokens/erc20/DividendToken.sol",
  "compiler": {
    "name": "solc",
    "version": "0.4.25+commit.59dbf8f1.Emscripten.clang"
  },
  "schemaVersion": "3.0.0-beta.0",
  "updatedAt": "2018-12-06T01:19:16.937Z"
}