{
  "contractName": "ERC20Burner",
  "abi": [
    {
      "constant": true,
      "inputs": [],
      "name": "database",
      "outputs": [
        {
          "name": "",
          "type": "address"
        }
      ],
      "payable": false,
      "stateMutability": "view",
      "type": "function"
    },
    {
      "constant": true,
      "inputs": [],
      "name": "token",
      "outputs": [
        {
          "name": "",
          "type": "address"
        }
      ],
      "payable": false,
      "stateMutability": "view",
      "type": "function"
    },
    {
      "inputs": [
        {
          "name": "_database",
          "type": "address"
        }
      ],
      "payable": false,
      "stateMutability": "nonpayable",
      "type": "constructor"
    },
    {
      "payable": true,
      "stateMutability": "payable",
      "type": "fallback"
    },
    {
      "anonymous": false,
      "inputs": [
        {
          "indexed": false,
          "name": "_tokenHolder",
          "type": "address"
        },
        {
          "indexed": false,
          "name": "_burningContract",
          "type": "address"
        },
        {
          "indexed": false,
          "name": "_amount",
          "type": "uint256"
        }
      ],
      "name": "LogMYBBurned",
      "type": "event"
    },
    {
      "anonymous": false,
      "inputs": [
        {
          "indexed": true,
          "name": "_contractAddress",
          "type": "address"
        },
        {
          "indexed": false,
          "name": "_methodID",
          "type": "bytes4"
        },
        {
          "indexed": false,
          "name": "_amount",
          "type": "uint256"
        }
      ],
      "name": "LogFeeAdded",
      "type": "event"
    },
    {
      "constant": false,
      "inputs": [
        {
          "name": "_tokenHolder",
          "type": "address"
        },
        {
          "name": "_amount",
          "type": "uint256"
        }
      ],
      "name": "burn",
      "outputs": [
        {
          "name": "",
          "type": "bool"
        }
      ],
      "payable": false,
      "stateMutability": "nonpayable",
      "type": "function"
    },
    {
      "constant": false,
      "inputs": [
        {
          "name": "_methodID",
          "type": "bytes4"
        },
        {
          "name": "_contractAddress",
          "type": "address"
        },
        {
          "name": "_amount",
          "type": "uint256"
        }
      ],
      "name": "setFee",
      "outputs": [
        {
          "name": "",
          "type": "bool"
        }
      ],
      "payable": false,
      "stateMutability": "nonpayable",
      "type": "function"
    }
  ],
  "bytecode": "0x608060405234801561001057600080fd5b506040516020806111938339810180604052810190808051906020019092919050505080600160006101000a81548173ffffffffffffffffffffffffffffffffffffffff021916908373ffffffffffffffffffffffffffffffffffffffff160217905550600160009054906101000a900473ffffffffffffffffffffffffffffffffffffffff1673ffffffffffffffffffffffffffffffffffffffff166304f49a3a60405160200180807f706c6174666f726d546f6b656e00000000000000000000000000000000000000815250600d0190506040516020818303038152906040526040518082805190602001908083835b6020831015156101275780518252602082019150602081019050602083039250610102565b6001836020036101000a03801982511681845116808217855250505050505090500191505060405180910390206040518263ffffffff167c0100000000000000000000000000000000000000000000000000000000028152600401808260001916600019168152602001915050602060405180830381600087803b1580156101ae57600080fd5b505af11580156101c2573d6000803e3d6000fd5b505050506040513d60208110156101d857600080fd5b81019080805190602001909291905050506000806101000a81548173ffffffffffffffffffffffffffffffffffffffff021916908373ffffffffffffffffffffffffffffffffffffffff160217905550600073ffffffffffffffffffffffffffffffffffffffff166000809054906101000a900473ffffffffffffffffffffffffffffffffffffffff1673ffffffffffffffffffffffffffffffffffffffff161415151561028557600080fd5b50610efe806102956000396000f300608060405260043610610062576000357c0100000000000000000000000000000000000000000000000000000000900463ffffffff168063713b563f146100675780639dc29fac146100be578063fc0c546a14610123578063ffa4b26f1461017a575b600080fd5b34801561007357600080fd5b5061007c610208565b604051808273ffffffffffffffffffffffffffffffffffffffff1673ffffffffffffffffffffffffffffffffffffffff16815260200191505060405180910390f35b3480156100ca57600080fd5b50610109600480360381019080803573ffffffffffffffffffffffffffffffffffffffff1690602001909291908035906020019092919050505061022e565b604051808215151515815260200191505060405180910390f35b34801561012f57600080fd5b50610138610a8e565b604051808273ffffffffffffffffffffffffffffffffffffffff1673ffffffffffffffffffffffffffffffffffffffff16815260200191505060405180910390f35b34801561018657600080fd5b506101ee60048036038101908080357bffffffffffffffffffffffffffffffffffffffffffffffffffffffff19169060200190929190803573ffffffffffffffffffffffffffffffffffffffff16906020019092919080359060200190929190505050610ab3565b604051808215151515815260200191505060405180910390f35b600160009054906101000a900473ffffffffffffffffffffffffffffffffffffffff1681565b600033600160009054906101000a900473ffffffffffffffffffffffffffffffffffffffff1673ffffffffffffffffffffffffffffffffffffffff16633b7bfda08260405160200180807f636f6e74726163740000000000000000000000000000000000000000000000008152506008018273ffffffffffffffffffffffffffffffffffffffff1673ffffffffffffffffffffffffffffffffffffffff166c010000000000000000000000000281526014019150506040516020818303038152906040526040518082805190602001908083835b6020831015156103275780518252602082019150602081019050602083039250610302565b6001836020036101000a03801982511681845116808217855250505050505090500191505060405180910390206040518263ffffffff167c0100000000000000000000000000000000000000000000000000000000028152600401808260001916600019168152602001915050602060405180830381600087803b1580156103ae57600080fd5b505af11580156103c2573d6000803e3d6000fd5b505050506040513d60208110156103d857600080fd5b810190808051906020019092919050505015156103f457600080fd5b836000600160009054906101000a900473ffffffffffffffffffffffffffffffffffffffff1673ffffffffffffffffffffffffffffffffffffffff1663031578af60405160200180807f63757272656e7453746174650000000000000000000000000000000000000000815250600c0190506040516020818303038152906040526040518082805190602001908083835b6020831015156104aa5780518252602082019150602081019050602083039250610485565b6001836020036101000a03801982511681845116808217855250505050505090500191505060405180910390206040518263ffffffff167c0100000000000000000000000000000000000000000000000000000000028152600401808260001916600019168152602001915050602060405180830381600087803b15801561053157600080fd5b505af1158015610545573d6000803e3d6000fd5b505050506040513d602081101561055b57600080fd5b81019080805190602001909291905050509050600160009054906101000a900473ffffffffffffffffffffffffffffffffffffffff1673ffffffffffffffffffffffffffffffffffffffff16633b7bfda082846040516020018083600019166000191681526020018273ffffffffffffffffffffffffffffffffffffffff1673ffffffffffffffffffffffffffffffffffffffff166c01000000000000000000000000028152601401925050506040516020818303038152906040526040518082805190602001908083835b60208310151561064c5780518252602082019150602081019050602083039250610627565b6001836020036101000a03801982511681845116808217855250505050505090500191505060405180910390206040518263ffffffff167c0100000000000000000000000000000000000000000000000000000000028152600401808260001916600019168152602001915050602060405180830381600087803b1580156106d357600080fd5b505af11580156106e7573d6000803e3d6000fd5b505050506040513d60208110156106fd57600080fd5b8101908080519060200190929190505050806108cd5750600160009054906101000a900473ffffffffffffffffffffffffffffffffffffffff1673ffffffffffffffffffffffffffffffffffffffff16633b7bfda08360405160200180807f69676e6f726553746174654368616e67657300000000000000000000000000008152506012018273ffffffffffffffffffffffffffffffffffffffff1673ffffffffffffffffffffffffffffffffffffffff166c010000000000000000000000000281526014019150506040516020818303038152906040526040518082805190602001908083835b60208310151561080a57805182526020820191506020810190506020830392506107e5565b6001836020036101000a03801982511681845116808217855250505050505090500191505060405180910390206040518263ffffffff167c0100000000000000000000000000000000000000000000000000000000028152600401808260001916600019168152602001915050602060405180830381600087803b15801561089157600080fd5b505af11580156108a5573d6000803e3d6000fd5b505050506040513d60208110156108bb57600080fd5b81019080805190602001909291905050505b15156108d857600080fd5b6000809054906101000a900473ffffffffffffffffffffffffffffffffffffffff1673ffffffffffffffffffffffffffffffffffffffff166379cc679087876040518363ffffffff167c0100000000000000000000000000000000000000000000000000000000028152600401808373ffffffffffffffffffffffffffffffffffffffff1673ffffffffffffffffffffffffffffffffffffffff16815260200182815260200192505050602060405180830381600087803b15801561099c57600080fd5b505af11580156109b0573d6000803e3d6000fd5b505050506040513d60208110156109c657600080fd5b810190808051906020019092919050505015156109e257600080fd5b7fc87395c9a7116ce3ca8faa3215953102d6de8710810272a66800b11bbb588aa6863387604051808473ffffffffffffffffffffffffffffffffffffffff1673ffffffffffffffffffffffffffffffffffffffff1681526020018373ffffffffffffffffffffffffffffffffffffffff1673ffffffffffffffffffffffffffffffffffffffff168152602001828152602001935050505060405180910390a16001935050505092915050565b6000809054906101000a900473ffffffffffffffffffffffffffffffffffffffff1681565b6000600160009054906101000a900473ffffffffffffffffffffffffffffffffffffffff1673ffffffffffffffffffffffffffffffffffffffff16633b7bfda03360405160200180807f6f776e65720000000000000000000000000000000000000000000000000000008152506005018273ffffffffffffffffffffffffffffffffffffffff1673ffffffffffffffffffffffffffffffffffffffff166c010000000000000000000000000281526014019150506040516020818303038152906040526040518082805190602001908083835b602083101515610bab5780518252602082019150602081019050602083039250610b86565b6001836020036101000a03801982511681845116808217855250505050505090500191505060405180910390206040518263ffffffff167c0100000000000000000000000000000000000000000000000000000000028152600401808260001916600019168152602001915050602060405180830381600087803b158015610c3257600080fd5b505af1158015610c46573d6000803e3d6000fd5b505050506040513d6020811015610c5c57600080fd5b81019080805190602001909291905050501515610c7857600080fd5b600160009054906101000a900473ffffffffffffffffffffffffffffffffffffffff1673ffffffffffffffffffffffffffffffffffffffff1663e2a4853a858560405160200180837bffffffffffffffffffffffffffffffffffffffffffffffffffffffff19167bffffffffffffffffffffffffffffffffffffffffffffffffffffffff191681526004018273ffffffffffffffffffffffffffffffffffffffff1673ffffffffffffffffffffffffffffffffffffffff166c01000000000000000000000000028152601401925050506040516020818303038152906040526040518082805190602001908083835b602083101515610d8c5780518252602082019150602081019050602083039250610d67565b6001836020036101000a0380198251168184511680821785525050505050509050019150506040518091039020846040518363ffffffff167c010000000000000000000000000000000000000000000000000000000002815260040180836000191660001916815260200182815260200192505050600060405180830381600087803b158015610e1b57600080fd5b505af1158015610e2f573d6000803e3d6000fd5b505050508273ffffffffffffffffffffffffffffffffffffffff167fa88a2594d27323cfa2e4148a3b67650d8860492e9b2407e66e1440694633f726858460405180837bffffffffffffffffffffffffffffffffffffffffffffffffffffffff19167bffffffffffffffffffffffffffffffffffffffffffffffffffffffff191681526020018281526020019250505060405180910390a26001905093925050505600a165627a7a72305820d4c2f8b5029b1373f8fa4f8f2ed86de001418d25872517513b65eb46b3aef4c20029",
  "source": "pragma solidity 0.4.24;\n\nimport '../interfaces/BurnableERC20.sol';\nimport \"../interfaces/DBInterface.sol\";\n\n/// @title A contract for burning ERC20 tokens as usage fee for dapps\n/// @author Kyle Dewhurst & Peter Phillips MyBit Foundation\n/// @notice Allows Dapps to call this contract to burn ERC20 tokens as a usage fee\n/// @dev This contract does not accept tokens. It only burns tokens from users wallets when approved to do so\ncontract ERC20Burner {\n\n  BurnableERC20 public token;  // The instance of the ERC20 burner contract\n  DBInterface public database;   // The datbase instance\n\n\n  // @notice constructor: initializes database and the MYB token\n  // @param: the address for the database contract used by this platform\n  constructor(address _database)\n  public {\n    database = DBInterface(_database);\n    token = BurnableERC20(database.addressStorage(keccak256(abi.encodePacked(\"platformToken\"))));\n    require(address(token) != address(0));\n  }\n\n  // @notice authorized contracts can burn mybit tokens here if the user has approved this contract to do so\n  // @param (address) _tokenHolder = the address of the mybit token holder who wishes to burn _amount of tokens\n  // @param (uint) _amount = the amount of tokens to be burnt (must include decimal places)\n  function burn(address _tokenHolder, uint _amount)\n  external\n  onlyPlatformContracts(msg.sender)\n  acceptedState(_tokenHolder)\n  returns (bool) {\n    require(token.burnFrom(_tokenHolder, _amount));\n    emit LogMYBBurned(_tokenHolder, msg.sender, _amount);\n    return true;\n  }\n\n  // @notice owners can set the cost of functionality on the platform here.\n  // @dev _amount will be how many platformTokens are burned to call the method at _contractAddress\n  // @param (bytes4) _methodID: the methodID of the function which is to require a burning fee\n  // @param (address) _contractAddress: the address of the contract where this method is contained\n  function setFee(bytes4 _methodID, address _contractAddress, uint _amount)\n  external\n  onlyOwner\n  returns (bool) {\n    //Sets the price to burn per function in MyB.\n    database.setUint(keccak256(abi.encodePacked(_methodID, _contractAddress)), _amount);\n    emit LogFeeAdded(_contractAddress, _methodID, _amount);\n    return true;\n  }\n\n\n  // @notice fallback function. Rejects all ether\n  function ()\n  external\n  payable {\n    revert();\n  }\n\n  //////////////////////////////////////////////////////////////////////////////////////////////////////////////////\n  //                                            Modifiers\n  //////////////////////////////////////////////////////////////////////////////////////////////////////////////////\n\n  // @notice reverts if msg.sender isn't the owner\n  modifier onlyOwner {\n    require(database.boolStorage(keccak256(abi.encodePacked(\"owner\", msg.sender))));\n    _;\n  }\n\n  // @notice reverts if address isn't authorized to burn MYB\n  modifier onlyPlatformContracts(address _burner) {\n    require(database.boolStorage(keccak256(abi.encodePacked(\"contract\", _burner))));\n    _;\n  }\n\n  // @notice reverts if user hasn't accepted current contract state or if he doesn't ignore state changes entirely\n  modifier acceptedState(address _user) {\n    bytes32 currentState = database.bytes32Storage(keccak256(abi.encodePacked(\"currentState\")));\n    require(database.boolStorage(keccak256(abi.encodePacked(currentState, _user))) || database.boolStorage(keccak256(abi.encodePacked(\"ignoreStateChanges\", _user))));\n    _;\n  }\n\n  //////////////////////////////////////////////////////////////////////////////////////////////////////////////////\n  //                                            Events\n  //////////////////////////////////////////////////////////////////////////////////////////////////////////////////\n\n  event LogMYBBurned(address _tokenHolder, address _burningContract, uint _amount);\n  event LogFeeAdded(address indexed _contractAddress, bytes4 _methodID, uint _amount);\n\n}\n",
  "sourcePath": "/home/peter/Documents/Work/MyBit/MyBit-Network.tech/contracts/access/ERC20Burner.sol",
  "compiler": {
    "name": "solc",
    "version": "0.4.24+commit.e67f0147.Emscripten.clang"
  },
  "schemaVersion": "2.0.1",
  "updatedAt": "2018-10-17T02:00:48.028Z"
}