{
  "contractName": "ERC20Burner",
  "abi": [
    {
      "constant": true,
      "inputs": [],
      "name": "database",
      "outputs": [
        {
          "name": "",
          "type": "address"
        }
      ],
      "payable": false,
      "stateMutability": "view",
      "type": "function"
    },
    {
      "constant": true,
      "inputs": [],
      "name": "events",
      "outputs": [
        {
          "name": "",
          "type": "address"
        }
      ],
      "payable": false,
      "stateMutability": "view",
      "type": "function"
    },
    {
      "constant": true,
      "inputs": [],
      "name": "token",
      "outputs": [
        {
          "name": "",
          "type": "address"
        }
      ],
      "payable": false,
      "stateMutability": "view",
      "type": "function"
    },
    {
      "inputs": [
        {
          "name": "_database",
          "type": "address"
        },
        {
          "name": "_events",
          "type": "address"
        },
        {
          "name": "_kyber",
          "type": "address"
        }
      ],
      "payable": false,
      "stateMutability": "nonpayable",
      "type": "constructor"
    },
    {
      "payable": true,
      "stateMutability": "payable",
      "type": "fallback"
    },
    {
      "anonymous": false,
      "inputs": [
        {
          "indexed": false,
          "name": "_tokenHolder",
          "type": "address"
        },
        {
          "indexed": false,
          "name": "_burningContract",
          "type": "address"
        },
        {
          "indexed": false,
          "name": "_amount",
          "type": "uint256"
        }
      ],
      "name": "LogMYBBurned",
      "type": "event"
    },
    {
      "anonymous": false,
      "inputs": [
        {
          "indexed": true,
          "name": "_contractAddress",
          "type": "address"
        },
        {
          "indexed": false,
          "name": "_methodID",
          "type": "bytes4"
        },
        {
          "indexed": false,
          "name": "_amount",
          "type": "uint256"
        }
      ],
      "name": "LogFeeAdded",
      "type": "event"
    },
    {
      "anonymous": false,
      "inputs": [
        {
          "indexed": false,
          "name": "tokenAddress",
          "type": "address"
        }
      ],
      "name": "LogTokenAddress",
      "type": "event"
    },
    {
      "anonymous": false,
      "inputs": [
        {
          "indexed": false,
          "name": "src",
          "type": "address"
        },
        {
          "indexed": false,
          "name": "amount",
          "type": "uint256"
        },
        {
          "indexed": false,
          "name": "dest",
          "type": "address"
        },
        {
          "indexed": false,
          "name": "receiver",
          "type": "address"
        },
        {
          "indexed": false,
          "name": "max",
          "type": "uint256"
        },
        {
          "indexed": false,
          "name": "minRate",
          "type": "uint256"
        },
        {
          "indexed": false,
          "name": "walletID",
          "type": "address"
        }
      ],
      "name": "Trade",
      "type": "event"
    },
    {
      "anonymous": false,
      "inputs": [
        {
          "indexed": false,
          "name": "sender",
          "type": "address"
        },
        {
          "indexed": false,
          "name": "amount",
          "type": "uint256"
        }
      ],
      "name": "EtherReceived",
      "type": "event"
    },
    {
      "constant": false,
      "inputs": [
        {
          "name": "_tokenHolder",
          "type": "address"
        },
        {
          "name": "_amount",
          "type": "uint256"
        },
        {
          "name": "_burnToken",
          "type": "address"
        }
      ],
      "name": "burn",
      "outputs": [
        {
          "name": "",
          "type": "bool"
        }
      ],
      "payable": true,
      "stateMutability": "payable",
      "type": "function"
    },
    {
      "constant": false,
      "inputs": [
        {
          "name": "_methodID",
          "type": "bytes4"
        },
        {
          "name": "_contractAddress",
          "type": "address"
        },
        {
          "name": "_amount",
          "type": "uint256"
        }
      ],
      "name": "setFee",
      "outputs": [
        {
          "name": "",
          "type": "bool"
        }
      ],
      "payable": false,
      "stateMutability": "nonpayable",
      "type": "function"
    },
    {
      "constant": false,
      "inputs": [],
      "name": "destroy",
      "outputs": [],
      "payable": false,
      "stateMutability": "nonpayable",
      "type": "function"
    }
  ],
  "bytecode": "0x60806040523480156200001157600080fd5b50604051606080620019db83398101604081815282516020808501519483015160018054600160a060020a03808616600160a060020a0319928316179283905560028054828b169316929092179091557f706c6174666f726d2e746f6b656e000000000000000000000000000000000000848801528551808803600e018152602e909701958690528651949796929560009592909116936304f49a3a939282918401908083835b60208310620000d95780518252601f199092019160209182019101620000b8565b51815160209384036101000a60001901801990921691161790526040805192909401829003822063ffffffff88167c01000000000000000000000000000000000000000000000000000000000283526004830152925160248083019650939450929083900301905081600087803b1580156200015457600080fd5b505af115801562000169573d6000803e3d6000fd5b505050506040513d60208110156200018057600080fd5b505160008054600160a060020a031916600160a060020a039283161790819055161515620001ad57600080fd5b81600360006101000a815481600160a060020a030219169083600160a060020a031602179055506000809054906101000a9004600160a060020a0316600160a060020a031663313ce5676040518163ffffffff167c0100000000000000000000000000000000000000000000000000000000028152600401602060405180830381600087803b1580156200024057600080fd5b505af115801562000255573d6000803e3d6000fd5b505050506040513d60208110156200026c57600080fd5b505160ff16600a0a60045550505050611750806200028b6000396000f30060806040526004361061005e5763ffffffff60e060020a600035041663713b563f811461009a57806383197ef0146100cb578063b5f8558c146100e2578063b8ce670d146100f7578063fc0c546a14610129578063ffa4b26f1461013e575b6040805133815234602082015281517f1e57e3bb474320be3d2c77138f75b7c3941292d647f5f9634e33a8e94e0e069b929181900390910190a1005b3480156100a657600080fd5b506100af610184565b60408051600160a060020a039092168252519081900360200190f35b3480156100d757600080fd5b506100e0610193565b005b3480156100ee57600080fd5b506100af61038b565b610115600160a060020a03600435811690602435906044351661039a565b604080519115158252519081900360200190f35b34801561013557600080fd5b506100af610f57565b34801561014a57600080fd5b506101157bffffffffffffffffffffffffffffffffffffffffffffffffffffffff1960043516600160a060020a0360243516604435610f66565b600154600160a060020a031681565b600154604080517f6f776e65720000000000000000000000000000000000000000000000000000006020808301919091526c0100000000000000000000000033026025830152825160198184030181526039909201928390528151600160a060020a0390941693633b7bfda093918291908401908083835b6020831061022a5780518252601f19909201916020918201910161020b565b51815160209384036101000a60001901801990921691161790526040805192909401829003822063ffffffff881660e060020a0283526004830152925160248083019650939450929083900301905081600087803b15801561028b57600080fd5b505af115801561029f573d6000803e3d6000fd5b505050506040513d60208110156102b557600080fd5b505115156102c257600080fd5b600254604080517f42b425aa000000000000000000000000000000000000000000000000000000008152306024820181905233604483015231606482015260006084820181905260a06004830152601560a48301527f45524332304275726e65722064657374726f796564000000000000000000000060c48301529151600160a060020a03909316926342b425aa9260e48084019391929182900301818387803b15801561036f57600080fd5b505af1158015610383573d6000803e3d6000fd5b503392505050ff5b600254600160a060020a031681565b600154604080517f636f6e74726163740000000000000000000000000000000000000000000000006020808301919091526c01000000000000000000000000330260288301528251601c818403018152603c90920192839052815160009485948594859485948594600160a060020a031693633b7bfda09392909182918401908083835b6020831061043d5780518252601f19909201916020918201910161041e565b51815160209384036101000a60001901801990921691161790526040805192909401829003822063ffffffff881660e060020a0283526004830152925160248083019650939450929083900301905081600087803b15801561049e57600080fd5b505af11580156104b2573d6000803e3d6000fd5b505050506040513d60208110156104c857600080fd5b505115156104d557600080fd5b600154604080517f63757272656e74537461746500000000000000000000000000000000000000006020808301919091528251808303600c018152602c909201928390528151600160a060020a0390941693633b7bfda093859363031578af93909282918401908083835b6020831061055f5780518252601f199092019160209182019101610540565b51815160209384036101000a60001901801990921691161790526040805192909401829003822063ffffffff881660e060020a0283526004830152925160248083019650939450929083900301905081600087803b1580156105c057600080fd5b505af11580156105d4573d6000803e3d6000fd5b505050506040513d60208110156105ea57600080fd5b5051604080516020818101939093526c01000000000000000000000000600160a060020a038f16028183015281516034818303018152605490910191829052805190928291908401908083835b602083106106565780518252601f199092019160209182019101610637565b51815160209384036101000a60001901801990921691161790526040805192909401829003822063ffffffff881660e060020a0283526004830152925160248083019650939450929083900301905081600087803b1580156106b757600080fd5b505af11580156106cb573d6000803e3d6000fd5b505050506040513d60208110156106e157600080fd5b50518061080f5750600154604080517f69676e6f726553746174654368616e6765730000000000000000000000000000602080830191909152600160a060020a038d81166c01000000000000000000000000026032840152835180840360260181526046909301938490528251941693633b7bfda093918291908401908083835b602083106107815780518252601f199092019160209182019101610762565b51815160209384036101000a60001901801990921691161790526040805192909401829003822063ffffffff881660e060020a0283526004830152925160248083019650939450929083900301905081600087803b1580156107e257600080fd5b505af11580156107f6573d6000803e3d6000fd5b505050506040513d602081101561080c57600080fd5b50515b151561081a57600080fd5b600054600160a060020a03888116911614156109a75760008054604080517f79cc6790000000000000000000000000000000000000000000000000000000008152600160a060020a038d81166004830152602482018d9052915191909216926379cc679092604480820193602093909283900390910190829087803b1580156108a257600080fd5b505af11580156108b6573d6000803e3d6000fd5b505050506040513d60208110156108cc57600080fd5b505115156108d957600080fd5b60025460008054604080517f42b425aa000000000000000000000000000000000000000000000000000000008152600160a060020a038e81166024830152336044830152606482018e9052928316608482015260a06004820152601460a48201527f506c6174666f726d20546f6b656e204275726e7400000000000000000000000060c4820152905191909316926342b425aa9260e480830193919282900301818387803b15801561098a57600080fd5b505af115801561099e573d6000803e3d6000fd5b50505050610f48565b60035460008054604080517f809a9e55000000000000000000000000000000000000000000000000000000008152600160a060020a038c811660048301529283166024820152604481018490528151929094169363809a9e5593606480830194928390030190829087803b158015610a1e57600080fd5b505af1158015610a32573d6000803e3d6000fd5b505050506040513d6040811015610a4857600080fd5b5080516020909101516004549196509450610a7990610a6d878b63ffffffff61122116565b9063ffffffff61125716565b9250600160a060020a03871673eeeeeeeeeeeeeeeeeeeeeeeeeeeeeeeeeeeeeeee1415610b335734831115610b0f57604080517f08c379a000000000000000000000000000000000000000000000000000000000815260206004820152601060248201527f4e6f7420656e6f7567682066756e647300000000000000000000000000000000604482015290519081900360640190fd5b600054610b2d908a908990600160a060020a0316348c89600161126c565b50610d48565b604080517f23b872dd000000000000000000000000000000000000000000000000000000008152600160a060020a038b81166004830152306024830152604482018690529151899450918416916323b872dd916064808201926020929091908290030181600087803b158015610ba857600080fd5b505af1158015610bbc573d6000803e3d6000fd5b505050506040513d6020811015610bd257600080fd5b50511515610bdf57600080fd5b600354604080517f095ea7b3000000000000000000000000000000000000000000000000000000008152600160a060020a03928316600482015260006024820181905291519285169263095ea7b392604480840193602093929083900390910190829087803b158015610c5157600080fd5b505af1158015610c65573d6000803e3d6000fd5b505050506040513d6020811015610c7b57600080fd5b50511515610c8857600080fd5b600354604080517f095ea7b3000000000000000000000000000000000000000000000000000000008152600160a060020a0392831660048201526024810186905290519184169163095ea7b3916044808201926020929091908290030181600087803b158015610cf757600080fd5b505af1158015610d0b573d6000803e3d6000fd5b505050506040513d6020811015610d2157600080fd5b505060008054610d46918b918a91600160a060020a039091169087908d908a9061126c565b505b60008054604080517f70a082310000000000000000000000000000000000000000000000000000000081523060048201529051600160a060020a03909216926370a08231926024808401936020939083900390910190829087803b158015610daf57600080fd5b505af1158015610dc3573d6000803e3d6000fd5b505050506040513d6020811015610dd957600080fd5b505160008054604080517f42966c68000000000000000000000000000000000000000000000000000000008152600481018590529051939450600160a060020a03909116926342966c6892602480840193602093929083900390910190829087803b158015610e4757600080fd5b505af1158015610e5b573d6000803e3d6000fd5b505050506040513d6020811015610e7157600080fd5b50511515610e7e57600080fd5b60025460008054604080517f42b425aa000000000000000000000000000000000000000000000000000000008152600160a060020a038e8116602483015233604483015260648201879052928316608482015260a06004820152601460a48201527f506c6174666f726d20546f6b656e204275726e7400000000000000000000000060c4820152905191909316926342b425aa9260e480830193919282900301818387803b158015610f2f57600080fd5b505af1158015610f43573d6000803e3d6000fd5b505050505b50600198975050505050505050565b600054600160a060020a031681565b600154604080517f6f776e65720000000000000000000000000000000000000000000000000000006020808301919091526c0100000000000000000000000033026025830152825160198184030181526039909201928390528151600094600160a060020a031693633b7bfda09392909182918401908083835b60208310610fff5780518252601f199092019160209182019101610fe0565b51815160209384036101000a60001901801990921691161790526040805192909401829003822063ffffffff881660e060020a0283526004830152925160248083019650939450929083900301905081600087803b15801561106057600080fd5b505af1158015611074573d6000803e3d6000fd5b505050506040513d602081101561108a57600080fd5b5051151561109757600080fd5b600154604080517bffffffffffffffffffffffffffffffffffffffffffffffffffffffff198716602080830191909152600160a060020a038781166c0100000000000000000000000002602484015283518084036018018152603890930193849052825194169363e2a4853a93918291908401908083835b6020831061112e5780518252601f19909201916020918201910161110f565b5181516020939093036101000a60001901801990911692169190911790526040805191909301819003812063ffffffff871660e060020a028252600482015260248101899052915160448084019550600094509092839003019050818387803b15801561119a57600080fd5b505af11580156111ae573d6000803e3d6000fd5b5050604080517bffffffffffffffffffffffffffffffffffffffffffffffffffffffff1988168152602081018690528151600160a060020a03881694507fa88a2594d27323cfa2e4148a3b67650d8860492e9b2407e66e1440694633f72693509081900390910190a25060019392505050565b6000808315156112345760009150611250565b5082820282848281151561124457fe5b041461124c57fe5b8091505b5092915050565b6000818381151561126457fe5b049392505050565b60408051600160a060020a038089168252602082018790528716818301523060608201526080810185905260a08101849052600060c0820181905291518291829182917ff486a72be8bbfedf75258d4c5a28313fc39d0a0c5c954cf5c44981e5ac79110d919081900360e00190a16001851515141561147c57303188111561135557604080517f08c379a000000000000000000000000000000000000000000000000000000000815260206004820152601c60248201527f4e6f7420656e6f7567682066756e647320696e20636f6e747261637400000000604482015290519081900360640190fd5b600354604080517fcb3c28c7000000000000000000000000000000000000000000000000000000008152600160a060020a038d81166004830152602482018c90528c811660448301523060648301819052608483018c905260a483018b9052600060c48401529251923196509092169163cb3c28c7918b9160e48082019260209290919082900301818588803b1580156113ee57600080fd5b505af1158015611402573d6000803e3d6000fd5b50505050506040513d602081101561141957600080fd5b5061143d905061143084303163ffffffff61171216565b899063ffffffff61171216565b604051909250600160a060020a038c169083156108fc029084906000818181858888f19350505050158015611476573d6000803e3d6000fd5b50611704565b50604080517f70a0823100000000000000000000000000000000000000000000000000000000815230600482015290518a91600160a060020a038316916370a08231916024808201926020929091908290030181600087803b1580156114e157600080fd5b505af11580156114f5573d6000803e3d6000fd5b505050506040513d602081101561150b57600080fd5b5051600354604080517fcb3c28c7000000000000000000000000000000000000000000000000000000008152600160a060020a038e81166004830152602482018d90528d81166044830152306064830152608482018c905260a482018b9052600060c4830181905292519497509092169263cb3c28c79260e4808201936020939283900390910190829087803b1580156115a457600080fd5b505af11580156115b8573d6000803e3d6000fd5b505050506040513d60208110156115ce57600080fd5b5050604080517f70a0823100000000000000000000000000000000000000000000000000000000815230600482015290516116729161143091600160a060020a038516916370a082319160248083019260209291908290030181600087803b15801561163957600080fd5b505af115801561164d573d6000803e3d6000fd5b505050506040513d602081101561166357600080fd5b5051859063ffffffff61171216565b915080600160a060020a031663a9059cbb8c846040518363ffffffff1660e060020a0281526004018083600160a060020a0316600160a060020a0316815260200182815260200192505050602060405180830381600087803b1580156116d757600080fd5b505af11580156116eb573d6000803e3d6000fd5b505050506040513d602081101561170157600080fd5b50505b509998505050505050505050565b60008282111561171e57fe5b509003905600a165627a7a723058205fd148569367ac4a65476669cef87a41d17821c0bb496607247e5791eb3b48030029",
  "source": "pragma solidity ^0.4.24;\n\nimport \"../math/SafeMath.sol\";\nimport \"../interfaces/ERC20.sol\";\nimport \"../interfaces/KyberInterface.sol\";\n\ninterface BurnToken {\n  function decimals() external view returns (uint8);\n  function balanceOf(address _who) external view returns (uint256);\n  function burn(uint _amount) external returns (bool success);\n  function burnFrom(address _from, uint _amount) external returns (bool success);\n}\ninterface LogTransaction {  function transaction(string _message, address _from, address _to, uint _amount, address _token)  external; }\ninterface DB {\n  function addressStorage(bytes32 _key) external view returns (address);\n  function bytes32Storage(bytes32 _key) external view returns (bytes32);\n  function boolStorage(bytes32 _key) external view returns (bool);\n  function setUint(bytes32 _key, uint _value) external;\n}\n\n/// @title A contract for burning ERC20 tokens as usage fee for dapps\n/// @author Kyle Dewhurst & Peter Phillips MyBit Foundation\n/// @notice Allows Dapps to call this contract to burn ERC20 tokens as a usage fee\n/// @dev This contract does not accept tokens. It only burns tokens from investors wallets to run platform functionality\ncontract ERC20Burner {\n  using SafeMath for uint256;\n\n  BurnToken public token;  // The instance of the ERC20 burner contract\n  DB public database;   // The datbase instance\n  LogTransaction public events; //LogTransaction contract\n  KyberInterface kyber;\n  uint256 decimals;\n\n  // @notice constructor: initializes database and the MYB token\n  // @param: the address for the database contract used by this platform\n  constructor(address _database, address _events, address _kyber)\n  public {\n    database = DB(_database);\n    events = LogTransaction(_events);\n    token = BurnToken(database.addressStorage(keccak256(abi.encodePacked(\"platform.token\"))));\n    require(address(token) != address(0));\n    kyber = KyberInterface(_kyber);\n    uint dec = token.decimals();\n    decimals = 10**dec;\n  }\n\n  // @notice authorized contracts can burn mybit tokens here if the investor has approved this contract to do so\n  // @param (address) _tokenHolder = the address of the mybit token holder who wishes to burn _amount of tokens\n  // @param (uint) _amount = the amount of tokens to be burnt (must include decimal places)\n  function burn(address _tokenHolder, uint _amount, address _burnToken)\n  payable\n  external\n  returns (bool) {\n    //onlyPlatformContracts:\n    require(database.boolStorage(keccak256(abi.encodePacked(\"contract\", msg.sender))));\n    //acceptedState:\n    require(database.boolStorage(keccak256(abi.encodePacked(database.bytes32Storage(keccak256(abi.encodePacked(\"currentState\"))), _tokenHolder))) || database.boolStorage(keccak256(abi.encodePacked(\"ignoreStateChanges\", _tokenHolder))));\n    if(_burnToken == address(token)){\n      require(token.burnFrom(_tokenHolder, _amount));\n      events.transaction('Platform Token Burnt', _tokenHolder, msg.sender, _amount, address(token));\n    } else {\n      //Calculate the estimate cost of given ERC20 to get convert to correct amount of platform token\n      (uint expectedRate, uint minRate) = kyber.getExpectedRate(_burnToken, address(token), 0);\n      uint estimatedCost = expectedRate.mul(_amount).div(decimals);\n      if(_burnToken == address(0xEeeeeEeeeEeEeeEeEeEeeEEEeeeeEeeeeeeeEEeE)){\n        //Ether was chosen as the burn token\n        require(msg.value >= estimatedCost, 'Not enough funds');\n        convert(_tokenHolder, _burnToken, address(token), msg.value, _amount, minRate, true);\n      } else {\n        ERC20 burnToken = ERC20(_burnToken);\n        //Transfer burn token from the user\n        require(burnToken.transferFrom(_tokenHolder, address(this), estimatedCost));\n        // Mitigate ERC20 Approve front-running attack, by initially setting\n        // allowance to 0\n        require(burnToken.approve(address(kyber), 0));\n        // Approve tokens so network can take them during the swap\n        burnToken.approve(address(kyber), estimatedCost);\n        convert(_tokenHolder, _burnToken, address(token), estimatedCost, _amount, minRate, false);\n      }\n      //Get amount of the platform token held by this contract (in case it differs from the _amount parameter)\n      uint amount = token.balanceOf(this);\n      //Burn the platform token\n      require(token.burn(amount));\n      events.transaction('Platform Token Burnt', _tokenHolder, msg.sender, amount, address(token));\n\n    }\n    return true;\n  }\n\n  function convert(address _user, address _from, address _to, uint _amount, uint _max, uint _minRate, bool _eth)\n  private\n  returns (uint){\n    uint balanceBefore;\n    uint change;\n    emit Trade(_from, _amount, _to, address(this), _max, _minRate, address(0));\n    if(_eth == true){\n      require(_amount <= address(this).balance, \"Not enough funds in contract\");\n      balanceBefore = address(this).balance;\n      kyber.trade.value(_amount)(_from, _amount, _to, address(this), _max, _minRate, 0);\n      change = _amount.sub(balanceBefore.sub(address(this).balance));\n      _user.transfer(change);\n    } else {\n      ERC20 erc20 = ERC20(_from);\n      balanceBefore = erc20.balanceOf(this);\n      kyber.trade(_from, _amount, _to, address(this), _max, _minRate, 0);\n      change = _amount.sub(balanceBefore.sub(erc20.balanceOf(this)));\n      erc20.transfer(_user, change);\n    }\n    return change;\n  }\n\n  // @notice owners can set the cost of functionality on the platform here.\n  // @dev _amount will be how many platformTokens are burned to call the method at _contractAddress\n  // @param (bytes4) _methodID: the methodID of the function which is to require a burning fee\n  // @param (address) _contractAddress: the address of the contract where this method is contained\n  function setFee(bytes4 _methodID, address _contractAddress, uint _amount)\n  external\n  onlyOwner\n  returns (bool) {\n    //Sets the price to burn per function in MyB.\n    database.setUint(keccak256(abi.encodePacked(_methodID, _contractAddress)), _amount);\n    emit LogFeeAdded(_contractAddress, _methodID, _amount);\n    return true;\n  }\n\n  // @notice platform owners can destroy contract here\n  function destroy()\n  onlyOwner\n  external {\n    events.transaction('ERC20Burner destroyed', address(this), msg.sender, address(this).balance, address(0));\n    selfdestruct(msg.sender);\n  }\n\n  // @notice fallback function. We need to receive Ether from Kyber Network\n  function ()\n  external\n  payable {\n    emit EtherReceived(msg.sender, msg.value);\n  }\n\n  //////////////////////////////////////////////////////////////////////////////////////////////////////////////////\n  //                                            Modifiers\n  //////////////////////////////////////////////////////////////////////////////////////////////////////////////////\n\n  // @notice reverts if msg.sender isn't the owner\n  modifier onlyOwner {\n    require(database.boolStorage(keccak256(abi.encodePacked(\"owner\", msg.sender))));\n    _;\n  }\n\n  // @notice reverts if address isn't authorized to burn MYB\n  modifier onlyPlatformContracts(address _burner) {\n    require(database.boolStorage(keccak256(abi.encodePacked(\"contract\", _burner))));\n    _;\n  }\n\n  // @notice reverts if investor hasn't accepted current contract state or if he doesn't ignore state changes entirely\n  modifier acceptedState(address _investor) {\n    bytes32 currentState = database.bytes32Storage(keccak256(abi.encodePacked(\"currentState\")));\n    require(database.boolStorage(keccak256(abi.encodePacked(currentState, _investor))) || database.boolStorage(keccak256(abi.encodePacked(\"ignoreStateChanges\", _investor))));\n    _;\n  }\n\n  //////////////////////////////////////////////////////////////////////////////////////////////////////////////////\n  //                                            Events\n  //////////////////////////////////////////////////////////////////////////////////////////////////////////////////\n\n  event LogMYBBurned(address _tokenHolder, address _burningContract, uint _amount);\n  event LogFeeAdded(address indexed _contractAddress, bytes4 _methodID, uint _amount);\n  event LogTokenAddress(address tokenAddress);\n  event Trade(address src, uint amount, address dest, address receiver, uint max, uint minRate, address walletID);\n  event EtherReceived(address sender, uint amount);\n}\n",
  "sourcePath": "/home/peter/Documents/Work/MyBit/MyBit-Network.tech/contracts/access/ERC20Burner.sol",
  "compiler": {
    "name": "solc",
    "version": "0.4.24+commit.e67f0147.Emscripten.clang"
  },
  "schemaVersion": "3.0.2",
  "updatedAt": "2019-04-08T20:56:10.328Z",
  "devdoc": {
    "author": "Kyle Dewhurst & Peter Phillips MyBit Foundation",
    "methods": {},
    "title": "A contract for burning ERC20 tokens as usage fee for dapps"
  },
  "userdoc": {
    "methods": {}
  }
}