{
  "contractName": "ERC721Mintable",
  "abi": [
    {
      "constant": true,
      "inputs": [
        {
          "name": "interfaceId",
          "type": "bytes4"
        }
      ],
      "name": "supportsInterface",
      "outputs": [
        {
          "name": "",
          "type": "bool"
        }
      ],
      "payable": false,
      "stateMutability": "view",
      "type": "function"
    },
    {
      "constant": true,
      "inputs": [],
      "name": "mintingFinished",
      "outputs": [
        {
          "name": "",
          "type": "bool"
        }
      ],
      "payable": false,
      "stateMutability": "view",
      "type": "function"
    },
    {
      "constant": true,
      "inputs": [],
      "name": "minter",
      "outputs": [
        {
          "name": "",
          "type": "address"
        }
      ],
      "payable": false,
      "stateMutability": "view",
      "type": "function"
    },
    {
      "constant": true,
      "inputs": [
        {
          "name": "tokenId",
          "type": "uint256"
        }
      ],
      "name": "getApproved",
      "outputs": [
        {
          "name": "",
          "type": "address"
        }
      ],
      "payable": false,
      "stateMutability": "view",
      "type": "function"
    },
    {
      "constant": false,
      "inputs": [
        {
          "name": "to",
          "type": "address"
        },
        {
          "name": "tokenId",
          "type": "uint256"
        }
      ],
      "name": "approve",
      "outputs": [],
      "payable": false,
      "stateMutability": "nonpayable",
      "type": "function"
    },
    {
      "constant": false,
      "inputs": [
        {
          "name": "from",
          "type": "address"
        },
        {
          "name": "to",
          "type": "address"
        },
        {
          "name": "tokenId",
          "type": "uint256"
        }
      ],
      "name": "transferFrom",
      "outputs": [],
      "payable": false,
      "stateMutability": "nonpayable",
      "type": "function"
    },
    {
      "constant": false,
      "inputs": [
        {
          "name": "from",
          "type": "address"
        },
        {
          "name": "to",
          "type": "address"
        },
        {
          "name": "tokenId",
          "type": "uint256"
        }
      ],
      "name": "safeTransferFrom",
      "outputs": [],
      "payable": false,
      "stateMutability": "nonpayable",
      "type": "function"
    },
    {
      "constant": true,
      "inputs": [
        {
          "name": "tokenId",
          "type": "uint256"
        }
      ],
      "name": "ownerOf",
      "outputs": [
        {
          "name": "",
          "type": "address"
        }
      ],
      "payable": false,
      "stateMutability": "view",
      "type": "function"
    },
    {
      "constant": true,
      "inputs": [
        {
          "name": "owner",
          "type": "address"
        }
      ],
      "name": "balanceOf",
      "outputs": [
        {
          "name": "",
          "type": "uint256"
        }
      ],
      "payable": false,
      "stateMutability": "view",
      "type": "function"
    },
    {
      "constant": false,
      "inputs": [
        {
          "name": "to",
          "type": "address"
        },
        {
          "name": "approved",
          "type": "bool"
        }
      ],
      "name": "setApprovalForAll",
      "outputs": [],
      "payable": false,
      "stateMutability": "nonpayable",
      "type": "function"
    },
    {
      "constant": false,
      "inputs": [
        {
          "name": "from",
          "type": "address"
        },
        {
          "name": "to",
          "type": "address"
        },
        {
          "name": "tokenId",
          "type": "uint256"
        },
        {
          "name": "_data",
          "type": "bytes"
        }
      ],
      "name": "safeTransferFrom",
      "outputs": [],
      "payable": false,
      "stateMutability": "nonpayable",
      "type": "function"
    },
    {
      "constant": true,
      "inputs": [
        {
          "name": "owner",
          "type": "address"
        },
        {
          "name": "operator",
          "type": "address"
        }
      ],
      "name": "isApprovedForAll",
      "outputs": [
        {
          "name": "",
          "type": "bool"
        }
      ],
      "payable": false,
      "stateMutability": "view",
      "type": "function"
    },
    {
      "inputs": [
        {
          "name": "_minter",
          "type": "address"
        }
      ],
      "payable": false,
      "stateMutability": "nonpayable",
      "type": "constructor"
    },
    {
      "anonymous": false,
      "inputs": [
        {
          "indexed": true,
          "name": "from",
          "type": "address"
        },
        {
          "indexed": true,
          "name": "to",
          "type": "address"
        },
        {
          "indexed": true,
          "name": "tokenId",
          "type": "uint256"
        }
      ],
      "name": "Transfer",
      "type": "event"
    },
    {
      "anonymous": false,
      "inputs": [
        {
          "indexed": true,
          "name": "owner",
          "type": "address"
        },
        {
          "indexed": true,
          "name": "approved",
          "type": "address"
        },
        {
          "indexed": true,
          "name": "tokenId",
          "type": "uint256"
        }
      ],
      "name": "Approval",
      "type": "event"
    },
    {
      "anonymous": false,
      "inputs": [
        {
          "indexed": true,
          "name": "owner",
          "type": "address"
        },
        {
          "indexed": true,
          "name": "operator",
          "type": "address"
        },
        {
          "indexed": false,
          "name": "approved",
          "type": "bool"
        }
      ],
      "name": "ApprovalForAll",
      "type": "event"
    },
    {
      "constant": false,
      "inputs": [
        {
          "name": "to",
          "type": "address"
        },
        {
          "name": "tokenId",
          "type": "uint256"
        }
      ],
      "name": "mint",
      "outputs": [
        {
          "name": "",
          "type": "bool"
        }
      ],
      "payable": false,
      "stateMutability": "nonpayable",
      "type": "function"
    },
    {
      "constant": false,
      "inputs": [],
      "name": "finishMinting",
      "outputs": [
        {
          "name": "",
          "type": "bool"
        }
      ],
      "payable": false,
      "stateMutability": "nonpayable",
      "type": "function"
    },
    {
      "constant": true,
      "inputs": [
        {
          "name": "sender",
          "type": "address"
        }
      ],
      "name": "canMint",
      "outputs": [
        {
          "name": "",
          "type": "bool"
        }
      ],
      "payable": false,
      "stateMutability": "view",
      "type": "function"
    }
  ],
  "bytecode": "0x608060405234801561001057600080fd5b50604051602080610cbf83398101604052516100547f01ffc9a7000000000000000000000000000000000000000000000000000000006401000000006100ab810204565b6100867f80ac58cd000000000000000000000000000000000000000000000000000000006401000000006100ab810204565b60058054600160a060020a031916600160a060020a0392909216919091179055610117565b7fffffffff0000000000000000000000000000000000000000000000000000000080821614156100da57600080fd5b7fffffffff00000000000000000000000000000000000000000000000000000000166000908152602081905260409020805460ff19166001179055565b610b99806101266000396000f3006080604052600436106100da5763ffffffff7c010000000000000000000000000000000000000000000000000000000060003504166301ffc9a781146100df57806305d2035b1461012a578063075461721461013f578063081812fc14610170578063095ea7b31461018857806323b872dd146101ae57806340c10f19146101d857806342842e0e146101fc5780636352211e1461022657806370a082311461023e5780637d64bcb414610271578063a22cb46514610286578063b88d4fde146102ac578063c2ba47441461031b578063e985e9c51461033c575b600080fd5b3480156100eb57600080fd5b506101167bffffffffffffffffffffffffffffffffffffffffffffffffffffffff1960043516610363565b604080519115158252519081900360200190f35b34801561013657600080fd5b50610116610397565b34801561014b57600080fd5b506101546103b8565b60408051600160a060020a039092168252519081900360200190f35b34801561017c57600080fd5b506101546004356103c7565b34801561019457600080fd5b506101ac600160a060020a03600435166024356103f9565b005b3480156101ba57600080fd5b506101ac600160a060020a03600435811690602435166044356104af565b3480156101e457600080fd5b50610116600160a060020a036004351660243561053d565b34801561020857600080fd5b506101ac600160a060020a0360043581169060243516604435610566565b34801561023257600080fd5b50610154600435610587565b34801561024a57600080fd5b5061025f600160a060020a03600435166105b1565b60408051918252519081900360200190f35b34801561027d57600080fd5b506101166105e4565b34801561029257600080fd5b506101ac600160a060020a03600435166024351515610635565b3480156102b857600080fd5b50604080516020601f6064356004818101359283018490048402850184019095528184526101ac94600160a060020a0381358116956024803590921695604435953695608494019181908401838280828437509497506106b99650505050505050565b34801561032757600080fd5b50610116600160a060020a03600435166106e1565b34801561034857600080fd5b50610116600160a060020a036004358116906024351661071f565b7bffffffffffffffffffffffffffffffffffffffffffffffffffffffff191660009081526020819052604090205460ff1690565b60055474010000000000000000000000000000000000000000900460ff1681565b600554600160a060020a031681565b60006103d28261074d565b15156103dd57600080fd5b50600090815260026020526040902054600160a060020a031690565b600061040482610587565b9050600160a060020a03838116908216141561041f57600080fd5b33600160a060020a038216148061043b575061043b813361071f565b151561044657600080fd5b600082815260026020526040808220805473ffffffffffffffffffffffffffffffffffffffff1916600160a060020a0387811691821790925591518593918516917f8c5be1e5ebec7d5bd14f71427d1e84f3dd0314c0f7b2291e5b200ac8c7c3b92591a4505050565b6104b9338261076a565b15156104c457600080fd5b600160a060020a03821615156104d957600080fd5b6104e383826107c9565b6104ed838261083a565b6104f782826108d0565b8082600160a060020a031684600160a060020a03167fddf252ad1be2c89b69c2b068fc378daa952ba7f163c4a11628f55a4df523b3ef60405160405180910390a4505050565b6000610548336106e1565b151561055357600080fd5b61055d8383610960565b50600192915050565b61058283838360206040519081016040528060008152506106b9565b505050565b600081815260016020526040812054600160a060020a03168015156105ab57600080fd5b92915050565b6000600160a060020a03821615156105c857600080fd5b50600160a060020a031660009081526003602052604090205490565b60006105ef336106e1565b15156105fa57600080fd5b506005805474ff0000000000000000000000000000000000000000191674010000000000000000000000000000000000000000179055600190565b600160a060020a03821633141561064b57600080fd5b336000818152600460209081526040808320600160a060020a03871680855290835292819020805460ff1916861515908117909155815190815290519293927f17307eab39ab6107e8899845ad3d59bd9653f200f220920489ca2b5937696c31929181900390910190a35050565b6106c48484846104af565b6106d0848484846109bb565b15156106db57600080fd5b50505050565b60055460009074010000000000000000000000000000000000000000900460ff161580156105ab575050600554600160a060020a0390811691161490565b600160a060020a03918216600090815260046020908152604080832093909416825291909152205460ff1690565b600090815260016020526040902054600160a060020a0316151590565b60008061077683610587565b905080600160a060020a031684600160a060020a031614806107b1575083600160a060020a03166107a6846103c7565b600160a060020a0316145b806107c157506107c1818561071f565b949350505050565b81600160a060020a03166107dc82610587565b600160a060020a0316146107ef57600080fd5b600081815260026020526040902054600160a060020a031615610836576000818152600260205260409020805473ffffffffffffffffffffffffffffffffffffffff191690555b5050565b81600160a060020a031661084d82610587565b600160a060020a03161461086057600080fd5b600160a060020a03821660009081526003602052604090205461088a90600163ffffffff610b3d16565b600160a060020a03909216600090815260036020908152604080832094909455918152600190915220805473ffffffffffffffffffffffffffffffffffffffff19169055565b600081815260016020526040902054600160a060020a0316156108f257600080fd5b6000818152600160208181526040808420805473ffffffffffffffffffffffffffffffffffffffff1916600160a060020a038816908117909155845260039091529091205461094091610b4f565b600160a060020a0390921660009081526003602052604090209190915550565b600160a060020a038216151561097557600080fd5b61097f82826108d0565b6040518190600160a060020a038416906000907fddf252ad1be2c89b69c2b068fc378daa952ba7f163c4a11628f55a4df523b3ef908290a45050565b6000806109d085600160a060020a0316610b65565b15156109df5760019150610b34565b6040517f150b7a020000000000000000000000000000000000000000000000000000000081523360048201818152600160a060020a03898116602485015260448401889052608060648501908152875160848601528751918a169463150b7a0294938c938b938b93909160a490910190602085019080838360005b83811015610a72578181015183820152602001610a5a565b50505050905090810190601f168015610a9f5780820380516001836020036101000a031916815260200191505b5095505050505050602060405180830381600087803b158015610ac157600080fd5b505af1158015610ad5573d6000803e3d6000fd5b505050506040513d6020811015610aeb57600080fd5b50517bffffffffffffffffffffffffffffffffffffffffffffffffffffffff1981167f150b7a020000000000000000000000000000000000000000000000000000000014925090505b50949350505050565b600082821115610b4957fe5b50900390565b600082820183811015610b5e57fe5b9392505050565b6000903b11905600a165627a7a72305820a14981e4a41c4b56c9536d953fb9b9de8defaee153dc458ca52ba0ece84d6ba70029",
  "source": "pragma solidity ^0.4.24;\n\nimport \"./ERC721.sol\";\n\n/**\n * @title ERC721Mintable\n * @dev ERC721 minting logic\n */\ncontract ERC721Mintable is ERC721 {\n\n  address public minter;\n  bool public mintingFinished;\n\n  // @notice constructor: initialized\n  constructor(address _minter)\n  public {\n    minter = _minter;\n  }\n  /**\n   * @dev Function to mint tokens\n   * @param to The address that will receive the minted tokens.\n   * @return A boolean that indicates if the operation was successful.\n   */\n  function mint(address to, uint256 tokenId)\n  public\n  returns (bool) {\n      require(canMint(msg.sender));\n      _mint(to, tokenId);\n      return true;\n  }\n\n  function finishMinting()\n  public\n  returns (bool) {\n    require(canMint(msg.sender));\n    mintingFinished = true;\n    return true;\n  }\n\n  function canMint(address sender)\n  public\n  view\n  returns (bool) {\n    return (!mintingFinished && sender == minter);\n  }\n}\n",
  "sourcePath": "/home/peter/Documents/Work/MyBit/MyBit-Network.tech/contracts/tokens/erc721/ERC721Mintable.sol",
  "compiler": {
    "name": "solc",
    "version": "0.4.24+commit.e67f0147.Emscripten.clang"
  },
  "schemaVersion": "3.0.1",
  "updatedAt": "2019-03-13T22:36:35.043Z",
  "devdoc": {
    "methods": {
      "approve(address,uint256)": {
        "details": "Approves another address to transfer the given token ID The zero address indicates there is no approved address. There can only be one approved address per token at a given time. Can only be called by the token owner or an approved operator.",
        "params": {
          "to": "address to be approved for the given token ID",
          "tokenId": "uint256 ID of the token to be approved"
        }
      },
      "balanceOf(address)": {
        "details": "Gets the balance of the specified address",
        "params": {
          "owner": "address to query the balance of"
        },
        "return": "uint256 representing the amount owned by the passed address"
      },
      "getApproved(uint256)": {
        "details": "Gets the approved address for a token ID, or zero if no address set Reverts if the token ID does not exist.",
        "params": {
          "tokenId": "uint256 ID of the token to query the approval of"
        },
        "return": "address currently approved for the given token ID"
      },
      "isApprovedForAll(address,address)": {
        "details": "Tells whether an operator is approved by a given owner",
        "params": {
          "operator": "operator address which you want to query the approval of",
          "owner": "owner address which you want to query the approval of"
        },
        "return": "bool whether the given operator is approved by the given owner"
      },
      "mint(address,uint256)": {
        "details": "Function to mint tokens",
        "params": {
          "to": "The address that will receive the minted tokens."
        },
        "return": "A boolean that indicates if the operation was successful."
      },
      "ownerOf(uint256)": {
        "details": "Gets the owner of the specified token ID",
        "params": {
          "tokenId": "uint256 ID of the token to query the owner of"
        },
        "return": "owner address currently marked as the owner of the given token ID"
      },
      "safeTransferFrom(address,address,uint256)": {
        "details": "Safely transfers the ownership of a given token ID to another address If the target address is a contract, it must implement `onERC721Received`, which is called upon a safe transfer, and return the magic value `bytes4(keccak256(\"onERC721Received(address,address,uint256,bytes)\"))`; otherwise, the transfer is reverted.     * Requires the msg sender to be the owner, approved, or operator",
        "params": {
          "from": "current owner of the token",
          "to": "address to receive the ownership of the given token ID",
          "tokenId": "uint256 ID of the token to be transferred"
        }
      },
      "safeTransferFrom(address,address,uint256,bytes)": {
        "details": "Safely transfers the ownership of a given token ID to another address If the target address is a contract, it must implement `onERC721Received`, which is called upon a safe transfer, and return the magic value `bytes4(keccak256(\"onERC721Received(address,address,uint256,bytes)\"))`; otherwise, the transfer is reverted. Requires the msg sender to be the owner, approved, or operator",
        "params": {
          "_data": "bytes data to send along with a safe transfer check",
          "from": "current owner of the token",
          "to": "address to receive the ownership of the given token ID",
          "tokenId": "uint256 ID of the token to be transferred"
        }
      },
      "setApprovalForAll(address,bool)": {
        "details": "Sets or unsets the approval of a given operator An operator is allowed to transfer all tokens of the sender on their behalf",
        "params": {
          "approved": "representing the status of the approval to be set",
          "to": "operator address to set the approval"
        }
      },
      "supportsInterface(bytes4)": {
        "details": "implement supportsInterface(bytes4) using a lookup table"
      },
      "transferFrom(address,address,uint256)": {
        "details": "Transfers the ownership of a given token ID to another address Usage of this method is discouraged, use `safeTransferFrom` whenever possible Requires the msg sender to be the owner, approved, or operator",
        "params": {
          "from": "current owner of the token",
          "to": "address to receive the ownership of the given token ID",
          "tokenId": "uint256 ID of the token to be transferred"
        }
      }
    },
    "title": "ERC721Mintable"
  },
  "userdoc": {
    "methods": {}
  }
}