{
  "contractName": "Events",
  "abi": [
    {
      "constant": true,
      "inputs": [],
      "name": "database",
      "outputs": [
        {
          "name": "",
          "type": "address"
        }
      ],
      "payable": false,
      "stateMutability": "view",
      "type": "function"
    },
    {
      "anonymous": false,
      "inputs": [
        {
          "indexed": true,
          "name": "_sender",
          "type": "address"
        },
        {
          "indexed": false,
          "name": "_number",
          "type": "uint256"
        }
      ],
      "name": "LogFavoriteNumberAdded",
      "type": "event"
    },
    {
      "constant": false,
      "inputs": [
        {
          "name": "_sender",
          "type": "address"
        },
        {
          "name": "_number",
          "type": "uint256"
        }
      ],
      "name": "numberStored",
      "outputs": [],
      "payable": false,
      "stateMutability": "nonpayable",
      "type": "function"
    }
  ],
  "bytecode": "0x608060405234801561001057600080fd5b5061035a806100206000396000f30060806040526004361061004c576000357c0100000000000000000000000000000000000000000000000000000000900463ffffffff168063643c070114610051578063713b563f1461009e575b600080fd5b34801561005d57600080fd5b5061009c600480360381019080803573ffffffffffffffffffffffffffffffffffffffff169060200190929190803590602001909291905050506100f5565b005b3480156100aa57600080fd5b506100b3610309565b604051808273ffffffffffffffffffffffffffffffffffffffff1673ffffffffffffffffffffffffffffffffffffffff16815260200191505060405180910390f35b6000809054906101000a900473ffffffffffffffffffffffffffffffffffffffff1673ffffffffffffffffffffffffffffffffffffffff16633b7bfda03360405160200180807f636f6e74726163740000000000000000000000000000000000000000000000008152506008018273ffffffffffffffffffffffffffffffffffffffff1673ffffffffffffffffffffffffffffffffffffffff166c010000000000000000000000000281526014019150506040516020818303038152906040526040518082805190602001908083835b6020831015156101ea57805182526020820191506020810190506020830392506101c5565b6001836020036101000a03801982511681845116808217855250505050505090500191505060405180910390206040518263ffffffff167c0100000000000000000000000000000000000000000000000000000000028152600401808260001916600019168152602001915050602060405180830381600087803b15801561027157600080fd5b505af1158015610285573d6000803e3d6000fd5b505050506040513d602081101561029b57600080fd5b810190808051906020019092919050505015156102b757600080fd5b8173ffffffffffffffffffffffffffffffffffffffff167fbe9a6e537c43fec92f3512fb7fe2eb3c6ab21418cbd47f21daad78b5b97a31db826040518082815260200191505060405180910390a25050565b6000809054906101000a900473ffffffffffffffffffffffffffffffffffffffff16815600a165627a7a7230582085d8cbba470ae958cef4a426c6fcbdbc87af36ac11b2828e1720fee5f8bfc38b0029",
  "source": "pragma solidity 0.4.24;\n\nimport './Database.sol';\n\ncontract Events {\n  Database public database;\n  // @dev This will emit the event from the Event contract\n  function numberStored(address _sender, uint _number)\n  external\n  onlyApprovedContract {\n      emit LogFavoriteNumberAdded(_sender, _number);\n  }\n\n  event LogFavoriteNumberAdded(address indexed _sender, uint _number);\n\n\n  // --------------------------------------------------------------------------------------\n  // Caller must be registered as a contract through ContractManager.sol\n  // --------------------------------------------------------------------------------------\n  modifier onlyApprovedContract() {\n      require(database.boolStorage(keccak256(abi.encodePacked(\"contract\", msg.sender))));\n      _;\n  }\n\n}\n",
  "sourcePath": "/home/peter/Documents/Work/MyBit/MyBit-Network.tech/contracts/database/Events.sol",
  "compiler": {
    "name": "solc",
    "version": "0.4.24+commit.e67f0147.Emscripten.clang"
  },
  "schemaVersion": "2.0.1",
  "updatedAt": "2018-10-17T01:56:53.417Z"
}