{
  "contractName": "Events",
  "abi": [
    {
      "constant": true,
      "inputs": [],
      "name": "database",
      "outputs": [
        {
          "name": "",
          "type": "address"
        }
      ],
      "payable": false,
      "stateMutability": "view",
      "type": "function"
    },
    {
      "inputs": [
        {
          "name": "_database",
          "type": "address"
        }
      ],
      "payable": false,
      "stateMutability": "nonpayable",
      "type": "constructor"
    },
    {
      "anonymous": false,
      "inputs": [
        {
          "indexed": false,
          "name": "message",
          "type": "string"
        },
        {
          "indexed": true,
          "name": "messageID",
          "type": "bytes32"
        },
        {
          "indexed": true,
          "name": "origin",
          "type": "address"
        }
      ],
      "name": "LogEvent",
      "type": "event"
    },
    {
      "anonymous": false,
      "inputs": [
        {
          "indexed": false,
          "name": "message",
          "type": "string"
        },
        {
          "indexed": true,
          "name": "messageID",
          "type": "bytes32"
        },
        {
          "indexed": true,
          "name": "from",
          "type": "address"
        },
        {
          "indexed": true,
          "name": "to",
          "type": "address"
        },
        {
          "indexed": false,
          "name": "amount",
          "type": "uint256"
        },
        {
          "indexed": false,
          "name": "id",
          "type": "bytes32"
        },
        {
          "indexed": false,
          "name": "origin",
          "type": "address"
        }
      ],
      "name": "LogTransaction",
      "type": "event"
    },
    {
      "anonymous": false,
      "inputs": [
        {
          "indexed": false,
          "name": "message",
          "type": "string"
        },
        {
          "indexed": true,
          "name": "messageID",
          "type": "bytes32"
        },
        {
          "indexed": true,
          "name": "account",
          "type": "address"
        },
        {
          "indexed": true,
          "name": "origin",
          "type": "address"
        }
      ],
      "name": "LogAddress",
      "type": "event"
    },
    {
      "anonymous": false,
      "inputs": [
        {
          "indexed": false,
          "name": "message",
          "type": "string"
        },
        {
          "indexed": true,
          "name": "messageID",
          "type": "bytes32"
        },
        {
          "indexed": true,
          "name": "account",
          "type": "address"
        },
        {
          "indexed": false,
          "name": "name",
          "type": "string"
        },
        {
          "indexed": true,
          "name": "origin",
          "type": "address"
        }
      ],
      "name": "LogContractChange",
      "type": "event"
    },
    {
      "anonymous": false,
      "inputs": [
        {
          "indexed": false,
          "name": "message",
          "type": "string"
        },
        {
          "indexed": true,
          "name": "messageID",
          "type": "bytes32"
        },
        {
          "indexed": false,
          "name": "uri",
          "type": "string"
        },
        {
          "indexed": true,
          "name": "assetID",
          "type": "bytes32"
        },
        {
          "indexed": false,
          "name": "asset",
          "type": "address"
        },
        {
          "indexed": false,
          "name": "manager",
          "type": "address"
        },
        {
          "indexed": true,
          "name": "origin",
          "type": "address"
        }
      ],
      "name": "LogAsset",
      "type": "event"
    },
    {
      "anonymous": false,
      "inputs": [
        {
          "indexed": false,
          "name": "message",
          "type": "string"
        },
        {
          "indexed": true,
          "name": "messageID",
          "type": "bytes32"
        },
        {
          "indexed": false,
          "name": "asset",
          "type": "address"
        },
        {
          "indexed": false,
          "name": "escrowID",
          "type": "bytes32"
        },
        {
          "indexed": true,
          "name": "manager",
          "type": "address"
        },
        {
          "indexed": false,
          "name": "amount",
          "type": "uint256"
        },
        {
          "indexed": true,
          "name": "origin",
          "type": "address"
        }
      ],
      "name": "LogEscrow",
      "type": "event"
    },
    {
      "anonymous": false,
      "inputs": [
        {
          "indexed": false,
          "name": "message",
          "type": "string"
        },
        {
          "indexed": true,
          "name": "messageID",
          "type": "bytes32"
        },
        {
          "indexed": true,
          "name": "orderID",
          "type": "bytes32"
        },
        {
          "indexed": false,
          "name": "amount",
          "type": "uint256"
        },
        {
          "indexed": false,
          "name": "price",
          "type": "uint256"
        },
        {
          "indexed": true,
          "name": "origin",
          "type": "address"
        }
      ],
      "name": "LogOrder",
      "type": "event"
    },
    {
      "anonymous": false,
      "inputs": [
        {
          "indexed": false,
          "name": "message",
          "type": "string"
        },
        {
          "indexed": true,
          "name": "messageID",
          "type": "bytes32"
        },
        {
          "indexed": false,
          "name": "orderID",
          "type": "bytes32"
        },
        {
          "indexed": true,
          "name": "asset",
          "type": "address"
        },
        {
          "indexed": false,
          "name": "account",
          "type": "address"
        },
        {
          "indexed": true,
          "name": "origin",
          "type": "address"
        }
      ],
      "name": "LogExchange",
      "type": "event"
    },
    {
      "anonymous": false,
      "inputs": [
        {
          "indexed": false,
          "name": "message",
          "type": "string"
        },
        {
          "indexed": true,
          "name": "messageID",
          "type": "bytes32"
        },
        {
          "indexed": false,
          "name": "operatorID",
          "type": "bytes32"
        },
        {
          "indexed": false,
          "name": "operatorURI",
          "type": "string"
        },
        {
          "indexed": true,
          "name": "account",
          "type": "address"
        },
        {
          "indexed": true,
          "name": "origin",
          "type": "address"
        }
      ],
      "name": "LogOperator",
      "type": "event"
    },
    {
      "anonymous": false,
      "inputs": [
        {
          "indexed": false,
          "name": "message",
          "type": "string"
        },
        {
          "indexed": true,
          "name": "messageID",
          "type": "bytes32"
        },
        {
          "indexed": false,
          "name": "executionID",
          "type": "bytes32"
        },
        {
          "indexed": false,
          "name": "votesID",
          "type": "bytes32"
        },
        {
          "indexed": false,
          "name": "votes",
          "type": "uint256"
        },
        {
          "indexed": false,
          "name": "tokens",
          "type": "uint256"
        },
        {
          "indexed": false,
          "name": "quorum",
          "type": "uint256"
        },
        {
          "indexed": true,
          "name": "origin",
          "type": "address"
        }
      ],
      "name": "LogConsensus",
      "type": "event"
    },
    {
      "constant": false,
      "inputs": [
        {
          "name": "_message",
          "type": "string"
        }
      ],
      "name": "message",
      "outputs": [],
      "payable": false,
      "stateMutability": "nonpayable",
      "type": "function"
    },
    {
      "constant": false,
      "inputs": [
        {
          "name": "_message",
          "type": "string"
        },
        {
          "name": "_from",
          "type": "address"
        },
        {
          "name": "_to",
          "type": "address"
        },
        {
          "name": "_amount",
          "type": "uint256"
        },
        {
          "name": "_id",
          "type": "bytes32"
        }
      ],
      "name": "transaction",
      "outputs": [],
      "payable": false,
      "stateMutability": "nonpayable",
      "type": "function"
    },
    {
      "constant": false,
      "inputs": [
        {
          "name": "_message",
          "type": "string"
        },
        {
          "name": "_account",
          "type": "address"
        }
      ],
      "name": "registration",
      "outputs": [],
      "payable": false,
      "stateMutability": "nonpayable",
      "type": "function"
    },
    {
      "constant": false,
      "inputs": [
        {
          "name": "_message",
          "type": "string"
        },
        {
          "name": "_account",
          "type": "address"
        },
        {
          "name": "_name",
          "type": "string"
        }
      ],
      "name": "contractChange",
      "outputs": [],
      "payable": false,
      "stateMutability": "nonpayable",
      "type": "function"
    },
    {
      "constant": false,
      "inputs": [
        {
          "name": "_message",
          "type": "string"
        },
        {
          "name": "_uri",
          "type": "string"
        },
        {
          "name": "_assetAddress",
          "type": "address"
        },
        {
          "name": "_manager",
          "type": "address"
        }
      ],
      "name": "asset",
      "outputs": [],
      "payable": false,
      "stateMutability": "nonpayable",
      "type": "function"
    },
    {
      "constant": false,
      "inputs": [
        {
          "name": "_message",
          "type": "string"
        },
        {
          "name": "_assetAddress",
          "type": "address"
        },
        {
          "name": "_escrowID",
          "type": "bytes32"
        },
        {
          "name": "_manager",
          "type": "address"
        },
        {
          "name": "_amount",
          "type": "uint256"
        }
      ],
      "name": "escrow",
      "outputs": [],
      "payable": false,
      "stateMutability": "nonpayable",
      "type": "function"
    },
    {
      "constant": false,
      "inputs": [
        {
          "name": "_message",
          "type": "string"
        },
        {
          "name": "_orderID",
          "type": "bytes32"
        },
        {
          "name": "_amount",
          "type": "uint256"
        },
        {
          "name": "_price",
          "type": "uint256"
        }
      ],
      "name": "order",
      "outputs": [],
      "payable": false,
      "stateMutability": "nonpayable",
      "type": "function"
    },
    {
      "constant": false,
      "inputs": [
        {
          "name": "_message",
          "type": "string"
        },
        {
          "name": "_orderID",
          "type": "bytes32"
        },
        {
          "name": "_assetAddress",
          "type": "address"
        },
        {
          "name": "_account",
          "type": "address"
        }
      ],
      "name": "exchange",
      "outputs": [],
      "payable": false,
      "stateMutability": "nonpayable",
      "type": "function"
    },
    {
      "constant": false,
      "inputs": [
        {
          "name": "_message",
          "type": "string"
        },
        {
          "name": "_operatorID",
          "type": "bytes32"
        },
        {
          "name": "_operatorURI",
          "type": "string"
        },
        {
          "name": "_account",
          "type": "address"
        }
      ],
      "name": "operator",
      "outputs": [],
      "payable": false,
      "stateMutability": "nonpayable",
      "type": "function"
    },
    {
      "constant": false,
      "inputs": [
        {
          "name": "_message",
          "type": "string"
        },
        {
          "name": "_executionID",
          "type": "bytes32"
        },
        {
          "name": "_votesID",
          "type": "bytes32"
        },
        {
          "name": "_votes",
          "type": "uint256"
        },
        {
          "name": "_tokens",
          "type": "uint256"
        },
        {
          "name": "_quorum",
          "type": "uint256"
        }
      ],
      "name": "consensus",
      "outputs": [],
      "payable": false,
      "stateMutability": "nonpayable",
      "type": "function"
    }
  ],
  "bytecode": "0x608060405234801561001057600080fd5b506040516020806118d9833981016040525160008054600160a060020a03909216600160a060020a0319909216919091179055611887806100526000396000f3006080604052600436106100955763ffffffff60e060020a60003504166301e375c6811461009a57806305c766d1146100cc5780630b94df4c146100ec5780631dc071aa1461012757806368b9627014610163578063713b563f1461019d57806378576a91146101ce578063a1c0aafe1461020c578063bb39cc3c14610236578063e609295c14610264578063f5ade8401461029a575b600080fd5b3480156100a657600080fd5b506100ca60246004803582810192910135903560443560643560843560a4356102d3565b005b3480156100d857600080fd5b506100ca60048035602481019101356104f8565b3480156100f857600080fd5b506100ca6024600480358281019291013590600160a060020a03903581169060443590606435166084356106e5565b34801561013357600080fd5b506100ca602460048035828101929082013591813591604435908101910135600160a060020a036064351661090a565b34801561016f57600080fd5b506100ca6024600480358281019291013590600160a060020a03903581169060443516606435608435610b31565b3480156101a957600080fd5b506101b2610d4b565b60408051600160a060020a039092168252519081900360200190f35b3480156101da57600080fd5b506100ca6024600480358281019290820135918135918201910135600160a060020a0360443581169060643516610d5a565b34801561021857600080fd5b506100ca60246004803582810192910135903560443560643561100c565b34801561024257600080fd5b506100ca6024600480358281019291013590600160a060020a0390351661120d565b34801561027057600080fd5b506100ca602460048035828101929101359035600160a060020a0360443581169060643516611405565b3480156102a657600080fd5b506100ca602460048035828101929082013591600160a060020a038235169160443590810191013561161f565b6000546040805160008051602061183c833981519152602080830191909152606060020a330260288301528251601c818403018152603c909201928390528151600160a060020a0390941693633b7bfda093918291908401908083835b6020831061034f5780518252601f199092019160209182019101610330565b51815160209384036101000a60001901801990921691161790526040805192909401829003822063ffffffff881660e060020a0283526004830152925160248083019650939450929083900301905081600087803b1580156103b057600080fd5b505af11580156103c4573d6000803e3d6000fd5b505050506040513d60208110156103da57600080fd5b505115156103e757600080fd5b32600160a060020a03168787604051602001808383808284378201915050925050506040516020818303038152906040526040518082805190602001908083835b602083106104475780518252601f199092019160209182019101610428565b51815160209384036101000a6000190180199092169116179052604080519290940182900382209082018c90529281018a9052606081018990526080810188905260a0810187905260c080825281018c90529193507f88d1e51c02fdc70db34224fee44c315527d4bc0da934e23b0fd6c06376400a3292508b918b91508a908a908a908a908a908060e0810189898082843760405192018290039a509098505050505050505050a350505050505050565b6000546040805160008051602061183c833981519152602080830191909152606060020a330260288301528251601c818403018152603c909201928390528151600160a060020a0390941693633b7bfda093918291908401908083835b602083106105745780518252601f199092019160209182019101610555565b51815160209384036101000a60001901801990921691161790526040805192909401829003822063ffffffff881660e060020a0283526004830152925160248083019650939450929083900301905081600087803b1580156105d557600080fd5b505af11580156105e9573d6000803e3d6000fd5b505050506040513d60208110156105ff57600080fd5b5051151561060c57600080fd5b32600160a060020a03168282604051602001808383808284378201915050925050506040516020818303038152906040526040518082805190602001908083835b6020831061066c5780518252601f19909201916020918201910161064d565b51815160209384036101000a60001901801990921691161790526040805192909401829003822081835290820188905294507fa8fda057da710952fe2bd7579ffe2fa1a9d238fa2b39323e63c15e289b543ec7935087928792508190810184848082843760405192018290039550909350505050a35050565b6000546040805160008051602061183c833981519152602080830191909152606060020a330260288301528251601c818403018152603c909201928390528151600160a060020a0390941693633b7bfda093918291908401908083835b602083106107615780518252601f199092019160209182019101610742565b51815160209384036101000a60001901801990921691161790526040805192909401829003822063ffffffff881660e060020a0283526004830152925160248083019650939450929083900301905081600087803b1580156107c257600080fd5b505af11580156107d6573d6000803e3d6000fd5b505050506040513d60208110156107ec57600080fd5b505115156107f957600080fd5b32600160a060020a031682600160a060020a03168787604051602001808383808284378201915050925050506040516020818303038152906040526040518082805190602001908083835b602083106108635780518252601f199092019160209182019101610844565b51815160209384036101000a600019018019909216911617905260408051929094018290038220600160a060020a038d16918301919091529281018a905260608101889052608080825281018c90529193507f100520eaf70b22f938253d35fcecbe5ec21f686f938e02f6553318b52efd2ffe92508b918b91508a908a9089908060a0810187878082843760405192018290039850909650505050505050a4505050505050565b6000546040805160008051602061183c833981519152602080830191909152606060020a330260288301528251601c818403018152603c909201928390528151600160a060020a0390941693633b7bfda093918291908401908083835b602083106109865780518252601f199092019160209182019101610967565b51815160209384036101000a60001901801990921691161790526040805192909401829003822063ffffffff881660e060020a0283526004830152925160248083019650939450929083900301905081600087803b1580156109e757600080fd5b505af11580156109fb573d6000803e3d6000fd5b505050506040513d6020811015610a1157600080fd5b50511515610a1e57600080fd5b32600160a060020a031681600160a060020a03168787604051602001808383808284378201915050925050506040516020818303038152906040526040518082805190602001908083835b60208310610a885780518252601f199092019160209182019101610a69565b51815160209384036101000a6000190180199092169116179052604080519290940182900382209082018c9052606080835282018d905294507fd6426a3ba1f4047d5121b172d5742f9de82fb88d3893b3fb3c5a665ef4bf96f193508c928c92508b918b918b91908190810160808201888880828437909101848103835285815260200190508585808284376040519201829003995090975050505050505050a4505050505050565b6000546040805160008051602061183c833981519152602080830191909152606060020a330260288301528251601c818403018152603c909201928390528151600160a060020a0390941693633b7bfda093918291908401908083835b60208310610bad5780518252601f199092019160209182019101610b8e565b51815160209384036101000a60001901801990921691161790526040805192909401829003822063ffffffff881660e060020a0283526004830152925160248083019650939450929083900301905081600087803b158015610c0e57600080fd5b505af1158015610c22573d6000803e3d6000fd5b505050506040513d6020811015610c3857600080fd5b50511515610c4557600080fd5b82600160a060020a031684600160a060020a03168787604051602001808383808284378201915050925050506040516020818303038152906040526040518082805190602001908083835b60208310610caf5780518252601f199092019160209182019101610c90565b51815160209384036101000a6000190180199092169116179052604080519290940182900382209082018a90529281018890523260608201819052608080835282018d90529294507fbe993000f400d0a8060e26d30297b9c567fcf5f46579410cd17d4334daba846d93508c928c925089918991908060a0810187878082843760405192018290039850909650505050505050a4505050505050565b600054600160a060020a031681565b6000546040805160008051602061183c833981519152602080830191909152606060020a330260288301528251601c818403018152603c909201928390528151600160a060020a0390941693633b7bfda093918291908401908083835b60208310610dd65780518252601f199092019160209182019101610db7565b51815160209384036101000a60001901801990921691161790526040805192909401829003822063ffffffff881660e060020a0283526004830152925160248083019650939450929083900301905081600087803b158015610e3757600080fd5b505af1158015610e4b573d6000803e3d6000fd5b505050506040513d6020811015610e6157600080fd5b50511515610e6e57600080fd5b32600160a060020a03168484604051602001808383808284378201915050925050506040516020818303038152906040526040518082805190602001908083835b60208310610ece5780518252601f199092019160209182019101610eaf565b51815160209384036101000a600019018019909216911617905260405191909301819003812094508b93508a92019050808383808284378201915050925050506040516020818303038152906040526040518082805190602001908083835b60208310610f4c5780518252601f199092019160209182019101610f2d565b51815160209384036101000a600019018019909216911617905260408051929094018290038220600160a060020a038b8116958401959095529389166060830152608080835282018d90529294507f81e3988b2d4a535c38a8d0bb25f1bf3fc0fae4304f13292258c80460d319048f93508c928c92508b918b918b918b918190810160a082018989808284379091018481038352878152602001905087878082843760405192018290039a509098505050505050505050a4505050505050565b6000546040805160008051602061183c833981519152602080830191909152606060020a330260288301528251601c818403018152603c909201928390528151600160a060020a0390941693633b7bfda093918291908401908083835b602083106110885780518252601f199092019160209182019101611069565b51815160209384036101000a60001901801990921691161790526040805192909401829003822063ffffffff881660e060020a0283526004830152925160248083019650939450929083900301905081600087803b1580156110e957600080fd5b505af11580156110fd573d6000803e3d6000fd5b505050506040513d602081101561111357600080fd5b5051151561112057600080fd5b6040513290849087908790602001808383808284378201915050925050506040516020818303038152906040526040518082805190602001908083835b6020831061117c5780518252601f19909201916020918201910161115d565b51815160209384036101000a6000190180199092169116179052604080519290940182900382209082018a9052928101889052606080825281018b90529193507fbfd5c7f40f17c3c4d259746f658e50128286dce2f2a2d374e235b7e4b805573192508a918a9150889088908060808101868680828437604051920182900397509095505050505050a45050505050565b6000546040805160008051602061183c833981519152602080830191909152606060020a330260288301528251601c818403018152603c909201928390528151600160a060020a0390941693633b7bfda093918291908401908083835b602083106112895780518252601f19909201916020918201910161126a565b51815160209384036101000a60001901801990921691161790526040805192909401829003822063ffffffff881660e060020a0283526004830152925160248083019650939450929083900301905081600087803b1580156112ea57600080fd5b505af11580156112fe573d6000803e3d6000fd5b505050506040513d602081101561131457600080fd5b5051151561132157600080fd5b32600160a060020a031681600160a060020a03168484604051602001808383808284378201915050925050506040516020818303038152906040526040518082805190602001908083835b6020831061138b5780518252601f19909201916020918201910161136c565b51815160209384036101000a6000190180199092169116179052604080519290940182900382208183529082018a905294507fa52a36e76b500c0aeee4e1ea9b294f833a0eba932f01d75395c9ae1aba0a9659935089928992508190810184848082843760405192018290039550909350505050a4505050565b6000546040805160008051602061183c833981519152602080830191909152606060020a330260288301528251601c818403018152603c909201928390528151600160a060020a0390941693633b7bfda093918291908401908083835b602083106114815780518252601f199092019160209182019101611462565b51815160209384036101000a60001901801990921691161790526040805192909401829003822063ffffffff881660e060020a0283526004830152925160248083019650939450929083900301905081600087803b1580156114e257600080fd5b505af11580156114f6573d6000803e3d6000fd5b505050506040513d602081101561150c57600080fd5b5051151561151957600080fd5b32600160a060020a031682600160a060020a03168686604051602001808383808284378201915050925050506040516020818303038152906040526040518082805190602001908083835b602083106115835780518252601f199092019160209182019101611564565b51815160209384036101000a6000190180199092169116179052604080519290940182900382209082018b9052600160a060020a03891693820193909352606080825281018b90529193507f527c6cf635c1aee21fa60d2f756d9553f7129cbf27cd3bec6137fd2033a62d8a92508a918a9150899088908060808101868680828437604051920182900397509095505050505050a45050505050565b6000546040805160008051602061183c833981519152602080830191909152606060020a330260288301528251601c818403018152603c909201928390528151600160a060020a0390941693633b7bfda093918291908401908083835b6020831061169b5780518252601f19909201916020918201910161167c565b51815160209384036101000a60001901801990921691161790526040805192909401829003822063ffffffff881660e060020a0283526004830152925160248083019650939450929083900301905081600087803b1580156116fc57600080fd5b505af1158015611710573d6000803e3d6000fd5b505050506040513d602081101561172657600080fd5b5051151561173357600080fd5b32600160a060020a031683600160a060020a03168686604051602001808383808284378201915050925050506040516020818303038152906040526040518082805190602001908083835b6020831061179d5780518252601f19909201916020918201910161177e565b51815160209384036101000a6000190180199092169116179052604080519290940182900382208483529382018c90529294507fcd9a484b17c708d85e899f6e3f0c8d521fa38d58604427b1d7a3558d2bd0830b93508b928b92508991899181908101606082018787808284379091018481038352858152602001905085858082843760405192018290039850909650505050505050a450505050505600636f6e7472616374000000000000000000000000000000000000000000000000a165627a7a72305820cdb01f92359944eb7cce9a9b583c639b445e8809efce3db25de4bfa44d9c8ad30029",
  "source": "pragma solidity ^0.4.24;\n\nimport '../interfaces/DBInterface.sol';\n\ncontract Events {\n  DBInterface public database;\n\n  constructor(address _database) public{\n    database = DBInterface(_database);\n  }\n\n  function message(string _message)\n  external\n  onlyApprovedContract {\n      emit LogEvent(_message, keccak256(abi.encodePacked(_message)), tx.origin);\n  }\n\n  function transaction(string _message, address _from, address _to, uint _amount, bytes32 _id)\n  external\n  onlyApprovedContract {\n      emit LogTransaction(_message, keccak256(abi.encodePacked(_message)), _from, _to, _amount, _id, tx.origin);\n  }\n\n  function registration(string _message, address _account)\n  external\n  onlyApprovedContract {\n      emit LogAddress(_message, keccak256(abi.encodePacked(_message)), _account, tx.origin);\n  }\n\n  function contractChange(string _message, address _account, string _name)\n  external\n  onlyApprovedContract {\n      emit LogContractChange(_message, keccak256(abi.encodePacked(_message)), _account, _name, tx.origin);\n  }\n\n  function asset(string _message, string _uri, address _assetAddress, address _manager)\n  external\n  onlyApprovedContract {\n      emit LogAsset(_message, keccak256(abi.encodePacked(_message)), _uri, keccak256(abi.encodePacked(_uri)), _assetAddress, _manager, tx.origin);\n  }\n\n  function escrow(string _message, address _assetAddress, bytes32 _escrowID, address _manager, uint _amount)\n  external\n  onlyApprovedContract {\n      emit LogEscrow(_message, keccak256(abi.encodePacked(_message)), _assetAddress, _escrowID, _manager, _amount, tx.origin);\n  }\n\n  function order(string _message, bytes32 _orderID, uint _amount, uint _price)\n  external\n  onlyApprovedContract {\n      emit LogOrder(_message, keccak256(abi.encodePacked(_message)), _orderID, _amount, _price, tx.origin);\n  }\n\n  function exchange(string _message, bytes32 _orderID, address _assetAddress, address _account)\n  external\n  onlyApprovedContract {\n      emit LogExchange(_message, keccak256(abi.encodePacked(_message)), _orderID, _assetAddress, _account, tx.origin);\n  }\n\n  function operator(string _message, bytes32 _operatorID, string _operatorURI, address _account)\n  external\n  onlyApprovedContract {\n      emit LogOperator(_message, keccak256(abi.encodePacked(_message)), _operatorID, _operatorURI, _account, tx.origin);\n  }\n\n  function consensus(string _message, bytes32 _executionID, bytes32 _votesID, uint _votes, uint _tokens, uint _quorum)\n  external\n  onlyApprovedContract {\n    emit LogConsensus(_message, keccak256(abi.encodePacked(_message)), _executionID, _votesID, _votes, _tokens, _quorum, tx.origin);\n  }\n\n  //Generalized events\n  event LogEvent(string message, bytes32 indexed messageID, address indexed origin);\n  event LogTransaction(string message, bytes32 indexed messageID, address indexed from, address indexed to, uint amount, bytes32 id, address origin); //amount and id will be empty on some events\n  event LogAddress(string message, bytes32 indexed messageID, address indexed account, address indexed origin);\n  event LogContractChange(string message, bytes32 indexed messageID, address indexed account, string name, address indexed origin);\n  event LogAsset(string message, bytes32 indexed messageID, string uri, bytes32 indexed assetID, address asset, address manager, address indexed origin);\n  event LogEscrow(string message, bytes32 indexed messageID, address asset, bytes32  escrowID, address indexed manager, uint amount, address indexed origin);\n  event LogOrder(string message, bytes32 indexed messageID, bytes32 indexed orderID, uint amount, uint price, address indexed origin);\n  event LogExchange(string message, bytes32 indexed messageID, bytes32 orderID, address indexed asset, address account, address indexed origin);\n  event LogOperator(string message, bytes32 indexed messageID, bytes32 operatorID, string operatorURI, address indexed account, address indexed origin);\n  event LogConsensus(string message, bytes32 indexed messageID, bytes32 executionID, bytes32 votesID, uint votes, uint tokens, uint quorum, address indexed origin);\n\n\n  // --------------------------------------------------------------------------------------\n  // Caller must be registered as a contract through ContractManager.sol\n  // --------------------------------------------------------------------------------------\n  modifier onlyApprovedContract() {\n      require(database.boolStorage(keccak256(abi.encodePacked(\"contract\", msg.sender))));\n      _;\n  }\n\n}\n",
  "sourcePath": "/home/peter/Documents/Work/MyBit/MyBit-Network.tech/contracts/database/Events.sol",
  "compiler": {
    "name": "solc",
    "version": "0.4.24+commit.e67f0147.Emscripten.clang"
  },
  "schemaVersion": "3.0.2",
  "updatedAt": "2019-03-14T21:46:28.463Z",
  "devdoc": {
    "methods": {}
  },
  "userdoc": {
    "methods": {}
  }
}