{
  "contractName": "Events",
  "abi": [
    {
      "constant": true,
      "inputs": [],
      "name": "database",
      "outputs": [
        {
          "name": "",
          "type": "address"
        }
      ],
      "payable": false,
      "stateMutability": "view",
      "type": "function"
    },
    {
      "inputs": [
        {
          "name": "_database",
          "type": "address"
        }
      ],
      "payable": false,
      "stateMutability": "nonpayable",
      "type": "constructor"
    },
    {
      "anonymous": false,
      "inputs": [
        {
          "indexed": false,
          "name": "message",
          "type": "string"
        },
        {
          "indexed": true,
          "name": "messageID",
          "type": "bytes32"
        },
        {
          "indexed": true,
          "name": "origin",
          "type": "address"
        }
      ],
      "name": "LogEvent",
      "type": "event"
    },
    {
      "anonymous": false,
      "inputs": [
        {
          "indexed": false,
          "name": "message",
          "type": "string"
        },
        {
          "indexed": true,
          "name": "messageID",
          "type": "bytes32"
        },
        {
          "indexed": true,
          "name": "from",
          "type": "address"
        },
        {
          "indexed": true,
          "name": "to",
          "type": "address"
        },
        {
          "indexed": false,
          "name": "amount",
          "type": "uint256"
        },
        {
          "indexed": false,
          "name": "id",
          "type": "bytes32"
        },
        {
          "indexed": false,
          "name": "origin",
          "type": "address"
        }
      ],
      "name": "LogTransaction",
      "type": "event"
    },
    {
      "anonymous": false,
      "inputs": [
        {
          "indexed": false,
          "name": "message",
          "type": "string"
        },
        {
          "indexed": true,
          "name": "messageID",
          "type": "bytes32"
        },
        {
          "indexed": true,
          "name": "account",
          "type": "address"
        },
        {
          "indexed": true,
          "name": "origin",
          "type": "address"
        }
      ],
      "name": "LogAddress",
      "type": "event"
    },
    {
      "anonymous": false,
      "inputs": [
        {
          "indexed": false,
          "name": "message",
          "type": "string"
        },
        {
          "indexed": true,
          "name": "messageID",
          "type": "bytes32"
        },
        {
          "indexed": true,
          "name": "account",
          "type": "address"
        },
        {
          "indexed": false,
          "name": "name",
          "type": "string"
        },
        {
          "indexed": true,
          "name": "origin",
          "type": "address"
        }
      ],
      "name": "LogContractChange",
      "type": "event"
    },
    {
      "anonymous": false,
      "inputs": [
        {
          "indexed": false,
          "name": "message",
          "type": "string"
        },
        {
          "indexed": true,
          "name": "messageID",
          "type": "bytes32"
        },
        {
          "indexed": false,
          "name": "uri",
          "type": "string"
        },
        {
          "indexed": false,
          "name": "assetID",
          "type": "bytes32"
        },
        {
          "indexed": false,
          "name": "token",
          "type": "address"
        },
        {
          "indexed": true,
          "name": "manager",
          "type": "address"
        },
        {
          "indexed": true,
          "name": "origin",
          "type": "address"
        }
      ],
      "name": "LogAsset",
      "type": "event"
    },
    {
      "anonymous": false,
      "inputs": [
        {
          "indexed": false,
          "name": "message",
          "type": "string"
        },
        {
          "indexed": true,
          "name": "messageID",
          "type": "bytes32"
        },
        {
          "indexed": false,
          "name": "assetID",
          "type": "bytes32"
        },
        {
          "indexed": false,
          "name": "escrowID",
          "type": "bytes32"
        },
        {
          "indexed": true,
          "name": "manager",
          "type": "address"
        },
        {
          "indexed": false,
          "name": "amount",
          "type": "uint256"
        },
        {
          "indexed": true,
          "name": "origin",
          "type": "address"
        }
      ],
      "name": "LogEscrow",
      "type": "event"
    },
    {
      "anonymous": false,
      "inputs": [
        {
          "indexed": false,
          "name": "message",
          "type": "string"
        },
        {
          "indexed": true,
          "name": "messageID",
          "type": "bytes32"
        },
        {
          "indexed": true,
          "name": "orderID",
          "type": "bytes32"
        },
        {
          "indexed": false,
          "name": "amount",
          "type": "uint256"
        },
        {
          "indexed": false,
          "name": "price",
          "type": "uint256"
        },
        {
          "indexed": true,
          "name": "origin",
          "type": "address"
        }
      ],
      "name": "LogOrder",
      "type": "event"
    },
    {
      "anonymous": false,
      "inputs": [
        {
          "indexed": false,
          "name": "message",
          "type": "string"
        },
        {
          "indexed": true,
          "name": "messageID",
          "type": "bytes32"
        },
        {
          "indexed": false,
          "name": "orderID",
          "type": "bytes32"
        },
        {
          "indexed": true,
          "name": "assetID",
          "type": "bytes32"
        },
        {
          "indexed": false,
          "name": "account",
          "type": "address"
        },
        {
          "indexed": true,
          "name": "origin",
          "type": "address"
        }
      ],
      "name": "LogExchange",
      "type": "event"
    },
    {
      "anonymous": false,
      "inputs": [
        {
          "indexed": false,
          "name": "message",
          "type": "string"
        },
        {
          "indexed": true,
          "name": "messageID",
          "type": "bytes32"
        },
        {
          "indexed": false,
          "name": "operatorID",
          "type": "bytes32"
        },
        {
          "indexed": false,
          "name": "operatorURI",
          "type": "string"
        },
        {
          "indexed": true,
          "name": "account",
          "type": "address"
        },
        {
          "indexed": true,
          "name": "origin",
          "type": "address"
        }
      ],
      "name": "LogOperator",
      "type": "event"
    },
    {
      "anonymous": false,
      "inputs": [
        {
          "indexed": false,
          "name": "message",
          "type": "string"
        },
        {
          "indexed": true,
          "name": "messageID",
          "type": "bytes32"
        },
        {
          "indexed": false,
          "name": "executionID",
          "type": "bytes32"
        },
        {
          "indexed": false,
          "name": "votesID",
          "type": "bytes32"
        },
        {
          "indexed": false,
          "name": "votes",
          "type": "uint256"
        },
        {
          "indexed": false,
          "name": "tokens",
          "type": "uint256"
        },
        {
          "indexed": false,
          "name": "quorum",
          "type": "uint256"
        },
        {
          "indexed": true,
          "name": "origin",
          "type": "address"
        }
      ],
      "name": "LogConsensus",
      "type": "event"
    },
    {
      "constant": false,
      "inputs": [
        {
          "name": "_message",
          "type": "string"
        }
      ],
      "name": "message",
      "outputs": [],
      "payable": false,
      "stateMutability": "nonpayable",
      "type": "function"
    },
    {
      "constant": false,
      "inputs": [
        {
          "name": "_message",
          "type": "string"
        },
        {
          "name": "_from",
          "type": "address"
        },
        {
          "name": "_to",
          "type": "address"
        },
        {
          "name": "_amount",
          "type": "uint256"
        },
        {
          "name": "_id",
          "type": "bytes32"
        }
      ],
      "name": "transaction",
      "outputs": [],
      "payable": false,
      "stateMutability": "nonpayable",
      "type": "function"
    },
    {
      "constant": false,
      "inputs": [
        {
          "name": "_message",
          "type": "string"
        },
        {
          "name": "_account",
          "type": "address"
        }
      ],
      "name": "registration",
      "outputs": [],
      "payable": false,
      "stateMutability": "nonpayable",
      "type": "function"
    },
    {
      "constant": false,
      "inputs": [
        {
          "name": "_message",
          "type": "string"
        },
        {
          "name": "_account",
          "type": "address"
        },
        {
          "name": "_name",
          "type": "string"
        }
      ],
      "name": "contractChange",
      "outputs": [],
      "payable": false,
      "stateMutability": "nonpayable",
      "type": "function"
    },
    {
      "constant": false,
      "inputs": [
        {
          "name": "_message",
          "type": "string"
        },
        {
          "name": "_uri",
          "type": "string"
        },
        {
          "name": "_assetID",
          "type": "bytes32"
        },
        {
          "name": "_token",
          "type": "address"
        },
        {
          "name": "_manager",
          "type": "address"
        }
      ],
      "name": "asset",
      "outputs": [],
      "payable": false,
      "stateMutability": "nonpayable",
      "type": "function"
    },
    {
      "constant": false,
      "inputs": [
        {
          "name": "_message",
          "type": "string"
        },
        {
          "name": "_assetID",
          "type": "bytes32"
        },
        {
          "name": "_escrowID",
          "type": "bytes32"
        },
        {
          "name": "_manager",
          "type": "address"
        },
        {
          "name": "_amount",
          "type": "uint256"
        }
      ],
      "name": "escrow",
      "outputs": [],
      "payable": false,
      "stateMutability": "nonpayable",
      "type": "function"
    },
    {
      "constant": false,
      "inputs": [
        {
          "name": "_message",
          "type": "string"
        },
        {
          "name": "_orderID",
          "type": "bytes32"
        },
        {
          "name": "_amount",
          "type": "uint256"
        },
        {
          "name": "_price",
          "type": "uint256"
        }
      ],
      "name": "order",
      "outputs": [],
      "payable": false,
      "stateMutability": "nonpayable",
      "type": "function"
    },
    {
      "constant": false,
      "inputs": [
        {
          "name": "_message",
          "type": "string"
        },
        {
          "name": "_orderID",
          "type": "bytes32"
        },
        {
          "name": "_assetID",
          "type": "bytes32"
        },
        {
          "name": "_account",
          "type": "address"
        }
      ],
      "name": "exchange",
      "outputs": [],
      "payable": false,
      "stateMutability": "nonpayable",
      "type": "function"
    },
    {
      "constant": false,
      "inputs": [
        {
          "name": "_message",
          "type": "string"
        },
        {
          "name": "_operatorID",
          "type": "bytes32"
        },
        {
          "name": "_operatorURI",
          "type": "string"
        },
        {
          "name": "_account",
          "type": "address"
        }
      ],
      "name": "operator",
      "outputs": [],
      "payable": false,
      "stateMutability": "nonpayable",
      "type": "function"
    },
    {
      "constant": false,
      "inputs": [
        {
          "name": "_message",
          "type": "string"
        },
        {
          "name": "_executionID",
          "type": "bytes32"
        },
        {
          "name": "_votesID",
          "type": "bytes32"
        },
        {
          "name": "_votes",
          "type": "uint256"
        },
        {
          "name": "_tokens",
          "type": "uint256"
        },
        {
          "name": "_quorum",
          "type": "uint256"
        }
      ],
      "name": "consensus",
      "outputs": [],
      "payable": false,
      "stateMutability": "nonpayable",
      "type": "function"
    }
  ],
  "bytecode": "0x608060405234801561001057600080fd5b50604051602080611843833981016040525160008054600160a060020a03909216600160a060020a03199092169190911790556117f1806100526000396000f3006080604052600436106100955763ffffffff60e060020a60003504166301e375c6811461009a57806305c766d1146100cc5780631519b2d5146100ec5780631dc071aa1461011f57806335cb48001461015b57806368b9627014610191578063713b563f146101cb57806377f7b7a7146101fc578063a1c0aafe1461023d578063bb39cc3c14610267578063f5ade84014610295575b600080fd5b3480156100a657600080fd5b506100ca60246004803582810192910135903560443560643560843560a4356102ce565b005b3480156100d857600080fd5b506100ca60048035602481019101356104f3565b3480156100f857600080fd5b506100ca602460048035828101929101359035604435600160a060020a03606435166106e0565b34801561012b57600080fd5b506100ca602460048035828101929082013591813591604435908101910135600160a060020a03606435166108ec565b34801561016757600080fd5b506100ca602460048035828101929101359035604435600160a060020a0360643516608435610b13565b34801561019d57600080fd5b506100ca6024600480358281019291013590600160a060020a03903581169060443516606435608435610d2d565b3480156101d757600080fd5b506101e0610f47565b60408051600160a060020a039092168252519081900360200190f35b34801561020857600080fd5b506100ca6024600480358281019290820135918135918201910135604435600160a060020a0360643581169060843516610f56565b34801561024957600080fd5b506100ca602460048035828101929101359035604435606435611190565b34801561027357600080fd5b506100ca6024600480358281019291013590600160a060020a03903516611391565b3480156102a157600080fd5b506100ca602460048035828101929082013591600160a060020a0382351691604435908101910135611589565b600054604080516000805160206117a6833981519152602080830191909152606060020a330260288301528251601c818403018152603c909201928390528151600160a060020a0390941693633b7bfda093918291908401908083835b6020831061034a5780518252601f19909201916020918201910161032b565b51815160209384036101000a60001901801990921691161790526040805192909401829003822063ffffffff881660e060020a0283526004830152925160248083019650939450929083900301905081600087803b1580156103ab57600080fd5b505af11580156103bf573d6000803e3d6000fd5b505050506040513d60208110156103d557600080fd5b505115156103e257600080fd5b32600160a060020a03168787604051602001808383808284378201915050925050506040516020818303038152906040526040518082805190602001908083835b602083106104425780518252601f199092019160209182019101610423565b51815160209384036101000a6000190180199092169116179052604080519290940182900382209082018c90529281018a9052606081018990526080810188905260a0810187905260c080825281018c90529193507f88d1e51c02fdc70db34224fee44c315527d4bc0da934e23b0fd6c06376400a3292508b918b91508a908a908a908a908a908060e0810189898082843760405192018290039a509098505050505050505050a350505050505050565b600054604080516000805160206117a6833981519152602080830191909152606060020a330260288301528251601c818403018152603c909201928390528151600160a060020a0390941693633b7bfda093918291908401908083835b6020831061056f5780518252601f199092019160209182019101610550565b51815160209384036101000a60001901801990921691161790526040805192909401829003822063ffffffff881660e060020a0283526004830152925160248083019650939450929083900301905081600087803b1580156105d057600080fd5b505af11580156105e4573d6000803e3d6000fd5b505050506040513d60208110156105fa57600080fd5b5051151561060757600080fd5b32600160a060020a03168282604051602001808383808284378201915050925050506040516020818303038152906040526040518082805190602001908083835b602083106106675780518252601f199092019160209182019101610648565b51815160209384036101000a60001901801990921691161790526040805192909401829003822081835290820188905294507fa8fda057da710952fe2bd7579ffe2fa1a9d238fa2b39323e63c15e289b543ec7935087928792508190810184848082843760405192018290039550909350505050a35050565b600054604080516000805160206117a6833981519152602080830191909152606060020a330260288301528251601c818403018152603c909201928390528151600160a060020a0390941693633b7bfda093918291908401908083835b6020831061075c5780518252601f19909201916020918201910161073d565b51815160209384036101000a60001901801990921691161790526040805192909401829003822063ffffffff881660e060020a0283526004830152925160248083019650939450929083900301905081600087803b1580156107bd57600080fd5b505af11580156107d1573d6000803e3d6000fd5b505050506040513d60208110156107e757600080fd5b505115156107f457600080fd5b6040513290839087908790602001808383808284378201915050925050506040516020818303038152906040526040518082805190602001908083835b602083106108505780518252601f199092019160209182019101610831565b51815160209384036101000a6000190180199092169116179052604080519290940182900382209082018b9052600160a060020a03891693820193909352606080825281018b90529193507f6463337f6ca771dd572340fc6791e5d1f70bb91de4e93cd088458852e116510992508a918a9150899088908060808101868680828437604051920182900397509095505050505050a45050505050565b600054604080516000805160206117a6833981519152602080830191909152606060020a330260288301528251601c818403018152603c909201928390528151600160a060020a0390941693633b7bfda093918291908401908083835b602083106109685780518252601f199092019160209182019101610949565b51815160209384036101000a60001901801990921691161790526040805192909401829003822063ffffffff881660e060020a0283526004830152925160248083019650939450929083900301905081600087803b1580156109c957600080fd5b505af11580156109dd573d6000803e3d6000fd5b505050506040513d60208110156109f357600080fd5b50511515610a0057600080fd5b32600160a060020a031681600160a060020a03168787604051602001808383808284378201915050925050506040516020818303038152906040526040518082805190602001908083835b60208310610a6a5780518252601f199092019160209182019101610a4b565b51815160209384036101000a6000190180199092169116179052604080519290940182900382209082018c9052606080835282018d905294507fd6426a3ba1f4047d5121b172d5742f9de82fb88d3893b3fb3c5a665ef4bf96f193508c928c92508b918b918b91908190810160808201888880828437909101848103835285815260200190508585808284376040519201829003995090975050505050505050a4505050505050565b600054604080516000805160206117a6833981519152602080830191909152606060020a330260288301528251601c818403018152603c909201928390528151600160a060020a0390941693633b7bfda093918291908401908083835b60208310610b8f5780518252601f199092019160209182019101610b70565b51815160209384036101000a60001901801990921691161790526040805192909401829003822063ffffffff881660e060020a0283526004830152925160248083019650939450929083900301905081600087803b158015610bf057600080fd5b505af1158015610c04573d6000803e3d6000fd5b505050506040513d6020811015610c1a57600080fd5b50511515610c2757600080fd5b32600160a060020a031682600160a060020a03168787604051602001808383808284378201915050925050506040516020818303038152906040526040518082805190602001908083835b60208310610c915780518252601f199092019160209182019101610c72565b51815160209384036101000a6000190180199092169116179052604080519290940182900382209082018c90529281018a905260608101889052608080825281018c90529193507fc312a62cab4612f7e5c6cb6deccb8303683123f4bef011b40d3c5d42aeb3560e92508b918b91508a908a9089908060a0810187878082843760405192018290039850909650505050505050a4505050505050565b600054604080516000805160206117a6833981519152602080830191909152606060020a330260288301528251601c818403018152603c909201928390528151600160a060020a0390941693633b7bfda093918291908401908083835b60208310610da95780518252601f199092019160209182019101610d8a565b51815160209384036101000a60001901801990921691161790526040805192909401829003822063ffffffff881660e060020a0283526004830152925160248083019650939450929083900301905081600087803b158015610e0a57600080fd5b505af1158015610e1e573d6000803e3d6000fd5b505050506040513d6020811015610e3457600080fd5b50511515610e4157600080fd5b82600160a060020a031684600160a060020a03168787604051602001808383808284378201915050925050506040516020818303038152906040526040518082805190602001908083835b60208310610eab5780518252601f199092019160209182019101610e8c565b51815160209384036101000a6000190180199092169116179052604080519290940182900382209082018a90529281018890523260608201819052608080835282018d90529294507fbe993000f400d0a8060e26d30297b9c567fcf5f46579410cd17d4334daba846d93508c928c925089918991908060a0810187878082843760405192018290039850909650505050505050a4505050505050565b600054600160a060020a031681565b600054604080516000805160206117a6833981519152602080830191909152606060020a330260288301528251601c818403018152603c909201928390528151600160a060020a0390941693633b7bfda093918291908401908083835b60208310610fd25780518252601f199092019160209182019101610fb3565b51815160209384036101000a60001901801990921691161790526040805192909401829003822063ffffffff881660e060020a0283526004830152925160248083019650939450929083900301905081600087803b15801561103357600080fd5b505af1158015611047573d6000803e3d6000fd5b505050506040513d602081101561105d57600080fd5b5051151561106a57600080fd5b32600160a060020a031681600160a060020a03168888604051602001808383808284378201915050925050506040516020818303038152906040526040518082805190602001908083835b602083106110d45780518252601f1990920191602091820191016110b5565b51815160209384036101000a6000190180199092169116179052604080519290940182900382209382018b9052600160a060020a038a166060830152608080835282018e90529294507f81e3988b2d4a535c38a8d0bb25f1bf3fc0fae4304f13292258c80460d319048f93508d928d92508c918c918c918c918190810160a082018989808284379091018481038352878152602001905087878082843760405192018290039a509098505050505050505050a450505050505050565b600054604080516000805160206117a6833981519152602080830191909152606060020a330260288301528251601c818403018152603c909201928390528151600160a060020a0390941693633b7bfda093918291908401908083835b6020831061120c5780518252601f1990920191602091820191016111ed565b51815160209384036101000a60001901801990921691161790526040805192909401829003822063ffffffff881660e060020a0283526004830152925160248083019650939450929083900301905081600087803b15801561126d57600080fd5b505af1158015611281573d6000803e3d6000fd5b505050506040513d602081101561129757600080fd5b505115156112a457600080fd5b6040513290849087908790602001808383808284378201915050925050506040516020818303038152906040526040518082805190602001908083835b602083106113005780518252601f1990920191602091820191016112e1565b51815160209384036101000a6000190180199092169116179052604080519290940182900382209082018a9052928101889052606080825281018b90529193507fbfd5c7f40f17c3c4d259746f658e50128286dce2f2a2d374e235b7e4b805573192508a918a9150889088908060808101868680828437604051920182900397509095505050505050a45050505050565b600054604080516000805160206117a6833981519152602080830191909152606060020a330260288301528251601c818403018152603c909201928390528151600160a060020a0390941693633b7bfda093918291908401908083835b6020831061140d5780518252601f1990920191602091820191016113ee565b51815160209384036101000a60001901801990921691161790526040805192909401829003822063ffffffff881660e060020a0283526004830152925160248083019650939450929083900301905081600087803b15801561146e57600080fd5b505af1158015611482573d6000803e3d6000fd5b505050506040513d602081101561149857600080fd5b505115156114a557600080fd5b32600160a060020a031681600160a060020a03168484604051602001808383808284378201915050925050506040516020818303038152906040526040518082805190602001908083835b6020831061150f5780518252601f1990920191602091820191016114f0565b51815160209384036101000a6000190180199092169116179052604080519290940182900382208183529082018a905294507fa52a36e76b500c0aeee4e1ea9b294f833a0eba932f01d75395c9ae1aba0a9659935089928992508190810184848082843760405192018290039550909350505050a4505050565b600054604080516000805160206117a6833981519152602080830191909152606060020a330260288301528251601c818403018152603c909201928390528151600160a060020a0390941693633b7bfda093918291908401908083835b602083106116055780518252601f1990920191602091820191016115e6565b51815160209384036101000a60001901801990921691161790526040805192909401829003822063ffffffff881660e060020a0283526004830152925160248083019650939450929083900301905081600087803b15801561166657600080fd5b505af115801561167a573d6000803e3d6000fd5b505050506040513d602081101561169057600080fd5b5051151561169d57600080fd5b32600160a060020a031683600160a060020a03168686604051602001808383808284378201915050925050506040516020818303038152906040526040518082805190602001908083835b602083106117075780518252601f1990920191602091820191016116e8565b51815160209384036101000a6000190180199092169116179052604080519290940182900382208483529382018c90529294507fcd9a484b17c708d85e899f6e3f0c8d521fa38d58604427b1d7a3558d2bd0830b93508b928b92508991899181908101606082018787808284379091018481038352858152602001905085858082843760405192018290039850909650505050505050a450505050505600636f6e7472616374000000000000000000000000000000000000000000000000a165627a7a7230582095a3579968950a2f32338f4afe0494d99e7f4102f1dab872d4ad2363e5f6572b0029",
  "source": "pragma solidity ^0.4.24;\n\nimport '../interfaces/DBInterface.sol';\n\ncontract Events {\n  DBInterface public database;\n\n  constructor(address _database) public{\n    database = DBInterface(_database);\n  }\n\n  function message(string _message)\n  external\n  onlyApprovedContract {\n      emit LogEvent(_message, keccak256(abi.encodePacked(_message)), tx.origin);\n  }\n\n  function transaction(string _message, address _from, address _to, uint _amount, bytes32 _id)\n  external\n  onlyApprovedContract {\n      emit LogTransaction(_message, keccak256(abi.encodePacked(_message)), _from, _to, _amount, _id, tx.origin);\n  }\n\n  function registration(string _message, address _account)\n  external\n  onlyApprovedContract {\n      emit LogAddress(_message, keccak256(abi.encodePacked(_message)), _account, tx.origin);\n  }\n\n  function contractChange(string _message, address _account, string _name)\n  external\n  onlyApprovedContract {\n      emit LogContractChange(_message, keccak256(abi.encodePacked(_message)), _account, _name, tx.origin);\n  }\n\n  function asset(string _message, string _uri, bytes32 _assetID, address _token, address _manager)\n  external\n  onlyApprovedContract {\n      emit LogAsset(_message, keccak256(abi.encodePacked(_message)), _uri, _assetID, _token, _manager, tx.origin);\n  }\n\n  function escrow(string _message, bytes32 _assetID, bytes32 _escrowID, address _manager, uint _amount)\n  external\n  onlyApprovedContract {\n      emit LogEscrow(_message, keccak256(abi.encodePacked(_message)), _assetID, _escrowID, _manager, _amount, tx.origin);\n  }\n\n  function order(string _message, bytes32 _orderID, uint _amount, uint _price)\n  external\n  onlyApprovedContract {\n      emit LogOrder(_message, keccak256(abi.encodePacked(_message)), _orderID, _amount, _price, tx.origin);\n  }\n\n  function exchange(string _message, bytes32 _orderID, bytes32 _assetID, address _account)\n  external\n  onlyApprovedContract {\n      emit LogExchange(_message, keccak256(abi.encodePacked(_message)), _orderID, _assetID, _account, tx.origin);\n  }\n\n  function operator(string _message, bytes32 _operatorID, string _operatorURI, address _account)\n  external\n  onlyApprovedContract {\n      emit LogOperator(_message, keccak256(abi.encodePacked(_message)), _operatorID, _operatorURI, _account, tx.origin);\n  }\n\n  function consensus(string _message, bytes32 _executionID, bytes32 _votesID, uint _votes, uint _tokens, uint _quorum)\n  external\n  onlyApprovedContract {\n    emit LogConsensus(_message, keccak256(abi.encodePacked(_message)), _executionID, _votesID, _votes, _tokens, _quorum, tx.origin);\n  }\n\n  //Generalized events\n  event LogEvent(string message, bytes32 indexed messageID, address indexed origin);\n  event LogTransaction(string message, bytes32 indexed messageID, address indexed from, address indexed to, uint amount, bytes32 id, address origin); //amount and id will be empty on some events\n  event LogAddress(string message, bytes32 indexed messageID, address indexed account, address indexed origin);\n  event LogContractChange(string message, bytes32 indexed messageID, address indexed account, string name, address indexed origin);\n  event LogAsset(string message, bytes32 indexed messageID, string uri, bytes32 assetID, address token, address indexed manager, address indexed origin);\n  event LogEscrow(string message, bytes32 indexed messageID, bytes32 assetID, bytes32  escrowID, address indexed manager, uint amount, address indexed origin);\n  event LogOrder(string message, bytes32 indexed messageID, bytes32 indexed orderID, uint amount, uint price, address indexed origin);\n  event LogExchange(string message, bytes32 indexed messageID, bytes32 orderID, bytes32 indexed assetID, address account, address indexed origin);\n  event LogOperator(string message, bytes32 indexed messageID, bytes32 operatorID, string operatorURI, address indexed account, address indexed origin);\n  event LogConsensus(string message, bytes32 indexed messageID, bytes32 executionID, bytes32 votesID, uint votes, uint tokens, uint quorum, address indexed origin);\n\n\n/*\n  //AccessHierarchy\n  event LogUserApproved(address _user, uint _approvalLevel);\n  event LogUserRemoved(address indexed _user, uint indexed _accessLevel);\n\n  //ERC20Burner\n  //LogTransaction event LogMYBBurned(address _tokenHolder, address _burningContract, uint _amount);\n  event LogFeeAdded(address indexed _contractAddress, bytes4 _methodID, uint _amount);\n\n  //Expirable\n  event LogExpirationLengthChanged(uint _oldExpirationLength, uint _newExpirationLength);\n\n  //KYC\n  //LogTransaction event LogKYCApproved(address _owner, address _user);\n\n  //CrowdsaleERC20 + CrowdsaleETH\n  //LogTransaction event LogAssetPurchased(bytes32 indexed _assetID, address indexed _sender, uint _amount);\n  //LogTransaction event LogAssetPayout(bytes32 indexed _assetID, address indexed _operator, uint _amount);\n  //LogTransaction event LogDestruction(uint _amountSent, address indexed _caller);\n  //LogTransaction event LogRefund(bytes32 indexed _assetID, address indexed _funder, uint _amount);\n\n  //CrowdsaleGeneratorERC20 + CrowdsaleGeneratorETH\n  //LogAsset event LogAssetFundingStarted(bytes32 indexed _assetID, address indexed _assetManager, string _assetURI, address indexed _tokenAddress);\n\n  //ContractManager\n  //LogContractChange event LogContractAdded(address _contractAddress, string _name, uint _blockNumber);\n  //LogContractChange event LogContractRemoved(address contractToDelete, string _name, uint _blockNumber);\n  //LogContractChange event LogContractUpdated(address oldAddress, string _name, uint _blockNumber);\n  //LogContractChange event LogNewContractLocation(address _contractAddress, string _name, uint _blockNumber);\n  event LogContractStatePreferenceChanged(address indexed _user, bool _currentStateAcceptance, bool _ignoreStateChanges);\n\n  //Database\n  //Is this needed? event LogInitialized(address _owner, bool _upgradeable);\n\n  //AssetExchange\n  //LogTransaction event LogDestruction(address indexed _locationSent, uint indexed _amountSent, address indexed _caller);\n  //LogExchange event LogBuyOrderCreated(bytes32 _orderID, bytes32 indexed _assetID, address indexed _creator);\n  //LogExchange event LogBuyOrderCompleted(bytes32 _orderID, bytes32 indexed _assetAddress, address indexed _purchaser);\n  //LogExchange event LogSellOrderCreated(bytes32 _orderID, bytes32 indexed _assetAddress, address indexed _creator);\n  //LogExchange event LogSellOrderCompleted(bytes32 _orderID, bytes32 indexed _assetAddress, address indexed _purchaser);\n  //LogOrder event LogBuyOrderDetails(bytes32 _orderID, uint indexed _amount, uint indexed _price);\n  //LogOrder event LogSellOrderDetails(bytes32 orderID, uint indexed _amount, uint indexed _price);\n\n  //AssetGenerator\n  //LogAsset event LogAssetCreated(bytes32 indexed _assetID, address indexed _tokenAddress, address indexed _assetManager, string _tokenURI);\n  //LogAsset event LogTradeableAssetCreated(bytes32 indexed _assetID, address indexed _tokenAddress, address indexed _assetManager, string _tokenURI);\n\n  //PlatformFunds\n  //LogAddress event LogPlatformWallet(address _platformWallet);\n  //LogAddress event LogPlatformToken(address _platformToken);\n\n  //AssetGovernance\n  event LogConsensus(bytes32 votesID, uint votes, uint tokens, bytes32 executionID, uint quorum);\n\n  //CollectiveOwned\n  //LogTransaction event LogOwnerChanged(address indexed _previousOwner, address indexed _newOwner);\n  event LogFunctionAuthorized(address indexed _owner, string indexed _functionName, bytes32 indexed _beneficiary, bytes32 _authHash);\n\n  //Pausible\n  //LogTransaction event LogPaused(address indexed _contract, address _owner);\n  //LogTransaction event LogUnpaused(address indexed _contract, address _owner);\n\n  //SingleOwned\n  //LogTransaction event OwnershipTransferred(address indexed owner, address indexed pendingOwner);\n\n  //AssetManagerEscrow\n  //LogEscrow event LogEscrowBurned(bytes32 indexed _assetID, address indexed _assetManager, uint _amountBurnt);\n  //LogEscrow event LogEscrowLocked(bytes32 indexed _assetID, bytes32 indexed _assetManagerEscrowID, address indexed _assetManager, uint _amount);\n\n  //Operators\n  //LogOperator event LogOperatorRegistered(bytes32 indexed _operatorID, string _operatorURI);\n  //LogOperator event LogOperatorRemoved(bytes32 indexed _operatorID, address _owner);\n  //LogTransaction event LogOperatorAddressChanged(bytes32 indexed _operatorID, address _oldAddress, address _newAddress);\n  //LogOperator event LogOperatorAcceptsToken(bytes32 indexed _operatorID, address _tokenAddress);\n\n  //EqualDistribution\n  //LogTransaction event LogPayment(address _sender, uint _amount);\n  //LogTransaction event LogWithdraw(address _beneficiary, uint _amount);\n\n  //MintableDistribution\n  //LogTransaction event Mint(address indexed to, uint256 amount);\n  //(LogEvent) event MintFinished();\n\n  //StandardDistribution\n  //LogTransaction event LogIncomeReceived(address indexed _sender, uint _paymentAmount);\n  //LogTransaction event LogIncomeCollected(uint _block, address _address, uint _amount);\n\n  //DividendToken\n  //LogTransaction event LogIncomeReceived(address indexed _sender, uint _paymentAmount);\n  //LogTransaction event LogIncomeCollected(address _address, uint _amount);\n\n  //DividendTokenERC20\n  //LogTransaction event LogIncomeReceived(address indexed _sender, uint _paymentAmount);\n  event LogCheckBalance(uint _difference);\n  //LogTransaction event LogIncomeCollected(address _address, uint _amount);\n\n  //MintableToken\n  //LogTransaction event Mint(address indexed to, uint256 amount);\n  //(LogEvent) event MintFinished();\n\n*/\n\n  // --------------------------------------------------------------------------------------\n  // Caller must be registered as a contract through ContractManager.sol\n  // --------------------------------------------------------------------------------------\n  modifier onlyApprovedContract() {\n      require(database.boolStorage(keccak256(abi.encodePacked(\"contract\", msg.sender))));\n      _;\n  }\n\n}\n",
  "sourcePath": "/home/peter/Documents/Work/MyBit/MyBit-Network.tech/contracts/database/Events.sol",
  "compiler": {
    "name": "solc",
    "version": "0.4.25+commit.59dbf8f1.Emscripten.clang"
  },
  "schemaVersion": "3.0.0-beta.0",
  "updatedAt": "2018-12-06T01:19:16.451Z"
}