{
  "contractName": "ExpectedRate",
  "abi": [
    {
      "constant": false,
      "inputs": [
        {
          "name": "alerter",
          "type": "address"
        }
      ],
      "name": "removeAlerter",
      "outputs": [],
      "payable": false,
      "stateMutability": "nonpayable",
      "type": "function"
    },
    {
      "constant": true,
      "inputs": [],
      "name": "pendingAdmin",
      "outputs": [
        {
          "name": "",
          "type": "address"
        }
      ],
      "payable": false,
      "stateMutability": "view",
      "type": "function"
    },
    {
      "constant": true,
      "inputs": [],
      "name": "getOperators",
      "outputs": [
        {
          "name": "",
          "type": "address[]"
        }
      ],
      "payable": false,
      "stateMutability": "view",
      "type": "function"
    },
    {
      "constant": false,
      "inputs": [
        {
          "name": "token",
          "type": "address"
        },
        {
          "name": "amount",
          "type": "uint256"
        },
        {
          "name": "sendTo",
          "type": "address"
        }
      ],
      "name": "withdrawToken",
      "outputs": [],
      "payable": false,
      "stateMutability": "nonpayable",
      "type": "function"
    },
    {
      "constant": false,
      "inputs": [
        {
          "name": "newAlerter",
          "type": "address"
        }
      ],
      "name": "addAlerter",
      "outputs": [],
      "payable": false,
      "stateMutability": "nonpayable",
      "type": "function"
    },
    {
      "constant": false,
      "inputs": [
        {
          "name": "newAdmin",
          "type": "address"
        }
      ],
      "name": "transferAdmin",
      "outputs": [],
      "payable": false,
      "stateMutability": "nonpayable",
      "type": "function"
    },
    {
      "constant": false,
      "inputs": [],
      "name": "claimAdmin",
      "outputs": [],
      "payable": false,
      "stateMutability": "nonpayable",
      "type": "function"
    },
    {
      "constant": false,
      "inputs": [
        {
          "name": "newAdmin",
          "type": "address"
        }
      ],
      "name": "transferAdminQuickly",
      "outputs": [],
      "payable": false,
      "stateMutability": "nonpayable",
      "type": "function"
    },
    {
      "constant": true,
      "inputs": [],
      "name": "getAlerters",
      "outputs": [
        {
          "name": "",
          "type": "address[]"
        }
      ],
      "payable": false,
      "stateMutability": "view",
      "type": "function"
    },
    {
      "constant": false,
      "inputs": [
        {
          "name": "newOperator",
          "type": "address"
        }
      ],
      "name": "addOperator",
      "outputs": [],
      "payable": false,
      "stateMutability": "nonpayable",
      "type": "function"
    },
    {
      "constant": true,
      "inputs": [],
      "name": "worstCaseRateFactorInBps",
      "outputs": [
        {
          "name": "",
          "type": "uint256"
        }
      ],
      "payable": false,
      "stateMutability": "view",
      "type": "function"
    },
    {
      "constant": true,
      "inputs": [],
      "name": "quantityFactor",
      "outputs": [
        {
          "name": "",
          "type": "uint256"
        }
      ],
      "payable": false,
      "stateMutability": "view",
      "type": "function"
    },
    {
      "constant": false,
      "inputs": [
        {
          "name": "operator",
          "type": "address"
        }
      ],
      "name": "removeOperator",
      "outputs": [],
      "payable": false,
      "stateMutability": "nonpayable",
      "type": "function"
    },
    {
      "constant": true,
      "inputs": [],
      "name": "kyberNetwork",
      "outputs": [
        {
          "name": "",
          "type": "address"
        }
      ],
      "payable": false,
      "stateMutability": "view",
      "type": "function"
    },
    {
      "constant": false,
      "inputs": [
        {
          "name": "amount",
          "type": "uint256"
        },
        {
          "name": "sendTo",
          "type": "address"
        }
      ],
      "name": "withdrawEther",
      "outputs": [],
      "payable": false,
      "stateMutability": "nonpayable",
      "type": "function"
    },
    {
      "constant": true,
      "inputs": [
        {
          "name": "token",
          "type": "address"
        },
        {
          "name": "user",
          "type": "address"
        }
      ],
      "name": "getBalance",
      "outputs": [
        {
          "name": "",
          "type": "uint256"
        }
      ],
      "payable": false,
      "stateMutability": "view",
      "type": "function"
    },
    {
      "constant": true,
      "inputs": [],
      "name": "knc",
      "outputs": [
        {
          "name": "",
          "type": "address"
        }
      ],
      "payable": false,
      "stateMutability": "view",
      "type": "function"
    },
    {
      "constant": true,
      "inputs": [],
      "name": "admin",
      "outputs": [
        {
          "name": "",
          "type": "address"
        }
      ],
      "payable": false,
      "stateMutability": "view",
      "type": "function"
    },
    {
      "inputs": [
        {
          "name": "_kyberNetwork",
          "type": "address"
        },
        {
          "name": "_knc",
          "type": "address"
        },
        {
          "name": "_admin",
          "type": "address"
        }
      ],
      "payable": false,
      "stateMutability": "nonpayable",
      "type": "constructor"
    },
    {
      "anonymous": false,
      "inputs": [
        {
          "indexed": false,
          "name": "newFactor",
          "type": "uint256"
        },
        {
          "indexed": false,
          "name": "oldFactor",
          "type": "uint256"
        },
        {
          "indexed": false,
          "name": "sender",
          "type": "address"
        }
      ],
      "name": "QuantityFactorSet",
      "type": "event"
    },
    {
      "anonymous": false,
      "inputs": [
        {
          "indexed": false,
          "name": "newMin",
          "type": "uint256"
        },
        {
          "indexed": false,
          "name": "oldMin",
          "type": "uint256"
        },
        {
          "indexed": false,
          "name": "sender",
          "type": "address"
        }
      ],
      "name": "MinSlippageFactorSet",
      "type": "event"
    },
    {
      "anonymous": false,
      "inputs": [
        {
          "indexed": false,
          "name": "token",
          "type": "address"
        },
        {
          "indexed": false,
          "name": "amount",
          "type": "uint256"
        },
        {
          "indexed": false,
          "name": "sendTo",
          "type": "address"
        }
      ],
      "name": "TokenWithdraw",
      "type": "event"
    },
    {
      "anonymous": false,
      "inputs": [
        {
          "indexed": false,
          "name": "amount",
          "type": "uint256"
        },
        {
          "indexed": false,
          "name": "sendTo",
          "type": "address"
        }
      ],
      "name": "EtherWithdraw",
      "type": "event"
    },
    {
      "anonymous": false,
      "inputs": [
        {
          "indexed": false,
          "name": "pendingAdmin",
          "type": "address"
        }
      ],
      "name": "TransferAdminPending",
      "type": "event"
    },
    {
      "anonymous": false,
      "inputs": [
        {
          "indexed": false,
          "name": "newAdmin",
          "type": "address"
        },
        {
          "indexed": false,
          "name": "previousAdmin",
          "type": "address"
        }
      ],
      "name": "AdminClaimed",
      "type": "event"
    },
    {
      "anonymous": false,
      "inputs": [
        {
          "indexed": false,
          "name": "newAlerter",
          "type": "address"
        },
        {
          "indexed": false,
          "name": "isAdd",
          "type": "bool"
        }
      ],
      "name": "AlerterAdded",
      "type": "event"
    },
    {
      "anonymous": false,
      "inputs": [
        {
          "indexed": false,
          "name": "newOperator",
          "type": "address"
        },
        {
          "indexed": false,
          "name": "isAdd",
          "type": "bool"
        }
      ],
      "name": "OperatorAdded",
      "type": "event"
    },
    {
      "constant": false,
      "inputs": [
        {
          "name": "newFactor",
          "type": "uint256"
        }
      ],
      "name": "setQuantityFactor",
      "outputs": [],
      "payable": false,
      "stateMutability": "nonpayable",
      "type": "function"
    },
    {
      "constant": false,
      "inputs": [
        {
          "name": "bps",
          "type": "uint256"
        }
      ],
      "name": "setWorstCaseRateFactor",
      "outputs": [],
      "payable": false,
      "stateMutability": "nonpayable",
      "type": "function"
    },
    {
      "constant": true,
      "inputs": [
        {
          "name": "src",
          "type": "address"
        },
        {
          "name": "dest",
          "type": "address"
        },
        {
          "name": "srcQty",
          "type": "uint256"
        },
        {
          "name": "usePermissionless",
          "type": "bool"
        }
      ],
      "name": "getExpectedRate",
      "outputs": [
        {
          "name": "expectedRate",
          "type": "uint256"
        },
        {
          "name": "slippageRate",
          "type": "uint256"
        }
      ],
      "payable": false,
      "stateMutability": "view",
      "type": "function"
    },
    {
      "constant": true,
      "inputs": [
        {
          "name": "currentKncToEthRate",
          "type": "uint256"
        }
      ],
      "name": "checkKncArbitrageRate",
      "outputs": [
        {
          "name": "",
          "type": "bool"
        }
      ],
      "payable": false,
      "stateMutability": "view",
      "type": "function"
    }
  ],
  "bytecode": "0x60806040526002600855603260095534801561001a57600080fd5b5060405160608061183f83398101604090815281516020830151919092015160008054600160a060020a03191633179055600160a060020a038116151561006057600080fd5b600160a060020a038216151561007557600080fd5b600160a060020a038316151561008a57600080fd5b60078054600160a060020a03948516600160a060020a0319918216179091556000805492851692821692909217909155600a8054929093169116179055611769806100d66000396000f30060806040526004361061010e5763ffffffff60e060020a60003504166301a12fd38114610113578063267822471461013657806327a099d8146101675780633ccdbb28146101cc578063408ee7fe146101f757806375829def146102185780637658c5741461023957806377f50f97146102515780637acc8678146102665780637c423f54146102875780639870d7fe1461029c5780639bc72d5f146102bd578063a7de9c63146102e4578063ac8a584a146102f9578063b78b842d1461031a578063ce56c4541461032f578063d38d2bea14610353578063d4fac45d1461039b578063dcb46e38146103c2578063e61387e0146103da578063e853cda3146103ef578063f851a4401461041b575b600080fd5b34801561011f57600080fd5b50610134600160a060020a0360043516610430565b005b34801561014257600080fd5b5061014b610599565b60408051600160a060020a039092168252519081900360200190f35b34801561017357600080fd5b5061017c6105a8565b60408051602080825283518183015283519192839290830191858101910280838360005b838110156101b85781810151838201526020016101a0565b505050509050019250505060405180910390f35b3480156101d857600080fd5b50610134600160a060020a03600435811690602435906044351661060b565b34801561020357600080fd5b50610134600160a060020a036004351661070b565b34801561022457600080fd5b50610134600160a060020a0360043516610801565b34801561024557600080fd5b5061013460043561088e565b34801561025d57600080fd5b50610134610901565b34801561027257600080fd5b50610134600160a060020a036004351661098b565b34801561029357600080fd5b5061017c610a5d565b3480156102a857600080fd5b50610134600160a060020a0360043516610abd565b3480156102c957600080fd5b506102d2610bb3565b60408051918252519081900360200190f35b3480156102f057600080fd5b506102d2610bb9565b34801561030557600080fd5b50610134600160a060020a0360043516610bbf565b34801561032657600080fd5b5061014b610d24565b34801561033b57600080fd5b50610134600435600160a060020a0360243516610d33565b34801561035f57600080fd5b50610382600160a060020a03600435811690602435166044356064351515610dc8565b6040805192835260208301919091528051918290030190f35b3480156103a757600080fd5b506102d2600160a060020a03600435811690602435166111bc565b3480156103ce57600080fd5b50610134600435611284565b3480156103e657600080fd5b5061014b6112f8565b3480156103fb57600080fd5b50610407600435611307565b604080519115158252519081900360200190f35b34801561042757600080fd5b5061014b611394565b60008054600160a060020a0316331461044857600080fd5b600160a060020a03821660009081526003602052604090205460ff16151561046f57600080fd5b50600160a060020a0381166000908152600360205260408120805460ff191690555b6005548110156105955781600160a060020a03166005828154811015156104b457fe5b600091825260209091200154600160a060020a0316141561058d576005805460001981019081106104e157fe5b60009182526020909120015460058054600160a060020a03909216918390811061050757fe5b60009182526020909120018054600160a060020a031916600160a060020a039290921691909117905560058054906105439060001983016116f6565b5060408051600160a060020a03841681526000602082015281517f5611bf3e417d124f97bf2c788843ea8bb502b66079fbee02158ef30b172cb762929181900390910190a1610595565b600101610491565b5050565b600154600160a060020a031681565b6060600480548060200260200160405190810160405280929190818152602001828054801561060057602002820191906000526020600020905b8154600160a060020a031681526001909101906020018083116105e2575b505050505090505b90565b600054600160a060020a0316331461062257600080fd5b82600160a060020a031663a9059cbb82846040518363ffffffff1660e060020a0281526004018083600160a060020a0316600160a060020a0316815260200182815260200192505050602060405180830381600087803b15801561068557600080fd5b505af1158015610699573d6000803e3d6000fd5b505050506040513d60208110156106af57600080fd5b505115156106bc57600080fd5b60408051600160a060020a0380861682526020820185905283168183015290517f72cb8a894ddb372ceec3d2a7648d86f17d5a15caae0e986c53109b8a9a9385e69181900360600190a1505050565b600054600160a060020a0316331461072257600080fd5b600160a060020a03811660009081526003602052604090205460ff161561074857600080fd5b60055460321161075757600080fd5b60408051600160a060020a03831681526001602082015281517f5611bf3e417d124f97bf2c788843ea8bb502b66079fbee02158ef30b172cb762929181900390910190a1600160a060020a03166000818152600360205260408120805460ff191660019081179091556005805491820181559091527f036b6384b5eca791c62761152d0c79bb0604c104a5fb6f4eb0703f3154bb3db0018054600160a060020a0319169091179055565b600054600160a060020a0316331461081857600080fd5b600160a060020a038116151561082d57600080fd5b60015460408051600160a060020a039092168252517f3b81caf78fa51ecbc8acb482fd7012a277b428d9b80f9d156e8a54107496cc409181900360200190a160018054600160a060020a031916600160a060020a0392909216919091179055565b3360009081526002602052604090205460ff1615156108ac57600080fd5b60648111156108ba57600080fd5b6008546040805183815260208101929092523382820152517fd0f6fc40d497232b5aab1b7a34ea00ea45886e52d2fed39ad62af798a870fae39181900360600190a1600855565b600154600160a060020a0316331461091857600080fd5b60015460005460408051600160a060020a03938416815292909116602083015280517f65da1cfc2c2e81576ad96afb24a581f8e109b7a403b35cbd3243a1c99efdb9ed9281900390910190a16001805460008054600160a060020a0319908116600160a060020a03841617909155169055565b600054600160a060020a031633146109a257600080fd5b600160a060020a03811615156109b757600080fd5b60408051600160a060020a038316815290517f3b81caf78fa51ecbc8acb482fd7012a277b428d9b80f9d156e8a54107496cc409181900360200190a160005460408051600160a060020a038085168252909216602083015280517f65da1cfc2c2e81576ad96afb24a581f8e109b7a403b35cbd3243a1c99efdb9ed9281900390910190a160008054600160a060020a031916600160a060020a0392909216919091179055565b6060600580548060200260200160405190810160405280929190818152602001828054801561060057602002820191906000526020600020908154600160a060020a031681526001909101906020018083116105e2575050505050905090565b600054600160a060020a03163314610ad457600080fd5b600160a060020a03811660009081526002602052604090205460ff1615610afa57600080fd5b600454603211610b0957600080fd5b60408051600160a060020a03831681526001602082015281517f091a7a4b85135fdd7e8dbc18b12fabe5cc191ea867aa3c2e1a24a102af61d58b929181900390910190a1600160a060020a03166000818152600260205260408120805460ff191660019081179091556004805491820181559091527f8a35acfbc15ff81a39ae7d344fd709f28e8600b4aa8c65c6b64bfe7fe36bd19b018054600160a060020a0319169091179055565b60095481565b60085481565b60008054600160a060020a03163314610bd757600080fd5b600160a060020a03821660009081526002602052604090205460ff161515610bfe57600080fd5b50600160a060020a0381166000908152600260205260408120805460ff191690555b6004548110156105955781600160a060020a0316600482815481101515610c4357fe5b600091825260209091200154600160a060020a03161415610d1c57600480546000198101908110610c7057fe5b60009182526020909120015460048054600160a060020a039092169183908110610c9657fe5b60009182526020909120018054600160a060020a031916600160a060020a0392909216919091179055600480546000190190610cd290826116f6565b5060408051600160a060020a03841681526000602082015281517f091a7a4b85135fdd7e8dbc18b12fabe5cc191ea867aa3c2e1a24a102af61d58b929181900390910190a1610595565b600101610c20565b600754600160a060020a031681565b600054600160a060020a03163314610d4a57600080fd5b604051600160a060020a0382169083156108fc029084906000818181858888f19350505050158015610d80573d6000803e3d6000fd5b5060408051838152600160a060020a038316602082015281517fec47e7ed86c86774d1a72c19f35c639911393fe7c1a34031fdbd260890da90de929181900390910190a15050565b600080600080600854600014151515610de057600080fd5b6b204fce5e3e25026110000000861115610df957600080fd5b6008546b204fce5e3e250261100000009087021115610e1757600080fd5b851515610e2357600195505b8415610f9b57600754604080517fb8388aca000000000000000000000000000000000000000000000000000000008152600160a060020a038b811660048301528a81166024830152604482018a9052825193169263b8388aca926064808401939192918290030181600087803b158015610e9c57600080fd5b505af1158015610eb0573d6000803e3d6000fd5b505050506040513d6040811015610ec657600080fd5b508051602090910151600854909550909250600114610f9257600754600854604080517fb8388aca000000000000000000000000000000000000000000000000000000008152600160a060020a038c811660048301528b81166024830152928a0260448201528151929093169263b8388aca92606480830193928290030181600087803b158015610f5657600080fd5b505af1158015610f6a573d6000803e3d6000fd5b505050506040513d6040811015610f8057600080fd5b50805160209091015193509150610f96565b8392505b611108565b600754604080517f1dc1f78d000000000000000000000000000000000000000000000000000000008152600160a060020a038b811660048301528a81166024830152604482018a90528251931692631dc1f78d926064808401939192918290030181600087803b15801561100e57600080fd5b505af1158015611022573d6000803e3d6000fd5b505050506040513d604081101561103857600080fd5b50805160209091015160085490955090925060011461110457600754600854604080517f1dc1f78d000000000000000000000000000000000000000000000000000000008152600160a060020a038c811660048301528b81166024830152928a02604482015281519290931692631dc1f78d92606480830193928290030181600087803b1580156110c857600080fd5b505af11580156110dc573d6000803e3d6000fd5b505050506040513d60408110156110f257600080fd5b50805160209091015193509150611108565b8392505b83151561111e5761111b888888886113a3565b93505b600a54600160a060020a0389811691161480156111575750600160a060020a03871673eeeeeeeeeeeeeeeeeeeeeeeeeeeeeeeeeeeeeeee145b801561116a5750670de0b6b3a764000086145b156111825761117884611307565b1561118257600093505b69d3c21bcecceda100000084111561119957600080fd5b506009546127109081038402048083106111b1578092505b505094509492505050565b6000600160a060020a03831673eeeeeeeeeeeeeeeeeeeeeeeeeeeeeeeeeeeeeeee14156111f45750600160a060020a0381163161127e565b82600160a060020a03166370a08231836040518263ffffffff1660e060020a0281526004018082600160a060020a0316600160a060020a03168152602001915050602060405180830381600087803b15801561124f57600080fd5b505af1158015611263573d6000803e3d6000fd5b505050506040513d602081101561127957600080fd5b505190505b92915050565b3360009081526002602052604090205460ff1615156112a257600080fd5b6127108111156112b157600080fd5b6009546040805183815260208101929092523382820152517f4357e20f1241d972328c5b3239d9ef4ac96f0f4fce8e10fd3bf9053690dad0ac9181900360600190a1600955565b600a54600160a060020a031681565b600a54600090819081906113449073eeeeeeeeeeeeeeeeeeeeeeeeeeeeeeeeeeeeeeee90600160a060020a0316670de0b6b3a76400006001610dc8565b909250905069d3c21bcecceda1000000821180159061136d575069d3c21bcecceda10000008411155b151561137857600080fd5b506ec097ce7bc90715b34b9f1000000000920291909111919050565b600054600160a060020a031681565b600754604080517f0c235d96000000000000000000000000000000000000000000000000000000008152600160a060020a03878116600483015273eeeeeeeeeeeeeeeeeeeeeeeeeeeeeeeeeeeeeeee602483015260448201869052841515606483015282516000948594859485948594931692630c235d969260848084019391929182900301818787803b15801561143a57600080fd5b505af115801561144e573d6000803e3d6000fd5b505050506040513d604081101561146457600080fd5b50805160209091015190945092506114928973eeeeeeeeeeeeeeeeeeeeeeeeeeeeeeeeeeeeeeee898661156c565b600754604080517f0c235d9600000000000000000000000000000000000000000000000000000000815273eeeeeeeeeeeeeeeeeeeeeeeeeeeeeeeeeeeeeeee6004820152600160a060020a038c81166024830152604482018590528a15156064830152825194955090921692630c235d969260848082019392918290030181600087803b15801561152257600080fd5b505af1158015611536573d6000803e3d6000fd5b505050506040513d604081101561154c57600080fd5b5060200151670de0b6b3a764000093029290920498975050505050505050565b600061158a8361157b87611595565b61158487611595565b85611665565b90505b949350505050565b600080600160a060020a03831673eeeeeeeeeeeeeeeeeeeeeeeeeeeeeeeeeeeeeeee14156115c6576012915061165f565b50600160a060020a03821660009081526006602052604090205480151561165b5782600160a060020a031663313ce5676040518163ffffffff1660e060020a028152600401602060405180830381600087803b15801561162557600080fd5b505af1158015611639573d6000803e3d6000fd5b505050506040513d602081101561164f57600080fd5b505160ff16915061165f565b8091505b50919050565b60006b204fce5e3e2502611000000085111561168057600080fd5b69d3c21bcecceda100000082111561169757600080fd5b8383106116ca57601284840311156116ae57600080fd5b670de0b6b3a7640000858302858503600a0a025b04905061158d565b601283850311156116da57600080fd5b828403600a0a670de0b6b3a7640000028286028115156116c257fe5b81548183558181111561171a5760008381526020902061171a91810190830161171f565b505050565b61060891905b808211156117395760008155600101611725565b50905600a165627a7a72305820d4dacef92c99c2dee71efc711e7f903a3589dfcd6a0ea83ca47e4eea1766e8920029",
  "source": "pragma solidity ^0.4.24;\n\nimport \"../interfaces/ERC20.sol\";\nimport \"./KyberNetwork.sol\";\nimport \"./Withdrawable.sol\";\nimport \"./ExpectedRateInterface.sol\";\n\n\ncontract ExpectedRate is Withdrawable, ExpectedRateInterface, Utils2 {\n\n    KyberNetwork public kyberNetwork;\n    uint public quantityFactor = 2;\n    uint public worstCaseRateFactorInBps = 50;\n    uint constant UNIT_QTY_FOR_FEE_BURNER = 10 ** 18;\n    ERC20 public knc;\n\n    constructor(KyberNetwork _kyberNetwork, ERC20 _knc, address _admin) public {\n        require(_admin != address(0));\n        require(_knc != address(0));\n        require(_kyberNetwork != address(0));\n        kyberNetwork = _kyberNetwork;\n        admin = _admin;\n        knc = _knc;\n    }\n\n    event QuantityFactorSet (uint newFactor, uint oldFactor, address sender);\n\n    function setQuantityFactor(uint newFactor) public onlyOperator {\n        require(newFactor <= 100);\n\n        emit QuantityFactorSet(newFactor, quantityFactor, msg.sender);\n        quantityFactor = newFactor;\n    }\n\n    event MinSlippageFactorSet (uint newMin, uint oldMin, address sender);\n\n    function setWorstCaseRateFactor(uint bps) public onlyOperator {\n        require(bps <= 100 * 100);\n\n        emit MinSlippageFactorSet(bps, worstCaseRateFactorInBps, msg.sender);\n        worstCaseRateFactorInBps = bps;\n    }\n\n    //@dev when srcQty too small or 0 the expected rate will be calculated without quantity,\n    // will enable rate reference before committing to any quantity\n    //@dev when srcQty too small (no actual dest qty) slippage rate will be 0.\n    function getExpectedRate(ERC20 src, ERC20 dest, uint srcQty, bool usePermissionless)\n        public view\n        returns (uint expectedRate, uint slippageRate)\n    {\n        require(quantityFactor != 0);\n        require(srcQty <= MAX_QTY);\n        require(srcQty * quantityFactor <= MAX_QTY);\n\n        if (srcQty == 0) srcQty = 1;\n\n        uint bestReserve;\n        uint worstCaseSlippageRate;\n\n        if (usePermissionless) {\n            (bestReserve, expectedRate) = kyberNetwork.findBestRate(src, dest, srcQty);\n\n            if (quantityFactor != 1) {\n                (bestReserve, slippageRate) = kyberNetwork.findBestRate(src, dest, (srcQty * quantityFactor));\n            } else {\n                slippageRate = expectedRate;\n            }\n        } else {\n            (bestReserve, expectedRate) = kyberNetwork.findBestRateOnlyPermission(src, dest, srcQty);\n\n            if (quantityFactor != 1) {\n                (bestReserve, slippageRate) = kyberNetwork.findBestRateOnlyPermission(src, dest,\n                    (srcQty * quantityFactor));\n            } else {\n                slippageRate = expectedRate;\n            }\n        }\n\n        if (expectedRate == 0) {\n            expectedRate = expectedRateSmallQty(src, dest, srcQty, usePermissionless);\n        }\n\n        if (src == knc &&\n            dest == ETH_TOKEN_ADDRESS &&\n            srcQty == UNIT_QTY_FOR_FEE_BURNER )\n        {\n            if (checkKncArbitrageRate(expectedRate)) expectedRate = 0;\n        }\n\n        require(expectedRate <= MAX_RATE);\n\n        worstCaseSlippageRate = ((10000 - worstCaseRateFactorInBps) * expectedRate) / 10000;\n        if (slippageRate >= worstCaseSlippageRate) {\n            slippageRate = worstCaseSlippageRate;\n        }\n\n        return (expectedRate, slippageRate);\n    }\n\n    function checkKncArbitrageRate(uint currentKncToEthRate) public view returns(bool) {\n        uint converseRate;\n        uint slippage;\n\t(converseRate, slippage) = getExpectedRate(ETH_TOKEN_ADDRESS, knc, UNIT_QTY_FOR_FEE_BURNER, true);\n        require(converseRate <= MAX_RATE && currentKncToEthRate <= MAX_RATE);\n        return ((converseRate * currentKncToEthRate) > (PRECISION ** 2));\n    }\n\n    //@dev for small src quantities dest qty might be 0, then returned rate is zero.\n    //@dev for backward compatibility we would like to return non zero rate (correct one) for small src qty\n    function expectedRateSmallQty(ERC20 src, ERC20 dest, uint srcQty, bool usePermissionless)\n        internal view returns(uint)\n    {\n        address reserve;\n        uint rateSrcToEth;\n        uint rateEthToDest;\n        (reserve, rateSrcToEth) = kyberNetwork.searchBestRate(src, ETH_TOKEN_ADDRESS, srcQty, usePermissionless);\n\n        uint ethQty = calcDestAmount(src, ETH_TOKEN_ADDRESS, srcQty, rateSrcToEth);\n\n        (reserve, rateEthToDest) = kyberNetwork.searchBestRate(ETH_TOKEN_ADDRESS, dest, ethQty, usePermissionless);\n        return rateSrcToEth * rateEthToDest / PRECISION;\n    }\n}\n",
  "sourcePath": "/home/peter/Documents/Work/MyBit/MyBit-Network.tech/contracts/kyber/ExpectedRate.sol",
  "compiler": {
    "name": "solc",
    "version": "0.4.24+commit.e67f0147.Emscripten.clang"
  },
  "schemaVersion": "3.0.2",
  "updatedAt": "2019-03-21T21:34:45.068Z",
  "devdoc": {
    "methods": {
      "claimAdmin()": {
        "details": "Allows the pendingAdmin address to finalize the change admin process."
      },
      "getBalance(address,address)": {
        "details": "get the balance of a user.",
        "params": {
          "token": "The token type"
        },
        "return": "The balance"
      },
      "transferAdmin(address)": {
        "details": "Allows the current admin to set the pendingAdmin address.",
        "params": {
          "newAdmin": "The address to transfer ownership to."
        }
      },
      "transferAdminQuickly(address)": {
        "details": "Allows the current admin to set the admin in one tx. Useful initial deployment.",
        "params": {
          "newAdmin": "The address to transfer ownership to."
        }
      },
      "withdrawEther(uint256,address)": {
        "details": "Withdraw Ethers"
      },
      "withdrawToken(address,uint256,address)": {
        "details": "Withdraw all ERC20 compatible tokens",
        "params": {
          "token": "ERC20 The address of the token contract"
        }
      }
    }
  },
  "userdoc": {
    "methods": {}
  }
}