{
  "contractName": "Expirable",
  "abi": [
    {
      "constant": true,
      "inputs": [],
      "name": "expirationLength",
      "outputs": [
        {
          "name": "",
          "type": "uint256"
        }
      ],
      "payable": false,
      "stateMutability": "view",
      "type": "function"
    },
    {
      "constant": false,
      "inputs": [
        {
          "name": "_newUser",
          "type": "address"
        },
        {
          "name": "_accessLevel",
          "type": "uint256"
        }
      ],
      "name": "approveUser",
      "outputs": [
        {
          "name": "",
          "type": "bool"
        }
      ],
      "payable": false,
      "stateMutability": "nonpayable",
      "type": "function"
    },
    {
      "constant": false,
      "inputs": [
        {
          "name": "_newUpperLimit",
          "type": "uint8"
        }
      ],
      "name": "setUpperAccessLevel",
      "outputs": [],
      "payable": false,
      "stateMutability": "nonpayable",
      "type": "function"
    },
    {
      "constant": true,
      "inputs": [],
      "name": "database",
      "outputs": [
        {
          "name": "",
          "type": "address"
        }
      ],
      "payable": false,
      "stateMutability": "view",
      "type": "function"
    },
    {
      "constant": false,
      "inputs": [],
      "name": "destroy",
      "outputs": [],
      "payable": false,
      "stateMutability": "nonpayable",
      "type": "function"
    },
    {
      "constant": false,
      "inputs": [
        {
          "name": "_user",
          "type": "address"
        }
      ],
      "name": "removeUser",
      "outputs": [
        {
          "name": "",
          "type": "bool"
        }
      ],
      "payable": false,
      "stateMutability": "nonpayable",
      "type": "function"
    },
    {
      "constant": true,
      "inputs": [],
      "name": "events",
      "outputs": [
        {
          "name": "",
          "type": "address"
        }
      ],
      "payable": false,
      "stateMutability": "view",
      "type": "function"
    },
    {
      "constant": true,
      "inputs": [],
      "name": "upperAccessLevel",
      "outputs": [
        {
          "name": "",
          "type": "uint8"
        }
      ],
      "payable": false,
      "stateMutability": "view",
      "type": "function"
    },
    {
      "inputs": [
        {
          "name": "_database",
          "type": "address"
        },
        {
          "name": "_events",
          "type": "address"
        }
      ],
      "payable": false,
      "stateMutability": "nonpayable",
      "type": "constructor"
    },
    {
      "anonymous": false,
      "inputs": [
        {
          "indexed": false,
          "name": "_oldExpirationLength",
          "type": "uint256"
        },
        {
          "indexed": false,
          "name": "_newExpirationLength",
          "type": "uint256"
        }
      ],
      "name": "LogExpirationLengthChanged",
      "type": "event"
    },
    {
      "anonymous": false,
      "inputs": [
        {
          "indexed": false,
          "name": "_user",
          "type": "address"
        },
        {
          "indexed": false,
          "name": "_approvalLevel",
          "type": "uint256"
        }
      ],
      "name": "LogUserApproved",
      "type": "event"
    },
    {
      "anonymous": false,
      "inputs": [
        {
          "indexed": true,
          "name": "_user",
          "type": "address"
        },
        {
          "indexed": true,
          "name": "_accessLevel",
          "type": "uint256"
        }
      ],
      "name": "LogUserRemoved",
      "type": "event"
    },
    {
      "constant": false,
      "inputs": [
        {
          "name": "_newUser",
          "type": "address"
        },
        {
          "name": "_accessLevel",
          "type": "uint256"
        }
      ],
      "name": "approveTemporaryUser",
      "outputs": [
        {
          "name": "",
          "type": "bool"
        }
      ],
      "payable": false,
      "stateMutability": "nonpayable",
      "type": "function"
    },
    {
      "constant": false,
      "inputs": [
        {
          "name": "_user",
          "type": "address"
        }
      ],
      "name": "removeTemporaryUser",
      "outputs": [
        {
          "name": "",
          "type": "bool"
        }
      ],
      "payable": false,
      "stateMutability": "nonpayable",
      "type": "function"
    },
    {
      "constant": false,
      "inputs": [
        {
          "name": "_newExpirationLength",
          "type": "uint256"
        }
      ],
      "name": "changeExpirationLength",
      "outputs": [],
      "payable": false,
      "stateMutability": "nonpayable",
      "type": "function"
    }
  ],
  "bytecode": "0x60806040526301e187e060025534801561001857600080fd5b506040516040806112a183398101604052805160209091015160008054600160a060020a03938416600160a060020a031991821617909155600180549390921692169190911790556112328061006f6000396000f3006080604052600436106100955763ffffffff60e060020a6000350416632b877b13811461009a5780632d1d4297146100b45780634248083b146100db57806344190a8714610113578063713b563f1461012e57806383197ef01461015f5780639857518814610174578063b5f8558c14610195578063be8bac60146101aa578063dd497395146101ce578063df392874146101ef575b600080fd5b3480156100a657600080fd5b506100b260043561021a565b005b3480156100c057600080fd5b506100c9610374565b60408051918252519081900360200190f35b3480156100e757600080fd5b506100ff600160a060020a036004351660243561037a565b604080519115158252519081900360200190f35b34801561011f57600080fd5b506100b260ff6004351661064e565b34801561013a57600080fd5b506101436107b1565b60408051600160a060020a039092168252519081900360200190f35b34801561016b57600080fd5b506100b26107c0565b34801561018057600080fd5b506100ff600160a060020a0360043516610994565b3480156101a157600080fd5b50610143610d14565b3480156101b657600080fd5b506100ff600160a060020a0360043516602435610d23565b3480156101da57600080fd5b506100ff600160a060020a0360043516610f95565b3480156101fb57600080fd5b506102046111cf565b6040805160ff9092168252519081900360200190f35b600080546040805160d960020a6437bbb732b902602080830191909152606060020a33026025830152825160198184030181526039909201928390528151600160a060020a0390941693633b7bfda093918291908401908083835b602083106102945780518252601f199092019160209182019101610275565b51815160209384036101000a60001901801990921691161790526040805192909401829003822063ffffffff881660e060020a0283526004830152925160248083019650939450929083900301905081600087803b1580156102f557600080fd5b505af1158015610309573d6000803e3d6000fd5b505050506040513d602081101561031f57600080fd5b5051151561032c57600080fd5b506002805490829055604080518281526020810184905281517fe74e87db9ae5f3afa97955cb2a47eee2cdba7c61d1769c1a654de890e64e8c20929181900390910190a15050565b60025481565b60008054604080517f636f6e7472616374000000000000000000000000000000000000000000000000602080830191909152606060020a330260288301528251601c818403018152603c909201928390528151600160a060020a0390941693633b7bfda093918291908401908083835b602083106104095780518252601f1990920191602091820191016103ea565b51815160209384036101000a60001901801990921691161790526040805192909401829003822063ffffffff881660e060020a0283526004830152925160248083019650939450929083900301905081600087803b15801561046a57600080fd5b505af115801561047e573d6000803e3d6000fd5b505050506040513d602081101561049457600080fd5b505115156104a157600080fd5b82600160a060020a03811615156104b757600080fd5b60015474010000000000000000000000000000000000000000900460ff16831080156104e257508215155b15156104ed57600080fd5b600054604080517f7573657241636365737300000000000000000000000000000000000000000000602080830191909152600160a060020a03888116606060020a02602a8401528351808403601e018152603e90930193849052825194169363e2a4853a93918291908401908083835b6020831061057c5780518252601f19909201916020918201910161055d565b5181516020939093036101000a60001901801990911692169190911790526040805191909301819003812063ffffffff871660e060020a0282526004820152602481018a9052915160448084019550600094509092839003019050818387803b1580156105e857600080fd5b505af11580156105fc573d6000803e3d6000fd5b505060408051600160a060020a03881681526020810187905281517fe8b0d2948bfc19ce9cb6dd3be73adffa387a1c6f662adc9c5b8ebeede21deb689450908190039091019150a15060019392505050565b6000546040805160d960020a6437bbb732b902602080830191909152606060020a33026025830152825160198184030181526039909201928390528151600160a060020a0390941693633b7bfda093918291908401908083835b602083106106c75780518252601f1990920191602091820191016106a8565b51815160209384036101000a60001901801990921691161790526040805192909401829003822063ffffffff881660e060020a0283526004830152925160248083019650939450929083900301905081600087803b15801561072857600080fd5b505af115801561073c573d6000803e3d6000fd5b505050506040513d602081101561075257600080fd5b5051151561075f57600080fd5b600060ff82161161076f57600080fd5b6001805460ff909216740100000000000000000000000000000000000000000274ff000000000000000000000000000000000000000019909216919091179055565b600054600160a060020a031681565b6000546040805160d960020a6437bbb732b902602080830191909152606060020a33026025830152825160198184030181526039909201928390528151600160a060020a0390941693633b7bfda093918291908401908083835b602083106108395780518252601f19909201916020918201910161081a565b51815160209384036101000a60001901801990921691161790526040805192909401829003822063ffffffff881660e060020a0283526004830152925160248083019650939450929083900301905081600087803b15801561089a57600080fd5b505af11580156108ae573d6000803e3d6000fd5b505050506040513d60208110156108c457600080fd5b505115156108d157600080fd5b600154604080517f68b96270000000000000000000000000000000000000000000000000000000008152306024820181905233604483015231606482015260a06004820152601960a48201527f4163636573734869657261726368792064657374726f7965640000000000000060c48201529051600160a060020a03909216916368b962709160e48082019260009290919082900301818387803b15801561097857600080fd5b505af115801561098c573d6000803e3d6000fd5b503392505050ff5b600080546040805160d960020a6437bbb732b902602080830191909152606060020a330260258301528251601981840301815260399092019283905281518594600160a060020a031693633b7bfda09392909182918401908083835b60208310610a0f5780518252601f1990920191602091820191016109f0565b51815160209384036101000a60001901801990921691161790526040805192909401829003822063ffffffff881660e060020a0283526004830152925160248083019650939450929083900301905081600087803b158015610a7057600080fd5b505af1158015610a84573d6000803e3d6000fd5b505050506040513d6020811015610a9a57600080fd5b50511515610aa757600080fd5b600054604080517f7573657241636365737300000000000000000000000000000000000000000000602080830191909152600160a060020a03878116606060020a02602a8401528351808403601e018152603e90930193849052825194169363a855d4ce93918291908401908083835b60208310610b365780518252601f199092019160209182019101610b17565b51815160209384036101000a60001901801990921691161790526040805192909401829003822063ffffffff881660e060020a0283526004830152925160248083019650939450929083900301905081600087803b158015610b9757600080fd5b505af1158015610bab573d6000803e3d6000fd5b505050506040513d6020811015610bc157600080fd5b5051600054604080517f7573657241636365737300000000000000000000000000000000000000000000602080830191909152600160a060020a03888116606060020a02602a8401528351808403601e018152603e9093019384905282519596509093169363e2b202bf939192918291908401908083835b60208310610c585780518252601f199092019160209182019101610c39565b5181516020939093036101000a60001901801990911692169190911790526040805191909301819003812063ffffffff871660e060020a0282526004820152915160248084019550600094509092839003019050818387803b158015610cbd57600080fd5b505af1158015610cd1573d6000803e3d6000fd5b5050604051839250600160a060020a03861691507fe8bca18329debfd209083cfd37b3dbfaa9318ae7bf4dcb40f63ca7be92c26acc90600090a350600192915050565b600154600160a060020a031681565b600080546040805160d960020a6437bbb732b902602080830191909152606060020a330260258301528251601981840301815260399092019283905281518594600160a060020a031693633b7bfda09392909182918401908083835b60208310610d9e5780518252601f199092019160209182019101610d7f565b51815160209384036101000a60001901801990921691161790526040805192909401829003822063ffffffff881660e060020a0283526004830152925160248083019650939450929083900301905081600087803b158015610dff57600080fd5b505af1158015610e13573d6000803e3d6000fd5b505050506040513d6020811015610e2957600080fd5b50511515610e3657600080fd5b83600160a060020a0381161515610e4c57600080fd5b610e56858561037a565b1515610e6157600080fd5b610e71428363ffffffff6111f016565b600054604080517f7573657241636365737345787069726174696f6e000000000000000000000000602080830191909152600160a060020a038a8116606060020a0260348401528351808403602801815260489093019384905282519597509093169363e2a4853a939192918291908401908083835b60208310610f065780518252601f199092019160209182019101610ee7565b5181516020939093036101000a60001901801990911692169190911790526040805191909301819003812063ffffffff871660e060020a028252600482015260248101899052915160448084019550600094509092839003019050818387803b158015610f7257600080fd5b505af1158015610f86573d6000803e3d6000fd5b50600198975050505050505050565b600080546040805160d960020a6437bbb732b902602080830191909152606060020a33026025830152825160198184030181526039909201928390528151600160a060020a0390941693633b7bfda093918291908401908083835b6020831061100f5780518252601f199092019160209182019101610ff0565b51815160209384036101000a60001901801990921691161790526040805192909401829003822063ffffffff881660e060020a0283526004830152925160248083019650939450929083900301905081600087803b15801561107057600080fd5b505af1158015611084573d6000803e3d6000fd5b505050506040513d602081101561109a57600080fd5b505115156110a757600080fd5b6110b082610994565b15156110bb57600080fd5b600054604080517f7573657241636365737345787069726174696f6e000000000000000000000000602080830191909152600160a060020a03868116606060020a02603484015283518084036028018152604890930193849052825194169363e2b202bf93918291908401908083835b6020831061114a5780518252601f19909201916020918201910161112b565b5181516020939093036101000a60001901801990911692169190911790526040805191909301819003812063ffffffff871660e060020a0282526004820152915160248084019550600094509092839003019050818387803b1580156111af57600080fd5b505af11580156111c3573d6000803e3d6000fd5b50600195945050505050565b60015474010000000000000000000000000000000000000000900460ff1681565b6000828201838110156111ff57fe5b93925050505600a165627a7a72305820bbd4ab5560b76cf02c15236e6c12721fc44c24495bb992b9e866ee5e2b74e7e80029",
  "source": "pragma solidity ^0.4.24;\n\nimport '../math/SafeMath.sol';\nimport './AccessHierarchy.sol';\n\n// @title A contract extension that gives an expiration date to user access\n// @author Kyle Dewhurst, MyBit Foundation\ncontract Expirable is AccessHierarchy {\n  using SafeMath for uint;\n\n  uint public expirationLength = uint256(31557600);    // 365 days\n\n  constructor(address _database, address _events) public AccessHierarchy(_database, _events){}\n\n  //------------------------------------------------------------------------------------------------------------------\n  // @notice Owner can manually grant access to a user here. WIll be used for KYC approval\n  // @param Address of new user.\n  // @param The level of access granted by owner/burningcontract\n  // TODO: does the modifier in AccessHierarchy throw?\n  //------------------------------------------------------------------------------------------------------------------\n  function approveTemporaryUser(address _newUser, uint _accessLevel)\n  onlyOwner\n  noEmptyAddress(_newUser)\n  public\n  returns (bool) {\n    require(approveUser(_newUser, _accessLevel));\n    uint expiry = now.add(expiry);\n    database.setUint(keccak256(abi.encodePacked(\"userAccessExpiration\", _newUser)), expiry);\n    return true;\n  }\n\n\n  // @notice Owner can remove access for users\n  // @param User to be removed\n  function removeTemporaryUser(address _user)\n  onlyOwner\n  public\n  returns (bool) {\n    require(removeUser(_user));\n    database.deleteUint(keccak256(abi.encodePacked(\"userAccessExpiration\", _user)));\n    return true;\n  }\n\n\n  // @notice Owner can change the length of expiration here\n  // @param (uint) _newExpirationLength = The number of seconds until the access expires\n  function changeExpirationLength(uint _newExpirationLength)\n  external\n  onlyOwner {\n    uint oldExpiration = expirationLength;\n    expirationLength = _newExpirationLength;\n    emit LogExpirationLengthChanged(oldExpiration, expirationLength);\n  }\n\n  event LogExpirationLengthChanged(uint _oldExpirationLength, uint _newExpirationLength);\n\n}\n",
  "sourcePath": "/home/peter/Documents/Work/MyBit/MyBit-Network.tech/contracts/access/Expirable.sol",
  "compiler": {
    "name": "solc",
    "version": "0.4.24+commit.e67f0147.Emscripten.clang"
  },
  "schemaVersion": "2.0.1",
  "updatedAt": "2018-12-05T20:40:37.097Z"
}