{
  "contractName": "FeeBurnerRateInterface",
  "abi": [
    {
      "constant": true,
      "inputs": [],
      "name": "kncPerEthRatePrecision",
      "outputs": [
        {
          "name": "",
          "type": "uint256"
        }
      ],
      "payable": false,
      "stateMutability": "view",
      "type": "function"
    }
  ],
  "bytecode": "0x6080604052348015600f57600080fd5b5060998061001e6000396000f300608060405260043610603e5763ffffffff7c01000000000000000000000000000000000000000000000000000000006000350416633012541681146043575b600080fd5b348015604e57600080fd5b5060556067565b60408051918252519081900360200190f35b600054815600a165627a7a72305820c7b8cb365818fc237a7b7efdf6f2dfcd79068ef8bbd742fbf139c90587e597080029",
  "source": "pragma solidity ^0.4.24;\n\n\nimport \"./OrderListInterface.sol\";\nimport \"./OrderIdManager.sol\";\nimport \"./OrderbookReserveInterface.sol\";\nimport \"./Utils2.sol\";\nimport \"./KyberReserveInterface.sol\";\n\n\ncontract FeeBurnerRateInterface {\n    uint public kncPerEthRatePrecision;\n}\n\n\ninterface MedianizerInterface {\n    function peek() external view returns (bytes32, bool);\n}\n\n\ncontract OrderbookReserve is OrderIdManager, Utils2, KyberReserveInterface, OrderbookReserveInterface {\n\n    uint public constant BURN_TO_STAKE_FACTOR = 5;      // stake per order must be xfactor expected burn amount.\n    uint public constant MAX_BURN_FEE_BPS = 100;        // 1%\n    uint public constant MIN_REMAINING_ORDER_RATIO = 2; // Ratio between min new order value and min order value.\n    uint public constant MAX_USD_PER_ETH = 100000;      // Above this value price is surely compromised.\n\n    uint32 constant public TAIL_ID = 1;         // tail Id in order list contract\n    uint32 constant public HEAD_ID = 2;         // head Id in order list contract\n\n    struct OrderLimits {\n        uint minNewOrderSizeUsd; // Basis for setting min new order size Eth\n        uint maxOrdersPerTrade;     // Limit number of iterated orders per trade / getRate loops.\n        uint minNewOrderSizeWei;    // Below this value can't create new order.\n        uint minOrderSizeWei;       // below this value order will be removed.\n    }\n\n    uint public kncPerEthBaseRatePrecision; // according to base rate all stakes are calculated.\n\n    struct ExternalContracts {\n        ERC20 kncToken;          // not constant. to enable testing while not on main net\n        ERC20 token;             // only supported token.\n        FeeBurnerRateInterface feeBurner;\n        address kyberNetwork;\n        MedianizerInterface medianizer; // price feed Eth - USD from maker DAO.\n        OrderListFactoryInterface orderListFactory;\n    }\n\n    //struct for getOrderData() return value. used only in memory.\n    struct OrderData {\n        address maker;\n        uint32 nextId;\n        bool isLastOrder;\n        uint128 srcAmount;\n        uint128 dstAmount;\n    }\n\n    OrderLimits public limits;\n    ExternalContracts public contracts;\n\n    // sorted lists of orders. one list for token to Eth, other for Eth to token.\n    // Each order is added in the correct position in the list to keep it sorted.\n    OrderListInterface public tokenToEthList;\n    OrderListInterface public ethToTokenList;\n\n    //funds data\n    mapping(address => mapping(address => uint)) public makerFunds; // deposited maker funds.\n    mapping(address => uint) public makerKnc;            // for knc staking.\n    mapping(address => uint) public makerTotalOrdersWei; // per maker how many Wei in orders, for stake calculation.\n\n    uint public makerBurnFeeBps;    // knc burn fee per order that is taken.\n\n    //each maker will have orders that will be reused.\n    mapping(address => OrderIdData) public makerOrdersTokenToEth;\n    mapping(address => OrderIdData) public makerOrdersEthToToken;\n\n    constructor(\n        ERC20 knc,\n        ERC20 reserveToken,\n        address burner,\n        address network,\n        MedianizerInterface medianizer,\n        OrderListFactoryInterface factory,\n        uint minNewOrderUsd,\n        uint maxOrdersPerTrade,\n        uint burnFeeBps\n    )\n        public\n    {\n\n        require(knc != address(0));\n        require(reserveToken != address(0));\n        require(burner != address(0));\n        require(network != address(0));\n        require(medianizer != address(0));\n        require(factory != address(0));\n        require(burnFeeBps != 0);\n        require(burnFeeBps <= MAX_BURN_FEE_BPS);\n        require(maxOrdersPerTrade != 0);\n        require(minNewOrderUsd > 0);\n\n        contracts.kyberNetwork = network;\n        contracts.feeBurner = FeeBurnerRateInterface(burner);\n        contracts.medianizer = medianizer;\n        contracts.orderListFactory = factory;\n        contracts.kncToken = knc;\n        contracts.token = reserveToken;\n\n        makerBurnFeeBps = burnFeeBps;\n        limits.minNewOrderSizeUsd = minNewOrderUsd;\n        limits.maxOrdersPerTrade = maxOrdersPerTrade;\n\n        require(setMinOrderSizeEth());\n\n        require(contracts.kncToken.approve(contracts.feeBurner, (2**255)));\n\n        //can only support tokens with decimals() API\n        setDecimals(contracts.token);\n\n        kncPerEthBaseRatePrecision = contracts.feeBurner.kncPerEthRatePrecision();\n    }\n\n    ///@dev separate init function for this contract, if this init is in the C'tor. gas consumption too high.\n    function init() public returns(bool) {\n        if ((tokenToEthList != address(0)) && (ethToTokenList != address(0))) return true;\n        if ((tokenToEthList != address(0)) || (ethToTokenList != address(0))) revert();\n\n        tokenToEthList = contracts.orderListFactory.newOrdersContract(this);\n        ethToTokenList = contracts.orderListFactory.newOrdersContract(this);\n\n        return true;\n    }\n\n    function setKncPerEthBaseRate() public {\n        uint kncPerEthRatePrecision = contracts.feeBurner.kncPerEthRatePrecision();\n        if (kncPerEthRatePrecision < kncPerEthBaseRatePrecision) {\n            kncPerEthBaseRatePrecision = kncPerEthRatePrecision;\n        }\n    }\n\n    function getConversionRate(ERC20 src, ERC20 dst, uint srcQty, uint blockNumber) public view returns(uint) {\n        require((src == ETH_TOKEN_ADDRESS) || (dst == ETH_TOKEN_ADDRESS));\n        require((src == contracts.token) || (dst == contracts.token));\n        require(srcQty <= MAX_QTY);\n\n        if (kncRateBlocksTrade()) return 0;\n\n        blockNumber; // in this reserve no order expiry == no use for blockNumber. here to avoid compiler warning.\n\n        //user order ETH -> token is matched with maker order token -> ETH\n        OrderListInterface list = (src == ETH_TOKEN_ADDRESS) ? tokenToEthList : ethToTokenList;\n\n        uint32 orderId;\n        OrderData memory orderData;\n\n        uint128 userRemainingSrcQty = uint128(srcQty);\n        uint128 totalUserDstAmount = 0;\n        uint maxOrders = limits.maxOrdersPerTrade;\n\n        for (\n            (orderId, orderData.isLastOrder) = list.getFirstOrder();\n            ((userRemainingSrcQty > 0) && (!orderData.isLastOrder) && (maxOrders-- > 0));\n            orderId = orderData.nextId\n        ) {\n            orderData = getOrderData(list, orderId);\n            // maker dst quantity is the requested quantity he wants to receive. user src quantity is what user gives.\n            // so user src quantity is matched with maker dst quantity\n            if (orderData.dstAmount <= userRemainingSrcQty) {\n                totalUserDstAmount += orderData.srcAmount;\n                userRemainingSrcQty -= orderData.dstAmount;\n            } else {\n                totalUserDstAmount += uint128(uint(orderData.srcAmount) * uint(userRemainingSrcQty) /\n                    uint(orderData.dstAmount));\n                userRemainingSrcQty = 0;\n            }\n        }\n\n        if (userRemainingSrcQty != 0) return 0; //not enough tokens to exchange.\n\n        return calcRateFromQty(srcQty, totalUserDstAmount, getDecimals(src), getDecimals(dst));\n    }\n\n    event OrderbookReserveTrade(ERC20 srcToken, ERC20 dstToken, uint srcAmount, uint dstAmount);\n\n    function trade(\n        ERC20 srcToken,\n        uint srcAmount,\n        ERC20 dstToken,\n        address dstAddress,\n        uint conversionRate,\n        bool validate\n    )\n        public\n        payable\n        returns(bool)\n    {\n        require(msg.sender == contracts.kyberNetwork);\n        require((srcToken == ETH_TOKEN_ADDRESS) || (dstToken == ETH_TOKEN_ADDRESS));\n        require((srcToken == contracts.token) || (dstToken == contracts.token));\n        require(srcAmount <= MAX_QTY);\n\n        conversionRate;\n        validate;\n\n        if (srcToken == ETH_TOKEN_ADDRESS) {\n            require(msg.value == srcAmount);\n        } else {\n            require(msg.value == 0);\n            require(srcToken.transferFrom(msg.sender, this, srcAmount));\n        }\n\n        uint totalDstAmount = doTrade(\n                srcToken,\n                srcAmount,\n                dstToken\n            );\n\n        require(conversionRate <= calcRateFromQty(srcAmount, totalDstAmount, getDecimals(srcToken),\n            getDecimals(dstToken)));\n\n        //all orders were successfully taken. send to dstAddress\n        if (dstToken == ETH_TOKEN_ADDRESS) {\n            dstAddress.transfer(totalDstAmount);\n        } else {\n            require(dstToken.transfer(dstAddress, totalDstAmount));\n        }\n\n        emit OrderbookReserveTrade(srcToken, dstToken, srcAmount, totalDstAmount);\n        return true;\n    }\n\n    function doTrade(\n        ERC20 srcToken,\n        uint srcAmount,\n        ERC20 dstToken\n    )\n        internal\n        returns(uint)\n    {\n        OrderListInterface list = (srcToken == ETH_TOKEN_ADDRESS) ? tokenToEthList : ethToTokenList;\n\n        uint32 orderId;\n        OrderData memory orderData;\n        uint128 userRemainingSrcQty = uint128(srcAmount);\n        uint128 totalUserDstAmount = 0;\n\n        for (\n            (orderId, orderData.isLastOrder) = list.getFirstOrder();\n            ((userRemainingSrcQty > 0) && (!orderData.isLastOrder));\n            orderId = orderData.nextId\n        ) {\n        // maker dst quantity is the requested quantity he wants to receive. user src quantity is what user gives.\n        // so user src quantity is matched with maker dst quantity\n            orderData = getOrderData(list, orderId);\n            if (orderData.dstAmount <= userRemainingSrcQty) {\n                totalUserDstAmount += orderData.srcAmount;\n                userRemainingSrcQty -= orderData.dstAmount;\n                require(takeFullOrder({\n                    maker: orderData.maker,\n                    orderId: orderId,\n                    userSrc: srcToken,\n                    userDst: dstToken,\n                    userSrcAmount: orderData.dstAmount,\n                    userDstAmount: orderData.srcAmount\n                }));\n            } else {\n                uint128 partialDstQty = uint128(uint(orderData.srcAmount) * uint(userRemainingSrcQty) /\n                    uint(orderData.dstAmount));\n                totalUserDstAmount += partialDstQty;\n                require(takePartialOrder({\n                    maker: orderData.maker,\n                    orderId: orderId,\n                    userSrc: srcToken,\n                    userDst: dstToken,\n                    userPartialSrcAmount: userRemainingSrcQty,\n                    userTakeDstAmount: partialDstQty,\n                    orderSrcAmount: orderData.srcAmount,\n                    orderDstAmount: orderData.dstAmount\n                }));\n                userRemainingSrcQty = 0;\n            }\n        }\n\n        require(userRemainingSrcQty == 0 && totalUserDstAmount > 0);\n\n        return totalUserDstAmount;\n    }\n\n    ///@param srcAmount is the token amount that will be payed. must be deposited before hand in the makers account.\n    ///@param dstAmount is the eth amount the maker expects to get for his tokens.\n    function submitTokenToEthOrder(uint128 srcAmount, uint128 dstAmount)\n        public\n        returns(bool)\n    {\n        return submitTokenToEthOrderWHint(srcAmount, dstAmount, 0);\n    }\n\n    function submitTokenToEthOrderWHint(uint128 srcAmount, uint128 dstAmount, uint32 hintPrevOrder)\n        public\n        returns(bool)\n    {\n        uint32 newId = fetchNewOrderId(makerOrdersTokenToEth[msg.sender]);\n        return addOrder(false, newId, srcAmount, dstAmount, hintPrevOrder);\n    }\n\n    ///@param srcAmount is the Ether amount that will be payed, must be deposited before hand.\n    ///@param dstAmount is the token amount the maker expects to get for his Ether.\n    function submitEthToTokenOrder(uint128 srcAmount, uint128 dstAmount)\n        public\n        returns(bool)\n    {\n        return submitEthToTokenOrderWHint(srcAmount, dstAmount, 0);\n    }\n\n    function submitEthToTokenOrderWHint(uint128 srcAmount, uint128 dstAmount, uint32 hintPrevOrder)\n        public\n        returns(bool)\n    {\n        uint32 newId = fetchNewOrderId(makerOrdersEthToToken[msg.sender]);\n        return addOrder(true, newId, srcAmount, dstAmount, hintPrevOrder);\n    }\n\n    ///@dev notice here a batch of orders represented in arrays. order x is represented by x cells of all arrays.\n    ///@dev all arrays expected to the same length.\n    ///@param isEthToToken per each order. is order x eth to token (= src is Eth) or vice versa.\n    ///@param srcAmount per each order. source amount for order x.\n    ///@param dstAmount per each order. destination amount for order x.\n    ///@param hintPrevOrder per each order what is the order it should be added after in ordered list. 0 for no hint.\n    ///@param isAfterPrevOrder per each order, set true if should be added in list right after previous added order.\n    function addOrderBatch(bool[] isEthToToken, uint128[] srcAmount, uint128[] dstAmount,\n        uint32[] hintPrevOrder, bool[] isAfterPrevOrder)\n        public\n        returns(bool)\n    {\n        require(isEthToToken.length == hintPrevOrder.length);\n        require(isEthToToken.length == dstAmount.length);\n        require(isEthToToken.length == srcAmount.length);\n        require(isEthToToken.length == isAfterPrevOrder.length);\n\n        address maker = msg.sender;\n        uint32 prevId;\n        uint32 newId = 0;\n\n        for (uint i = 0; i < isEthToToken.length; ++i) {\n            prevId = isAfterPrevOrder[i] ? newId : hintPrevOrder[i];\n            newId = fetchNewOrderId(isEthToToken[i] ? makerOrdersEthToToken[maker] : makerOrdersTokenToEth[maker]);\n            require(addOrder(isEthToToken[i], newId, srcAmount[i], dstAmount[i], prevId));\n        }\n\n        return true;\n    }\n\n    function updateTokenToEthOrder(uint32 orderId, uint128 newSrcAmount, uint128 newDstAmount)\n        public\n        returns(bool)\n    {\n        require(updateTokenToEthOrderWHint(orderId, newSrcAmount, newDstAmount, 0));\n        return true;\n    }\n\n    function updateTokenToEthOrderWHint(\n        uint32 orderId,\n        uint128 newSrcAmount,\n        uint128 newDstAmount,\n        uint32 hintPrevOrder\n    )\n        public\n        returns(bool)\n    {\n        require(updateOrder(false, orderId, newSrcAmount, newDstAmount, hintPrevOrder));\n        return true;\n    }\n\n    function updateEthToTokenOrder(uint32 orderId, uint128 newSrcAmount, uint128 newDstAmount)\n        public\n        returns(bool)\n    {\n        return updateEthToTokenOrderWHint(orderId, newSrcAmount, newDstAmount, 0);\n    }\n\n    function updateEthToTokenOrderWHint(\n        uint32 orderId,\n        uint128 newSrcAmount,\n        uint128 newDstAmount,\n        uint32 hintPrevOrder\n    )\n        public\n        returns(bool)\n    {\n        require(updateOrder(true, orderId, newSrcAmount, newDstAmount, hintPrevOrder));\n        return true;\n    }\n\n    function updateOrderBatch(bool[] isEthToToken, uint32[] orderId, uint128[] newSrcAmount,\n        uint128[] newDstAmount, uint32[] hintPrevOrder)\n        public\n        returns(bool)\n    {\n        require(isEthToToken.length == orderId.length);\n        require(isEthToToken.length == newSrcAmount.length);\n        require(isEthToToken.length == newDstAmount.length);\n        require(isEthToToken.length == hintPrevOrder.length);\n\n        for (uint i = 0; i < isEthToToken.length; ++i) {\n            require(updateOrder(isEthToToken[i], orderId[i], newSrcAmount[i], newDstAmount[i],\n                hintPrevOrder[i]));\n        }\n\n        return true;\n    }\n\n    event TokenDeposited(address indexed maker, uint amount);\n\n    function depositToken(address maker, uint amount) public {\n        require(maker != address(0));\n        require(amount < MAX_QTY);\n\n        require(contracts.token.transferFrom(msg.sender, this, amount));\n\n        makerFunds[maker][contracts.token] += amount;\n        emit TokenDeposited(maker, amount);\n    }\n\n    event EtherDeposited(address indexed maker, uint amount);\n\n    function depositEther(address maker) public payable {\n        require(maker != address(0));\n\n        makerFunds[maker][ETH_TOKEN_ADDRESS] += msg.value;\n        emit EtherDeposited(maker, msg.value);\n    }\n\n    event KncFeeDeposited(address indexed maker, uint amount);\n\n    // knc will be staked per order. part of the amount will be used as fee.\n    function depositKncForFee(address maker, uint amount) public {\n        require(maker != address(0));\n        require(amount < MAX_QTY);\n\n        require(contracts.kncToken.transferFrom(msg.sender, this, amount));\n\n        makerKnc[maker] += amount;\n\n        emit KncFeeDeposited(maker, amount);\n\n        if (orderAllocationRequired(makerOrdersTokenToEth[maker])) {\n            require(allocateOrderIds(\n                makerOrdersTokenToEth[maker], /* makerOrders */\n                tokenToEthList.allocateIds(uint32(NUM_ORDERS)) /* firstAllocatedId */\n            ));\n        }\n\n        if (orderAllocationRequired(makerOrdersEthToToken[maker])) {\n            require(allocateOrderIds(\n                makerOrdersEthToToken[maker], /* makerOrders */\n                ethToTokenList.allocateIds(uint32(NUM_ORDERS)) /* firstAllocatedId */\n            ));\n        }\n    }\n\n    function withdrawToken(uint amount) public {\n\n        address maker = msg.sender;\n        uint makerFreeAmount = makerFunds[maker][contracts.token];\n\n        require(makerFreeAmount >= amount);\n\n        makerFunds[maker][contracts.token] -= amount;\n\n        require(contracts.token.transfer(maker, amount));\n    }\n\n    function withdrawEther(uint amount) public {\n\n        address maker = msg.sender;\n        uint makerFreeAmount = makerFunds[maker][ETH_TOKEN_ADDRESS];\n\n        require(makerFreeAmount >= amount);\n\n        makerFunds[maker][ETH_TOKEN_ADDRESS] -= amount;\n\n        maker.transfer(amount);\n    }\n\n    function withdrawKncFee(uint amount) public {\n\n        address maker = msg.sender;\n\n        require(makerKnc[maker] >= amount);\n        require(makerUnlockedKnc(maker) >= amount);\n\n        makerKnc[maker] -= amount;\n\n        require(contracts.kncToken.transfer(maker, amount));\n    }\n\n    function cancelTokenToEthOrder(uint32 orderId) public returns(bool) {\n        require(cancelOrder(false, orderId));\n        return true;\n    }\n\n    function cancelEthToTokenOrder(uint32 orderId) public returns(bool) {\n        require(cancelOrder(true, orderId));\n        return true;\n    }\n\n    function setMinOrderSizeEth() public returns(bool) {\n        //get eth to $ from maker dao;\n        bytes32 usdPerEthInWei;\n        bool valid;\n        (usdPerEthInWei, valid) = contracts.medianizer.peek();\n        require(valid);\n\n        // ensuring that there is no underflow or overflow possible,\n        // even if the price is compromised\n        uint usdPerEth = uint(usdPerEthInWei) / (1 ether);\n        require(usdPerEth != 0);\n        require(usdPerEth < MAX_USD_PER_ETH);\n\n        // set Eth order limits according to price\n        uint minNewOrderSizeWei = limits.minNewOrderSizeUsd * PRECISION * (1 ether) / uint(usdPerEthInWei);\n\n        limits.minNewOrderSizeWei = minNewOrderSizeWei;\n        limits.minOrderSizeWei = limits.minNewOrderSizeWei / MIN_REMAINING_ORDER_RATIO;\n\n        return true;\n    }\n\n    ///@dev Each maker stakes per order KNC that is factor of the required burn amount.\n    ///@dev If Knc per Eth rate becomes lower by more then factor, stake will not be enough and trade will be blocked.\n    function kncRateBlocksTrade() public view returns (bool) {\n        return (contracts.feeBurner.kncPerEthRatePrecision() > kncPerEthBaseRatePrecision * BURN_TO_STAKE_FACTOR);\n    }\n\n    function getTokenToEthAddOrderHint(uint128 srcAmount, uint128 dstAmount) public view returns (uint32) {\n        require(dstAmount >= limits.minNewOrderSizeWei);\n        return tokenToEthList.findPrevOrderId(srcAmount, dstAmount);\n    }\n\n    function getEthToTokenAddOrderHint(uint128 srcAmount, uint128 dstAmount) public view returns (uint32) {\n        require(srcAmount >= limits.minNewOrderSizeWei);\n        return ethToTokenList.findPrevOrderId(srcAmount, dstAmount);\n    }\n\n    function getTokenToEthUpdateOrderHint(uint32 orderId, uint128 srcAmount, uint128 dstAmount)\n        public\n        view\n        returns (uint32)\n    {\n        require(dstAmount >= limits.minNewOrderSizeWei);\n        uint32 prevId = tokenToEthList.findPrevOrderId(srcAmount, dstAmount);\n        address add;\n        uint128 noUse;\n        uint32 next;\n\n        if (prevId == orderId) {\n            (add, noUse, noUse, prevId, next) = tokenToEthList.getOrderDetails(orderId);\n        }\n\n        return prevId;\n    }\n\n    function getEthToTokenUpdateOrderHint(uint32 orderId, uint128 srcAmount, uint128 dstAmount)\n        public\n        view\n        returns (uint32)\n    {\n        require(srcAmount >= limits.minNewOrderSizeWei);\n        uint32 prevId = ethToTokenList.findPrevOrderId(srcAmount, dstAmount);\n        address add;\n        uint128 noUse;\n        uint32 next;\n\n        if (prevId == orderId) {\n            (add, noUse, noUse, prevId, next) = ethToTokenList.getOrderDetails(orderId);\n        }\n\n        return prevId;\n    }\n\n    function getTokenToEthOrder(uint32 orderId)\n        public view\n        returns (\n            address _maker,\n            uint128 _srcAmount,\n            uint128 _dstAmount,\n            uint32 _prevId,\n            uint32 _nextId\n        )\n    {\n        return tokenToEthList.getOrderDetails(orderId);\n    }\n\n    function getEthToTokenOrder(uint32 orderId)\n        public view\n        returns (\n            address _maker,\n            uint128 _srcAmount,\n            uint128 _dstAmount,\n            uint32 _prevId,\n            uint32 _nextId\n        )\n    {\n        return ethToTokenList.getOrderDetails(orderId);\n    }\n\n    function makerRequiredKncStake(address maker) public view returns (uint) {\n        return(calcKncStake(makerTotalOrdersWei[maker]));\n    }\n\n    function makerUnlockedKnc(address maker) public view returns (uint) {\n        uint requiredKncStake = makerRequiredKncStake(maker);\n        if (requiredKncStake > makerKnc[maker]) return 0;\n        return (makerKnc[maker] - requiredKncStake);\n    }\n\n    function calcKncStake(uint weiAmount) public view returns(uint) {\n        return(calcBurnAmount(weiAmount) * BURN_TO_STAKE_FACTOR);\n    }\n\n    function calcBurnAmount(uint weiAmount) public view returns(uint) {\n        return(weiAmount * makerBurnFeeBps * kncPerEthBaseRatePrecision / (10000 * PRECISION));\n    }\n\n    function calcBurnAmountFromFeeBurner(uint weiAmount) public view returns(uint) {\n        return(weiAmount * makerBurnFeeBps * contracts.feeBurner.kncPerEthRatePrecision() / (10000 * PRECISION));\n    }\n\n    ///@dev This function is not fully optimized gas wise. Consider before calling on chain.\n    function getEthToTokenMakerOrderIds(address maker) public view returns(uint32[] orderList) {\n        OrderIdData storage makerOrders = makerOrdersEthToToken[maker];\n        orderList = new uint32[](getNumActiveOrderIds(makerOrders));\n        uint activeOrder = 0;\n\n        for (uint32 i = 0; i < NUM_ORDERS; ++i) {\n            if ((makerOrders.takenBitmap & (uint(1) << i) > 0)) orderList[activeOrder++] = makerOrders.firstOrderId + i;\n        }\n    }\n\n    ///@dev This function is not fully optimized gas wise. Consider before calling on chain.\n    function getTokenToEthMakerOrderIds(address maker) public view returns(uint32[] orderList) {\n        OrderIdData storage makerOrders = makerOrdersTokenToEth[maker];\n        orderList = new uint32[](getNumActiveOrderIds(makerOrders));\n        uint activeOrder = 0;\n\n        for (uint32 i = 0; i < NUM_ORDERS; ++i) {\n            if ((makerOrders.takenBitmap & (uint(1) << i) > 0)) orderList[activeOrder++] = makerOrders.firstOrderId + i;\n        }\n    }\n\n    ///@dev This function is not fully optimized gas wise. Consider before calling on chain.\n    function getEthToTokenOrderList() public view returns(uint32[] orderList) {\n        OrderListInterface list = ethToTokenList;\n        return getList(list);\n    }\n\n    ///@dev This function is not fully optimized gas wise. Consider before calling on chain.\n    function getTokenToEthOrderList() public view returns(uint32[] orderList) {\n        OrderListInterface list = tokenToEthList;\n        return getList(list);\n    }\n\n    event NewLimitOrder(\n        address indexed maker,\n        uint32 orderId,\n        bool isEthToToken,\n        uint128 srcAmount,\n        uint128 dstAmount,\n        bool addedWithHint\n    );\n\n    function addOrder(bool isEthToToken, uint32 newId, uint128 srcAmount, uint128 dstAmount, uint32 hintPrevOrder)\n        internal\n        returns(bool)\n    {\n        require(srcAmount < MAX_QTY);\n        require(dstAmount < MAX_QTY);\n        address maker = msg.sender;\n\n        require(secureAddOrderFunds(maker, isEthToToken, srcAmount, dstAmount));\n        require(validateLegalRate(srcAmount, dstAmount, isEthToToken));\n\n        bool addedWithHint = false;\n        OrderListInterface list = isEthToToken ? ethToTokenList : tokenToEthList;\n\n        if (hintPrevOrder != 0) {\n            addedWithHint = list.addAfterId(maker, newId, srcAmount, dstAmount, hintPrevOrder);\n        }\n\n        if (!addedWithHint) {\n            require(list.add(maker, newId, srcAmount, dstAmount));\n        }\n\n        emit NewLimitOrder(maker, newId, isEthToToken, srcAmount, dstAmount, addedWithHint);\n\n        return true;\n    }\n\n    event OrderUpdated(\n        address indexed maker,\n        bool isEthToToken,\n        uint orderId,\n        uint128 srcAmount,\n        uint128 dstAmount,\n        bool updatedWithHint\n    );\n\n    function updateOrder(bool isEthToToken, uint32 orderId, uint128 newSrcAmount,\n        uint128 newDstAmount, uint32 hintPrevOrder)\n        internal\n        returns(bool)\n    {\n        require(newSrcAmount < MAX_QTY);\n        require(newDstAmount < MAX_QTY);\n        address maker;\n        uint128 currDstAmount;\n        uint128 currSrcAmount;\n        uint32 noUse;\n        uint noUse2;\n\n        require(validateLegalRate(newSrcAmount, newDstAmount, isEthToToken));\n\n        OrderListInterface list = isEthToToken ? ethToTokenList : tokenToEthList;\n\n        (maker, currSrcAmount, currDstAmount, noUse, noUse) = list.getOrderDetails(orderId);\n        require(maker == msg.sender);\n\n        if (!secureUpdateOrderFunds(maker, isEthToToken, currSrcAmount, currDstAmount, newSrcAmount, newDstAmount)) {\n            return false;\n        }\n\n        bool updatedWithHint = false;\n\n        if (hintPrevOrder != 0) {\n            (updatedWithHint, noUse2) = list.updateWithPositionHint(orderId, newSrcAmount, newDstAmount, hintPrevOrder);\n        }\n\n        if (!updatedWithHint) {\n            require(list.update(orderId, newSrcAmount, newDstAmount));\n        }\n\n        emit OrderUpdated(maker, isEthToToken, orderId, newSrcAmount, newDstAmount, updatedWithHint);\n\n        return true;\n    }\n\n    event OrderCanceled(address indexed maker, bool isEthToToken, uint32 orderId, uint128 srcAmount, uint dstAmount);\n\n    function cancelOrder(bool isEthToToken, uint32 orderId) internal returns(bool) {\n\n        address maker = msg.sender;\n        OrderListInterface list = isEthToToken ? ethToTokenList : tokenToEthList;\n        OrderData memory orderData = getOrderData(list, orderId);\n\n        require(orderData.maker == maker);\n\n        uint weiAmount = isEthToToken ? orderData.srcAmount : orderData.dstAmount;\n        require(releaseOrderStakes(maker, weiAmount, 0));\n\n        require(removeOrder(list, maker, isEthToToken ? ETH_TOKEN_ADDRESS : contracts.token, orderId));\n\n        //funds go back to makers account\n        makerFunds[maker][isEthToToken ? ETH_TOKEN_ADDRESS : contracts.token] += orderData.srcAmount;\n\n        emit OrderCanceled(maker, isEthToToken, orderId, orderData.srcAmount, orderData.dstAmount);\n\n        return true;\n    }\n\n    ///@param maker is the maker of this order\n    ///@param isEthToToken which order type the maker is updating / adding\n    ///@param srcAmount is the orders src amount (token or ETH) could be negative if funds are released.\n    function bindOrderFunds(address maker, bool isEthToToken, int srcAmount)\n        internal\n        returns(bool)\n    {\n        address fundsAddress = isEthToToken ? ETH_TOKEN_ADDRESS : contracts.token;\n\n        if (srcAmount < 0) {\n            makerFunds[maker][fundsAddress] += uint(-srcAmount);\n        } else {\n            require(makerFunds[maker][fundsAddress] >= uint(srcAmount));\n            makerFunds[maker][fundsAddress] -= uint(srcAmount);\n        }\n\n        return true;\n    }\n\n    ///@param maker is the maker address\n    ///@param weiAmount is the wei amount inside order that should result in knc staking\n    function bindOrderStakes(address maker, int weiAmount) internal returns(bool) {\n\n        if (weiAmount < 0) {\n            uint decreaseWeiAmount = uint(-weiAmount);\n            if (decreaseWeiAmount > makerTotalOrdersWei[maker]) decreaseWeiAmount = makerTotalOrdersWei[maker];\n            makerTotalOrdersWei[maker] -= decreaseWeiAmount;\n            return true;\n        }\n\n        require(makerKnc[maker] >= calcKncStake(makerTotalOrdersWei[maker] + uint(weiAmount)));\n\n        makerTotalOrdersWei[maker] += uint(weiAmount);\n\n        return true;\n    }\n\n    ///@dev if totalWeiAmount is 0 we only release stakes.\n    ///@dev if totalWeiAmount == weiForBurn. all staked amount will be burned. so no knc returned to maker\n    ///@param maker is the maker address\n    ///@param totalWeiAmount is total wei amount that was released from order - including taken wei amount.\n    ///@param weiForBurn is the part in order wei amount that was taken and should result in burning.\n    function releaseOrderStakes(address maker, uint totalWeiAmount, uint weiForBurn) internal returns(bool) {\n\n        require(weiForBurn <= totalWeiAmount);\n\n        if (totalWeiAmount > makerTotalOrdersWei[maker]) {\n            makerTotalOrdersWei[maker] = 0;\n        } else {\n            makerTotalOrdersWei[maker] -= totalWeiAmount;\n        }\n\n        if (weiForBurn == 0) return true;\n\n        uint burnAmount = calcBurnAmountFromFeeBurner(weiForBurn);\n\n        require(makerKnc[maker] >= burnAmount);\n        makerKnc[maker] -= burnAmount;\n\n        return true;\n    }\n\n    ///@dev funds are valid only when required knc amount can be staked for this order.\n    function secureAddOrderFunds(address maker, bool isEthToToken, uint128 srcAmount, uint128 dstAmount)\n        internal returns(bool)\n    {\n        uint weiAmount = isEthToToken ? srcAmount : dstAmount;\n\n        require(weiAmount >= limits.minNewOrderSizeWei);\n        require(bindOrderFunds(maker, isEthToToken, int(srcAmount)));\n        require(bindOrderStakes(maker, int(weiAmount)));\n\n        return true;\n    }\n\n    ///@dev funds are valid only when required knc amount can be staked for this order.\n    function secureUpdateOrderFunds(address maker, bool isEthToToken, uint128 prevSrcAmount, uint128 prevDstAmount,\n        uint128 newSrcAmount, uint128 newDstAmount)\n        internal\n        returns(bool)\n    {\n        uint weiAmount = isEthToToken ? newSrcAmount : newDstAmount;\n        int weiDiff = isEthToToken ? (int(newSrcAmount) - int(prevSrcAmount)) :\n            (int(newDstAmount) - int(prevDstAmount));\n\n        require(weiAmount >= limits.minNewOrderSizeWei);\n\n        require(bindOrderFunds(maker, isEthToToken, int(newSrcAmount) - int(prevSrcAmount)));\n\n        require(bindOrderStakes(maker, weiDiff));\n\n        return true;\n    }\n\n    event FullOrderTaken(address maker, uint32 orderId, bool isEthToToken);\n\n    function takeFullOrder(\n        address maker,\n        uint32 orderId,\n        ERC20 userSrc,\n        ERC20 userDst,\n        uint128 userSrcAmount,\n        uint128 userDstAmount\n    )\n        internal\n        returns (bool)\n    {\n        OrderListInterface list = (userSrc == ETH_TOKEN_ADDRESS) ? tokenToEthList : ethToTokenList;\n\n        //userDst == maker source\n        require(removeOrder(list, maker, userDst, orderId));\n\n        emit FullOrderTaken(maker, orderId, userSrc == ETH_TOKEN_ADDRESS);\n\n        return takeOrder(maker, userSrc, userSrcAmount, userDstAmount, 0);\n    }\n\n    event PartialOrderTaken(address maker, uint32 orderId, bool isEthToToken, bool isRemoved);\n\n    function takePartialOrder(\n        address maker,\n        uint32 orderId,\n        ERC20 userSrc,\n        ERC20 userDst,\n        uint128 userPartialSrcAmount,\n        uint128 userTakeDstAmount,\n        uint128 orderSrcAmount,\n        uint128 orderDstAmount\n    )\n        internal\n        returns(bool)\n    {\n        require(userPartialSrcAmount < orderDstAmount);\n        require(userTakeDstAmount < orderSrcAmount);\n\n        //must reuse parameters, otherwise stack too deep error.\n        orderSrcAmount -= userTakeDstAmount;\n        orderDstAmount -= userPartialSrcAmount;\n\n        OrderListInterface list = (userSrc == ETH_TOKEN_ADDRESS) ? tokenToEthList : ethToTokenList;\n        uint weiValueNotReleasedFromOrder = (userSrc == ETH_TOKEN_ADDRESS) ? orderDstAmount : orderSrcAmount;\n        uint additionalReleasedWei = 0;\n\n        if (weiValueNotReleasedFromOrder < limits.minOrderSizeWei) {\n            // remaining order amount too small. remove order and add remaining funds to free funds\n            makerFunds[maker][userDst] += orderSrcAmount;\n            additionalReleasedWei = weiValueNotReleasedFromOrder;\n\n            //for remove order we give makerSrc == userDst\n            require(removeOrder(list, maker, userDst, orderId));\n        } else {\n            bool isSuccess;\n\n            // update order values, taken order is always first order\n            (isSuccess,) = list.updateWithPositionHint(orderId, orderSrcAmount, orderDstAmount, HEAD_ID);\n            require(isSuccess);\n        }\n\n        emit PartialOrderTaken(maker, orderId, userSrc == ETH_TOKEN_ADDRESS, additionalReleasedWei > 0);\n\n        //stakes are returned for unused wei value\n        return(takeOrder(maker, userSrc, userPartialSrcAmount, userTakeDstAmount, additionalReleasedWei));\n    }\n\n    function takeOrder(\n        address maker,\n        ERC20 userSrc,\n        uint userSrcAmount,\n        uint userDstAmount,\n        uint additionalReleasedWei\n    )\n        internal\n        returns(bool)\n    {\n        uint weiAmount = userSrc == (ETH_TOKEN_ADDRESS) ? userSrcAmount : userDstAmount;\n\n        //token / eth already collected. just update maker balance\n        makerFunds[maker][userSrc] += userSrcAmount;\n\n        // send dst tokens in one batch. not here\n        //handle knc stakes and fee. releasedWeiValue was released and not traded.\n        return releaseOrderStakes(maker, (weiAmount + additionalReleasedWei), weiAmount);\n    }\n\n    function removeOrder(\n        OrderListInterface list,\n        address maker,\n        ERC20 makerSrc,\n        uint32 orderId\n    )\n        internal returns(bool)\n    {\n        require(list.remove(orderId));\n        OrderIdData storage orders = (makerSrc == ETH_TOKEN_ADDRESS) ?\n            makerOrdersEthToToken[maker] : makerOrdersTokenToEth[maker];\n        require(releaseOrderId(orders, orderId));\n\n        return true;\n    }\n\n    function getList(OrderListInterface list) internal view returns(uint32[] memory orderList) {\n        OrderData memory orderData;\n        uint32 orderId;\n        bool isEmpty;\n\n        (orderId, isEmpty) = list.getFirstOrder();\n        if (isEmpty) return(new uint32[](0));\n\n        uint numOrders = 0;\n\n        for (; !orderData.isLastOrder; orderId = orderData.nextId) {\n            orderData = getOrderData(list, orderId);\n            numOrders++;\n        }\n\n        orderList = new uint32[](numOrders);\n\n        (orderId, orderData.isLastOrder) = list.getFirstOrder();\n\n        for (uint i = 0; i < numOrders; i++) {\n            orderList[i] = orderId;\n            orderData = getOrderData(list, orderId);\n            orderId = orderData.nextId;\n        }\n    }\n\n    function getOrderData(OrderListInterface list, uint32 orderId) internal view returns (OrderData data) {\n        uint32 prevId;\n        (data.maker, data.srcAmount, data.dstAmount, prevId, data.nextId) = list.getOrderDetails(orderId);\n        data.isLastOrder = (data.nextId == TAIL_ID);\n    }\n\n    function validateLegalRate (uint srcAmount, uint dstAmount, bool isEthToToken)\n        internal view returns(bool)\n    {\n        uint rate;\n\n        /// notice, rate is calculated from taker perspective,\n        ///     for taker amounts are opposite. order srcAmount will be DstAmount for taker.\n        if (isEthToToken) {\n            rate = calcRateFromQty(dstAmount, srcAmount, getDecimals(contracts.token), ETH_DECIMALS);\n        } else {\n            rate = calcRateFromQty(dstAmount, srcAmount, ETH_DECIMALS, getDecimals(contracts.token));\n        }\n\n        if (rate > MAX_RATE) return false;\n        return true;\n    }\n}\n",
  "sourcePath": "/home/peter/Documents/Work/MyBit/MyBit-Network.tech/contracts/kyber/OrderbookReserve.sol",
  "compiler": {
    "name": "solc",
    "version": "0.4.24+commit.e67f0147.Emscripten.clang"
  },
  "schemaVersion": "3.0.2",
  "updatedAt": "2019-04-08T19:44:50.422Z",
  "devdoc": {
    "methods": {}
  },
  "userdoc": {
    "methods": {}
  }
}