{
  "contractName": "FeeBurner",
  "abi": [
    {
      "constant": false,
      "inputs": [
        {
          "name": "alerter",
          "type": "address"
        }
      ],
      "name": "removeAlerter",
      "outputs": [],
      "payable": false,
      "stateMutability": "nonpayable",
      "type": "function"
    },
    {
      "constant": true,
      "inputs": [
        {
          "name": "",
          "type": "address"
        }
      ],
      "name": "reserveKNCWallet",
      "outputs": [
        {
          "name": "",
          "type": "address"
        }
      ],
      "payable": false,
      "stateMutability": "view",
      "type": "function"
    },
    {
      "constant": true,
      "inputs": [
        {
          "name": "",
          "type": "address"
        },
        {
          "name": "",
          "type": "address"
        }
      ],
      "name": "reserveFeeToWallet",
      "outputs": [
        {
          "name": "",
          "type": "uint256"
        }
      ],
      "payable": false,
      "stateMutability": "view",
      "type": "function"
    },
    {
      "constant": true,
      "inputs": [],
      "name": "pendingAdmin",
      "outputs": [
        {
          "name": "",
          "type": "address"
        }
      ],
      "payable": false,
      "stateMutability": "view",
      "type": "function"
    },
    {
      "constant": true,
      "inputs": [],
      "name": "getOperators",
      "outputs": [
        {
          "name": "",
          "type": "address[]"
        }
      ],
      "payable": false,
      "stateMutability": "view",
      "type": "function"
    },
    {
      "constant": true,
      "inputs": [
        {
          "name": "",
          "type": "address"
        }
      ],
      "name": "reserveFeeToBurn",
      "outputs": [
        {
          "name": "",
          "type": "uint256"
        }
      ],
      "payable": false,
      "stateMutability": "view",
      "type": "function"
    },
    {
      "constant": true,
      "inputs": [],
      "name": "taxWallet",
      "outputs": [
        {
          "name": "",
          "type": "address"
        }
      ],
      "payable": false,
      "stateMutability": "view",
      "type": "function"
    },
    {
      "constant": true,
      "inputs": [],
      "name": "kncPerEthRatePrecision",
      "outputs": [
        {
          "name": "",
          "type": "uint256"
        }
      ],
      "payable": false,
      "stateMutability": "view",
      "type": "function"
    },
    {
      "constant": true,
      "inputs": [
        {
          "name": "",
          "type": "address"
        }
      ],
      "name": "reserveFeesInBps",
      "outputs": [
        {
          "name": "",
          "type": "uint256"
        }
      ],
      "payable": false,
      "stateMutability": "view",
      "type": "function"
    },
    {
      "constant": true,
      "inputs": [],
      "name": "taxFeeBps",
      "outputs": [
        {
          "name": "",
          "type": "uint256"
        }
      ],
      "payable": false,
      "stateMutability": "view",
      "type": "function"
    },
    {
      "constant": false,
      "inputs": [
        {
          "name": "token",
          "type": "address"
        },
        {
          "name": "amount",
          "type": "uint256"
        },
        {
          "name": "sendTo",
          "type": "address"
        }
      ],
      "name": "withdrawToken",
      "outputs": [],
      "payable": false,
      "stateMutability": "nonpayable",
      "type": "function"
    },
    {
      "constant": false,
      "inputs": [
        {
          "name": "newAlerter",
          "type": "address"
        }
      ],
      "name": "addAlerter",
      "outputs": [],
      "payable": false,
      "stateMutability": "nonpayable",
      "type": "function"
    },
    {
      "constant": true,
      "inputs": [
        {
          "name": "",
          "type": "address"
        }
      ],
      "name": "walletFeesInBps",
      "outputs": [
        {
          "name": "",
          "type": "uint256"
        }
      ],
      "payable": false,
      "stateMutability": "view",
      "type": "function"
    },
    {
      "constant": false,
      "inputs": [
        {
          "name": "newAdmin",
          "type": "address"
        }
      ],
      "name": "transferAdmin",
      "outputs": [],
      "payable": false,
      "stateMutability": "nonpayable",
      "type": "function"
    },
    {
      "constant": false,
      "inputs": [],
      "name": "claimAdmin",
      "outputs": [],
      "payable": false,
      "stateMutability": "nonpayable",
      "type": "function"
    },
    {
      "constant": false,
      "inputs": [
        {
          "name": "newAdmin",
          "type": "address"
        }
      ],
      "name": "transferAdminQuickly",
      "outputs": [],
      "payable": false,
      "stateMutability": "nonpayable",
      "type": "function"
    },
    {
      "constant": true,
      "inputs": [],
      "name": "getAlerters",
      "outputs": [
        {
          "name": "",
          "type": "address[]"
        }
      ],
      "payable": false,
      "stateMutability": "view",
      "type": "function"
    },
    {
      "constant": false,
      "inputs": [
        {
          "name": "newOperator",
          "type": "address"
        }
      ],
      "name": "addOperator",
      "outputs": [],
      "payable": false,
      "stateMutability": "nonpayable",
      "type": "function"
    },
    {
      "constant": false,
      "inputs": [
        {
          "name": "operator",
          "type": "address"
        }
      ],
      "name": "removeOperator",
      "outputs": [],
      "payable": false,
      "stateMutability": "nonpayable",
      "type": "function"
    },
    {
      "constant": true,
      "inputs": [],
      "name": "kyberNetwork",
      "outputs": [
        {
          "name": "",
          "type": "address"
        }
      ],
      "payable": false,
      "stateMutability": "view",
      "type": "function"
    },
    {
      "constant": false,
      "inputs": [
        {
          "name": "amount",
          "type": "uint256"
        },
        {
          "name": "sendTo",
          "type": "address"
        }
      ],
      "name": "withdrawEther",
      "outputs": [],
      "payable": false,
      "stateMutability": "nonpayable",
      "type": "function"
    },
    {
      "constant": true,
      "inputs": [
        {
          "name": "token",
          "type": "address"
        },
        {
          "name": "user",
          "type": "address"
        }
      ],
      "name": "getBalance",
      "outputs": [
        {
          "name": "",
          "type": "uint256"
        }
      ],
      "payable": false,
      "stateMutability": "view",
      "type": "function"
    },
    {
      "constant": true,
      "inputs": [
        {
          "name": "",
          "type": "address"
        }
      ],
      "name": "feePayedPerReserve",
      "outputs": [
        {
          "name": "",
          "type": "uint256"
        }
      ],
      "payable": false,
      "stateMutability": "view",
      "type": "function"
    },
    {
      "constant": true,
      "inputs": [],
      "name": "knc",
      "outputs": [
        {
          "name": "",
          "type": "address"
        }
      ],
      "payable": false,
      "stateMutability": "view",
      "type": "function"
    },
    {
      "constant": true,
      "inputs": [],
      "name": "admin",
      "outputs": [
        {
          "name": "",
          "type": "address"
        }
      ],
      "payable": false,
      "stateMutability": "view",
      "type": "function"
    },
    {
      "inputs": [
        {
          "name": "_admin",
          "type": "address"
        },
        {
          "name": "_kncToken",
          "type": "address"
        },
        {
          "name": "_kyberNetwork",
          "type": "address"
        },
        {
          "name": "_initialKncToEthRatePrecision",
          "type": "uint256"
        }
      ],
      "payable": false,
      "stateMutability": "nonpayable",
      "type": "constructor"
    },
    {
      "anonymous": false,
      "inputs": [
        {
          "indexed": false,
          "name": "reserve",
          "type": "address"
        },
        {
          "indexed": false,
          "name": "feeInBps",
          "type": "uint256"
        },
        {
          "indexed": false,
          "name": "kncWallet",
          "type": "address"
        }
      ],
      "name": "ReserveDataSet",
      "type": "event"
    },
    {
      "anonymous": false,
      "inputs": [
        {
          "indexed": false,
          "name": "wallet",
          "type": "address"
        },
        {
          "indexed": false,
          "name": "feesInBps",
          "type": "uint256"
        }
      ],
      "name": "WalletFeesSet",
      "type": "event"
    },
    {
      "anonymous": false,
      "inputs": [
        {
          "indexed": false,
          "name": "feesInBps",
          "type": "uint256"
        }
      ],
      "name": "TaxFeesSet",
      "type": "event"
    },
    {
      "anonymous": false,
      "inputs": [
        {
          "indexed": false,
          "name": "taxWallet",
          "type": "address"
        }
      ],
      "name": "TaxWalletSet",
      "type": "event"
    },
    {
      "anonymous": false,
      "inputs": [
        {
          "indexed": false,
          "name": "ethToKncRatePrecision",
          "type": "uint256"
        },
        {
          "indexed": false,
          "name": "kyberEthKnc",
          "type": "uint256"
        },
        {
          "indexed": false,
          "name": "kyberKncEth",
          "type": "uint256"
        },
        {
          "indexed": false,
          "name": "updater",
          "type": "address"
        }
      ],
      "name": "KNCRateSet",
      "type": "event"
    },
    {
      "anonymous": false,
      "inputs": [
        {
          "indexed": false,
          "name": "reserve",
          "type": "address"
        },
        {
          "indexed": false,
          "name": "wallet",
          "type": "address"
        },
        {
          "indexed": false,
          "name": "walletFee",
          "type": "uint256"
        }
      ],
      "name": "AssignFeeToWallet",
      "type": "event"
    },
    {
      "anonymous": false,
      "inputs": [
        {
          "indexed": false,
          "name": "reserve",
          "type": "address"
        },
        {
          "indexed": false,
          "name": "burnFee",
          "type": "uint256"
        }
      ],
      "name": "AssignBurnFees",
      "type": "event"
    },
    {
      "anonymous": false,
      "inputs": [
        {
          "indexed": true,
          "name": "reserve",
          "type": "address"
        },
        {
          "indexed": false,
          "name": "sender",
          "type": "address"
        },
        {
          "indexed": false,
          "name": "quantity",
          "type": "uint256"
        }
      ],
      "name": "BurnAssignedFees",
      "type": "event"
    },
    {
      "anonymous": false,
      "inputs": [
        {
          "indexed": true,
          "name": "reserve",
          "type": "address"
        },
        {
          "indexed": false,
          "name": "sender",
          "type": "address"
        },
        {
          "indexed": false,
          "name": "taxWallet",
          "type": "address"
        },
        {
          "indexed": false,
          "name": "quantity",
          "type": "uint256"
        }
      ],
      "name": "SendTaxFee",
      "type": "event"
    },
    {
      "anonymous": false,
      "inputs": [
        {
          "indexed": true,
          "name": "wallet",
          "type": "address"
        },
        {
          "indexed": false,
          "name": "reserve",
          "type": "address"
        },
        {
          "indexed": false,
          "name": "sender",
          "type": "address"
        }
      ],
      "name": "SendWalletFees",
      "type": "event"
    },
    {
      "anonymous": false,
      "inputs": [
        {
          "indexed": false,
          "name": "token",
          "type": "address"
        },
        {
          "indexed": false,
          "name": "amount",
          "type": "uint256"
        },
        {
          "indexed": false,
          "name": "sendTo",
          "type": "address"
        }
      ],
      "name": "TokenWithdraw",
      "type": "event"
    },
    {
      "anonymous": false,
      "inputs": [
        {
          "indexed": false,
          "name": "amount",
          "type": "uint256"
        },
        {
          "indexed": false,
          "name": "sendTo",
          "type": "address"
        }
      ],
      "name": "EtherWithdraw",
      "type": "event"
    },
    {
      "anonymous": false,
      "inputs": [
        {
          "indexed": false,
          "name": "pendingAdmin",
          "type": "address"
        }
      ],
      "name": "TransferAdminPending",
      "type": "event"
    },
    {
      "anonymous": false,
      "inputs": [
        {
          "indexed": false,
          "name": "newAdmin",
          "type": "address"
        },
        {
          "indexed": false,
          "name": "previousAdmin",
          "type": "address"
        }
      ],
      "name": "AdminClaimed",
      "type": "event"
    },
    {
      "anonymous": false,
      "inputs": [
        {
          "indexed": false,
          "name": "newAlerter",
          "type": "address"
        },
        {
          "indexed": false,
          "name": "isAdd",
          "type": "bool"
        }
      ],
      "name": "AlerterAdded",
      "type": "event"
    },
    {
      "anonymous": false,
      "inputs": [
        {
          "indexed": false,
          "name": "newOperator",
          "type": "address"
        },
        {
          "indexed": false,
          "name": "isAdd",
          "type": "bool"
        }
      ],
      "name": "OperatorAdded",
      "type": "event"
    },
    {
      "constant": false,
      "inputs": [
        {
          "name": "reserve",
          "type": "address"
        },
        {
          "name": "feesInBps",
          "type": "uint256"
        },
        {
          "name": "kncWallet",
          "type": "address"
        }
      ],
      "name": "setReserveData",
      "outputs": [],
      "payable": false,
      "stateMutability": "nonpayable",
      "type": "function"
    },
    {
      "constant": false,
      "inputs": [
        {
          "name": "wallet",
          "type": "address"
        },
        {
          "name": "feesInBps",
          "type": "uint256"
        }
      ],
      "name": "setWalletFees",
      "outputs": [],
      "payable": false,
      "stateMutability": "nonpayable",
      "type": "function"
    },
    {
      "constant": false,
      "inputs": [
        {
          "name": "_taxFeeBps",
          "type": "uint256"
        }
      ],
      "name": "setTaxInBps",
      "outputs": [],
      "payable": false,
      "stateMutability": "nonpayable",
      "type": "function"
    },
    {
      "constant": false,
      "inputs": [
        {
          "name": "_taxWallet",
          "type": "address"
        }
      ],
      "name": "setTaxWallet",
      "outputs": [],
      "payable": false,
      "stateMutability": "nonpayable",
      "type": "function"
    },
    {
      "constant": false,
      "inputs": [],
      "name": "setKNCRate",
      "outputs": [],
      "payable": false,
      "stateMutability": "nonpayable",
      "type": "function"
    },
    {
      "constant": false,
      "inputs": [
        {
          "name": "tradeWeiAmount",
          "type": "uint256"
        },
        {
          "name": "reserve",
          "type": "address"
        },
        {
          "name": "wallet",
          "type": "address"
        }
      ],
      "name": "handleFees",
      "outputs": [
        {
          "name": "",
          "type": "bool"
        }
      ],
      "payable": false,
      "stateMutability": "nonpayable",
      "type": "function"
    },
    {
      "constant": false,
      "inputs": [
        {
          "name": "reserve",
          "type": "address"
        }
      ],
      "name": "burnReserveFees",
      "outputs": [],
      "payable": false,
      "stateMutability": "nonpayable",
      "type": "function"
    },
    {
      "constant": false,
      "inputs": [
        {
          "name": "wallet",
          "type": "address"
        },
        {
          "name": "reserve",
          "type": "address"
        }
      ],
      "name": "sendFeeToWallet",
      "outputs": [],
      "payable": false,
      "stateMutability": "nonpayable",
      "type": "function"
    }
  ],
  "bytecode": "0x60806040526000600e55682086ac35105260000060115534801561002257600080fd5b50604051608080611dbb833981016040908152815160208301519183015160609093015160008054600160a060020a03191633179055909290600160a060020a038416151561007057600080fd5b600160a060020a038316151561008557600080fd5b600160a060020a038216151561009a57600080fd5b8015156100a657600080fd5b60108054600160a060020a0319908116600160a060020a0394851617909155600080548216958416959095178555600f805490911693909216929092179055601155611cc39081906100f890396000f3006080604052600436106101875763ffffffff60e060020a60003504166301a12fd3811461018c5780630a377f3a146101af57806322dbf6d2146101ec578063267822471461022557806327a099d81461023a5780632b84fe831461029f5780632dc0562d146102c057806330125416146102d5578063384c4d2f146102ea5780633b2158231461030b5780633ccdbb2814610320578063408ee7fe1461034b57806345ab63b91461036c57806346b8c49e1461038d57806365dfc20f146103b857806375829def146103dc57806377f50f97146103fd5780637acc8678146104125780637c423f54146104335780637f3681f6146104485780639870d7fe1461045d5780639fad2dcb1461047e578063ac8a584a14610496578063b78b842d146104b7578063ce56c454146104cc578063d4fac45d146104f0578063dc93f7c914610517578063dd3ff4f614610538578063e61387e01461055f578063ea414b2814610574578063f6486cad14610595578063f851a440146105b6578063fd062d3b146105cb575b600080fd5b34801561019857600080fd5b506101ad600160a060020a0360043516610609565b005b3480156101bb57600080fd5b506101d0600160a060020a0360043516610772565b60408051600160a060020a039092168252519081900360200190f35b3480156101f857600080fd5b50610213600160a060020a036004358116906024351661078d565b60408051918252519081900360200190f35b34801561023157600080fd5b506101d06107aa565b34801561024657600080fd5b5061024f6107b9565b60408051602080825283518183015283519192839290830191858101910280838360005b8381101561028b578181015183820152602001610273565b505050509050019250505060405180910390f35b3480156102ab57600080fd5b50610213600160a060020a036004351661081c565b3480156102cc57600080fd5b506101d061082e565b3480156102e157600080fd5b5061021361083d565b3480156102f657600080fd5b50610213600160a060020a0360043516610843565b34801561031757600080fd5b50610213610855565b34801561032c57600080fd5b506101ad600160a060020a03600435811690602435906044351661085b565b34801561035757600080fd5b506101ad600160a060020a036004351661095b565b34801561037857600080fd5b50610213600160a060020a0360043516610a51565b34801561039957600080fd5b506101ad600160a060020a036004358116906024359060443516610a63565b3480156103c457600080fd5b506101ad600160a060020a0360043516602435610b21565b3480156103e857600080fd5b506101ad600160a060020a0360043516610b9f565b34801561040957600080fd5b506101ad610c2c565b34801561041e57600080fd5b506101ad600160a060020a0360043516610cb6565b34801561043f57600080fd5b5061024f610d88565b34801561045457600080fd5b506101ad610de8565b34801561046957600080fd5b506101ad600160a060020a0360043516611007565b34801561048a57600080fd5b506101ad6004356110fd565b3480156104a257600080fd5b506101ad600160a060020a036004351661115d565b3480156104c357600080fd5b506101d06112c2565b3480156104d857600080fd5b506101ad600435600160a060020a03602435166112d1565b3480156104fc57600080fd5b50610213600160a060020a0360043581169060243516611366565b34801561052357600080fd5b50610213600160a060020a036004351661142e565b34801561054457600080fd5b506101ad600160a060020a0360043581169060243516611440565b34801561056b57600080fd5b506101d06115b4565b34801561058057600080fd5b506101ad600160a060020a03600435166115c3565b3480156105a157600080fd5b506101ad600160a060020a0360043516611643565b3480156105c257600080fd5b506101d06118ff565b3480156105d757600080fd5b506105f5600435600160a060020a036024358116906044351661190e565b604080519115158252519081900360200190f35b60008054600160a060020a0316331461062157600080fd5b600160a060020a03821660009081526003602052604090205460ff16151561064857600080fd5b50600160a060020a0381166000908152600360205260408120805460ff191690555b60055481101561076e5781600160a060020a031660058281548110151561068d57fe5b600091825260209091200154600160a060020a03161415610766576005805460001981019081106106ba57fe5b60009182526020909120015460058054600160a060020a0390921691839081106106e057fe5b60009182526020909120018054600160a060020a031916600160a060020a0392909216919091179055600580549061071c906000198301611c50565b5060408051600160a060020a03841681526000602082015281517f5611bf3e417d124f97bf2c788843ea8bb502b66079fbee02158ef30b172cb762929181900390910190a161076e565b60010161066a565b5050565b600860205260009081526040902054600160a060020a031681565b600c60209081526000928352604080842090915290825290205481565b600154600160a060020a031681565b6060600480548060200260200160405190810160405280929190818152602001828054801561081157602002820191906000526020600020905b8154600160a060020a031681526001909101906020018083116107f3575b505050505090505b90565b600a6020526000908152604090205481565b600d54600160a060020a031681565b60115481565b60076020526000908152604090205481565b600e5481565b600054600160a060020a0316331461087257600080fd5b82600160a060020a031663a9059cbb82846040518363ffffffff1660e060020a0281526004018083600160a060020a0316600160a060020a0316815260200182815260200192505050602060405180830381600087803b1580156108d557600080fd5b505af11580156108e9573d6000803e3d6000fd5b505050506040513d60208110156108ff57600080fd5b5051151561090c57600080fd5b60408051600160a060020a0380861682526020820185905283168183015290517f72cb8a894ddb372ceec3d2a7648d86f17d5a15caae0e986c53109b8a9a9385e69181900360600190a1505050565b600054600160a060020a0316331461097257600080fd5b600160a060020a03811660009081526003602052604090205460ff161561099857600080fd5b6005546032116109a757600080fd5b60408051600160a060020a03831681526001602082015281517f5611bf3e417d124f97bf2c788843ea8bb502b66079fbee02158ef30b172cb762929181900390910190a1600160a060020a03166000818152600360205260408120805460ff191660019081179091556005805491820181559091527f036b6384b5eca791c62761152d0c79bb0604c104a5fb6f4eb0703f3154bb3db0018054600160a060020a0319169091179055565b60096020526000908152604090205481565b3360009081526002602052604090205460ff161515610a8157600080fd5b60648210610a8e57600080fd5b600160a060020a0381161515610aa357600080fd5b600160a060020a03808416600081815260076020908152604080832087905560088252918290208054948616600160a060020a031990951685179055815192835282018590528181019290925290517f999efec8241b9b7a1d9c2d2e207cde178cb3a02ca6a94d070eecb369674ead6f9181900360600190a1505050565b600054600160a060020a03163314610b3857600080fd5b6127108110610b4657600080fd5b600160a060020a0382166000818152600960209081526040918290208490558151928352820183905280517f19f0c31fd2313f709ad6b9f15595720ff5765b72b394025288ac4f355fee09529281900390910190a15050565b600054600160a060020a03163314610bb657600080fd5b600160a060020a0381161515610bcb57600080fd5b60015460408051600160a060020a039092168252517f3b81caf78fa51ecbc8acb482fd7012a277b428d9b80f9d156e8a54107496cc409181900360200190a160018054600160a060020a031916600160a060020a0392909216919091179055565b600154600160a060020a03163314610c4357600080fd5b60015460005460408051600160a060020a03938416815292909116602083015280517f65da1cfc2c2e81576ad96afb24a581f8e109b7a403b35cbd3243a1c99efdb9ed9281900390910190a16001805460008054600160a060020a0319908116600160a060020a03841617909155169055565b600054600160a060020a03163314610ccd57600080fd5b600160a060020a0381161515610ce257600080fd5b60408051600160a060020a038316815290517f3b81caf78fa51ecbc8acb482fd7012a277b428d9b80f9d156e8a54107496cc409181900360200190a160005460408051600160a060020a038085168252909216602083015280517f65da1cfc2c2e81576ad96afb24a581f8e109b7a403b35cbd3243a1c99efdb9ed9281900390910190a160008054600160a060020a031916600160a060020a0392909216919091179055565b6060600580548060200260200160405190810160405280929190818152602001828054801561081157602002820191906000526020600020908154600160a060020a031681526001909101906020018083116107f3575050505050905090565b601054600f54604080517f809a9e5500000000000000000000000000000000000000000000000000000000815273eeeeeeeeeeeeeeeeeeeeeeeeeeeeeeeeeeeeeeee6004820152600160a060020a039283166024820152670de0b6b3a7640000604482015281516000948594169263809a9e55926064808201939182900301818787803b158015610e7857600080fd5b505af1158015610e8c573d6000803e3d6000fd5b505050506040513d6040811015610ea257600080fd5b5051601054600f54604080517f809a9e55000000000000000000000000000000000000000000000000000000008152600160a060020a03928316600482015273eeeeeeeeeeeeeeeeeeeeeeeeeeeeeeeeeeeeeeee6024820152670de0b6b3a764000060448201528151949650919092169263809a9e55926064808401939192918290030181600087803b158015610f3857600080fd5b505af1158015610f4c573d6000803e3d6000fd5b505050506040513d6040811015610f6257600080fd5b505190506f01812f9cf7920e2b66973e200000000082820210610f8457600080fd5b6e604be73de4838ad9a5cf880000000081830211610fa157600080fd5b69d3c21bcecceda1000000821115610fb857600080fd5b6011829055604080518381526020810184905280820183905233606082015290517fe55ada78a782c5b59f55b44255857da4f2ed737a5a94b83e9275ee710d0d48c49181900360800190a15050565b600054600160a060020a0316331461101e57600080fd5b600160a060020a03811660009081526002602052604090205460ff161561104457600080fd5b60045460321161105357600080fd5b60408051600160a060020a03831681526001602082015281517f091a7a4b85135fdd7e8dbc18b12fabe5cc191ea867aa3c2e1a24a102af61d58b929181900390910190a1600160a060020a03166000818152600260205260408120805460ff191660019081179091556004805491820181559091527f8a35acfbc15ff81a39ae7d344fd709f28e8600b4aa8c65c6b64bfe7fe36bd19b018054600160a060020a0319169091179055565b600054600160a060020a0316331461111457600080fd5b612710811061112257600080fd5b600e8190556040805182815290517f560f2dab6b3f89e548b63a9eabb6e43ec0e70bb81bdc69e5dc578c72bab629f59181900360200190a150565b60008054600160a060020a0316331461117557600080fd5b600160a060020a03821660009081526002602052604090205460ff16151561119c57600080fd5b50600160a060020a0381166000908152600260205260408120805460ff191690555b60045481101561076e5781600160a060020a03166004828154811015156111e157fe5b600091825260209091200154600160a060020a031614156112ba5760048054600019810190811061120e57fe5b60009182526020909120015460048054600160a060020a03909216918390811061123457fe5b60009182526020909120018054600160a060020a031916600160a060020a03929092169190911790556004805460001901906112709082611c50565b5060408051600160a060020a03841681526000602082015281517f091a7a4b85135fdd7e8dbc18b12fabe5cc191ea867aa3c2e1a24a102af61d58b929181900390910190a161076e565b6001016111be565b601054600160a060020a031681565b600054600160a060020a031633146112e857600080fd5b604051600160a060020a0382169083156108fc029084906000818181858888f1935050505015801561131e573d6000803e3d6000fd5b5060408051838152600160a060020a038316602082015281517fec47e7ed86c86774d1a72c19f35c639911393fe7c1a34031fdbd260890da90de929181900390910190a15050565b6000600160a060020a03831673eeeeeeeeeeeeeeeeeeeeeeeeeeeeeeeeeeeeeeee141561139e5750600160a060020a03811631611428565b82600160a060020a03166370a08231836040518263ffffffff1660e060020a0281526004018082600160a060020a0316600160a060020a03168152602001915050602060405180830381600087803b1580156113f957600080fd5b505af115801561140d573d6000803e3d6000fd5b505050506040513d602081101561142357600080fd5b505190505b92915050565b600b6020526000908152604090205481565b600160a060020a038082166000908152600c60209081526040808320938616835292905220546001811161147357600080fd5b600160a060020a038083166000818152600c6020908152604080832088861680855290835281842060019055600f54948452600883528184205482517f23b872dd0000000000000000000000000000000000000000000000000000000081529087166004820152602481019190915260001987016044820152905193909416936323b872dd9360648083019491928390030190829087803b15801561151757600080fd5b505af115801561152b573d6000803e3d6000fd5b505050506040513d602081101561154157600080fd5b5051151561154e57600080fd5b600160a060020a038083166000818152600b602090815260409182902080548601600019019055815192835233908301528051928616927fb3f3e7375c0c0c4f7dd94069a5a4e68667827491318da786c818b8c7a794924e9281900390910190a2505050565b600f54600160a060020a031681565b600054600160a060020a031633146115da57600080fd5b600160a060020a03811615156115ef57600080fd5b600d8054600160a060020a038316600160a060020a0319909116811790915560408051918252517f847d0f7f2b16c8dd0b72c0606e65e8bf1b624633d37905b0e08145a295ab87589181900360200190a150565b600160a060020a0381166000908152600a6020526040812054906002821161166a57600080fd5b600160a060020a038084166000908152600a6020526040902060019055600d54161580159061169a5750600e5415155b156117da5750600e546127106000198301918202049081106116bb57600080fd5b808203915060008111156117da57600f54600160a060020a03848116600090815260086020908152604080832054600d5482517f23b872dd00000000000000000000000000000000000000000000000000000000815291861660048301528516602482015260448101879052905193909416936323b872dd9360648083019491928390030190829087803b15801561175257600080fd5b505af1158015611766573d6000803e3d6000fd5b505050506040513d602081101561177c57600080fd5b5051151561178957600080fd5b600d5460408051338152600160a060020a0392831660208201528082018490529051918516917f540d888e67a7f36992e365be9fddab5e2fd60e27b220d330c18f04650fd562e09181900360600190a25b600f54600160a060020a0384811660009081526008602090815260408083205481517f79cc6790000000000000000000000000000000000000000000000000000000008152908516600482015260001988016024820152905193909416936379cc67909360448083019491928390030190829087803b15801561185c57600080fd5b505af1158015611870573d6000803e3d6000fd5b505050506040513d602081101561188657600080fd5b5051151561189357600080fd5b600160a060020a0383166000818152600b602090815260409182902080548587010160001990810190915582513381529086019181019190915281517f2f8d2d194cbe1816411754a2fc9478a11f0707da481b11cff7c69791eb877ee1929181900390910190a2505050565b600054600160a060020a031681565b6010546000908190819081908190600160a060020a0316331461193057600080fd5b6b204fce5e3e2502611000000088111561194957600080fd5b600f5460115461197c9173eeeeeeeeeeeeeeeeeeeeeeeeeeeeeeeeeeeeeeee91600160a060020a03909116908b90611ac6565b600160a060020a038816600090815260076020526040902054909450612710908502600160a060020a0388166000908152600960205260409020549190049350612710908402049150818310156119d257600080fd5b508082036000821115611a4c57600160a060020a038088166000818152600c60209081526040808320948b1680845294825291829020805487019055815192835282019290925280820184905290517f366bc34352215bf0bd3b527cfd6718605e1f5938777e42bcd8ed92f578368f529181900360600190a15b6000811115611ab85760408051600160a060020a03891681526020810183905281517ff838f6ddc89706878e3c3e698e9b5cbfbf2c0e3d3dcd0bd2e00f1ccf313e0185929181900390910190a1600160a060020a0387166000908152600a602052604090208054820190555b506001979650505050505050565b6000611ae483611ad587611aef565b611ade87611aef565b85611bbf565b90505b949350505050565b600080600160a060020a03831673eeeeeeeeeeeeeeeeeeeeeeeeeeeeeeeeeeeeeeee1415611b205760129150611bb9565b50600160a060020a038216600090815260066020526040902054801515611bb55782600160a060020a031663313ce5676040518163ffffffff1660e060020a028152600401602060405180830381600087803b158015611b7f57600080fd5b505af1158015611b93573d6000803e3d6000fd5b505050506040513d6020811015611ba957600080fd5b505160ff169150611bb9565b8091505b50919050565b60006b204fce5e3e25026110000000851115611bda57600080fd5b69d3c21bcecceda1000000821115611bf157600080fd5b838310611c245760128484031115611c0857600080fd5b670de0b6b3a7640000858302858503600a0a025b049050611ae7565b60128385031115611c3457600080fd5b828403600a0a670de0b6b3a764000002828602811515611c1c57fe5b815481835581811115611c7457600083815260209020611c74918101908301611c79565b505050565b61081991905b80821115611c935760008155600101611c7f565b50905600a165627a7a7230582069a0685a8f58ce955faf8b997be363b3635f69f0079b6dd501b338a2659675c90029",
  "source": "pragma solidity ^0.4.24;\n\nimport \"./FeeBurnerInterface.sol\";\nimport \"./Withdrawable.sol\";\nimport \"./Utils2.sol\";\nimport \"./KyberNetworkInterface.sol\";\n\n\ninterface BurnableToken {\n    function transferFrom(address _from, address _to, uint _value) external returns (bool);\n    function burnFrom(address _from, uint256 _value) external returns (bool);\n}\n\n\ncontract FeeBurner is Withdrawable, FeeBurnerInterface, Utils2 {\n\n    mapping(address=>uint) public reserveFeesInBps;\n    mapping(address=>address) public reserveKNCWallet; //wallet holding knc per reserve. from here burn and send fees.\n    mapping(address=>uint) public walletFeesInBps; // wallet that is the source of tx is entitled so some fees.\n    mapping(address=>uint) public reserveFeeToBurn;\n    mapping(address=>uint) public feePayedPerReserve; // track burned fees and sent wallet fees per reserve.\n    mapping(address=>mapping(address=>uint)) public reserveFeeToWallet;\n    address public taxWallet;\n    uint public taxFeeBps = 0; // burned fees are taxed. % out of burned fees.\n\n    BurnableToken public knc;\n    KyberNetworkInterface public kyberNetwork;\n    uint public kncPerEthRatePrecision = 600 * PRECISION; //--> 1 ether = 600 knc tokens\n\n    constructor(\n        address _admin,\n        BurnableToken _kncToken,\n        KyberNetworkInterface _kyberNetwork,\n        uint _initialKncToEthRatePrecision\n    )\n        public\n    {\n        require(_admin != address(0));\n        require(_kncToken != address(0));\n        require(_kyberNetwork != address(0));\n        require(_initialKncToEthRatePrecision != 0);\n\n        kyberNetwork = _kyberNetwork;\n        admin = _admin;\n        knc = _kncToken;\n        kncPerEthRatePrecision = _initialKncToEthRatePrecision;\n    }\n\n    event ReserveDataSet(address reserve, uint feeInBps, address kncWallet);\n\n    function setReserveData(address reserve, uint feesInBps, address kncWallet) public onlyOperator {\n        require(feesInBps < 100); // make sure it is always < 1%\n        require(kncWallet != address(0));\n        reserveFeesInBps[reserve] = feesInBps;\n        reserveKNCWallet[reserve] = kncWallet;\n        emit ReserveDataSet(reserve, feesInBps, kncWallet);\n    }\n\n    event WalletFeesSet(address wallet, uint feesInBps);\n\n    function setWalletFees(address wallet, uint feesInBps) public onlyAdmin {\n        require(feesInBps < 10000); // under 100%\n        walletFeesInBps[wallet] = feesInBps;\n        emit WalletFeesSet(wallet, feesInBps);\n    }\n\n    event TaxFeesSet(uint feesInBps);\n\n    function setTaxInBps(uint _taxFeeBps) public onlyAdmin {\n        require(_taxFeeBps < 10000); // under 100%\n        taxFeeBps = _taxFeeBps;\n        emit TaxFeesSet(_taxFeeBps);\n    }\n\n    event TaxWalletSet(address taxWallet);\n\n    function setTaxWallet(address _taxWallet) public onlyAdmin {\n        require(_taxWallet != address(0));\n        taxWallet = _taxWallet;\n        emit TaxWalletSet(_taxWallet);\n    }\n\n    event KNCRateSet(uint ethToKncRatePrecision, uint kyberEthKnc, uint kyberKncEth, address updater);\n\n    function setKNCRate() public {\n        //query kyber for knc rate sell and buy\n        uint kyberEthKncRate;\n        uint kyberKncEthRate;\n        (kyberEthKncRate, ) = kyberNetwork.getExpectedRate(ETH_TOKEN_ADDRESS, ERC20(knc), (10 ** 18));\n        (kyberKncEthRate, ) = kyberNetwork.getExpectedRate(ERC20(knc), ETH_TOKEN_ADDRESS, (10 ** 18));\n\n        //check \"reasonable\" spread == diff not too big. rate wasn't tampered.\n        require(kyberEthKncRate * kyberKncEthRate < PRECISION ** 2 * 2);\n        require(kyberEthKncRate * kyberKncEthRate > PRECISION ** 2 / 2);\n\n        require(kyberEthKncRate <= MAX_RATE);\n        kncPerEthRatePrecision = kyberEthKncRate;\n        emit KNCRateSet(kncPerEthRatePrecision, kyberEthKncRate, kyberKncEthRate, msg.sender);\n    }\n\n    event AssignFeeToWallet(address reserve, address wallet, uint walletFee);\n    event AssignBurnFees(address reserve, uint burnFee);\n\n    function handleFees(uint tradeWeiAmount, address reserve, address wallet) public returns(bool) {\n        require(msg.sender == address(kyberNetwork));\n        require(tradeWeiAmount <= MAX_QTY);\n\n        uint kncAmount = calcDestAmount(ETH_TOKEN_ADDRESS, ERC20(knc), tradeWeiAmount, kncPerEthRatePrecision);\n        uint fee = kncAmount * reserveFeesInBps[reserve] / 10000;\n\n        uint walletFee = fee * walletFeesInBps[wallet] / 10000;\n        require(fee >= walletFee);\n        uint feeToBurn = fee - walletFee;\n\n        if (walletFee > 0) {\n            reserveFeeToWallet[reserve][wallet] += walletFee;\n            emit AssignFeeToWallet(reserve, wallet, walletFee);\n        }\n\n        if (feeToBurn > 0) {\n            emit AssignBurnFees(reserve, feeToBurn);\n            reserveFeeToBurn[reserve] += feeToBurn;\n        }\n\n        return true;\n    }\n\n    event BurnAssignedFees(address indexed reserve, address sender, uint quantity);\n\n    event SendTaxFee(address indexed reserve, address sender, address taxWallet, uint quantity);\n\n    // this function is callable by anyone\n    function burnReserveFees(address reserve) public {\n        uint burnAmount = reserveFeeToBurn[reserve];\n        uint taxToSend = 0;\n        require(burnAmount > 2);\n        reserveFeeToBurn[reserve] = 1; // leave 1 twei to avoid spikes in gas fee\n        if (taxWallet != address(0) && taxFeeBps != 0) {\n            taxToSend = (burnAmount - 1) * taxFeeBps / 10000;\n            require(burnAmount - 1 > taxToSend);\n            burnAmount -= taxToSend;\n            if (taxToSend > 0) {\n                require(knc.transferFrom(reserveKNCWallet[reserve], taxWallet, taxToSend));\n                emit SendTaxFee(reserve, msg.sender, taxWallet, taxToSend);\n            }\n        }\n        require(knc.burnFrom(reserveKNCWallet[reserve], burnAmount - 1));\n\n        //update reserve \"payments\" so far\n        feePayedPerReserve[reserve] += (taxToSend + burnAmount - 1);\n\n        emit BurnAssignedFees(reserve, msg.sender, (burnAmount - 1));\n    }\n\n    event SendWalletFees(address indexed wallet, address reserve, address sender);\n\n    // this function is callable by anyone\n    function sendFeeToWallet(address wallet, address reserve) public {\n        uint feeAmount = reserveFeeToWallet[reserve][wallet];\n        require(feeAmount > 1);\n        reserveFeeToWallet[reserve][wallet] = 1; // leave 1 twei to avoid spikes in gas fee\n        require(knc.transferFrom(reserveKNCWallet[reserve], wallet, feeAmount - 1));\n\n        feePayedPerReserve[reserve] += (feeAmount - 1);\n        emit SendWalletFees(wallet, reserve, msg.sender);\n    }\n}\n",
  "sourcePath": "/home/peter/Documents/Work/MyBit/MyBit-Network.tech/contracts/kyber/FeeBurner.sol",
  "compiler": {
    "name": "solc",
    "version": "0.4.24+commit.e67f0147.Emscripten.clang"
  },
  "schemaVersion": "3.0.2",
  "updatedAt": "2019-03-14T21:46:28.597Z",
  "devdoc": {
    "methods": {
      "claimAdmin()": {
        "details": "Allows the pendingAdmin address to finalize the change admin process."
      },
      "getBalance(address,address)": {
        "details": "get the balance of a user.",
        "params": {
          "token": "The token type"
        },
        "return": "The balance"
      },
      "transferAdmin(address)": {
        "details": "Allows the current admin to set the pendingAdmin address.",
        "params": {
          "newAdmin": "The address to transfer ownership to."
        }
      },
      "transferAdminQuickly(address)": {
        "details": "Allows the current admin to set the admin in one tx. Useful initial deployment.",
        "params": {
          "newAdmin": "The address to transfer ownership to."
        }
      },
      "withdrawEther(uint256,address)": {
        "details": "Withdraw Ethers"
      },
      "withdrawToken(address,uint256,address)": {
        "details": "Withdraw all ERC20 compatible tokens",
        "params": {
          "token": "ERC20 The address of the token contract"
        }
      }
    }
  },
  "userdoc": {
    "methods": {}
  }
}