{
  "contractName": "FixedDistribution",
  "abi": [
    {
      "constant": true,
      "inputs": [],
      "name": "supply",
      "outputs": [
        {
          "name": "",
          "type": "uint256"
        }
      ],
      "payable": false,
      "stateMutability": "view",
      "type": "function"
    },
    {
      "constant": true,
      "inputs": [],
      "name": "totalSupply",
      "outputs": [
        {
          "name": "",
          "type": "uint256"
        }
      ],
      "payable": false,
      "stateMutability": "view",
      "type": "function"
    },
    {
      "constant": true,
      "inputs": [],
      "name": "assetIncome",
      "outputs": [
        {
          "name": "",
          "type": "uint256"
        }
      ],
      "payable": false,
      "stateMutability": "view",
      "type": "function"
    },
    {
      "constant": true,
      "inputs": [],
      "name": "tokenURI",
      "outputs": [
        {
          "name": "",
          "type": "string"
        }
      ],
      "payable": false,
      "stateMutability": "view",
      "type": "function"
    },
    {
      "constant": false,
      "inputs": [],
      "name": "withdraw",
      "outputs": [
        {
          "name": "_amount",
          "type": "uint256"
        }
      ],
      "payable": false,
      "stateMutability": "nonpayable",
      "type": "function"
    },
    {
      "constant": true,
      "inputs": [
        {
          "name": "_owner",
          "type": "address"
        }
      ],
      "name": "balanceOf",
      "outputs": [
        {
          "name": "",
          "type": "uint256"
        }
      ],
      "payable": false,
      "stateMutability": "view",
      "type": "function"
    },
    {
      "constant": true,
      "inputs": [],
      "name": "valuePerToken",
      "outputs": [
        {
          "name": "",
          "type": "uint256"
        }
      ],
      "payable": false,
      "stateMutability": "view",
      "type": "function"
    },
    {
      "constant": true,
      "inputs": [
        {
          "name": "_user",
          "type": "address"
        }
      ],
      "name": "getUnclaimedAmount",
      "outputs": [
        {
          "name": "",
          "type": "uint256"
        }
      ],
      "payable": false,
      "stateMutability": "view",
      "type": "function"
    },
    {
      "constant": false,
      "inputs": [],
      "name": "issueDividends",
      "outputs": [],
      "payable": true,
      "stateMutability": "payable",
      "type": "function"
    },
    {
      "constant": true,
      "inputs": [
        {
          "name": "",
          "type": "address"
        }
      ],
      "name": "claimableIncome",
      "outputs": [
        {
          "name": "",
          "type": "uint256"
        }
      ],
      "payable": false,
      "stateMutability": "view",
      "type": "function"
    },
    {
      "constant": true,
      "inputs": [
        {
          "name": "",
          "type": "address"
        }
      ],
      "name": "previousValuePerToken",
      "outputs": [
        {
          "name": "",
          "type": "uint256"
        }
      ],
      "payable": false,
      "stateMutability": "view",
      "type": "function"
    },
    {
      "constant": true,
      "inputs": [
        {
          "name": "_user",
          "type": "address"
        }
      ],
      "name": "getTokenValue",
      "outputs": [
        {
          "name": "",
          "type": "uint256"
        }
      ],
      "payable": false,
      "stateMutability": "view",
      "type": "function"
    },
    {
      "inputs": [
        {
          "name": "_tokenURI",
          "type": "string"
        },
        {
          "name": "_tokenHolders",
          "type": "address[]"
        },
        {
          "name": "_amount",
          "type": "uint256[]"
        }
      ],
      "payable": false,
      "stateMutability": "nonpayable",
      "type": "constructor"
    },
    {
      "payable": true,
      "stateMutability": "payable",
      "type": "fallback"
    },
    {
      "anonymous": false,
      "inputs": [
        {
          "indexed": true,
          "name": "_sender",
          "type": "address"
        },
        {
          "indexed": false,
          "name": "_paymentAmount",
          "type": "uint256"
        }
      ],
      "name": "LogIncomeReceived",
      "type": "event"
    },
    {
      "anonymous": false,
      "inputs": [
        {
          "indexed": false,
          "name": "_block",
          "type": "uint256"
        },
        {
          "indexed": false,
          "name": "_address",
          "type": "address"
        },
        {
          "indexed": false,
          "name": "_amount",
          "type": "uint256"
        }
      ],
      "name": "LogIncomeCollected",
      "type": "event"
    }
  ],
  "bytecode": "0x608060405234801561001057600080fd5b506040516108d73803806108d7833981016040908152815160208301519183015191830180519184019390920190600090819060c8118015610053575082518451145b151561005e57600080fd5b8451610071906002906020880190610183565b50600090505b83518160ff161015610160576100b5838260ff1681518110151561009757fe5b60209081029091010151839064010000000061034d61016d82021704565b9150610120838260ff168151811015156100cb57fe5b9060200190602002015160016000878560ff168151811015156100ea57fe5b6020908102909101810151600160a060020a03168252810191909152604001600020549064010000000061034d61016d82021704565b60016000868460ff1681518110151561013557fe5b6020908102909101810151600160a060020a0316825281019190915260400160002055600101610077565b506000555061021e915050565b60008282018381101561017c57fe5b9392505050565b828054600181600116156101000203166002900490600052602060002090601f016020900481019282601f106101c457805160ff19168380011785556101f1565b828001600101855582156101f1579182015b828111156101f15782518255916020019190600101906101d6565b506101fd929150610201565b5090565b61021b91905b808211156101fd5760008155600101610207565b90565b6106aa8061022d6000396000f3006080604052600436106100b95763ffffffff7c0100000000000000000000000000000000000000000000000000000000600035041663047fc9aa811461014e57806318160ddd146101755780632ba1b3a11461018a5780633c130d901461019f5780633ccfd60b1461022957806370a082311461023e578063a8fa8e521461025f578063b815239514610274578063eba74e5c14610295578063ec8593be1461029f578063efcb5dea146102c0578063f1c5d6c2146102e1575b6000546100fd906100ee906100e2346d04ee2d6d415b85acef810000000063ffffffff61030216565b9063ffffffff61033816565b6004549063ffffffff61034d16565b600455600354610113903463ffffffff61034d16565b60035560408051348152905133917fe3166012cb87b3dec8e117fe0e096a47387f94ea2ec12086ed8ae24ff8c237fe919081900360200190a2005b34801561015a57600080fd5b5061016361035c565b60408051918252519081900360200190f35b34801561018157600080fd5b50610163610362565b34801561019657600080fd5b50610163610368565b3480156101ab57600080fd5b506101b461036e565b6040805160208082528351818301528351919283929083019185019080838360005b838110156101ee5781810151838201526020016101d6565b50505050905090810190601f16801561021b5780820380516001836020036101000a031916815260200191505b509250505060405180910390f35b34801561023557600080fd5b506101636103f9565b34801561024a57600080fd5b50610163600160a060020a03600435166104ff565b34801561026b57600080fd5b5061016361051a565b34801561028057600080fd5b50610163600160a060020a0360043516610520565b61029d61056c565b005b3480156102ab57600080fd5b50610163600160a060020a03600435166105e6565b3480156102cc57600080fd5b50610163600160a060020a03600435166105f8565b3480156102ed57600080fd5b50610163600160a060020a036004351661060a565b6000808315156103155760009150610331565b5082820282848281151561032557fe5b041461032d57fe5b8091505b5092915050565b6000818381151561034557fe5b049392505050565b60008282018381101561032d57fe5b60005481565b60005490565b60035481565b6002805460408051602060018416156101000260001901909316849004601f810184900484028201840190925281815292918301828280156103f15780601f106103c6576101008083540402835291602001916103f1565b820191906000526020600020905b8154815290600101906020018083116103d457829003601f168201915b505050505081565b60003361042d6104088261060a565b600160a060020a0383166000908152600560205260409020549063ffffffff61034d16565b600160a060020a038216600090815260056020818152604080842094909455600454600682528484205533835252205461047b906d04ee2d6d415b85acef810000000063ffffffff61033816565b3360008181526005602052604080822082905551929450909184156108fc0291859190818181858888f193505050501580156104bb573d6000803e3d6000fd5b506040805142815233602082015280820184905290517f10db2ba5699bf5dbd1070a0c0b207f229dc1ecb78bbe555b84cab3db9576ac429181900360600190a15090565b600160a060020a031660009081526001602052604090205490565b60045481565b600160a060020a038116600090815260056020526040812054610566906d04ee2d6d415b85acef8100000000906100e29061055a8661060a565b9063ffffffff61034d16565b92915050565b600054610595906100ee906100e2346d04ee2d6d415b85acef810000000063ffffffff61030216565b6004556003546105ab903463ffffffff61034d16565b60035560408051348152905133917fe3166012cb87b3dec8e117fe0e096a47387f94ea2ec12086ed8ae24ff8c237fe919081900360200190a2565b60056020526000908152604090205481565b60066020526000908152604090205481565b600160a060020a0381166000908152600660205260408120546004548291610638919063ffffffff61066c16565b600160a060020a03841660009081526001602052604090205490915061066590829063ffffffff61030216565b9392505050565b60008282111561067857fe5b509003905600a165627a7a723058209dcc5453cdafbb5bb930e6a23a25a207afe66d7a47eaf016dc73b626ba0045fa0029",
  "source": "pragma solidity ^0.4.24;\n\nimport '../../math/SafeMath.sol';\nimport './StandardDistribution.sol';\n\n\n// @title Non-Transferable ERC20 token contract with shared revenue distribution functionality.\n// @notice This token contract can receive payments in the fallback function and token owners can withdraw their share\n// @author Kyle Dewhurst, MyBit Foundation\n// Credit goes to Nick Johnson for the dividend token https://medium.com/@weka/dividend-bearing-tokens-on-ethereum-42d01c710657\ncontract FixedDistribution is StandardDistribution {\n  using SafeMath for uint;\n\n  // @notice constructor: initialized\n  constructor(string _tokenURI, address[] _tokenHolders, uint[] _amount)\n  public {\n    require(_tokenHolders.length < 200 && _tokenHolders.length == _amount.length);\n    uint _totalSupply;\n    tokenURI = _tokenURI;\n    for (uint8 i = 0; i < _tokenHolders.length; i++) {\n      _totalSupply = _totalSupply.add(_amount[i]);\n      balances[_tokenHolders[i]] = balances[_tokenHolders[i]].add(_amount[i]);\n    }\n    supply = _totalSupply;\n  }\n}\n",
  "sourcePath": "/home/peter/Documents/Work/MyBit/MyBit-Network.tech/contracts/tokens/distribution/FixedDistribution.sol",
  "compiler": {
    "name": "solc",
    "version": "0.4.24+commit.e67f0147.Emscripten.clang"
  },
  "schemaVersion": "2.0.1",
  "updatedAt": "2018-12-06T01:09:53.267Z"
}