{
  "contractName": "FundingHub",
  "abi": [
    {
      "constant": true,
      "inputs": [],
      "name": "database",
      "outputs": [
        {
          "name": "",
          "type": "address"
        }
      ],
      "payable": false,
      "stateMutability": "view",
      "type": "function"
    },
    {
      "inputs": [
        {
          "name": "_database",
          "type": "address"
        }
      ],
      "payable": false,
      "stateMutability": "nonpayable",
      "type": "constructor"
    },
    {
      "payable": false,
      "stateMutability": "nonpayable",
      "type": "fallback"
    },
    {
      "anonymous": false,
      "inputs": [
        {
          "indexed": true,
          "name": "_assetID",
          "type": "bytes32"
        },
        {
          "indexed": true,
          "name": "_funder",
          "type": "address"
        }
      ],
      "name": "LogNewFunder",
      "type": "event"
    },
    {
      "anonymous": false,
      "inputs": [
        {
          "indexed": true,
          "name": "_assetID",
          "type": "bytes32"
        },
        {
          "indexed": true,
          "name": "_sender",
          "type": "address"
        },
        {
          "indexed": false,
          "name": "_amount",
          "type": "uint256"
        }
      ],
      "name": "LogAssetFunded",
      "type": "event"
    },
    {
      "anonymous": false,
      "inputs": [
        {
          "indexed": true,
          "name": "_assetID",
          "type": "bytes32"
        },
        {
          "indexed": false,
          "name": "_amountRaised",
          "type": "uint256"
        }
      ],
      "name": "LogAssetFundingFailed",
      "type": "event"
    },
    {
      "anonymous": false,
      "inputs": [
        {
          "indexed": true,
          "name": "_assetID",
          "type": "bytes32"
        },
        {
          "indexed": false,
          "name": "_currentEthPrice",
          "type": "uint256"
        },
        {
          "indexed": false,
          "name": "_amountRaised",
          "type": "uint256"
        }
      ],
      "name": "LogAssetFundingSuccess",
      "type": "event"
    },
    {
      "anonymous": false,
      "inputs": [
        {
          "indexed": true,
          "name": "_assetID",
          "type": "bytes32"
        },
        {
          "indexed": true,
          "name": "_funder",
          "type": "address"
        },
        {
          "indexed": false,
          "name": "_amount",
          "type": "uint256"
        }
      ],
      "name": "LogRefund",
      "type": "event"
    },
    {
      "anonymous": false,
      "inputs": [
        {
          "indexed": true,
          "name": "_assetID",
          "type": "bytes32"
        },
        {
          "indexed": false,
          "name": "_amount",
          "type": "uint256"
        }
      ],
      "name": "LogAssetPayout",
      "type": "event"
    },
    {
      "anonymous": false,
      "inputs": [
        {
          "indexed": true,
          "name": "_locationSent",
          "type": "address"
        },
        {
          "indexed": true,
          "name": "_amountSent",
          "type": "uint256"
        },
        {
          "indexed": true,
          "name": "_caller",
          "type": "address"
        }
      ],
      "name": "LogDestruction",
      "type": "event"
    },
    {
      "constant": false,
      "inputs": [
        {
          "name": "_assetID",
          "type": "bytes32"
        }
      ],
      "name": "fund",
      "outputs": [
        {
          "name": "",
          "type": "bool"
        }
      ],
      "payable": true,
      "stateMutability": "payable",
      "type": "function"
    },
    {
      "constant": false,
      "inputs": [
        {
          "name": "_assetID",
          "type": "bytes32"
        }
      ],
      "name": "payout",
      "outputs": [
        {
          "name": "",
          "type": "bool"
        }
      ],
      "payable": false,
      "stateMutability": "nonpayable",
      "type": "function"
    },
    {
      "constant": false,
      "inputs": [
        {
          "name": "_assetID",
          "type": "bytes32"
        }
      ],
      "name": "initiateRefund",
      "outputs": [
        {
          "name": "",
          "type": "bool"
        }
      ],
      "payable": false,
      "stateMutability": "nonpayable",
      "type": "function"
    },
    {
      "constant": false,
      "inputs": [
        {
          "name": "_assetID",
          "type": "bytes32"
        }
      ],
      "name": "refund",
      "outputs": [
        {
          "name": "",
          "type": "bool"
        }
      ],
      "payable": false,
      "stateMutability": "nonpayable",
      "type": "function"
    },
    {
      "constant": false,
      "inputs": [
        {
          "name": "_functionInitiator",
          "type": "address"
        },
        {
          "name": "_holdingAddress",
          "type": "address"
        }
      ],
      "name": "destroy",
      "outputs": [],
      "payable": false,
      "stateMutability": "nonpayable",
      "type": "function"
    }
  ],
  "bytecode": "0x608060405234801561001057600080fd5b50604051602080613a8283398101806040528101908080519060200190929190505050806000806101000a81548173ffffffffffffffffffffffffffffffffffffffff021916908373ffffffffffffffffffffffffffffffffffffffff160217905550506139ff806100836000396000f300608060405260043610610078576000357c0100000000000000000000000000000000000000000000000000000000900463ffffffff16806344a2542a1461008a57806362b40f9f146100d3578063713b563f146101365780637249fbb61461018d578063bf14c119146101d6578063cfefb3d514610212575b34801561008457600080fd5b50600080fd5b34801561009657600080fd5b506100b9600480360381019080803560001916906020019092919050505061025b565b604051808215151515815260200191505060405180910390f35b3480156100df57600080fd5b50610134600480360381019080803573ffffffffffffffffffffffffffffffffffffffff169060200190929190803573ffffffffffffffffffffffffffffffffffffffff1690602001909291905050506108b9565b005b34801561014257600080fd5b5061014b610e12565b604051808273ffffffffffffffffffffffffffffffffffffffff1673ffffffffffffffffffffffffffffffffffffffff16815260200191505060405180910390f35b34801561019957600080fd5b506101bc6004803603810190808035600019169060200190929190505050610e37565b604051808215151515815260200191505060405180910390f35b6101f86004803603810190808035600019169060200190929190505050611907565b604051808215151515815260200191505060405180910390f35b34801561021e57600080fd5b506102416004803603810190808035600019169060200190929190505050612d34565b604051808215151515815260200191505060405180910390f35b6000816000809054906101000a900473ffffffffffffffffffffffffffffffffffffffff1673ffffffffffffffffffffffffffffffffffffffff1663a855d4ce8260405160200180807f66756e64696e67446561646c696e650000000000000000000000000000000000815250600f0182600019166000191681526020019150506040516020818303038152906040526040518082805190602001908083835b60208310151561032057805182526020820191506020810190506020830392506102fb565b6001836020036101000a03801982511681845116808217855250505050505090500191505060405180910390206040518263ffffffff167c0100000000000000000000000000000000000000000000000000000000028152600401808260001916600019168152602001915050602060405180830381600087803b1580156103a757600080fd5b505af11580156103bb573d6000803e3d6000fd5b505050506040513d60208110156103d157600080fd5b810190808051906020019092919050505042101515156103f057600080fd5b826001806000809054906101000a900473ffffffffffffffffffffffffffffffffffffffff1673ffffffffffffffffffffffffffffffffffffffff1663a855d4ce8460405160200180807f66756e64696e6753746167650000000000000000000000000000000000000000815250600c0182600019166000191681526020019150506040516020818303038152906040526040518082805190602001908083835b6020831015156104b65780518252602082019150602081019050602083039250610491565b6001836020036101000a03801982511681845116808217855250505050505090500191505060405180910390206040518263ffffffff167c0100000000000000000000000000000000000000000000000000000000028152600401808260001916600019168152602001915050602060405180830381600087803b15801561053d57600080fd5b505af1158015610551573d6000803e3d6000fd5b505050506040513d602081101561056757600080fd5b810190808051906020019092919050505014151561058457600080fd5b6000809054906101000a900473ffffffffffffffffffffffffffffffffffffffff1673ffffffffffffffffffffffffffffffffffffffff1663e2a4853a8660405160200180807f66756e64696e6753746167650000000000000000000000000000000000000000815250600c0182600019166000191681526020019150506040516020818303038152906040526040518082805190602001908083835b6020831015156106465780518252602082019150602081019050602083039250610621565b6001836020036101000a038019825116818451168082178552505050505050905001915050604051809103902060026040518363ffffffff167c010000000000000000000000000000000000000000000000000000000002815260040180836000191660001916815260200182815260200192505050600060405180830381600087803b1580156106d657600080fd5b505af11580156106ea573d6000803e3d6000fd5b5050505084600019167fa946ebac75e7958f76eca23dda8528aec8e27e72f7a709f94b3777c3bcd9de4c6000809054906101000a900473ffffffffffffffffffffffffffffffffffffffff1673ffffffffffffffffffffffffffffffffffffffff1663a855d4ce8860405160200180807f616d6f756e745261697365640000000000000000000000000000000000000000815250600c0182600019166000191681526020019150506040516020818303038152906040526040518082805190602001908083835b6020831015156107d657805182526020820191506020810190506020830392506107b1565b6001836020036101000a03801982511681845116808217855250505050505090500191505060405180910390206040518263ffffffff167c0100000000000000000000000000000000000000000000000000000000028152600401808260001916600019168152602001915050602060405180830381600087803b15801561085d57600080fd5b505af1158015610871573d6000803e3d6000fd5b505050506040513d602081101561088757600080fd5b81019080805190602001909291905050506040518082815260200191505060405180910390a260019350505050919050565b6000809054906101000a900473ffffffffffffffffffffffffffffffffffffffff1673ffffffffffffffffffffffffffffffffffffffff16633b7bfda03360405160200180807f6f776e65720000000000000000000000000000000000000000000000000000008152506005018273ffffffffffffffffffffffffffffffffffffffff1673ffffffffffffffffffffffffffffffffffffffff166c010000000000000000000000000281526014019150506040516020818303038152906040526040518082805190602001908083835b6020831015156109ae5780518252602082019150602081019050602083039250610989565b6001836020036101000a03801982511681845116808217855250505050505090500191505060405180910390206040518263ffffffff167c0100000000000000000000000000000000000000000000000000000000028152600401808260001916600019168152602001915050602060405180830381600087803b158015610a3557600080fd5b505af1158015610a49573d6000803e3d6000fd5b505050506040513d6020811015610a5f57600080fd5b81019080805190602001909291905050501515610a7b57600080fd5b3373ffffffffffffffffffffffffffffffffffffffff168273ffffffffffffffffffffffffffffffffffffffff1614151515610ab657600080fd5b6000809054906101000a900473ffffffffffffffffffffffffffffffffffffffff1673ffffffffffffffffffffffffffffffffffffffff16633b7bfda0308484604051602001808273ffffffffffffffffffffffffffffffffffffffff1673ffffffffffffffffffffffffffffffffffffffff166c010000000000000000000000000281526014019150506040516020818303038152906040526040518082805190602001908083835b602083101515610b855780518252602082019150602081019050602083039250610b60565b6001836020036101000a0380198251168184511680821785525050505050509050019150506040518091039020604051602001808473ffffffffffffffffffffffffffffffffffffffff1673ffffffffffffffffffffffffffffffffffffffff166c010000000000000000000000000281526014018373ffffffffffffffffffffffffffffffffffffffff1673ffffffffffffffffffffffffffffffffffffffff166c01000000000000000000000000028152601401807f64657374726f7900000000000000000000000000000000000000000000000000815250600701826000191660001916815260200193505050506040516020818303038152906040526040518082805190602001908083835b602083101515610cba5780518252602082019150602081019050602083039250610c95565b6001836020036101000a03801982511681845116808217855250505050505090500191505060405180910390206040518263ffffffff167c0100000000000000000000000000000000000000000000000000000000028152600401808260001916600019168152602001915050602060405180830381600087803b158015610d4157600080fd5b505af1158015610d55573d6000803e3d6000fd5b505050506040513d6020811015610d6b57600080fd5b81019080805190602001909291905050501515610d8757600080fd5b3373ffffffffffffffffffffffffffffffffffffffff163073ffffffffffffffffffffffffffffffffffffffff16318273ffffffffffffffffffffffffffffffffffffffff167f8c7ae8776186c2e87b266886e8af282b7fdb52b47993376583987a14656a367860405160405180910390a48073ffffffffffffffffffffffffffffffffffffffff16ff5b6000809054906101000a900473ffffffffffffffffffffffffffffffffffffffff1681565b60008060008060149054906101000a900460ff16151515610e5757600080fd5b6001600060146101000a81548160ff0219169083151502179055506000809054906101000a900473ffffffffffffffffffffffffffffffffffffffff1673ffffffffffffffffffffffffffffffffffffffff16633b7bfda03060405160200180807f70617573650000000000000000000000000000000000000000000000000000008152506005018273ffffffffffffffffffffffffffffffffffffffff1673ffffffffffffffffffffffffffffffffffffffff166c010000000000000000000000000281526014019150506040516020818303038152906040526040518082805190602001908083835b602083101515610f675780518252602082019150602081019050602083039250610f42565b6001836020036101000a03801982511681845116808217855250505050505090500191505060405180910390206040518263ffffffff167c0100000000000000000000000000000000000000000000000000000000028152600401808260001916600019168152602001915050602060405180830381600087803b158015610fee57600080fd5b505af1158015611002573d6000803e3d6000fd5b505050506040513d602081101561101857600080fd5b810190808051906020019092919050505015151561103557600080fd5b836002806000809054906101000a900473ffffffffffffffffffffffffffffffffffffffff1673ffffffffffffffffffffffffffffffffffffffff1663a855d4ce8460405160200180807f66756e64696e6753746167650000000000000000000000000000000000000000815250600c0182600019166000191681526020019150506040516020818303038152906040526040518082805190602001908083835b6020831015156110fb57805182526020820191506020810190506020830392506110d6565b6001836020036101000a03801982511681845116808217855250505050505090500191505060405180910390206040518263ffffffff167c0100000000000000000000000000000000000000000000000000000000028152600401808260001916600019168152602001915050602060405180830381600087803b15801561118257600080fd5b505af1158015611196573d6000803e3d6000fd5b505050506040513d60208110156111ac57600080fd5b81019080805190602001909291905050501415156111c957600080fd5b6000809054906101000a900473ffffffffffffffffffffffffffffffffffffffff1673ffffffffffffffffffffffffffffffffffffffff1663a855d4ce873360405160200180807f6f776e657273686970556e697473000000000000000000000000000000000000815250600e0183600019166000191681526020018273ffffffffffffffffffffffffffffffffffffffff1673ffffffffffffffffffffffffffffffffffffffff166c01000000000000000000000000028152601401925050506040516020818303038152906040526040518082805190602001908083835b6020831015156112ce57805182526020820191506020810190506020830392506112a9565b6001836020036101000a03801982511681845116808217855250505050505090500191505060405180910390206040518263ffffffff167c0100000000000000000000000000000000000000000000000000000000028152600401808260001916600019168152602001915050602060405180830381600087803b15801561135557600080fd5b505af1158015611369573d6000803e3d6000fd5b505050506040513d602081101561137f57600080fd5b810190808051906020019092919050505093506000841115156113a157600080fd5b6000809054906101000a900473ffffffffffffffffffffffffffffffffffffffff1673ffffffffffffffffffffffffffffffffffffffff1663e2b202bf873360405160200180807f6f776e657273686970556e697473000000000000000000000000000000000000815250600e0183600019166000191681526020018273ffffffffffffffffffffffffffffffffffffffff1673ffffffffffffffffffffffffffffffffffffffff166c01000000000000000000000000028152601401925050506040516020818303038152906040526040518082805190602001908083835b6020831015156114a65780518252602082019150602081019050602083039250611481565b6001836020036101000a03801982511681845116808217855250505050505090500191505060405180910390206040518263ffffffff167c0100000000000000000000000000000000000000000000000000000000028152600401808260001916600019168152602001915050600060405180830381600087803b15801561152d57600080fd5b505af1158015611541573d6000803e3d6000fd5b505050506000809054906101000a900473ffffffffffffffffffffffffffffffffffffffff1673ffffffffffffffffffffffffffffffffffffffff1663a855d4ce8760405160200180807f616d6f756e745261697365640000000000000000000000000000000000000000815250600c0182600019166000191681526020019150506040516020818303038152906040526040518082805190602001908083835b60208310151561160757805182526020820191506020810190506020830392506115e2565b6001836020036101000a03801982511681845116808217855250505050505090500191505060405180910390206040518263ffffffff167c0100000000000000000000000000000000000000000000000000000000028152600401808260001916600019168152602001915050602060405180830381600087803b15801561168e57600080fd5b505af11580156116a2573d6000803e3d6000fd5b505050506040513d60208110156116b857600080fd5b810190808051906020019092919050505092506000809054906101000a900473ffffffffffffffffffffffffffffffffffffffff1673ffffffffffffffffffffffffffffffffffffffff1663e2a4853a8760405160200180807f616d6f756e745261697365640000000000000000000000000000000000000000815250600c0182600019166000191681526020019150506040516020818303038152906040526040518082805190602001908083835b60208310151561178d5780518252602082019150602081019050602083039250611768565b6001836020036101000a03801982511681845116808217855250505050505090500191505060405180910390206117cd878761392d90919063ffffffff16565b6040518363ffffffff167c010000000000000000000000000000000000000000000000000000000002815260040180836000191660001916815260200182815260200192505050600060405180830381600087803b15801561182e57600080fd5b505af1158015611842573d6000803e3d6000fd5b505050503373ffffffffffffffffffffffffffffffffffffffff166108fc859081150290604051600060405180830381858888f1935050505015801561188c573d6000803e3d6000fd5b503373ffffffffffffffffffffffffffffffffffffffff1686600019167f7b6ccf85690b8ce1b7d21a94ca738803a9da7dc74e10140f269efa0d8d6fb851866040518082815260200191505060405180910390a360019450505060008060146101000a81548160ff0219169083151502179055505050919050565b6000806000803411151561191a57600080fd5b6000809054906101000a900473ffffffffffffffffffffffffffffffffffffffff1673ffffffffffffffffffffffffffffffffffffffff16633b7bfda03060405160200180807f70617573650000000000000000000000000000000000000000000000000000008152506005018273ffffffffffffffffffffffffffffffffffffffff1673ffffffffffffffffffffffffffffffffffffffff166c010000000000000000000000000281526014019150506040516020818303038152906040526040518082805190602001908083835b602083101515611a0f57805182526020820191506020810190506020830392506119ea565b6001836020036101000a03801982511681845116808217855250505050505090500191505060405180910390206040518263ffffffff167c0100000000000000000000000000000000000000000000000000000000028152600401808260001916600019168152602001915050602060405180830381600087803b158015611a9657600080fd5b505af1158015611aaa573d6000803e3d6000fd5b505050506040513d6020811015611ac057600080fd5b8101908080519060200190929190505050151515611add57600080fd5b836001806000809054906101000a900473ffffffffffffffffffffffffffffffffffffffff1673ffffffffffffffffffffffffffffffffffffffff1663a855d4ce8460405160200180807f66756e64696e6753746167650000000000000000000000000000000000000000815250600c0182600019166000191681526020019150506040516020818303038152906040526040518082805190602001908083835b602083101515611ba35780518252602082019150602081019050602083039250611b7e565b6001836020036101000a03801982511681845116808217855250505050505090500191505060405180910390206040518263ffffffff167c0100000000000000000000000000000000000000000000000000000000028152600401808260001916600019168152602001915050602060405180830381600087803b158015611c2a57600080fd5b505af1158015611c3e573d6000803e3d6000fd5b505050506040513d6020811015611c5457600080fd5b8101908080519060200190929190505050141515611c7157600080fd5b6000809054906101000a900473ffffffffffffffffffffffffffffffffffffffff1673ffffffffffffffffffffffffffffffffffffffff1663a855d4ce60405160200180807f707269636545787069726174696f6e0000000000000000000000000000000000815250600f0190506040516020818303038152906040526040518082805190602001908083835b602083101515611d235780518252602082019150602081019050602083039250611cfe565b6001836020036101000a03801982511681845116808217855250505050505090500191505060405180910390206040518263ffffffff167c0100000000000000000000000000000000000000000000000000000000028152600401808260001916600019168152602001915050602060405180830381600087803b158015611daa57600080fd5b505af1158015611dbe573d6000803e3d6000fd5b505050506040513d6020811015611dd457600080fd5b810190808051906020019092919050505042101515611df257600080fd5b856000806000809054906101000a900473ffffffffffffffffffffffffffffffffffffffff1673ffffffffffffffffffffffffffffffffffffffff1663a855d4ce8460405160200180807f66756e64696e67446561646c696e650000000000000000000000000000000000815250600f0182600019166000191681526020019150506040516020818303038152906040526040518082805190602001908083835b602083101515611eb85780518252602082019150602081019050602083039250611e93565b6001836020036101000a03801982511681845116808217855250505050505090500191505060405180910390206040518263ffffffff167c0100000000000000000000000000000000000000000000000000000000028152600401808260001916600019168152602001915050602060405180830381600087803b158015611f3f57600080fd5b505af1158015611f53573d6000803e3d6000fd5b505050506040513d6020811015611f6957600080fd5b81019080805190602001909291905050504211151515611f8857600080fd5b6000809054906101000a900473ffffffffffffffffffffffffffffffffffffffff1673ffffffffffffffffffffffffffffffffffffffff1663a855d4ce60405160200180807f6574685553445072696365000000000000000000000000000000000000000000815250600b0190506040516020818303038152906040526040518082805190602001908083835b60208310151561203a5780518252602082019150602081019050602083039250612015565b6001836020036101000a03801982511681845116808217855250505050505090500191505060405180910390206040518263ffffffff167c0100000000000000000000000000000000000000000000000000000000028152600401808260001916600019168152602001915050602060405180830381600087803b1580156120c157600080fd5b505af11580156120d5573d6000803e3d6000fd5b505050506040513d60208110156120eb57600080fd5b8101908080519060200190929190505050915060008211151561210a57fe5b6000809054906101000a900473ffffffffffffffffffffffffffffffffffffffff1673ffffffffffffffffffffffffffffffffffffffff1663a855d4ce8a3360405160200180807f6f776e657273686970556e697473000000000000000000000000000000000000815250600e0183600019166000191681526020018273ffffffffffffffffffffffffffffffffffffffff1673ffffffffffffffffffffffffffffffffffffffff166c01000000000000000000000000028152601401925050506040516020818303038152906040526040518082805190602001908083835b60208310151561220f57805182526020820191506020810190506020830392506121ea565b6001836020036101000a03801982511681845116808217855250505050505090500191505060405180910390206040518263ffffffff167c0100000000000000000000000000000000000000000000000000000000028152600401808260001916600019168152602001915050602060405180830381600087803b15801561229657600080fd5b505af11580156122aa573d6000803e3d6000fd5b505050506040513d60208110156122c057600080fd5b810190808051906020019092919050505096506000871415612325573373ffffffffffffffffffffffffffffffffffffffff1689600019167fa1e9db5829418205d34d8823e5d72d89769c56512622ab5acf29b9f2554a13f060405160405180910390a35b6000809054906101000a900473ffffffffffffffffffffffffffffffffffffffff1673ffffffffffffffffffffffffffffffffffffffff1663a855d4ce8a60405160200180807f616d6f756e745261697365640000000000000000000000000000000000000000815250600c0182600019166000191681526020019150506040516020818303038152906040526040518082805190602001908083835b6020831015156123e757805182526020820191506020810190506020830392506123c2565b6001836020036101000a03801982511681845116808217855250505050505090500191505060405180910390206040518263ffffffff167c0100000000000000000000000000000000000000000000000000000000028152600401808260001916600019168152602001915050602060405180830381600087803b15801561246e57600080fd5b505af1158015612482573d6000803e3d6000fd5b505050506040513d602081101561249857600080fd5b810190808051906020019092919050505095506000809054906101000a900473ffffffffffffffffffffffffffffffffffffffff1673ffffffffffffffffffffffffffffffffffffffff1663e2a4853a8a60405160200180807f616d6f756e745261697365640000000000000000000000000000000000000000815250600c0182600019166000191681526020019150506040516020818303038152906040526040518082805190602001908083835b60208310151561256d5780518252602082019150602081019050602083039250612548565b6001836020036101000a03801982511681845116808217855250505050505090500191505060405180910390206125ad348a61394690919063ffffffff16565b6040518363ffffffff167c010000000000000000000000000000000000000000000000000000000002815260040180836000191660001916815260200182815260200192505050600060405180830381600087803b15801561260e57600080fd5b505af1158015612622573d6000803e3d6000fd5b505050506000809054906101000a900473ffffffffffffffffffffffffffffffffffffffff1673ffffffffffffffffffffffffffffffffffffffff1663e2a4853a8a3360405160200180807f6f776e657273686970556e697473000000000000000000000000000000000000815250600e0183600019166000191681526020018273ffffffffffffffffffffffffffffffffffffffff1673ffffffffffffffffffffffffffffffffffffffff166c01000000000000000000000000028152601401925050506040516020818303038152906040526040518082805190602001908083835b60208310151561272b5780518252602082019150602081019050602083039250612706565b6001836020036101000a038019825116818451168082178552505050505050905001915050604051809103902061276b348b61394690919063ffffffff16565b6040518363ffffffff167c010000000000000000000000000000000000000000000000000000000002815260040180836000191660001916815260200182815260200192505050600060405180830381600087803b1580156127cc57600080fd5b505af11580156127e0573d6000803e3d6000fd5b505050503373ffffffffffffffffffffffffffffffffffffffff1689600019167fdfae09646add0c3ff3c8a61988fda3ec21616837b9cf280a54385d3da0997355346040518082815260200191505060405180910390a3600197506000809054906101000a900473ffffffffffffffffffffffffffffffffffffffff1673ffffffffffffffffffffffffffffffffffffffff1663a855d4ce8460405160200180807f616d6f756e745261697365640000000000000000000000000000000000000000815250600c0182600019166000191681526020019150506040516020818303038152906040526040518082805190602001908083835b6020831015156128fd57805182526020820191506020810190506020830392506128d8565b6001836020036101000a03801982511681845116808217855250505050505090500191505060405180910390206040518263ffffffff167c0100000000000000000000000000000000000000000000000000000000028152600401808260001916600019168152602001915050602060405180830381600087803b15801561298457600080fd5b505af1158015612998573d6000803e3d6000fd5b505050506040513d60208110156129ae57600080fd5b810190808051906020019092919050505090506000809054906101000a900473ffffffffffffffffffffffffffffffffffffffff1673ffffffffffffffffffffffffffffffffffffffff1663a855d4ce8460405160200180807f616d6f756e74546f42655261697365640000000000000000000000000000000081525060100182600019166000191681526020019150506040516020818303038152906040526040518082805190602001908083835b602083101515612a835780518252602082019150602081019050602083039250612a5e565b6001836020036101000a03801982511681845116808217855250505050505090500191505060405180910390206040518263ffffffff167c0100000000000000000000000000000000000000000000000000000000028152600401808260001916600019168152602001915050602060405180830381600087803b158015612b0a57600080fd5b505af1158015612b1e573d6000803e3d6000fd5b505050506040513d6020811015612b3457600080fd5b8101908080519060200190929190505050612b72670de0b6b3a7640000612b64858561396490919063ffffffff16565b61399f90919063ffffffff16565b101515612d28576000809054906101000a900473ffffffffffffffffffffffffffffffffffffffff1673ffffffffffffffffffffffffffffffffffffffff1663e2a4853a8460405160200180807f66756e64696e6753746167650000000000000000000000000000000000000000815250600c0182600019166000191681526020019150506040516020818303038152906040526040518082805190602001908083835b602083101515612c3b5780518252602082019150602081019050602083039250612c16565b6001836020036101000a038019825116818451168082178552505050505050905001915050604051809103902060036040518363ffffffff167c010000000000000000000000000000000000000000000000000000000002815260040180836000191660001916815260200182815260200192505050600060405180830381600087803b158015612ccb57600080fd5b505af1158015612cdf573d6000803e3d6000fd5b5050505082600019167fca2bea473aeb046f60d64c3377f67f3648239971bf752a2515649ff970dd13ef8383604051808381526020018281526020019250505060405180910390a25b50505050505050919050565b600080600080600060149054906101000a900460ff16151515612d5657600080fd5b6001600060146101000a81548160ff0219169083151502179055506000809054906101000a900473ffffffffffffffffffffffffffffffffffffffff1673ffffffffffffffffffffffffffffffffffffffff16633b7bfda03060405160200180807f70617573650000000000000000000000000000000000000000000000000000008152506005018273ffffffffffffffffffffffffffffffffffffffff1673ffffffffffffffffffffffffffffffffffffffff166c010000000000000000000000000281526014019150506040516020818303038152906040526040518082805190602001908083835b602083101515612e665780518252602082019150602081019050602083039250612e41565b6001836020036101000a03801982511681845116808217855250505050505090500191505060405180910390206040518263ffffffff167c0100000000000000000000000000000000000000000000000000000000028152600401808260001916600019168152602001915050602060405180830381600087803b158015612eed57600080fd5b505af1158015612f01573d6000803e3d6000fd5b505050506040513d6020811015612f1757600080fd5b8101908080519060200190929190505050151515612f3457600080fd5b846003806000809054906101000a900473ffffffffffffffffffffffffffffffffffffffff1673ffffffffffffffffffffffffffffffffffffffff1663a855d4ce8460405160200180807f66756e64696e6753746167650000000000000000000000000000000000000000815250600c0182600019166000191681526020019150506040516020818303038152906040526040518082805190602001908083835b602083101515612ffa5780518252602082019150602081019050602083039250612fd5565b6001836020036101000a03801982511681845116808217855250505050505090500191505060405180910390206040518263ffffffff167c0100000000000000000000000000000000000000000000000000000000028152600401808260001916600019168152602001915050602060405180830381600087803b15801561308157600080fd5b505af1158015613095573d6000803e3d6000fd5b505050506040513d60208110156130ab57600080fd5b81019080805190602001909291905050501415156130c857600080fd5b6000809054906101000a900473ffffffffffffffffffffffffffffffffffffffff1673ffffffffffffffffffffffffffffffffffffffff1663a855d4ce8860405160200180807f616d6f756e745261697365640000000000000000000000000000000000000000815250600c0182600019166000191681526020019150506040516020818303038152906040526040518082805190602001908083835b60208310151561318a5780518252602082019150602081019050602083039250613165565b6001836020036101000a03801982511681845116808217855250505050505090500191505060405180910390206040518263ffffffff167c0100000000000000000000000000000000000000000000000000000000028152600401808260001916600019168152602001915050602060405180830381600087803b15801561321157600080fd5b505af1158015613225573d6000803e3d6000fd5b505050506040513d602081101561323b57600080fd5b810190808051906020019092919050505094506133d46000809054906101000a900473ffffffffffffffffffffffffffffffffffffffff1673ffffffffffffffffffffffffffffffffffffffff1663a855d4ce60405160200180807f6d79426974466f756e646174696f6e50657263656e746167650000000000000081525060190190506040516020818303038152906040526040518082805190602001908083835b60208310151561330357805182526020820191506020810190506020830392506132de565b6001836020036101000a03801982511681845116808217855250505050505090500191505060405180910390206040518263ffffffff167c0100000000000000000000000000000000000000000000000000000000028152600401808260001916600019168152602001915050602060405180830381600087803b15801561338a57600080fd5b505af115801561339e573d6000803e3d6000fd5b505050506040513d60208110156133b457600080fd5b8101908080519060200190929190505050866139b590919063ffffffff16565b93506133e9848661392d90919063ffffffff16565b92506000809054906101000a900473ffffffffffffffffffffffffffffffffffffffff1673ffffffffffffffffffffffffffffffffffffffff166304f49a3a60405160200180807f4d79426974466f756e646174696f6e0000000000000000000000000000000000815250600f0190506040516020818303038152906040526040518082805190602001908083835b60208310151561349d5780518252602082019150602081019050602083039250613478565b6001836020036101000a03801982511681845116808217855250505050505090500191505060405180910390206040518263ffffffff167c0100000000000000000000000000000000000000000000000000000000028152600401808260001916600019168152602001915050602060405180830381600087803b15801561352457600080fd5b505af1158015613538573d6000803e3d6000fd5b505050506040513d602081101561354e57600080fd5b810190808051906020019092919050505073ffffffffffffffffffffffffffffffffffffffff166108fc859081150290604051600060405180830381858888f193505050501580156135a4573d6000803e3d6000fd5b506000809054906101000a900473ffffffffffffffffffffffffffffffffffffffff1673ffffffffffffffffffffffffffffffffffffffff166304f49a3a60405160200180807f496e7374616c6c6572457363726f770000000000000000000000000000000000815250600f0190506040516020818303038152906040526040518082805190602001908083835b6020831015156136575780518252602082019150602081019050602083039250613632565b6001836020036101000a03801982511681845116808217855250505050505090500191505060405180910390206040518263ffffffff167c0100000000000000000000000000000000000000000000000000000000028152600401808260001916600019168152602001915050602060405180830381600087803b1580156136de57600080fd5b505af11580156136f2573d6000803e3d6000fd5b505050506040513d602081101561370857600080fd5b810190808051906020019092919050505073ffffffffffffffffffffffffffffffffffffffff166108fc849081150290604051600060405180830381858888f1935050505015801561375e573d6000803e3d6000fd5b506000809054906101000a900473ffffffffffffffffffffffffffffffffffffffff1673ffffffffffffffffffffffffffffffffffffffff1663e2a4853a8860405160200180807f66756e64696e6753746167650000000000000000000000000000000000000000815250600c0182600019166000191681526020019150506040516020818303038152906040526040518082805190602001908083835b60208310151561382157805182526020820191506020810190506020830392506137fc565b6001836020036101000a038019825116818451168082178552505050505050905001915050604051809103902060046040518363ffffffff167c010000000000000000000000000000000000000000000000000000000002815260040180836000191660001916815260200182815260200192505050600060405180830381600087803b1580156138b157600080fd5b505af11580156138c5573d6000803e3d6000fd5b5050505086600019167fb91cc48e5aadfdc16d855301e83a9a7088f6ba3850a8f3bdee70f4af7c3825df866040518082815260200191505060405180910390a260019550505060008060146101000a81548160ff021916908315150217905550505050919050565b600082821115151561393b57fe5b818303905092915050565b600080828401905083811015151561395a57fe5b8091505092915050565b60008060008414156139795760009150613998565b828402905082848281151561398a57fe5b0414151561399457fe5b8091505b5092915050565b600081838115156139ac57fe5b04905092915050565b60006139cb6139c48484613964565b606461399f565b9050929150505600a165627a7a7230582053d800105c57e5ad842ee4c1ce8077ecb9fd5f73895a689970b2449247e306c90029",
  "source": "  pragma solidity 0.4.24;\n\n  import \"./SafeMath.sol\";\n  import \"./Database.sol\";\n\n  //------------------------------------------------------------------------------------------------------------------\n  // This contract is where users can fund assets or receive refunds from failed funding periods. Funding stages are represented by uints.\n  // Funding stages: 0: funding hasn't started, 1: currently being funded, 2: funding failed,  3: funding success, 4: asset is live\n  //------------------------------------------------------------------------------------------------------------------\n  contract FundingHub {\n    using SafeMath for *;\n\n    Database public database;\n\n    bool private rentrancy_lock;    // Prevents re-entrancy attack\n\n    //------------------------------------------------------------------------------------------------------------------\n    // Contructor:\n    // @Param: The address for the MyBit database\n    //------------------------------------------------------------------------------------------------------------------\n    constructor(address _database)\n    public {\n        database = Database(_database);\n    }\n\n    //------------------------------------------------------------------------------------------------------------------\n    // Users can send Ether here to fund asset if funding goal hasn't been reached and the funding period isn't over.\n    // Invariants: Requires Eth be sent with transaction |  Must be in funding stage. Must be under goal | Must have KYC approved. | contract is not paused\n    //------------------------------------------------------------------------------------------------------------------\n    function fund(bytes32 _assetID)\n    external\n    payable\n    requiresEther\n    whenNotPaused\n    atStage(_assetID, uint(1))\n    priceUpdated\n    fundingLimit(_assetID)\n    // onlyApproved   TODO: uncomment when inner-alpha done\n    returns (bool) {\n      uint ownershipUnits = database.uintStorage(keccak256(abi.encodePacked(\"ownershipUnits\", _assetID, msg.sender)));\n      if (ownershipUnits == 0) {\n        emit LogNewFunder(_assetID, msg.sender);    // Create event to reference list of funders\n      }\n      uint amountRaised = database.uintStorage(keccak256(abi.encodePacked(\"amountRaised\", _assetID)));\n      database.setUint(keccak256(abi.encodePacked(\"amountRaised\", _assetID)), amountRaised.add(msg.value));\n      database.setUint(keccak256(abi.encodePacked(\"ownershipUnits\", _assetID, msg.sender)), ownershipUnits.add(msg.value));\n      emit LogAssetFunded(_assetID, msg.sender, msg.value);\n      return true;\n    }\n\n    //------------------------------------------------------------------------------------------------------------------\n    // This is called once funding has succeeded. Sends Ether to installer, foundation and Token Holders\n    // Invariants: Must be in stage FundingSuccess | MyBitFoundation + AssetEscrow  + BugEscrow addresses are set | Contract is not paused\n    // Note: Will fail if addresses + percentages are not set. AmountRaised = WeiRaised = ownershipUnits\n    // TODO: Installer gets extra 1-2 wei from solidity rounding down when faced with fraction\n    // TODO: Create asset tokens here\n    //------------------------------------------------------------------------------------------------------------------\n    function payout(bytes32 _assetID)\n    external\n    nonReentrant\n    whenNotPaused\n    atStage(_assetID, uint(3))       // Can only get to stage 3 by receiving enough funding within time limit\n    returns (bool) {\n      uint amountRaised = database.uintStorage(keccak256(abi.encodePacked(\"amountRaised\", _assetID)));\n      uint myBitAmount = amountRaised.getFractionalAmount(database.uintStorage(keccak256(abi.encodePacked(\"myBitFoundationPercentage\"))));\n      uint installerAmount = amountRaised.sub(myBitAmount);\n      database.addressStorage(keccak256(abi.encodePacked(\"MyBitFoundation\"))).transfer(myBitAmount);             // Must be normal account\n      database.addressStorage(keccak256(abi.encodePacked(\"InstallerEscrow\"))).transfer(installerAmount);             // Must be normal account\n      database.setUint(keccak256(abi.encodePacked(\"fundingStage\", _assetID)), uint(4));\n      emit LogAssetPayout(_assetID, amountRaised);\n      return true;\n    }\n\n    //------------------------------------------------------------------------------------------------------------------\n    // This function needs to be called to allow refunds to be made. Signals to the myBitHub contract that funding has failed + moves stage to Funding failed\n    // Invariants: Must be still be in funding stage | must be passed deadline\n    //------------------------------------------------------------------------------------------------------------------\n    function initiateRefund(bytes32 _assetID)\n    external\n    fundingPeriodOver(_assetID)\n    atStage(_assetID, uint(1))\n    returns (bool) {\n      database.setUint(keccak256(abi.encodePacked(\"fundingStage\", _assetID)), uint(2));\n      emit LogAssetFundingFailed(_assetID, database.uintStorage(keccak256(abi.encodePacked(\"amountRaised\", _assetID))));\n      return true;\n    }\n\n    //------------------------------------------------------------------------------------------------------------------\n    // Contributors can retrieve their funds here if campaign is finished + failure and initateRefund() has been called.\n    // Invariants: sender must have ownershipUnits | Must be in failed funding stage || No re-entry | Contract must not be paused\n    //------------------------------------------------------------------------------------------------------------------\n    function refund(bytes32 _assetID)\n    external\n    nonReentrant\n    whenNotPaused\n    atStage(_assetID, uint(2))\n    returns (bool) {\n      uint ownershipUnits = database.uintStorage(keccak256(abi.encodePacked(\"ownershipUnits\", _assetID, msg.sender)));\n      require (ownershipUnits > uint(0));\n      database.deleteUint(keccak256(abi.encodePacked(\"ownershipUnits\", _assetID, msg.sender)));\n      uint amountRaised = database.uintStorage(keccak256(abi.encodePacked(\"amountRaised\", _assetID)));\n      database.setUint(keccak256(abi.encodePacked(\"amountRaised\", _assetID)), amountRaised.sub(ownershipUnits));\n      msg.sender.transfer(ownershipUnits);\n      emit LogRefund(_assetID, msg.sender, ownershipUnits);\n      return true;\n    }\n\n    //------------------------------------------------------------------------------------------------------------------\n    // Must be authorized by 1 of the 3 owners and then can be called by any of the other 2\n    // Invariants: Must be 1 of 3 owners. Cannot be called by same owner who authorized the function to be called.\n    //------------------------------------------------------------------------------------------------------------------\n    function destroy(address _functionInitiator, address _holdingAddress)\n    anyOwner\n    public {\n      require(_functionInitiator != msg.sender);\n      require(database.boolStorage(keccak256(abi.encodePacked(address(this), _functionInitiator, \"destroy\", keccak256(abi.encodePacked(_holdingAddress))))));\n      emit LogDestruction(_holdingAddress, address(this).balance, msg.sender);\n      selfdestruct(_holdingAddress);\n    }\n\n\n    //------------------------------------------------------------------------------------------------------------------\n    //                                            Modifiers\n    //------------------------------------------------------------------------------------------------------------------\n\n    //------------------------------------------------------------------------------------------------------------------\n    // Requires caller is one of the three owners\n    //------------------------------------------------------------------------------------------------------------------\n    modifier anyOwner {\n      require(database.boolStorage(keccak256(abi.encodePacked(\"owner\", msg.sender))));\n      _;\n    }\n\n    //------------------------------------------------------------------------------------------------------------------\n    // Requires that the contract is not paused\n    //------------------------------------------------------------------------------------------------------------------\n    modifier whenNotPaused {\n      require(!database.boolStorage(keccak256(abi.encodePacked(\"pause\", address(this)))));\n      _;\n    }\n\n    //------------------------------------------------------------------------------------------------------------------\n    // Don't let function caller re-enter function before initial transaction finishes\n    //------------------------------------------------------------------------------------------------------------------\n    modifier nonReentrant() {\n      require(!rentrancy_lock);\n      rentrancy_lock = true;\n      _;\n      rentrancy_lock = false;\n    }\n\n    //------------------------------------------------------------------------------------------------------------------\n    // Requires that Ether is sent with the transaction\n    //------------------------------------------------------------------------------------------------------------------\n    modifier requiresEther() {\n      require(msg.value > 0);\n      _;\n    }\n\n    //------------------------------------------------------------------------------------------------------------------\n    // Requires user has burnt tokens to access this function\n    //------------------------------------------------------------------------------------------------------------------\n    modifier onlyApproved{\n      require(database.uintStorage(keccak256(abi.encodePacked(\"userAccess\", msg.sender))) >= uint(1));\n      require(database.uintStorage(keccak256(abi.encodePacked(\"userAccessExpiration\", msg.sender))) > now);\n      _;\n    }\n\n    //------------------------------------------------------------------------------------------------------------------\n    // Transitions funding period to success if enough Ether is raised\n    // Must be in funding stage 3 (currently being funded).\n    // Deletes funding raising variables if current transaction puts it over the goal.\n    // TODO: Limit how far over the goal users are allowed to fund?\n    //------------------------------------------------------------------------------------------------------------------\n    modifier fundingLimit(bytes32 _assetID) {\n      require(now <= database.uintStorage(keccak256(abi.encodePacked(\"fundingDeadline\", _assetID))));\n      uint currentEthPrice = database.uintStorage(keccak256(abi.encodePacked(\"ethUSDPrice\")));\n      assert (currentEthPrice > uint(0));\n      _;\n      uint amountRaised = database.uintStorage(keccak256(abi.encodePacked(\"amountRaised\", _assetID))); \n      if (amountRaised.mul(currentEthPrice).div(1e18) >= database.uintStorage(keccak256(abi.encodePacked(\"amountToBeRaised\", _assetID)))) {\n         database.setUint(keccak256(abi.encodePacked(\"fundingStage\", _assetID)), uint(3));\n         emit LogAssetFundingSuccess(_assetID, currentEthPrice, amountRaised);\n        }\n    }\n\n    //------------------------------------------------------------------------------------------------------------------\n    // Check that the Ether/USD prices have been updated\n    //------------------------------------------------------------------------------------------------------------------\n    modifier priceUpdated {\n      require (now < database.uintStorage(keccak256(abi.encodePacked(\"priceExpiration\"))));\n      _;\n    }\n\n    //------------------------------------------------------------------------------------------------------------------\n    // Requires the funding stage is at a particular stage\n    //------------------------------------------------------------------------------------------------------------------\n    modifier atStage(bytes32 _assetID, uint _stage) {\n      require(database.uintStorage(keccak256(abi.encodePacked(\"fundingStage\", _assetID))) == _stage);\n      _;\n    }\n\n    //------------------------------------------------------------------------------------------------------------------\n    // Requires that the funding deadline has passed\n    //------------------------------------------------------------------------------------------------------------------\n    modifier fundingPeriodOver(bytes32 _assetID) {\n      require(now >= database.uintStorage(keccak256(abi.encodePacked(\"fundingDeadline\", _assetID))));\n      _;\n    }\n\n    //------------------------------------------------------------------------------------------------------------------\n    // Fallback: Reject Ether\n    //------------------------------------------------------------------------------------------------------------------\n    function ()\n    public {\n      revert();\n    }\n\n\n    //------------------------------------------------------------------------------------------------------------------\n    //                                            Events\n    //------------------------------------------------------------------------------------------------------------------\n\n    event LogNewFunder(bytes32 indexed _assetID, address indexed _funder);\n    event LogAssetFunded(bytes32 indexed _assetID, address indexed _sender, uint _amount);\n    event LogAssetFundingFailed(bytes32 indexed _assetID, uint _amountRaised);\n    event LogAssetFundingSuccess(bytes32 indexed _assetID, uint _currentEthPrice, uint _amountRaised);\n    event LogRefund(bytes32 indexed _assetID, address indexed _funder, uint _amount);\n    event LogAssetPayout(bytes32 indexed _assetID, uint _amount);\n    event LogDestruction(address indexed _locationSent, uint indexed _amountSent, address indexed _caller);\n  }\n",
  "sourcePath": "/home/peter/Documents/Work/MyBit/MyBit-Network.tech/contracts/alphacontracts/contracts/FundingHub.sol",
  "compiler": {
    "name": "solc",
    "version": "0.4.24+commit.e67f0147.Emscripten.clang"
  },
  "schemaVersion": "2.0.1",
  "updatedAt": "2018-09-08T14:16:35.198Z"
}