{
  "contractName": "GovernedTokenERC20",
  "abi": [
    {
      "constant": true,
      "inputs": [],
      "name": "mintingFinished",
      "outputs": [
        {
          "name": "",
          "type": "bool"
        }
      ],
      "payable": false,
      "stateMutability": "view",
      "type": "function"
    },
    {
      "constant": false,
      "inputs": [
        {
          "name": "_spender",
          "type": "address"
        },
        {
          "name": "_value",
          "type": "uint256"
        }
      ],
      "name": "approve",
      "outputs": [
        {
          "name": "",
          "type": "bool"
        }
      ],
      "payable": false,
      "stateMutability": "nonpayable",
      "type": "function"
    },
    {
      "constant": true,
      "inputs": [
        {
          "name": "_investor",
          "type": "address"
        }
      ],
      "name": "getAmountAvailable",
      "outputs": [
        {
          "name": "",
          "type": "uint256"
        }
      ],
      "payable": false,
      "stateMutability": "view",
      "type": "function"
    },
    {
      "constant": true,
      "inputs": [],
      "name": "totalSupply",
      "outputs": [
        {
          "name": "",
          "type": "uint256"
        }
      ],
      "payable": false,
      "stateMutability": "view",
      "type": "function"
    },
    {
      "constant": true,
      "inputs": [],
      "name": "assetIncome",
      "outputs": [
        {
          "name": "",
          "type": "uint256"
        }
      ],
      "payable": false,
      "stateMutability": "view",
      "type": "function"
    },
    {
      "constant": true,
      "inputs": [],
      "name": "assetIncomeIssued",
      "outputs": [
        {
          "name": "",
          "type": "uint256"
        }
      ],
      "payable": false,
      "stateMutability": "view",
      "type": "function"
    },
    {
      "constant": false,
      "inputs": [],
      "name": "checkForTransfers",
      "outputs": [],
      "payable": false,
      "stateMutability": "nonpayable",
      "type": "function"
    },
    {
      "constant": true,
      "inputs": [
        {
          "name": "_investor",
          "type": "address"
        }
      ],
      "name": "getAmountOwed",
      "outputs": [
        {
          "name": "",
          "type": "uint256"
        }
      ],
      "payable": false,
      "stateMutability": "view",
      "type": "function"
    },
    {
      "constant": false,
      "inputs": [],
      "name": "withdraw",
      "outputs": [
        {
          "name": "",
          "type": "bool"
        }
      ],
      "payable": false,
      "stateMutability": "nonpayable",
      "type": "function"
    },
    {
      "constant": false,
      "inputs": [
        {
          "name": "_to",
          "type": "address"
        },
        {
          "name": "_amount",
          "type": "uint256"
        }
      ],
      "name": "mint",
      "outputs": [
        {
          "name": "",
          "type": "bool"
        }
      ],
      "payable": false,
      "stateMutability": "nonpayable",
      "type": "function"
    },
    {
      "constant": false,
      "inputs": [
        {
          "name": "_amount",
          "type": "uint256"
        }
      ],
      "name": "burn",
      "outputs": [
        {
          "name": "success",
          "type": "bool"
        }
      ],
      "payable": false,
      "stateMutability": "nonpayable",
      "type": "function"
    },
    {
      "constant": true,
      "inputs": [],
      "name": "getERC20",
      "outputs": [
        {
          "name": "",
          "type": "address"
        }
      ],
      "payable": false,
      "stateMutability": "view",
      "type": "function"
    },
    {
      "constant": false,
      "inputs": [
        {
          "name": "_amount",
          "type": "uint256"
        }
      ],
      "name": "issueDividends",
      "outputs": [
        {
          "name": "",
          "type": "bool"
        }
      ],
      "payable": false,
      "stateMutability": "nonpayable",
      "type": "function"
    },
    {
      "constant": true,
      "inputs": [
        {
          "name": "_investor",
          "type": "address"
        }
      ],
      "name": "collectLatestPayments",
      "outputs": [
        {
          "name": "",
          "type": "uint256"
        }
      ],
      "payable": false,
      "stateMutability": "view",
      "type": "function"
    },
    {
      "constant": false,
      "inputs": [
        {
          "name": "_amount",
          "type": "uint256"
        }
      ],
      "name": "unlock",
      "outputs": [
        {
          "name": "success",
          "type": "bool"
        }
      ],
      "payable": false,
      "stateMutability": "nonpayable",
      "type": "function"
    },
    {
      "constant": false,
      "inputs": [
        {
          "name": "_spender",
          "type": "address"
        },
        {
          "name": "_subtractedValue",
          "type": "uint256"
        }
      ],
      "name": "decreaseApproval",
      "outputs": [
        {
          "name": "",
          "type": "bool"
        }
      ],
      "payable": false,
      "stateMutability": "nonpayable",
      "type": "function"
    },
    {
      "constant": true,
      "inputs": [
        {
          "name": "_owner",
          "type": "address"
        }
      ],
      "name": "balanceOf",
      "outputs": [
        {
          "name": "",
          "type": "uint256"
        }
      ],
      "payable": false,
      "stateMutability": "view",
      "type": "function"
    },
    {
      "constant": true,
      "inputs": [],
      "name": "database",
      "outputs": [
        {
          "name": "",
          "type": "address"
        }
      ],
      "payable": false,
      "stateMutability": "view",
      "type": "function"
    },
    {
      "constant": true,
      "inputs": [],
      "name": "erc20",
      "outputs": [
        {
          "name": "",
          "type": "address"
        }
      ],
      "payable": false,
      "stateMutability": "view",
      "type": "function"
    },
    {
      "constant": false,
      "inputs": [
        {
          "name": "_from",
          "type": "address"
        },
        {
          "name": "_amount",
          "type": "uint256"
        }
      ],
      "name": "burnFrom",
      "outputs": [
        {
          "name": "success",
          "type": "bool"
        }
      ],
      "payable": false,
      "stateMutability": "nonpayable",
      "type": "function"
    },
    {
      "constant": false,
      "inputs": [],
      "name": "finishMinting",
      "outputs": [
        {
          "name": "",
          "type": "bool"
        }
      ],
      "payable": false,
      "stateMutability": "nonpayable",
      "type": "function"
    },
    {
      "constant": true,
      "inputs": [],
      "name": "valuePerToken",
      "outputs": [
        {
          "name": "",
          "type": "uint256"
        }
      ],
      "payable": false,
      "stateMutability": "view",
      "type": "function"
    },
    {
      "constant": true,
      "inputs": [
        {
          "name": "",
          "type": "address"
        }
      ],
      "name": "incomeClaimed",
      "outputs": [
        {
          "name": "",
          "type": "uint256"
        }
      ],
      "payable": false,
      "stateMutability": "view",
      "type": "function"
    },
    {
      "constant": false,
      "inputs": [
        {
          "name": "_spender",
          "type": "address"
        },
        {
          "name": "_amount",
          "type": "uint256"
        },
        {
          "name": "_data",
          "type": "bytes"
        }
      ],
      "name": "approveAndCall",
      "outputs": [
        {
          "name": "success",
          "type": "bool"
        }
      ],
      "payable": false,
      "stateMutability": "nonpayable",
      "type": "function"
    },
    {
      "constant": true,
      "inputs": [],
      "name": "getTokenURI",
      "outputs": [
        {
          "name": "",
          "type": "string"
        }
      ],
      "payable": false,
      "stateMutability": "view",
      "type": "function"
    },
    {
      "constant": false,
      "inputs": [
        {
          "name": "_spender",
          "type": "address"
        },
        {
          "name": "_addedValue",
          "type": "uint256"
        }
      ],
      "name": "increaseApproval",
      "outputs": [
        {
          "name": "",
          "type": "bool"
        }
      ],
      "payable": false,
      "stateMutability": "nonpayable",
      "type": "function"
    },
    {
      "constant": false,
      "inputs": [
        {
          "name": "_amount",
          "type": "uint256"
        }
      ],
      "name": "lock",
      "outputs": [
        {
          "name": "success",
          "type": "bool"
        }
      ],
      "payable": false,
      "stateMutability": "nonpayable",
      "type": "function"
    },
    {
      "constant": true,
      "inputs": [
        {
          "name": "_owner",
          "type": "address"
        },
        {
          "name": "_spender",
          "type": "address"
        }
      ],
      "name": "allowance",
      "outputs": [
        {
          "name": "",
          "type": "uint256"
        }
      ],
      "payable": false,
      "stateMutability": "view",
      "type": "function"
    },
    {
      "constant": true,
      "inputs": [
        {
          "name": "",
          "type": "address"
        }
      ],
      "name": "previousValuePerToken",
      "outputs": [
        {
          "name": "",
          "type": "uint256"
        }
      ],
      "payable": false,
      "stateMutability": "view",
      "type": "function"
    },
    {
      "inputs": [
        {
          "name": "_database",
          "type": "address"
        },
        {
          "name": "_tokenURI",
          "type": "string"
        },
        {
          "name": "_owner",
          "type": "address"
        },
        {
          "name": "_erc20Address",
          "type": "address"
        }
      ],
      "payable": false,
      "stateMutability": "nonpayable",
      "type": "constructor"
    },
    {
      "anonymous": false,
      "inputs": [
        {
          "indexed": true,
          "name": "_spender",
          "type": "address"
        },
        {
          "indexed": false,
          "name": "_value",
          "type": "uint256"
        }
      ],
      "name": "LogBurn",
      "type": "event"
    },
    {
      "anonymous": false,
      "inputs": [
        {
          "indexed": true,
          "name": "_sender",
          "type": "address"
        },
        {
          "indexed": false,
          "name": "_paymentAmount",
          "type": "uint256"
        }
      ],
      "name": "LogIncomeReceived",
      "type": "event"
    },
    {
      "anonymous": false,
      "inputs": [
        {
          "indexed": false,
          "name": "_difference",
          "type": "uint256"
        }
      ],
      "name": "LogCheckBalance",
      "type": "event"
    },
    {
      "anonymous": false,
      "inputs": [
        {
          "indexed": false,
          "name": "_address",
          "type": "address"
        },
        {
          "indexed": false,
          "name": "_amount",
          "type": "uint256"
        }
      ],
      "name": "LogIncomeCollected",
      "type": "event"
    },
    {
      "anonymous": false,
      "inputs": [
        {
          "indexed": true,
          "name": "to",
          "type": "address"
        },
        {
          "indexed": false,
          "name": "amount",
          "type": "uint256"
        }
      ],
      "name": "Mint",
      "type": "event"
    },
    {
      "anonymous": false,
      "inputs": [],
      "name": "MintFinished",
      "type": "event"
    },
    {
      "anonymous": false,
      "inputs": [
        {
          "indexed": true,
          "name": "from",
          "type": "address"
        },
        {
          "indexed": true,
          "name": "to",
          "type": "address"
        },
        {
          "indexed": false,
          "name": "value",
          "type": "uint256"
        }
      ],
      "name": "Transfer",
      "type": "event"
    },
    {
      "anonymous": false,
      "inputs": [
        {
          "indexed": true,
          "name": "owner",
          "type": "address"
        },
        {
          "indexed": true,
          "name": "spender",
          "type": "address"
        },
        {
          "indexed": false,
          "name": "value",
          "type": "uint256"
        }
      ],
      "name": "Approval",
      "type": "event"
    },
    {
      "constant": false,
      "inputs": [
        {
          "name": "_to",
          "type": "address"
        },
        {
          "name": "_amount",
          "type": "uint256"
        }
      ],
      "name": "transfer",
      "outputs": [
        {
          "name": "success",
          "type": "bool"
        }
      ],
      "payable": false,
      "stateMutability": "nonpayable",
      "type": "function"
    },
    {
      "constant": false,
      "inputs": [
        {
          "name": "_from",
          "type": "address"
        },
        {
          "name": "_to",
          "type": "address"
        },
        {
          "name": "_amount",
          "type": "uint256"
        }
      ],
      "name": "transferFrom",
      "outputs": [
        {
          "name": "success",
          "type": "bool"
        }
      ],
      "payable": false,
      "stateMutability": "nonpayable",
      "type": "function"
    }
  ],
  "bytecode": "0x60806040523480156200001157600080fd5b506040516200252638038062002526833981016040908152815160208084015192840151606085015193909401805192949093909290918591859185918591849184916200006591600491850190620000c2565b506003805461010060a860020a031916610100600160a060020a0393841602179055600060025560058054600160a060020a0319908116948316949094179055600b80549093169516949094179055506200016795505050505050565b828054600181600116156101000203166002900490600052602060002090601f016020900481019282601f106200010557805160ff191683800117855562000135565b8280016001018555821562000135579182015b828111156200013557825182559160200191906001019062000118565b506200014392915062000147565b5090565b6200016491905b808211156200014357600081556001016200014e565b90565b6123af80620001776000396000f3006080604052600436106101715763ffffffff60e060020a60003504166305d2035b8114610176578063095ea7b31461019f5780630f9f57eb146101c357806318160ddd146101f657806323b872dd1461020b5780632ba1b3a1146102355780632da208e51461024a57806330d0e75f1461025f5780633bdfa920146102765780633ccfd60b1461029757806340c10f19146102ac57806342966c68146102d05780634ece90a8146102e857806352ff7fa91461031957806355ed47c9146103315780636198e33914610352578063661884631461036a57806370a082311461038e578063713b563f146103af578063785e9e86146103c457806379cc6790146103d95780637d64bcb4146103fd578063a8fa8e5214610412578063a9059cbb14610427578063b8c8e1e61461044b578063cae9ca511461046c578063d4a19116146104d5578063d73dd6231461055f578063dd46706414610583578063dd62ed3e1461059b578063efcb5dea146105c2575b600080fd5b34801561018257600080fd5b5061018b6105e3565b604080519115158252519081900360200190f35b3480156101ab57600080fd5b5061018b600160a060020a03600435166024356105ec565b3480156101cf57600080fd5b506101e4600160a060020a0360043516610640565b60408051918252519081900360200190f35b34801561020257600080fd5b506101e4610794565b34801561021757600080fd5b5061018b600160a060020a036004358116906024351660443561079a565b34801561024157600080fd5b506101e46107c7565b34801561025657600080fd5b506101e46107cd565b34801561026b57600080fd5b506102746107d3565b005b34801561028257600080fd5b506101e4600160a060020a0360043516610937565b3480156102a357600080fd5b5061018b610983565b3480156102b857600080fd5b5061018b600160a060020a0360043516602435610b17565b3480156102dc57600080fd5b5061018b600435610c0e565b3480156102f457600080fd5b506102fd610cb8565b60408051600160a060020a039092168252519081900360200190f35b34801561032557600080fd5b5061018b600435610cc7565b34801561033d57600080fd5b506101e4600160a060020a0360043516610ec3565b34801561035e57600080fd5b5061018b600435610f25565b34801561037657600080fd5b5061018b600160a060020a03600435166024356113bf565b34801561039a57600080fd5b506101e4600160a060020a036004351661149e565b3480156103bb57600080fd5b506102fd6114b9565b3480156103d057600080fd5b506102fd6114c8565b3480156103e557600080fd5b5061018b600160a060020a03600435166024356114d7565b34801561040957600080fd5b5061018b6115ec565b34801561041e57600080fd5b506101e4611658565b34801561043357600080fd5b5061018b600160a060020a036004351660243561165e565b34801561045757600080fd5b506101e4600160a060020a0360043516611689565b34801561047857600080fd5b50604080516020600460443581810135601f810184900484028501840190955284845261018b948235600160a060020a031694602480359536959460649492019190819084018382808284375094975061169b9650505050505050565b3480156104e157600080fd5b506104ea611851565b6040805160208082528351818301528351919283929083019185019080838360005b8381101561052457818101518382015260200161050c565b50505050905090810190601f1680156105515780820380516001836020036101000a031916815260200191505b509250505060405180910390f35b34801561056b57600080fd5b5061018b600160a060020a03600435166024356118e7565b34801561058f57600080fd5b5061018b60043561196e565b3480156105a757600080fd5b506101e4600160a060020a0360043581169060243516611f2c565b3480156105ce57600080fd5b506101e4600160a060020a0360043516611f57565b60035460ff1681565b336000818152600160209081526040808320600160a060020a03871680855290835281842086905581518681529151939490939092600080516020612344833981519152928290030190a350600192915050565b600b5460408051600080516020612364833981519152602080830191909152606060020a3081026030840152600160a060020a038681169091026044840152835160388185030181526058909301938490528251600095869586958695949092169363a855d4ce9382918401908083835b602083106106d05780518252601f1990920191602091820191016106b1565b51815160209384036101000a60001901801990921691161790526040805192909401829003822063ffffffff881660e060020a0283526004830152925160248083019650939450929083900301905081600087803b15801561073157600080fd5b505af1158015610745573d6000803e3d6000fd5b505050506040513d602081101561075b57600080fd5b5051600160a060020a038616600090815260208190526040902054909350915061078b828463ffffffff611f6916565b95945050505050565b60025490565b60006107a584610640565b8211156107b157600080fd5b6107bc848484611f7b565b506001949350505050565b60065481565b60075481565b60008060006107ef600754600654611f6990919063ffffffff16565b600554604080517f70a082310000000000000000000000000000000000000000000000000000000081523060048201529051929550600160a060020a03909116916370a08231916024808201926020929091908290030181600087803b15801561085857600080fd5b505af115801561086c573d6000803e3d6000fd5b505050506040513d602081101561088257600080fd5b50519150610896828463ffffffff611f6916565b905060008111156108ff576002546108e5906108d6906108ca846d04ee2d6d415b85acef810000000063ffffffff61200a16565b9063ffffffff61203516565b6008549063ffffffff61204a16565b6008556006546108fb908263ffffffff61204a16565b6006555b6040805182815290517f0d7ab7150531466ac81cc2479d86788246bab0e9cc606a06ec6af5c8ab0d6f8e9181900360200190a1505050565b600160a060020a03811660009081526009602052604081205461097d906d04ee2d6d415b85acef8100000000906108ca9061097186610ec3565b9063ffffffff61204a16565b92915050565b600080336109b861099382610ec3565b600160a060020a0383166000908152600960205260409020549063ffffffff61204a16565b600160a060020a038216600090815260096020818152604080842094909455600854600a825284842055338352522054610a06906d04ee2d6d415b85acef810000000063ffffffff61203516565b33600090815260096020526040812055600754909250610a2c908363ffffffff61204a16565b600755600554604080517fa9059cbb000000000000000000000000000000000000000000000000000000008152336004820152602481018590529051600160a060020a039092169163a9059cbb916044808201926020929091908290030181600087803b158015610a9c57600080fd5b505af1158015610ab0573d6000803e3d6000fd5b505050506040513d6020811015610ac657600080fd5b50511515610ad357600080fd5b604080513381526020810184905281517ff5b510c554f6c572235f7e531ec8f287b350b15c212250b993180473a6aeb7d1929181900390910190a160019250505090565b60035460009060ff16158015610b3c57506003546101009004600160a060020a031633145b1515610b4757600080fd5b600254610b5a908363ffffffff61204a16565b600255600160a060020a038316600090815260208190526040902054610b86908363ffffffff61204a16565b600160a060020a03841660008181526020818152604091829020939093558051858152905191927f0f6798a560793a54c3bcfe86a93cde1e73087d944c0ea20544137d412139688592918290030190a2604080518381529051600160a060020a038516916000916000805160206123248339815191529181900360200190a350600192915050565b33600090815260208190526040812054610c2e908363ffffffff611f6916565b33600090815260208190526040902055600254610c51908363ffffffff611f6916565b60025560408051838152905133917f38d762ef507761291a578e921acfe29c1af31a7331ea03e391cf16cfc4d4f581919081900360200190a260408051838152905160009133916000805160206123248339815191529181900360200190a3506001919050565b600554600160a060020a031690565b6000808211610d3757604080517f08c379a000000000000000000000000000000000000000000000000000000000815260206004820152601060248201527f43616e6e6f742073656e64207a65726f00000000000000000000000000000000604482015290519081900360640190fd5b600554604080517f23b872dd000000000000000000000000000000000000000000000000000000008152336004820152306024820152604481018590529051600160a060020a03909216916323b872dd916064808201926020929091908290030181600087803b158015610daa57600080fd5b505af1158015610dbe573d6000803e3d6000fd5b505050506040513d6020811015610dd457600080fd5b50511515610e4357604080517f08c379a000000000000000000000000000000000000000000000000000000000815260206004820152600f60248201527f5472616e73666572206661696c65640000000000000000000000000000000000604482015290519081900360640190fd5b600254610e6c906108d6906108ca856d04ee2d6d415b85acef810000000063ffffffff61200a16565b600855600654610e82908363ffffffff61204a16565b60065560408051838152905133917fe3166012cb87b3dec8e117fe0e096a47387f94ea2ec12086ed8ae24ff8c237fe919081900360200190a2506001919050565b600160a060020a0381166000908152600a60205260408120546008548291610ef1919063ffffffff611f6916565b600160a060020a038416600090815260208190526040902054909150610f1e90829063ffffffff61200a16565b9392505050565b600b54604080517f636f6d6d69746d656e742e72656c6561736574696d6500000000000000000000602080830191909152606060020a30810260368401523302604a8301528251603e818403018152605e90920192839052815160009485944294600160a060020a039092169363a855d4ce9382918401908083835b60208310610fc05780518252601f199092019160209182019101610fa1565b51815160209384036101000a60001901801990921691161790526040805192909401829003822063ffffffff881660e060020a0283526004830152925160248083019650939450929083900301905081600087803b15801561102157600080fd5b505af1158015611035573d6000803e3d6000fd5b505050506040513d602081101561104b57600080fd5b5051111561105857600080fd5b600b5460408051600080516020612364833981519152602080830191909152606060020a30810260308401523302604483015282516038818403018152605890920192839052815161117b948894600160a060020a039091169363a855d4ce93909282918401908083835b602083106110e25780518252601f1990920191602091820191016110c3565b51815160209384036101000a60001901801990921691161790526040805192909401829003822063ffffffff881660e060020a0283526004830152925160248083019650939450929083900301905081600087803b15801561114357600080fd5b505af1158015611157573d6000803e3d6000fd5b505050506040513d602081101561116d57600080fd5b50519063ffffffff611f6916565b9050600081101561118b57600080fd5b8015156112ae57600b54604080517f636f6d6d69746d656e742e737461727400000000000000000000000000000000602080830191909152606060020a308102603084015233026044830152825160388184030181526058909201928390528151600160a060020a039094169363e2a4853a93918291908401908083835b602083106112285780518252601f199092019160209182019101611209565b5181516020939093036101000a60001901801990911692169190911790526040805191909301819003812063ffffffff871660e060020a02825260048201526000602482018190529251604480830196509394509290839003019050818387803b15801561129557600080fd5b505af11580156112a9573d6000803e3d6000fd5b505050505b600b5460408051600080516020612364833981519152602080830191909152606060020a308102603084015233026044830152825160388184030181526058909201928390528151600160a060020a039094169363e2a4853a93918291908401908083835b602083106113325780518252601f199092019160209182019101611313565b5181516020939093036101000a60001901801990911692169190911790526040805191909301819003812063ffffffff871660e060020a028252600482015260248101889052915160448084019550600094509092839003019050818387803b15801561139e57600080fd5b505af11580156113b2573d6000803e3d6000fd5b5060019695505050505050565b336000908152600160209081526040808320600160a060020a038616845290915281205480831061141357336000908152600160209081526040808320600160a060020a0388168452909152812055611448565b611423818463ffffffff611f6916565b336000908152600160209081526040808320600160a060020a03891684529091529020555b336000818152600160209081526040808320600160a060020a038916808552908352928190205481519081529051929392600080516020612344833981519152929181900390910190a3600191505b5092915050565b600160a060020a031660009081526020819052604090205490565b600b54600160a060020a031681565b600554600160a060020a031681565b600160a060020a038216600090815260208190526040812054611500908363ffffffff611f6916565b600160a060020a03841660009081526020818152604080832093909355600181528282203383529052205461153b908363ffffffff611f6916565b600160a060020a0384166000908152600160209081526040808320338452909152902055600254611572908363ffffffff611f6916565b600255604080518381529051600160a060020a038516917f38d762ef507761291a578e921acfe29c1af31a7331ea03e391cf16cfc4d4f581919081900360200190a2604080518381529051600091600160a060020a038616916000805160206123248339815191529181900360200190a350600192915050565b60035460009060ff1615801561161157506003546101009004600160a060020a031633145b151561161c57600080fd5b6003805460ff191660011790556040517fae5184fba832cb2b1f702aca6117b8d265eaf03ad33eb133f19dde0f5920fa0890600090a150600190565b60085481565b600061166933610640565b82111561167557600080fd5b61167f8383612059565b5060019392505050565b60096020526000908152604090205481565b6000336116aa61099382610ec3565b600160a060020a038216600090815260096020908152604080832093909355600854600a90915291902055846116e261099382610ec3565b600160a060020a03808316600090815260096020908152604080832094909455600854600a8252848320553380835260018252848320938b168084529382529184902089905583518981529351929391926000805160206123448339815191529281900390910190a36040517f8f4ffcb10000000000000000000000000000000000000000000000000000000081523360048201818152602483018890523060448401819052608060648501908152885160848601528851600160a060020a038c1695638f4ffcb195948c94938c939192909160a490910190602085019080838360005b838110156117de5781810151838201526020016117c6565b50505050905090810190601f16801561180b5780820380516001836020036101000a031916815260200191505b5095505050505050600060405180830381600087803b15801561182d57600080fd5b505af1158015611841573d6000803e3d6000fd5b5060019998505050505050505050565b60048054604080516020601f60026000196101006001881615020190951694909404938401819004810282018101909252828152606093909290918301828280156118dd5780601f106118b2576101008083540402835291602001916118dd565b820191906000526020600020905b8154815290600101906020018083116118c057829003601f168201915b5050505050905090565b336000908152600160209081526040808320600160a060020a038616845290915281205461191b908363ffffffff61204a16565b336000818152600160209081526040808320600160a060020a038916808552908352928190208590558051948552519193600080516020612344833981519152929081900390910190a350600192915050565b60008080831161197d57600080fd5b600b54604080517f61737365742e676f7665726e616e636500000000000000000000000000000000602080830191909152606060020a30026030830152825160248184030181526044909201928390528151600094600160a060020a0316936304f49a3a9392909182918401908083835b60208310611a0d5780518252601f1990920191602091820191016119ee565b51815160209384036101000a60001901801990921691161790526040805192909401829003822063ffffffff881660e060020a0283526004830152925160248083019650939450929083900301905081600087803b158015611a6e57600080fd5b505af1158015611a82573d6000803e3d6000fd5b505050506040513d6020811015611a9857600080fd5b5051600160a060020a03161415611aae57600080fd5b600b5460408051600080516020612364833981519152602080830191909152606060020a308102603084015233026044830152825160388184030181526058909201928390528151611bd1948894600160a060020a039091169363a855d4ce93909282918401908083835b60208310611b385780518252601f199092019160209182019101611b19565b51815160209384036101000a60001901801990921691161790526040805192909401829003822063ffffffff881660e060020a0283526004830152925160248083019650939450929083900301905081600087803b158015611b9957600080fd5b505af1158015611bad573d6000803e3d6000fd5b505050506040513d6020811015611bc357600080fd5b50519063ffffffff61204a16565b9050611bdc3361149e565b811115611be857600080fd5b600b54604080517f636f6d6d69746d656e742e737461727400000000000000000000000000000000602080830191909152606060020a308102603084015233026044830152825160388184030181526058909201928390528151600160a060020a039094169363e2a4853a93918291908401908083835b60208310611c7e5780518252601f199092019160209182019101611c5f565b5181516020939093036101000a60001901801990911692169190911790526040805191909301819003812063ffffffff871660e060020a0282526004820152426024820152915160448084019550600094509092839003019050818387803b158015611ce957600080fd5b505af1158015611cfd573d6000803e3d6000fd5b5050600b54604080517f636f6d6d69746d656e742e72656c6561736574696d6500000000000000000000602080830191909152606060020a30810260368401523302604a8301528251603e818403018152605e909201928390528151600160a060020a03909416955063e2a4853a9450909282918401908083835b60208310611d975780518252601f199092019160209182019101611d78565b51815160209384036101000a600019018019909216911617905260408051929094018290038220600b547f61737365742e766f74654475726174696f6e00000000000000000000000000008484015230606060020a026032850152855180850360260181526046909401958690528351919750611ee49650600160a060020a03169463a855d4ce9450918291908401908083835b60208310611e4a5780518252601f199092019160209182019101611e2b565b51815160209384036101000a60001901801990921691161790526040805192909401829003822063ffffffff881660e060020a0283526004830152925160248083019650939450929083900301905081600087803b158015611eab57600080fd5b505af1158015611ebf573d6000803e3d6000fd5b505050506040513d6020811015611ed557600080fd5b5051429063ffffffff61204a16565b6040518363ffffffff1660e060020a02815260040180836000191660001916815260200182815260200192505050600060405180830381600087803b15801561129557600080fd5b600160a060020a03918216600090815260016020908152604080832093909416825291909152205490565b600a6020526000908152604090205481565b600082821115611f7557fe5b50900390565b600083611f8a61099382610ec3565b600160a060020a038216600090815260096020908152604080832093909355600854600a9091529190205583611fc261099382610ec3565b600160a060020a03808316600090815260096020908152604080832094909455600854600a909152929020919091558516301415611fff57600080fd5b6113b28686866120f3565b60008083151561201d5760009150611497565b5082820282848281151561202d57fe5b0414610f1e57fe5b6000818381151561204257fe5b049392505050565b600082820183811015610f1e57fe5b60003361206861099382610ec3565b600160a060020a038216600090815260096020908152604080832093909355600854600a90915291902055836120a061099382610ec3565b600160a060020a03808316600090815260096020908152604080832094909455600854600a9091529290209190915585163014156120dd57600080fd5b6120e78585612256565b50600195945050505050565b600160a060020a03831660009081526020819052604081205482111561211857600080fd5b600160a060020a038416600090815260016020908152604080832033845290915290205482111561214857600080fd5b600160a060020a038316151561215d57600080fd5b600160a060020a038416600090815260208190526040902054612186908363ffffffff611f6916565b600160a060020a0380861660009081526020819052604080822093909355908516815220546121bb908363ffffffff61204a16565b600160a060020a038085166000908152602081815260408083209490945591871681526001825282812033825290915220546121fd908363ffffffff611f6916565b600160a060020a0380861660008181526001602090815260408083203384528252918290209490945580518681529051928716939192600080516020612324833981519152929181900390910190a35060019392505050565b3360009081526020819052604081205482111561227257600080fd5b600160a060020a038316151561228757600080fd5b336000908152602081905260409020546122a7908363ffffffff611f6916565b3360009081526020819052604080822092909255600160a060020a038516815220546122d9908363ffffffff61204a16565b600160a060020a038416600081815260208181526040918290209390935580518581529051919233926000805160206123248339815191529281900390910190a3506001929150505600ddf252ad1be2c89b69c2b068fc378daa952ba7f163c4a11628f55a4df523b3ef8c5be1e5ebec7d5bd14f71427d1e84f3dd0314c0f7b2291e5b200ac8c7c3b925636f6d6d69746d656e742e76616c756500000000000000000000000000000000a165627a7a723058202e5e27a7317a6c887861794540924199f32c07c42b550b33e2744fd2fa1f68170029",
  "source": "pragma solidity ^0.4.24;\n\nimport \"./DividendTokenERC20.sol\";\nimport \"./GovernedToken.sol\";\nimport \"./BurnableToken.sol\";\n\n// @title A Dividend token that has governance features and receives ERC20 tokens as payment\n// @notice This token contract can receive ERC20 tokens as payments and token owners can lock tokens while submitting votes\n// @author Kyle Dewhurst & Peter Phillips, MyBit Foundation\n// @dev Dividend tokens aren't actually locked, but restricted from transferring to avoid locking contravt having to distribute dividends.\ncontract GovernedTokenERC20 is DividendTokenERC20, GovernedToken, BurnableToken{\n\n  // @notice constructor: initializes database and DividendTokenERC20\n  // @param (address) _database = the address of the platform database\n  // @param (string) _tokenURI = The URI where details of the token (asse) can be found\n  // @param (address) _owner = The minting authority for this token\n  // @param (address) _erc20Address = The address of the erc20 token to be sent for dividends\n  constructor(address _database, string _tokenURI, address _owner, address _erc20Address)\n  public\n  GovernedToken(_database)\n  DividendTokenERC20(_tokenURI, _owner, _erc20Address){}\n\n  // @notice Standard DividendToke transfer function, which checks for locked tokens before sending\n  function transfer(address _to, uint _amount)\n  public\n  returns (bool success) {\n      require(_amount <= getAmountAvailable(msg.sender));\n      super.transfer(_to, _amount);\n      return true;\n  }\n\n  // @notice Standard DividendToke transferFrom function, which checks for locked tokens before sending\n  function transferFrom(address _from, address _to, uint _amount)\n  public\n  returns (bool success) {\n      require(_amount <= getAmountAvailable(_from));\n      super.transferFrom(_from, _to, _amount);\n      return true;\n  }\n}\n",
  "sourcePath": "/home/peter/Documents/Work/MyBit/MyBit-Network.tech/contracts/tokens/erc20/GovernedTokenERC20.sol",
  "compiler": {
    "name": "solc",
    "version": "0.4.25+commit.59dbf8f1.Emscripten.clang"
  },
  "schemaVersion": "3.0.0-beta.0",
  "updatedAt": "2019-01-16T04:27:16.865Z"
}