{
  "contractName": "GovernedTokenERC20",
  "abi": [
    {
      "constant": true,
      "inputs": [],
      "name": "mintingFinished",
      "outputs": [
        {
          "name": "",
          "type": "bool"
        }
      ],
      "payable": false,
      "stateMutability": "view",
      "type": "function"
    },
    {
      "constant": true,
      "inputs": [],
      "name": "name",
      "outputs": [
        {
          "name": "",
          "type": "string"
        }
      ],
      "payable": false,
      "stateMutability": "view",
      "type": "function"
    },
    {
      "constant": false,
      "inputs": [
        {
          "name": "_spender",
          "type": "address"
        },
        {
          "name": "_value",
          "type": "uint256"
        }
      ],
      "name": "approve",
      "outputs": [
        {
          "name": "",
          "type": "bool"
        }
      ],
      "payable": false,
      "stateMutability": "nonpayable",
      "type": "function"
    },
    {
      "constant": true,
      "inputs": [
        {
          "name": "_investor",
          "type": "address"
        }
      ],
      "name": "getAmountAvailable",
      "outputs": [
        {
          "name": "",
          "type": "uint256"
        }
      ],
      "payable": false,
      "stateMutability": "view",
      "type": "function"
    },
    {
      "constant": true,
      "inputs": [],
      "name": "totalSupply",
      "outputs": [
        {
          "name": "",
          "type": "uint256"
        }
      ],
      "payable": false,
      "stateMutability": "view",
      "type": "function"
    },
    {
      "constant": true,
      "inputs": [],
      "name": "assetIncome",
      "outputs": [
        {
          "name": "",
          "type": "uint256"
        }
      ],
      "payable": false,
      "stateMutability": "view",
      "type": "function"
    },
    {
      "constant": true,
      "inputs": [],
      "name": "assetIncomeIssued",
      "outputs": [
        {
          "name": "",
          "type": "uint256"
        }
      ],
      "payable": false,
      "stateMutability": "view",
      "type": "function"
    },
    {
      "constant": false,
      "inputs": [],
      "name": "checkForTransfers",
      "outputs": [],
      "payable": false,
      "stateMutability": "nonpayable",
      "type": "function"
    },
    {
      "constant": true,
      "inputs": [],
      "name": "decimals",
      "outputs": [
        {
          "name": "",
          "type": "uint8"
        }
      ],
      "payable": false,
      "stateMutability": "view",
      "type": "function"
    },
    {
      "constant": true,
      "inputs": [
        {
          "name": "_investor",
          "type": "address"
        }
      ],
      "name": "getAmountOwed",
      "outputs": [
        {
          "name": "",
          "type": "uint256"
        }
      ],
      "payable": false,
      "stateMutability": "view",
      "type": "function"
    },
    {
      "constant": false,
      "inputs": [],
      "name": "withdraw",
      "outputs": [
        {
          "name": "",
          "type": "bool"
        }
      ],
      "payable": false,
      "stateMutability": "nonpayable",
      "type": "function"
    },
    {
      "constant": false,
      "inputs": [
        {
          "name": "_to",
          "type": "address"
        },
        {
          "name": "_amount",
          "type": "uint256"
        }
      ],
      "name": "mint",
      "outputs": [
        {
          "name": "",
          "type": "bool"
        }
      ],
      "payable": false,
      "stateMutability": "nonpayable",
      "type": "function"
    },
    {
      "constant": false,
      "inputs": [
        {
          "name": "_amount",
          "type": "uint256"
        }
      ],
      "name": "burn",
      "outputs": [
        {
          "name": "success",
          "type": "bool"
        }
      ],
      "payable": false,
      "stateMutability": "nonpayable",
      "type": "function"
    },
    {
      "constant": true,
      "inputs": [],
      "name": "getERC20",
      "outputs": [
        {
          "name": "",
          "type": "address"
        }
      ],
      "payable": false,
      "stateMutability": "view",
      "type": "function"
    },
    {
      "constant": false,
      "inputs": [
        {
          "name": "_amount",
          "type": "uint256"
        }
      ],
      "name": "issueDividends",
      "outputs": [
        {
          "name": "",
          "type": "bool"
        }
      ],
      "payable": false,
      "stateMutability": "nonpayable",
      "type": "function"
    },
    {
      "constant": true,
      "inputs": [
        {
          "name": "_investor",
          "type": "address"
        }
      ],
      "name": "collectLatestPayments",
      "outputs": [
        {
          "name": "",
          "type": "uint256"
        }
      ],
      "payable": false,
      "stateMutability": "view",
      "type": "function"
    },
    {
      "constant": false,
      "inputs": [
        {
          "name": "_amount",
          "type": "uint256"
        }
      ],
      "name": "unlock",
      "outputs": [
        {
          "name": "success",
          "type": "bool"
        }
      ],
      "payable": false,
      "stateMutability": "nonpayable",
      "type": "function"
    },
    {
      "constant": false,
      "inputs": [
        {
          "name": "_spender",
          "type": "address"
        },
        {
          "name": "_subtractedValue",
          "type": "uint256"
        }
      ],
      "name": "decreaseApproval",
      "outputs": [
        {
          "name": "",
          "type": "bool"
        }
      ],
      "payable": false,
      "stateMutability": "nonpayable",
      "type": "function"
    },
    {
      "constant": true,
      "inputs": [
        {
          "name": "_owner",
          "type": "address"
        }
      ],
      "name": "balanceOf",
      "outputs": [
        {
          "name": "",
          "type": "uint256"
        }
      ],
      "payable": false,
      "stateMutability": "view",
      "type": "function"
    },
    {
      "constant": true,
      "inputs": [],
      "name": "database",
      "outputs": [
        {
          "name": "",
          "type": "address"
        }
      ],
      "payable": false,
      "stateMutability": "view",
      "type": "function"
    },
    {
      "constant": true,
      "inputs": [],
      "name": "erc20",
      "outputs": [
        {
          "name": "",
          "type": "address"
        }
      ],
      "payable": false,
      "stateMutability": "view",
      "type": "function"
    },
    {
      "constant": false,
      "inputs": [
        {
          "name": "_from",
          "type": "address"
        },
        {
          "name": "_amount",
          "type": "uint256"
        }
      ],
      "name": "burnFrom",
      "outputs": [
        {
          "name": "success",
          "type": "bool"
        }
      ],
      "payable": false,
      "stateMutability": "nonpayable",
      "type": "function"
    },
    {
      "constant": false,
      "inputs": [],
      "name": "finishMinting",
      "outputs": [
        {
          "name": "",
          "type": "bool"
        }
      ],
      "payable": false,
      "stateMutability": "nonpayable",
      "type": "function"
    },
    {
      "constant": true,
      "inputs": [],
      "name": "symbol",
      "outputs": [
        {
          "name": "",
          "type": "string"
        }
      ],
      "payable": false,
      "stateMutability": "view",
      "type": "function"
    },
    {
      "constant": true,
      "inputs": [],
      "name": "valuePerToken",
      "outputs": [
        {
          "name": "",
          "type": "uint256"
        }
      ],
      "payable": false,
      "stateMutability": "view",
      "type": "function"
    },
    {
      "constant": true,
      "inputs": [
        {
          "name": "",
          "type": "address"
        }
      ],
      "name": "incomeClaimed",
      "outputs": [
        {
          "name": "",
          "type": "uint256"
        }
      ],
      "payable": false,
      "stateMutability": "view",
      "type": "function"
    },
    {
      "constant": false,
      "inputs": [
        {
          "name": "_spender",
          "type": "address"
        },
        {
          "name": "_amount",
          "type": "uint256"
        },
        {
          "name": "_data",
          "type": "bytes"
        }
      ],
      "name": "approveAndCall",
      "outputs": [
        {
          "name": "success",
          "type": "bool"
        }
      ],
      "payable": false,
      "stateMutability": "nonpayable",
      "type": "function"
    },
    {
      "constant": true,
      "inputs": [],
      "name": "getTokenURI",
      "outputs": [
        {
          "name": "",
          "type": "string"
        }
      ],
      "payable": false,
      "stateMutability": "view",
      "type": "function"
    },
    {
      "constant": false,
      "inputs": [
        {
          "name": "_spender",
          "type": "address"
        },
        {
          "name": "_addedValue",
          "type": "uint256"
        }
      ],
      "name": "increaseApproval",
      "outputs": [
        {
          "name": "",
          "type": "bool"
        }
      ],
      "payable": false,
      "stateMutability": "nonpayable",
      "type": "function"
    },
    {
      "constant": false,
      "inputs": [
        {
          "name": "_amount",
          "type": "uint256"
        }
      ],
      "name": "lock",
      "outputs": [
        {
          "name": "success",
          "type": "bool"
        }
      ],
      "payable": false,
      "stateMutability": "nonpayable",
      "type": "function"
    },
    {
      "constant": true,
      "inputs": [
        {
          "name": "_owner",
          "type": "address"
        },
        {
          "name": "_spender",
          "type": "address"
        }
      ],
      "name": "allowance",
      "outputs": [
        {
          "name": "",
          "type": "uint256"
        }
      ],
      "payable": false,
      "stateMutability": "view",
      "type": "function"
    },
    {
      "constant": true,
      "inputs": [
        {
          "name": "",
          "type": "address"
        }
      ],
      "name": "previousValuePerToken",
      "outputs": [
        {
          "name": "",
          "type": "uint256"
        }
      ],
      "payable": false,
      "stateMutability": "view",
      "type": "function"
    },
    {
      "inputs": [
        {
          "name": "_database",
          "type": "address"
        },
        {
          "name": "_tokenURI",
          "type": "string"
        },
        {
          "name": "_owner",
          "type": "address"
        },
        {
          "name": "_erc20Address",
          "type": "address"
        }
      ],
      "payable": false,
      "stateMutability": "nonpayable",
      "type": "constructor"
    },
    {
      "anonymous": false,
      "inputs": [
        {
          "indexed": true,
          "name": "_spender",
          "type": "address"
        },
        {
          "indexed": false,
          "name": "_value",
          "type": "uint256"
        }
      ],
      "name": "LogBurn",
      "type": "event"
    },
    {
      "anonymous": false,
      "inputs": [
        {
          "indexed": true,
          "name": "_sender",
          "type": "address"
        },
        {
          "indexed": false,
          "name": "_paymentAmount",
          "type": "uint256"
        }
      ],
      "name": "LogIncomeReceived",
      "type": "event"
    },
    {
      "anonymous": false,
      "inputs": [
        {
          "indexed": false,
          "name": "_difference",
          "type": "uint256"
        }
      ],
      "name": "LogCheckBalance",
      "type": "event"
    },
    {
      "anonymous": false,
      "inputs": [
        {
          "indexed": false,
          "name": "_address",
          "type": "address"
        },
        {
          "indexed": false,
          "name": "_amount",
          "type": "uint256"
        }
      ],
      "name": "LogIncomeCollected",
      "type": "event"
    },
    {
      "anonymous": false,
      "inputs": [
        {
          "indexed": true,
          "name": "to",
          "type": "address"
        },
        {
          "indexed": false,
          "name": "amount",
          "type": "uint256"
        }
      ],
      "name": "Mint",
      "type": "event"
    },
    {
      "anonymous": false,
      "inputs": [],
      "name": "MintFinished",
      "type": "event"
    },
    {
      "anonymous": false,
      "inputs": [
        {
          "indexed": true,
          "name": "from",
          "type": "address"
        },
        {
          "indexed": true,
          "name": "to",
          "type": "address"
        },
        {
          "indexed": false,
          "name": "value",
          "type": "uint256"
        }
      ],
      "name": "Transfer",
      "type": "event"
    },
    {
      "anonymous": false,
      "inputs": [
        {
          "indexed": true,
          "name": "owner",
          "type": "address"
        },
        {
          "indexed": true,
          "name": "spender",
          "type": "address"
        },
        {
          "indexed": false,
          "name": "value",
          "type": "uint256"
        }
      ],
      "name": "Approval",
      "type": "event"
    },
    {
      "constant": false,
      "inputs": [
        {
          "name": "_to",
          "type": "address"
        },
        {
          "name": "_amount",
          "type": "uint256"
        }
      ],
      "name": "transfer",
      "outputs": [
        {
          "name": "success",
          "type": "bool"
        }
      ],
      "payable": false,
      "stateMutability": "nonpayable",
      "type": "function"
    },
    {
      "constant": false,
      "inputs": [
        {
          "name": "_from",
          "type": "address"
        },
        {
          "name": "_to",
          "type": "address"
        },
        {
          "name": "_amount",
          "type": "uint256"
        }
      ],
      "name": "transferFrom",
      "outputs": [
        {
          "name": "success",
          "type": "bool"
        }
      ],
      "payable": false,
      "stateMutability": "nonpayable",
      "type": "function"
    }
  ],
  "bytecode": "0x60806040523480156200001157600080fd5b50604051620026a6380380620026a68339810160409081528151602080840151928401516060850151939094018051929490939092909185918591859185918491829160129186916200006a91600391860190620000f0565b50825162000080906004906020860190620000f0565b506005805460006002556201000060b060020a03191662010000600160a060020a03938416021760ff191660ff939093169290921790915560068054600160a060020a0319908116958316959095179055600c805490941696169590951790915550620001959650505050505050565b828054600181600116156101000203166002900490600052602060002090601f016020900481019282601f106200013357805160ff191683800117855562000163565b8280016001018555821562000163579182015b828111156200016357825182559160200191906001019062000146565b506200017192915062000175565b5090565b6200019291905b808211156200017157600081556001016200017c565b90565b61250180620001a56000396000f3006080604052600436106101925763ffffffff60e060020a60003504166305d2035b811461019757806306fdde03146101c0578063095ea7b31461024a5780630f9f57eb1461026e57806318160ddd146102a157806323b872dd146102b65780632ba1b3a1146102e05780632da208e5146102f557806330d0e75f1461030a578063313ce567146103215780633bdfa9201461034c5780633ccfd60b1461036d57806340c10f191461038257806342966c68146103a65780634ece90a8146103be57806352ff7fa9146103ef57806355ed47c9146104075780636198e33914610428578063661884631461044057806370a0823114610464578063713b563f14610485578063785e9e861461049a57806379cc6790146104af5780637d64bcb4146104d357806395d89b41146104e8578063a8fa8e52146104fd578063a9059cbb14610512578063b8c8e1e614610536578063cae9ca5114610557578063d4a19116146105c0578063d73dd623146105d5578063dd467064146105f9578063dd62ed3e14610611578063efcb5dea14610638575b600080fd5b3480156101a357600080fd5b506101ac610659565b604080519115158252519081900360200190f35b3480156101cc57600080fd5b506101d5610667565b6040805160208082528351818301528351919283929083019185019080838360005b8381101561020f5781810151838201526020016101f7565b50505050905090810190601f16801561023c5780820380516001836020036101000a031916815260200191505b509250505060405180910390f35b34801561025657600080fd5b506101ac600160a060020a03600435166024356106f5565b34801561027a57600080fd5b5061028f600160a060020a0360043516610749565b60408051918252519081900360200190f35b3480156102ad57600080fd5b5061028f61089d565b3480156102c257600080fd5b506101ac600160a060020a03600435811690602435166044356108a3565b3480156102ec57600080fd5b5061028f6108d0565b34801561030157600080fd5b5061028f6108d6565b34801561031657600080fd5b5061031f6108dc565b005b34801561032d57600080fd5b50610336610a40565b6040805160ff9092168252519081900360200190f35b34801561035857600080fd5b5061028f600160a060020a0360043516610a49565b34801561037957600080fd5b506101ac610a95565b34801561038e57600080fd5b506101ac600160a060020a0360043516602435610c29565b3480156103b257600080fd5b506101ac600435610d26565b3480156103ca57600080fd5b506103d3610dd0565b60408051600160a060020a039092168252519081900360200190f35b3480156103fb57600080fd5b506101ac600435610ddf565b34801561041357600080fd5b5061028f600160a060020a0360043516610fdb565b34801561043457600080fd5b506101ac60043561103d565b34801561044c57600080fd5b506101ac600160a060020a03600435166024356114d7565b34801561047057600080fd5b5061028f600160a060020a03600435166115b6565b34801561049157600080fd5b506103d36115d1565b3480156104a657600080fd5b506103d36115e0565b3480156104bb57600080fd5b506101ac600160a060020a03600435166024356115ef565b3480156104df57600080fd5b506101ac611704565b3480156104f457600080fd5b506101d561174f565b34801561050957600080fd5b5061028f6117aa565b34801561051e57600080fd5b506101ac600160a060020a03600435166024356117b0565b34801561054257600080fd5b5061028f600160a060020a03600435166117db565b34801561056357600080fd5b50604080516020600460443581810135601f81018490048402850184019095528484526101ac948235600160a060020a03169460248035953695946064949201919081908401838280828437509497506117ed9650505050505050565b3480156105cc57600080fd5b506101d56119a3565b3480156105e157600080fd5b506101ac600160a060020a0360043516602435611a39565b34801561060557600080fd5b506101ac600435611ac0565b34801561061d57600080fd5b5061028f600160a060020a036004358116906024351661207e565b34801561064457600080fd5b5061028f600160a060020a03600435166120a9565b600554610100900460ff1681565b6003805460408051602060026001851615610100026000190190941693909304601f810184900484028201840190925281815292918301828280156106ed5780601f106106c2576101008083540402835291602001916106ed565b820191906000526020600020905b8154815290600101906020018083116106d057829003601f168201915b505050505081565b336000818152600160209081526040808320600160a060020a03871680855290835281842086905581518681529151939490939092600080516020612496833981519152928290030190a350600192915050565b600c54604080516000805160206124b6833981519152602080830191909152606060020a3081026030840152600160a060020a038681169091026044840152835160388185030181526058909301938490528251600095869586958695949092169363a855d4ce9382918401908083835b602083106107d95780518252601f1990920191602091820191016107ba565b51815160209384036101000a60001901801990921691161790526040805192909401829003822063ffffffff881660e060020a0283526004830152925160248083019650939450929083900301905081600087803b15801561083a57600080fd5b505af115801561084e573d6000803e3d6000fd5b505050506040513d602081101561086457600080fd5b5051600160a060020a0386166000908152602081905260409020549093509150610894828463ffffffff6120bb16565b95945050505050565b60025490565b60006108ae84610749565b8211156108ba57600080fd5b6108c58484846120cd565b506001949350505050565b60075481565b60085481565b60008060006108f86008546007546120bb90919063ffffffff16565b600654604080517f70a082310000000000000000000000000000000000000000000000000000000081523060048201529051929550600160a060020a03909116916370a08231916024808201926020929091908290030181600087803b15801561096157600080fd5b505af1158015610975573d6000803e3d6000fd5b505050506040513d602081101561098b57600080fd5b5051915061099f828463ffffffff6120bb16565b90506000811115610a08576002546109ee906109df906109d3846d04ee2d6d415b85acef810000000063ffffffff61215c16565b9063ffffffff61218716565b6009549063ffffffff61219c16565b600955600754610a04908263ffffffff61219c16565b6007555b6040805182815290517f0d7ab7150531466ac81cc2479d86788246bab0e9cc606a06ec6af5c8ab0d6f8e9181900360200190a1505050565b60055460ff1690565b600160a060020a0381166000908152600a6020526040812054610a8f906d04ee2d6d415b85acef8100000000906109d390610a8386610fdb565b9063ffffffff61219c16565b92915050565b60008033610aca610aa582610fdb565b600160a060020a0383166000908152600a60205260409020549063ffffffff61219c16565b600160a060020a0382166000908152600a6020818152604080842094909455600954600b825284842055338352522054610b18906d04ee2d6d415b85acef810000000063ffffffff61218716565b336000908152600a6020526040812055600854909250610b3e908363ffffffff61219c16565b600855600654604080517fa9059cbb000000000000000000000000000000000000000000000000000000008152336004820152602481018590529051600160a060020a039092169163a9059cbb916044808201926020929091908290030181600087803b158015610bae57600080fd5b505af1158015610bc2573d6000803e3d6000fd5b505050506040513d6020811015610bd857600080fd5b50511515610be557600080fd5b604080513381526020810184905281517ff5b510c554f6c572235f7e531ec8f287b350b15c212250b993180473a6aeb7d1929181900390910190a160019250505090565b600554600090610100900460ff16158015610c545750600554620100009004600160a060020a031633145b1515610c5f57600080fd5b600254610c72908363ffffffff61219c16565b600255600160a060020a038316600090815260208190526040902054610c9e908363ffffffff61219c16565b600160a060020a03841660008181526020818152604091829020939093558051858152905191927f0f6798a560793a54c3bcfe86a93cde1e73087d944c0ea20544137d412139688592918290030190a2604080518381529051600160a060020a038516916000916000805160206124768339815191529181900360200190a350600192915050565b33600090815260208190526040812054610d46908363ffffffff6120bb16565b33600090815260208190526040902055600254610d69908363ffffffff6120bb16565b60025560408051838152905133917f38d762ef507761291a578e921acfe29c1af31a7331ea03e391cf16cfc4d4f581919081900360200190a260408051838152905160009133916000805160206124768339815191529181900360200190a3506001919050565b600654600160a060020a031690565b6000808211610e4f57604080517f08c379a000000000000000000000000000000000000000000000000000000000815260206004820152601060248201527f43616e6e6f742073656e64207a65726f00000000000000000000000000000000604482015290519081900360640190fd5b600654604080517f23b872dd000000000000000000000000000000000000000000000000000000008152336004820152306024820152604481018590529051600160a060020a03909216916323b872dd916064808201926020929091908290030181600087803b158015610ec257600080fd5b505af1158015610ed6573d6000803e3d6000fd5b505050506040513d6020811015610eec57600080fd5b50511515610f5b57604080517f08c379a000000000000000000000000000000000000000000000000000000000815260206004820152600f60248201527f5472616e73666572206661696c65640000000000000000000000000000000000604482015290519081900360640190fd5b600254610f84906109df906109d3856d04ee2d6d415b85acef810000000063ffffffff61215c16565b600955600754610f9a908363ffffffff61219c16565b60075560408051838152905133917fe3166012cb87b3dec8e117fe0e096a47387f94ea2ec12086ed8ae24ff8c237fe919081900360200190a2506001919050565b600160a060020a0381166000908152600b60205260408120546009548291611009919063ffffffff6120bb16565b600160a060020a03841660009081526020819052604090205490915061103690829063ffffffff61215c16565b9392505050565b600c54604080517f636f6d6d69746d656e742e72656c6561736574696d6500000000000000000000602080830191909152606060020a30810260368401523302604a8301528251603e818403018152605e90920192839052815160009485944294600160a060020a039092169363a855d4ce9382918401908083835b602083106110d85780518252601f1990920191602091820191016110b9565b51815160209384036101000a60001901801990921691161790526040805192909401829003822063ffffffff881660e060020a0283526004830152925160248083019650939450929083900301905081600087803b15801561113957600080fd5b505af115801561114d573d6000803e3d6000fd5b505050506040513d602081101561116357600080fd5b5051111561117057600080fd5b600c54604080516000805160206124b6833981519152602080830191909152606060020a308102603084015233026044830152825160388184030181526058909201928390528151611293948894600160a060020a039091169363a855d4ce93909282918401908083835b602083106111fa5780518252601f1990920191602091820191016111db565b51815160209384036101000a60001901801990921691161790526040805192909401829003822063ffffffff881660e060020a0283526004830152925160248083019650939450929083900301905081600087803b15801561125b57600080fd5b505af115801561126f573d6000803e3d6000fd5b505050506040513d602081101561128557600080fd5b50519063ffffffff6120bb16565b905060008110156112a357600080fd5b8015156113c657600c54604080517f636f6d6d69746d656e742e737461727400000000000000000000000000000000602080830191909152606060020a308102603084015233026044830152825160388184030181526058909201928390528151600160a060020a039094169363e2a4853a93918291908401908083835b602083106113405780518252601f199092019160209182019101611321565b5181516020939093036101000a60001901801990911692169190911790526040805191909301819003812063ffffffff871660e060020a02825260048201526000602482018190529251604480830196509394509290839003019050818387803b1580156113ad57600080fd5b505af11580156113c1573d6000803e3d6000fd5b505050505b600c54604080516000805160206124b6833981519152602080830191909152606060020a308102603084015233026044830152825160388184030181526058909201928390528151600160a060020a039094169363e2a4853a93918291908401908083835b6020831061144a5780518252601f19909201916020918201910161142b565b5181516020939093036101000a60001901801990911692169190911790526040805191909301819003812063ffffffff871660e060020a028252600482015260248101889052915160448084019550600094509092839003019050818387803b1580156114b657600080fd5b505af11580156114ca573d6000803e3d6000fd5b5060019695505050505050565b336000908152600160209081526040808320600160a060020a038616845290915281205480831061152b57336000908152600160209081526040808320600160a060020a0388168452909152812055611560565b61153b818463ffffffff6120bb16565b336000908152600160209081526040808320600160a060020a03891684529091529020555b336000818152600160209081526040808320600160a060020a038916808552908352928190205481519081529051929392600080516020612496833981519152929181900390910190a3600191505b5092915050565b600160a060020a031660009081526020819052604090205490565b600c54600160a060020a031681565b600654600160a060020a031681565b600160a060020a038216600090815260208190526040812054611618908363ffffffff6120bb16565b600160a060020a038416600090815260208181526040808320939093556001815282822033835290522054611653908363ffffffff6120bb16565b600160a060020a038416600090815260016020908152604080832033845290915290205560025461168a908363ffffffff6120bb16565b600255604080518381529051600160a060020a038516917f38d762ef507761291a578e921acfe29c1af31a7331ea03e391cf16cfc4d4f581919081900360200190a2604080518381529051600091600160a060020a038616916000805160206124768339815191529181900360200190a350600192915050565b600554600090610100900460ff1615801561172f5750600554620100009004600160a060020a031633145b151561173a57600080fd5b506005805461ff001916610100179055600190565b6004805460408051602060026001851615610100026000190190941693909304601f810184900484028201840190925281815292918301828280156106ed5780601f106106c2576101008083540402835291602001916106ed565b60095481565b60006117bb33610749565b8211156117c757600080fd5b6117d183836121ab565b5060019392505050565b600a6020526000908152604090205481565b6000336117fc610aa582610fdb565b600160a060020a0382166000908152600a6020908152604080832093909355600954600b9091529190205584611834610aa582610fdb565b600160a060020a038083166000908152600a6020908152604080832094909455600954600b8252848320553380835260018252848320938b168084529382529184902089905583518981529351929391926000805160206124968339815191529281900390910190a36040517f8f4ffcb10000000000000000000000000000000000000000000000000000000081523360048201818152602483018890523060448401819052608060648501908152885160848601528851600160a060020a038c1695638f4ffcb195948c94938c939192909160a490910190602085019080838360005b83811015611930578181015183820152602001611918565b50505050905090810190601f16801561195d5780820380516001836020036101000a031916815260200191505b5095505050505050600060405180830381600087803b15801561197f57600080fd5b505af1158015611993573d6000803e3d6000fd5b5060019998505050505050505050565b60038054604080516020601f6002600019610100600188161502019095169490940493840181900481028201810190925282815260609390929091830182828015611a2f5780601f10611a0457610100808354040283529160200191611a2f565b820191906000526020600020905b815481529060010190602001808311611a1257829003601f168201915b5050505050905090565b336000908152600160209081526040808320600160a060020a0386168452909152812054611a6d908363ffffffff61219c16565b336000818152600160209081526040808320600160a060020a038916808552908352928190208590558051948552519193600080516020612496833981519152929081900390910190a350600192915050565b600080808311611acf57600080fd5b600c54604080517f61737365742e676f7665726e616e636500000000000000000000000000000000602080830191909152606060020a30026030830152825160248184030181526044909201928390528151600094600160a060020a0316936304f49a3a9392909182918401908083835b60208310611b5f5780518252601f199092019160209182019101611b40565b51815160209384036101000a60001901801990921691161790526040805192909401829003822063ffffffff881660e060020a0283526004830152925160248083019650939450929083900301905081600087803b158015611bc057600080fd5b505af1158015611bd4573d6000803e3d6000fd5b505050506040513d6020811015611bea57600080fd5b5051600160a060020a03161415611c0057600080fd5b600c54604080516000805160206124b6833981519152602080830191909152606060020a308102603084015233026044830152825160388184030181526058909201928390528151611d23948894600160a060020a039091169363a855d4ce93909282918401908083835b60208310611c8a5780518252601f199092019160209182019101611c6b565b51815160209384036101000a60001901801990921691161790526040805192909401829003822063ffffffff881660e060020a0283526004830152925160248083019650939450929083900301905081600087803b158015611ceb57600080fd5b505af1158015611cff573d6000803e3d6000fd5b505050506040513d6020811015611d1557600080fd5b50519063ffffffff61219c16565b9050611d2e336115b6565b811115611d3a57600080fd5b600c54604080517f636f6d6d69746d656e742e737461727400000000000000000000000000000000602080830191909152606060020a308102603084015233026044830152825160388184030181526058909201928390528151600160a060020a039094169363e2a4853a93918291908401908083835b60208310611dd05780518252601f199092019160209182019101611db1565b5181516020939093036101000a60001901801990911692169190911790526040805191909301819003812063ffffffff871660e060020a0282526004820152426024820152915160448084019550600094509092839003019050818387803b158015611e3b57600080fd5b505af1158015611e4f573d6000803e3d6000fd5b5050600c54604080517f636f6d6d69746d656e742e72656c6561736574696d6500000000000000000000602080830191909152606060020a30810260368401523302604a8301528251603e818403018152605e909201928390528151600160a060020a03909416955063e2a4853a9450909282918401908083835b60208310611ee95780518252601f199092019160209182019101611eca565b51815160209384036101000a600019018019909216911617905260408051929094018290038220600c547f61737365742e766f74654475726174696f6e00000000000000000000000000008484015230606060020a0260328501528551808503602601815260469094019586905283519197506120369650600160a060020a03169463a855d4ce9450918291908401908083835b60208310611f9c5780518252601f199092019160209182019101611f7d565b51815160209384036101000a60001901801990921691161790526040805192909401829003822063ffffffff881660e060020a0283526004830152925160248083019650939450929083900301905081600087803b158015611ffd57600080fd5b505af1158015612011573d6000803e3d6000fd5b505050506040513d602081101561202757600080fd5b5051429063ffffffff61219c16565b6040518363ffffffff1660e060020a02815260040180836000191660001916815260200182815260200192505050600060405180830381600087803b1580156113ad57600080fd5b600160a060020a03918216600090815260016020908152604080832093909416825291909152205490565b600b6020526000908152604090205481565b6000828211156120c757fe5b50900390565b6000836120dc610aa582610fdb565b600160a060020a0382166000908152600a6020908152604080832093909355600954600b9091529190205583612114610aa582610fdb565b600160a060020a038083166000908152600a6020908152604080832094909455600954600b90915292902091909155851630141561215157600080fd5b6114ca868686612245565b60008083151561216f57600091506115af565b5082820282848281151561217f57fe5b041461103657fe5b6000818381151561219457fe5b049392505050565b60008282018381101561103657fe5b6000336121ba610aa582610fdb565b600160a060020a0382166000908152600a6020908152604080832093909355600954600b90915291902055836121f2610aa582610fdb565b600160a060020a038083166000908152600a6020908152604080832094909455600954600b90915292902091909155851630141561222f57600080fd5b61223985856123a8565b50600195945050505050565b600160a060020a03831660009081526020819052604081205482111561226a57600080fd5b600160a060020a038416600090815260016020908152604080832033845290915290205482111561229a57600080fd5b600160a060020a03831615156122af57600080fd5b600160a060020a0384166000908152602081905260409020546122d8908363ffffffff6120bb16565b600160a060020a03808616600090815260208190526040808220939093559085168152205461230d908363ffffffff61219c16565b600160a060020a0380851660009081526020818152604080832094909455918716815260018252828120338252909152205461234f908363ffffffff6120bb16565b600160a060020a0380861660008181526001602090815260408083203384528252918290209490945580518681529051928716939192600080516020612476833981519152929181900390910190a35060019392505050565b336000908152602081905260408120548211156123c457600080fd5b600160a060020a03831615156123d957600080fd5b336000908152602081905260409020546123f9908363ffffffff6120bb16565b3360009081526020819052604080822092909255600160a060020a0385168152205461242b908363ffffffff61219c16565b600160a060020a038416600081815260208181526040918290209390935580518581529051919233926000805160206124768339815191529281900390910190a3506001929150505600ddf252ad1be2c89b69c2b068fc378daa952ba7f163c4a11628f55a4df523b3ef8c5be1e5ebec7d5bd14f71427d1e84f3dd0314c0f7b2291e5b200ac8c7c3b925636f6d6d69746d656e742e76616c756500000000000000000000000000000000a165627a7a7230582005b192ff54ba42d1a88ab167f08abbf8e48acb6f96a9da4097d8201e206e61700029",
  "source": "pragma solidity ^0.4.24;\n\nimport \"./DividendTokenERC20.sol\";\nimport \"./GovernedToken.sol\";\nimport \"./BurnableToken.sol\";\n\n// @title A Dividend token that has governance features and receives ERC20 tokens as payment\n// @notice This token contract can receive ERC20 tokens as payments and token owners can lock tokens while submitting votes\n// @author Kyle Dewhurst & Peter Phillips, MyBit Foundation\n// @dev Dividend tokens aren't actually locked, but restricted from transferring to avoid locking contravt having to distribute dividends.\ncontract GovernedTokenERC20 is DividendTokenERC20, GovernedToken, BurnableToken{\n\n  // @notice constructor: initializes database and DividendTokenERC20\n  // @param (address) _database = the address of the platform database\n  // @param (string) _tokenURI = The URI where details of the token (asse) can be found\n  // @param (address) _owner = The minting authority for this token\n  // @param (address) _erc20Address = The address of the erc20 token to be sent for dividends\n  constructor(address _database, string _tokenURI, address _owner, address _erc20Address)\n  public\n  GovernedToken(_database)\n  DividendTokenERC20(_tokenURI, _owner, _erc20Address){}\n\n  // @notice Standard DividendToke transfer function, which checks for locked tokens before sending\n  function transfer(address _to, uint _amount)\n  public\n  returns (bool success) {\n      require(_amount <= getAmountAvailable(msg.sender));\n      super.transfer(_to, _amount);\n      return true;\n  }\n\n  // @notice Standard DividendToke transferFrom function, which checks for locked tokens before sending\n  function transferFrom(address _from, address _to, uint _amount)\n  public\n  returns (bool success) {\n      require(_amount <= getAmountAvailable(_from));\n      super.transferFrom(_from, _to, _amount);\n      return true;\n  }\n}\n",
  "sourcePath": "/home/peter/Documents/Work/MyBit/MyBit-Network.tech/contracts/tokens/erc20/GovernedTokenERC20.sol",
  "compiler": {
    "name": "solc",
    "version": "0.4.24+commit.e67f0147.Emscripten.clang"
  },
  "schemaVersion": "3.0.2",
  "updatedAt": "2019-03-21T21:27:43.614Z",
  "devdoc": {
    "methods": {
      "allowance(address,address)": {
        "details": "Function to check the amount of tokens that an owner allowed to a spender.",
        "params": {
          "_owner": "address The address which owns the funds.",
          "_spender": "address The address which will spend the funds."
        },
        "return": "A uint256 specifying the amount of tokens still available for the spender."
      },
      "approve(address,uint256)": {
        "details": "Approve the passed address to spend the specified amount of tokens on behalf of msg.sender. Beware that changing an allowance with this method brings the risk that someone may use both the old and the new allowance by unfortunate transaction ordering. One possible solution to mitigate this race condition is to first reduce the spender's allowance to 0 and set the desired value afterwards: https://github.com/ethereum/EIPs/issues/20#issuecomment-263524729",
        "params": {
          "_spender": "The address which will spend the funds.",
          "_value": "The amount of tokens to be spent."
        }
      },
      "balanceOf(address)": {
        "details": "Gets the balance of the specified address.",
        "params": {
          "_owner": "The address to query the the balance of."
        },
        "return": "An uint256 representing the amount owned by the passed address."
      },
      "decreaseApproval(address,uint256)": {
        "details": "Decrease the amount of tokens that an owner allowed to a spender. approve should be called when allowed[_spender] == 0. To decrement allowed value is better to use this function to avoid 2 calls (and wait until the first transaction is mined) From MonolithDAO Token.sol",
        "params": {
          "_spender": "The address which will spend the funds.",
          "_subtractedValue": "The amount of tokens to decrease the allowance by."
        }
      },
      "increaseApproval(address,uint256)": {
        "details": "Increase the amount of tokens that an owner allowed to a spender. approve should be called when allowed[_spender] == 0. To increment allowed value is better to use this function to avoid 2 calls (and wait until the first transaction is mined) From MonolithDAO Token.sol",
        "params": {
          "_addedValue": "The amount of tokens to increase the allowance by.",
          "_spender": "The address which will spend the funds."
        }
      },
      "totalSupply()": {
        "details": "Total number of tokens in existence"
      }
    }
  },
  "userdoc": {
    "methods": {}
  }
}