{
  "contractName": "GovernanceControls",
  "abi": [
    {
      "constant": true,
      "inputs": [],
      "name": "db",
      "outputs": [
        {
          "name": "",
          "type": "address"
        }
      ],
      "payable": false,
      "stateMutability": "view",
      "type": "function"
    },
    {
      "constant": true,
      "inputs": [],
      "name": "events",
      "outputs": [
        {
          "name": "",
          "type": "address"
        }
      ],
      "payable": false,
      "stateMutability": "view",
      "type": "function"
    },
    {
      "inputs": [
        {
          "name": "database",
          "type": "address"
        },
        {
          "name": "logs",
          "type": "address"
        }
      ],
      "payable": false,
      "stateMutability": "nonpayable",
      "type": "constructor"
    },
    {
      "constant": false,
      "inputs": [
        {
          "name": "tokenAddress",
          "type": "address"
        },
        {
          "name": "governanceContract",
          "type": "address"
        },
        {
          "name": "voteDuration",
          "type": "uint256"
        },
        {
          "name": "quorum",
          "type": "uint8"
        },
        {
          "name": "threshold",
          "type": "uint8"
        }
      ],
      "name": "startGovernance",
      "outputs": [
        {
          "name": "",
          "type": "bool"
        }
      ],
      "payable": false,
      "stateMutability": "nonpayable",
      "type": "function"
    },
    {
      "constant": false,
      "inputs": [],
      "name": "destroy",
      "outputs": [],
      "payable": false,
      "stateMutability": "nonpayable",
      "type": "function"
    }
  ],
  "bytecode": "0x608060405234801561001057600080fd5b5060405160408061092e83398101604052805160209091015160008054600160a060020a03938416600160a060020a031991821617909155600180549390921692169190911790556108c7806100676000396000f3006080604052600436106100485763ffffffff60e060020a6000350416634d655aff811461004d57806383197ef01461007e578063b5f8558c14610095578063c7e2a0f1146100aa575b600080fd5b34801561005957600080fd5b506100626100f4565b60408051600160a060020a039092168252519081900360200190f35b34801561008a57600080fd5b50610093610103565b005b3480156100a157600080fd5b506100626102f8565b3480156100b657600080fd5b506100e0600160a060020a036004358116906024351660443560ff60643581169060843516610307565b604080519115158252519081900360200190f35b600054600160a060020a031681565b600054604080517f6f776e65720000000000000000000000000000000000000000000000000000006020808301919091526c0100000000000000000000000033026025830152825160198184030181526039909201928390528151600160a060020a0390941693633b7bfda093918291908401908083835b6020831061019a5780518252601f19909201916020918201910161017b565b51815160209384036101000a60001901801990921691161790526040805192909401829003822063ffffffff881660e060020a0283526004830152925160248083019650939450929083900301905081600087803b1580156101fb57600080fd5b505af115801561020f573d6000803e3d6000fd5b505050506040513d602081101561022557600080fd5b5051151560011461023557600080fd5b600154604080517f68b96270000000000000000000000000000000000000000000000000000000008152306024820181905233604483015231606482015260a06004820152601b60a48201527f476f7665726e616e6365206c6576656c732064657374726f796564000000000060c48201529051600160a060020a03909216916368b962709160e48082019260009290919082900301818387803b1580156102dc57600080fd5b505af11580156102f0573d6000803e3d6000fd5b503392505050ff5b600154600160a060020a031681565b60008060008460ff16118015610320575060648460ff16105b151561032b57600080fd5b60008360ff16118015610341575060648360ff16105b151561034c57600080fd5b62015180851161035b57600080fd5b604080517f61737365742e676f7665726e616e6365000000000000000000000000000000006020808301919091526c01000000000000000000000000600160a060020a038b1602603083015282516024818403018152604490920192839052815191929182918401908083835b602083106103e75780518252601f1990920191602091820191016103c8565b51815160209384036101000a600019018019909216911617905260408051929094018290038220600080547f04f49a3a0000000000000000000000000000000000000000000000000000000085526004850183905295519198509650600160a060020a0390941694506304f49a3a9360248084019450919290919082900301818787803b15801561047757600080fd5b505af115801561048b573d6000803e3d6000fd5b505050506040513d60208110156104a157600080fd5b5051600160a060020a0316146104b657600080fd5b60008054604080517fca446dd900000000000000000000000000000000000000000000000000000000815260048101859052600160a060020a038a811660248301529151919092169263ca446dd9926044808201939182900301818387803b15801561052157600080fd5b505af1158015610535573d6000803e3d6000fd5b5050600054604080517f61737365742e766f74654475726174696f6e0000000000000000000000000000602080830191909152600160a060020a038d81166c010000000000000000000000000260328401528351808403602601815260469093019384905282519416955063e2a4853a9450909282918401908083835b602083106105d15780518252601f1990920191602091820191016105b2565b5181516020939093036101000a60001901801990911692169190911790526040805191909301819003812063ffffffff871660e060020a0282526004820152602481018c9052915160448084019550600094509092839003019050818387803b15801561063d57600080fd5b505af1158015610651573d6000803e3d6000fd5b5050600054604080517f61737365742e71756f72756d0000000000000000000000000000000000000000602080830191909152600160a060020a038d81166c0100000000000000000000000002602c8401528351808403830181529284019384905282519416955063e2a4853a9450909282918401908083835b602083106106ea5780518252601f1990920191602091820191016106cb565b5181516020939093036101000a60001901801990911692169190911790526040805191909301819003812063ffffffff871660e060020a028252600482015260ff8b166024820152915160448084019550600094509092839003019050818387803b15801561075857600080fd5b505af115801561076c573d6000803e3d6000fd5b5050600054604080517f61737365742e7468726573686f6c640000000000000000000000000000000000602080830191909152600160a060020a038d81166c0100000000000000000000000002602f8401528351808403602301815260439093019384905282519416955063e2a4853a9450909282918401908083835b602083106108085780518252601f1990920191602091820191016107e9565b5181516020939093036101000a60001901801990911692169190911790526040805191909301819003812063ffffffff871660e060020a028252600482015260ff8a166024820152915160448084019550600094509092839003019050818387803b15801561087657600080fd5b505af115801561088a573d6000803e3d6000fd5b5060019a99505050505050505050505600a165627a7a723058204037215545d08792ccd3b8447e1c43d921d7f9d98a9a544e2f99dee8d03941350029",
  "source": "pragma solidity ^0.4.24;\n\nimport '../database/Database.sol';\nimport '../database/Events.sol';\nimport '../math/SafeMath.sol';\nimport '../interfaces/ERC20.sol';\n\n\n// @title A contract which allows for token holders to authorize particular functions to be called\n// @notice Token holders must lock their tokens against a particular function\n// @notice Token holders can unlock their tokens, removing their vote\n// @dev An owner has already been initialized when database is deployed\n// @author Kyle Dewhurst, MyBit Foundation\ncontract GovernanceControls {\n  using SafeMath for uint256;\n\n  Database public db;\n  Events public events;\n\n\n\n  // @notice initiator of the platform sets the initial functions quorum level\n  // @notice quorum level dictates the number of votes required for that function to be executed\n  constructor(address database, address logs)\n  public  {\n    db = Database(database);\n    events = Events(logs);\n  }\n\n  // @notice initiates governance for this token\n  // @param tokenAddress - MYB token contract address.\n  // @param voteDuration - Vote duration. Voting period of each proposal. Must be positive.\n  // @param quorum - Amount of supply that must vote to make a proposal valid. Integer percent, eg 20 for 20%. In range 1-100 inclusive.\n  // @param threshold - Amount of weighted votes that must be approval for a proposal to pass. Integer percent, eg 51 for 51%. In range 1-100 inclusive.\n  function startGovernance(address tokenAddress, address governanceContract, uint256 voteDuration, uint8 quorum, uint8 threshold)\n  public\n  returns (bool){\n    // TODO: only allow initiating by platform contract\n    require(quorum > 0 && quorum < 100);\n    require(threshold > 0 && threshold < 100);\n    require(voteDuration > 86400);   // 1 day minimum\n    bytes32 governanceID = keccak256(abi.encodePacked(\"asset.governance\", tokenAddress));\n    require(db.addressStorage(governanceID) == address(0));\n    db.setAddress(governanceID, governanceContract);\n    db.setUint(keccak256(abi.encodePacked(\"asset.voteDuration\", tokenAddress)), voteDuration);\n    db.setUint(keccak256(abi.encodePacked(\"asset.quorum\", tokenAddress)), quorum);\n    db.setUint(keccak256(abi.encodePacked(\"asset.threshold\", tokenAddress)), threshold);\n    return true;\n  }\n\n\n  // // @notice If restricted it will have to be called from address(this) using a voting proccess on signForFunctionCall\n  // function addFunctionality(address _contractAddress, address tokenAddress, bytes4 _methodID, uint256 quorumLevel, uint256 threshold)\n  // external\n  // isRestricted(msg.sig, keccak256(abi.encodePacked(_contractAddress, tokenAddress, _methodID, quorumLevel)))\n  // returns (bool) {\n  //   return true;\n  // }\n\n\n  // function updateGovernance(address token address newContract)\n  // external\n  // returns (bool) {\n  //\n  // }\n\n\n  //\n  // function setBurnRatio()\n  // external\n  // returns (bool) {\n  //   return true;\n  // }\n  //\n\n\n  // @notice platform owners can destroy contract here\n  function destroy()\n  onlyOwner\n  external {\n    events.transaction('Governance levels destroyed', address(this), msg.sender, address(this).balance, '');\n    selfdestruct(msg.sender);\n  }\n\n\n\n  // @notice reverts if caller is not the owner\n  modifier onlyOwner {\n    require(db.boolStorage(keccak256(abi.encodePacked(\"owner\", msg.sender))) == true);\n    _;\n  }\n\n\n  //------------------------------------------------------------------------------------------------------------------\n  //                                              Events\n  //------------------------------------------------------------------------------------------------------------------\n}\n",
  "sourcePath": "/home/peter/Documents/Work/MyBit/MyBit-Network.tech/contracts/ownership/GovernanceControls.sol",
  "compiler": {
    "name": "solc",
    "version": "0.4.24+commit.e67f0147.Emscripten.clang"
  },
  "schemaVersion": "3.0.1",
  "updatedAt": "2019-03-13T22:36:34.618Z",
  "devdoc": {
    "methods": {}
  },
  "userdoc": {
    "methods": {}
  }
}