{
  "contractName": "GovernedTokenERC20",
  "abi": [
    {
      "constant": true,
      "inputs": [],
      "name": "mintingFinished",
      "outputs": [
        {
          "name": "",
          "type": "bool"
        }
      ],
      "payable": false,
      "stateMutability": "view",
      "type": "function"
    },
    {
      "constant": false,
      "inputs": [
        {
          "name": "_spender",
          "type": "address"
        },
        {
          "name": "_value",
          "type": "uint256"
        }
      ],
      "name": "approve",
      "outputs": [
        {
          "name": "",
          "type": "bool"
        }
      ],
      "payable": false,
      "stateMutability": "nonpayable",
      "type": "function"
    },
    {
      "constant": true,
      "inputs": [],
      "name": "totalSupply",
      "outputs": [
        {
          "name": "",
          "type": "uint256"
        }
      ],
      "payable": false,
      "stateMutability": "view",
      "type": "function"
    },
    {
      "constant": true,
      "inputs": [],
      "name": "assetIncome",
      "outputs": [
        {
          "name": "",
          "type": "uint256"
        }
      ],
      "payable": false,
      "stateMutability": "view",
      "type": "function"
    },
    {
      "constant": true,
      "inputs": [],
      "name": "assetIncomeIssued",
      "outputs": [
        {
          "name": "",
          "type": "uint256"
        }
      ],
      "payable": false,
      "stateMutability": "view",
      "type": "function"
    },
    {
      "constant": false,
      "inputs": [],
      "name": "checkForTransfers",
      "outputs": [],
      "payable": false,
      "stateMutability": "nonpayable",
      "type": "function"
    },
    {
      "constant": true,
      "inputs": [
        {
          "name": "_investor",
          "type": "address"
        }
      ],
      "name": "getAmountOwed",
      "outputs": [
        {
          "name": "",
          "type": "uint256"
        }
      ],
      "payable": false,
      "stateMutability": "view",
      "type": "function"
    },
    {
      "constant": false,
      "inputs": [],
      "name": "withdraw",
      "outputs": [
        {
          "name": "",
          "type": "bool"
        }
      ],
      "payable": false,
      "stateMutability": "nonpayable",
      "type": "function"
    },
    {
      "constant": false,
      "inputs": [
        {
          "name": "_to",
          "type": "address"
        },
        {
          "name": "_amount",
          "type": "uint256"
        }
      ],
      "name": "mint",
      "outputs": [
        {
          "name": "",
          "type": "bool"
        }
      ],
      "payable": false,
      "stateMutability": "nonpayable",
      "type": "function"
    },
    {
      "constant": false,
      "inputs": [
        {
          "name": "_amount",
          "type": "uint256"
        }
      ],
      "name": "burn",
      "outputs": [
        {
          "name": "success",
          "type": "bool"
        }
      ],
      "payable": false,
      "stateMutability": "nonpayable",
      "type": "function"
    },
    {
      "constant": true,
      "inputs": [],
      "name": "getERC20",
      "outputs": [
        {
          "name": "",
          "type": "address"
        }
      ],
      "payable": false,
      "stateMutability": "view",
      "type": "function"
    },
    {
      "constant": false,
      "inputs": [
        {
          "name": "_amount",
          "type": "uint256"
        }
      ],
      "name": "issueDividends",
      "outputs": [
        {
          "name": "",
          "type": "bool"
        }
      ],
      "payable": false,
      "stateMutability": "nonpayable",
      "type": "function"
    },
    {
      "constant": true,
      "inputs": [
        {
          "name": "_investor",
          "type": "address"
        }
      ],
      "name": "collectLatestPayments",
      "outputs": [
        {
          "name": "",
          "type": "uint256"
        }
      ],
      "payable": false,
      "stateMutability": "view",
      "type": "function"
    },
    {
      "constant": false,
      "inputs": [
        {
          "name": "_spender",
          "type": "address"
        },
        {
          "name": "_subtractedValue",
          "type": "uint256"
        }
      ],
      "name": "decreaseApproval",
      "outputs": [
        {
          "name": "",
          "type": "bool"
        }
      ],
      "payable": false,
      "stateMutability": "nonpayable",
      "type": "function"
    },
    {
      "constant": true,
      "inputs": [
        {
          "name": "_owner",
          "type": "address"
        }
      ],
      "name": "balanceOf",
      "outputs": [
        {
          "name": "",
          "type": "uint256"
        }
      ],
      "payable": false,
      "stateMutability": "view",
      "type": "function"
    },
    {
      "constant": true,
      "inputs": [],
      "name": "database",
      "outputs": [
        {
          "name": "",
          "type": "address"
        }
      ],
      "payable": false,
      "stateMutability": "view",
      "type": "function"
    },
    {
      "constant": true,
      "inputs": [],
      "name": "erc20",
      "outputs": [
        {
          "name": "",
          "type": "address"
        }
      ],
      "payable": false,
      "stateMutability": "view",
      "type": "function"
    },
    {
      "constant": false,
      "inputs": [
        {
          "name": "_from",
          "type": "address"
        },
        {
          "name": "_amount",
          "type": "uint256"
        }
      ],
      "name": "burnFrom",
      "outputs": [
        {
          "name": "success",
          "type": "bool"
        }
      ],
      "payable": false,
      "stateMutability": "nonpayable",
      "type": "function"
    },
    {
      "constant": false,
      "inputs": [],
      "name": "finishMinting",
      "outputs": [
        {
          "name": "",
          "type": "bool"
        }
      ],
      "payable": false,
      "stateMutability": "nonpayable",
      "type": "function"
    },
    {
      "constant": true,
      "inputs": [],
      "name": "valuePerToken",
      "outputs": [
        {
          "name": "",
          "type": "uint256"
        }
      ],
      "payable": false,
      "stateMutability": "view",
      "type": "function"
    },
    {
      "constant": true,
      "inputs": [
        {
          "name": "",
          "type": "address"
        }
      ],
      "name": "incomeClaimed",
      "outputs": [
        {
          "name": "",
          "type": "uint256"
        }
      ],
      "payable": false,
      "stateMutability": "view",
      "type": "function"
    },
    {
      "constant": false,
      "inputs": [
        {
          "name": "_spender",
          "type": "address"
        },
        {
          "name": "_amount",
          "type": "uint256"
        },
        {
          "name": "_data",
          "type": "bytes"
        }
      ],
      "name": "approveAndCall",
      "outputs": [
        {
          "name": "success",
          "type": "bool"
        }
      ],
      "payable": false,
      "stateMutability": "nonpayable",
      "type": "function"
    },
    {
      "constant": true,
      "inputs": [],
      "name": "getTokenURI",
      "outputs": [
        {
          "name": "",
          "type": "string"
        }
      ],
      "payable": false,
      "stateMutability": "view",
      "type": "function"
    },
    {
      "constant": false,
      "inputs": [
        {
          "name": "_spender",
          "type": "address"
        },
        {
          "name": "_addedValue",
          "type": "uint256"
        }
      ],
      "name": "increaseApproval",
      "outputs": [
        {
          "name": "",
          "type": "bool"
        }
      ],
      "payable": false,
      "stateMutability": "nonpayable",
      "type": "function"
    },
    {
      "constant": true,
      "inputs": [
        {
          "name": "_owner",
          "type": "address"
        },
        {
          "name": "_spender",
          "type": "address"
        }
      ],
      "name": "allowance",
      "outputs": [
        {
          "name": "",
          "type": "uint256"
        }
      ],
      "payable": false,
      "stateMutability": "view",
      "type": "function"
    },
    {
      "constant": true,
      "inputs": [
        {
          "name": "",
          "type": "address"
        }
      ],
      "name": "previousValuePerToken",
      "outputs": [
        {
          "name": "",
          "type": "uint256"
        }
      ],
      "payable": false,
      "stateMutability": "view",
      "type": "function"
    },
    {
      "inputs": [
        {
          "name": "_database",
          "type": "address"
        },
        {
          "name": "_tokenURI",
          "type": "string"
        },
        {
          "name": "_owner",
          "type": "address"
        },
        {
          "name": "_erc20Address",
          "type": "address"
        }
      ],
      "payable": false,
      "stateMutability": "nonpayable",
      "type": "constructor"
    },
    {
      "anonymous": false,
      "inputs": [
        {
          "indexed": true,
          "name": "_spender",
          "type": "address"
        },
        {
          "indexed": false,
          "name": "_value",
          "type": "uint256"
        }
      ],
      "name": "LogBurn",
      "type": "event"
    },
    {
      "anonymous": false,
      "inputs": [
        {
          "indexed": true,
          "name": "_sender",
          "type": "address"
        },
        {
          "indexed": false,
          "name": "_paymentAmount",
          "type": "uint256"
        }
      ],
      "name": "LogIncomeReceived",
      "type": "event"
    },
    {
      "anonymous": false,
      "inputs": [
        {
          "indexed": false,
          "name": "_difference",
          "type": "uint256"
        }
      ],
      "name": "LogCheckBalance",
      "type": "event"
    },
    {
      "anonymous": false,
      "inputs": [
        {
          "indexed": false,
          "name": "_address",
          "type": "address"
        },
        {
          "indexed": false,
          "name": "_amount",
          "type": "uint256"
        }
      ],
      "name": "LogIncomeCollected",
      "type": "event"
    },
    {
      "anonymous": false,
      "inputs": [
        {
          "indexed": true,
          "name": "to",
          "type": "address"
        },
        {
          "indexed": false,
          "name": "amount",
          "type": "uint256"
        }
      ],
      "name": "Mint",
      "type": "event"
    },
    {
      "anonymous": false,
      "inputs": [],
      "name": "MintFinished",
      "type": "event"
    },
    {
      "anonymous": false,
      "inputs": [
        {
          "indexed": true,
          "name": "from",
          "type": "address"
        },
        {
          "indexed": true,
          "name": "to",
          "type": "address"
        },
        {
          "indexed": false,
          "name": "value",
          "type": "uint256"
        }
      ],
      "name": "Transfer",
      "type": "event"
    },
    {
      "anonymous": false,
      "inputs": [
        {
          "indexed": true,
          "name": "owner",
          "type": "address"
        },
        {
          "indexed": true,
          "name": "spender",
          "type": "address"
        },
        {
          "indexed": false,
          "name": "value",
          "type": "uint256"
        }
      ],
      "name": "Approval",
      "type": "event"
    },
    {
      "constant": false,
      "inputs": [
        {
          "name": "_to",
          "type": "address"
        },
        {
          "name": "_amount",
          "type": "uint256"
        }
      ],
      "name": "transfer",
      "outputs": [
        {
          "name": "success",
          "type": "bool"
        }
      ],
      "payable": false,
      "stateMutability": "nonpayable",
      "type": "function"
    },
    {
      "constant": false,
      "inputs": [
        {
          "name": "_from",
          "type": "address"
        },
        {
          "name": "_to",
          "type": "address"
        },
        {
          "name": "_amount",
          "type": "uint256"
        }
      ],
      "name": "transferFrom",
      "outputs": [
        {
          "name": "success",
          "type": "bool"
        }
      ],
      "payable": false,
      "stateMutability": "nonpayable",
      "type": "function"
    },
    {
      "constant": true,
      "inputs": [
        {
          "name": "_investor",
          "type": "address"
        }
      ],
      "name": "getAmountAvailable",
      "outputs": [
        {
          "name": "",
          "type": "uint256"
        }
      ],
      "payable": false,
      "stateMutability": "view",
      "type": "function"
    }
  ],
  "bytecode": "0x60806040523480156200001157600080fd5b5060405162001bb438038062001bb48339810160409081528151602080840151928401516060850151939094018051929490939092909184918491849184918491620000649160049190850190620000c0565b506003805461010060a860020a031916610100600160a060020a0393841602179055600060025560058054600160a060020a0319908116948316949094179055600b805490931698169790971790555062000165945050505050565b828054600181600116156101000203166002900490600052602060002090601f016020900481019282601f106200010357805160ff191683800117855562000133565b8280016001018555821562000133579182015b828111156200013357825182559160200191906001019062000116565b506200014192915062000145565b5090565b6200016291905b808211156200014157600081556001016200014c565b90565b611a3f80620001756000396000f30060806040526004361061015b5763ffffffff60e060020a60003504166305d2035b8114610160578063095ea7b3146101895780630f9f57eb146101ad57806318160ddd146101e057806323b872dd146101f55780632ba1b3a11461021f5780632da208e51461023457806330d0e75f146102495780633bdfa920146102605780633ccfd60b1461028157806340c10f191461029657806342966c68146102ba5780634ece90a8146102d257806352ff7fa91461030357806355ed47c91461031b578063661884631461033c57806370a0823114610360578063713b563f14610381578063785e9e861461039657806379cc6790146103ab5780637d64bcb4146103cf578063a8fa8e52146103e4578063a9059cbb146103f9578063b8c8e1e61461041d578063cae9ca511461043e578063d4a19116146104a7578063d73dd62314610531578063dd62ed3e14610555578063efcb5dea1461057c575b600080fd5b34801561016c57600080fd5b5061017561059d565b604080519115158252519081900360200190f35b34801561019557600080fd5b50610175600160a060020a03600435166024356105a6565b3480156101b957600080fd5b506101ce600160a060020a03600435166105fa565b60408051918252519081900360200190f35b3480156101ec57600080fd5b506101ce61088f565b34801561020157600080fd5b50610175600160a060020a0360043581169060243516604435610895565b34801561022b57600080fd5b506101ce6108c2565b34801561024057600080fd5b506101ce6108c8565b34801561025557600080fd5b5061025e6108ce565b005b34801561026c57600080fd5b506101ce600160a060020a0360043516610a32565b34801561028d57600080fd5b50610175610a7e565b3480156102a257600080fd5b50610175600160a060020a0360043516602435610c12565b3480156102c657600080fd5b50610175600435610d09565b3480156102de57600080fd5b506102e7610db3565b60408051600160a060020a039092168252519081900360200190f35b34801561030f57600080fd5b50610175600435610dc2565b34801561032757600080fd5b506101ce600160a060020a0360043516610fbe565b34801561034857600080fd5b50610175600160a060020a0360043516602435611020565b34801561036c57600080fd5b506101ce600160a060020a03600435166110ff565b34801561038d57600080fd5b506102e761111a565b3480156103a257600080fd5b506102e7611129565b3480156103b757600080fd5b50610175600160a060020a0360043516602435611138565b3480156103db57600080fd5b5061017561124d565b3480156103f057600080fd5b506101ce6112b9565b34801561040557600080fd5b50610175600160a060020a03600435166024356112bf565b34801561042957600080fd5b506101ce600160a060020a03600435166112ea565b34801561044a57600080fd5b50604080516020600460443581810135601f8101849004840285018401909552848452610175948235600160a060020a03169460248035953695946064949201919081908401838280828437509497506112fc9650505050505050565b3480156104b357600080fd5b506104bc6114b2565b6040805160208082528351818301528351919283929083019185019080838360005b838110156104f65781810151838201526020016104de565b50505050905090810190601f1680156105235780820380516001836020036101000a031916815260200191505b509250505060405180910390f35b34801561053d57600080fd5b50610175600160a060020a0360043516602435611548565b34801561056157600080fd5b506101ce600160a060020a03600435811690602435166115cf565b34801561058857600080fd5b506101ce600160a060020a03600435166115fa565b60035460ff1681565b336000818152600160209081526040808320600160a060020a038716808552908352818420869055815186815291519394909390926000805160206119f4833981519152928290030190a350600192915050565b600b54604080517f6173736574546f6b656e494400000000000000000000000000000000000000006020808301919091526c010000000000000000000000003002602c8301528251808303820181529183019283905281516000948594859485948594600160a060020a039094169363031578af93918291908401908083835b602083106106995780518252601f19909201916020918201910161067a565b51815160209384036101000a60001901801990921691161790526040805192909401829003822063ffffffff881660e060020a0283526004830152925160248083019650939450929083900301905081600087803b1580156106fa57600080fd5b505af115801561070e573d6000803e3d6000fd5b505050506040513d602081101561072457600080fd5b5051600b54604080517f746f6b656e734c6f636b65640000000000000000000000000000000000000000602080830191909152602c8201859052600160a060020a038b81166c0100000000000000000000000002604c84015283518084038501815260609093019384905282519599509093169363a855d4ce939192918291908401908083835b602083106107ca5780518252601f1990920191602091820191016107ab565b51815160209384036101000a60001901801990921691161790526040805192909401829003822063ffffffff881660e060020a0283526004830152925160248083019650939450929083900301905081600087803b15801561082b57600080fd5b505af115801561083f573d6000803e3d6000fd5b505050506040513d602081101561085557600080fd5b5051600160a060020a0387166000908152602081905260409020549093509150610885828463ffffffff61160c16565b9695505050505050565b60025490565b60006108a0846105fa565b8211156108ac57600080fd5b6108b784848461161e565b506001949350505050565b60065481565b60075481565b60008060006108ea60075460065461160c90919063ffffffff16565b600554604080517f70a082310000000000000000000000000000000000000000000000000000000081523060048201529051929550600160a060020a03909116916370a08231916024808201926020929091908290030181600087803b15801561095357600080fd5b505af1158015610967573d6000803e3d6000fd5b505050506040513d602081101561097d57600080fd5b50519150610991828463ffffffff61160c16565b905060008111156109fa576002546109e0906109d1906109c5846d04ee2d6d415b85acef810000000063ffffffff6116ba16565b9063ffffffff6116e516565b6008549063ffffffff6116fa16565b6008556006546109f6908263ffffffff6116fa16565b6006555b6040805182815290517f0d7ab7150531466ac81cc2479d86788246bab0e9cc606a06ec6af5c8ab0d6f8e9181900360200190a1505050565b600160a060020a038116600090815260096020526040812054610a78906d04ee2d6d415b85acef8100000000906109c590610a6c86610fbe565b9063ffffffff6116fa16565b92915050565b60008033610ab3610a8e82610fbe565b600160a060020a0383166000908152600960205260409020549063ffffffff6116fa16565b600160a060020a038216600090815260096020818152604080842094909455600854600a825284842055338352522054610b01906d04ee2d6d415b85acef810000000063ffffffff6116e516565b33600090815260096020526040812055600754909250610b27908363ffffffff6116fa16565b600755600554604080517fa9059cbb000000000000000000000000000000000000000000000000000000008152336004820152602481018590529051600160a060020a039092169163a9059cbb916044808201926020929091908290030181600087803b158015610b9757600080fd5b505af1158015610bab573d6000803e3d6000fd5b505050506040513d6020811015610bc157600080fd5b50511515610bce57600080fd5b604080513381526020810184905281517ff5b510c554f6c572235f7e531ec8f287b350b15c212250b993180473a6aeb7d1929181900390910190a160019250505090565b60035460009060ff16158015610c3757506003546101009004600160a060020a031633145b1515610c4257600080fd5b600254610c55908363ffffffff6116fa16565b600255600160a060020a038316600090815260208190526040902054610c81908363ffffffff6116fa16565b600160a060020a03841660008181526020818152604091829020939093558051858152905191927f0f6798a560793a54c3bcfe86a93cde1e73087d944c0ea20544137d412139688592918290030190a2604080518381529051600160a060020a038516916000916000805160206119d48339815191529181900360200190a350600192915050565b33600090815260208190526040812054610d29908363ffffffff61160c16565b33600090815260208190526040902055600254610d4c908363ffffffff61160c16565b60025560408051838152905133917f38d762ef507761291a578e921acfe29c1af31a7331ea03e391cf16cfc4d4f581919081900360200190a260408051838152905160009133916000805160206119d48339815191529181900360200190a3506001919050565b600554600160a060020a031690565b6000808211610e3257604080517f08c379a000000000000000000000000000000000000000000000000000000000815260206004820152601060248201527f43616e6e6f742073656e64207a65726f00000000000000000000000000000000604482015290519081900360640190fd5b600554604080517f23b872dd000000000000000000000000000000000000000000000000000000008152336004820152306024820152604481018590529051600160a060020a03909216916323b872dd916064808201926020929091908290030181600087803b158015610ea557600080fd5b505af1158015610eb9573d6000803e3d6000fd5b505050506040513d6020811015610ecf57600080fd5b50511515610f3e57604080517f08c379a000000000000000000000000000000000000000000000000000000000815260206004820152600f60248201527f5472616e73666572206661696c65640000000000000000000000000000000000604482015290519081900360640190fd5b600254610f67906109d1906109c5856d04ee2d6d415b85acef810000000063ffffffff6116ba16565b600855600654610f7d908363ffffffff6116fa16565b60065560408051838152905133917fe3166012cb87b3dec8e117fe0e096a47387f94ea2ec12086ed8ae24ff8c237fe919081900360200190a2506001919050565b600160a060020a0381166000908152600a60205260408120546008548291610fec919063ffffffff61160c16565b600160a060020a03841660009081526020819052604090205490915061101990829063ffffffff6116ba16565b9392505050565b336000908152600160209081526040808320600160a060020a038616845290915281205480831061107457336000908152600160209081526040808320600160a060020a03881684529091528120556110a9565b611084818463ffffffff61160c16565b336000908152600160209081526040808320600160a060020a03891684529091529020555b336000818152600160209081526040808320600160a060020a0389168085529083529281902054815190815290519293926000805160206119f4833981519152929181900390910190a3600191505b5092915050565b600160a060020a031660009081526020819052604090205490565b600b54600160a060020a031681565b600554600160a060020a031681565b600160a060020a038216600090815260208190526040812054611161908363ffffffff61160c16565b600160a060020a03841660009081526020818152604080832093909355600181528282203383529052205461119c908363ffffffff61160c16565b600160a060020a03841660009081526001602090815260408083203384529091529020556002546111d3908363ffffffff61160c16565b600255604080518381529051600160a060020a038516917f38d762ef507761291a578e921acfe29c1af31a7331ea03e391cf16cfc4d4f581919081900360200190a2604080518381529051600091600160a060020a038616916000805160206119d48339815191529181900360200190a350600192915050565b60035460009060ff1615801561127257506003546101009004600160a060020a031633145b151561127d57600080fd5b6003805460ff191660011790556040517fae5184fba832cb2b1f702aca6117b8d265eaf03ad33eb133f19dde0f5920fa0890600090a150600190565b60085481565b60006112ca336105fa565b8211156112d657600080fd5b6112e08383611709565b5060019392505050565b60096020526000908152604090205481565b60003361130b610a8e82610fbe565b600160a060020a038216600090815260096020908152604080832093909355600854600a9091529190205584611343610a8e82610fbe565b600160a060020a03808316600090815260096020908152604080832094909455600854600a8252848320553380835260018252848320938b168084529382529184902089905583518981529351929391926000805160206119f48339815191529281900390910190a36040517f8f4ffcb10000000000000000000000000000000000000000000000000000000081523360048201818152602483018890523060448401819052608060648501908152885160848601528851600160a060020a038c1695638f4ffcb195948c94938c939192909160a490910190602085019080838360005b8381101561143f578181015183820152602001611427565b50505050905090810190601f16801561146c5780820380516001836020036101000a031916815260200191505b5095505050505050600060405180830381600087803b15801561148e57600080fd5b505af11580156114a2573d6000803e3d6000fd5b5060019998505050505050505050565b60048054604080516020601f600260001961010060018816150201909516949094049384018190048102820181019092528281526060939092909183018282801561153e5780601f106115135761010080835404028352916020019161153e565b820191906000526020600020905b81548152906001019060200180831161152157829003601f168201915b5050505050905090565b336000908152600160209081526040808320600160a060020a038616845290915281205461157c908363ffffffff6116fa16565b336000818152600160209081526040808320600160a060020a0389168085529083529281902085905580519485525191936000805160206119f4833981519152929081900390910190a350600192915050565b600160a060020a03918216600090815260016020908152604080832093909416825291909152205490565b600a6020526000908152604090205481565b60008282111561161857fe5b50900390565b60008361162d610a8e82610fbe565b600160a060020a038216600090815260096020908152604080832093909355600854600a9091529190205583611665610a8e82610fbe565b600160a060020a03808316600090815260096020908152604080832094909455600854600a9091529290209190915585163014156116a257600080fd5b6116ad8686866117a3565b5060019695505050505050565b6000808315156116cd57600091506110f8565b508282028284828115156116dd57fe5b041461101957fe5b600081838115156116f257fe5b049392505050565b60008282018381101561101957fe5b600033611718610a8e82610fbe565b600160a060020a038216600090815260096020908152604080832093909355600854600a9091529190205583611750610a8e82610fbe565b600160a060020a03808316600090815260096020908152604080832094909455600854600a90915292902091909155851630141561178d57600080fd5b6117978585611906565b50600195945050505050565b600160a060020a0383166000908152602081905260408120548211156117c857600080fd5b600160a060020a03841660009081526001602090815260408083203384529091529020548211156117f857600080fd5b600160a060020a038316151561180d57600080fd5b600160a060020a038416600090815260208190526040902054611836908363ffffffff61160c16565b600160a060020a03808616600090815260208190526040808220939093559085168152205461186b908363ffffffff6116fa16565b600160a060020a038085166000908152602081815260408083209490945591871681526001825282812033825290915220546118ad908363ffffffff61160c16565b600160a060020a03808616600081815260016020908152604080832033845282529182902094909455805186815290519287169391926000805160206119d4833981519152929181900390910190a35060019392505050565b3360009081526020819052604081205482111561192257600080fd5b600160a060020a038316151561193757600080fd5b33600090815260208190526040902054611957908363ffffffff61160c16565b3360009081526020819052604080822092909255600160a060020a03851681522054611989908363ffffffff6116fa16565b600160a060020a038416600081815260208181526040918290209390935580518581529051919233926000805160206119d48339815191529281900390910190a3506001929150505600ddf252ad1be2c89b69c2b068fc378daa952ba7f163c4a11628f55a4df523b3ef8c5be1e5ebec7d5bd14f71427d1e84f3dd0314c0f7b2291e5b200ac8c7c3b925a165627a7a723058209155539417c90503e1a1cac1621370cdd0f7cdac0892ec500cddda33c059612f0029",
  "source": "pragma solidity ^0.4.24;\n\nimport \"./DividendTokenERC20.sol\";\nimport \"./BurnableToken.sol\";\nimport \"../../math/SafeMath.sol\";\n\n// @notice give GovernedToken access to view uint and bytes32 storage\ninterface DBAccess {\n  function uintStorage(bytes32 _key) external view returns (uint);\n  function bytes32Storage(bytes32 _key) external view returns (bytes32);\n}\n\n// @title A Dividend token that has governance features and receives ERC20 tokens as payment\n// @notice This token contract can receive ERC20 tokens as payments and token owners can lock tokens while submitting votes\n// @author Kyle Dewhurst & Peter Phillips, MyBit Foundation\n// @dev Dividend tokens aren't actually locked, but restricted from transferring to avoid locking contravt having to distribute dividends.\ncontract GovernedTokenERC20 is DividendTokenERC20, BurnableToken{\n  DBAccess public database;\n\n\n  // @notice constructor: initializes database and DividendTokenERC20\n  // @param (address) _database = the address of the platform database\n  // @param (string) _tokenURI = The URI where details of the token (asse) can be found\n  // @param (address) _owner = The minting authority for this token\n  // @param (address) _erc20Address = The address of the erc20 token to be sent for dividends\n  constructor(address _database, string _tokenURI, address _owner, address _erc20Address)\n  public\n  DividendTokenERC20(_tokenURI, _owner, _erc20Address){\n    database = DBAccess(_database);\n  }\n\n  // @notice Standard DividendToke transfer function, which checks for locked tokens before sending\n  function transfer(address _to, uint _amount)\n  public\n  returns (bool success) {\n      require(_amount <= getAmountAvailable(msg.sender));\n      super.transfer(_to, _amount);\n      return true;\n  }\n\n  // @notice Standard DividendToke transferFrom function, which checks for locked tokens before sending\n  function transferFrom(address _from, address _to, uint _amount)\n  public\n  returns (bool success) {\n      require(_amount <= getAmountAvailable(_from));\n      super.transferFrom(_from, _to, _amount);\n      return true;\n  }\n\n  // @notice returns the amount of tokens _investor has locked for this asset\n  function getAmountAvailable(address _investor)\n  public\n  view\n  returns (uint) {\n    bytes32 assetID = database.bytes32Storage(keccak256(abi.encodePacked(\"assetTokenID\", address(this))));\n    uint amountLocked = database.uintStorage(keccak256(abi.encodePacked(\"tokensLocked\", assetID, _investor)));\n    uint balance = balances[_investor];\n    uint available = balance.sub(amountLocked);\n    return available;\n  }\n\n}\n",
  "sourcePath": "/home/peter/Documents/Work/MyBit/MyBit-Network.tech/contracts/tokens/erc20/GovernedTokenERC20.sol",
  "compiler": {
    "name": "solc",
    "version": "0.4.24+commit.e67f0147.Emscripten.clang"
  },
  "schemaVersion": "2.0.1",
  "updatedAt": "2018-12-06T01:09:53.286Z"
}