{
  "contractName": "GovernedTokenETH",
  "abi": [
    {
      "constant": true,
      "inputs": [],
      "name": "mintingFinished",
      "outputs": [
        {
          "name": "",
          "type": "bool"
        }
      ],
      "payable": false,
      "stateMutability": "view",
      "type": "function"
    },
    {
      "constant": true,
      "inputs": [],
      "name": "name",
      "outputs": [
        {
          "name": "",
          "type": "string"
        }
      ],
      "payable": false,
      "stateMutability": "view",
      "type": "function"
    },
    {
      "constant": false,
      "inputs": [
        {
          "name": "_spender",
          "type": "address"
        },
        {
          "name": "_value",
          "type": "uint256"
        }
      ],
      "name": "approve",
      "outputs": [
        {
          "name": "",
          "type": "bool"
        }
      ],
      "payable": false,
      "stateMutability": "nonpayable",
      "type": "function"
    },
    {
      "constant": true,
      "inputs": [
        {
          "name": "_investor",
          "type": "address"
        }
      ],
      "name": "getAmountAvailable",
      "outputs": [
        {
          "name": "",
          "type": "uint256"
        }
      ],
      "payable": false,
      "stateMutability": "view",
      "type": "function"
    },
    {
      "constant": true,
      "inputs": [],
      "name": "totalSupply",
      "outputs": [
        {
          "name": "",
          "type": "uint256"
        }
      ],
      "payable": false,
      "stateMutability": "view",
      "type": "function"
    },
    {
      "constant": true,
      "inputs": [],
      "name": "assetIncome",
      "outputs": [
        {
          "name": "",
          "type": "uint256"
        }
      ],
      "payable": false,
      "stateMutability": "view",
      "type": "function"
    },
    {
      "constant": true,
      "inputs": [],
      "name": "decimals",
      "outputs": [
        {
          "name": "",
          "type": "uint8"
        }
      ],
      "payable": false,
      "stateMutability": "view",
      "type": "function"
    },
    {
      "constant": true,
      "inputs": [
        {
          "name": "_investor",
          "type": "address"
        }
      ],
      "name": "getAmountOwed",
      "outputs": [
        {
          "name": "",
          "type": "uint256"
        }
      ],
      "payable": false,
      "stateMutability": "view",
      "type": "function"
    },
    {
      "constant": false,
      "inputs": [],
      "name": "withdraw",
      "outputs": [
        {
          "name": "",
          "type": "bool"
        }
      ],
      "payable": false,
      "stateMutability": "nonpayable",
      "type": "function"
    },
    {
      "constant": false,
      "inputs": [
        {
          "name": "_to",
          "type": "address"
        },
        {
          "name": "_amount",
          "type": "uint256"
        }
      ],
      "name": "mint",
      "outputs": [
        {
          "name": "",
          "type": "bool"
        }
      ],
      "payable": false,
      "stateMutability": "nonpayable",
      "type": "function"
    },
    {
      "constant": false,
      "inputs": [
        {
          "name": "_amount",
          "type": "uint256"
        }
      ],
      "name": "burn",
      "outputs": [
        {
          "name": "success",
          "type": "bool"
        }
      ],
      "payable": false,
      "stateMutability": "nonpayable",
      "type": "function"
    },
    {
      "constant": true,
      "inputs": [],
      "name": "getERC20",
      "outputs": [
        {
          "name": "",
          "type": "address"
        }
      ],
      "payable": false,
      "stateMutability": "pure",
      "type": "function"
    },
    {
      "constant": false,
      "inputs": [
        {
          "name": "_amount",
          "type": "uint256"
        }
      ],
      "name": "unlock",
      "outputs": [
        {
          "name": "success",
          "type": "bool"
        }
      ],
      "payable": false,
      "stateMutability": "nonpayable",
      "type": "function"
    },
    {
      "constant": false,
      "inputs": [
        {
          "name": "_spender",
          "type": "address"
        },
        {
          "name": "_subtractedValue",
          "type": "uint256"
        }
      ],
      "name": "decreaseApproval",
      "outputs": [
        {
          "name": "",
          "type": "bool"
        }
      ],
      "payable": false,
      "stateMutability": "nonpayable",
      "type": "function"
    },
    {
      "constant": true,
      "inputs": [
        {
          "name": "_owner",
          "type": "address"
        }
      ],
      "name": "balanceOf",
      "outputs": [
        {
          "name": "",
          "type": "uint256"
        }
      ],
      "payable": false,
      "stateMutability": "view",
      "type": "function"
    },
    {
      "constant": true,
      "inputs": [],
      "name": "database",
      "outputs": [
        {
          "name": "",
          "type": "address"
        }
      ],
      "payable": false,
      "stateMutability": "view",
      "type": "function"
    },
    {
      "constant": false,
      "inputs": [
        {
          "name": "_from",
          "type": "address"
        },
        {
          "name": "_amount",
          "type": "uint256"
        }
      ],
      "name": "burnFrom",
      "outputs": [
        {
          "name": "success",
          "type": "bool"
        }
      ],
      "payable": false,
      "stateMutability": "nonpayable",
      "type": "function"
    },
    {
      "constant": false,
      "inputs": [],
      "name": "finishMinting",
      "outputs": [
        {
          "name": "",
          "type": "bool"
        }
      ],
      "payable": false,
      "stateMutability": "nonpayable",
      "type": "function"
    },
    {
      "constant": true,
      "inputs": [],
      "name": "symbol",
      "outputs": [
        {
          "name": "",
          "type": "string"
        }
      ],
      "payable": false,
      "stateMutability": "view",
      "type": "function"
    },
    {
      "constant": true,
      "inputs": [],
      "name": "valuePerToken",
      "outputs": [
        {
          "name": "",
          "type": "uint256"
        }
      ],
      "payable": false,
      "stateMutability": "view",
      "type": "function"
    },
    {
      "constant": true,
      "inputs": [
        {
          "name": "",
          "type": "address"
        }
      ],
      "name": "incomeOwed",
      "outputs": [
        {
          "name": "",
          "type": "uint256"
        }
      ],
      "payable": false,
      "stateMutability": "view",
      "type": "function"
    },
    {
      "constant": false,
      "inputs": [
        {
          "name": "_spender",
          "type": "address"
        },
        {
          "name": "_amount",
          "type": "uint256"
        },
        {
          "name": "_data",
          "type": "bytes"
        }
      ],
      "name": "approveAndCall",
      "outputs": [
        {
          "name": "success",
          "type": "bool"
        }
      ],
      "payable": false,
      "stateMutability": "nonpayable",
      "type": "function"
    },
    {
      "constant": true,
      "inputs": [],
      "name": "getTokenURI",
      "outputs": [
        {
          "name": "",
          "type": "string"
        }
      ],
      "payable": false,
      "stateMutability": "view",
      "type": "function"
    },
    {
      "constant": false,
      "inputs": [
        {
          "name": "_spender",
          "type": "address"
        },
        {
          "name": "_addedValue",
          "type": "uint256"
        }
      ],
      "name": "increaseApproval",
      "outputs": [
        {
          "name": "",
          "type": "bool"
        }
      ],
      "payable": false,
      "stateMutability": "nonpayable",
      "type": "function"
    },
    {
      "constant": false,
      "inputs": [
        {
          "name": "_amount",
          "type": "uint256"
        }
      ],
      "name": "lock",
      "outputs": [
        {
          "name": "success",
          "type": "bool"
        }
      ],
      "payable": false,
      "stateMutability": "nonpayable",
      "type": "function"
    },
    {
      "constant": true,
      "inputs": [
        {
          "name": "_owner",
          "type": "address"
        },
        {
          "name": "_spender",
          "type": "address"
        }
      ],
      "name": "allowance",
      "outputs": [
        {
          "name": "",
          "type": "uint256"
        }
      ],
      "payable": false,
      "stateMutability": "view",
      "type": "function"
    },
    {
      "constant": false,
      "inputs": [],
      "name": "issueDividends",
      "outputs": [
        {
          "name": "",
          "type": "bool"
        }
      ],
      "payable": true,
      "stateMutability": "payable",
      "type": "function"
    },
    {
      "constant": true,
      "inputs": [
        {
          "name": "",
          "type": "address"
        }
      ],
      "name": "previousValuePerToken",
      "outputs": [
        {
          "name": "",
          "type": "uint256"
        }
      ],
      "payable": false,
      "stateMutability": "view",
      "type": "function"
    },
    {
      "inputs": [
        {
          "name": "_database",
          "type": "address"
        },
        {
          "name": "_tokenURI",
          "type": "string"
        },
        {
          "name": "_owner",
          "type": "address"
        }
      ],
      "payable": false,
      "stateMutability": "nonpayable",
      "type": "constructor"
    },
    {
      "payable": true,
      "stateMutability": "payable",
      "type": "fallback"
    },
    {
      "anonymous": false,
      "inputs": [
        {
          "indexed": true,
          "name": "_spender",
          "type": "address"
        },
        {
          "indexed": false,
          "name": "_value",
          "type": "uint256"
        }
      ],
      "name": "LogBurn",
      "type": "event"
    },
    {
      "anonymous": false,
      "inputs": [
        {
          "indexed": true,
          "name": "_sender",
          "type": "address"
        },
        {
          "indexed": false,
          "name": "_paymentAmount",
          "type": "uint256"
        }
      ],
      "name": "LogIncomeReceived",
      "type": "event"
    },
    {
      "anonymous": false,
      "inputs": [
        {
          "indexed": false,
          "name": "_address",
          "type": "address"
        },
        {
          "indexed": false,
          "name": "_amount",
          "type": "uint256"
        }
      ],
      "name": "LogIncomeCollected",
      "type": "event"
    },
    {
      "anonymous": false,
      "inputs": [
        {
          "indexed": true,
          "name": "to",
          "type": "address"
        },
        {
          "indexed": false,
          "name": "amount",
          "type": "uint256"
        }
      ],
      "name": "Mint",
      "type": "event"
    },
    {
      "anonymous": false,
      "inputs": [],
      "name": "MintFinished",
      "type": "event"
    },
    {
      "anonymous": false,
      "inputs": [
        {
          "indexed": true,
          "name": "from",
          "type": "address"
        },
        {
          "indexed": true,
          "name": "to",
          "type": "address"
        },
        {
          "indexed": false,
          "name": "value",
          "type": "uint256"
        }
      ],
      "name": "Transfer",
      "type": "event"
    },
    {
      "anonymous": false,
      "inputs": [
        {
          "indexed": true,
          "name": "owner",
          "type": "address"
        },
        {
          "indexed": true,
          "name": "spender",
          "type": "address"
        },
        {
          "indexed": false,
          "name": "value",
          "type": "uint256"
        }
      ],
      "name": "Approval",
      "type": "event"
    },
    {
      "constant": false,
      "inputs": [
        {
          "name": "_to",
          "type": "address"
        },
        {
          "name": "_amount",
          "type": "uint256"
        }
      ],
      "name": "transfer",
      "outputs": [
        {
          "name": "success",
          "type": "bool"
        }
      ],
      "payable": false,
      "stateMutability": "nonpayable",
      "type": "function"
    },
    {
      "constant": false,
      "inputs": [
        {
          "name": "_from",
          "type": "address"
        },
        {
          "name": "_to",
          "type": "address"
        },
        {
          "name": "_amount",
          "type": "uint256"
        }
      ],
      "name": "transferFrom",
      "outputs": [
        {
          "name": "success",
          "type": "bool"
        }
      ],
      "payable": false,
      "stateMutability": "nonpayable",
      "type": "function"
    }
  ],
  "bytecode": "0x60806040523480156200001157600080fd5b50604051620023c7380380620023c78339810160409081528151602080840151928401516005805461010060a860020a031916610100600160a060020a038616021790559290930180519193909291839183918391829160129185916200007f9160039190860190620000dd565b50825162000095906004906020860190620000dd565b5060068054600160a060020a031916600160a060020a039290921691909117905560006002556005805460ff191660ff92909216919091179055506200018295505050505050565b828054600181600116156101000203166002900490600052602060002090601f016020900481019282601f106200012057805160ff191683800117855562000150565b8280016001018555821562000150579182015b828111156200015057825182559160200191906001019062000133565b506200015e92915062000162565b5090565b6200017f91905b808211156200015e576000815560010162000169565b90565b61223580620001926000396000f3006080604052600436106101665763ffffffff60e060020a60003504166305d2035b81146101fb57806306fdde0314610224578063095ea7b3146102ae5780630f9f57eb146102d257806318160ddd1461030557806323b872dd1461031a5780632ba1b3a114610344578063313ce567146103595780633bdfa920146103845780633ccfd60b146103a557806340c10f19146103ba57806342966c68146103de5780634ece90a8146103f65780636198e33914610427578063661884631461043f57806370a0823114610463578063713b563f1461048457806379cc6790146104995780637d64bcb4146104bd57806395d89b41146104d2578063a8fa8e52146104e7578063a9059cbb146104fc578063b5a83d4314610520578063cae9ca5114610541578063d4a19116146105aa578063d73dd623146105bf578063dd467064146105e3578063dd62ed3e146105fb578063eba74e5c14610622578063efcb5dea1461062a575b600854610179903463ffffffff61064b16565b6008556002546101c0906101b1906101a5346d04ee2d6d415b85acef810000000063ffffffff61066516565b9063ffffffff61069016565b6007549063ffffffff61064b16565b60075560408051348152905133917fe3166012cb87b3dec8e117fe0e096a47387f94ea2ec12086ed8ae24ff8c237fe919081900360200190a2005b34801561020757600080fd5b506102106106a5565b604080519115158252519081900360200190f35b34801561023057600080fd5b506102396106c7565b6040805160208082528351818301528351919283929083019185019080838360005b8381101561027357818101518382015260200161025b565b50505050905090810190601f1680156102a05780820380516001836020036101000a031916815260200191505b509250505060405180910390f35b3480156102ba57600080fd5b50610210600160a060020a0360043516602435610755565b3480156102de57600080fd5b506102f3600160a060020a03600435166107a9565b60408051918252519081900360200190f35b34801561031157600080fd5b506102f3610906565b34801561032657600080fd5b50610210600160a060020a036004358116906024351660443561090c565b34801561035057600080fd5b506102f3610939565b34801561036557600080fd5b5061036e61093f565b6040805160ff9092168252519081900360200190f35b34801561039057600080fd5b506102f3600160a060020a0360043516610948565b3480156103b157600080fd5b50610210610994565b3480156103c657600080fd5b50610210600160a060020a0360043516602435610a9c565b3480156103ea57600080fd5b50610210600435610ba7565b34801561040257600080fd5b5061040b610c51565b60408051600160a060020a039092168252519081900360200190f35b34801561043357600080fd5b50610210600435610c56565b34801561044b57600080fd5b50610210600160a060020a0360043516602435611104565b34801561046f57600080fd5b506102f3600160a060020a03600435166111e1565b34801561049057600080fd5b5061040b6111fc565b3480156104a557600080fd5b50610210600160a060020a0360043516602435611210565b3480156104c957600080fd5b50610210611325565b3480156104de57600080fd5b506102396113cf565b3480156104f357600080fd5b506102f361142a565b34801561050857600080fd5b50610210600160a060020a0360043516602435611430565b34801561052c57600080fd5b506102f3600160a060020a036004351661145b565b34801561054d57600080fd5b50604080516020600460443581810135601f8101849004840285018401909552848452610210948235600160a060020a031694602480359536959460649492019190819084018382808284375094975061146d9650505050505050565b3480156105b657600080fd5b50610239611623565b3480156105cb57600080fd5b50610210600160a060020a03600435166024356116b9565b3480156105ef57600080fd5b50610210600435611740565b34801561060757600080fd5b506102f3600160a060020a0360043581169060243516611d1e565b610210611d49565b34801561063657600080fd5b506102f3600160a060020a0360043516611dca565b60008282018381101561065a57fe5b8091505b5092915050565b600080831515610678576000915061065e565b5082820282848281151561068857fe5b041461065a57fe5b6000818381151561069d57fe5b049392505050565b6005547501000000000000000000000000000000000000000000900460ff1681565b6003805460408051602060026001851615610100026000190190941693909304601f8101849004840282018401909252818152929183018282801561074d5780601f106107225761010080835404028352916020019161074d565b820191906000526020600020905b81548152906001019060200180831161073057829003601f168201915b505050505081565b336000818152600160209081526040808320600160a060020a038716808552908352818420869055815186815291519394909390926000805160206121ca833981519152928290030190a350600192915050565b600554604080516000805160206121ea833981519152602080830191909152606060020a3081026030840152600160a060020a038681169091026044840152835160388185030181526058909301938490528251600095869586958695610100909304949094169363a855d4ce9390928291908401908083835b602083106108425780518252601f199092019160209182019101610823565b51815160209384036101000a60001901801990921691161790526040805192909401829003822063ffffffff881660e060020a0283526004830152925160248083019650939450929083900301905081600087803b1580156108a357600080fd5b505af11580156108b7573d6000803e3d6000fd5b505050506040513d60208110156108cd57600080fd5b5051600160a060020a03861660009081526020819052604090205490935091506108fd828463ffffffff611ddc16565b95945050505050565b60025490565b6000610917846107a9565b82111561092357600080fd5b61092e848484611dee565b506001949350505050565b60085481565b60055460ff1690565b600160a060020a03811660009081526009602052604081205461098e906d04ee2d6d415b85acef8100000000906101a59061098286611e7d565b9063ffffffff61064b16565b92915050565b600080336109c96109a482611e7d565b600160a060020a0383166000908152600960205260409020549063ffffffff61064b16565b600160a060020a038216600090815260096020818152604080842094909455600754600a825284842055338352522054610a17906d04ee2d6d415b85acef810000000063ffffffff61069016565b336000818152600960209081526040808320929092558151928352820183905280519294507ff5b510c554f6c572235f7e531ec8f287b350b15c212250b993180473a6aeb7d192918290030190a1604051339083156108fc029084906000818181858888f19350505050158015610a92573d6000803e3d6000fd5b5060019250505090565b6005546000907501000000000000000000000000000000000000000000900460ff16158015610ad55750600654600160a060020a031633145b1515610ae057600080fd5b600254610af3908363ffffffff61064b16565b600255600160a060020a038316600090815260208190526040902054610b1f908363ffffffff61064b16565b600160a060020a03841660008181526020818152604091829020939093558051858152905191927f0f6798a560793a54c3bcfe86a93cde1e73087d944c0ea20544137d412139688592918290030190a2604080518381529051600160a060020a038516916000916000805160206121aa8339815191529181900360200190a350600192915050565b33600090815260208190526040812054610bc7908363ffffffff611ddc16565b33600090815260208190526040902055600254610bea908363ffffffff611ddc16565b60025560408051838152905133917f38d762ef507761291a578e921acfe29c1af31a7331ea03e391cf16cfc4d4f581919081900360200190a260408051838152905160009133916000805160206121aa8339815191529181900360200190a3506001919050565b600090565b600554604080517f636f6d6d69746d656e742e72656c6561736574696d650000000000000000000060208083019190915230606060020a90810260368401523302604a8301528251808303603e018152605e90920192839052815160009485944294610100909204600160a060020a03169363a855d4ce9382918401908083835b60208310610cf65780518252601f199092019160209182019101610cd7565b51815160209384036101000a60001901801990921691161790526040805192909401829003822063ffffffff881660e060020a0283526004830152925160248083019650939450929083900301905081600087803b158015610d5757600080fd5b505af1158015610d6b573d6000803e3d6000fd5b505050506040513d6020811015610d8157600080fd5b50511115610d8e57600080fd5b600554604080516000805160206121ea83398151915260208083019190915230606060020a908102603084015233026044830152825180830360380181526058909201928390528151610eb6948894610100909104600160a060020a03169363a855d4ce93909282918401908083835b60208310610e1d5780518252601f199092019160209182019101610dfe565b51815160209384036101000a60001901801990921691161790526040805192909401829003822063ffffffff881660e060020a0283526004830152925160248083019650939450929083900301905081600087803b158015610e7e57600080fd5b505af1158015610e92573d6000803e3d6000fd5b505050506040513d6020811015610ea857600080fd5b50519063ffffffff611ddc16565b90506000811015610ec657600080fd5b801515610fee57600554604080517f636f6d6d69746d656e742e73746172740000000000000000000000000000000060208083019190915230606060020a908102603084015233026044830152825180830360380181526058909201928390528151610100909404600160a060020a03169363e2a4853a93918291908401908083835b60208310610f685780518252601f199092019160209182019101610f49565b5181516020939093036101000a60001901801990911692169190911790526040805191909301819003812063ffffffff871660e060020a02825260048201526000602482018190529251604480830196509394509290839003019050818387803b158015610fd557600080fd5b505af1158015610fe9573d6000803e3d6000fd5b505050505b600554604080516000805160206121ea83398151915260208083019190915230606060020a908102603084015233026044830152825180830360380181526058909201928390528151610100909404600160a060020a03169363e2a4853a93918291908401908083835b602083106110775780518252601f199092019160209182019101611058565b5181516020939093036101000a60001901801990911692169190911790526040805191909301819003812063ffffffff871660e060020a028252600482015260248101889052915160448084019550600094509092839003019050818387803b1580156110e357600080fd5b505af11580156110f7573d6000803e3d6000fd5b5060019695505050505050565b336000908152600160209081526040808320600160a060020a038616845290915281205480831061115857336000908152600160209081526040808320600160a060020a038816845290915281205561118d565b611168818463ffffffff611ddc16565b336000908152600160209081526040808320600160a060020a03891684529091529020555b336000818152600160209081526040808320600160a060020a0389168085529083529281902054815190815290519293926000805160206121ca833981519152929181900390910190a35060019392505050565b600160a060020a031660009081526020819052604090205490565b6005546101009004600160a060020a031681565b600160a060020a038216600090815260208190526040812054611239908363ffffffff611ddc16565b600160a060020a038416600090815260208181526040808320939093556001815282822033835290522054611274908363ffffffff611ddc16565b600160a060020a03841660009081526001602090815260408083203384529091529020556002546112ab908363ffffffff611ddc16565b600255604080518381529051600160a060020a038516917f38d762ef507761291a578e921acfe29c1af31a7331ea03e391cf16cfc4d4f581919081900360200190a2604080518381529051600091600160a060020a038616916000805160206121aa8339815191529181900360200190a350600192915050565b6005546000907501000000000000000000000000000000000000000000900460ff1615801561135e5750600654600160a060020a031633145b151561136957600080fd5b6005805475ff000000000000000000000000000000000000000000191675010000000000000000000000000000000000000000001790556040517fae5184fba832cb2b1f702aca6117b8d265eaf03ad33eb133f19dde0f5920fa0890600090a150600190565b6004805460408051602060026001851615610100026000190190941693909304601f8101849004840282018401909252818152929183018282801561074d5780601f106107225761010080835404028352916020019161074d565b60075481565b600061143b336107a9565b82111561144757600080fd5b6114518383611edf565b5060019392505050565b60096020526000908152604090205481565b60003361147c6109a482611e7d565b600160a060020a038216600090815260096020908152604080832093909355600754600a90915291902055846114b46109a482611e7d565b600160a060020a03808316600090815260096020908152604080832094909455600754600a8252848320553380835260018252848320938b168084529382529184902089905583518981529351929391926000805160206121ca8339815191529281900390910190a36040517f8f4ffcb10000000000000000000000000000000000000000000000000000000081523360048201818152602483018890523060448401819052608060648501908152885160848601528851600160a060020a038c1695638f4ffcb195948c94938c939192909160a490910190602085019080838360005b838110156115b0578181015183820152602001611598565b50505050905090810190601f1680156115dd5780820380516001836020036101000a031916815260200191505b5095505050505050600060405180830381600087803b1580156115ff57600080fd5b505af1158015611613573d6000803e3d6000fd5b5060019998505050505050505050565b60038054604080516020601f60026000196101006001881615020190951694909404938401819004810282018101909252828152606093909290918301828280156116af5780601f10611684576101008083540402835291602001916116af565b820191906000526020600020905b81548152906001019060200180831161169257829003601f168201915b5050505050905090565b336000908152600160209081526040808320600160a060020a03861684529091528120546116ed908363ffffffff61064b16565b336000818152600160209081526040808320600160a060020a0389168085529083529281902085905580519485525191936000805160206121ca833981519152929081900390910190a350600192915050565b60008080831161174f57600080fd5b600554604080517f61737365742e676f7665726e616e636500000000000000000000000000000000602080830191909152606060020a300260308301528251602481840301815260449092019283905281516000946101009004600160a060020a0316936304f49a3a9392909182918401908083835b602083106117e45780518252601f1990920191602091820191016117c5565b51815160209384036101000a60001901801990921691161790526040805192909401829003822063ffffffff881660e060020a0283526004830152925160248083019650939450929083900301905081600087803b15801561184557600080fd5b505af1158015611859573d6000803e3d6000fd5b505050506040513d602081101561186f57600080fd5b5051600160a060020a0316141561188557600080fd5b600554604080516000805160206121ea83398151915260208083019190915230606060020a9081026030840152330260448301528251808303603801815260589092019283905281516119ad948894610100909104600160a060020a03169363a855d4ce93909282918401908083835b602083106119145780518252601f1990920191602091820191016118f5565b51815160209384036101000a60001901801990921691161790526040805192909401829003822063ffffffff881660e060020a0283526004830152925160248083019650939450929083900301905081600087803b15801561197557600080fd5b505af1158015611989573d6000803e3d6000fd5b505050506040513d602081101561199f57600080fd5b50519063ffffffff61064b16565b90506119b8336111e1565b8111156119c457600080fd5b600554604080517f636f6d6d69746d656e742e73746172740000000000000000000000000000000060208083019190915230606060020a908102603084015233026044830152825180830360380181526058909201928390528151610100909404600160a060020a03169363e2a4853a93918291908401908083835b60208310611a5f5780518252601f199092019160209182019101611a40565b5181516020939093036101000a60001901801990911692169190911790526040805191909301819003812063ffffffff871660e060020a0282526004820152426024820152915160448084019550600094509092839003019050818387803b158015611aca57600080fd5b505af1158015611ade573d6000803e3d6000fd5b5050600554604080517f636f6d6d69746d656e742e72656c6561736574696d650000000000000000000060208083019190915230606060020a90810260368401523302604a8301528251808303603e018152605e909201928390528151610100909404600160a060020a0316955063e2a4853a9450909282918401908083835b60208310611b7d5780518252601f199092019160209182019101611b5e565b518151602093840361010090810a6000190180199093169290911691909117909152604080519390950183900383206005547f61737365742e766f74654475726174696f6e00000000000000000000000000008585015230606060020a026032860152865180860360260181526046909501968790528451919850611cd6975091909104600160a060020a03169463a855d4ce9450918291908401908083835b60208310611c3c5780518252601f199092019160209182019101611c1d565b51815160209384036101000a60001901801990921691161790526040805192909401829003822063ffffffff881660e060020a0283526004830152925160248083019650939450929083900301905081600087803b158015611c9d57600080fd5b505af1158015611cb1573d6000803e3d6000fd5b505050506040513d6020811015611cc757600080fd5b5051429063ffffffff61064b16565b6040518363ffffffff1660e060020a02815260040180836000191660001916815260200182815260200192505050600060405180830381600087803b158015610fd557600080fd5b600160a060020a03918216600090815260016020908152604080832093909416825291909152205490565b600854600090611d5f903463ffffffff61064b16565b600855600254611d8b906101b1906101a5346d04ee2d6d415b85acef810000000063ffffffff61066516565b60075560408051348152905133917fe3166012cb87b3dec8e117fe0e096a47387f94ea2ec12086ed8ae24ff8c237fe919081900360200190a250600190565b600a6020526000908152604090205481565b600082821115611de857fe5b50900390565b600083611dfd6109a482611e7d565b600160a060020a038216600090815260096020908152604080832093909355600754600a9091529190205583611e356109a482611e7d565b600160a060020a03808316600090815260096020908152604080832094909455600754600a909152929020919091558516301415611e7257600080fd5b6110f7868686611f79565b600160a060020a0381166000908152600a60205260408120546007548291611eab919063ffffffff611ddc16565b600160a060020a038416600090815260208190526040902054909150611ed890829063ffffffff61066516565b9392505050565b600033611eee6109a482611e7d565b600160a060020a038216600090815260096020908152604080832093909355600754600a9091529190205583611f266109a482611e7d565b600160a060020a03808316600090815260096020908152604080832094909455600754600a909152929020919091558516301415611f6357600080fd5b611f6d85856120dc565b50600195945050505050565b600160a060020a038316600090815260208190526040812054821115611f9e57600080fd5b600160a060020a0384166000908152600160209081526040808320338452909152902054821115611fce57600080fd5b600160a060020a0383161515611fe357600080fd5b600160a060020a03841660009081526020819052604090205461200c908363ffffffff611ddc16565b600160a060020a038086166000908152602081905260408082209390935590851681522054612041908363ffffffff61064b16565b600160a060020a03808516600090815260208181526040808320949094559187168152600182528281203382529091522054612083908363ffffffff611ddc16565b600160a060020a03808616600081815260016020908152604080832033845282529182902094909455805186815290519287169391926000805160206121aa833981519152929181900390910190a35060019392505050565b336000908152602081905260408120548211156120f857600080fd5b600160a060020a038316151561210d57600080fd5b3360009081526020819052604090205461212d908363ffffffff611ddc16565b3360009081526020819052604080822092909255600160a060020a0385168152205461215f908363ffffffff61064b16565b600160a060020a038416600081815260208181526040918290209390935580518581529051919233926000805160206121aa8339815191529281900390910190a3506001929150505600ddf252ad1be2c89b69c2b068fc378daa952ba7f163c4a11628f55a4df523b3ef8c5be1e5ebec7d5bd14f71427d1e84f3dd0314c0f7b2291e5b200ac8c7c3b925636f6d6d69746d656e742e76616c756500000000000000000000000000000000a165627a7a72305820e697fda41b2e2553ef4cee24eb62eba1adcae81d171c71e525858b9c8d0960260029",
  "source": "pragma solidity ^0.4.24;\n\nimport \"./DividendToken.sol\";\nimport \"./GovernedToken.sol\";\nimport \"./BurnableToken.sol\";\n\n// @title A Dividend token that has governance features .\n// @notice This token contract can receive ERC20 tokens as payments and token owners can lock tokens while submitting votes\n// @dev Dividend tokens aren't actually locked, but restricted from transferring to avoid locking contravt having to distribute dividends.\n// @author Kyle Dewhurst & Peter Phillips, MyBit Foundation\ncontract GovernedTokenETH is GovernedToken, DividendToken, BurnableToken {\n\n  // @notice constructor: initialized\n  constructor(address _database, string _tokenURI, address _owner)\n  public\n  GovernedToken(_database)\n  DividendToken(_tokenURI, _owner){}\n\n  // @notice Standard DividendToke transfer function, which checks for locked tokens before sending\n  function transfer(address _to, uint _amount)\n  public\n  returns (bool success) {\n      require(_amount <= getAmountAvailable(msg.sender));\n      super.transfer(_to, _amount);\n      return true;\n  }\n\n  // @notice Standard DividendToke transferFrom function, which checks for locked tokens before sending\n  function transferFrom(address _from, address _to, uint _amount)\n  public\n  returns (bool success) {\n      require(_amount <= getAmountAvailable(_from));\n      super.transferFrom(_from, _to, _amount);\n      return true;\n  }\n}\n",
  "sourcePath": "/home/peter/Documents/Work/MyBit/MyBit-Network.tech/contracts/tokens/erc20/GovernedTokenETH.sol",
  "compiler": {
    "name": "solc",
    "version": "0.4.24+commit.e67f0147.Emscripten.clang"
  },
  "schemaVersion": "3.0.1",
  "updatedAt": "2019-03-13T22:36:35.012Z",
  "devdoc": {
    "methods": {
      "allowance(address,address)": {
        "details": "Function to check the amount of tokens that an owner allowed to a spender.",
        "params": {
          "_owner": "address The address which owns the funds.",
          "_spender": "address The address which will spend the funds."
        },
        "return": "A uint256 specifying the amount of tokens still available for the spender."
      },
      "approve(address,uint256)": {
        "details": "Approve the passed address to spend the specified amount of tokens on behalf of msg.sender. Beware that changing an allowance with this method brings the risk that someone may use both the old and the new allowance by unfortunate transaction ordering. One possible solution to mitigate this race condition is to first reduce the spender's allowance to 0 and set the desired value afterwards: https://github.com/ethereum/EIPs/issues/20#issuecomment-263524729",
        "params": {
          "_spender": "The address which will spend the funds.",
          "_value": "The amount of tokens to be spent."
        }
      },
      "balanceOf(address)": {
        "details": "Gets the balance of the specified address.",
        "params": {
          "_owner": "The address to query the the balance of."
        },
        "return": "An uint256 representing the amount owned by the passed address."
      },
      "decreaseApproval(address,uint256)": {
        "details": "Decrease the amount of tokens that an owner allowed to a spender. approve should be called when allowed[_spender] == 0. To decrement allowed value is better to use this function to avoid 2 calls (and wait until the first transaction is mined) From MonolithDAO Token.sol",
        "params": {
          "_spender": "The address which will spend the funds.",
          "_subtractedValue": "The amount of tokens to decrease the allowance by."
        }
      },
      "increaseApproval(address,uint256)": {
        "details": "Increase the amount of tokens that an owner allowed to a spender. approve should be called when allowed[_spender] == 0. To increment allowed value is better to use this function to avoid 2 calls (and wait until the first transaction is mined) From MonolithDAO Token.sol",
        "params": {
          "_addedValue": "The amount of tokens to increase the allowance by.",
          "_spender": "The address which will spend the funds."
        }
      },
      "totalSupply()": {
        "details": "Total number of tokens in existence"
      }
    }
  },
  "userdoc": {
    "methods": {}
  }
}