{
  "contractName": "GovernanceVariables",
  "abi": [
    {
      "constant": true,
      "inputs": [],
      "name": "database",
      "outputs": [
        {
          "name": "",
          "type": "address"
        }
      ],
      "payable": false,
      "stateMutability": "view",
      "type": "function"
    },
    {
      "constant": true,
      "inputs": [],
      "name": "events",
      "outputs": [
        {
          "name": "",
          "type": "address"
        }
      ],
      "payable": false,
      "stateMutability": "view",
      "type": "function"
    },
    {
      "constant": true,
      "inputs": [],
      "name": "governanceToken",
      "outputs": [
        {
          "name": "",
          "type": "address"
        }
      ],
      "payable": false,
      "stateMutability": "view",
      "type": "function"
    },
    {
      "inputs": [
        {
          "name": "_database",
          "type": "address"
        },
        {
          "name": "_events",
          "type": "address"
        },
        {
          "name": "_baseQuorum",
          "type": "uint256"
        }
      ],
      "payable": false,
      "stateMutability": "nonpayable",
      "type": "constructor"
    },
    {
      "constant": false,
      "inputs": [
        {
          "name": "_tokenAddress",
          "type": "address"
        },
        {
          "name": "_voteDuration",
          "type": "uint256"
        },
        {
          "name": "_quorum",
          "type": "uint8"
        },
        {
          "name": "_threshold",
          "type": "uint8"
        },
        {
          "name": "_stakeRequirement",
          "type": "uint256"
        }
      ],
      "name": "startGovernance",
      "outputs": [
        {
          "name": "",
          "type": "bool"
        }
      ],
      "payable": false,
      "stateMutability": "nonpayable",
      "type": "function"
    },
    {
      "constant": false,
      "inputs": [
        {
          "name": "_contractAddress",
          "type": "address"
        },
        {
          "name": "_tokenAddress",
          "type": "address"
        },
        {
          "name": "_methodID",
          "type": "bytes4"
        },
        {
          "name": "_quorumLevel",
          "type": "uint256"
        }
      ],
      "name": "setQuorumLevel",
      "outputs": [
        {
          "name": "",
          "type": "bool"
        }
      ],
      "payable": false,
      "stateMutability": "nonpayable",
      "type": "function"
    },
    {
      "constant": false,
      "inputs": [],
      "name": "destroy",
      "outputs": [],
      "payable": false,
      "stateMutability": "nonpayable",
      "type": "function"
    },
    {
      "constant": true,
      "inputs": [
        {
          "name": "_contractAddress",
          "type": "address"
        },
        {
          "name": "_methodID",
          "type": "bytes4"
        },
        {
          "name": "_parameterHash",
          "type": "bytes32"
        }
      ],
      "name": "isQuorumReached",
      "outputs": [
        {
          "name": "",
          "type": "bool"
        }
      ],
      "payable": false,
      "stateMutability": "view",
      "type": "function"
    }
  ],
  "bytecode": "0x608060405234801561001057600080fd5b506040516060806113d083398101604081815282516020808501519483015160008054600160a060020a03808616600160a060020a031992831617835560018054918a16919092161790557f73657451756f72756d4c6576656c28616464726573732c20616464726573732c838701527f206279746573342c2075696e7432353629000000000000000000000000000000858701528451808703603101815260519096019485905285519396959194909384938291908401908083835b602083106100ec5780518252601f1990920191602091820191016100cd565b51815160209384036101000a600019018019909216911617905260408051929094018290038220306c0100000000000000000000000002838301527fffffffff00000000000000000000000000000000000000000000000000000000811660348401528451808403601801815260389093019485905282519098509195509293508392850191508083835b602083106101965780518252601f199092019160209182019101610177565b5181516020939093036101000a600019018019909116921691909117905260408051919093018190038120600080547fe2a4853a00000000000000000000000000000000000000000000000000000000845260048401839052602484018b90529451919750600160a060020a03909416955063e2a4853a94506044808301949350909182900301818387803b15801561022e57600080fd5b505af1158015610242573d6000803e3d6000fd5b5050505050505050506111768061025a6000396000f3006080604052600436106100695763ffffffff60e060020a600035041663713b563f811461006e57806383197ef01461009f578063a5f3f3f4146100b6578063b5f8558c146100fd578063ec57bab014610112578063f490360514610143578063f96dae0a1461017a575b600080fd5b34801561007a57600080fd5b5061008361018f565b60408051600160a060020a039092168252519081900360200190f35b3480156100ab57600080fd5b506100b461019e565b005b3480156100c257600080fd5b506100e9600160a060020a036004351660243560ff6044358116906064351660843561038a565b604080519115158252519081900360200190f35b34801561010957600080fd5b506100836109f1565b34801561011e57600080fd5b506100e9600160a060020a0360043516600160e060020a031960243516604435610a00565b34801561014f57600080fd5b506100e9600160a060020a0360043581169060243516600160e060020a031960443516606435610d9f565b34801561018657600080fd5b506100836110f0565b600054600160a060020a031681565b600054604080517f6f776e6572000000000000000000000000000000000000000000000000000000602080830191909152606060020a33026025830152825160198184030181526039909201928390528151600160a060020a0390941693633b7bfda093918291908401908083835b6020831061022c5780518252601f19909201916020918201910161020d565b51815160209384036101000a60001901801990921691161790526040805192909401829003822063ffffffff881660e060020a0283526004830152925160248083019650939450929083900301905081600087803b15801561028d57600080fd5b505af11580156102a1573d6000803e3d6000fd5b505050506040513d60208110156102b757600080fd5b505115156001146102c757600080fd5b600154604080517f68b96270000000000000000000000000000000000000000000000000000000008152306024820181905233604483015231606482015260a06004820152601b60a48201527f476f7665726e616e6365206c6576656c732064657374726f796564000000000060c48201529051600160a060020a03909216916368b962709160e48082019260009290919082900301818387803b15801561036e57600080fd5b505af1158015610382573d6000803e3d6000fd5b503392505050ff5b60008060008560ff161180156103a3575060648560ff16105b15156103ae57600080fd5b60008460ff161180156103c4575060648460ff16105b15156103cf57600080fd5b604080517f746f6b656e2e676f7665726e6564000000000000000000000000000000000000602080830191909152606060020a600160a060020a038b1602602e83015282516022818403018152604290920192839052815191929182918401908083835b602083106104525780518252601f199092019160209182019101610433565b51815160209384036101000a600019018019909216911617905260408051929094018290038220600080547f3b7bfda0000000000000000000000000000000000000000000000000000000008552600485018390529551919850600160a060020a039095169650633b7bfda0955060248084019592945090928390030190829087803b1580156104e157600080fd5b505af11580156104f5573d6000803e3d6000fd5b505050506040513d602081101561050b57600080fd5b50511561051757600080fd5b60008054604080517fabfdcced00000000000000000000000000000000000000000000000000000000815260048101859052600160248201529051600160a060020a039092169263abfdcced9260448084019382900301818387803b15801561057f57600080fd5b505af1158015610593573d6000803e3d6000fd5b5050600054604080517f746f6b656e2e766f74656475726174696f6e0000000000000000000000000000602080830191909152600160a060020a038d8116606060020a0260328401528351808403602601815260469093019384905282519416955063e2a4853a9450909282918401908083835b602083106106265780518252601f199092019160209182019101610607565b5181516020939093036101000a60001901801990911692169190911790526040805191909301819003812063ffffffff871660e060020a0282526004820152602481018d9052915160448084019550600094509092839003019050818387803b15801561069257600080fd5b505af11580156106a6573d6000803e3d6000fd5b5050600054604080517f746f6b656e2e71756f72756d0000000000000000000000000000000000000000602080830191909152600160a060020a038d8116606060020a02602c8401528351808403830181529284019384905282519416955063e2a4853a9450909282918401908083835b602083106107365780518252601f199092019160209182019101610717565b5181516020939093036101000a60001901801990911692169190911790526040805191909301819003812063ffffffff871660e060020a028252600482015260ff8c166024820152915160448084019550600094509092839003019050818387803b1580156107a457600080fd5b505af11580156107b8573d6000803e3d6000fd5b5050600054604080517f746f6b656e2e7468726573686f6c640000000000000000000000000000000000602080830191909152600160a060020a038d8116606060020a02602f8401528351808403602301815260439093019384905282519416955063e2a4853a9450909282918401908083835b6020831061084b5780518252601f19909201916020918201910161082c565b5181516020939093036101000a60001901801990911692169190911790526040805191909301819003812063ffffffff871660e060020a028252600482015260ff8b166024820152915160448084019550600094509092839003019050818387803b1580156108b957600080fd5b505af11580156108cd573d6000803e3d6000fd5b5050600054604080517f746f6b656e2e7374616b65726571756972656d656e7400000000000000000000602080830191909152600160a060020a038d8116606060020a0260368401528351808403602a018152604a9093019384905282519416955063e2a4853a9450909282918401908083835b602083106109605780518252601f199092019160209182019101610941565b5181516020939093036101000a60001901801990911692169190911790526040805191909301819003812063ffffffff871660e060020a0282526004820152602481018a9052915160448084019550600094509092839003019050818387803b1580156109cc57600080fd5b505af11580156109e0573d6000803e3d6000fd5b5060019a9950505050505050505050565b600154600160a060020a031681565b6000805460408051600160a060020a03878116606060020a02602080840191909152600160e060020a03198816603484015283518084036018018152603890930193849052825186958695869586959092169363a855d4ce9382918401908083835b60208310610a815780518252601f199092019160209182019101610a62565b51815160209384036101000a60001901801990921691161790526040805192909401829003822063ffffffff881660e060020a0283526004830152925160248083019650939450929083900301905081600087803b158015610ae257600080fd5b505af1158015610af6573d6000803e3d6000fd5b505050506040513d6020811015610b0c57600080fd5b505160408051606060020a600160a060020a038c1602602082810191909152600160e060020a03198b16603483015260388083018b9052835180840390910181526058909201928390528151939750909282918401908083835b60208310610b855780518252601f199092019160209182019101610b66565b51815160209384036101000a6000190180199092169116179052604080519290940182900382207f6e756d6265724f66566f7465730000000000000000000000000000000000000083830152602d80840182905285518085039091018152604d9093019485905282519099509195509293508392850191508083835b60208310610c205780518252601f199092019160209182019101610c01565b51815160209384036101000a6000190180199092169116179052604080519290940182900382206002547f18160ddd0000000000000000000000000000000000000000000000000000000084529451909850600160a060020a0390941695506318160ddd945060048083019491935090918290030181600087803b158015610ca757600080fd5b505af1158015610cbb573d6000803e3d6000fd5b505050506040513d6020811015610cd157600080fd5b505160008054604080517fa855d4ce0000000000000000000000000000000000000000000000000000000081526004810187905290519394508793610d91938693610d8593606493600160a060020a039092169263a855d4ce926024808401936020939083900390910190829087803b158015610d4d57600080fd5b505af1158015610d61573d6000803e3d6000fd5b505050506040513d6020811015610d7757600080fd5b50519063ffffffff6110ff16565b9063ffffffff61113516565b101598975050505050505050565b600080600035600160e060020a031916868686866040516020018085600160a060020a0316600160a060020a0316606060020a02815260140184600160a060020a0316600160a060020a0316606060020a028152601401837bffffffffffffffffffffffffffffffffffffffffffffffffffffffff19167bffffffffffffffffffffffffffffffffffffffffffffffffffffffff191681526004018281526020019450505050506040516020818303038152906040526040518082805190602001908083835b60208310610e845780518252601f199092019160209182019101610e65565b6001836020036101000a0380198251168184511680821785525050505050509050019150506040518091039020610ebc308383610a00565b1515610ec757600080fd5b60408051606060020a600160a060020a038b1602602080830191909152600160e060020a03198916603483015282516018818403018152603890920192839052815191929182918401908083835b60208310610f345780518252601f199092019160209182019101610f15565b5181516020939093036101000a600019018019909116921691909117905260408051919093018190038120600080547fe2a4853a00000000000000000000000000000000000000000000000000000000845260048401839052602484018d90529451919950600160a060020a03909416955063e2a4853a94506044808301949350909182900301818387803b158015610fcc57600080fd5b505af1158015610fe0573d6000803e3d6000fd5b505050506001935060005460408051606060020a3002602080830191909152600160e060020a0319861660348301526038808301869052835180840390910181526058909201928390528151600160a060020a039094169363e2b202bf93918291908401908083835b602083106110685780518252601f199092019160209182019101611049565b5181516020939093036101000a60001901801990911692169190911790526040805191909301819003812063ffffffff871660e060020a0282526004820152915160248084019550600094509092839003019050818387803b1580156110cd57600080fd5b505af11580156110e1573d6000803e3d6000fd5b50505050505050949350505050565b600254600160a060020a031681565b600080831515611112576000915061112e565b5082820282848281151561112257fe5b041461112a57fe5b8091505b5092915050565b6000818381151561114257fe5b0493925050505600a165627a7a72305820156c00e5d07ed72df0942cc0ac913fcc9f9d5c882c52182a30bdb15cbda393590029",
  "source": "pragma solidity ^0.4.24;\n\nimport '../database/Database.sol';\nimport '../database/Events.sol';\nimport '../math/SafeMath.sol';\nimport '../interfaces/ERC20.sol';\n\n\n// @title A contract which allows for token holders to authorize particular functions to be called\n// @notice Token holders must lock their tokens against a particular function\n// @notice Token holders can unlock their tokens, removing their vote\n// @dev An owner has already been initialized when database is deployed\n// @author Kyle Dewhurst, MyBit Foundation\ncontract GovernanceVariables {\n  using SafeMath for uint256;\n\n  Database public database;\n  Events public events;\n\n  ERC20 public governanceToken;\n\n\n\n  // @dev methodID = bytes4(sha3(\"functionName(parameterType, parameterType)\")\n  // @dev functionID = sha3(contractAddress, methodID)\n  // @dev numVotes is sha3(contractAddress, methodID, sha3(parameter, parameter)))\n  // @dev quorumLevel = percentage of tokens required to be locked for the execution of a function\n\n\n  // @notice initiator of the platform sets the initial functions quorum level\n  // @notice quorum level dictates the number of votes required for that function to be executed\n  constructor(address _database, address _events, uint256 _baseQuorum)\n  public  {\n    database = Database(_database);\n    events = Events(_events);\n    bytes4 methodID = bytes4(keccak256(abi.encodePacked(\"setQuorumLevel(address, address, bytes4, uint256)\")));\n    bytes32 functionID = keccak256(abi.encodePacked(address(this), methodID));\n    database.setUint(functionID, _baseQuorum);   // the initial quorum level to set further quorum levels\n  }\n\n  // @notice initiates governance for this token\n  // @param _tokenAddress - MYB token contract address.\n  // @param _voteDuration - Vote duration. Voting period of each proposal. Must be positive.\n  // @param _quorum - Amount of supply that must vote to make a proposal valid. Integer percent, eg 20 for 20%. In range 1-100 inclusive.\n  // @param _threshold - Amount of weighted votes that must be approval for a proposal to pass. Integer percent, eg 51 for 51%. In range 1-100 inclusive.\n  function startGovernance(address _tokenAddress, uint256 _voteDuration, uint8 _quorum, uint8 _threshold, uint256 _stakeRequirement)\n  public\n  returns (bool){\n    // TODO: only allow initiating by platform contract\n    require(_quorum > 0 && _quorum < 100);\n    require(_threshold > 0 && _threshold < 100);\n    bytes32 tokenID = keccak256(abi.encodePacked(\"token.governed\", _tokenAddress));\n    require(!database.boolStorage(tokenID));\n    database.setBool(tokenID, true);\n    database.setUint(keccak256(abi.encodePacked(\"token.voteduration\", _tokenAddress)), _voteDuration);\n    database.setUint(keccak256(abi.encodePacked(\"token.quorum\", _tokenAddress)), _quorum);\n    database.setUint(keccak256(abi.encodePacked(\"token.threshold\", _tokenAddress)), _threshold);\n    database.setUint(keccak256(abi.encodePacked(\"token.stakerequirement\", _tokenAddress)), _stakeRequirement);\n    return true;\n  }\n\n  // @notice If restricted it will have to be called from address(this) using a voting proccess on signForFunctionCall\n  function setQuorumLevel(address _contractAddress, address _tokenAddress, bytes4 _methodID, uint256 _quorumLevel)\n  external\n  isRestricted(msg.sig, keccak256(abi.encodePacked(_contractAddress, _tokenAddress, _methodID, _quorumLevel)))\n  returns (bool) {\n    bytes32 functionID = keccak256(abi.encodePacked(_contractAddress, _methodID));\n    database.setUint(functionID, _quorumLevel);\n    return true;\n  }\n\n  // function setThreshold()\n  // external\n  // returns (bool) {\n  //   return true;\n  // }\n  //\n  // function setBurnRatio()\n  // external\n  // returns (bool) {\n  //   return true;\n  // }\n  //\n  //\n  // function setStakeAmount()\n  // external\n  // returns (bool) {\n  //   return true;\n  // }\n  //\n\n\n  // @notice platform owners can destroy contract here\n  function destroy()\n  onlyOwner\n  external {\n    events.transaction('Governance levels destroyed', address(this), msg.sender, address(this).balance, '');\n    selfdestruct(msg.sender);\n  }\n\n  function isQuorumReached(address _contractAddress, bytes4 _methodID, bytes32 _parameterHash)\n  public\n  view\n  returns (bool) {\n    uint256 quorumLevel = database.uintStorage(keccak256(abi.encodePacked(_contractAddress, _methodID)));\n    bytes32 executionID = keccak256(abi.encodePacked(_contractAddress, _methodID, _parameterHash));\n    bytes32 numVotesID = keccak256(abi.encodePacked(\"numberOfVotes\", executionID));\n    uint256 numTokens = governanceToken.totalSupply();\n    // check that number of signatures are greater than required quorum\n    return database.uintStorage(numVotesID).mul(100).div(numTokens) >= quorumLevel;\n  }\n\n  //------------------------------------------------------------------------------------------------------------------\n  //                                                Modifiers\n  //------------------------------------------------------------------------------------------------------------------\n\n\n  // @notice add this modifer to functions that you want multi-sig requirements for\n  // @dev function can only be called after at least n >= quorumLevel owners have agreed to call it\n  modifier isRestricted(bytes4 _methodID, bytes32 _parameterHash) {\n    require(isQuorumReached(address(this), _methodID, _parameterHash));   // owners must have agreed on function + parameters\n    _;\n    // remove votes from function call\n    database.deleteUint(keccak256(abi.encodePacked(address(this), _methodID, _parameterHash)));\n  }\n\n  // @notice reverts if caller is not the owner\n  modifier onlyOwner {\n    require(database.boolStorage(keccak256(abi.encodePacked(\"owner\", msg.sender))) == true);\n    _;\n  }\n\n\n  //------------------------------------------------------------------------------------------------------------------\n  //                                              Events\n  //------------------------------------------------------------------------------------------------------------------\n}\n",
  "sourcePath": "/home/peter/Documents/Work/MyBit/MyBit-Network.tech/contracts/ownership/GovernanceVariables.sol",
  "compiler": {
    "name": "solc",
    "version": "0.4.24+commit.e67f0147.Emscripten.clang"
  },
  "schemaVersion": "2.0.1",
  "updatedAt": "2018-12-05T20:40:37.377Z"
}