{
  "contractName": "GovernedToken",
  "abi": [
    {
      "constant": true,
      "inputs": [],
      "name": "name",
      "outputs": [
        {
          "name": "",
          "type": "string"
        }
      ],
      "payable": false,
      "stateMutability": "view",
      "type": "function"
    },
    {
      "constant": false,
      "inputs": [
        {
          "name": "_spender",
          "type": "address"
        },
        {
          "name": "_value",
          "type": "uint256"
        }
      ],
      "name": "approve",
      "outputs": [
        {
          "name": "",
          "type": "bool"
        }
      ],
      "payable": false,
      "stateMutability": "nonpayable",
      "type": "function"
    },
    {
      "constant": true,
      "inputs": [],
      "name": "totalSupply",
      "outputs": [
        {
          "name": "",
          "type": "uint256"
        }
      ],
      "payable": false,
      "stateMutability": "view",
      "type": "function"
    },
    {
      "constant": false,
      "inputs": [
        {
          "name": "_from",
          "type": "address"
        },
        {
          "name": "_to",
          "type": "address"
        },
        {
          "name": "_value",
          "type": "uint256"
        }
      ],
      "name": "transferFrom",
      "outputs": [
        {
          "name": "",
          "type": "bool"
        }
      ],
      "payable": false,
      "stateMutability": "nonpayable",
      "type": "function"
    },
    {
      "constant": true,
      "inputs": [],
      "name": "decimals",
      "outputs": [
        {
          "name": "",
          "type": "uint8"
        }
      ],
      "payable": false,
      "stateMutability": "view",
      "type": "function"
    },
    {
      "constant": false,
      "inputs": [
        {
          "name": "_spender",
          "type": "address"
        },
        {
          "name": "_subtractedValue",
          "type": "uint256"
        }
      ],
      "name": "decreaseApproval",
      "outputs": [
        {
          "name": "",
          "type": "bool"
        }
      ],
      "payable": false,
      "stateMutability": "nonpayable",
      "type": "function"
    },
    {
      "constant": true,
      "inputs": [
        {
          "name": "_owner",
          "type": "address"
        }
      ],
      "name": "balanceOf",
      "outputs": [
        {
          "name": "",
          "type": "uint256"
        }
      ],
      "payable": false,
      "stateMutability": "view",
      "type": "function"
    },
    {
      "constant": true,
      "inputs": [],
      "name": "database",
      "outputs": [
        {
          "name": "",
          "type": "address"
        }
      ],
      "payable": false,
      "stateMutability": "view",
      "type": "function"
    },
    {
      "constant": true,
      "inputs": [],
      "name": "symbol",
      "outputs": [
        {
          "name": "",
          "type": "string"
        }
      ],
      "payable": false,
      "stateMutability": "view",
      "type": "function"
    },
    {
      "constant": false,
      "inputs": [
        {
          "name": "_to",
          "type": "address"
        },
        {
          "name": "_value",
          "type": "uint256"
        }
      ],
      "name": "transfer",
      "outputs": [
        {
          "name": "",
          "type": "bool"
        }
      ],
      "payable": false,
      "stateMutability": "nonpayable",
      "type": "function"
    },
    {
      "constant": false,
      "inputs": [
        {
          "name": "_spender",
          "type": "address"
        },
        {
          "name": "_addedValue",
          "type": "uint256"
        }
      ],
      "name": "increaseApproval",
      "outputs": [
        {
          "name": "",
          "type": "bool"
        }
      ],
      "payable": false,
      "stateMutability": "nonpayable",
      "type": "function"
    },
    {
      "constant": true,
      "inputs": [
        {
          "name": "_owner",
          "type": "address"
        },
        {
          "name": "_spender",
          "type": "address"
        }
      ],
      "name": "allowance",
      "outputs": [
        {
          "name": "",
          "type": "uint256"
        }
      ],
      "payable": false,
      "stateMutability": "view",
      "type": "function"
    },
    {
      "inputs": [
        {
          "name": "_database",
          "type": "address"
        }
      ],
      "payable": false,
      "stateMutability": "nonpayable",
      "type": "constructor"
    },
    {
      "anonymous": false,
      "inputs": [
        {
          "indexed": true,
          "name": "from",
          "type": "address"
        },
        {
          "indexed": true,
          "name": "to",
          "type": "address"
        },
        {
          "indexed": false,
          "name": "value",
          "type": "uint256"
        }
      ],
      "name": "Transfer",
      "type": "event"
    },
    {
      "anonymous": false,
      "inputs": [
        {
          "indexed": true,
          "name": "owner",
          "type": "address"
        },
        {
          "indexed": true,
          "name": "spender",
          "type": "address"
        },
        {
          "indexed": false,
          "name": "value",
          "type": "uint256"
        }
      ],
      "name": "Approval",
      "type": "event"
    },
    {
      "constant": true,
      "inputs": [
        {
          "name": "_investor",
          "type": "address"
        }
      ],
      "name": "getAmountAvailable",
      "outputs": [
        {
          "name": "",
          "type": "uint256"
        }
      ],
      "payable": false,
      "stateMutability": "view",
      "type": "function"
    },
    {
      "constant": false,
      "inputs": [
        {
          "name": "_amount",
          "type": "uint256"
        }
      ],
      "name": "lock",
      "outputs": [
        {
          "name": "success",
          "type": "bool"
        }
      ],
      "payable": false,
      "stateMutability": "nonpayable",
      "type": "function"
    },
    {
      "constant": false,
      "inputs": [
        {
          "name": "_amount",
          "type": "uint256"
        }
      ],
      "name": "unlock",
      "outputs": [
        {
          "name": "success",
          "type": "bool"
        }
      ],
      "payable": false,
      "stateMutability": "nonpayable",
      "type": "function"
    }
  ],
  "bytecode": "0x608060405234801561001057600080fd5b50604051602080611597833981016040525160058054600160a060020a039092166101000261010060a860020a0319909216919091179055611540806100576000396000f3006080604052600436106100c15763ffffffff60e060020a60003504166306fdde0381146100c6578063095ea7b3146101505780630f9f57eb1461018857806318160ddd146101bb57806323b872dd146101d0578063313ce567146101fa5780636198e33914610225578063661884631461023d57806370a0823114610261578063713b563f1461028257806395d89b41146102b3578063a9059cbb146102c8578063d73dd623146102ec578063dd46706414610310578063dd62ed3e14610328575b600080fd5b3480156100d257600080fd5b506100db61034f565b6040805160208082528351818301528351919283929083019185019080838360005b838110156101155781810151838201526020016100fd565b50505050905090810190601f1680156101425780820380516001836020036101000a031916815260200191505b509250505060405180910390f35b34801561015c57600080fd5b50610174600160a060020a03600435166024356103dd565b604080519115158252519081900360200190f35b34801561019457600080fd5b506101a9600160a060020a0360043516610443565b60408051918252519081900360200190f35b3480156101c757600080fd5b506101a96105a0565b3480156101dc57600080fd5b50610174600160a060020a03600435811690602435166044356105a6565b34801561020657600080fd5b5061020f61071b565b6040805160ff9092168252519081900360200190f35b34801561023157600080fd5b50610174600435610724565b34801561024957600080fd5b50610174600160a060020a0360043516602435610bd2565b34801561026d57600080fd5b506101a9600160a060020a0360043516610cc1565b34801561028e57600080fd5b50610297610cdc565b60408051600160a060020a039092168252519081900360200190f35b3480156102bf57600080fd5b506100db610cf0565b3480156102d457600080fd5b50610174600160a060020a0360043516602435610d4b565b3480156102f857600080fd5b50610174600160a060020a0360043516602435610e2a565b34801561031c57600080fd5b50610174600435610ec3565b34801561033457600080fd5b506101a9600160a060020a03600435811690602435166114a1565b6003805460408051602060026001851615610100026000190190941693909304601f810184900484028201840190925281815292918301828280156103d55780601f106103aa576101008083540402835291602001916103d5565b820191906000526020600020905b8154815290600101906020018083116103b857829003601f168201915b505050505081565b336000818152600160209081526040808320600160a060020a038716808552908352818420869055815186815291519394909390927f8c5be1e5ebec7d5bd14f71427d1e84f3dd0314c0f7b2291e5b200ac8c7c3b925928290030190a350600192915050565b600554604080516000805160206114f5833981519152602080830191909152606060020a3081026030840152600160a060020a038681169091026044840152835160388185030181526058909301938490528251600095869586958695610100909304949094169363a855d4ce9390928291908401908083835b602083106104dc5780518252601f1990920191602091820191016104bd565b51815160209384036101000a60001901801990921691161790526040805192909401829003822063ffffffff881660e060020a0283526004830152925160248083019650939450929083900301905081600087803b15801561053d57600080fd5b505af1158015610551573d6000803e3d6000fd5b505050506040513d602081101561056757600080fd5b5051600160a060020a0386166000908152602081905260409020549093509150610597828463ffffffff6114cc16565b95945050505050565b60025490565b600160a060020a0383166000908152602081905260408120548211156105cb57600080fd5b600160a060020a03841660009081526001602090815260408083203384529091529020548211156105fb57600080fd5b600160a060020a038316151561061057600080fd5b600160a060020a038416600090815260208190526040902054610639908363ffffffff6114cc16565b600160a060020a03808616600090815260208190526040808220939093559085168152205461066e908363ffffffff6114de16565b600160a060020a038085166000908152602081815260408083209490945591871681526001825282812033825290915220546106b0908363ffffffff6114cc16565b600160a060020a03808616600081815260016020908152604080832033845282529182902094909455805186815290519287169391927fddf252ad1be2c89b69c2b068fc378daa952ba7f163c4a11628f55a4df523b3ef929181900390910190a35060019392505050565b60055460ff1690565b600554604080517f636f6d6d69746d656e742e72656c6561736574696d650000000000000000000060208083019190915230606060020a90810260368401523302604a8301528251808303603e018152605e90920192839052815160009485944294610100909204600160a060020a03169363a855d4ce9382918401908083835b602083106107c45780518252601f1990920191602091820191016107a5565b51815160209384036101000a60001901801990921691161790526040805192909401829003822063ffffffff881660e060020a0283526004830152925160248083019650939450929083900301905081600087803b15801561082557600080fd5b505af1158015610839573d6000803e3d6000fd5b505050506040513d602081101561084f57600080fd5b5051111561085c57600080fd5b600554604080516000805160206114f583398151915260208083019190915230606060020a908102603084015233026044830152825180830360380181526058909201928390528151610984948894610100909104600160a060020a03169363a855d4ce93909282918401908083835b602083106108eb5780518252601f1990920191602091820191016108cc565b51815160209384036101000a60001901801990921691161790526040805192909401829003822063ffffffff881660e060020a0283526004830152925160248083019650939450929083900301905081600087803b15801561094c57600080fd5b505af1158015610960573d6000803e3d6000fd5b505050506040513d602081101561097657600080fd5b50519063ffffffff6114cc16565b9050600081101561099457600080fd5b801515610abc57600554604080517f636f6d6d69746d656e742e73746172740000000000000000000000000000000060208083019190915230606060020a908102603084015233026044830152825180830360380181526058909201928390528151610100909404600160a060020a03169363e2a4853a93918291908401908083835b60208310610a365780518252601f199092019160209182019101610a17565b5181516020939093036101000a60001901801990911692169190911790526040805191909301819003812063ffffffff871660e060020a02825260048201526000602482018190529251604480830196509394509290839003019050818387803b158015610aa357600080fd5b505af1158015610ab7573d6000803e3d6000fd5b505050505b600554604080516000805160206114f583398151915260208083019190915230606060020a908102603084015233026044830152825180830360380181526058909201928390528151610100909404600160a060020a03169363e2a4853a93918291908401908083835b60208310610b455780518252601f199092019160209182019101610b26565b5181516020939093036101000a60001901801990911692169190911790526040805191909301819003812063ffffffff871660e060020a028252600482015260248101889052915160448084019550600094509092839003019050818387803b158015610bb157600080fd5b505af1158015610bc5573d6000803e3d6000fd5b5060019695505050505050565b336000908152600160209081526040808320600160a060020a0386168452909152812054808310610c2657336000908152600160209081526040808320600160a060020a0388168452909152812055610c5b565b610c36818463ffffffff6114cc16565b336000908152600160209081526040808320600160a060020a03891684529091529020555b336000818152600160209081526040808320600160a060020a0389168085529083529281902054815190815290519293927f8c5be1e5ebec7d5bd14f71427d1e84f3dd0314c0f7b2291e5b200ac8c7c3b925929181900390910190a35060019392505050565b600160a060020a031660009081526020819052604090205490565b6005546101009004600160a060020a031681565b6004805460408051602060026001851615610100026000190190941693909304601f810184900484028201840190925281815292918301828280156103d55780601f106103aa576101008083540402835291602001916103d5565b33600090815260208190526040812054821115610d6757600080fd5b600160a060020a0383161515610d7c57600080fd5b33600090815260208190526040902054610d9c908363ffffffff6114cc16565b3360009081526020819052604080822092909255600160a060020a03851681522054610dce908363ffffffff6114de16565b600160a060020a038416600081815260208181526040918290209390935580518581529051919233927fddf252ad1be2c89b69c2b068fc378daa952ba7f163c4a11628f55a4df523b3ef9281900390910190a350600192915050565b336000908152600160209081526040808320600160a060020a0386168452909152812054610e5e908363ffffffff6114de16565b336000818152600160209081526040808320600160a060020a0389168085529083529281902085905580519485525191937f8c5be1e5ebec7d5bd14f71427d1e84f3dd0314c0f7b2291e5b200ac8c7c3b925929081900390910190a350600192915050565b600080808311610ed257600080fd5b600554604080517f61737365742e676f7665726e616e636500000000000000000000000000000000602080830191909152606060020a300260308301528251602481840301815260449092019283905281516000946101009004600160a060020a0316936304f49a3a9392909182918401908083835b60208310610f675780518252601f199092019160209182019101610f48565b51815160209384036101000a60001901801990921691161790526040805192909401829003822063ffffffff881660e060020a0283526004830152925160248083019650939450929083900301905081600087803b158015610fc857600080fd5b505af1158015610fdc573d6000803e3d6000fd5b505050506040513d6020811015610ff257600080fd5b5051600160a060020a0316141561100857600080fd5b600554604080516000805160206114f583398151915260208083019190915230606060020a908102603084015233026044830152825180830360380181526058909201928390528151611130948894610100909104600160a060020a03169363a855d4ce93909282918401908083835b602083106110975780518252601f199092019160209182019101611078565b51815160209384036101000a60001901801990921691161790526040805192909401829003822063ffffffff881660e060020a0283526004830152925160248083019650939450929083900301905081600087803b1580156110f857600080fd5b505af115801561110c573d6000803e3d6000fd5b505050506040513d602081101561112257600080fd5b50519063ffffffff6114de16565b905061113b33610cc1565b81111561114757600080fd5b600554604080517f636f6d6d69746d656e742e73746172740000000000000000000000000000000060208083019190915230606060020a908102603084015233026044830152825180830360380181526058909201928390528151610100909404600160a060020a03169363e2a4853a93918291908401908083835b602083106111e25780518252601f1990920191602091820191016111c3565b5181516020939093036101000a60001901801990911692169190911790526040805191909301819003812063ffffffff871660e060020a0282526004820152426024820152915160448084019550600094509092839003019050818387803b15801561124d57600080fd5b505af1158015611261573d6000803e3d6000fd5b5050600554604080517f636f6d6d69746d656e742e72656c6561736574696d650000000000000000000060208083019190915230606060020a90810260368401523302604a8301528251808303603e018152605e909201928390528151610100909404600160a060020a0316955063e2a4853a9450909282918401908083835b602083106113005780518252601f1990920191602091820191016112e1565b518151602093840361010090810a6000190180199093169290911691909117909152604080519390950183900383206005547f61737365742e766f74654475726174696f6e00000000000000000000000000008585015230606060020a026032860152865180860360260181526046909501968790528451919850611459975091909104600160a060020a03169463a855d4ce9450918291908401908083835b602083106113bf5780518252601f1990920191602091820191016113a0565b51815160209384036101000a60001901801990921691161790526040805192909401829003822063ffffffff881660e060020a0283526004830152925160248083019650939450929083900301905081600087803b15801561142057600080fd5b505af1158015611434573d6000803e3d6000fd5b505050506040513d602081101561144a57600080fd5b5051429063ffffffff6114de16565b6040518363ffffffff1660e060020a02815260040180836000191660001916815260200182815260200192505050600060405180830381600087803b158015610aa357600080fd5b600160a060020a03918216600090815260016020908152604080832093909416825291909152205490565b6000828211156114d857fe5b50900390565b6000828201838110156114ed57fe5b93925050505600636f6d6d69746d656e742e76616c756500000000000000000000000000000000a165627a7a72305820e1a31f747f7379922218964661d3b5ab707491e402dbd8fc98d8be0a7ea4bd0e0029",
  "source": "pragma solidity ^0.4.24;\n\nimport \"./StandardToken.sol\";\nimport \"../../math/SafeMath.sol\";\n\n\n// @notice give GovernedToken access to view uint and bytes32 storage\ninterface DBAccess {\n  function addressStorage(bytes32 _key) external view returns (address);\n  function uintStorage(bytes32 _key) external view returns (uint);\n  function bytes32Storage(bytes32 _key) external view returns (bytes32);\n  function setUint(bytes32 _key, uint _value) external;\n}\n\n// @title A Dividend token that has governance features .\n// @notice This token contract can receive ERC20 tokens as payments and token owners can lock tokens while submitting votes\n// @dev Dividend tokens aren't actually locked, but restricted from transferring to avoid locking contravt having to distribute dividends.\n// @author Kyle Dewhurst & Peter Phillips, MyBit Foundation\ncontract GovernedToken is StandardToken{\n  using SafeMath for uint;\n\n  DBAccess public database;\n\n\n  // @notice constructor: initialized\n  constructor(address _database)\n  public{\n    database = DBAccess(_database);\n  }\n\n\n  // @notice returns the amount of tokens _investor has locked for this asset\n  function getAmountAvailable(address _investor)\n  public\n  view\n  returns (uint) {\n    uint amountLocked = database.uintStorage(keccak256(abi.encodePacked(\"commitment.value\", address(this), _investor)));\n    uint balance = balances[_investor];\n    uint available = balance.sub(amountLocked);\n    return available;\n  }\n\n  // @notice commit tokens for proposals and voting\n  function lock(uint _amount)\n  external\n  returns(bool success) {\n    require(_amount > 0);\n    require(database.addressStorage(keccak256(abi.encodePacked(\"asset.governance\", address(this)))) != address(0));\n    uint totalToLock = database.uintStorage(keccak256(abi.encodePacked(\"commitment.value\", address(this), msg.sender))).add(_amount);\n    require(totalToLock <= balanceOf(msg.sender));\n    database.setUint(keccak256(abi.encodePacked(\"commitment.start\", address(this), msg.sender)), now);\n    database.setUint(keccak256(abi.encodePacked(\"commitment.releasetime\", address(this), msg.sender)), now.add(database.uintStorage(keccak256(abi.encodePacked(\"asset.voteDuration\", address(this))))));\n    database.setUint(keccak256(abi.encodePacked(\"commitment.value\", address(this), msg.sender)), totalToLock);\n    return true;\n  }\n\n  // @notice unlock commited tokens\n  function unlock(uint _amount)\n  external\n  returns(bool success) {\n    require(database.uintStorage(keccak256(abi.encodePacked(\"commitment.releasetime\", address(this), msg.sender))) <= now);\n    uint remainderToLock = database.uintStorage(keccak256(abi.encodePacked(\"commitment.value\", address(this), msg.sender))).sub(_amount);\n    require(remainderToLock >= 0);\n    if(remainderToLock == 0){ database.setUint(keccak256(abi.encodePacked(\"commitment.start\", address(this), msg.sender)), 0); }\n    database.setUint(keccak256(abi.encodePacked(\"commitment.value\", address(this), msg.sender)), remainderToLock);\n    return true;\n  }\n\n}\n",
  "sourcePath": "/home/peter/Documents/Work/MyBit/MyBit-Network.tech/contracts/tokens/erc20/GovernedToken.sol",
  "compiler": {
    "name": "solc",
    "version": "0.4.24+commit.e67f0147.Emscripten.clang"
  },
  "schemaVersion": "3.0.2",
  "updatedAt": "2019-04-03T05:20:12.974Z",
  "devdoc": {
    "methods": {
      "allowance(address,address)": {
        "details": "Function to check the amount of tokens that an owner allowed to a spender.",
        "params": {
          "_owner": "address The address which owns the funds.",
          "_spender": "address The address which will spend the funds."
        },
        "return": "A uint256 specifying the amount of tokens still available for the spender."
      },
      "approve(address,uint256)": {
        "details": "Approve the passed address to spend the specified amount of tokens on behalf of msg.sender. Beware that changing an allowance with this method brings the risk that someone may use both the old and the new allowance by unfortunate transaction ordering. One possible solution to mitigate this race condition is to first reduce the spender's allowance to 0 and set the desired value afterwards: https://github.com/ethereum/EIPs/issues/20#issuecomment-263524729",
        "params": {
          "_spender": "The address which will spend the funds.",
          "_value": "The amount of tokens to be spent."
        }
      },
      "balanceOf(address)": {
        "details": "Gets the balance of the specified address.",
        "params": {
          "_owner": "The address to query the the balance of."
        },
        "return": "An uint256 representing the amount owned by the passed address."
      },
      "decreaseApproval(address,uint256)": {
        "details": "Decrease the amount of tokens that an owner allowed to a spender. approve should be called when allowed[_spender] == 0. To decrement allowed value is better to use this function to avoid 2 calls (and wait until the first transaction is mined) From MonolithDAO Token.sol",
        "params": {
          "_spender": "The address which will spend the funds.",
          "_subtractedValue": "The amount of tokens to decrease the allowance by."
        }
      },
      "increaseApproval(address,uint256)": {
        "details": "Increase the amount of tokens that an owner allowed to a spender. approve should be called when allowed[_spender] == 0. To increment allowed value is better to use this function to avoid 2 calls (and wait until the first transaction is mined) From MonolithDAO Token.sol",
        "params": {
          "_addedValue": "The amount of tokens to increase the allowance by.",
          "_spender": "The address which will spend the funds."
        }
      },
      "totalSupply()": {
        "details": "Total number of tokens in existence"
      },
      "transfer(address,uint256)": {
        "details": "Transfer token for a specified address",
        "params": {
          "_to": "The address to transfer to.",
          "_value": "The amount to be transferred."
        }
      },
      "transferFrom(address,address,uint256)": {
        "details": "Transfer tokens from one address to another",
        "params": {
          "_from": "address The address which you want to send tokens from",
          "_to": "address The address which you want to transfer to",
          "_value": "uint256 the amount of tokens to be transferred"
        }
      }
    }
  },
  "userdoc": {
    "methods": {}
  }
}