{
  "contractName": "GovernedTokenETH",
  "abi": [
    {
      "constant": true,
      "inputs": [],
      "name": "mintingFinished",
      "outputs": [
        {
          "name": "",
          "type": "bool"
        }
      ],
      "payable": false,
      "stateMutability": "view",
      "type": "function"
    },
    {
      "constant": true,
      "inputs": [],
      "name": "name",
      "outputs": [
        {
          "name": "",
          "type": "string"
        }
      ],
      "payable": false,
      "stateMutability": "view",
      "type": "function"
    },
    {
      "constant": false,
      "inputs": [
        {
          "name": "_spender",
          "type": "address"
        },
        {
          "name": "_value",
          "type": "uint256"
        }
      ],
      "name": "approve",
      "outputs": [
        {
          "name": "",
          "type": "bool"
        }
      ],
      "payable": false,
      "stateMutability": "nonpayable",
      "type": "function"
    },
    {
      "constant": true,
      "inputs": [
        {
          "name": "_investor",
          "type": "address"
        }
      ],
      "name": "getAmountAvailable",
      "outputs": [
        {
          "name": "",
          "type": "uint256"
        }
      ],
      "payable": false,
      "stateMutability": "view",
      "type": "function"
    },
    {
      "constant": true,
      "inputs": [],
      "name": "totalSupply",
      "outputs": [
        {
          "name": "",
          "type": "uint256"
        }
      ],
      "payable": false,
      "stateMutability": "view",
      "type": "function"
    },
    {
      "constant": true,
      "inputs": [],
      "name": "assetIncome",
      "outputs": [
        {
          "name": "",
          "type": "uint256"
        }
      ],
      "payable": false,
      "stateMutability": "view",
      "type": "function"
    },
    {
      "constant": true,
      "inputs": [],
      "name": "assetIncomeIssued",
      "outputs": [
        {
          "name": "",
          "type": "uint256"
        }
      ],
      "payable": false,
      "stateMutability": "view",
      "type": "function"
    },
    {
      "constant": false,
      "inputs": [],
      "name": "checkForTransfers",
      "outputs": [],
      "payable": false,
      "stateMutability": "nonpayable",
      "type": "function"
    },
    {
      "constant": true,
      "inputs": [],
      "name": "decimals",
      "outputs": [
        {
          "name": "",
          "type": "uint8"
        }
      ],
      "payable": false,
      "stateMutability": "view",
      "type": "function"
    },
    {
      "constant": true,
      "inputs": [
        {
          "name": "_investor",
          "type": "address"
        }
      ],
      "name": "getAmountOwed",
      "outputs": [
        {
          "name": "",
          "type": "uint256"
        }
      ],
      "payable": false,
      "stateMutability": "view",
      "type": "function"
    },
    {
      "constant": false,
      "inputs": [],
      "name": "withdraw",
      "outputs": [
        {
          "name": "",
          "type": "bool"
        }
      ],
      "payable": false,
      "stateMutability": "nonpayable",
      "type": "function"
    },
    {
      "constant": false,
      "inputs": [
        {
          "name": "_to",
          "type": "address"
        },
        {
          "name": "_amount",
          "type": "uint256"
        }
      ],
      "name": "mint",
      "outputs": [
        {
          "name": "",
          "type": "bool"
        }
      ],
      "payable": false,
      "stateMutability": "nonpayable",
      "type": "function"
    },
    {
      "constant": false,
      "inputs": [
        {
          "name": "_amount",
          "type": "uint256"
        }
      ],
      "name": "burn",
      "outputs": [
        {
          "name": "success",
          "type": "bool"
        }
      ],
      "payable": false,
      "stateMutability": "nonpayable",
      "type": "function"
    },
    {
      "constant": true,
      "inputs": [],
      "name": "getERC20",
      "outputs": [
        {
          "name": "",
          "type": "address"
        }
      ],
      "payable": false,
      "stateMutability": "view",
      "type": "function"
    },
    {
      "constant": false,
      "inputs": [
        {
          "name": "_amount",
          "type": "uint256"
        }
      ],
      "name": "issueDividends",
      "outputs": [
        {
          "name": "",
          "type": "bool"
        }
      ],
      "payable": true,
      "stateMutability": "payable",
      "type": "function"
    },
    {
      "constant": false,
      "inputs": [
        {
          "name": "_amount",
          "type": "uint256"
        }
      ],
      "name": "unlock",
      "outputs": [
        {
          "name": "success",
          "type": "bool"
        }
      ],
      "payable": false,
      "stateMutability": "nonpayable",
      "type": "function"
    },
    {
      "constant": false,
      "inputs": [
        {
          "name": "_spender",
          "type": "address"
        },
        {
          "name": "_subtractedValue",
          "type": "uint256"
        }
      ],
      "name": "decreaseApproval",
      "outputs": [
        {
          "name": "",
          "type": "bool"
        }
      ],
      "payable": false,
      "stateMutability": "nonpayable",
      "type": "function"
    },
    {
      "constant": true,
      "inputs": [
        {
          "name": "_owner",
          "type": "address"
        }
      ],
      "name": "balanceOf",
      "outputs": [
        {
          "name": "",
          "type": "uint256"
        }
      ],
      "payable": false,
      "stateMutability": "view",
      "type": "function"
    },
    {
      "constant": true,
      "inputs": [],
      "name": "database",
      "outputs": [
        {
          "name": "",
          "type": "address"
        }
      ],
      "payable": false,
      "stateMutability": "view",
      "type": "function"
    },
    {
      "constant": true,
      "inputs": [],
      "name": "erc20",
      "outputs": [
        {
          "name": "",
          "type": "address"
        }
      ],
      "payable": false,
      "stateMutability": "view",
      "type": "function"
    },
    {
      "constant": false,
      "inputs": [
        {
          "name": "_from",
          "type": "address"
        },
        {
          "name": "_amount",
          "type": "uint256"
        }
      ],
      "name": "burnFrom",
      "outputs": [
        {
          "name": "success",
          "type": "bool"
        }
      ],
      "payable": false,
      "stateMutability": "nonpayable",
      "type": "function"
    },
    {
      "constant": false,
      "inputs": [],
      "name": "finishMinting",
      "outputs": [
        {
          "name": "",
          "type": "bool"
        }
      ],
      "payable": false,
      "stateMutability": "nonpayable",
      "type": "function"
    },
    {
      "constant": true,
      "inputs": [],
      "name": "symbol",
      "outputs": [
        {
          "name": "",
          "type": "string"
        }
      ],
      "payable": false,
      "stateMutability": "view",
      "type": "function"
    },
    {
      "constant": true,
      "inputs": [],
      "name": "valuePerToken",
      "outputs": [
        {
          "name": "",
          "type": "uint256"
        }
      ],
      "payable": false,
      "stateMutability": "view",
      "type": "function"
    },
    {
      "constant": true,
      "inputs": [
        {
          "name": "",
          "type": "address"
        }
      ],
      "name": "incomeOwed",
      "outputs": [
        {
          "name": "",
          "type": "uint256"
        }
      ],
      "payable": false,
      "stateMutability": "view",
      "type": "function"
    },
    {
      "constant": false,
      "inputs": [
        {
          "name": "_spender",
          "type": "address"
        },
        {
          "name": "_amount",
          "type": "uint256"
        },
        {
          "name": "_data",
          "type": "bytes"
        }
      ],
      "name": "approveAndCall",
      "outputs": [
        {
          "name": "success",
          "type": "bool"
        }
      ],
      "payable": false,
      "stateMutability": "nonpayable",
      "type": "function"
    },
    {
      "constant": true,
      "inputs": [],
      "name": "getTokenURI",
      "outputs": [
        {
          "name": "",
          "type": "string"
        }
      ],
      "payable": false,
      "stateMutability": "view",
      "type": "function"
    },
    {
      "constant": false,
      "inputs": [
        {
          "name": "_spender",
          "type": "address"
        },
        {
          "name": "_addedValue",
          "type": "uint256"
        }
      ],
      "name": "increaseApproval",
      "outputs": [
        {
          "name": "",
          "type": "bool"
        }
      ],
      "payable": false,
      "stateMutability": "nonpayable",
      "type": "function"
    },
    {
      "constant": false,
      "inputs": [
        {
          "name": "_amount",
          "type": "uint256"
        }
      ],
      "name": "lock",
      "outputs": [
        {
          "name": "success",
          "type": "bool"
        }
      ],
      "payable": false,
      "stateMutability": "nonpayable",
      "type": "function"
    },
    {
      "constant": true,
      "inputs": [
        {
          "name": "_owner",
          "type": "address"
        },
        {
          "name": "_spender",
          "type": "address"
        }
      ],
      "name": "allowance",
      "outputs": [
        {
          "name": "",
          "type": "uint256"
        }
      ],
      "payable": false,
      "stateMutability": "view",
      "type": "function"
    },
    {
      "constant": true,
      "inputs": [
        {
          "name": "",
          "type": "address"
        }
      ],
      "name": "previousValuePerToken",
      "outputs": [
        {
          "name": "",
          "type": "uint256"
        }
      ],
      "payable": false,
      "stateMutability": "view",
      "type": "function"
    },
    {
      "inputs": [
        {
          "name": "_database",
          "type": "address"
        },
        {
          "name": "_tokenURI",
          "type": "string"
        },
        {
          "name": "_owner",
          "type": "address"
        }
      ],
      "payable": false,
      "stateMutability": "nonpayable",
      "type": "constructor"
    },
    {
      "payable": true,
      "stateMutability": "payable",
      "type": "fallback"
    },
    {
      "anonymous": false,
      "inputs": [
        {
          "indexed": true,
          "name": "_spender",
          "type": "address"
        },
        {
          "indexed": false,
          "name": "_value",
          "type": "uint256"
        }
      ],
      "name": "LogBurn",
      "type": "event"
    },
    {
      "anonymous": false,
      "inputs": [
        {
          "indexed": true,
          "name": "_sender",
          "type": "address"
        },
        {
          "indexed": false,
          "name": "_paymentAmount",
          "type": "uint256"
        }
      ],
      "name": "LogIncomeReceived",
      "type": "event"
    },
    {
      "anonymous": false,
      "inputs": [
        {
          "indexed": false,
          "name": "_address",
          "type": "address"
        },
        {
          "indexed": false,
          "name": "_amount",
          "type": "uint256"
        }
      ],
      "name": "LogIncomeCollected",
      "type": "event"
    },
    {
      "anonymous": false,
      "inputs": [
        {
          "indexed": false,
          "name": "_difference",
          "type": "uint256"
        }
      ],
      "name": "LogCheckBalance",
      "type": "event"
    },
    {
      "anonymous": false,
      "inputs": [
        {
          "indexed": true,
          "name": "to",
          "type": "address"
        },
        {
          "indexed": false,
          "name": "amount",
          "type": "uint256"
        }
      ],
      "name": "Mint",
      "type": "event"
    },
    {
      "anonymous": false,
      "inputs": [],
      "name": "MintFinished",
      "type": "event"
    },
    {
      "anonymous": false,
      "inputs": [
        {
          "indexed": true,
          "name": "from",
          "type": "address"
        },
        {
          "indexed": true,
          "name": "to",
          "type": "address"
        },
        {
          "indexed": false,
          "name": "value",
          "type": "uint256"
        }
      ],
      "name": "Transfer",
      "type": "event"
    },
    {
      "anonymous": false,
      "inputs": [
        {
          "indexed": true,
          "name": "owner",
          "type": "address"
        },
        {
          "indexed": true,
          "name": "spender",
          "type": "address"
        },
        {
          "indexed": false,
          "name": "value",
          "type": "uint256"
        }
      ],
      "name": "Approval",
      "type": "event"
    },
    {
      "constant": false,
      "inputs": [
        {
          "name": "_to",
          "type": "address"
        },
        {
          "name": "_amount",
          "type": "uint256"
        }
      ],
      "name": "transfer",
      "outputs": [
        {
          "name": "success",
          "type": "bool"
        }
      ],
      "payable": false,
      "stateMutability": "nonpayable",
      "type": "function"
    },
    {
      "constant": false,
      "inputs": [
        {
          "name": "_from",
          "type": "address"
        },
        {
          "name": "_to",
          "type": "address"
        },
        {
          "name": "_amount",
          "type": "uint256"
        }
      ],
      "name": "transferFrom",
      "outputs": [
        {
          "name": "success",
          "type": "bool"
        }
      ],
      "payable": false,
      "stateMutability": "nonpayable",
      "type": "function"
    }
  ],
  "bytecode": "0x60806040523480156200001157600080fd5b506040516200283c3803806200283c8339810160409081528151602080840151928401516005805461010060a860020a031916610100600160a060020a03861602179055929093018051919390929183918391600091849182916012918691620000819160039186019062000102565b5082516200009790600490602086019062000102565b5060068054600160a060020a031916600160a060020a0392831617905560006002556005805460ff191660ff93909316929092179091558316159150620000f690505760078054600160a060020a031916600160a060020a0383161790555b505050505050620001a7565b828054600181600116156101000203166002900490600052602060002090601f016020900481019282601f106200014557805160ff191683800117855562000175565b8280016001018555821562000175579182015b828111156200017557825182559160200191906001019062000158565b506200018392915062000187565b5090565b620001a491905b808211156200018357600081556001016200018e565b90565b61268580620001b76000396000f3006080604052600436106101875763ffffffff60e060020a60003504166305d2035b811461023257806306fdde031461025b578063095ea7b3146102e55780630f9f57eb1461030957806318160ddd1461033c57806323b872dd146103515780632ba1b3a11461037b5780632da208e51461039057806330d0e75f146103a5578063313ce567146103bc5780633bdfa920146103e75780633ccfd60b1461040857806340c10f191461041d57806342966c68146104415780634ece90a81461045957806352ff7fa91461048a5780636198e3391461049557806366188463146104ad57806370a08231146104d1578063713b563f146104f2578063785e9e861461050757806379cc67901461051c5780637d64bcb41461054057806395d89b4114610555578063a8fa8e521461056a578063a9059cbb1461057f578063b5a83d43146105a3578063cae9ca51146105c4578063d4a191161461062d578063d73dd62314610642578063dd46706414610666578063dd62ed3e1461067e578063efcb5dea146106a5575b600754600160a060020a03161561019d57600080fd5b6009546101b0903463ffffffff6106c616565b6009556002546101f7906101e8906101dc346d04ee2d6d415b85acef810000000063ffffffff6106e016565b9063ffffffff61070b16565b6008549063ffffffff6106c616565b60085560408051348152905133917fe3166012cb87b3dec8e117fe0e096a47387f94ea2ec12086ed8ae24ff8c237fe919081900360200190a2005b34801561023e57600080fd5b50610247610720565b604080519115158252519081900360200190f35b34801561026757600080fd5b50610270610742565b6040805160208082528351818301528351919283929083019185019080838360005b838110156102aa578181015183820152602001610292565b50505050905090810190601f1680156102d75780820380516001836020036101000a031916815260200191505b509250505060405180910390f35b3480156102f157600080fd5b50610247600160a060020a03600435166024356107d0565b34801561031557600080fd5b5061032a600160a060020a0360043516610824565b60408051918252519081900360200190f35b34801561034857600080fd5b5061032a610981565b34801561035d57600080fd5b50610247600160a060020a0360043581169060243516604435610987565b34801561038757600080fd5b5061032a6109b4565b34801561039c57600080fd5b5061032a6109ba565b3480156103b157600080fd5b506103ba6109c0565b005b3480156103c857600080fd5b506103d1610b25565b6040805160ff9092168252519081900360200190f35b3480156103f357600080fd5b5061032a600160a060020a0360043516610b2e565b34801561041457600080fd5b50610247610b7a565b34801561042957600080fd5b50610247600160a060020a0360043516602435610d53565b34801561044d57600080fd5b50610247600435610e5e565b34801561046557600080fd5b5061046e610f08565b60408051600160a060020a039092168252519081900360200190f35b610247600435610f17565b3480156104a157600080fd5b50610247600435611141565b3480156104b957600080fd5b50610247600160a060020a03600435166024356115ef565b3480156104dd57600080fd5b5061032a600160a060020a03600435166116cc565b3480156104fe57600080fd5b5061046e6116e7565b34801561051357600080fd5b5061046e6116fb565b34801561052857600080fd5b50610247600160a060020a036004351660243561170a565b34801561054c57600080fd5b5061024761181f565b34801561056157600080fd5b506102706118a0565b34801561057657600080fd5b5061032a6118fb565b34801561058b57600080fd5b50610247600160a060020a0360043516602435611901565b3480156105af57600080fd5b5061032a600160a060020a036004351661192c565b3480156105d057600080fd5b50604080516020600460443581810135601f8101849004840285018401909552848452610247948235600160a060020a031694602480359536959460649492019190819084018382808284375094975061193e9650505050505050565b34801561063957600080fd5b50610270611af4565b34801561064e57600080fd5b50610247600160a060020a0360043516602435611b8a565b34801561067257600080fd5b50610247600435611c11565b34801561068a57600080fd5b5061032a600160a060020a03600435811690602435166121ef565b3480156106b157600080fd5b5061032a600160a060020a036004351661221a565b6000828201838110156106d557fe5b8091505b5092915050565b6000808315156106f357600091506106d9565b5082820282848281151561070357fe5b04146106d557fe5b6000818381151561071857fe5b049392505050565b6005547501000000000000000000000000000000000000000000900460ff1681565b6003805460408051602060026001851615610100026000190190941693909304601f810184900484028201840190925281815292918301828280156107c85780601f1061079d576101008083540402835291602001916107c8565b820191906000526020600020905b8154815290600101906020018083116107ab57829003601f168201915b505050505081565b336000818152600160209081526040808320600160a060020a0387168085529083528184208690558151868152915193949093909260008051602061261a833981519152928290030190a350600192915050565b6005546040805160008051602061263a833981519152602080830191909152606060020a3081026030840152600160a060020a038681169091026044840152835160388185030181526058909301938490528251600095869586958695610100909304949094169363a855d4ce9390928291908401908083835b602083106108bd5780518252601f19909201916020918201910161089e565b51815160209384036101000a60001901801990921691161790526040805192909401829003822063ffffffff881660e060020a0283526004830152925160248083019650939450929083900301905081600087803b15801561091e57600080fd5b505af1158015610932573d6000803e3d6000fd5b505050506040513d602081101561094857600080fd5b5051600160a060020a0386166000908152602081905260409020549093509150610978828463ffffffff61222c16565b95945050505050565b60025490565b600061099284610824565b82111561099e57600080fd5b6109a984848461223e565b506001949350505050565b60095481565b600a5481565b60008060006109dc600a5460095461222c90919063ffffffff16565b600754909350600160a060020a031615156109fa5730319150610a8f565b600754604080517f70a082310000000000000000000000000000000000000000000000000000000081523060048201529051600160a060020a03909216916370a08231916024808201926020929091908290030181600087803b158015610a6057600080fd5b505af1158015610a74573d6000803e3d6000fd5b505050506040513d6020811015610a8a57600080fd5b505191505b610a9f828463ffffffff61222c16565b90506000811115610aed57600254610ad3906101e8906101dc846d04ee2d6d415b85acef810000000063ffffffff6106e016565b600855600954610ae9908263ffffffff6106c616565b6009555b6040805182815290517f0d7ab7150531466ac81cc2479d86788246bab0e9cc606a06ec6af5c8ab0d6f8e9181900360200190a1505050565b60055460ff1690565b600160a060020a0381166000908152600b6020526040812054610b74906d04ee2d6d415b85acef8100000000906101dc90610b68866122cd565b9063ffffffff6106c616565b92915050565b60008033610baf610b8a826122cd565b600160a060020a0383166000908152600b60205260409020549063ffffffff6106c616565b600160a060020a0382166000908152600b6020818152604080842094909455600854600c825284842055338352522054610bfd906d04ee2d6d415b85acef810000000063ffffffff61070b16565b336000908152600b6020526040812055600a54909250610c23908363ffffffff6106c616565b600a55600754600160a060020a03161515610c6b57604051339083156108fc029084906000818181858888f19350505050158015610c65573d6000803e3d6000fd5b50610d0f565b600754604080517fa9059cbb000000000000000000000000000000000000000000000000000000008152336004820152602481018590529051600160a060020a039092169163a9059cbb916044808201926020929091908290030181600087803b158015610cd857600080fd5b505af1158015610cec573d6000803e3d6000fd5b505050506040513d6020811015610d0257600080fd5b50511515610d0f57600080fd5b604080513381526020810184905281517ff5b510c554f6c572235f7e531ec8f287b350b15c212250b993180473a6aeb7d1929181900390910190a160019250505090565b6005546000907501000000000000000000000000000000000000000000900460ff16158015610d8c5750600654600160a060020a031633145b1515610d9757600080fd5b600254610daa908363ffffffff6106c616565b600255600160a060020a038316600090815260208190526040902054610dd6908363ffffffff6106c616565b600160a060020a03841660008181526020818152604091829020939093558051858152905191927f0f6798a560793a54c3bcfe86a93cde1e73087d944c0ea20544137d412139688592918290030190a2604080518381529051600160a060020a038516916000916000805160206125fa8339815191529181900360200190a350600192915050565b33600090815260208190526040812054610e7e908363ffffffff61222c16565b33600090815260208190526040902055600254610ea1908363ffffffff61222c16565b60025560408051838152905133917f38d762ef507761291a578e921acfe29c1af31a7331ea03e391cf16cfc4d4f581919081900360200190a260408051838152905160009133916000805160206125fa8339815191529181900360200190a3506001919050565b600754600160a060020a031690565b6000808211610f8757604080517f08c379a000000000000000000000000000000000000000000000000000000000815260206004820152601060248201527f43616e6e6f742073656e64207a65726f00000000000000000000000000000000604482015290519081900360640190fd5b600754600160a060020a03161515610faa57348214610fa557600080fd5b6110c1565b3415610fb557600080fd5b600754604080517f23b872dd000000000000000000000000000000000000000000000000000000008152336004820152306024820152604481018590529051600160a060020a03909216916323b872dd916064808201926020929091908290030181600087803b15801561102857600080fd5b505af115801561103c573d6000803e3d6000fd5b505050506040513d602081101561105257600080fd5b505115156110c157604080517f08c379a000000000000000000000000000000000000000000000000000000000815260206004820152600f60248201527f5472616e73666572206661696c65640000000000000000000000000000000000604482015290519081900360640190fd5b6009546110d4908363ffffffff6106c616565b600955600254611100906101e8906101dc856d04ee2d6d415b85acef810000000063ffffffff6106e016565b60085560408051838152905133917fe3166012cb87b3dec8e117fe0e096a47387f94ea2ec12086ed8ae24ff8c237fe919081900360200190a2506001919050565b600554604080517f636f6d6d69746d656e742e72656c6561736574696d650000000000000000000060208083019190915230606060020a90810260368401523302604a8301528251808303603e018152605e90920192839052815160009485944294610100909204600160a060020a03169363a855d4ce9382918401908083835b602083106111e15780518252601f1990920191602091820191016111c2565b51815160209384036101000a60001901801990921691161790526040805192909401829003822063ffffffff881660e060020a0283526004830152925160248083019650939450929083900301905081600087803b15801561124257600080fd5b505af1158015611256573d6000803e3d6000fd5b505050506040513d602081101561126c57600080fd5b5051111561127957600080fd5b6005546040805160008051602061263a83398151915260208083019190915230606060020a9081026030840152330260448301528251808303603801815260589092019283905281516113a1948894610100909104600160a060020a03169363a855d4ce93909282918401908083835b602083106113085780518252601f1990920191602091820191016112e9565b51815160209384036101000a60001901801990921691161790526040805192909401829003822063ffffffff881660e060020a0283526004830152925160248083019650939450929083900301905081600087803b15801561136957600080fd5b505af115801561137d573d6000803e3d6000fd5b505050506040513d602081101561139357600080fd5b50519063ffffffff61222c16565b905060008110156113b157600080fd5b8015156114d957600554604080517f636f6d6d69746d656e742e73746172740000000000000000000000000000000060208083019190915230606060020a908102603084015233026044830152825180830360380181526058909201928390528151610100909404600160a060020a03169363e2a4853a93918291908401908083835b602083106114535780518252601f199092019160209182019101611434565b5181516020939093036101000a60001901801990911692169190911790526040805191909301819003812063ffffffff871660e060020a02825260048201526000602482018190529251604480830196509394509290839003019050818387803b1580156114c057600080fd5b505af11580156114d4573d6000803e3d6000fd5b505050505b6005546040805160008051602061263a83398151915260208083019190915230606060020a908102603084015233026044830152825180830360380181526058909201928390528151610100909404600160a060020a03169363e2a4853a93918291908401908083835b602083106115625780518252601f199092019160209182019101611543565b5181516020939093036101000a60001901801990911692169190911790526040805191909301819003812063ffffffff871660e060020a028252600482015260248101889052915160448084019550600094509092839003019050818387803b1580156115ce57600080fd5b505af11580156115e2573d6000803e3d6000fd5b5060019695505050505050565b336000908152600160209081526040808320600160a060020a038616845290915281205480831061164357336000908152600160209081526040808320600160a060020a0388168452909152812055611678565b611653818463ffffffff61222c16565b336000908152600160209081526040808320600160a060020a03891684529091529020555b336000818152600160209081526040808320600160a060020a03891680855290835292819020548151908152905192939260008051602061261a833981519152929181900390910190a35060019392505050565b600160a060020a031660009081526020819052604090205490565b6005546101009004600160a060020a031681565b600754600160a060020a031681565b600160a060020a038216600090815260208190526040812054611733908363ffffffff61222c16565b600160a060020a03841660009081526020818152604080832093909355600181528282203383529052205461176e908363ffffffff61222c16565b600160a060020a03841660009081526001602090815260408083203384529091529020556002546117a5908363ffffffff61222c16565b600255604080518381529051600160a060020a038516917f38d762ef507761291a578e921acfe29c1af31a7331ea03e391cf16cfc4d4f581919081900360200190a2604080518381529051600091600160a060020a038616916000805160206125fa8339815191529181900360200190a350600192915050565b6005546000907501000000000000000000000000000000000000000000900460ff161580156118585750600654600160a060020a031633145b151561186357600080fd5b506005805475ff00000000000000000000000000000000000000000019167501000000000000000000000000000000000000000000179055600190565b6004805460408051602060026001851615610100026000190190941693909304601f810184900484028201840190925281815292918301828280156107c85780601f1061079d576101008083540402835291602001916107c8565b60085481565b600061190c33610824565b82111561191857600080fd5b611922838361232f565b5060019392505050565b600b6020526000908152604090205481565b60003361194d610b8a826122cd565b600160a060020a0382166000908152600b6020908152604080832093909355600854600c9091529190205584611985610b8a826122cd565b600160a060020a038083166000908152600b6020908152604080832094909455600854600c8252848320553380835260018252848320938b1680845293825291849020899055835189815293519293919260008051602061261a8339815191529281900390910190a36040517f8f4ffcb10000000000000000000000000000000000000000000000000000000081523360048201818152602483018890523060448401819052608060648501908152885160848601528851600160a060020a038c1695638f4ffcb195948c94938c939192909160a490910190602085019080838360005b83811015611a81578181015183820152602001611a69565b50505050905090810190601f168015611aae5780820380516001836020036101000a031916815260200191505b5095505050505050600060405180830381600087803b158015611ad057600080fd5b505af1158015611ae4573d6000803e3d6000fd5b5060019998505050505050505050565b60038054604080516020601f6002600019610100600188161502019095169490940493840181900481028201810190925282815260609390929091830182828015611b805780601f10611b5557610100808354040283529160200191611b80565b820191906000526020600020905b815481529060010190602001808311611b6357829003601f168201915b5050505050905090565b336000908152600160209081526040808320600160a060020a0386168452909152812054611bbe908363ffffffff6106c616565b336000818152600160209081526040808320600160a060020a03891680855290835292819020859055805194855251919360008051602061261a833981519152929081900390910190a350600192915050565b600080808311611c2057600080fd5b600554604080517f61737365742e676f7665726e616e636500000000000000000000000000000000602080830191909152606060020a300260308301528251602481840301815260449092019283905281516000946101009004600160a060020a0316936304f49a3a9392909182918401908083835b60208310611cb55780518252601f199092019160209182019101611c96565b51815160209384036101000a60001901801990921691161790526040805192909401829003822063ffffffff881660e060020a0283526004830152925160248083019650939450929083900301905081600087803b158015611d1657600080fd5b505af1158015611d2a573d6000803e3d6000fd5b505050506040513d6020811015611d4057600080fd5b5051600160a060020a03161415611d5657600080fd5b6005546040805160008051602061263a83398151915260208083019190915230606060020a908102603084015233026044830152825180830360380181526058909201928390528151611e7e948894610100909104600160a060020a03169363a855d4ce93909282918401908083835b60208310611de55780518252601f199092019160209182019101611dc6565b51815160209384036101000a60001901801990921691161790526040805192909401829003822063ffffffff881660e060020a0283526004830152925160248083019650939450929083900301905081600087803b158015611e4657600080fd5b505af1158015611e5a573d6000803e3d6000fd5b505050506040513d6020811015611e7057600080fd5b50519063ffffffff6106c616565b9050611e89336116cc565b811115611e9557600080fd5b600554604080517f636f6d6d69746d656e742e73746172740000000000000000000000000000000060208083019190915230606060020a908102603084015233026044830152825180830360380181526058909201928390528151610100909404600160a060020a03169363e2a4853a93918291908401908083835b60208310611f305780518252601f199092019160209182019101611f11565b5181516020939093036101000a60001901801990911692169190911790526040805191909301819003812063ffffffff871660e060020a0282526004820152426024820152915160448084019550600094509092839003019050818387803b158015611f9b57600080fd5b505af1158015611faf573d6000803e3d6000fd5b5050600554604080517f636f6d6d69746d656e742e72656c6561736574696d650000000000000000000060208083019190915230606060020a90810260368401523302604a8301528251808303603e018152605e909201928390528151610100909404600160a060020a0316955063e2a4853a9450909282918401908083835b6020831061204e5780518252601f19909201916020918201910161202f565b518151602093840361010090810a6000190180199093169290911691909117909152604080519390950183900383206005547f61737365742e766f74654475726174696f6e00000000000000000000000000008585015230606060020a0260328601528651808603602601815260469095019687905284519198506121a7975091909104600160a060020a03169463a855d4ce9450918291908401908083835b6020831061210d5780518252601f1990920191602091820191016120ee565b51815160209384036101000a60001901801990921691161790526040805192909401829003822063ffffffff881660e060020a0283526004830152925160248083019650939450929083900301905081600087803b15801561216e57600080fd5b505af1158015612182573d6000803e3d6000fd5b505050506040513d602081101561219857600080fd5b5051429063ffffffff6106c616565b6040518363ffffffff1660e060020a02815260040180836000191660001916815260200182815260200192505050600060405180830381600087803b1580156114c057600080fd5b600160a060020a03918216600090815260016020908152604080832093909416825291909152205490565b600c6020526000908152604090205481565b60008282111561223857fe5b50900390565b60008361224d610b8a826122cd565b600160a060020a0382166000908152600b6020908152604080832093909355600854600c9091529190205583612285610b8a826122cd565b600160a060020a038083166000908152600b6020908152604080832094909455600854600c9091529290209190915585163014156122c257600080fd5b6115e28686866123c9565b600160a060020a0381166000908152600c602052604081205460085482916122fb919063ffffffff61222c16565b600160a060020a03841660009081526020819052604090205490915061232890829063ffffffff6106e016565b9392505050565b60003361233e610b8a826122cd565b600160a060020a0382166000908152600b6020908152604080832093909355600854600c9091529190205583612376610b8a826122cd565b600160a060020a038083166000908152600b6020908152604080832094909455600854600c9091529290209190915585163014156123b357600080fd5b6123bd858561252c565b50600195945050505050565b600160a060020a0383166000908152602081905260408120548211156123ee57600080fd5b600160a060020a038416600090815260016020908152604080832033845290915290205482111561241e57600080fd5b600160a060020a038316151561243357600080fd5b600160a060020a03841660009081526020819052604090205461245c908363ffffffff61222c16565b600160a060020a038086166000908152602081905260408082209390935590851681522054612491908363ffffffff6106c616565b600160a060020a038085166000908152602081815260408083209490945591871681526001825282812033825290915220546124d3908363ffffffff61222c16565b600160a060020a03808616600081815260016020908152604080832033845282529182902094909455805186815290519287169391926000805160206125fa833981519152929181900390910190a35060019392505050565b3360009081526020819052604081205482111561254857600080fd5b600160a060020a038316151561255d57600080fd5b3360009081526020819052604090205461257d908363ffffffff61222c16565b3360009081526020819052604080822092909255600160a060020a038516815220546125af908363ffffffff6106c616565b600160a060020a038416600081815260208181526040918290209390935580518581529051919233926000805160206125fa8339815191529281900390910190a3506001929150505600ddf252ad1be2c89b69c2b068fc378daa952ba7f163c4a11628f55a4df523b3ef8c5be1e5ebec7d5bd14f71427d1e84f3dd0314c0f7b2291e5b200ac8c7c3b925636f6d6d69746d656e742e76616c756500000000000000000000000000000000a165627a7a72305820c07a4ceeda26390076ccbe61960c3ec3c310ee59235988fd6f8053d61c7685c20029",
  "source": "pragma solidity ^0.4.24;\n\nimport \"./DividendToken.sol\";\nimport \"./GovernedToken.sol\";\nimport \"./BurnableToken.sol\";\n\n// @title A Dividend token that has governance features .\n// @notice This token contract can receive ERC20 tokens as payments and token owners can lock tokens while submitting votes\n// @dev Dividend tokens aren't actually locked, but restricted from transferring to avoid locking contravt having to distribute dividends.\n// @author Kyle Dewhurst & Peter Phillips, MyBit Foundation\ncontract GovernedTokenETH is GovernedToken, DividendToken, BurnableToken {\n\n  // @notice constructor: initialized\n  constructor(address _database, string _tokenURI, address _owner)\n  public\n  GovernedToken(_database)\n  DividendToken(_tokenURI, _owner, address(0)){}\n\n  // @notice Standard DividendToke transfer function, which checks for locked tokens before sending\n  function transfer(address _to, uint _amount)\n  public\n  returns (bool success) {\n      require(_amount <= getAmountAvailable(msg.sender));\n      super.transfer(_to, _amount);\n      return true;\n  }\n\n  // @notice Standard DividendToke transferFrom function, which checks for locked tokens before sending\n  function transferFrom(address _from, address _to, uint _amount)\n  public\n  returns (bool success) {\n      require(_amount <= getAmountAvailable(_from));\n      super.transferFrom(_from, _to, _amount);\n      return true;\n  }\n}\n",
  "sourcePath": "/home/peter/Documents/Work/MyBit/MyBit-Network.tech/contracts/tokens/erc20/GovernedTokenETH.sol",
  "compiler": {
    "name": "solc",
    "version": "0.4.24+commit.e67f0147.Emscripten.clang"
  },
  "schemaVersion": "3.0.2",
  "updatedAt": "2019-04-08T20:56:11.099Z",
  "devdoc": {
    "methods": {
      "allowance(address,address)": {
        "details": "Function to check the amount of tokens that an owner allowed to a spender.",
        "params": {
          "_owner": "address The address which owns the funds.",
          "_spender": "address The address which will spend the funds."
        },
        "return": "A uint256 specifying the amount of tokens still available for the spender."
      },
      "approve(address,uint256)": {
        "details": "Approve the passed address to spend the specified amount of tokens on behalf of msg.sender. Beware that changing an allowance with this method brings the risk that someone may use both the old and the new allowance by unfortunate transaction ordering. One possible solution to mitigate this race condition is to first reduce the spender's allowance to 0 and set the desired value afterwards: https://github.com/ethereum/EIPs/issues/20#issuecomment-263524729",
        "params": {
          "_spender": "The address which will spend the funds.",
          "_value": "The amount of tokens to be spent."
        }
      },
      "balanceOf(address)": {
        "details": "Gets the balance of the specified address.",
        "params": {
          "_owner": "The address to query the the balance of."
        },
        "return": "An uint256 representing the amount owned by the passed address."
      },
      "decreaseApproval(address,uint256)": {
        "details": "Decrease the amount of tokens that an owner allowed to a spender. approve should be called when allowed[_spender] == 0. To decrement allowed value is better to use this function to avoid 2 calls (and wait until the first transaction is mined) From MonolithDAO Token.sol",
        "params": {
          "_spender": "The address which will spend the funds.",
          "_subtractedValue": "The amount of tokens to decrease the allowance by."
        }
      },
      "increaseApproval(address,uint256)": {
        "details": "Increase the amount of tokens that an owner allowed to a spender. approve should be called when allowed[_spender] == 0. To increment allowed value is better to use this function to avoid 2 calls (and wait until the first transaction is mined) From MonolithDAO Token.sol",
        "params": {
          "_addedValue": "The amount of tokens to increase the allowance by.",
          "_spender": "The address which will spend the funds."
        }
      },
      "totalSupply()": {
        "details": "Total number of tokens in existence"
      }
    }
  },
  "userdoc": {
    "methods": {}
  }
}