{
  "contractName": "GovernedTokenERC20",
  "abi": [
    {
      "constant": true,
      "inputs": [],
      "name": "mintingFinished",
      "outputs": [
        {
          "name": "",
          "type": "bool"
        }
      ],
      "payable": false,
      "stateMutability": "view",
      "type": "function"
    },
    {
      "constant": true,
      "inputs": [],
      "name": "name",
      "outputs": [
        {
          "name": "",
          "type": "string"
        }
      ],
      "payable": false,
      "stateMutability": "view",
      "type": "function"
    },
    {
      "constant": false,
      "inputs": [
        {
          "name": "_spender",
          "type": "address"
        },
        {
          "name": "_value",
          "type": "uint256"
        }
      ],
      "name": "approve",
      "outputs": [
        {
          "name": "",
          "type": "bool"
        }
      ],
      "payable": false,
      "stateMutability": "nonpayable",
      "type": "function"
    },
    {
      "constant": true,
      "inputs": [
        {
          "name": "_investor",
          "type": "address"
        }
      ],
      "name": "getAmountAvailable",
      "outputs": [
        {
          "name": "",
          "type": "uint256"
        }
      ],
      "payable": false,
      "stateMutability": "view",
      "type": "function"
    },
    {
      "constant": true,
      "inputs": [],
      "name": "totalSupply",
      "outputs": [
        {
          "name": "",
          "type": "uint256"
        }
      ],
      "payable": false,
      "stateMutability": "view",
      "type": "function"
    },
    {
      "constant": true,
      "inputs": [],
      "name": "assetIncome",
      "outputs": [
        {
          "name": "",
          "type": "uint256"
        }
      ],
      "payable": false,
      "stateMutability": "view",
      "type": "function"
    },
    {
      "constant": true,
      "inputs": [],
      "name": "assetIncomeIssued",
      "outputs": [
        {
          "name": "",
          "type": "uint256"
        }
      ],
      "payable": false,
      "stateMutability": "view",
      "type": "function"
    },
    {
      "constant": false,
      "inputs": [],
      "name": "checkForTransfers",
      "outputs": [],
      "payable": false,
      "stateMutability": "nonpayable",
      "type": "function"
    },
    {
      "constant": true,
      "inputs": [],
      "name": "decimals",
      "outputs": [
        {
          "name": "",
          "type": "uint8"
        }
      ],
      "payable": false,
      "stateMutability": "view",
      "type": "function"
    },
    {
      "constant": true,
      "inputs": [
        {
          "name": "_investor",
          "type": "address"
        }
      ],
      "name": "getAmountOwed",
      "outputs": [
        {
          "name": "",
          "type": "uint256"
        }
      ],
      "payable": false,
      "stateMutability": "view",
      "type": "function"
    },
    {
      "constant": false,
      "inputs": [],
      "name": "withdraw",
      "outputs": [
        {
          "name": "",
          "type": "bool"
        }
      ],
      "payable": false,
      "stateMutability": "nonpayable",
      "type": "function"
    },
    {
      "constant": false,
      "inputs": [
        {
          "name": "_to",
          "type": "address"
        },
        {
          "name": "_amount",
          "type": "uint256"
        }
      ],
      "name": "mint",
      "outputs": [
        {
          "name": "",
          "type": "bool"
        }
      ],
      "payable": false,
      "stateMutability": "nonpayable",
      "type": "function"
    },
    {
      "constant": false,
      "inputs": [
        {
          "name": "_amount",
          "type": "uint256"
        }
      ],
      "name": "burn",
      "outputs": [
        {
          "name": "success",
          "type": "bool"
        }
      ],
      "payable": false,
      "stateMutability": "nonpayable",
      "type": "function"
    },
    {
      "constant": true,
      "inputs": [],
      "name": "getERC20",
      "outputs": [
        {
          "name": "",
          "type": "address"
        }
      ],
      "payable": false,
      "stateMutability": "view",
      "type": "function"
    },
    {
      "constant": false,
      "inputs": [
        {
          "name": "_amount",
          "type": "uint256"
        }
      ],
      "name": "issueDividends",
      "outputs": [
        {
          "name": "",
          "type": "bool"
        }
      ],
      "payable": true,
      "stateMutability": "payable",
      "type": "function"
    },
    {
      "constant": false,
      "inputs": [
        {
          "name": "_amount",
          "type": "uint256"
        }
      ],
      "name": "unlock",
      "outputs": [
        {
          "name": "success",
          "type": "bool"
        }
      ],
      "payable": false,
      "stateMutability": "nonpayable",
      "type": "function"
    },
    {
      "constant": false,
      "inputs": [
        {
          "name": "_spender",
          "type": "address"
        },
        {
          "name": "_subtractedValue",
          "type": "uint256"
        }
      ],
      "name": "decreaseApproval",
      "outputs": [
        {
          "name": "",
          "type": "bool"
        }
      ],
      "payable": false,
      "stateMutability": "nonpayable",
      "type": "function"
    },
    {
      "constant": true,
      "inputs": [
        {
          "name": "_owner",
          "type": "address"
        }
      ],
      "name": "balanceOf",
      "outputs": [
        {
          "name": "",
          "type": "uint256"
        }
      ],
      "payable": false,
      "stateMutability": "view",
      "type": "function"
    },
    {
      "constant": true,
      "inputs": [],
      "name": "database",
      "outputs": [
        {
          "name": "",
          "type": "address"
        }
      ],
      "payable": false,
      "stateMutability": "view",
      "type": "function"
    },
    {
      "constant": true,
      "inputs": [],
      "name": "erc20",
      "outputs": [
        {
          "name": "",
          "type": "address"
        }
      ],
      "payable": false,
      "stateMutability": "view",
      "type": "function"
    },
    {
      "constant": false,
      "inputs": [
        {
          "name": "_from",
          "type": "address"
        },
        {
          "name": "_amount",
          "type": "uint256"
        }
      ],
      "name": "burnFrom",
      "outputs": [
        {
          "name": "success",
          "type": "bool"
        }
      ],
      "payable": false,
      "stateMutability": "nonpayable",
      "type": "function"
    },
    {
      "constant": false,
      "inputs": [],
      "name": "finishMinting",
      "outputs": [
        {
          "name": "",
          "type": "bool"
        }
      ],
      "payable": false,
      "stateMutability": "nonpayable",
      "type": "function"
    },
    {
      "constant": true,
      "inputs": [],
      "name": "symbol",
      "outputs": [
        {
          "name": "",
          "type": "string"
        }
      ],
      "payable": false,
      "stateMutability": "view",
      "type": "function"
    },
    {
      "constant": true,
      "inputs": [],
      "name": "valuePerToken",
      "outputs": [
        {
          "name": "",
          "type": "uint256"
        }
      ],
      "payable": false,
      "stateMutability": "view",
      "type": "function"
    },
    {
      "constant": true,
      "inputs": [
        {
          "name": "",
          "type": "address"
        }
      ],
      "name": "incomeOwed",
      "outputs": [
        {
          "name": "",
          "type": "uint256"
        }
      ],
      "payable": false,
      "stateMutability": "view",
      "type": "function"
    },
    {
      "constant": false,
      "inputs": [
        {
          "name": "_spender",
          "type": "address"
        },
        {
          "name": "_amount",
          "type": "uint256"
        },
        {
          "name": "_data",
          "type": "bytes"
        }
      ],
      "name": "approveAndCall",
      "outputs": [
        {
          "name": "success",
          "type": "bool"
        }
      ],
      "payable": false,
      "stateMutability": "nonpayable",
      "type": "function"
    },
    {
      "constant": true,
      "inputs": [],
      "name": "getTokenURI",
      "outputs": [
        {
          "name": "",
          "type": "string"
        }
      ],
      "payable": false,
      "stateMutability": "view",
      "type": "function"
    },
    {
      "constant": false,
      "inputs": [
        {
          "name": "_spender",
          "type": "address"
        },
        {
          "name": "_addedValue",
          "type": "uint256"
        }
      ],
      "name": "increaseApproval",
      "outputs": [
        {
          "name": "",
          "type": "bool"
        }
      ],
      "payable": false,
      "stateMutability": "nonpayable",
      "type": "function"
    },
    {
      "constant": false,
      "inputs": [
        {
          "name": "_amount",
          "type": "uint256"
        }
      ],
      "name": "lock",
      "outputs": [
        {
          "name": "success",
          "type": "bool"
        }
      ],
      "payable": false,
      "stateMutability": "nonpayable",
      "type": "function"
    },
    {
      "constant": true,
      "inputs": [
        {
          "name": "_owner",
          "type": "address"
        },
        {
          "name": "_spender",
          "type": "address"
        }
      ],
      "name": "allowance",
      "outputs": [
        {
          "name": "",
          "type": "uint256"
        }
      ],
      "payable": false,
      "stateMutability": "view",
      "type": "function"
    },
    {
      "constant": true,
      "inputs": [
        {
          "name": "",
          "type": "address"
        }
      ],
      "name": "previousValuePerToken",
      "outputs": [
        {
          "name": "",
          "type": "uint256"
        }
      ],
      "payable": false,
      "stateMutability": "view",
      "type": "function"
    },
    {
      "inputs": [
        {
          "name": "_database",
          "type": "address"
        },
        {
          "name": "_tokenURI",
          "type": "string"
        },
        {
          "name": "_owner",
          "type": "address"
        },
        {
          "name": "_erc20Address",
          "type": "address"
        }
      ],
      "payable": false,
      "stateMutability": "nonpayable",
      "type": "constructor"
    },
    {
      "payable": true,
      "stateMutability": "payable",
      "type": "fallback"
    },
    {
      "anonymous": false,
      "inputs": [
        {
          "indexed": true,
          "name": "_spender",
          "type": "address"
        },
        {
          "indexed": false,
          "name": "_value",
          "type": "uint256"
        }
      ],
      "name": "LogBurn",
      "type": "event"
    },
    {
      "anonymous": false,
      "inputs": [
        {
          "indexed": true,
          "name": "_sender",
          "type": "address"
        },
        {
          "indexed": false,
          "name": "_paymentAmount",
          "type": "uint256"
        }
      ],
      "name": "LogIncomeReceived",
      "type": "event"
    },
    {
      "anonymous": false,
      "inputs": [
        {
          "indexed": false,
          "name": "_address",
          "type": "address"
        },
        {
          "indexed": false,
          "name": "_amount",
          "type": "uint256"
        }
      ],
      "name": "LogIncomeCollected",
      "type": "event"
    },
    {
      "anonymous": false,
      "inputs": [
        {
          "indexed": false,
          "name": "_difference",
          "type": "uint256"
        }
      ],
      "name": "LogCheckBalance",
      "type": "event"
    },
    {
      "anonymous": false,
      "inputs": [
        {
          "indexed": true,
          "name": "to",
          "type": "address"
        },
        {
          "indexed": false,
          "name": "amount",
          "type": "uint256"
        }
      ],
      "name": "Mint",
      "type": "event"
    },
    {
      "anonymous": false,
      "inputs": [],
      "name": "MintFinished",
      "type": "event"
    },
    {
      "anonymous": false,
      "inputs": [
        {
          "indexed": true,
          "name": "from",
          "type": "address"
        },
        {
          "indexed": true,
          "name": "to",
          "type": "address"
        },
        {
          "indexed": false,
          "name": "value",
          "type": "uint256"
        }
      ],
      "name": "Transfer",
      "type": "event"
    },
    {
      "anonymous": false,
      "inputs": [
        {
          "indexed": true,
          "name": "owner",
          "type": "address"
        },
        {
          "indexed": true,
          "name": "spender",
          "type": "address"
        },
        {
          "indexed": false,
          "name": "value",
          "type": "uint256"
        }
      ],
      "name": "Approval",
      "type": "event"
    },
    {
      "constant": false,
      "inputs": [
        {
          "name": "_to",
          "type": "address"
        },
        {
          "name": "_amount",
          "type": "uint256"
        }
      ],
      "name": "transfer",
      "outputs": [
        {
          "name": "success",
          "type": "bool"
        }
      ],
      "payable": false,
      "stateMutability": "nonpayable",
      "type": "function"
    },
    {
      "constant": false,
      "inputs": [
        {
          "name": "_from",
          "type": "address"
        },
        {
          "name": "_to",
          "type": "address"
        },
        {
          "name": "_amount",
          "type": "uint256"
        }
      ],
      "name": "transferFrom",
      "outputs": [
        {
          "name": "success",
          "type": "bool"
        }
      ],
      "payable": false,
      "stateMutability": "nonpayable",
      "type": "function"
    }
  ],
  "bytecode": "0x60806040523480156200001157600080fd5b50604051620027af380380620027af8339810160409081528151602080840151928401516060850151939094018051929490939092909185918591859185918491829160129186916200006a916003918601906200010f565b508251620000809060049060208601906200010f565b506005805460006002556201000060b060020a03191662010000600160a060020a03938416021760ff191660ff93909316929092179091558316159150620000e090505760068054600160a060020a031916600160a060020a0383161790555b5050600c8054600160a060020a031916600160a060020a03939093169290921790915550620001b49350505050565b828054600181600116156101000203166002900490600052602060002090601f016020900481019282601f106200015257805160ff191683800117855562000182565b8280016001018555821562000182579182015b828111156200018257825182559160200191906001019062000165565b506200019092915062000194565b5090565b620001b191905b808211156200019057600081556001016200019b565b90565b6125eb80620001c46000396000f3006080604052600436106101875763ffffffff60e060020a60003504166305d2035b811461023257806306fdde031461025b578063095ea7b3146102e55780630f9f57eb1461030957806318160ddd1461033c57806323b872dd146103515780632ba1b3a11461037b5780632da208e51461039057806330d0e75f146103a5578063313ce567146103bc5780633bdfa920146103e75780633ccfd60b1461040857806340c10f191461041d57806342966c68146104415780634ece90a81461045957806352ff7fa91461048a5780636198e3391461049557806366188463146104ad57806370a08231146104d1578063713b563f146104f2578063785e9e861461050757806379cc67901461051c5780637d64bcb41461054057806395d89b4114610555578063a8fa8e521461056a578063a9059cbb1461057f578063b5a83d43146105a3578063cae9ca51146105c4578063d4a191161461062d578063d73dd62314610642578063dd46706414610666578063dd62ed3e1461067e578063efcb5dea146106a5575b600654600160a060020a03161561019d57600080fd5b6008546101b0903463ffffffff6106c616565b6008556002546101f7906101e8906101dc346d04ee2d6d415b85acef810000000063ffffffff6106e016565b9063ffffffff61070b16565b6007549063ffffffff6106c616565b60075560408051348152905133917fe3166012cb87b3dec8e117fe0e096a47387f94ea2ec12086ed8ae24ff8c237fe919081900360200190a2005b34801561023e57600080fd5b50610247610720565b604080519115158252519081900360200190f35b34801561026757600080fd5b5061027061072e565b6040805160208082528351818301528351919283929083019185019080838360005b838110156102aa578181015183820152602001610292565b50505050905090810190601f1680156102d75780820380516001836020036101000a031916815260200191505b509250505060405180910390f35b3480156102f157600080fd5b50610247600160a060020a03600435166024356107bc565b34801561031557600080fd5b5061032a600160a060020a0360043516610810565b60408051918252519081900360200190f35b34801561034857600080fd5b5061032a610964565b34801561035d57600080fd5b50610247600160a060020a036004358116906024351660443561096a565b34801561038757600080fd5b5061032a610997565b34801561039c57600080fd5b5061032a61099d565b3480156103b157600080fd5b506103ba6109a3565b005b3480156103c857600080fd5b506103d1610b08565b6040805160ff9092168252519081900360200190f35b3480156103f357600080fd5b5061032a600160a060020a0360043516610b11565b34801561041457600080fd5b50610247610b5d565b34801561042957600080fd5b50610247600160a060020a0360043516602435610d36565b34801561044d57600080fd5b50610247600435610e33565b34801561046557600080fd5b5061046e610edd565b60408051600160a060020a039092168252519081900360200190f35b610247600435610eec565b3480156104a157600080fd5b50610247600435611116565b3480156104b957600080fd5b50610247600160a060020a03600435166024356115b0565b3480156104dd57600080fd5b5061032a600160a060020a036004351661168d565b3480156104fe57600080fd5b5061046e6116a8565b34801561051357600080fd5b5061046e6116b7565b34801561052857600080fd5b50610247600160a060020a03600435166024356116c6565b34801561054c57600080fd5b506102476117db565b34801561056157600080fd5b50610270611826565b34801561057657600080fd5b5061032a611881565b34801561058b57600080fd5b50610247600160a060020a0360043516602435611887565b3480156105af57600080fd5b5061032a600160a060020a03600435166118b2565b3480156105d057600080fd5b50604080516020600460443581810135601f8101849004840285018401909552848452610247948235600160a060020a03169460248035953695946064949201919081908401838280828437509497506118c49650505050505050565b34801561063957600080fd5b50610270611a7a565b34801561064e57600080fd5b50610247600160a060020a0360043516602435611b10565b34801561067257600080fd5b50610247600435611b97565b34801561068a57600080fd5b5061032a600160a060020a0360043581169060243516612155565b3480156106b157600080fd5b5061032a600160a060020a0360043516612180565b6000828201838110156106d557fe5b8091505b5092915050565b6000808315156106f357600091506106d9565b5082820282848281151561070357fe5b04146106d557fe5b6000818381151561071857fe5b049392505050565b600554610100900460ff1681565b6003805460408051602060026001851615610100026000190190941693909304601f810184900484028201840190925281815292918301828280156107b45780601f10610789576101008083540402835291602001916107b4565b820191906000526020600020905b81548152906001019060200180831161079757829003601f168201915b505050505081565b336000818152600160209081526040808320600160a060020a03871680855290835281842086905581518681529151939490939092600080516020612580833981519152928290030190a350600192915050565b600c54604080516000805160206125a0833981519152602080830191909152606060020a3081026030840152600160a060020a038681169091026044840152835160388185030181526058909301938490528251600095869586958695949092169363a855d4ce9382918401908083835b602083106108a05780518252601f199092019160209182019101610881565b51815160209384036101000a60001901801990921691161790526040805192909401829003822063ffffffff881660e060020a0283526004830152925160248083019650939450929083900301905081600087803b15801561090157600080fd5b505af1158015610915573d6000803e3d6000fd5b505050506040513d602081101561092b57600080fd5b5051600160a060020a038616600090815260208190526040902054909350915061095b828463ffffffff61219216565b95945050505050565b60025490565b600061097584610810565b82111561098157600080fd5b61098c8484846121a4565b506001949350505050565b60085481565b60095481565b60008060006109bf60095460085461219290919063ffffffff16565b600654909350600160a060020a031615156109dd5730319150610a72565b600654604080517f70a082310000000000000000000000000000000000000000000000000000000081523060048201529051600160a060020a03909216916370a08231916024808201926020929091908290030181600087803b158015610a4357600080fd5b505af1158015610a57573d6000803e3d6000fd5b505050506040513d6020811015610a6d57600080fd5b505191505b610a82828463ffffffff61219216565b90506000811115610ad057600254610ab6906101e8906101dc846d04ee2d6d415b85acef810000000063ffffffff6106e016565b600755600854610acc908263ffffffff6106c616565b6008555b6040805182815290517f0d7ab7150531466ac81cc2479d86788246bab0e9cc606a06ec6af5c8ab0d6f8e9181900360200190a1505050565b60055460ff1690565b600160a060020a0381166000908152600a6020526040812054610b57906d04ee2d6d415b85acef8100000000906101dc90610b4b86612233565b9063ffffffff6106c616565b92915050565b60008033610b92610b6d82612233565b600160a060020a0383166000908152600a60205260409020549063ffffffff6106c616565b600160a060020a0382166000908152600a6020818152604080842094909455600754600b825284842055338352522054610be0906d04ee2d6d415b85acef810000000063ffffffff61070b16565b336000908152600a6020526040812055600954909250610c06908363ffffffff6106c616565b600955600654600160a060020a03161515610c4e57604051339083156108fc029084906000818181858888f19350505050158015610c48573d6000803e3d6000fd5b50610cf2565b600654604080517fa9059cbb000000000000000000000000000000000000000000000000000000008152336004820152602481018590529051600160a060020a039092169163a9059cbb916044808201926020929091908290030181600087803b158015610cbb57600080fd5b505af1158015610ccf573d6000803e3d6000fd5b505050506040513d6020811015610ce557600080fd5b50511515610cf257600080fd5b604080513381526020810184905281517ff5b510c554f6c572235f7e531ec8f287b350b15c212250b993180473a6aeb7d1929181900390910190a160019250505090565b600554600090610100900460ff16158015610d615750600554620100009004600160a060020a031633145b1515610d6c57600080fd5b600254610d7f908363ffffffff6106c616565b600255600160a060020a038316600090815260208190526040902054610dab908363ffffffff6106c616565b600160a060020a03841660008181526020818152604091829020939093558051858152905191927f0f6798a560793a54c3bcfe86a93cde1e73087d944c0ea20544137d412139688592918290030190a2604080518381529051600160a060020a038516916000916000805160206125608339815191529181900360200190a350600192915050565b33600090815260208190526040812054610e53908363ffffffff61219216565b33600090815260208190526040902055600254610e76908363ffffffff61219216565b60025560408051838152905133917f38d762ef507761291a578e921acfe29c1af31a7331ea03e391cf16cfc4d4f581919081900360200190a260408051838152905160009133916000805160206125608339815191529181900360200190a3506001919050565b600654600160a060020a031690565b6000808211610f5c57604080517f08c379a000000000000000000000000000000000000000000000000000000000815260206004820152601060248201527f43616e6e6f742073656e64207a65726f00000000000000000000000000000000604482015290519081900360640190fd5b600654600160a060020a03161515610f7f57348214610f7a57600080fd5b611096565b3415610f8a57600080fd5b600654604080517f23b872dd000000000000000000000000000000000000000000000000000000008152336004820152306024820152604481018590529051600160a060020a03909216916323b872dd916064808201926020929091908290030181600087803b158015610ffd57600080fd5b505af1158015611011573d6000803e3d6000fd5b505050506040513d602081101561102757600080fd5b5051151561109657604080517f08c379a000000000000000000000000000000000000000000000000000000000815260206004820152600f60248201527f5472616e73666572206661696c65640000000000000000000000000000000000604482015290519081900360640190fd5b6008546110a9908363ffffffff6106c616565b6008556002546110d5906101e8906101dc856d04ee2d6d415b85acef810000000063ffffffff6106e016565b60075560408051838152905133917fe3166012cb87b3dec8e117fe0e096a47387f94ea2ec12086ed8ae24ff8c237fe919081900360200190a2506001919050565b600c54604080517f636f6d6d69746d656e742e72656c6561736574696d6500000000000000000000602080830191909152606060020a30810260368401523302604a8301528251603e818403018152605e90920192839052815160009485944294600160a060020a039092169363a855d4ce9382918401908083835b602083106111b15780518252601f199092019160209182019101611192565b51815160209384036101000a60001901801990921691161790526040805192909401829003822063ffffffff881660e060020a0283526004830152925160248083019650939450929083900301905081600087803b15801561121257600080fd5b505af1158015611226573d6000803e3d6000fd5b505050506040513d602081101561123c57600080fd5b5051111561124957600080fd5b600c54604080516000805160206125a0833981519152602080830191909152606060020a30810260308401523302604483015282516038818403018152605890920192839052815161136c948894600160a060020a039091169363a855d4ce93909282918401908083835b602083106112d35780518252601f1990920191602091820191016112b4565b51815160209384036101000a60001901801990921691161790526040805192909401829003822063ffffffff881660e060020a0283526004830152925160248083019650939450929083900301905081600087803b15801561133457600080fd5b505af1158015611348573d6000803e3d6000fd5b505050506040513d602081101561135e57600080fd5b50519063ffffffff61219216565b9050600081101561137c57600080fd5b80151561149f57600c54604080517f636f6d6d69746d656e742e737461727400000000000000000000000000000000602080830191909152606060020a308102603084015233026044830152825160388184030181526058909201928390528151600160a060020a039094169363e2a4853a93918291908401908083835b602083106114195780518252601f1990920191602091820191016113fa565b5181516020939093036101000a60001901801990911692169190911790526040805191909301819003812063ffffffff871660e060020a02825260048201526000602482018190529251604480830196509394509290839003019050818387803b15801561148657600080fd5b505af115801561149a573d6000803e3d6000fd5b505050505b600c54604080516000805160206125a0833981519152602080830191909152606060020a308102603084015233026044830152825160388184030181526058909201928390528151600160a060020a039094169363e2a4853a93918291908401908083835b602083106115235780518252601f199092019160209182019101611504565b5181516020939093036101000a60001901801990911692169190911790526040805191909301819003812063ffffffff871660e060020a028252600482015260248101889052915160448084019550600094509092839003019050818387803b15801561158f57600080fd5b505af11580156115a3573d6000803e3d6000fd5b5060019695505050505050565b336000908152600160209081526040808320600160a060020a038616845290915281205480831061160457336000908152600160209081526040808320600160a060020a0388168452909152812055611639565b611614818463ffffffff61219216565b336000908152600160209081526040808320600160a060020a03891684529091529020555b336000818152600160209081526040808320600160a060020a038916808552908352928190205481519081529051929392600080516020612580833981519152929181900390910190a35060019392505050565b600160a060020a031660009081526020819052604090205490565b600c54600160a060020a031681565b600654600160a060020a031681565b600160a060020a0382166000908152602081905260408120546116ef908363ffffffff61219216565b600160a060020a03841660009081526020818152604080832093909355600181528282203383529052205461172a908363ffffffff61219216565b600160a060020a0384166000908152600160209081526040808320338452909152902055600254611761908363ffffffff61219216565b600255604080518381529051600160a060020a038516917f38d762ef507761291a578e921acfe29c1af31a7331ea03e391cf16cfc4d4f581919081900360200190a2604080518381529051600091600160a060020a038616916000805160206125608339815191529181900360200190a350600192915050565b600554600090610100900460ff161580156118065750600554620100009004600160a060020a031633145b151561181157600080fd5b506005805461ff001916610100179055600190565b6004805460408051602060026001851615610100026000190190941693909304601f810184900484028201840190925281815292918301828280156107b45780601f10610789576101008083540402835291602001916107b4565b60075481565b600061189233610810565b82111561189e57600080fd5b6118a88383612295565b5060019392505050565b600a6020526000908152604090205481565b6000336118d3610b6d82612233565b600160a060020a0382166000908152600a6020908152604080832093909355600754600b909152919020558461190b610b6d82612233565b600160a060020a038083166000908152600a6020908152604080832094909455600754600b8252848320553380835260018252848320938b168084529382529184902089905583518981529351929391926000805160206125808339815191529281900390910190a36040517f8f4ffcb10000000000000000000000000000000000000000000000000000000081523360048201818152602483018890523060448401819052608060648501908152885160848601528851600160a060020a038c1695638f4ffcb195948c94938c939192909160a490910190602085019080838360005b83811015611a075781810151838201526020016119ef565b50505050905090810190601f168015611a345780820380516001836020036101000a031916815260200191505b5095505050505050600060405180830381600087803b158015611a5657600080fd5b505af1158015611a6a573d6000803e3d6000fd5b5060019998505050505050505050565b60038054604080516020601f6002600019610100600188161502019095169490940493840181900481028201810190925282815260609390929091830182828015611b065780601f10611adb57610100808354040283529160200191611b06565b820191906000526020600020905b815481529060010190602001808311611ae957829003601f168201915b5050505050905090565b336000908152600160209081526040808320600160a060020a0386168452909152812054611b44908363ffffffff6106c616565b336000818152600160209081526040808320600160a060020a038916808552908352928190208590558051948552519193600080516020612580833981519152929081900390910190a350600192915050565b600080808311611ba657600080fd5b600c54604080517f61737365742e676f7665726e616e636500000000000000000000000000000000602080830191909152606060020a30026030830152825160248184030181526044909201928390528151600094600160a060020a0316936304f49a3a9392909182918401908083835b60208310611c365780518252601f199092019160209182019101611c17565b51815160209384036101000a60001901801990921691161790526040805192909401829003822063ffffffff881660e060020a0283526004830152925160248083019650939450929083900301905081600087803b158015611c9757600080fd5b505af1158015611cab573d6000803e3d6000fd5b505050506040513d6020811015611cc157600080fd5b5051600160a060020a03161415611cd757600080fd5b600c54604080516000805160206125a0833981519152602080830191909152606060020a308102603084015233026044830152825160388184030181526058909201928390528151611dfa948894600160a060020a039091169363a855d4ce93909282918401908083835b60208310611d615780518252601f199092019160209182019101611d42565b51815160209384036101000a60001901801990921691161790526040805192909401829003822063ffffffff881660e060020a0283526004830152925160248083019650939450929083900301905081600087803b158015611dc257600080fd5b505af1158015611dd6573d6000803e3d6000fd5b505050506040513d6020811015611dec57600080fd5b50519063ffffffff6106c616565b9050611e053361168d565b811115611e1157600080fd5b600c54604080517f636f6d6d69746d656e742e737461727400000000000000000000000000000000602080830191909152606060020a308102603084015233026044830152825160388184030181526058909201928390528151600160a060020a039094169363e2a4853a93918291908401908083835b60208310611ea75780518252601f199092019160209182019101611e88565b5181516020939093036101000a60001901801990911692169190911790526040805191909301819003812063ffffffff871660e060020a0282526004820152426024820152915160448084019550600094509092839003019050818387803b158015611f1257600080fd5b505af1158015611f26573d6000803e3d6000fd5b5050600c54604080517f636f6d6d69746d656e742e72656c6561736574696d6500000000000000000000602080830191909152606060020a30810260368401523302604a8301528251603e818403018152605e909201928390528151600160a060020a03909416955063e2a4853a9450909282918401908083835b60208310611fc05780518252601f199092019160209182019101611fa1565b51815160209384036101000a600019018019909216911617905260408051929094018290038220600c547f61737365742e766f74654475726174696f6e00000000000000000000000000008484015230606060020a02603285015285518085036026018152604690940195869052835191975061210d9650600160a060020a03169463a855d4ce9450918291908401908083835b602083106120735780518252601f199092019160209182019101612054565b51815160209384036101000a60001901801990921691161790526040805192909401829003822063ffffffff881660e060020a0283526004830152925160248083019650939450929083900301905081600087803b1580156120d457600080fd5b505af11580156120e8573d6000803e3d6000fd5b505050506040513d60208110156120fe57600080fd5b5051429063ffffffff6106c616565b6040518363ffffffff1660e060020a02815260040180836000191660001916815260200182815260200192505050600060405180830381600087803b15801561148657600080fd5b600160a060020a03918216600090815260016020908152604080832093909416825291909152205490565b600b6020526000908152604090205481565b60008282111561219e57fe5b50900390565b6000836121b3610b6d82612233565b600160a060020a0382166000908152600a6020908152604080832093909355600754600b90915291902055836121eb610b6d82612233565b600160a060020a038083166000908152600a6020908152604080832094909455600754600b90915292902091909155851630141561222857600080fd5b6115a386868661232f565b600160a060020a0381166000908152600b60205260408120546007548291612261919063ffffffff61219216565b600160a060020a03841660009081526020819052604090205490915061228e90829063ffffffff6106e016565b9392505050565b6000336122a4610b6d82612233565b600160a060020a0382166000908152600a6020908152604080832093909355600754600b90915291902055836122dc610b6d82612233565b600160a060020a038083166000908152600a6020908152604080832094909455600754600b90915292902091909155851630141561231957600080fd5b6123238585612492565b50600195945050505050565b600160a060020a03831660009081526020819052604081205482111561235457600080fd5b600160a060020a038416600090815260016020908152604080832033845290915290205482111561238457600080fd5b600160a060020a038316151561239957600080fd5b600160a060020a0384166000908152602081905260409020546123c2908363ffffffff61219216565b600160a060020a0380861660009081526020819052604080822093909355908516815220546123f7908363ffffffff6106c616565b600160a060020a03808516600090815260208181526040808320949094559187168152600182528281203382529091522054612439908363ffffffff61219216565b600160a060020a0380861660008181526001602090815260408083203384528252918290209490945580518681529051928716939192600080516020612560833981519152929181900390910190a35060019392505050565b336000908152602081905260408120548211156124ae57600080fd5b600160a060020a03831615156124c357600080fd5b336000908152602081905260409020546124e3908363ffffffff61219216565b3360009081526020819052604080822092909255600160a060020a03851681522054612515908363ffffffff6106c616565b600160a060020a038416600081815260208181526040918290209390935580518581529051919233926000805160206125608339815191529281900390910190a3506001929150505600ddf252ad1be2c89b69c2b068fc378daa952ba7f163c4a11628f55a4df523b3ef8c5be1e5ebec7d5bd14f71427d1e84f3dd0314c0f7b2291e5b200ac8c7c3b925636f6d6d69746d656e742e76616c756500000000000000000000000000000000a165627a7a723058205dd6e5c5db5bb9a842aac677c194f2f11e2b1322ffe9dc4e38abb765ffa223ec0029",
  "source": "pragma solidity ^0.4.24;\n\nimport \"./DividendTokenERC20.sol\";\nimport \"./GovernedToken.sol\";\nimport \"./BurnableToken.sol\";\n\n// @title A Dividend token that has governance features and receives ERC20 tokens as payment\n// @notice This token contract can receive ERC20 tokens as payments and token owners can lock tokens while submitting votes\n// @author Kyle Dewhurst & Peter Phillips, MyBit Foundation\n// @dev Dividend tokens aren't actually locked, but restricted from transferring to avoid locking contravt having to distribute dividends.\ncontract GovernedTokenERC20 is DividendTokenERC20, GovernedToken, BurnableToken{\n\n  // @notice constructor: initializes database and DividendTokenERC20\n  // @param (address) _database = the address of the platform database\n  // @param (string) _tokenURI = The URI where details of the token (asse) can be found\n  // @param (address) _owner = The minting authority for this token\n  // @param (address) _erc20Address = The address of the erc20 token to be sent for dividends\n  constructor(address _database, string _tokenURI, address _owner, address _erc20Address)\n  public\n  GovernedToken(_database)\n  DividendTokenERC20(_tokenURI, _owner, _erc20Address){}\n\n  // @notice Standard DividendToke transfer function, which checks for locked tokens before sending\n  function transfer(address _to, uint _amount)\n  public\n  returns (bool success) {\n      require(_amount <= getAmountAvailable(msg.sender));\n      super.transfer(_to, _amount);\n      return true;\n  }\n\n  // @notice Standard DividendToke transferFrom function, which checks for locked tokens before sending\n  function transferFrom(address _from, address _to, uint _amount)\n  public\n  returns (bool success) {\n      require(_amount <= getAmountAvailable(_from));\n      super.transferFrom(_from, _to, _amount);\n      return true;\n  }\n}\n",
  "sourcePath": "/home/peter/Documents/Work/MyBit/MyBit-Network.tech/contracts/tokens/erc20/GovernedTokenERC20.sol",
  "compiler": {
    "name": "solc",
    "version": "0.4.24+commit.e67f0147.Emscripten.clang"
  },
  "schemaVersion": "3.0.2",
  "updatedAt": "2019-04-08T19:44:50.822Z",
  "devdoc": {
    "methods": {
      "allowance(address,address)": {
        "details": "Function to check the amount of tokens that an owner allowed to a spender.",
        "params": {
          "_owner": "address The address which owns the funds.",
          "_spender": "address The address which will spend the funds."
        },
        "return": "A uint256 specifying the amount of tokens still available for the spender."
      },
      "approve(address,uint256)": {
        "details": "Approve the passed address to spend the specified amount of tokens on behalf of msg.sender. Beware that changing an allowance with this method brings the risk that someone may use both the old and the new allowance by unfortunate transaction ordering. One possible solution to mitigate this race condition is to first reduce the spender's allowance to 0 and set the desired value afterwards: https://github.com/ethereum/EIPs/issues/20#issuecomment-263524729",
        "params": {
          "_spender": "The address which will spend the funds.",
          "_value": "The amount of tokens to be spent."
        }
      },
      "balanceOf(address)": {
        "details": "Gets the balance of the specified address.",
        "params": {
          "_owner": "The address to query the the balance of."
        },
        "return": "An uint256 representing the amount owned by the passed address."
      },
      "decreaseApproval(address,uint256)": {
        "details": "Decrease the amount of tokens that an owner allowed to a spender. approve should be called when allowed[_spender] == 0. To decrement allowed value is better to use this function to avoid 2 calls (and wait until the first transaction is mined) From MonolithDAO Token.sol",
        "params": {
          "_spender": "The address which will spend the funds.",
          "_subtractedValue": "The amount of tokens to decrease the allowance by."
        }
      },
      "increaseApproval(address,uint256)": {
        "details": "Increase the amount of tokens that an owner allowed to a spender. approve should be called when allowed[_spender] == 0. To increment allowed value is better to use this function to avoid 2 calls (and wait until the first transaction is mined) From MonolithDAO Token.sol",
        "params": {
          "_addedValue": "The amount of tokens to increase the allowance by.",
          "_spender": "The address which will spend the funds."
        }
      },
      "totalSupply()": {
        "details": "Total number of tokens in existence"
      }
    }
  },
  "userdoc": {
    "methods": {}
  }
}