{
  "contractName": "HashEncode",
  "abi": [
    {
      "constant": true,
      "inputs": [
        {
          "name": "_label",
          "type": "string"
        },
        {
          "name": "_arg1",
          "type": "bytes32"
        }
      ],
      "name": "encode",
      "outputs": [
        {
          "name": "",
          "type": "bytes32"
        }
      ],
      "payable": false,
      "stateMutability": "pure",
      "type": "function"
    },
    {
      "constant": true,
      "inputs": [
        {
          "name": "_label",
          "type": "string"
        },
        {
          "name": "_arg1",
          "type": "bool"
        }
      ],
      "name": "encode",
      "outputs": [
        {
          "name": "",
          "type": "bytes32"
        }
      ],
      "payable": false,
      "stateMutability": "pure",
      "type": "function"
    },
    {
      "constant": true,
      "inputs": [
        {
          "name": "_label",
          "type": "string"
        },
        {
          "name": "_arg1",
          "type": "uint256"
        }
      ],
      "name": "encode",
      "outputs": [
        {
          "name": "",
          "type": "bytes32"
        }
      ],
      "payable": false,
      "stateMutability": "pure",
      "type": "function"
    },
    {
      "constant": true,
      "inputs": [
        {
          "name": "_label",
          "type": "string"
        },
        {
          "name": "_arg1",
          "type": "address"
        }
      ],
      "name": "encode",
      "outputs": [
        {
          "name": "",
          "type": "bytes32"
        }
      ],
      "payable": false,
      "stateMutability": "pure",
      "type": "function"
    },
    {
      "constant": true,
      "inputs": [
        {
          "name": "_label",
          "type": "string"
        },
        {
          "name": "_arg1",
          "type": "bytes32"
        },
        {
          "name": "_arg2",
          "type": "bytes32"
        }
      ],
      "name": "encode",
      "outputs": [
        {
          "name": "",
          "type": "bytes32"
        }
      ],
      "payable": false,
      "stateMutability": "pure",
      "type": "function"
    },
    {
      "constant": true,
      "inputs": [
        {
          "name": "_label",
          "type": "string"
        },
        {
          "name": "_arg1",
          "type": "bytes32"
        },
        {
          "name": "_arg2",
          "type": "uint256"
        }
      ],
      "name": "encode",
      "outputs": [
        {
          "name": "",
          "type": "bytes32"
        }
      ],
      "payable": false,
      "stateMutability": "pure",
      "type": "function"
    }
  ],
  "bytecode": "0x610563610030600b82828239805160001a6073146000811461002057610022565bfe5b5030600052607381538281f300730000000000000000000000000000000000000000301460806040526004361061008e5763ffffffff7c010000000000000000000000000000000000000000000000000000000060003504166304503ff481146100935780630a9320a0146100f35780633c1c8e4914610093578063af491f3014610143578063c42ff019146101a7578063efab5a5b146101a7575b600080fd5b6040805160206004803580820135601f81018490048402850184019095528484526100e194369492936024939284019190819084018382808284375094975050933594506101fc9350505050565b60408051918252519081900360200190f35b6040805160206004803580820135601f81018490048402850184019095528484526100e19436949293602493928401919081908401838280828437509497505050509135151592506102c5915050565b6040805160206004803580820135601f81018490048402850184019095528484526100e19436949293602493928401919081908401838280828437509497505050923573ffffffffffffffffffffffffffffffffffffffff16935061038a92505050565b6040805160206004803580820135601f81018490048402850184019095528484526100e19436949293602493928401919081908401838280828437509497505084359550505060209092013591506104649050565b600082826040516020018083805190602001908083835b602083106102325780518252601f199092019160209182019101610213565b51815160209384036101000a600019018019909216911617905292019384525060408051808503815293820190819052835193945092839250908401908083835b602083106102925780518252601f199092019160209182019101610273565b5181516020939093036101000a600019018019909116921691909117905260405192018290039091209695505050505050565b600082826040516020018083805190602001908083835b602083106102fb5780518252601f1990920191602091820191016102dc565b6001836020036101000a03801982511681845116808217855250505050505090500182151515157f010000000000000000000000000000000000000000000000000000000000000002815260010192505050604051602081830303815290604052604051808280519060200190808383602083106102925780518252601f199092019160209182019101610273565b600082826040516020018083805190602001908083835b602083106103c05780518252601f1990920191602091820191016103a1565b6001836020036101000a0380198251168184511680821785525050505050509050018273ffffffffffffffffffffffffffffffffffffffff1673ffffffffffffffffffffffffffffffffffffffff166c0100000000000000000000000002815260140192505050604051602081830303815290604052604051808280519060200190808383602083106102925780518252601f199092019160209182019101610273565b60008383836040516020018084805190602001908083835b6020831061049b5780518252601f19909201916020918201910161047c565b51815160209384036101000a6000190180199092169116179052920194855250838101929092525060408051808403830181529281019081905282519293509182918401908083835b602083106105035780518252601f1990920191602091820191016104e4565b5181516020939093036101000a600019018019909116921691909117905260405192018290039091209796505050505050505600a165627a7a72305820f8776d996dffac5ed8f3f704a9000b15b21dc081144151f7447d00f64fc1f2540029",
  "source": "pragma solidity ^0.4.24;\nlibrary HashEncode {\n  //Overloaded functions\n  function encode(string _label, bytes32 _arg1) pure public returns(bytes32){\n    return keccak256(abi.encodePacked(_label, _arg1));\n  }\n  function encode(string _label, bytes32 _arg1, bytes32 _arg2) pure public returns(bytes32){\n    return keccak256(abi.encodePacked(_label, _arg1, _arg2));\n  }\n  function encode(string _label, bytes32 _arg1, uint _arg2) pure public returns(bytes32){\n    return keccak256(abi.encodePacked(_label, _arg1, _arg2));\n  }\n  function encode(string _label, address _arg1) pure public returns(bytes32){\n    return keccak256(abi.encodePacked(_label, _arg1));\n  }\n  function encode(string _label, uint _arg1) pure public returns(bytes32){\n    return keccak256(abi.encodePacked(_label, _arg1));\n  }\n  function encode(string _label, bool _arg1) pure public returns(bytes32){\n    return keccak256(abi.encodePacked(_label, _arg1));\n  }\n}\n",
  "sourcePath": "/home/peter/Documents/Work/MyBit/MyBit-Network.tech/contracts/database/HashEncode.sol",
  "compiler": {
    "name": "solc",
    "version": "0.4.24+commit.e67f0147.Emscripten.clang"
  },
  "schemaVersion": "3.0.2",
  "updatedAt": "2019-03-20T20:50:44.471Z",
  "devdoc": {
    "methods": {}
  },
  "userdoc": {
    "methods": {}
  }
}