{
  "contractName": "HashEncode",
  "abi": [
    {
      "constant": true,
      "inputs": [
        {
          "name": "_label",
          "type": "string"
        },
        {
          "name": "_arg1",
          "type": "bytes32"
        }
      ],
      "name": "encode",
      "outputs": [
        {
          "name": "",
          "type": "bytes32"
        }
      ],
      "payable": false,
      "stateMutability": "pure",
      "type": "function"
    },
    {
      "constant": true,
      "inputs": [
        {
          "name": "_label",
          "type": "string"
        },
        {
          "name": "_arg1",
          "type": "bool"
        }
      ],
      "name": "encode",
      "outputs": [
        {
          "name": "",
          "type": "bytes32"
        }
      ],
      "payable": false,
      "stateMutability": "pure",
      "type": "function"
    },
    {
      "constant": true,
      "inputs": [
        {
          "name": "_label",
          "type": "string"
        },
        {
          "name": "_arg1",
          "type": "uint256"
        }
      ],
      "name": "encode",
      "outputs": [
        {
          "name": "",
          "type": "bytes32"
        }
      ],
      "payable": false,
      "stateMutability": "pure",
      "type": "function"
    },
    {
      "constant": true,
      "inputs": [
        {
          "name": "_label",
          "type": "string"
        },
        {
          "name": "_arg1",
          "type": "address"
        }
      ],
      "name": "encode",
      "outputs": [
        {
          "name": "",
          "type": "bytes32"
        }
      ],
      "payable": false,
      "stateMutability": "pure",
      "type": "function"
    },
    {
      "constant": true,
      "inputs": [
        {
          "name": "_label",
          "type": "string"
        },
        {
          "name": "_arg1",
          "type": "bytes32"
        },
        {
          "name": "_arg2",
          "type": "bytes32"
        }
      ],
      "name": "encode",
      "outputs": [
        {
          "name": "",
          "type": "bytes32"
        }
      ],
      "payable": false,
      "stateMutability": "pure",
      "type": "function"
    },
    {
      "constant": true,
      "inputs": [
        {
          "name": "_label",
          "type": "string"
        },
        {
          "name": "_arg1",
          "type": "bytes32"
        },
        {
          "name": "_arg2",
          "type": "uint256"
        }
      ],
      "name": "encode",
      "outputs": [
        {
          "name": "",
          "type": "bytes32"
        }
      ],
      "payable": false,
      "stateMutability": "pure",
      "type": "function"
    }
  ],
  "bytecode": "0x6109e1610030600b82828239805160001a6073146000811461002057610022565bfe5b5030600052607381538281f300730000000000000000000000000000000000000000301460806040526004361061008f576000357c0100000000000000000000000000000000000000000000000000000000900463ffffffff16806304503ff4146100945780630a9320a01461011a5780633c1c8e491461019e578063af491f3014610220578063c42ff019146102b8578063efab5a5b1461034c575b600080fd5b6100fc600480360381019080803590602001908201803590602001908080601f016020809104026020016040519081016040528093929190818152602001838380828437820191505050505050919291929080356000191690602001909291905050506103dc565b60405180826000191660001916815260200191505060405180910390f35b610180600480360381019080803590602001908201803590602001908080601f01602080910402602001604051908101604052809392919081815260200183838082843782019150505050505091929192908035151590602001909291905050506104c5565b60405180826000191660001916815260200191505060405180910390f35b610202600480360381019080803590602001908201803590602001908080601f0160208091040260200160405190810160405280939291908181526020018383808284378201915050505050509192919290803590602001909291905050506105cc565b60405180826000191660001916815260200191505060405180910390f35b61029a600480360381019080803590602001908201803590602001908080601f0160208091040260200160405190810160405280939291908181526020018383808284378201915050505050509192919290803573ffffffffffffffffffffffffffffffffffffffff1690602001909291905050506106ad565b60405180826000191660001916815260200191505060405180910390f35b61032e600480360381019080803590602001908201803590602001908080601f0160208091040260200160405190810160405280939291908181526020018383808284378201915050505050509192919290803560001916906020019092919080356000191690602001909291905050506107c9565b60405180826000191660001916815260200191505060405180910390f35b6103be600480360381019080803590602001908201803590602001908080601f01602080910402602001604051908101604052809392919081815260200183838082843782019150505050505091929192908035600019169060200190929190803590602001909291905050506108c3565b60405180826000191660001916815260200191505060405180910390f35b600082826040516020018083805190602001908083835b60208310151561041857805182526020820191506020810190506020830392506103f3565b6001836020036101000a0380198251168184511680821785525050505050509050018260001916600019168152602001925050506040516020818303038152906040526040518082805190602001908083835b602083101515610490578051825260208201915060208101905060208303925061046b565b6001836020036101000a0380198251168184511680821785525050505050509050019150506040518091039020905092915050565b600082826040516020018083805190602001908083835b60208310151561050157805182526020820191506020810190506020830392506104dc565b6001836020036101000a03801982511681845116808217855250505050505090500182151515157f0100000000000000000000000000000000000000000000000000000000000000028152600101925050506040516020818303038152906040526040518082805190602001908083835b6020831015156105975780518252602082019150602081019050602083039250610572565b6001836020036101000a0380198251168184511680821785525050505050509050019150506040518091039020905092915050565b600082826040516020018083805190602001908083835b60208310151561060857805182526020820191506020810190506020830392506105e3565b6001836020036101000a038019825116818451168082178552505050505050905001828152602001925050506040516020818303038152906040526040518082805190602001908083835b6020831015156106785780518252602082019150602081019050602083039250610653565b6001836020036101000a0380198251168184511680821785525050505050509050019150506040518091039020905092915050565b600082826040516020018083805190602001908083835b6020831015156106e957805182526020820191506020810190506020830392506106c4565b6001836020036101000a0380198251168184511680821785525050505050509050018273ffffffffffffffffffffffffffffffffffffffff1673ffffffffffffffffffffffffffffffffffffffff166c01000000000000000000000000028152601401925050506040516020818303038152906040526040518082805190602001908083835b602083101515610794578051825260208201915060208101905060208303925061076f565b6001836020036101000a0380198251168184511680821785525050505050509050019150506040518091039020905092915050565b60008383836040516020018084805190602001908083835b60208310151561080657805182526020820191506020810190506020830392506107e1565b6001836020036101000a0380198251168184511680821785525050505050509050018360001916600019168152602001826000191660001916815260200193505050506040516020818303038152906040526040518082805190602001908083835b60208310151561088d5780518252602082019150602081019050602083039250610868565b6001836020036101000a038019825116818451168082178552505050505050905001915050604051809103902090509392505050565b60008383836040516020018084805190602001908083835b60208310151561090057805182526020820191506020810190506020830392506108db565b6001836020036101000a038019825116818451168082178552505050505050905001836000191660001916815260200182815260200193505050506040516020818303038152906040526040518082805190602001908083835b60208310151561097f578051825260208201915060208101905060208303925061095a565b6001836020036101000a0380198251168184511680821785525050505050509050019150506040518091039020905093925050505600a165627a7a72305820e659edf694ab6d5c6aafcc186206c1b334a814439c5590f48b020f436cd38e080029",
  "source": "pragma solidity ^0.4.24;\nlibrary HashEncode {\n  //Overloaded functions\n  function encode(string _label, bytes32 _arg1) pure public returns(bytes32){\n    return keccak256(abi.encodePacked(_label, _arg1));\n  }\n  function encode(string _label, bytes32 _arg1, bytes32 _arg2) pure public returns(bytes32){\n    return keccak256(abi.encodePacked(_label, _arg1, _arg2));\n  }\n  function encode(string _label, bytes32 _arg1, uint _arg2) pure public returns(bytes32){\n    return keccak256(abi.encodePacked(_label, _arg1, _arg2));\n  }\n  function encode(string _label, address _arg1) pure public returns(bytes32){\n    return keccak256(abi.encodePacked(_label, _arg1));\n  }\n  function encode(string _label, uint _arg1) pure public returns(bytes32){\n    return keccak256(abi.encodePacked(_label, _arg1));\n  }\n  function encode(string _label, bool _arg1) pure public returns(bytes32){\n    return keccak256(abi.encodePacked(_label, _arg1));\n  }\n}\n",
  "sourcePath": "/home/peter/Documents/Work/MyBit/MyBit-Network.tech/contracts/database/HashEncode.sol",
  "compiler": {
    "name": "solc",
    "version": "0.4.24+commit.e67f0147.Emscripten.clang"
  },
  "schemaVersion": "2.0.1",
  "updatedAt": "2018-10-17T01:56:53.287Z"
}