{
  "contractName": "HashFunctions",
  "abi": [
    {
      "payable": false,
      "stateMutability": "nonpayable",
      "type": "fallback"
    },
    {
      "constant": true,
      "inputs": [
        {
          "name": "x",
          "type": "uint256"
        }
      ],
      "name": "toBytes",
      "outputs": [
        {
          "name": "b",
          "type": "bytes"
        }
      ],
      "payable": false,
      "stateMutability": "pure",
      "type": "function"
    },
    {
      "constant": true,
      "inputs": [
        {
          "name": "_functionString",
          "type": "string"
        }
      ],
      "name": "getMethodID",
      "outputs": [
        {
          "name": "",
          "type": "bytes4"
        }
      ],
      "payable": false,
      "stateMutability": "pure",
      "type": "function"
    },
    {
      "constant": true,
      "inputs": [
        {
          "name": "_assetURI",
          "type": "string"
        },
        {
          "name": "_amountToRaise",
          "type": "uint256"
        },
        {
          "name": "_operatorID",
          "type": "bytes32"
        }
      ],
      "name": "getAssetID",
      "outputs": [
        {
          "name": "",
          "type": "bytes32"
        }
      ],
      "payable": false,
      "stateMutability": "view",
      "type": "function"
    },
    {
      "constant": true,
      "inputs": [
        {
          "name": "_assetID",
          "type": "bytes"
        },
        {
          "name": "_user",
          "type": "address"
        },
        {
          "name": "_amount",
          "type": "uint256"
        },
        {
          "name": "_price",
          "type": "uint256"
        },
        {
          "name": "_buyOrder",
          "type": "bool"
        }
      ],
      "name": "getOrderID",
      "outputs": [
        {
          "name": "",
          "type": "bytes32"
        }
      ],
      "payable": false,
      "stateMutability": "pure",
      "type": "function"
    },
    {
      "constant": true,
      "inputs": [
        {
          "name": "_param1",
          "type": "address"
        },
        {
          "name": "_param2",
          "type": "address"
        },
        {
          "name": "_param3",
          "type": "bytes32"
        }
      ],
      "name": "getFunctionInitiatorHash",
      "outputs": [
        {
          "name": "",
          "type": "bytes32"
        }
      ],
      "payable": false,
      "stateMutability": "pure",
      "type": "function"
    },
    {
      "constant": true,
      "inputs": [
        {
          "name": "_param",
          "type": "uint256"
        }
      ],
      "name": "uintHash",
      "outputs": [
        {
          "name": "",
          "type": "bytes32"
        }
      ],
      "payable": false,
      "stateMutability": "pure",
      "type": "function"
    },
    {
      "constant": true,
      "inputs": [
        {
          "name": "_staker",
          "type": "address"
        },
        {
          "name": "_blockNumber",
          "type": "uint256"
        },
        {
          "name": "_amount",
          "type": "uint256"
        }
      ],
      "name": "getStakingID",
      "outputs": [
        {
          "name": "",
          "type": "bytes32"
        }
      ],
      "payable": false,
      "stateMutability": "pure",
      "type": "function"
    },
    {
      "constant": true,
      "inputs": [
        {
          "name": "_name",
          "type": "string"
        }
      ],
      "name": "stringHash",
      "outputs": [
        {
          "name": "",
          "type": "bytes32"
        }
      ],
      "payable": false,
      "stateMutability": "pure",
      "type": "function"
    },
    {
      "constant": true,
      "inputs": [
        {
          "name": "_param",
          "type": "address"
        }
      ],
      "name": "addressHash",
      "outputs": [
        {
          "name": "",
          "type": "bytes32"
        }
      ],
      "payable": false,
      "stateMutability": "pure",
      "type": "function"
    },
    {
      "constant": true,
      "inputs": [
        {
          "name": "_name",
          "type": "string"
        }
      ],
      "name": "contractHash",
      "outputs": [
        {
          "name": "",
          "type": "bytes32"
        }
      ],
      "payable": false,
      "stateMutability": "pure",
      "type": "function"
    },
    {
      "constant": true,
      "inputs": [
        {
          "name": "_param",
          "type": "string"
        },
        {
          "name": "_paramTwo",
          "type": "address"
        }
      ],
      "name": "stringAddress",
      "outputs": [
        {
          "name": "",
          "type": "bytes32"
        }
      ],
      "payable": false,
      "stateMutability": "pure",
      "type": "function"
    },
    {
      "constant": true,
      "inputs": [
        {
          "name": "_param",
          "type": "string"
        },
        {
          "name": "_paramTwo",
          "type": "string"
        }
      ],
      "name": "stringString",
      "outputs": [
        {
          "name": "",
          "type": "bytes32"
        }
      ],
      "payable": false,
      "stateMutability": "pure",
      "type": "function"
    },
    {
      "constant": true,
      "inputs": [
        {
          "name": "_param",
          "type": "string"
        },
        {
          "name": "_paramTwo",
          "type": "bytes32"
        }
      ],
      "name": "stringBytes",
      "outputs": [
        {
          "name": "",
          "type": "bytes32"
        }
      ],
      "payable": false,
      "stateMutability": "pure",
      "type": "function"
    },
    {
      "constant": true,
      "inputs": [
        {
          "name": "_param",
          "type": "string"
        },
        {
          "name": "_paramTwo",
          "type": "uint256"
        }
      ],
      "name": "stringUint",
      "outputs": [
        {
          "name": "",
          "type": "bytes32"
        }
      ],
      "payable": false,
      "stateMutability": "pure",
      "type": "function"
    },
    {
      "constant": true,
      "inputs": [
        {
          "name": "_param",
          "type": "string"
        },
        {
          "name": "_paramTwo",
          "type": "bytes32"
        },
        {
          "name": "_paramThree",
          "type": "address"
        }
      ],
      "name": "stringBytesAddress",
      "outputs": [
        {
          "name": "",
          "type": "bytes32"
        }
      ],
      "payable": false,
      "stateMutability": "pure",
      "type": "function"
    },
    {
      "constant": true,
      "inputs": [
        {
          "name": "_param",
          "type": "address"
        },
        {
          "name": "_paramTwo",
          "type": "uint256"
        },
        {
          "name": "_paramThree",
          "type": "uint256"
        }
      ],
      "name": "addressUintUint",
      "outputs": [
        {
          "name": "",
          "type": "bytes32"
        }
      ],
      "payable": false,
      "stateMutability": "pure",
      "type": "function"
    },
    {
      "constant": true,
      "inputs": [
        {
          "name": "_contractAddress",
          "type": "address"
        },
        {
          "name": "_owner",
          "type": "address"
        },
        {
          "name": "_fnName",
          "type": "string"
        },
        {
          "name": "_recipient",
          "type": "bytes32"
        }
      ],
      "name": "getAuthorizeHash",
      "outputs": [
        {
          "name": "",
          "type": "bytes32"
        }
      ],
      "payable": false,
      "stateMutability": "pure",
      "type": "function"
    },
    {
      "constant": true,
      "inputs": [
        {
          "name": "_paramOne",
          "type": "uint256"
        },
        {
          "name": "_paramTwo",
          "type": "uint256"
        }
      ],
      "name": "uintUint",
      "outputs": [
        {
          "name": "",
          "type": "bytes32"
        }
      ],
      "payable": false,
      "stateMutability": "pure",
      "type": "function"
    },
    {
      "constant": true,
      "inputs": [
        {
          "name": "_paramOne",
          "type": "uint256"
        },
        {
          "name": "_paramTwo",
          "type": "uint256"
        },
        {
          "name": "_paramThree",
          "type": "uint256"
        }
      ],
      "name": "uintUintUint",
      "outputs": [
        {
          "name": "",
          "type": "bytes32"
        }
      ],
      "payable": false,
      "stateMutability": "pure",
      "type": "function"
    },
    {
      "constant": true,
      "inputs": [],
      "name": "currentTime",
      "outputs": [
        {
          "name": "",
          "type": "uint256"
        }
      ],
      "payable": false,
      "stateMutability": "view",
      "type": "function"
    },
    {
      "constant": true,
      "inputs": [],
      "name": "nullBytes",
      "outputs": [
        {
          "name": "",
          "type": "bytes32"
        }
      ],
      "payable": false,
      "stateMutability": "pure",
      "type": "function"
    },
    {
      "constant": true,
      "inputs": [],
      "name": "nullAddress",
      "outputs": [
        {
          "name": "",
          "type": "address"
        }
      ],
      "payable": false,
      "stateMutability": "pure",
      "type": "function"
    }
  ],
  "bytecode": "0x608060405234801561001057600080fd5b50611a14806100206000396000f300608060405260043610610127576000357c0100000000000000000000000000000000000000000000000000000000900463ffffffff168062adc382146101395780630b0e7f15146101985780630d155a78146101ef57806314c446001461025e5780632a382d96146102b15780633bf9089514610348578063424f33a8146103cd578063433f99db14610488578063547b82cd146104d1578063551edf901461053257806368f68fb3146105895780636b64b7e3146105fc578063775a8f5e146106995780637b4937b21461073f578063812146a9146107a4578063924b7b9614610817578063d18e81b31461088e578063e77172c3146108b9578063f07b2e7e146108ec578063f5b8c4c014610943578063f8797c6e146109a0578063fe10c7d214610a2d575b34801561013357600080fd5b50600080fd5b34801561014557600080fd5b5061017a600480360381019080803573ffffffffffffffffffffffffffffffffffffffff169060200190929190505050610ad2565b60405180826000191660001916815260200191505060405180910390f35b3480156101a457600080fd5b506101d1600480360381019080803590602001908201803590602001919091929391929390505050610b98565b60405180826000191660001916815260200191505060405180910390f35b3480156101fb57600080fd5b50610240600480360381019080803590602001908201803590602001919091929391929390803590602001908201803590602001919091929391929390505050610c2b565b60405180826000191660001916815260200191505060405180910390f35b34801561026a57600080fd5b506102936004803603810190808035906020019092919080359060200190929190505050610ccf565b60405180826000191660001916815260200191505060405180910390f35b3480156102bd57600080fd5b5061032a600480360381019080803590602001908201803590602001919091929391929390803573ffffffffffffffffffffffffffffffffffffffff1690602001909291908035906020019092919080359060200190929190803515159060200190929190505050610d63565b60405180826000191660001916815260200191505060405180910390f35b34801561035457600080fd5b506103af6004803603810190808035906020019082018035906020019190919293919293908035600019169060200190929190803573ffffffffffffffffffffffffffffffffffffffff169060200190929190505050610e7b565b60405180826000191660001916815260200191505060405180910390f35b3480156103d957600080fd5b50610434600480360381019080803590602001908201803590602001908080601f0160208091040260200160405190810160405280939291908181526020018383808284378201915050505050509192919290505050610f63565b60405180827bffffffffffffffffffffffffffffffffffffffffffffffffffffffff19167bffffffffffffffffffffffffffffffffffffffffffffffffffffffff1916815260200191505060405180910390f35b34801561049457600080fd5b506104b36004803603810190808035906020019092919050505061103b565b60405180826000191660001916815260200191505060405180910390f35b3480156104dd57600080fd5b50610514600480360381019080803590602001908201803590602001919091929391929390803590602001909291905050506110c6565b60405180826000191660001916815260200191505060405180910390f35b34801561053e57600080fd5b50610547611162565b604051808273ffffffffffffffffffffffffffffffffffffffff1673ffffffffffffffffffffffffffffffffffffffff16815260200191505060405180910390f35b34801561059557600080fd5b506105de600480360381019080803573ffffffffffffffffffffffffffffffffffffffff169060200190929190803590602001909291908035906020019092919050505061116a565b60405180826000191660001916815260200191505060405180910390f35b34801561060857600080fd5b5061067b600480360381019080803590602001908201803590602001908080601f0160208091040260200160405190810160405280939291908181526020018383808284378201915050505050509192919290803590602001909291908035600019169060200190929190505050611242565b60405180826000191660001916815260200191505060405180910390f35b3480156106a557600080fd5b506106c460048036038101908080359060200190929190505050611377565b6040518080602001828103825283818151815260200191508051906020019080838360005b838110156107045780820151818401526020810190506106e9565b50505050905090810190601f1680156107315780820380516001836020036101000a031916815260200191505b509250505060405180910390f35b34801561074b57600080fd5b5061078660048036038101908080359060200190820180359060200191909192939192939080356000191690602001909291905050506113bb565b60405180826000191660001916815260200191505060405180910390f35b3480156107b057600080fd5b506107f9600480360381019080803573ffffffffffffffffffffffffffffffffffffffff169060200190929190803590602001909291908035906020019092919050505061145f565b60405180826000191660001916815260200191505060405180910390f35b34801561082357600080fd5b50610870600480360381019080803590602001908201803590602001919091929391929390803573ffffffffffffffffffffffffffffffffffffffff169060200190929190505050611537565b60405180826000191660001916815260200191505060405180910390f35b34801561089a57600080fd5b506108a361160e565b6040518082815260200191505060405180910390f35b3480156108c557600080fd5b506108ce611616565b60405180826000191660001916815260200191505060405180910390f35b3480156108f857600080fd5b50610925600480360381019080803590602001908201803590602001919091929391929390505050611621565b60405180826000191660001916815260200191505060405180910390f35b34801561094f57600080fd5b506109826004803603810190808035906020019092919080359060200190929190803590602001909291905050506116dc565b60405180826000191660001916815260200191505060405180910390f35b3480156109ac57600080fd5b50610a0f600480360381019080803573ffffffffffffffffffffffffffffffffffffffff169060200190929190803573ffffffffffffffffffffffffffffffffffffffff1690602001909291908035600019169060200190929190505050611779565b60405180826000191660001916815260200191505060405180910390f35b348015610a3957600080fd5b50610ab4600480360381019080803573ffffffffffffffffffffffffffffffffffffffff169060200190929190803573ffffffffffffffffffffffffffffffffffffffff16906020019092919080359060200190820180359060200191909192939192939080356000191690602001909291905050506118bc565b60405180826000191660001916815260200191505060405180910390f35b600081604051602001808273ffffffffffffffffffffffffffffffffffffffff1673ffffffffffffffffffffffffffffffffffffffff166c010000000000000000000000000281526014019150506040516020818303038152906040526040518082805190602001908083835b602083101515610b645780518252602082019150602081019050602083039250610b3f565b6001836020036101000a03801982511681845116808217855250505050505090500191505060405180910390209050919050565b60008282604051602001808383808284378201915050925050506040516020818303038152906040526040518082805190602001908083835b602083101515610bf65780518252602082019150602081019050602083039250610bd1565b6001836020036101000a0380198251168184511680821785525050505050509050019150506040518091039020905092915050565b60008484848460405160200180858580828437820191505083838082843782019150509450505050506040516020818303038152906040526040518082805190602001908083835b602083101515610c985780518252602082019150602081019050602083039250610c73565b6001836020036101000a03801982511681845116808217855250505050505090500191505060405180910390209050949350505050565b6000828260405160200180838152602001828152602001925050506040516020818303038152906040526040518082805190602001908083835b602083101515610d2e5780518252602082019150602081019050602083039250610d09565b6001836020036101000a0380198251168184511680821785525050505050509050019150506040518091039020905092915050565b60008686868686866040516020018087878082843782019150508573ffffffffffffffffffffffffffffffffffffffff1673ffffffffffffffffffffffffffffffffffffffff166c0100000000000000000000000002815260140184815260200183815260200182151515157f010000000000000000000000000000000000000000000000000000000000000002815260010196505050505050506040516020818303038152906040526040518082805190602001908083835b602083101515610e425780518252602082019150602081019050602083039250610e1d565b6001836020036101000a038019825116818451168082178552505050505050905001915050604051809103902090509695505050505050565b60008484848460405160200180858580828437820191505083600019166000191681526020018273ffffffffffffffffffffffffffffffffffffffff1673ffffffffffffffffffffffffffffffffffffffff166c010000000000000000000000000281526014019450505050506040516020818303038152906040526040518082805190602001908083835b602083101515610f2c5780518252602082019150602081019050602083039250610f07565b6001836020036101000a03801982511681845116808217855250505050505090500191505060405180910390209050949350505050565b6000816040516020018082805190602001908083835b602083101515610f9e5780518252602082019150602081019050602083039250610f79565b6001836020036101000a0380198251168184511680821785525050505050509050019150506040516020818303038152906040526040518082805190602001908083835b6020831015156110075780518252602082019150602081019050602083039250610fe2565b6001836020036101000a03801982511681845116808217855250505050505090500191505060405180910390209050919050565b600081604051602001808281526020019150506040516020818303038152906040526040518082805190602001908083835b602083101515611092578051825260208201915060208101905060208303925061106d565b6001836020036101000a03801982511681845116808217855250505050505090500191505060405180910390209050919050565b600083838360405160200180848480828437820191505082815260200193505050506040516020818303038152906040526040518082805190602001908083835b60208310151561112c5780518252602082019150602081019050602083039250611107565b6001836020036101000a038019825116818451168082178552505050505050905001915050604051809103902090509392505050565b600080905090565b6000838383604051602001808473ffffffffffffffffffffffffffffffffffffffff1673ffffffffffffffffffffffffffffffffffffffff166c0100000000000000000000000002815260140183815260200182815260200193505050506040516020818303038152906040526040518082805190602001908083835b60208310151561120c57805182526020820191506020810190506020830392506111e7565b6001836020036101000a038019825116818451168082178552505050505050905001915050604051809103902090509392505050565b600033838386604051602001808573ffffffffffffffffffffffffffffffffffffffff1673ffffffffffffffffffffffffffffffffffffffff166c01000000000000000000000000028152601401848152602001836000191660001916815260200182805190602001908083835b6020831015156112d557805182526020820191506020810190506020830392506112b0565b6001836020036101000a0380198251168184511680821785525050505050509050019450505050506040516020818303038152906040526040518082805190602001908083835b602083101515611341578051825260208201915060208101905060208303925061131c565b6001836020036101000a038019825116818451168082178552505050505050905001915050604051809103902090509392505050565b606060206040519080825280601f01601f1916602001820160405280156113ad5781602001602082028038833980820191505090505b509050816020820152919050565b6000838383604051602001808484808284378201915050826000191660001916815260200193505050506040516020818303038152906040526040518082805190602001908083835b6020831015156114295780518252602082019150602081019050602083039250611404565b6001836020036101000a038019825116818451168082178552505050505050905001915050604051809103902090509392505050565b6000838383604051602001808473ffffffffffffffffffffffffffffffffffffffff1673ffffffffffffffffffffffffffffffffffffffff166c0100000000000000000000000002815260140183815260200182815260200193505050506040516020818303038152906040526040518082805190602001908083835b60208310151561150157805182526020820191506020810190506020830392506114dc565b6001836020036101000a038019825116818451168082178552505050505050905001915050604051809103902090509392505050565b60008383836040516020018084848082843782019150508273ffffffffffffffffffffffffffffffffffffffff1673ffffffffffffffffffffffffffffffffffffffff166c0100000000000000000000000002815260140193505050506040516020818303038152906040526040518082805190602001908083835b6020831015156115d857805182526020820191506020810190506020830392506115b3565b6001836020036101000a038019825116818451168082178552505050505050905001915050604051809103902090509392505050565b600042905090565b600080600102905090565b6000828260405160200180807f636f6e74726163740000000000000000000000000000000000000000000000008152506008018383808284378201915050925050506040516020818303038152906040526040518082805190602001908083835b6020831015156116a75780518252602082019150602081019050602083039250611682565b6001836020036101000a0380198251168184511680821785525050505050509050019150506040518091039020905092915050565b60008383836040516020018084815260200183815260200182815260200193505050506040516020818303038152906040526040518082805190602001908083835b602083101515611743578051825260208201915060208101905060208303925061171e565b6001836020036101000a038019825116818451168082178552505050505050905001915050604051809103902090509392505050565b6000838383604051602001808473ffffffffffffffffffffffffffffffffffffffff1673ffffffffffffffffffffffffffffffffffffffff166c010000000000000000000000000281526014018373ffffffffffffffffffffffffffffffffffffffff1673ffffffffffffffffffffffffffffffffffffffff166c01000000000000000000000000028152601401807f64657374726f7900000000000000000000000000000000000000000000000000815250600701826000191660001916815260200193505050506040516020818303038152906040526040518082805190602001908083835b6020831015156118865780518252602082019150602081019050602083039250611861565b6001836020036101000a038019825116818451168082178552505050505050905001915050604051809103902090509392505050565b60008585858585604051602001808673ffffffffffffffffffffffffffffffffffffffff1673ffffffffffffffffffffffffffffffffffffffff166c010000000000000000000000000281526014018573ffffffffffffffffffffffffffffffffffffffff1673ffffffffffffffffffffffffffffffffffffffff166c0100000000000000000000000002815260140184848082843782019150508260001916600019168152602001955050505050506040516020818303038152906040526040518082805190602001908083835b6020831015156119b0578051825260208201915060208101905060208303925061198b565b6001836020036101000a03801982511681845116808217855250505050505090500191505060405180910390209050959450505050505600a165627a7a72305820479e698acca72b65d57494900fe252a3830401f17e53027d36c0d2cea58bfb8d0029",
  "source": "pragma solidity 0.4.24;\n\ncontract HashFunctions {\n\n  function toBytes(uint x)\n  external\n  pure\n  returns (bytes b) {\n    b = new bytes(32);\n    assembly { mstore(add(b, 32), x) }\n  }\n\n\n\n  function getMethodID(string _functionString)\n  public\n  pure\n  returns (bytes4) {\n    return bytes4(keccak256(abi.encodePacked(_functionString)));\n  }\n\n  function getAssetID(string _assetURI, uint _amountToRaise, bytes32 _operatorID)\n  public\n  view\n  returns(bytes32) {\n    return keccak256(abi.encodePacked(msg.sender, _amountToRaise, _operatorID, _assetURI));\n  }\n\n  function getOrderID(bytes _assetID, address _user, uint _amount, uint _price, bool _buyOrder)\n  external\n  pure\n  returns(bytes32) {\n    return keccak256(abi.encodePacked(_assetID, _user, _amount, _price, _buyOrder));\n  }\n\n  function getFunctionInitiatorHash(address _param1, address _param2, bytes32 _param3)\n  external\n  pure\n  returns(bytes32) {\n    return keccak256(abi.encodePacked(_param1, _param2, \"destroy\", _param3));\n  }\n\n  function uintHash(uint _param)\n  external\n  pure\n  returns (bytes32) {\n    return keccak256(abi.encodePacked(_param));\n  }\n\n  function getStakingID(address _staker, uint256 _blockNumber, uint256 _amount)\n  external\n  pure\n  returns (bytes32) {\n    return keccak256(abi.encodePacked(_staker, _blockNumber, _amount));\n  }\n\n  function stringHash(string _name)\n  external\n  pure\n  returns (bytes32){\n    return keccak256(abi.encodePacked(_name));\n  }\n\n  function addressHash(address _param)\n  external\n  pure\n  returns (bytes32) {\n    return keccak256(abi.encodePacked(_param));\n  }\n\n\n  function contractHash(string _name)\n  external\n  pure\n  returns (bytes32) {\n    return keccak256(abi.encodePacked(\"contract\", _name));\n  }\n\n  function stringAddress(string _param, address _paramTwo)\n  external\n  pure\n  returns (bytes32) {\n    return keccak256(abi.encodePacked(_param, _paramTwo));\n  }\n\n  function stringString(string _param, string _paramTwo)\n  external\n  pure\n  returns (bytes32) {\n    return (keccak256(abi.encodePacked(_param, _paramTwo)));\n  }\n\n  function stringBytes(string _param, bytes32 _paramTwo)\n  external\n  pure\n  returns (bytes32) {\n    return keccak256(abi.encodePacked(_param, _paramTwo));\n  }\n\n  function stringUint(string _param, uint _paramTwo)\n  external\n  pure\n  returns (bytes32) {\n    return keccak256(abi.encodePacked(_param, _paramTwo));\n  }\n\n  function stringBytesAddress(string _param, bytes32 _paramTwo, address _paramThree)\n  external\n  pure\n  returns (bytes32) {\n    return keccak256(abi.encodePacked(_param, _paramTwo, _paramThree));\n  }\n\n  function addressUintUint(address _param, uint _paramTwo, uint _paramThree)\n  external\n  pure\n  returns (bytes32) {\n    return keccak256(abi.encodePacked(_param, _paramTwo, _paramThree));\n  }\n\n\n  function getAuthorizeHash(address _contractAddress, address _owner, string _fnName, bytes32 _recipient)\n  external\n  pure\n  returns (bytes32) {\n    return keccak256(abi.encodePacked(_contractAddress, _owner, _fnName, _recipient));\n  }\n\n  function uintUint(uint _paramOne, uint _paramTwo)\n  external\n  pure\n  returns (bytes32) {\n    return keccak256(abi.encodePacked(_paramOne, _paramTwo));\n  }\n\n\n  function uintUintUint(uint _paramOne, uint _paramTwo, uint _paramThree)\n  external\n  pure\n  returns (bytes32) {\n    return keccak256(abi.encodePacked(_paramOne, _paramTwo, _paramThree));\n  }\n\n  function currentTime()\n  external\n  view\n  returns (uint) {\n    return now;\n  }\n\n  function nullBytes()\n  external\n  pure\n  returns (bytes32) {\n    return bytes32(0);\n  }\n\n  function nullAddress()\n  external\n  pure\n  returns (address) {\n    return address(0);\n  }\n\nfunction ()\npublic {\n  revert();\n}\n\n\n\n\n\n}\n",
  "sourcePath": "/home/peter/Documents/Work/MyBit/MyBit-Network.tech/contracts/test/HashFunctions.sol",
  "compiler": {
    "name": "solc",
    "version": "0.4.24+commit.e67f0147.Emscripten.clang"
  },
  "schemaVersion": "2.0.1",
  "updatedAt": "2018-10-17T18:28:17.931Z"
}