{
  "contractName": "InitialVariables",
  "abi": [
    {
      "constant": true,
      "inputs": [],
      "name": "database",
      "outputs": [
        {
          "name": "",
          "type": "address"
        }
      ],
      "payable": false,
      "stateMutability": "view",
      "type": "function"
    },
    {
      "inputs": [
        {
          "name": "_database",
          "type": "address"
        }
      ],
      "payable": false,
      "stateMutability": "nonpayable",
      "type": "constructor"
    },
    {
      "anonymous": false,
      "inputs": [
        {
          "indexed": false,
          "name": "_sender",
          "type": "address"
        },
        {
          "indexed": false,
          "name": "_database",
          "type": "address"
        }
      ],
      "name": "LogInitialized",
      "type": "event"
    },
    {
      "anonymous": false,
      "inputs": [
        {
          "indexed": false,
          "name": "_oldETHPrice",
          "type": "uint256"
        },
        {
          "indexed": false,
          "name": "_oldMYBPrice",
          "type": "uint256"
        }
      ],
      "name": "LogPriceUpdate",
      "type": "event"
    },
    {
      "constant": false,
      "inputs": [
        {
          "name": "_myBitFoundation",
          "type": "address"
        },
        {
          "name": "_installerEscrow",
          "type": "address"
        }
      ],
      "name": "startDapp",
      "outputs": [],
      "payable": false,
      "stateMutability": "nonpayable",
      "type": "function"
    },
    {
      "constant": false,
      "inputs": [
        {
          "name": "_signer",
          "type": "address"
        },
        {
          "name": "_functionName",
          "type": "string"
        },
        {
          "name": "_newAddress",
          "type": "address"
        }
      ],
      "name": "changeFoundationAddress",
      "outputs": [
        {
          "name": "",
          "type": "bool"
        }
      ],
      "payable": false,
      "stateMutability": "nonpayable",
      "type": "function"
    },
    {
      "constant": false,
      "inputs": [
        {
          "name": "_signer",
          "type": "address"
        },
        {
          "name": "_functionName",
          "type": "string"
        },
        {
          "name": "_newAddress",
          "type": "address"
        }
      ],
      "name": "changeInstallerEscrowAddress",
      "outputs": [
        {
          "name": "",
          "type": "bool"
        }
      ],
      "payable": false,
      "stateMutability": "nonpayable",
      "type": "function"
    },
    {
      "constant": false,
      "inputs": [
        {
          "name": "_signer",
          "type": "address"
        },
        {
          "name": "_functionName",
          "type": "string"
        },
        {
          "name": "_accessLevel",
          "type": "uint256"
        },
        {
          "name": "_newPrice",
          "type": "uint256"
        }
      ],
      "name": "changeAccessTokenFee",
      "outputs": [
        {
          "name": "",
          "type": "bool"
        }
      ],
      "payable": false,
      "stateMutability": "nonpayable",
      "type": "function"
    },
    {
      "constant": false,
      "inputs": [
        {
          "name": "_ethPrice",
          "type": "uint256"
        },
        {
          "name": "_mybPrice",
          "type": "uint256"
        }
      ],
      "name": "setDailyPrices",
      "outputs": [
        {
          "name": "",
          "type": "bool"
        }
      ],
      "payable": false,
      "stateMutability": "nonpayable",
      "type": "function"
    },
    {
      "constant": false,
      "inputs": [
        {
          "name": "_newPriceExpiration",
          "type": "uint256"
        }
      ],
      "name": "changePriceUpdateTimeline",
      "outputs": [
        {
          "name": "",
          "type": "bool"
        }
      ],
      "payable": false,
      "stateMutability": "nonpayable",
      "type": "function"
    }
  ],
  "bytecode": "0x608060405234801561001057600080fd5b50604051602080613bc083398101806040528101908080519060200190929190505050806000806101000a81548173ffffffffffffffffffffffffffffffffffffffff021916908373ffffffffffffffffffffffffffffffffffffffff16021790555050613b3d806100836000396000f300608060405260043610610083576000357c0100000000000000000000000000000000000000000000000000000000900463ffffffff1680631caa5ccb14610088578063221b850c146100eb57806346c13d281461017e5780634fdbe2c314610205578063713b563f1461029857806386bfbd44146102ef578063f22a598f1461033e575b600080fd5b34801561009457600080fd5b506100e9600480360381019080803573ffffffffffffffffffffffffffffffffffffffff169060200190929190803573ffffffffffffffffffffffffffffffffffffffff169060200190929190505050610383565b005b3480156100f757600080fd5b50610164600480360381019080803573ffffffffffffffffffffffffffffffffffffffff169060200190929190803590602001908201803590602001919091929391929390803573ffffffffffffffffffffffffffffffffffffffff16906020019092919050505061120a565b604051808215151515815260200191505060405180910390f35b34801561018a57600080fd5b506101eb600480360381019080803573ffffffffffffffffffffffffffffffffffffffff1690602001909291908035906020019082018035906020019190919293919293908035906020019092919080359060200190929190505050611b2f565b604051808215151515815260200191505060405180910390f35b34801561021157600080fd5b5061027e600480360381019080803573ffffffffffffffffffffffffffffffffffffffff169060200190929190803590602001908201803590602001919091929391929390803573ffffffffffffffffffffffffffffffffffffffff1690602001909291905050506123c0565b604051808215151515815260200191505060405180910390f35b3480156102a457600080fd5b506102ad612ce5565b604051808273ffffffffffffffffffffffffffffffffffffffff1673ffffffffffffffffffffffffffffffffffffffff16815260200191505060405180910390f35b3480156102fb57600080fd5b506103246004803603810190808035906020019092919080359060200190929190505050612d0a565b604051808215151515815260200191505060405180910390f35b34801561034a57600080fd5b5061036960048036038101908080359060200190929190505050613792565b604051808215151515815260200191505060405180910390f35b6000809054906101000a900473ffffffffffffffffffffffffffffffffffffffff1673ffffffffffffffffffffffffffffffffffffffff16633b7bfda03360405160200180807f6f776e65720000000000000000000000000000000000000000000000000000008152506005018273ffffffffffffffffffffffffffffffffffffffff1673ffffffffffffffffffffffffffffffffffffffff166c010000000000000000000000000281526014019150506040516020818303038152906040526040518082805190602001908083835b6020831015156104785780518252602082019150602081019050602083039250610453565b6001836020036101000a03801982511681845116808217855250505050505090500191505060405180910390206040518263ffffffff167c0100000000000000000000000000000000000000000000000000000000028152600401808260001916600019168152602001915050602060405180830381600087803b1580156104ff57600080fd5b505af1158015610513573d6000803e3d6000fd5b505050506040513d602081101561052957600080fd5b8101908080519060200190929190505050151561054557600080fd5b600073ffffffffffffffffffffffffffffffffffffffff168273ffffffffffffffffffffffffffffffffffffffff16141580156105af5750600073ffffffffffffffffffffffffffffffffffffffff168173ffffffffffffffffffffffffffffffffffffffff1614155b15156105ba57600080fd5b6000809054906101000a900473ffffffffffffffffffffffffffffffffffffffff1673ffffffffffffffffffffffffffffffffffffffff1663ca446dd960405160200180807f4d79426974466f756e646174696f6e0000000000000000000000000000000000815250600f0190506040516020818303038152906040526040518082805190602001908083835b60208310151561066c5780518252602082019150602081019050602083039250610647565b6001836020036101000a0380198251168184511680821785525050505050509050019150506040518091039020846040518363ffffffff167c01000000000000000000000000000000000000000000000000000000000281526004018083600019166000191681526020018273ffffffffffffffffffffffffffffffffffffffff1673ffffffffffffffffffffffffffffffffffffffff16815260200192505050600060405180830381600087803b15801561072757600080fd5b505af115801561073b573d6000803e3d6000fd5b505050506000809054906101000a900473ffffffffffffffffffffffffffffffffffffffff1673ffffffffffffffffffffffffffffffffffffffff1663ca446dd960405160200180807f496e7374616c6c6572457363726f770000000000000000000000000000000000815250600f0190506040516020818303038152906040526040518082805190602001908083835b6020831015156107f157805182526020820191506020810190506020830392506107cc565b6001836020036101000a0380198251168184511680821785525050505050509050019150506040518091039020836040518363ffffffff167c01000000000000000000000000000000000000000000000000000000000281526004018083600019166000191681526020018273ffffffffffffffffffffffffffffffffffffffff1673ffffffffffffffffffffffffffffffffffffffff16815260200192505050600060405180830381600087803b1580156108ac57600080fd5b505af11580156108c0573d6000803e3d6000fd5b505050506000809054906101000a900473ffffffffffffffffffffffffffffffffffffffff1673ffffffffffffffffffffffffffffffffffffffff1663e2a4853a60405160200180807f6d79426974466f756e646174696f6e50657263656e746167650000000000000081525060190190506040516020818303038152906040526040518082805190602001908083835b6020831015156109765780518252602082019150602081019050602083039250610951565b6001836020036101000a038019825116818451168082178552505050505050905001915050604051809103902060016040518363ffffffff167c010000000000000000000000000000000000000000000000000000000002815260040180836000191660001916815260200182815260200192505050600060405180830381600087803b158015610a0657600080fd5b505af1158015610a1a573d6000803e3d6000fd5b505050506000809054906101000a900473ffffffffffffffffffffffffffffffffffffffff1673ffffffffffffffffffffffffffffffffffffffff1663e2a4853a60405160200180807f696e7374616c6c657250657263656e746167650000000000000000000000000081525060130190506040516020818303038152906040526040518082805190602001908083835b602083101515610ad05780518252602082019150602081019050602083039250610aab565b6001836020036101000a038019825116818451168082178552505050505050905001915050604051809103902060636040518363ffffffff167c010000000000000000000000000000000000000000000000000000000002815260040180836000191660001916815260200182815260200192505050600060405180830381600087803b158015610b6057600080fd5b505af1158015610b74573d6000803e3d6000fd5b505050506000809054906101000a900473ffffffffffffffffffffffffffffffffffffffff1673ffffffffffffffffffffffffffffffffffffffff1663e2a4853a600160405160200180807f616363657373546f6b656e466565000000000000000000000000000000000000815250600e018281526020019150506040516020818303038152906040526040518082805190602001908083835b602083101515610c335780518252602082019150602081019050602083039250610c0e565b6001836020036101000a0380198251168184511680821785525050505050509050019150506040518091039020610c7d683635c9adc5dea000006019613ab890919063ffffffff16565b6040518363ffffffff167c010000000000000000000000000000000000000000000000000000000002815260040180836000191660001916815260200182815260200192505050600060405180830381600087803b158015610cde57600080fd5b505af1158015610cf2573d6000803e3d6000fd5b505050506000809054906101000a900473ffffffffffffffffffffffffffffffffffffffff1673ffffffffffffffffffffffffffffffffffffffff1663e2a4853a600260405160200180807f616363657373546f6b656e466565000000000000000000000000000000000000815250600e018281526020019150506040516020818303038152906040526040518082805190602001908083835b602083101515610db15780518252602082019150602081019050602083039250610d8c565b6001836020036101000a0380198251168184511680821785525050505050509050019150506040518091039020610dfb683635c9adc5dea00000604b613ab890919063ffffffff16565b6040518363ffffffff167c010000000000000000000000000000000000000000000000000000000002815260040180836000191660001916815260200182815260200192505050600060405180830381600087803b158015610e5c57600080fd5b505af1158015610e70573d6000803e3d6000fd5b505050506000809054906101000a900473ffffffffffffffffffffffffffffffffffffffff1673ffffffffffffffffffffffffffffffffffffffff1663e2a4853a600360405160200180807f616363657373546f6b656e466565000000000000000000000000000000000000815250600e018281526020019150506040516020818303038152906040526040518082805190602001908083835b602083101515610f2f5780518252602082019150602081019050602083039250610f0a565b6001836020036101000a0380198251168184511680821785525050505050509050019150506040518091039020610f79683635c9adc5dea000006064613ab890919063ffffffff16565b6040518363ffffffff167c010000000000000000000000000000000000000000000000000000000002815260040180836000191660001916815260200182815260200192505050600060405180830381600087803b158015610fda57600080fd5b505af1158015610fee573d6000803e3d6000fd5b505050506000809054906101000a900473ffffffffffffffffffffffffffffffffffffffff1673ffffffffffffffffffffffffffffffffffffffff1663e2a4853a60405160200180807f707269636555706461746554696d656c696e650000000000000000000000000081525060130190506040516020818303038152906040526040518082805190602001908083835b6020831015156110a4578051825260208201915060208101905060208303925061107f565b6001836020036101000a0380198251168184511680821785525050505050509050019150506040518091039020620151806040518363ffffffff167c010000000000000000000000000000000000000000000000000000000002815260040180836000191660001916815260200182815260200192505050600060405180830381600087803b15801561113657600080fd5b505af115801561114a573d6000803e3d6000fd5b505050507f4bc5e4c7c530a990d19c9c676b8012c7c0ecdc172936283839da11f567a05b40336000809054906101000a900473ffffffffffffffffffffffffffffffffffffffff16604051808373ffffffffffffffffffffffffffffffffffffffff1673ffffffffffffffffffffffffffffffffffffffff1681526020018273ffffffffffffffffffffffffffffffffffffffff1673ffffffffffffffffffffffffffffffffffffffff1681526020019250505060405180910390a15050565b600081600073ffffffffffffffffffffffffffffffffffffffff168173ffffffffffffffffffffffffffffffffffffffff161415151561124957600080fd5b6000809054906101000a900473ffffffffffffffffffffffffffffffffffffffff1673ffffffffffffffffffffffffffffffffffffffff16633b7bfda03360405160200180807f6f776e65720000000000000000000000000000000000000000000000000000008152506005018273ffffffffffffffffffffffffffffffffffffffff1673ffffffffffffffffffffffffffffffffffffffff166c010000000000000000000000000281526014019150506040516020818303038152906040526040518082805190602001908083835b60208310151561133e5780518252602082019150602081019050602083039250611319565b6001836020036101000a03801982511681845116808217855250505050505090500191505060405180910390206040518263ffffffff167c0100000000000000000000000000000000000000000000000000000000028152600401808260001916600019168152602001915050602060405180830381600087803b1580156113c557600080fd5b505af11580156113d9573d6000803e3d6000fd5b505050506040513d60208110156113ef57600080fd5b8101908080519060200190929190505050151561140b57600080fd5b8585858080601f01602080910402602001604051908101604052809392919081815260200183838082843782019150505050505084604051602001808273ffffffffffffffffffffffffffffffffffffffff1673ffffffffffffffffffffffffffffffffffffffff166c010000000000000000000000000281526014019150506040516020818303038152906040526040518082805190602001908083835b6020831015156114cf57805182526020820191506020810190506020830392506114aa565b6001836020036101000a03801982511681845116808217855250505050505090500191505060405180910390208273ffffffffffffffffffffffffffffffffffffffff163373ffffffffffffffffffffffffffffffffffffffff161415151561153757600080fd5b6000809054906101000a900473ffffffffffffffffffffffffffffffffffffffff1673ffffffffffffffffffffffffffffffffffffffff16633b7bfda030858585604051602001808573ffffffffffffffffffffffffffffffffffffffff1673ffffffffffffffffffffffffffffffffffffffff166c010000000000000000000000000281526014018473ffffffffffffffffffffffffffffffffffffffff1673ffffffffffffffffffffffffffffffffffffffff166c0100000000000000000000000002815260140183805190602001908083835b602083101515611632578051825260208201915060208101905060208303925061160d565b6001836020036101000a03801982511681845116808217855250505050505090500182600019166000191681526020019450505050506040516020818303038152906040526040518082805190602001908083835b6020831015156116ac5780518252602082019150602081019050602083039250611687565b6001836020036101000a03801982511681845116808217855250505050505090500191505060405180910390206040518263ffffffff167c0100000000000000000000000000000000000000000000000000000000028152600401808260001916600019168152602001915050602060405180830381600087803b15801561173357600080fd5b505af1158015611747573d6000803e3d6000fd5b505050506040513d602081101561175d57600080fd5b8101908080519060200190929190505050151561177957600080fd5b6000809054906101000a900473ffffffffffffffffffffffffffffffffffffffff1673ffffffffffffffffffffffffffffffffffffffff1663abfdcced30858585604051602001808573ffffffffffffffffffffffffffffffffffffffff1673ffffffffffffffffffffffffffffffffffffffff166c010000000000000000000000000281526014018473ffffffffffffffffffffffffffffffffffffffff1673ffffffffffffffffffffffffffffffffffffffff166c0100000000000000000000000002815260140183805190602001908083835b602083101515611874578051825260208201915060208101905060208303925061184f565b6001836020036101000a03801982511681845116808217855250505050505090500182600019166000191681526020019450505050506040516020818303038152906040526040518082805190602001908083835b6020831015156118ee57805182526020820191506020810190506020830392506118c9565b6001836020036101000a038019825116818451168082178552505050505050905001915050604051809103902060006040518363ffffffff167c01000000000000000000000000000000000000000000000000000000000281526004018083600019166000191681526020018215151515815260200192505050600060405180830381600087803b15801561198257600080fd5b505af1158015611996573d6000803e3d6000fd5b505050506000809054906101000a900473ffffffffffffffffffffffffffffffffffffffff1673ffffffffffffffffffffffffffffffffffffffff1663ca446dd960405160200180807f496e7374616c6c6572457363726f770000000000000000000000000000000000815250600f0190506040516020818303038152906040526040518082805190602001908083835b602083101515611a4c5780518252602082019150602081019050602083039250611a27565b6001836020036101000a0380198251168184511680821785525050505050509050019150506040518091039020886040518363ffffffff167c01000000000000000000000000000000000000000000000000000000000281526004018083600019166000191681526020018273ffffffffffffffffffffffffffffffffffffffff1673ffffffffffffffffffffffffffffffffffffffff16815260200192505050600060405180830381600087803b158015611b0757600080fd5b505af1158015611b1b573d6000803e3d6000fd5b505050506001945050505050949350505050565b60008060009054906101000a900473ffffffffffffffffffffffffffffffffffffffff1673ffffffffffffffffffffffffffffffffffffffff16633b7bfda03360405160200180807f6f776e65720000000000000000000000000000000000000000000000000000008152506005018273ffffffffffffffffffffffffffffffffffffffff1673ffffffffffffffffffffffffffffffffffffffff166c010000000000000000000000000281526014019150506040516020818303038152906040526040518082805190602001908083835b602083101515611c265780518252602082019150602081019050602083039250611c01565b6001836020036101000a03801982511681845116808217855250505050505090500191505060405180910390206040518263ffffffff167c0100000000000000000000000000000000000000000000000000000000028152600401808260001916600019168152602001915050602060405180830381600087803b158015611cad57600080fd5b505af1158015611cc1573d6000803e3d6000fd5b505050506040513d6020811015611cd757600080fd5b81019080805190602001909291905050501515611cf357600080fd5b8585858080601f016020809104026020016040519081016040528093929190818152602001838380828437820191505050505050848460405160200180838152602001828152602001925050506040516020818303038152906040526040518082805190602001908083835b602083101515611d845780518252602082019150602081019050602083039250611d5f565b6001836020036101000a03801982511681845116808217855250505050505090500191505060405180910390208273ffffffffffffffffffffffffffffffffffffffff163373ffffffffffffffffffffffffffffffffffffffff1614151515611dec57600080fd5b6000809054906101000a900473ffffffffffffffffffffffffffffffffffffffff1673ffffffffffffffffffffffffffffffffffffffff16633b7bfda030858585604051602001808573ffffffffffffffffffffffffffffffffffffffff1673ffffffffffffffffffffffffffffffffffffffff166c010000000000000000000000000281526014018473ffffffffffffffffffffffffffffffffffffffff1673ffffffffffffffffffffffffffffffffffffffff166c0100000000000000000000000002815260140183805190602001908083835b602083101515611ee75780518252602082019150602081019050602083039250611ec2565b6001836020036101000a03801982511681845116808217855250505050505090500182600019166000191681526020019450505050506040516020818303038152906040526040518082805190602001908083835b602083101515611f615780518252602082019150602081019050602083039250611f3c565b6001836020036101000a03801982511681845116808217855250505050505090500191505060405180910390206040518263ffffffff167c0100000000000000000000000000000000000000000000000000000000028152600401808260001916600019168152602001915050602060405180830381600087803b158015611fe857600080fd5b505af1158015611ffc573d6000803e3d6000fd5b505050506040513d602081101561201257600080fd5b8101908080519060200190929190505050151561202e57600080fd5b6000809054906101000a900473ffffffffffffffffffffffffffffffffffffffff1673ffffffffffffffffffffffffffffffffffffffff1663abfdcced30858585604051602001808573ffffffffffffffffffffffffffffffffffffffff1673ffffffffffffffffffffffffffffffffffffffff166c010000000000000000000000000281526014018473ffffffffffffffffffffffffffffffffffffffff1673ffffffffffffffffffffffffffffffffffffffff166c0100000000000000000000000002815260140183805190602001908083835b6020831015156121295780518252602082019150602081019050602083039250612104565b6001836020036101000a03801982511681845116808217855250505050505090500182600019166000191681526020019450505050506040516020818303038152906040526040518082805190602001908083835b6020831015156121a3578051825260208201915060208101905060208303925061217e565b6001836020036101000a038019825116818451168082178552505050505050905001915050604051809103902060006040518363ffffffff167c01000000000000000000000000000000000000000000000000000000000281526004018083600019166000191681526020018215151515815260200192505050600060405180830381600087803b15801561223757600080fd5b505af115801561224b573d6000803e3d6000fd5b505050506000809054906101000a900473ffffffffffffffffffffffffffffffffffffffff1673ffffffffffffffffffffffffffffffffffffffff1663e2a4853a8760405160200180807f616363657373546f6b656e466565000000000000000000000000000000000000815250600e018281526020019150506040516020818303038152906040526040518082805190602001908083835b60208310151561230957805182526020820191506020810190506020830392506122e4565b6001836020036101000a0380198251168184511680821785525050505050509050019150506040518091039020876040518363ffffffff167c010000000000000000000000000000000000000000000000000000000002815260040180836000191660001916815260200182815260200192505050600060405180830381600087803b15801561239857600080fd5b505af11580156123ac573d6000803e3d6000fd5b505050506001935050505095945050505050565b600081600073ffffffffffffffffffffffffffffffffffffffff168173ffffffffffffffffffffffffffffffffffffffff16141515156123ff57600080fd5b6000809054906101000a900473ffffffffffffffffffffffffffffffffffffffff1673ffffffffffffffffffffffffffffffffffffffff16633b7bfda03360405160200180807f6f776e65720000000000000000000000000000000000000000000000000000008152506005018273ffffffffffffffffffffffffffffffffffffffff1673ffffffffffffffffffffffffffffffffffffffff166c010000000000000000000000000281526014019150506040516020818303038152906040526040518082805190602001908083835b6020831015156124f457805182526020820191506020810190506020830392506124cf565b6001836020036101000a03801982511681845116808217855250505050505090500191505060405180910390206040518263ffffffff167c0100000000000000000000000000000000000000000000000000000000028152600401808260001916600019168152602001915050602060405180830381600087803b15801561257b57600080fd5b505af115801561258f573d6000803e3d6000fd5b505050506040513d60208110156125a557600080fd5b810190808051906020019092919050505015156125c157600080fd5b8585858080601f01602080910402602001604051908101604052809392919081815260200183838082843782019150505050505084604051602001808273ffffffffffffffffffffffffffffffffffffffff1673ffffffffffffffffffffffffffffffffffffffff166c010000000000000000000000000281526014019150506040516020818303038152906040526040518082805190602001908083835b6020831015156126855780518252602082019150602081019050602083039250612660565b6001836020036101000a03801982511681845116808217855250505050505090500191505060405180910390208273ffffffffffffffffffffffffffffffffffffffff163373ffffffffffffffffffffffffffffffffffffffff16141515156126ed57600080fd5b6000809054906101000a900473ffffffffffffffffffffffffffffffffffffffff1673ffffffffffffffffffffffffffffffffffffffff16633b7bfda030858585604051602001808573ffffffffffffffffffffffffffffffffffffffff1673ffffffffffffffffffffffffffffffffffffffff166c010000000000000000000000000281526014018473ffffffffffffffffffffffffffffffffffffffff1673ffffffffffffffffffffffffffffffffffffffff166c0100000000000000000000000002815260140183805190602001908083835b6020831015156127e857805182526020820191506020810190506020830392506127c3565b6001836020036101000a03801982511681845116808217855250505050505090500182600019166000191681526020019450505050506040516020818303038152906040526040518082805190602001908083835b602083101515612862578051825260208201915060208101905060208303925061283d565b6001836020036101000a03801982511681845116808217855250505050505090500191505060405180910390206040518263ffffffff167c0100000000000000000000000000000000000000000000000000000000028152600401808260001916600019168152602001915050602060405180830381600087803b1580156128e957600080fd5b505af11580156128fd573d6000803e3d6000fd5b505050506040513d602081101561291357600080fd5b8101908080519060200190929190505050151561292f57600080fd5b6000809054906101000a900473ffffffffffffffffffffffffffffffffffffffff1673ffffffffffffffffffffffffffffffffffffffff1663abfdcced30858585604051602001808573ffffffffffffffffffffffffffffffffffffffff1673ffffffffffffffffffffffffffffffffffffffff166c010000000000000000000000000281526014018473ffffffffffffffffffffffffffffffffffffffff1673ffffffffffffffffffffffffffffffffffffffff166c0100000000000000000000000002815260140183805190602001908083835b602083101515612a2a5780518252602082019150602081019050602083039250612a05565b6001836020036101000a03801982511681845116808217855250505050505090500182600019166000191681526020019450505050506040516020818303038152906040526040518082805190602001908083835b602083101515612aa45780518252602082019150602081019050602083039250612a7f565b6001836020036101000a038019825116818451168082178552505050505050905001915050604051809103902060006040518363ffffffff167c01000000000000000000000000000000000000000000000000000000000281526004018083600019166000191681526020018215151515815260200192505050600060405180830381600087803b158015612b3857600080fd5b505af1158015612b4c573d6000803e3d6000fd5b505050506000809054906101000a900473ffffffffffffffffffffffffffffffffffffffff1673ffffffffffffffffffffffffffffffffffffffff1663ca446dd960405160200180807f4d79426974466f756e646174696f6e0000000000000000000000000000000000815250600f0190506040516020818303038152906040526040518082805190602001908083835b602083101515612c025780518252602082019150602081019050602083039250612bdd565b6001836020036101000a0380198251168184511680821785525050505050509050019150506040518091039020886040518363ffffffff167c01000000000000000000000000000000000000000000000000000000000281526004018083600019166000191681526020018273ffffffffffffffffffffffffffffffffffffffff1673ffffffffffffffffffffffffffffffffffffffff16815260200192505050600060405180830381600087803b158015612cbd57600080fd5b505af1158015612cd1573d6000803e3d6000fd5b505050506001945050505050949350505050565b6000809054906101000a900473ffffffffffffffffffffffffffffffffffffffff1681565b6000806000809054906101000a900473ffffffffffffffffffffffffffffffffffffffff1673ffffffffffffffffffffffffffffffffffffffff16633b7bfda03360405160200180807f6f776e65720000000000000000000000000000000000000000000000000000008152506005018273ffffffffffffffffffffffffffffffffffffffff1673ffffffffffffffffffffffffffffffffffffffff166c010000000000000000000000000281526014019150506040516020818303038152906040526040518082805190602001908083835b602083101515612e025780518252602082019150602081019050602083039250612ddd565b6001836020036101000a03801982511681845116808217855250505050505090500191505060405180910390206040518263ffffffff167c0100000000000000000000000000000000000000000000000000000000028152600401808260001916600019168152602001915050602060405180830381600087803b158015612e8957600080fd5b505af1158015612e9d573d6000803e3d6000fd5b505050506040513d6020811015612eb357600080fd5b81019080805190602001909291905050501515612ecf57600080fd5b613055426000809054906101000a900473ffffffffffffffffffffffffffffffffffffffff1673ffffffffffffffffffffffffffffffffffffffff1663a855d4ce60405160200180807f707269636555706461746554696d656c696e650000000000000000000000000081525060130190506040516020818303038152906040526040518082805190602001908083835b602083101515612f855780518252602082019150602081019050602083039250612f60565b6001836020036101000a03801982511681845116808217855250505050505090500191505060405180910390206040518263ffffffff167c0100000000000000000000000000000000000000000000000000000000028152600401808260001916600019168152602001915050602060405180830381600087803b15801561300c57600080fd5b505af1158015613020573d6000803e3d6000fd5b505050506040513d602081101561303657600080fd5b8101908080519060200190929190505050613af390919063ffffffff16565b90507fd38dcdb50ceaae97a4774e63281643223c449adc1452b8c2761e9c5e2de3559b6000809054906101000a900473ffffffffffffffffffffffffffffffffffffffff1673ffffffffffffffffffffffffffffffffffffffff1663a855d4ce60405160200180807f6574685553445072696365000000000000000000000000000000000000000000815250600b0190506040516020818303038152906040526040518082805190602001908083835b60208310151561312a5780518252602082019150602081019050602083039250613105565b6001836020036101000a03801982511681845116808217855250505050505090500191505060405180910390206040518263ffffffff167c0100000000000000000000000000000000000000000000000000000000028152600401808260001916600019168152602001915050602060405180830381600087803b1580156131b157600080fd5b505af11580156131c5573d6000803e3d6000fd5b505050506040513d60208110156131db57600080fd5b81019080805190602001909291905050506000809054906101000a900473ffffffffffffffffffffffffffffffffffffffff1673ffffffffffffffffffffffffffffffffffffffff1663a855d4ce60405160200180807f6d79625553445072696365000000000000000000000000000000000000000000815250600b0190506040516020818303038152906040526040518082805190602001908083835b60208310151561329e5780518252602082019150602081019050602083039250613279565b6001836020036101000a03801982511681845116808217855250505050505090500191505060405180910390206040518263ffffffff167c0100000000000000000000000000000000000000000000000000000000028152600401808260001916600019168152602001915050602060405180830381600087803b15801561332557600080fd5b505af1158015613339573d6000803e3d6000fd5b505050506040513d602081101561334f57600080fd5b8101908080519060200190929190505050604051808381526020018281526020019250505060405180910390a16000809054906101000a900473ffffffffffffffffffffffffffffffffffffffff1673ffffffffffffffffffffffffffffffffffffffff1663e2a4853a60405160200180807f6574685553445072696365000000000000000000000000000000000000000000815250600b0190506040516020818303038152906040526040518082805190602001908083835b60208310151561342e5780518252602082019150602081019050602083039250613409565b6001836020036101000a0380198251168184511680821785525050505050509050019150506040518091039020866040518363ffffffff167c010000000000000000000000000000000000000000000000000000000002815260040180836000191660001916815260200182815260200192505050600060405180830381600087803b1580156134bd57600080fd5b505af11580156134d1573d6000803e3d6000fd5b505050506000809054906101000a900473ffffffffffffffffffffffffffffffffffffffff1673ffffffffffffffffffffffffffffffffffffffff1663e2a4853a60405160200180807f6d79625553445072696365000000000000000000000000000000000000000000815250600b0190506040516020818303038152906040526040518082805190602001908083835b6020831015156135875780518252602082019150602081019050602083039250613562565b6001836020036101000a0380198251168184511680821785525050505050509050019150506040518091039020856040518363ffffffff167c010000000000000000000000000000000000000000000000000000000002815260040180836000191660001916815260200182815260200192505050600060405180830381600087803b15801561361657600080fd5b505af115801561362a573d6000803e3d6000fd5b505050506000809054906101000a900473ffffffffffffffffffffffffffffffffffffffff1673ffffffffffffffffffffffffffffffffffffffff1663e2a4853a60405160200180807f707269636545787069726174696f6e0000000000000000000000000000000000815250600f0190506040516020818303038152906040526040518082805190602001908083835b6020831015156136e057805182526020820191506020810190506020830392506136bb565b6001836020036101000a0380198251168184511680821785525050505050509050019150506040518091039020836040518363ffffffff167c010000000000000000000000000000000000000000000000000000000002815260040180836000191660001916815260200182815260200192505050600060405180830381600087803b15801561376f57600080fd5b505af1158015613783573d6000803e3d6000fd5b50505050600191505092915050565b60008060009054906101000a900473ffffffffffffffffffffffffffffffffffffffff1673ffffffffffffffffffffffffffffffffffffffff16633b7bfda03360405160200180807f6f776e65720000000000000000000000000000000000000000000000000000008152506005018273ffffffffffffffffffffffffffffffffffffffff1673ffffffffffffffffffffffffffffffffffffffff166c010000000000000000000000000281526014019150506040516020818303038152906040526040518082805190602001908083835b6020831015156138895780518252602082019150602081019050602083039250613864565b6001836020036101000a03801982511681845116808217855250505050505090500191505060405180910390206040518263ffffffff167c0100000000000000000000000000000000000000000000000000000000028152600401808260001916600019168152602001915050602060405180830381600087803b15801561391057600080fd5b505af1158015613924573d6000803e3d6000fd5b505050506040513d602081101561393a57600080fd5b8101908080519060200190929190505050151561395657600080fd5b6000809054906101000a900473ffffffffffffffffffffffffffffffffffffffff1673ffffffffffffffffffffffffffffffffffffffff1663e2a4853a60405160200180807f707269636555706461746554696d656c696e650000000000000000000000000081525060130190506040516020818303038152906040526040518082805190602001908083835b602083101515613a0857805182526020820191506020810190506020830392506139e3565b6001836020036101000a0380198251168184511680821785525050505050509050019150506040518091039020846040518363ffffffff167c010000000000000000000000000000000000000000000000000000000002815260040180836000191660001916815260200182815260200192505050600060405180830381600087803b158015613a9757600080fd5b505af1158015613aab573d6000803e3d6000fd5b5050505060019050919050565b6000806000841415613acd5760009150613aec565b8284029050828482811515613ade57fe5b04141515613ae857fe5b8091505b5092915050565b6000808284019050838110151515613b0757fe5b80915050929150505600a165627a7a723058209a331c9ad94819d92ca317587eedb265ec42c2b36b4be16618e8cc53c30fe40f0029",
  "source": "pragma solidity 0.4.24;\n\nimport './Database.sol';\nimport './SafeMath.sol'; \n\n//------------------------------------------------------------------------------------------\n// This contract is involved in setting default variables.\n// Must be deployed before platform can be run\n//------------------------------------------------------------------------------------------\ncontract InitialVariables {\n  using SafeMath for uint; \n\nDatabase public database;\n\n//------------------------------------------------------------------------------------------\n// Constructor: Initialize Database\n//------------------------------------------------------------------------------------------\nconstructor(address _database)\npublic {\n  database = Database(_database);\n}\n//------------------------------------------------------------------------------------------\n// Initialized important variables\n//------------------------------------------------------------------------------------------\nfunction startDapp(address _myBitFoundation, address _installerEscrow)\nexternal  {\n  require(database.boolStorage(keccak256(abi.encodePacked(\"owner\", msg.sender))));\n  require(_myBitFoundation != address(0) && _installerEscrow != address(0));\n  // --------------------Set Local Wallets-------------------------\n  database.setAddress(keccak256(abi.encodePacked(\"MyBitFoundation\")), _myBitFoundation);\n  database.setAddress(keccak256(abi.encodePacked(\"InstallerEscrow\")), _installerEscrow);\n  // --------------------Asset Creation Variables-----------------\n  database.setUint(keccak256(abi.encodePacked(\"myBitFoundationPercentage\")), uint(1));\n  database.setUint(keccak256(abi.encodePacked(\"installerPercentage\")), uint(99));\n  // ---------------------Access Price in USD--------------------------\n  database.setUint(keccak256(abi.encodePacked(\"accessTokenFee\", uint(1))), uint(25).mul(10**21));    // Add 18 decimals * 10^3 for MYB price \n  database.setUint(keccak256(abi.encodePacked(\"accessTokenFee\", uint(2))), uint(75).mul(10**21));    // Add 18 decimals * 10^3 for MYB price \n  database.setUint(keccak256(abi.encodePacked(\"accessTokenFee\", uint(3))), uint(100).mul(10**21));   // Add 18 decimals * 10^3 for MYB price \n  // -------------Oracle Variables-------------------------\n  database.setUint(keccak256(abi.encodePacked(\"priceUpdateTimeline\")), uint(86400));     // Market prices need to be updated every 24 hours\n  emit LogInitialized(msg.sender, address(database));\n}\n\n// ------------------------------------------------------------------------------------------------\n//  Change MyBitFoundation address\n// ------------------------------------------------------------------------------------------------\nfunction changeFoundationAddress(address _signer, string _functionName, address _newAddress)\nexternal\nnoEmptyAddress(_newAddress)\nanyOwner\nmultiSigRequired(_signer, _functionName, keccak256(abi.encodePacked(_newAddress))) \nreturns (bool) {\n  database.setAddress(keccak256(abi.encodePacked(\"MyBitFoundation\")), _newAddress);\n  return true; \n}\n\n// ------------------------------------------------------------------------------------------------\n//  Change InstallerEsrow address\n// ------------------------------------------------------------------------------------------------\nfunction changeInstallerEscrowAddress(address _signer, string _functionName, address _newAddress)\nexternal\nnoEmptyAddress(_newAddress)\nanyOwner\nmultiSigRequired(_signer, _functionName, keccak256(abi.encodePacked(_newAddress))) \nreturns (bool) {\n  database.setAddress(keccak256(abi.encodePacked(\"InstallerEscrow\")), _newAddress);\n  return true; \n}\n\n// ------------------------------------------------------------------------------------------------\n//  Change MyBitFoundation address\n// ------------------------------------------------------------------------------------------------\nfunction changeAccessTokenFee(address _signer, string _functionName, uint _accessLevel, uint _newPrice)\nexternal\nanyOwner \nmultiSigRequired(_signer, _functionName, keccak256(abi.encodePacked(_accessLevel, _newPrice))) \nreturns (bool) {\n  database.setUint(keccak256(abi.encodePacked(\"accessTokenFee\", _accessLevel)), _newPrice);\n  return true;\n}\n\n// ------------------------------------------------------------------------------------------------\n//  Set 24hr prices\n// ------------------------------------------------------------------------------------------------\nfunction setDailyPrices(uint _ethPrice, uint _mybPrice)\nexternal \nanyOwner \nreturns (bool) { \n    uint priceExpiration = database.uintStorage(keccak256(abi.encodePacked(\"priceUpdateTimeline\"))).add(now);\n    emit LogPriceUpdate(database.uintStorage(keccak256(abi.encodePacked(\"ethUSDPrice\"))),database.uintStorage(keccak256(abi.encodePacked(\"mybUSDPrice\")))); \n    database.setUint(keccak256(abi.encodePacked(\"ethUSDPrice\")), _ethPrice);\n    database.setUint(keccak256(abi.encodePacked(\"mybUSDPrice\")), _mybPrice);\n    database.setUint(keccak256(abi.encodePacked(\"priceExpiration\")), priceExpiration);\n    return true; \n}\n\nfunction changePriceUpdateTimeline(uint _newPriceExpiration)\nexternal\nanyOwner\nreturns (bool) { \n    database.setUint(keccak256(abi.encodePacked(\"priceUpdateTimeline\")), _newPriceExpiration);\n    return true;\n\n}\n\n\n// ------------------------------------------------------------------------------------------------\n//                                                Modifiers\n// ------------------------------------------------------------------------------------------------\n\n// ------------------------------------------------------------------------------------------------\n//  Verify that sender is an owner\n// ------------------------------------------------------------------------------------------------\nmodifier anyOwner {\n  require(database.boolStorage(keccak256(abi.encodePacked(\"owner\", msg.sender))));\n  _;\n}\n\n// ------------------------------------------------------------------------------------------------\n//  Verify address isn't null\n// ------------------------------------------------------------------------------------------------\nmodifier noEmptyAddress(address _contract) {\n  require(_contract != address(0));\n  _;\n}\n\n// ------------------------------------------------------------------------------------------------\n//  Verify that function has been signed off by another owner\n// ------------------------------------------------------------------------------------------------\nmodifier multiSigRequired(address _signer, string _functionName, bytes32 _keyParam) {\n  require(msg.sender != _signer);\n  require(database.boolStorage(keccak256(abi.encodePacked(address(this), _signer, _functionName, _keyParam))));\n  database.setBool(keccak256(abi.encodePacked(address(this), _signer, _functionName, _keyParam)), false);\n  _;\n}\n\n\n//------------------------------------------------------------------------------------------\n//                                  Events\n//------------------------------------------------------------------------------------------\nevent LogInitialized(address _sender, address _database);\nevent LogPriceUpdate(uint _oldETHPrice, uint _oldMYBPrice); \n\n}\n",
  "sourcePath": "/home/peter/Documents/Work/MyBit/MyBit-Network.tech/contracts/alphacontracts/contracts/InitialVariables.sol",
  "compiler": {
    "name": "solc",
    "version": "0.4.24+commit.e67f0147.Emscripten.clang"
  },
  "schemaVersion": "2.0.1",
  "updatedAt": "2018-09-08T14:16:35.210Z"
}