{
  "contractName": "KyberNetwork",
  "abi": [
    {
      "constant": false,
      "inputs": [
        {
          "name": "alerter",
          "type": "address"
        }
      ],
      "name": "removeAlerter",
      "outputs": [],
      "payable": false,
      "stateMutability": "nonpayable",
      "type": "function"
    },
    {
      "constant": true,
      "inputs": [
        {
          "name": "",
          "type": "bytes32"
        }
      ],
      "name": "infoFields",
      "outputs": [
        {
          "name": "",
          "type": "uint256"
        }
      ],
      "payable": false,
      "stateMutability": "view",
      "type": "function"
    },
    {
      "constant": true,
      "inputs": [],
      "name": "pendingAdmin",
      "outputs": [
        {
          "name": "",
          "type": "address"
        }
      ],
      "payable": false,
      "stateMutability": "view",
      "type": "function"
    },
    {
      "constant": true,
      "inputs": [],
      "name": "getOperators",
      "outputs": [
        {
          "name": "",
          "type": "address[]"
        }
      ],
      "payable": false,
      "stateMutability": "view",
      "type": "function"
    },
    {
      "constant": true,
      "inputs": [
        {
          "name": "",
          "type": "address"
        },
        {
          "name": "",
          "type": "uint256"
        }
      ],
      "name": "reservesPerTokenSrc",
      "outputs": [
        {
          "name": "",
          "type": "address"
        }
      ],
      "payable": false,
      "stateMutability": "view",
      "type": "function"
    },
    {
      "constant": false,
      "inputs": [
        {
          "name": "token",
          "type": "address"
        },
        {
          "name": "amount",
          "type": "uint256"
        },
        {
          "name": "sendTo",
          "type": "address"
        }
      ],
      "name": "withdrawToken",
      "outputs": [],
      "payable": false,
      "stateMutability": "nonpayable",
      "type": "function"
    },
    {
      "constant": false,
      "inputs": [
        {
          "name": "newAlerter",
          "type": "address"
        }
      ],
      "name": "addAlerter",
      "outputs": [],
      "payable": false,
      "stateMutability": "nonpayable",
      "type": "function"
    },
    {
      "constant": true,
      "inputs": [],
      "name": "negligibleRateDiff",
      "outputs": [
        {
          "name": "",
          "type": "uint256"
        }
      ],
      "payable": false,
      "stateMutability": "view",
      "type": "function"
    },
    {
      "constant": true,
      "inputs": [],
      "name": "feeBurnerContract",
      "outputs": [
        {
          "name": "",
          "type": "address"
        }
      ],
      "payable": false,
      "stateMutability": "view",
      "type": "function"
    },
    {
      "constant": true,
      "inputs": [],
      "name": "expectedRateContract",
      "outputs": [
        {
          "name": "",
          "type": "address"
        }
      ],
      "payable": false,
      "stateMutability": "view",
      "type": "function"
    },
    {
      "constant": true,
      "inputs": [],
      "name": "whiteListContract",
      "outputs": [
        {
          "name": "",
          "type": "address"
        }
      ],
      "payable": false,
      "stateMutability": "view",
      "type": "function"
    },
    {
      "constant": true,
      "inputs": [],
      "name": "isEnabled",
      "outputs": [
        {
          "name": "",
          "type": "bool"
        }
      ],
      "payable": false,
      "stateMutability": "view",
      "type": "function"
    },
    {
      "constant": true,
      "inputs": [
        {
          "name": "",
          "type": "address"
        }
      ],
      "name": "reserveType",
      "outputs": [
        {
          "name": "",
          "type": "uint8"
        }
      ],
      "payable": false,
      "stateMutability": "view",
      "type": "function"
    },
    {
      "constant": false,
      "inputs": [
        {
          "name": "newAdmin",
          "type": "address"
        }
      ],
      "name": "transferAdmin",
      "outputs": [],
      "payable": false,
      "stateMutability": "nonpayable",
      "type": "function"
    },
    {
      "constant": false,
      "inputs": [],
      "name": "claimAdmin",
      "outputs": [],
      "payable": false,
      "stateMutability": "nonpayable",
      "type": "function"
    },
    {
      "constant": true,
      "inputs": [],
      "name": "kyberNetworkProxyContract",
      "outputs": [
        {
          "name": "",
          "type": "address"
        }
      ],
      "payable": false,
      "stateMutability": "view",
      "type": "function"
    },
    {
      "constant": false,
      "inputs": [
        {
          "name": "newAdmin",
          "type": "address"
        }
      ],
      "name": "transferAdminQuickly",
      "outputs": [],
      "payable": false,
      "stateMutability": "nonpayable",
      "type": "function"
    },
    {
      "constant": true,
      "inputs": [],
      "name": "getAlerters",
      "outputs": [
        {
          "name": "",
          "type": "address[]"
        }
      ],
      "payable": false,
      "stateMutability": "view",
      "type": "function"
    },
    {
      "constant": true,
      "inputs": [
        {
          "name": "",
          "type": "uint256"
        }
      ],
      "name": "reserves",
      "outputs": [
        {
          "name": "",
          "type": "address"
        }
      ],
      "payable": false,
      "stateMutability": "view",
      "type": "function"
    },
    {
      "constant": true,
      "inputs": [],
      "name": "PERM_HINT",
      "outputs": [
        {
          "name": "",
          "type": "bytes"
        }
      ],
      "payable": false,
      "stateMutability": "view",
      "type": "function"
    },
    {
      "constant": true,
      "inputs": [
        {
          "name": "",
          "type": "address"
        },
        {
          "name": "",
          "type": "uint256"
        }
      ],
      "name": "reservesPerTokenDest",
      "outputs": [
        {
          "name": "",
          "type": "address"
        }
      ],
      "payable": false,
      "stateMutability": "view",
      "type": "function"
    },
    {
      "constant": false,
      "inputs": [
        {
          "name": "newOperator",
          "type": "address"
        }
      ],
      "name": "addOperator",
      "outputs": [],
      "payable": false,
      "stateMutability": "nonpayable",
      "type": "function"
    },
    {
      "constant": false,
      "inputs": [
        {
          "name": "operator",
          "type": "address"
        }
      ],
      "name": "removeOperator",
      "outputs": [],
      "payable": false,
      "stateMutability": "nonpayable",
      "type": "function"
    },
    {
      "constant": true,
      "inputs": [],
      "name": "maxGasPriceValue",
      "outputs": [
        {
          "name": "",
          "type": "uint256"
        }
      ],
      "payable": false,
      "stateMutability": "view",
      "type": "function"
    },
    {
      "constant": true,
      "inputs": [],
      "name": "PERM_HINT_GET_RATE",
      "outputs": [
        {
          "name": "",
          "type": "uint256"
        }
      ],
      "payable": false,
      "stateMutability": "view",
      "type": "function"
    },
    {
      "constant": false,
      "inputs": [
        {
          "name": "amount",
          "type": "uint256"
        },
        {
          "name": "sendTo",
          "type": "address"
        }
      ],
      "name": "withdrawEther",
      "outputs": [],
      "payable": false,
      "stateMutability": "nonpayable",
      "type": "function"
    },
    {
      "constant": true,
      "inputs": [
        {
          "name": "token",
          "type": "address"
        },
        {
          "name": "user",
          "type": "address"
        }
      ],
      "name": "getBalance",
      "outputs": [
        {
          "name": "",
          "type": "uint256"
        }
      ],
      "payable": false,
      "stateMutability": "view",
      "type": "function"
    },
    {
      "constant": true,
      "inputs": [],
      "name": "admin",
      "outputs": [
        {
          "name": "",
          "type": "address"
        }
      ],
      "payable": false,
      "stateMutability": "view",
      "type": "function"
    },
    {
      "inputs": [
        {
          "name": "_admin",
          "type": "address"
        }
      ],
      "payable": false,
      "stateMutability": "nonpayable",
      "type": "constructor"
    },
    {
      "payable": true,
      "stateMutability": "payable",
      "type": "fallback"
    },
    {
      "anonymous": false,
      "inputs": [
        {
          "indexed": true,
          "name": "sender",
          "type": "address"
        },
        {
          "indexed": false,
          "name": "amount",
          "type": "uint256"
        }
      ],
      "name": "EtherReceival",
      "type": "event"
    },
    {
      "anonymous": false,
      "inputs": [
        {
          "indexed": true,
          "name": "reserve",
          "type": "address"
        },
        {
          "indexed": false,
          "name": "add",
          "type": "bool"
        },
        {
          "indexed": false,
          "name": "isPermissionless",
          "type": "bool"
        }
      ],
      "name": "AddReserveToNetwork",
      "type": "event"
    },
    {
      "anonymous": false,
      "inputs": [
        {
          "indexed": false,
          "name": "reserve",
          "type": "address"
        }
      ],
      "name": "RemoveReserveFromNetwork",
      "type": "event"
    },
    {
      "anonymous": false,
      "inputs": [
        {
          "indexed": true,
          "name": "reserve",
          "type": "address"
        },
        {
          "indexed": false,
          "name": "src",
          "type": "address"
        },
        {
          "indexed": false,
          "name": "dest",
          "type": "address"
        },
        {
          "indexed": false,
          "name": "add",
          "type": "bool"
        }
      ],
      "name": "ListReservePairs",
      "type": "event"
    },
    {
      "anonymous": false,
      "inputs": [
        {
          "indexed": false,
          "name": "newContract",
          "type": "address"
        },
        {
          "indexed": false,
          "name": "currentContract",
          "type": "address"
        }
      ],
      "name": "WhiteListContractSet",
      "type": "event"
    },
    {
      "anonymous": false,
      "inputs": [
        {
          "indexed": false,
          "name": "newContract",
          "type": "address"
        },
        {
          "indexed": false,
          "name": "currentContract",
          "type": "address"
        }
      ],
      "name": "ExpectedRateContractSet",
      "type": "event"
    },
    {
      "anonymous": false,
      "inputs": [
        {
          "indexed": false,
          "name": "newContract",
          "type": "address"
        },
        {
          "indexed": false,
          "name": "currentContract",
          "type": "address"
        }
      ],
      "name": "FeeBurnerContractSet",
      "type": "event"
    },
    {
      "anonymous": false,
      "inputs": [
        {
          "indexed": false,
          "name": "maxGasPrice",
          "type": "uint256"
        },
        {
          "indexed": false,
          "name": "negligibleRateDiff",
          "type": "uint256"
        }
      ],
      "name": "KyberNetwrokParamsSet",
      "type": "event"
    },
    {
      "anonymous": false,
      "inputs": [
        {
          "indexed": false,
          "name": "isEnabled",
          "type": "bool"
        }
      ],
      "name": "KyberNetworkSetEnable",
      "type": "event"
    },
    {
      "anonymous": false,
      "inputs": [
        {
          "indexed": false,
          "name": "proxy",
          "type": "address"
        },
        {
          "indexed": false,
          "name": "sender",
          "type": "address"
        }
      ],
      "name": "KyberProxySet",
      "type": "event"
    },
    {
      "anonymous": false,
      "inputs": [
        {
          "indexed": true,
          "name": "trader",
          "type": "address"
        },
        {
          "indexed": false,
          "name": "src",
          "type": "address"
        },
        {
          "indexed": false,
          "name": "dest",
          "type": "address"
        },
        {
          "indexed": false,
          "name": "srcAmount",
          "type": "uint256"
        },
        {
          "indexed": false,
          "name": "dstAmount",
          "type": "uint256"
        },
        {
          "indexed": false,
          "name": "destAddress",
          "type": "address"
        },
        {
          "indexed": false,
          "name": "ethWeiValue",
          "type": "uint256"
        },
        {
          "indexed": false,
          "name": "reserve1",
          "type": "address"
        },
        {
          "indexed": false,
          "name": "reserve2",
          "type": "address"
        },
        {
          "indexed": false,
          "name": "hint",
          "type": "bytes"
        }
      ],
      "name": "KyberTrade",
      "type": "event"
    },
    {
      "anonymous": false,
      "inputs": [
        {
          "indexed": false,
          "name": "token",
          "type": "address"
        },
        {
          "indexed": false,
          "name": "amount",
          "type": "uint256"
        },
        {
          "indexed": false,
          "name": "sendTo",
          "type": "address"
        }
      ],
      "name": "TokenWithdraw",
      "type": "event"
    },
    {
      "anonymous": false,
      "inputs": [
        {
          "indexed": false,
          "name": "amount",
          "type": "uint256"
        },
        {
          "indexed": false,
          "name": "sendTo",
          "type": "address"
        }
      ],
      "name": "EtherWithdraw",
      "type": "event"
    },
    {
      "anonymous": false,
      "inputs": [
        {
          "indexed": false,
          "name": "pendingAdmin",
          "type": "address"
        }
      ],
      "name": "TransferAdminPending",
      "type": "event"
    },
    {
      "anonymous": false,
      "inputs": [
        {
          "indexed": false,
          "name": "newAdmin",
          "type": "address"
        },
        {
          "indexed": false,
          "name": "previousAdmin",
          "type": "address"
        }
      ],
      "name": "AdminClaimed",
      "type": "event"
    },
    {
      "anonymous": false,
      "inputs": [
        {
          "indexed": false,
          "name": "newAlerter",
          "type": "address"
        },
        {
          "indexed": false,
          "name": "isAdd",
          "type": "bool"
        }
      ],
      "name": "AlerterAdded",
      "type": "event"
    },
    {
      "anonymous": false,
      "inputs": [
        {
          "indexed": false,
          "name": "newOperator",
          "type": "address"
        },
        {
          "indexed": false,
          "name": "isAdd",
          "type": "bool"
        }
      ],
      "name": "OperatorAdded",
      "type": "event"
    },
    {
      "constant": false,
      "inputs": [
        {
          "name": "trader",
          "type": "address"
        },
        {
          "name": "src",
          "type": "address"
        },
        {
          "name": "srcAmount",
          "type": "uint256"
        },
        {
          "name": "dest",
          "type": "address"
        },
        {
          "name": "destAddress",
          "type": "address"
        },
        {
          "name": "maxDestAmount",
          "type": "uint256"
        },
        {
          "name": "minConversionRate",
          "type": "uint256"
        },
        {
          "name": "walletId",
          "type": "address"
        },
        {
          "name": "hint",
          "type": "bytes"
        }
      ],
      "name": "tradeWHint",
      "outputs": [
        {
          "name": "",
          "type": "uint256"
        }
      ],
      "payable": true,
      "stateMutability": "payable",
      "type": "function"
    },
    {
      "constant": false,
      "inputs": [
        {
          "name": "reserve",
          "type": "address"
        },
        {
          "name": "isPermissionless",
          "type": "bool"
        }
      ],
      "name": "addReserve",
      "outputs": [
        {
          "name": "",
          "type": "bool"
        }
      ],
      "payable": false,
      "stateMutability": "nonpayable",
      "type": "function"
    },
    {
      "constant": false,
      "inputs": [
        {
          "name": "reserve",
          "type": "address"
        },
        {
          "name": "index",
          "type": "uint256"
        }
      ],
      "name": "removeReserve",
      "outputs": [
        {
          "name": "",
          "type": "bool"
        }
      ],
      "payable": false,
      "stateMutability": "nonpayable",
      "type": "function"
    },
    {
      "constant": false,
      "inputs": [
        {
          "name": "reserve",
          "type": "address"
        },
        {
          "name": "token",
          "type": "address"
        },
        {
          "name": "ethToToken",
          "type": "bool"
        },
        {
          "name": "tokenToEth",
          "type": "bool"
        },
        {
          "name": "add",
          "type": "bool"
        }
      ],
      "name": "listPairForReserve",
      "outputs": [
        {
          "name": "",
          "type": "bool"
        }
      ],
      "payable": false,
      "stateMutability": "nonpayable",
      "type": "function"
    },
    {
      "constant": false,
      "inputs": [
        {
          "name": "whiteList",
          "type": "address"
        }
      ],
      "name": "setWhiteList",
      "outputs": [],
      "payable": false,
      "stateMutability": "nonpayable",
      "type": "function"
    },
    {
      "constant": false,
      "inputs": [
        {
          "name": "expectedRate",
          "type": "address"
        }
      ],
      "name": "setExpectedRate",
      "outputs": [],
      "payable": false,
      "stateMutability": "nonpayable",
      "type": "function"
    },
    {
      "constant": false,
      "inputs": [
        {
          "name": "feeBurner",
          "type": "address"
        }
      ],
      "name": "setFeeBurner",
      "outputs": [],
      "payable": false,
      "stateMutability": "nonpayable",
      "type": "function"
    },
    {
      "constant": false,
      "inputs": [
        {
          "name": "_maxGasPrice",
          "type": "uint256"
        },
        {
          "name": "_negligibleRateDiff",
          "type": "uint256"
        }
      ],
      "name": "setParams",
      "outputs": [],
      "payable": false,
      "stateMutability": "nonpayable",
      "type": "function"
    },
    {
      "constant": false,
      "inputs": [
        {
          "name": "_enable",
          "type": "bool"
        }
      ],
      "name": "setEnable",
      "outputs": [],
      "payable": false,
      "stateMutability": "nonpayable",
      "type": "function"
    },
    {
      "constant": false,
      "inputs": [
        {
          "name": "field",
          "type": "bytes32"
        },
        {
          "name": "value",
          "type": "uint256"
        }
      ],
      "name": "setInfo",
      "outputs": [],
      "payable": false,
      "stateMutability": "nonpayable",
      "type": "function"
    },
    {
      "constant": false,
      "inputs": [
        {
          "name": "networkProxy",
          "type": "address"
        }
      ],
      "name": "setKyberProxy",
      "outputs": [],
      "payable": false,
      "stateMutability": "nonpayable",
      "type": "function"
    },
    {
      "constant": true,
      "inputs": [],
      "name": "getNumReserves",
      "outputs": [
        {
          "name": "",
          "type": "uint256"
        }
      ],
      "payable": false,
      "stateMutability": "view",
      "type": "function"
    },
    {
      "constant": true,
      "inputs": [],
      "name": "getReserves",
      "outputs": [
        {
          "name": "",
          "type": "address[]"
        }
      ],
      "payable": false,
      "stateMutability": "view",
      "type": "function"
    },
    {
      "constant": true,
      "inputs": [],
      "name": "maxGasPrice",
      "outputs": [
        {
          "name": "",
          "type": "uint256"
        }
      ],
      "payable": false,
      "stateMutability": "view",
      "type": "function"
    },
    {
      "constant": true,
      "inputs": [
        {
          "name": "src",
          "type": "address"
        },
        {
          "name": "dest",
          "type": "address"
        },
        {
          "name": "srcQty",
          "type": "uint256"
        }
      ],
      "name": "getExpectedRate",
      "outputs": [
        {
          "name": "expectedRate",
          "type": "uint256"
        },
        {
          "name": "slippageRate",
          "type": "uint256"
        }
      ],
      "payable": false,
      "stateMutability": "view",
      "type": "function"
    },
    {
      "constant": true,
      "inputs": [
        {
          "name": "src",
          "type": "address"
        },
        {
          "name": "dest",
          "type": "address"
        },
        {
          "name": "srcQty",
          "type": "uint256"
        }
      ],
      "name": "getExpectedRateOnlyPermission",
      "outputs": [
        {
          "name": "expectedRate",
          "type": "uint256"
        },
        {
          "name": "slippageRate",
          "type": "uint256"
        }
      ],
      "payable": false,
      "stateMutability": "view",
      "type": "function"
    },
    {
      "constant": true,
      "inputs": [
        {
          "name": "user",
          "type": "address"
        }
      ],
      "name": "getUserCapInWei",
      "outputs": [
        {
          "name": "",
          "type": "uint256"
        }
      ],
      "payable": false,
      "stateMutability": "view",
      "type": "function"
    },
    {
      "constant": true,
      "inputs": [
        {
          "name": "user",
          "type": "address"
        },
        {
          "name": "token",
          "type": "address"
        }
      ],
      "name": "getUserCapInTokenWei",
      "outputs": [
        {
          "name": "",
          "type": "uint256"
        }
      ],
      "payable": false,
      "stateMutability": "view",
      "type": "function"
    },
    {
      "constant": true,
      "inputs": [
        {
          "name": "src",
          "type": "address"
        },
        {
          "name": "dest",
          "type": "address"
        },
        {
          "name": "srcAmount",
          "type": "uint256"
        }
      ],
      "name": "findBestRate",
      "outputs": [
        {
          "name": "obsolete",
          "type": "uint256"
        },
        {
          "name": "rate",
          "type": "uint256"
        }
      ],
      "payable": false,
      "stateMutability": "view",
      "type": "function"
    },
    {
      "constant": true,
      "inputs": [
        {
          "name": "src",
          "type": "address"
        },
        {
          "name": "dest",
          "type": "address"
        },
        {
          "name": "srcAmount",
          "type": "uint256"
        }
      ],
      "name": "findBestRateOnlyPermission",
      "outputs": [
        {
          "name": "obsolete",
          "type": "uint256"
        },
        {
          "name": "rate",
          "type": "uint256"
        }
      ],
      "payable": false,
      "stateMutability": "view",
      "type": "function"
    },
    {
      "constant": true,
      "inputs": [],
      "name": "enabled",
      "outputs": [
        {
          "name": "",
          "type": "bool"
        }
      ],
      "payable": false,
      "stateMutability": "view",
      "type": "function"
    },
    {
      "constant": true,
      "inputs": [
        {
          "name": "field",
          "type": "bytes32"
        }
      ],
      "name": "info",
      "outputs": [
        {
          "name": "",
          "type": "uint256"
        }
      ],
      "payable": false,
      "stateMutability": "view",
      "type": "function"
    },
    {
      "constant": true,
      "inputs": [
        {
          "name": "src",
          "type": "address"
        },
        {
          "name": "dest",
          "type": "address"
        },
        {
          "name": "srcAmount",
          "type": "uint256"
        },
        {
          "name": "usePermissionless",
          "type": "bool"
        }
      ],
      "name": "searchBestRate",
      "outputs": [
        {
          "name": "",
          "type": "address"
        },
        {
          "name": "",
          "type": "uint256"
        }
      ],
      "payable": false,
      "stateMutability": "view",
      "type": "function"
    }
  ],
  "bytecode": "0x60806040526001600755600a600855640ba43b7400600f556010805460ff1916905534801561002d57600080fd5b50604051602080613c0f833981016040525160008054600160a060020a03191633179055600160a060020a038116151561006657600080fd5b60008054600160a060020a03909216600160a060020a0319909216919091179055613b79806100966000396000f30060806040526004361061024d5763ffffffff60e060020a60003504166301a12fd381146102ae5780630902f1ac146102d15780630c235d96146103365780631610b59b146103885780631a79464e146103b25780631dc1f78d146103d3578063238dafe014610416578063249715b31461043f578063267822471461046357806327a099d8146104945780632ab8fc2d146104a957806339e899ee146104cd5780633ccdbb28146104ee5780633de39c1114610519578063408ee7fe1461052e5780634cef5a5c1461054f578063579425b7146105645780635d270cdc146105795780635dada9641461059a5780635ed5ea28146105af5780635f65d703146105c45780635f991cc8146105df5780636432679f146106265780636aa633b614610647578063749f95bf1461065c57806375829def146106a15780637726bed3146106c257806377f50f97146106dc578063785250da146106f15780637acc8678146107065780637c423f5414610727578063809a9e551461073c5780638334278d1461076657806385dc0c561461077e5780638b98a2c5146107a85780638eaaeecf14610832578063937e909b146108595780639870d7fe1461087d578063a0d7bb1b1461089e578063ac8a584a146108c4578063b2d111f6146108e5578063b64a097e146108fa578063b8388aca14610912578063c0324c771461093c578063c0919ac614610957578063c6c3f3f91461096c578063ce56c4541461098d578063cfff25bb146109b1578063d4fac45d146109c6578063e02584bf146109ed578063f851a44014610a23575b336000908152600a602052604081205460ff16600281111561026b57fe5b141561027657600080fd5b60408051348152905133917f75f33ed68675112c77094e7c5b073890598be1d23e27cd7f6907b4a7d98ac619919081900360200190a2005b3480156102ba57600080fd5b506102cf600160a060020a0360043516610a38565b005b3480156102dd57600080fd5b506102e6610ba1565b60408051602080825283518183015283519192839290830191858101910280838360005b8381101561032257818101518382015260200161030a565b505050509050019250505060405180910390f35b34801561034257600080fd5b50610365600160a060020a03600435811690602435166044356064351515610c04565b60408051600160a060020a03909316835260208301919091528051918290030190f35b34801561039457600080fd5b506103a0600435611040565b60408051918252519081900360200190f35b3480156103be57600080fd5b506102cf600160a060020a0360043516611052565b3480156103df57600080fd5b506103fd600160a060020a03600435811690602435166044356110e8565b6040805192835260208301919091528051918290030190f35b34801561042257600080fd5b5061042b611143565b604080519115158252519081900360200190f35b34801561044b57600080fd5b5061042b600160a060020a036004351660243561114c565b34801561046f57600080fd5b506104786112af565b60408051600160a060020a039092168252519081900360200190f35b3480156104a057600080fd5b506102e66112be565b3480156104b557600080fd5b50610478600160a060020a036004351660243561131e565b3480156104d957600080fd5b506102cf600160a060020a0360043516611355565b3480156104fa57600080fd5b506102cf600160a060020a0360043581169060243590604435166113d6565b34801561052557600080fd5b506103a06114d6565b34801561053a57600080fd5b506102cf600160a060020a03600435166114dc565b34801561055b57600080fd5b506103a06115d2565b34801561057057600080fd5b506104786115d8565b34801561058557600080fd5b506102cf600160a060020a03600435166115e7565b3480156105a657600080fd5b5061047861167d565b3480156105bb57600080fd5b5061047861168c565b3480156105d057600080fd5b506102cf60043560243561169b565b6103a0600160a060020a0360048035821691602480358216926044359260643581169260843582169260a4359260c4359260e43590911691610104359182019101356116cb565b34801561063257600080fd5b506103a0600160a060020a03600435166117b1565b34801561065357600080fd5b5061042b61186d565b34801561066857600080fd5b5061067d600160a060020a0360043516611876565b6040518082600281111561068d57fe5b60ff16815260200191505060405180910390f35b3480156106ad57600080fd5b506102cf600160a060020a036004351661188b565b3480156106ce57600080fd5b506102cf6004351515611918565b3480156106e857600080fd5b506102cf6119c6565b3480156106fd57600080fd5b50610478611a50565b34801561071257600080fd5b506102cf600160a060020a0360043516611a5f565b34801561073357600080fd5b506102e6611b31565b34801561074857600080fd5b506103fd600160a060020a0360043581169060243516604435611b91565b34801561077257600080fd5b50610478600435611ca6565b34801561078a57600080fd5b506103fd600160a060020a0360043581169060243516604435611cce565b3480156107b457600080fd5b506107bd611da8565b6040805160208082528351818301528351919283929083019185019080838360005b838110156107f75781810151838201526020016107df565b50505050905090810190601f1680156108245780820380516001836020036101000a031916815260200191505b509250505060405180910390f35b34801561083e57600080fd5b506103a0600160a060020a0360043581169060243516611ddf565b34801561086557600080fd5b50610478600160a060020a0360043516602435611de5565b34801561088957600080fd5b506102cf600160a060020a0360043516611e00565b3480156108aa57600080fd5b5061042b600160a060020a03600435166024351515611ef6565b3480156108d057600080fd5b506102cf600160a060020a036004351661201e565b3480156108f157600080fd5b506103a0612183565b34801561090657600080fd5b506103a0600435612189565b34801561091e57600080fd5b506103fd600160a060020a036004358116906024351660443561219b565b34801561094857600080fd5b506102cf6004356024356121c2565b34801561096357600080fd5b506103a0612231565b34801561097857600080fd5b506102cf600160a060020a0360043516612239565b34801561099957600080fd5b506102cf600435600160a060020a03602435166122c5565b3480156109bd57600080fd5b506103a061235a565b3480156109d257600080fd5b506103a0600160a060020a0360043581169060243516612360565b3480156109f957600080fd5b5061042b600160a060020a0360043581169060243516604435151560643515156084351515612420565b348015610a2f57600080fd5b506104786126b1565b60008054600160a060020a03163314610a5057600080fd5b600160a060020a03821660009081526003602052604090205460ff161515610a7757600080fd5b50600160a060020a0381166000908152600360205260408120805460ff191690555b600554811015610b9d5781600160a060020a0316600582815481101515610abc57fe5b600091825260209091200154600160a060020a03161415610b9557600580546000198101908110610ae957fe5b60009182526020909120015460058054600160a060020a039092169183908110610b0f57fe5b60009182526020909120018054600160a060020a031916600160a060020a03929092169190911790556005805490610b4b906000198301613a1c565b5060408051600160a060020a03841681526000602082015281517f5611bf3e417d124f97bf2c788843ea8bb502b66079fbee02158ef30b172cb762929181900390910190a1610b9d565b600101610a99565b5050565b60606009805480602002602001604051908101604052809291908181526020018280548015610bf957602002820191906000526020600020905b8154600160a060020a03168152600190910190602001808311610bdb575b505050505090505b90565b600080808080606080808380600160a060020a038e8116908e161415610c59576009805488908110610c3257fe5b600091825260209091200154600160a060020a03169950670de0b6b3a7640000985061102f565b600160a060020a038e16600080516020613b2e83398151915214610c9457600160a060020a038e166000908152601260205260409020610cad565b600160a060020a038d1660009081526013602052604090205b805480602002602001604051908101604052809291908181526020018280548015610d0157602002820191906000526020600020905b8154600160a060020a03168152600190910190602001808311610ce3575b50505050509450845160001415610d41576009805488908110610d2057fe5b600091825260209091200154600160a060020a03169950969750879661102f565b8451604051908082528060200260200182016040528015610d6c578160200160208202803883390190505b5093508451604051908082528060200260200182016040528015610d9a578160200160208202803883390190505b509250600091505b8451821015610f2b578a158015610dfb57506002600a60008785815181101515610dc857fe5b6020908102909101810151600160a060020a031682528101919091526040016000205460ff166002811115610df957fe5b145b15610e0557610f20565b8482815181101515610e1357fe5b90602001906020020151600160a060020a0316637cd442728f8f8f436040518563ffffffff1660e060020a0281526004018085600160a060020a0316600160a060020a0316815260200184600160a060020a0316600160a060020a03168152602001838152602001828152602001945050505050602060405180830381600087803b158015610ea157600080fd5b505af1158015610eb5573d6000803e3d6000fd5b505050506040513d6020811015610ecb57600080fd5b50518451859084908110610edb57fe5b6020908102909101015283518890859084908110610ef557fe5b906020019060200201511115610f20578382815181101515610f1357fe5b9060200190602002015197505b600190910190610da2565b600088111561101157600854612710018861271002811515610f4957fe5b049050600091505b8451821015610fa257808483815181101515610f6957fe5b6020908102909101015110610f97578251600187019683918591908110610f8c57fe5b602090810290910101525b600190910190610f51565b6001861115610fda578286600019430140811515610fbc57fe5b06815181101515610fc957fe5b906020019060200201519650610ff6565b826000815181101515610fe957fe5b9060200190602002015196505b838781518110151561100457fe5b9060200190602002015197505b848781518110151561101f57fe5b9060200190602002015188995099505b505050505050505094509492505050565b60116020526000908152604090205481565b600054600160a060020a0316331461106957600080fd5b600160a060020a038116151561107e57600080fd5b600d5460408051600160a060020a038085168252909216602083015280517f91251c8b04e3ed4b921776c3aced2ad433c3701257fc5666cb35239ec4df54119281900390910190a1600d8054600160a060020a031916600160a060020a0392909216919091179055565b6000806110f3613a45565b6111348686866040805190810160405280600481526020017f5045524d000000000000000000000000000000000000000000000000000000008152506126c0565b51600097909650945050505050565b60105460ff1690565b3360009081526002602052604081205460ff16151561116a57600080fd5b600160a060020a0383166000908152600a602052604081205460ff16600281111561119157fe5b141561119c57600080fd5b82600160a060020a03166009838154811015156111b557fe5b600091825260209091200154600160a060020a0316146111d457600080fd5b600160a060020a0383166000908152600a60205260409020805460ff1916905560098054600019810190811061120657fe5b60009182526020909120015460098054600160a060020a03909216918490811061122c57fe5b60009182526020909120018054600160a060020a031916600160a060020a03929092169190911790556009805490611268906000198301613a1c565b5060408051600160a060020a038516815290517f861f07ab6bad95b71c362ed240dc0082c3d9bbfe75e7830be646ef0d61da31179181900360200190a15060015b92915050565b600154600160a060020a031681565b60606004805480602002602001604051908101604052809291908181526020018280548015610bf957602002820191906000526020600020908154600160a060020a03168152600190910190602001808311610bdb575050505050905090565b60126020528160005260406000208181548110151561133957fe5b600091825260209091200154600160a060020a03169150829050565b600054600160a060020a0316331461136c57600080fd5b600b5460408051600160a060020a038085168252909216602083015280517f1eae61fde1a37f65af69f00b4269aa5fda423f684194d303865cba6c650b23669281900390910190a1600b8054600160a060020a031916600160a060020a0392909216919091179055565b600054600160a060020a031633146113ed57600080fd5b82600160a060020a031663a9059cbb82846040518363ffffffff1660e060020a0281526004018083600160a060020a0316600160a060020a0316815260200182815260200192505050602060405180830381600087803b15801561145057600080fd5b505af1158015611464573d6000803e3d6000fd5b505050506040513d602081101561147a57600080fd5b5051151561148757600080fd5b60408051600160a060020a0380861682526020820185905283168183015290517f72cb8a894ddb372ceec3d2a7648d86f17d5a15caae0e986c53109b8a9a9385e69181900360600190a1505050565b600f5490565b600054600160a060020a031633146114f357600080fd5b600160a060020a03811660009081526003602052604090205460ff161561151957600080fd5b60055460321161152857600080fd5b60408051600160a060020a03831681526001602082015281517f5611bf3e417d124f97bf2c788843ea8bb502b66079fbee02158ef30b172cb762929181900390910190a1600160a060020a03166000818152600360205260408120805460ff191660019081179091556005805491820181559091527f036b6384b5eca791c62761152d0c79bb0604c104a5fb6f4eb0703f3154bb3db0018054600160a060020a0319169091179055565b60085481565b600d54600160a060020a031681565b600054600160a060020a031633146115fe57600080fd5b600160a060020a038116151561161357600080fd5b600c5460408051600160a060020a038085168252909216602083015280517fa2446ac1a8b17e6d40c1cafcbf076b945fdc5f897c970e6e19915760def475ad9281900390910190a1600c8054600160a060020a031916600160a060020a0392909216919091179055565b600c54600160a060020a031681565b600b54600160a060020a031681565b3360009081526002602052604090205460ff1615156116b957600080fd5b60009182526011602052604090912055565b60006116d5613a95565b6007805460010190819055600e54600160a060020a031633146116f757600080fd5b8315806117045750600484145b151561170f57600080fd5b600160a060020a03808e1683528c811660208085019190915260408085018e90528c831660608601528b8316608086015260a085018b905260c085018a905291881660e08501528151601f87018290048202810182019092528582528690869081908401838280828437505050505061010084019190915250611791826129ef565b925060075481146117a157600080fd5b50509a9950505050505050505050565b600b54600090600160a060020a031615156117d1575060ff60020a611868565b600b54604080517f6432679f000000000000000000000000000000000000000000000000000000008152600160a060020a03858116600483015291519190921691636432679f9160248083019260209291908290030181600087803b15801561183957600080fd5b505af115801561184d573d6000803e3d6000fd5b505050506040513d602081101561186357600080fd5b505190505b919050565b60105460ff1681565b600a6020526000908152604090205460ff1681565b600054600160a060020a031633146118a257600080fd5b600160a060020a03811615156118b757600080fd5b60015460408051600160a060020a039092168252517f3b81caf78fa51ecbc8acb482fd7012a277b428d9b80f9d156e8a54107496cc409181900360200190a160018054600160a060020a031916600160a060020a0392909216919091179055565b600054600160a060020a0316331461192f57600080fd5b801561197a57600d54600160a060020a0316151561194c57600080fd5b600c54600160a060020a0316151561196357600080fd5b600e54600160a060020a0316151561197a57600080fd5b6010805460ff191682151517908190556040805160ff90921615158252517f8a846a525e22497042ee2f99423a8ff8bbb831d3ae5384692bf6040f591c1eba916020908290030190a150565b600154600160a060020a031633146119dd57600080fd5b60015460005460408051600160a060020a03938416815292909116602083015280517f65da1cfc2c2e81576ad96afb24a581f8e109b7a403b35cbd3243a1c99efdb9ed9281900390910190a16001805460008054600160a060020a0319908116600160a060020a03841617909155169055565b600e54600160a060020a031681565b600054600160a060020a03163314611a7657600080fd5b600160a060020a0381161515611a8b57600080fd5b60408051600160a060020a038316815290517f3b81caf78fa51ecbc8acb482fd7012a277b428d9b80f9d156e8a54107496cc409181900360200190a160005460408051600160a060020a038085168252909216602083015280517f65da1cfc2c2e81576ad96afb24a581f8e109b7a403b35cbd3243a1c99efdb9ed9281900390910190a160008054600160a060020a031916600160a060020a0392909216919091179055565b60606005805480602002602001604051908101604052809291908181526020018280548015610bf957602002820191906000526020600020908154600160a060020a03168152600190910190602001808311610bdb575050505050905090565b600c5460009081908190600160a060020a03161515611baf57600080fd5b506001600060ff60020a85161115611beb57507f7fffffffffffffffffffffffffffffffffffffffffffffffffffffffffffffff929092169160005b600c54604080517fd38d2bea000000000000000000000000000000000000000000000000000000008152600160a060020a0389811660048301528881166024830152604482018890528415156064830152825193169263d38d2bea926084808401939192918290030181600087803b158015611c6657600080fd5b505af1158015611c7a573d6000803e3d6000fd5b505050506040513d6040811015611c9057600080fd5b5080516020909101519097909650945050505050565b6009805482908110611cb457fe5b600091825260209091200154600160a060020a0316905081565b600c546000908190600160a060020a03161515611cea57600080fd5b600c54604080517fd38d2bea000000000000000000000000000000000000000000000000000000008152600160a060020a0388811660048301528781166024830152604482018790526000606483018190528351919094169363d38d2bea93608480850194919392918390030190829087803b158015611d6957600080fd5b505af1158015611d7d573d6000803e3d6000fd5b505050506040513d6040811015611d9357600080fd5b50805160209091015190969095509350505050565b60408051808201909152600481527f5045524d00000000000000000000000000000000000000000000000000000000602082015281565b60008080fd5b60136020528160005260406000208181548110151561133957fe5b600054600160a060020a03163314611e1757600080fd5b600160a060020a03811660009081526002602052604090205460ff1615611e3d57600080fd5b600454603211611e4c57600080fd5b60408051600160a060020a03831681526001602082015281517f091a7a4b85135fdd7e8dbc18b12fabe5cc191ea867aa3c2e1a24a102af61d58b929181900390910190a1600160a060020a03166000818152600260205260408120805460ff191660019081179091556004805491820181559091527f8a35acfbc15ff81a39ae7d344fd709f28e8600b4aa8c65c6b64bfe7fe36bd19b018054600160a060020a0319169091179055565b3360009081526002602052604081205460ff161515611f1457600080fd5b600160a060020a0383166000908152600a602052604081205460ff166002811115611f3b57fe5b14611f4557600080fd5b600980546001810182556000919091527f6e1540171b6c0c960b71a7020d9f60077f6af931a8bbf590da0223dacf75c7af018054600160a060020a031916600160a060020a03851617905581611f9c576001611f9f565b60025b600160a060020a0384166000908152600a60205260409020805460ff19166001836002811115611fcb57fe5b0217905550604080516001815283151560208201528151600160a060020a038616927f4d99ce7cd99dfb1a7692e50c2e9b8d84c1b420f1d439ca8c4de0171acac11907928290030190a250600192915050565b60008054600160a060020a0316331461203657600080fd5b600160a060020a03821660009081526002602052604090205460ff16151561205d57600080fd5b50600160a060020a0381166000908152600260205260408120805460ff191690555b600454811015610b9d5781600160a060020a03166004828154811015156120a257fe5b600091825260209091200154600160a060020a0316141561217b576004805460001981019081106120cf57fe5b60009182526020909120015460048054600160a060020a0390921691839081106120f557fe5b60009182526020909120018054600160a060020a031916600160a060020a03929092169190911790556004805460001901906121319082613a1c565b5060408051600160a060020a03841681526000602082015281517f091a7a4b85135fdd7e8dbc18b12fabe5cc191ea867aa3c2e1a24a102af61d58b929181900390910190a1610b9d565b60010161207f565b600f5481565b60009081526011602052604090205490565b6000806121a6613a45565b61113486868660206040519081016040528060008152506126c0565b600054600160a060020a031633146121d957600080fd5b6127108111156121e857600080fd5b600f8290556008819055604080518381526020810183905281517fc1bdc2503431144078ba3cb975f03be0f6c1d365cf490875e7534b4ca70c863e929181900390910190a15050565b60ff60020a81565b600054600160a060020a0316331461225057600080fd5b600160a060020a038116151561226557600080fd5b600e8054600160a060020a031916600160a060020a0383811691909117918290556040805192909116825233602083015280517ffdd305502f7797ff3390aa08825f7f6aec92c27a94e103bfaf45452b4cf1d4f49281900390910190a150565b600054600160a060020a031633146122dc57600080fd5b604051600160a060020a0382169083156108fc029084906000818181858888f19350505050158015612312573d6000803e3d6000fd5b5060408051838152600160a060020a038316602082015281517fec47e7ed86c86774d1a72c19f35c639911393fe7c1a34031fdbd260890da90de929181900390910190a15050565b60095490565b6000600160a060020a038316600080516020613b2e83398151915214156123925750600160a060020a038116316112a9565b82600160a060020a03166370a08231836040518263ffffffff1660e060020a0281526004018082600160a060020a0316600160a060020a03168152602001915050602060405180830381600087803b1580156123ed57600080fd5b505af1158015612401573d6000803e3d6000fd5b505050506040513d602081101561241757600080fd5b505190506112a9565b3360009081526002602052604081205460ff16151561243e57600080fd5b600160a060020a0386166000908152600a602052604081205460ff16600281111561246557fe5b141561247057600080fd5b83156124e0576124838686600085612edf565b60408051600080516020613b2e8339815191528152600160a060020a038781166020830152841515828401529151918816917fadb5a4f14d89b3a5ffb3900ac1ea4574d991f93887f6199fabaf25393644e01c9181900360600190a25b821561269c576124f38686600185612edf565b81156125a457604080517f095ea7b3000000000000000000000000000000000000000000000000000000008152600160a060020a03888116600483015260ff60020a602483015291519187169163095ea7b3916044808201926020929091908290030181600087803b15801561256857600080fd5b505af115801561257c573d6000803e3d6000fd5b505050506040513d602081101561259257600080fd5b5051151561259f57600080fd5b61263f565b84600160a060020a031663095ea7b38760006040518363ffffffff1660e060020a0281526004018083600160a060020a0316600160a060020a0316815260200182815260200192505050602060405180830381600087803b15801561260857600080fd5b505af115801561261c573d6000803e3d6000fd5b505050506040513d602081101561263257600080fd5b5051151561263f57600080fd5b60408051600160a060020a038781168252600080516020613b2e8339815191526020830152841515828401529151918816917fadb5a4f14d89b3a5ffb3900ac1ea4574d991f93887f6199fabaf25393644e01c9181900360600190a25b6126a585613025565b50600195945050505050565b600054600160a060020a031681565b6126c8613a45565b815160019060041180159061290f57506040805190810160405280600481526020017f5045524d000000000000000000000000000000000000000000000000000000008152506040516020018082805190602001908083835b602083106127405780518252601f199092019160209182019101612721565b6001836020036101000a0380198251168184511680821785525050505050509050019150506040516020818303038152906040526040518082805190602001908083835b602083106127a35780518252601f199092019160209182019101612784565b5181516020939093036101000a6000190180199091169216919091179052604051920182900390912086519093508692506000915081106127e057fe5b90602001015160f860020a900460f860020a0284600181518110151561280257fe5b90602001015160f860020a900460f860020a0285600281518110151561282457fe5b90602001015160f860020a900460f860020a0286600381518110151561284657fe5b60209101810151604080517fff00000000000000000000000000000000000000000000000000000000000000968716818501529486166021860152928516602285015260f860020a908190040290931660238301528051808303600401815260249092019081905281519192909182918401908083835b602083106128dc5780518252601f1990920191602091820191016128bd565b6001836020036101000a038019825116818451168082178552505050505050905001915050604051809103902060001916145b15612918575060005b61293286600080516020613b2e8339815191528684610c04565b60808401819052600160a060020a039091166020840152612966908790600080516020613b2e8339815191529087906130f2565b6060830181905261298990600080516020613b2e83398151915290879084610c04565b60a08401819052600160a060020a03909116604084015260608301516129c091600080516020613b2e8339815191529188916130f2565b60c083018190526129e49085906129d68961311b565b6129df8961311b565b6131e5565b825250949350505050565b60006129f9613a45565b6010546000908190819060ff161515612a1157600080fd5b600f543a1115612a2057600080fd5b612a3c86602001518760400151886060015189608001516133ac565b1515612a4757600080fd5b612a648660200151876060015188604001518961010001516126c0565b8051909450600010612a7557600080fd5b835169d3c21bcecceda100000011612a8c57600080fd5b60c086015184511015612a9e57600080fd5b612abb8660200151876060015188604001518960a00151886134e2565b88519095509093509091508290612ad1906117b1565b1015612adc57600080fd5b612af486602001518760400151838960000151613563565b1515612aff57600080fd5b612b2a866020015182600080516020613b2e833981519152308689602001518a60800151600161366d565b1515612b3557600080fd5b612b64600080516020613b2e83398151915283886060015189608001518789604001518a60a00151600161366d565b1515612b6f57600080fd5b6020860151600160a060020a0316600080516020613b2e83398151915214612c4657600d5460208086015160e0890151604080517ffd062d3b00000000000000000000000000000000000000000000000000000000815260048101889052600160a060020a039384166024820152918316604483015251919093169263fd062d3b9260648083019391928290030181600087803b158015612c0f57600080fd5b505af1158015612c23573d6000803e3d6000fd5b505050506040513d6020811015612c3957600080fd5b50511515612c4657600080fd5b6060860151600160a060020a0316600080516020613b2e83398151915214612d1e57600d5460408086015160e089015182517ffd062d3b00000000000000000000000000000000000000000000000000000000815260048101879052600160a060020a0392831660248201529082166044820152915192169163fd062d3b916064808201926020929091908290030181600087803b158015612ce757600080fd5b505af1158015612cfb573d6000803e3d6000fd5b505050506040513d6020811015612d1157600080fd5b50511515612d1e57600080fd5b8560000151600160a060020a03167fd30ca399cb43507ecec6a629a35cf45eb98cda550c27696dcb0d8c4a3873ce6c8760200151886060015184878b6080015188600080516020613b2e833981519152600160a060020a03168e60200151600160a060020a031614612d94578b60200151612d97565b60005b60608f0151600160a060020a0316600080516020613b2e83398151915214612dc3578c60400151612dc6565b60005b8f6101000151604051808a600160a060020a0316600160a060020a0316815260200189600160a060020a0316600160a060020a0316815260200188815260200187815260200186600160a060020a0316600160a060020a0316815260200185815260200184600160a060020a0316600160a060020a0316815260200183600160a060020a0316600160a060020a0316815260200180602001828103825283818151815260200191508051906020019080838360005b83811015612e93578181015183820152602001612e7b565b50505050905090810190601f168015612ec05780820380516001836020036101000a031916815260200191505b509a505050505050505050505060405180910390a25090949350505050565b600160a060020a03831660009081526013602052604081208315612f175750600160a060020a03841660009081526012602052604090205b600091505b8054821015612fdf578082815481101515612f3357fe5b600091825260209091200154600160a060020a0387811691161415612fd4578215612f5d57612fdf565b805481906000198101908110612f6f57fe5b6000918252602090912001548154600160a060020a0390911690829084908110612f9557fe5b60009182526020909120018054600160a060020a031916600160a060020a03929092169190911790558054612fce826000198301613a1c565b50612fdf565b600190910190612f1c565b828015612fec5750805482145b1561301d578054600181018255600082815260209020018054600160a060020a031916600160a060020a0388161790555b505050505050565b600160a060020a038116600080516020613b2e833981519152141561306557600160a060020a0381166000908152600660205260409020601290556130ef565b80600160a060020a031663313ce5676040518163ffffffff1660e060020a028152600401602060405180830381600087803b1580156130a357600080fd5b505af11580156130b7573d6000803e3d6000fd5b505050506040513d60208110156130cd57600080fd5b5051600160a060020a038216600090815260066020526040902060ff90911690555b50565b6000613110836131018761311b565b61310a8761311b565b856138cf565b90505b949350505050565b600080600160a060020a038316600080516020613b2e833981519152141561314657601291506131df565b50600160a060020a0382166000908152600660205260409020548015156131db5782600160a060020a031663313ce5676040518163ffffffff1660e060020a028152600401602060405180830381600087803b1580156131a557600080fd5b505af11580156131b9573d6000803e3d6000fd5b505050506040513d60208110156131cf57600080fd5b505160ff1691506131df565b8091505b50919050565b60006b204fce5e3e2502611000000085111561324b576040805160e560020a62461bcd02815260206004820152600160248201527f3100000000000000000000000000000000000000000000000000000000000000604482015290519081900360640190fd5b6b204fce5e3e250261100000008411156132af576040805160e560020a62461bcd02815260206004820152600160248201527f3200000000000000000000000000000000000000000000000000000000000000604482015290519081900360640190fd5b8282106133355760128383031115613311576040805160e560020a62461bcd02815260206004820152600160248201527f3300000000000000000000000000000000000000000000000000000000000000604482015290519081900360640190fd5b84838303600a0a02670de0b6b3a7640000850281151561332d57fe5b049050613113565b60128284031115613390576040805160e560020a62461bcd02815260206004820152600160248201527f3400000000000000000000000000000000000000000000000000000000000000604482015290519081900360640190fd5b84828403600a0a670de0b6b3a764000086020281151561332d57fe5b60006b204fce5e3e250261100000008411156133c757600080fd5b8315156133d357600080fd5b600160a060020a03821615156133e857600080fd5b600160a060020a03858116908416141561340157600080fd5b600160a060020a038516600080516020613b2e83398151915214156134315734841461342c57600080fd5b6134d7565b341561343c57600080fd5b604080517f70a0823100000000000000000000000000000000000000000000000000000000815230600482015290518591600160a060020a038816916370a08231916024808201926020929091908290030181600087803b1580156134a057600080fd5b505af11580156134b4573d6000803e3d6000fd5b505050506040513d60208110156134ca57600080fd5b505110156134d757600080fd5b506001949350505050565b6000806000848460c00151111561354857849050613514600080516020613b2e83398151915288838760a0015161395c565b915061353488600080516020613b2e83398151915284876080015161395c565b92508583111561354357600080fd5b613558565b50505060c0810151606082015184915b955095509592505050565b6000838310156134d757600160a060020a038516600080516020613b2e83398151915214156135c957604051600160a060020a0383169084860380156108fc02916000818181858888f193505050501580156135c3573d6000803e3d6000fd5b506134d7565b604080517fa9059cbb000000000000000000000000000000000000000000000000000000008152600160a060020a038481166004830152858703602483015291519187169163a9059cbb916044808201926020929091908290030181600087803b15801561363657600080fd5b505af115801561364a573d6000803e3d6000fd5b505050506040513d602081101561366057600080fd5b505115156134d757600080fd5b600080600160a060020a038a811690891614156136d557600160a060020a03871630146136cc57604051600160a060020a038816908a156108fc02908b906000818181858888f193505050501580156136ca573d6000803e3d6000fd5b505b600191506138c2565b600160a060020a038a16600080516020613b2e83398151915214156136f75750875b604080517f6cf69811000000000000000000000000000000000000000000000000000000008152600160a060020a038c81166004830152602482018c90528a811660448301523060648301526084820187905285151560a4830152915191871691636cf6981191849160c480830192602092919082900301818588803b15801561378057600080fd5b505af1158015613794573d6000803e3d6000fd5b50505050506040513d60208110156137ab57600080fd5b505115156137b857600080fd5b600160a060020a03871630146138bd57600160a060020a038816600080516020613b2e833981519152141561382357604051600160a060020a0388169087156108fc029088906000818181858888f1935050505015801561381d573d6000803e3d6000fd5b506138bd565b87600160a060020a031663a9059cbb88886040518363ffffffff1660e060020a0281526004018083600160a060020a0316600160a060020a0316815260200182815260200192505050602060405180830381600087803b15801561388657600080fd5b505af115801561389a573d6000803e3d6000fd5b505050506040513d60208110156138b057600080fd5b505115156138bd57600080fd5b600191505b5098975050505050505050565b60006b204fce5e3e250261100000008511156138ea57600080fd5b69d3c21bcecceda100000082111561390157600080fd5b838310613930576012848403111561391857600080fd5b670de0b6b3a7640000858302858503600a0a0261332d565b6012838503111561394057600080fd5b828403600a0a670de0b6b3a76400000282860281151561332d57fe5b60006131108361396b8761311b565b6139748761311b565b85600080806b204fce5e3e2502611000000087111561399257600080fd5b69d3c21bcecceda10000008411156139a957600080fd5b8486106139da57601285870311156139c057600080fd5b5050828403600a0a8502670de0b6b3a76400000282613a00565b601286860311156139ea57600080fd5b5050670de0b6b3a76400008502848403600a0a83025b80600182840103811515613a1057fe5b04979650505050505050565b815481835581811115613a4057600083815260209020613a40918101908301613b0f565b505050565b60e060405190810160405280600081526020016000600160a060020a031681526020016000600160a060020a03168152602001600081526020016000815260200160008152602001600081525090565b610120604051908101604052806000600160a060020a031681526020016000600160a060020a03168152602001600081526020016000600160a060020a031681526020016000600160a060020a0316815260200160008152602001600081526020016000600160a060020a03168152602001606081525090565b610c0191905b80821115613b295760008155600101613b15565b50905600000000000000000000000000eeeeeeeeeeeeeeeeeeeeeeeeeeeeeeeeeeeeeeeea165627a7a72305820f64be1f37f9d8759444ea119e4e62f8eca052e9117ec8d30b30410d2794df3700029",
  "source": "pragma solidity ^0.4.24;\n\nimport \"../interfaces/ERC20.sol\";\nimport \"./KyberReserveInterface.sol\";\nimport \"./KyberNetworkInterface.sol\";\nimport \"./Withdrawable.sol\";\nimport \"./Utils2.sol\";\nimport \"./WhiteListInterface.sol\";\nimport \"./ExpectedRateInterface.sol\";\nimport \"./FeeBurnerInterface.sol\";\n\n\n/**\n * @title Helps contracts guard against reentrancy attacks.\n */\ncontract ReentrancyGuard {\n\n    /// @dev counter to allow mutex lock with only one SSTORE operation\n    uint256 private guardCounter = 1;\n\n    /**\n     * @dev Prevents a function from calling itself, directly or indirectly.\n     * Calling one `nonReentrant` function from\n     * another is not supported. Instead, you can implement a\n     * `private` function doing the actual work, and an `external`\n     * wrapper marked as `nonReentrant`.\n     */\n    modifier nonReentrant() {\n        guardCounter += 1;\n        uint256 localCounter = guardCounter;\n        _;\n        require(localCounter == guardCounter);\n    }\n}\n\n\n////////////////////////////////////////////////////////////////////////////////////////////////////////\n/// @title Kyber Network main contract\ncontract KyberNetwork is Withdrawable, Utils2, KyberNetworkInterface, ReentrancyGuard {\n\n    bytes public constant PERM_HINT = \"PERM\";\n    uint  public constant PERM_HINT_GET_RATE = 1 << 255; // for get rate. bit mask hint.\n\n    uint public negligibleRateDiff = 10; // basic rate steps will be in 0.01%\n    KyberReserveInterface[] public reserves;\n    mapping(address=>ReserveType) public reserveType;\n    WhiteListInterface public whiteListContract;\n    ExpectedRateInterface public expectedRateContract;\n    FeeBurnerInterface    public feeBurnerContract;\n    address               public kyberNetworkProxyContract;\n    uint                  public maxGasPriceValue = 50 * 1000 * 1000 * 1000; // 50 gwei\n    bool                  public isEnabled = false; // network is enabled\n    mapping(bytes32=>uint) public infoFields; // this is only a UI field for external app.\n\n    mapping(address=>address[]) public reservesPerTokenSrc; //reserves supporting token to eth\n    mapping(address=>address[]) public reservesPerTokenDest;//reserves support eth to token\n\n    enum ReserveType {NONE, PERMISSIONED, PERMISSIONLESS}\n    bytes internal constant EMPTY_HINT = \"\";\n\n    constructor(address _admin) public {\n        require(_admin != address(0));\n        admin = _admin;\n    }\n\n    event EtherReceival(address indexed sender, uint amount);\n\n    /* solhint-disable no-complex-fallback */\n    // To avoid users trying to swap tokens using default payable function. We added this short code\n    //  to verify Ethers will be received only from reserves if transferred without a specific function call.\n    function() public payable {\n        require(reserveType[msg.sender] != ReserveType.NONE);\n        emit EtherReceival(msg.sender, msg.value);\n    }\n    /* solhint-enable no-complex-fallback */\n\n    struct TradeInput {\n        address trader;\n        ERC20 src;\n        uint srcAmount;\n        ERC20 dest;\n        address destAddress;\n        uint maxDestAmount;\n        uint minConversionRate;\n        address walletId;\n        bytes hint;\n    }\n\n    function tradeWHint(\n        address trader,\n        ERC20 src,\n        uint srcAmount,\n        ERC20 dest,\n        address destAddress,\n        uint maxDestAmount,\n        uint minConversionRate,\n        address walletId,\n        bytes hint\n    )\n        external\n        nonReentrant\n        payable\n        returns(uint)\n    {\n        require(msg.sender == kyberNetworkProxyContract);\n        require((hint.length == 0) || (hint.length == 4));\n\n        TradeInput memory tradeInput;\n\n        tradeInput.trader = trader;\n        tradeInput.src = src;\n        tradeInput.srcAmount = srcAmount;\n        tradeInput.dest = dest;\n        tradeInput.destAddress = destAddress;\n        tradeInput.maxDestAmount = maxDestAmount;\n        tradeInput.minConversionRate = minConversionRate;\n        tradeInput.walletId = walletId;\n        tradeInput.hint = hint;\n\n        return trade(tradeInput);\n    }\n\n    event AddReserveToNetwork(KyberReserveInterface indexed reserve, bool add, bool isPermissionless);\n\n    /// @notice can be called only by operator\n    /// @dev add or deletes a reserve to/from the network.\n    /// @param reserve The reserve address.\n    /// @param isPermissionless is the new reserve from permissionless type.\n    function addReserve(KyberReserveInterface reserve, bool isPermissionless) public onlyOperator\n        returns(bool)\n    {\n        require(reserveType[reserve] == ReserveType.NONE);\n        reserves.push(reserve);\n\n        reserveType[reserve] = isPermissionless ? ReserveType.PERMISSIONLESS : ReserveType.PERMISSIONED;\n\n        emit AddReserveToNetwork(reserve, true, isPermissionless);\n\n        return true;\n    }\n\n    event RemoveReserveFromNetwork(KyberReserveInterface reserve);\n\n    /// @notice can be called only by operator\n    /// @dev removes a reserve from Kyber network.\n    /// @param reserve The reserve address.\n    /// @param index in reserve array.\n    function removeReserve(KyberReserveInterface reserve, uint index) public onlyOperator\n        returns(bool)\n    {\n\n        require(reserveType[reserve] != ReserveType.NONE);\n        require(reserves[index] == reserve);\n\n        reserveType[reserve] = ReserveType.NONE;\n        reserves[index] = reserves[reserves.length - 1];\n        reserves.length--;\n\n        emit RemoveReserveFromNetwork(reserve);\n\n        return true;\n    }\n\n    event ListReservePairs(address indexed reserve, ERC20 src, ERC20 dest, bool add);\n\n    /// @notice can be called only by operator\n    /// @dev allow or prevent a specific reserve to trade a pair of tokens\n    /// @param reserve The reserve address.\n    /// @param token token address\n    /// @param ethToToken will it support ether to token trade\n    /// @param tokenToEth will it support token to ether trade\n    /// @param add If true then list this pair, otherwise unlist it.\n    function listPairForReserve(address reserve, ERC20 token, bool ethToToken, bool tokenToEth, bool add)\n        public\n        onlyOperator\n        returns(bool)\n    {\n        require(reserveType[reserve] != ReserveType.NONE);\n\n        if (ethToToken) {\n            listPairs(reserve, token, false, add);\n\n            emit ListReservePairs(reserve, ETH_TOKEN_ADDRESS, token, add);\n        }\n\n        if (tokenToEth) {\n            listPairs(reserve, token, true, add);\n\n            if (add) {\n                require(token.approve(reserve, 2**255)); // approve infinity\n            } else {\n                require(token.approve(reserve, 0));\n            }\n\n            emit ListReservePairs(reserve, token, ETH_TOKEN_ADDRESS, add);\n        }\n\n        setDecimals(token);\n\n        return true;\n    }\n\n    event WhiteListContractSet(WhiteListInterface newContract, WhiteListInterface currentContract);\n\n    ///@param whiteList can be empty\n    function setWhiteList(WhiteListInterface whiteList) public onlyAdmin {\n        emit WhiteListContractSet(whiteList, whiteListContract);\n        whiteListContract = whiteList;\n    }\n\n    event ExpectedRateContractSet(ExpectedRateInterface newContract, ExpectedRateInterface currentContract);\n\n    function setExpectedRate(ExpectedRateInterface expectedRate) public onlyAdmin {\n        require(expectedRate != address(0));\n\n        emit ExpectedRateContractSet(expectedRate, expectedRateContract);\n        expectedRateContract = expectedRate;\n    }\n\n    event FeeBurnerContractSet(FeeBurnerInterface newContract, FeeBurnerInterface currentContract);\n\n    function setFeeBurner(FeeBurnerInterface feeBurner) public onlyAdmin {\n        require(feeBurner != address(0));\n\n        emit FeeBurnerContractSet(feeBurner, feeBurnerContract);\n        feeBurnerContract = feeBurner;\n    }\n\n    event KyberNetwrokParamsSet(uint maxGasPrice, uint negligibleRateDiff);\n\n    function setParams(\n        uint                  _maxGasPrice,\n        uint                  _negligibleRateDiff\n    )\n        public\n        onlyAdmin\n    {\n        require(_negligibleRateDiff <= 100 * 100); // at most 100%\n\n        maxGasPriceValue = _maxGasPrice;\n        negligibleRateDiff = _negligibleRateDiff;\n        emit KyberNetwrokParamsSet(maxGasPriceValue, negligibleRateDiff);\n    }\n\n    event KyberNetworkSetEnable(bool isEnabled);\n\n    function setEnable(bool _enable) public onlyAdmin {\n        if (_enable) {\n            require(feeBurnerContract != address(0));\n            require(expectedRateContract != address(0));\n            require(kyberNetworkProxyContract != address(0));\n        }\n        isEnabled = _enable;\n\n        emit KyberNetworkSetEnable(isEnabled);\n    }\n\n    function setInfo(bytes32 field, uint value) public onlyOperator {\n        infoFields[field] = value;\n    }\n\n    event KyberProxySet(address proxy, address sender);\n\n    function setKyberProxy(address networkProxy) public onlyAdmin {\n        require(networkProxy != address(0));\n        kyberNetworkProxyContract = networkProxy;\n        emit KyberProxySet(kyberNetworkProxyContract, msg.sender);\n    }\n\n    /// @dev returns number of reserves\n    /// @return number of reserves\n    function getNumReserves() public view returns(uint) {\n        return reserves.length;\n    }\n\n    /// @notice should be called off chain\n    /// @dev get an array of all reserves\n    /// @return An array of all reserves\n    function getReserves() public view returns(KyberReserveInterface[]) {\n        return reserves;\n    }\n\n    function maxGasPrice() public view returns(uint) {\n        return maxGasPriceValue;\n    }\n\n    function getExpectedRate(ERC20 src, ERC20 dest, uint srcQty)\n        public view\n        returns(uint expectedRate, uint slippageRate)\n    {\n        require(expectedRateContract != address(0));\n        bool includePermissionless = true;\n\n        if (srcQty & PERM_HINT_GET_RATE > 0) {\n            includePermissionless = false;\n            srcQty = srcQty & ~PERM_HINT_GET_RATE;\n        }\n\n        return expectedRateContract.getExpectedRate(src, dest, srcQty, includePermissionless);\n    }\n\n    function getExpectedRateOnlyPermission(ERC20 src, ERC20 dest, uint srcQty)\n        public view\n        returns(uint expectedRate, uint slippageRate)\n    {\n        require(expectedRateContract != address(0));\n        return expectedRateContract.getExpectedRate(src, dest, srcQty, false);\n    }\n\n    function getUserCapInWei(address user) public view returns(uint) {\n        if (whiteListContract == address(0)) return (2 ** 255);\n        return whiteListContract.getUserCapInWei(user);\n    }\n\n    function getUserCapInTokenWei(address user, ERC20 token) public view returns(uint) {\n        //future feature\n        user;\n        token;\n        require(false);\n    }\n\n    struct BestRateResult {\n        uint rate;\n        address reserve1;\n        address reserve2;\n        uint weiAmount;\n        uint rateSrcToEth;\n        uint rateEthToDest;\n        uint destAmount;\n    }\n\n    /// @notice use token address ETH_TOKEN_ADDRESS for ether\n    /// @dev best conversion rate for a pair of tokens, if number of reserves have small differences. randomize\n    /// @param src Src token\n    /// @param dest Destination token\n    /// @return obsolete - used to return best reserve index. not relevant anymore for this API.\n    function findBestRate(ERC20 src, ERC20 dest, uint srcAmount) public view returns(uint obsolete, uint rate) {\n        BestRateResult memory result = findBestRateTokenToToken(src, dest, srcAmount, EMPTY_HINT);\n        return(0, result.rate);\n    }\n\n    function findBestRateOnlyPermission(ERC20 src, ERC20 dest, uint srcAmount)\n        public\n        view\n        returns(uint obsolete, uint rate)\n    {\n        BestRateResult memory result = findBestRateTokenToToken(src, dest, srcAmount, PERM_HINT);\n        return(0, result.rate);\n    }\n\n    function enabled() public view returns(bool) {\n        return isEnabled;\n    }\n\n    function info(bytes32 field) public view returns(uint) {\n        return infoFields[field];\n    }\n\n    /* solhint-disable code-complexity */\n    // Regarding complexity. Below code follows the required algorithm for choosing a reserve.\n    //  It has been tested, reviewed and found to be clear enough.\n    //@dev this function always src or dest are ether. can't do token to token\n    function searchBestRate(ERC20 src, ERC20 dest, uint srcAmount, bool usePermissionless)\n        public\n        view\n        returns(address, uint)\n    {\n        uint bestRate = 0;\n        uint bestReserve = 0;\n        uint numRelevantReserves = 0;\n\n        //return 1 for ether to ether\n        if (src == dest) return (reserves[bestReserve], PRECISION);\n\n        address[] memory reserveArr;\n\n        reserveArr = src == ETH_TOKEN_ADDRESS ? reservesPerTokenDest[dest] : reservesPerTokenSrc[src];\n\n        if (reserveArr.length == 0) return (reserves[bestReserve], bestRate);\n\n        uint[] memory rates = new uint[](reserveArr.length);\n        uint[] memory reserveCandidates = new uint[](reserveArr.length);\n\n        for (uint i = 0; i < reserveArr.length; i++) {\n            //list all reserves that have this token.\n            if (!usePermissionless && reserveType[reserveArr[i]] == ReserveType.PERMISSIONLESS) {\n                continue;\n            }\n\n            rates[i] = (KyberReserveInterface(reserveArr[i])).getConversionRate(src, dest, srcAmount, block.number);\n\n            if (rates[i] > bestRate) {\n                //best rate is highest rate\n                bestRate = rates[i];\n            }\n        }\n\n        if (bestRate > 0) {\n            uint smallestRelevantRate = (bestRate * 10000) / (10000 + negligibleRateDiff);\n\n            for (i = 0; i < reserveArr.length; i++) {\n                if (rates[i] >= smallestRelevantRate) {\n                    reserveCandidates[numRelevantReserves++] = i;\n                }\n            }\n\n            if (numRelevantReserves > 1) {\n                //when encountering small rate diff from bestRate. draw from relevant reserves\n                bestReserve = reserveCandidates[uint(blockhash(block.number-1)) % numRelevantReserves];\n            } else {\n                bestReserve = reserveCandidates[0];\n            }\n\n            bestRate = rates[bestReserve];\n        }\n\n        return (reserveArr[bestReserve], bestRate);\n    }\n    /* solhint-enable code-complexity */\n\n    function findBestRateTokenToToken(ERC20 src, ERC20 dest, uint srcAmount, bytes hint) internal view\n        returns(BestRateResult result)\n    {\n        //by default we use permission less reserves\n        bool usePermissionless = true;\n\n        // if hint in first 4 bytes == 'PERM' only permissioned reserves will be used.\n        if ((hint.length >= 4) && (keccak256(abi.encodePacked(hint[0], hint[1], hint[2], hint[3])) == keccak256(abi.encodePacked(PERM_HINT)))) {\n            usePermissionless = false;\n        }\n\n        (result.reserve1, result.rateSrcToEth) =\n            searchBestRate(src, ETH_TOKEN_ADDRESS, srcAmount, usePermissionless);\n\n        result.weiAmount = calcDestAmount(src, ETH_TOKEN_ADDRESS, srcAmount, result.rateSrcToEth);\n\n        (result.reserve2, result.rateEthToDest) =\n            searchBestRate(ETH_TOKEN_ADDRESS, dest, result.weiAmount, usePermissionless);\n\n        result.destAmount = calcDestAmount(ETH_TOKEN_ADDRESS, dest, result.weiAmount, result.rateEthToDest);\n\n        result.rate = calcRateFromQty(srcAmount, result.destAmount, getDecimals(src), getDecimals(dest));\n    }\n\n    function listPairs(address reserve, ERC20 token, bool isTokenToEth, bool add) internal {\n        uint i;\n        address[] storage reserveArr = reservesPerTokenDest[token];\n\n        if (isTokenToEth) {\n            reserveArr = reservesPerTokenSrc[token];\n        }\n\n        for (i = 0; i < reserveArr.length; i++) {\n            if (reserve == reserveArr[i]) {\n                if (add) {\n                    break; //already added\n                } else {\n                    //remove\n                    reserveArr[i] = reserveArr[reserveArr.length - 1];\n                    reserveArr.length--;\n                    break;\n                }\n            }\n        }\n\n        if (add && i == reserveArr.length) {\n            //if reserve wasn't found add it\n            reserveArr.push(reserve);\n        }\n    }\n\n    event KyberTrade(address indexed trader, ERC20 src, ERC20 dest, uint srcAmount, uint dstAmount,\n        address destAddress, uint ethWeiValue, address reserve1, address reserve2, bytes hint);\n\n    /* solhint-disable function-max-lines */\n    //  Most of the lines here are functions calls spread over multiple lines. We find this function readable enough\n    /// @notice use token address ETH_TOKEN_ADDRESS for ether\n    /// @dev trade api for kyber network.\n    /// @param tradeInput structure of trade inputs\n    function trade(TradeInput tradeInput) internal returns(uint) {\n        require(isEnabled);\n        require(tx.gasprice <= maxGasPriceValue);\n        require(validateTradeInput(tradeInput.src, tradeInput.srcAmount, tradeInput.dest, tradeInput.destAddress));\n\n        BestRateResult memory rateResult =\n            findBestRateTokenToToken(tradeInput.src, tradeInput.dest, tradeInput.srcAmount, tradeInput.hint);\n\n        require(rateResult.rate > 0);\n        require(rateResult.rate < MAX_RATE);\n        require(rateResult.rate >= tradeInput.minConversionRate);\n\n        uint actualDestAmount;\n        uint weiAmount;\n        uint actualSrcAmount;\n\n        (actualSrcAmount, weiAmount, actualDestAmount) = calcActualAmounts(tradeInput.src,\n            tradeInput.dest,\n            tradeInput.srcAmount,\n            tradeInput.maxDestAmount,\n            rateResult);\n\n        require(getUserCapInWei(tradeInput.trader) >= weiAmount);\n        require(handleChange(tradeInput.src, tradeInput.srcAmount, actualSrcAmount, tradeInput.trader));\n\n        require(doReserveTrade(     //src to ETH\n                tradeInput.src,\n                actualSrcAmount,\n                ETH_TOKEN_ADDRESS,\n                this,\n                weiAmount,\n                KyberReserveInterface(rateResult.reserve1),\n                rateResult.rateSrcToEth,\n                true));\n\n        require(doReserveTrade(     //Eth to dest\n                ETH_TOKEN_ADDRESS,\n                weiAmount,\n                tradeInput.dest,\n                tradeInput.destAddress,\n                actualDestAmount,\n                KyberReserveInterface(rateResult.reserve2),\n                rateResult.rateEthToDest,\n                true));\n\n        if (tradeInput.src != ETH_TOKEN_ADDRESS) //\"fake\" trade. (ether to ether) - don't burn.\n            require(feeBurnerContract.handleFees(weiAmount, rateResult.reserve1, tradeInput.walletId));\n        if (tradeInput.dest != ETH_TOKEN_ADDRESS) //\"fake\" trade. (ether to ether) - don't burn.\n            require(feeBurnerContract.handleFees(weiAmount, rateResult.reserve2, tradeInput.walletId));\n\n        emit KyberTrade({\n            trader: tradeInput.trader,\n            src: tradeInput.src,\n            dest: tradeInput.dest,\n            srcAmount: actualSrcAmount,\n            dstAmount: actualDestAmount,\n            destAddress: tradeInput.destAddress,\n            ethWeiValue: weiAmount,\n            reserve1: (tradeInput.src == ETH_TOKEN_ADDRESS) ? address(0) : rateResult.reserve1,\n            reserve2:  (tradeInput.dest == ETH_TOKEN_ADDRESS) ? address(0) : rateResult.reserve2,\n            hint: tradeInput.hint\n        });\n\n        return actualDestAmount;\n    }\n    /* solhint-enable function-max-lines */\n\n    function calcActualAmounts (ERC20 src, ERC20 dest, uint srcAmount, uint maxDestAmount, BestRateResult rateResult)\n        internal view returns(uint actualSrcAmount, uint weiAmount, uint actualDestAmount)\n    {\n        if (rateResult.destAmount > maxDestAmount) {\n            actualDestAmount = maxDestAmount;\n            weiAmount = calcSrcAmount(ETH_TOKEN_ADDRESS, dest, actualDestAmount, rateResult.rateEthToDest);\n            actualSrcAmount = calcSrcAmount(src, ETH_TOKEN_ADDRESS, weiAmount, rateResult.rateSrcToEth);\n            require(actualSrcAmount <= srcAmount);\n        } else {\n            actualDestAmount = rateResult.destAmount;\n            actualSrcAmount = srcAmount;\n            weiAmount = rateResult.weiAmount;\n        }\n    }\n\n    /// @notice use token address ETH_TOKEN_ADDRESS for ether\n    /// @dev do one trade with a reserve\n    /// @param src Src token\n    /// @param amount amount of src tokens\n    /// @param dest   Destination token\n    /// @param destAddress Address to send tokens to\n    /// @param reserve Reserve to use\n    /// @param validate If true, additional validations are applicable\n    /// @return true if trade is successful\n    function doReserveTrade(\n        ERC20 src,\n        uint amount,\n        ERC20 dest,\n        address destAddress,\n        uint expectedDestAmount,\n        KyberReserveInterface reserve,\n        uint conversionRate,\n        bool validate\n    )\n        internal\n        returns(bool)\n    {\n        uint callValue = 0;\n\n        if (src == dest) {\n            //this is for a \"fake\" trade when both src and dest are ethers.\n            if (destAddress != (address(this)))\n                destAddress.transfer(amount);\n            return true;\n        }\n\n        if (src == ETH_TOKEN_ADDRESS) {\n            callValue = amount;\n        }\n\n        // reserve sends tokens/eth to network. network sends it to destination\n        require(reserve.trade.value(callValue)(src, amount, dest, this, conversionRate, validate));\n\n        if (destAddress != address(this)) {\n            //for token to token dest address is network. and Ether / token already here...\n            if (dest == ETH_TOKEN_ADDRESS) {\n                destAddress.transfer(expectedDestAmount);\n            } else {\n                require(dest.transfer(destAddress, expectedDestAmount));\n            }\n        }\n\n        return true;\n    }\n\n    /// when user sets max dest amount we could have too many source tokens == change. so we send it back to user.\n    function handleChange (ERC20 src, uint srcAmount, uint requiredSrcAmount, address trader) internal returns (bool) {\n\n        if (requiredSrcAmount < srcAmount) {\n            //if there is \"change\" send back to trader\n            if (src == ETH_TOKEN_ADDRESS) {\n                trader.transfer(srcAmount - requiredSrcAmount);\n            } else {\n                require(src.transfer(trader, (srcAmount - requiredSrcAmount)));\n            }\n        }\n\n        return true;\n    }\n\n    /// @notice use token address ETH_TOKEN_ADDRESS for ether\n    /// @dev checks that user sent ether/tokens to contract before trade\n    /// @param src Src token\n    /// @param srcAmount amount of src tokens\n    /// @return true if tradeInput is valid\n    function validateTradeInput(ERC20 src, uint srcAmount, ERC20 dest, address destAddress)\n        internal\n        view\n        returns(bool)\n    {\n        require(srcAmount <= MAX_QTY);\n        require(srcAmount != 0);\n        require(destAddress != address(0));\n        require(src != dest);\n\n        if (src == ETH_TOKEN_ADDRESS) {\n            require(msg.value == srcAmount);\n        } else {\n            require(msg.value == 0);\n            //funds should have been moved to this contract already.\n            require(src.balanceOf(this) >= srcAmount);\n        }\n\n        return true;\n    }\n}\n",
  "sourcePath": "/home/peter/Documents/Work/MyBit/MyBit-Network.tech/contracts/kyber/KyberNetwork.sol",
  "compiler": {
    "name": "solc",
    "version": "0.4.24+commit.e67f0147.Emscripten.clang"
  },
  "schemaVersion": "3.0.2",
  "updatedAt": "2019-04-08T19:44:50.325Z",
  "devdoc": {
    "methods": {
      "addReserve(address,bool)": {
        "details": "add or deletes a reserve to/from the network.",
        "params": {
          "isPermissionless": "is the new reserve from permissionless type.",
          "reserve": "The reserve address."
        }
      },
      "claimAdmin()": {
        "details": "Allows the pendingAdmin address to finalize the change admin process."
      },
      "findBestRate(address,address,uint256)": {
        "details": "best conversion rate for a pair of tokens, if number of reserves have small differences. randomize",
        "params": {
          "dest": "Destination token",
          "src": "Src token"
        },
        "return": "obsolete - used to return best reserve index. not relevant anymore for this API."
      },
      "getBalance(address,address)": {
        "details": "get the balance of a user.",
        "params": {
          "token": "The token type"
        },
        "return": "The balance"
      },
      "getNumReserves()": {
        "details": "returns number of reserves",
        "return": "number of reserves"
      },
      "getReserves()": {
        "details": "get an array of all reserves",
        "return": "An array of all reserves"
      },
      "listPairForReserve(address,address,bool,bool,bool)": {
        "details": "allow or prevent a specific reserve to trade a pair of tokens",
        "params": {
          "add": "If true then list this pair, otherwise unlist it.",
          "ethToToken": "will it support ether to token trade",
          "reserve": "The reserve address.",
          "token": "token address",
          "tokenToEth": "will it support token to ether trade"
        }
      },
      "removeReserve(address,uint256)": {
        "details": "removes a reserve from Kyber network.",
        "params": {
          "index": "in reserve array.",
          "reserve": "The reserve address."
        }
      },
      "setWhiteList(address)": {
        "params": {
          "whiteList": "can be empty"
        }
      },
      "transferAdmin(address)": {
        "details": "Allows the current admin to set the pendingAdmin address.",
        "params": {
          "newAdmin": "The address to transfer ownership to."
        }
      },
      "transferAdminQuickly(address)": {
        "details": "Allows the current admin to set the admin in one tx. Useful initial deployment.",
        "params": {
          "newAdmin": "The address to transfer ownership to."
        }
      },
      "withdrawEther(uint256,address)": {
        "details": "Withdraw Ethers"
      },
      "withdrawToken(address,uint256,address)": {
        "details": "Withdraw all ERC20 compatible tokens",
        "params": {
          "token": "ERC20 The address of the token contract"
        }
      }
    },
    "title": "Kyber Network main contract"
  },
  "userdoc": {
    "methods": {
      "addReserve(address,bool)": {
        "notice": "can be called only by operator"
      },
      "findBestRate(address,address,uint256)": {
        "notice": "use token address ETH_TOKEN_ADDRESS for ether"
      },
      "getReserves()": {
        "notice": "should be called off chain"
      },
      "listPairForReserve(address,address,bool,bool,bool)": {
        "notice": "can be called only by operator"
      },
      "removeReserve(address,uint256)": {
        "notice": "can be called only by operator"
      }
    }
  }
}