{
  "contractName": "KyberNetworkProxy",
  "abi": [
    {
      "constant": false,
      "inputs": [
        {
          "name": "alerter",
          "type": "address"
        }
      ],
      "name": "removeAlerter",
      "outputs": [],
      "payable": false,
      "stateMutability": "nonpayable",
      "type": "function"
    },
    {
      "constant": true,
      "inputs": [],
      "name": "pendingAdmin",
      "outputs": [
        {
          "name": "",
          "type": "address"
        }
      ],
      "payable": false,
      "stateMutability": "view",
      "type": "function"
    },
    {
      "constant": true,
      "inputs": [],
      "name": "getOperators",
      "outputs": [
        {
          "name": "",
          "type": "address[]"
        }
      ],
      "payable": false,
      "stateMutability": "view",
      "type": "function"
    },
    {
      "constant": false,
      "inputs": [
        {
          "name": "token",
          "type": "address"
        },
        {
          "name": "amount",
          "type": "uint256"
        },
        {
          "name": "sendTo",
          "type": "address"
        }
      ],
      "name": "withdrawToken",
      "outputs": [],
      "payable": false,
      "stateMutability": "nonpayable",
      "type": "function"
    },
    {
      "constant": false,
      "inputs": [
        {
          "name": "newAlerter",
          "type": "address"
        }
      ],
      "name": "addAlerter",
      "outputs": [],
      "payable": false,
      "stateMutability": "nonpayable",
      "type": "function"
    },
    {
      "constant": true,
      "inputs": [],
      "name": "kyberNetworkContract",
      "outputs": [
        {
          "name": "",
          "type": "address"
        }
      ],
      "payable": false,
      "stateMutability": "view",
      "type": "function"
    },
    {
      "constant": false,
      "inputs": [
        {
          "name": "newAdmin",
          "type": "address"
        }
      ],
      "name": "transferAdmin",
      "outputs": [],
      "payable": false,
      "stateMutability": "nonpayable",
      "type": "function"
    },
    {
      "constant": false,
      "inputs": [],
      "name": "claimAdmin",
      "outputs": [],
      "payable": false,
      "stateMutability": "nonpayable",
      "type": "function"
    },
    {
      "constant": false,
      "inputs": [
        {
          "name": "newAdmin",
          "type": "address"
        }
      ],
      "name": "transferAdminQuickly",
      "outputs": [],
      "payable": false,
      "stateMutability": "nonpayable",
      "type": "function"
    },
    {
      "constant": true,
      "inputs": [],
      "name": "getAlerters",
      "outputs": [
        {
          "name": "",
          "type": "address[]"
        }
      ],
      "payable": false,
      "stateMutability": "view",
      "type": "function"
    },
    {
      "constant": false,
      "inputs": [
        {
          "name": "newOperator",
          "type": "address"
        }
      ],
      "name": "addOperator",
      "outputs": [],
      "payable": false,
      "stateMutability": "nonpayable",
      "type": "function"
    },
    {
      "constant": false,
      "inputs": [
        {
          "name": "operator",
          "type": "address"
        }
      ],
      "name": "removeOperator",
      "outputs": [],
      "payable": false,
      "stateMutability": "nonpayable",
      "type": "function"
    },
    {
      "constant": false,
      "inputs": [
        {
          "name": "amount",
          "type": "uint256"
        },
        {
          "name": "sendTo",
          "type": "address"
        }
      ],
      "name": "withdrawEther",
      "outputs": [],
      "payable": false,
      "stateMutability": "nonpayable",
      "type": "function"
    },
    {
      "constant": true,
      "inputs": [
        {
          "name": "token",
          "type": "address"
        },
        {
          "name": "user",
          "type": "address"
        }
      ],
      "name": "getBalance",
      "outputs": [
        {
          "name": "",
          "type": "uint256"
        }
      ],
      "payable": false,
      "stateMutability": "view",
      "type": "function"
    },
    {
      "constant": true,
      "inputs": [],
      "name": "admin",
      "outputs": [
        {
          "name": "",
          "type": "address"
        }
      ],
      "payable": false,
      "stateMutability": "view",
      "type": "function"
    },
    {
      "inputs": [
        {
          "name": "_admin",
          "type": "address"
        }
      ],
      "payable": false,
      "stateMutability": "nonpayable",
      "type": "constructor"
    },
    {
      "anonymous": false,
      "inputs": [
        {
          "indexed": true,
          "name": "trader",
          "type": "address"
        },
        {
          "indexed": false,
          "name": "src",
          "type": "address"
        },
        {
          "indexed": false,
          "name": "dest",
          "type": "address"
        },
        {
          "indexed": false,
          "name": "actualSrcAmount",
          "type": "uint256"
        },
        {
          "indexed": false,
          "name": "actualDestAmount",
          "type": "uint256"
        }
      ],
      "name": "ExecuteTrade",
      "type": "event"
    },
    {
      "anonymous": false,
      "inputs": [
        {
          "indexed": false,
          "name": "newNetworkContract",
          "type": "address"
        },
        {
          "indexed": false,
          "name": "oldNetworkContract",
          "type": "address"
        }
      ],
      "name": "KyberNetworkSet",
      "type": "event"
    },
    {
      "anonymous": false,
      "inputs": [
        {
          "indexed": false,
          "name": "token",
          "type": "address"
        },
        {
          "indexed": false,
          "name": "amount",
          "type": "uint256"
        },
        {
          "indexed": false,
          "name": "sendTo",
          "type": "address"
        }
      ],
      "name": "TokenWithdraw",
      "type": "event"
    },
    {
      "anonymous": false,
      "inputs": [
        {
          "indexed": false,
          "name": "amount",
          "type": "uint256"
        },
        {
          "indexed": false,
          "name": "sendTo",
          "type": "address"
        }
      ],
      "name": "EtherWithdraw",
      "type": "event"
    },
    {
      "anonymous": false,
      "inputs": [
        {
          "indexed": false,
          "name": "pendingAdmin",
          "type": "address"
        }
      ],
      "name": "TransferAdminPending",
      "type": "event"
    },
    {
      "anonymous": false,
      "inputs": [
        {
          "indexed": false,
          "name": "newAdmin",
          "type": "address"
        },
        {
          "indexed": false,
          "name": "previousAdmin",
          "type": "address"
        }
      ],
      "name": "AdminClaimed",
      "type": "event"
    },
    {
      "anonymous": false,
      "inputs": [
        {
          "indexed": false,
          "name": "newAlerter",
          "type": "address"
        },
        {
          "indexed": false,
          "name": "isAdd",
          "type": "bool"
        }
      ],
      "name": "AlerterAdded",
      "type": "event"
    },
    {
      "anonymous": false,
      "inputs": [
        {
          "indexed": false,
          "name": "newOperator",
          "type": "address"
        },
        {
          "indexed": false,
          "name": "isAdd",
          "type": "bool"
        }
      ],
      "name": "OperatorAdded",
      "type": "event"
    },
    {
      "constant": false,
      "inputs": [
        {
          "name": "src",
          "type": "address"
        },
        {
          "name": "srcAmount",
          "type": "uint256"
        },
        {
          "name": "dest",
          "type": "address"
        },
        {
          "name": "destAddress",
          "type": "address"
        },
        {
          "name": "maxDestAmount",
          "type": "uint256"
        },
        {
          "name": "minConversionRate",
          "type": "uint256"
        },
        {
          "name": "walletId",
          "type": "address"
        }
      ],
      "name": "trade",
      "outputs": [
        {
          "name": "",
          "type": "uint256"
        }
      ],
      "payable": true,
      "stateMutability": "payable",
      "type": "function"
    },
    {
      "constant": false,
      "inputs": [
        {
          "name": "src",
          "type": "address"
        },
        {
          "name": "srcAmount",
          "type": "uint256"
        },
        {
          "name": "dest",
          "type": "address"
        },
        {
          "name": "minConversionRate",
          "type": "uint256"
        }
      ],
      "name": "swapTokenToToken",
      "outputs": [
        {
          "name": "",
          "type": "uint256"
        }
      ],
      "payable": false,
      "stateMutability": "nonpayable",
      "type": "function"
    },
    {
      "constant": false,
      "inputs": [
        {
          "name": "token",
          "type": "address"
        },
        {
          "name": "minConversionRate",
          "type": "uint256"
        }
      ],
      "name": "swapEtherToToken",
      "outputs": [
        {
          "name": "",
          "type": "uint256"
        }
      ],
      "payable": true,
      "stateMutability": "payable",
      "type": "function"
    },
    {
      "constant": false,
      "inputs": [
        {
          "name": "token",
          "type": "address"
        },
        {
          "name": "srcAmount",
          "type": "uint256"
        },
        {
          "name": "minConversionRate",
          "type": "uint256"
        }
      ],
      "name": "swapTokenToEther",
      "outputs": [
        {
          "name": "",
          "type": "uint256"
        }
      ],
      "payable": false,
      "stateMutability": "nonpayable",
      "type": "function"
    },
    {
      "constant": false,
      "inputs": [
        {
          "name": "src",
          "type": "address"
        },
        {
          "name": "srcAmount",
          "type": "uint256"
        },
        {
          "name": "dest",
          "type": "address"
        },
        {
          "name": "destAddress",
          "type": "address"
        },
        {
          "name": "maxDestAmount",
          "type": "uint256"
        },
        {
          "name": "minConversionRate",
          "type": "uint256"
        },
        {
          "name": "walletId",
          "type": "address"
        },
        {
          "name": "hint",
          "type": "bytes"
        }
      ],
      "name": "tradeWithHint",
      "outputs": [
        {
          "name": "",
          "type": "uint256"
        }
      ],
      "payable": true,
      "stateMutability": "payable",
      "type": "function"
    },
    {
      "constant": false,
      "inputs": [
        {
          "name": "_kyberNetworkContract",
          "type": "address"
        }
      ],
      "name": "setKyberNetworkContract",
      "outputs": [],
      "payable": false,
      "stateMutability": "nonpayable",
      "type": "function"
    },
    {
      "constant": true,
      "inputs": [
        {
          "name": "src",
          "type": "address"
        },
        {
          "name": "dest",
          "type": "address"
        },
        {
          "name": "srcQty",
          "type": "uint256"
        }
      ],
      "name": "getExpectedRate",
      "outputs": [
        {
          "name": "expectedRate",
          "type": "uint256"
        },
        {
          "name": "slippageRate",
          "type": "uint256"
        }
      ],
      "payable": false,
      "stateMutability": "view",
      "type": "function"
    },
    {
      "constant": true,
      "inputs": [
        {
          "name": "user",
          "type": "address"
        }
      ],
      "name": "getUserCapInWei",
      "outputs": [
        {
          "name": "",
          "type": "uint256"
        }
      ],
      "payable": false,
      "stateMutability": "view",
      "type": "function"
    },
    {
      "constant": true,
      "inputs": [
        {
          "name": "user",
          "type": "address"
        },
        {
          "name": "token",
          "type": "address"
        }
      ],
      "name": "getUserCapInTokenWei",
      "outputs": [
        {
          "name": "",
          "type": "uint256"
        }
      ],
      "payable": false,
      "stateMutability": "view",
      "type": "function"
    },
    {
      "constant": true,
      "inputs": [],
      "name": "maxGasPrice",
      "outputs": [
        {
          "name": "",
          "type": "uint256"
        }
      ],
      "payable": false,
      "stateMutability": "view",
      "type": "function"
    },
    {
      "constant": true,
      "inputs": [],
      "name": "enabled",
      "outputs": [
        {
          "name": "",
          "type": "bool"
        }
      ],
      "payable": false,
      "stateMutability": "view",
      "type": "function"
    },
    {
      "constant": true,
      "inputs": [
        {
          "name": "field",
          "type": "bytes32"
        }
      ],
      "name": "info",
      "outputs": [
        {
          "name": "",
          "type": "uint256"
        }
      ],
      "payable": false,
      "stateMutability": "view",
      "type": "function"
    }
  ],
  "bytecode": "0x608060405234801561001057600080fd5b50604051602080611c5c833981016040525160008054600160a060020a03191633179055600160a060020a038116151561004957600080fd5b60008054600160a060020a03909216600160a060020a0319909216919091179055611be3806100796000396000f3006080604052600436106101455763ffffffff60e060020a60003504166301a12fd3811461014a578063238dafe01461016d578063267822471461019657806327a099d8146101c757806329589f611461022c5780633bba21dc146102b95780633ccdbb28146102e05780633de39c111461030b578063408ee7fe146103205780634f61ff8b146103415780636432679f146103565780637409e2eb1461037757806375829def146103a557806377f50f97146103c65780637a2a0456146103db5780637acc8678146103f25780637c423f5414610413578063809a9e55146104285780638eaaeecf1461046b5780639870d7fe14610492578063abd188a8146104b3578063ac8a584a146104d4578063b64a097e146104f5578063cb3c28c71461050d578063ce56c4541461053f578063d4fac45d14610563578063f851a4401461058a575b600080fd5b34801561015657600080fd5b5061016b600160a060020a036004351661059f565b005b34801561017957600080fd5b50610182610708565b604080519115158252519081900360200190f35b3480156101a257600080fd5b506101ab610799565b60408051600160a060020a039092168252519081900360200190f35b3480156101d357600080fd5b506101dc6107a8565b60408051602080825283518183015283519192839290830191858101910280838360005b83811015610218578181015183820152602001610200565b505050509050019250505060405180910390f35b604080516020601f60e4356004818101359283018490048402850184019095528184526102a794600160a060020a03813581169560248035966044358416966064358516966084359660a4359660c43516953695919461010494919390920191819084018382808284375094975061080a9650505050505050565b60408051918252519081900360200190f35b3480156102c557600080fd5b506102a7600160a060020a0360043516602435604435610bb3565b3480156102ec57600080fd5b5061016b600160a060020a036004358116906024359060443516610bf1565b34801561031757600080fd5b506102a7610cf1565b34801561032c57600080fd5b5061016b600160a060020a0360043516610d50565b34801561034d57600080fd5b506101ab610e46565b34801561036257600080fd5b506102a7600160a060020a0360043516610e55565b34801561038357600080fd5b506102a7600160a060020a036004358116906024359060443516606435610ef2565b3480156103b157600080fd5b5061016b600160a060020a0360043516610f1d565b3480156103d257600080fd5b5061016b610faa565b6102a7600160a060020a0360043516602435611034565b3480156103fe57600080fd5b5061016b600160a060020a0360043516611071565b34801561041f57600080fd5b506101dc611143565b34801561043457600080fd5b50610452600160a060020a03600435811690602435166044356111a3565b6040805192835260208301919091528051918290030190f35b34801561047757600080fd5b506102a7600160a060020a0360043581169060243516611258565b34801561049e57600080fd5b5061016b600160a060020a0360043516611300565b3480156104bf57600080fd5b5061016b600160a060020a03600435166113f6565b3480156104e057600080fd5b5061016b600160a060020a036004351661148c565b34801561050157600080fd5b506102a76004356115f1565b6102a7600160a060020a03600435811690602435906044358116906064358116906084359060a4359060c43516611657565b34801561054b57600080fd5b5061016b600435600160a060020a0360243516611678565b34801561056f57600080fd5b506102a7600160a060020a036004358116906024351661170d565b34801561059657600080fd5b506101ab6117d3565b60008054600160a060020a031633146105b757600080fd5b600160a060020a03821660009081526003602052604090205460ff1615156105de57600080fd5b50600160a060020a0381166000908152600360205260408120805460ff191690555b6005548110156107045781600160a060020a031660058281548110151561062357fe5b600091825260209091200154600160a060020a031614156106fc5760058054600019810190811061065057fe5b60009182526020909120015460058054600160a060020a03909216918390811061067657fe5b60009182526020909120018054600160a060020a031916600160a060020a039290921691909117905560058054906106b2906000198301611b37565b5060408051600160a060020a03841681526000602082015281517f5611bf3e417d124f97bf2c788843ea8bb502b66079fbee02158ef30b172cb762929181900390910190a1610704565b600101610600565b5050565b600754604080517f238dafe00000000000000000000000000000000000000000000000000000000081529051600092600160a060020a03169163238dafe091600480830192602092919082900301818787803b15801561076757600080fd5b505af115801561077b573d6000803e3d6000fd5b505050506040513d602081101561079157600080fd5b505190505b90565b600154600160a060020a031681565b6060600480548060200260200160405190810160405280929190818152602001828054801561080057602002820191906000526020600020905b8154600160a060020a031681526001909101906020018083116107e2575b5050505050905090565b6000610814611b60565b600061081e611b77565b600160a060020a038c1673eeeeeeeeeeeeeeeeeeeeeeeeeeeeeeeeeeeeeeee1480610847575034155b151561085257600080fd5b61085c8c3361170d565b83526108688a8a61170d565b6020840152600160a060020a038c1673eeeeeeeeeeeeeeeeeeeeeeeeeeeeeeeeeeeeeeee141561089d57825134018352610949565b600754604080517f23b872dd000000000000000000000000000000000000000000000000000000008152336004820152600160a060020a039283166024820152604481018e90529051918e16916323b872dd916064808201926020929091908290030181600087803b15801561091257600080fd5b505af1158015610926573d6000803e3d6000fd5b505050506040513d602081101561093c57600080fd5b5051151561094957600080fd5b600760009054906101000a9004600160a060020a0316600160a060020a0316635f991cc834338f8f8f8f8f8f8f8f6040518b63ffffffff1660e060020a028152600401808a600160a060020a0316600160a060020a0316815260200189600160a060020a0316600160a060020a0316815260200188815260200187600160a060020a0316600160a060020a0316815260200186600160a060020a0316600160a060020a0316815260200185815260200184815260200183600160a060020a0316600160a060020a0316815260200180602001828103825283818151815260200191508051906020019080838360005b83811015610a50578181015183820152602001610a38565b50505050905090810190601f168015610a7d5780820380516001836020036101000a031916815260200191505b509a50505050505050505050506020604051808303818588803b158015610aa357600080fd5b505af1158015610ab7573d6000803e3d6000fd5b50505050506040513d6020811015610ace57600080fd5b505183516020850151919350610ae6918e8d8d6117e2565b60208101519091508214610af957600080fd5b6020810151881015610b0a57600080fd5b6040810151871115610b1b57600080fd5b33600160a060020a03167f1849bd6a030a1bca28b83437fd3de96f3d27a5d172fa7e9c78e7b61468928a398d8c846000015185602001516040518085600160a060020a0316600160a060020a0316815260200184600160a060020a0316600160a060020a0316815260200183815260200182815260200194505050505060405180910390a2602001519b9a5050505050505050505050565b60006060610be8858573eeeeeeeeeeeeeeeeeeeeeeeeeeeeeeeeeeeeeeee336b204fce5e3e250261100000008860008861080a565b95945050505050565b600054600160a060020a03163314610c0857600080fd5b82600160a060020a031663a9059cbb82846040518363ffffffff1660e060020a0281526004018083600160a060020a0316600160a060020a0316815260200182815260200192505050602060405180830381600087803b158015610c6b57600080fd5b505af1158015610c7f573d6000803e3d6000fd5b505050506040513d6020811015610c9557600080fd5b50511515610ca257600080fd5b60408051600160a060020a0380861682526020820185905283168183015290517f72cb8a894ddb372ceec3d2a7648d86f17d5a15caae0e986c53109b8a9a9385e69181900360600190a1505050565b600754604080517f3de39c110000000000000000000000000000000000000000000000000000000081529051600092600160a060020a031691633de39c1191600480830192602092919082900301818787803b15801561076757600080fd5b600054600160a060020a03163314610d6757600080fd5b600160a060020a03811660009081526003602052604090205460ff1615610d8d57600080fd5b600554603211610d9c57600080fd5b60408051600160a060020a03831681526001602082015281517f5611bf3e417d124f97bf2c788843ea8bb502b66079fbee02158ef30b172cb762929181900390910190a1600160a060020a03166000818152600360205260408120805460ff191660019081179091556005805491820181559091527f036b6384b5eca791c62761152d0c79bb0604c104a5fb6f4eb0703f3154bb3db0018054600160a060020a0319169091179055565b600754600160a060020a031681565b600754604080517f6432679f000000000000000000000000000000000000000000000000000000008152600160a060020a03848116600483015291516000939290921691636432679f9160248082019260209290919082900301818787803b158015610ec057600080fd5b505af1158015610ed4573d6000803e3d6000fd5b505050506040513d6020811015610eea57600080fd5b505192915050565b60006060610f13868686336b204fce5e3e250261100000008860008861080a565b9695505050505050565b600054600160a060020a03163314610f3457600080fd5b600160a060020a0381161515610f4957600080fd5b60015460408051600160a060020a039092168252517f3b81caf78fa51ecbc8acb482fd7012a277b428d9b80f9d156e8a54107496cc409181900360200190a160018054600160a060020a031916600160a060020a0392909216919091179055565b600154600160a060020a03163314610fc157600080fd5b60015460005460408051600160a060020a03938416815292909116602083015280517f65da1cfc2c2e81576ad96afb24a581f8e109b7a403b35cbd3243a1c99efdb9ed9281900390910190a16001805460008054600160a060020a0319908116600160a060020a03841617909155169055565b6000606061106973eeeeeeeeeeeeeeeeeeeeeeeeeeeeeeeeeeeeeeee3486336b204fce5e3e250261100000008860008861080a565b949350505050565b600054600160a060020a0316331461108857600080fd5b600160a060020a038116151561109d57600080fd5b60408051600160a060020a038316815290517f3b81caf78fa51ecbc8acb482fd7012a277b428d9b80f9d156e8a54107496cc409181900360200190a160005460408051600160a060020a038085168252909216602083015280517f65da1cfc2c2e81576ad96afb24a581f8e109b7a403b35cbd3243a1c99efdb9ed9281900390910190a160008054600160a060020a031916600160a060020a0392909216919091179055565b6060600580548060200260200160405190810160405280929190818152602001828054801561080057602002820191906000526020600020908154600160a060020a031681526001909101906020018083116107e2575050505050905090565b600754604080517f809a9e55000000000000000000000000000000000000000000000000000000008152600160a060020a0386811660048301528581166024830152604482018590528251600094859492169263809a9e5592606480830193919282900301818787803b15801561121957600080fd5b505af115801561122d573d6000803e3d6000fd5b505050506040513d604081101561124357600080fd5b50805160209091015190969095509350505050565b600754604080517f8eaaeecf000000000000000000000000000000000000000000000000000000008152600160a060020a038581166004830152848116602483015291516000939290921691638eaaeecf9160448082019260209290919082900301818787803b1580156112cb57600080fd5b505af11580156112df573d6000803e3d6000fd5b505050506040513d60208110156112f557600080fd5b505190505b92915050565b600054600160a060020a0316331461131757600080fd5b600160a060020a03811660009081526002602052604090205460ff161561133d57600080fd5b60045460321161134c57600080fd5b60408051600160a060020a03831681526001602082015281517f091a7a4b85135fdd7e8dbc18b12fabe5cc191ea867aa3c2e1a24a102af61d58b929181900390910190a1600160a060020a03166000818152600260205260408120805460ff191660019081179091556004805491820181559091527f8a35acfbc15ff81a39ae7d344fd709f28e8600b4aa8c65c6b64bfe7fe36bd19b018054600160a060020a0319169091179055565b600054600160a060020a0316331461140d57600080fd5b600160a060020a038116151561142257600080fd5b60075460408051600160a060020a038085168252909216602083015280517f8936e1f096bf0a8c9df862b3d1d5b82774cad78116200175f00b5b7ba3010b029281900390910190a160078054600160a060020a031916600160a060020a0392909216919091179055565b60008054600160a060020a031633146114a457600080fd5b600160a060020a03821660009081526002602052604090205460ff1615156114cb57600080fd5b50600160a060020a0381166000908152600260205260408120805460ff191690555b6004548110156107045781600160a060020a031660048281548110151561151057fe5b600091825260209091200154600160a060020a031614156115e95760048054600019810190811061153d57fe5b60009182526020909120015460048054600160a060020a03909216918390811061156357fe5b60009182526020909120018054600160a060020a031916600160a060020a039290921691909117905560048054600019019061159f9082611b37565b5060408051600160a060020a03841681526000602082015281517f091a7a4b85135fdd7e8dbc18b12fabe5cc191ea867aa3c2e1a24a102af61d58b929181900390910190a1610704565b6001016114ed565b600754604080517fb64a097e000000000000000000000000000000000000000000000000000000008152600481018490529051600092600160a060020a03169163b64a097e91602480830192602092919082900301818787803b158015610ec057600080fd5b6000606061166b898989898989898861080a565b9998505050505050505050565b600054600160a060020a0316331461168f57600080fd5b604051600160a060020a0382169083156108fc029084906000818181858888f193505050501580156116c5573d6000803e3d6000fd5b5060408051838152600160a060020a038316602082015281517fec47e7ed86c86774d1a72c19f35c639911393fe7c1a34031fdbd260890da90de929181900390910190a15050565b6000600160a060020a03831673eeeeeeeeeeeeeeeeeeeeeeeeeeeeeeeeeeeeeeee14156117455750600160a060020a038116316112fa565b82600160a060020a03166370a08231836040518263ffffffff1660e060020a0281526004018082600160a060020a0316600160a060020a03168152602001915050602060405180830381600087803b1580156117a057600080fd5b505af11580156117b4573d6000803e3d6000fd5b505050506040513d60208110156117ca57600080fd5b505190506112fa565b600054600160a060020a031681565b6117ea611b77565b6000806117f7863361170d565b9150611803858561170d565b905086811161181157600080fd5b81881161181d57600080fd5b868103602084018190528289038085526118489161183a89611859565b61184389611859565b61189d565b604084015250909695505050505050565b600160a060020a03811660009081526006602052604081205415156118815761188182611a64565b50600160a060020a031660009081526006602052604090205490565b60006b204fce5e3e25026110000000851115611903576040805160e560020a62461bcd02815260206004820152600160248201527f3100000000000000000000000000000000000000000000000000000000000000604482015290519081900360640190fd5b6b204fce5e3e25026110000000841115611967576040805160e560020a62461bcd02815260206004820152600160248201527f3200000000000000000000000000000000000000000000000000000000000000604482015290519081900360640190fd5b8282106119ed57601283830311156119c9576040805160e560020a62461bcd02815260206004820152600160248201527f3300000000000000000000000000000000000000000000000000000000000000604482015290519081900360640190fd5b84838303600a0a02670de0b6b3a764000085028115156119e557fe5b049050611069565b60128284031115611a48576040805160e560020a62461bcd02815260206004820152600160248201527f3400000000000000000000000000000000000000000000000000000000000000604482015290519081900360640190fd5b84828403600a0a670de0b6b3a76400008602028115156119e557fe5b600160a060020a03811673eeeeeeeeeeeeeeeeeeeeeeeeeeeeeeeeeeeeeeee1415611aaa57600160a060020a038116600090815260066020526040902060129055611b34565b80600160a060020a031663313ce5676040518163ffffffff1660e060020a028152600401602060405180830381600087803b158015611ae857600080fd5b505af1158015611afc573d6000803e3d6000fd5b505050506040513d6020811015611b1257600080fd5b5051600160a060020a038216600090815260066020526040902060ff90911690555b50565b815481835581811115611b5b57600083815260209020611b5b918101908301611b99565b505050565b604080518082019091526000808252602082015290565b6060604051908101604052806000815260200160008152602001600081525090565b61079691905b80821115611bb35760008155600101611b9f565b50905600a165627a7a72305820247fede643eb0f176d16a751a5fa5750dbd8f7906c5caea1377c9adbda24a05a0029",
  "source": "pragma solidity ^0.4.24;\n\n\nimport \"../interfaces/ERC20.sol\";\nimport \"./Withdrawable.sol\";\nimport \"./Utils2.sol\";\nimport \"./KyberNetworkInterface.sol\";\nimport \"./SimpleNetworkInterface.sol\";\n\n////////////////////////////////////////////////////////////////////////////////////////////////////////\n/// @title Kyber Network proxy for main contract\ncontract KyberNetworkProxy is SimpleNetworkInterface, Withdrawable, Utils2 {\n\n    KyberNetworkInterface public kyberNetworkContract;\n\n    constructor(address _admin) public {\n        require(_admin != address(0));\n        admin = _admin;\n    }\n\n    /// @notice use token address ETH_TOKEN_ADDRESS for ether\n    /// @dev makes a trade between src and dest token and send dest token to destAddress\n    /// @param src Src token\n    /// @param srcAmount amount of src tokens\n    /// @param dest   Destination token\n    /// @param destAddress Address to send tokens to\n    /// @param maxDestAmount A limit on the amount of dest tokens\n    /// @param minConversionRate The minimal conversion rate. If actual rate is lower, trade is canceled.\n    /// @param walletId is the wallet ID to send part of the fees\n    /// @return amount of actual dest tokens\n    function trade(\n        ERC20 src,\n        uint srcAmount,\n        ERC20 dest,\n        address destAddress,\n        uint maxDestAmount,\n        uint minConversionRate,\n        address walletId\n    )\n        public\n        payable\n        returns(uint)\n    {\n        bytes memory hint;\n\n        return tradeWithHint(\n            src,\n            srcAmount,\n            dest,\n            destAddress,\n            maxDestAmount,\n            minConversionRate,\n            walletId,\n            hint\n        );\n    }\n\n    /// @dev makes a trade between src and dest token and send dest tokens to msg sender\n    /// @param src Src token\n    /// @param srcAmount amount of src tokens\n    /// @param dest Destination token\n    /// @param minConversionRate The minimal conversion rate. If actual rate is lower, trade is canceled.\n    /// @return amount of actual dest tokens\n    function swapTokenToToken(\n        ERC20 src,\n        uint srcAmount,\n        ERC20 dest,\n        uint minConversionRate\n    )\n        public\n        returns(uint)\n    {\n        bytes memory hint;\n\n        return tradeWithHint(\n            src,\n            srcAmount,\n            dest,\n            msg.sender,\n            MAX_QTY,\n            minConversionRate,\n            0,\n            hint\n        );\n    }\n\n    /// @dev makes a trade from Ether to token. Sends token to msg sender\n    /// @param token Destination token\n    /// @param minConversionRate The minimal conversion rate. If actual rate is lower, trade is canceled.\n    /// @return amount of actual dest tokens\n    function swapEtherToToken(ERC20 token, uint minConversionRate) public payable returns(uint) {\n        bytes memory hint;\n\n        return tradeWithHint(\n            ETH_TOKEN_ADDRESS,\n            msg.value,\n            token,\n            msg.sender,\n            MAX_QTY,\n            minConversionRate,\n            0,\n            hint\n        );\n    }\n\n    /// @dev makes a trade from token to Ether, sends Ether to msg sender\n    /// @param token Src token\n    /// @param srcAmount amount of src tokens\n    /// @param minConversionRate The minimal conversion rate. If actual rate is lower, trade is canceled.\n    /// @return amount of actual dest tokens\n    function swapTokenToEther(ERC20 token, uint srcAmount, uint minConversionRate) public returns(uint) {\n        bytes memory hint;\n\n        return tradeWithHint(\n            token,\n            srcAmount,\n            ETH_TOKEN_ADDRESS,\n            msg.sender,\n            MAX_QTY,\n            minConversionRate,\n            0,\n            hint\n        );\n    }\n\n    struct UserBalance {\n        uint srcBalance;\n        uint destBalance;\n    }\n\n    event ExecuteTrade(address indexed trader, ERC20 src, ERC20 dest, uint actualSrcAmount, uint actualDestAmount);\n\n    /// @notice use token address ETH_TOKEN_ADDRESS for ether\n    /// @dev makes a trade between src and dest token and send dest token to destAddress\n    /// @param src Src token\n    /// @param srcAmount amount of src tokens\n    /// @param dest Destination token\n    /// @param destAddress Address to send tokens to\n    /// @param maxDestAmount A limit on the amount of dest tokens\n    /// @param minConversionRate The minimal conversion rate. If actual rate is lower, trade is canceled.\n    /// @param walletId is the wallet ID to send part of the fees\n    /// @param hint will give hints for the trade.\n    /// @return amount of actual dest tokens\n    function tradeWithHint(\n        ERC20 src,\n        uint srcAmount,\n        ERC20 dest,\n        address destAddress,\n        uint maxDestAmount,\n        uint minConversionRate,\n        address walletId,\n        bytes hint\n    )\n        public\n        payable\n        returns(uint)\n    {\n        require(src == ETH_TOKEN_ADDRESS || msg.value == 0);\n\n        UserBalance memory userBalanceBefore;\n\n        userBalanceBefore.srcBalance = getBalance(src, msg.sender);\n        userBalanceBefore.destBalance = getBalance(dest, destAddress);\n\n        if (src == ETH_TOKEN_ADDRESS) {\n            userBalanceBefore.srcBalance += msg.value;\n        } else {\n            require(src.transferFrom(msg.sender, kyberNetworkContract, srcAmount));\n        }\n\n        uint reportedDestAmount = kyberNetworkContract.tradeWHint.value(msg.value)(\n            msg.sender,\n            src,\n            srcAmount,\n            dest,\n            destAddress,\n            maxDestAmount,\n            minConversionRate,\n            walletId,\n            hint\n        );\n\n        TradeOutcome memory tradeOutcome = calculateTradeOutcome(\n            userBalanceBefore.srcBalance,\n            userBalanceBefore.destBalance,\n            src,\n            dest,\n            destAddress\n        );\n\n        require(reportedDestAmount == tradeOutcome.userDeltaDestAmount);\n        require(tradeOutcome.userDeltaDestAmount <= maxDestAmount);\n        require(tradeOutcome.actualRate >= minConversionRate);\n\n        emit ExecuteTrade(msg.sender, src, dest, tradeOutcome.userDeltaSrcAmount, tradeOutcome.userDeltaDestAmount);\n        return tradeOutcome.userDeltaDestAmount;\n    }\n\n    event KyberNetworkSet(address newNetworkContract, address oldNetworkContract);\n\n    function setKyberNetworkContract(KyberNetworkInterface _kyberNetworkContract) public onlyAdmin {\n\n        require(_kyberNetworkContract != address(0));\n\n        emit KyberNetworkSet(_kyberNetworkContract, kyberNetworkContract);\n\n        kyberNetworkContract = _kyberNetworkContract;\n    }\n\n    function getExpectedRate(ERC20 src, ERC20 dest, uint srcQty)\n        public view\n        returns(uint expectedRate, uint slippageRate)\n    {\n        return kyberNetworkContract.getExpectedRate(src, dest, srcQty);\n    }\n\n    function getUserCapInWei(address user) public view returns(uint) {\n        return kyberNetworkContract.getUserCapInWei(user);\n    }\n\n    function getUserCapInTokenWei(address user, ERC20 token) public view returns(uint) {\n        return kyberNetworkContract.getUserCapInTokenWei(user, token);\n    }\n\n    function maxGasPrice() public view returns(uint) {\n        return kyberNetworkContract.maxGasPrice();\n    }\n\n    function enabled() public view returns(bool) {\n        return kyberNetworkContract.enabled();\n    }\n\n    function info(bytes32 field) public view returns(uint) {\n        return kyberNetworkContract.info(field);\n    }\n\n    struct TradeOutcome {\n        uint userDeltaSrcAmount;\n        uint userDeltaDestAmount;\n        uint actualRate;\n    }\n\n    function calculateTradeOutcome (uint srcBalanceBefore, uint destBalanceBefore, ERC20 src, ERC20 dest,\n        address destAddress)\n        internal returns(TradeOutcome outcome)\n    {\n        uint userSrcBalanceAfter;\n        uint userDestBalanceAfter;\n\n        userSrcBalanceAfter = getBalance(src, msg.sender);\n        userDestBalanceAfter = getBalance(dest, destAddress);\n\n        //protect from underflow\n        require(userDestBalanceAfter > destBalanceBefore);\n        require(srcBalanceBefore > userSrcBalanceAfter);\n\n        outcome.userDeltaDestAmount = userDestBalanceAfter - destBalanceBefore;\n        outcome.userDeltaSrcAmount = srcBalanceBefore - userSrcBalanceAfter;\n\n        outcome.actualRate = calcRateFromQty(\n                outcome.userDeltaSrcAmount,\n                outcome.userDeltaDestAmount,\n                getDecimalsSafe(src),\n                getDecimalsSafe(dest)\n            );\n    }\n}\n",
  "sourcePath": "/home/peter/Documents/Work/MyBit/MyBit-Network.tech/contracts/kyber/KyberNetworkProxy.sol",
  "compiler": {
    "name": "solc",
    "version": "0.4.24+commit.e67f0147.Emscripten.clang"
  },
  "schemaVersion": "3.0.2",
  "updatedAt": "2019-04-08T19:44:50.337Z",
  "devdoc": {
    "methods": {
      "claimAdmin()": {
        "details": "Allows the pendingAdmin address to finalize the change admin process."
      },
      "getBalance(address,address)": {
        "details": "get the balance of a user.",
        "params": {
          "token": "The token type"
        },
        "return": "The balance"
      },
      "swapEtherToToken(address,uint256)": {
        "details": "makes a trade from Ether to token. Sends token to msg sender",
        "params": {
          "minConversionRate": "The minimal conversion rate. If actual rate is lower, trade is canceled.",
          "token": "Destination token"
        },
        "return": "amount of actual dest tokens"
      },
      "swapTokenToEther(address,uint256,uint256)": {
        "details": "makes a trade from token to Ether, sends Ether to msg sender",
        "params": {
          "minConversionRate": "The minimal conversion rate. If actual rate is lower, trade is canceled.",
          "srcAmount": "amount of src tokens",
          "token": "Src token"
        },
        "return": "amount of actual dest tokens"
      },
      "swapTokenToToken(address,uint256,address,uint256)": {
        "details": "makes a trade between src and dest token and send dest tokens to msg sender",
        "params": {
          "dest": "Destination token",
          "minConversionRate": "The minimal conversion rate. If actual rate is lower, trade is canceled.",
          "src": "Src token",
          "srcAmount": "amount of src tokens"
        },
        "return": "amount of actual dest tokens"
      },
      "trade(address,uint256,address,address,uint256,uint256,address)": {
        "details": "makes a trade between src and dest token and send dest token to destAddress",
        "params": {
          "dest": "Destination token",
          "destAddress": "Address to send tokens to",
          "maxDestAmount": "A limit on the amount of dest tokens",
          "minConversionRate": "The minimal conversion rate. If actual rate is lower, trade is canceled.",
          "src": "Src token",
          "srcAmount": "amount of src tokens",
          "walletId": "is the wallet ID to send part of the fees"
        },
        "return": "amount of actual dest tokens"
      },
      "tradeWithHint(address,uint256,address,address,uint256,uint256,address,bytes)": {
        "details": "makes a trade between src and dest token and send dest token to destAddress",
        "params": {
          "dest": "Destination token",
          "destAddress": "Address to send tokens to",
          "hint": "will give hints for the trade.",
          "maxDestAmount": "A limit on the amount of dest tokens",
          "minConversionRate": "The minimal conversion rate. If actual rate is lower, trade is canceled.",
          "src": "Src token",
          "srcAmount": "amount of src tokens",
          "walletId": "is the wallet ID to send part of the fees"
        },
        "return": "amount of actual dest tokens"
      },
      "transferAdmin(address)": {
        "details": "Allows the current admin to set the pendingAdmin address.",
        "params": {
          "newAdmin": "The address to transfer ownership to."
        }
      },
      "transferAdminQuickly(address)": {
        "details": "Allows the current admin to set the admin in one tx. Useful initial deployment.",
        "params": {
          "newAdmin": "The address to transfer ownership to."
        }
      },
      "withdrawEther(uint256,address)": {
        "details": "Withdraw Ethers"
      },
      "withdrawToken(address,uint256,address)": {
        "details": "Withdraw all ERC20 compatible tokens",
        "params": {
          "token": "ERC20 The address of the token contract"
        }
      }
    },
    "title": "Kyber Network proxy for main contract"
  },
  "userdoc": {
    "methods": {
      "trade(address,uint256,address,address,uint256,uint256,address)": {
        "notice": "use token address ETH_TOKEN_ADDRESS for ether"
      },
      "tradeWithHint(address,uint256,address,address,uint256,uint256,address,bytes)": {
        "notice": "use token address ETH_TOKEN_ADDRESS for ether"
      }
    }
  }
}