{
  "contractName": "KYC",
  "abi": [
    {
      "constant": false,
      "inputs": [
        {
          "name": "_newUser",
          "type": "address"
        },
        {
          "name": "_accessLevel",
          "type": "uint256"
        }
      ],
      "name": "approveUser",
      "outputs": [
        {
          "name": "",
          "type": "bool"
        }
      ],
      "payable": false,
      "stateMutability": "nonpayable",
      "type": "function"
    },
    {
      "constant": false,
      "inputs": [
        {
          "name": "_newUpperLimit",
          "type": "uint8"
        }
      ],
      "name": "setUpperAccessLevel",
      "outputs": [],
      "payable": false,
      "stateMutability": "nonpayable",
      "type": "function"
    },
    {
      "constant": true,
      "inputs": [],
      "name": "database",
      "outputs": [
        {
          "name": "",
          "type": "address"
        }
      ],
      "payable": false,
      "stateMutability": "view",
      "type": "function"
    },
    {
      "constant": false,
      "inputs": [],
      "name": "destroy",
      "outputs": [],
      "payable": false,
      "stateMutability": "nonpayable",
      "type": "function"
    },
    {
      "constant": false,
      "inputs": [
        {
          "name": "_user",
          "type": "address"
        }
      ],
      "name": "removeUser",
      "outputs": [
        {
          "name": "",
          "type": "bool"
        }
      ],
      "payable": false,
      "stateMutability": "nonpayable",
      "type": "function"
    },
    {
      "constant": true,
      "inputs": [],
      "name": "events",
      "outputs": [
        {
          "name": "",
          "type": "address"
        }
      ],
      "payable": false,
      "stateMutability": "view",
      "type": "function"
    },
    {
      "constant": true,
      "inputs": [],
      "name": "upperAccessLevel",
      "outputs": [
        {
          "name": "",
          "type": "uint8"
        }
      ],
      "payable": false,
      "stateMutability": "view",
      "type": "function"
    },
    {
      "inputs": [
        {
          "name": "_database",
          "type": "address"
        },
        {
          "name": "_events",
          "type": "address"
        }
      ],
      "payable": false,
      "stateMutability": "nonpayable",
      "type": "constructor"
    },
    {
      "anonymous": false,
      "inputs": [
        {
          "indexed": false,
          "name": "_owner",
          "type": "address"
        },
        {
          "indexed": false,
          "name": "_user",
          "type": "address"
        }
      ],
      "name": "LogKYCApproved",
      "type": "event"
    },
    {
      "anonymous": false,
      "inputs": [
        {
          "indexed": false,
          "name": "_user",
          "type": "address"
        },
        {
          "indexed": false,
          "name": "_approvalLevel",
          "type": "uint256"
        }
      ],
      "name": "LogUserApproved",
      "type": "event"
    },
    {
      "anonymous": false,
      "inputs": [
        {
          "indexed": true,
          "name": "_user",
          "type": "address"
        },
        {
          "indexed": true,
          "name": "_accessLevel",
          "type": "uint256"
        }
      ],
      "name": "LogUserRemoved",
      "type": "event"
    },
    {
      "constant": false,
      "inputs": [
        {
          "name": "_user",
          "type": "address"
        }
      ],
      "name": "approveKYC",
      "outputs": [],
      "payable": false,
      "stateMutability": "nonpayable",
      "type": "function"
    },
    {
      "constant": false,
      "inputs": [
        {
          "name": "_user",
          "type": "address"
        }
      ],
      "name": "revokeKYC",
      "outputs": [],
      "payable": false,
      "stateMutability": "nonpayable",
      "type": "function"
    }
  ],
  "bytecode": "0x608060405234801561001057600080fd5b5060405160408061110783398101604052805160209091015160008054600160a060020a03938416600160a060020a031991821617909155600180549390921692169190911790556110a0806100676000396000f30060806040526004361061007f5763ffffffff60e060020a6000350416630e27324d811461008457806339ba645b146100a75780634248083b146100c857806344190a8714610100578063713b563f1461011b57806383197ef01461014c5780639857518814610161578063b5f8558c14610182578063df39287414610197575b600080fd5b34801561009057600080fd5b506100a5600160a060020a03600435166101c2565b005b3480156100b357600080fd5b506100a5600160a060020a03600435166104a5565b3480156100d457600080fd5b506100ec600160a060020a03600435166024356106aa565b604080519115158252519081900360200190f35b34801561010c57600080fd5b506100a560ff6004351661097e565b34801561012757600080fd5b50610130610ae1565b60408051600160a060020a039092168252519081900360200190f35b34801561015857600080fd5b506100a5610af0565b34801561016d57600080fd5b506100ec600160a060020a0360043516610cc4565b34801561018e57600080fd5b50610130611044565b3480156101a357600080fd5b506101ac611053565b6040805160ff9092168252519081900360200190f35b6000546040805160d960020a6437bbb732b902602080830191909152606060020a33026025830152825160198184030181526039909201928390528151600160a060020a0390941693633b7bfda093918291908401908083835b6020831061023b5780518252601f19909201916020918201910161021c565b51815160209384036101000a60001901801990921691161790526040805192909401829003822063ffffffff881660e060020a0283526004830152925160248083019650939450929083900301905081600087803b15801561029c57600080fd5b505af11580156102b0573d6000803e3d6000fd5b505050506040513d60208110156102c657600080fd5b505115156102d357600080fd5b600054604080517f6b7963417070726f766564000000000000000000000000000000000000000000602080830191909152600160a060020a03858116606060020a02602b8401528351808403601f018152603f90930193849052825194169363abfdcced93918291908401908083835b602083106103625780518252601f199092019160209182019101610343565b5181516020939093036101000a60001901801990911692169190911790526040805191909301819003812063ffffffff871660e060020a028252600482015260016024820152915160448084019550600094509092839003019050818387803b1580156103ce57600080fd5b505af11580156103e2573d6000803e3d6000fd5b5050600154604080517f68b96270000000000000000000000000000000000000000000000000000000008152336024820152600160a060020a03868116604483015260006064830181905260a06004840152600c60a48401527f4b594320417070726f766564000000000000000000000000000000000000000060c48401529251931694506368b96270935060e4808201939182900301818387803b15801561048a57600080fd5b505af115801561049e573d6000803e3d6000fd5b5050505050565b6000546040805160d960020a6437bbb732b902602080830191909152606060020a33026025830152825160198184030181526039909201928390528151600160a060020a0390941693633b7bfda093918291908401908083835b6020831061051e5780518252601f1990920191602091820191016104ff565b51815160209384036101000a60001901801990921691161790526040805192909401829003822063ffffffff881660e060020a0283526004830152925160248083019650939450929083900301905081600087803b15801561057f57600080fd5b505af1158015610593573d6000803e3d6000fd5b505050506040513d60208110156105a957600080fd5b505115156105b657600080fd5b600054604080517f6b7963417070726f766564000000000000000000000000000000000000000000602080830191909152600160a060020a03858116606060020a02602b8401528351808403601f018152603f909301938490528251941693632c62ff2d93918291908401908083835b602083106106455780518252601f199092019160209182019101610626565b5181516020939093036101000a60001901801990911692169190911790526040805191909301819003812063ffffffff871660e060020a0282526004820152915160248084019550600094509092839003019050818387803b15801561048a57600080fd5b60008054604080517f636f6e7472616374000000000000000000000000000000000000000000000000602080830191909152606060020a330260288301528251601c818403018152603c909201928390528151600160a060020a0390941693633b7bfda093918291908401908083835b602083106107395780518252601f19909201916020918201910161071a565b51815160209384036101000a60001901801990921691161790526040805192909401829003822063ffffffff881660e060020a0283526004830152925160248083019650939450929083900301905081600087803b15801561079a57600080fd5b505af11580156107ae573d6000803e3d6000fd5b505050506040513d60208110156107c457600080fd5b505115156107d157600080fd5b82600160a060020a03811615156107e757600080fd5b60015474010000000000000000000000000000000000000000900460ff168310801561081257508215155b151561081d57600080fd5b600054604080517f7573657241636365737300000000000000000000000000000000000000000000602080830191909152600160a060020a03888116606060020a02602a8401528351808403601e018152603e90930193849052825194169363e2a4853a93918291908401908083835b602083106108ac5780518252601f19909201916020918201910161088d565b5181516020939093036101000a60001901801990911692169190911790526040805191909301819003812063ffffffff871660e060020a0282526004820152602481018a9052915160448084019550600094509092839003019050818387803b15801561091857600080fd5b505af115801561092c573d6000803e3d6000fd5b505060408051600160a060020a03881681526020810187905281517fe8b0d2948bfc19ce9cb6dd3be73adffa387a1c6f662adc9c5b8ebeede21deb689450908190039091019150a15060019392505050565b6000546040805160d960020a6437bbb732b902602080830191909152606060020a33026025830152825160198184030181526039909201928390528151600160a060020a0390941693633b7bfda093918291908401908083835b602083106109f75780518252601f1990920191602091820191016109d8565b51815160209384036101000a60001901801990921691161790526040805192909401829003822063ffffffff881660e060020a0283526004830152925160248083019650939450929083900301905081600087803b158015610a5857600080fd5b505af1158015610a6c573d6000803e3d6000fd5b505050506040513d6020811015610a8257600080fd5b50511515610a8f57600080fd5b600060ff821611610a9f57600080fd5b6001805460ff909216740100000000000000000000000000000000000000000274ff000000000000000000000000000000000000000019909216919091179055565b600054600160a060020a031681565b6000546040805160d960020a6437bbb732b902602080830191909152606060020a33026025830152825160198184030181526039909201928390528151600160a060020a0390941693633b7bfda093918291908401908083835b60208310610b695780518252601f199092019160209182019101610b4a565b51815160209384036101000a60001901801990921691161790526040805192909401829003822063ffffffff881660e060020a0283526004830152925160248083019650939450929083900301905081600087803b158015610bca57600080fd5b505af1158015610bde573d6000803e3d6000fd5b505050506040513d6020811015610bf457600080fd5b50511515610c0157600080fd5b600154604080517f68b96270000000000000000000000000000000000000000000000000000000008152306024820181905233604483015231606482015260a06004820152601960a48201527f4163636573734869657261726368792064657374726f7965640000000000000060c48201529051600160a060020a03909216916368b962709160e48082019260009290919082900301818387803b158015610ca857600080fd5b505af1158015610cbc573d6000803e3d6000fd5b503392505050ff5b600080546040805160d960020a6437bbb732b902602080830191909152606060020a330260258301528251601981840301815260399092019283905281518594600160a060020a031693633b7bfda09392909182918401908083835b60208310610d3f5780518252601f199092019160209182019101610d20565b51815160209384036101000a60001901801990921691161790526040805192909401829003822063ffffffff881660e060020a0283526004830152925160248083019650939450929083900301905081600087803b158015610da057600080fd5b505af1158015610db4573d6000803e3d6000fd5b505050506040513d6020811015610dca57600080fd5b50511515610dd757600080fd5b600054604080517f7573657241636365737300000000000000000000000000000000000000000000602080830191909152600160a060020a03878116606060020a02602a8401528351808403601e018152603e90930193849052825194169363a855d4ce93918291908401908083835b60208310610e665780518252601f199092019160209182019101610e47565b51815160209384036101000a60001901801990921691161790526040805192909401829003822063ffffffff881660e060020a0283526004830152925160248083019650939450929083900301905081600087803b158015610ec757600080fd5b505af1158015610edb573d6000803e3d6000fd5b505050506040513d6020811015610ef157600080fd5b5051600054604080517f7573657241636365737300000000000000000000000000000000000000000000602080830191909152600160a060020a03888116606060020a02602a8401528351808403601e018152603e9093019384905282519596509093169363e2b202bf939192918291908401908083835b60208310610f885780518252601f199092019160209182019101610f69565b5181516020939093036101000a60001901801990911692169190911790526040805191909301819003812063ffffffff871660e060020a0282526004820152915160248084019550600094509092839003019050818387803b158015610fed57600080fd5b505af1158015611001573d6000803e3d6000fd5b5050604051839250600160a060020a03861691507fe8bca18329debfd209083cfd37b3dbfaa9318ae7bf4dcb40f63ca7be92c26acc90600090a350600192915050565b600154600160a060020a031681565b60015474010000000000000000000000000000000000000000900460ff16815600a165627a7a7230582078d1ad68a893a205d8a4ddaad1d8796a25446cd1b338d1801925b923629202320029",
  "source": "pragma solidity ^0.4.24;\n\nimport './AccessHierarchy.sol';\n\n// @title A contract that manages KYC approval\n// @notice KYC can be granted or revoked here\n// @author Kyle Dewhurst, MyBit Foundation\n\ncontract KYC is AccessHierarchy {\n\n  constructor(address _database, address _events) public AccessHierarchy(_database, _events){}\n\n  // @notice Owner can approve KYC for user\n  function approveKYC(address _user)\n  onlyOwner\n  external {\n    database.setBool(keccak256(abi.encodePacked(\"kycApproved\", _user)), true);\n    events.transaction('KYC Approved', msg.sender, _user, 0, '');\n    //emit LogKYCApproved(msg.sender, _user);\n  }\n\n  // @notice Owner can approve KYC for user\n  function revokeKYC(address _user)\n  onlyOwner\n  external  {\n    database.deleteBool(keccak256(abi.encodePacked(\"kycApproved\", _user)));\n  }\n\n\n  event LogKYCApproved(address _owner, address _user);\n}\n",
  "sourcePath": "/home/peter/Documents/Work/MyBit/MyBit-Network.tech/contracts/access/KYC.sol",
  "compiler": {
    "name": "solc",
    "version": "0.4.24+commit.e67f0147.Emscripten.clang"
  },
  "schemaVersion": "3.0.2",
  "updatedAt": "2019-03-20T20:50:44.337Z",
  "devdoc": {
    "methods": {}
  },
  "userdoc": {
    "methods": {}
  }
}