{
  "contractName": "MintableDistribution",
  "abi": [
    {
      "constant": true,
      "inputs": [],
      "name": "supply",
      "outputs": [
        {
          "name": "",
          "type": "uint256"
        }
      ],
      "payable": false,
      "stateMutability": "view",
      "type": "function"
    },
    {
      "constant": true,
      "inputs": [],
      "name": "mintingFinished",
      "outputs": [
        {
          "name": "",
          "type": "bool"
        }
      ],
      "payable": false,
      "stateMutability": "view",
      "type": "function"
    },
    {
      "constant": true,
      "inputs": [],
      "name": "minter",
      "outputs": [
        {
          "name": "",
          "type": "address"
        }
      ],
      "payable": false,
      "stateMutability": "view",
      "type": "function"
    },
    {
      "constant": true,
      "inputs": [],
      "name": "totalSupply",
      "outputs": [
        {
          "name": "",
          "type": "uint256"
        }
      ],
      "payable": false,
      "stateMutability": "view",
      "type": "function"
    },
    {
      "constant": true,
      "inputs": [],
      "name": "assetIncome",
      "outputs": [
        {
          "name": "",
          "type": "uint256"
        }
      ],
      "payable": false,
      "stateMutability": "view",
      "type": "function"
    },
    {
      "constant": true,
      "inputs": [],
      "name": "tokenURI",
      "outputs": [
        {
          "name": "",
          "type": "string"
        }
      ],
      "payable": false,
      "stateMutability": "view",
      "type": "function"
    },
    {
      "constant": false,
      "inputs": [],
      "name": "withdraw",
      "outputs": [
        {
          "name": "_amount",
          "type": "uint256"
        }
      ],
      "payable": false,
      "stateMutability": "nonpayable",
      "type": "function"
    },
    {
      "constant": true,
      "inputs": [
        {
          "name": "_owner",
          "type": "address"
        }
      ],
      "name": "balanceOf",
      "outputs": [
        {
          "name": "",
          "type": "uint256"
        }
      ],
      "payable": false,
      "stateMutability": "view",
      "type": "function"
    },
    {
      "constant": true,
      "inputs": [],
      "name": "valuePerToken",
      "outputs": [
        {
          "name": "",
          "type": "uint256"
        }
      ],
      "payable": false,
      "stateMutability": "view",
      "type": "function"
    },
    {
      "constant": true,
      "inputs": [
        {
          "name": "_user",
          "type": "address"
        }
      ],
      "name": "getUnclaimedAmount",
      "outputs": [
        {
          "name": "",
          "type": "uint256"
        }
      ],
      "payable": false,
      "stateMutability": "view",
      "type": "function"
    },
    {
      "constant": false,
      "inputs": [],
      "name": "issueDividends",
      "outputs": [],
      "payable": true,
      "stateMutability": "payable",
      "type": "function"
    },
    {
      "constant": true,
      "inputs": [
        {
          "name": "",
          "type": "address"
        }
      ],
      "name": "claimableIncome",
      "outputs": [
        {
          "name": "",
          "type": "uint256"
        }
      ],
      "payable": false,
      "stateMutability": "view",
      "type": "function"
    },
    {
      "constant": true,
      "inputs": [
        {
          "name": "",
          "type": "address"
        }
      ],
      "name": "previousValuePerToken",
      "outputs": [
        {
          "name": "",
          "type": "uint256"
        }
      ],
      "payable": false,
      "stateMutability": "view",
      "type": "function"
    },
    {
      "constant": true,
      "inputs": [
        {
          "name": "_user",
          "type": "address"
        }
      ],
      "name": "getTokenValue",
      "outputs": [
        {
          "name": "",
          "type": "uint256"
        }
      ],
      "payable": false,
      "stateMutability": "view",
      "type": "function"
    },
    {
      "inputs": [
        {
          "name": "_tokenURI",
          "type": "string"
        },
        {
          "name": "_minter",
          "type": "address"
        }
      ],
      "payable": false,
      "stateMutability": "nonpayable",
      "type": "constructor"
    },
    {
      "payable": true,
      "stateMutability": "payable",
      "type": "fallback"
    },
    {
      "anonymous": false,
      "inputs": [
        {
          "indexed": true,
          "name": "to",
          "type": "address"
        },
        {
          "indexed": false,
          "name": "amount",
          "type": "uint256"
        }
      ],
      "name": "Mint",
      "type": "event"
    },
    {
      "anonymous": false,
      "inputs": [],
      "name": "MintFinished",
      "type": "event"
    },
    {
      "anonymous": false,
      "inputs": [
        {
          "indexed": true,
          "name": "_sender",
          "type": "address"
        },
        {
          "indexed": false,
          "name": "_paymentAmount",
          "type": "uint256"
        }
      ],
      "name": "LogIncomeReceived",
      "type": "event"
    },
    {
      "anonymous": false,
      "inputs": [
        {
          "indexed": false,
          "name": "_block",
          "type": "uint256"
        },
        {
          "indexed": false,
          "name": "_address",
          "type": "address"
        },
        {
          "indexed": false,
          "name": "_amount",
          "type": "uint256"
        }
      ],
      "name": "LogIncomeCollected",
      "type": "event"
    },
    {
      "constant": false,
      "inputs": [
        {
          "name": "_to",
          "type": "address"
        },
        {
          "name": "_amount",
          "type": "uint256"
        }
      ],
      "name": "mint",
      "outputs": [
        {
          "name": "",
          "type": "bool"
        }
      ],
      "payable": false,
      "stateMutability": "nonpayable",
      "type": "function"
    },
    {
      "constant": false,
      "inputs": [],
      "name": "finishMinting",
      "outputs": [
        {
          "name": "",
          "type": "bool"
        }
      ],
      "payable": false,
      "stateMutability": "nonpayable",
      "type": "function"
    }
  ],
  "bytecode": "0x60806040526007805460ff1916905534801561001a57600080fd5b506040516109df3803806109df833981016040528051602080830151919092018051909261004d9160029185019061007a565b5060078054600160a060020a039092166101000261010060a860020a031990921691909117905550610115565b828054600181600116156101000203166002900490600052602060002090601f016020900481019282601f106100bb57805160ff19168380011785556100e8565b828001600101855582156100e8579182015b828111156100e85782518255916020019190600101906100cd565b506100f49291506100f8565b5090565b61011291905b808211156100f457600081556001016100fe565b90565b6108bb806101246000396000f3006080604052600436106100e55763ffffffff7c0100000000000000000000000000000000000000000000000000000000600035041663047fc9aa811461017a57806305d2035b146101a157806307546172146101ca57806318160ddd146101fb5780632ba1b3a1146102105780633c130d90146102255780633ccfd60b146102af57806340c10f19146102c457806370a08231146102e85780637d64bcb414610309578063a8fa8e521461031e578063b815239514610333578063eba74e5c14610354578063ec8593be1461035e578063efcb5dea1461037f578063f1c5d6c2146103a0575b6000546101299061011a9061010e346d04ee2d6d415b85acef810000000063ffffffff6103c116565b9063ffffffff6103f716565b6004549063ffffffff61040c16565b60045560035461013f903463ffffffff61040c16565b60035560408051348152905133917fe3166012cb87b3dec8e117fe0e096a47387f94ea2ec12086ed8ae24ff8c237fe919081900360200190a2005b34801561018657600080fd5b5061018f61041b565b60408051918252519081900360200190f35b3480156101ad57600080fd5b506101b6610421565b604080519115158252519081900360200190f35b3480156101d657600080fd5b506101df61042a565b60408051600160a060020a039092168252519081900360200190f35b34801561020757600080fd5b5061018f61043e565b34801561021c57600080fd5b5061018f610444565b34801561023157600080fd5b5061023a61044a565b6040805160208082528351818301528351919283929083019185019080838360005b8381101561027457818101518382015260200161025c565b50505050905090810190601f1680156102a15780820380516001836020036101000a031916815260200191505b509250505060405180910390f35b3480156102bb57600080fd5b5061018f6104d5565b3480156102d057600080fd5b506101b6600160a060020a03600435166024356105db565b3480156102f457600080fd5b5061018f600160a060020a03600435166106a4565b34801561031557600080fd5b506101b66106bf565b34801561032a57600080fd5b5061018f61072b565b34801561033f57600080fd5b5061018f600160a060020a0360043516610731565b61035c61077d565b005b34801561036a57600080fd5b5061018f600160a060020a03600435166107f7565b34801561038b57600080fd5b5061018f600160a060020a0360043516610809565b3480156103ac57600080fd5b5061018f600160a060020a036004351661081b565b6000808315156103d457600091506103f0565b508282028284828115156103e457fe5b04146103ec57fe5b8091505b5092915050565b6000818381151561040457fe5b049392505050565b6000828201838110156103ec57fe5b60005481565b60075460ff1681565b6007546101009004600160a060020a031681565b60005490565b60035481565b6002805460408051602060018416156101000260001901909316849004601f810184900484028201840190925281815292918301828280156104cd5780601f106104a2576101008083540402835291602001916104cd565b820191906000526020600020905b8154815290600101906020018083116104b057829003601f168201915b505050505081565b6000336105096104e48261081b565b600160a060020a0383166000908152600560205260409020549063ffffffff61040c16565b600160a060020a0382166000908152600560208181526040808420949094556004546006825284842055338352522054610557906d04ee2d6d415b85acef810000000063ffffffff6103f716565b3360008181526005602052604080822082905551929450909184156108fc0291859190818181858888f19350505050158015610597573d6000803e3d6000fd5b506040805142815233602082015280820184905290517f10db2ba5699bf5dbd1070a0c0b207f229dc1ecb78bbe555b84cab3db9576ac429181900360600190a15090565b60075460009060ff1615801561060057506007546101009004600160a060020a031633145b151561060b57600080fd5b60005461061e908363ffffffff61040c16565b6000908155600160a060020a038416815260016020526040902054610649908363ffffffff61040c16565b600160a060020a038416600081815260016020908152604091829020939093558051858152905191927f0f6798a560793a54c3bcfe86a93cde1e73087d944c0ea20544137d412139688592918290030190a250600192915050565b600160a060020a031660009081526001602052604090205490565b60075460009060ff161580156106e457506007546101009004600160a060020a031633145b15156106ef57600080fd5b6007805460ff191660011790556040517fae5184fba832cb2b1f702aca6117b8d265eaf03ad33eb133f19dde0f5920fa0890600090a150600190565b60045481565b600160a060020a038116600090815260056020526040812054610777906d04ee2d6d415b85acef81000000009061010e9061076b8661081b565b9063ffffffff61040c16565b92915050565b6000546107a69061011a9061010e346d04ee2d6d415b85acef810000000063ffffffff6103c116565b6004556003546107bc903463ffffffff61040c16565b60035560408051348152905133917fe3166012cb87b3dec8e117fe0e096a47387f94ea2ec12086ed8ae24ff8c237fe919081900360200190a2565b60056020526000908152604090205481565b60066020526000908152604090205481565b600160a060020a0381166000908152600660205260408120546004548291610849919063ffffffff61087d16565b600160a060020a03841660009081526001602052604090205490915061087690829063ffffffff6103c116565b9392505050565b60008282111561088957fe5b509003905600a165627a7a72305820ea339eae2acd3b7ec5933bab757cdceff39472469937d33bd1b5cf65e5b11ea80029",
  "source": "pragma solidity ^0.4.24;\n\nimport '../../math/SafeMath.sol';\nimport './StandardDistribution.sol';\n\n\n\n// @title Non-Transferable ERC20 token contract with shared revenue distribution functionality.\n// @notice This token contract can receive payments in the fallback function and token owners can withdraw their share\n// @author Kyle Dewhurst, MyBitFoundation\n// Credit goes to Nick Johnson for the dividend token https://medium.com/@weka/dividend-bearing-tokens-on-ethereum-42d01c710657\ncontract MintableDistribution is StandardDistribution{\n  using SafeMath for uint;\n\n  bool public mintingFinished = false;\n  address public minter;\n\n  // @notice constructor: initialized\n  constructor(string _tokenURI, address _minter)\n  public {\n      tokenURI = _tokenURI;                         // Set the id for reference\n      minter = _minter;\n  }\n\n  // @dev Function to mint tokens\n  // @param _to The address that will receive the minted tokens.\n  // @param _amount The amount of tokens to mint.\n  function mint(address _to, uint256 _amount)\n  public\n  canMint\n  returns (bool) {\n    supply = supply.add(_amount);\n    balances[_to] = balances[_to].add(_amount);\n    emit Mint(_to, _amount);\n    return true;\n  }\n\n\n  // @dev Function to stop minting new tokens.\n  function finishMinting()\n  public\n  canMint\n  returns (bool) {\n    mintingFinished = true;\n    emit MintFinished();\n    return true;\n  }\n\n  // ------------------------------------------------------------------------------------------------\n  //                                   Modifiers\n  // ------------------------------------------------------------------------------------------------\n\n\n  // @notice modifier: Requires that minting hasn't finished\n  modifier canMint() {\n    require(!mintingFinished && msg.sender == minter);\n    _;\n  }\n\n\n  // ------------------------------------------------------------------------------------------------\n  //                                     Events\n  // ------------------------------------------------------------------------------------------------\n\n  event Mint(address indexed to, uint256 amount);\n  event MintFinished();\n\n}\n",
  "sourcePath": "/home/peter/Documents/Work/MyBit/MyBit-Network.tech/contracts/tokens/distribution/MintableDistribution.sol",
  "compiler": {
    "name": "solc",
    "version": "0.4.24+commit.e67f0147.Emscripten.clang"
  },
  "schemaVersion": "3.0.2",
  "updatedAt": "2019-03-14T21:46:28.853Z",
  "devdoc": {
    "methods": {}
  },
  "userdoc": {
    "methods": {}
  }
}