{
  "contractName": "MintableToken",
  "abi": [
    {
      "constant": true,
      "inputs": [],
      "name": "mintingFinished",
      "outputs": [
        {
          "name": "",
          "type": "bool"
        }
      ],
      "payable": false,
      "stateMutability": "view",
      "type": "function"
    },
    {
      "constant": false,
      "inputs": [
        {
          "name": "_spender",
          "type": "address"
        },
        {
          "name": "_value",
          "type": "uint256"
        }
      ],
      "name": "approve",
      "outputs": [
        {
          "name": "",
          "type": "bool"
        }
      ],
      "payable": false,
      "stateMutability": "nonpayable",
      "type": "function"
    },
    {
      "constant": true,
      "inputs": [],
      "name": "totalSupply",
      "outputs": [
        {
          "name": "",
          "type": "uint256"
        }
      ],
      "payable": false,
      "stateMutability": "view",
      "type": "function"
    },
    {
      "constant": false,
      "inputs": [
        {
          "name": "_from",
          "type": "address"
        },
        {
          "name": "_to",
          "type": "address"
        },
        {
          "name": "_value",
          "type": "uint256"
        }
      ],
      "name": "transferFrom",
      "outputs": [
        {
          "name": "",
          "type": "bool"
        }
      ],
      "payable": false,
      "stateMutability": "nonpayable",
      "type": "function"
    },
    {
      "constant": false,
      "inputs": [
        {
          "name": "_spender",
          "type": "address"
        },
        {
          "name": "_subtractedValue",
          "type": "uint256"
        }
      ],
      "name": "decreaseApproval",
      "outputs": [
        {
          "name": "",
          "type": "bool"
        }
      ],
      "payable": false,
      "stateMutability": "nonpayable",
      "type": "function"
    },
    {
      "constant": true,
      "inputs": [
        {
          "name": "_owner",
          "type": "address"
        }
      ],
      "name": "balanceOf",
      "outputs": [
        {
          "name": "",
          "type": "uint256"
        }
      ],
      "payable": false,
      "stateMutability": "view",
      "type": "function"
    },
    {
      "constant": false,
      "inputs": [
        {
          "name": "_to",
          "type": "address"
        },
        {
          "name": "_value",
          "type": "uint256"
        }
      ],
      "name": "transfer",
      "outputs": [
        {
          "name": "",
          "type": "bool"
        }
      ],
      "payable": false,
      "stateMutability": "nonpayable",
      "type": "function"
    },
    {
      "constant": false,
      "inputs": [
        {
          "name": "_spender",
          "type": "address"
        },
        {
          "name": "_addedValue",
          "type": "uint256"
        }
      ],
      "name": "increaseApproval",
      "outputs": [
        {
          "name": "",
          "type": "bool"
        }
      ],
      "payable": false,
      "stateMutability": "nonpayable",
      "type": "function"
    },
    {
      "constant": true,
      "inputs": [
        {
          "name": "_owner",
          "type": "address"
        },
        {
          "name": "_spender",
          "type": "address"
        }
      ],
      "name": "allowance",
      "outputs": [
        {
          "name": "",
          "type": "uint256"
        }
      ],
      "payable": false,
      "stateMutability": "view",
      "type": "function"
    },
    {
      "inputs": [
        {
          "name": "_tokenURI",
          "type": "string"
        },
        {
          "name": "_minter",
          "type": "address"
        }
      ],
      "payable": false,
      "stateMutability": "nonpayable",
      "type": "constructor"
    },
    {
      "anonymous": false,
      "inputs": [
        {
          "indexed": true,
          "name": "to",
          "type": "address"
        },
        {
          "indexed": false,
          "name": "amount",
          "type": "uint256"
        }
      ],
      "name": "Mint",
      "type": "event"
    },
    {
      "anonymous": false,
      "inputs": [],
      "name": "MintFinished",
      "type": "event"
    },
    {
      "anonymous": false,
      "inputs": [
        {
          "indexed": true,
          "name": "from",
          "type": "address"
        },
        {
          "indexed": true,
          "name": "to",
          "type": "address"
        },
        {
          "indexed": false,
          "name": "value",
          "type": "uint256"
        }
      ],
      "name": "Transfer",
      "type": "event"
    },
    {
      "anonymous": false,
      "inputs": [
        {
          "indexed": true,
          "name": "owner",
          "type": "address"
        },
        {
          "indexed": true,
          "name": "spender",
          "type": "address"
        },
        {
          "indexed": false,
          "name": "value",
          "type": "uint256"
        }
      ],
      "name": "Approval",
      "type": "event"
    },
    {
      "constant": false,
      "inputs": [
        {
          "name": "_to",
          "type": "address"
        },
        {
          "name": "_amount",
          "type": "uint256"
        }
      ],
      "name": "mint",
      "outputs": [
        {
          "name": "",
          "type": "bool"
        }
      ],
      "payable": false,
      "stateMutability": "nonpayable",
      "type": "function"
    },
    {
      "constant": false,
      "inputs": [],
      "name": "finishMinting",
      "outputs": [
        {
          "name": "",
          "type": "bool"
        }
      ],
      "payable": false,
      "stateMutability": "nonpayable",
      "type": "function"
    },
    {
      "constant": true,
      "inputs": [],
      "name": "getTokenURI",
      "outputs": [
        {
          "name": "",
          "type": "string"
        }
      ],
      "payable": false,
      "stateMutability": "view",
      "type": "function"
    }
  ],
  "bytecode": "0x608060405234801561001057600080fd5b50604051610ae8380380610ae8833981016040528051602080830151919092018051909261004391600491850190610075565b5060038054600160a060020a039092166101000261010060a860020a0319909216919091179055506000600255610110565b828054600181600116156101000203166002900490600052602060002090601f016020900481019282601f106100b657805160ff19168380011785556100e3565b828001600101855582156100e3579182015b828111156100e35782518255916020019190600101906100c8565b506100ef9291506100f3565b5090565b61010d91905b808211156100ef57600081556001016100f9565b90565b6109c98061011f6000396000f3006080604052600436106100b95763ffffffff7c010000000000000000000000000000000000000000000000000000000060003504166305d2035b81146100be578063095ea7b3146100e757806318160ddd1461010b57806323b872dd1461013257806340c10f191461015c578063661884631461018057806370a08231146101a45780637d64bcb4146101c5578063a9059cbb146101da578063d4a19116146101fe578063d73dd62314610288578063dd62ed3e146102ac575b600080fd5b3480156100ca57600080fd5b506100d36102d3565b604080519115158252519081900360200190f35b3480156100f357600080fd5b506100d3600160a060020a03600435166024356102dc565b34801561011757600080fd5b50610120610342565b60408051918252519081900360200190f35b34801561013e57600080fd5b506100d3600160a060020a0360043581169060243516604435610348565b34801561016857600080fd5b506100d3600160a060020a03600435166024356104bd565b34801561018c57600080fd5b506100d3600160a060020a03600435166024356105c6565b3480156101b057600080fd5b50610120600160a060020a03600435166106b5565b3480156101d157600080fd5b506100d36106d0565b3480156101e657600080fd5b506100d3600160a060020a036004351660243561073c565b34801561020a57600080fd5b5061021361081b565b6040805160208082528351818301528351919283929083019185019080838360005b8381101561024d578181015183820152602001610235565b50505050905090810190601f16801561027a5780820380516001836020036101000a031916815260200191505b509250505060405180910390f35b34801561029457600080fd5b506100d3600160a060020a03600435166024356108b1565b3480156102b857600080fd5b50610120600160a060020a036004358116906024351661094a565b60035460ff1681565b336000818152600160209081526040808320600160a060020a038716808552908352818420869055815186815291519394909390927f8c5be1e5ebec7d5bd14f71427d1e84f3dd0314c0f7b2291e5b200ac8c7c3b925928290030190a350600192915050565b60025490565b600160a060020a03831660009081526020819052604081205482111561036d57600080fd5b600160a060020a038416600090815260016020908152604080832033845290915290205482111561039d57600080fd5b600160a060020a03831615156103b257600080fd5b600160a060020a0384166000908152602081905260409020546103db908363ffffffff61097516565b600160a060020a038086166000908152602081905260408082209390935590851681522054610410908363ffffffff61098716565b600160a060020a03808516600090815260208181526040808320949094559187168152600182528281203382529091522054610452908363ffffffff61097516565b600160a060020a03808616600081815260016020908152604080832033845282529182902094909455805186815290519287169391927fddf252ad1be2c89b69c2b068fc378daa952ba7f163c4a11628f55a4df523b3ef929181900390910190a35060019392505050565b60035460009060ff161580156104e257506003546101009004600160a060020a031633145b15156104ed57600080fd5b600254610500908363ffffffff61098716565b600255600160a060020a03831660009081526020819052604090205461052c908363ffffffff61098716565b600160a060020a03841660008181526020818152604091829020939093558051858152905191927f0f6798a560793a54c3bcfe86a93cde1e73087d944c0ea20544137d412139688592918290030190a2604080518381529051600160a060020a038516916000917fddf252ad1be2c89b69c2b068fc378daa952ba7f163c4a11628f55a4df523b3ef9181900360200190a350600192915050565b336000908152600160209081526040808320600160a060020a038616845290915281205480831061061a57336000908152600160209081526040808320600160a060020a038816845290915281205561064f565b61062a818463ffffffff61097516565b336000908152600160209081526040808320600160a060020a03891684529091529020555b336000818152600160209081526040808320600160a060020a0389168085529083529281902054815190815290519293927f8c5be1e5ebec7d5bd14f71427d1e84f3dd0314c0f7b2291e5b200ac8c7c3b925929181900390910190a35060019392505050565b600160a060020a031660009081526020819052604090205490565b60035460009060ff161580156106f557506003546101009004600160a060020a031633145b151561070057600080fd5b6003805460ff191660011790556040517fae5184fba832cb2b1f702aca6117b8d265eaf03ad33eb133f19dde0f5920fa0890600090a150600190565b3360009081526020819052604081205482111561075857600080fd5b600160a060020a038316151561076d57600080fd5b3360009081526020819052604090205461078d908363ffffffff61097516565b3360009081526020819052604080822092909255600160a060020a038516815220546107bf908363ffffffff61098716565b600160a060020a038416600081815260208181526040918290209390935580518581529051919233927fddf252ad1be2c89b69c2b068fc378daa952ba7f163c4a11628f55a4df523b3ef9281900390910190a350600192915050565b60048054604080516020601f60026000196101006001881615020190951694909404938401819004810282018101909252828152606093909290918301828280156108a75780601f1061087c576101008083540402835291602001916108a7565b820191906000526020600020905b81548152906001019060200180831161088a57829003601f168201915b5050505050905090565b336000908152600160209081526040808320600160a060020a03861684529091528120546108e5908363ffffffff61098716565b336000818152600160209081526040808320600160a060020a0389168085529083529281902085905580519485525191937f8c5be1e5ebec7d5bd14f71427d1e84f3dd0314c0f7b2291e5b200ac8c7c3b925929081900390910190a350600192915050565b600160a060020a03918216600090815260016020908152604080832093909416825291909152205490565b60008282111561098157fe5b50900390565b60008282018381101561099657fe5b93925050505600a165627a7a72305820d59ef1e4e45025a008a27290c09edb349b12e5befab6c4d90fef0adbb0488f8e0029",
  "source": "pragma solidity ^0.4.24;\n\nimport \"./StandardToken.sol\";\n\n\n/**\n * @title Mintable token\n * @dev Simple ERC20 Token example, with mintable token creation\n * Based on code by TokenMarketNet: https://github.com/TokenMarketNet/ico/blob/master/contracts/MintableToken.sol\n */\ncontract MintableToken is StandardToken {\n\n  bool public mintingFinished;\n  address internal minter;\n  string internal tokenURI;                 // A reference to a URI containing further token information\n\n\n  // @notice constructor: initialized\n  constructor(string _tokenURI, address _minter)\n  public {\n    tokenURI = _tokenURI;                         // Set the id for reference\n    minter = _minter;\n    supply = 0;\n  }\n\n\n  // @dev Function to mint tokens\n  // @param _to The address that will receive the minted tokens.\n  // @param _amount The amount of tokens to mint.\n  function mint(address _to, uint256 _amount)\n  public\n  canMint\n  returns (bool) {\n    supply = supply.add(_amount);\n    balances[_to] = balances[_to].add(_amount);\n    emit Mint(_to, _amount);\n    emit Transfer(address(0), _to, _amount);\n    return true;\n  }\n\n  // @dev Function to stop minting new tokens.\n  function finishMinting()\n  public\n  canMint\n  returns (bool) {\n    mintingFinished = true;\n    emit MintFinished();\n    return true;\n  }\n\n  function getTokenURI()\n  external\n  view\n  returns (string) {\n      return tokenURI;\n  }\n\n  // @notice modifier: Requires that minting hasn't finished\n  modifier canMint() {\n    require(!mintingFinished && msg.sender == minter);\n    _;\n  }\n\n  event Mint(address indexed to, uint256 amount);\n  event MintFinished();\n}\n",
  "sourcePath": "/home/peter/Documents/Work/MyBit/MyBit-Network.tech/contracts/tokens/erc20/MintableToken.sol",
  "compiler": {
    "name": "solc",
    "version": "0.4.24+commit.e67f0147.Emscripten.clang"
  },
  "schemaVersion": "2.0.1",
  "updatedAt": "2018-12-05T20:40:37.562Z"
}