{
  "contractName": "MintableDistribution",
  "abi": [
    {
      "constant": true,
      "inputs": [],
      "name": "supply",
      "outputs": [
        {
          "name": "",
          "type": "uint256"
        }
      ],
      "payable": false,
      "stateMutability": "view",
      "type": "function"
    },
    {
      "constant": true,
      "inputs": [],
      "name": "mintingFinished",
      "outputs": [
        {
          "name": "",
          "type": "bool"
        }
      ],
      "payable": false,
      "stateMutability": "view",
      "type": "function"
    },
    {
      "constant": true,
      "inputs": [],
      "name": "minter",
      "outputs": [
        {
          "name": "",
          "type": "address"
        }
      ],
      "payable": false,
      "stateMutability": "view",
      "type": "function"
    },
    {
      "constant": true,
      "inputs": [],
      "name": "totalSupply",
      "outputs": [
        {
          "name": "",
          "type": "uint256"
        }
      ],
      "payable": false,
      "stateMutability": "view",
      "type": "function"
    },
    {
      "constant": true,
      "inputs": [],
      "name": "assetIncome",
      "outputs": [
        {
          "name": "",
          "type": "uint256"
        }
      ],
      "payable": false,
      "stateMutability": "view",
      "type": "function"
    },
    {
      "constant": true,
      "inputs": [],
      "name": "tokenURI",
      "outputs": [
        {
          "name": "",
          "type": "string"
        }
      ],
      "payable": false,
      "stateMutability": "view",
      "type": "function"
    },
    {
      "constant": false,
      "inputs": [],
      "name": "withdraw",
      "outputs": [
        {
          "name": "_amount",
          "type": "uint256"
        }
      ],
      "payable": false,
      "stateMutability": "nonpayable",
      "type": "function"
    },
    {
      "constant": true,
      "inputs": [
        {
          "name": "_owner",
          "type": "address"
        }
      ],
      "name": "balanceOf",
      "outputs": [
        {
          "name": "",
          "type": "uint256"
        }
      ],
      "payable": false,
      "stateMutability": "view",
      "type": "function"
    },
    {
      "constant": true,
      "inputs": [],
      "name": "valuePerToken",
      "outputs": [
        {
          "name": "",
          "type": "uint256"
        }
      ],
      "payable": false,
      "stateMutability": "view",
      "type": "function"
    },
    {
      "constant": true,
      "inputs": [
        {
          "name": "_user",
          "type": "address"
        }
      ],
      "name": "getUnclaimedAmount",
      "outputs": [
        {
          "name": "",
          "type": "uint256"
        }
      ],
      "payable": false,
      "stateMutability": "view",
      "type": "function"
    },
    {
      "constant": false,
      "inputs": [],
      "name": "issueDividends",
      "outputs": [],
      "payable": true,
      "stateMutability": "payable",
      "type": "function"
    },
    {
      "constant": true,
      "inputs": [
        {
          "name": "",
          "type": "address"
        }
      ],
      "name": "claimableIncome",
      "outputs": [
        {
          "name": "",
          "type": "uint256"
        }
      ],
      "payable": false,
      "stateMutability": "view",
      "type": "function"
    },
    {
      "constant": true,
      "inputs": [
        {
          "name": "",
          "type": "address"
        }
      ],
      "name": "previousValuePerToken",
      "outputs": [
        {
          "name": "",
          "type": "uint256"
        }
      ],
      "payable": false,
      "stateMutability": "view",
      "type": "function"
    },
    {
      "constant": true,
      "inputs": [
        {
          "name": "_user",
          "type": "address"
        }
      ],
      "name": "getTokenValue",
      "outputs": [
        {
          "name": "",
          "type": "uint256"
        }
      ],
      "payable": false,
      "stateMutability": "view",
      "type": "function"
    },
    {
      "inputs": [
        {
          "name": "_tokenURI",
          "type": "string"
        },
        {
          "name": "_minter",
          "type": "address"
        }
      ],
      "payable": false,
      "stateMutability": "nonpayable",
      "type": "constructor"
    },
    {
      "payable": true,
      "stateMutability": "payable",
      "type": "fallback"
    },
    {
      "anonymous": false,
      "inputs": [
        {
          "indexed": true,
          "name": "to",
          "type": "address"
        },
        {
          "indexed": false,
          "name": "amount",
          "type": "uint256"
        }
      ],
      "name": "Mint",
      "type": "event"
    },
    {
      "anonymous": false,
      "inputs": [],
      "name": "MintFinished",
      "type": "event"
    },
    {
      "anonymous": false,
      "inputs": [
        {
          "indexed": true,
          "name": "_sender",
          "type": "address"
        },
        {
          "indexed": false,
          "name": "_paymentAmount",
          "type": "uint256"
        }
      ],
      "name": "LogIncomeReceived",
      "type": "event"
    },
    {
      "anonymous": false,
      "inputs": [
        {
          "indexed": false,
          "name": "_block",
          "type": "uint256"
        },
        {
          "indexed": false,
          "name": "_address",
          "type": "address"
        },
        {
          "indexed": false,
          "name": "_amount",
          "type": "uint256"
        }
      ],
      "name": "LogIncomeCollected",
      "type": "event"
    },
    {
      "constant": false,
      "inputs": [
        {
          "name": "_to",
          "type": "address"
        },
        {
          "name": "_amount",
          "type": "uint256"
        }
      ],
      "name": "mint",
      "outputs": [
        {
          "name": "",
          "type": "bool"
        }
      ],
      "payable": false,
      "stateMutability": "nonpayable",
      "type": "function"
    },
    {
      "constant": false,
      "inputs": [],
      "name": "finishMinting",
      "outputs": [
        {
          "name": "",
          "type": "bool"
        }
      ],
      "payable": false,
      "stateMutability": "nonpayable",
      "type": "function"
    }
  ],
  "bytecode": "0x60806040526000600760006101000a81548160ff02191690831515021790555034801561002b57600080fd5b50604051610fe8380380610fe8833981018060405281019080805182019291906020018051906020019092919050505081600290805190602001906100719291906100ba565b5080600760016101000a81548173ffffffffffffffffffffffffffffffffffffffff021916908373ffffffffffffffffffffffffffffffffffffffff160217905550505061015f565b828054600181600116156101000203166002900490600052602060002090601f016020900481019282601f106100fb57805160ff1916838001178555610129565b82800160010185558215610129579182015b8281111561012857825182559160200191906001019061010d565b5b509050610136919061013a565b5090565b61015c91905b80821115610158576000816000905550600101610140565b5090565b90565b610e7a8061016e6000396000f3006080604052600436106100e6576000357c0100000000000000000000000000000000000000000000000000000000900463ffffffff168063047fc9aa146101a057806305d2035b146101cb57806307546172146101fa57806318160ddd146102515780632ba1b3a11461027c5780633c130d90146102a75780633ccfd60b1461033757806340c10f191461036257806370a08231146103c75780637d64bcb41461041e578063a8fa8e521461044d578063b815239514610478578063eba74e5c146104cf578063ec8593be146104d9578063efcb5dea14610530578063f1c5d6c214610587575b61012f61011e6000546101106d04ee2d6d415b85acef8100000000346105de90919063ffffffff16565b61061990919063ffffffff16565b60045461062f90919063ffffffff16565b60048190555061014a3460035461062f90919063ffffffff16565b6003819055503373ffffffffffffffffffffffffffffffffffffffff167fe3166012cb87b3dec8e117fe0e096a47387f94ea2ec12086ed8ae24ff8c237fe346040518082815260200191505060405180910390a2005b3480156101ac57600080fd5b506101b561064d565b6040518082815260200191505060405180910390f35b3480156101d757600080fd5b506101e0610653565b604051808215151515815260200191505060405180910390f35b34801561020657600080fd5b5061020f610666565b604051808273ffffffffffffffffffffffffffffffffffffffff1673ffffffffffffffffffffffffffffffffffffffff16815260200191505060405180910390f35b34801561025d57600080fd5b5061026661068c565b6040518082815260200191505060405180910390f35b34801561028857600080fd5b50610291610695565b6040518082815260200191505060405180910390f35b3480156102b357600080fd5b506102bc61069b565b6040518080602001828103825283818151815260200191508051906020019080838360005b838110156102fc5780820151818401526020810190506102e1565b50505050905090810190601f1680156103295780820380516001836020036101000a031916815260200191505b509250505060405180910390f35b34801561034357600080fd5b5061034c610739565b6040518082815260200191505060405180910390f35b34801561036e57600080fd5b506103ad600480360381019080803573ffffffffffffffffffffffffffffffffffffffff16906020019092919080359060200190929190505050610982565b604051808215151515815260200191505060405180910390f35b3480156103d357600080fd5b50610408600480360381019080803573ffffffffffffffffffffffffffffffffffffffff169060200190929190505050610b01565b6040518082815260200191505060405180910390f35b34801561042a57600080fd5b50610433610b4a565b604051808215151515815260200191505060405180910390f35b34801561045957600080fd5b50610462610c0f565b6040518082815260200191505060405180910390f35b34801561048457600080fd5b506104b9600480360381019080803573ffffffffffffffffffffffffffffffffffffffff169060200190929190505050610c15565b6040518082815260200191505060405180910390f35b6104d7610c98565b005b3480156104e557600080fd5b5061051a600480360381019080803573ffffffffffffffffffffffffffffffffffffffff169060200190929190505050610d52565b6040518082815260200191505060405180910390f35b34801561053c57600080fd5b50610571600480360381019080803573ffffffffffffffffffffffffffffffffffffffff169060200190929190505050610d6a565b6040518082815260200191505060405180910390f35b34801561059357600080fd5b506105c8600480360381019080803573ffffffffffffffffffffffffffffffffffffffff169060200190929190505050610d82565b6040518082815260200191505060405180910390f35b60008060008414156105f35760009150610612565b828402905082848281151561060457fe5b0414151561060e57fe5b8091505b5092915050565b6000818381151561062657fe5b04905092915050565b600080828401905083811015151561064357fe5b8091505092915050565b60005481565b600760009054906101000a900460ff1681565b600760019054906101000a900473ffffffffffffffffffffffffffffffffffffffff1681565b60008054905090565b60035481565b60028054600181600116156101000203166002900480601f0160208091040260200160405190810160405280929190818152602001828054600181600116156101000203166002900480156107315780601f1061070657610100808354040283529160200191610731565b820191906000526020600020905b81548152906001019060200180831161071457829003601f168201915b505050505081565b60003361079661074882610d82565b600560008473ffffffffffffffffffffffffffffffffffffffff1673ffffffffffffffffffffffffffffffffffffffff1681526020019081526020016000205461062f90919063ffffffff16565b600560008373ffffffffffffffffffffffffffffffffffffffff1673ffffffffffffffffffffffffffffffffffffffff16815260200190815260200160002081905550600454600660008373ffffffffffffffffffffffffffffffffffffffff1673ffffffffffffffffffffffffffffffffffffffff1681526020019081526020016000208190555061087f6d04ee2d6d415b85acef8100000000600560003373ffffffffffffffffffffffffffffffffffffffff1673ffffffffffffffffffffffffffffffffffffffff1681526020019081526020016000205461061990919063ffffffff16565b9150600560003373ffffffffffffffffffffffffffffffffffffffff1673ffffffffffffffffffffffffffffffffffffffff168152602001908152602001600020600090553373ffffffffffffffffffffffffffffffffffffffff166108fc839081150290604051600060405180830381858888f1935050505015801561090a573d6000803e3d6000fd5b507f10db2ba5699bf5dbd1070a0c0b207f229dc1ecb78bbe555b84cab3db9576ac42423384604051808481526020018373ffffffffffffffffffffffffffffffffffffffff1673ffffffffffffffffffffffffffffffffffffffff168152602001828152602001935050505060405180910390a15090565b6000600760009054906101000a900460ff161580156109ee5750600760019054906101000a900473ffffffffffffffffffffffffffffffffffffffff1673ffffffffffffffffffffffffffffffffffffffff163373ffffffffffffffffffffffffffffffffffffffff16145b15156109f957600080fd5b610a0e8260005461062f90919063ffffffff16565b600081905550610a6682600160008673ffffffffffffffffffffffffffffffffffffffff1673ffffffffffffffffffffffffffffffffffffffff1681526020019081526020016000205461062f90919063ffffffff16565b600160008573ffffffffffffffffffffffffffffffffffffffff1673ffffffffffffffffffffffffffffffffffffffff168152602001908152602001600020819055508273ffffffffffffffffffffffffffffffffffffffff167f0f6798a560793a54c3bcfe86a93cde1e73087d944c0ea20544137d4121396885836040518082815260200191505060405180910390a26001905092915050565b6000600160008373ffffffffffffffffffffffffffffffffffffffff1673ffffffffffffffffffffffffffffffffffffffff168152602001908152602001600020549050919050565b6000600760009054906101000a900460ff16158015610bb65750600760019054906101000a900473ffffffffffffffffffffffffffffffffffffffff1673ffffffffffffffffffffffffffffffffffffffff163373ffffffffffffffffffffffffffffffffffffffff16145b1515610bc157600080fd5b6001600760006101000a81548160ff0219169083151502179055507fae5184fba832cb2b1f702aca6117b8d265eaf03ad33eb133f19dde0f5920fa0860405160405180910390a16001905090565b60045481565b6000610c916d04ee2d6d415b85acef8100000000610c83600560008673ffffffffffffffffffffffffffffffffffffffff1673ffffffffffffffffffffffffffffffffffffffff16815260200190815260200160002054610c7586610d82565b61062f90919063ffffffff16565b61061990919063ffffffff16565b9050919050565b610ce1610cd0600054610cc26d04ee2d6d415b85acef8100000000346105de90919063ffffffff16565b61061990919063ffffffff16565b60045461062f90919063ffffffff16565b600481905550610cfc3460035461062f90919063ffffffff16565b6003819055503373ffffffffffffffffffffffffffffffffffffffff167fe3166012cb87b3dec8e117fe0e096a47387f94ea2ec12086ed8ae24ff8c237fe346040518082815260200191505060405180910390a2565b60056020528060005260406000206000915090505481565b60066020528060005260406000206000915090505481565b600080610dd9600660008573ffffffffffffffffffffffffffffffffffffffff1673ffffffffffffffffffffffffffffffffffffffff16815260200190815260200160002054600454610e3590919063ffffffff16565b9050610e2d600160008573ffffffffffffffffffffffffffffffffffffffff1673ffffffffffffffffffffffffffffffffffffffff16815260200190815260200160002054826105de90919063ffffffff16565b915050919050565b6000828211151515610e4357fe5b8183039050929150505600a165627a7a72305820d565919b4fc09158723e2f0fcb51e3c5f0b52362aaad48f9972d66c44e8a12b50029",
  "source": "pragma solidity 0.4.24;\n\nimport '../../math/SafeMath.sol';\nimport './StandardDistribution.sol';\n\n\n\n// @title Non-Transferable ERC20 token contract with shared revenue distribution functionality.\n// @notice This token contract can receive payments in the fallback function and token owners can withdraw their share\n// @author Kyle Dewhurst, MyBitFoundation\n// Credit goes to Nick Johnson for the dividend token https://medium.com/@weka/dividend-bearing-tokens-on-ethereum-42d01c710657\ncontract MintableDistribution is StandardDistribution{\n  using SafeMath for uint;\n\n  bool public mintingFinished = false;\n  address public minter;\n\n  // @notice constructor: initialized\n  constructor(string _tokenURI, address _minter)\n  public {\n      tokenURI = _tokenURI;                         // Set the id for reference\n      minter = _minter;\n  }\n\n  // @dev Function to mint tokens\n  // @param _to The address that will receive the minted tokens.\n  // @param _amount The amount of tokens to mint.\n  function mint(address _to, uint256 _amount)\n  public\n  canMint\n  returns (bool) {\n    supply = supply.add(_amount);\n    balances[_to] = balances[_to].add(_amount);\n    emit Mint(_to, _amount);\n    return true;\n  }\n\n\n  // @dev Function to stop minting new tokens.\n  function finishMinting()\n  public\n  canMint\n  returns (bool) {\n    mintingFinished = true;\n    emit MintFinished();\n    return true;\n  }\n\n  // ------------------------------------------------------------------------------------------------\n  //                                   Modifiers\n  // ------------------------------------------------------------------------------------------------\n\n\n  // @notice modifier: Requires that minting hasn't finished\n  modifier canMint() {\n    require(!mintingFinished && msg.sender == minter);\n    _;\n  }\n\n\n  // ------------------------------------------------------------------------------------------------\n  //                                     Events\n  // ------------------------------------------------------------------------------------------------\n\n  event Mint(address indexed to, uint256 amount);\n  event MintFinished();\n\n}\n",
  "sourcePath": "/home/peter/Documents/Work/MyBit/MyBit-Network.tech/contracts/tokens/distribution/MintableDistribution.sol",
  "compiler": {
    "name": "solc",
    "version": "0.4.24+commit.e67f0147.Emscripten.clang"
  },
  "schemaVersion": "2.0.1",
  "updatedAt": "2018-10-17T01:56:53.518Z"
}