{
  "contractName": "MockDepositAddressEther",
  "abi": [
    {
      "constant": true,
      "inputs": [],
      "name": "bank",
      "outputs": [
        {
          "name": "",
          "type": "address"
        }
      ],
      "payable": false,
      "stateMutability": "view",
      "type": "function"
    },
    {
      "constant": true,
      "inputs": [],
      "name": "owner",
      "outputs": [
        {
          "name": "",
          "type": "address"
        }
      ],
      "payable": false,
      "stateMutability": "view",
      "type": "function"
    },
    {
      "inputs": [
        {
          "name": "_bank",
          "type": "address"
        },
        {
          "name": "_owner",
          "type": "address"
        }
      ],
      "payable": false,
      "stateMutability": "nonpayable",
      "type": "constructor"
    },
    {
      "payable": true,
      "stateMutability": "payable",
      "type": "fallback"
    },
    {
      "anonymous": false,
      "inputs": [
        {
          "indexed": false,
          "name": "amount",
          "type": "uint256"
        },
        {
          "indexed": false,
          "name": "destianation",
          "type": "address"
        }
      ],
      "name": "Withdraw",
      "type": "event"
    },
    {
      "constant": false,
      "inputs": [
        {
          "name": "etherAmount",
          "type": "uint256"
        },
        {
          "name": "destination",
          "type": "address"
        }
      ],
      "name": "withdraw",
      "outputs": [],
      "payable": false,
      "stateMutability": "nonpayable",
      "type": "function"
    },
    {
      "constant": false,
      "inputs": [
        {
          "name": "amount",
          "type": "uint256"
        }
      ],
      "name": "clearBalance",
      "outputs": [],
      "payable": false,
      "stateMutability": "nonpayable",
      "type": "function"
    },
    {
      "constant": true,
      "inputs": [],
      "name": "getBalance",
      "outputs": [
        {
          "name": "",
          "type": "uint256"
        }
      ],
      "payable": false,
      "stateMutability": "view",
      "type": "function"
    }
  ],
  "bytecode": "0x608060405234801561001057600080fd5b506040516040806102f183398101604052805160209091015160018054600160a060020a03928316600160a060020a0319918216179091556000805492909316911617905561028d806100646000396000f30060806040526004361061006b5763ffffffff7c0100000000000000000000000000000000000000000000000000000000600035041662f714ce811461006d57806312065fe01461009157806376cdb03b146100b857806384d9a4e6146100e95780638da5cb5b14610101575b005b34801561007957600080fd5b5061006b600435600160a060020a0360243516610116565b34801561009d57600080fd5b506100a66101e1565b60408051918252519081900360200190f35b3480156100c457600080fd5b506100cd6101e6565b60408051600160a060020a039092168252519081900360200190f35b3480156100f557600080fd5b5061006b6004356101f5565b34801561010d57600080fd5b506100cd610252565b600154600160a060020a0316331461012d57600080fd5b60008054604080517f3bed33ce000000000000000000000000000000000000000000000000000000008152600481018690529051600160a060020a0390921692633bed33ce9260248084019382900301818387803b15801561018e57600080fd5b505af11580156101a2573d6000803e3d6000fd5b5050604051600160a060020a038416925084156108fc02915084906000818181858888f193505050501580156101dc573d6000803e3d6000fd5b505050565b303190565b600054600160a060020a031681565b600154600160a060020a0316331461020c57600080fd5b3031811161024f5760008054604051600160a060020a039091169183156108fc02918491818181858888f1935050505015801561024d573d6000803e3d6000fd5b505b50565b600154600160a060020a0316815600a165627a7a723058205d70f7788009a55b2d523d75dc93c9cfb067b0b2d65582b716fc6927be8c58050029",
  "source": "pragma solidity ^0.4.24;\n\nimport \"./MockCentralBank.sol\";\nimport \"./MockDepositAddress.sol\";\n\n/// @title Mock Deposit Address for Ethers\n/// @author Ilan Doron\n/// @dev a dummy contract that simulates a deposit address of a token on a specific exchange.\n///         allows reserve manager to deposit and withdraw\ncontract MockDepositAddressEther is MockDepositAddress{\n\n    constructor(MockCentralBank _bank, address _owner)\n        MockDepositAddress(_bank, _owner)\n        public\n    {}\n\n    function () public payable {}\n\n    function withdraw(uint etherAmount, address destination) public onlyOwner {\n        bank.withdrawEther(etherAmount);\n        destination.transfer(etherAmount);\n    }\n\n    function clearBalance( uint amount ) public onlyOwner {\n        if (address(this).balance >= amount) {\n            address(bank).transfer(amount);\n        }\n    }\n\n    function getBalance() public view returns (uint) {\n        return address(this).balance;\n    }\n}\n",
  "sourcePath": "/home/peter/Documents/Work/MyBit/MyBit-Network.tech/contracts/kyber/MockDepositAddressEther.sol",
  "compiler": {
    "name": "solc",
    "version": "0.4.24+commit.e67f0147.Emscripten.clang"
  },
  "schemaVersion": "3.0.2",
  "updatedAt": "2019-03-14T21:46:28.645Z",
  "devdoc": {
    "author": "Ilan Doron",
    "methods": {},
    "title": "Mock Deposit Address for Ethers"
  },
  "userdoc": {
    "methods": {}
  }
}