{
  "contractName": "MockExchange",
  "abi": [
    {
      "constant": true,
      "inputs": [
        {
          "name": "",
          "type": "address"
        }
      ],
      "name": "owners",
      "outputs": [
        {
          "name": "",
          "type": "bool"
        }
      ],
      "payable": false,
      "stateMutability": "view",
      "type": "function"
    },
    {
      "constant": true,
      "inputs": [],
      "name": "exchangeName",
      "outputs": [
        {
          "name": "",
          "type": "string"
        }
      ],
      "payable": false,
      "stateMutability": "view",
      "type": "function"
    },
    {
      "constant": true,
      "inputs": [
        {
          "name": "",
          "type": "address"
        }
      ],
      "name": "tokenDepositAddresses",
      "outputs": [
        {
          "name": "",
          "type": "address"
        }
      ],
      "payable": false,
      "stateMutability": "view",
      "type": "function"
    },
    {
      "constant": true,
      "inputs": [],
      "name": "bank",
      "outputs": [
        {
          "name": "",
          "type": "address"
        }
      ],
      "payable": false,
      "stateMutability": "view",
      "type": "function"
    },
    {
      "inputs": [
        {
          "name": "_exchangeName",
          "type": "string"
        },
        {
          "name": "_bank",
          "type": "address"
        }
      ],
      "payable": false,
      "stateMutability": "nonpayable",
      "type": "constructor"
    },
    {
      "constant": false,
      "inputs": [
        {
          "name": "token",
          "type": "address"
        },
        {
          "name": "tokenAmount",
          "type": "uint256"
        },
        {
          "name": "destination",
          "type": "address"
        }
      ],
      "name": "withdraw",
      "outputs": [],
      "payable": false,
      "stateMutability": "nonpayable",
      "type": "function"
    },
    {
      "constant": false,
      "inputs": [
        {
          "name": "tokens",
          "type": "address[]"
        },
        {
          "name": "amounts",
          "type": "uint256[]"
        }
      ],
      "name": "clearBalances",
      "outputs": [],
      "payable": false,
      "stateMutability": "nonpayable",
      "type": "function"
    },
    {
      "constant": true,
      "inputs": [
        {
          "name": "token",
          "type": "address"
        }
      ],
      "name": "getBalance",
      "outputs": [
        {
          "name": "",
          "type": "uint256"
        }
      ],
      "payable": false,
      "stateMutability": "view",
      "type": "function"
    },
    {
      "constant": false,
      "inputs": [
        {
          "name": "newOwner",
          "type": "address"
        }
      ],
      "name": "addOwner",
      "outputs": [],
      "payable": false,
      "stateMutability": "nonpayable",
      "type": "function"
    },
    {
      "constant": false,
      "inputs": [
        {
          "name": "token",
          "type": "address"
        }
      ],
      "name": "addMockDepositAddress",
      "outputs": [],
      "payable": false,
      "stateMutability": "nonpayable",
      "type": "function"
    }
  ],
  "bytecode": "0x608060405234801561001057600080fd5b5060405161123b38038061123b833981016040528051602080830151919092018051909261004391600191850190610084565b5060028054600160a060020a031916600160a060020a039290921691909117905550336000908152600360205260409020805460ff1916600117905561011f565b828054600181600116156101000203166002900490600052602060002090601f016020900481019282601f106100c557805160ff19168380011785556100f2565b828001600101855582156100f2579182015b828111156100f25782518255916020019190600101906100d7565b506100fe929150610102565b5090565b61011c91905b808211156100fe5760008155600101610108565b90565b61110d8061012e6000396000f3006080604052600436106100985763ffffffff7c0100000000000000000000000000000000000000000000000000000000600035041663022914a7811461009d5780634f68ea5f146100d257806369328dec1461015c5780636a0d6681146101895780637065cb48146101c657806376cdb03b146101e7578063bb49a123146101fc578063d8f67a901461028a578063f8b2cb4f146102ab575b600080fd5b3480156100a957600080fd5b506100be600160a060020a03600435166102de565b604080519115158252519081900360200190f35b3480156100de57600080fd5b506100e76102f3565b6040805160208082528351818301528351919283929083019185019080838360005b83811015610121578181015183820152602001610109565b50505050905090810190601f16801561014e5780820380516001836020036101000a031916815260200191505b509250505060405180910390f35b34801561016857600080fd5b50610187600160a060020a036004358116906024359060443516610380565b005b34801561019557600080fd5b506101aa600160a060020a0360043516610458565b60408051600160a060020a039092168252519081900360200190f35b3480156101d257600080fd5b50610187600160a060020a0360043516610473565b3480156101f357600080fd5b506101aa6104b5565b34801561020857600080fd5b506040805160206004803580820135838102808601850190965280855261018795369593946024949385019291829185019084908082843750506040805187358901803560208181028481018201909552818452989b9a9989019892975090820195509350839250850190849080828437509497506104c49650505050505050565b34801561029657600080fd5b50610187600160a060020a036004351661060f565b3480156102b757600080fd5b506102cc600160a060020a0360043516610802565b60408051918252519081900360200190f35b60036020526000908152604090205460ff1681565b60018054604080516020600284861615610100026000190190941693909304601f810184900484028201840190925281815292918301828280156103785780601f1061034d57610100808354040283529160200191610378565b820191906000526020600020905b81548152906001019060200180831161035b57829003601f168201915b505050505081565b3360009081526003602052604090205460ff16151561039e57600080fd5b600160a060020a038381166000908152600460205260409020541615156103c457600080fd5b600160a060020a0380841660009081526004602081905260408083205481517ef714ce0000000000000000000000000000000000000000000000000000000081529283018790528585166024840152905193169262f714ce9260448084019391929182900301818387803b15801561043b57600080fd5b505af115801561044f573d6000803e3d6000fd5b50505050505050565b600460205260009081526040902054600160a060020a031681565b3360009081526003602052604090205460ff16151561049157600080fd5b600160a060020a03166000908152600360205260409020805460ff19166001179055565b600254600160a060020a031681565b3360009081526003602052604081205460ff1615156104e257600080fd5b5060005b825181101561060a576000600160a060020a031660046000858481518110151561050c57fe5b6020908102909101810151600160a060020a039081168352908201929092526040016000205416141561053e57610602565b60046000848381518110151561055057fe5b6020908102909101810151600160a060020a039081168352908201929092526040016000205483519116906384d9a4e69084908490811061058d57fe5b906020019060200201516040518263ffffffff167c010000000000000000000000000000000000000000000000000000000002815260040180828152602001915050600060405180830381600087803b1580156105e957600080fd5b505af11580156105fd573d6000803e3d6000fd5b505050505b6001016104e6565b505050565b3360009081526003602052604090205460ff16151561062d57600080fd5b600160a060020a03811673eeeeeeeeeeeeeeeeeeeeeeeeeeeeeeeeeeeeeeee14156106dc57600254600160a060020a03163061066761089c565b600160a060020a03928316815291166020820152604080519182900301906000f08015801561069a573d6000803e3d6000fd5b50600160a060020a038281166000908152600460205260409020805473ffffffffffffffffffffffffffffffffffffffff191692909116919091179055610770565b6002548190600160a060020a0316306106f36108ac565b600160a060020a03938416815291831660208301529091166040808301919091525190819003606001906000f080158015610732573d6000803e3d6000fd5b50600160a060020a038281166000908152600460205260409020805473ffffffffffffffffffffffffffffffffffffffff1916929091169190911790555b600254600160a060020a0382811660009081526004602081905260408083205481517f7065cb4800000000000000000000000000000000000000000000000000000000815290851692810192909252519290931692637065cb48926024808301939282900301818387803b1580156107e757600080fd5b505af11580156107fb573d6000803e3d6000fd5b5050505050565b600160a060020a0380821660009081526004602081815260408084205481517f12065fe00000000000000000000000000000000000000000000000000000000081529151949516936312065fe093828101939282900301818787803b15801561086a57600080fd5b505af115801561087e573d6000803e3d6000fd5b505050506040513d602081101561089457600080fd5b505192915050565b6040516102f1806108bd83390190565b60405161053480610bae833901905600608060405234801561001057600080fd5b506040516040806102f183398101604052805160209091015160018054600160a060020a03928316600160a060020a0319918216179091556000805492909316911617905561028d806100646000396000f30060806040526004361061006b5763ffffffff7c0100000000000000000000000000000000000000000000000000000000600035041662f714ce811461006d57806312065fe01461009157806376cdb03b146100b857806384d9a4e6146100e95780638da5cb5b14610101575b005b34801561007957600080fd5b5061006b600435600160a060020a0360243516610116565b34801561009d57600080fd5b506100a66101e1565b60408051918252519081900360200190f35b3480156100c457600080fd5b506100cd6101e6565b60408051600160a060020a039092168252519081900360200190f35b3480156100f557600080fd5b5061006b6004356101f5565b34801561010d57600080fd5b506100cd610252565b600154600160a060020a0316331461012d57600080fd5b60008054604080517f3bed33ce000000000000000000000000000000000000000000000000000000008152600481018690529051600160a060020a0390921692633bed33ce9260248084019382900301818387803b15801561018e57600080fd5b505af11580156101a2573d6000803e3d6000fd5b5050604051600160a060020a038416925084156108fc02915084906000818181858888f193505050501580156101dc573d6000803e3d6000fd5b505050565b303190565b600054600160a060020a031681565b600154600160a060020a0316331461020c57600080fd5b3031811161024f5760008054604051600160a060020a039091169183156108fc02918491818181858888f1935050505015801561024d573d6000803e3d6000fd5b505b50565b600154600160a060020a0316815600a165627a7a723058205d70f7788009a55b2d523d75dc93c9cfb067b0b2d65582b716fc6927be8c58050029608060405234801561001057600080fd5b5060405160608061053483398101604090815281516020830151919092015160018054600160a060020a03928316600160a060020a0319918216179091556000805493831693821693909317909255600280549190931691161790556104b98061007b6000396000f3006080604052600436106100765763ffffffff7c0100000000000000000000000000000000000000000000000000000000600035041662f714ce811461007b57806312065fe0146100a157806376cdb03b146100c857806384d9a4e6146100f95780638da5cb5b14610111578063fc0c546a14610126575b600080fd5b34801561008757600080fd5b5061009f600435600160a060020a036024351661013b565b005b3480156100ad57600080fd5b506100b6610277565b60408051918252519081900360200190f35b3480156100d457600080fd5b506100dd61030d565b60408051600160a060020a039092168252519081900360200190f35b34801561010557600080fd5b5061009f60043561031c565b34801561011d57600080fd5b506100dd61046f565b34801561013257600080fd5b506100dd61047e565b600154600160a060020a0316331461015257600080fd5b60008054600254604080517f9e281a98000000000000000000000000000000000000000000000000000000008152600160a060020a0392831660048201526024810187905290519190921692639e281a98926044808201939182900301818387803b1580156101c057600080fd5b505af11580156101d4573d6000803e3d6000fd5b5050600254604080517fa9059cbb000000000000000000000000000000000000000000000000000000008152600160a060020a03868116600483015260248201889052915191909216935063a9059cbb925060448083019260209291908290030181600087803b15801561024757600080fd5b505af115801561025b573d6000803e3d6000fd5b505050506040513d602081101561027157600080fd5b50505050565b600254604080517f70a082310000000000000000000000000000000000000000000000000000000081523060048201529051600092600160a060020a0316916370a0823191602480830192602092919082900301818787803b1580156102dc57600080fd5b505af11580156102f0573d6000803e3d6000fd5b505050506040513d602081101561030657600080fd5b5051905090565b600054600160a060020a031681565b600154600160a060020a0316331461033357600080fd5b600254604080517f70a0823100000000000000000000000000000000000000000000000000000000815230600482015290518392600160a060020a0316916370a082319160248083019260209291908290030181600087803b15801561039857600080fd5b505af11580156103ac573d6000803e3d6000fd5b505050506040513d60208110156103c257600080fd5b50511061046c5760025460008054604080517fa9059cbb000000000000000000000000000000000000000000000000000000008152600160a060020a039283166004820152602481018690529051919093169263a9059cbb9260448083019360209390929083900390910190829087803b15801561043f57600080fd5b505af1158015610453573d6000803e3d6000fd5b505050506040513d602081101561046957600080fd5b50505b50565b600154600160a060020a031681565b600254600160a060020a0316815600a165627a7a7230582038a9eff1ce3dc591e50d809e46bff841c16f3eed639493190d3a9eb37385e2330029a165627a7a7230582093bc5dda7be67fd02b5df746d950c64f89799e95cd1b43469651768940f338fc0029",
  "source": "pragma solidity ^0.4.24;\n\n\nimport \"../interfaces/ERC20.sol\";\nimport \"./MockCentralBank.sol\";\nimport \"./MockDepositAddressEther.sol\";\nimport \"./MockDepositAddressToken.sol\";\nimport \"./Utils.sol\";\n\n\n/// @title Mock Exchange Deposit Address\n/// @author Ilan Doron\n/// @dev a dummy contract that simulates a deposit address of an exchange. allows user to deposit, withdraw and convert tokens.\ncontract MockExchange is Utils {\n\n    string public exchangeName;\n    MockCentralBank public bank;\n    mapping(address=>bool) public owners;\n    mapping(address=>MockDepositAddress) public tokenDepositAddresses;\n\n    constructor(string _exchangeName, MockCentralBank _bank) public {\n        exchangeName = _exchangeName;\n        bank = _bank;\n        owners[msg.sender] = true;\n    }\n\n    modifier onlyOwner()\n    {\n        require(owners[msg.sender]);\n        _;\n    }\n\n    function withdraw(ERC20 token, uint tokenAmount, address destination) public onlyOwner {\n        require(tokenDepositAddresses[token] != address(0));\n        // withdraw from mockDepositaddress. which withdraws from bank\n        tokenDepositAddresses[token].withdraw(tokenAmount, destination);\n    }\n\n    function clearBalances(ERC20[] tokens, uint[] amounts) public onlyOwner {\n\n        for (uint i = 0; i < tokens.length; i++) {\n            if (tokenDepositAddresses[tokens[i]] == address(0)) continue;\n            tokenDepositAddresses[tokens[i]].clearBalance(amounts[i]);\n        }\n    }\n\n    function getBalance( ERC20 token ) public view returns(uint) {\n        return tokenDepositAddresses[token].getBalance();\n    }\n\n    function addOwner( address newOwner ) public onlyOwner {\n        owners[newOwner] = true;\n    }\n\n    function addMockDepositAddress( ERC20 token ) public onlyOwner {\n\n        if (token == ETH_TOKEN_ADDRESS)\n            tokenDepositAddresses[token] = new MockDepositAddressEther(bank, this);\n        else\n            tokenDepositAddresses[token] = new MockDepositAddressToken(token, bank, this);\n\n        bank.addOwner(tokenDepositAddresses[token]);\n    }\n}\n",
  "sourcePath": "/home/peter/Documents/Work/MyBit/MyBit-Network.tech/contracts/kyber/MockExchange.sol",
  "compiler": {
    "name": "solc",
    "version": "0.4.24+commit.e67f0147.Emscripten.clang"
  },
  "schemaVersion": "3.0.2",
  "updatedAt": "2019-03-21T21:34:45.140Z",
  "devdoc": {
    "author": "Ilan Doron",
    "methods": {},
    "title": "Mock Exchange Deposit Address"
  },
  "userdoc": {
    "methods": {}
  }
}