{
  "contractName": "MockDepositAddressToken",
  "abi": [
    {
      "constant": true,
      "inputs": [],
      "name": "bank",
      "outputs": [
        {
          "name": "",
          "type": "address"
        }
      ],
      "payable": false,
      "stateMutability": "view",
      "type": "function"
    },
    {
      "constant": true,
      "inputs": [],
      "name": "owner",
      "outputs": [
        {
          "name": "",
          "type": "address"
        }
      ],
      "payable": false,
      "stateMutability": "view",
      "type": "function"
    },
    {
      "constant": true,
      "inputs": [],
      "name": "token",
      "outputs": [
        {
          "name": "",
          "type": "address"
        }
      ],
      "payable": false,
      "stateMutability": "view",
      "type": "function"
    },
    {
      "inputs": [
        {
          "name": "_token",
          "type": "address"
        },
        {
          "name": "_bank",
          "type": "address"
        },
        {
          "name": "_owner",
          "type": "address"
        }
      ],
      "payable": false,
      "stateMutability": "nonpayable",
      "type": "constructor"
    },
    {
      "anonymous": false,
      "inputs": [
        {
          "indexed": false,
          "name": "amount",
          "type": "uint256"
        },
        {
          "indexed": false,
          "name": "destianation",
          "type": "address"
        }
      ],
      "name": "Withdraw",
      "type": "event"
    },
    {
      "constant": false,
      "inputs": [
        {
          "name": "tokenAmount",
          "type": "uint256"
        },
        {
          "name": "destination",
          "type": "address"
        }
      ],
      "name": "withdraw",
      "outputs": [],
      "payable": false,
      "stateMutability": "nonpayable",
      "type": "function"
    },
    {
      "constant": false,
      "inputs": [
        {
          "name": "amount",
          "type": "uint256"
        }
      ],
      "name": "clearBalance",
      "outputs": [],
      "payable": false,
      "stateMutability": "nonpayable",
      "type": "function"
    },
    {
      "constant": true,
      "inputs": [],
      "name": "getBalance",
      "outputs": [
        {
          "name": "",
          "type": "uint256"
        }
      ],
      "payable": false,
      "stateMutability": "view",
      "type": "function"
    }
  ],
  "bytecode": "0x608060405234801561001057600080fd5b5060405160608061053483398101604090815281516020830151919092015160018054600160a060020a03928316600160a060020a0319918216179091556000805493831693821693909317909255600280549190931691161790556104b98061007b6000396000f3006080604052600436106100765763ffffffff7c0100000000000000000000000000000000000000000000000000000000600035041662f714ce811461007b57806312065fe0146100a157806376cdb03b146100c857806384d9a4e6146100f95780638da5cb5b14610111578063fc0c546a14610126575b600080fd5b34801561008757600080fd5b5061009f600435600160a060020a036024351661013b565b005b3480156100ad57600080fd5b506100b6610277565b60408051918252519081900360200190f35b3480156100d457600080fd5b506100dd61030d565b60408051600160a060020a039092168252519081900360200190f35b34801561010557600080fd5b5061009f60043561031c565b34801561011d57600080fd5b506100dd61046f565b34801561013257600080fd5b506100dd61047e565b600154600160a060020a0316331461015257600080fd5b60008054600254604080517f9e281a98000000000000000000000000000000000000000000000000000000008152600160a060020a0392831660048201526024810187905290519190921692639e281a98926044808201939182900301818387803b1580156101c057600080fd5b505af11580156101d4573d6000803e3d6000fd5b5050600254604080517fa9059cbb000000000000000000000000000000000000000000000000000000008152600160a060020a03868116600483015260248201889052915191909216935063a9059cbb925060448083019260209291908290030181600087803b15801561024757600080fd5b505af115801561025b573d6000803e3d6000fd5b505050506040513d602081101561027157600080fd5b50505050565b600254604080517f70a082310000000000000000000000000000000000000000000000000000000081523060048201529051600092600160a060020a0316916370a0823191602480830192602092919082900301818787803b1580156102dc57600080fd5b505af11580156102f0573d6000803e3d6000fd5b505050506040513d602081101561030657600080fd5b5051905090565b600054600160a060020a031681565b600154600160a060020a0316331461033357600080fd5b600254604080517f70a0823100000000000000000000000000000000000000000000000000000000815230600482015290518392600160a060020a0316916370a082319160248083019260209291908290030181600087803b15801561039857600080fd5b505af11580156103ac573d6000803e3d6000fd5b505050506040513d60208110156103c257600080fd5b50511061046c5760025460008054604080517fa9059cbb000000000000000000000000000000000000000000000000000000008152600160a060020a039283166004820152602481018690529051919093169263a9059cbb9260448083019360209390929083900390910190829087803b15801561043f57600080fd5b505af1158015610453573d6000803e3d6000fd5b505050506040513d602081101561046957600080fd5b50505b50565b600154600160a060020a031681565b600254600160a060020a0316815600a165627a7a7230582038a9eff1ce3dc591e50d809e46bff841c16f3eed639493190d3a9eb37385e2330029",
  "source": "pragma solidity ^0.4.24;\n\nimport \"./MockCentralBank.sol\";\nimport \"./MockDepositAddress.sol\";\n\n/// @title Mock Deposit Address for token\n/// @author Ilan Doron\n/// @dev a dummy contract that simulates a deposit address of a token on a specific exchange. allows reserve manager to deposit and withdraw\ncontract MockDepositAddressToken is MockDepositAddress{\n\n    ERC20 public token;\n\n    constructor(ERC20 _token, MockCentralBank _bank, address _owner)\n        MockDepositAddress(_bank, _owner)\n        public\n    {\n        token = _token;\n    }\n\n    function withdraw(uint tokenAmount, address destination) public onlyOwner {\n        bank.withdrawToken(token, tokenAmount);\n        token.transfer(destination, tokenAmount);\n    }\n\n    function clearBalance(uint amount) public\n        onlyOwner\n    {\n        if (token.balanceOf(this) >= amount) {\n            token.transfer(bank, amount);\n        }\n    }\n\n    function getBalance() public view returns (uint) {\n        return token.balanceOf(this);\n    }\n}\n",
  "sourcePath": "/home/peter/Documents/Work/MyBit/MyBit-Network.tech/contracts/kyber/MockDepositAddressToken.sol",
  "compiler": {
    "name": "solc",
    "version": "0.4.24+commit.e67f0147.Emscripten.clang"
  },
  "schemaVersion": "3.0.2",
  "updatedAt": "2019-03-21T21:27:43.143Z",
  "devdoc": {
    "author": "Ilan Doron",
    "methods": {},
    "title": "Mock Deposit Address for token"
  },
  "userdoc": {
    "methods": {}
  }
}