{
  "contractName": "MutualSlashing",
  "abi": [
    {
      "constant": true,
      "inputs": [],
      "name": "database",
      "outputs": [
        {
          "name": "",
          "type": "address"
        }
      ],
      "payable": false,
      "stateMutability": "view",
      "type": "function"
    },
    {
      "inputs": [
        {
          "name": "_database",
          "type": "address"
        }
      ],
      "payable": false,
      "stateMutability": "nonpayable",
      "type": "constructor"
    },
    {
      "anonymous": false,
      "inputs": [
        {
          "indexed": true,
          "name": "proposalID",
          "type": "bytes32"
        },
        {
          "indexed": true,
          "name": "account",
          "type": "address"
        },
        {
          "indexed": false,
          "name": "vote",
          "type": "uint256"
        }
      ],
      "name": "Approve",
      "type": "event"
    },
    {
      "anonymous": false,
      "inputs": [
        {
          "indexed": true,
          "name": "account",
          "type": "address"
        },
        {
          "indexed": false,
          "name": "value",
          "type": "uint256"
        }
      ],
      "name": "Commit",
      "type": "event"
    },
    {
      "anonymous": false,
      "inputs": [
        {
          "indexed": true,
          "name": "proposalID",
          "type": "bytes32"
        },
        {
          "indexed": true,
          "name": "account",
          "type": "address"
        },
        {
          "indexed": false,
          "name": "vote",
          "type": "uint256"
        }
      ],
      "name": "Decline",
      "type": "event"
    },
    {
      "anonymous": false,
      "inputs": [
        {
          "indexed": true,
          "name": "proposer",
          "type": "address"
        },
        {
          "indexed": false,
          "name": "proposalID",
          "type": "bytes32"
        }
      ],
      "name": "Propose",
      "type": "event"
    },
    {
      "anonymous": false,
      "inputs": [
        {
          "indexed": false,
          "name": "proposalID",
          "type": "bytes32"
        },
        {
          "indexed": false,
          "name": "contractAddress",
          "type": "address"
        },
        {
          "indexed": false,
          "name": "methodID",
          "type": "bytes4"
        },
        {
          "indexed": false,
          "name": "parameterHash",
          "type": "bytes32"
        }
      ],
      "name": "ProposalDetails",
      "type": "event"
    },
    {
      "anonymous": false,
      "inputs": [
        {
          "indexed": true,
          "name": "account",
          "type": "address"
        },
        {
          "indexed": false,
          "name": "value",
          "type": "uint256"
        }
      ],
      "name": "Withdraw",
      "type": "event"
    },
    {
      "constant": false,
      "inputs": [
        {
          "name": "_value",
          "type": "uint256"
        },
        {
          "name": "_token",
          "type": "address"
        }
      ],
      "name": "commit",
      "outputs": [],
      "payable": false,
      "stateMutability": "nonpayable",
      "type": "function"
    },
    {
      "constant": false,
      "inputs": [
        {
          "name": "_token",
          "type": "address"
        },
        {
          "name": "_stake",
          "type": "uint256"
        },
        {
          "name": "_contractAddress",
          "type": "address"
        },
        {
          "name": "_methodID",
          "type": "bytes4"
        },
        {
          "name": "_parameterHash",
          "type": "bytes32"
        }
      ],
      "name": "propose",
      "outputs": [
        {
          "name": "",
          "type": "bool"
        }
      ],
      "payable": false,
      "stateMutability": "nonpayable",
      "type": "function"
    },
    {
      "constant": false,
      "inputs": [
        {
          "name": "_proposalID",
          "type": "bytes32"
        },
        {
          "name": "_amountToBurn",
          "type": "uint256"
        }
      ],
      "name": "approve",
      "outputs": [
        {
          "name": "",
          "type": "bool"
        }
      ],
      "payable": false,
      "stateMutability": "nonpayable",
      "type": "function"
    },
    {
      "constant": false,
      "inputs": [
        {
          "name": "_proposalID",
          "type": "bytes32"
        },
        {
          "name": "_amountToBurn",
          "type": "uint256"
        }
      ],
      "name": "decline",
      "outputs": [
        {
          "name": "",
          "type": "bool"
        }
      ],
      "payable": false,
      "stateMutability": "nonpayable",
      "type": "function"
    },
    {
      "constant": false,
      "inputs": [
        {
          "name": "_token",
          "type": "address"
        }
      ],
      "name": "cancelCommitment",
      "outputs": [
        {
          "name": "",
          "type": "bool"
        }
      ],
      "payable": false,
      "stateMutability": "nonpayable",
      "type": "function"
    },
    {
      "constant": false,
      "inputs": [
        {
          "name": "_tokenHolder",
          "type": "address"
        },
        {
          "name": "_token",
          "type": "address"
        }
      ],
      "name": "withdrawTokens",
      "outputs": [
        {
          "name": "",
          "type": "bool"
        }
      ],
      "payable": false,
      "stateMutability": "nonpayable",
      "type": "function"
    },
    {
      "constant": true,
      "inputs": [
        {
          "name": "_age",
          "type": "uint256"
        }
      ],
      "name": "multiplierOf",
      "outputs": [
        {
          "name": "multiplier",
          "type": "uint8"
        }
      ],
      "payable": false,
      "stateMutability": "pure",
      "type": "function"
    },
    {
      "constant": true,
      "inputs": [
        {
          "name": "_token",
          "type": "address"
        }
      ],
      "name": "tokenIsGoverned",
      "outputs": [
        {
          "name": "",
          "type": "bool"
        }
      ],
      "payable": false,
      "stateMutability": "view",
      "type": "function"
    }
  ],
  "bytecode": "0x608060405234801561001057600080fd5b50604051602080612f50833981016040525160008054600160a060020a03909216600160a060020a0319909216919091179055612efe806100526000396000f30060806040526004361061007f5763ffffffff60e060020a6000350416630d64b07181146100845780631671e9c3146100aa57806346fdeafd146100d957806347144421146100fa578063713b563f14610115578063719ec1d7146101465780637e49948d146101745780639dac7288146101c4578063a522ad25146101e5575b600080fd5b34801561009057600080fd5b506100a8600435600160a060020a036024351661020c565b005b3480156100b657600080fd5b506100c5600435602435610755565b604080519115158252519081900360200190f35b3480156100e557600080fd5b506100c5600160a060020a0360043516610b03565b34801561010657600080fd5b506100c5600435602435610c28565b34801561012157600080fd5b5061012a610e9d565b60408051600160a060020a039092168252519081900360200190f35b34801561015257600080fd5b5061015e600435610eac565b6040805160ff9092168252519081900360200190f35b34801561018057600080fd5b506100c5600160a060020a0360043581169060243590604435167bffffffffffffffffffffffffffffffffffffffffffffffffffffffff1960643516608435610ed9565b3480156101d057600080fd5b506100c5600160a060020a03600435166114c0565b3480156101f157600080fd5b506100c5600160a060020a036004358116906024351661192d565b60008211610264576040805160e560020a62461bcd02815260206004820152601760248201527f4e6f6e207a65726f2076616c7565207265717569726564000000000000000000604482015290519081900360640190fd5b61026e3382611e09565b156102c3576040805160e560020a62461bcd02815260206004820152601760248201527f636f6d6d69746d656e7420616c7265616479206d616465000000000000000000604482015290519081900360640190fd5b600054604080517f636f6d6d69746d656e742e72656c6561736574696d6500000000000000000000602080830191909152600160a060020a03858116606060020a90810260368501523302604a8401528351808403603e018152605e90930193849052825194169363a855d4ce93918291908401908083835b6020831061035b5780518252601f19909201916020918201910161033c565b51815160209384036101000a60001901801990921691161790526040805192909401829003822063ffffffff881660e060020a0283526004830152925160248083019650939450929083900301905081600087803b1580156103bc57600080fd5b505af11580156103d0573d6000803e3d6000fd5b505050506040513d60208110156103e657600080fd5b5051156103f257600080fd5b6103fb81610b03565b151561040657600080fd5b604080517f23b872dd000000000000000000000000000000000000000000000000000000008152336004820152306024820152604481018490529051600160a060020a038316916323b872dd9160648083019260209291908290030181600087803b15801561047457600080fd5b505af1158015610488573d6000803e3d6000fd5b505050506040513d602081101561049e57600080fd5b505115156104f6576040805160e560020a62461bcd02815260206004820152601360248201527f7472616e7366657246726f6d206661696c656400000000000000000000000000604482015290519081900360640190fd5b60005460408051600080516020612eb3833981519152602080830191909152600160a060020a03858116606060020a90810260308501523302604484015283518084036038018152605890930193849052825194169363e2a4853a93918291908401908083835b6020831061057c5780518252601f19909201916020918201910161055d565b5181516020939093036101000a60001901801990911692169190911790526040805191909301819003812063ffffffff871660e060020a028252600482015260248101899052915160448084019550600094509092839003019050818387803b1580156105e857600080fd5b505af11580156105fc573d6000803e3d6000fd5b5050600054604080517f636f6d6d69746d656e742e737461727400000000000000000000000000000000602080830191909152600160a060020a03878116606060020a9081026030850152330260448401528351808403603801815260589093019384905282519416955063e2a4853a9450909282918401908083835b602083106106985780518252601f199092019160209182019101610679565b5181516020939093036101000a60001901801990911692169190911790526040805191909301819003812063ffffffff871660e060020a0282526004820152426024820152915160448084019550600094509092839003019050818387803b15801561070357600080fd5b505af1158015610717573d6000803e3d6000fd5b50506040805185815290513393507f5e1dd8c4451717d5ca4ffbefdada35e22e0871220b9ed9dd03a351f0938c5ed792509081900360200190a25050565b6000805460408051600080516020612e93833981519152602080830191909152602e80830188905283518084039091018152604e90920192839052815185948594859485948594600160a060020a03909416936304f49a3a93918291908401908083835b602083106107d85780518252601f1990920191602091820191016107b9565b51815160209384036101000a60001901801990921691161790526040805192909401829003822063ffffffff881660e060020a0283526004830152925160248083019650939450929083900301905081600087803b15801561083957600080fd5b505af115801561084d573d6000803e3d6000fd5b505050506040513d602081101561086357600080fd5b505194506108713386611e09565b9350600084116108cb576040805160e560020a62461bcd02815260206004820152601360248201527f436f6d6d69746d656e7420726571756972656400000000000000000000000000604482015290519081900360640190fd5b6108d488611f4c565b151561092a576040805160e560020a62461bcd02815260206004820152601660248201527f4f70656e2070726f706f73616c20726571756972656400000000000000000000604482015290519081900360640190fd5b60008711156109485761093d888861221f565b151561094857600080fd5b6109538886336129ad565b604080517f70726f706f73616c2e64697373656e740000000000000000000000000000000060208083019190915260308083018d9052835180840390910181526050909201928390528151939650909282918401908083835b602083106109cb5780518252601f1990920191602091820191016109ac565b51815160209384036101000a6000190180199092169116179052604080519290940182900382206000805460e160020a63542aea67028552600485018390529551919950600160a060020a03909516965063a855d4ce955060248084019592945090928390030190829087803b158015610a4457600080fd5b505af1158015610a58573d6000803e3d6000fd5b505050506040513d6020811015610a6e57600080fd5b5051600054909150600160a060020a031663e2a4853a83610a95848763ffffffff612e3b16565b6040518363ffffffff1660e060020a02815260040180836000191660001916815260200182815260200192505050600060405180830381600087803b158015610add57600080fd5b505af1158015610af1573d6000803e3d6000fd5b5060019b9a5050505050505050505050565b60008054604080517f746f6b656e2e676f7665726e6564000000000000000000000000000000000000602080830191909152600160a060020a03868116606060020a02602e840152835180840360220181526042909301938490528251941693633b7bfda093918291908401908083835b60208310610b935780518252601f199092019160209182019101610b74565b51815160209384036101000a60001901801990921691161790526040805192909401829003822063ffffffff881660e060020a0283526004830152925160248083019650939450929083900301905081600087803b158015610bf457600080fd5b505af1158015610c08573d6000803e3d6000fd5b505050506040513d6020811015610c1e57600080fd5b505190505b919050565b6000805460408051600080516020612e93833981519152602080830191909152602e80830188905283518084039091018152604e90920192839052815185948594859485948594600160a060020a03909416936304f49a3a93918291908401908083835b60208310610cab5780518252601f199092019160209182019101610c8c565b51815160209384036101000a60001901801990921691161790526040805192909401829003822063ffffffff881660e060020a0283526004830152925160248083019650939450929083900301905081600087803b158015610d0c57600080fd5b505af1158015610d20573d6000803e3d6000fd5b505050506040513d6020811015610d3657600080fd5b50519450610d443386611e09565b935060008411610d9e576040805160e560020a62461bcd02815260206004820152601360248201527f436f6d6d69746d656e7420726571756972656400000000000000000000000000604482015290519081900360640190fd5b610da788611f4c565b1515610dfd576040805160e560020a62461bcd02815260206004820152601660248201527f4f70656e2070726f706f73616c20726571756972656400000000000000000000604482015290519081900360640190fd5b6000871115610e1b57610e10888861221f565b1515610e1b57600080fd5b610e268886336129ad565b604080517f70726f706f73616c2e617070726f76616c00000000000000000000000000000060208083019190915260318083018d905283518084039091018152605190920192839052815193965090928291840190808383602083106109cb5780518252601f1990920191602091820191016109ac565b600054600160a060020a031681565b600060b4821015610ebf57506064610c23565b61016d821015610ed157506096610c23565b5060c8610c23565b6000806000610ee83389611e09565b11610f3d576040805160e560020a62461bcd02815260206004820152601660248201527f7573657220686173206e6f20636f6d6d69746d656e7400000000000000000000604482015290519081900360640190fd5b610f4687610b03565b1515610f5157600080fd5b60408051606060020a338102602080840191909152600160a060020a03808c1683026034850152891690910260488301527bffffffffffffffffffffffffffffffffffffffffffffffffffffffff198716605c830152606080830187905283518084039091018152608090920192839052815191929182918401908083835b60208310610fef5780518252601f199092019160209182019101610fd0565b6001836020036101000a0380198251168184511680821785525050505050509050019150506040518091039020905061102781611f4c565b1561107c576040805160e560020a62461bcd02815260206004820152601860248201527f70726f706f73616c20697320616c7265616479206f70656e0000000000000000604482015290519081900360640190fd5b600054604080517f70726f706f73616c2e696e69746961746f7200000000000000000000000000006020808301919091526032808301869052835180840390910181526052909201928390528151600160a060020a039094169363ca446dd993918291908401908083835b602083106111065780518252601f1990920191602091820191016110e7565b5181516020939093036101000a60001901801990911692169190911790526040805191909301819003812063ffffffff871660e060020a0282526004820152336024820152915160448084019550600094509092839003019050818387803b15801561117157600080fd5b505af1158015611185573d6000803e3d6000fd5b5050600054604080517f70726f706f73616c2e7374616b65000000000000000000000000000000000000602080830191909152602e8201879052606060020a3302604e830152825160428184030181526062909201928390528151600160a060020a03909416955063e2a4853a9450909282918401908083835b6020831061121e5780518252601f1990920191602091820191016111ff565b5181516020939093036101000a60001901801990911692169190911790526040805191909301819003812063ffffffff871660e060020a0282526004820152602481018d9052915160448084019550600094509092839003019050818387803b15801561128a57600080fd5b505af115801561129e573d6000803e3d6000fd5b5050600054604080517f70726f706f73616c2e7374617274000000000000000000000000000000000000602080830191909152602e80830188905283518084039091018152604e909201928390528151600160a060020a03909416955063e2a4853a9450909282918401908083835b6020831061132c5780518252601f19909201916020918201910161130d565b5181516020939093036101000a60001901801990911692169190911790526040805191909301819003812063ffffffff871660e060020a0282526004820152426024820152915160448084019550600094509092839003019050818387803b15801561139757600080fd5b505af11580156113ab573d6000803e3d6000fd5b505060005460408051600080516020612e93833981519152602080830191909152602e80830188905283518084039091018152604e909201928390528151600160a060020a03909416955063ca446dd99450909282918401908083835b602083106114275780518252601f199092019160209182019101611408565b5181516020939093036101000a60001901801990911692169190911790526040805191909301819003812063ffffffff871660e060020a0282526004820152600160a060020a038e166024820152915160448084019550600094509092839003019050818387803b15801561149b57600080fd5b505af11580156114af573d6000803e3d6000fd5b5060019a9950505050505050505050565b60008060006114cf3385611e09565b1161154a576040805160e560020a62461bcd02815260206004820152602360248201527f746f6b656e20686f6c646572206861736e7420636f6d6d697474656420746f6b60448201527f656e730000000000000000000000000000000000000000000000000000000000606482015290519081900360840190fd5b604080517f636f6d6d69746d656e742e72656c6561736574696d6500000000000000000000602080830191909152606060020a600160a060020a038716810260368401523302604a8301528251603e818403018152605e90920192839052815191929182918401908083835b602083106115d55780518252601f1990920191602091820191016115b6565b51815160209384036101000a6000190180199092169116179052604080519290940182900382206000805460e160020a63542aea67028552600485018390529551919850600160a060020a03909516965063a855d4ce955060248084019592945090928390030190829087803b15801561164e57600080fd5b505af1158015611662573d6000803e3d6000fd5b505050506040513d602081101561167857600080fd5b5051421061168557600080fd5b600054604080517f636f6d6d69746d656e742e737461727400000000000000000000000000000000602080830191909152600160a060020a03878116606060020a90810260308501523302604484015283518084036038018152605890930193849052825194169363e2b202bf93918291908401908083835b6020831061171d5780518252601f1990920191602091820191016116fe565b5181516020939093036101000a60001901801990911692169190911790526040805191909301819003812063ffffffff871660e060020a0282526004820152915160248084019550600094509092839003019050818387803b15801561178257600080fd5b505af1158015611796573d6000803e3d6000fd5b5050600054604080517f746f6b656e2e766f74656475726174696f6e0000000000000000000000000000602080830191909152825180830360120181526032909201928390528151600160a060020a03909416955063e2a4853a945086936118c493879363a855d4ce93909282918401908083835b6020831061182a5780518252601f19909201916020918201910161180b565b51815160209384036101000a60001901801990921691161790526040805192909401829003822063ffffffff881660e060020a0283526004830152925160248083019650939450929083900301905081600087803b15801561188b57600080fd5b505af115801561189f573d6000803e3d6000fd5b505050506040513d60208110156118b557600080fd5b5051429063ffffffff612e3b16565b6040518363ffffffff1660e060020a02815260040180836000191660001916815260200182815260200192505050600060405180830381600087803b15801561190c57600080fd5b505af1158015611920573d6000803e3d6000fd5b5060019695505050505050565b6000806000806000806119408888611e09565b116119bb576040805160e560020a62461bcd02815260206004820152602360248201527f746f6b656e20686f6c646572206861736e7420636f6d6d697474656420746f6b60448201527f656e730000000000000000000000000000000000000000000000000000000000606482015290519081900360840190fd5b604080517f636f6d6d69746d656e742e72656c6561736574696d6500000000000000000000602080830191909152606060020a600160a060020a03808b16820260368501528b1602604a8301528251603e818403018152605e90920192839052815191929182918401908083835b60208310611a485780518252601f199092019160209182019101611a29565b51815160209384036101000a6000190180199092169116179052604080519290940182900382206000805460e160020a63542aea67028552600485018390529551919b50600160a060020a03909516965063a855d4ce955060248084019592945090928390030190829087803b158015611ac157600080fd5b505af1158015611ad5573d6000803e3d6000fd5b505050506040513d6020811015611aeb57600080fd5b505192504283108015611afe5750600083115b1515611b0957600080fd5b60008054604080517fe2b202bf000000000000000000000000000000000000000000000000000000008152600481018890529051600160a060020a039092169263e2b202bf9260248084019382900301818387803b158015611b6a57600080fd5b505af1158015611b7e573d6000803e3d6000fd5b50505050866040516020018080600080516020612eb383398151915281525060100182600160a060020a0316600160a060020a0316606060020a0281526014019150506040516020818303038152906040526040518082805190602001908083835b60208310611bff5780518252601f199092019160209182019101611be0565b51815160209384036101000a6000190180199092169116179052604080519290940182900382206000805460e160020a63542aea67028552600485018390529551919950600160a060020a03909516965063a855d4ce955060248084019592945090928390030190829087803b158015611c7857600080fd5b505af1158015611c8c573d6000803e3d6000fd5b505050506040513d6020811015611ca257600080fd5b505160008054604080517fe2b202bf000000000000000000000000000000000000000000000000000000008152600481018790529051939450600160a060020a039091169263e2b202bf9260248084019391929182900301818387803b158015611d0b57600080fd5b505af1158015611d1f573d6000803e3d6000fd5b5050505085600160a060020a031663a9059cbb88836040518363ffffffff1660e060020a0281526004018083600160a060020a0316600160a060020a0316815260200182815260200192505050602060405180830381600087803b158015611d8657600080fd5b505af1158015611d9a573d6000803e3d6000fd5b505050506040513d6020811015611db057600080fd5b50511515611dbd57600080fd5b604080518281529051600160a060020a038916917f884edad9ce6fa2440d8a54cc123490eb96d2768479d49ff9c7366125a9424364919081900360200190a25060019695505050505050565b60008054604080517f636f6d6d69746d656e742e737461727400000000000000000000000000000000602080830191909152600160a060020a03868116606060020a9081026030850152888216026044840152835180840360380181526058909301938490528251611f4595919091169363a855d4ce9392909182918401908083835b60208310611eab5780518252601f199092019160209182019101611e8c565b51815160209384036101000a60001901801990921691161790526040805192909401829003822063ffffffff881660e060020a0283526004830152925160248083019650939450929083900301905081600087803b158015611f0c57600080fd5b505af1158015611f20573d6000803e3d6000fd5b505050506040513d6020811015611f3657600080fd5b5051429063ffffffff612e5516565b9392505050565b60008054604080517f70726f706f73616c2e7374617274000000000000000000000000000000000000602080830191909152602e80830187905283518084039091018152604e90920192839052815185948594611fdc94600160a060020a039092169363a855d4ce93829184019080838360208310611eab5780518252601f199092019160209182019101611e8c565b60005460408051600080516020612e93833981519152602080830191909152602e8083018a905283518084039091018152604e909201928390528151949650600160a060020a03909316936304f49a3a939192918291908401908083835b602083106120595780518252601f19909201916020918201910161203a565b51815160209384036101000a60001901801990921691161790526040805192909401829003822063ffffffff881660e060020a0283526004830152925160248083019650939450929083900301905081600087803b1580156120ba57600080fd5b505af11580156120ce573d6000803e3d6000fd5b505050506040513d60208110156120e457600080fd5b5051600054604080517f746f6b656e2e766f74656475726174696f6e0000000000000000000000000000602080830191909152600160a060020a03808616606060020a0260328401528351808403602601815260469093019384905282519596509093169363a855d4ce939192918291908401908083835b6020831061217b5780518252601f19909201916020918201910161215c565b51815160209384036101000a60001901801990921691161790526040805192909401829003822063ffffffff881660e060020a0283526004830152925160248083019650939450929083900301905081600087803b1580156121dc57600080fd5b505af11580156121f0573d6000803e3d6000fd5b505050506040513d602081101561220657600080fd5b505182118015906122175750600082115b949350505050565b6000805460408051600080516020612e93833981519152602080830191909152602e80830188905283518084039091018152604e909201928390528151859485948594859485948594600160a060020a0316936304f49a3a9392909182918401908083835b602083106122a35780518252601f199092019160209182019101612284565b51815160209384036101000a60001901801990921691161790526040805192909401829003822063ffffffff881660e060020a0283526004830152925160248083019650939450929083900301905081600087803b15801561230457600080fd5b505af1158015612318573d6000803e3d6000fd5b505050506040513d602081101561232e57600080fd5b5051600054604080517f70726f706f73616c2e696e69746961746f72000000000000000000000000000060208281019190915260328083018f9052835180840390910181526052909201928390528151949a50600160a060020a03909316936304f49a3a939192918291908401908083835b602083106123bf5780518252601f1990920191602091820191016123a0565b51815160209384036101000a60001901801990921691161790526040805192909401829003822063ffffffff881660e060020a0283526004830152925160248083019650939450929083900301905081600087803b15801561242057600080fd5b505af1158015612434573d6000803e3d6000fd5b505050506040513d602081101561244a57600080fd5b5051604080517f70726f706f73616c2e7374616b65000000000000000000000000000000000000602082810191909152602e82018d9052606060020a600160a060020a03851602604e830152825160428184030181526062909201928390528151939850909282918401908083835b602083106124d85780518252601f1990920191602091820191016124b9565b51815160209384036101000a600019018019909216911617905260408051929094018290038220600080516020612eb383398151915283830152600160a060020a038d16606060020a908102603085015233026044840152845180840360380181526058909301948590528251909a509195509293508392850191508083835b602083106125775780518252601f199092019160209182019101612558565b51815160209384036101000a6000190180199092169116179052604080519290940182900382206000805460e160020a63542aea67028552600485018d90529551919a50600160a060020a03909516965063a855d4ce955060248084019592945090928390030190829087803b1580156125f057600080fd5b505af1158015612604573d6000803e3d6000fd5b505050506040513d602081101561261a57600080fd5b5051915060008211612676576040805160e560020a62461bcd02815260206004820152601a60248201527f70726f706f73657220686173206e6f207374616b65206c656674000000000000604482015290519081900360640190fd5b600054604080517f706c6174666f726d2e6275726e7261746500000000000000000000000000000060208083019190915282518083036011018152603190920192839052815161279594600160a060020a03169363a855d4ce9392909182918401908083835b602083106126fb5780518252601f1990920191602091820191016126dc565b51815160209384036101000a60001901801990921691161790526040805192909401829003822063ffffffff881660e060020a0283526004830152925160248083019650939450929083900301905081600087803b15801561275c57600080fd5b505af1158015612770573d6000803e3d6000fd5b505050506040513d602081101561278657600080fd5b5051899063ffffffff612e6716565b600054909150600160a060020a031663e2a4853a856127ba858c63ffffffff612e5516565b6040518363ffffffff1660e060020a02815260040180836000191660001916815260200182815260200192505050600060405180830381600087803b15801561280257600080fd5b505af1158015612816573d6000803e3d6000fd5b5050600080546040805160e160020a63542aea67028152600481018990529051600160a060020a03909216945063e2a4853a935087926128b4928e92879263a855d4ce926024808401936020939083900390910190829087803b15801561287c57600080fd5b505af1158015612890573d6000803e3d6000fd5b505050506040513d60208110156128a657600080fd5b50519063ffffffff612e5516565b6040518363ffffffff1660e060020a02815260040180836000191660001916815260200182815260200192505050600060405180830381600087803b1580156128fc57600080fd5b505af1158015612910573d6000803e3d6000fd5b505050600160a060020a03871690506342966c6861292e8a84612e3b565b6040518263ffffffff1660e060020a02815260040180828152602001915050602060405180830381600087803b15801561296757600080fd5b505af115801561297b573d6000803e3d6000fd5b505050506040513d602081101561299157600080fd5b5051151561299e57600080fd5b50600198975050505050505050565b604080517f70726f706f73616c2e766f746564000000000000000000000000000000000000602080830191909152602e8201869052606060020a600160a060020a03851602604e83015282516042818403018152606290920192839052815160009384938493849391929182918401908083835b60208310612a405780518252601f199092019160209182019101612a21565b51815160209384036101000a6000190180199092169116179052604080519290940182900382206000805460e160020a63542aea67028552600485018390529551919a50600160a060020a03909516965063a855d4ce955060248084019592945090928390030190829087803b158015612ab957600080fd5b505af1158015612acd573d6000803e3d6000fd5b505050506040513d6020811015612ae357600080fd5b505115612aef57600080fd5b60005460408051600080516020612eb3833981519152602080830191909152600160a060020a038a8116606060020a90810260308501528a821602604484015283518084036038018152605890930193849052825194169363a855d4ce93918291908401908083835b60208310612b775780518252601f199092019160209182019101612b58565b51815160209384036101000a60001901801990921691161790526040805192909401829003822063ffffffff881660e060020a0283526004830152925160248083019650939450929083900301905081600087803b158015612bd857600080fd5b505af1158015612bec573d6000803e3d6000fd5b505050506040513d6020811015612c0257600080fd5b5051935060008411612c1057fe5b60008054604080517fe2a4853a00000000000000000000000000000000000000000000000000000000815260048101879052602481018890529051600160a060020a039092169263e2a4853a9260448084019382900301818387803b158015612c7857600080fd5b505af1158015612c8c573d6000803e3d6000fd5b5050604080517f70726f706f73616c2e766f7465636f756e74000000000000000000000000000060208083019190915260328083018d905283518084039091018152605290920192839052815191945091925082918401908083835b60208310612d075780518252601f199092019160209182019101612ce8565b51815160209384036101000a6000190180199092169116179052604080519290940182900382206000805460e160020a63542aea67028552600485018390529551919950600160a060020a03909516965063a855d4ce955060248084019592945090928390030190829087803b158015612d8057600080fd5b505af1158015612d94573d6000803e3d6000fd5b505050506040513d6020811015612daa57600080fd5b5051600054909150600160a060020a031663e2a4853a83612dd1848863ffffffff612e3b16565b6040518363ffffffff1660e060020a02815260040180836000191660001916815260200182815260200192505050600060405180830381600087803b158015612e1957600080fd5b505af1158015612e2d573d6000803e3d6000fd5b505050505050509392505050565b600082820183811015612e4a57fe5b8091505b5092915050565b600082821115612e6157fe5b50900390565b600080831515612e7a5760009150612e4e565b50828202828482811515612e8a57fe5b0414612e4a57fe0070726f706f73616c2e746f6b656e000000000000000000000000000000000000636f6d6d69746d656e742e76616c756500000000000000000000000000000000a165627a7a72305820b4d082d9b87abea0ebee8e40426e2ee0b13fa4a16f25282df872975ae6e8d2fd0029",
  "source": "pragma solidity ^0.4.24;\n\nimport \"../math/SafeMath.sol\";\n\n\ninterface MutualSlashing_ERC20 {\n  function transfer(address _to, uint256 _value) external returns (bool);\n  function transferFrom(address _from, address _to, uint256 _value) external returns (bool);\n  function burn(uint256 _amount) external returns (bool);\n}\ninterface MutualSlashing_Database {\n  function addressStorage(bytes32 _key) external view returns (address);\n  function uintStorage(bytes32 _key) external view returns (uint);\n  function boolStorage(bytes32 _key) external view returns (bool);\n  function deleteUint(bytes32 _key) external;\n  function setBool(bytes32 _key, bool _bool) external;\n  function setUint(bytes32 _key, uint _value) external;\n  function setBytes32(bytes32 _key, bytes32 _value) external;\n  function setAddress(bytes32 _key, address _value) external;\n}\n\n\n// @notice a proposal/voting system that allows token holders to slash proposers stake\n// @notice token holder must slash a proportional, but lower amount of their own tokens to slash the stake\n// @dev use function burnStake() in any of the other voting systems to add slashing functionality\ncontract MutualSlashing {\n  using SafeMath for uint256;\n\n  MutualSlashing_Database public database;\n\n  // @notice constructor\n  // @param _database instance\n  constructor(address _database)\n  public {\n    database = MutualSlashing_Database(_database);\n  }\n\n  /**\n   * Commit MYB to voting\n   * @notice Commits specified amount of your MYB to voting.\n   * @dev Fails if you already have an active commitment. Emits Commit on success.\n   * @param _value - MYB amount to commit.\n   */\n  function commit(uint256 _value, address _token)\n  external {\n    require(_value > 0, \"Non zero value required\");\n    require(commitmentAge(msg.sender, _token) == 0, \"commitment already made\");\n    require(database.uintStorage(keccak256(abi.encodePacked(\"commitment.releasetime\", _token, msg.sender))) == 0);\n    require(tokenIsGoverned(_token));\n    require(MutualSlashing_ERC20(_token).transferFrom(msg.sender, address(this), _value), \"transferFrom failed\");\n    database.setUint(keccak256(abi.encodePacked(\"commitment.value\",  _token, msg.sender)), _value);\n    database.setUint(keccak256(abi.encodePacked(\"commitment.start\", _token, msg.sender)), now);\n    emit Commit(msg.sender, _value);\n  }\n\n\n  function propose(address _token, uint256 _stake, address _contractAddress, bytes4 _methodID, bytes32 _parameterHash)\n  external\n  returns (bool){\n    require(commitmentAge(msg.sender, _token) > 0, \"user has no commitment\");\n    require(tokenIsGoverned(_token));\n    bytes32 proposalID = keccak256(abi.encodePacked(msg.sender, _token, _contractAddress, _methodID, _parameterHash));\n    require(!proposalOpen(proposalID), \"proposal is already open\");\n    database.setAddress(keccak256(abi.encodePacked(\"proposal.initiator\", proposalID)), msg.sender);\n    database.setUint(keccak256(abi.encodePacked(\"proposal.stake\", proposalID, msg.sender)), _stake);\n    database.setUint(keccak256(abi.encodePacked(\"proposal.start\", proposalID)), now);\n    database.setAddress(keccak256(abi.encodePacked(\"proposal.token\", proposalID)), _token);\n    return true;\n  }\n\n\n  // @notice Approves proposal with all of your committed tokens with option to burn stakers tokens\n  // @param _proposalID - Identifier of proposal to approve.\n  // @param _tokenHolder : the user holding tokens relevent to this proposal\n  // @param _amountToBurn : the amount of tokens user wishes to slash from the proposer\n  function approve(bytes32 _proposalID, uint256 _amountToBurn)\n  external\n  returns (bool){\n    address token = database.addressStorage(keccak256(abi.encodePacked(\"proposal.token\", _proposalID)));\n    uint age = commitmentAge(msg.sender, token);\n    require(age > 0, \"Commitment required\");  // Tokens committed + waited minimum staking time\n    require(proposalOpen(_proposalID), \"Open proposal required\");    // Is the proposal waiting execution?\n    if (_amountToBurn > 0) require(burnStake(_proposalID, _amountToBurn));\n    uint256 commitValue = tallyVotes(_proposalID, token, msg.sender);\n    bytes32 approvalID = keccak256(abi.encodePacked(\"proposal.approval\", _proposalID));\n    uint256 approval = database.uintStorage(approvalID);\n    database.setUint(approvalID, approval.add(commitValue));\n    return true;\n  }\n\n  // @param _proposalID - Identifier of proposal to approve with option to burn stakers tokens\n  // @param _tokenHolder : the user holding tokens relevent to this proposal\n  // @param _amountToBurn : the amount of tokens user wishes to slash from the proposer\n  function decline(bytes32 _proposalID, uint256 _amountToBurn)\n  external\n  returns (bool){\n    address token = database.addressStorage(keccak256(abi.encodePacked(\"proposal.token\", _proposalID)));\n    uint age = commitmentAge(msg.sender, token);\n    require(age > 0, \"Commitment required\");  // Tokens committed + waited minimum staking time\n    require(proposalOpen(_proposalID), \"Open proposal required\");    // Is the proposal waiting execution?\n    if (_amountToBurn > 0)  require(burnStake(_proposalID, _amountToBurn));\n    uint256 commitValue = tallyVotes(_proposalID, token, msg.sender);\n    bytes32 dissentID = keccak256(abi.encodePacked(\"proposal.dissent\", _proposalID));\n    uint256 dissent = database.uintStorage(dissentID);\n    database.setUint(dissentID, dissent.add(commitValue));\n    return true;\n  }\n\n  // @notice Updates users vote and the total vote count for this proposal\n  function tallyVotes(bytes32 _proposalID, address _token, address _tokenHolder)\n  internal\n  returns (uint commitValue) {\n    bytes32 userVoteID = keccak256(abi.encodePacked(\"proposal.voted\", _proposalID, _tokenHolder));\n    require(database.uintStorage(userVoteID) == 0);  // make sure token holder hasn't already voted\n    commitValue = database.uintStorage(keccak256(abi.encodePacked(\"commitment.value\", _token, _tokenHolder)));\n    assert (commitValue > 0);\n    database.setUint(userVoteID, commitValue);\n    bytes32 voteID = keccak256(abi.encodePacked(\"proposal.votecount\", _proposalID));\n    uint256 voteCount = database.uintStorage(voteID);\n    database.setUint(voteID, voteCount.add(commitValue));\n    return commitValue;\n  }\n\n  // @notice internal call handling the mutual burning of proposer and voter tokens\n  function burnStake(bytes32 _proposalID, uint256 _amountToBurn)\n  internal\n  returns (bool) {\n    address token = database.addressStorage(keccak256(abi.encodePacked(\"proposal.token\", _proposalID)));\n    address proposer = database.addressStorage(keccak256(abi.encodePacked(\"proposal.initiator\", _proposalID)));\n    bytes32 stakeID = keccak256(abi.encodePacked(\"proposal.stake\", _proposalID, proposer));\n    bytes32 commitmentID = keccak256(abi.encodePacked(\"commitment.value\", token, msg.sender));\n    uint256 proposerStake = database.uintStorage(stakeID);\n    require(proposerStake > 0, \"proposer has no stake left\");\n    uint256 selfBurnAmount = _amountToBurn.mul(database.uintStorage(keccak256(abi.encodePacked(\"platform.burnrate\"))));\n    database.setUint(stakeID, proposerStake.sub(_amountToBurn));   // reduce stake amount\n    database.setUint(commitmentID, database.uintStorage(commitmentID).sub(_amountToBurn));   // reduce commitment amount\n    require(MutualSlashing_ERC20(token).burn(_amountToBurn.add(selfBurnAmount)));  // burn both proposer and token holder tokens\n    return true;\n  }\n\n  // @notice token holder can signal their commitment to be withdrawn after proposal time has elapsed\n  // @param _tokenHolder : the address of the tokenholder to cancelCommitment\n  function cancelCommitment(address _token)\n  external\n  returns (bool){\n    require(commitmentAge(msg.sender, _token) > 0, \"token holder hasnt committed tokens\");\n    bytes32 releaseTimeID = keccak256(abi.encodePacked(\"commitment.releasetime\", _token, msg.sender));\n    require(now < database.uintStorage(releaseTimeID));\n    database.deleteUint(keccak256(abi.encodePacked(\"commitment.start\", _token, msg.sender)));   // remove reference to start date which is the authortiy check\n    database.setUint(releaseTimeID, now.add(database.uintStorage(keccak256(abi.encodePacked(\"token.voteduration\")))));\n    return true;\n  }\n\n\n  // @notice Withdraws all of your committed MYB to the original address.\n  // @dev Fails if your commitment is locked.\n  function withdrawTokens(address _tokenHolder, address _token)\n  external\n  returns (bool){\n    require(commitmentAge(_tokenHolder, _token) > 0, \"token holder hasnt committed tokens\");\n    bytes32 releaseTimeID = keccak256(abi.encodePacked(\"commitment.releasetime\", _token, _tokenHolder));\n    uint releaseTime = database.uintStorage(releaseTimeID);\n    require(now > releaseTime && releaseTime > 0);\n    database.deleteUint(releaseTimeID);\n    bytes32 commitmentValueID = keccak256(abi.encodePacked(\"commitment.value\", _tokenHolder));\n    uint256 value = database.uintStorage(commitmentValueID);\n    database.deleteUint(commitmentValueID);\n    require(MutualSlashing_ERC20(_token).transfer(_tokenHolder, value));\n    emit Withdraw(_tokenHolder, value);\n    return true;\n  }\n\n\n    // --------\n    // Internal\n\n    /**\n     * @dev Assumes active commitment.\n     * @param _account - Account owning commitment to get age of.\n     * @return age - Commitment age.\n     */\n    function commitmentAge(address _account, address _token)\n    internal\n    view\n    returns (uint256) {\n      return now.sub(database.uintStorage(keccak256(abi.encodePacked(\"commitment.start\", _token, _account))));\n    }\n\n    /**\n     * @notice proposal is open for voting until vote duration has elapsed.\n     * @return open - Whether proposal is open.\n     */\n    function proposalOpen(bytes32 _proposalID)\n    internal\n    view\n    returns (bool open) {\n      uint256 age = now.sub(database.uintStorage(keccak256(abi.encodePacked(\"proposal.start\", _proposalID))));\n      address token = database.addressStorage(keccak256(abi.encodePacked(\"proposal.token\", _proposalID)));\n      return (age <= database.uintStorage(keccak256(abi.encodePacked(\"token.voteduration\", token))) && age > 0);\n    }\n\n    /**\n     * @notice Gets commitment multiplier. A commitment multiplier changes as the commitment advances tiers.\n     * @dev Fails if account has no active commitment.\n     * @param _age - The age of the commitment\n     * @return multiplier - Current commitment multiplier.\n     */\n    function multiplierOf(uint _age)\n    public\n    pure\n    returns (uint8 multiplier) {\n      if (_age < 180) return 100;\n      if (_age < 365) return 150;\n      else return 200;\n    }\n\n    // --------\n    // Modifier\n\n    function tokenIsGoverned(address _token)\n    public\n    view\n    returns (bool){\n      return (database.boolStorage(keccak256(abi.encodePacked(\"token.governed\", _token))));\n    }\n\n\n    // -----\n    // Event\n\n    /** Approve vote cast */\n    event Approve(\n      bytes32 indexed proposalID,                 // Approved proposal identifier\n      address indexed account,                    // Approving account\n      uint256 vote                                // Weighted approval amount\n    );\n\n    /** MYB committed to voting */\n    event Commit(\n      address indexed account,                    // Committing account\n      uint256 value                               // MYB amount committed\n    );\n\n    /** Decline vote cast */\n    event Decline(\n      bytes32 indexed proposalID,                 // Declined proposal identifier\n      address indexed account,                    // Declining account\n      uint256 vote                                // Weighted dissent amount\n    );\n\n    /** Proposal created */\n    event Propose(\n      address indexed proposer,                   // Proposing account\n      bytes32 proposalID                          // Proposal identifier\n    );\n\n    event ProposalDetails(\n      bytes32 proposalID,\n      address contractAddress,\n      bytes4 methodID,\n      bytes32 parameterHash\n    );\n\n    /** Commitment withdrawn */\n    event Withdraw(\n      address indexed account,                    // Withdrawing account\n      uint256 value                               // MYB amount withdrawn\n    );\n\n  }\n",
  "sourcePath": "/home/peter/Documents/Work/MyBit/MyBit-Network.tech/contracts/ownership/MutualSlashing.sol",
  "compiler": {
    "name": "solc",
    "version": "0.4.24+commit.e67f0147.Emscripten.clang"
  },
  "schemaVersion": "3.0.2",
  "updatedAt": "2019-04-08T20:56:10.833Z",
  "devdoc": {
    "methods": {
      "commit(uint256,address)": {
        "details": "Fails if you already have an active commitment. Emits Commit on success.",
        "params": {
          "_value": "- MYB amount to commit."
        }
      },
      "multiplierOf(uint256)": {
        "details": "Fails if account has no active commitment.",
        "params": {
          "_age": "- The age of the commitment"
        },
        "return": "multiplier - Current commitment multiplier."
      }
    }
  },
  "userdoc": {
    "methods": {
      "commit(uint256,address)": {
        "notice": "Commit MYB to votingCommits specified amount of your MYB to voting."
      },
      "multiplierOf(uint256)": {
        "notice": "Gets commitment multiplier. A commitment multiplier changes as the commitment advances tiers."
      }
    }
  }
}