{
  "contractName": "MyBitToken",
  "abi": [
    {
      "constant": false,
      "inputs": [
        {
          "name": "_spender",
          "type": "address"
        },
        {
          "name": "_value",
          "type": "uint256"
        }
      ],
      "name": "approve",
      "outputs": [
        {
          "name": "",
          "type": "bool"
        }
      ],
      "payable": false,
      "stateMutability": "nonpayable",
      "type": "function"
    },
    {
      "constant": true,
      "inputs": [],
      "name": "totalSupply",
      "outputs": [
        {
          "name": "",
          "type": "uint256"
        }
      ],
      "payable": false,
      "stateMutability": "view",
      "type": "function"
    },
    {
      "constant": false,
      "inputs": [
        {
          "name": "_from",
          "type": "address"
        },
        {
          "name": "_to",
          "type": "address"
        },
        {
          "name": "_value",
          "type": "uint256"
        }
      ],
      "name": "transferFrom",
      "outputs": [
        {
          "name": "",
          "type": "bool"
        }
      ],
      "payable": false,
      "stateMutability": "nonpayable",
      "type": "function"
    },
    {
      "constant": true,
      "inputs": [],
      "name": "tokenURI",
      "outputs": [
        {
          "name": "",
          "type": "string"
        }
      ],
      "payable": false,
      "stateMutability": "view",
      "type": "function"
    },
    {
      "constant": false,
      "inputs": [
        {
          "name": "_amount",
          "type": "uint256"
        }
      ],
      "name": "burn",
      "outputs": [
        {
          "name": "success",
          "type": "bool"
        }
      ],
      "payable": false,
      "stateMutability": "nonpayable",
      "type": "function"
    },
    {
      "constant": false,
      "inputs": [
        {
          "name": "_spender",
          "type": "address"
        },
        {
          "name": "_subtractedValue",
          "type": "uint256"
        }
      ],
      "name": "decreaseApproval",
      "outputs": [
        {
          "name": "",
          "type": "bool"
        }
      ],
      "payable": false,
      "stateMutability": "nonpayable",
      "type": "function"
    },
    {
      "constant": true,
      "inputs": [
        {
          "name": "_owner",
          "type": "address"
        }
      ],
      "name": "balanceOf",
      "outputs": [
        {
          "name": "",
          "type": "uint256"
        }
      ],
      "payable": false,
      "stateMutability": "view",
      "type": "function"
    },
    {
      "constant": false,
      "inputs": [
        {
          "name": "_from",
          "type": "address"
        },
        {
          "name": "_amount",
          "type": "uint256"
        }
      ],
      "name": "burnFrom",
      "outputs": [
        {
          "name": "success",
          "type": "bool"
        }
      ],
      "payable": false,
      "stateMutability": "nonpayable",
      "type": "function"
    },
    {
      "constant": false,
      "inputs": [
        {
          "name": "_to",
          "type": "address"
        },
        {
          "name": "_value",
          "type": "uint256"
        }
      ],
      "name": "transfer",
      "outputs": [
        {
          "name": "",
          "type": "bool"
        }
      ],
      "payable": false,
      "stateMutability": "nonpayable",
      "type": "function"
    },
    {
      "constant": false,
      "inputs": [
        {
          "name": "_spender",
          "type": "address"
        },
        {
          "name": "_addedValue",
          "type": "uint256"
        }
      ],
      "name": "increaseApproval",
      "outputs": [
        {
          "name": "",
          "type": "bool"
        }
      ],
      "payable": false,
      "stateMutability": "nonpayable",
      "type": "function"
    },
    {
      "constant": true,
      "inputs": [
        {
          "name": "_owner",
          "type": "address"
        },
        {
          "name": "_spender",
          "type": "address"
        }
      ],
      "name": "allowance",
      "outputs": [
        {
          "name": "",
          "type": "uint256"
        }
      ],
      "payable": false,
      "stateMutability": "view",
      "type": "function"
    },
    {
      "inputs": [
        {
          "name": "_tokenURI",
          "type": "string"
        },
        {
          "name": "_totalSupply",
          "type": "uint256"
        }
      ],
      "payable": false,
      "stateMutability": "nonpayable",
      "type": "constructor"
    },
    {
      "anonymous": false,
      "inputs": [
        {
          "indexed": true,
          "name": "_spender",
          "type": "address"
        },
        {
          "indexed": false,
          "name": "_value",
          "type": "uint256"
        }
      ],
      "name": "LogBurn",
      "type": "event"
    },
    {
      "anonymous": false,
      "inputs": [
        {
          "indexed": true,
          "name": "from",
          "type": "address"
        },
        {
          "indexed": true,
          "name": "to",
          "type": "address"
        },
        {
          "indexed": false,
          "name": "value",
          "type": "uint256"
        }
      ],
      "name": "Transfer",
      "type": "event"
    },
    {
      "anonymous": false,
      "inputs": [
        {
          "indexed": true,
          "name": "owner",
          "type": "address"
        },
        {
          "indexed": true,
          "name": "spender",
          "type": "address"
        },
        {
          "indexed": false,
          "name": "value",
          "type": "uint256"
        }
      ],
      "name": "Approval",
      "type": "event"
    }
  ],
  "bytecode": "0x608060405234801561001057600080fd5b50604051610b20380380610b208339810160405280516020808301516002819055919092018051909261004891600391850190610095565b5033600081815260208181526040808320859055805185815290517fddf252ad1be2c89b69c2b068fc378daa952ba7f163c4a11628f55a4df523b3ef929181900390910190a35050610130565b828054600181600116156101000203166002900490600052602060002090601f016020900481019282601f106100d657805160ff1916838001178555610103565b82800160010185558215610103579182015b828111156101035782518255916020019190600101906100e8565b5061010f929150610113565b5090565b61012d91905b8082111561010f5760008155600101610119565b90565b6109e18061013f6000396000f3006080604052600436106100ae5763ffffffff7c0100000000000000000000000000000000000000000000000000000000600035041663095ea7b381146100b357806318160ddd146100eb57806323b872dd146101125780633c130d901461013c57806342966c68146101c657806366188463146101de57806370a082311461020257806379cc679014610223578063a9059cbb14610247578063d73dd6231461026b578063dd62ed3e1461028f575b600080fd5b3480156100bf57600080fd5b506100d7600160a060020a03600435166024356102b6565b604080519115158252519081900360200190f35b3480156100f757600080fd5b5061010061031c565b60408051918252519081900360200190f35b34801561011e57600080fd5b506100d7600160a060020a0360043581169060243516604435610322565b34801561014857600080fd5b50610151610485565b6040805160208082528351818301528351919283929083019185019080838360005b8381101561018b578181015183820152602001610173565b50505050905090810190601f1680156101b85780820380516001836020036101000a031916815260200191505b509250505060405180910390f35b3480156101d257600080fd5b506100d7600435610513565b3480156101ea57600080fd5b506100d7600160a060020a03600435166024356105bd565b34801561020e57600080fd5b50610100600160a060020a03600435166106ac565b34801561022f57600080fd5b506100d7600160a060020a03600435166024356106c7565b34801561025357600080fd5b506100d7600160a060020a03600435166024356107dc565b34801561027757600080fd5b506100d7600160a060020a03600435166024356108a9565b34801561029b57600080fd5b50610100600160a060020a0360043581169060243516610942565b336000818152600160209081526040808320600160a060020a038716808552908352818420869055815186815291519394909390927f8c5be1e5ebec7d5bd14f71427d1e84f3dd0314c0f7b2291e5b200ac8c7c3b925928290030190a350600192915050565b60025490565b600160a060020a03831660009081526020819052604081205482111561034757600080fd5b600160a060020a038416600090815260016020908152604080832033845290915290205482111561037757600080fd5b600160a060020a038316151561038c57600080fd5b600160a060020a0384166000908152602081905260409020546103b5908363ffffffff61096d16565b600160a060020a0380861660009081526020819052604080822093909355908516815220546103ea908363ffffffff61097f16565b600160a060020a0380851660009081526020818152604080832094909455918716815260018252828120338252909152205461042c908363ffffffff61096d16565b600160a060020a0380861660008181526001602090815260408083203384528252918290209490945580518681529051928716939192600080516020610996833981519152929181900390910190a35060019392505050565b6003805460408051602060026001851615610100026000190190941693909304601f8101849004840282018401909252818152929183018282801561050b5780601f106104e05761010080835404028352916020019161050b565b820191906000526020600020905b8154815290600101906020018083116104ee57829003601f168201915b505050505081565b33600090815260208190526040812054610533908363ffffffff61096d16565b33600090815260208190526040902055600254610556908363ffffffff61096d16565b60025560408051838152905133917f38d762ef507761291a578e921acfe29c1af31a7331ea03e391cf16cfc4d4f581919081900360200190a260408051838152905160009133916000805160206109968339815191529181900360200190a3506001919050565b336000908152600160209081526040808320600160a060020a038616845290915281205480831061061157336000908152600160209081526040808320600160a060020a0388168452909152812055610646565b610621818463ffffffff61096d16565b336000908152600160209081526040808320600160a060020a03891684529091529020555b336000818152600160209081526040808320600160a060020a0389168085529083529281902054815190815290519293927f8c5be1e5ebec7d5bd14f71427d1e84f3dd0314c0f7b2291e5b200ac8c7c3b925929181900390910190a35060019392505050565b600160a060020a031660009081526020819052604090205490565b600160a060020a0382166000908152602081905260408120546106f0908363ffffffff61096d16565b600160a060020a03841660009081526020818152604080832093909355600181528282203383529052205461072b908363ffffffff61096d16565b600160a060020a0384166000908152600160209081526040808320338452909152902055600254610762908363ffffffff61096d16565b600255604080518381529051600160a060020a038516917f38d762ef507761291a578e921acfe29c1af31a7331ea03e391cf16cfc4d4f581919081900360200190a2604080518381529051600091600160a060020a038616916000805160206109968339815191529181900360200190a350600192915050565b336000908152602081905260408120548211156107f857600080fd5b600160a060020a038316151561080d57600080fd5b3360009081526020819052604090205461082d908363ffffffff61096d16565b3360009081526020819052604080822092909255600160a060020a0385168152205461085f908363ffffffff61097f16565b600160a060020a038416600081815260208181526040918290209390935580518581529051919233926000805160206109968339815191529281900390910190a350600192915050565b336000908152600160209081526040808320600160a060020a03861684529091528120546108dd908363ffffffff61097f16565b336000818152600160209081526040808320600160a060020a0389168085529083529281902085905580519485525191937f8c5be1e5ebec7d5bd14f71427d1e84f3dd0314c0f7b2291e5b200ac8c7c3b925929081900390910190a350600192915050565b600160a060020a03918216600090815260016020908152604080832093909416825291909152205490565b60008282111561097957fe5b50900390565b60008282018381101561098e57fe5b93925050505600ddf252ad1be2c89b69c2b068fc378daa952ba7f163c4a11628f55a4df523b3efa165627a7a723058203caa842a5e8163ad9bbbe30b6ed0766ff305dfe3740cd42e958cac775e26b80e0029",
  "source": "pragma solidity ^0.4.24;\n\nimport \"./BurnableToken.sol\";\nimport \"../../math/SafeMath.sol\";\n\n// @title ERC20 token contract with burning capabilities\n// @notice Standard ERC20 contract with a deflationary supply.\ncontract MyBitToken is BurnableToken{\n  using SafeMath for uint256;\n\n  string public tokenURI;\n\n  // @notice constructor: initialized\n  // @param (string) _tokenURI = The URI where information about this token can be found\n  // @param (uint) _totalSupply = The initial supply of the token\n  constructor(string _tokenURI, uint _totalSupply)\n  public {\n      supply = _totalSupply;                        // Update total supply\n      tokenURI = _tokenURI;                         // Set the id for reference\n      balances[msg.sender] = _totalSupply;\n      emit Transfer(address(0), msg.sender, _totalSupply);    // Transfer event indicating token creation\n  }\n}\n",
  "sourcePath": "/home/peter/Documents/Work/MyBit/MyBit-Network.tech/contracts/tokens/erc20/MyBitToken.sol",
  "compiler": {
    "name": "solc",
    "version": "0.4.24+commit.e67f0147.Emscripten.clang"
  },
  "schemaVersion": "2.0.1",
  "updatedAt": "2018-12-03T18:35:12.335Z"
}