{
  "contractName": "Operators",
  "abi": [
    {
      "inputs": [
        {
          "name": "_database",
          "type": "address"
        }
      ],
      "payable": false,
      "stateMutability": "nonpayable",
      "type": "constructor"
    },
    {
      "anonymous": false,
      "inputs": [
        {
          "indexed": true,
          "name": "_operatorID",
          "type": "bytes32"
        },
        {
          "indexed": false,
          "name": "_operatorURI",
          "type": "string"
        }
      ],
      "name": "LogOperatorRegistered",
      "type": "event"
    },
    {
      "anonymous": false,
      "inputs": [
        {
          "indexed": true,
          "name": "_operatorID",
          "type": "bytes32"
        },
        {
          "indexed": false,
          "name": "_owner",
          "type": "address"
        }
      ],
      "name": "LogOperatorRemoved",
      "type": "event"
    },
    {
      "anonymous": false,
      "inputs": [
        {
          "indexed": true,
          "name": "_operatorID",
          "type": "bytes32"
        },
        {
          "indexed": false,
          "name": "_oldAddress",
          "type": "address"
        },
        {
          "indexed": false,
          "name": "_newAddress",
          "type": "address"
        }
      ],
      "name": "LogOperatorAddressChanged",
      "type": "event"
    },
    {
      "anonymous": false,
      "inputs": [
        {
          "indexed": true,
          "name": "_operatorID",
          "type": "bytes32"
        },
        {
          "indexed": false,
          "name": "_tokenAddress",
          "type": "address"
        }
      ],
      "name": "LogOperatorAcceptsToken",
      "type": "event"
    },
    {
      "constant": false,
      "inputs": [
        {
          "name": "_operatorAddress",
          "type": "address"
        },
        {
          "name": "_operatorURI",
          "type": "string"
        }
      ],
      "name": "registerOperator",
      "outputs": [],
      "payable": false,
      "stateMutability": "nonpayable",
      "type": "function"
    },
    {
      "constant": false,
      "inputs": [
        {
          "name": "_operatorID",
          "type": "bytes32"
        }
      ],
      "name": "removeOperator",
      "outputs": [],
      "payable": false,
      "stateMutability": "nonpayable",
      "type": "function"
    },
    {
      "constant": false,
      "inputs": [
        {
          "name": "_operatorID",
          "type": "bytes32"
        },
        {
          "name": "_newAddress",
          "type": "address"
        }
      ],
      "name": "changeOperatorAddress",
      "outputs": [],
      "payable": false,
      "stateMutability": "nonpayable",
      "type": "function"
    },
    {
      "constant": false,
      "inputs": [
        {
          "name": "_operatorID",
          "type": "bytes32"
        },
        {
          "name": "_tokenAddress",
          "type": "address"
        },
        {
          "name": "_accept",
          "type": "bool"
        }
      ],
      "name": "acceptERC20Token",
      "outputs": [
        {
          "name": "",
          "type": "bool"
        }
      ],
      "payable": false,
      "stateMutability": "nonpayable",
      "type": "function"
    },
    {
      "constant": false,
      "inputs": [
        {
          "name": "_operatorID",
          "type": "bytes32"
        },
        {
          "name": "_accept",
          "type": "bool"
        }
      ],
      "name": "acceptEther",
      "outputs": [
        {
          "name": "",
          "type": "bool"
        }
      ],
      "payable": false,
      "stateMutability": "nonpayable",
      "type": "function"
    }
  ],
  "bytecode": "0x608060405234801561001057600080fd5b50604051602080611c3b83398101806040528101908080519060200190929190505050806000806101000a81548173ffffffffffffffffffffffffffffffffffffffff021916908373ffffffffffffffffffffffffffffffffffffffff16021790555050611bb8806100836000396000f30060806040526004361061006d576000357c0100000000000000000000000000000000000000000000000000000000900463ffffffff16806331c360021461007257806366259e7f146100c3578063b00289fe146100f4578063d908c95b14610149578063fce92894146101be575b600080fd5b34801561007e57600080fd5b506100c16004803603810190808035600019169060200190929190803573ffffffffffffffffffffffffffffffffffffffff169060200190929190505050610219565b005b3480156100cf57600080fd5b506100f2600480360381019080803560001916906020019092919050505061096c565b005b34801561010057600080fd5b5061012f6004803603810190808035600019169060200190929190803515159060200190929190505050610cfa565b604051808215151515815260200191505060405180910390f35b34801561015557600080fd5b506101a46004803603810190808035600019169060200190929190803573ffffffffffffffffffffffffffffffffffffffff169060200190929190803515159060200190929190505050611032565b604051808215151515815260200191505060405180910390f35b3480156101ca57600080fd5b50610217600480360381019080803573ffffffffffffffffffffffffffffffffffffffff1690602001909291908035906020019082018035906020019190919293919293905050506113ae565b005b60008060009054906101000a900473ffffffffffffffffffffffffffffffffffffffff1673ffffffffffffffffffffffffffffffffffffffff166304f49a3a8460405160200180807f6f70657261746f7200000000000000000000000000000000000000000000000081525060080182600019166000191681526020019150506040516020818303038152906040526040518082805190602001908083835b6020831015156102dd57805182526020820191506020810190506020830392506102b8565b6001836020036101000a03801982511681845116808217855250505050505090500191505060405180910390206040518263ffffffff167c0100000000000000000000000000000000000000000000000000000000028152600401808260001916600019168152602001915050602060405180830381600087803b15801561036457600080fd5b505af1158015610378573d6000803e3d6000fd5b505050506040513d602081101561038e57600080fd5b81019080805190602001909291905050509050600073ffffffffffffffffffffffffffffffffffffffff168173ffffffffffffffffffffffffffffffffffffffff16141515156103dd57600080fd5b8073ffffffffffffffffffffffffffffffffffffffff163373ffffffffffffffffffffffffffffffffffffffff1614806105ca57506000809054906101000a900473ffffffffffffffffffffffffffffffffffffffff1673ffffffffffffffffffffffffffffffffffffffff16633b7bfda03360405160200180807f6f776e65720000000000000000000000000000000000000000000000000000008152506005018273ffffffffffffffffffffffffffffffffffffffff1673ffffffffffffffffffffffffffffffffffffffff166c010000000000000000000000000281526014019150506040516020818303038152906040526040518082805190602001908083835b60208310151561050757805182526020820191506020810190506020830392506104e2565b6001836020036101000a03801982511681845116808217855250505050505090500191505060405180910390206040518263ffffffff167c0100000000000000000000000000000000000000000000000000000000028152600401808260001916600019168152602001915050602060405180830381600087803b15801561058e57600080fd5b505af11580156105a2573d6000803e3d6000fd5b505050506040513d60208110156105b857600080fd5b81019080805190602001909291905050505b15156105d557600080fd5b6000809054906101000a900473ffffffffffffffffffffffffffffffffffffffff1673ffffffffffffffffffffffffffffffffffffffff16630e14a3768460405160200180807f6f70657261746f7200000000000000000000000000000000000000000000000081525060080182600019166000191681526020019150506040516020818303038152906040526040518082805190602001908083835b6020831015156106975780518252602082019150602081019050602083039250610672565b6001836020036101000a03801982511681845116808217855250505050505090500191505060405180910390206040518263ffffffff167c0100000000000000000000000000000000000000000000000000000000028152600401808260001916600019168152602001915050600060405180830381600087803b15801561071e57600080fd5b505af1158015610732573d6000803e3d6000fd5b505050506000809054906101000a900473ffffffffffffffffffffffffffffffffffffffff1673ffffffffffffffffffffffffffffffffffffffff1663ca446dd98460405160200180807f6f70657261746f7200000000000000000000000000000000000000000000000081525060080182600019166000191681526020019150506040516020818303038152906040526040518082805190602001908083835b6020831015156107f857805182526020820191506020810190506020830392506107d3565b6001836020036101000a0380198251168184511680821785525050505050509050019150506040518091039020846040518363ffffffff167c01000000000000000000000000000000000000000000000000000000000281526004018083600019166000191681526020018273ffffffffffffffffffffffffffffffffffffffff1673ffffffffffffffffffffffffffffffffffffffff16815260200192505050600060405180830381600087803b1580156108b357600080fd5b505af11580156108c7573d6000803e3d6000fd5b5050505082600019167f83d1907c6926aee89545f7b8c0892f69cbb092535e8812f34d91f96081fb59dd3384604051808373ffffffffffffffffffffffffffffffffffffffff1673ffffffffffffffffffffffffffffffffffffffff1681526020018273ffffffffffffffffffffffffffffffffffffffff1673ffffffffffffffffffffffffffffffffffffffff1681526020019250505060405180910390a2505050565b6000809054906101000a900473ffffffffffffffffffffffffffffffffffffffff1673ffffffffffffffffffffffffffffffffffffffff16633b7bfda03360405160200180807f6f776e65720000000000000000000000000000000000000000000000000000008152506005018273ffffffffffffffffffffffffffffffffffffffff1673ffffffffffffffffffffffffffffffffffffffff166c010000000000000000000000000281526014019150506040516020818303038152906040526040518082805190602001908083835b602083101515610a615780518252602082019150602081019050602083039250610a3c565b6001836020036101000a03801982511681845116808217855250505050505090500191505060405180910390206040518263ffffffff167c0100000000000000000000000000000000000000000000000000000000028152600401808260001916600019168152602001915050602060405180830381600087803b158015610ae857600080fd5b505af1158015610afc573d6000803e3d6000fd5b505050506040513d6020811015610b1257600080fd5b81019080805190602001909291905050501515610b2e57600080fd5b6000809054906101000a900473ffffffffffffffffffffffffffffffffffffffff1673ffffffffffffffffffffffffffffffffffffffff16630e14a3768260405160200180807f6f70657261746f7200000000000000000000000000000000000000000000000081525060080182600019166000191681526020019150506040516020818303038152906040526040518082805190602001908083835b602083101515610bf05780518252602082019150602081019050602083039250610bcb565b6001836020036101000a03801982511681845116808217855250505050505090500191505060405180910390206040518263ffffffff167c0100000000000000000000000000000000000000000000000000000000028152600401808260001916600019168152602001915050600060405180830381600087803b158015610c7757600080fd5b505af1158015610c8b573d6000803e3d6000fd5b5050505080600019167ffcdaf9ff2a837907a9ccd95822766a64e44ad27062647efb9b9bffd0fa60948433604051808273ffffffffffffffffffffffffffffffffffffffff1673ffffffffffffffffffffffffffffffffffffffff16815260200191505060405180910390a250565b6000823373ffffffffffffffffffffffffffffffffffffffff166000809054906101000a900473ffffffffffffffffffffffffffffffffffffffff1673ffffffffffffffffffffffffffffffffffffffff166304f49a3a8360405160200180807f6f70657261746f7200000000000000000000000000000000000000000000000081525060080182600019166000191681526020019150506040516020818303038152906040526040518082805190602001908083835b602083101515610dd65780518252602082019150602081019050602083039250610db1565b6001836020036101000a03801982511681845116808217855250505050505090500191505060405180910390206040518263ffffffff167c0100000000000000000000000000000000000000000000000000000000028152600401808260001916600019168152602001915050602060405180830381600087803b158015610e5d57600080fd5b505af1158015610e71573d6000803e3d6000fd5b505050506040513d6020811015610e8757600080fd5b810190808051906020019092919050505073ffffffffffffffffffffffffffffffffffffffff16141515610eba57600080fd5b6000809054906101000a900473ffffffffffffffffffffffffffffffffffffffff1673ffffffffffffffffffffffffffffffffffffffff1663abfdcced8560405160200180807f6163636570747345746865720000000000000000000000000000000000000000815250600c0182600019166000191681526020019150506040516020818303038152906040526040518082805190602001908083835b602083101515610f7c5780518252602082019150602081019050602083039250610f57565b6001836020036101000a0380198251168184511680821785525050505050509050019150506040518091039020856040518363ffffffff167c01000000000000000000000000000000000000000000000000000000000281526004018083600019166000191681526020018215151515815260200192505050600060405180830381600087803b15801561100f57600080fd5b505af1158015611023573d6000803e3d6000fd5b50505050600191505092915050565b6000833373ffffffffffffffffffffffffffffffffffffffff166000809054906101000a900473ffffffffffffffffffffffffffffffffffffffff1673ffffffffffffffffffffffffffffffffffffffff166304f49a3a8360405160200180807f6f70657261746f7200000000000000000000000000000000000000000000000081525060080182600019166000191681526020019150506040516020818303038152906040526040518082805190602001908083835b60208310151561110e57805182526020820191506020810190506020830392506110e9565b6001836020036101000a03801982511681845116808217855250505050505090500191505060405180910390206040518263ffffffff167c0100000000000000000000000000000000000000000000000000000000028152600401808260001916600019168152602001915050602060405180830381600087803b15801561119557600080fd5b505af11580156111a9573d6000803e3d6000fd5b505050506040513d60208110156111bf57600080fd5b810190808051906020019092919050505073ffffffffffffffffffffffffffffffffffffffff161415156111f257600080fd5b6000809054906101000a900473ffffffffffffffffffffffffffffffffffffffff1673ffffffffffffffffffffffffffffffffffffffff1663abfdcced868660405160200180807f61636365707473546f6b656e0000000000000000000000000000000000000000815250600c0183600019166000191681526020018273ffffffffffffffffffffffffffffffffffffffff1673ffffffffffffffffffffffffffffffffffffffff166c01000000000000000000000000028152601401925050506040516020818303038152906040526040518082805190602001908083835b6020831015156112f757805182526020820191506020810190506020830392506112d2565b6001836020036101000a0380198251168184511680821785525050505050509050019150506040518091039020856040518363ffffffff167c01000000000000000000000000000000000000000000000000000000000281526004018083600019166000191681526020018215151515815260200192505050600060405180830381600087803b15801561138a57600080fd5b505af115801561139e573d6000803e3d6000fd5b5050505060019150509392505050565b60008060009054906101000a900473ffffffffffffffffffffffffffffffffffffffff1673ffffffffffffffffffffffffffffffffffffffff16633b7bfda03360405160200180807f6f776e65720000000000000000000000000000000000000000000000000000008152506005018273ffffffffffffffffffffffffffffffffffffffff1673ffffffffffffffffffffffffffffffffffffffff166c010000000000000000000000000281526014019150506040516020818303038152906040526040518082805190602001908083835b6020831015156114a55780518252602082019150602081019050602083039250611480565b6001836020036101000a03801982511681845116808217855250505050505090500191505060405180910390206040518263ffffffff167c0100000000000000000000000000000000000000000000000000000000028152600401808260001916600019168152602001915050602060405180830381600087803b15801561152c57600080fd5b505af1158015611540573d6000803e3d6000fd5b505050506040513d602081101561155657600080fd5b8101908080519060200190929190505050151561157257600080fd5b600073ffffffffffffffffffffffffffffffffffffffff168473ffffffffffffffffffffffffffffffffffffffff16141515156115ae57600080fd5b8282604051602001808383808284378201915050925050506040516020818303038152906040526040518082805190602001908083835b60208310151561160a57805182526020820191506020810190506020830392506115e5565b6001836020036101000a03801982511681845116808217855250505050505090500191505060405180910390209050600073ffffffffffffffffffffffffffffffffffffffff166000809054906101000a900473ffffffffffffffffffffffffffffffffffffffff1673ffffffffffffffffffffffffffffffffffffffff166304f49a3a8360405160200180807f6f70657261746f7200000000000000000000000000000000000000000000000081525060080182600019166000191681526020019150506040516020818303038152906040526040518082805190602001908083835b60208310151561171357805182526020820191506020810190506020830392506116ee565b6001836020036101000a03801982511681845116808217855250505050505090500191505060405180910390206040518263ffffffff167c0100000000000000000000000000000000000000000000000000000000028152600401808260001916600019168152602001915050602060405180830381600087803b15801561179a57600080fd5b505af11580156117ae573d6000803e3d6000fd5b505050506040513d60208110156117c457600080fd5b810190808051906020019092919050505073ffffffffffffffffffffffffffffffffffffffff161415156117f757600080fd5b6000809054906101000a900473ffffffffffffffffffffffffffffffffffffffff1673ffffffffffffffffffffffffffffffffffffffff1663ca446dd98260405160200180807f6f70657261746f7200000000000000000000000000000000000000000000000081525060080182600019166000191681526020019150506040516020818303038152906040526040518082805190602001908083835b6020831015156118b95780518252602082019150602081019050602083039250611894565b6001836020036101000a0380198251168184511680821785525050505050509050019150506040518091039020866040518363ffffffff167c01000000000000000000000000000000000000000000000000000000000281526004018083600019166000191681526020018273ffffffffffffffffffffffffffffffffffffffff1673ffffffffffffffffffffffffffffffffffffffff16815260200192505050600060405180830381600087803b15801561197457600080fd5b505af1158015611988573d6000803e3d6000fd5b505050506000809054906101000a900473ffffffffffffffffffffffffffffffffffffffff1673ffffffffffffffffffffffffffffffffffffffff16634e91db088560405160200180807f6f70657261746f720000000000000000000000000000000000000000000000008152506008018273ffffffffffffffffffffffffffffffffffffffff1673ffffffffffffffffffffffffffffffffffffffff166c010000000000000000000000000281526014019150506040516020818303038152906040526040518082805190602001908083835b602083101515611a815780518252602082019150602081019050602083039250611a5c565b6001836020036101000a0380198251168184511680821785525050505050509050019150506040518091039020836040518363ffffffff167c0100000000000000000000000000000000000000000000000000000000028152600401808360001916600019168152602001826000191660001916815260200192505050600060405180830381600087803b158015611b1857600080fd5b505af1158015611b2c573d6000803e3d6000fd5b5050505080600019167f031871ff34307a19ec7bdc2bdfcfaa76c6276cd194b93dee80de2d1343642f068484604051808060200182810382528484828181526020019250808284378201915050935050505060405180910390a2505050505600a165627a7a723058206c3d82fb690b470280397ef8dd61e9b6252273c09eca021697cd085c48831ca70029",
  "source": "pragma solidity 0.4.24;\n\nimport '../database/Database.sol';\nimport '../math/SafeMath.sol';\n\ncontract Operators {\n\n  Database private database;\n\n  constructor(address _database) public {\n    database = Database(_database);\n  }\n\n  // @notice allows the platform owners to onboard a new operator.\n  // @notice operators will receive crowdfunding payments and are liable for producing/installing assets.\n  function registerOperator(address _operatorAddress, string _operatorURI)\n  external\n  onlyOwner {\n    require(_operatorAddress != address(0));\n    bytes32 operatorID = keccak256(abi.encodePacked(_operatorURI));\n    require(database.addressStorage(keccak256(abi.encodePacked(\"operator\", operatorID))) == address(0));\n    database.setAddress(keccak256(abi.encodePacked(\"operator\", operatorID)), _operatorAddress);\n    database.setBytes32(keccak256(abi.encodePacked(\"operator\", _operatorAddress)), operatorID);\n    emit LogOperatorRegistered(operatorID, _operatorURI);\n  }\n\n  // @notice owners can remove operators from the platform here\n  function removeOperator(bytes32 _operatorID)\n  external\n  onlyOwner {\n    database.deleteAddress(keccak256(abi.encodePacked(\"operator\", _operatorID)));\n    emit LogOperatorRemoved(_operatorID, msg.sender);\n  }\n\n\n  // @notice operator or owner can change the withdraw address of a registered operator\n  function changeOperatorAddress(bytes32 _operatorID, address _newAddress)\n  external {\n    address oldAddress = database.addressStorage(keccak256(abi.encodePacked(\"operator\", _operatorID)));\n    require(oldAddress != address(0));\n    require(msg.sender == oldAddress || database.boolStorage(keccak256(abi.encodePacked(\"owner\", msg.sender))));\n    database.deleteAddress(keccak256(abi.encodePacked(\"operator\", _operatorID)));\n    database.setAddress(keccak256(abi.encodePacked(\"operator\", _operatorID)), _newAddress);\n    emit LogOperatorAddressChanged(_operatorID, msg.sender, _newAddress);\n  }\n\n  // @notice operator can choose which ERC20 tokens he's willing to accept as payment\n  function acceptERC20Token(bytes32 _operatorID, address _tokenAddress, bool _accept)\n  external\n  onlyOperator(_operatorID)\n  returns (bool) {\n    database.setBool(keccak256(abi.encodePacked(\"acceptsToken\", _operatorID, _tokenAddress)), _accept);\n    return true;\n  }\n\n  // @notice operator can choose whether or not to accept Ether\n  function acceptEther(bytes32 _operatorID, bool _accept)\n  external\n  onlyOperator(_operatorID)\n  returns (bool) {\n    database.setBool(keccak256(abi.encodePacked(\"acceptsEther\", _operatorID)), _accept);\n    return true;\n  }\n\n  //////////////////////////////////////////////////////////////////////////////////////////////////////////////////////////////////\n  //                                                Modifiers                                                                     //\n  //////////////////////////////////////////////////////////////////////////////////////////////////////////////////////////////////\n\n  // @notice Sender must be a registered owner\n  modifier onlyOwner {\n    require(database.boolStorage(keccak256(abi.encodePacked(\"owner\", msg.sender))));\n    _;\n  }\n\n  // @notice Sender must be the operator address for this operatorID\n  modifier onlyOperator(bytes32 _operatorID) {\n    require(database.addressStorage(keccak256(abi.encodePacked(\"operator\", _operatorID))) == msg.sender);\n    _;\n  }\n\n\n  //////////////////////////////////////////////////////////////////////////////////////////////////////////////////////////////////\n  //                                                Events                                                                        //\n  //////////////////////////////////////////////////////////////////////////////////////////////////////////////////////////////////\n\n\n\n  event LogOperatorRegistered(bytes32 indexed _operatorID, string _operatorURI);\n  event LogOperatorRemoved(bytes32 indexed _operatorID, address _owner);\n  event LogOperatorAddressChanged(bytes32 indexed _operatorID, address _oldAddress, address _newAddress);\n  event LogOperatorAcceptsToken(bytes32 indexed _operatorID, address _tokenAddress);\n\n}\n",
  "sourcePath": "/home/peter/Documents/Work/MyBit/MyBit-Network.tech/contracts/roles/Operators.sol",
  "compiler": {
    "name": "solc",
    "version": "0.4.24+commit.e67f0147.Emscripten.clang"
  },
  "schemaVersion": "2.0.1",
  "updatedAt": "2018-10-17T02:00:48.034Z"
}