{
  "contractName": "Operators",
  "abi": [
    {
      "inputs": [
        {
          "name": "_database",
          "type": "address"
        },
        {
          "name": "_events",
          "type": "address"
        }
      ],
      "payable": false,
      "stateMutability": "nonpayable",
      "type": "constructor"
    },
    {
      "constant": false,
      "inputs": [
        {
          "name": "_operatorAddress",
          "type": "address"
        },
        {
          "name": "_operatorURI",
          "type": "string"
        },
        {
          "name": "_assetType",
          "type": "string"
        }
      ],
      "name": "registerOperator",
      "outputs": [],
      "payable": false,
      "stateMutability": "nonpayable",
      "type": "function"
    },
    {
      "constant": false,
      "inputs": [
        {
          "name": "_operatorID",
          "type": "bytes32"
        }
      ],
      "name": "removeOperator",
      "outputs": [],
      "payable": false,
      "stateMutability": "nonpayable",
      "type": "function"
    },
    {
      "constant": false,
      "inputs": [
        {
          "name": "_operatorID",
          "type": "bytes32"
        },
        {
          "name": "_newAddress",
          "type": "address"
        }
      ],
      "name": "changeOperatorAddress",
      "outputs": [],
      "payable": false,
      "stateMutability": "nonpayable",
      "type": "function"
    },
    {
      "constant": false,
      "inputs": [
        {
          "name": "_operatorID",
          "type": "bytes32"
        },
        {
          "name": "_tokenAddress",
          "type": "address"
        },
        {
          "name": "_accept",
          "type": "bool"
        }
      ],
      "name": "acceptERC20Token",
      "outputs": [
        {
          "name": "",
          "type": "bool"
        }
      ],
      "payable": false,
      "stateMutability": "nonpayable",
      "type": "function"
    },
    {
      "constant": false,
      "inputs": [
        {
          "name": "_operatorID",
          "type": "bytes32"
        },
        {
          "name": "_accept",
          "type": "bool"
        }
      ],
      "name": "acceptEther",
      "outputs": [
        {
          "name": "",
          "type": "bool"
        }
      ],
      "payable": false,
      "stateMutability": "nonpayable",
      "type": "function"
    },
    {
      "constant": false,
      "inputs": [
        {
          "name": "_operatorID",
          "type": "bytes32"
        },
        {
          "name": "_assetType",
          "type": "string"
        }
      ],
      "name": "addAssetType",
      "outputs": [
        {
          "name": "",
          "type": "bool"
        }
      ],
      "payable": false,
      "stateMutability": "nonpayable",
      "type": "function"
    },
    {
      "constant": false,
      "inputs": [],
      "name": "destroy",
      "outputs": [],
      "payable": false,
      "stateMutability": "nonpayable",
      "type": "function"
    }
  ],
  "bytecode": "0x608060405234801561001057600080fd5b506040516040806118f583398101604052805160209091015160008054600160a060020a03938416600160a060020a0319918216179091556001805493909216921691909117905561188e806100676000396000f3006080604052600436106100695763ffffffff60e060020a6000350416631e729af5811461006e57806331c36002146100a957806366259e7f146100cd57806383197ef0146100e55780639dbf3b5f146100fa578063b00289fe14610132578063d908c95b1461014f575b600080fd5b34801561007a57600080fd5b506100a760048035600160a060020a03169060248035808201929081013591604435908101910135610178565b005b3480156100b557600080fd5b506100a7600435600160a060020a036024351661081a565b3480156100d957600080fd5b506100a7600435610d2a565b3480156100f157600080fd5b506100a7610fed565b34801561010657600080fd5b5061011e6004803590602480359081019101356111cd565b604080519115158252519081900360200190f35b34801561013e57600080fd5b5061011e60043560243515156113c3565b34801561015b57600080fd5b5061011e600435600160a060020a036024351660443515156115f9565b60008054604080516000805160206118438339815191526020808301919091526c0100000000000000000000000033026025830152825160198184030181526039909201928390528151600160a060020a0390941693633b7bfda093918291908401908083835b602083106101fe5780518252601f1990920191602091820191016101df565b51815160209384036101000a60001901801990921691161790526040805192909401829003822063ffffffff881660e060020a0283526004830152925160248083019650939450929083900301905081600087803b15801561025f57600080fd5b505af1158015610273573d6000803e3d6000fd5b505050506040513d602081101561028957600080fd5b5051151561029657600080fd5b600160a060020a03861615156102ab57600080fd5b848460405160200180807f6f70657261746f722e7572690000000000000000000000000000000000000000815250600c018383808284378201915050925050506040516020818303038152906040526040518082805190602001908083835b602083106103295780518252601f19909201916020918201910161030a565b51815160209384036101000a60001901801990921691161790526040805192909401829003822060008054600080516020611823833981519152858501526028808601849052875180870390910181526048909501968790528451929950909750600160a060020a031695506304f49a3a9492935082918401908083835b602083106103c65780518252601f1990920191602091820191016103a7565b51815160209384036101000a60001901801990921691161790526040805192909401829003822063ffffffff881660e060020a0283526004830152925160248083019650939450929083900301905081600087803b15801561042757600080fd5b505af115801561043b573d6000803e3d6000fd5b505050506040513d602081101561045157600080fd5b5051600160a060020a03161461046657600080fd5b600054604080516000805160206118238339815191526020808301919091526028808301869052835180840390910181526048909201928390528151600160a060020a039094169363ca446dd993918291908401908083835b602083106104de5780518252601f1990920191602091820191016104bf565b5181516020939093036101000a60001901801990911692169190911790526040805191909301819003812063ffffffff871660e060020a0282526004820152600160a060020a038d166024820152915160448084019550600094509092839003019050818387803b15801561055257600080fd5b505af1158015610566573d6000803e3d6000fd5b505060005460408051600080516020611823833981519152602080830191909152600160a060020a038c81166c010000000000000000000000000260288401528351808403601c018152603c90930193849052825194169550634e91db089450909282918401908083835b602083106105f05780518252601f1990920191602091820191016105d1565b5181516020939093036101000a60001901801990911692169190911790526040805191909301819003812063ffffffff871660e060020a028252600482015260248101889052915160448084019550600094509092839003019050818387803b15801561065c57600080fd5b505af1158015610670573d6000803e3d6000fd5b505060015460405160e160020a630ee038d502815260248101859052600160a060020a038a81166064830152608060048301908152601360848401527f4f70657261746f7220726567697374657265640000000000000000000000000060a484015260c06044840190815260c484018b9052919093169450631dc071aa935085928a928a928d929182919060e40186868082843782019150509650505050505050600060405180830381600087803b15801561072b57600080fd5b505af115801561073f573d6000803e3d6000fd5b505060015460405160e160020a630ee038d502815260248101859052600160a060020a038a81166064830152608060048301908152600a60848401527f417373657420747970650000000000000000000000000000000000000000000060a484015260c06044840190815260c48401899052919093169450631dc071aa93508592889288928d929182919060e40186868082843782019150509650505050505050600060405180830381600087803b1580156107fa57600080fd5b505af115801561080e573d6000803e3d6000fd5b50505050505050505050565b60008054604080516000805160206118238339815191526020808301919091526028808301889052835180840390910181526048909201928390528151600160a060020a03909416936304f49a3a93918291908401908083835b602083106108935780518252601f199092019160209182019101610874565b51815160209384036101000a60001901801990921691161790526040805192909401829003822063ffffffff881660e060020a0283526004830152925160248083019650939450929083900301905081600087803b1580156108f457600080fd5b505af1158015610908573d6000803e3d6000fd5b505050506040513d602081101561091e57600080fd5b50519050600160a060020a038116151561093757600080fd5b33600160a060020a0382161480610a5c5750600054604080516000805160206118438339815191526020808301919091526c0100000000000000000000000033026025830152825160198184030181526039909201928390528151600160a060020a0390941693633b7bfda093918291908401908083835b602083106109ce5780518252601f1990920191602091820191016109af565b51815160209384036101000a60001901801990921691161790526040805192909401829003822063ffffffff881660e060020a0283526004830152925160248083019650939450929083900301905081600087803b158015610a2f57600080fd5b505af1158015610a43573d6000803e3d6000fd5b505050506040513d6020811015610a5957600080fd5b50515b1515610a6757600080fd5b600054604080516000805160206118238339815191526020808301919091526028808301889052835180840390910181526048909201928390528151600160a060020a0390941693630e14a37693918291908401908083835b60208310610adf5780518252601f199092019160209182019101610ac0565b5181516020939093036101000a60001901801990911692169190911790526040805191909301819003812063ffffffff871660e060020a0282526004820152915160248084019550600094509092839003019050818387803b158015610b4457600080fd5b505af1158015610b58573d6000803e3d6000fd5b50506000546040805160008051602061182383398151915260208083019190915260288083018a9052835180840390910181526048909201928390528151600160a060020a03909416955063ca446dd99450909282918401908083835b60208310610bd45780518252601f199092019160209182019101610bb5565b5181516020939093036101000a60001901801990911692169190911790526040805191909301819003812063ffffffff871660e060020a0282526004820152600160a060020a0389166024820152915160448084019550600094509092839003019050818387803b158015610c4857600080fd5b505af1158015610c5c573d6000803e3d6000fd5b5050600154604080517f68b96270000000000000000000000000000000000000000000000000000000008152600160a060020a0386811660248301528781166044830152600060648301819052608483018a905260a06004840152601860a48401527f4f70657261746f722061646472657373206368616e676564000000000000000060c48401529251931694506368b96270935060e4808201939182900301818387803b158015610d0d57600080fd5b505af1158015610d21573d6000803e3d6000fd5b50505050505050565b600054604080516000805160206118438339815191526020808301919091526c0100000000000000000000000033026025830152825160198184030181526039909201928390528151600160a060020a0390941693633b7bfda093918291908401908083835b60208310610daf5780518252601f199092019160209182019101610d90565b51815160209384036101000a60001901801990921691161790526040805192909401829003822063ffffffff881660e060020a0283526004830152925160248083019650939450929083900301905081600087803b158015610e1057600080fd5b505af1158015610e24573d6000803e3d6000fd5b505050506040513d6020811015610e3a57600080fd5b50511515610e4757600080fd5b600054604080516000805160206118238339815191526020808301919091526028808301869052835180840390910181526048909201928390528151600160a060020a0390941693630e14a37693918291908401908083835b60208310610ebf5780518252601f199092019160209182019101610ea0565b5181516020939093036101000a60001901801990911692169190911790526040805191909301819003812063ffffffff871660e060020a0282526004820152915160248084019550600094509092839003019050818387803b158015610f2457600080fd5b505af1158015610f38573d6000803e3d6000fd5b50506001546040805160e160020a630ee038d50281526024810186905233606482015260806004820152601060848201527f4f70657261746f722072656d6f7665640000000000000000000000000000000060a482015260c06044820152600060c482018190529151600160a060020a039093169450631dc071aa9350610104808201939182900301818387803b158015610fd257600080fd5b505af1158015610fe6573d6000803e3d6000fd5b5050505050565b600054604080516000805160206118438339815191526020808301919091526c0100000000000000000000000033026025830152825160198184030181526039909201928390528151600160a060020a0390941693633b7bfda093918291908401908083835b602083106110725780518252601f199092019160209182019101611053565b51815160209384036101000a60001901801990921691161790526040805192909401829003822063ffffffff881660e060020a0283526004830152925160248083019650939450929083900301905081600087803b1580156110d357600080fd5b505af11580156110e7573d6000803e3d6000fd5b505050506040513d60208110156110fd57600080fd5b5051151561110a57600080fd5b600154604080517f68b96270000000000000000000000000000000000000000000000000000000008152306024820181905233604483015231606482015260a06004820152601360a48201527f4f70657261746f72732064657374726f7965640000000000000000000000000060c48201529051600160a060020a03909216916368b962709160e48082019260009290919082900301818387803b1580156111b157600080fd5b505af11580156111c5573d6000803e3d6000fd5b503392505050ff5b6000805460408051600080516020611823833981519152602080830191909152602880830189905283518084039091018152604890920192839052815188943394600160a060020a03909116936304f49a3a93909282918401908083835b6020831061124a5780518252601f19909201916020918201910161122b565b51815160209384036101000a60001901801990921691161790526040805192909401829003822063ffffffff881660e060020a0283526004830152925160248083019650939450929083900301905081600087803b1580156112ab57600080fd5b505af11580156112bf573d6000803e3d6000fd5b505050506040513d60208110156112d557600080fd5b5051600160a060020a0316146112ea57600080fd5b60015460405160e160020a630ee038d5028152602481018790523360648201819052608060048301908152600a60848401527f417373657420747970650000000000000000000000000000000000000000000060a484015260c06044840190815260c48401889052600160a060020a0390941693631dc071aa938a938a938a9391929091829160e40186868082843782019150509650505050505050600060405180830381600087803b1580156113a057600080fd5b505af11580156113b4573d6000803e3d6000fd5b50600198975050505050505050565b6000805460408051600080516020611823833981519152602080830191909152602880830188905283518084039091018152604890920192839052815187943394600160a060020a03909116936304f49a3a93909282918401908083835b602083106114405780518252601f199092019160209182019101611421565b51815160209384036101000a60001901801990921691161790526040805192909401829003822063ffffffff881660e060020a0283526004830152925160248083019650939450929083900301905081600087803b1580156114a157600080fd5b505af11580156114b5573d6000803e3d6000fd5b505050506040513d60208110156114cb57600080fd5b5051600160a060020a0316146114e057600080fd5b600054604080517f6f70657261746f722e61636365707473457468657200000000000000000000006020808301919091526035808301899052835180840390910181526055909201928390528151600160a060020a039094169363abfdcced93918291908401908083835b6020831061156a5780518252601f19909201916020918201910161154b565b5181516020939093036101000a60001901801990911692169190911790526040805191909301819003812063ffffffff871660e060020a02825260048201528915156024820152915160448084019550600094509092839003019050818387803b1580156115d757600080fd5b505af11580156115eb573d6000803e3d6000fd5b506001979650505050505050565b6000805460408051600080516020611823833981519152602080830191909152602880830189905283518084039091018152604890920192839052815188943394600160a060020a03909116936304f49a3a93909282918401908083835b602083106116765780518252601f199092019160209182019101611657565b51815160209384036101000a60001901801990921691161790526040805192909401829003822063ffffffff881660e060020a0283526004830152925160248083019650939450929083900301905081600087803b1580156116d757600080fd5b505af11580156116eb573d6000803e3d6000fd5b505050506040513d602081101561170157600080fd5b5051600160a060020a03161461171657600080fd5b600054604080517f6f70657261746f722e61636365707473546f6b656e000000000000000000000060208083019190915260358201899052600160a060020a038881166c0100000000000000000000000002605584015283518084036049018152606990930193849052825194169363abfdcced93918291908401908083835b602083106117b55780518252601f199092019160209182019101611796565b5181516020939093036101000a60001901801990911692169190911790526040805191909301819003812063ffffffff871660e060020a02825260048201528915156024820152915160448084019550600094509092839003019050818387803b1580156113a057600080fd006f70657261746f720000000000000000000000000000000000000000000000006f776e6572000000000000000000000000000000000000000000000000000000a165627a7a7230582031c8b462cfcce81e72bfb822783c3ae9a6a37ac7bae75eccc28414f62400b7cb0029",
  "source": "pragma solidity ^0.4.24;\n\nimport '../database/Database.sol';\nimport '../database/Events.sol';\nimport '../math/SafeMath.sol';\n\ncontract Operators {\n\n  Database private database;\n  Events private events;\n\n  constructor(address _database, address _events) public {\n    database = Database(_database);\n    events = Events(_events);\n  }\n\n  // @notice allows the platform owners to onboard a new operator.\n  // @notice operators will receive crowdfunding payments and are liable for producing/installing assets.\n  function registerOperator(address _operatorAddress, string _operatorURI, string _assetType)\n  external\n  onlyOwner {\n    require(_operatorAddress != address(0));\n    bytes32 operatorID = keccak256(abi.encodePacked(\"operator.uri\", _operatorURI));\n    require(database.addressStorage(keccak256(abi.encodePacked(\"operator\", operatorID))) == address(0));\n    database.setAddress(keccak256(abi.encodePacked(\"operator\", operatorID)), _operatorAddress);\n    database.setBytes32(keccak256(abi.encodePacked(\"operator\", _operatorAddress)), operatorID);\n    events.operator('Operator registered', operatorID, _operatorURI, _operatorAddress);\n    events.operator('Asset type', operatorID, _assetType, _operatorAddress);\n    //emit LogOperatorRegistered(operatorID, _operatorURI);\n  }\n\n  // @notice owners can remove operators from the platform here\n  function removeOperator(bytes32 _operatorID)\n  external\n  onlyOwner {\n    database.deleteAddress(keccak256(abi.encodePacked(\"operator\", _operatorID)));\n    events.operator('Operator removed', _operatorID, '', msg.sender);\n    //emit LogOperatorRemoved(_operatorID, msg.sender);\n  }\n\n\n  // @notice operator or owner can change the withdraw address of a registered operator\n  function changeOperatorAddress(bytes32 _operatorID, address _newAddress)\n  external {\n    address oldAddress = database.addressStorage(keccak256(abi.encodePacked(\"operator\", _operatorID)));\n    require(oldAddress != address(0));\n    require(msg.sender == oldAddress || database.boolStorage(keccak256(abi.encodePacked(\"owner\", msg.sender))));\n    database.deleteAddress(keccak256(abi.encodePacked(\"operator\", _operatorID)));\n    database.setAddress(keccak256(abi.encodePacked(\"operator\", _operatorID)), _newAddress);\n    events.transaction('Operator address changed', oldAddress, _newAddress, 0, _operatorID);\n    //emit LogOperatorAddressChanged(_operatorID, msg.sender, _newAddress);\n  }\n\n  // @notice operator can choose which ERC20 tokens he's willing to accept as payment\n  function acceptERC20Token(bytes32 _operatorID, address _tokenAddress, bool _accept)\n  external\n  onlyOperator(_operatorID)\n  returns (bool) {\n    database.setBool(keccak256(abi.encodePacked(\"operator.acceptsToken\", _operatorID, _tokenAddress)), _accept);\n    return true;\n  }\n\n  // @notice operator can choose whether or not to accept Ether\n  function acceptEther(bytes32 _operatorID, bool _accept)\n  external\n  onlyOperator(_operatorID)\n  returns (bool) {\n    database.setBool(keccak256(abi.encodePacked(\"operator.acceptsEther\", _operatorID)), _accept);\n    return true;\n  }\n\n  function addAssetType(bytes32 _operatorID, string _assetType)\n  external\n  onlyOperator(_operatorID)\n  returns (bool) {\n    events.operator('Asset type', _operatorID, _assetType, msg.sender);\n    return true;\n  }\n\n  // @notice platform owners can destroy contract here\n  function destroy()\n  onlyOwner\n  external {\n    events.transaction('Operators destroyed', address(this), msg.sender, address(this).balance, '');\n    selfdestruct(msg.sender);\n  }\n\n  //////////////////////////////////////////////////////////////////////////////////////////////////////////////////////////////////\n  //                                                Modifiers                                                                     //\n  //////////////////////////////////////////////////////////////////////////////////////////////////////////////////////////////////\n\n  // @notice Sender must be a registered owner\n  modifier onlyOwner {\n    require(database.boolStorage(keccak256(abi.encodePacked(\"owner\", msg.sender))));\n    _;\n  }\n\n  // @notice Sender must be the operator address for this operatorID\n  modifier onlyOperator(bytes32 _operatorID) {\n    require(database.addressStorage(keccak256(abi.encodePacked(\"operator\", _operatorID))) == msg.sender);\n    _;\n  }\n\n\n  //////////////////////////////////////////////////////////////////////////////////////////////////////////////////////////////////\n  //                                                Events                                                                        //\n  //////////////////////////////////////////////////////////////////////////////////////////////////////////////////////////////////\n  /*\n  event LogOperatorRegistered(bytes32 indexed _operatorID, string _operatorURI);\n  event LogOperatorRemoved(bytes32 indexed _operatorID, address _owner);\n  event LogOperatorAddressChanged(bytes32 indexed _operatorID, address _oldAddress, address _newAddress);\n  event LogOperatorAcceptsToken(bytes32 indexed _operatorID, address _tokenAddress);\n  */\n\n}\n",
  "sourcePath": "/home/peter/Documents/Work/MyBit/MyBit-Network.tech/contracts/roles/Operators.sol",
  "compiler": {
    "name": "solc",
    "version": "0.4.24+commit.e67f0147.Emscripten.clang"
  },
  "schemaVersion": "3.0.2",
  "updatedAt": "2019-03-14T21:46:28.841Z",
  "devdoc": {
    "methods": {}
  },
  "userdoc": {
    "methods": {}
  }
}