{
  "contractName": "OrderbookReserve",
  "abi": [
    {
      "constant": true,
      "inputs": [],
      "name": "NUM_ORDERS",
      "outputs": [
        {
          "name": "",
          "type": "uint256"
        }
      ],
      "payable": false,
      "stateMutability": "view",
      "type": "function"
    },
    {
      "constant": true,
      "inputs": [
        {
          "name": "",
          "type": "address"
        }
      ],
      "name": "makerKnc",
      "outputs": [
        {
          "name": "",
          "type": "uint256"
        }
      ],
      "payable": false,
      "stateMutability": "view",
      "type": "function"
    },
    {
      "constant": true,
      "inputs": [
        {
          "name": "",
          "type": "address"
        }
      ],
      "name": "makerOrdersTokenToEth",
      "outputs": [
        {
          "name": "firstOrderId",
          "type": "uint32"
        },
        {
          "name": "takenBitmap",
          "type": "uint256"
        }
      ],
      "payable": false,
      "stateMutability": "view",
      "type": "function"
    },
    {
      "constant": true,
      "inputs": [],
      "name": "kncPerEthBaseRatePrecision",
      "outputs": [
        {
          "name": "",
          "type": "uint256"
        }
      ],
      "payable": false,
      "stateMutability": "view",
      "type": "function"
    },
    {
      "constant": true,
      "inputs": [],
      "name": "BURN_TO_STAKE_FACTOR",
      "outputs": [
        {
          "name": "",
          "type": "uint256"
        }
      ],
      "payable": false,
      "stateMutability": "view",
      "type": "function"
    },
    {
      "constant": true,
      "inputs": [],
      "name": "MIN_REMAINING_ORDER_RATIO",
      "outputs": [
        {
          "name": "",
          "type": "uint256"
        }
      ],
      "payable": false,
      "stateMutability": "view",
      "type": "function"
    },
    {
      "constant": true,
      "inputs": [
        {
          "name": "",
          "type": "address"
        }
      ],
      "name": "makerOrdersEthToToken",
      "outputs": [
        {
          "name": "firstOrderId",
          "type": "uint32"
        },
        {
          "name": "takenBitmap",
          "type": "uint256"
        }
      ],
      "payable": false,
      "stateMutability": "view",
      "type": "function"
    },
    {
      "constant": true,
      "inputs": [],
      "name": "MAX_USD_PER_ETH",
      "outputs": [
        {
          "name": "",
          "type": "uint256"
        }
      ],
      "payable": false,
      "stateMutability": "view",
      "type": "function"
    },
    {
      "constant": true,
      "inputs": [],
      "name": "tokenToEthList",
      "outputs": [
        {
          "name": "",
          "type": "address"
        }
      ],
      "payable": false,
      "stateMutability": "view",
      "type": "function"
    },
    {
      "constant": true,
      "inputs": [],
      "name": "contracts",
      "outputs": [
        {
          "name": "kncToken",
          "type": "address"
        },
        {
          "name": "token",
          "type": "address"
        },
        {
          "name": "feeBurner",
          "type": "address"
        },
        {
          "name": "kyberNetwork",
          "type": "address"
        },
        {
          "name": "medianizer",
          "type": "address"
        },
        {
          "name": "orderListFactory",
          "type": "address"
        }
      ],
      "payable": false,
      "stateMutability": "view",
      "type": "function"
    },
    {
      "constant": true,
      "inputs": [],
      "name": "MAX_BURN_FEE_BPS",
      "outputs": [
        {
          "name": "",
          "type": "uint256"
        }
      ],
      "payable": false,
      "stateMutability": "view",
      "type": "function"
    },
    {
      "constant": true,
      "inputs": [],
      "name": "limits",
      "outputs": [
        {
          "name": "minNewOrderSizeUsd",
          "type": "uint256"
        },
        {
          "name": "maxOrdersPerTrade",
          "type": "uint256"
        },
        {
          "name": "minNewOrderSizeWei",
          "type": "uint256"
        },
        {
          "name": "minOrderSizeWei",
          "type": "uint256"
        }
      ],
      "payable": false,
      "stateMutability": "view",
      "type": "function"
    },
    {
      "constant": true,
      "inputs": [],
      "name": "HEAD_ID",
      "outputs": [
        {
          "name": "",
          "type": "uint32"
        }
      ],
      "payable": false,
      "stateMutability": "view",
      "type": "function"
    },
    {
      "constant": true,
      "inputs": [
        {
          "name": "",
          "type": "address"
        }
      ],
      "name": "makerTotalOrdersWei",
      "outputs": [
        {
          "name": "",
          "type": "uint256"
        }
      ],
      "payable": false,
      "stateMutability": "view",
      "type": "function"
    },
    {
      "constant": true,
      "inputs": [
        {
          "name": "",
          "type": "address"
        },
        {
          "name": "",
          "type": "address"
        }
      ],
      "name": "makerFunds",
      "outputs": [
        {
          "name": "",
          "type": "uint256"
        }
      ],
      "payable": false,
      "stateMutability": "view",
      "type": "function"
    },
    {
      "constant": true,
      "inputs": [],
      "name": "makerBurnFeeBps",
      "outputs": [
        {
          "name": "",
          "type": "uint256"
        }
      ],
      "payable": false,
      "stateMutability": "view",
      "type": "function"
    },
    {
      "constant": true,
      "inputs": [],
      "name": "TAIL_ID",
      "outputs": [
        {
          "name": "",
          "type": "uint32"
        }
      ],
      "payable": false,
      "stateMutability": "view",
      "type": "function"
    },
    {
      "constant": true,
      "inputs": [
        {
          "name": "token",
          "type": "address"
        },
        {
          "name": "user",
          "type": "address"
        }
      ],
      "name": "getBalance",
      "outputs": [
        {
          "name": "",
          "type": "uint256"
        }
      ],
      "payable": false,
      "stateMutability": "view",
      "type": "function"
    },
    {
      "constant": true,
      "inputs": [],
      "name": "ethToTokenList",
      "outputs": [
        {
          "name": "",
          "type": "address"
        }
      ],
      "payable": false,
      "stateMutability": "view",
      "type": "function"
    },
    {
      "inputs": [
        {
          "name": "knc",
          "type": "address"
        },
        {
          "name": "reserveToken",
          "type": "address"
        },
        {
          "name": "burner",
          "type": "address"
        },
        {
          "name": "network",
          "type": "address"
        },
        {
          "name": "medianizer",
          "type": "address"
        },
        {
          "name": "factory",
          "type": "address"
        },
        {
          "name": "minNewOrderUsd",
          "type": "uint256"
        },
        {
          "name": "maxOrdersPerTrade",
          "type": "uint256"
        },
        {
          "name": "burnFeeBps",
          "type": "uint256"
        }
      ],
      "payable": false,
      "stateMutability": "nonpayable",
      "type": "constructor"
    },
    {
      "anonymous": false,
      "inputs": [
        {
          "indexed": false,
          "name": "srcToken",
          "type": "address"
        },
        {
          "indexed": false,
          "name": "dstToken",
          "type": "address"
        },
        {
          "indexed": false,
          "name": "srcAmount",
          "type": "uint256"
        },
        {
          "indexed": false,
          "name": "dstAmount",
          "type": "uint256"
        }
      ],
      "name": "OrderbookReserveTrade",
      "type": "event"
    },
    {
      "anonymous": false,
      "inputs": [
        {
          "indexed": true,
          "name": "maker",
          "type": "address"
        },
        {
          "indexed": false,
          "name": "amount",
          "type": "uint256"
        }
      ],
      "name": "TokenDeposited",
      "type": "event"
    },
    {
      "anonymous": false,
      "inputs": [
        {
          "indexed": true,
          "name": "maker",
          "type": "address"
        },
        {
          "indexed": false,
          "name": "amount",
          "type": "uint256"
        }
      ],
      "name": "EtherDeposited",
      "type": "event"
    },
    {
      "anonymous": false,
      "inputs": [
        {
          "indexed": true,
          "name": "maker",
          "type": "address"
        },
        {
          "indexed": false,
          "name": "amount",
          "type": "uint256"
        }
      ],
      "name": "KncFeeDeposited",
      "type": "event"
    },
    {
      "anonymous": false,
      "inputs": [
        {
          "indexed": true,
          "name": "maker",
          "type": "address"
        },
        {
          "indexed": false,
          "name": "orderId",
          "type": "uint32"
        },
        {
          "indexed": false,
          "name": "isEthToToken",
          "type": "bool"
        },
        {
          "indexed": false,
          "name": "srcAmount",
          "type": "uint128"
        },
        {
          "indexed": false,
          "name": "dstAmount",
          "type": "uint128"
        },
        {
          "indexed": false,
          "name": "addedWithHint",
          "type": "bool"
        }
      ],
      "name": "NewLimitOrder",
      "type": "event"
    },
    {
      "anonymous": false,
      "inputs": [
        {
          "indexed": true,
          "name": "maker",
          "type": "address"
        },
        {
          "indexed": false,
          "name": "isEthToToken",
          "type": "bool"
        },
        {
          "indexed": false,
          "name": "orderId",
          "type": "uint256"
        },
        {
          "indexed": false,
          "name": "srcAmount",
          "type": "uint128"
        },
        {
          "indexed": false,
          "name": "dstAmount",
          "type": "uint128"
        },
        {
          "indexed": false,
          "name": "updatedWithHint",
          "type": "bool"
        }
      ],
      "name": "OrderUpdated",
      "type": "event"
    },
    {
      "anonymous": false,
      "inputs": [
        {
          "indexed": true,
          "name": "maker",
          "type": "address"
        },
        {
          "indexed": false,
          "name": "isEthToToken",
          "type": "bool"
        },
        {
          "indexed": false,
          "name": "orderId",
          "type": "uint32"
        },
        {
          "indexed": false,
          "name": "srcAmount",
          "type": "uint128"
        },
        {
          "indexed": false,
          "name": "dstAmount",
          "type": "uint256"
        }
      ],
      "name": "OrderCanceled",
      "type": "event"
    },
    {
      "anonymous": false,
      "inputs": [
        {
          "indexed": false,
          "name": "maker",
          "type": "address"
        },
        {
          "indexed": false,
          "name": "orderId",
          "type": "uint32"
        },
        {
          "indexed": false,
          "name": "isEthToToken",
          "type": "bool"
        }
      ],
      "name": "FullOrderTaken",
      "type": "event"
    },
    {
      "anonymous": false,
      "inputs": [
        {
          "indexed": false,
          "name": "maker",
          "type": "address"
        },
        {
          "indexed": false,
          "name": "orderId",
          "type": "uint32"
        },
        {
          "indexed": false,
          "name": "isEthToToken",
          "type": "bool"
        },
        {
          "indexed": false,
          "name": "isRemoved",
          "type": "bool"
        }
      ],
      "name": "PartialOrderTaken",
      "type": "event"
    },
    {
      "constant": false,
      "inputs": [],
      "name": "init",
      "outputs": [
        {
          "name": "",
          "type": "bool"
        }
      ],
      "payable": false,
      "stateMutability": "nonpayable",
      "type": "function"
    },
    {
      "constant": false,
      "inputs": [],
      "name": "setKncPerEthBaseRate",
      "outputs": [],
      "payable": false,
      "stateMutability": "nonpayable",
      "type": "function"
    },
    {
      "constant": true,
      "inputs": [
        {
          "name": "src",
          "type": "address"
        },
        {
          "name": "dst",
          "type": "address"
        },
        {
          "name": "srcQty",
          "type": "uint256"
        },
        {
          "name": "blockNumber",
          "type": "uint256"
        }
      ],
      "name": "getConversionRate",
      "outputs": [
        {
          "name": "",
          "type": "uint256"
        }
      ],
      "payable": false,
      "stateMutability": "view",
      "type": "function"
    },
    {
      "constant": false,
      "inputs": [
        {
          "name": "srcToken",
          "type": "address"
        },
        {
          "name": "srcAmount",
          "type": "uint256"
        },
        {
          "name": "dstToken",
          "type": "address"
        },
        {
          "name": "dstAddress",
          "type": "address"
        },
        {
          "name": "conversionRate",
          "type": "uint256"
        },
        {
          "name": "validate",
          "type": "bool"
        }
      ],
      "name": "trade",
      "outputs": [
        {
          "name": "",
          "type": "bool"
        }
      ],
      "payable": true,
      "stateMutability": "payable",
      "type": "function"
    },
    {
      "constant": false,
      "inputs": [
        {
          "name": "srcAmount",
          "type": "uint128"
        },
        {
          "name": "dstAmount",
          "type": "uint128"
        }
      ],
      "name": "submitTokenToEthOrder",
      "outputs": [
        {
          "name": "",
          "type": "bool"
        }
      ],
      "payable": false,
      "stateMutability": "nonpayable",
      "type": "function"
    },
    {
      "constant": false,
      "inputs": [
        {
          "name": "srcAmount",
          "type": "uint128"
        },
        {
          "name": "dstAmount",
          "type": "uint128"
        },
        {
          "name": "hintPrevOrder",
          "type": "uint32"
        }
      ],
      "name": "submitTokenToEthOrderWHint",
      "outputs": [
        {
          "name": "",
          "type": "bool"
        }
      ],
      "payable": false,
      "stateMutability": "nonpayable",
      "type": "function"
    },
    {
      "constant": false,
      "inputs": [
        {
          "name": "srcAmount",
          "type": "uint128"
        },
        {
          "name": "dstAmount",
          "type": "uint128"
        }
      ],
      "name": "submitEthToTokenOrder",
      "outputs": [
        {
          "name": "",
          "type": "bool"
        }
      ],
      "payable": false,
      "stateMutability": "nonpayable",
      "type": "function"
    },
    {
      "constant": false,
      "inputs": [
        {
          "name": "srcAmount",
          "type": "uint128"
        },
        {
          "name": "dstAmount",
          "type": "uint128"
        },
        {
          "name": "hintPrevOrder",
          "type": "uint32"
        }
      ],
      "name": "submitEthToTokenOrderWHint",
      "outputs": [
        {
          "name": "",
          "type": "bool"
        }
      ],
      "payable": false,
      "stateMutability": "nonpayable",
      "type": "function"
    },
    {
      "constant": false,
      "inputs": [
        {
          "name": "isEthToToken",
          "type": "bool[]"
        },
        {
          "name": "srcAmount",
          "type": "uint128[]"
        },
        {
          "name": "dstAmount",
          "type": "uint128[]"
        },
        {
          "name": "hintPrevOrder",
          "type": "uint32[]"
        },
        {
          "name": "isAfterPrevOrder",
          "type": "bool[]"
        }
      ],
      "name": "addOrderBatch",
      "outputs": [
        {
          "name": "",
          "type": "bool"
        }
      ],
      "payable": false,
      "stateMutability": "nonpayable",
      "type": "function"
    },
    {
      "constant": false,
      "inputs": [
        {
          "name": "orderId",
          "type": "uint32"
        },
        {
          "name": "newSrcAmount",
          "type": "uint128"
        },
        {
          "name": "newDstAmount",
          "type": "uint128"
        }
      ],
      "name": "updateTokenToEthOrder",
      "outputs": [
        {
          "name": "",
          "type": "bool"
        }
      ],
      "payable": false,
      "stateMutability": "nonpayable",
      "type": "function"
    },
    {
      "constant": false,
      "inputs": [
        {
          "name": "orderId",
          "type": "uint32"
        },
        {
          "name": "newSrcAmount",
          "type": "uint128"
        },
        {
          "name": "newDstAmount",
          "type": "uint128"
        },
        {
          "name": "hintPrevOrder",
          "type": "uint32"
        }
      ],
      "name": "updateTokenToEthOrderWHint",
      "outputs": [
        {
          "name": "",
          "type": "bool"
        }
      ],
      "payable": false,
      "stateMutability": "nonpayable",
      "type": "function"
    },
    {
      "constant": false,
      "inputs": [
        {
          "name": "orderId",
          "type": "uint32"
        },
        {
          "name": "newSrcAmount",
          "type": "uint128"
        },
        {
          "name": "newDstAmount",
          "type": "uint128"
        }
      ],
      "name": "updateEthToTokenOrder",
      "outputs": [
        {
          "name": "",
          "type": "bool"
        }
      ],
      "payable": false,
      "stateMutability": "nonpayable",
      "type": "function"
    },
    {
      "constant": false,
      "inputs": [
        {
          "name": "orderId",
          "type": "uint32"
        },
        {
          "name": "newSrcAmount",
          "type": "uint128"
        },
        {
          "name": "newDstAmount",
          "type": "uint128"
        },
        {
          "name": "hintPrevOrder",
          "type": "uint32"
        }
      ],
      "name": "updateEthToTokenOrderWHint",
      "outputs": [
        {
          "name": "",
          "type": "bool"
        }
      ],
      "payable": false,
      "stateMutability": "nonpayable",
      "type": "function"
    },
    {
      "constant": false,
      "inputs": [
        {
          "name": "isEthToToken",
          "type": "bool[]"
        },
        {
          "name": "orderId",
          "type": "uint32[]"
        },
        {
          "name": "newSrcAmount",
          "type": "uint128[]"
        },
        {
          "name": "newDstAmount",
          "type": "uint128[]"
        },
        {
          "name": "hintPrevOrder",
          "type": "uint32[]"
        }
      ],
      "name": "updateOrderBatch",
      "outputs": [
        {
          "name": "",
          "type": "bool"
        }
      ],
      "payable": false,
      "stateMutability": "nonpayable",
      "type": "function"
    },
    {
      "constant": false,
      "inputs": [
        {
          "name": "maker",
          "type": "address"
        },
        {
          "name": "amount",
          "type": "uint256"
        }
      ],
      "name": "depositToken",
      "outputs": [],
      "payable": false,
      "stateMutability": "nonpayable",
      "type": "function"
    },
    {
      "constant": false,
      "inputs": [
        {
          "name": "maker",
          "type": "address"
        }
      ],
      "name": "depositEther",
      "outputs": [],
      "payable": true,
      "stateMutability": "payable",
      "type": "function"
    },
    {
      "constant": false,
      "inputs": [
        {
          "name": "maker",
          "type": "address"
        },
        {
          "name": "amount",
          "type": "uint256"
        }
      ],
      "name": "depositKncForFee",
      "outputs": [],
      "payable": false,
      "stateMutability": "nonpayable",
      "type": "function"
    },
    {
      "constant": false,
      "inputs": [
        {
          "name": "amount",
          "type": "uint256"
        }
      ],
      "name": "withdrawToken",
      "outputs": [],
      "payable": false,
      "stateMutability": "nonpayable",
      "type": "function"
    },
    {
      "constant": false,
      "inputs": [
        {
          "name": "amount",
          "type": "uint256"
        }
      ],
      "name": "withdrawEther",
      "outputs": [],
      "payable": false,
      "stateMutability": "nonpayable",
      "type": "function"
    },
    {
      "constant": false,
      "inputs": [
        {
          "name": "amount",
          "type": "uint256"
        }
      ],
      "name": "withdrawKncFee",
      "outputs": [],
      "payable": false,
      "stateMutability": "nonpayable",
      "type": "function"
    },
    {
      "constant": false,
      "inputs": [
        {
          "name": "orderId",
          "type": "uint32"
        }
      ],
      "name": "cancelTokenToEthOrder",
      "outputs": [
        {
          "name": "",
          "type": "bool"
        }
      ],
      "payable": false,
      "stateMutability": "nonpayable",
      "type": "function"
    },
    {
      "constant": false,
      "inputs": [
        {
          "name": "orderId",
          "type": "uint32"
        }
      ],
      "name": "cancelEthToTokenOrder",
      "outputs": [
        {
          "name": "",
          "type": "bool"
        }
      ],
      "payable": false,
      "stateMutability": "nonpayable",
      "type": "function"
    },
    {
      "constant": false,
      "inputs": [],
      "name": "setMinOrderSizeEth",
      "outputs": [
        {
          "name": "",
          "type": "bool"
        }
      ],
      "payable": false,
      "stateMutability": "nonpayable",
      "type": "function"
    },
    {
      "constant": true,
      "inputs": [],
      "name": "kncRateBlocksTrade",
      "outputs": [
        {
          "name": "",
          "type": "bool"
        }
      ],
      "payable": false,
      "stateMutability": "view",
      "type": "function"
    },
    {
      "constant": true,
      "inputs": [
        {
          "name": "srcAmount",
          "type": "uint128"
        },
        {
          "name": "dstAmount",
          "type": "uint128"
        }
      ],
      "name": "getTokenToEthAddOrderHint",
      "outputs": [
        {
          "name": "",
          "type": "uint32"
        }
      ],
      "payable": false,
      "stateMutability": "view",
      "type": "function"
    },
    {
      "constant": true,
      "inputs": [
        {
          "name": "srcAmount",
          "type": "uint128"
        },
        {
          "name": "dstAmount",
          "type": "uint128"
        }
      ],
      "name": "getEthToTokenAddOrderHint",
      "outputs": [
        {
          "name": "",
          "type": "uint32"
        }
      ],
      "payable": false,
      "stateMutability": "view",
      "type": "function"
    },
    {
      "constant": true,
      "inputs": [
        {
          "name": "orderId",
          "type": "uint32"
        },
        {
          "name": "srcAmount",
          "type": "uint128"
        },
        {
          "name": "dstAmount",
          "type": "uint128"
        }
      ],
      "name": "getTokenToEthUpdateOrderHint",
      "outputs": [
        {
          "name": "",
          "type": "uint32"
        }
      ],
      "payable": false,
      "stateMutability": "view",
      "type": "function"
    },
    {
      "constant": true,
      "inputs": [
        {
          "name": "orderId",
          "type": "uint32"
        },
        {
          "name": "srcAmount",
          "type": "uint128"
        },
        {
          "name": "dstAmount",
          "type": "uint128"
        }
      ],
      "name": "getEthToTokenUpdateOrderHint",
      "outputs": [
        {
          "name": "",
          "type": "uint32"
        }
      ],
      "payable": false,
      "stateMutability": "view",
      "type": "function"
    },
    {
      "constant": true,
      "inputs": [
        {
          "name": "orderId",
          "type": "uint32"
        }
      ],
      "name": "getTokenToEthOrder",
      "outputs": [
        {
          "name": "_maker",
          "type": "address"
        },
        {
          "name": "_srcAmount",
          "type": "uint128"
        },
        {
          "name": "_dstAmount",
          "type": "uint128"
        },
        {
          "name": "_prevId",
          "type": "uint32"
        },
        {
          "name": "_nextId",
          "type": "uint32"
        }
      ],
      "payable": false,
      "stateMutability": "view",
      "type": "function"
    },
    {
      "constant": true,
      "inputs": [
        {
          "name": "orderId",
          "type": "uint32"
        }
      ],
      "name": "getEthToTokenOrder",
      "outputs": [
        {
          "name": "_maker",
          "type": "address"
        },
        {
          "name": "_srcAmount",
          "type": "uint128"
        },
        {
          "name": "_dstAmount",
          "type": "uint128"
        },
        {
          "name": "_prevId",
          "type": "uint32"
        },
        {
          "name": "_nextId",
          "type": "uint32"
        }
      ],
      "payable": false,
      "stateMutability": "view",
      "type": "function"
    },
    {
      "constant": true,
      "inputs": [
        {
          "name": "maker",
          "type": "address"
        }
      ],
      "name": "makerRequiredKncStake",
      "outputs": [
        {
          "name": "",
          "type": "uint256"
        }
      ],
      "payable": false,
      "stateMutability": "view",
      "type": "function"
    },
    {
      "constant": true,
      "inputs": [
        {
          "name": "maker",
          "type": "address"
        }
      ],
      "name": "makerUnlockedKnc",
      "outputs": [
        {
          "name": "",
          "type": "uint256"
        }
      ],
      "payable": false,
      "stateMutability": "view",
      "type": "function"
    },
    {
      "constant": true,
      "inputs": [
        {
          "name": "weiAmount",
          "type": "uint256"
        }
      ],
      "name": "calcKncStake",
      "outputs": [
        {
          "name": "",
          "type": "uint256"
        }
      ],
      "payable": false,
      "stateMutability": "view",
      "type": "function"
    },
    {
      "constant": true,
      "inputs": [
        {
          "name": "weiAmount",
          "type": "uint256"
        }
      ],
      "name": "calcBurnAmount",
      "outputs": [
        {
          "name": "",
          "type": "uint256"
        }
      ],
      "payable": false,
      "stateMutability": "view",
      "type": "function"
    },
    {
      "constant": true,
      "inputs": [
        {
          "name": "weiAmount",
          "type": "uint256"
        }
      ],
      "name": "calcBurnAmountFromFeeBurner",
      "outputs": [
        {
          "name": "",
          "type": "uint256"
        }
      ],
      "payable": false,
      "stateMutability": "view",
      "type": "function"
    },
    {
      "constant": true,
      "inputs": [
        {
          "name": "maker",
          "type": "address"
        }
      ],
      "name": "getEthToTokenMakerOrderIds",
      "outputs": [
        {
          "name": "orderList",
          "type": "uint32[]"
        }
      ],
      "payable": false,
      "stateMutability": "view",
      "type": "function"
    },
    {
      "constant": true,
      "inputs": [
        {
          "name": "maker",
          "type": "address"
        }
      ],
      "name": "getTokenToEthMakerOrderIds",
      "outputs": [
        {
          "name": "orderList",
          "type": "uint32[]"
        }
      ],
      "payable": false,
      "stateMutability": "view",
      "type": "function"
    },
    {
      "constant": true,
      "inputs": [],
      "name": "getEthToTokenOrderList",
      "outputs": [
        {
          "name": "orderList",
          "type": "uint32[]"
        }
      ],
      "payable": false,
      "stateMutability": "view",
      "type": "function"
    },
    {
      "constant": true,
      "inputs": [],
      "name": "getTokenToEthOrderList",
      "outputs": [
        {
          "name": "orderList",
          "type": "uint32[]"
        }
      ],
      "payable": false,
      "stateMutability": "view",
      "type": "function"
    }
  ],
  "bytecode": "0x60806040523480156200001157600080fd5b506040516101208062004a5b83398101604090815281516020830151918301516060840151608085015160a086015160c087015160e088015161010090980151959794959394929391929091600160a060020a03891615156200007357600080fd5b600160a060020a03881615156200008957600080fd5b600160a060020a03871615156200009f57600080fd5b600160a060020a0386161515620000b557600080fd5b600160a060020a0385161515620000cb57600080fd5b600160a060020a0384161515620000e157600080fd5b801515620000ee57600080fd5b6064811115620000fd57600080fd5b8115156200010a57600080fd5b600083116200011857600080fd5b60098054600160a060020a0319908116600160a060020a03898116919091179092556008805482168a8416179055600a80548216888416179055600b805482168784161790556006805482168c841617905560078054909116918a169190911790556011819055600283905560038290556200019c64010000000062000336810204565b1515620001a857600080fd5b600654600854604080517f095ea7b3000000000000000000000000000000000000000000000000000000008152600160a060020a0392831660048201527f800000000000000000000000000000000000000000000000000000000000000060248201529051919092169163095ea7b39160448083019260209291908290030181600087803b1580156200023a57600080fd5b505af11580156200024f573d6000803e3d6000fd5b505050506040513d60208110156200026657600080fd5b505115156200027457600080fd5b6007546200029490600160a060020a031664010000000062000443810204565b600854604080517f301254160000000000000000000000000000000000000000000000000000000081529051600160a060020a03909216916330125416916004808201926020929091908290030181600087803b158015620002f557600080fd5b505af11580156200030a573d6000803e3d6000fd5b505050506040513d60208110156200032157600080fd5b50516001555062000534975050505050505050565b600a54604080517f59e02dd700000000000000000000000000000000000000000000000000000000815281516000938493849384938493600160a060020a0316926359e02dd7926004818101939182900301818787803b1580156200039a57600080fd5b505af1158015620003af573d6000803e3d6000fd5b505050506040513d6040811015620003c657600080fd5b5080516020909101519094509250821515620003e157600080fd5b670de0b6b3a764000084049150811515620003fb57600080fd5b620186a082106200040b57600080fd5b60025484906ec097ce7bc90715b34b9f1000000000028115156200042b57fe5b04600481905560029004600555506001949350505050565b600160a060020a03811673eeeeeeeeeeeeeeeeeeeeeeeeeeeeeeeeeeeeeeee14156200048b57600160a060020a03811660009081526020819052604090206012905562000531565b80600160a060020a031663313ce5676040518163ffffffff167c0100000000000000000000000000000000000000000000000000000000028152600401602060405180830381600087803b158015620004e357600080fd5b505af1158015620004f8573d6000803e3d6000fd5b505050506040513d60208110156200050f57600080fd5b5051600160a060020a038216600090815260208190526040902060ff90911690555b50565b61451780620005446000396000f30060806040526004361061029a5763ffffffff60e060020a60003504166304068ae2811461029f57806314fd6da0146102c6578063269fe82e1461030a5780632ac1db5a146103225780632b4d53031461036b57806330cbb66f1461038c578063338b5dea146103cd5780633b443e3b146103f35780633bed33ce14610408578063411273d81461042057806344909b741461044757806350baa6221461045c57806350d91deb1461047457806352802121146105ad578063541e15b6146105c157806357df82e0146105d65780635cd36325146105f75780635e310670146106305780635ff468571461064e57806362bb7533146106bf57806362c5aecc146106d4578063685e7fc2146106fb578063690d986b146107105780636c0f79b6146107415780636c3aacf9146107995780636cf6981114610801578063744fa2c81461082d57806374d88c50146108545780637a03b6241461087b5780637cd44272146108905780637f18b569146108bd5780638108592c146108d257806384d062b4146108ea578063853717bb1461091a578063860aefcf146109325780638b7d6b051461096d5780638fb2fbe11461098e57806390f3dd33146109be57806392418cf6146109f7578063971e668f14610a0f5780639d0d647314610a3f5780639ebbf23114610a6f5780639f7ba82814610a84578063a9055b8114610aa5578063abdde3d114610ac6578063b7b2c52514610ae4578063ba6b0fa014610af9578063bc1f71e114610b1a578063c01a3cd214610b3e578063c444214a14610b65578063d11dfdec14610b7a578063d4fac45d14610b8f578063e1c7392a14610bb6578063e934853214610bcb578063f2e9135014610be0578063f67e8db214610d19578063f719254d14610d2e578063fe459fdf14610d4c575b600080fd5b3480156102ab57600080fd5b506102b4610d61565b60408051918252519081900360200190f35b3480156102d257600080fd5b506102f66001608060020a036004358116906024351663ffffffff60443516610d66565b604080519115158252519081900360200190f35b34801561031657600080fd5b506102b4600435610d9b565b34801561032e57600080fd5b5061035263ffffffff600435166001608060020a0360243581169060443516610e4d565b6040805163ffffffff9092168252519081900360200190f35b34801561037757600080fd5b506102b4600160a060020a0360043516610fbb565b34801561039857600080fd5b506103ad600160a060020a0360043516610fcd565b6040805163ffffffff909316835260208301919091528051918290030190f35b3480156103d957600080fd5b506103f1600160a060020a0360043516602435610fef565b005b3480156103ff57600080fd5b506102b461112f565b34801561041457600080fd5b506103f1600435611135565b34801561042c57600080fd5b506103526001608060020a03600435811690602435166111d2565b34801561045357600080fd5b506102b4611283565b34801561046857600080fd5b506103f1600435611288565b34801561048057600080fd5b50604080516020600480358082013583810280860185019096528085526102f695369593946024949385019291829185019084908082843750506040805187358901803560208181028481018201909552818452989b9a998901989297509082019550935083925085019084908082843750506040805187358901803560208181028481018201909552818452989b9a998901989297509082019550935083925085019084908082843750506040805187358901803560208181028481018201909552818452989b9a998901989297509082019550935083925085019084908082843750506040805187358901803560208181028481018201909552818452989b9a9989019892975090820195509350839250850190849080828437509497506113859650505050505050565b6103f1600160a060020a03600435166114e8565b3480156105cd57600080fd5b506102b461156c565b3480156105e257600080fd5b506103ad600160a060020a0360043516611571565b34801561060357600080fd5b506102f663ffffffff6004358116906001608060020a036024358116916044359091169060643516611593565b34801561063c57600080fd5b506102f663ffffffff600435166115ba565b34801561065a57600080fd5b5061066f600160a060020a03600435166115da565b60408051602080825283518183015283519192839290830191858101910280838360005b838110156106ab578181015183820152602001610693565b505050509050019250505060405180910390f35b3480156106cb57600080fd5b5061066f6116a2565b3480156106e057600080fd5b506103526001608060020a03600435811690602435166116c0565b34801561070757600080fd5b506102b461173c565b34801561071c57600080fd5b50610725611743565b60408051600160a060020a039092168252519081900360200190f35b34801561074d57600080fd5b50610756611752565b60408051600160a060020a03978816815295871660208701529386168585015291851660608501528416608084015290921660a082015290519081900360c00190f35b3480156107a557600080fd5b506107b763ffffffff60043516611784565b60408051600160a060020a0390961686526001608060020a039485166020870152929093168483015263ffffffff9081166060850152919091166080830152519081900360a00190f35b6102f6600160a060020a03600435811690602435906044358116906064351660843560a4351515611837565b34801561083957600080fd5b506102f66001608060020a0360043581169060243516611b4f565b34801561086057600080fd5b506102f66001608060020a0360043581169060243516611b64565b34801561088757600080fd5b506102b4611b72565b34801561089c57600080fd5b506102b4600160a060020a0360043581169060243516604435606435611b77565b3480156108c957600080fd5b506103f1611dfa565b3480156108de57600080fd5b506102b4600435611e9b565b3480156108f657600080fd5b506102f663ffffffff600435166001608060020a0360243581169060443516611eaf565b34801561092657600080fd5b506102b4600435611ebe565b34801561093e57600080fd5b50610947611edb565b604080519485526020850193909352838301919091526060830152519081900360800190f35b34801561097957600080fd5b506102b4600160a060020a0360043516611eea565b34801561099a57600080fd5b5061035263ffffffff600435166001608060020a0360243581169060443516611f47565b3480156109ca57600080fd5b506102f663ffffffff6004358116906001608060020a036024358116916044359091169060643516612061565b348015610a0357600080fd5b506103f1600435612071565b348015610a1b57600080fd5b506102f663ffffffff600435166001608060020a036024358116906044351661215f565b348015610a4b57600080fd5b506102f66001608060020a036004358116906024351663ffffffff60443516612183565b348015610a7b57600080fd5b506102f66121ad565b348015610a9057600080fd5b5061066f600160a060020a03600435166122b3565b348015610ab157600080fd5b506102b4600160a060020a0360043516612373565b348015610ad257600080fd5b506107b763ffffffff60043516612395565b348015610af057600080fd5b5061035261156c565b348015610b0557600080fd5b506102b4600160a060020a03600435166123f5565b348015610b2657600080fd5b506103f1600160a060020a0360043516602435612407565b348015610b4a57600080fd5b506102b4600160a060020a03600435811690602435166126be565b348015610b7157600080fd5b506102b46126db565b348015610b8657600080fd5b506103526126e1565b348015610b9b57600080fd5b506102b4600160a060020a03600435811690602435166126e6565b348015610bc257600080fd5b506102f66127a6565b348015610bd757600080fd5b506102f661297f565b348015610bec57600080fd5b50604080516020600480358082013583810280860185019096528085526102f695369593946024949385019291829185019084908082843750506040805187358901803560208181028481018201909552818452989b9a998901989297509082019550935083925085019084908082843750506040805187358901803560208181028481018201909552818452989b9a998901989297509082019550935083925085019084908082843750506040805187358901803560208181028481018201909552818452989b9a998901989297509082019550935083925085019084908082843750506040805187358901803560208181028481018201909552818452989b9a998901989297509082019550935083925085019084908082843750949750612a179650505050505050565b348015610d2557600080fd5b5061066f612b01565b348015610d3a57600080fd5b506102f663ffffffff60043516612b19565b348015610d5857600080fd5b50610725612b26565b602081565b3360009081526013602052604081208190610d8090612b35565b9050610d90600182878787612b7a565b91505b509392505050565b600854604080517f30125416000000000000000000000000000000000000000000000000000000008152905160009269021e19e0c9bab240000092600160a060020a039091169163301254169160048082019260209290919082900301818887803b158015610e0957600080fd5b505af1158015610e1d573d6000803e3d6000fd5b505050506040513d6020811015610e3357600080fd5b5051601154840202811515610e4457fe5b0490505b919050565b60008060008060006002800154876001608060020a031610151515610e7157600080fd5b600d546040805160e360020a6310bf96950281526001608060020a03808b166004830152891660248201529051600160a060020a03909216916385fcb4a8916044808201926020929091908290030181600087803b158015610ed257600080fd5b505af1158015610ee6573d6000803e3d6000fd5b505050506040513d6020811015610efc57600080fd5b5051935063ffffffff8085169089161415610faf57600d546040805160e060020a6361592b8502815263ffffffff8b1660048201529051600160a060020a03909216916361592b859160248082019260a0929091908290030181600087803b158015610f6757600080fd5b505af1158015610f7b573d6000803e3d6000fd5b505050506040513d60a0811015610f9157600080fd5b50805160208201516060830151608090930151929650909450925090505b50919695505050505050565b600f6020526000908152604090205481565b6012602052600090815260409020805460019091015463ffffffff9091169082565b600160a060020a038216151561100457600080fd5b6b204fce5e3e25026110000000811061101c57600080fd5b600754604080517f23b872dd000000000000000000000000000000000000000000000000000000008152336004820152306024820152604481018490529051600160a060020a03909216916323b872dd916064808201926020929091908290030181600087803b15801561108f57600080fd5b505af11580156110a3573d6000803e3d6000fd5b505050506040513d60208110156110b957600080fd5b505115156110c657600080fd5b600160a060020a038083166000818152600e602090815260408083206007549095168352938152908390208054850190558251848152925191927fbc7c8a4d8049a3f99a02f2a20640c206a2e4d3f2fa54fd20da9f01fda3620cda929081900390910190a25050565b60015481565b336000818152600e602090815260408083206000805160206144cc83398151915284529091529020548281101561116b57600080fd5b600160a060020a0382166000818152600e602090815260408083206000805160206144cc8339815191528452909152808220805487900390555185156108fc0291869190818181858888f193505050501580156111cc573d6000803e3d6000fd5b50505050565b6004546000906001608060020a03831610156111ed57600080fd5b600c546040805160e360020a6310bf96950281526001608060020a038087166004830152851660248201529051600160a060020a03909216916385fcb4a8916044808201926020929091908290030181600087803b15801561124e57600080fd5b505af1158015611262573d6000803e3d6000fd5b505050506040513d602081101561127857600080fd5b505190505b92915050565b600581565b336000818152600e60209081526040808320600754600160a060020a03168452909152902054828110156112bb57600080fd5b600160a060020a038083166000818152600e60209081526040808320600780548716855290835281842080548a900390555481517fa9059cbb000000000000000000000000000000000000000000000000000000008152600481019590955260248501899052905194169363a9059cbb93604480820194918390030190829087803b15801561134957600080fd5b505af115801561135d573d6000803e3d6000fd5b505050506040513d602081101561137357600080fd5b5051151561138057600080fd5b505050565b600080600080600086518a5114151561139d57600080fd5b87518a51146113ab57600080fd5b88518a51146113b957600080fd5b85518a51146113c757600080fd5b5033925060009050805b89518110156114d85785818151811015156113e857fe5b9060200190602002015161141357868181518110151561140457fe5b90602001906020020151611415565b815b92506114718a8281518110151561142857fe5b9060200190602002015161145357600160a060020a038516600090815260126020526040902061146c565b600160a060020a03851660009081526013602052604090205b612b35565b91506114c58a8281518110151561148457fe5b90602001906020020151838b8481518110151561149d57fe5b906020019060200201518b858151811015156114b557fe5b9060200190602002015187612b7a565b15156114d057600080fd5b6001016113d1565b5060019998505050505050505050565b600160a060020a03811615156114fd57600080fd5b600160a060020a0381166000818152600e602090815260408083206000805160206144cc8339815191528452825291829020805434908101909155825190815291517f939e51ac2fd009b158d6344f7e68a83d8d18d9b0cc88cf514aac6aaa9cad2a189281900390910190a250565b600281565b6013602052600090815260409020805460019091015463ffffffff9091169082565b60006115a3600186868686612e37565b15156115ae57600080fd5b5060015b949350505050565b60006115c76000836131a3565b15156115d257600080fd5b506001919050565b600160a060020a0381166000908152601360205260408120606091806115ff83613361565b604051908082528060200260200182016040528015611628578160200160208202803883390190505b50935060009150600090505b60208163ffffffff16101561169a5760008163ffffffff1660019060020a0284600101541611156116925782548451600184019363ffffffff9092168301918691811061167d57fe5b63ffffffff9092166020928302909101909101525b600101611634565b505050919050565b600c54606090600160a060020a03166116ba81613393565b91505090565b6004546000906001608060020a03841610156116db57600080fd5b600d546040805160e360020a6310bf96950281526001608060020a038087166004830152851660248201529051600160a060020a03909216916385fcb4a8916044808201926020929091908290030181600087803b15801561124e57600080fd5b620186a081565b600c54600160a060020a031681565b600654600754600854600954600a54600b54600160a060020a0395861695948516949384169392831692918216911686565b600c546040805160e060020a6361592b8502815263ffffffff8416600482015290516000928392839283928392600160a060020a03909116916361592b859160248082019260a09290919082900301818787803b1580156117e457600080fd5b505af11580156117f8573d6000803e3d6000fd5b505050506040513d60a081101561180e57600080fd5b508051602082015160408301516060840151608090940151929a91995097509195509350915050565b6009546000908190600160a060020a0316331461185357600080fd5b600160a060020a0388166000805160206144cc833981519152148061188e5750600160a060020a0386166000805160206144cc833981519152145b151561189957600080fd5b600754600160a060020a03898116911614806118c25750600754600160a060020a038781169116145b15156118cd57600080fd5b6b204fce5e3e250261100000008711156118e657600080fd5b600160a060020a0388166000805160206144cc83398151915214156119165734871461191157600080fd5b6119c6565b341561192157600080fd5b604080517f23b872dd000000000000000000000000000000000000000000000000000000008152336004820152306024820152604481018990529051600160a060020a038a16916323b872dd9160648083019260209291908290030181600087803b15801561198f57600080fd5b505af11580156119a3573d6000803e3d6000fd5b505050506040513d60208110156119b957600080fd5b505115156119c657600080fd5b6119d188888861355f565b90506119ef87826119e18b613761565b6119ea8a613761565b613821565b8411156119fb57600080fd5b600160a060020a0386166000805160206144cc8339815191521415611a5657604051600160a060020a0386169082156108fc029083906000818181858888f19350505050158015611a50573d6000803e3d6000fd5b50611af0565b85600160a060020a031663a9059cbb86836040518363ffffffff1660e060020a0281526004018083600160a060020a0316600160a060020a0316815260200182815260200192505050602060405180830381600087803b158015611ab957600080fd5b505af1158015611acd573d6000803e3d6000fd5b505050506040513d6020811015611ae357600080fd5b50511515611af057600080fd5b60408051600160a060020a03808b168252881660208201528082018990526060810183905290517f36cfc7e9779b5ccf22f92f2f0d9adf9c74df05ab07de27c8cb508020389f9adc9181900360800190a1506001979650505050505050565b6000611b5d83836000612183565b9392505050565b6000611b5d83836000610d66565b606481565b6000806000611b8461449d565b60008080600160a060020a038b166000805160206144cc8339815191521480611bc35750600160a060020a038a166000805160206144cc833981519152145b1515611bce57600080fd5b600754600160a060020a038c811691161480611bf75750600754600160a060020a038b81169116145b1515611c0257600080fd5b6b204fce5e3e25026110000000891115611c1b57600080fd5b611c2361297f565b15611c315760009650611dec565b600160a060020a038b166000805160206144cc83398151915214611c6057600d54600160a060020a0316611c6d565b600c54600160a060020a03165b955088925060009150600260010154905085600160a060020a031663a3fb59176040518163ffffffff1660e060020a0281526004016040805180830381600087803b158015611cbb57600080fd5b505af1158015611ccf573d6000803e3d6000fd5b505050506040513d6040811015611ce557600080fd5b5080516020909101511515604086015294505b6000836001608060020a0316118015611d1357508360400151155b8015611d2457506000198101906000105b15611db157611d3386866139e8565b9350826001608060020a031684608001516001608060020a0316111515611d6b57836060015182019150836080015183039250611da5565b83608001516001608060020a0316836001608060020a031685606001516001608060020a031602811515611d9b57fe5b0482019150600092505b83602001519450611cf8565b6001608060020a03831615611dc95760009650611dec565b611de989836001608060020a0316611de08e613761565b6119ea8e613761565b96505b505050505050949350505050565b600854604080517f301254160000000000000000000000000000000000000000000000000000000081529051600092600160a060020a031691633012541691600480830192602092919082900301818787803b158015611e5957600080fd5b505af1158015611e6d573d6000803e3d6000fd5b505050506040513d6020811015611e8357600080fd5b5051600154909150811015611e985760018190555b50565b60006005611ea883611ebe565b0292915050565b60006115b28484846000611593565b60015460115460009169021e19e0c9bab240000091840202610e44565b60025460035460045460055484565b600080611ef683612373565b600160a060020a0384166000908152600f6020526040902054909150811115611f225760009150611f41565b600160a060020a0383166000908152600f602052604090205481900391505b50919050565b60008060008060006002800154866001608060020a031610151515611f6b57600080fd5b600c546040805160e360020a6310bf96950281526001608060020a03808b166004830152891660248201529051600160a060020a03909216916385fcb4a8916044808201926020929091908290030181600087803b158015611fcc57600080fd5b505af1158015611fe0573d6000803e3d6000fd5b505050506040513d6020811015611ff657600080fd5b5051935063ffffffff8085169089161415610faf57600c546040805160e060020a6361592b8502815263ffffffff8b1660048201529051600160a060020a03909216916361592b859160248082019260a0929091908290030181600087803b158015610f6757600080fd5b60006115a3600086868686612e37565b336000818152600f602052604090205482111561208d57600080fd5b8161209782611eea565b10156120a257600080fd5b600160a060020a038082166000818152600f602090815260408083208054889003905560065481517fa9059cbb000000000000000000000000000000000000000000000000000000008152600481019590955260248501889052905194169363a9059cbb93604480820194918390030190829087803b15801561212457600080fd5b505af1158015612138573d6000803e3d6000fd5b505050506040513d602081101561214e57600080fd5b5051151561215b57600080fd5b5050565b600061216e8484846000612061565b151561217957600080fd5b5060019392505050565b336000908152601260205260408120819061219d90612b35565b9050610d90600082878787612b7a565b600a54604080517f59e02dd700000000000000000000000000000000000000000000000000000000815281516000938493849384938493600160a060020a0316926359e02dd7926004818101939182900301818787803b15801561221057600080fd5b505af1158015612224573d6000803e3d6000fd5b505050506040513d604081101561223a57600080fd5b508051602090910151909450925082151561225457600080fd5b670de0b6b3a76400008404915081151561226d57600080fd5b620186a0821061227c57600080fd5b60025484906ec097ce7bc90715b34b9f10000000000281151561229b57fe5b04600481905560029004600555506001949350505050565b600160a060020a0381166000908152601260205260408120606091806122d883613361565b604051908082528060200260200182016040528015612301578160200160208202803883390190505b50935060009150600090505b60208163ffffffff16101561169a5760008163ffffffff1660019060020a02846001015416111561236b5782548451600184019363ffffffff9092168301918691811061235657fe5b63ffffffff9092166020928302909101909101525b60010161230d565b600160a060020a03811660009081526010602052604081205461127d90611e9b565b600d546040805160e060020a6361592b8502815263ffffffff8416600482015290516000928392839283928392600160a060020a03909116916361592b859160248082019260a09290919082900301818787803b1580156117e457600080fd5b60106020526000908152604090205481565b600160a060020a038216151561241c57600080fd5b6b204fce5e3e25026110000000811061243457600080fd5b600654604080517f23b872dd000000000000000000000000000000000000000000000000000000008152336004820152306024820152604481018490529051600160a060020a03909216916323b872dd916064808201926020929091908290030181600087803b1580156124a757600080fd5b505af11580156124bb573d6000803e3d6000fd5b505050506040513d60208110156124d157600080fd5b505115156124de57600080fd5b600160a060020a0382166000818152600f6020908152604091829020805485019055815184815291517f7616f7b36d352f805882b5e6af4b72e6d1f325e5d73feef17ba9f064468498769281900390910190a2600160a060020a038216600090815260126020526040902061255290613ac6565b1561261057600160a060020a038083166000908152601260209081526040808320600c5482517f1f38c3580000000000000000000000000000000000000000000000000000000081526004810185905292516126059692959190921693631f38c358936024808201949293918390030190829087803b1580156125d457600080fd5b505af11580156125e8573d6000803e3d6000fd5b505050506040513d60208110156125fe57600080fd5b5051613ae7565b151561261057600080fd5b600160a060020a038216600090815260136020526040902061263190613ac6565b1561215b57600160a060020a038083166000908152601360209081526040808320600d5482517f1f38c3580000000000000000000000000000000000000000000000000000000081526004810185905292516126b39692959190921693631f38c358936024808201949293918390030190829087803b1580156125d457600080fd5b151561215b57600080fd5b600e60209081526000928352604080842090915290825290205481565b60115481565b600181565b6000600160a060020a0383166000805160206144cc83398151915214156127185750600160a060020a0381163161127d565b82600160a060020a03166370a08231836040518263ffffffff1660e060020a0281526004018082600160a060020a0316600160a060020a03168152602001915050602060405180830381600087803b15801561277357600080fd5b505af1158015612787573d6000803e3d6000fd5b505050506040513d602081101561279d57600080fd5b5051905061127d565b600c54600090600160a060020a0316158015906127cd5750600d54600160a060020a031615155b156127da5750600161297c565b600c54600160a060020a03161515806127fd5750600d54600160a060020a031615155b1561280757600080fd5b600b54604080517ffccf6e670000000000000000000000000000000000000000000000000000000081523060048201529051600160a060020a039092169163fccf6e67916024808201926020929091908290030181600087803b15801561286d57600080fd5b505af1158015612881573d6000803e3d6000fd5b505050506040513d602081101561289757600080fd5b5051600c805473ffffffffffffffffffffffffffffffffffffffff1916600160a060020a03928316179055600b54604080517ffccf6e670000000000000000000000000000000000000000000000000000000081523060048201529051919092169163fccf6e679160248083019260209291908290030181600087803b15801561292057600080fd5b505af1158015612934573d6000803e3d6000fd5b505050506040513d602081101561294a57600080fd5b5051600d805473ffffffffffffffffffffffffffffffffffffffff1916600160a060020a039092169190911790555060015b90565b600154600854604080517f30125416000000000000000000000000000000000000000000000000000000008152905160009360050292600160a060020a031691633012541691600480830192602092919082900301818887803b1580156129e557600080fd5b505af11580156129f9573d6000803e3d6000fd5b505050506040513d6020811015612a0f57600080fd5b505111905090565b60008085518751141515612a2a57600080fd5b8451875114612a3857600080fd5b8351875114612a4657600080fd5b8251875114612a5457600080fd5b5060005b8651811015612af457612ae18782815181101515612a7257fe5b906020019060200201518783815181101515612a8a57fe5b906020019060200201518784815181101515612aa257fe5b906020019060200201518785815181101515612aba57fe5b906020019060200201518786815181101515612ad257fe5b90602001906020020151612e37565b1515612aec57600080fd5b600101612a58565b5060019695505050505050565b600d54606090600160a060020a03166116ba81613393565b60006115c76001836131a3565b600d54600160a060020a031681565b600180820154600091825b602081101561029a578282161515612b6b578282176001860155845463ffffffff168101935061169a565b60029190910290600101612b40565b60008080806b204fce5e3e250261100000006001608060020a03881610612ba057600080fd5b6b204fce5e3e250261100000006001608060020a03871610612bc157600080fd5b339250612bd0838a8989613b22565b1515612bdb57600080fd5b612bf8876001608060020a0316876001608060020a03168b613b8f565b1515612c0357600080fd5b6000915088612c1d57600c54600160a060020a0316612c2a565b600d54600160a060020a03165b905063ffffffff851615612cf757604080517fa5da0bf5000000000000000000000000000000000000000000000000000000008152600160a060020a03858116600483015263ffffffff808c1660248401526001608060020a03808c1660448501528a1660648401528816608483015291519183169163a5da0bf59160a4808201926020929091908290030181600087803b158015612cc857600080fd5b505af1158015612cdc573d6000803e3d6000fd5b505050506040513d6020811015612cf257600080fd5b505191505b811515612dbd57604080517fc92ba8b2000000000000000000000000000000000000000000000000000000008152600160a060020a03858116600483015263ffffffff8b1660248301526001608060020a03808b1660448401528916606483015291519183169163c92ba8b2916084808201926020929091908290030181600087803b158015612d8657600080fd5b505af1158015612d9a573d6000803e3d6000fd5b505050506040513d6020811015612db057600080fd5b50511515612dbd57600080fd5b6040805163ffffffff8a1681528a151560208201526001608060020a03808a16828401528816606082015283151560808201529051600160a060020a038516917f2fb3fe66d41cb2d1b0d335656d86e7c779ebdc34c6f6fc806d35790a30be0e6d919081900360a00190a250600198975050505050505050565b6000808080808080806b204fce5e3e250261100000006001608060020a038c1610612e6157600080fd5b6b204fce5e3e250261100000006001608060020a038b1610612e8257600080fd5b612e9f8b6001608060020a03168b6001608060020a03168f613b8f565b1515612eaa57600080fd5b8c612ec057600c54600160a060020a0316612ecd565b600d54600160a060020a03165b915081600160a060020a03166361592b858d6040518263ffffffff1660e060020a028152600401808263ffffffff1663ffffffff16815260200191505060a060405180830381600087803b158015612f2457600080fd5b505af1158015612f38573d6000803e3d6000fd5b505050506040513d60a0811015612f4e57600080fd5b508051602082015160408301516060909301519199509197509095509350600160a060020a0387163314612f8157600080fd5b612f8f878e87898f8f613c01565b1515612f9e5760009750613193565b50600063ffffffff89161561306757604080517fa590529e00000000000000000000000000000000000000000000000000000000815263ffffffff808f1660048301526001608060020a03808f1660248401528d1660448301528b1660648201528151600160a060020a0385169263a590529e92608480820193918290030181600087803b15801561302f57600080fd5b505af1158015613043573d6000803e3d6000fd5b505050506040513d604081101561305957600080fd5b508051602090910151935090505b80151561312357604080517fcb2f7b8700000000000000000000000000000000000000000000000000000000815263ffffffff8e1660048201526001608060020a03808e1660248301528c1660448201529051600160a060020a0384169163cb2f7b879160648083019260209291908290030181600087803b1580156130ec57600080fd5b505af1158015613100573d6000803e3d6000fd5b505050506040513d602081101561311657600080fd5b5051151561312357600080fd5b604080518e1515815263ffffffff8e1660208201526001608060020a03808e16828401528c16606082015282151560808201529051600160a060020a038916917f2bf327e052ee7ab98550e3d864a5b2a61f7737dc75cbcaada4e55f88222ebbd7919081900360a00190a2600197505b5050505050505095945050505050565b60008060006131b061449d565b6000339350866131cb57600c54600160a060020a03166131d8565b600d54600160a060020a03165b92506131e483876139e8565b8051909250600160a060020a0385811691161461320057600080fd5b8661320f578160800151613215565b81606001515b6001608060020a0316905061322c84826000613cb3565b151561323757600080fd5b61326883858961325257600754600160a060020a0316613262565b6000805160206144cc8339815191525b89613d8d565b151561327357600080fd5b6060820151600160a060020a0385166000908152600e602052604081206001608060020a039092169190896132b357600754600160a060020a03166132c3565b6000805160206144cc8339815191525b600160a060020a0390811682526020808301939093526040918201600020805490940190935560608086015160808088015184518e1515815263ffffffff8e16968101969096526001608060020a039283168686015291909116918401919091529051928716927f179f16fddc625e40df9cb92cfcea70d64a6262c82b7a769e52996b1ff511ff569281900390910190a25060019695505050505050565b6000805b6020811015611f415760008160019060020a02846001015416111561338b576001909101905b600101613365565b606061339d61449d565b60008060008086600160a060020a031663a3fb59176040518163ffffffff1660e060020a0281526004016040805180830381600087803b1580156133e057600080fd5b505af11580156133f4573d6000803e3d6000fd5b505050506040513d604081101561340a57600080fd5b50805160209091015190945092508215613434576040805160008152602081019091529550613555565b600091505b846040015115156134635761344e87856139e8565b60208101519095509350600190910190613439565b8160405190808252806020026020018201604052801561348d578160200160208202803883390190505b50955086600160a060020a031663a3fb59176040518163ffffffff1660e060020a0281526004016040805180830381600087803b1580156134cd57600080fd5b505af11580156134e1573d6000803e3d6000fd5b505050506040513d60408110156134f757600080fd5b508051602090910151151560408701529350600090505b818110156135555783868281518110151561352557fe5b63ffffffff90921660209283029091019091015261354387856139e8565b6020810151909550935060010161350e565b5050505050919050565b600080600061356c61449d565b60008080600160a060020a038a166000805160206144cc8339815191521461359f57600d54600160a060020a03166135ac565b600c54600160a060020a03165b95508892506000915085600160a060020a031663a3fb59176040518163ffffffff1660e060020a0281526004016040805180830381600087803b1580156135f257600080fd5b505af1158015613606573d6000803e3d6000fd5b505050506040513d604081101561361c57600080fd5b5080516020909101511515604086015294505b6000836001608060020a031611801561364a57508360400151155b156137205761365986866139e8565b9350826001608060020a031684608001516001608060020a03161115156136b0576060840151608085015185519481900394938201936136a092909188918e918d91613e7b565b15156136ab57600080fd5b613714565b83608001516001608060020a0316836001608060020a031685606001516001608060020a0316028115156136e057fe5b04905080820191506137048460000151868c8b87868a606001518b60800151613f5e565b151561370f57600080fd5b600092505b8360200151945061362f565b6001608060020a03831615801561374057506000826001608060020a0316115b151561374b57600080fd5b506001608060020a031698975050505050505050565b600080600160a060020a0383166000805160206144cc833981519152141561378c5760129150611f41565b50600160a060020a03821660009081526020819052604090205480151561127d5782600160a060020a031663313ce5676040518163ffffffff1660e060020a028152600401602060405180830381600087803b1580156137eb57600080fd5b505af11580156137ff573d6000803e3d6000fd5b505050506040513d602081101561381557600080fd5b505160ff169150611f41565b60006b204fce5e3e25026110000000851115613887576040805160e560020a62461bcd02815260206004820152600160248201527f3100000000000000000000000000000000000000000000000000000000000000604482015290519081900360640190fd5b6b204fce5e3e250261100000008411156138eb576040805160e560020a62461bcd02815260206004820152600160248201527f3200000000000000000000000000000000000000000000000000000000000000604482015290519081900360640190fd5b828210613971576012838303111561394d576040805160e560020a62461bcd02815260206004820152600160248201527f3300000000000000000000000000000000000000000000000000000000000000604482015290519081900360640190fd5b84838303600a0a02670de0b6b3a7640000850281151561396957fe5b0490506115b2565b601282840311156139cc576040805160e560020a62461bcd02815260206004820152600160248201527f3400000000000000000000000000000000000000000000000000000000000000604482015290519081900360640190fd5b84828403600a0a670de0b6b3a764000086020281151561396957fe5b6139f061449d565b600083600160a060020a03166361592b85846040518263ffffffff1660e060020a028152600401808263ffffffff1663ffffffff16815260200191505060a060405180830381600087803b158015613a4757600080fd5b505af1158015613a5b573d6000803e3d6000fd5b505050506040513d60a0811015613a7157600080fd5b50805160208083015160408085015160809586015163ffffffff169388018490526001608060020a039081169588019590955293166060860152600160a060020a039091168452600114908301525092915050565b805460009063ffffffff161515613adf57506001610e48565b506000919050565b815460009063ffffffff16811015613b015750600061127d565b50815463ffffffff191663ffffffff91909116178155600060019182015590565b60008084613b305782613b32565b835b6004546001608060020a03919091169150811015613b4f57600080fd5b613b638686866001608060020a03166141f6565b1515613b6e57600080fd5b613b7886826142cb565b1515613b8357600080fd5b50600195945050505050565b6000808215613bc357600754613bbc9085908790613bb590600160a060020a0316613761565b6012613821565b9050613be6565b600754613be390859087906012906119ea90600160a060020a0316613761565b90505b69d3c21bcecceda10000008111156115ae5760009150610d93565b600080600087613c115783613c13565b845b6001608060020a0316915087613c3d57856001608060020a0316846001608060020a031603613c53565b866001608060020a0316856001608060020a0316035b600454909150821015613c6557600080fd5b613c848989896001608060020a0316886001608060020a0316036141f6565b1515613c8f57600080fd5b613c9989826142cb565b1515613ca457600080fd5b50600198975050505050505050565b60008083831115613cc357600080fd5b600160a060020a038516600090815260106020526040902054841115613d0157600160a060020a038516600090815260106020526040812055613d21565b600160a060020a0385166000908152601060205260409020805485900390555b821515613d315760019150610d93565b613d3a83610d9b565b600160a060020a0386166000908152600f6020526040902054909150811115613d6257600080fd5b600160a060020a0385166000908152600f602052604090208054829003905560019150509392505050565b60008085600160a060020a031662d84fd8846040518263ffffffff1660e060020a028152600401808263ffffffff1663ffffffff168152602001915050602060405180830381600087803b158015613de457600080fd5b505af1158015613df8573d6000803e3d6000fd5b505050506040513d6020811015613e0e57600080fd5b50511515613e1b57600080fd5b600160a060020a0384166000805160206144cc83398151915214613e5657600160a060020a0385166000908152601260205260409020613e6f565b600160a060020a03851660009081526013602052604090205b9050613b7881846143b2565b600080600160a060020a0386166000805160206144cc83398151915214613ead57600d54600160a060020a0316613eba565b600c54600160a060020a03165b9050613ec88189878a613d8d565b1515613ed357600080fd5b60408051600160a060020a03808b16825263ffffffff8a16602083015288166000805160206144cc833981519152148183015290517ffc2eaa59b7259e4eb0ce92d7a86fce8b0fb67fade6f9f69df98f4771035a50c29181900360600190a1613f528887866001608060020a0316866001608060020a0316600061442f565b98975050505050505050565b6000808080806001608060020a03808716908a1610613f7c57600080fd5b6001608060020a0380881690891610613f9457600080fd5b95879003959488900394600160a060020a038b166000805160206144cc83398151915214613fcd57600d54600160a060020a0316613fda565b600c54600160a060020a03165b9350600160a060020a038b166000805160206144cc833981519152146140005786614002565b855b6001608060020a031692506000915060026003015483101561407157600160a060020a03808e166000908152600e60209081526040808320938e1683529290522080546001608060020a038916019055829150614061848e8c8f613d8d565b151561406c57600080fd5b61412c565b604080517fa590529e00000000000000000000000000000000000000000000000000000000815263ffffffff8e1660048201526001608060020a03808a16602483015288166044820152600260648201528151600160a060020a0387169263a590529e92608480820193918290030181600087803b1580156140f257600080fd5b505af1158015614106573d6000803e3d6000fd5b505050506040513d604081101561411c57600080fd5b5051905080151561412c57600080fd5b7fd499cca7d46b5236c2cb522ceec930ccf485eefca1f0472c020a1b7328bf06438d8d6000805160206144cc833981519152600160a060020a03168e600160a060020a031614600086116040518085600160a060020a0316600160a060020a031681526020018463ffffffff1663ffffffff168152602001831515151581526020018215151515815260200194505050505060405180910390a16141e58d8c8b6001608060020a03168b6001608060020a03168661442f565b9d9c50505050505050505050505050565b6000808361420f57600754600160a060020a031661421f565b6000805160206144cc8339815191525b9050600083121561426157600160a060020a038581166000908152600e60209081526040808320938516835292905290812080549185900390910190556115ae565b600160a060020a038086166000908152600e602090815260408083209385168352929052205483111561429357600080fd5b600160a060020a038086166000908152600e602090815260408083209385168352929052208054849003905560019150509392505050565b60008060008312156143405750600160a060020a03831660009081526010602052604081205490839003908111156143185750600160a060020a0383166000908152601060205260409020545b600160a060020a038416600090815260106020526040902080548290039055600191506143ab565b600160a060020a038416600090815260106020526040902054614364908401611e9b565b600160a060020a0385166000908152600f6020526040902054101561438857600080fd5b600160a060020a0384166000908152601060205260409020805484019055600191505b5092915050565b81546000908190819063ffffffff90811690851610156143d157600080fd5b845463ffffffff908116602001908516106143eb57600080fd5b50508254600184015463ffffffff9182169184169190910390600282900a9060009082161161441957600080fd5b6001808601805483191690559250505092915050565b600080600160a060020a0386166000805160206144cc833981519152146144565783614458565b845b600160a060020a038089166000908152600e60209081526040808320938b1683529290522080548701905590506144928784830183613cb3565b979650505050505050565b6040805160a081018252600080825260208201819052918101829052606081018290526080810191909152905600000000000000000000000000eeeeeeeeeeeeeeeeeeeeeeeeeeeeeeeeeeeeeeeea165627a7a723058206413774a707277a29e079a6d10d5ff33ee46c13b89b8c8b040eabb937917060e0029",
  "source": "pragma solidity ^0.4.24;\n\n\nimport \"./OrderListInterface.sol\";\nimport \"./OrderIdManager.sol\";\nimport \"./OrderbookReserveInterface.sol\";\nimport \"./Utils2.sol\";\nimport \"./KyberReserveInterface.sol\";\n\n\ncontract FeeBurnerRateInterface {\n    uint public kncPerEthRatePrecision;\n}\n\n\ninterface MedianizerInterface {\n    function peek() external view returns (bytes32, bool);\n}\n\n\ncontract OrderbookReserve is OrderIdManager, Utils2, KyberReserveInterface, OrderbookReserveInterface {\n\n    uint public constant BURN_TO_STAKE_FACTOR = 5;      // stake per order must be xfactor expected burn amount.\n    uint public constant MAX_BURN_FEE_BPS = 100;        // 1%\n    uint public constant MIN_REMAINING_ORDER_RATIO = 2; // Ratio between min new order value and min order value.\n    uint public constant MAX_USD_PER_ETH = 100000;      // Above this value price is surely compromised.\n\n    uint32 constant public TAIL_ID = 1;         // tail Id in order list contract\n    uint32 constant public HEAD_ID = 2;         // head Id in order list contract\n\n    struct OrderLimits {\n        uint minNewOrderSizeUsd; // Basis for setting min new order size Eth\n        uint maxOrdersPerTrade;     // Limit number of iterated orders per trade / getRate loops.\n        uint minNewOrderSizeWei;    // Below this value can't create new order.\n        uint minOrderSizeWei;       // below this value order will be removed.\n    }\n\n    uint public kncPerEthBaseRatePrecision; // according to base rate all stakes are calculated.\n\n    struct ExternalContracts {\n        ERC20 kncToken;          // not constant. to enable testing while not on main net\n        ERC20 token;             // only supported token.\n        FeeBurnerRateInterface feeBurner;\n        address kyberNetwork;\n        MedianizerInterface medianizer; // price feed Eth - USD from maker DAO.\n        OrderListFactoryInterface orderListFactory;\n    }\n\n    //struct for getOrderData() return value. used only in memory.\n    struct OrderData {\n        address maker;\n        uint32 nextId;\n        bool isLastOrder;\n        uint128 srcAmount;\n        uint128 dstAmount;\n    }\n\n    OrderLimits public limits;\n    ExternalContracts public contracts;\n\n    // sorted lists of orders. one list for token to Eth, other for Eth to token.\n    // Each order is added in the correct position in the list to keep it sorted.\n    OrderListInterface public tokenToEthList;\n    OrderListInterface public ethToTokenList;\n\n    //funds data\n    mapping(address => mapping(address => uint)) public makerFunds; // deposited maker funds.\n    mapping(address => uint) public makerKnc;            // for knc staking.\n    mapping(address => uint) public makerTotalOrdersWei; // per maker how many Wei in orders, for stake calculation.\n\n    uint public makerBurnFeeBps;    // knc burn fee per order that is taken.\n\n    //each maker will have orders that will be reused.\n    mapping(address => OrderIdData) public makerOrdersTokenToEth;\n    mapping(address => OrderIdData) public makerOrdersEthToToken;\n\n    constructor(\n        ERC20 knc,\n        ERC20 reserveToken,\n        address burner,\n        address network,\n        MedianizerInterface medianizer,\n        OrderListFactoryInterface factory,\n        uint minNewOrderUsd,\n        uint maxOrdersPerTrade,\n        uint burnFeeBps\n    )\n        public\n    {\n\n        require(knc != address(0));\n        require(reserveToken != address(0));\n        require(burner != address(0));\n        require(network != address(0));\n        require(medianizer != address(0));\n        require(factory != address(0));\n        require(burnFeeBps != 0);\n        require(burnFeeBps <= MAX_BURN_FEE_BPS);\n        require(maxOrdersPerTrade != 0);\n        require(minNewOrderUsd > 0);\n\n        contracts.kyberNetwork = network;\n        contracts.feeBurner = FeeBurnerRateInterface(burner);\n        contracts.medianizer = medianizer;\n        contracts.orderListFactory = factory;\n        contracts.kncToken = knc;\n        contracts.token = reserveToken;\n\n        makerBurnFeeBps = burnFeeBps;\n        limits.minNewOrderSizeUsd = minNewOrderUsd;\n        limits.maxOrdersPerTrade = maxOrdersPerTrade;\n\n        require(setMinOrderSizeEth());\n\n        require(contracts.kncToken.approve(contracts.feeBurner, (2**255)));\n\n        //can only support tokens with decimals() API\n        setDecimals(contracts.token);\n\n        kncPerEthBaseRatePrecision = contracts.feeBurner.kncPerEthRatePrecision();\n    }\n\n    ///@dev separate init function for this contract, if this init is in the C'tor. gas consumption too high.\n    function init() public returns(bool) {\n        if ((tokenToEthList != address(0)) && (ethToTokenList != address(0))) return true;\n        if ((tokenToEthList != address(0)) || (ethToTokenList != address(0))) revert();\n\n        tokenToEthList = contracts.orderListFactory.newOrdersContract(this);\n        ethToTokenList = contracts.orderListFactory.newOrdersContract(this);\n\n        return true;\n    }\n\n    function setKncPerEthBaseRate() public {\n        uint kncPerEthRatePrecision = contracts.feeBurner.kncPerEthRatePrecision();\n        if (kncPerEthRatePrecision < kncPerEthBaseRatePrecision) {\n            kncPerEthBaseRatePrecision = kncPerEthRatePrecision;\n        }\n    }\n\n    function getConversionRate(ERC20 src, ERC20 dst, uint srcQty, uint blockNumber) public view returns(uint) {\n        require((src == ETH_TOKEN_ADDRESS) || (dst == ETH_TOKEN_ADDRESS));\n        require((src == contracts.token) || (dst == contracts.token));\n        require(srcQty <= MAX_QTY);\n\n        if (kncRateBlocksTrade()) return 0;\n\n        blockNumber; // in this reserve no order expiry == no use for blockNumber. here to avoid compiler warning.\n\n        //user order ETH -> token is matched with maker order token -> ETH\n        OrderListInterface list = (src == ETH_TOKEN_ADDRESS) ? tokenToEthList : ethToTokenList;\n\n        uint32 orderId;\n        OrderData memory orderData;\n\n        uint128 userRemainingSrcQty = uint128(srcQty);\n        uint128 totalUserDstAmount = 0;\n        uint maxOrders = limits.maxOrdersPerTrade;\n\n        for (\n            (orderId, orderData.isLastOrder) = list.getFirstOrder();\n            ((userRemainingSrcQty > 0) && (!orderData.isLastOrder) && (maxOrders-- > 0));\n            orderId = orderData.nextId\n        ) {\n            orderData = getOrderData(list, orderId);\n            // maker dst quantity is the requested quantity he wants to receive. user src quantity is what user gives.\n            // so user src quantity is matched with maker dst quantity\n            if (orderData.dstAmount <= userRemainingSrcQty) {\n                totalUserDstAmount += orderData.srcAmount;\n                userRemainingSrcQty -= orderData.dstAmount;\n            } else {\n                totalUserDstAmount += uint128(uint(orderData.srcAmount) * uint(userRemainingSrcQty) /\n                    uint(orderData.dstAmount));\n                userRemainingSrcQty = 0;\n            }\n        }\n\n        if (userRemainingSrcQty != 0) return 0; //not enough tokens to exchange.\n\n        return calcRateFromQty(srcQty, totalUserDstAmount, getDecimals(src), getDecimals(dst));\n    }\n\n    event OrderbookReserveTrade(ERC20 srcToken, ERC20 dstToken, uint srcAmount, uint dstAmount);\n\n    function trade(\n        ERC20 srcToken,\n        uint srcAmount,\n        ERC20 dstToken,\n        address dstAddress,\n        uint conversionRate,\n        bool validate\n    )\n        public\n        payable\n        returns(bool)\n    {\n        require(msg.sender == contracts.kyberNetwork);\n        require((srcToken == ETH_TOKEN_ADDRESS) || (dstToken == ETH_TOKEN_ADDRESS));\n        require((srcToken == contracts.token) || (dstToken == contracts.token));\n        require(srcAmount <= MAX_QTY);\n\n        conversionRate;\n        validate;\n\n        if (srcToken == ETH_TOKEN_ADDRESS) {\n            require(msg.value == srcAmount);\n        } else {\n            require(msg.value == 0);\n            require(srcToken.transferFrom(msg.sender, this, srcAmount));\n        }\n\n        uint totalDstAmount = doTrade(\n                srcToken,\n                srcAmount,\n                dstToken\n            );\n\n        require(conversionRate <= calcRateFromQty(srcAmount, totalDstAmount, getDecimals(srcToken),\n            getDecimals(dstToken)));\n\n        //all orders were successfully taken. send to dstAddress\n        if (dstToken == ETH_TOKEN_ADDRESS) {\n            dstAddress.transfer(totalDstAmount);\n        } else {\n            require(dstToken.transfer(dstAddress, totalDstAmount));\n        }\n\n        emit OrderbookReserveTrade(srcToken, dstToken, srcAmount, totalDstAmount);\n        return true;\n    }\n\n    function doTrade(\n        ERC20 srcToken,\n        uint srcAmount,\n        ERC20 dstToken\n    )\n        internal\n        returns(uint)\n    {\n        OrderListInterface list = (srcToken == ETH_TOKEN_ADDRESS) ? tokenToEthList : ethToTokenList;\n\n        uint32 orderId;\n        OrderData memory orderData;\n        uint128 userRemainingSrcQty = uint128(srcAmount);\n        uint128 totalUserDstAmount = 0;\n\n        for (\n            (orderId, orderData.isLastOrder) = list.getFirstOrder();\n            ((userRemainingSrcQty > 0) && (!orderData.isLastOrder));\n            orderId = orderData.nextId\n        ) {\n        // maker dst quantity is the requested quantity he wants to receive. user src quantity is what user gives.\n        // so user src quantity is matched with maker dst quantity\n            orderData = getOrderData(list, orderId);\n            if (orderData.dstAmount <= userRemainingSrcQty) {\n                totalUserDstAmount += orderData.srcAmount;\n                userRemainingSrcQty -= orderData.dstAmount;\n                require(takeFullOrder({\n                    maker: orderData.maker,\n                    orderId: orderId,\n                    userSrc: srcToken,\n                    userDst: dstToken,\n                    userSrcAmount: orderData.dstAmount,\n                    userDstAmount: orderData.srcAmount\n                }));\n            } else {\n                uint128 partialDstQty = uint128(uint(orderData.srcAmount) * uint(userRemainingSrcQty) /\n                    uint(orderData.dstAmount));\n                totalUserDstAmount += partialDstQty;\n                require(takePartialOrder({\n                    maker: orderData.maker,\n                    orderId: orderId,\n                    userSrc: srcToken,\n                    userDst: dstToken,\n                    userPartialSrcAmount: userRemainingSrcQty,\n                    userTakeDstAmount: partialDstQty,\n                    orderSrcAmount: orderData.srcAmount,\n                    orderDstAmount: orderData.dstAmount\n                }));\n                userRemainingSrcQty = 0;\n            }\n        }\n\n        require(userRemainingSrcQty == 0 && totalUserDstAmount > 0);\n\n        return totalUserDstAmount;\n    }\n\n    ///@param srcAmount is the token amount that will be payed. must be deposited before hand in the makers account.\n    ///@param dstAmount is the eth amount the maker expects to get for his tokens.\n    function submitTokenToEthOrder(uint128 srcAmount, uint128 dstAmount)\n        public\n        returns(bool)\n    {\n        return submitTokenToEthOrderWHint(srcAmount, dstAmount, 0);\n    }\n\n    function submitTokenToEthOrderWHint(uint128 srcAmount, uint128 dstAmount, uint32 hintPrevOrder)\n        public\n        returns(bool)\n    {\n        uint32 newId = fetchNewOrderId(makerOrdersTokenToEth[msg.sender]);\n        return addOrder(false, newId, srcAmount, dstAmount, hintPrevOrder);\n    }\n\n    ///@param srcAmount is the Ether amount that will be payed, must be deposited before hand.\n    ///@param dstAmount is the token amount the maker expects to get for his Ether.\n    function submitEthToTokenOrder(uint128 srcAmount, uint128 dstAmount)\n        public\n        returns(bool)\n    {\n        return submitEthToTokenOrderWHint(srcAmount, dstAmount, 0);\n    }\n\n    function submitEthToTokenOrderWHint(uint128 srcAmount, uint128 dstAmount, uint32 hintPrevOrder)\n        public\n        returns(bool)\n    {\n        uint32 newId = fetchNewOrderId(makerOrdersEthToToken[msg.sender]);\n        return addOrder(true, newId, srcAmount, dstAmount, hintPrevOrder);\n    }\n\n    ///@dev notice here a batch of orders represented in arrays. order x is represented by x cells of all arrays.\n    ///@dev all arrays expected to the same length.\n    ///@param isEthToToken per each order. is order x eth to token (= src is Eth) or vice versa.\n    ///@param srcAmount per each order. source amount for order x.\n    ///@param dstAmount per each order. destination amount for order x.\n    ///@param hintPrevOrder per each order what is the order it should be added after in ordered list. 0 for no hint.\n    ///@param isAfterPrevOrder per each order, set true if should be added in list right after previous added order.\n    function addOrderBatch(bool[] isEthToToken, uint128[] srcAmount, uint128[] dstAmount,\n        uint32[] hintPrevOrder, bool[] isAfterPrevOrder)\n        public\n        returns(bool)\n    {\n        require(isEthToToken.length == hintPrevOrder.length);\n        require(isEthToToken.length == dstAmount.length);\n        require(isEthToToken.length == srcAmount.length);\n        require(isEthToToken.length == isAfterPrevOrder.length);\n\n        address maker = msg.sender;\n        uint32 prevId;\n        uint32 newId = 0;\n\n        for (uint i = 0; i < isEthToToken.length; ++i) {\n            prevId = isAfterPrevOrder[i] ? newId : hintPrevOrder[i];\n            newId = fetchNewOrderId(isEthToToken[i] ? makerOrdersEthToToken[maker] : makerOrdersTokenToEth[maker]);\n            require(addOrder(isEthToToken[i], newId, srcAmount[i], dstAmount[i], prevId));\n        }\n\n        return true;\n    }\n\n    function updateTokenToEthOrder(uint32 orderId, uint128 newSrcAmount, uint128 newDstAmount)\n        public\n        returns(bool)\n    {\n        require(updateTokenToEthOrderWHint(orderId, newSrcAmount, newDstAmount, 0));\n        return true;\n    }\n\n    function updateTokenToEthOrderWHint(\n        uint32 orderId,\n        uint128 newSrcAmount,\n        uint128 newDstAmount,\n        uint32 hintPrevOrder\n    )\n        public\n        returns(bool)\n    {\n        require(updateOrder(false, orderId, newSrcAmount, newDstAmount, hintPrevOrder));\n        return true;\n    }\n\n    function updateEthToTokenOrder(uint32 orderId, uint128 newSrcAmount, uint128 newDstAmount)\n        public\n        returns(bool)\n    {\n        return updateEthToTokenOrderWHint(orderId, newSrcAmount, newDstAmount, 0);\n    }\n\n    function updateEthToTokenOrderWHint(\n        uint32 orderId,\n        uint128 newSrcAmount,\n        uint128 newDstAmount,\n        uint32 hintPrevOrder\n    )\n        public\n        returns(bool)\n    {\n        require(updateOrder(true, orderId, newSrcAmount, newDstAmount, hintPrevOrder));\n        return true;\n    }\n\n    function updateOrderBatch(bool[] isEthToToken, uint32[] orderId, uint128[] newSrcAmount,\n        uint128[] newDstAmount, uint32[] hintPrevOrder)\n        public\n        returns(bool)\n    {\n        require(isEthToToken.length == orderId.length);\n        require(isEthToToken.length == newSrcAmount.length);\n        require(isEthToToken.length == newDstAmount.length);\n        require(isEthToToken.length == hintPrevOrder.length);\n\n        for (uint i = 0; i < isEthToToken.length; ++i) {\n            require(updateOrder(isEthToToken[i], orderId[i], newSrcAmount[i], newDstAmount[i],\n                hintPrevOrder[i]));\n        }\n\n        return true;\n    }\n\n    event TokenDeposited(address indexed maker, uint amount);\n\n    function depositToken(address maker, uint amount) public {\n        require(maker != address(0));\n        require(amount < MAX_QTY);\n\n        require(contracts.token.transferFrom(msg.sender, this, amount));\n\n        makerFunds[maker][contracts.token] += amount;\n        emit TokenDeposited(maker, amount);\n    }\n\n    event EtherDeposited(address indexed maker, uint amount);\n\n    function depositEther(address maker) public payable {\n        require(maker != address(0));\n\n        makerFunds[maker][ETH_TOKEN_ADDRESS] += msg.value;\n        emit EtherDeposited(maker, msg.value);\n    }\n\n    event KncFeeDeposited(address indexed maker, uint amount);\n\n    // knc will be staked per order. part of the amount will be used as fee.\n    function depositKncForFee(address maker, uint amount) public {\n        require(maker != address(0));\n        require(amount < MAX_QTY);\n\n        require(contracts.kncToken.transferFrom(msg.sender, this, amount));\n\n        makerKnc[maker] += amount;\n\n        emit KncFeeDeposited(maker, amount);\n\n        if (orderAllocationRequired(makerOrdersTokenToEth[maker])) {\n            require(allocateOrderIds(\n                makerOrdersTokenToEth[maker], /* makerOrders */\n                tokenToEthList.allocateIds(uint32(NUM_ORDERS)) /* firstAllocatedId */\n            ));\n        }\n\n        if (orderAllocationRequired(makerOrdersEthToToken[maker])) {\n            require(allocateOrderIds(\n                makerOrdersEthToToken[maker], /* makerOrders */\n                ethToTokenList.allocateIds(uint32(NUM_ORDERS)) /* firstAllocatedId */\n            ));\n        }\n    }\n\n    function withdrawToken(uint amount) public {\n\n        address maker = msg.sender;\n        uint makerFreeAmount = makerFunds[maker][contracts.token];\n\n        require(makerFreeAmount >= amount);\n\n        makerFunds[maker][contracts.token] -= amount;\n\n        require(contracts.token.transfer(maker, amount));\n    }\n\n    function withdrawEther(uint amount) public {\n\n        address maker = msg.sender;\n        uint makerFreeAmount = makerFunds[maker][ETH_TOKEN_ADDRESS];\n\n        require(makerFreeAmount >= amount);\n\n        makerFunds[maker][ETH_TOKEN_ADDRESS] -= amount;\n\n        maker.transfer(amount);\n    }\n\n    function withdrawKncFee(uint amount) public {\n\n        address maker = msg.sender;\n\n        require(makerKnc[maker] >= amount);\n        require(makerUnlockedKnc(maker) >= amount);\n\n        makerKnc[maker] -= amount;\n\n        require(contracts.kncToken.transfer(maker, amount));\n    }\n\n    function cancelTokenToEthOrder(uint32 orderId) public returns(bool) {\n        require(cancelOrder(false, orderId));\n        return true;\n    }\n\n    function cancelEthToTokenOrder(uint32 orderId) public returns(bool) {\n        require(cancelOrder(true, orderId));\n        return true;\n    }\n\n    function setMinOrderSizeEth() public returns(bool) {\n        //get eth to $ from maker dao;\n        bytes32 usdPerEthInWei;\n        bool valid;\n        (usdPerEthInWei, valid) = contracts.medianizer.peek();\n        require(valid);\n\n        // ensuring that there is no underflow or overflow possible,\n        // even if the price is compromised\n        uint usdPerEth = uint(usdPerEthInWei) / (1 ether);\n        require(usdPerEth != 0);\n        require(usdPerEth < MAX_USD_PER_ETH);\n\n        // set Eth order limits according to price\n        uint minNewOrderSizeWei = limits.minNewOrderSizeUsd * PRECISION * (1 ether) / uint(usdPerEthInWei);\n\n        limits.minNewOrderSizeWei = minNewOrderSizeWei;\n        limits.minOrderSizeWei = limits.minNewOrderSizeWei / MIN_REMAINING_ORDER_RATIO;\n\n        return true;\n    }\n\n    ///@dev Each maker stakes per order KNC that is factor of the required burn amount.\n    ///@dev If Knc per Eth rate becomes lower by more then factor, stake will not be enough and trade will be blocked.\n    function kncRateBlocksTrade() public view returns (bool) {\n        return (contracts.feeBurner.kncPerEthRatePrecision() > kncPerEthBaseRatePrecision * BURN_TO_STAKE_FACTOR);\n    }\n\n    function getTokenToEthAddOrderHint(uint128 srcAmount, uint128 dstAmount) public view returns (uint32) {\n        require(dstAmount >= limits.minNewOrderSizeWei);\n        return tokenToEthList.findPrevOrderId(srcAmount, dstAmount);\n    }\n\n    function getEthToTokenAddOrderHint(uint128 srcAmount, uint128 dstAmount) public view returns (uint32) {\n        require(srcAmount >= limits.minNewOrderSizeWei);\n        return ethToTokenList.findPrevOrderId(srcAmount, dstAmount);\n    }\n\n    function getTokenToEthUpdateOrderHint(uint32 orderId, uint128 srcAmount, uint128 dstAmount)\n        public\n        view\n        returns (uint32)\n    {\n        require(dstAmount >= limits.minNewOrderSizeWei);\n        uint32 prevId = tokenToEthList.findPrevOrderId(srcAmount, dstAmount);\n        address add;\n        uint128 noUse;\n        uint32 next;\n\n        if (prevId == orderId) {\n            (add, noUse, noUse, prevId, next) = tokenToEthList.getOrderDetails(orderId);\n        }\n\n        return prevId;\n    }\n\n    function getEthToTokenUpdateOrderHint(uint32 orderId, uint128 srcAmount, uint128 dstAmount)\n        public\n        view\n        returns (uint32)\n    {\n        require(srcAmount >= limits.minNewOrderSizeWei);\n        uint32 prevId = ethToTokenList.findPrevOrderId(srcAmount, dstAmount);\n        address add;\n        uint128 noUse;\n        uint32 next;\n\n        if (prevId == orderId) {\n            (add, noUse, noUse, prevId, next) = ethToTokenList.getOrderDetails(orderId);\n        }\n\n        return prevId;\n    }\n\n    function getTokenToEthOrder(uint32 orderId)\n        public view\n        returns (\n            address _maker,\n            uint128 _srcAmount,\n            uint128 _dstAmount,\n            uint32 _prevId,\n            uint32 _nextId\n        )\n    {\n        return tokenToEthList.getOrderDetails(orderId);\n    }\n\n    function getEthToTokenOrder(uint32 orderId)\n        public view\n        returns (\n            address _maker,\n            uint128 _srcAmount,\n            uint128 _dstAmount,\n            uint32 _prevId,\n            uint32 _nextId\n        )\n    {\n        return ethToTokenList.getOrderDetails(orderId);\n    }\n\n    function makerRequiredKncStake(address maker) public view returns (uint) {\n        return(calcKncStake(makerTotalOrdersWei[maker]));\n    }\n\n    function makerUnlockedKnc(address maker) public view returns (uint) {\n        uint requiredKncStake = makerRequiredKncStake(maker);\n        if (requiredKncStake > makerKnc[maker]) return 0;\n        return (makerKnc[maker] - requiredKncStake);\n    }\n\n    function calcKncStake(uint weiAmount) public view returns(uint) {\n        return(calcBurnAmount(weiAmount) * BURN_TO_STAKE_FACTOR);\n    }\n\n    function calcBurnAmount(uint weiAmount) public view returns(uint) {\n        return(weiAmount * makerBurnFeeBps * kncPerEthBaseRatePrecision / (10000 * PRECISION));\n    }\n\n    function calcBurnAmountFromFeeBurner(uint weiAmount) public view returns(uint) {\n        return(weiAmount * makerBurnFeeBps * contracts.feeBurner.kncPerEthRatePrecision() / (10000 * PRECISION));\n    }\n\n    ///@dev This function is not fully optimized gas wise. Consider before calling on chain.\n    function getEthToTokenMakerOrderIds(address maker) public view returns(uint32[] orderList) {\n        OrderIdData storage makerOrders = makerOrdersEthToToken[maker];\n        orderList = new uint32[](getNumActiveOrderIds(makerOrders));\n        uint activeOrder = 0;\n\n        for (uint32 i = 0; i < NUM_ORDERS; ++i) {\n            if ((makerOrders.takenBitmap & (uint(1) << i) > 0)) orderList[activeOrder++] = makerOrders.firstOrderId + i;\n        }\n    }\n\n    ///@dev This function is not fully optimized gas wise. Consider before calling on chain.\n    function getTokenToEthMakerOrderIds(address maker) public view returns(uint32[] orderList) {\n        OrderIdData storage makerOrders = makerOrdersTokenToEth[maker];\n        orderList = new uint32[](getNumActiveOrderIds(makerOrders));\n        uint activeOrder = 0;\n\n        for (uint32 i = 0; i < NUM_ORDERS; ++i) {\n            if ((makerOrders.takenBitmap & (uint(1) << i) > 0)) orderList[activeOrder++] = makerOrders.firstOrderId + i;\n        }\n    }\n\n    ///@dev This function is not fully optimized gas wise. Consider before calling on chain.\n    function getEthToTokenOrderList() public view returns(uint32[] orderList) {\n        OrderListInterface list = ethToTokenList;\n        return getList(list);\n    }\n\n    ///@dev This function is not fully optimized gas wise. Consider before calling on chain.\n    function getTokenToEthOrderList() public view returns(uint32[] orderList) {\n        OrderListInterface list = tokenToEthList;\n        return getList(list);\n    }\n\n    event NewLimitOrder(\n        address indexed maker,\n        uint32 orderId,\n        bool isEthToToken,\n        uint128 srcAmount,\n        uint128 dstAmount,\n        bool addedWithHint\n    );\n\n    function addOrder(bool isEthToToken, uint32 newId, uint128 srcAmount, uint128 dstAmount, uint32 hintPrevOrder)\n        internal\n        returns(bool)\n    {\n        require(srcAmount < MAX_QTY);\n        require(dstAmount < MAX_QTY);\n        address maker = msg.sender;\n\n        require(secureAddOrderFunds(maker, isEthToToken, srcAmount, dstAmount));\n        require(validateLegalRate(srcAmount, dstAmount, isEthToToken));\n\n        bool addedWithHint = false;\n        OrderListInterface list = isEthToToken ? ethToTokenList : tokenToEthList;\n\n        if (hintPrevOrder != 0) {\n            addedWithHint = list.addAfterId(maker, newId, srcAmount, dstAmount, hintPrevOrder);\n        }\n\n        if (!addedWithHint) {\n            require(list.add(maker, newId, srcAmount, dstAmount));\n        }\n\n        emit NewLimitOrder(maker, newId, isEthToToken, srcAmount, dstAmount, addedWithHint);\n\n        return true;\n    }\n\n    event OrderUpdated(\n        address indexed maker,\n        bool isEthToToken,\n        uint orderId,\n        uint128 srcAmount,\n        uint128 dstAmount,\n        bool updatedWithHint\n    );\n\n    function updateOrder(bool isEthToToken, uint32 orderId, uint128 newSrcAmount,\n        uint128 newDstAmount, uint32 hintPrevOrder)\n        internal\n        returns(bool)\n    {\n        require(newSrcAmount < MAX_QTY);\n        require(newDstAmount < MAX_QTY);\n        address maker;\n        uint128 currDstAmount;\n        uint128 currSrcAmount;\n        uint32 noUse;\n        uint noUse2;\n\n        require(validateLegalRate(newSrcAmount, newDstAmount, isEthToToken));\n\n        OrderListInterface list = isEthToToken ? ethToTokenList : tokenToEthList;\n\n        (maker, currSrcAmount, currDstAmount, noUse, noUse) = list.getOrderDetails(orderId);\n        require(maker == msg.sender);\n\n        if (!secureUpdateOrderFunds(maker, isEthToToken, currSrcAmount, currDstAmount, newSrcAmount, newDstAmount)) {\n            return false;\n        }\n\n        bool updatedWithHint = false;\n\n        if (hintPrevOrder != 0) {\n            (updatedWithHint, noUse2) = list.updateWithPositionHint(orderId, newSrcAmount, newDstAmount, hintPrevOrder);\n        }\n\n        if (!updatedWithHint) {\n            require(list.update(orderId, newSrcAmount, newDstAmount));\n        }\n\n        emit OrderUpdated(maker, isEthToToken, orderId, newSrcAmount, newDstAmount, updatedWithHint);\n\n        return true;\n    }\n\n    event OrderCanceled(address indexed maker, bool isEthToToken, uint32 orderId, uint128 srcAmount, uint dstAmount);\n\n    function cancelOrder(bool isEthToToken, uint32 orderId) internal returns(bool) {\n\n        address maker = msg.sender;\n        OrderListInterface list = isEthToToken ? ethToTokenList : tokenToEthList;\n        OrderData memory orderData = getOrderData(list, orderId);\n\n        require(orderData.maker == maker);\n\n        uint weiAmount = isEthToToken ? orderData.srcAmount : orderData.dstAmount;\n        require(releaseOrderStakes(maker, weiAmount, 0));\n\n        require(removeOrder(list, maker, isEthToToken ? ETH_TOKEN_ADDRESS : contracts.token, orderId));\n\n        //funds go back to makers account\n        makerFunds[maker][isEthToToken ? ETH_TOKEN_ADDRESS : contracts.token] += orderData.srcAmount;\n\n        emit OrderCanceled(maker, isEthToToken, orderId, orderData.srcAmount, orderData.dstAmount);\n\n        return true;\n    }\n\n    ///@param maker is the maker of this order\n    ///@param isEthToToken which order type the maker is updating / adding\n    ///@param srcAmount is the orders src amount (token or ETH) could be negative if funds are released.\n    function bindOrderFunds(address maker, bool isEthToToken, int srcAmount)\n        internal\n        returns(bool)\n    {\n        address fundsAddress = isEthToToken ? ETH_TOKEN_ADDRESS : contracts.token;\n\n        if (srcAmount < 0) {\n            makerFunds[maker][fundsAddress] += uint(-srcAmount);\n        } else {\n            require(makerFunds[maker][fundsAddress] >= uint(srcAmount));\n            makerFunds[maker][fundsAddress] -= uint(srcAmount);\n        }\n\n        return true;\n    }\n\n    ///@param maker is the maker address\n    ///@param weiAmount is the wei amount inside order that should result in knc staking\n    function bindOrderStakes(address maker, int weiAmount) internal returns(bool) {\n\n        if (weiAmount < 0) {\n            uint decreaseWeiAmount = uint(-weiAmount);\n            if (decreaseWeiAmount > makerTotalOrdersWei[maker]) decreaseWeiAmount = makerTotalOrdersWei[maker];\n            makerTotalOrdersWei[maker] -= decreaseWeiAmount;\n            return true;\n        }\n\n        require(makerKnc[maker] >= calcKncStake(makerTotalOrdersWei[maker] + uint(weiAmount)));\n\n        makerTotalOrdersWei[maker] += uint(weiAmount);\n\n        return true;\n    }\n\n    ///@dev if totalWeiAmount is 0 we only release stakes.\n    ///@dev if totalWeiAmount == weiForBurn. all staked amount will be burned. so no knc returned to maker\n    ///@param maker is the maker address\n    ///@param totalWeiAmount is total wei amount that was released from order - including taken wei amount.\n    ///@param weiForBurn is the part in order wei amount that was taken and should result in burning.\n    function releaseOrderStakes(address maker, uint totalWeiAmount, uint weiForBurn) internal returns(bool) {\n\n        require(weiForBurn <= totalWeiAmount);\n\n        if (totalWeiAmount > makerTotalOrdersWei[maker]) {\n            makerTotalOrdersWei[maker] = 0;\n        } else {\n            makerTotalOrdersWei[maker] -= totalWeiAmount;\n        }\n\n        if (weiForBurn == 0) return true;\n\n        uint burnAmount = calcBurnAmountFromFeeBurner(weiForBurn);\n\n        require(makerKnc[maker] >= burnAmount);\n        makerKnc[maker] -= burnAmount;\n\n        return true;\n    }\n\n    ///@dev funds are valid only when required knc amount can be staked for this order.\n    function secureAddOrderFunds(address maker, bool isEthToToken, uint128 srcAmount, uint128 dstAmount)\n        internal returns(bool)\n    {\n        uint weiAmount = isEthToToken ? srcAmount : dstAmount;\n\n        require(weiAmount >= limits.minNewOrderSizeWei);\n        require(bindOrderFunds(maker, isEthToToken, int(srcAmount)));\n        require(bindOrderStakes(maker, int(weiAmount)));\n\n        return true;\n    }\n\n    ///@dev funds are valid only when required knc amount can be staked for this order.\n    function secureUpdateOrderFunds(address maker, bool isEthToToken, uint128 prevSrcAmount, uint128 prevDstAmount,\n        uint128 newSrcAmount, uint128 newDstAmount)\n        internal\n        returns(bool)\n    {\n        uint weiAmount = isEthToToken ? newSrcAmount : newDstAmount;\n        int weiDiff = isEthToToken ? (int(newSrcAmount) - int(prevSrcAmount)) :\n            (int(newDstAmount) - int(prevDstAmount));\n\n        require(weiAmount >= limits.minNewOrderSizeWei);\n\n        require(bindOrderFunds(maker, isEthToToken, int(newSrcAmount) - int(prevSrcAmount)));\n\n        require(bindOrderStakes(maker, weiDiff));\n\n        return true;\n    }\n\n    event FullOrderTaken(address maker, uint32 orderId, bool isEthToToken);\n\n    function takeFullOrder(\n        address maker,\n        uint32 orderId,\n        ERC20 userSrc,\n        ERC20 userDst,\n        uint128 userSrcAmount,\n        uint128 userDstAmount\n    )\n        internal\n        returns (bool)\n    {\n        OrderListInterface list = (userSrc == ETH_TOKEN_ADDRESS) ? tokenToEthList : ethToTokenList;\n\n        //userDst == maker source\n        require(removeOrder(list, maker, userDst, orderId));\n\n        emit FullOrderTaken(maker, orderId, userSrc == ETH_TOKEN_ADDRESS);\n\n        return takeOrder(maker, userSrc, userSrcAmount, userDstAmount, 0);\n    }\n\n    event PartialOrderTaken(address maker, uint32 orderId, bool isEthToToken, bool isRemoved);\n\n    function takePartialOrder(\n        address maker,\n        uint32 orderId,\n        ERC20 userSrc,\n        ERC20 userDst,\n        uint128 userPartialSrcAmount,\n        uint128 userTakeDstAmount,\n        uint128 orderSrcAmount,\n        uint128 orderDstAmount\n    )\n        internal\n        returns(bool)\n    {\n        require(userPartialSrcAmount < orderDstAmount);\n        require(userTakeDstAmount < orderSrcAmount);\n\n        //must reuse parameters, otherwise stack too deep error.\n        orderSrcAmount -= userTakeDstAmount;\n        orderDstAmount -= userPartialSrcAmount;\n\n        OrderListInterface list = (userSrc == ETH_TOKEN_ADDRESS) ? tokenToEthList : ethToTokenList;\n        uint weiValueNotReleasedFromOrder = (userSrc == ETH_TOKEN_ADDRESS) ? orderDstAmount : orderSrcAmount;\n        uint additionalReleasedWei = 0;\n\n        if (weiValueNotReleasedFromOrder < limits.minOrderSizeWei) {\n            // remaining order amount too small. remove order and add remaining funds to free funds\n            makerFunds[maker][userDst] += orderSrcAmount;\n            additionalReleasedWei = weiValueNotReleasedFromOrder;\n\n            //for remove order we give makerSrc == userDst\n            require(removeOrder(list, maker, userDst, orderId));\n        } else {\n            bool isSuccess;\n\n            // update order values, taken order is always first order\n            (isSuccess,) = list.updateWithPositionHint(orderId, orderSrcAmount, orderDstAmount, HEAD_ID);\n            require(isSuccess);\n        }\n\n        emit PartialOrderTaken(maker, orderId, userSrc == ETH_TOKEN_ADDRESS, additionalReleasedWei > 0);\n\n        //stakes are returned for unused wei value\n        return(takeOrder(maker, userSrc, userPartialSrcAmount, userTakeDstAmount, additionalReleasedWei));\n    }\n\n    function takeOrder(\n        address maker,\n        ERC20 userSrc,\n        uint userSrcAmount,\n        uint userDstAmount,\n        uint additionalReleasedWei\n    )\n        internal\n        returns(bool)\n    {\n        uint weiAmount = userSrc == (ETH_TOKEN_ADDRESS) ? userSrcAmount : userDstAmount;\n\n        //token / eth already collected. just update maker balance\n        makerFunds[maker][userSrc] += userSrcAmount;\n\n        // send dst tokens in one batch. not here\n        //handle knc stakes and fee. releasedWeiValue was released and not traded.\n        return releaseOrderStakes(maker, (weiAmount + additionalReleasedWei), weiAmount);\n    }\n\n    function removeOrder(\n        OrderListInterface list,\n        address maker,\n        ERC20 makerSrc,\n        uint32 orderId\n    )\n        internal returns(bool)\n    {\n        require(list.remove(orderId));\n        OrderIdData storage orders = (makerSrc == ETH_TOKEN_ADDRESS) ?\n            makerOrdersEthToToken[maker] : makerOrdersTokenToEth[maker];\n        require(releaseOrderId(orders, orderId));\n\n        return true;\n    }\n\n    function getList(OrderListInterface list) internal view returns(uint32[] memory orderList) {\n        OrderData memory orderData;\n        uint32 orderId;\n        bool isEmpty;\n\n        (orderId, isEmpty) = list.getFirstOrder();\n        if (isEmpty) return(new uint32[](0));\n\n        uint numOrders = 0;\n\n        for (; !orderData.isLastOrder; orderId = orderData.nextId) {\n            orderData = getOrderData(list, orderId);\n            numOrders++;\n        }\n\n        orderList = new uint32[](numOrders);\n\n        (orderId, orderData.isLastOrder) = list.getFirstOrder();\n\n        for (uint i = 0; i < numOrders; i++) {\n            orderList[i] = orderId;\n            orderData = getOrderData(list, orderId);\n            orderId = orderData.nextId;\n        }\n    }\n\n    function getOrderData(OrderListInterface list, uint32 orderId) internal view returns (OrderData data) {\n        uint32 prevId;\n        (data.maker, data.srcAmount, data.dstAmount, prevId, data.nextId) = list.getOrderDetails(orderId);\n        data.isLastOrder = (data.nextId == TAIL_ID);\n    }\n\n    function validateLegalRate (uint srcAmount, uint dstAmount, bool isEthToToken)\n        internal view returns(bool)\n    {\n        uint rate;\n\n        /// notice, rate is calculated from taker perspective,\n        ///     for taker amounts are opposite. order srcAmount will be DstAmount for taker.\n        if (isEthToToken) {\n            rate = calcRateFromQty(dstAmount, srcAmount, getDecimals(contracts.token), ETH_DECIMALS);\n        } else {\n            rate = calcRateFromQty(dstAmount, srcAmount, ETH_DECIMALS, getDecimals(contracts.token));\n        }\n\n        if (rate > MAX_RATE) return false;\n        return true;\n    }\n}\n",
  "sourcePath": "/home/peter/Documents/Work/MyBit/MyBit-Network.tech/contracts/kyber/OrderbookReserve.sol",
  "compiler": {
    "name": "solc",
    "version": "0.4.24+commit.e67f0147.Emscripten.clang"
  },
  "schemaVersion": "3.0.2",
  "updatedAt": "2019-03-14T21:46:28.689Z",
  "devdoc": {
    "methods": {
      "addOrderBatch(bool[],uint128[],uint128[],uint32[],bool[])": {
        "details": "notice here a batch of orders represented in arrays. order x is represented by x cells of all arrays.all arrays expected to the same length.",
        "params": {
          "dstAmount": "per each order. destination amount for order x.",
          "hintPrevOrder": "per each order what is the order it should be added after in ordered list. 0 for no hint.",
          "isAfterPrevOrder": "per each order, set true if should be added in list right after previous added order.",
          "isEthToToken": "per each order. is order x eth to token (= src is Eth) or vice versa.",
          "srcAmount": "per each order. source amount for order x."
        }
      },
      "getBalance(address,address)": {
        "details": "get the balance of a user.",
        "params": {
          "token": "The token type"
        },
        "return": "The balance"
      },
      "getEthToTokenMakerOrderIds(address)": {
        "details": "This function is not fully optimized gas wise. Consider before calling on chain."
      },
      "getEthToTokenOrderList()": {
        "details": "This function is not fully optimized gas wise. Consider before calling on chain."
      },
      "getTokenToEthMakerOrderIds(address)": {
        "details": "This function is not fully optimized gas wise. Consider before calling on chain."
      },
      "getTokenToEthOrderList()": {
        "details": "This function is not fully optimized gas wise. Consider before calling on chain."
      },
      "init()": {
        "details": "separate init function for this contract, if this init is in the C'tor. gas consumption too high."
      },
      "kncRateBlocksTrade()": {
        "details": "Each maker stakes per order KNC that is factor of the required burn amount.If Knc per Eth rate becomes lower by more then factor, stake will not be enough and trade will be blocked."
      },
      "submitEthToTokenOrder(uint128,uint128)": {
        "params": {
          "dstAmount": "is the token amount the maker expects to get for his Ether.",
          "srcAmount": "is the Ether amount that will be payed, must be deposited before hand."
        }
      },
      "submitTokenToEthOrder(uint128,uint128)": {
        "params": {
          "dstAmount": "is the eth amount the maker expects to get for his tokens.",
          "srcAmount": "is the token amount that will be payed. must be deposited before hand in the makers account."
        }
      }
    }
  },
  "userdoc": {
    "methods": {}
  }
}