{
  "contractName": "PermissionGroups",
  "abi": [
    {
      "constant": true,
      "inputs": [],
      "name": "pendingAdmin",
      "outputs": [
        {
          "name": "",
          "type": "address"
        }
      ],
      "payable": false,
      "stateMutability": "view",
      "type": "function"
    },
    {
      "constant": true,
      "inputs": [],
      "name": "admin",
      "outputs": [
        {
          "name": "",
          "type": "address"
        }
      ],
      "payable": false,
      "stateMutability": "view",
      "type": "function"
    },
    {
      "inputs": [],
      "payable": false,
      "stateMutability": "nonpayable",
      "type": "constructor"
    },
    {
      "anonymous": false,
      "inputs": [
        {
          "indexed": false,
          "name": "pendingAdmin",
          "type": "address"
        }
      ],
      "name": "TransferAdminPending",
      "type": "event"
    },
    {
      "anonymous": false,
      "inputs": [
        {
          "indexed": false,
          "name": "newAdmin",
          "type": "address"
        },
        {
          "indexed": false,
          "name": "previousAdmin",
          "type": "address"
        }
      ],
      "name": "AdminClaimed",
      "type": "event"
    },
    {
      "anonymous": false,
      "inputs": [
        {
          "indexed": false,
          "name": "newAlerter",
          "type": "address"
        },
        {
          "indexed": false,
          "name": "isAdd",
          "type": "bool"
        }
      ],
      "name": "AlerterAdded",
      "type": "event"
    },
    {
      "anonymous": false,
      "inputs": [
        {
          "indexed": false,
          "name": "newOperator",
          "type": "address"
        },
        {
          "indexed": false,
          "name": "isAdd",
          "type": "bool"
        }
      ],
      "name": "OperatorAdded",
      "type": "event"
    },
    {
      "constant": true,
      "inputs": [],
      "name": "getOperators",
      "outputs": [
        {
          "name": "",
          "type": "address[]"
        }
      ],
      "payable": false,
      "stateMutability": "view",
      "type": "function"
    },
    {
      "constant": true,
      "inputs": [],
      "name": "getAlerters",
      "outputs": [
        {
          "name": "",
          "type": "address[]"
        }
      ],
      "payable": false,
      "stateMutability": "view",
      "type": "function"
    },
    {
      "constant": false,
      "inputs": [
        {
          "name": "newAdmin",
          "type": "address"
        }
      ],
      "name": "transferAdmin",
      "outputs": [],
      "payable": false,
      "stateMutability": "nonpayable",
      "type": "function"
    },
    {
      "constant": false,
      "inputs": [
        {
          "name": "newAdmin",
          "type": "address"
        }
      ],
      "name": "transferAdminQuickly",
      "outputs": [],
      "payable": false,
      "stateMutability": "nonpayable",
      "type": "function"
    },
    {
      "constant": false,
      "inputs": [],
      "name": "claimAdmin",
      "outputs": [],
      "payable": false,
      "stateMutability": "nonpayable",
      "type": "function"
    },
    {
      "constant": false,
      "inputs": [
        {
          "name": "newAlerter",
          "type": "address"
        }
      ],
      "name": "addAlerter",
      "outputs": [],
      "payable": false,
      "stateMutability": "nonpayable",
      "type": "function"
    },
    {
      "constant": false,
      "inputs": [
        {
          "name": "alerter",
          "type": "address"
        }
      ],
      "name": "removeAlerter",
      "outputs": [],
      "payable": false,
      "stateMutability": "nonpayable",
      "type": "function"
    },
    {
      "constant": false,
      "inputs": [
        {
          "name": "newOperator",
          "type": "address"
        }
      ],
      "name": "addOperator",
      "outputs": [],
      "payable": false,
      "stateMutability": "nonpayable",
      "type": "function"
    },
    {
      "constant": false,
      "inputs": [
        {
          "name": "operator",
          "type": "address"
        }
      ],
      "name": "removeOperator",
      "outputs": [],
      "payable": false,
      "stateMutability": "nonpayable",
      "type": "function"
    }
  ],
  "bytecode": "0x608060405234801561001057600080fd5b5060008054600160a060020a03191633179055610a47806100326000396000f3006080604052600436106100ae5763ffffffff7c010000000000000000000000000000000000000000000000000000000060003504166301a12fd381146100b357806326782247146100d657806327a099d814610107578063408ee7fe1461016c57806375829def1461018d57806377f50f97146101ae5780637acc8678146101c35780637c423f54146101e45780639870d7fe146101f9578063ac8a584a1461021a578063f851a4401461023b575b600080fd5b3480156100bf57600080fd5b506100d4600160a060020a0360043516610250565b005b3480156100e257600080fd5b506100eb6103b9565b60408051600160a060020a039092168252519081900360200190f35b34801561011357600080fd5b5061011c6103c8565b60408051602080825283518183015283519192839290830191858101910280838360005b83811015610158578181015183820152602001610140565b505050509050019250505060405180910390f35b34801561017857600080fd5b506100d4600160a060020a036004351661042b565b34801561019957600080fd5b506100d4600160a060020a0360043516610521565b3480156101ba57600080fd5b506100d46105ae565b3480156101cf57600080fd5b506100d4600160a060020a0360043516610638565b3480156101f057600080fd5b5061011c61070a565b34801561020557600080fd5b506100d4600160a060020a036004351661076a565b34801561022657600080fd5b506100d4600160a060020a0360043516610860565b34801561024757600080fd5b506100eb6109c5565b60008054600160a060020a0316331461026857600080fd5b600160a060020a03821660009081526003602052604090205460ff16151561028f57600080fd5b50600160a060020a0381166000908152600360205260408120805460ff191690555b6005548110156103b55781600160a060020a03166005828154811015156102d457fe5b600091825260209091200154600160a060020a031614156103ad5760058054600019810190811061030157fe5b60009182526020909120015460058054600160a060020a03909216918390811061032757fe5b60009182526020909120018054600160a060020a031916600160a060020a039290921691909117905560058054906103639060001983016109d4565b5060408051600160a060020a03841681526000602082015281517f5611bf3e417d124f97bf2c788843ea8bb502b66079fbee02158ef30b172cb762929181900390910190a16103b5565b6001016102b1565b5050565b600154600160a060020a031681565b6060600480548060200260200160405190810160405280929190818152602001828054801561042057602002820191906000526020600020905b8154600160a060020a03168152600190910190602001808311610402575b505050505090505b90565b600054600160a060020a0316331461044257600080fd5b600160a060020a03811660009081526003602052604090205460ff161561046857600080fd5b60055460321161047757600080fd5b60408051600160a060020a03831681526001602082015281517f5611bf3e417d124f97bf2c788843ea8bb502b66079fbee02158ef30b172cb762929181900390910190a1600160a060020a03166000818152600360205260408120805460ff191660019081179091556005805491820181559091527f036b6384b5eca791c62761152d0c79bb0604c104a5fb6f4eb0703f3154bb3db0018054600160a060020a0319169091179055565b600054600160a060020a0316331461053857600080fd5b600160a060020a038116151561054d57600080fd5b60015460408051600160a060020a039092168252517f3b81caf78fa51ecbc8acb482fd7012a277b428d9b80f9d156e8a54107496cc409181900360200190a160018054600160a060020a031916600160a060020a0392909216919091179055565b600154600160a060020a031633146105c557600080fd5b60015460005460408051600160a060020a03938416815292909116602083015280517f65da1cfc2c2e81576ad96afb24a581f8e109b7a403b35cbd3243a1c99efdb9ed9281900390910190a16001805460008054600160a060020a0319908116600160a060020a03841617909155169055565b600054600160a060020a0316331461064f57600080fd5b600160a060020a038116151561066457600080fd5b60408051600160a060020a038316815290517f3b81caf78fa51ecbc8acb482fd7012a277b428d9b80f9d156e8a54107496cc409181900360200190a160005460408051600160a060020a038085168252909216602083015280517f65da1cfc2c2e81576ad96afb24a581f8e109b7a403b35cbd3243a1c99efdb9ed9281900390910190a160008054600160a060020a031916600160a060020a0392909216919091179055565b6060600580548060200260200160405190810160405280929190818152602001828054801561042057602002820191906000526020600020908154600160a060020a03168152600190910190602001808311610402575050505050905090565b600054600160a060020a0316331461078157600080fd5b600160a060020a03811660009081526002602052604090205460ff16156107a757600080fd5b6004546032116107b657600080fd5b60408051600160a060020a03831681526001602082015281517f091a7a4b85135fdd7e8dbc18b12fabe5cc191ea867aa3c2e1a24a102af61d58b929181900390910190a1600160a060020a03166000818152600260205260408120805460ff191660019081179091556004805491820181559091527f8a35acfbc15ff81a39ae7d344fd709f28e8600b4aa8c65c6b64bfe7fe36bd19b018054600160a060020a0319169091179055565b60008054600160a060020a0316331461087857600080fd5b600160a060020a03821660009081526002602052604090205460ff16151561089f57600080fd5b50600160a060020a0381166000908152600260205260408120805460ff191690555b6004548110156103b55781600160a060020a03166004828154811015156108e457fe5b600091825260209091200154600160a060020a031614156109bd5760048054600019810190811061091157fe5b60009182526020909120015460048054600160a060020a03909216918390811061093757fe5b60009182526020909120018054600160a060020a031916600160a060020a039290921691909117905560048054600019019061097390826109d4565b5060408051600160a060020a03841681526000602082015281517f091a7a4b85135fdd7e8dbc18b12fabe5cc191ea867aa3c2e1a24a102af61d58b929181900390910190a16103b5565b6001016108c1565b600054600160a060020a031681565b8154818355818111156109f8576000838152602090206109f89181019083016109fd565b505050565b61042891905b80821115610a175760008155600101610a03565b50905600a165627a7a72305820543d5682ac18e645d9af1722dcf376c58bb1785672fa3372bc3eb77fcabb1db20029",
  "source": "pragma solidity ^0.4.24;\n\ncontract PermissionGroups {\n\n    address public admin;\n    address public pendingAdmin;\n    mapping(address=>bool) internal operators;\n    mapping(address=>bool) internal alerters;\n    address[] internal operatorsGroup;\n    address[] internal alertersGroup;\n    uint constant internal MAX_GROUP_SIZE = 50;\n\n    constructor() public {\n        admin = msg.sender;\n    }\n\n    modifier onlyAdmin() {\n        require(msg.sender == admin);\n        _;\n    }\n\n    modifier onlyOperator() {\n        require(operators[msg.sender]);\n        _;\n    }\n\n    modifier onlyAlerter() {\n        require(alerters[msg.sender]);\n        _;\n    }\n\n    function getOperators () external view returns(address[]) {\n        return operatorsGroup;\n    }\n\n    function getAlerters () external view returns(address[]) {\n        return alertersGroup;\n    }\n\n    event TransferAdminPending(address pendingAdmin);\n\n    /**\n     * @dev Allows the current admin to set the pendingAdmin address.\n     * @param newAdmin The address to transfer ownership to.\n     */\n    function transferAdmin(address newAdmin) public onlyAdmin {\n        require(newAdmin != address(0));\n        emit TransferAdminPending(pendingAdmin);\n        pendingAdmin = newAdmin;\n    }\n\n    /**\n     * @dev Allows the current admin to set the admin in one tx. Useful initial deployment.\n     * @param newAdmin The address to transfer ownership to.\n     */\n    function transferAdminQuickly(address newAdmin) public onlyAdmin {\n        require(newAdmin != address(0));\n        emit TransferAdminPending(newAdmin);\n        emit AdminClaimed(newAdmin, admin);\n        admin = newAdmin;\n    }\n\n    event AdminClaimed( address newAdmin, address previousAdmin);\n\n    /**\n     * @dev Allows the pendingAdmin address to finalize the change admin process.\n     */\n    function claimAdmin() public {\n        require(pendingAdmin == msg.sender);\n        emit AdminClaimed(pendingAdmin, admin);\n        admin = pendingAdmin;\n        pendingAdmin = address(0);\n    }\n\n    event AlerterAdded (address newAlerter, bool isAdd);\n\n    function addAlerter(address newAlerter) public onlyAdmin {\n        require(!alerters[newAlerter]); // prevent duplicates.\n        require(alertersGroup.length < MAX_GROUP_SIZE);\n\n        emit AlerterAdded(newAlerter, true);\n        alerters[newAlerter] = true;\n        alertersGroup.push(newAlerter);\n    }\n\n    function removeAlerter (address alerter) public onlyAdmin {\n        require(alerters[alerter]);\n        alerters[alerter] = false;\n\n        for (uint i = 0; i < alertersGroup.length; ++i) {\n            if (alertersGroup[i] == alerter) {\n                alertersGroup[i] = alertersGroup[alertersGroup.length - 1];\n                alertersGroup.length--;\n                emit AlerterAdded(alerter, false);\n                break;\n            }\n        }\n    }\n\n    event OperatorAdded(address newOperator, bool isAdd);\n\n    function addOperator(address newOperator) public onlyAdmin {\n        require(!operators[newOperator]); // prevent duplicates.\n        require(operatorsGroup.length < MAX_GROUP_SIZE);\n\n        emit OperatorAdded(newOperator, true);\n        operators[newOperator] = true;\n        operatorsGroup.push(newOperator);\n    }\n\n    function removeOperator (address operator) public onlyAdmin {\n        require(operators[operator]);\n        operators[operator] = false;\n\n        for (uint i = 0; i < operatorsGroup.length; ++i) {\n            if (operatorsGroup[i] == operator) {\n                operatorsGroup[i] = operatorsGroup[operatorsGroup.length - 1];\n                operatorsGroup.length -= 1;\n                emit OperatorAdded(operator, false);\n                break;\n            }\n        }\n    }\n}\n",
  "sourcePath": "/home/peter/Documents/Work/MyBit/MyBit-Network.tech/contracts/kyber/PermissionGroups.sol",
  "compiler": {
    "name": "solc",
    "version": "0.4.24+commit.e67f0147.Emscripten.clang"
  },
  "schemaVersion": "3.0.2",
  "updatedAt": "2019-03-14T21:46:28.708Z",
  "devdoc": {
    "methods": {
      "claimAdmin()": {
        "details": "Allows the pendingAdmin address to finalize the change admin process."
      },
      "transferAdmin(address)": {
        "details": "Allows the current admin to set the pendingAdmin address.",
        "params": {
          "newAdmin": "The address to transfer ownership to."
        }
      },
      "transferAdminQuickly(address)": {
        "details": "Allows the current admin to set the admin in one tx. Useful initial deployment.",
        "params": {
          "newAdmin": "The address to transfer ownership to."
        }
      }
    }
  },
  "userdoc": {
    "methods": {}
  }
}