{
  "contractName": "Platform",
  "abi": [
    {
      "constant": true,
      "inputs": [],
      "name": "database",
      "outputs": [
        {
          "name": "",
          "type": "address"
        }
      ],
      "payable": false,
      "stateMutability": "view",
      "type": "function"
    },
    {
      "constant": true,
      "inputs": [],
      "name": "events",
      "outputs": [
        {
          "name": "",
          "type": "address"
        }
      ],
      "payable": false,
      "stateMutability": "view",
      "type": "function"
    },
    {
      "inputs": [
        {
          "name": "_database",
          "type": "address"
        },
        {
          "name": "_events",
          "type": "address"
        }
      ],
      "payable": false,
      "stateMutability": "nonpayable",
      "type": "constructor"
    },
    {
      "constant": false,
      "inputs": [
        {
          "name": "_walletAddress",
          "type": "address"
        }
      ],
      "name": "setPlatformWallet",
      "outputs": [],
      "payable": false,
      "stateMutability": "nonpayable",
      "type": "function"
    },
    {
      "constant": false,
      "inputs": [
        {
          "name": "_tokenAddress",
          "type": "address"
        }
      ],
      "name": "setPlatformToken",
      "outputs": [],
      "payable": false,
      "stateMutability": "nonpayable",
      "type": "function"
    },
    {
      "constant": false,
      "inputs": [
        {
          "name": "_percent",
          "type": "uint256"
        }
      ],
      "name": "setBurnrate",
      "outputs": [],
      "payable": false,
      "stateMutability": "nonpayable",
      "type": "function"
    },
    {
      "constant": false,
      "inputs": [],
      "name": "destroy",
      "outputs": [],
      "payable": false,
      "stateMutability": "nonpayable",
      "type": "function"
    }
  ],
  "bytecode": "0x608060405234801561001057600080fd5b50604051604080610b9983398101604052805160209091015160008054600160a060020a03938416600160a060020a03199182161790915560018054939092169216919091179055610b32806100676000396000f30060806040526004361061005e5763ffffffff60e060020a6000350416630255a03b8114610063578063713b563f1461008657806383197ef0146100b75780638831e9cf146100cc578063b5f8558c146100ed578063e3914a3914610102575b600080fd5b34801561006f57600080fd5b50610084600160a060020a036004351661011a565b005b34801561009257600080fd5b5061009b6103fb565b60408051600160a060020a039092168252519081900360200190f35b3480156100c357600080fd5b5061008461040a565b3480156100d857600080fd5b50610084600160a060020a03600435166105ea565b3480156100f957600080fd5b5061009b6108b0565b34801561010e57600080fd5b506100846004356108bf565b60005460408051600080516020610ae78339815191526020808301919091526c0100000000000000000000000033026025830152825160198184030181526039909201928390528151600160a060020a0390941693633b7bfda093918291908401908083835b6020831061019f5780518252601f199092019160209182019101610180565b51815160209384036101000a60001901801990921691161790526040805192909401829003822063ffffffff881660e060020a0283526004830152925160248083019650939450929083900301905081600087803b15801561020057600080fd5b505af1158015610214573d6000803e3d6000fd5b505050506040513d602081101561022a57600080fd5b5051151561023757600080fd5b600054604080517f706c6174666f726d2e746f6b656e0000000000000000000000000000000000006020808301919091528251808303600e018152602e909201928390528151600160a060020a039094169363ca446dd993918291908401908083835b602083106102b95780518252601f19909201916020918201910161029a565b5181516020939093036101000a60001901801990911692169190911790526040805191909301819003812063ffffffff871660e060020a0282526004820152600160a060020a0388166024820152915160448084019550600094509092839003019050818387803b15801561032d57600080fd5b505af1158015610341573d6000803e3d6000fd5b5050600154604080517fbb39cc3c000000000000000000000000000000000000000000000000000000008152600160a060020a03868116602483015260048201839052600e60448301527f506c6174666f726d20746f6b656e0000000000000000000000000000000000006064830152915191909216935063bb39cc3c9250608480830192600092919082900301818387803b1580156103e057600080fd5b505af11580156103f4573d6000803e3d6000fd5b5050505050565b600054600160a060020a031681565b60005460408051600080516020610ae78339815191526020808301919091526c0100000000000000000000000033026025830152825160198184030181526039909201928390528151600160a060020a0390941693633b7bfda093918291908401908083835b6020831061048f5780518252601f199092019160209182019101610470565b51815160209384036101000a60001901801990921691161790526040805192909401829003822063ffffffff881660e060020a0283526004830152925160248083019650939450929083900301905081600087803b1580156104f057600080fd5b505af1158015610504573d6000803e3d6000fd5b505050506040513d602081101561051a57600080fd5b5051151561052757600080fd5b600154604080517f68b96270000000000000000000000000000000000000000000000000000000008152306024820181905233604483015231606482015260a06004820152601760a48201527f506c6174666f726d46756e64732064657374726f79656400000000000000000060c48201529051600160a060020a03909216916368b962709160e48082019260009290919082900301818387803b1580156105ce57600080fd5b505af11580156105e2573d6000803e3d6000fd5b503392505050ff5b60005460408051600080516020610ae78339815191526020808301919091526c0100000000000000000000000033026025830152825160198184030181526039909201928390528151600160a060020a0390941693633b7bfda093918291908401908083835b6020831061066f5780518252601f199092019160209182019101610650565b51815160209384036101000a60001901801990921691161790526040805192909401829003822063ffffffff881660e060020a0283526004830152925160248083019650939450929083900301905081600087803b1580156106d057600080fd5b505af11580156106e4573d6000803e3d6000fd5b505050506040513d60208110156106fa57600080fd5b5051151561070757600080fd5b600054604080517f706c6174666f726d2e77616c6c657400000000000000000000000000000000006020808301919091528251808303600f018152602f909201928390528151600160a060020a039094169363ca446dd993918291908401908083835b602083106107895780518252601f19909201916020918201910161076a565b5181516020939093036101000a60001901801990911692169190911790526040805191909301819003812063ffffffff871660e060020a0282526004820152600160a060020a0388166024820152915160448084019550600094509092839003019050818387803b1580156107fd57600080fd5b505af1158015610811573d6000803e3d6000fd5b5050600154604080517fbb39cc3c000000000000000000000000000000000000000000000000000000008152600160a060020a03868116602483015260048201839052600f60448301527f506c6174666f726d2077616c6c657400000000000000000000000000000000006064830152915191909216935063bb39cc3c9250608480830192600092919082900301818387803b1580156103e057600080fd5b600154600160a060020a031681565b60005460408051600080516020610ae78339815191526020808301919091526c0100000000000000000000000033026025830152825160198184030181526039909201928390528151600160a060020a0390941693633b7bfda093918291908401908083835b602083106109445780518252601f199092019160209182019101610925565b51815160209384036101000a60001901801990921691161790526040805192909401829003822063ffffffff881660e060020a0283526004830152925160248083019650939450929083900301905081600087803b1580156109a557600080fd5b505af11580156109b9573d6000803e3d6000fd5b505050506040513d60208110156109cf57600080fd5b505115156109dc57600080fd5b6064811080156109ed575060008110155b15156109f857600080fd5b600054604080517f706c6174666f726d2e6275726e52617465000000000000000000000000000000602080830191909152825180830360110181526031909201928390528151600160a060020a039094169363e2a4853a93918291908401908083835b60208310610a7a5780518252601f199092019160209182019101610a5b565b5181516020939093036101000a60001901801990911692169190911790526040805191909301819003812063ffffffff871660e060020a028252600482015260248101889052915160448084019550600094509092839003019050818387803b1580156103e057600080fd006f776e6572000000000000000000000000000000000000000000000000000000a165627a7a723058208c09dc10540c6501ea675f74fa702a44426eeeed56b1b6176abe79274bdac4080029",
  "source": "pragma solidity ^0.4.24;\n\nimport '../database/Database.sol';\nimport '../database/Events.sol';\n\ncontract Platform {\n\n  Database public database;\n  Events public events;\n\n  // @notice initialize database\n  constructor(address _database, address _events)\n  public {\n    database = Database(_database);\n    events = Events(_events);\n  }\n\n  // @notice owners must set the wallet to receive payments here before initiating crowdsale\n  // @dev will overwrite old wallet address\n  function setPlatformWallet(address _walletAddress)\n  external\n  onlyOwner {\n    database.setAddress(keccak256(abi.encodePacked(\"platform.wallet\")), _walletAddress);\n    //emit LogPlatformWallet(_walletAddress);\n    events.registration('Platform wallet', _walletAddress);\n  }\n\n  // @notice\n  function setPlatformToken(address _tokenAddress)\n  external\n  onlyOwner {\n    //@dev Set the address for the platform token\n    database.setAddress(keccak256(abi.encodePacked(\"platform.token\")), _tokenAddress);\n    events.registration('Platform token', _tokenAddress);\n  }\n\n  function setBurnrate(uint _percent)\n  external\n  onlyOwner {\n    require(_percent < 100 && _percent >= 0);\n    database.setUint(keccak256(abi.encodePacked(\"platform.burnRate\")), _percent);\n  }\n\n  // @notice platform owners can destroy contract here\n  function destroy()\n  onlyOwner\n  external {\n    events.transaction('PlatformFunds destroyed', address(this), msg.sender, address(this).balance, '');\n    selfdestruct(msg.sender);\n  }\n\n  //////////////////////////////////////////////////////////////////////////////////////////////////////////////////////////////////\n  //                                                Modifiers                                                                     //\n  //////////////////////////////////////////////////////////////////////////////////////////////////////////////////////////////////\n\n  // @notice Sender must be a registered owner\n  modifier onlyOwner {\n    require(database.boolStorage(keccak256(abi.encodePacked(\"owner\", msg.sender))));\n    _;\n  }\n\n\n\n\n\n\n}\n",
  "sourcePath": "/home/peter/Documents/Work/MyBit/MyBit-Network.tech/contracts/ecosystem/Platform.sol",
  "compiler": {
    "name": "solc",
    "version": "0.4.24+commit.e67f0147.Emscripten.clang"
  },
  "schemaVersion": "3.0.1",
  "updatedAt": "2019-03-13T22:36:34.188Z",
  "devdoc": {
    "methods": {}
  },
  "userdoc": {
    "methods": {}
  }
}