{
  "contractName": "Platform",
  "abi": [
    {
      "constant": true,
      "inputs": [],
      "name": "database",
      "outputs": [
        {
          "name": "",
          "type": "address"
        }
      ],
      "payable": false,
      "stateMutability": "view",
      "type": "function"
    },
    {
      "constant": true,
      "inputs": [],
      "name": "events",
      "outputs": [
        {
          "name": "",
          "type": "address"
        }
      ],
      "payable": false,
      "stateMutability": "view",
      "type": "function"
    },
    {
      "inputs": [
        {
          "name": "_database",
          "type": "address"
        },
        {
          "name": "_events",
          "type": "address"
        }
      ],
      "payable": false,
      "stateMutability": "nonpayable",
      "type": "constructor"
    },
    {
      "constant": false,
      "inputs": [
        {
          "name": "_walletAddress",
          "type": "address"
        }
      ],
      "name": "setPlatformWallet",
      "outputs": [],
      "payable": false,
      "stateMutability": "nonpayable",
      "type": "function"
    },
    {
      "constant": false,
      "inputs": [
        {
          "name": "_tokenAddress",
          "type": "address"
        }
      ],
      "name": "setPlatformToken",
      "outputs": [],
      "payable": false,
      "stateMutability": "nonpayable",
      "type": "function"
    },
    {
      "constant": false,
      "inputs": [
        {
          "name": "_percent",
          "type": "uint256"
        }
      ],
      "name": "setPlatformFee",
      "outputs": [],
      "payable": false,
      "stateMutability": "nonpayable",
      "type": "function"
    },
    {
      "constant": false,
      "inputs": [
        {
          "name": "_percent",
          "type": "uint256"
        }
      ],
      "name": "setPlatformPercentage",
      "outputs": [],
      "payable": false,
      "stateMutability": "nonpayable",
      "type": "function"
    },
    {
      "constant": false,
      "inputs": [
        {
          "name": "_percent",
          "type": "uint256"
        }
      ],
      "name": "setBurnrate",
      "outputs": [],
      "payable": false,
      "stateMutability": "nonpayable",
      "type": "function"
    },
    {
      "constant": false,
      "inputs": [],
      "name": "destroy",
      "outputs": [],
      "payable": false,
      "stateMutability": "nonpayable",
      "type": "function"
    }
  ],
  "bytecode": "0x608060405234801561001057600080fd5b50604051604080610eef83398101604052805160209091015160008054600160a060020a03938416600160a060020a03199182161790915560018054939092169216919091179055610e88806100676000396000f3006080604052600436106100745763ffffffff60e060020a6000350416630255a03b811461007957806312e8e2c31461009c57806314d39bad146100b4578063713b563f146100cc57806383197ef0146100fd5780638831e9cf14610112578063b5f8558c14610133578063e3914a3914610148575b600080fd5b34801561008557600080fd5b5061009a600160a060020a0360043516610160565b005b3480156100a857600080fd5b5061009a60043561043e565b3480156100c057600080fd5b5061009a600435610646565b3480156100d857600080fd5b506100e16107e1565b60408051600160a060020a039092168252519081900360200190f35b34801561010957600080fd5b5061009a6107f0565b34801561011e57600080fd5b5061009a600160a060020a03600435166109d3565b34801561013f57600080fd5b506100e1610c96565b34801561015457600080fd5b5061009a600435610ca5565b6000546040805160d960020a6437bbb732b9026020808301919091526c0100000000000000000000000033026025830152825160198184030181526039909201928390528151600160a060020a0390941693633b7bfda093918291908401908083835b602083106101e25780518252601f1990920191602091820191016101c3565b51815160209384036101000a60001901801990921691161790526040805192909401829003822063ffffffff881660e060020a0283526004830152925160248083019650939450929083900301905081600087803b15801561024357600080fd5b505af1158015610257573d6000803e3d6000fd5b505050506040513d602081101561026d57600080fd5b5051151561027a57600080fd5b600054604080517f706c6174666f726d2e746f6b656e0000000000000000000000000000000000006020808301919091528251808303600e018152602e909201928390528151600160a060020a039094169363ca446dd993918291908401908083835b602083106102fc5780518252601f1990920191602091820191016102dd565b5181516020939093036101000a60001901801990911692169190911790526040805191909301819003812063ffffffff871660e060020a0282526004820152600160a060020a0388166024820152915160448084019550600094509092839003019050818387803b15801561037057600080fd5b505af1158015610384573d6000803e3d6000fd5b5050600154604080517fbb39cc3c000000000000000000000000000000000000000000000000000000008152600160a060020a03868116602483015260048201839052600e60448301527f506c6174666f726d20746f6b656e0000000000000000000000000000000000006064830152915191909216935063bb39cc3c9250608480830192600092919082900301818387803b15801561042357600080fd5b505af1158015610437573d6000803e3d6000fd5b5050505050565b6000546040805160d960020a6437bbb732b9026020808301919091526c0100000000000000000000000033026025830152825160198184030181526039909201928390528151600160a060020a0390941693633b7bfda093918291908401908083835b602083106104c05780518252601f1990920191602091820191016104a1565b51815160209384036101000a60001901801990921691161790526040805192909401829003822063ffffffff881660e060020a0283526004830152925160248083019650939450929083900301905081600087803b15801561052157600080fd5b505af1158015610535573d6000803e3d6000fd5b505050506040513d602081101561054b57600080fd5b5051151561055857600080fd5b600054604080517f706c6174666f726d2e66656500000000000000000000000000000000000000006020808301919091528251808303600c018152602c909201928390528151600160a060020a039094169363e2a4853a93918291908401908083835b602083106105da5780518252601f1990920191602091820191016105bb565b5181516020939093036101000a60001901801990911692169190911790526040805191909301819003812063ffffffff871660e060020a028252600482015260248101889052915160448084019550600094509092839003019050818387803b15801561042357600080fd5b6000546040805160d960020a6437bbb732b9026020808301919091526c0100000000000000000000000033026025830152825160198184030181526039909201928390528151600160a060020a0390941693633b7bfda093918291908401908083835b602083106106c85780518252601f1990920191602091820191016106a9565b51815160209384036101000a60001901801990921691161790526040805192909401829003822063ffffffff881660e060020a0283526004830152925160248083019650939450929083900301905081600087803b15801561072957600080fd5b505af115801561073d573d6000803e3d6000fd5b505050506040513d602081101561075357600080fd5b5051151561076057600080fd5b600054604080517f706c6174666f726d2e70657263656e7461676500000000000000000000000000602080830191909152825180830360130181526033909201928390528151600160a060020a039094169363e2a4853a9391829190840190808383602083106105da5780518252601f1990920191602091820191016105bb565b600054600160a060020a031681565b6000546040805160d960020a6437bbb732b9026020808301919091526c0100000000000000000000000033026025830152825160198184030181526039909201928390528151600160a060020a0390941693633b7bfda093918291908401908083835b602083106108725780518252601f199092019160209182019101610853565b51815160209384036101000a60001901801990921691161790526040805192909401829003822063ffffffff881660e060020a0283526004830152925160248083019650939450929083900301905081600087803b1580156108d357600080fd5b505af11580156108e7573d6000803e3d6000fd5b505050506040513d60208110156108fd57600080fd5b5051151561090a57600080fd5b600154604080517f42b425aa000000000000000000000000000000000000000000000000000000008152306024820181905233604483015231606482015260006084820181905260a06004830152601760a48301527f506c6174666f726d46756e64732064657374726f79656400000000000000000060c48301529151600160a060020a03909316926342b425aa9260e48084019391929182900301818387803b1580156109b757600080fd5b505af11580156109cb573d6000803e3d6000fd5b503392505050ff5b6000546040805160d960020a6437bbb732b9026020808301919091526c0100000000000000000000000033026025830152825160198184030181526039909201928390528151600160a060020a0390941693633b7bfda093918291908401908083835b60208310610a555780518252601f199092019160209182019101610a36565b51815160209384036101000a60001901801990921691161790526040805192909401829003822063ffffffff881660e060020a0283526004830152925160248083019650939450929083900301905081600087803b158015610ab657600080fd5b505af1158015610aca573d6000803e3d6000fd5b505050506040513d6020811015610ae057600080fd5b50511515610aed57600080fd5b600054604080517f706c6174666f726d2e77616c6c657400000000000000000000000000000000006020808301919091528251808303600f018152602f909201928390528151600160a060020a039094169363ca446dd993918291908401908083835b60208310610b6f5780518252601f199092019160209182019101610b50565b5181516020939093036101000a60001901801990911692169190911790526040805191909301819003812063ffffffff871660e060020a0282526004820152600160a060020a0388166024820152915160448084019550600094509092839003019050818387803b158015610be357600080fd5b505af1158015610bf7573d6000803e3d6000fd5b5050600154604080517fbb39cc3c000000000000000000000000000000000000000000000000000000008152600160a060020a03868116602483015260048201839052600f60448301527f506c6174666f726d2077616c6c657400000000000000000000000000000000006064830152915191909216935063bb39cc3c9250608480830192600092919082900301818387803b15801561042357600080fd5b600154600160a060020a031681565b6000546040805160d960020a6437bbb732b9026020808301919091526c0100000000000000000000000033026025830152825160198184030181526039909201928390528151600160a060020a0390941693633b7bfda093918291908401908083835b60208310610d275780518252601f199092019160209182019101610d08565b51815160209384036101000a60001901801990921691161790526040805192909401829003822063ffffffff881660e060020a0283526004830152925160248083019650939450929083900301905081600087803b158015610d8857600080fd5b505af1158015610d9c573d6000803e3d6000fd5b505050506040513d6020811015610db257600080fd5b50511515610dbf57600080fd5b606481108015610dd0575060008110155b1515610ddb57600080fd5b600054604080517f706c6174666f726d2e6275726e52617465000000000000000000000000000000602080830191909152825180830360110181526031909201928390528151600160a060020a039094169363e2a4853a9391829190840190808383602083106105da5780518252601f1990920191602091820191016105bb5600a165627a7a723058200d6a3f34fd98bbc1c9edf4a7678e962e9427acb0bb288eb17785d5ea33bd0c9c0029",
  "source": "pragma solidity ^0.4.24;\n\nimport '../database/Database.sol';\nimport '../database/Events.sol';\n\ncontract Platform {\n\n  Database public database;\n  Events public events;\n\n  // @notice initialize database\n  constructor(address _database, address _events)\n  public {\n    database = Database(_database);\n    events = Events(_events);\n  }\n\n  // @notice owners must set the wallet to receive payments here before initiating crowdsale\n  // @dev will overwrite old wallet address\n  function setPlatformWallet(address _walletAddress)\n  external\n  onlyOwner {\n    database.setAddress(keccak256(abi.encodePacked(\"platform.wallet\")), _walletAddress);\n    //emit LogPlatformWallet(_walletAddress);\n    events.registration('Platform wallet', _walletAddress);\n  }\n\n  // @notice\n  function setPlatformToken(address _tokenAddress)\n  external\n  onlyOwner {\n    //@dev Set the address for the platform token\n    database.setAddress(keccak256(abi.encodePacked(\"platform.token\")), _tokenAddress);\n    events.registration('Platform token', _tokenAddress);\n  }\n\n  function setPlatformFee(uint _percent)\n  external\n  onlyOwner {\n    database.setUint(keccak256(abi.encodePacked(\"platform.fee\")), _percent);\n  }\n\n  function setPlatformPercentage(uint _percent)\n  external\n  onlyOwner {\n    database.setUint(keccak256(abi.encodePacked(\"platform.percentage\")), _percent);\n  }\n\n  function setBurnrate(uint _percent)\n  external\n  onlyOwner {\n    require(_percent < 100 && _percent >= 0);\n    database.setUint(keccak256(abi.encodePacked(\"platform.burnRate\")), _percent);\n  }\n\n  // @notice platform owners can destroy contract here\n  function destroy()\n  onlyOwner\n  external {\n    events.transaction('PlatformFunds destroyed', address(this), msg.sender, address(this).balance, address(0));\n    selfdestruct(msg.sender);\n  }\n\n  //////////////////////////////////////////////////////////////////////////////////////////////////////////////////////////////////\n  //                                                Modifiers                                                                     //\n  //////////////////////////////////////////////////////////////////////////////////////////////////////////////////////////////////\n\n  // @notice Sender must be a registered owner\n  modifier onlyOwner {\n    require(database.boolStorage(keccak256(abi.encodePacked(\"owner\", msg.sender))));\n    _;\n  }\n\n\n\n\n\n\n}\n",
  "sourcePath": "/home/peter/Documents/Work/MyBit/MyBit-Network.tech/contracts/ecosystem/Platform.sol",
  "compiler": {
    "name": "solc",
    "version": "0.4.24+commit.e67f0147.Emscripten.clang"
  },
  "schemaVersion": "3.0.2",
  "updatedAt": "2019-04-08T19:44:50.225Z",
  "devdoc": {
    "methods": {}
  },
  "userdoc": {
    "methods": {}
  }
}