{
  "contractName": "Proposals",
  "abi": [
    {
      "constant": true,
      "inputs": [],
      "name": "db",
      "outputs": [
        {
          "name": "",
          "type": "address"
        }
      ],
      "payable": false,
      "stateMutability": "view",
      "type": "function"
    },
    {
      "constant": true,
      "inputs": [],
      "name": "events",
      "outputs": [
        {
          "name": "",
          "type": "address"
        }
      ],
      "payable": false,
      "stateMutability": "view",
      "type": "function"
    },
    {
      "inputs": [
        {
          "name": "database",
          "type": "address"
        },
        {
          "name": "logs",
          "type": "address"
        }
      ],
      "payable": false,
      "stateMutability": "nonpayable",
      "type": "constructor"
    },
    {
      "anonymous": false,
      "inputs": [
        {
          "indexed": true,
          "name": "proposalID",
          "type": "bytes32"
        },
        {
          "indexed": true,
          "name": "account",
          "type": "address"
        },
        {
          "indexed": false,
          "name": "vote",
          "type": "uint256"
        }
      ],
      "name": "Approve",
      "type": "event"
    },
    {
      "anonymous": false,
      "inputs": [
        {
          "indexed": true,
          "name": "proposalID",
          "type": "bytes32"
        },
        {
          "indexed": true,
          "name": "account",
          "type": "address"
        },
        {
          "indexed": false,
          "name": "vote",
          "type": "uint256"
        }
      ],
      "name": "Decline",
      "type": "event"
    },
    {
      "anonymous": false,
      "inputs": [
        {
          "indexed": true,
          "name": "proposer",
          "type": "address"
        },
        {
          "indexed": false,
          "name": "proposalID",
          "type": "bytes32"
        }
      ],
      "name": "Propose",
      "type": "event"
    },
    {
      "anonymous": false,
      "inputs": [
        {
          "indexed": false,
          "name": "proposalID",
          "type": "bytes32"
        },
        {
          "indexed": false,
          "name": "contractAddress",
          "type": "address"
        },
        {
          "indexed": false,
          "name": "methodID",
          "type": "bytes4"
        },
        {
          "indexed": false,
          "name": "parameterHash",
          "type": "bytes32"
        }
      ],
      "name": "ProposalDetails",
      "type": "event"
    },
    {
      "constant": false,
      "inputs": [
        {
          "name": "token",
          "type": "address"
        },
        {
          "name": "executingContract",
          "type": "address"
        },
        {
          "name": "methodID",
          "type": "bytes4"
        },
        {
          "name": "parameterHash",
          "type": "bytes32"
        }
      ],
      "name": "propose",
      "outputs": [],
      "payable": false,
      "stateMutability": "nonpayable",
      "type": "function"
    },
    {
      "constant": false,
      "inputs": [
        {
          "name": "proposalID",
          "type": "bytes32"
        }
      ],
      "name": "approve",
      "outputs": [
        {
          "name": "",
          "type": "bool"
        }
      ],
      "payable": false,
      "stateMutability": "nonpayable",
      "type": "function"
    },
    {
      "constant": false,
      "inputs": [
        {
          "name": "proposalID",
          "type": "bytes32"
        }
      ],
      "name": "decline",
      "outputs": [
        {
          "name": "",
          "type": "bool"
        }
      ],
      "payable": false,
      "stateMutability": "nonpayable",
      "type": "function"
    },
    {
      "constant": false,
      "inputs": [
        {
          "name": "proposalID",
          "type": "bytes32"
        },
        {
          "name": "voters",
          "type": "address[]"
        }
      ],
      "name": "removeProposalVoters",
      "outputs": [
        {
          "name": "",
          "type": "bool"
        }
      ],
      "payable": false,
      "stateMutability": "nonpayable",
      "type": "function"
    },
    {
      "constant": true,
      "inputs": [
        {
          "name": "account",
          "type": "address"
        },
        {
          "name": "token",
          "type": "address"
        }
      ],
      "name": "hasCommitted",
      "outputs": [
        {
          "name": "",
          "type": "uint256"
        }
      ],
      "payable": false,
      "stateMutability": "view",
      "type": "function"
    },
    {
      "constant": true,
      "inputs": [
        {
          "name": "proposalID",
          "type": "bytes32"
        }
      ],
      "name": "proposalOpen",
      "outputs": [
        {
          "name": "open",
          "type": "bool"
        }
      ],
      "payable": false,
      "stateMutability": "view",
      "type": "function"
    },
    {
      "constant": true,
      "inputs": [
        {
          "name": "proposalID",
          "type": "bytes32"
        }
      ],
      "name": "hasConsensus",
      "outputs": [
        {
          "name": "",
          "type": "bool"
        }
      ],
      "payable": false,
      "stateMutability": "view",
      "type": "function"
    }
  ],
  "bytecode": "0x608060405234801561001057600080fd5b5060405160408061316983398101604052805160209091015160008054600160a060020a03938416600160a060020a03199182161790915560018054939092169216919091179055613102806100676000396000f30060806040526004361061007f5763ffffffff60e060020a60003504166315ee713f81146100845780631c597c83146100d25780633e7c1453146100fe5780634d655aff146101165780638cc7d3d114610147578063a53a1adf1461015f578063b5f8558c14610177578063caa508401461018c578063ded91c1c146101c5575b600080fd5b34801561009057600080fd5b506100d0600160a060020a03600435811690602435167bffffffffffffffffffffffffffffffffffffffffffffffffffffffff19604435166064356101e9565b005b3480156100de57600080fd5b506100ea600435610736565b604080519115158252519081900360200190f35b34801561010a57600080fd5b506100ea600435610df9565b34801561012257600080fd5b5061012b611193565b60408051600160a060020a039092168252519081900360200190f35b34801561015357600080fd5b506100ea6004356111a2565b34801561016b57600080fd5b506100ea600435611787565b34801561018357600080fd5b5061012b611d6c565b34801561019857600080fd5b506101b3600160a060020a0360043581169060243516611d7b565b60408051918252519081900360200190f35b3480156101d157600080fd5b506100ea600480359060248035908101910135611eaa565b6000806101f63387611d7b565b1161024b576040805160e560020a62461bcd02815260206004820152601660248201527f7573657220686173206e6f20636f6d6d69746d656e7400000000000000000000604482015290519081900360640190fd5b60408051600160a060020a03878116606060020a9081026020808501919091529188160260348301527bffffffffffffffffffffffffffffffffffffffffffffffffffffffff1986166048830152604c80830186905283518084039091018152606c90920192839052815191929182918401908083835b602083106102e15780518252601f1990920191602091820191016102c2565b6001836020036101000a0380198251168184511680821785525050505050509050019150506040518091039020905061031981610df9565b1561036e576040805160e560020a62461bcd02815260206004820152601860248201527f70726f706f73616c20697320616c7265616479206f70656e0000000000000000604482015290519081900360640190fd5b600054604080517f70726f706f73616c2e7374617274000000000000000000000000000000000000602080830191909152602e80830186905283518084039091018152604e909201928390528151600160a060020a039094169363e2a4853a93918291908401908083835b602083106103f85780518252601f1990920191602091820191016103d9565b5181516020939093036101000a60001901801990911692169190911790526040805191909301819003812063ffffffff871660e060020a0282526004820152426024820152915160448084019550600094509092839003019050818387803b15801561046357600080fd5b505af1158015610477573d6000803e3d6000fd5b5050600054604080516000805160206130b7833981519152602080830191909152602e80830188905283518084039091018152604e909201928390528151600160a060020a03909416955063ca446dd99450909282918401908083835b602083106104f35780518252601f1990920191602091820191016104d4565b5181516020939093036101000a60001901801990911692169190911790526040805191909301819003812063ffffffff871660e060020a0282526004820152600160a060020a038c166024820152915160448084019550600094509092839003019050818387803b15801561056757600080fd5b505af115801561057b573d6000803e3d6000fd5b5050600054604080517f70726f706f73616c2e696e69746961746f7200000000000000000000000000006020808301919091526032808301889052835180840390910181526052909201928390528151600160a060020a03909416955063ca446dd99450909282918401908083835b602083106106095780518252601f1990920191602091820191016105ea565b5181516020939093036101000a60001901801990911692169190911790526040805191909301819003812063ffffffff871660e060020a0282526004820152336024820152915160448084019550600094509092839003019050818387803b15801561067457600080fd5b505af1158015610688573d6000803e3d6000fd5b50506040805184815290513393507f4a39ce763309f508271afaac253977439677efce679f6cd586a301d92e357d7192509081900360200190a260408051828152600160a060020a03861660208201527bffffffffffffffffffffffffffffffffffffffffffffffffffffffff198516818301526060810184905290517f1b1647be83e65c7a3b9046d1feafd391a3b990af41dbd4c907ad7fc49c66227b9181900360800190a15050505050565b60008054604080516000805160206130b7833981519152602080830191909152602e80830187905283518084039091018152604e90920192839052815185948594859485948594859485948594600160a060020a03909216936304f49a3a9382918401908083835b602083106107bd5780518252601f19909201916020918201910161079e565b51815160209384036101000a60001901801990921691161790526040805192909401829003822063ffffffff881660e060020a0283526004830152925160248083019650939450929083900301905081600087803b15801561081e57600080fd5b505af1158015610832573d6000803e3d6000fd5b505050506040513d602081101561084857600080fd5b5051604080517f18160ddd0000000000000000000000000000000000000000000000000000000081529051919950600160a060020a038a16916318160ddd916004808201926020929091908290030181600087803b1580156108a957600080fd5b505af11580156108bd573d6000803e3d6000fd5b505050506040513d60208110156108d357600080fd5b810190808051906020019092919050505096506000809054906101000a9004600160a060020a0316600160a060020a031663a855d4ce8b604051602001808060008051602061309783398151915281525060120182600019166000191681526020019150506040516020818303038152906040526040518082805190602001908083835b602083106109765780518252601f199092019160209182019101610957565b51815160209384036101000a60001901801990921691161790526040805192909401829003822063ffffffff881660e060020a0283526004830152925160248083019650939450929083900301905081600087803b1580156109d757600080fd5b505af11580156109eb573d6000803e3d6000fd5b505050506040513d6020811015610a0157600080fd5b810190808051906020019092919050505095506000809054906101000a9004600160a060020a0316600160a060020a031663a855d4ce8b60405160200180807f70726f706f73616c2e617070726f76616c00000000000000000000000000000081525060110182600019166000191681526020019150506040516020818303038152906040526040518082805190602001908083835b60208310610ab65780518252601f199092019160209182019101610a97565b51815160209384036101000a60001901801990921691161790526040805192909401829003822063ffffffff881660e060020a0283526004830152925160248083019650939450929083900301905081600087803b158015610b1757600080fd5b505af1158015610b2b573d6000803e3d6000fd5b505050506040513d6020811015610b4157600080fd5b50519450861580610b50575085155b15610b5e5760009850610dec565b610b7f87610b7388606463ffffffff61268816565b9063ffffffff6126be16565b9350610b9686610b7387606463ffffffff61268816565b600054604080517f61737365742e71756f72756d0000000000000000000000000000000000000000602080830191909152600160a060020a038d8116606060020a02602c8401528351808403830181529284019384905282519598509093169363a855d4ce939192918291908401908083835b60208310610c285780518252601f199092019160209182019101610c09565b51815160209384036101000a60001901801990921691161790526040805192909401829003822063ffffffff881660e060020a0283526004830152925160248083019650939450929083900301905081600087803b158015610c8957600080fd5b505af1158015610c9d573d6000803e3d6000fd5b505050506040513d6020811015610cb357600080fd5b5051600054604080517f61737365742e7468726573686f6c640000000000000000000000000000000000602080830191909152600160a060020a038d8116606060020a02602f840152835180840360230181526043909301938490528251958a101597509093169363a855d4ce939192918291908401908083835b60208310610d4d5780518252601f199092019160209182019101610d2e565b51815160209384036101000a60001901801990921691161790526040805192909401829003822063ffffffff881660e060020a0283526004830152925160248083019650939450929083900301905081600087803b158015610dae57600080fd5b505af1158015610dc2573d6000803e3d6000fd5b505050506040513d6020811015610dd857600080fd5b50518310159050818015610de95750805b98505b5050505050505050919050565b60008054604080516000805160206130b7833981519152602080830191909152602e80830187905283518084039091018152604e909201928390528151859485948594600160a060020a03909216936304f49a3a9382918401908083835b60208310610e765780518252601f199092019160209182019101610e57565b51815160209384036101000a60001901801990921691161790526040805192909401829003822063ffffffff881660e060020a0283526004830152925160248083019650939450929083900301905081600087803b158015610ed757600080fd5b505af1158015610eeb573d6000803e3d6000fd5b505050506040513d6020811015610f0157600080fd5b5051600054604080517f61737365742e766f74656475726174696f6e0000000000000000000000000000602080830191909152600160a060020a03808616606060020a0260328401528351808403602601815260469093019384905282519598509093169363a855d4ce939192918291908401908083835b60208310610f985780518252601f199092019160209182019101610f79565b51815160209384036101000a60001901801990921691161790526040805192909401829003822063ffffffff881660e060020a0283526004830152925160248083019650939450929083900301905081600087803b158015610ff957600080fd5b505af115801561100d573d6000803e3d6000fd5b505050506040513d602081101561102357600080fd5b5051600054604080517f70726f706f73616c2e7374617274000000000000000000000000000000000000602082810191909152602e8083018b905283518084039091018152604e909201928390528151949650600160a060020a039093169363a855d4ce939192918291908401908083835b602083106110b45780518252601f199092019160209182019101611095565b51815160209384036101000a60001901801990921691161790526040805192909401829003822063ffffffff881660e060020a0283526004830152925160248083019650939450929083900301905081600087803b15801561111557600080fd5b505af1158015611129573d6000803e3d6000fd5b505050506040513d602081101561113f57600080fd5b50519050600081111561118657600082111561117b5781611166428363ffffffff6126d316565b111580156111745750428111155b935061118b565b42811115935061118b565b600093505b505050919050565b600054600160a060020a031681565b60008054604080516000805160206130b7833981519152602080830191909152602e80830187905283518084039091018152604e90920192839052815185948594859485948594600160a060020a03909416936304f49a3a93918291908401908083835b602083106112255780518252601f199092019160209182019101611206565b51815160209384036101000a60001901801990921691161790526040805192909401829003822063ffffffff881660e060020a0283526004830152925160248083019650939450929083900301905081600087803b15801561128657600080fd5b505af115801561129a573d6000803e3d6000fd5b505050506040513d60208110156112b057600080fd5b5051945060006112c03387611d7b565b11611315576040805160e560020a62461bcd02815260206004820152601360248201527f436f6d6d69746d656e7420726571756972656400000000000000000000000000604482015290519081900360640190fd5b61131e87610df9565b1515611374576040805160e560020a62461bcd02815260206004820152601660248201527f4f70656e2070726f706f73616c20726571756972656400000000000000000000604482015290519081900360640190fd5b61137f8786336126e5565b604080517f70726f706f73616c2e64697373656e740000000000000000000000000000000060208083019190915260308083018c9052835180840390910181526050909201928390528151939750909282918401908083835b602083106113f75780518252601f1990920191602091820191016113d8565b51815160209384036101000a6000190180199092169116179052604080519290940182900382206000805460e160020a63542aea67028552600485018390529551919a50600160a060020a03909516965063a855d4ce955060248084019592945090928390030190829087803b15801561147057600080fd5b505af1158015611484573d6000803e3d6000fd5b505050506040513d602081101561149a57600080fd5b5051600054909250600160a060020a031663e2a4853a846114c1858863ffffffff612b6d16565b6040518363ffffffff1660e060020a02815260040180836000191660001916815260200182815260200192505050600060405180830381600087803b15801561150957600080fd5b505af115801561151d573d6000803e3d6000fd5b50506000546040805160008051602061309783398151915260208083019190915260328083018e9052835180840390910181526052909201928390528151600160a060020a03909416955063a855d4ce9450909282918401908083835b602083106115995780518252601f19909201916020918201910161157a565b51815160209384036101000a60001901801990921691161790526040805192909401829003822063ffffffff881660e060020a0283526004830152925160248083019650939450929083900301905081600087803b1580156115fa57600080fd5b505af115801561160e573d6000803e3d6000fd5b505050506040513d602081101561162457600080fd5b50516000546040805160008051602061309783398151915260208281019190915260328083018d9052835180840390910181526052909201928390528151949550600160a060020a039093169363e2a4853a939192918291908401908083835b602083106116a35780518252601f199092019160209182019101611684565b6001836020036101000a03801982511681845116808217855250505050505090500191505060405180910390206116e38785612b6d90919063ffffffff16565b6040518363ffffffff1660e060020a02815260040180836000191660001916815260200182815260200192505050600060405180830381600087803b15801561172b57600080fd5b505af115801561173f573d6000803e3d6000fd5b50506040805187815290513393508a92507f68ffdaa739e1c2bdf275e04da29fa3da23ec7d0c2b2e26a9619465e58139bc229181900360200190a35060019695505050505050565b60008054604080516000805160206130b7833981519152602080830191909152602e80830187905283518084039091018152604e90920192839052815185948594859485948594600160a060020a03909416936304f49a3a93918291908401908083835b6020831061180a5780518252601f1990920191602091820191016117eb565b51815160209384036101000a60001901801990921691161790526040805192909401829003822063ffffffff881660e060020a0283526004830152925160248083019650939450929083900301905081600087803b15801561186b57600080fd5b505af115801561187f573d6000803e3d6000fd5b505050506040513d602081101561189557600080fd5b5051945060006118a53387611d7b565b116118fa576040805160e560020a62461bcd02815260206004820152601360248201527f436f6d6d69746d656e7420726571756972656400000000000000000000000000604482015290519081900360640190fd5b61190387610df9565b1515611959576040805160e560020a62461bcd02815260206004820152601660248201527f4f70656e2070726f706f73616c20726571756972656400000000000000000000604482015290519081900360640190fd5b6119648786336126e5565b604080517f70726f706f73616c2e617070726f76616c00000000000000000000000000000060208083019190915260318083018c9052835180840390910181526051909201928390528151939750909282918401908083835b602083106119dc5780518252601f1990920191602091820191016119bd565b51815160209384036101000a6000190180199092169116179052604080519290940182900382206000805460e160020a63542aea67028552600485018390529551919a50600160a060020a03909516965063a855d4ce955060248084019592945090928390030190829087803b158015611a5557600080fd5b505af1158015611a69573d6000803e3d6000fd5b505050506040513d6020811015611a7f57600080fd5b5051600054909250600160a060020a031663e2a4853a84611aa6858863ffffffff612b6d16565b6040518363ffffffff1660e060020a02815260040180836000191660001916815260200182815260200192505050600060405180830381600087803b158015611aee57600080fd5b505af1158015611b02573d6000803e3d6000fd5b50506000546040805160008051602061309783398151915260208083019190915260328083018e9052835180840390910181526052909201928390528151600160a060020a03909416955063a855d4ce9450909282918401908083835b60208310611b7e5780518252601f199092019160209182019101611b5f565b51815160209384036101000a60001901801990921691161790526040805192909401829003822063ffffffff881660e060020a0283526004830152925160248083019650939450929083900301905081600087803b158015611bdf57600080fd5b505af1158015611bf3573d6000803e3d6000fd5b505050506040513d6020811015611c0957600080fd5b50516000546040805160008051602061309783398151915260208281019190915260328083018d9052835180840390910181526052909201928390528151949550600160a060020a039093169363e2a4853a939192918291908401908083835b60208310611c885780518252601f199092019160209182019101611c69565b6001836020036101000a0380198251168184511680821785525050505050509050019150506040518091039020611cc88785612b6d90919063ffffffff16565b6040518363ffffffff1660e060020a02815260040180836000191660001916815260200182815260200192505050600060405180830381600087803b158015611d1057600080fd5b505af1158015611d24573d6000803e3d6000fd5b50506040805187815290513393508a92507fd2b017301643223c3bf390be6b1140c49ca74852de9c65b8c75dea20da38b0629181900360200190a35060019695505050505050565b600154600160a060020a031681565b60008054604080517f636f6d6d69746d656e742e737461727400000000000000000000000000000000602080830191909152600160a060020a03868116606060020a908102603085015288821602604484015283518084036038018152605890930193849052825194169363a855d4ce93918291908401908083835b60208310611e165780518252601f199092019160209182019101611df7565b51815160209384036101000a60001901801990921691161790526040805192909401829003822063ffffffff881660e060020a0283526004830152925160248083019650939450929083900301905081600087803b158015611e7757600080fd5b505af1158015611e8b573d6000803e3d6000fd5b505050506040513d6020811015611ea157600080fd5b50519392505050565b600080808080808060648810611ebf57600080fd5b600054604080517f70726f706f73616c2e657865637574656400000000000000000000000000000060208083019190915260318083018f9052835180840390910181526051909201928390528151600160a060020a0390941693633b7bfda093918291908401908083835b60208310611f495780518252601f199092019160209182019101611f2a565b51815160209384036101000a60001901801990921691161790526040805192909401829003822063ffffffff881660e060020a0283526004830152925160248083019650939450929083900301905081600087803b158015611faa57600080fd5b505af1158015611fbe573d6000803e3d6000fd5b505050506040513d6020811015611fd457600080fd5b50519550611fe18a610736565b158015611ff45750611ff28a610df9565b155b94508580611fff5750845b1515612055576040805160e560020a62461bcd02815260206004820152601960248201527f70726f706f73616c206973207374696c6c206f6e676f696e6700000000000000604482015290519081900360640190fd5b600092505b60ff831688111561232b576000546121d190600160a060020a031663a855d4ce8c8c8c60ff891681811061208a57fe5b90506020020135600160a060020a031660405160200180807f70726f706f73616c2e766f746564000000000000000000000000000000000000815250600e01836000191660001916815260200182600160a060020a0316600160a060020a0316606060020a028152601401925050506040516020818303038152906040526040518082805190602001908083835b602083106121375780518252601f199092019160209182019101612118565b51815160209384036101000a60001901801990921691161790526040805192909401829003822063ffffffff881660e060020a0283526004830152925160248083019650939450929083900301905081600087803b15801561219857600080fd5b505af11580156121ac573d6000803e3d6000fd5b505050506040513d60208110156121c257600080fd5b5051859063ffffffff612b6d16565b600054909450600160a060020a031663e2b202bf8b8b8b60ff88168181106121f557fe5b90506020020135600160a060020a031660405160200180807f70726f706f73616c2e766f746564000000000000000000000000000000000000815250600e01836000191660001916815260200182600160a060020a0316600160a060020a0316606060020a028152601401925050506040516020818303038152906040526040518082805190602001908083835b602083106122a25780518252601f199092019160209182019101612283565b5181516020939093036101000a60001901801990911692169190911790526040805191909301819003812063ffffffff871660e060020a0282526004820152915160248084019550600094509092839003019050818387803b15801561230757600080fd5b505af115801561231b573d6000803e3d6000fd5b50506001909401935061205a9050565b6000546040805160008051602061309783398151915260208083019190915260328083018f9052835180840390910181526052909201928390528151600160a060020a039094169363a855d4ce93918291908401908083835b602083106123a35780518252601f199092019160209182019101612384565b51815160209384036101000a60001901801990921691161790526040805192909401829003822063ffffffff881660e060020a0283526004830152925160248083019650939450929083900301905081600087803b15801561240457600080fd5b505af1158015612418573d6000803e3d6000fd5b505050506040513d602081101561242e57600080fd5b50519150612442828563ffffffff6126d316565b90506000809054906101000a9004600160a060020a0316600160a060020a031663e2a4853a8b604051602001808060008051602061309783398151915281525060120182600019166000191681526020019150506040516020818303038152906040526040518082805190602001908083835b602083106124d45780518252601f1990920191602091820191016124b5565b5181516020939093036101000a60001901801990911692169190911790526040805191909301819003812063ffffffff871660e060020a028252600482015260248101889052915160448084019550600094509092839003019050818387803b15801561254057600080fd5b505af1158015612554573d6000803e3d6000fd5b50505050851561266657600054604080517f70726f706f73616c2e657865637574656400000000000000000000000000000060208083019190915260318083018f9052835180840390910181526051909201928390528151600160a060020a0390941693632c62ff2d93918291908401908083835b602083106125e85780518252601f1990920191602091820191016125c9565b5181516020939093036101000a60001901801990911692169190911790526040805191909301819003812063ffffffff871660e060020a0282526004820152915160248084019550600094509092839003019050818387803b15801561264d57600080fd5b505af1158015612661573d6000803e3d6000fd5b505050505b801515612678576126768a612b7c565b505b5060019998505050505050505050565b60008083151561269b57600091506126b7565b508282028284828115156126ab57fe5b04146126b357fe5b8091505b5092915050565b600081838115156126cb57fe5b049392505050565b6000828211156126df57fe5b50900390565b604080517f70726f706f73616c2e766f746564000000000000000000000000000000000000602080830191909152602e8201869052606060020a600160a060020a03851602604e83015282516042818403018152606290920192839052815160009384938493849391929182918401908083835b602083106127785780518252601f199092019160209182019101612759565b51815160209384036101000a6000190180199092169116179052604080519290940182900382206000805460e160020a63542aea67028552600485018390529551919a50600160a060020a03909516965063a855d4ce955060248084019592945090928390030190829087803b1580156127f157600080fd5b505af1158015612805573d6000803e3d6000fd5b505050506040513d602081101561281b57600080fd5b50511561282757600080fd5b600054604080517f636f6d6d69746d656e742e76616c756500000000000000000000000000000000602080830191909152600160a060020a038a8116606060020a90810260308501528a821602604484015283518084036038018152605890930193849052825194169363a855d4ce93918291908401908083835b602083106128c15780518252601f1990920191602091820191016128a2565b51815160209384036101000a60001901801990921691161790526040805192909401829003822063ffffffff881660e060020a0283526004830152925160248083019650939450929083900301905081600087803b15801561292257600080fd5b505af1158015612936573d6000803e3d6000fd5b505050506040513d602081101561294c57600080fd5b505160008054604080517fe2a4853a00000000000000000000000000000000000000000000000000000000815260048101889052602481018590529051939750600160a060020a039091169263e2a4853a9260448084019391929182900301818387803b1580156129bc57600080fd5b505af11580156129d0573d6000803e3d6000fd5b50506040805160008051602061309783398151915260208083019190915260328083018d905283518084039091018152605290920192839052815191945091925082918401908083835b60208310612a395780518252601f199092019160209182019101612a1a565b51815160209384036101000a6000190180199092169116179052604080519290940182900382206000805460e160020a63542aea67028552600485018390529551919950600160a060020a03909516965063a855d4ce955060248084019592945090928390030190829087803b158015612ab257600080fd5b505af1158015612ac6573d6000803e3d6000fd5b505050506040513d6020811015612adc57600080fd5b5051600054909150600160a060020a031663e2a4853a83612b03848863ffffffff612b6d16565b6040518363ffffffff1660e060020a02815260040180836000191660001916815260200182815260200192505050600060405180830381600087803b158015612b4b57600080fd5b505af1158015612b5f573d6000803e3d6000fd5b505050505050509392505050565b6000828201838110156126b357fe5b60008054604080516000805160206130b7833981519152602080830191909152602e80830187905283518084039091018152604e909201928390528151600160a060020a0390941693630e14a37693918291908401908083835b60208310612bf55780518252601f199092019160209182019101612bd6565b5181516020939093036101000a60001901801990911692169190911790526040805191909301819003812063ffffffff871660e060020a0282526004820152915160248084019550600094509092839003019050818387803b158015612c5a57600080fd5b505af1158015612c6e573d6000803e3d6000fd5b5050600054604080517f70726f706f73616c2e696e69746961746f7200000000000000000000000000006020808301919091526032808301899052835180840390910181526052909201928390528151600160a060020a039094169550630e14a3769450909282918401908083835b60208310612cfc5780518252601f199092019160209182019101612cdd565b5181516020939093036101000a60001901801990911692169190911790526040805191909301819003812063ffffffff871660e060020a0282526004820152915160248084019550600094509092839003019050818387803b158015612d6157600080fd5b505af1158015612d75573d6000803e3d6000fd5b5050600054604080517f70726f706f73616c2e617070726f76616c0000000000000000000000000000006020808301919091526031808301899052835180840390910181526051909201928390528151600160a060020a03909416955063e2b202bf9450909282918401908083835b60208310612e035780518252601f199092019160209182019101612de4565b5181516020939093036101000a60001901801990911692169190911790526040805191909301819003812063ffffffff871660e060020a0282526004820152915160248084019550600094509092839003019050818387803b158015612e6857600080fd5b505af1158015612e7c573d6000803e3d6000fd5b5050600054604080517f70726f706f73616c2e64697373656e74000000000000000000000000000000006020808301919091526030808301899052835180840390910181526050909201928390528151600160a060020a03909416955063e2b202bf9450909282918401908083835b60208310612f0a5780518252601f199092019160209182019101612eeb565b5181516020939093036101000a60001901801990911692169190911790526040805191909301819003812063ffffffff871660e060020a0282526004820152915160248084019550600094509092839003019050818387803b158015612f6f57600080fd5b505af1158015612f83573d6000803e3d6000fd5b5050600054604080517f70726f706f73616c2e7374617274000000000000000000000000000000000000602080830191909152602e80830189905283518084039091018152604e909201928390528151600160a060020a03909416955063e2b202bf9450909282918401908083835b602083106130115780518252601f199092019160209182019101612ff2565b5181516020939093036101000a60001901801990911692169190911790526040805191909301819003812063ffffffff871660e060020a0282526004820152915160248084019550600094509092839003019050818387803b15801561307657600080fd5b505af115801561308a573d6000803e3d6000fd5b50600195945050505050560070726f706f73616c2e766f7465636f756e74000000000000000000000000000070726f706f73616c2e746f6b656e000000000000000000000000000000000000a165627a7a7230582041d03a4bbfcf44f6b37c617aa14d8c145e5a84e6e6243124a3dd73f1ff0f48220029",
  "source": "pragma solidity ^0.4.24;\n\nimport \"../math/SafeMath.sol\";\nimport \"../database/Events.sol\";\n\ninterface Proposals_ERC20 {\n  function transfer(address _to, uint256 _value) external returns (bool);\n  function transferFrom(address _from, address _to, uint256 _value) external returns (bool);\n  function totalSupply() external view returns (uint);\n}\ninterface Proposals_Database {\n  function addressStorage(bytes32 _key) external view returns (address);\n  function uintStorage(bytes32 _key) external view returns (uint);\n  function boolStorage(bytes32 _key) external view returns (bool);\n  function deleteUint(bytes32 _key) external;\n  function deleteAddress(bytes32 _key) external;\n  function deleteBool(bytes32 _key) external;\n  function setBool(bytes32 _key, bool _bool) external;\n  function setUint(bytes32 _key, uint _value) external;\n  function setBytes32(bytes32 _key, bytes32 _value) external;\n  function setAddress(bytes32 _key, address _value) external;\n}\n\n/**\n * @title Proposal voting\n * @notice\n * Anyone can create a proposal. An token holder can lock their tokens to become\n * a voter. Voters may approve or decline proposals. Vote weight increases as\n * tokens are locked for longer periods. A proposal closes after a configurable\n * vote duration. It passes if a quorum of total MYB supply voted and the\n * approval ratio of weighted votes reaches the required threshold.\n *\n * Provide the address of the MYB token contract, vote duration, quorum, and\n * approval threshold. On each proposal, voting will be open for the specified\n * duration. For a proposal to be eligible to pass the percent of total MYB\n * that votes must be at least the quorum. For a proposal to pass the percent\n * of weighted votes that are approval must be at least the approval threshold.\n */\ncontract Proposals {\n  using SafeMath for uint256;\n\n\n  Proposals_Database public db;\n  Events public events;\n\n\n  // @notice constructor\n  // @param _db instance\n  constructor(address database, address logs)\n  public {\n    db = Proposals_Database(database);\n    events = Events(logs);\n  }\n\n\n  // @notice Creates a new proposal with the specified identifier. Fails if there is no voting committed. Fails if a proposal with the same identifier already exists.\n  // @param proposalID - Identifier of new proposal.\n  // @dev must delete data from previous proposal if there is a duplicate proposalID being made\n  function propose(address token, address executingContract, bytes4 methodID, bytes32 parameterHash)\n  external {\n    require(hasCommitted(msg.sender, token) > 0, \"user has no commitment\");\n    bytes32 proposalID = keccak256(abi.encodePacked(token, executingContract, methodID, parameterHash));\n    require(!proposalOpen(proposalID), \"proposal is already open\");\n    db.setUint(keccak256(abi.encodePacked(\"proposal.start\", proposalID)), now);\n    db.setAddress(keccak256(abi.encodePacked(\"proposal.token\", proposalID)), token);\n    db.setAddress(keccak256(abi.encodePacked(\"proposal.initiator\", proposalID)), msg.sender);\n    emit Propose(msg.sender, proposalID);\n    emit ProposalDetails(proposalID, executingContract, methodID, parameterHash);\n  }\n\n\n\n  // @notice Approves proposal with all of your committed tokens\n  // @param proposalID - Identifier of proposal to approve.\n  function approve(bytes32 proposalID)\n  external\n  returns (bool){\n    address token = db.addressStorage(keccak256(abi.encodePacked(\"proposal.token\", proposalID)));\n    require(hasCommitted(msg.sender, token) > 0, \"Commitment required\");  // Tokens committed + waited minimum staking time\n    require(proposalOpen(proposalID), \"Open proposal required\");    // Is the proposal waiting execution?\n    uint256 commitValue = tallyVotes(proposalID, token, msg.sender);\n    bytes32 approvalID = keccak256(abi.encodePacked(\"proposal.approval\", proposalID));\n    uint256 approval = db.uintStorage(approvalID);\n    db.setUint(approvalID, approval.add(commitValue));\n    uint256 voteCount = db.uintStorage(keccak256(abi.encodePacked(\"proposal.votecount\", proposalID)));\n    db.setUint(keccak256(abi.encodePacked(\"proposal.votecount\", proposalID)), voteCount.add(commitValue));\n    emit Approve(proposalID, msg.sender, commitValue);\n    return true;\n  }\n\n\n  // @notice Declines proposal with all of your committed tokens. Your vote is weighted differently depending on how long your tokens have been committed.\n  // Requires an unlocked commitment and an open proposal you haven't voted on. Emits Decline on success.\n  // @param proposalID - Identifier of proposal to decline.\n  function decline(bytes32 proposalID)\n  external\n  returns (bool){\n    address token = db.addressStorage(keccak256(abi.encodePacked(\"proposal.token\", proposalID)));\n    require(hasCommitted(msg.sender, token) > 0, \"Commitment required\");\n    require(proposalOpen(proposalID), \"Open proposal required\");\n    uint256 commitValue = tallyVotes(proposalID, token, msg.sender);\n    bytes32 dissentID = keccak256(abi.encodePacked(\"proposal.dissent\", proposalID));\n    uint256 dissent = db.uintStorage(dissentID);\n    db.setUint(dissentID, dissent.add(commitValue));\n    uint256 voteCount = db.uintStorage(keccak256(abi.encodePacked(\"proposal.votecount\", proposalID)));\n    db.setUint(keccak256(abi.encodePacked(\"proposal.votecount\", proposalID)), voteCount.add(commitValue));\n    emit Decline(proposalID, msg.sender, commitValue);\n    return true;\n  }\n\n\n  // @notice Updates users vote and the total vote count for this proposal\n  function tallyVotes(bytes32 proposalID, address token, address tokenHolder)\n  internal\n  returns (uint commitValue) {\n    bytes32 userVoteID = keccak256(abi.encodePacked(\"proposal.voted\", proposalID, tokenHolder));\n    require(db.uintStorage(userVoteID) == 0);  // make sure token holder hasn't already voted\n    commitValue = db.uintStorage(keccak256(abi.encodePacked(\"commitment.value\", token, tokenHolder)));\n    db.setUint(userVoteID, commitValue);\n    bytes32 voteID = keccak256(abi.encodePacked(\"proposal.votecount\", proposalID));\n    uint256 voteCount = db.uintStorage(voteID);\n    db.setUint(voteID, voteCount.add(commitValue));\n    return commitValue;\n  }\n\n  // TODO: test gas returns vs gas costs on this function\n  // @notice removes consensus info about proposal. Won't be able to create same proposalID until voter data is removed\n  function removeProposalInfo(bytes32 proposalID)\n  internal\n  returns (bool) {\n    db.deleteAddress(keccak256(abi.encodePacked(\"proposal.token\", proposalID)));\n    db.deleteAddress(keccak256(abi.encodePacked(\"proposal.initiator\", proposalID)));\n    db.deleteUint(keccak256(abi.encodePacked(\"proposal.approval\", proposalID)));\n    db.deleteUint(keccak256(abi.encodePacked(\"proposal.dissent\", proposalID)));\n    db.deleteUint(keccak256(abi.encodePacked(\"proposal.start\", proposalID)));\n    return true;\n  }\n\n  // @notice removes voter data from database\n  // @dev once all voters are removed, the rest of the proposal data can be safely removed\n  // @dev deletes proposal start time, vote count,\n  function removeProposalVoters(bytes32 proposalID, address[] voters)\n  external\n  returns (bool) {\n    require (voters.length < 100);\n    bool finished = db.boolStorage(keccak256(abi.encodePacked(\"proposal.executed\", proposalID)));\n    bool failed = !hasConsensus(proposalID) && !proposalOpen(proposalID);\n    require(finished || failed, \"proposal is still ongoing\");   // check if it has been executed or failed to reach consensus\n    uint deletedVotes;\n    for (uint8 i = 0; i < voters.length; i++){\n      deletedVotes = deletedVotes.add(db.uintStorage(keccak256(abi.encodePacked(\"proposal.voted\", proposalID, voters[i]))));\n      db.deleteUint(keccak256(abi.encodePacked(\"proposal.voted\", proposalID, voters[i])));\n    }\n    uint voteCount = db.uintStorage(keccak256(abi.encodePacked(\"proposal.votecount\", proposalID)));\n    uint remaining = voteCount.sub(deletedVotes);\n    db.setUint(keccak256(abi.encodePacked(\"proposal.votecount\", proposalID)), remaining);\n    if (finished) { db.deleteBool(keccak256(abi.encodePacked(\"proposal.executed\", proposalID))); }\n    if (remaining == 0){ removeProposalInfo(proposalID);  }\n    return true;\n  }\n\n  /**\n   * @dev Assumes active commitment.\n   * @param account - Account owning commitment to get age of.\n   * @return age - Commitment age.\n   */\n  function hasCommitted(address account, address token)\n  public\n  view\n  returns (uint256) {\n    return db.uintStorage(keccak256(abi.encodePacked(\"commitment.start\", token, account)));\n  }\n\n  /**\n   * @notice proposal is open for voting until vote duration has elapsed.\n   * @return open - Whether proposal is open.\n   */\n  function proposalOpen(bytes32 proposalID)\n  public\n  view\n  returns (bool open) {\n    address token = db.addressStorage(keccak256(abi.encodePacked(\"proposal.token\", proposalID)));\n    uint256 voteDuration = db.uintStorage(keccak256(abi.encodePacked(\"asset.voteduration\", token)));\n    uint256 start = db.uintStorage(keccak256(abi.encodePacked(\"proposal.start\", proposalID)));\n    if(start > 0){\n      if(voteDuration > 0){\n        return (now.sub(start) <= voteDuration && start <= now);\n      } else {\n        return (start <= now);\n      }\n    } else {\n      return false;\n    }\n\n  }\n\n\n  // @notice returns true if vote quorum and vote threshold are reached\n  function hasConsensus(bytes32 proposalID)\n  public\n  view\n  returns (bool){\n    address assetToken = db.addressStorage(keccak256(abi.encodePacked(\"proposal.token\", proposalID)));\n    uint256 totalSupply = Proposals_ERC20(assetToken).totalSupply();\n    uint256 voteCount = db.uintStorage(keccak256(abi.encodePacked(\"proposal.votecount\", proposalID)));\n    uint256 approval = db.uintStorage(keccak256(abi.encodePacked(\"proposal.approval\", proposalID)));\n    if(totalSupply == 0 || voteCount == 0){\n      return false;\n    } else {\n      uint256 quorum = voteCount.mul(100).div(totalSupply);\n      uint256 theshold = approval.mul(100).div(voteCount);\n      bool quorumReached = quorum >= db.uintStorage(keccak256(abi.encodePacked(\"asset.quorum\", assetToken)));\n      bool thresholdReached = theshold >= db.uintStorage(keccak256(abi.encodePacked(\"asset.threshold\", assetToken)));\n      return quorumReached && thresholdReached;\n    }\n  }\n\n  // -----\n  // Event\n\n  /** Approve vote cast */\n  event Approve(\n    bytes32 indexed proposalID,                 // Approved proposal identifier\n    address indexed account,                    // Approving account\n    uint256 vote                                // Weighted approval amount\n  );\n\n  /** Decline vote cast */\n  event Decline(\n    bytes32 indexed proposalID,                 // Declined proposal identifier\n    address indexed account,                    // Declining account\n    uint256 vote                                // Weighted dissent amount\n  );\n\n  /** Proposal created */\n  event Propose(\n    address indexed proposer,                   // Proposing account\n    bytes32 proposalID                          // Proposal identifier\n  );\n\n  event ProposalDetails(\n    bytes32 proposalID,\n    address contractAddress,\n    bytes4 methodID,\n    bytes32 parameterHash\n  );\n\n}\n",
  "sourcePath": "/home/peter/Documents/Work/MyBit/MyBit-Network.tech/contracts/ownership/Proposals.sol",
  "compiler": {
    "name": "solc",
    "version": "0.4.24+commit.e67f0147.Emscripten.clang"
  },
  "schemaVersion": "3.0.2",
  "updatedAt": "2019-03-20T20:50:44.863Z",
  "devdoc": {
    "methods": {
      "hasCommitted(address,address)": {
        "details": "Assumes active commitment.",
        "params": {
          "account": "- Account owning commitment to get age of."
        },
        "return": "age - Commitment age."
      },
      "proposalOpen(bytes32)": {
        "return": "open - Whether proposal is open."
      }
    },
    "title": "Proposal voting"
  },
  "userdoc": {
    "methods": {
      "proposalOpen(bytes32)": {
        "notice": "proposal is open for voting until vote duration has elapsed."
      }
    }
  }
}