{
  "contractName": "RawCall",
  "abi": [
    {
      "constant": false,
      "inputs": [
        {
          "name": "_contract",
          "type": "address"
        },
        {
          "name": "_methodID",
          "type": "bytes4"
        },
        {
          "name": "_params",
          "type": "bytes"
        },
        {
          "name": "_proposalID",
          "type": "bytes32"
        },
        {
          "name": "_votingInterface",
          "type": "address"
        }
      ],
      "name": "execute",
      "outputs": [
        {
          "name": "",
          "type": "bool"
        }
      ],
      "payable": true,
      "stateMutability": "payable",
      "type": "function"
    }
  ],
  "bytecode": "0x608060405234801561001057600080fd5b506101e2806100206000396000f3006080604052600436106100275763ffffffff60e060020a600035041663a5edb558811461002c575b600080fd5b61008d73ffffffffffffffffffffffffffffffffffffffff600480358216917fffffffff00000000000000000000000000000000000000000000000000000000602480359190911692604435918201929101359060643590608435166100a1565b604080519115158252519081900360200190f35b604080517f39a926c4000000000000000000000000000000000000000000000000000000008152600481018490529051600091839173ffffffffffffffffffffffffffffffffffffffff8316916339a926c491602480830192602092919082900301818887803b15801561011457600080fd5b505af1158015610128573d6000803e3d6000fd5b505050506040513d602081101561013e57600080fd5b5051151561014b57600080fd5b8773ffffffffffffffffffffffffffffffffffffffff1662030d40348960e060020a9004919089896040518563ffffffff1660e060020a02815260040180838380828437820191505092505050600060405180830381858988f19d9c505050505050505050505050505600a165627a7a7230582075a39c30a58b2984eaec5bc372819e70e0d972dcaad8ace85acc76f87b89ac560029",
  "source": "pragma solidity ^0.4.24;\n\nimport \"../interfaces/VotingInterface.sol\";\n\ninterface ProposalAction {\n  function withdraw() external returns (bool);\n  function withdraw(address _user) external returns (bool);\n}\n\ncontract RawCall{\n  address private contractAddress;\n  bytes private functionParams;\n\n  function execute(address _contract, bytes4 _methodID, bytes _params, bytes32 _proposalID, address _votingInterface)\n  external\n  payable\n  returns (bool){\n    VotingInterface votingProcess = VotingInterface(_votingInterface);\n    require(votingProcess.result(_proposalID));\n\n    return(_contract.call.gas(200000).value(msg.value)(_methodID, _params));\n  }\n}\n",
  "sourcePath": "/home/peter/Documents/Work/MyBit/MyBit-Network.tech/contracts/ownership/RawCall.sol",
  "compiler": {
    "name": "solc",
    "version": "0.4.24+commit.e67f0147.Emscripten.clang"
  },
  "schemaVersion": "2.0.1",
  "updatedAt": "2018-12-06T01:09:53.184Z"
}