{
  "contractName": "SingleOwned",
  "abi": [
    {
      "constant": true,
      "inputs": [],
      "name": "database",
      "outputs": [
        {
          "name": "",
          "type": "address"
        }
      ],
      "payable": false,
      "stateMutability": "view",
      "type": "function"
    },
    {
      "constant": true,
      "inputs": [],
      "name": "events",
      "outputs": [
        {
          "name": "",
          "type": "address"
        }
      ],
      "payable": false,
      "stateMutability": "view",
      "type": "function"
    },
    {
      "inputs": [
        {
          "name": "_database",
          "type": "address"
        },
        {
          "name": "_events",
          "type": "address"
        }
      ],
      "payable": false,
      "stateMutability": "nonpayable",
      "type": "constructor"
    },
    {
      "constant": false,
      "inputs": [
        {
          "name": "_newOwner",
          "type": "address"
        }
      ],
      "name": "changeOwner",
      "outputs": [],
      "payable": false,
      "stateMutability": "nonpayable",
      "type": "function"
    },
    {
      "constant": false,
      "inputs": [],
      "name": "destroy",
      "outputs": [],
      "payable": false,
      "stateMutability": "nonpayable",
      "type": "function"
    }
  ],
  "bytecode": "0x608060405234801561001057600080fd5b5060405160408061077f83398101604052805160209091015160008054600160a060020a03938416600160a060020a03199182161790915560018054939092169216919091179055610718806100676000396000f3006080604052600436106100485763ffffffff60e060020a600035041663713b563f811461004d57806383197ef01461007e578063a6f9dae114610095578063b5f8558c146100b6575b600080fd5b34801561005957600080fd5b506100626100cb565b60408051600160a060020a039092168252519081900360200190f35b34801561008a57600080fd5b506100936100da565b005b3480156100a157600080fd5b50610093600160a060020a03600435166102c3565b3480156100c257600080fd5b506100626106bd565b600054600160a060020a031681565b600054604080516000805160206106cd8339815191526020808301919091526c0100000000000000000000000033026025830152825160198184030181526039909201928390528151600160a060020a0390941693633b7bfda093918291908401908083835b6020831061015f5780518252601f199092019160209182019101610140565b51815160209384036101000a60001901801990921691161790526040805192909401829003822063ffffffff881660e060020a0283526004830152925160248083019650939450929083900301905081600087803b1580156101c057600080fd5b505af11580156101d4573d6000803e3d6000fd5b505050506040513d60208110156101ea57600080fd5b505115156001146101fa57600080fd5b600154604080517f42b425aa000000000000000000000000000000000000000000000000000000008152306024820181905233604483015231606482015260006084820181905260a06004830152601560a48301527f53696e676c654f776e65642064657374726f796564000000000000000000000060c48301529151600160a060020a03909316926342b425aa9260e48084019391929182900301818387803b1580156102a757600080fd5b505af11580156102bb573d6000803e3d6000fd5b503392505050ff5b600054604080516000805160206106cd8339815191526020808301919091526c0100000000000000000000000033026025830152825160198184030181526039909201928390528151600160a060020a0390941693633b7bfda093918291908401908083835b602083106103485780518252601f199092019160209182019101610329565b51815160209384036101000a60001901801990921691161790526040805192909401829003822063ffffffff881660e060020a0283526004830152925160248083019650939450929083900301905081600087803b1580156103a957600080fd5b505af11580156103bd573d6000803e3d6000fd5b505050506040513d60208110156103d357600080fd5b505115156001146103e357600080fd5b600054604080516000805160206106cd833981519152602080830191909152600160a060020a038581166c0100000000000000000000000002602584015283518084036019018152603990930193849052825194169363abfdcced93918291908401908083835b602083106104695780518252601f19909201916020918201910161044a565b5181516020939093036101000a60001901801990911692169190911790526040805191909301819003812063ffffffff871660e060020a028252600482015260016024820152915160448084019550600094509092839003019050818387803b1580156104d557600080fd5b505af11580156104e9573d6000803e3d6000fd5b5050600054604080516000805160206106cd8339815191526020808301919091526c0100000000000000000000000033026025830152825160198184030181526039909201928390528151600160a060020a03909416955063abfdcced9450909282918401908083835b602083106105725780518252601f199092019160209182019101610553565b5181516020939093036101000a60001901801990911692169190911790526040805191909301819003812063ffffffff871660e060020a02825260048201526000602482018190529251604480830196509394509290839003019050818387803b1580156105df57600080fd5b505af11580156105f3573d6000803e3d6000fd5b5050600154604080517f42b425aa000000000000000000000000000000000000000000000000000000008152336024820152600160a060020a0386811660448301526000606483018190526084830181905260a06004840152601560a48401527f4f776e657273686970207472616e73666572726564000000000000000000000060c48401529251931694506342b425aa935060e4808201939182900301818387803b1580156106a257600080fd5b505af11580156106b6573d6000803e3d6000fd5b5050505050565b600154600160a060020a03168156006f776e6572000000000000000000000000000000000000000000000000000000a165627a7a7230582095757e1bd1bc26a5cf8e83eba0a76dce8e62498effae21cb1407fbd4fd9586b50029",
  "source": "pragma solidity ^0.4.24;\n\nimport '../database/Database.sol';\nimport '../database/Events.sol';\n\n// @title A contract for managing a single platform owner\n// @dev Single owned platforms store owner as an address\n// @author Kyle Dewhurst, MyBit Foundation\ncontract SingleOwned {\n\n  Database public database;\n  Events public events;\n\n  // @notice constructor: initiate database instance\n  constructor(address _database, address _events) public {\n    database = Database(_database);\n    events = Events(_events);\n  }\n\n  // @notice Transfer ownership to to a new owner\n  function changeOwner(address _newOwner)\n  public\n  onlyOwner {\n    database.setBool(keccak256(abi.encodePacked(\"owner\", _newOwner)), true);\n    database.setBool(keccak256(abi.encodePacked(\"owner\", msg.sender)), false);\n    events.transaction('Ownership transferred', msg.sender, _newOwner, 0, address(0));\n    //emit OwnershipTransferred(msg.sender, _newOwner);\n  }\n\n  // @notice platform owners can destroy contract here\n  function destroy()\n  onlyOwner\n  external {\n    events.transaction('SingleOwned destroyed', address(this), msg.sender, address(this).balance, address(0));\n    selfdestruct(msg.sender);\n  }\n\n  // @notice reverts if caller is not the owner\n  modifier onlyOwner() {\n    require(database.boolStorage(keccak256(abi.encodePacked(\"owner\", msg.sender))) == true);\n    _;\n  }\n\n  //event OwnershipTransferred(address indexed owner, address indexed pendingOwner);\n}\n",
  "sourcePath": "/home/peter/Documents/Work/MyBit/MyBit-Network.tech/contracts/ownership/SingleOwned.sol",
  "compiler": {
    "name": "solc",
    "version": "0.4.24+commit.e67f0147.Emscripten.clang"
  },
  "schemaVersion": "3.0.2",
  "updatedAt": "2019-04-08T20:56:10.923Z",
  "devdoc": {
    "methods": {}
  },
  "userdoc": {
    "methods": {}
  }
}