{
  "contractName": "Staking",
  "abi": [
    {
      "constant": true,
      "inputs": [],
      "name": "database",
      "outputs": [
        {
          "name": "",
          "type": "address"
        }
      ],
      "payable": false,
      "stateMutability": "view",
      "type": "function"
    },
    {
      "inputs": [
        {
          "name": "_database",
          "type": "address"
        }
      ],
      "payable": false,
      "stateMutability": "nonpayable",
      "type": "constructor"
    },
    {
      "constant": false,
      "inputs": [
        {
          "name": "_tokenURI",
          "type": "string"
        },
        {
          "name": "_assetID",
          "type": "bytes32"
        },
        {
          "name": "_amount",
          "type": "uint256"
        },
        {
          "name": "_sharePercentage",
          "type": "uint256"
        }
      ],
      "name": "requestStaking",
      "outputs": [
        {
          "name": "",
          "type": "bool"
        }
      ],
      "payable": false,
      "stateMutability": "nonpayable",
      "type": "function"
    },
    {
      "constant": false,
      "inputs": [
        {
          "name": "_assetID",
          "type": "bytes32"
        },
        {
          "name": "_requester",
          "type": "address"
        },
        {
          "name": "_amount",
          "type": "uint256"
        },
        {
          "name": "_sharePercentage",
          "type": "uint256"
        }
      ],
      "name": "purchaseStake",
      "outputs": [
        {
          "name": "",
          "type": "bool"
        }
      ],
      "payable": false,
      "stateMutability": "nonpayable",
      "type": "function"
    }
  ],
  "bytecode": "0x608060405234801561001057600080fd5b50604051602080611f1f83398101806040528101908080519060200190929190505050806000806101000a81548173ffffffffffffffffffffffffffffffffffffffff021916908373ffffffffffffffffffffffffffffffffffffffff16021790555050611e9c806100836000396000f300608060405260043610610057576000357c0100000000000000000000000000000000000000000000000000000000900463ffffffff1680632ea28b451461005c578063713b563f146100d15780638029d69a14610128575b600080fd5b34801561006857600080fd5b506100b7600480360381019080803590602001908201803590602001919091929391929390803560001916906020019092919080359060200190929190803590602001909291905050506101a5565b604051808215151515815260200191505060405180910390f35b3480156100dd57600080fd5b506100e661056d565b604051808273ffffffffffffffffffffffffffffffffffffffff1673ffffffffffffffffffffffffffffffffffffffff16815260200191505060405180910390f35b34801561013457600080fd5b5061018b6004803603810190808035600019169060200190929190803573ffffffffffffffffffffffffffffffffffffffff1690602001909291908035906020019092919080359060200190929190505050610592565b604051808215151515815260200191505060405180910390f35b600080600033868686604051602001808573ffffffffffffffffffffffffffffffffffffffff1673ffffffffffffffffffffffffffffffffffffffff166c0100000000000000000000000002815260140184600019166000191681526020018381526020018281526020019450505050506040516020818303038152906040526040518082805190602001908083835b60208310151561025a5780518252602082019150602081019050602083039250610235565b6001836020036101000a038019825116818451168082178552505050505050905001915050604051809103902091506000809054906101000a900473ffffffffffffffffffffffffffffffffffffffff1673ffffffffffffffffffffffffffffffffffffffff16634e91db0887846040518363ffffffff167c0100000000000000000000000000000000000000000000000000000000028152600401808360001916600019168152602001826000191660001916815260200192505050600060405180830381600087803b15801561033157600080fd5b505af1158015610345573d6000803e3d6000fd5b50505050878730610354610e78565b80806020018373ffffffffffffffffffffffffffffffffffffffff1673ffffffffffffffffffffffffffffffffffffffff16815260200182810382528585828181526020019250808284378201915050945050505050604051809103906000f0801580156103c6573d6000803e3d6000fd5b5090506000809054906101000a900473ffffffffffffffffffffffffffffffffffffffff1673ffffffffffffffffffffffffffffffffffffffff1663ca446dd98760405160200180807f7374616b696e674d696e74000000000000000000000000000000000000000000815250600b0182600019166000191681526020019150506040516020818303038152906040526040518082805190602001908083835b60208310151561048b5780518252602082019150602081019050602083039250610466565b6001836020036101000a0380198251168184511680821785525050505050509050019150506040518091039020836040518363ffffffff167c01000000000000000000000000000000000000000000000000000000000281526004018083600019166000191681526020018273ffffffffffffffffffffffffffffffffffffffff1673ffffffffffffffffffffffffffffffffffffffff16815260200192505050600060405180830381600087803b15801561054657600080fd5b505af115801561055a573d6000803e3d6000fd5b5050505060019250505095945050505050565b6000809054906101000a900473ffffffffffffffffffffffffffffffffffffffff1681565b600080600080600087898888604051602001808573ffffffffffffffffffffffffffffffffffffffff1673ffffffffffffffffffffffffffffffffffffffff166c0100000000000000000000000002815260140184600019166000191681526020018381526020018281526020019450505050506040516020818303038152906040526040518082805190602001908083835b60208310151561064a5780518252602082019150602081019050602083039250610625565b6001836020036101000a0380198251168184511680821785525050505050509050019150506040518091039020935083600019166000809054906101000a900473ffffffffffffffffffffffffffffffffffffffff1673ffffffffffffffffffffffffffffffffffffffff1663031578af8b6040518263ffffffff167c0100000000000000000000000000000000000000000000000000000000028152600401808260001916600019168152602001915050602060405180830381600087803b15801561071657600080fd5b505af115801561072a573d6000803e3d6000fd5b505050506040513d602081101561074057600080fd5b81019080805190602001909291905050506000191614151561076157600080fd5b6000809054906101000a900473ffffffffffffffffffffffffffffffffffffffff1673ffffffffffffffffffffffffffffffffffffffff166304f49a3a60405160200180807f706c6174666f726d546f6b656e00000000000000000000000000000000000000815250600d0190506040516020818303038152906040526040518082805190602001908083835b60208310151561081357805182526020820191506020810190506020830392506107ee565b6001836020036101000a03801982511681845116808217855250505050505090500191505060405180910390206040518263ffffffff167c0100000000000000000000000000000000000000000000000000000000028152600401808260001916600019168152602001915050602060405180830381600087803b15801561089a57600080fd5b505af11580156108ae573d6000803e3d6000fd5b505050506040513d60208110156108c457600080fd5b810190808051906020019092919050505092506000809054906101000a900473ffffffffffffffffffffffffffffffffffffffff1673ffffffffffffffffffffffffffffffffffffffff166304f49a3a8a60405160200180807f7374616b696e674d696e74000000000000000000000000000000000000000000815250600b0182600019166000191681526020019150506040516020818303038152906040526040518082805190602001908083835b6020831015156109995780518252602082019150602081019050602083039250610974565b6001836020036101000a03801982511681845116808217855250505050505090500191505060405180910390206040518263ffffffff167c0100000000000000000000000000000000000000000000000000000000028152600401808260001916600019168152602001915050602060405180830381600087803b158015610a2057600080fd5b505af1158015610a34573d6000803e3d6000fd5b505050506040513d6020811015610a4a57600080fd5b810190808051906020019092919050505091503384604051602001808373ffffffffffffffffffffffffffffffffffffffff1673ffffffffffffffffffffffffffffffffffffffff166c010000000000000000000000000281526014018260001916600019168152602001925050506040516020818303038152906040526040518082805190602001908083835b602083101515610afd5780518252602082019150602081019050602083039250610ad8565b6001836020036101000a038019825116818451168082178552505050505050905001915050604051809103902090506000809054906101000a900473ffffffffffffffffffffffffffffffffffffffff1673ffffffffffffffffffffffffffffffffffffffff16634e91db088a836040518363ffffffff167c0100000000000000000000000000000000000000000000000000000000028152600401808360001916600019168152602001826000191660001916815260200192505050600060405180830381600087803b158015610bd457600080fd5b505af1158015610be8573d6000803e3d6000fd5b505050508273ffffffffffffffffffffffffffffffffffffffff1663a9059cbb89896040518363ffffffff167c0100000000000000000000000000000000000000000000000000000000028152600401808373ffffffffffffffffffffffffffffffffffffffff1673ffffffffffffffffffffffffffffffffffffffff16815260200182815260200192505050602060405180830381600087803b158015610c8f57600080fd5b505af1158015610ca3573d6000803e3d6000fd5b505050506040513d6020811015610cb957600080fd5b81019080805190602001909291905050501515610cd557600080fd5b8173ffffffffffffffffffffffffffffffffffffffff166340c10f1933896040518363ffffffff167c0100000000000000000000000000000000000000000000000000000000028152600401808373ffffffffffffffffffffffffffffffffffffffff1673ffffffffffffffffffffffffffffffffffffffff16815260200182815260200192505050602060405180830381600087803b158015610d7857600080fd5b505af1158015610d8c573d6000803e3d6000fd5b505050506040513d6020811015610da257600080fd5b81019080805190602001909291905050501515610dbe57600080fd5b8173ffffffffffffffffffffffffffffffffffffffff16637d64bcb46040518163ffffffff167c0100000000000000000000000000000000000000000000000000000000028152600401602060405180830381600087803b158015610e2257600080fd5b505af1158015610e36573d6000803e3d6000fd5b505050506040513d6020811015610e4c57600080fd5b81019080805190602001909291905050501515610e6857600080fd5b6001945050505050949350505050565b604051610fe880610e8983390190560060806040526000600760006101000a81548160ff02191690831515021790555034801561002b57600080fd5b50604051610fe8380380610fe8833981018060405281019080805182019291906020018051906020019092919050505081600290805190602001906100719291906100ba565b5080600760016101000a81548173ffffffffffffffffffffffffffffffffffffffff021916908373ffffffffffffffffffffffffffffffffffffffff160217905550505061015f565b828054600181600116156101000203166002900490600052602060002090601f016020900481019282601f106100fb57805160ff1916838001178555610129565b82800160010185558215610129579182015b8281111561012857825182559160200191906001019061010d565b5b509050610136919061013a565b5090565b61015c91905b80821115610158576000816000905550600101610140565b5090565b90565b610e7a8061016e6000396000f3006080604052600436106100e6576000357c0100000000000000000000000000000000000000000000000000000000900463ffffffff168063047fc9aa146101a057806305d2035b146101cb57806307546172146101fa57806318160ddd146102515780632ba1b3a11461027c5780633c130d90146102a75780633ccfd60b1461033757806340c10f191461036257806370a08231146103c75780637d64bcb41461041e578063a8fa8e521461044d578063b815239514610478578063eba74e5c146104cf578063ec8593be146104d9578063efcb5dea14610530578063f1c5d6c214610587575b61012f61011e6000546101106d04ee2d6d415b85acef8100000000346105de90919063ffffffff16565b61061990919063ffffffff16565b60045461062f90919063ffffffff16565b60048190555061014a3460035461062f90919063ffffffff16565b6003819055503373ffffffffffffffffffffffffffffffffffffffff167fe3166012cb87b3dec8e117fe0e096a47387f94ea2ec12086ed8ae24ff8c237fe346040518082815260200191505060405180910390a2005b3480156101ac57600080fd5b506101b561064d565b6040518082815260200191505060405180910390f35b3480156101d757600080fd5b506101e0610653565b604051808215151515815260200191505060405180910390f35b34801561020657600080fd5b5061020f610666565b604051808273ffffffffffffffffffffffffffffffffffffffff1673ffffffffffffffffffffffffffffffffffffffff16815260200191505060405180910390f35b34801561025d57600080fd5b5061026661068c565b6040518082815260200191505060405180910390f35b34801561028857600080fd5b50610291610695565b6040518082815260200191505060405180910390f35b3480156102b357600080fd5b506102bc61069b565b6040518080602001828103825283818151815260200191508051906020019080838360005b838110156102fc5780820151818401526020810190506102e1565b50505050905090810190601f1680156103295780820380516001836020036101000a031916815260200191505b509250505060405180910390f35b34801561034357600080fd5b5061034c610739565b6040518082815260200191505060405180910390f35b34801561036e57600080fd5b506103ad600480360381019080803573ffffffffffffffffffffffffffffffffffffffff16906020019092919080359060200190929190505050610982565b604051808215151515815260200191505060405180910390f35b3480156103d357600080fd5b50610408600480360381019080803573ffffffffffffffffffffffffffffffffffffffff169060200190929190505050610b01565b6040518082815260200191505060405180910390f35b34801561042a57600080fd5b50610433610b4a565b604051808215151515815260200191505060405180910390f35b34801561045957600080fd5b50610462610c0f565b6040518082815260200191505060405180910390f35b34801561048457600080fd5b506104b9600480360381019080803573ffffffffffffffffffffffffffffffffffffffff169060200190929190505050610c15565b6040518082815260200191505060405180910390f35b6104d7610c98565b005b3480156104e557600080fd5b5061051a600480360381019080803573ffffffffffffffffffffffffffffffffffffffff169060200190929190505050610d52565b6040518082815260200191505060405180910390f35b34801561053c57600080fd5b50610571600480360381019080803573ffffffffffffffffffffffffffffffffffffffff169060200190929190505050610d6a565b6040518082815260200191505060405180910390f35b34801561059357600080fd5b506105c8600480360381019080803573ffffffffffffffffffffffffffffffffffffffff169060200190929190505050610d82565b6040518082815260200191505060405180910390f35b60008060008414156105f35760009150610612565b828402905082848281151561060457fe5b0414151561060e57fe5b8091505b5092915050565b6000818381151561062657fe5b04905092915050565b600080828401905083811015151561064357fe5b8091505092915050565b60005481565b600760009054906101000a900460ff1681565b600760019054906101000a900473ffffffffffffffffffffffffffffffffffffffff1681565b60008054905090565b60035481565b60028054600181600116156101000203166002900480601f0160208091040260200160405190810160405280929190818152602001828054600181600116156101000203166002900480156107315780601f1061070657610100808354040283529160200191610731565b820191906000526020600020905b81548152906001019060200180831161071457829003601f168201915b505050505081565b60003361079661074882610d82565b600560008473ffffffffffffffffffffffffffffffffffffffff1673ffffffffffffffffffffffffffffffffffffffff1681526020019081526020016000205461062f90919063ffffffff16565b600560008373ffffffffffffffffffffffffffffffffffffffff1673ffffffffffffffffffffffffffffffffffffffff16815260200190815260200160002081905550600454600660008373ffffffffffffffffffffffffffffffffffffffff1673ffffffffffffffffffffffffffffffffffffffff1681526020019081526020016000208190555061087f6d04ee2d6d415b85acef8100000000600560003373ffffffffffffffffffffffffffffffffffffffff1673ffffffffffffffffffffffffffffffffffffffff1681526020019081526020016000205461061990919063ffffffff16565b9150600560003373ffffffffffffffffffffffffffffffffffffffff1673ffffffffffffffffffffffffffffffffffffffff168152602001908152602001600020600090553373ffffffffffffffffffffffffffffffffffffffff166108fc839081150290604051600060405180830381858888f1935050505015801561090a573d6000803e3d6000fd5b507f10db2ba5699bf5dbd1070a0c0b207f229dc1ecb78bbe555b84cab3db9576ac42423384604051808481526020018373ffffffffffffffffffffffffffffffffffffffff1673ffffffffffffffffffffffffffffffffffffffff168152602001828152602001935050505060405180910390a15090565b6000600760009054906101000a900460ff161580156109ee5750600760019054906101000a900473ffffffffffffffffffffffffffffffffffffffff1673ffffffffffffffffffffffffffffffffffffffff163373ffffffffffffffffffffffffffffffffffffffff16145b15156109f957600080fd5b610a0e8260005461062f90919063ffffffff16565b600081905550610a6682600160008673ffffffffffffffffffffffffffffffffffffffff1673ffffffffffffffffffffffffffffffffffffffff1681526020019081526020016000205461062f90919063ffffffff16565b600160008573ffffffffffffffffffffffffffffffffffffffff1673ffffffffffffffffffffffffffffffffffffffff168152602001908152602001600020819055508273ffffffffffffffffffffffffffffffffffffffff167f0f6798a560793a54c3bcfe86a93cde1e73087d944c0ea20544137d4121396885836040518082815260200191505060405180910390a26001905092915050565b6000600160008373ffffffffffffffffffffffffffffffffffffffff1673ffffffffffffffffffffffffffffffffffffffff168152602001908152602001600020549050919050565b6000600760009054906101000a900460ff16158015610bb65750600760019054906101000a900473ffffffffffffffffffffffffffffffffffffffff1673ffffffffffffffffffffffffffffffffffffffff163373ffffffffffffffffffffffffffffffffffffffff16145b1515610bc157600080fd5b6001600760006101000a81548160ff0219169083151502179055507fae5184fba832cb2b1f702aca6117b8d265eaf03ad33eb133f19dde0f5920fa0860405160405180910390a16001905090565b60045481565b6000610c916d04ee2d6d415b85acef8100000000610c83600560008673ffffffffffffffffffffffffffffffffffffffff1673ffffffffffffffffffffffffffffffffffffffff16815260200190815260200160002054610c7586610d82565b61062f90919063ffffffff16565b61061990919063ffffffff16565b9050919050565b610ce1610cd0600054610cc26d04ee2d6d415b85acef8100000000346105de90919063ffffffff16565b61061990919063ffffffff16565b60045461062f90919063ffffffff16565b600481905550610cfc3460035461062f90919063ffffffff16565b6003819055503373ffffffffffffffffffffffffffffffffffffffff167fe3166012cb87b3dec8e117fe0e096a47387f94ea2ec12086ed8ae24ff8c237fe346040518082815260200191505060405180910390a2565b60056020528060005260406000206000915090505481565b60066020528060005260406000206000915090505481565b600080610dd9600660008573ffffffffffffffffffffffffffffffffffffffff1673ffffffffffffffffffffffffffffffffffffffff16815260200190815260200160002054600454610e3590919063ffffffff16565b9050610e2d600160008573ffffffffffffffffffffffffffffffffffffffff1673ffffffffffffffffffffffffffffffffffffffff16815260200190815260200160002054826105de90919063ffffffff16565b915050919050565b6000828211151515610e4357fe5b8183039050929150505600a165627a7a72305820d565919b4fc09158723e2f0fcb51e3c5f0b52362aaad48f9972d66c44e8a12b50029a165627a7a72305820f1d4adcc9a2c99852fa3fed14238b622866137b6cddd3c777155854233ac216b0029",
  "source": "  pragma solidity 0.4.24;\n\n  import \"../math/SafeMath.sol\";\n  import \"../database/Database.sol\";\n  import \"../interfaces/ERC20.sol\";\n  import \"../tokens/distribution/MintableDistribution.sol\";\n\n\n\n  // @title A contract for investors to loan ERC20 tokens to assetManagers who require escrow\n  // @author Kyle Dewhurst, MyBit Foundation\n  // @notice AssetManager can lock his escrow in this contract and retrieve it if asset funding fails or successfully returns ROI\n  contract Staking {\n\n    Database public database;\n\n\n    constructor(address _database)\n    public {\n      database = Database(_database);\n    }\n\n    // @notice AssetManager can request for a staker to lend tokens to cover escrow\n    function requestStaking(string _tokenURI, bytes32 _assetID, uint _amount, uint _sharePercentage)\n    external\n    returns (bool) {\n      bytes32 agreementHash = keccak256(abi.encodePacked(msg.sender, _assetID, _amount, _sharePercentage));\n      database.setBytes32(_assetID, agreementHash);\n      MintableDistribution mintableDistribution = new MintableDistribution(_tokenURI, address(this));\n      database.setAddress(keccak256(abi.encodePacked(\"stakingMint\", _assetID)), address(mintableDistribution));\n      return true;\n    }\n\n    // @notice staker can purchase all of\n    function purchaseStake(bytes32 _assetID, address _requester, uint _amount, uint _sharePercentage)\n    external\n    returns (bool) {\n      bytes32 agreementHash = keccak256(abi.encodePacked(_requester, _assetID, _amount, _sharePercentage));\n      require (database.bytes32Storage(_assetID) == agreementHash);\n      ERC20 stakingToken = ERC20(database.addressStorage(keccak256(abi.encodePacked(\"platformToken\"))));\n      MintableDistribution distributionToken = MintableDistribution(database.addressStorage(keccak256(abi.encodePacked(\"stakingMint\", _assetID))));\n      bytes32 finalAgreement = keccak256(abi.encodePacked(msg.sender, agreementHash));\n      database.setBytes32(_assetID, finalAgreement);\n      require(stakingToken.transfer(_requester, _amount));\n      require(distributionToken.mint(msg.sender, _amount));\n      require(distributionToken.finishMinting());\n      return true;\n    }\n\n  //------------------------------------------------------------------------------------------------------------------\n  //                                            Modifiers\n  //------------------------------------------------------------------------------------------------------------------\n\n\n  //------------------------------------------------------------------------------------------------------------------\n  // Don't accept null value for bytes32 parameter\n  //------------------------------------------------------------------------------------------------------------------\n  modifier noEmptyBytes(bytes32 _data) {\n    require(_data != bytes32(0));\n    _;\n  }\n\n\n  //------------------------------------------------------------------------------------------------------------------\n  //                                            Events\n  //------------------------------------------------------------------------------------------------------------------\n\n\n}\n",
  "sourcePath": "/home/peter/Documents/Work/MyBit/MyBit-Network.tech/contracts/ecosystem/Staking.sol",
  "compiler": {
    "name": "solc",
    "version": "0.4.24+commit.e67f0147.Emscripten.clang"
  },
  "schemaVersion": "2.0.1",
  "updatedAt": "2018-10-17T01:56:53.440Z"
}