{
  "contractName": "StandardDistribution",
  "abi": [
    {
      "constant": true,
      "inputs": [],
      "name": "supply",
      "outputs": [
        {
          "name": "",
          "type": "uint256"
        }
      ],
      "payable": false,
      "stateMutability": "view",
      "type": "function"
    },
    {
      "constant": true,
      "inputs": [],
      "name": "assetIncome",
      "outputs": [
        {
          "name": "",
          "type": "uint256"
        }
      ],
      "payable": false,
      "stateMutability": "view",
      "type": "function"
    },
    {
      "constant": true,
      "inputs": [],
      "name": "tokenURI",
      "outputs": [
        {
          "name": "",
          "type": "string"
        }
      ],
      "payable": false,
      "stateMutability": "view",
      "type": "function"
    },
    {
      "constant": true,
      "inputs": [],
      "name": "valuePerToken",
      "outputs": [
        {
          "name": "",
          "type": "uint256"
        }
      ],
      "payable": false,
      "stateMutability": "view",
      "type": "function"
    },
    {
      "constant": true,
      "inputs": [
        {
          "name": "",
          "type": "address"
        }
      ],
      "name": "claimableIncome",
      "outputs": [
        {
          "name": "",
          "type": "uint256"
        }
      ],
      "payable": false,
      "stateMutability": "view",
      "type": "function"
    },
    {
      "constant": true,
      "inputs": [
        {
          "name": "",
          "type": "address"
        }
      ],
      "name": "previousValuePerToken",
      "outputs": [
        {
          "name": "",
          "type": "uint256"
        }
      ],
      "payable": false,
      "stateMutability": "view",
      "type": "function"
    },
    {
      "payable": true,
      "stateMutability": "payable",
      "type": "fallback"
    },
    {
      "anonymous": false,
      "inputs": [
        {
          "indexed": true,
          "name": "_sender",
          "type": "address"
        },
        {
          "indexed": false,
          "name": "_paymentAmount",
          "type": "uint256"
        }
      ],
      "name": "LogIncomeReceived",
      "type": "event"
    },
    {
      "anonymous": false,
      "inputs": [
        {
          "indexed": false,
          "name": "_block",
          "type": "uint256"
        },
        {
          "indexed": false,
          "name": "_address",
          "type": "address"
        },
        {
          "indexed": false,
          "name": "_amount",
          "type": "uint256"
        }
      ],
      "name": "LogIncomeCollected",
      "type": "event"
    },
    {
      "constant": false,
      "inputs": [],
      "name": "withdraw",
      "outputs": [
        {
          "name": "_amount",
          "type": "uint256"
        }
      ],
      "payable": false,
      "stateMutability": "nonpayable",
      "type": "function"
    },
    {
      "constant": false,
      "inputs": [],
      "name": "issueDividends",
      "outputs": [],
      "payable": true,
      "stateMutability": "payable",
      "type": "function"
    },
    {
      "constant": true,
      "inputs": [
        {
          "name": "_user",
          "type": "address"
        }
      ],
      "name": "getTokenValue",
      "outputs": [
        {
          "name": "",
          "type": "uint256"
        }
      ],
      "payable": false,
      "stateMutability": "view",
      "type": "function"
    },
    {
      "constant": true,
      "inputs": [
        {
          "name": "_user",
          "type": "address"
        }
      ],
      "name": "getUnclaimedAmount",
      "outputs": [
        {
          "name": "",
          "type": "uint256"
        }
      ],
      "payable": false,
      "stateMutability": "view",
      "type": "function"
    },
    {
      "constant": true,
      "inputs": [],
      "name": "totalSupply",
      "outputs": [
        {
          "name": "",
          "type": "uint256"
        }
      ],
      "payable": false,
      "stateMutability": "view",
      "type": "function"
    },
    {
      "constant": true,
      "inputs": [
        {
          "name": "_owner",
          "type": "address"
        }
      ],
      "name": "balanceOf",
      "outputs": [
        {
          "name": "",
          "type": "uint256"
        }
      ],
      "payable": false,
      "stateMutability": "view",
      "type": "function"
    }
  ],
  "bytecode": "0x608060405234801561001057600080fd5b506106aa806100206000396000f3006080604052600436106100b95763ffffffff7c0100000000000000000000000000000000000000000000000000000000600035041663047fc9aa811461014e57806318160ddd146101755780632ba1b3a11461018a5780633c130d901461019f5780633ccfd60b1461022957806370a082311461023e578063a8fa8e521461025f578063b815239514610274578063eba74e5c14610295578063ec8593be1461029f578063efcb5dea146102c0578063f1c5d6c2146102e1575b6000546100fd906100ee906100e2346d04ee2d6d415b85acef810000000063ffffffff61030216565b9063ffffffff61033816565b6004549063ffffffff61034d16565b600455600354610113903463ffffffff61034d16565b60035560408051348152905133917fe3166012cb87b3dec8e117fe0e096a47387f94ea2ec12086ed8ae24ff8c237fe919081900360200190a2005b34801561015a57600080fd5b5061016361035c565b60408051918252519081900360200190f35b34801561018157600080fd5b50610163610362565b34801561019657600080fd5b50610163610368565b3480156101ab57600080fd5b506101b461036e565b6040805160208082528351818301528351919283929083019185019080838360005b838110156101ee5781810151838201526020016101d6565b50505050905090810190601f16801561021b5780820380516001836020036101000a031916815260200191505b509250505060405180910390f35b34801561023557600080fd5b506101636103f9565b34801561024a57600080fd5b50610163600160a060020a03600435166104ff565b34801561026b57600080fd5b5061016361051a565b34801561028057600080fd5b50610163600160a060020a0360043516610520565b61029d61056c565b005b3480156102ab57600080fd5b50610163600160a060020a03600435166105e6565b3480156102cc57600080fd5b50610163600160a060020a03600435166105f8565b3480156102ed57600080fd5b50610163600160a060020a036004351661060a565b6000808315156103155760009150610331565b5082820282848281151561032557fe5b041461032d57fe5b8091505b5092915050565b6000818381151561034557fe5b049392505050565b60008282018381101561032d57fe5b60005481565b60005490565b60035481565b6002805460408051602060018416156101000260001901909316849004601f810184900484028201840190925281815292918301828280156103f15780601f106103c6576101008083540402835291602001916103f1565b820191906000526020600020905b8154815290600101906020018083116103d457829003601f168201915b505050505081565b60003361042d6104088261060a565b600160a060020a0383166000908152600560205260409020549063ffffffff61034d16565b600160a060020a038216600090815260056020818152604080842094909455600454600682528484205533835252205461047b906d04ee2d6d415b85acef810000000063ffffffff61033816565b3360008181526005602052604080822082905551929450909184156108fc0291859190818181858888f193505050501580156104bb573d6000803e3d6000fd5b506040805142815233602082015280820184905290517f10db2ba5699bf5dbd1070a0c0b207f229dc1ecb78bbe555b84cab3db9576ac429181900360600190a15090565b600160a060020a031660009081526001602052604090205490565b60045481565b600160a060020a038116600090815260056020526040812054610566906d04ee2d6d415b85acef8100000000906100e29061055a8661060a565b9063ffffffff61034d16565b92915050565b600054610595906100ee906100e2346d04ee2d6d415b85acef810000000063ffffffff61030216565b6004556003546105ab903463ffffffff61034d16565b60035560408051348152905133917fe3166012cb87b3dec8e117fe0e096a47387f94ea2ec12086ed8ae24ff8c237fe919081900360200190a2565b60056020526000908152604090205481565b60066020526000908152604090205481565b600160a060020a0381166000908152600660205260408120546004548291610638919063ffffffff61066c16565b600160a060020a03841660009081526001602052604090205490915061066590829063ffffffff61030216565b9392505050565b60008282111561067857fe5b509003905600a165627a7a7230582024038c7e9b682bcec59b984077e1c522f50f222ead6fe0bdc0b1bd182b1d1b470029",
  "source": "pragma solidity ^0.4.24;\n\nimport '../../math/SafeMath.sol';\nimport '../../interfaces/PullPayment.sol';\n\n\n// @title Non-Transferable ERC20 token contract with shared revenue distribution functionality.\n// @notice This token contract can receive payments in the fallback function and token owners can withdraw their share\n// @author Kyle Dewhurst, MyBitFoundation\n// Credit goes to Nick Johnson for the dividend token https://medium.com/@weka/dividend-bearing-tokens-on-ethereum-42d01c710657\ncontract StandardDistribution{\n  using SafeMath for uint;\n\n\n  uint public supply;\n  mapping (address => uint) internal balances;\n\n  string public tokenURI;                 // A reference to a URI containing further token information\n\n\n  // @notice Token Income Information\n  uint constant scalingFactor = 1e32;\n  uint public assetIncome;\n  uint public valuePerToken;\n\n  mapping (address => uint) public claimableIncome;\n  mapping (address => uint) public previousValuePerToken;\n\n\n  // @notice Updates claimableIncome, sends all wei to the token holder\n  function withdraw()\n  public\n  updateclaimableIncome(msg.sender)\n  returns (uint _amount) {\n      _amount = claimableIncome[msg.sender].div(scalingFactor);\n      delete claimableIncome[msg.sender];\n      msg.sender.transfer(_amount);\n      emit LogIncomeCollected(now, msg.sender, _amount);\n  }\n/*\n  // @notice allows beneficiaries to withdraw from contracts at different locations to be re-distributed here\n  // @dev can call withdraw() on any address if there are no parameters required. Fallback function will be triggered\n  // @param (address) _contractAddress = The address to call withdraw() on.\n  function getFunds(address _contractAddress)\n  external\n  returns (bool) {\n    PullPayment(_contractAddress).withdraw();\n    return true;\n  }\n\n*/\n  function issueDividends()\n  payable\n  public {\n      valuePerToken = valuePerToken.add(msg.value.mul(scalingFactor).div(supply));\n      assetIncome = assetIncome.add(msg.value);\n      emit LogIncomeReceived(msg.sender, msg.value);\n  }\n\n    // Fallback function: Accepts Ether and updates ledger (issues dividends)\n  function ()\n    payable\n    public {\n      valuePerToken = valuePerToken.add(msg.value.mul(scalingFactor).div(supply));\n      assetIncome = assetIncome.add(msg.value);\n      emit LogIncomeReceived(msg.sender, msg.value);\n  }\n\n  // ------------------------------------------------------------------------------------------------\n  //                                   View Functions\n  // ------------------------------------------------------------------------------------------------\n\n  // @notice Calculates how much value _user holds\n  function getTokenValue(address _user)\n  public\n  view\n  returns (uint) {\n      uint valuePerTokenDifference = valuePerToken.sub(previousValuePerToken[_user]);\n      return valuePerTokenDifference.mul(balances[_user]);\n  }\n\n  // @notice Calculates how much wei user is owed. (new income + claimableIncome) / 10**32\n  function getUnclaimedAmount(address _user)\n  public\n  view\n  returns (uint) {\n      return (getTokenValue(_user).add(claimableIncome[_user]).div(scalingFactor));\n  }\n\n  function totalSupply() public view returns (uint256) {\n    return supply;\n  }\n\n  function balanceOf(address _owner) public view returns (uint256) {\n    return balances[_owner];\n  }\n\n  // ------------------------------------------------------------------------------------------------\n  //                                   Modifiers\n  // ------------------------------------------------------------------------------------------------\n\n  // Updates the amount owed to user while holding tokenSupply\n  // @dev must be called before transfering tokens\n  modifier updateclaimableIncome(address _user) {\n      claimableIncome[_user] = claimableIncome[_user].add(getTokenValue(_user));\n      previousValuePerToken[_user] = valuePerToken;\n      _;\n  }\n\n\n  // ------------------------------------------------------------------------------------------------\n  //                                     Events\n  // ------------------------------------------------------------------------------------------------\n\n  event LogIncomeReceived(address indexed _sender, uint _paymentAmount);\n  event LogIncomeCollected(uint _block, address _address, uint _amount);\n\n}\n",
  "sourcePath": "/home/peter/Documents/Work/MyBit/MyBit-Network.tech/contracts/tokens/distribution/StandardDistribution.sol",
  "compiler": {
    "name": "solc",
    "version": "0.4.24+commit.e67f0147.Emscripten.clang"
  },
  "schemaVersion": "2.0.1",
  "updatedAt": "2019-01-15T20:50:39.557Z"
}