{
  "contractName": "TestBurner",
  "abi": [
    {
      "constant": true,
      "inputs": [],
      "name": "burner",
      "outputs": [
        {
          "name": "",
          "type": "address"
        }
      ],
      "payable": false,
      "stateMutability": "view",
      "type": "function"
    },
    {
      "constant": true,
      "inputs": [],
      "name": "database",
      "outputs": [
        {
          "name": "",
          "type": "address"
        }
      ],
      "payable": false,
      "stateMutability": "view",
      "type": "function"
    },
    {
      "constant": true,
      "inputs": [],
      "name": "amountBurnt",
      "outputs": [
        {
          "name": "",
          "type": "uint256"
        }
      ],
      "payable": false,
      "stateMutability": "view",
      "type": "function"
    },
    {
      "inputs": [
        {
          "name": "_database",
          "type": "address"
        },
        {
          "name": "_burner",
          "type": "address"
        }
      ],
      "payable": false,
      "stateMutability": "nonpayable",
      "type": "constructor"
    },
    {
      "constant": false,
      "inputs": [
        {
          "name": "_amount",
          "type": "uint256"
        }
      ],
      "name": "burnTokensManualFee",
      "outputs": [],
      "payable": false,
      "stateMutability": "nonpayable",
      "type": "function"
    },
    {
      "constant": false,
      "inputs": [],
      "name": "burnTokens",
      "outputs": [],
      "payable": false,
      "stateMutability": "nonpayable",
      "type": "function"
    },
    {
      "constant": true,
      "inputs": [],
      "name": "getMethodID",
      "outputs": [
        {
          "name": "",
          "type": "bytes4"
        }
      ],
      "payable": false,
      "stateMutability": "pure",
      "type": "function"
    }
  ],
  "bytecode": "0x608060405234801561001057600080fd5b506040516040806107be83398101604052805160209091015160008054600160a060020a03928316600160a060020a0319918216179091556001805492909316911617905561075a806100646000396000f30060806040526004361061005e5763ffffffff60e060020a60003504166308003f78811461006357806327810b6e1461007a5780635935914b146100ab57806366369c40146100c3578063713b563f1461010a5780639b51d0a91461011f575b600080fd5b34801561006f57600080fd5b50610078610146565b005b34801561008657600080fd5b5061008f6104b9565b60408051600160a060020a039092168252519081900360200190f35b3480156100b757600080fd5b506100786004356104c8565b3480156100cf57600080fd5b506100d8610676565b604080517bffffffffffffffffffffffffffffffffffffffffffffffffffffffff199092168252519081900360200190f35b34801561011657600080fd5b5061008f610719565b34801561012b57600080fd5b50610134610728565b60408051918252519081900360200190f35b60008060405160200180807f6275726e546f6b656e7328290000000000000000000000000000000000000000815250600c0190506040516020818303038152906040526040518082805190602001908083835b602083106101b85780518252601f199092019160209182019101610199565b51815160209384036101000a6000190180199092169116179052604080519290940182900382206001547bffffffffffffffffffffffffffffffffffffffffffffffffffffffff19821684840152306c01000000000000000000000000026024850152855180850360180181526038909401958690528351919950600160a060020a0316965063a855d4ce9550919392508291908401908083835b602083106102725780518252601f199092019160209182019101610253565b51815160209384036101000a60001901801990921691161790526040805192909401829003822063ffffffff881660e060020a0283526004830152925160248083019650939450929083900301905081600087803b1580156102d357600080fd5b505af11580156102e7573d6000803e3d6000fd5b505050506040513d60208110156102fd57600080fd5b5051600054600154604080517f706c6174666f726d2e746f6b656e0000000000000000000000000000000000006020828101919091528251808303600e018152602e909201928390528151959650600160a060020a039485169563b8ce670d95339589959116936304f49a3a93909282918401908083835b602083106103945780518252601f199092019160209182019101610375565b51815160209384036101000a60001901801990921691161790526040805192909401829003822063ffffffff881660e060020a0283526004830152925160248083019650939450929083900301905081600087803b1580156103f557600080fd5b505af1158015610409573d6000803e3d6000fd5b505050506040513d602081101561041f57600080fd5b50516040805160e060020a63ffffffff8716028152600160a060020a039485166004820152602481019390935292166044820152905160648083019260209291908290030181600087803b15801561047657600080fd5b505af115801561048a573d6000803e3d6000fd5b505050506040513d60208110156104a057600080fd5b505115156104ad57600080fd5b60028054909101905550565b600054600160a060020a031681565b600054600154604080517f706c6174666f726d2e746f6b656e0000000000000000000000000000000000006020808301919091528251600e818403018152602e909201928390528151600160a060020a039586169563b8ce670d953395899592909116936304f49a3a9382918401908083835b6020831061055a5780518252601f19909201916020918201910161053b565b51815160209384036101000a60001901801990921691161790526040805192909401829003822063ffffffff881660e060020a0283526004830152925160248083019650939450929083900301905081600087803b1580156105bb57600080fd5b505af11580156105cf573d6000803e3d6000fd5b505050506040513d60208110156105e557600080fd5b50516040805160e060020a63ffffffff8716028152600160a060020a039485166004820152602481019390935292166044820152905160648083019260209291908290030181600087803b15801561063c57600080fd5b505af1158015610650573d6000803e3d6000fd5b505050506040513d602081101561066657600080fd5b5051151561067357600080fd5b50565b600060405160200180807f6275726e546f6b656e7328290000000000000000000000000000000000000000815250600c0190506040516020818303038152906040526040518082805190602001908083835b602083106106e75780518252601f1990920191602091820191016106c8565b6001836020036101000a0380198251168184511680821785525050505050509050019150506040518091039020905090565b600154600160a060020a031681565b600254815600a165627a7a72305820cfc255aace90d38ca0e145923d72595bbd60b7b0bc1e148baf0fee40890deab20029",
  "source": "pragma solidity ^0.4.24;\n\nimport '../access/ERC20Burner.sol';\nimport '../database/Database.sol';\n\ncontract TestBurner {\n\n  ERC20Burner public burner;\n  Database public database;\n\n  uint public amountBurnt;\n\n  constructor(address _database, address _burner)\n  public {\n    burner = ERC20Burner(_burner);\n    database = Database(_database);\n  }\n\n  function burnTokensManualFee(uint _amount)\n  external {\n    require(burner.burn(msg.sender, _amount, database.addressStorage(keccak256(abi.encodePacked(\"platform.token\")))));\n  }\n\n  // Must set fee in ERC20Burner first\n  function burnTokens()\n  external {\n    bytes4 methodID = bytes4(keccak256(abi.encodePacked(\"burnTokens()\")));\n    uint amountToBurn = database.uintStorage(keccak256(abi.encodePacked(methodID, address(this))));\n    require(burner.burn(msg.sender, amountToBurn, database.addressStorage(keccak256(abi.encodePacked(\"platform.token\")))));\n    amountBurnt += amountToBurn;\n  }\n\n  function getMethodID()\n  external\n  pure\n  returns (bytes4) {\n    return bytes4(keccak256(abi.encodePacked(\"burnTokens()\")));\n  }\n\n}\n",
  "sourcePath": "/home/peter/Documents/Work/MyBit/MyBit-Network.tech/contracts/test/TestBurner.sol",
  "compiler": {
    "name": "solc",
    "version": "0.4.24+commit.e67f0147.Emscripten.clang"
  },
  "schemaVersion": "3.0.1",
  "updatedAt": "2019-03-11T22:02:16.424Z",
  "devdoc": {
    "methods": {}
  },
  "userdoc": {
    "methods": {}
  }
}