{
  "contractName": "TestBurner",
  "abi": [
    {
      "constant": true,
      "inputs": [],
      "name": "burner",
      "outputs": [
        {
          "name": "",
          "type": "address"
        }
      ],
      "payable": false,
      "stateMutability": "view",
      "type": "function"
    },
    {
      "constant": true,
      "inputs": [],
      "name": "database",
      "outputs": [
        {
          "name": "",
          "type": "address"
        }
      ],
      "payable": false,
      "stateMutability": "view",
      "type": "function"
    },
    {
      "constant": true,
      "inputs": [],
      "name": "amountBurnt",
      "outputs": [
        {
          "name": "",
          "type": "uint256"
        }
      ],
      "payable": false,
      "stateMutability": "view",
      "type": "function"
    },
    {
      "inputs": [
        {
          "name": "_database",
          "type": "address"
        },
        {
          "name": "_burner",
          "type": "address"
        }
      ],
      "payable": false,
      "stateMutability": "nonpayable",
      "type": "constructor"
    },
    {
      "constant": false,
      "inputs": [
        {
          "name": "_amount",
          "type": "uint256"
        }
      ],
      "name": "burnTokensManualFee",
      "outputs": [],
      "payable": false,
      "stateMutability": "nonpayable",
      "type": "function"
    },
    {
      "constant": false,
      "inputs": [],
      "name": "burnTokens",
      "outputs": [],
      "payable": false,
      "stateMutability": "nonpayable",
      "type": "function"
    },
    {
      "constant": true,
      "inputs": [],
      "name": "getMethodID",
      "outputs": [
        {
          "name": "",
          "type": "bytes4"
        }
      ],
      "payable": false,
      "stateMutability": "pure",
      "type": "function"
    }
  ],
  "bytecode": "0x608060405234801561001057600080fd5b5060405160408061063383398101604052805160209091015160008054600160a060020a03928316600160a060020a031991821617909155600180549290931691161790556105cf806100646000396000f3006080604052600436106100775763ffffffff7c010000000000000000000000000000000000000000000000000000000060003504166308003f78811461007c57806327810b6e146100935780635935914b146100d157806366369c40146100e9578063713b563f146101305780639b51d0a914610145575b600080fd5b34801561008857600080fd5b5061009161016c565b005b34801561009f57600080fd5b506100a861040d565b6040805173ffffffffffffffffffffffffffffffffffffffff9092168252519081900360200190f35b3480156100dd57600080fd5b50610091600435610429565b3480156100f557600080fd5b506100fe6104de565b604080517bffffffffffffffffffffffffffffffffffffffffffffffffffffffff199092168252519081900360200190f35b34801561013c57600080fd5b506100a8610581565b34801561015157600080fd5b5061015a61059d565b60408051918252519081900360200190f35b60008060405160200180807f6275726e546f6b656e7328290000000000000000000000000000000000000000815250600c0190506040516020818303038152906040526040518082805190602001908083835b602083106101de5780518252601f1990920191602091820191016101bf565b51815160209384036101000a6000190180199092169116179052604080519290940182900382206001547bffffffffffffffffffffffffffffffffffffffffffffffffffffffff19821684840152306c0100000000000000000000000002602485015285518085036018018152603890940195869052835191995073ffffffffffffffffffffffffffffffffffffffff16965063a855d4ce9550919392508291908401908083835b602083106102a55780518252601f199092019160209182019101610286565b51815160209384036101000a60001901801990921691161790526040805192909401829003822063ffffffff88167c01000000000000000000000000000000000000000000000000000000000283526004830152925160248083019650939450929083900301905081600087803b15801561031f57600080fd5b505af1158015610333573d6000803e3d6000fd5b505050506040513d602081101561034957600080fd5b505160008054604080517f9dc29fac00000000000000000000000000000000000000000000000000000000815233600482015260248101859052905193945073ffffffffffffffffffffffffffffffffffffffff90911692639dc29fac92604480840193602093929083900390910190829087803b1580156103ca57600080fd5b505af11580156103de573d6000803e3d6000fd5b505050506040513d60208110156103f457600080fd5b5051151561040157600080fd5b60028054909101905550565b60005473ffffffffffffffffffffffffffffffffffffffff1681565b60008054604080517f9dc29fac00000000000000000000000000000000000000000000000000000000815233600482015260248101859052905173ffffffffffffffffffffffffffffffffffffffff90921692639dc29fac926044808401936020939083900390910190829087803b1580156104a457600080fd5b505af11580156104b8573d6000803e3d6000fd5b505050506040513d60208110156104ce57600080fd5b505115156104db57600080fd5b50565b600060405160200180807f6275726e546f6b656e7328290000000000000000000000000000000000000000815250600c0190506040516020818303038152906040526040518082805190602001908083835b6020831061054f5780518252601f199092019160209182019101610530565b6001836020036101000a0380198251168184511680821785525050505050509050019150506040518091039020905090565b60015473ffffffffffffffffffffffffffffffffffffffff1681565b600254815600a165627a7a72305820e956d40011924f9534a614df99ec05506218600baa7c2a4792f3d5125de0f31a0029",
  "source": "pragma solidity ^0.4.24;\n\nimport '../access/ERC20Burner.sol';\nimport '../database/Database.sol';\n\ncontract TestBurner {\n\n  ERC20Burner public burner;\n  Database public database;\n\n  uint public amountBurnt;\n\n  constructor(address _database, address _burner)\n  public {\n    burner = ERC20Burner(_burner);\n    database = Database(_database);\n  }\n\n  function burnTokensManualFee(uint _amount)\n  external {\n    require(burner.burn(msg.sender, _amount));\n  }\n\n  // Must set fee in ERC20Burner first\n  function burnTokens()\n  external {\n    bytes4 methodID = bytes4(keccak256(abi.encodePacked(\"burnTokens()\")));\n    uint amountToBurn = database.uintStorage(keccak256(abi.encodePacked(methodID, address(this))));\n    require(burner.burn(msg.sender, amountToBurn));\n    amountBurnt += amountToBurn;\n  }\n\n  function getMethodID()\n  external\n  pure\n  returns (bytes4) {\n    return bytes4(keccak256(abi.encodePacked(\"burnTokens()\")));\n  }\n\n}\n",
  "sourcePath": "/home/peter/Documents/Work/MyBit/MyBit-Network.tech/contracts/test/TestBurner.sol",
  "compiler": {
    "name": "solc",
    "version": "0.4.25+commit.59dbf8f1.Emscripten.clang"
  },
  "schemaVersion": "3.0.0-beta.0",
  "updatedAt": "2018-12-06T01:19:16.916Z"
}