{
  "contractName": "TimeWeightedProposals",
  "abi": [
    {
      "constant": true,
      "inputs": [],
      "name": "database",
      "outputs": [
        {
          "name": "",
          "type": "address"
        }
      ],
      "payable": false,
      "stateMutability": "view",
      "type": "function"
    },
    {
      "inputs": [
        {
          "name": "_database",
          "type": "address"
        }
      ],
      "payable": false,
      "stateMutability": "nonpayable",
      "type": "constructor"
    },
    {
      "anonymous": false,
      "inputs": [
        {
          "indexed": true,
          "name": "proposalID",
          "type": "bytes32"
        },
        {
          "indexed": true,
          "name": "account",
          "type": "address"
        },
        {
          "indexed": false,
          "name": "vote",
          "type": "uint256"
        }
      ],
      "name": "Approve",
      "type": "event"
    },
    {
      "anonymous": false,
      "inputs": [
        {
          "indexed": true,
          "name": "account",
          "type": "address"
        },
        {
          "indexed": false,
          "name": "value",
          "type": "uint256"
        }
      ],
      "name": "Commit",
      "type": "event"
    },
    {
      "anonymous": false,
      "inputs": [
        {
          "indexed": true,
          "name": "proposalID",
          "type": "bytes32"
        },
        {
          "indexed": true,
          "name": "account",
          "type": "address"
        },
        {
          "indexed": false,
          "name": "vote",
          "type": "uint256"
        }
      ],
      "name": "Decline",
      "type": "event"
    },
    {
      "anonymous": false,
      "inputs": [
        {
          "indexed": true,
          "name": "proposer",
          "type": "address"
        },
        {
          "indexed": false,
          "name": "proposalID",
          "type": "bytes32"
        }
      ],
      "name": "Propose",
      "type": "event"
    },
    {
      "anonymous": false,
      "inputs": [
        {
          "indexed": false,
          "name": "proposalID",
          "type": "bytes32"
        },
        {
          "indexed": false,
          "name": "contractAddress",
          "type": "address"
        },
        {
          "indexed": false,
          "name": "methodID",
          "type": "bytes4"
        },
        {
          "indexed": false,
          "name": "parameterHash",
          "type": "bytes32"
        }
      ],
      "name": "ProposalDetails",
      "type": "event"
    },
    {
      "anonymous": false,
      "inputs": [
        {
          "indexed": true,
          "name": "account",
          "type": "address"
        },
        {
          "indexed": false,
          "name": "value",
          "type": "uint256"
        }
      ],
      "name": "Withdraw",
      "type": "event"
    },
    {
      "constant": false,
      "inputs": [
        {
          "name": "_value",
          "type": "uint256"
        },
        {
          "name": "_token",
          "type": "address"
        }
      ],
      "name": "commit",
      "outputs": [],
      "payable": false,
      "stateMutability": "nonpayable",
      "type": "function"
    },
    {
      "constant": false,
      "inputs": [
        {
          "name": "_token",
          "type": "address"
        },
        {
          "name": "_contractAddress",
          "type": "address"
        },
        {
          "name": "_methodID",
          "type": "bytes4"
        },
        {
          "name": "_parameterHash",
          "type": "bytes32"
        }
      ],
      "name": "propose",
      "outputs": [],
      "payable": false,
      "stateMutability": "nonpayable",
      "type": "function"
    },
    {
      "constant": false,
      "inputs": [
        {
          "name": "_proposalID",
          "type": "bytes32"
        }
      ],
      "name": "approve",
      "outputs": [],
      "payable": false,
      "stateMutability": "nonpayable",
      "type": "function"
    },
    {
      "constant": false,
      "inputs": [
        {
          "name": "_proposalID",
          "type": "bytes32"
        }
      ],
      "name": "decline",
      "outputs": [],
      "payable": false,
      "stateMutability": "nonpayable",
      "type": "function"
    },
    {
      "constant": false,
      "inputs": [
        {
          "name": "_token",
          "type": "address"
        }
      ],
      "name": "cancelCommitment",
      "outputs": [
        {
          "name": "",
          "type": "bool"
        }
      ],
      "payable": false,
      "stateMutability": "nonpayable",
      "type": "function"
    },
    {
      "constant": false,
      "inputs": [
        {
          "name": "_tokenHolder",
          "type": "address"
        },
        {
          "name": "_token",
          "type": "address"
        }
      ],
      "name": "withdrawTokens",
      "outputs": [
        {
          "name": "",
          "type": "bool"
        }
      ],
      "payable": false,
      "stateMutability": "nonpayable",
      "type": "function"
    },
    {
      "constant": true,
      "inputs": [
        {
          "name": "_age",
          "type": "uint256"
        }
      ],
      "name": "multiplierOf",
      "outputs": [
        {
          "name": "multiplier",
          "type": "uint8"
        }
      ],
      "payable": false,
      "stateMutability": "pure",
      "type": "function"
    },
    {
      "constant": true,
      "inputs": [
        {
          "name": "_token",
          "type": "address"
        }
      ],
      "name": "tokenIsGoverned",
      "outputs": [
        {
          "name": "",
          "type": "bool"
        }
      ],
      "payable": false,
      "stateMutability": "view",
      "type": "function"
    }
  ],
  "bytecode": "0x608060405234801561001057600080fd5b506040516020806127fb833981016040525160008054600160a060020a03909216600160a060020a03199092169190911790556127a9806100526000396000f30060806040526004361061007f5763ffffffff60e060020a6000350416630d64b071811461008457806315ee713f146100aa57806346fdeafd146100f6578063713b563f1461012b578063719ec1d71461015c5780638cc7d3d11461018a5780639dac7288146101a2578063a522ad25146101c3578063a53a1adf146101ea575b600080fd5b34801561009057600080fd5b506100a8600435600160a060020a0360243516610202565b005b3480156100b657600080fd5b506100a8600160a060020a03600435811690602435167bffffffffffffffffffffffffffffffffffffffffffffffffffffffff196044351660643561075d565b34801561010257600080fd5b50610117600160a060020a0360043516610bb9565b604080519115158252519081900360200190f35b34801561013757600080fd5b50610140610cde565b60408051600160a060020a039092168252519081900360200190f35b34801561016857600080fd5b50610174600435610ced565b6040805160ff9092168252519081900360200190f35b34801561019657600080fd5b506100a8600435610d1a565b3480156101ae57600080fd5b50610117600160a060020a036004351661110b565b3480156101cf57600080fd5b50610117600160a060020a0360043581169060243516611578565b3480156101f657600080fd5b506100a8600435611a66565b6000821161025a576040805160e560020a62461bcd02815260206004820152601760248201527f4e6f6e207a65726f2076616c7565207265717569726564000000000000000000604482015290519081900360640190fd5b6102643382611e3b565b156102b9576040805160e560020a62461bcd02815260206004820152601760248201527f636f6d6d69746d656e7420616c7265616479206d616465000000000000000000604482015290519081900360640190fd5b600054604080517f636f6d6d69746d656e742e72656c6561736574696d6500000000000000000000602080830191909152600160a060020a03858116606060020a90810260368501523302604a8401528351808403603e018152605e90930193849052825194169363a855d4ce93918291908401908083835b602083106103515780518252601f199092019160209182019101610332565b51815160209384036101000a60001901801990921691161790526040805192909401829003822063ffffffff881660e060020a0283526004830152925160248083019650939450929083900301905081600087803b1580156103b257600080fd5b505af11580156103c6573d6000803e3d6000fd5b505050506040513d60208110156103dc57600080fd5b5051156103e857600080fd5b6103f181610bb9565b15156103fc57600080fd5b604080517f23b872dd000000000000000000000000000000000000000000000000000000008152336004820152306024820152604481018490529051600160a060020a038316916323b872dd9160648083019260209291908290030181600087803b15801561046a57600080fd5b505af115801561047e573d6000803e3d6000fd5b505050506040513d602081101561049457600080fd5b505115156104ec576040805160e560020a62461bcd02815260206004820152601360248201527f7472616e7366657246726f6d206661696c656400000000000000000000000000604482015290519081900360640190fd5b600054604080517f636f6d6d69746d656e742e76616c756500000000000000000000000000000000602080830191909152600160a060020a03858116606060020a90810260308501523302604484015283518084036038018152605890930193849052825194169363e2a4853a93918291908401908083835b602083106105845780518252601f199092019160209182019101610565565b5181516020939093036101000a60001901801990911692169190911790526040805191909301819003812063ffffffff871660e060020a028252600482015260248101899052915160448084019550600094509092839003019050818387803b1580156105f057600080fd5b505af1158015610604573d6000803e3d6000fd5b5050600054604080517f636f6d6d69746d656e742e737461727400000000000000000000000000000000602080830191909152600160a060020a03878116606060020a9081026030850152330260448401528351808403603801815260589093019384905282519416955063e2a4853a9450909282918401908083835b602083106106a05780518252601f199092019160209182019101610681565b5181516020939093036101000a60001901801990911692169190911790526040805191909301819003812063ffffffff871660e060020a0282526004820152426024820152915160448084019550600094509092839003019050818387803b15801561070b57600080fd5b505af115801561071f573d6000803e3d6000fd5b50506040805185815290513393507f5e1dd8c4451717d5ca4ffbefdada35e22e0871220b9ed9dd03a351f0938c5ed792509081900360200190a25050565b60008061076a3387611e3b565b116107bf576040805160e560020a62461bcd02815260206004820152601660248201527f7573657220686173206e6f20636f6d6d69746d656e7400000000000000000000604482015290519081900360640190fd5b6107c885610bb9565b15156107d357600080fd5b60408051606060020a338102602080840191909152600160a060020a03808a1683026034850152881690910260488301527bffffffffffffffffffffffffffffffffffffffffffffffffffffffff198616605c830152606080830186905283518084039091018152608090920192839052815191929182918401908083835b602083106108715780518252601f199092019160209182019101610852565b6001836020036101000a038019825116818451168082178552505050505050905001915050604051809103902090506108a981611f7e565b156108fe576040805160e560020a62461bcd02815260206004820152601860248201527f70726f706f73616c20697320616c7265616479206f70656e0000000000000000604482015290519081900360640190fd5b600054604080517f70726f706f73616c2e7374617274000000000000000000000000000000000000602080830191909152602e80830186905283518084039091018152604e909201928390528151600160a060020a039094169363e2a4853a93918291908401908083835b602083106109885780518252601f199092019160209182019101610969565b5181516020939093036101000a60001901801990911692169190911790526040805191909301819003812063ffffffff871660e060020a0282526004820152426024820152915160448084019550600094509092839003019050818387803b1580156109f357600080fd5b505af1158015610a07573d6000803e3d6000fd5b50506000546040805160008051602061275e833981519152602080830191909152602e80830188905283518084039091018152604e909201928390528151600160a060020a03909416955063ca446dd99450909282918401908083835b60208310610a835780518252601f199092019160209182019101610a64565b5181516020939093036101000a60001901801990911692169190911790526040805191909301819003812063ffffffff871660e060020a0282526004820152600160a060020a038c166024820152915160448084019550600094509092839003019050818387803b158015610af757600080fd5b505af1158015610b0b573d6000803e3d6000fd5b50506040805184815290513393507f4a39ce763309f508271afaac253977439677efce679f6cd586a301d92e357d7192509081900360200190a260408051828152600160a060020a03861660208201527bffffffffffffffffffffffffffffffffffffffffffffffffffffffff198516818301526060810184905290517f1b1647be83e65c7a3b9046d1feafd391a3b990af41dbd4c907ad7fc49c66227b9181900360800190a15050505050565b60008054604080517f746f6b656e2e676f7665726e6564000000000000000000000000000000000000602080830191909152600160a060020a03868116606060020a02602e840152835180840360220181526042909301938490528251941693633b7bfda093918291908401908083835b60208310610c495780518252601f199092019160209182019101610c2a565b51815160209384036101000a60001901801990921691161790526040805192909401829003822063ffffffff881660e060020a0283526004830152925160248083019650939450929083900301905081600087803b158015610caa57600080fd5b505af1158015610cbe573d6000803e3d6000fd5b505050506040513d6020811015610cd457600080fd5b505190505b919050565b600054600160a060020a031681565b600060b4821015610d0057506064610cd9565b61016d821015610d1257506096610cd9565b5060c8610cd9565b600080546040805160008051602061275e833981519152602080830191909152602e80830187905283518084039091018152604e90920192839052815185948594859485948594600160a060020a03909416936304f49a3a93918291908401908083835b60208310610d9d5780518252601f199092019160209182019101610d7e565b51815160209384036101000a60001901801990921691161790526040805192909401829003822063ffffffff881660e060020a0283526004830152925160248083019650939450929083900301905081600087803b158015610dfe57600080fd5b505af1158015610e12573d6000803e3d6000fd5b505050506040513d6020811015610e2857600080fd5b50519550610e363387611e3b565b945060008511610e90576040805160e560020a62461bcd02815260206004820152601360248201527f436f6d6d69746d656e7420726571756972656400000000000000000000000000604482015290519081900360640190fd5b610e9987611f7e565b1515610eef576040805160e560020a62461bcd02815260206004820152601660248201527f4f70656e2070726f706f73616c20726571756972656400000000000000000000604482015290519081900360640190fd5b610efa878733612251565b9350610f296064610f1d610f0d88610ced565b879060ff1663ffffffff6126f116565b9063ffffffff61272716565b604080517f70726f706f73616c2e64697373656e740000000000000000000000000000000060208083019190915260308083018c9052835180840390910181526050909201928390528151939650909282918401908083835b60208310610fa15780518252601f199092019160209182019101610f82565b51815160209384036101000a6000190180199092169116179052604080519290940182900382206000805460e160020a63542aea67028552600485018390529551919950600160a060020a03909516965063a855d4ce955060248084019592945090928390030190829087803b15801561101a57600080fd5b505af115801561102e573d6000803e3d6000fd5b505050506040513d602081101561104457600080fd5b5051600054909150600160a060020a031663e2a4853a8361106b848763ffffffff61273c16565b6040518363ffffffff1660e060020a02815260040180836000191660001916815260200182815260200192505050600060405180830381600087803b1580156110b357600080fd5b505af11580156110c7573d6000803e3d6000fd5b50506040805187815290513393508a92507f68ffdaa739e1c2bdf275e04da29fa3da23ec7d0c2b2e26a9619465e58139bc229181900360200190a350505050505050565b600080600061111a3385611e3b565b11611195576040805160e560020a62461bcd02815260206004820152602360248201527f746f6b656e20686f6c646572206861736e7420636f6d6d697474656420746f6b60448201527f656e730000000000000000000000000000000000000000000000000000000000606482015290519081900360840190fd5b604080517f636f6d6d69746d656e742e72656c6561736574696d6500000000000000000000602080830191909152606060020a600160a060020a038716810260368401523302604a8301528251603e818403018152605e90920192839052815191929182918401908083835b602083106112205780518252601f199092019160209182019101611201565b51815160209384036101000a6000190180199092169116179052604080519290940182900382206000805460e160020a63542aea67028552600485018390529551919850600160a060020a03909516965063a855d4ce955060248084019592945090928390030190829087803b15801561129957600080fd5b505af11580156112ad573d6000803e3d6000fd5b505050506040513d60208110156112c357600080fd5b505142106112d057600080fd5b600054604080517f636f6d6d69746d656e742e737461727400000000000000000000000000000000602080830191909152600160a060020a03878116606060020a90810260308501523302604484015283518084036038018152605890930193849052825194169363e2b202bf93918291908401908083835b602083106113685780518252601f199092019160209182019101611349565b5181516020939093036101000a60001901801990911692169190911790526040805191909301819003812063ffffffff871660e060020a0282526004820152915160248084019550600094509092839003019050818387803b1580156113cd57600080fd5b505af11580156113e1573d6000803e3d6000fd5b5050600054604080517f746f6b656e2e766f74656475726174696f6e0000000000000000000000000000602080830191909152825180830360120181526032909201928390528151600160a060020a03909416955063e2a4853a9450869361150f93879363a855d4ce93909282918401908083835b602083106114755780518252601f199092019160209182019101611456565b51815160209384036101000a60001901801990921691161790526040805192909401829003822063ffffffff881660e060020a0283526004830152925160248083019650939450929083900301905081600087803b1580156114d657600080fd5b505af11580156114ea573d6000803e3d6000fd5b505050506040513d602081101561150057600080fd5b5051429063ffffffff61273c16565b6040518363ffffffff1660e060020a02815260040180836000191660001916815260200182815260200192505050600060405180830381600087803b15801561155757600080fd5b505af115801561156b573d6000803e3d6000fd5b5060019695505050505050565b60008060008060008061158b8888611e3b565b11611606576040805160e560020a62461bcd02815260206004820152602360248201527f746f6b656e20686f6c646572206861736e7420636f6d6d697474656420746f6b60448201527f656e730000000000000000000000000000000000000000000000000000000000606482015290519081900360840190fd5b604080517f636f6d6d69746d656e742e72656c6561736574696d6500000000000000000000602080830191909152606060020a600160a060020a03808b16820260368501528b1602604a8301528251603e818403018152605e90920192839052815191929182918401908083835b602083106116935780518252601f199092019160209182019101611674565b51815160209384036101000a6000190180199092169116179052604080519290940182900382206000805460e160020a63542aea67028552600485018390529551919b50600160a060020a03909516965063a855d4ce955060248084019592945090928390030190829087803b15801561170c57600080fd5b505af1158015611720573d6000803e3d6000fd5b505050506040513d602081101561173657600080fd5b5051925042831080156117495750600083115b151561175457600080fd5b60008054604080517fe2b202bf000000000000000000000000000000000000000000000000000000008152600481018890529051600160a060020a039092169263e2b202bf9260248084019382900301818387803b1580156117b557600080fd5b505af11580156117c9573d6000803e3d6000fd5b505050508660405160200180807f636f6d6d69746d656e742e76616c75650000000000000000000000000000000081525060100182600160a060020a0316600160a060020a0316606060020a0281526014019150506040516020818303038152906040526040518082805190602001908083835b6020831061185c5780518252601f19909201916020918201910161183d565b51815160209384036101000a6000190180199092169116179052604080519290940182900382206000805460e160020a63542aea67028552600485018390529551919950600160a060020a03909516965063a855d4ce955060248084019592945090928390030190829087803b1580156118d557600080fd5b505af11580156118e9573d6000803e3d6000fd5b505050506040513d60208110156118ff57600080fd5b505160008054604080517fe2b202bf000000000000000000000000000000000000000000000000000000008152600481018790529051939450600160a060020a039091169263e2b202bf9260248084019391929182900301818387803b15801561196857600080fd5b505af115801561197c573d6000803e3d6000fd5b5050505085600160a060020a031663a9059cbb88836040518363ffffffff1660e060020a0281526004018083600160a060020a0316600160a060020a0316815260200182815260200192505050602060405180830381600087803b1580156119e357600080fd5b505af11580156119f7573d6000803e3d6000fd5b505050506040513d6020811015611a0d57600080fd5b50511515611a1a57600080fd5b604080518281529051600160a060020a038916917f884edad9ce6fa2440d8a54cc123490eb96d2768479d49ff9c7366125a9424364919081900360200190a25060019695505050505050565b600080546040805160008051602061275e833981519152602080830191909152602e80830187905283518084039091018152604e90920192839052815185948594859485948594600160a060020a03909416936304f49a3a93918291908401908083835b60208310611ae95780518252601f199092019160209182019101611aca565b51815160209384036101000a60001901801990921691161790526040805192909401829003822063ffffffff881660e060020a0283526004830152925160248083019650939450929083900301905081600087803b158015611b4a57600080fd5b505af1158015611b5e573d6000803e3d6000fd5b505050506040513d6020811015611b7457600080fd5b50519550611b823387611e3b565b945060008511611bdc576040805160e560020a62461bcd02815260206004820152601360248201527f436f6d6d69746d656e7420726571756972656400000000000000000000000000604482015290519081900360640190fd5b611be587611f7e565b1515611c3b576040805160e560020a62461bcd02815260206004820152601660248201527f4f70656e2070726f706f73616c20726571756972656400000000000000000000604482015290519081900360640190fd5b611c46878733612251565b9350611c596064610f1d610f0d88610ced565b604080517f70726f706f73616c2e617070726f76616c00000000000000000000000000000060208083019190915260318083018c9052835180840390910181526051909201928390528151939650909282918401908083835b60208310611cd15780518252601f199092019160209182019101611cb2565b51815160209384036101000a6000190180199092169116179052604080519290940182900382206000805460e160020a63542aea67028552600485018390529551919950600160a060020a03909516965063a855d4ce955060248084019592945090928390030190829087803b158015611d4a57600080fd5b505af1158015611d5e573d6000803e3d6000fd5b505050506040513d6020811015611d7457600080fd5b5051600054909150600160a060020a031663e2a4853a83611d9b848763ffffffff61273c16565b6040518363ffffffff1660e060020a02815260040180836000191660001916815260200182815260200192505050600060405180830381600087803b158015611de357600080fd5b505af1158015611df7573d6000803e3d6000fd5b50506040805186815290513393508a92507fd2b017301643223c3bf390be6b1140c49ca74852de9c65b8c75dea20da38b0629181900360200190a350505050505050565b60008054604080517f636f6d6d69746d656e742e737461727400000000000000000000000000000000602080830191909152600160a060020a03868116606060020a9081026030850152888216026044840152835180840360380181526058909301938490528251611f7795919091169363a855d4ce9392909182918401908083835b60208310611edd5780518252601f199092019160209182019101611ebe565b51815160209384036101000a60001901801990921691161790526040805192909401829003822063ffffffff881660e060020a0283526004830152925160248083019650939450929083900301905081600087803b158015611f3e57600080fd5b505af1158015611f52573d6000803e3d6000fd5b505050506040513d6020811015611f6857600080fd5b5051429063ffffffff61274b16565b9392505050565b60008054604080517f70726f706f73616c2e7374617274000000000000000000000000000000000000602080830191909152602e80830187905283518084039091018152604e9092019283905281518594859461200e94600160a060020a039092169363a855d4ce93829184019080838360208310611edd5780518252601f199092019160209182019101611ebe565b6000546040805160008051602061275e833981519152602080830191909152602e8083018a905283518084039091018152604e909201928390528151949650600160a060020a03909316936304f49a3a939192918291908401908083835b6020831061208b5780518252601f19909201916020918201910161206c565b51815160209384036101000a60001901801990921691161790526040805192909401829003822063ffffffff881660e060020a0283526004830152925160248083019650939450929083900301905081600087803b1580156120ec57600080fd5b505af1158015612100573d6000803e3d6000fd5b505050506040513d602081101561211657600080fd5b5051600054604080517f746f6b656e2e766f74656475726174696f6e0000000000000000000000000000602080830191909152600160a060020a03808616606060020a0260328401528351808403602601815260469093019384905282519596509093169363a855d4ce939192918291908401908083835b602083106121ad5780518252601f19909201916020918201910161218e565b51815160209384036101000a60001901801990921691161790526040805192909401829003822063ffffffff881660e060020a0283526004830152925160248083019650939450929083900301905081600087803b15801561220e57600080fd5b505af1158015612222573d6000803e3d6000fd5b505050506040513d602081101561223857600080fd5b505182118015906122495750600082115b949350505050565b604080517f70726f706f73616c2e766f746564000000000000000000000000000000000000602080830191909152602e8201869052606060020a600160a060020a03851602604e83015282516042818403018152606290920192839052815160009384938493849391929182918401908083835b602083106122e45780518252601f1990920191602091820191016122c5565b51815160209384036101000a6000190180199092169116179052604080519290940182900382206000805460e160020a63542aea67028552600485018390529551919a50600160a060020a03909516965063a855d4ce955060248084019592945090928390030190829087803b15801561235d57600080fd5b505af1158015612371573d6000803e3d6000fd5b505050506040513d602081101561238757600080fd5b50511561239357600080fd5b600054604080517f636f6d6d69746d656e742e76616c756500000000000000000000000000000000602080830191909152600160a060020a038a8116606060020a90810260308501528a821602604484015283518084036038018152605890930193849052825194169363a855d4ce93918291908401908083835b6020831061242d5780518252601f19909201916020918201910161240e565b51815160209384036101000a60001901801990921691161790526040805192909401829003822063ffffffff881660e060020a0283526004830152925160248083019650939450929083900301905081600087803b15801561248e57600080fd5b505af11580156124a2573d6000803e3d6000fd5b505050506040513d60208110156124b857600080fd5b50519350600084116124c657fe5b60008054604080517fe2a4853a00000000000000000000000000000000000000000000000000000000815260048101879052602481018890529051600160a060020a039092169263e2a4853a9260448084019382900301818387803b15801561252e57600080fd5b505af1158015612542573d6000803e3d6000fd5b5050604080517f70726f706f73616c2e766f7465636f756e74000000000000000000000000000060208083019190915260328083018d905283518084039091018152605290920192839052815191945091925082918401908083835b602083106125bd5780518252601f19909201916020918201910161259e565b51815160209384036101000a6000190180199092169116179052604080519290940182900382206000805460e160020a63542aea67028552600485018390529551919950600160a060020a03909516965063a855d4ce955060248084019592945090928390030190829087803b15801561263657600080fd5b505af115801561264a573d6000803e3d6000fd5b505050506040513d602081101561266057600080fd5b5051600054909150600160a060020a031663e2a4853a83612687848863ffffffff61273c16565b6040518363ffffffff1660e060020a02815260040180836000191660001916815260200182815260200192505050600060405180830381600087803b1580156126cf57600080fd5b505af11580156126e3573d6000803e3d6000fd5b505050505050509392505050565b6000808315156127045760009150612720565b5082820282848281151561271457fe5b041461271c57fe5b8091505b5092915050565b6000818381151561273457fe5b049392505050565b60008282018381101561271c57fe5b60008282111561275757fe5b50900390560070726f706f73616c2e746f6b656e000000000000000000000000000000000000a165627a7a72305820c6eed59155ae77f9c4d6bcd43f588fa86ca053fd9db3d0595e69b0fa20efed7c0029",
  "source": "pragma solidity ^0.4.24;\n\nimport \"../math/SafeMath.sol\";\n\ninterface ERC20 {\n  function transfer(address _to, uint256 _value) external returns (bool);\n  function transferFrom(address _from, address _to, uint256 _value) external returns (bool);\n}\ninterface DB {\n  function addressStorage(bytes32 _key) external view returns (address);\n  function uintStorage(bytes32 _key) external view returns (uint);\n  function boolStorage(bytes32 _key) external view returns (bool);\n  function deleteUint(bytes32 _key) external;\n  function setBool(bytes32 _key, bool _bool) external;\n  function setUint(bytes32 _key, uint _value) external;\n  function setBytes32(bytes32 _key, bytes32 _value) external;\n  function setAddress(bytes32 _key, address _value) external;\n}\n\n\n/**\n * @title Proposal voting\n * @notice\n * Anyone can create a proposal. An token holder can lock their tokens to become\n * a voter. Voters may approve or decline proposals. Vote weight increases as\n * tokens are locked for longer periods. A proposal closes after a configurable\n * vote duration. It passes if a quorum of total MYB supply voted and the\n * approval ratio of weighted votes reaches the required threshold.\n *\n * Provide the address of the MYB token contract, vote duration, quorum, and\n * approval threshold. On each proposal, voting will be open for the specified\n * duration. For a proposal to be eligible to pass the percent of total MYB\n * that votes must be at least the quorum. For a proposal to pass the percent\n * of weighted votes that are approval must be at least the approval threshold.\n */\ncontract TimeWeightedProposals {\n  using SafeMath for uint256;\n\n\n  DB public database;\n\n\n  // @notice constructor\n  // @param _database instance\n  constructor(address _database)\n  public {\n    database = DB(_database);\n  }\n\n\n\n  /**\n   * Commit MYB to voting\n   * @notice Commits specified amount of your MYB to voting.\n   * @dev Fails if you already have an active commitment. Emits Commit on success.\n   * @param _value - MYB amount to commit.\n   */\n  function commit(uint256 _value, address _token)\n  external {\n    require(_value > 0, \"Non zero value required\");\n    require(commitmentAge(msg.sender, _token) == 0, \"commitment already made\");\n    require(database.uintStorage(keccak256(abi.encodePacked(\"commitment.releasetime\", _token, msg.sender))) == 0);\n    require(tokenIsGoverned(_token));\n    require(ERC20(_token).transferFrom(msg.sender, address(this), _value), \"transferFrom failed\");\n    database.setUint(keccak256(abi.encodePacked(\"commitment.value\",  _token, msg.sender)), _value);\n    database.setUint(keccak256(abi.encodePacked(\"commitment.start\", _token, msg.sender)), now);\n    emit Commit(msg.sender, _value);\n  }\n\n\n  // @notice Creates a new proposal with the specified identifier. Fails if there is no voting committed. Fails if a proposal with the same identifier already exists.\n  // @param _proposalID - Identifier of new proposal.\n  // TODO: format calldata properly\n  function propose(address _token, address _contractAddress, bytes4 _methodID, bytes32 _parameterHash)\n  external {\n    require(commitmentAge(msg.sender, _token) > 0, \"user has no commitment\");\n    require(tokenIsGoverned(_token));\n    bytes32 proposalID = keccak256(abi.encodePacked(msg.sender, _token, _contractAddress, _methodID, _parameterHash));\n    require(!proposalOpen(proposalID), \"proposal is already open\");\n    database.setUint(keccak256(abi.encodePacked(\"proposal.start\", proposalID)), now);\n    database.setAddress(keccak256(abi.encodePacked(\"proposal.token\", proposalID)), _token);\n    emit Propose(msg.sender, proposalID);\n    emit ProposalDetails(proposalID, _contractAddress, _methodID, _parameterHash);\n  }\n\n\n\n  // @notice Approves proposal with all of your committed tokens\n  // @param _proposalID - Identifier of proposal to approve.\n  function approve(bytes32 _proposalID)\n  external {\n    address token = database.addressStorage(keccak256(abi.encodePacked(\"proposal.token\", _proposalID)));\n    uint age = commitmentAge(msg.sender, token);\n    require(age > 0, \"Commitment required\");  // Tokens committed + waited minimum staking time\n    require(proposalOpen(_proposalID), \"Open proposal required\");    // Is the proposal waiting execution?\n    uint256 commitValue = tallyVotes(_proposalID, token, msg.sender);\n    uint256 voteWeight = commitValue.mul(multiplierOf(age)).div(100);\n    bytes32 approvalID = keccak256(abi.encodePacked(\"proposal.approval\", _proposalID));\n    uint256 approval = database.uintStorage(approvalID);\n    database.setUint(approvalID, approval.add(voteWeight));\n    emit Approve(_proposalID, msg.sender, voteWeight);\n  }\n\n\n  // @notice Declines proposal with all of your committed tokens. Your vote is weighted differently depending on how long your tokens have been committed.\n  // Requires an unlocked commitment and an open proposal you haven't voted on. Emits Decline on success.\n  // @param _proposalID - Identifier of proposal to decline.\n  function decline(bytes32 _proposalID)\n  external {\n    address token = database.addressStorage(keccak256(abi.encodePacked(\"proposal.token\", _proposalID)));\n    uint age = commitmentAge(msg.sender, token);\n    require(age > 0, \"Commitment required\");\n    require(proposalOpen(_proposalID), \"Open proposal required\");\n    uint256 commitValue = tallyVotes(_proposalID, token, msg.sender);\n    uint256 voteWeight = commitValue.mul(multiplierOf(age)).div(100);\n    bytes32 dissentID = keccak256(abi.encodePacked(\"proposal.dissent\", _proposalID));\n    uint256 dissent = database.uintStorage(dissentID);\n    database.setUint(dissentID, dissent.add(voteWeight));\n    emit Decline(_proposalID, msg.sender, commitValue);\n  }\n\n\n  // @notice Updates users vote and the total vote count for this proposal\n  function tallyVotes(bytes32 _proposalID, address _token, address _tokenHolder)\n  internal\n  returns (uint commitValue) {\n    bytes32 userVoteID = keccak256(abi.encodePacked(\"proposal.voted\", _proposalID, _tokenHolder));\n    require(database.uintStorage(userVoteID) == 0);  // make sure token holder hasn't already voted\n    commitValue = database.uintStorage(keccak256(abi.encodePacked(\"commitment.value\", _token, _tokenHolder)));\n    assert (commitValue > 0);\n    database.setUint(userVoteID, commitValue);\n    bytes32 voteID = keccak256(abi.encodePacked(\"proposal.votecount\", _proposalID));\n    uint256 voteCount = database.uintStorage(voteID);\n    database.setUint(voteID, voteCount.add(commitValue));\n    return commitValue;\n  }\n\n  // @notice token holder can signal their commitment to be withdrawn after proposal time has elapsed\n  // @param _tokenHolder : the address of the tokenholder to cancelCommitment\n  function cancelCommitment(address _token)\n  external\n  returns (bool){\n    require(commitmentAge(msg.sender, _token) > 0, \"token holder hasnt committed tokens\");\n    bytes32 releaseTimeID = keccak256(abi.encodePacked(\"commitment.releasetime\", _token, msg.sender));\n    require(now < database.uintStorage(releaseTimeID));\n    database.deleteUint(keccak256(abi.encodePacked(\"commitment.start\", _token, msg.sender)));   // remove reference to start date which is the authortiy check\n    database.setUint(releaseTimeID, now.add(database.uintStorage(keccak256(abi.encodePacked(\"token.voteduration\")))));\n    return true;\n  }\n\n\n  // @notice Withdraws all of your committed MYB to the original address.\n  // @dev Fails if your commitment is locked.\n  function withdrawTokens(address _tokenHolder, address _token)\n  external\n  returns (bool){\n    require(commitmentAge(_tokenHolder, _token) > 0, \"token holder hasnt committed tokens\");\n    bytes32 releaseTimeID = keccak256(abi.encodePacked(\"commitment.releasetime\", _token, _tokenHolder));\n    uint releaseTime = database.uintStorage(releaseTimeID);\n    require(now > releaseTime && releaseTime > 0);\n    database.deleteUint(releaseTimeID);\n    bytes32 commitmentValueID = keccak256(abi.encodePacked(\"commitment.value\", _tokenHolder));\n    uint256 value = database.uintStorage(commitmentValueID);\n    database.deleteUint(commitmentValueID);\n    require(ERC20(_token).transfer(_tokenHolder, value));\n    emit Withdraw(_tokenHolder, value);\n    return true;\n  }\n\n  // --------\n  // Internal\n\n  /**\n   * @dev Assumes active commitment.\n   * @param _account - Account owning commitment to get age of.\n   * @return age - Commitment age.\n   */\n  function commitmentAge(address _account, address _token)\n  internal\n  view\n  returns (uint256) {\n    return now.sub(database.uintStorage(keccak256(abi.encodePacked(\"commitment.start\", _token, _account))));\n  }\n\n  /**\n   * @notice proposal is open for voting until vote duration has elapsed.\n   * @return open - Whether proposal is open.\n   */\n  function proposalOpen(bytes32 _proposalID)\n  internal\n  view\n  returns (bool open) {\n    uint256 age = now.sub(database.uintStorage(keccak256(abi.encodePacked(\"proposal.start\", _proposalID))));\n    address token = database.addressStorage(keccak256(abi.encodePacked(\"proposal.token\", _proposalID)));\n    return (age <= database.uintStorage(keccak256(abi.encodePacked(\"token.voteduration\", token))) && age > 0);\n  }\n\n  /**\n   * @notice Gets commitment multiplier. A commitment multiplier changes as the commitment advances tiers.\n   * @dev Fails if account has no active commitment.\n   * @param _age - The age of the commitment\n   * @return multiplier - Current commitment multiplier.\n   */\n  function multiplierOf(uint _age)\n  public\n  pure\n  returns (uint8 multiplier) {\n    if (_age < 180) return 100;\n    if (_age < 365) return 150;\n    else return 200;\n  }\n\n  // --------\n  // Modifier\n\n  function tokenIsGoverned(address _token)\n  public\n  view\n  returns (bool){\n    return (database.boolStorage(keccak256(abi.encodePacked(\"token.governed\", _token))));\n  }\n\n\n  // -----\n  // Event\n\n  /** Approve vote cast */\n  event Approve(\n    bytes32 indexed proposalID,                 // Approved proposal identifier\n    address indexed account,                    // Approving account\n    uint256 vote                                // Weighted approval amount\n  );\n\n  /** MYB committed to voting */\n  event Commit(\n    address indexed account,                    // Committing account\n    uint256 value                               // MYB amount committed\n  );\n\n  /** Decline vote cast */\n  event Decline(\n    bytes32 indexed proposalID,                 // Declined proposal identifier\n    address indexed account,                    // Declining account\n    uint256 vote                                // Weighted dissent amount\n  );\n\n  /** Proposal created */\n  event Propose(\n    address indexed proposer,                   // Proposing account\n    bytes32 proposalID                          // Proposal identifier\n  );\n\n  event ProposalDetails(\n    bytes32 proposalID,\n    address contractAddress,\n    bytes4 methodID,\n    bytes32 parameterHash\n  );\n\n  /** Commitment withdrawn */\n  event Withdraw(\n    address indexed account,                    // Withdrawing account\n    uint256 value                               // MYB amount withdrawn\n  );\n}\n",
  "sourcePath": "/home/peter/Documents/Work/MyBit/MyBit-Network.tech/contracts/ownership/TimeWeightedProposals.sol",
  "compiler": {
    "name": "solc",
    "version": "0.4.25+commit.59dbf8f1.Emscripten.clang"
  },
  "schemaVersion": "3.0.0-beta.0",
  "updatedAt": "2018-12-06T01:19:16.845Z"
}