{
  "contractName": "TokenOwned",
  "abi": [
    {
      "constant": true,
      "inputs": [
        {
          "name": "",
          "type": "address"
        }
      ],
      "name": "delegate",
      "outputs": [
        {
          "name": "",
          "type": "address"
        }
      ],
      "payable": false,
      "stateMutability": "view",
      "type": "function"
    },
    {
      "constant": true,
      "inputs": [],
      "name": "database",
      "outputs": [
        {
          "name": "",
          "type": "address"
        }
      ],
      "payable": false,
      "stateMutability": "view",
      "type": "function"
    },
    {
      "constant": true,
      "inputs": [
        {
          "name": "",
          "type": "bytes32"
        }
      ],
      "name": "numberOfSignatures",
      "outputs": [
        {
          "name": "",
          "type": "uint256"
        }
      ],
      "payable": false,
      "stateMutability": "view",
      "type": "function"
    },
    {
      "constant": true,
      "inputs": [
        {
          "name": "",
          "type": "bytes32"
        }
      ],
      "name": "quorumLevel",
      "outputs": [
        {
          "name": "",
          "type": "uint256"
        }
      ],
      "payable": false,
      "stateMutability": "view",
      "type": "function"
    },
    {
      "constant": true,
      "inputs": [
        {
          "name": "",
          "type": "bytes32"
        }
      ],
      "name": "functionCallAuthorized",
      "outputs": [
        {
          "name": "",
          "type": "bool"
        }
      ],
      "payable": false,
      "stateMutability": "view",
      "type": "function"
    },
    {
      "inputs": [
        {
          "name": "_restrictedFunctions",
          "type": "bytes32[]"
        },
        {
          "name": "_quorumLevel",
          "type": "uint256[]"
        }
      ],
      "payable": false,
      "stateMutability": "nonpayable",
      "type": "constructor"
    },
    {
      "anonymous": false,
      "inputs": [
        {
          "indexed": true,
          "name": "_previousOwner",
          "type": "address"
        },
        {
          "indexed": true,
          "name": "_newOwner",
          "type": "address"
        }
      ],
      "name": "LogOwnerChanged",
      "type": "event"
    },
    {
      "anonymous": false,
      "inputs": [
        {
          "indexed": true,
          "name": "_owner",
          "type": "address"
        },
        {
          "indexed": true,
          "name": "_functionName",
          "type": "string"
        },
        {
          "indexed": true,
          "name": "_beneficiary",
          "type": "bytes32"
        },
        {
          "indexed": false,
          "name": "_authHash",
          "type": "bytes32"
        }
      ],
      "name": "LogFunctionAuthorized",
      "type": "event"
    },
    {
      "constant": false,
      "inputs": [
        {
          "name": "_contractAddress",
          "type": "address"
        },
        {
          "name": "_methodID",
          "type": "bytes4"
        },
        {
          "name": "_quorumLevel",
          "type": "uint256"
        }
      ],
      "name": "addRestrictedFunction",
      "outputs": [],
      "payable": false,
      "stateMutability": "nonpayable",
      "type": "function"
    },
    {
      "constant": false,
      "inputs": [
        {
          "name": "_contractAddress",
          "type": "address"
        },
        {
          "name": "_methodID",
          "type": "bytes4"
        },
        {
          "name": "_parameterHash",
          "type": "bytes32"
        }
      ],
      "name": "signForFunctionCall",
      "outputs": [],
      "payable": false,
      "stateMutability": "nonpayable",
      "type": "function"
    }
  ],
  "bytecode": "0x608060405234801561001057600080fd5b506040516116d23803806116d28339810180604052810190808051820192919060200180518201929190505050600081518351148015610051575060648351105b151561005c57600080fd5b600090505b82518160ff161015610166576000809054906101000a900473ffffffffffffffffffffffffffffffffffffffff1673ffffffffffffffffffffffffffffffffffffffff1663e2a4853a848360ff168151811015156100bb57fe5b90602001906020020151848460ff168151811015156100d657fe5b906020019060200201516040518363ffffffff167c010000000000000000000000000000000000000000000000000000000002815260040180836000191660001916815260200182815260200192505050600060405180830381600087803b15801561014157600080fd5b505af1158015610155573d6000803e3d6000fd5b505050508080600101915050610061565b50505061155a806101786000396000f300608060405260043610610083576000357c0100000000000000000000000000000000000000000000000000000000900463ffffffff1680635c19a95c1461008857806369d4e8581461010b578063713b563f1461018157806392f772ff146101d857806395ec94631461021d578063bf4a5c9814610297578063fd5b6fd6146102dc575b600080fd5b34801561009457600080fd5b506100c9600480360381019080803573ffffffffffffffffffffffffffffffffffffffff169060200190929190505050610325565b604051808273ffffffffffffffffffffffffffffffffffffffff1673ffffffffffffffffffffffffffffffffffffffff16815260200191505060405180910390f35b34801561011757600080fd5b5061017f600480360381019080803573ffffffffffffffffffffffffffffffffffffffff16906020019092919080357bffffffffffffffffffffffffffffffffffffffffffffffffffffffff1916906020019092919080359060200190929190505050610358565b005b34801561018d57600080fd5b50610196610c66565b604051808273ffffffffffffffffffffffffffffffffffffffff1673ffffffffffffffffffffffffffffffffffffffff16815260200191505060405180910390f35b3480156101e457600080fd5b506102076004803603810190808035600019169060200190929190505050610c8b565b6040518082815260200191505060405180910390f35b34801561022957600080fd5b50610295600480360381019080803573ffffffffffffffffffffffffffffffffffffffff16906020019092919080357bffffffffffffffffffffffffffffffffffffffffffffffffffffffff191690602001909291908035600019169060200190929190505050610ca3565b005b3480156102a357600080fd5b506102c660048036038101908080356000191690602001909291905050506114d8565b6040518082815260200191505060405180910390f35b3480156102e857600080fd5b5061030b60048036038101908080356000191690602001909291905050506114f0565b604051808215151515815260200191505060405180910390f35b60046020528060005260406000206000915054906101000a900473ffffffffffffffffffffffffffffffffffffffff1681565b600060405160200180807f6164645265737472696374656446756e6374696f6e28616464726573732c206281526020017f79746573342c2075696e74323536290000000000000000000000000000000000815250602f0190506040516020818303038152906040526040518082805190602001908083835b6020831015156103f557805182526020820191506020810190506020830392506103d0565b6001836020036101000a0380198251168184511680821785525050505050509050019150506040518091039020848484604051602001808473ffffffffffffffffffffffffffffffffffffffff1673ffffffffffffffffffffffffffffffffffffffff166c01000000000000000000000000028152601401837bffffffffffffffffffffffffffffffffffffffffffffffffffffffff19167bffffffffffffffffffffffffffffffffffffffffffffffffffffffff1916815260040182815260200193505050506040516020818303038152906040526040518082805190602001908083835b60208310151561050057805182526020820191506020810190506020830392506104db565b6001836020036101000a03801982511681845116808217855250505050505090500191505060405180910390206000809054906101000a900473ffffffffffffffffffffffffffffffffffffffff1673ffffffffffffffffffffffffffffffffffffffff16633b7bfda0308484604051602001808473ffffffffffffffffffffffffffffffffffffffff1673ffffffffffffffffffffffffffffffffffffffff166c01000000000000000000000000028152601401837bffffffffffffffffffffffffffffffffffffffffffffffffffffffff19167bffffffffffffffffffffffffffffffffffffffffffffffffffffffff19168152600401826000191660001916815260200193505050506040516020818303038152906040526040518082805190602001908083835b602083101515610650578051825260208201915060208101905060208303925061062b565b6001836020036101000a03801982511681845116808217855250505050505090500191505060405180910390206040518263ffffffff167c0100000000000000000000000000000000000000000000000000000000028152600401808260001916600019168152602001915050602060405180830381600087803b1580156106d757600080fd5b505af11580156106eb573d6000803e3d6000fd5b505050506040513d602081101561070157600080fd5b8101908080519060200190929190505050151561071d57600080fd5b6000809054906101000a900473ffffffffffffffffffffffffffffffffffffffff1673ffffffffffffffffffffffffffffffffffffffff16633b7bfda03360405160200180807f6f776e65720000000000000000000000000000000000000000000000000000008152506005018273ffffffffffffffffffffffffffffffffffffffff1673ffffffffffffffffffffffffffffffffffffffff166c010000000000000000000000000281526014019150506040516020818303038152906040526040518082805190602001908083835b60208310151561081257805182526020820191506020810190506020830392506107ed565b6001836020036101000a03801982511681845116808217855250505050505090500191505060405180910390206040518263ffffffff167c0100000000000000000000000000000000000000000000000000000000028152600401808260001916600019168152602001915050602060405180830381600087803b15801561089957600080fd5b505af11580156108ad573d6000803e3d6000fd5b505050506040513d60208110156108c357600080fd5b810190808051906020019092919050505015156108df57600080fd5b8585604051602001808373ffffffffffffffffffffffffffffffffffffffff1673ffffffffffffffffffffffffffffffffffffffff166c01000000000000000000000000028152601401827bffffffffffffffffffffffffffffffffffffffffffffffffffffffff19167bffffffffffffffffffffffffffffffffffffffffffffffffffffffff19168152600401925050506040516020818303038152906040526040518082805190602001908083835b6020831015156109b55780518252602082019150602081019050602083039250610990565b6001836020036101000a038019825116818451168082178552505050505050905001915050604051809103902092506000809054906101000a900473ffffffffffffffffffffffffffffffffffffffff1673ffffffffffffffffffffffffffffffffffffffff1663e2a4853a84866040518363ffffffff167c010000000000000000000000000000000000000000000000000000000002815260040180836000191660001916815260200182815260200192505050600060405180830381600087803b158015610a8457600080fd5b505af1158015610a98573d6000803e3d6000fd5b505050506000809054906101000a900473ffffffffffffffffffffffffffffffffffffffff1673ffffffffffffffffffffffffffffffffffffffff16632c62ff2d308484604051602001808473ffffffffffffffffffffffffffffffffffffffff1673ffffffffffffffffffffffffffffffffffffffff166c01000000000000000000000000028152601401837bffffffffffffffffffffffffffffffffffffffffffffffffffffffff19167bffffffffffffffffffffffffffffffffffffffffffffffffffffffff19168152600401826000191660001916815260200193505050506040516020818303038152906040526040518082805190602001908083835b602083101515610bbf5780518252602082019150602081019050602083039250610b9a565b6001836020036101000a03801982511681845116808217855250505050505090500191505060405180910390206040518263ffffffff167c0100000000000000000000000000000000000000000000000000000000028152600401808260001916600019168152602001915050600060405180830381600087803b158015610c4657600080fd5b505af1158015610c5a573d6000803e3d6000fd5b50505050505050505050565b6000809054906101000a900473ffffffffffffffffffffffffffffffffffffffff1681565b60036020528060005260406000206000915090505481565b6000806000806000809054906101000a900473ffffffffffffffffffffffffffffffffffffffff1673ffffffffffffffffffffffffffffffffffffffff16633b7bfda03360405160200180807f6f776e65720000000000000000000000000000000000000000000000000000008152506005018273ffffffffffffffffffffffffffffffffffffffff1673ffffffffffffffffffffffffffffffffffffffff166c010000000000000000000000000281526014019150506040516020818303038152906040526040518082805190602001908083835b602083101515610d9e5780518252602082019150602081019050602083039250610d79565b6001836020036101000a03801982511681845116808217855250505050505090500191505060405180910390206040518263ffffffff167c0100000000000000000000000000000000000000000000000000000000028152600401808260001916600019168152602001915050602060405180830381600087803b158015610e2557600080fd5b505af1158015610e39573d6000803e3d6000fd5b505050506040513d6020811015610e4f57600080fd5b81019080805190602001909291905050501515610e6b57600080fd5b868686604051602001808473ffffffffffffffffffffffffffffffffffffffff1673ffffffffffffffffffffffffffffffffffffffff166c01000000000000000000000000028152601401837bffffffffffffffffffffffffffffffffffffffffffffffffffffffff19167bffffffffffffffffffffffffffffffffffffffffffffffffffffffff19168152600401826000191660001916815260200193505050506040516020818303038152906040526040518082805190602001908083835b602083101515610f515780518252602082019150602081019050602083039250610f2c565b6001836020036101000a038019825116818451168082178552505050505050905001915050604051809103902093506000809054906101000a900473ffffffffffffffffffffffffffffffffffffffff1673ffffffffffffffffffffffffffffffffffffffff166304f49a3a60405160200180807f706c6174666f726d546f6b656e00000000000000000000000000000000000000815250600d0190506040516020818303038152906040526040518082805190602001908083835b602083101515611032578051825260208201915060208101905060208303925061100d565b6001836020036101000a03801982511681845116808217855250505050505090500191505060405180910390206040518263ffffffff167c0100000000000000000000000000000000000000000000000000000000028152600401808260001916600019168152602001915050602060405180830381600087803b1580156110b957600080fd5b505af11580156110cd573d6000803e3d6000fd5b505050506040513d60208110156110e357600080fd5b810190808051906020019092919050505092508273ffffffffffffffffffffffffffffffffffffffff166370a08231336040518263ffffffff167c0100000000000000000000000000000000000000000000000000000000028152600401808273ffffffffffffffffffffffffffffffffffffffff1673ffffffffffffffffffffffffffffffffffffffff168152602001915050602060405180830381600087803b15801561119157600080fd5b505af11580156111a5573d6000803e3d6000fd5b505050506040513d60208110156111bb57600080fd5b810190808051906020019092919050505091506000809054906101000a900473ffffffffffffffffffffffffffffffffffffffff1673ffffffffffffffffffffffffffffffffffffffff1663a855d4ce8560405160200180807f6e756d6265724f665369676e617475726573000000000000000000000000000081525060120182600019166000191681526020019150506040516020818303038152906040526040518082805190602001908083835b602083101515611290578051825260208201915060208101905060208303925061126b565b6001836020036101000a03801982511681845116808217855250505050505090500191505060405180910390206040518263ffffffff167c0100000000000000000000000000000000000000000000000000000000028152600401808260001916600019168152602001915050602060405180830381600087803b15801561131757600080fd5b505af115801561132b573d6000803e3d6000fd5b505050506040513d602081101561134157600080fd5b810190808051906020019092919050505090506000809054906101000a900473ffffffffffffffffffffffffffffffffffffffff1673ffffffffffffffffffffffffffffffffffffffff1663e2a4853a8560405160200180807f6e756d6265724f665369676e617475726573000000000000000000000000000081525060120182600019166000191681526020019150506040516020818303038152906040526040518082805190602001908083835b60208310151561141657805182526020820191506020810190506020830392506113f1565b6001836020036101000a0380198251168184511680821785525050505050509050019150506040518091039020611456858561151090919063ffffffff16565b6040518363ffffffff167c010000000000000000000000000000000000000000000000000000000002815260040180836000191660001916815260200182815260200192505050600060405180830381600087803b1580156114b757600080fd5b505af11580156114cb573d6000803e3d6000fd5b5050505050505050505050565b60016020528060005260406000206000915090505481565b60026020528060005260406000206000915054906101000a900460ff1681565b600080828401905083811015151561152457fe5b80915050929150505600a165627a7a723058206d1c65da47472bfd24da943dd5ac0906431b9335a114c1142467ac2469860ae40029",
  "source": "pragma solidity 0.4.24;\n\nimport '../database/Database.sol';\nimport '../math/SafeMath.sol'; \nimport '../interfaces/ERC20.sol'; \n\n\n// @title A contract which allows for token holders to restrict/approve functions on the platform\n// @notice Two owners are required to agree on a function to be called\n// @dev An owner has already been initialized when database is deployed\n// @author Kyle Dewhurst, MyBit Foundation\n// TODO: Lock tokens to avoid double voting from different accounts\ncontract TokenOwned {\n  using SafeMath for uint256; \n  Database public database;\n\n\n  // NOTE: Local contract variables only here as a reference\n\n  // @notice bytes32 key is sha3(contractAddress, methodID)    methodID = bytes4(sha3(\"functionName(parameterType, parameterType, etc...)) \")\n  mapping (bytes32 => uint) public quorumLevel;     // Percentage of how many owners need to sign this function\n\n  // @notice bytes32 key is sha3(contractAddress, methodID, sha3(parameter(s)))\n  mapping (bytes32 => bool) public functionCallAuthorized;     // has enough signatures for this contract to call that function\n  mapping (bytes32 => uint) public numberOfSignatures; \n\n  mapping (address => address) public delegate;    // user can authorize another address to vote for them\n\n  // @notice creator of the contract sets the initial functions quorum level, dictating the level of consensus required for that function\n  constructor(bytes32[] _restrictedFunctions, uint[] _quorumLevel)\n  public { \n    require(_restrictedFunctions.length == _quorumLevel.length && _restrictedFunctions.length < 100); \n    for (uint8 i = 0; i < _restrictedFunctions.length; i++){\n      database.setUint(_restrictedFunctions[i], _quorumLevel[i]); \n    }\n  }\n\n  // If restricted it will have to be called from address(this) using a voting proccess on signForFunctionCall\n  function addRestrictedFunction(address _contractAddress, bytes4 _methodID, uint _quorumLevel)\n  external \n  isRestricted(bytes4(keccak256(abi.encodePacked(\"addRestrictedFunction(address, bytes4, uint256)\"))), keccak256(abi.encodePacked(_contractAddress, _methodID, _quorumLevel)))\n  anyOwner { \n    bytes32 functionID = keccak256(abi.encodePacked(_contractAddress, _methodID));\n    database.setUint(functionID, _quorumLevel); \n  }\n\n  // @param (bytes32) _parameterHash = The hash of the exact parameter to be called for function...ie sha3(0x3b443c34, 55)\n  function signForFunctionCall(address _contractAddress, bytes4 _methodID, bytes32 _parameterHash)\n  external\n  anyOwner {\n    bytes32 sigRequestID = keccak256(abi.encodePacked(_contractAddress, _methodID, _parameterHash)); \n    ERC20 platformToken = ERC20(database.addressStorage(keccak256(abi.encodePacked(\"platformToken\"))));\n    uint tokenHoldings = platformToken.balanceOf(msg.sender); \n    uint numSignatures = database.uintStorage(keccak256(abi.encodePacked(\"numberOfSignatures\", sigRequestID)));\n    database.setUint(keccak256(abi.encodePacked(\"numberOfSignatures\", sigRequestID)), numSignatures.add(tokenHoldings)); \n  }\n\n\n\n  //------------------------------------------------------------------------------------------------------------------\n  //                                                Modifiers\n  //------------------------------------------------------------------------------------------------------------------\n\n\n  //------------------------------------------------------------------------------------------------------------------\n  // Verifies that sender is an owners\n  //------------------------------------------------------------------------------------------------------------------\n  modifier anyOwner {\n    require(database.boolStorage(keccak256(abi.encodePacked(\"owner\", msg.sender))));\n    _;\n  }\n\n  // @notice add this modifer to functions that you want multi-sig requirements for\n  // @dev function can only be called after at least n >= quorumLevel owners have agreed to call it\n  modifier isRestricted(bytes4 _methodID, bytes32 _parameterHash) { \n      require(database.boolStorage(keccak256(abi.encodePacked(address(this), _methodID, _parameterHash))));  // owners must have agreed on function + parameters\n    _;\n      database.deleteBool(keccak256(abi.encodePacked(address(this), _methodID, _parameterHash)));  \n  }\n\n  //------------------------------------------------------------------------------------------------------------------\n  // Verifies no empty addresses are input\n  //------------------------------------------------------------------------------------------------------------------\n  modifier noZeroAddress(address _param) {\n    require (_param != address(0));\n    _;\n  }\n\n\n  //------------------------------------------------------------------------------------------------------------------\n  //                                              Events\n  //------------------------------------------------------------------------------------------------------------------\n  event LogOwnerChanged(address indexed _previousOwner, address indexed _newOwner);\n  event LogFunctionAuthorized(address indexed _owner, string indexed _functionName, bytes32 indexed _beneficiary, bytes32 _authHash);\n}\n",
  "sourcePath": "/home/peter/Documents/Work/MyBit/MyBit-Network.tech/contracts/ownership/TokenOwned.sol",
  "compiler": {
    "name": "solc",
    "version": "0.4.24+commit.e67f0147.Emscripten.clang"
  },
  "schemaVersion": "2.0.1",
  "updatedAt": "2018-09-21T21:11:39.111Z"
}