{
  "contractName": "TokenConverter",
  "abi": [
    {
      "inputs": [
        {
          "name": "_token",
          "type": "address"
        },
        {
          "name": "_bancorNetwork",
          "type": "address"
        }
      ],
      "payable": false,
      "stateMutability": "nonpayable",
      "type": "constructor"
    },
    {
      "constant": false,
      "inputs": [
        {
          "name": "_token",
          "type": "address"
        },
        {
          "name": "_amount",
          "type": "uint256"
        },
        {
          "name": "_minimumReturn",
          "type": "uint256"
        }
      ],
      "name": "convertTokenToMyBit",
      "outputs": [],
      "payable": true,
      "stateMutability": "payable",
      "type": "function"
    },
    {
      "constant": false,
      "inputs": [
        {
          "name": "token",
          "type": "address"
        },
        {
          "name": "_newPath",
          "type": "address[]"
        }
      ],
      "name": "addPath",
      "outputs": [
        {
          "name": "",
          "type": "bool"
        }
      ],
      "payable": false,
      "stateMutability": "nonpayable",
      "type": "function"
    }
  ],
  "bytecode": "0x608060405234801561001057600080fd5b5060405160408061083483398101604052805160209091015160008054600160a060020a03938416600160a060020a03199182161790915560038054821633179055600180549390921692169190911790556107c3806100716000396000f30060806040526004361061004b5763ffffffff7c01000000000000000000000000000000000000000000000000000000006000350416631f0a3da68114610050578063b1b20d271461006c575b600080fd5b61006a600160a060020a03600435166024356044356100e3565b005b34801561007857600080fd5b506040805160206004602480358281013584810280870186019097528086526100cf968435600160a060020a0316963696604495919490910192918291850190849080828437509497506106a49650505050505050565b604080519115158252519081900360200190f35b60008034151561023257600154604080517f23b872dd000000000000000000000000000000000000000000000000000000008152336004820152600160a060020a039283166024820152604481018790529051879450918416916323b872dd916064808201926020929091908290030181600087803b15801561016557600080fd5b505af1158015610179573d6000803e3d6000fd5b505050506040513d602081101561018f57600080fd5b5050600154604080517f095ea7b3000000000000000000000000000000000000000000000000000000008152600160a060020a0392831660048201526024810187905290519184169163095ea7b3916044808201926020929091908290030181600087803b15801561020057600080fd5b505af1158015610214573d6000803e3d6000fd5b505050506040513d602081101561022a57600080fd5b506102429050565b34841461023e57600080fd5b8491505b600154600160a060020a038381166000908152600260205260409081902090517ff3898a970000000000000000000000000000000000000000000000000000000081526024810188905260448101879052606060048201908152825460648301819052939094169363f3898a97938992899291829160840190869080156102f257602002820191906000526020600020905b8154600160a060020a031681526001909101906020018083116102d4575b5050945050505050602060405180830381600087803b15801561031457600080fd5b505af1158015610328573d6000803e3d6000fd5b505050506040513d602081101561033e57600080fd5b50519050828110156103b157604080517f08c379a000000000000000000000000000000000000000000000000000000000815260206004820152601360248201527f5472616e73616374696f6e206661696c65642e00000000000000000000000000604482015290519081900360640190fd5b60008054604080517f70a0823100000000000000000000000000000000000000000000000000000000815230600482015290518493600160a060020a03909316926370a0823192602480820193602093909283900390910190829087803b15801561041b57600080fd5b505af115801561042f573d6000803e3d6000fd5b505050506040513d602081101561044557600080fd5b5051146104d957604080517f08c379a000000000000000000000000000000000000000000000000000000000815260206004820152603660248201527f5472616e73616374696f6e206661696c6564207769746820646966666572656e60448201527f742072657475726e207468616e20657870656374656400000000000000000000606482015290519081900360840190fd5b60008054604080517fa9059cbb000000000000000000000000000000000000000000000000000000008152336004820152602481018590529051600160a060020a039092169263a9059cbb926044808401936020939083900390910190829087803b15801561054757600080fd5b505af115801561055b573d6000803e3d6000fd5b505050506040513d602081101561057157600080fd5b5050604080517f70a082310000000000000000000000000000000000000000000000000000000081523060048201529051600160a060020a0384169163a9059cbb91339184916370a08231916024808201926020929091908290030181600087803b1580156105df57600080fd5b505af11580156105f3573d6000803e3d6000fd5b505050506040513d602081101561060957600080fd5b5051604080517c010000000000000000000000000000000000000000000000000000000063ffffffff8616028152600160a060020a03909316600484015260248301919091525160448083019260209291908290030181600087803b15801561067157600080fd5b505af1158015610685573d6000803e3d6000fd5b505050506040513d602081101561069b57600080fd5b50505050505050565b600354600090600160a060020a031633146106be57600080fd5b600160a060020a038316600090815260026020908152604090912083516106e7928501906106f1565b5060019392505050565b828054828255906000526020600020908101928215610753579160200282015b82811115610753578251825473ffffffffffffffffffffffffffffffffffffffff1916600160a060020a03909116178255602090920191600190910190610711565b5061075f929150610763565b5090565b61079491905b8082111561075f57805473ffffffffffffffffffffffffffffffffffffffff19168155600101610769565b905600a165627a7a72305820ffc3068a5d0254edd74a6f6b632d4f07e68fbd04e219aed39189fa3f8418de700029",
  "source": "pragma solidity ^0.4.24;\n\nimport \"../bancor/IBancorNetwork.sol\";\nimport \"../bancor/token/EtherToken.sol\";\nimport \"../bancor/token/interfaces/IERC20Token.sol\";\nimport \"../bancor/token/interfaces/ISmartToken.sol\";\nimport \"../bancor/token/interfaces/IEtherToken.sol\";\nimport \"../bancor/token/SmartToken.sol\";\nimport \"../interfaces/DBInterface.sol\";\n\n\n///@title A contract for converting any token into MYB (using Bancor's API)\n///@author Vlad Silviu Farcas\ncontract TokenConverter {\n    //DBInterface private database;\n    IERC20Token private myBitToken;\n    IBancorNetwork private bancorNetwork;\n    mapping(address => IERC20Token[]) private path;\n\n    address owner;\n\n    ///@notice initialise addresses needed for conversion\n    constructor(IERC20Token _token, IBancorNetwork _bancorNetwork) public{\n      //database = DBInterface(_database);\n      myBitToken = _token;\n      owner = msg.sender;\n      bancorNetwork = _bancorNetwork;\n    }\n\n    ///@notice convert some tokens\n    ///@param _token the contract of the token that is about to be converted\n    ///@param _amount the amount of _token that is about to be converted\n    ///@param _minimumReturn the minimum return of MyBit token that is about to be received\n    function convertTokenToMyBit(address _token, uint _amount, uint _minimumReturn)\n    external\n    payable {\n      IERC20Token token;\n      if (msg.value == 0){\n          // require(bancorNetwork.etherTokens(_token) == true, \"Token not supported\");\n          token = ISmartToken(_token);\n          token.transferFrom(msg.sender, bancorNetwork, _amount);\n          token.approve(bancorNetwork, _amount);\n      } else {\n          require(_amount == msg.value);\n          token = IEtherToken(_token);\n      }\n      uint convertedValue = IBancorNetwork(bancorNetwork).convert(\n          path[address(token)],\n          _amount,\n          _minimumReturn\n      );\n      require (convertedValue >= _minimumReturn, \"Transaction failed.\");\n      require (myBitToken.balanceOf(this) == convertedValue, \"Transaction failed with different return than expected\");\n      myBitToken.transfer(msg.sender, convertedValue);\n      token.transfer(msg.sender, token.balanceOf(this));\n    }\n\n    function addPath(address token, IERC20Token[] _newPath)\n    public\n    onlyOwner\n    returns (bool){\n      path[token] = _newPath;\n      return true;\n    }\n\n    modifier onlyOwner {\n      //require(database.boolStorage(keccak256(abi.encodePacked(\"owner\", msg.sender))));\n      require(owner == msg.sender);\n      _;\n    }\n\n}\n",
  "sourcePath": "/home/peter/Documents/Work/MyBit/MyBit-Network.tech/contracts/ecosystem/TokenConverter.sol",
  "compiler": {
    "name": "solc",
    "version": "0.4.25+commit.59dbf8f1.Emscripten.clang"
  },
  "schemaVersion": "3.0.0-beta.0",
  "updatedAt": "2018-12-06T01:19:16.700Z"
}