{
  "contractName": "TokenBurn",
  "abi": [
    {
      "constant": true,
      "inputs": [],
      "name": "myBitToken",
      "outputs": [
        {
          "name": "",
          "type": "address"
        }
      ],
      "payable": false,
      "stateMutability": "view",
      "type": "function"
    },
    {
      "constant": true,
      "inputs": [],
      "name": "database",
      "outputs": [
        {
          "name": "",
          "type": "address"
        }
      ],
      "payable": false,
      "stateMutability": "view",
      "type": "function"
    },
    {
      "inputs": [
        {
          "name": "_database",
          "type": "address"
        },
        {
          "name": "_myBitToken",
          "type": "address"
        }
      ],
      "payable": false,
      "stateMutability": "nonpayable",
      "type": "constructor"
    },
    {
      "anonymous": false,
      "inputs": [
        {
          "indexed": false,
          "name": "_burner",
          "type": "address"
        },
        {
          "indexed": false,
          "name": "_amount",
          "type": "uint256"
        }
      ],
      "name": "LogMyBitBurnt",
      "type": "event"
    },
    {
      "constant": false,
      "inputs": [
        {
          "name": "_accessLevelDesired",
          "type": "uint256"
        }
      ],
      "name": "burnTokens",
      "outputs": [
        {
          "name": "",
          "type": "bool"
        }
      ],
      "payable": false,
      "stateMutability": "nonpayable",
      "type": "function"
    },
    {
      "constant": false,
      "inputs": [
        {
          "name": "_from",
          "type": "address"
        },
        {
          "name": "_amount",
          "type": "uint256"
        },
        {
          "name": "_token",
          "type": "address"
        },
        {
          "name": "_accessLevelDesired",
          "type": "bytes"
        }
      ],
      "name": "receiveApproval",
      "outputs": [
        {
          "name": "",
          "type": "bool"
        }
      ],
      "payable": false,
      "stateMutability": "nonpayable",
      "type": "function"
    }
  ],
  "bytecode": "0x608060405234801561001057600080fd5b50604051604080611ef08339810180604052810190808051906020019092919080519060200190929190505050806000806101000a81548173ffffffffffffffffffffffffffffffffffffffff021916908373ffffffffffffffffffffffffffffffffffffffff16021790555081600160006101000a81548173ffffffffffffffffffffffffffffffffffffffff021916908373ffffffffffffffffffffffffffffffffffffffff1602179055505050611e21806100cf6000396000f300608060405260043610610062576000357c0100000000000000000000000000000000000000000000000000000000900463ffffffff16806309afe9fb146100675780636d1b229d146100be578063713b563f146101035780638f4ffcb11461015a575b600080fd5b34801561007357600080fd5b5061007c6101f7565b604051808273ffffffffffffffffffffffffffffffffffffffff1673ffffffffffffffffffffffffffffffffffffffff16815260200191505060405180910390f35b3480156100ca57600080fd5b506100e96004803603810190808035906020019092919050505061021c565b604051808215151515815260200191505060405180910390f35b34801561010f57600080fd5b50610118610f41565b604051808273ffffffffffffffffffffffffffffffffffffffff1673ffffffffffffffffffffffffffffffffffffffff16815260200191505060405180910390f35b34801561016657600080fd5b506101dd600480360381019080803573ffffffffffffffffffffffffffffffffffffffff16906020019092919080359060200190929190803573ffffffffffffffffffffffffffffffffffffffff169060200190929190803590602001908201803590602001919091929391929390505050610f67565b604051808215151515815260200191505060405180910390f35b6000809054906101000a900473ffffffffffffffffffffffffffffffffffffffff1681565b6000806000600160009054906101000a900473ffffffffffffffffffffffffffffffffffffffff1673ffffffffffffffffffffffffffffffffffffffff16633b7bfda03060405160200180807f70617573650000000000000000000000000000000000000000000000000000008152506005018273ffffffffffffffffffffffffffffffffffffffff1673ffffffffffffffffffffffffffffffffffffffff166c010000000000000000000000000281526014019150506040516020818303038152906040526040518082805190602001908083835b60208310151561031757805182526020820191506020810190506020830392506102f2565b6001836020036101000a03801982511681845116808217855250505050505090500191505060405180910390206040518263ffffffff167c0100000000000000000000000000000000000000000000000000000000028152600401808260001916600019168152602001915050602060405180830381600087803b15801561039e57600080fd5b505af11580156103b2573d6000803e3d6000fd5b505050506040513d60208110156103c857600080fd5b81019080805190602001909291905050501515156103e557600080fd5b600160009054906101000a900473ffffffffffffffffffffffffffffffffffffffff1673ffffffffffffffffffffffffffffffffffffffff1663a855d4ce60405160200180807f707269636545787069726174696f6e0000000000000000000000000000000000815250600f0190506040516020818303038152906040526040518082805190602001908083835b6020831015156104985780518252602082019150602081019050602083039250610473565b6001836020036101000a03801982511681845116808217855250505050505090500191505060405180910390206040518263ffffffff167c0100000000000000000000000000000000000000000000000000000000028152600401808260001916600019168152602001915050602060405180830381600087803b15801561051f57600080fd5b505af1158015610533573d6000803e3d6000fd5b505050506040513d602081101561054957600080fd5b81019080805190602001909291905050504210151561056757600080fd5b836000600160009054906101000a900473ffffffffffffffffffffffffffffffffffffffff1673ffffffffffffffffffffffffffffffffffffffff1663a855d4ce3360405160200180807f7573657241636365737300000000000000000000000000000000000000000000815250600a018273ffffffffffffffffffffffffffffffffffffffff1673ffffffffffffffffffffffffffffffffffffffff166c010000000000000000000000000281526014019150506040516020818303038152906040526040518082805190602001908083835b602083101515610660578051825260208201915060208101905060208303925061063b565b6001836020036101000a03801982511681845116808217855250505050505090500191505060405180910390206040518263ffffffff167c0100000000000000000000000000000000000000000000000000000000028152600401808260001916600019168152602001915050602060405180830381600087803b1580156106e757600080fd5b505af11580156106fb573d6000803e3d6000fd5b505050506040513d602081101561071157600080fd5b81019080805190602001909291905050509050818110806108e8575042600160009054906101000a900473ffffffffffffffffffffffffffffffffffffffff1673ffffffffffffffffffffffffffffffffffffffff1663a855d4ce3360405160200180807f7573657241636365737345787069726174696f6e0000000000000000000000008152506014018273ffffffffffffffffffffffffffffffffffffffff1673ffffffffffffffffffffffffffffffffffffffff166c010000000000000000000000000281526014019150506040516020818303038152906040526040518082805190602001908083835b60208310151561082457805182526020820191506020810190506020830392506107ff565b6001836020036101000a03801982511681845116808217855250505050505090500191505060405180910390206040518263ffffffff167c0100000000000000000000000000000000000000000000000000000000028152600401808260001916600019168152602001915050602060405180830381600087803b1580156108ab57600080fd5b505af11580156108bf573d6000803e3d6000fd5b505050506040513d60208110156108d557600080fd5b8101908080519060200190929190505050105b15156108f357600080fd5b6004821080156109035750600082115b151561090e57600080fd5b600160009054906101000a900473ffffffffffffffffffffffffffffffffffffffff1673ffffffffffffffffffffffffffffffffffffffff1663a855d4ce60405160200180807f6d79625553445072696365000000000000000000000000000000000000000000815250600b0190506040516020818303038152906040526040518082805190602001908083835b6020831015156109c1578051825260208201915060208101905060208303925061099c565b6001836020036101000a03801982511681845116808217855250505050505090500191505060405180910390206040518263ffffffff167c0100000000000000000000000000000000000000000000000000000000028152600401808260001916600019168152602001915050602060405180830381600087803b158015610a4857600080fd5b505af1158015610a5c573d6000803e3d6000fd5b505050506040513d6020811015610a7257600080fd5b81019080805190602001909291905050509350610c1484600160009054906101000a900473ffffffffffffffffffffffffffffffffffffffff1673ffffffffffffffffffffffffffffffffffffffff1663a855d4ce8960405160200180807f616363657373546f6b656e466565000000000000000000000000000000000000815250600e018281526020019150506040516020818303038152906040526040518082805190602001908083835b602083101515610b445780518252602082019150602081019050602083039250610b1f565b6001836020036101000a03801982511681845116808217855250505050505090500191505060405180910390206040518263ffffffff167c0100000000000000000000000000000000000000000000000000000000028152600401808260001916600019168152602001915050602060405180830381600087803b158015610bcb57600080fd5b505af1158015610bdf573d6000803e3d6000fd5b505050506040513d6020811015610bf557600080fd5b8101908080519060200190929190505050611d2890919063ffffffff16565b9250600083111515610c2257fe5b6000809054906101000a900473ffffffffffffffffffffffffffffffffffffffff1673ffffffffffffffffffffffffffffffffffffffff166379cc679033856040518363ffffffff167c0100000000000000000000000000000000000000000000000000000000028152600401808373ffffffffffffffffffffffffffffffffffffffff1673ffffffffffffffffffffffffffffffffffffffff16815260200182815260200192505050602060405180830381600087803b158015610ce657600080fd5b505af1158015610cfa573d6000803e3d6000fd5b505050506040513d6020811015610d1057600080fd5b81019080805190602001909291905050501515610d2c57600080fd5b600160009054906101000a900473ffffffffffffffffffffffffffffffffffffffff1673ffffffffffffffffffffffffffffffffffffffff1663e2a4853a3360405160200180807f7573657241636365737300000000000000000000000000000000000000000000815250600a018273ffffffffffffffffffffffffffffffffffffffff1673ffffffffffffffffffffffffffffffffffffffff166c010000000000000000000000000281526014019150506040516020818303038152906040526040518082805190602001908083835b602083101515610e225780518252602082019150602081019050602083039250610dfd565b6001836020036101000a0380198251168184511680821785525050505050509050019150506040518091039020886040518363ffffffff167c010000000000000000000000000000000000000000000000000000000002815260040180836000191660001916815260200182815260200192505050600060405180830381600087803b158015610eb157600080fd5b505af1158015610ec5573d6000803e3d6000fd5b505050507ff9b4cea7e49b32d8ccdf17d39d4987433de16913f1347ac035fe3d701cf57d353384604051808373ffffffffffffffffffffffffffffffffffffffff1673ffffffffffffffffffffffffffffffffffffffff1681526020018281526020019250505060405180910390a16001945050505050919050565b600160009054906101000a900473ffffffffffffffffffffffffffffffffffffffff1681565b6000806000806000600160009054906101000a900473ffffffffffffffffffffffffffffffffffffffff1673ffffffffffffffffffffffffffffffffffffffff16633b7bfda03060405160200180807f70617573650000000000000000000000000000000000000000000000000000008152506005018273ffffffffffffffffffffffffffffffffffffffff1673ffffffffffffffffffffffffffffffffffffffff166c010000000000000000000000000281526014019150506040516020818303038152906040526040518082805190602001908083835b6020831015156110655780518252602082019150602081019050602083039250611040565b6001836020036101000a03801982511681845116808217855250505050505090500191505060405180910390206040518263ffffffff167c0100000000000000000000000000000000000000000000000000000000028152600401808260001916600019168152602001915050602060405180830381600087803b1580156110ec57600080fd5b505af1158015611100573d6000803e3d6000fd5b505050506040513d602081101561111657600080fd5b810190808051906020019092919050505015151561113357600080fd5b600160009054906101000a900473ffffffffffffffffffffffffffffffffffffffff1673ffffffffffffffffffffffffffffffffffffffff1663a855d4ce60405160200180807f707269636545787069726174696f6e0000000000000000000000000000000000815250600f0190506040516020818303038152906040526040518082805190602001908083835b6020831015156111e657805182526020820191506020810190506020830392506111c1565b6001836020036101000a03801982511681845116808217855250505050505090500191505060405180910390206040518263ffffffff167c0100000000000000000000000000000000000000000000000000000000028152600401808260001916600019168152602001915050602060405180830381600087803b15801561126d57600080fd5b505af1158015611281573d6000803e3d6000fd5b505050506040513d602081101561129757600080fd5b8101908080519060200190929190505050421015156112b557600080fd5b6000809054906101000a900473ffffffffffffffffffffffffffffffffffffffff1673ffffffffffffffffffffffffffffffffffffffff168873ffffffffffffffffffffffffffffffffffffffff1614151561131057600080fd5b61134b87878080601f016020809104026020016040519081016040528093929190818152602001838380828437820191505050505050611d3e565b9350600160009054906101000a900473ffffffffffffffffffffffffffffffffffffffff1673ffffffffffffffffffffffffffffffffffffffff1663a855d4ce3360405160200180807f7573657241636365737300000000000000000000000000000000000000000000815250600a018273ffffffffffffffffffffffffffffffffffffffff1673ffffffffffffffffffffffffffffffffffffffff166c010000000000000000000000000281526014019150506040516020818303038152906040526040518082805190602001908083835b602083101515611443578051825260208201915060208101905060208303925061141e565b6001836020036101000a03801982511681845116808217855250505050505090500191505060405180910390206040518263ffffffff167c0100000000000000000000000000000000000000000000000000000000028152600401808260001916600019168152602001915050602060405180830381600087803b1580156114ca57600080fd5b505af11580156114de573d6000803e3d6000fd5b505050506040513d60208110156114f457600080fd5b81019080805190602001909291905050509250838310806116cb575042600160009054906101000a900473ffffffffffffffffffffffffffffffffffffffff1673ffffffffffffffffffffffffffffffffffffffff1663a855d4ce3360405160200180807f7573657241636365737345787069726174696f6e0000000000000000000000008152506014018273ffffffffffffffffffffffffffffffffffffffff1673ffffffffffffffffffffffffffffffffffffffff166c010000000000000000000000000281526014019150506040516020818303038152906040526040518082805190602001908083835b60208310151561160757805182526020820191506020810190506020830392506115e2565b6001836020036101000a03801982511681845116808217855250505050505090500191505060405180910390206040518263ffffffff167c0100000000000000000000000000000000000000000000000000000000028152600401808260001916600019168152602001915050602060405180830381600087803b15801561168e57600080fd5b505af11580156116a2573d6000803e3d6000fd5b505050506040513d60208110156116b857600080fd5b8101908080519060200190929190505050105b15156116d657600080fd5b6004841080156116e65750600084115b15156116f157600080fd5b600160009054906101000a900473ffffffffffffffffffffffffffffffffffffffff1673ffffffffffffffffffffffffffffffffffffffff1663a855d4ce60405160200180807f6d79625553445072696365000000000000000000000000000000000000000000815250600b0190506040516020818303038152906040526040518082805190602001908083835b6020831015156117a4578051825260208201915060208101905060208303925061177f565b6001836020036101000a03801982511681845116808217855250505050505090500191505060405180910390206040518263ffffffff167c0100000000000000000000000000000000000000000000000000000000028152600401808260001916600019168152602001915050602060405180830381600087803b15801561182b57600080fd5b505af115801561183f573d6000803e3d6000fd5b505050506040513d602081101561185557600080fd5b810190808051906020019092919050505091506119f782600160009054906101000a900473ffffffffffffffffffffffffffffffffffffffff1673ffffffffffffffffffffffffffffffffffffffff1663a855d4ce8760405160200180807f616363657373546f6b656e466565000000000000000000000000000000000000815250600e018281526020019150506040516020818303038152906040526040518082805190602001908083835b6020831015156119275780518252602082019150602081019050602083039250611902565b6001836020036101000a03801982511681845116808217855250505050505090500191505060405180910390206040518263ffffffff167c0100000000000000000000000000000000000000000000000000000000028152600401808260001916600019168152602001915050602060405180830381600087803b1580156119ae57600080fd5b505af11580156119c2573d6000803e3d6000fd5b505050506040513d60208110156119d857600080fd5b8101908080519060200190929190505050611d2890919063ffffffff16565b9050888110151515611a0557fe5b6000809054906101000a900473ffffffffffffffffffffffffffffffffffffffff1673ffffffffffffffffffffffffffffffffffffffff166379cc67908b836040518363ffffffff167c0100000000000000000000000000000000000000000000000000000000028152600401808373ffffffffffffffffffffffffffffffffffffffff1673ffffffffffffffffffffffffffffffffffffffff16815260200182815260200192505050602060405180830381600087803b158015611ac957600080fd5b505af1158015611add573d6000803e3d6000fd5b505050506040513d6020811015611af357600080fd5b81019080805190602001909291905050501515611b0f57600080fd5b600160009054906101000a900473ffffffffffffffffffffffffffffffffffffffff1673ffffffffffffffffffffffffffffffffffffffff1663e2a4853a8b60405160200180807f7573657241636365737300000000000000000000000000000000000000000000815250600a018273ffffffffffffffffffffffffffffffffffffffff1673ffffffffffffffffffffffffffffffffffffffff166c010000000000000000000000000281526014019150506040516020818303038152906040526040518082805190602001908083835b602083101515611c055780518252602082019150602081019050602083039250611be0565b6001836020036101000a0380198251168184511680821785525050505050509050019150506040518091039020866040518363ffffffff167c010000000000000000000000000000000000000000000000000000000002815260040180836000191660001916815260200182815260200192505050600060405180830381600087803b158015611c9457600080fd5b505af1158015611ca8573d6000803e3d6000fd5b505050507ff9b4cea7e49b32d8ccdf17d39d4987433de16913f1347ac035fe3d701cf57d358a82604051808373ffffffffffffffffffffffffffffffffffffffff1673ffffffffffffffffffffffffffffffffffffffff1681526020018281526020019250505060405180910390a1600194505050505095945050505050565b60008183811515611d3557fe5b04905092915050565b60008060008090505b8351811015611deb576001810184510360080260020a8482815181101515611d6b57fe5b9060200101517f010000000000000000000000000000000000000000000000000000000000000090047f0100000000000000000000000000000000000000000000000000000000000000027f0100000000000000000000000000000000000000000000000000000000000000900402820191508080600101915050611d47565b81925050509190505600a165627a7a72305820d32abdfe27b79cfd61af95caeb787bfced242865f8be0e04c11b1998cc8fb4c40029",
  "source": "pragma solidity 0.4.24;\nimport './MyBitToken.sol';\nimport './Database.sol';\nimport './SafeMath.sol';\n\n//------------------------------------------------------------------------------------------------------------------\n// This contract transfers MyBit tokens and holds them forever with no mechanism to transfer them out again.\n//------------------------------------------------------------------------------------------------------------------\ncontract TokenBurn {\n  using SafeMath for *;\n\n\n  MyBitToken public myBitToken;\n  Database public database;\n\n  //------------------------------------------------------------------------------------------------------------------\n  // Constructor: Initialize Database and MyBitToken\n  //------------------------------------------------------------------------------------------------------------------\n  constructor(address _database, address _myBitToken)\n  public {\n    myBitToken = MyBitToken(_myBitToken);\n    database = Database(_database);\n  }\n\n  //------------------------------------------------------------------------------------------------------------------\n  // Users can gain access to the platform by burning tokens here\n  // Every access level has an associated price in USD. The equivalent value of MyBit must be burnt to gain acccess.\n  // TODO: add receiveApproval option\n  //------------------------------------------------------------------------------------------------------------------\n  function burnTokens(uint _accessLevelDesired)\n  external\n  whenNotPaused\n  priceUpdated\n  basicVerification(_accessLevelDesired)\n  returns (bool) {\n    uint mybPrice = database.uintStorage(keccak256(abi.encodePacked(\"mybUSDPrice\")));\n    uint accessCostMyB = database.uintStorage(keccak256(abi.encodePacked(\"accessTokenFee\", _accessLevelDesired))).div(mybPrice);\n    assert (accessCostMyB > uint(0));\n    require(myBitToken.burnFrom(msg.sender, accessCostMyB));\n    database.setUint(keccak256(abi.encodePacked(\"userAccess\", msg.sender)), _accessLevelDesired);\n    emit LogMyBitBurnt(msg.sender, accessCostMyB);\n    return true;\n  }\n\n  //------------------------------------------------------------------------------------------------------------------\n  // Users can gain access to the platform by burning tokens here.\n  // Every access level has an associated price in USD. The equivalent value of MyBit must be burnt to gain acccess.\n  // Alias for burnTokens(). Can receive calls directly from token contract for better UX \n  // TODO: Use _data parameter to pass in _accessLevelDesired\n  // TODO: Check verification levels are correct with bytes parameter\n  // address _from, uint256 _amount, address _token, bytes _data\n  //------------------------------------------------------------------------------------------------------------------\n  function receiveApproval(address _from, uint _amount, address _token, bytes _accessLevelDesired)\n  external\n  whenNotPaused\n  priceUpdated\n  returns (bool) {\n    require(_token == address(myBitToken)); \n    uint accessLevelDesired = _accessLevelDesired.bytesToUint();   // TODO: convert bytes to uint\n    uint currentLevel = database.uintStorage(keccak256(abi.encodePacked(\"userAccess\", msg.sender)));\n    require(currentLevel < accessLevelDesired || database.uintStorage(keccak256(abi.encodePacked(\"userAccessExpiration\", msg.sender))) < now);       // Dont allow burning to downgrade access level unless access has expired\n    require (accessLevelDesired < uint(4) && accessLevelDesired > uint(0));      // Must be 1, 2 or 3\n    uint mybPrice = database.uintStorage(keccak256(abi.encodePacked(\"mybUSDPrice\")));\n    uint accessCostMyB = database.uintStorage(keccak256(abi.encodePacked(\"accessTokenFee\", accessLevelDesired))).div(mybPrice);\n    assert (accessCostMyB >= _amount);\n    require(myBitToken.burnFrom(_from, accessCostMyB));\n    database.setUint(keccak256(abi.encodePacked(\"userAccess\", _from)), accessLevelDesired);\n    emit LogMyBitBurnt(_from, accessCostMyB);\n    return true;\n  }\n\n\n  //------------------------------------------------------------------------------------------------------------------\n  //                                              Modifiers\n  //------------------------------------------------------------------------------------------------------------------\n\n  //------------------------------------------------------------------------------------------------------------------\n  // Verifies that desired access level is allowed. No user can downgrade access by burning tokens\n  //------------------------------------------------------------------------------------------------------------------\n  modifier basicVerification(uint _newAccessLevel) {\n  uint currentLevel = database.uintStorage(keccak256(abi.encodePacked(\"userAccess\", msg.sender)));\n  require(currentLevel < _newAccessLevel || database.uintStorage(keccak256(abi.encodePacked(\"userAccessExpiration\", msg.sender))) < now);       // Dont allow burning to downgrade access level unless access has expired\n  require (_newAccessLevel < uint(4) && _newAccessLevel > uint(0));      // Must be 1, 2 or 3\n  _;\n}\n\n  //------------------------------------------------------------------------------------------------------------------\n  // Verifies contracts has not been paused\n  //------------------------------------------------------------------------------------------------------------------\n  modifier whenNotPaused {\n    require(!database.boolStorage(keccak256(abi.encodePacked(\"pause\", address(this)))));\n    _;\n  }\n\n  //------------------------------------------------------------------------------------------------------------------\n  // Verifies that the MyBit/USD price is still valid\n  //------------------------------------------------------------------------------------------------------------------\n  modifier priceUpdated {\n    require (now < database.uintStorage(keccak256(abi.encodePacked(\"priceExpiration\"))));\n    _;\n  }\n\n  //------------------------------------------------------------------------------------------------------------------\n  //                                           Events\n  //------------------------------------------------------------------------------------------------------------------\n  event LogMyBitBurnt(address _burner, uint _amount);\n\n\n}\n",
  "sourcePath": "/home/peter/Documents/Work/MyBit/MyBit-Network.tech/contracts/alphacontracts/contracts/TokenBurn.sol",
  "compiler": {
    "name": "solc",
    "version": "0.4.24+commit.e67f0147.Emscripten.clang"
  },
  "schemaVersion": "2.0.1",
  "updatedAt": "2018-09-08T14:16:35.222Z"
}