{
  "contractName": "TokenGovernance",
  "abi": [
    {
      "constant": true,
      "inputs": [],
      "name": "database",
      "outputs": [
        {
          "name": "",
          "type": "address"
        }
      ],
      "payable": false,
      "stateMutability": "view",
      "type": "function"
    },
    {
      "constant": true,
      "inputs": [],
      "name": "governanceToken",
      "outputs": [
        {
          "name": "",
          "type": "address"
        }
      ],
      "payable": false,
      "stateMutability": "view",
      "type": "function"
    },
    {
      "inputs": [
        {
          "name": "_database",
          "type": "address"
        },
        {
          "name": "_baseQuorum",
          "type": "uint256"
        }
      ],
      "payable": false,
      "stateMutability": "nonpayable",
      "type": "constructor"
    },
    {
      "constant": false,
      "inputs": [
        {
          "name": "_contractAddress",
          "type": "address"
        },
        {
          "name": "_methodID",
          "type": "bytes4"
        },
        {
          "name": "_quorumLevel",
          "type": "uint256"
        }
      ],
      "name": "setQuorumLevel",
      "outputs": [
        {
          "name": "",
          "type": "bool"
        }
      ],
      "payable": false,
      "stateMutability": "nonpayable",
      "type": "function"
    },
    {
      "constant": false,
      "inputs": [
        {
          "name": "_contractAddress",
          "type": "address"
        },
        {
          "name": "_methodID",
          "type": "bytes4"
        },
        {
          "name": "_parameterHash",
          "type": "bytes32"
        },
        {
          "name": "_voteAmount",
          "type": "uint256"
        }
      ],
      "name": "voteForExecution",
      "outputs": [
        {
          "name": "",
          "type": "bool"
        }
      ],
      "payable": false,
      "stateMutability": "nonpayable",
      "type": "function"
    },
    {
      "constant": false,
      "inputs": [
        {
          "name": "_executionID",
          "type": "bytes32"
        }
      ],
      "name": "unlockTokens",
      "outputs": [
        {
          "name": "",
          "type": "bool"
        }
      ],
      "payable": false,
      "stateMutability": "nonpayable",
      "type": "function"
    },
    {
      "constant": true,
      "inputs": [
        {
          "name": "_contractAddress",
          "type": "address"
        },
        {
          "name": "_methodID",
          "type": "bytes4"
        },
        {
          "name": "_parameterHash",
          "type": "bytes32"
        }
      ],
      "name": "isQuorumReached",
      "outputs": [
        {
          "name": "",
          "type": "bool"
        }
      ],
      "payable": false,
      "stateMutability": "view",
      "type": "function"
    }
  ],
  "bytecode": "0x60806040523480156200001157600080fd5b506040516040806200206483398101806040528101908080519060200190929190805190602001909291905050506000806000809054906101000a900473ffffffffffffffffffffffffffffffffffffffff1673ffffffffffffffffffffffffffffffffffffffff166304f49a3a60405160200180807f706c6174666f726d546f6b656e00000000000000000000000000000000000000815250600d0190506040516020818303038152906040526040518082805190602001908083835b602083101515620000f65780518252602082019150602081019050602083039250620000cf565b6001836020036101000a03801982511681845116808217855250505050505090500191505060405180910390206040518263ffffffff167c0100000000000000000000000000000000000000000000000000000000028152600401808260001916600019168152602001915050602060405180830381600087803b1580156200017e57600080fd5b505af115801562000193573d6000803e3d6000fd5b505050506040513d6020811015620001aa57600080fd5b8101908080519060200190929190505050600160006101000a81548173ffffffffffffffffffffffffffffffffffffffff021916908373ffffffffffffffffffffffffffffffffffffffff160217905550836000806101000a81548173ffffffffffffffffffffffffffffffffffffffff021916908373ffffffffffffffffffffffffffffffffffffffff160217905550600160009054906101000a900473ffffffffffffffffffffffffffffffffffffffff16600160006101000a81548173ffffffffffffffffffffffffffffffffffffffff021916908373ffffffffffffffffffffffffffffffffffffffff16021790555060405160200180807f73657451756f72756d4c6576656c28616464726573732c206279746573342c2081526020017f75696e743235362900000000000000000000000000000000000000000000000081525060280190506040516020818303038152906040526040518082805190602001908083835b6020831015156200033b578051825260208201915060208101905060208303925062000314565b6001836020036101000a038019825116818451168082178552505050505050905001915050604051809103902091503082604051602001808373ffffffffffffffffffffffffffffffffffffffff1673ffffffffffffffffffffffffffffffffffffffff166c01000000000000000000000000028152601401827bffffffffffffffffffffffffffffffffffffffffffffffffffffffff19167bffffffffffffffffffffffffffffffffffffffffffffffffffffffff19168152600401925050506040516020818303038152906040526040518082805190602001908083835b6020831015156200044257805182526020820191506020810190506020830392506200041b565b6001836020036101000a038019825116818451168082178552505050505050905001915050604051809103902090506000809054906101000a900473ffffffffffffffffffffffffffffffffffffffff1673ffffffffffffffffffffffffffffffffffffffff1663e2a4853a82856040518363ffffffff167c010000000000000000000000000000000000000000000000000000000002815260040180836000191660001916815260200182815260200192505050600060405180830381600087803b1580156200051257600080fd5b505af115801562000527573d6000803e3d6000fd5b5050505050505050611b25806200053f6000396000f300608060405260043610610078576000357c0100000000000000000000000000000000000000000000000000000000900463ffffffff16806317294b1e1461007d5780632900ff47146100c6578063713b563f14610162578063911558a1146101b9578063ec57bab014610247578063f96dae0a146102d9575b600080fd5b34801561008957600080fd5b506100ac6004803603810190808035600019169060200190929190505050610330565b604051808215151515815260200191505060405180910390f35b3480156100d257600080fd5b50610148600480360381019080803573ffffffffffffffffffffffffffffffffffffffff16906020019092919080357bffffffffffffffffffffffffffffffffffffffffffffffffffffffff19169060200190929190803560001916906020019092919080359060200190929190505050610865565b604051808215151515815260200191505060405180910390f35b34801561016e57600080fd5b50610177610bf7565b604051808273ffffffffffffffffffffffffffffffffffffffff1673ffffffffffffffffffffffffffffffffffffffff16815260200191505060405180910390f35b3480156101c557600080fd5b5061022d600480360381019080803573ffffffffffffffffffffffffffffffffffffffff16906020019092919080357bffffffffffffffffffffffffffffffffffffffffffffffffffffffff1916906020019092919080359060200190929190505050610c1c565b604051808215151515815260200191505060405180910390f35b34801561025357600080fd5b506102bf600480360381019080803573ffffffffffffffffffffffffffffffffffffffff16906020019092919080357bffffffffffffffffffffffffffffffffffffffffffffffffffffffff1916906020019092919080356000191690602001909291905050506110f2565b604051808215151515815260200191505060405180910390f35b3480156102e557600080fd5b506102ee611665565b604051808273ffffffffffffffffffffffffffffffffffffffff1673ffffffffffffffffffffffffffffffffffffffff16815260200191505060405180910390f35b6000806000806000853360405160200180807f746f6b656e566f7465734c6f636b65640000000000000000000000000000000081525060100183600019166000191681526020018273ffffffffffffffffffffffffffffffffffffffff1673ffffffffffffffffffffffffffffffffffffffff166c01000000000000000000000000028152601401925050506040516020818303038152906040526040518082805190602001908083835b60208310151561040057805182526020820191506020810190506020830392506103db565b6001836020036101000a038019825116818451168082178552505050505050905001915050604051809103902093508560405160200180807f6e756d6265724f66566f74657300000000000000000000000000000000000000815250600d0182600019166000191681526020019150506040516020818303038152906040526040518082805190602001908083835b6020831015156104b4578051825260208201915060208101905060208303925061048f565b6001836020036101000a038019825116818451168082178552505050505050905001915050604051809103902092506000809054906101000a900473ffffffffffffffffffffffffffffffffffffffff1673ffffffffffffffffffffffffffffffffffffffff1663a855d4ce856040518263ffffffff167c0100000000000000000000000000000000000000000000000000000000028152600401808260001916600019168152602001915050602060405180830381600087803b15801561057b57600080fd5b505af115801561058f573d6000803e3d6000fd5b505050506040513d60208110156105a557600080fd5b810190808051906020019092919050505091506000809054906101000a900473ffffffffffffffffffffffffffffffffffffffff1673ffffffffffffffffffffffffffffffffffffffff1663a855d4ce846040518263ffffffff167c0100000000000000000000000000000000000000000000000000000000028152600401808260001916600019168152602001915050602060405180830381600087803b15801561065057600080fd5b505af1158015610664573d6000803e3d6000fd5b505050506040513d602081101561067a57600080fd5b810190808051906020019092919050505090506000809054906101000a900473ffffffffffffffffffffffffffffffffffffffff1673ffffffffffffffffffffffffffffffffffffffff1663e2a4853a846106de858561168b90919063ffffffff16565b6040518363ffffffff167c010000000000000000000000000000000000000000000000000000000002815260040180836000191660001916815260200182815260200192505050600060405180830381600087803b15801561073f57600080fd5b505af1158015610753573d6000803e3d6000fd5b50505050600160009054906101000a900473ffffffffffffffffffffffffffffffffffffffff1673ffffffffffffffffffffffffffffffffffffffff1663a9059cbb33846040518363ffffffff167c0100000000000000000000000000000000000000000000000000000000028152600401808373ffffffffffffffffffffffffffffffffffffffff1673ffffffffffffffffffffffffffffffffffffffff16815260200182815260200192505050602060405180830381600087803b15801561081c57600080fd5b505af1158015610830573d6000803e3d6000fd5b505050506040513d602081101561084657600080fd5b8101908080519060200190929190505050506001945050505050919050565b600080600080878787604051602001808473ffffffffffffffffffffffffffffffffffffffff1673ffffffffffffffffffffffffffffffffffffffff166c01000000000000000000000000028152601401837bffffffffffffffffffffffffffffffffffffffffffffffffffffffff19167bffffffffffffffffffffffffffffffffffffffffffffffffffffffff19168152600401826000191660001916815260200193505050506040516020818303038152906040526040518082805190602001908083835b602083101515610951578051825260208201915060208101905060208303925061092c565b6001836020036101000a038019825116818451168082178552505050505050905001915050604051809103902092508260405160200180807f6e756d6265724f66566f74657300000000000000000000000000000000000000815250600d0182600019166000191681526020019150506040516020818303038152906040526040518082805190602001908083835b602083101515610a0557805182526020820191506020810190506020830392506109e0565b6001836020036101000a03801982511681845116808217855250505050505090500191505060405180910390209150610a3e85846116a4565b1515610a4957600080fd5b6000809054906101000a900473ffffffffffffffffffffffffffffffffffffffff1673ffffffffffffffffffffffffffffffffffffffff1663a855d4ce836040518263ffffffff167c0100000000000000000000000000000000000000000000000000000000028152600401808260001916600019168152602001915050602060405180830381600087803b158015610ae157600080fd5b505af1158015610af5573d6000803e3d6000fd5b505050506040513d6020811015610b0b57600080fd5b810190808051906020019092919050505090506000809054906101000a900473ffffffffffffffffffffffffffffffffffffffff1673ffffffffffffffffffffffffffffffffffffffff1663e2a4853a83610b6f8885611a8a90919063ffffffff16565b6040518363ffffffff167c010000000000000000000000000000000000000000000000000000000002815260040180836000191660001916815260200182815260200192505050600060405180830381600087803b158015610bd057600080fd5b505af1158015610be4573d6000803e3d6000fd5b5050505060019350505050949350505050565b6000809054906101000a900473ffffffffffffffffffffffffffffffffffffffff1681565b6000806000357fffffffff0000000000000000000000000000000000000000000000000000000016858585604051602001808473ffffffffffffffffffffffffffffffffffffffff1673ffffffffffffffffffffffffffffffffffffffff166c01000000000000000000000000028152601401837bffffffffffffffffffffffffffffffffffffffffffffffffffffffff19167bffffffffffffffffffffffffffffffffffffffffffffffffffffffff1916815260040182815260200193505050506040516020818303038152906040526040518082805190602001908083835b602083101515610d225780518252602082019150602081019050602083039250610cfd565b6001836020036101000a0380198251168184511680821785525050505050509050019150506040518091039020610d5a3083836110f2565b1515610d6557600080fd5b8686604051602001808373ffffffffffffffffffffffffffffffffffffffff1673ffffffffffffffffffffffffffffffffffffffff166c01000000000000000000000000028152601401827bffffffffffffffffffffffffffffffffffffffffffffffffffffffff19167bffffffffffffffffffffffffffffffffffffffffffffffffffffffff19168152600401925050506040516020818303038152906040526040518082805190602001908083835b602083101515610e3b5780518252602082019150602081019050602083039250610e16565b6001836020036101000a038019825116818451168082178552505050505050905001915050604051809103902092506000809054906101000a900473ffffffffffffffffffffffffffffffffffffffff1673ffffffffffffffffffffffffffffffffffffffff1663e2a4853a84876040518363ffffffff167c010000000000000000000000000000000000000000000000000000000002815260040180836000191660001916815260200182815260200192505050600060405180830381600087803b158015610f0a57600080fd5b505af1158015610f1e573d6000803e3d6000fd5b50505050600193506000809054906101000a900473ffffffffffffffffffffffffffffffffffffffff1673ffffffffffffffffffffffffffffffffffffffff1663e2b202bf308484604051602001808473ffffffffffffffffffffffffffffffffffffffff1673ffffffffffffffffffffffffffffffffffffffff166c01000000000000000000000000028152601401837bffffffffffffffffffffffffffffffffffffffffffffffffffffffff19167bffffffffffffffffffffffffffffffffffffffffffffffffffffffff19168152600401826000191660001916815260200193505050506040516020818303038152906040526040518082805190602001908083835b6020831015156110495780518252602082019150602081019050602083039250611024565b6001836020036101000a03801982511681845116808217855250505050505090500191505060405180910390206040518263ffffffff167c0100000000000000000000000000000000000000000000000000000000028152600401808260001916600019168152602001915050600060405180830381600087803b1580156110d057600080fd5b505af11580156110e4573d6000803e3d6000fd5b505050505050509392505050565b60008060008060008060009054906101000a900473ffffffffffffffffffffffffffffffffffffffff1673ffffffffffffffffffffffffffffffffffffffff1663a855d4ce8989604051602001808373ffffffffffffffffffffffffffffffffffffffff1673ffffffffffffffffffffffffffffffffffffffff166c01000000000000000000000000028152601401827bffffffffffffffffffffffffffffffffffffffffffffffffffffffff19167bffffffffffffffffffffffffffffffffffffffffffffffffffffffff19168152600401925050506040516020818303038152906040526040518082805190602001908083835b60208310151561120d57805182526020820191506020810190506020830392506111e8565b6001836020036101000a03801982511681845116808217855250505050505090500191505060405180910390206040518263ffffffff167c0100000000000000000000000000000000000000000000000000000000028152600401808260001916600019168152602001915050602060405180830381600087803b15801561129457600080fd5b505af11580156112a8573d6000803e3d6000fd5b505050506040513d60208110156112be57600080fd5b81019080805190602001909291905050509350878787604051602001808473ffffffffffffffffffffffffffffffffffffffff1673ffffffffffffffffffffffffffffffffffffffff166c01000000000000000000000000028152601401837bffffffffffffffffffffffffffffffffffffffffffffffffffffffff19167bffffffffffffffffffffffffffffffffffffffffffffffffffffffff19168152600401826000191660001916815260200193505050506040516020818303038152906040526040518082805190602001908083835b6020831015156113b75780518252602082019150602081019050602083039250611392565b6001836020036101000a038019825116818451168082178552505050505050905001915050604051809103902092508260405160200180807f6e756d6265724f66566f74657300000000000000000000000000000000000000815250600d0182600019166000191681526020019150506040516020818303038152906040526040518082805190602001908083835b60208310151561146b5780518252602082019150602081019050602083039250611446565b6001836020036101000a03801982511681845116808217855250505050505090500191505060405180910390209150600160009054906101000a900473ffffffffffffffffffffffffffffffffffffffff1673ffffffffffffffffffffffffffffffffffffffff166318160ddd6040518163ffffffff167c0100000000000000000000000000000000000000000000000000000000028152600401602060405180830381600087803b15801561152057600080fd5b505af1158015611534573d6000803e3d6000fd5b505050506040513d602081101561154a57600080fd5b81019080805190602001909291905050509050836116568261164860646000809054906101000a900473ffffffffffffffffffffffffffffffffffffffff1673ffffffffffffffffffffffffffffffffffffffff1663a855d4ce886040518263ffffffff167c0100000000000000000000000000000000000000000000000000000000028152600401808260001916600019168152602001915050602060405180830381600087803b1580156115ff57600080fd5b505af1158015611613573d6000803e3d6000fd5b505050506040513d602081101561162957600080fd5b8101908080519060200190929190505050611aa890919063ffffffff16565b611ae390919063ffffffff16565b10159450505050509392505050565b600160009054906101000a900473ffffffffffffffffffffffffffffffffffffffff1681565b600082821115151561169957fe5b818303905092915050565b6000806000833360405160200180807f746f6b656e566f7465734c6f636b65640000000000000000000000000000000081525060100183600019166000191681526020018273ffffffffffffffffffffffffffffffffffffffff1673ffffffffffffffffffffffffffffffffffffffff166c01000000000000000000000000028152601401925050506040516020818303038152906040526040518082805190602001908083835b602083101515611771578051825260208201915060208101905060208303925061174c565b6001836020036101000a03801982511681845116808217855250505050505090500191505060405180910390209150600160009054906101000a900473ffffffffffffffffffffffffffffffffffffffff1673ffffffffffffffffffffffffffffffffffffffff166323b872dd3330886040518463ffffffff167c0100000000000000000000000000000000000000000000000000000000028152600401808473ffffffffffffffffffffffffffffffffffffffff1673ffffffffffffffffffffffffffffffffffffffff1681526020018373ffffffffffffffffffffffffffffffffffffffff1673ffffffffffffffffffffffffffffffffffffffff1681526020018281526020019350505050602060405180830381600087803b15801561189957600080fd5b505af11580156118ad573d6000803e3d6000fd5b505050506040513d60208110156118c357600080fd5b810190808051906020019092919050505015156118df57600080fd5b6000809054906101000a900473ffffffffffffffffffffffffffffffffffffffff1673ffffffffffffffffffffffffffffffffffffffff1663a855d4ce836040518263ffffffff167c0100000000000000000000000000000000000000000000000000000000028152600401808260001916600019168152602001915050602060405180830381600087803b15801561197757600080fd5b505af115801561198b573d6000803e3d6000fd5b505050506040513d60208110156119a157600080fd5b810190808051906020019092919050505090506000809054906101000a900473ffffffffffffffffffffffffffffffffffffffff1673ffffffffffffffffffffffffffffffffffffffff1663e2a4853a83611a058885611a8a90919063ffffffff16565b6040518363ffffffff167c010000000000000000000000000000000000000000000000000000000002815260040180836000191660001916815260200182815260200192505050600060405180830381600087803b158015611a6657600080fd5b505af1158015611a7a573d6000803e3d6000fd5b5050505060019250505092915050565b6000808284019050838110151515611a9e57fe5b8091505092915050565b6000806000841415611abd5760009150611adc565b8284029050828482811515611ace57fe5b04141515611ad857fe5b8091505b5092915050565b60008183811515611af057fe5b049050929150505600a165627a7a7230582043cf32b0612dd1e35943e8098252a98b10c8f527ae8dd0b861172d5e4ccc9e630029",
  "source": "pragma solidity 0.4.24;\n\nimport '../database/Database.sol';\nimport '../math/SafeMath.sol';\nimport '../interfaces/ERC20.sol';\n\n\n// @title A contract which allows for token holders to authorize particular functions to be called\n// @notice Token holders must lock their tokens against a particular function\n// @notice Token holders can unlock their tokens, removing their vote\n// @dev An owner has already been initialized when database is deployed\n// @author Kyle Dewhurst, MyBit Foundation\ncontract TokenGovernance {\n  using SafeMath for uint256;\n\n  Database public database;\n\n  ERC20 public governanceToken;\n\n\n\n  // @dev methodID = bytes4(sha3(\"functionName(parameterType, parameterType)\")\n  // @dev functionID = sha3(contractAddress, methodID)\n  // @dev numVotes is sha3(contractAddress, methodID, sha3(parameter, parameter)))\n  // @dev quorumLevel = percentage of tokens required to be locked for the execution of a function\n\n\n  // @notice initiator of the platform sets the initial functions quorum level\n  // @notice quorum level dictates the number of votes required for that function to be executed\n  constructor(address _database, uint256 _baseQuorum)\n  public  {\n    governanceToken = ERC20(database.addressStorage(keccak256(abi.encodePacked(\"platformToken\"))));\n    database = Database(_database);\n    governanceToken = ERC20(governanceToken);\n    bytes4 methodID = bytes4(keccak256(abi.encodePacked(\"setQuorumLevel(address, bytes4, uint256)\")));\n    bytes32 functionID = keccak256(abi.encodePacked(address(this), methodID));\n    database.setUint(functionID, _baseQuorum);   // the initial quorum level to set further quorum levels\n  }\n\n  // @notice If restricted it will have to be called from address(this) using a voting proccess on signForFunctionCall\n  function setQuorumLevel(address _contractAddress, bytes4 _methodID, uint256 _quorumLevel)\n  external\n  isRestricted(msg.sig, keccak256(abi.encodePacked(_contractAddress, _methodID, _quorumLevel)))\n  returns (bool) {\n    bytes32 functionID = keccak256(abi.encodePacked(_contractAddress, _methodID));\n    database.setUint(functionID, _quorumLevel);\n    return true;\n  }\n\n  // @param (bytes32) _parameterHash = The hash of the exact parameter to be called for function...ie sha3(true, 55)\n  function voteForExecution(address _contractAddress, bytes4 _methodID, bytes32 _parameterHash, uint256 _voteAmount)\n  external\n  returns (bool) {\n    bytes32 executionID = keccak256(abi.encodePacked(_contractAddress, _methodID, _parameterHash));\n    bytes32 numVotesID = keccak256(abi.encodePacked(\"numberOfVotes\", executionID));\n    require(lockTokens(_voteAmount, executionID));\n    uint256 numVotes = database.uintStorage(numVotesID);\n    database.setUint(numVotesID, numVotes.add(_voteAmount));\n    return true;\n  }\n\n\n  function unlockTokens(bytes32 _executionID)\n  external\n  returns (bool) {\n    bytes32 voteID = keccak256(abi.encodePacked(\"tokenVotesLocked\", _executionID, msg.sender));\n    bytes32 numVotesID = keccak256(abi.encodePacked(\"numberOfVotes\", _executionID));\n    uint256 amountLocked = database.uintStorage(voteID);\n    uint256 numVotes = database.uintStorage(numVotesID);\n    database.setUint(numVotesID, numVotes.sub(amountLocked));\n    governanceToken.transfer(msg.sender, amountLocked);\n    return true;\n  }\n\n\n  //------------------------------------------------------------------------------------------------------------------\n  //                                                Internal Functions\n  //------------------------------------------------------------------------------------------------------------------\n\n  function lockTokens(uint _amountToLock, bytes32 _executionID)\n  internal\n  returns (bool) {\n    bytes32 voteID = keccak256(abi.encodePacked(\"tokenVotesLocked\", _executionID, msg.sender));\n    require(governanceToken.transferFrom(msg.sender, address(this), _amountToLock));\n    uint256 amountLocked = database.uintStorage(voteID);\n    database.setUint(voteID, amountLocked.add(_amountToLock));\n    return true;\n  }\n\n\n  //------------------------------------------------------------------------------------------------------------------\n  //                                                View Functions\n  //------------------------------------------------------------------------------------------------------------------\n\n  function isQuorumReached(address _contractAddress, bytes4 _methodID, bytes32 _parameterHash)\n  public\n  view\n  returns (bool) {\n    uint256 quorumLevel = database.uintStorage(keccak256(abi.encodePacked(_contractAddress, _methodID)));\n    bytes32 executionID = keccak256(abi.encodePacked(_contractAddress, _methodID, _parameterHash));\n    bytes32 numVotesID = keccak256(abi.encodePacked(\"numberOfVotes\", executionID));\n    uint256 numTokens = governanceToken.totalSupply();\n    // check that number of signatures are greater than required quorum\n    return database.uintStorage(numVotesID).mul(100).div(numTokens) >= quorumLevel;\n  }\n\n  //------------------------------------------------------------------------------------------------------------------\n  //                                                Modifiers\n  //------------------------------------------------------------------------------------------------------------------\n\n\n  // @notice add this modifer to functions that you want multi-sig requirements for\n  // @dev function can only be called after at least n >= quorumLevel owners have agreed to call it\n  modifier isRestricted(bytes4 _methodID, bytes32 _parameterHash) {\n    require(isQuorumReached(address(this), _methodID, _parameterHash));   // owners must have agreed on function + parameters\n    _;\n    // remove votes from function call\n    database.deleteUint(keccak256(abi.encodePacked(address(this), _methodID, _parameterHash)));\n  }\n\n  // @notice reverts if caller is not the owner\n  modifier onlyOwner {\n    require(database.boolStorage(keccak256(abi.encodePacked(\"owner\", msg.sender))) == true);\n    _;\n  }\n\n\n  //------------------------------------------------------------------------------------------------------------------\n  //                                              Events\n  //------------------------------------------------------------------------------------------------------------------\n}\n",
  "sourcePath": "/home/peter/Documents/Work/MyBit/MyBit-Network.tech/contracts/ownership/TokenGovernance.sol",
  "compiler": {
    "name": "solc",
    "version": "0.4.24+commit.e67f0147.Emscripten.clang"
  },
  "schemaVersion": "2.0.1",
  "updatedAt": "2018-10-17T01:56:53.488Z"
}