{
  "contractName": "Utils2",
  "abi": [
    {
      "constant": true,
      "inputs": [
        {
          "name": "token",
          "type": "address"
        },
        {
          "name": "user",
          "type": "address"
        }
      ],
      "name": "getBalance",
      "outputs": [
        {
          "name": "",
          "type": "uint256"
        }
      ],
      "payable": false,
      "stateMutability": "view",
      "type": "function"
    }
  ],
  "bytecode": "0x608060405234801561001057600080fd5b506101d9806100206000396000f3006080604052600436106100405763ffffffff7c0100000000000000000000000000000000000000000000000000000000600035041663d4fac45d8114610045575b600080fd5b34801561005157600080fd5b5061007973ffffffffffffffffffffffffffffffffffffffff6004358116906024351661008b565b60408051918252519081900360200190f35b600073ffffffffffffffffffffffffffffffffffffffff831673eeeeeeeeeeeeeeeeeeeeeeeeeeeeeeeeeeeeeeee14156100dd575073ffffffffffffffffffffffffffffffffffffffff8116316101a7565b8273ffffffffffffffffffffffffffffffffffffffff166370a08231836040518263ffffffff167c0100000000000000000000000000000000000000000000000000000000028152600401808273ffffffffffffffffffffffffffffffffffffffff1673ffffffffffffffffffffffffffffffffffffffff168152602001915050602060405180830381600087803b15801561017857600080fd5b505af115801561018c573d6000803e3d6000fd5b505050506040513d60208110156101a257600080fd5b505190505b929150505600a165627a7a72305820f76435158df08ab998657eb60aa5a1a55831aa62d16fd06101f328f2f44acce80029",
  "source": "pragma solidity ^0.4.24;\n\nimport \"./Utils.sol\";\n\n\ncontract Utils2 is Utils {\n\n    /// @dev get the balance of a user.\n    /// @param token The token type\n    /// @return The balance\n    function getBalance(ERC20 token, address user) public view returns(uint) {\n        if (token == ETH_TOKEN_ADDRESS)\n            return user.balance;\n        else\n            return token.balanceOf(user);\n    }\n\n    function getDecimalsSafe(ERC20 token) internal returns(uint) {\n\n        if (decimals[token] == 0) {\n            setDecimals(token);\n        }\n\n        return decimals[token];\n    }\n\n    function calcDestAmount(ERC20 src, ERC20 dest, uint srcAmount, uint rate) internal view returns(uint) {\n        return calcDstQty(srcAmount, getDecimals(src), getDecimals(dest), rate);\n    }\n\n    function calcSrcAmount(ERC20 src, ERC20 dest, uint destAmount, uint rate) internal view returns(uint) {\n        return calcSrcQty(destAmount, getDecimals(src), getDecimals(dest), rate);\n    }\n\n    function calcRateFromQty(uint srcAmount, uint destAmount, uint srcDecimals, uint dstDecimals)\n        internal pure returns(uint)\n    {\n        require(srcAmount <= MAX_QTY, '1');\n        require(destAmount <= MAX_QTY, '2');\n\n        if (dstDecimals >= srcDecimals) {\n            require((dstDecimals - srcDecimals) <= MAX_DECIMALS, '3');\n            return (destAmount * PRECISION / ((10 ** (dstDecimals - srcDecimals)) * srcAmount));\n        } else {\n            require((srcDecimals - dstDecimals) <= MAX_DECIMALS, '4');\n            return (destAmount * PRECISION * (10 ** (srcDecimals - dstDecimals)) / srcAmount);\n        }\n    }\n}\n",
  "sourcePath": "/home/peter/Documents/Work/MyBit/MyBit-Network.tech/contracts/kyber/Utils2.sol",
  "compiler": {
    "name": "solc",
    "version": "0.4.24+commit.e67f0147.Emscripten.clang"
  },
  "schemaVersion": "3.0.2",
  "updatedAt": "2019-04-03T05:17:35.034Z",
  "devdoc": {
    "methods": {
      "getBalance(address,address)": {
        "details": "get the balance of a user.",
        "params": {
          "token": "The token type"
        },
        "return": "The balance"
      }
    }
  },
  "userdoc": {
    "methods": {}
  }
}