{
  "contractName": "VolumeImbalanceRecorder",
  "abi": [
    {
      "constant": false,
      "inputs": [
        {
          "name": "alerter",
          "type": "address"
        }
      ],
      "name": "removeAlerter",
      "outputs": [],
      "payable": false,
      "stateMutability": "nonpayable",
      "type": "function"
    },
    {
      "constant": true,
      "inputs": [],
      "name": "pendingAdmin",
      "outputs": [
        {
          "name": "",
          "type": "address"
        }
      ],
      "payable": false,
      "stateMutability": "view",
      "type": "function"
    },
    {
      "constant": true,
      "inputs": [],
      "name": "getOperators",
      "outputs": [
        {
          "name": "",
          "type": "address[]"
        }
      ],
      "payable": false,
      "stateMutability": "view",
      "type": "function"
    },
    {
      "constant": false,
      "inputs": [
        {
          "name": "token",
          "type": "address"
        },
        {
          "name": "amount",
          "type": "uint256"
        },
        {
          "name": "sendTo",
          "type": "address"
        }
      ],
      "name": "withdrawToken",
      "outputs": [],
      "payable": false,
      "stateMutability": "nonpayable",
      "type": "function"
    },
    {
      "constant": false,
      "inputs": [
        {
          "name": "newAlerter",
          "type": "address"
        }
      ],
      "name": "addAlerter",
      "outputs": [],
      "payable": false,
      "stateMutability": "nonpayable",
      "type": "function"
    },
    {
      "constant": false,
      "inputs": [
        {
          "name": "newAdmin",
          "type": "address"
        }
      ],
      "name": "transferAdmin",
      "outputs": [],
      "payable": false,
      "stateMutability": "nonpayable",
      "type": "function"
    },
    {
      "constant": false,
      "inputs": [],
      "name": "claimAdmin",
      "outputs": [],
      "payable": false,
      "stateMutability": "nonpayable",
      "type": "function"
    },
    {
      "constant": false,
      "inputs": [
        {
          "name": "newAdmin",
          "type": "address"
        }
      ],
      "name": "transferAdminQuickly",
      "outputs": [],
      "payable": false,
      "stateMutability": "nonpayable",
      "type": "function"
    },
    {
      "constant": true,
      "inputs": [],
      "name": "getAlerters",
      "outputs": [
        {
          "name": "",
          "type": "address[]"
        }
      ],
      "payable": false,
      "stateMutability": "view",
      "type": "function"
    },
    {
      "constant": false,
      "inputs": [
        {
          "name": "newOperator",
          "type": "address"
        }
      ],
      "name": "addOperator",
      "outputs": [],
      "payable": false,
      "stateMutability": "nonpayable",
      "type": "function"
    },
    {
      "constant": true,
      "inputs": [
        {
          "name": "",
          "type": "address"
        },
        {
          "name": "",
          "type": "uint256"
        }
      ],
      "name": "tokenImbalanceData",
      "outputs": [
        {
          "name": "",
          "type": "uint256"
        }
      ],
      "payable": false,
      "stateMutability": "view",
      "type": "function"
    },
    {
      "constant": false,
      "inputs": [
        {
          "name": "operator",
          "type": "address"
        }
      ],
      "name": "removeOperator",
      "outputs": [],
      "payable": false,
      "stateMutability": "nonpayable",
      "type": "function"
    },
    {
      "constant": false,
      "inputs": [
        {
          "name": "amount",
          "type": "uint256"
        },
        {
          "name": "sendTo",
          "type": "address"
        }
      ],
      "name": "withdrawEther",
      "outputs": [],
      "payable": false,
      "stateMutability": "nonpayable",
      "type": "function"
    },
    {
      "constant": true,
      "inputs": [],
      "name": "admin",
      "outputs": [
        {
          "name": "",
          "type": "address"
        }
      ],
      "payable": false,
      "stateMutability": "view",
      "type": "function"
    },
    {
      "inputs": [
        {
          "name": "_admin",
          "type": "address"
        }
      ],
      "payable": false,
      "stateMutability": "nonpayable",
      "type": "constructor"
    },
    {
      "anonymous": false,
      "inputs": [
        {
          "indexed": false,
          "name": "token",
          "type": "address"
        },
        {
          "indexed": false,
          "name": "amount",
          "type": "uint256"
        },
        {
          "indexed": false,
          "name": "sendTo",
          "type": "address"
        }
      ],
      "name": "TokenWithdraw",
      "type": "event"
    },
    {
      "anonymous": false,
      "inputs": [
        {
          "indexed": false,
          "name": "amount",
          "type": "uint256"
        },
        {
          "indexed": false,
          "name": "sendTo",
          "type": "address"
        }
      ],
      "name": "EtherWithdraw",
      "type": "event"
    },
    {
      "anonymous": false,
      "inputs": [
        {
          "indexed": false,
          "name": "pendingAdmin",
          "type": "address"
        }
      ],
      "name": "TransferAdminPending",
      "type": "event"
    },
    {
      "anonymous": false,
      "inputs": [
        {
          "indexed": false,
          "name": "newAdmin",
          "type": "address"
        },
        {
          "indexed": false,
          "name": "previousAdmin",
          "type": "address"
        }
      ],
      "name": "AdminClaimed",
      "type": "event"
    },
    {
      "anonymous": false,
      "inputs": [
        {
          "indexed": false,
          "name": "newAlerter",
          "type": "address"
        },
        {
          "indexed": false,
          "name": "isAdd",
          "type": "bool"
        }
      ],
      "name": "AlerterAdded",
      "type": "event"
    },
    {
      "anonymous": false,
      "inputs": [
        {
          "indexed": false,
          "name": "newOperator",
          "type": "address"
        },
        {
          "indexed": false,
          "name": "isAdd",
          "type": "bool"
        }
      ],
      "name": "OperatorAdded",
      "type": "event"
    },
    {
      "constant": false,
      "inputs": [
        {
          "name": "token",
          "type": "address"
        },
        {
          "name": "minimalRecordResolution",
          "type": "uint256"
        },
        {
          "name": "maxPerBlockImbalance",
          "type": "uint256"
        },
        {
          "name": "maxTotalImbalance",
          "type": "uint256"
        }
      ],
      "name": "setTokenControlInfo",
      "outputs": [],
      "payable": false,
      "stateMutability": "nonpayable",
      "type": "function"
    },
    {
      "constant": true,
      "inputs": [
        {
          "name": "token",
          "type": "address"
        }
      ],
      "name": "getTokenControlInfo",
      "outputs": [
        {
          "name": "",
          "type": "uint256"
        },
        {
          "name": "",
          "type": "uint256"
        },
        {
          "name": "",
          "type": "uint256"
        }
      ],
      "payable": false,
      "stateMutability": "view",
      "type": "function"
    }
  ],
  "bytecode": "0x608060405234801561001057600080fd5b50604051602080610e36833981016040525160008054600160a060020a03191633179055600160a060020a038116151561004957600080fd5b60008054600160a060020a03909216600160a060020a0319909216919091179055610dbd806100796000396000f3006080604052600436106100e55763ffffffff7c010000000000000000000000000000000000000000000000000000000060003504166301a12fd381146100ea578063267822471461010d57806327a099d81461013e5780633ccdbb28146101a3578063408ee7fe146101ce57806375829def146101ef57806377f50f97146102105780637acc8678146102255780637c423f54146102465780639870d7fe1461025b578063a80c609e1461027c578063ac8a584a146102b2578063bfee3569146102d3578063ce56c454146102fd578063e7d4fd9114610321578063f851a44014610360575b600080fd5b3480156100f657600080fd5b5061010b600160a060020a0360043516610375565b005b34801561011957600080fd5b506101226104de565b60408051600160a060020a039092168252519081900360200190f35b34801561014a57600080fd5b506101536104ed565b60408051602080825283518183015283519192839290830191858101910280838360005b8381101561018f578181015183820152602001610177565b505050509050019250505060405180910390f35b3480156101af57600080fd5b5061010b600160a060020a036004358116906024359060443516610550565b3480156101da57600080fd5b5061010b600160a060020a0360043516610669565b3480156101fb57600080fd5b5061010b600160a060020a036004351661075f565b34801561021c57600080fd5b5061010b6107ec565b34801561023157600080fd5b5061010b600160a060020a0360043516610876565b34801561025257600080fd5b50610153610948565b34801561026757600080fd5b5061010b600160a060020a03600435166109a8565b34801561028857600080fd5b506102a0600160a060020a0360043516602435610a9e565b60408051918252519081900360200190f35b3480156102be57600080fd5b5061010b600160a060020a0360043516610abb565b3480156102df57600080fd5b5061010b600160a060020a0360043516602435604435606435610c20565b34801561030957600080fd5b5061010b600435600160a060020a0360243516610c7e565b34801561032d57600080fd5b50610342600160a060020a0360043516610d13565b60408051938452602084019290925282820152519081900360600190f35b34801561036c57600080fd5b50610122610d3b565b60008054600160a060020a0316331461038d57600080fd5b600160a060020a03821660009081526003602052604090205460ff1615156103b457600080fd5b50600160a060020a0381166000908152600360205260408120805460ff191690555b6005548110156104da5781600160a060020a03166005828154811015156103f957fe5b600091825260209091200154600160a060020a031614156104d25760058054600019810190811061042657fe5b60009182526020909120015460058054600160a060020a03909216918390811061044c57fe5b60009182526020909120018054600160a060020a031916600160a060020a03929092169190911790556005805490610488906000198301610d4a565b5060408051600160a060020a03841681526000602082015281517f5611bf3e417d124f97bf2c788843ea8bb502b66079fbee02158ef30b172cb762929181900390910190a16104da565b6001016103d6565b5050565b600154600160a060020a031681565b6060600480548060200260200160405190810160405280929190818152602001828054801561054557602002820191906000526020600020905b8154600160a060020a03168152600190910190602001808311610527575b505050505090505b90565b600054600160a060020a0316331461056757600080fd5b82600160a060020a031663a9059cbb82846040518363ffffffff167c01000000000000000000000000000000000000000000000000000000000281526004018083600160a060020a0316600160a060020a0316815260200182815260200192505050602060405180830381600087803b1580156105e357600080fd5b505af11580156105f7573d6000803e3d6000fd5b505050506040513d602081101561060d57600080fd5b5051151561061a57600080fd5b60408051600160a060020a0380861682526020820185905283168183015290517f72cb8a894ddb372ceec3d2a7648d86f17d5a15caae0e986c53109b8a9a9385e69181900360600190a1505050565b600054600160a060020a0316331461068057600080fd5b600160a060020a03811660009081526003602052604090205460ff16156106a657600080fd5b6005546032116106b557600080fd5b60408051600160a060020a03831681526001602082015281517f5611bf3e417d124f97bf2c788843ea8bb502b66079fbee02158ef30b172cb762929181900390910190a1600160a060020a03166000818152600360205260408120805460ff191660019081179091556005805491820181559091527f036b6384b5eca791c62761152d0c79bb0604c104a5fb6f4eb0703f3154bb3db0018054600160a060020a0319169091179055565b600054600160a060020a0316331461077657600080fd5b600160a060020a038116151561078b57600080fd5b60015460408051600160a060020a039092168252517f3b81caf78fa51ecbc8acb482fd7012a277b428d9b80f9d156e8a54107496cc409181900360200190a160018054600160a060020a031916600160a060020a0392909216919091179055565b600154600160a060020a0316331461080357600080fd5b60015460005460408051600160a060020a03938416815292909116602083015280517f65da1cfc2c2e81576ad96afb24a581f8e109b7a403b35cbd3243a1c99efdb9ed9281900390910190a16001805460008054600160a060020a0319908116600160a060020a03841617909155169055565b600054600160a060020a0316331461088d57600080fd5b600160a060020a03811615156108a257600080fd5b60408051600160a060020a038316815290517f3b81caf78fa51ecbc8acb482fd7012a277b428d9b80f9d156e8a54107496cc409181900360200190a160005460408051600160a060020a038085168252909216602083015280517f65da1cfc2c2e81576ad96afb24a581f8e109b7a403b35cbd3243a1c99efdb9ed9281900390910190a160008054600160a060020a031916600160a060020a0392909216919091179055565b6060600580548060200260200160405190810160405280929190818152602001828054801561054557602002820191906000526020600020908154600160a060020a03168152600190910190602001808311610527575050505050905090565b600054600160a060020a031633146109bf57600080fd5b600160a060020a03811660009081526002602052604090205460ff16156109e557600080fd5b6004546032116109f457600080fd5b60408051600160a060020a03831681526001602082015281517f091a7a4b85135fdd7e8dbc18b12fabe5cc191ea867aa3c2e1a24a102af61d58b929181900390910190a1600160a060020a03166000818152600260205260408120805460ff191660019081179091556004805491820181559091527f8a35acfbc15ff81a39ae7d344fd709f28e8600b4aa8c65c6b64bfe7fe36bd19b018054600160a060020a0319169091179055565b600760209081526000928352604080842090915290825290205481565b60008054600160a060020a03163314610ad357600080fd5b600160a060020a03821660009081526002602052604090205460ff161515610afa57600080fd5b50600160a060020a0381166000908152600260205260408120805460ff191690555b6004548110156104da5781600160a060020a0316600482815481101515610b3f57fe5b600091825260209091200154600160a060020a03161415610c1857600480546000198101908110610b6c57fe5b60009182526020909120015460048054600160a060020a039092169183908110610b9257fe5b60009182526020909120018054600160a060020a031916600160a060020a0392909216919091179055600480546000190190610bce9082610d4a565b5060408051600160a060020a03841681526000602082015281517f091a7a4b85135fdd7e8dbc18b12fabe5cc191ea867aa3c2e1a24a102af61d58b929181900390910190a16104da565b600101610b1c565b600054600160a060020a03163314610c3757600080fd5b604080516060810182529384526020808501938452848201928352600160a060020a0390951660009081526006909552909320915182555160018201559051600290910155565b600054600160a060020a03163314610c9557600080fd5b604051600160a060020a0382169083156108fc029084906000818181858888f19350505050158015610ccb573d6000803e3d6000fd5b5060408051838152600160a060020a038316602082015281517fec47e7ed86c86774d1a72c19f35c639911393fe7c1a34031fdbd260890da90de929181900390910190a15050565b600160a060020a03166000908152600660205260409020805460018201546002909201549092565b600054600160a060020a031681565b815481835581811115610d6e57600083815260209020610d6e918101908301610d73565b505050565b61054d91905b80821115610d8d5760008155600101610d79565b50905600a165627a7a723058206b0e020df03faf3a0df46a57a9b3e2da806d59d19db9229d30b79ecc29ed93750029",
  "source": "pragma solidity ^0.4.24;\n\nimport \"../interfaces/ERC20.sol\";\nimport \"./Withdrawable.sol\";\n\n\ncontract VolumeImbalanceRecorder is Withdrawable {\n\n    uint constant internal SLIDING_WINDOW_SIZE = 5;\n    uint constant internal POW_2_64 = 2 ** 64;\n\n    struct TokenControlInfo {\n        uint minimalRecordResolution; // can be roughly 1 cent\n        uint maxPerBlockImbalance; // in twei resolution\n        uint maxTotalImbalance; // max total imbalance (between rate updates)\n                            // before halting trade\n    }\n\n    mapping(address => TokenControlInfo) internal tokenControlInfo;\n\n    struct TokenImbalanceData {\n        int  lastBlockBuyUnitsImbalance;\n        uint lastBlock;\n\n        int  totalBuyUnitsImbalance;\n        uint lastRateUpdateBlock;\n    }\n\n    mapping(address => mapping(uint=>uint)) public tokenImbalanceData;\n\n    constructor(address _admin) public {\n        require(_admin != address(0));\n        admin = _admin;\n    }\n\n    function setTokenControlInfo(\n        ERC20 token,\n        uint minimalRecordResolution,\n        uint maxPerBlockImbalance,\n        uint maxTotalImbalance\n    )\n        public\n        onlyAdmin\n    {\n        tokenControlInfo[token] =\n            TokenControlInfo(\n                minimalRecordResolution,\n                maxPerBlockImbalance,\n                maxTotalImbalance\n            );\n    }\n\n    function getTokenControlInfo(ERC20 token) public view returns(uint, uint, uint) {\n        return (tokenControlInfo[token].minimalRecordResolution,\n                tokenControlInfo[token].maxPerBlockImbalance,\n                tokenControlInfo[token].maxTotalImbalance);\n    }\n\n    function addImbalance(\n        ERC20 token,\n        int buyAmount,\n        uint rateUpdateBlock,\n        uint currentBlock\n    )\n        internal\n    {\n        uint currentBlockIndex = currentBlock % SLIDING_WINDOW_SIZE;\n        int recordedBuyAmount = int(buyAmount / int(tokenControlInfo[token].minimalRecordResolution));\n\n        int prevImbalance = 0;\n\n        TokenImbalanceData memory currentBlockData =\n            decodeTokenImbalanceData(tokenImbalanceData[token][currentBlockIndex]);\n\n        // first scenario - this is not the first tx in the current block\n        if (currentBlockData.lastBlock == currentBlock) {\n            if (uint(currentBlockData.lastRateUpdateBlock) == rateUpdateBlock) {\n                // just increase imbalance\n                currentBlockData.lastBlockBuyUnitsImbalance += recordedBuyAmount;\n                currentBlockData.totalBuyUnitsImbalance += recordedBuyAmount;\n            } else {\n                // imbalance was changed in the middle of the block\n                prevImbalance = getImbalanceInRange(token, rateUpdateBlock, currentBlock);\n                currentBlockData.totalBuyUnitsImbalance = int(prevImbalance) + recordedBuyAmount;\n                currentBlockData.lastBlockBuyUnitsImbalance += recordedBuyAmount;\n                currentBlockData.lastRateUpdateBlock = uint(rateUpdateBlock);\n            }\n        } else {\n            // first tx in the current block\n            int currentBlockImbalance;\n            (prevImbalance, currentBlockImbalance) = getImbalanceSinceRateUpdate(token, rateUpdateBlock, currentBlock);\n\n            currentBlockData.lastBlockBuyUnitsImbalance = recordedBuyAmount;\n            currentBlockData.lastBlock = uint(currentBlock);\n            currentBlockData.lastRateUpdateBlock = uint(rateUpdateBlock);\n            currentBlockData.totalBuyUnitsImbalance = int(prevImbalance) + recordedBuyAmount;\n        }\n\n        tokenImbalanceData[token][currentBlockIndex] = encodeTokenImbalanceData(currentBlockData);\n    }\n\n    function setGarbageToVolumeRecorder(ERC20 token) internal {\n        for (uint i = 0; i < SLIDING_WINDOW_SIZE; i++) {\n            tokenImbalanceData[token][i] = 0x1;\n        }\n    }\n\n    function getImbalanceInRange(ERC20 token, uint startBlock, uint endBlock) internal view returns(int buyImbalance) {\n        // check the imbalance in the sliding window\n        require(startBlock <= endBlock);\n\n        buyImbalance = 0;\n\n        for (uint windowInd = 0; windowInd < SLIDING_WINDOW_SIZE; windowInd++) {\n            TokenImbalanceData memory perBlockData = decodeTokenImbalanceData(tokenImbalanceData[token][windowInd]);\n\n            if (perBlockData.lastBlock <= endBlock && perBlockData.lastBlock >= startBlock) {\n                buyImbalance += int(perBlockData.lastBlockBuyUnitsImbalance);\n            }\n        }\n    }\n\n    function getImbalanceSinceRateUpdate(ERC20 token, uint rateUpdateBlock, uint currentBlock)\n        internal view\n        returns(int buyImbalance, int currentBlockImbalance)\n    {\n        buyImbalance = 0;\n        currentBlockImbalance = 0;\n        uint latestBlock = 0;\n        int imbalanceInRange = 0;\n        uint startBlock = rateUpdateBlock;\n        uint endBlock = currentBlock;\n\n        for (uint windowInd = 0; windowInd < SLIDING_WINDOW_SIZE; windowInd++) {\n            TokenImbalanceData memory perBlockData = decodeTokenImbalanceData(tokenImbalanceData[token][windowInd]);\n\n            if (perBlockData.lastBlock <= endBlock && perBlockData.lastBlock >= startBlock) {\n                imbalanceInRange += perBlockData.lastBlockBuyUnitsImbalance;\n            }\n\n            if (perBlockData.lastRateUpdateBlock != rateUpdateBlock) continue;\n            if (perBlockData.lastBlock < latestBlock) continue;\n\n            latestBlock = perBlockData.lastBlock;\n            buyImbalance = perBlockData.totalBuyUnitsImbalance;\n            if (uint(perBlockData.lastBlock) == currentBlock) {\n                currentBlockImbalance = perBlockData.lastBlockBuyUnitsImbalance;\n            }\n        }\n\n        if (buyImbalance == 0) {\n            buyImbalance = imbalanceInRange;\n        }\n    }\n\n    function getImbalance(ERC20 token, uint rateUpdateBlock, uint currentBlock)\n        internal view\n        returns(int totalImbalance, int currentBlockImbalance)\n    {\n\n        int resolution = int(tokenControlInfo[token].minimalRecordResolution);\n\n        (totalImbalance, currentBlockImbalance) =\n            getImbalanceSinceRateUpdate(\n                token,\n                rateUpdateBlock,\n                currentBlock);\n\n        totalImbalance *= resolution;\n        currentBlockImbalance *= resolution;\n    }\n\n    function getMaxPerBlockImbalance(ERC20 token) internal view returns(uint) {\n        return tokenControlInfo[token].maxPerBlockImbalance;\n    }\n\n    function getMaxTotalImbalance(ERC20 token) internal view returns(uint) {\n        return tokenControlInfo[token].maxTotalImbalance;\n    }\n\n    function encodeTokenImbalanceData(TokenImbalanceData data) internal pure returns(uint) {\n        // check for overflows\n        require(data.lastBlockBuyUnitsImbalance < int(POW_2_64 / 2));\n        require(data.lastBlockBuyUnitsImbalance > int(-1 * int(POW_2_64) / 2));\n        require(data.lastBlock < POW_2_64);\n        require(data.totalBuyUnitsImbalance < int(POW_2_64 / 2));\n        require(data.totalBuyUnitsImbalance > int(-1 * int(POW_2_64) / 2));\n        require(data.lastRateUpdateBlock < POW_2_64);\n\n        // do encoding\n        uint result = uint(data.lastBlockBuyUnitsImbalance) & (POW_2_64 - 1);\n        result |= data.lastBlock * POW_2_64;\n        result |= (uint(data.totalBuyUnitsImbalance) & (POW_2_64 - 1)) * POW_2_64 * POW_2_64;\n        result |= data.lastRateUpdateBlock * POW_2_64 * POW_2_64 * POW_2_64;\n\n        return result;\n    }\n\n    function decodeTokenImbalanceData(uint input) internal pure returns(TokenImbalanceData) {\n        TokenImbalanceData memory data;\n\n        data.lastBlockBuyUnitsImbalance = int(int64(input & (POW_2_64 - 1)));\n        data.lastBlock = uint(uint64((input / POW_2_64) & (POW_2_64 - 1)));\n        data.totalBuyUnitsImbalance = int(int64((input / (POW_2_64 * POW_2_64)) & (POW_2_64 - 1)));\n        data.lastRateUpdateBlock = uint(uint64((input / (POW_2_64 * POW_2_64 * POW_2_64))));\n\n        return data;\n    }\n}\n",
  "sourcePath": "/home/peter/Documents/Work/MyBit/MyBit-Network.tech/contracts/kyber/VolumeImbalanceRecorder.sol",
  "compiler": {
    "name": "solc",
    "version": "0.4.24+commit.e67f0147.Emscripten.clang"
  },
  "schemaVersion": "3.0.2",
  "updatedAt": "2019-04-08T19:44:50.385Z",
  "devdoc": {
    "methods": {
      "claimAdmin()": {
        "details": "Allows the pendingAdmin address to finalize the change admin process."
      },
      "transferAdmin(address)": {
        "details": "Allows the current admin to set the pendingAdmin address.",
        "params": {
          "newAdmin": "The address to transfer ownership to."
        }
      },
      "transferAdminQuickly(address)": {
        "details": "Allows the current admin to set the admin in one tx. Useful initial deployment.",
        "params": {
          "newAdmin": "The address to transfer ownership to."
        }
      },
      "withdrawEther(uint256,address)": {
        "details": "Withdraw Ethers"
      },
      "withdrawToken(address,uint256,address)": {
        "details": "Withdraw all ERC20 compatible tokens",
        "params": {
          "token": "ERC20 The address of the token contract"
        }
      }
    }
  },
  "userdoc": {
    "methods": {}
  }
}