{
  "contractName": "WhiteList",
  "abi": [
    {
      "constant": false,
      "inputs": [
        {
          "name": "alerter",
          "type": "address"
        }
      ],
      "name": "removeAlerter",
      "outputs": [],
      "payable": false,
      "stateMutability": "nonpayable",
      "type": "function"
    },
    {
      "constant": true,
      "inputs": [],
      "name": "kgtToken",
      "outputs": [
        {
          "name": "",
          "type": "address"
        }
      ],
      "payable": false,
      "stateMutability": "view",
      "type": "function"
    },
    {
      "constant": true,
      "inputs": [],
      "name": "pendingAdmin",
      "outputs": [
        {
          "name": "",
          "type": "address"
        }
      ],
      "payable": false,
      "stateMutability": "view",
      "type": "function"
    },
    {
      "constant": true,
      "inputs": [],
      "name": "getOperators",
      "outputs": [
        {
          "name": "",
          "type": "address[]"
        }
      ],
      "payable": false,
      "stateMutability": "view",
      "type": "function"
    },
    {
      "constant": false,
      "inputs": [
        {
          "name": "token",
          "type": "address"
        },
        {
          "name": "amount",
          "type": "uint256"
        },
        {
          "name": "sendTo",
          "type": "address"
        }
      ],
      "name": "withdrawToken",
      "outputs": [],
      "payable": false,
      "stateMutability": "nonpayable",
      "type": "function"
    },
    {
      "constant": false,
      "inputs": [
        {
          "name": "newAlerter",
          "type": "address"
        }
      ],
      "name": "addAlerter",
      "outputs": [],
      "payable": false,
      "stateMutability": "nonpayable",
      "type": "function"
    },
    {
      "constant": true,
      "inputs": [],
      "name": "kgtHolderCategory",
      "outputs": [
        {
          "name": "",
          "type": "uint256"
        }
      ],
      "payable": false,
      "stateMutability": "view",
      "type": "function"
    },
    {
      "constant": true,
      "inputs": [
        {
          "name": "",
          "type": "address"
        }
      ],
      "name": "userCategory",
      "outputs": [
        {
          "name": "",
          "type": "uint256"
        }
      ],
      "payable": false,
      "stateMutability": "view",
      "type": "function"
    },
    {
      "constant": false,
      "inputs": [
        {
          "name": "newAdmin",
          "type": "address"
        }
      ],
      "name": "transferAdmin",
      "outputs": [],
      "payable": false,
      "stateMutability": "nonpayable",
      "type": "function"
    },
    {
      "constant": false,
      "inputs": [],
      "name": "claimAdmin",
      "outputs": [],
      "payable": false,
      "stateMutability": "nonpayable",
      "type": "function"
    },
    {
      "constant": false,
      "inputs": [
        {
          "name": "newAdmin",
          "type": "address"
        }
      ],
      "name": "transferAdminQuickly",
      "outputs": [],
      "payable": false,
      "stateMutability": "nonpayable",
      "type": "function"
    },
    {
      "constant": true,
      "inputs": [],
      "name": "getAlerters",
      "outputs": [
        {
          "name": "",
          "type": "address[]"
        }
      ],
      "payable": false,
      "stateMutability": "view",
      "type": "function"
    },
    {
      "constant": false,
      "inputs": [
        {
          "name": "newOperator",
          "type": "address"
        }
      ],
      "name": "addOperator",
      "outputs": [],
      "payable": false,
      "stateMutability": "nonpayable",
      "type": "function"
    },
    {
      "constant": false,
      "inputs": [
        {
          "name": "operator",
          "type": "address"
        }
      ],
      "name": "removeOperator",
      "outputs": [],
      "payable": false,
      "stateMutability": "nonpayable",
      "type": "function"
    },
    {
      "constant": true,
      "inputs": [],
      "name": "weiPerSgd",
      "outputs": [
        {
          "name": "",
          "type": "uint256"
        }
      ],
      "payable": false,
      "stateMutability": "view",
      "type": "function"
    },
    {
      "constant": false,
      "inputs": [
        {
          "name": "amount",
          "type": "uint256"
        },
        {
          "name": "sendTo",
          "type": "address"
        }
      ],
      "name": "withdrawEther",
      "outputs": [],
      "payable": false,
      "stateMutability": "nonpayable",
      "type": "function"
    },
    {
      "constant": true,
      "inputs": [],
      "name": "admin",
      "outputs": [
        {
          "name": "",
          "type": "address"
        }
      ],
      "payable": false,
      "stateMutability": "view",
      "type": "function"
    },
    {
      "constant": true,
      "inputs": [
        {
          "name": "",
          "type": "uint256"
        }
      ],
      "name": "categoryCap",
      "outputs": [
        {
          "name": "",
          "type": "uint256"
        }
      ],
      "payable": false,
      "stateMutability": "view",
      "type": "function"
    },
    {
      "inputs": [
        {
          "name": "_admin",
          "type": "address"
        },
        {
          "name": "_kgtToken",
          "type": "address"
        }
      ],
      "payable": false,
      "stateMutability": "nonpayable",
      "type": "constructor"
    },
    {
      "anonymous": false,
      "inputs": [
        {
          "indexed": false,
          "name": "user",
          "type": "address"
        },
        {
          "indexed": false,
          "name": "category",
          "type": "uint256"
        }
      ],
      "name": "UserCategorySet",
      "type": "event"
    },
    {
      "anonymous": false,
      "inputs": [
        {
          "indexed": false,
          "name": "category",
          "type": "uint256"
        },
        {
          "indexed": false,
          "name": "sgdCap",
          "type": "uint256"
        }
      ],
      "name": "CategoryCapSet",
      "type": "event"
    },
    {
      "anonymous": false,
      "inputs": [
        {
          "indexed": false,
          "name": "rate",
          "type": "uint256"
        }
      ],
      "name": "SgdToWeiRateSet",
      "type": "event"
    },
    {
      "anonymous": false,
      "inputs": [
        {
          "indexed": false,
          "name": "token",
          "type": "address"
        },
        {
          "indexed": false,
          "name": "amount",
          "type": "uint256"
        },
        {
          "indexed": false,
          "name": "sendTo",
          "type": "address"
        }
      ],
      "name": "TokenWithdraw",
      "type": "event"
    },
    {
      "anonymous": false,
      "inputs": [
        {
          "indexed": false,
          "name": "amount",
          "type": "uint256"
        },
        {
          "indexed": false,
          "name": "sendTo",
          "type": "address"
        }
      ],
      "name": "EtherWithdraw",
      "type": "event"
    },
    {
      "anonymous": false,
      "inputs": [
        {
          "indexed": false,
          "name": "pendingAdmin",
          "type": "address"
        }
      ],
      "name": "TransferAdminPending",
      "type": "event"
    },
    {
      "anonymous": false,
      "inputs": [
        {
          "indexed": false,
          "name": "newAdmin",
          "type": "address"
        },
        {
          "indexed": false,
          "name": "previousAdmin",
          "type": "address"
        }
      ],
      "name": "AdminClaimed",
      "type": "event"
    },
    {
      "anonymous": false,
      "inputs": [
        {
          "indexed": false,
          "name": "newAlerter",
          "type": "address"
        },
        {
          "indexed": false,
          "name": "isAdd",
          "type": "bool"
        }
      ],
      "name": "AlerterAdded",
      "type": "event"
    },
    {
      "anonymous": false,
      "inputs": [
        {
          "indexed": false,
          "name": "newOperator",
          "type": "address"
        },
        {
          "indexed": false,
          "name": "isAdd",
          "type": "bool"
        }
      ],
      "name": "OperatorAdded",
      "type": "event"
    },
    {
      "constant": true,
      "inputs": [
        {
          "name": "user",
          "type": "address"
        }
      ],
      "name": "getUserCapInWei",
      "outputs": [
        {
          "name": "",
          "type": "uint256"
        }
      ],
      "payable": false,
      "stateMutability": "view",
      "type": "function"
    },
    {
      "constant": false,
      "inputs": [
        {
          "name": "user",
          "type": "address"
        },
        {
          "name": "category",
          "type": "uint256"
        }
      ],
      "name": "setUserCategory",
      "outputs": [],
      "payable": false,
      "stateMutability": "nonpayable",
      "type": "function"
    },
    {
      "constant": false,
      "inputs": [
        {
          "name": "category",
          "type": "uint256"
        },
        {
          "name": "sgdCap",
          "type": "uint256"
        }
      ],
      "name": "setCategoryCap",
      "outputs": [],
      "payable": false,
      "stateMutability": "nonpayable",
      "type": "function"
    },
    {
      "constant": false,
      "inputs": [
        {
          "name": "_sgdToWeiRate",
          "type": "uint256"
        }
      ],
      "name": "setSgdToEthRate",
      "outputs": [],
      "payable": false,
      "stateMutability": "nonpayable",
      "type": "function"
    },
    {
      "constant": true,
      "inputs": [
        {
          "name": "user",
          "type": "address"
        }
      ],
      "name": "getUserCategory",
      "outputs": [
        {
          "name": "",
          "type": "uint256"
        }
      ],
      "payable": false,
      "stateMutability": "view",
      "type": "function"
    }
  ],
  "bytecode": "0x608060405234801561001057600080fd5b506040516040806110f983398101604052805160209091015160008054600160a060020a03191633179055600160a060020a038216151561005057600080fd5b600160a060020a038116151561006557600080fd5b60098054600160a060020a03928316600160a060020a03199182161790915560008054939092169216919091179055611056806100a36000396000f3006080604052600436106101325763ffffffff7c010000000000000000000000000000000000000000000000000000000060003504166301a12fd381146101375780630bc5f2161461015a578063166037581461018b57806326782247146101af57806327a099d8146101c45780633ccdbb2814610229578063408ee7fe146102545780634576a635146102755780636432679f146102905780636f512e61146102c357806370cc5e45146102db57806373172488146102f057806375829def1461031157806377f50f97146103325780637acc8678146103475780637c423f54146103685780639870d7fe1461037d578063ac8a584a1461039e578063bdd5f8da146103bf578063ce56c454146103d4578063dc4bc06e146103f8578063f851a44014610419578063f8b367c11461042e575b600080fd5b34801561014357600080fd5b50610158600160a060020a0360043516610446565b005b34801561016657600080fd5b5061016f6105af565b60408051600160a060020a039092168252519081900360200190f35b34801561019757600080fd5b50610158600160a060020a03600435166024356105be565b3480156101bb57600080fd5b5061016f610635565b3480156101d057600080fd5b506101d9610644565b60408051602080825283518183015283519192839290830191858101910280838360005b838110156102155781810151838201526020016101fd565b505050509050019250505060405180910390f35b34801561023557600080fd5b50610158600160a060020a0360043581169060243590604435166106a7565b34801561026057600080fd5b50610158600160a060020a03600435166107c0565b34801561028157600080fd5b506101586004356024356108b6565b34801561029c57600080fd5b506102b1600160a060020a0360043516610925565b60408051918252519081900360200190f35b3480156102cf57600080fd5b5061015860043561094c565b3480156102e757600080fd5b506102b16109a5565b3480156102fc57600080fd5b506102b1600160a060020a03600435166109aa565b34801561031d57600080fd5b50610158600160a060020a03600435166109bc565b34801561033e57600080fd5b50610158610a49565b34801561035357600080fd5b50610158600160a060020a0360043516610ad3565b34801561037457600080fd5b506101d9610ba5565b34801561038957600080fd5b50610158600160a060020a0360043516610c05565b3480156103aa57600080fd5b50610158600160a060020a0360043516610cfb565b3480156103cb57600080fd5b506102b1610e60565b3480156103e057600080fd5b50610158600435600160a060020a0360243516610e66565b34801561040457600080fd5b506102b1600160a060020a0360043516610efb565b34801561042557600080fd5b5061016f610fc2565b34801561043a57600080fd5b506102b1600435610fd1565b60008054600160a060020a0316331461045e57600080fd5b600160a060020a03821660009081526003602052604090205460ff16151561048557600080fd5b50600160a060020a0381166000908152600360205260408120805460ff191690555b6005548110156105ab5781600160a060020a03166005828154811015156104ca57fe5b600091825260209091200154600160a060020a031614156105a3576005805460001981019081106104f757fe5b60009182526020909120015460058054600160a060020a03909216918390811061051d57fe5b60009182526020909120018054600160a060020a031916600160a060020a03929092169190911790556005805490610559906000198301610fe3565b5060408051600160a060020a03841681526000602082015281517f5611bf3e417d124f97bf2c788843ea8bb502b66079fbee02158ef30b172cb762929181900390910190a16105ab565b6001016104a7565b5050565b600954600160a060020a031681565b3360009081526002602052604090205460ff1615156105dc57600080fd5b600160a060020a0382166000818152600760209081526040918290208490558151928352820183905280517f0aeb0f7989a09b8cccf58cea1aefa196ccf738cb14781d6910448dd5649d0e6e9281900390910190a15050565b600154600160a060020a031681565b6060600480548060200260200160405190810160405280929190818152602001828054801561069c57602002820191906000526020600020905b8154600160a060020a0316815260019091019060200180831161067e575b505050505090505b90565b600054600160a060020a031633146106be57600080fd5b82600160a060020a031663a9059cbb82846040518363ffffffff167c01000000000000000000000000000000000000000000000000000000000281526004018083600160a060020a0316600160a060020a0316815260200182815260200192505050602060405180830381600087803b15801561073a57600080fd5b505af115801561074e573d6000803e3d6000fd5b505050506040513d602081101561076457600080fd5b5051151561077157600080fd5b60408051600160a060020a0380861682526020820185905283168183015290517f72cb8a894ddb372ceec3d2a7648d86f17d5a15caae0e986c53109b8a9a9385e69181900360600190a1505050565b600054600160a060020a031633146107d757600080fd5b600160a060020a03811660009081526003602052604090205460ff16156107fd57600080fd5b60055460321161080c57600080fd5b60408051600160a060020a03831681526001602082015281517f5611bf3e417d124f97bf2c788843ea8bb502b66079fbee02158ef30b172cb762929181900390910190a1600160a060020a03166000818152600360205260408120805460ff191660019081179091556005805491820181559091527f036b6384b5eca791c62761152d0c79bb0604c104a5fb6f4eb0703f3154bb3db0018054600160a060020a0319169091179055565b3360009081526002602052604090205460ff1615156108d457600080fd5b600082815260086020908152604091829020839055815184815290810183905281517ffe29fc12cc077f523b5141f4461f4379616a4f0198063967ff0d3968842df4d5929181900390910190a15050565b60008061093183610efb565b60065460009182526008602052604090912054029392505050565b3360009081526002602052604090205460ff16151561096a57600080fd5b60068190556040805182815290517f7b1f1f835b071dffe96e01b6d92e82ab769940e14897658192a350bd734b1e609181900360200190a150565b600281565b60076020526000908152604090205481565b600054600160a060020a031633146109d357600080fd5b600160a060020a03811615156109e857600080fd5b60015460408051600160a060020a039092168252517f3b81caf78fa51ecbc8acb482fd7012a277b428d9b80f9d156e8a54107496cc409181900360200190a160018054600160a060020a031916600160a060020a0392909216919091179055565b600154600160a060020a03163314610a6057600080fd5b60015460005460408051600160a060020a03938416815292909116602083015280517f65da1cfc2c2e81576ad96afb24a581f8e109b7a403b35cbd3243a1c99efdb9ed9281900390910190a16001805460008054600160a060020a0319908116600160a060020a03841617909155169055565b600054600160a060020a03163314610aea57600080fd5b600160a060020a0381161515610aff57600080fd5b60408051600160a060020a038316815290517f3b81caf78fa51ecbc8acb482fd7012a277b428d9b80f9d156e8a54107496cc409181900360200190a160005460408051600160a060020a038085168252909216602083015280517f65da1cfc2c2e81576ad96afb24a581f8e109b7a403b35cbd3243a1c99efdb9ed9281900390910190a160008054600160a060020a031916600160a060020a0392909216919091179055565b6060600580548060200260200160405190810160405280929190818152602001828054801561069c57602002820191906000526020600020908154600160a060020a0316815260019091019060200180831161067e575050505050905090565b600054600160a060020a03163314610c1c57600080fd5b600160a060020a03811660009081526002602052604090205460ff1615610c4257600080fd5b600454603211610c5157600080fd5b60408051600160a060020a03831681526001602082015281517f091a7a4b85135fdd7e8dbc18b12fabe5cc191ea867aa3c2e1a24a102af61d58b929181900390910190a1600160a060020a03166000818152600260205260408120805460ff191660019081179091556004805491820181559091527f8a35acfbc15ff81a39ae7d344fd709f28e8600b4aa8c65c6b64bfe7fe36bd19b018054600160a060020a0319169091179055565b60008054600160a060020a03163314610d1357600080fd5b600160a060020a03821660009081526002602052604090205460ff161515610d3a57600080fd5b50600160a060020a0381166000908152600260205260408120805460ff191690555b6004548110156105ab5781600160a060020a0316600482815481101515610d7f57fe5b600091825260209091200154600160a060020a03161415610e5857600480546000198101908110610dac57fe5b60009182526020909120015460048054600160a060020a039092169183908110610dd257fe5b60009182526020909120018054600160a060020a031916600160a060020a0392909216919091179055600480546000190190610e0e9082610fe3565b5060408051600160a060020a03841681526000602082015281517f091a7a4b85135fdd7e8dbc18b12fabe5cc191ea867aa3c2e1a24a102af61d58b929181900390910190a16105ab565b600101610d5c565b60065481565b600054600160a060020a03163314610e7d57600080fd5b604051600160a060020a0382169083156108fc029084906000818181858888f19350505050158015610eb3573d6000803e3d6000fd5b5060408051838152600160a060020a038316602082015281517fec47e7ed86c86774d1a72c19f35c639911393fe7c1a34031fdbd260890da90de929181900390910190a15050565b600160a060020a038116600090815260076020526040812054801515610fbc57600954604080517f70a08231000000000000000000000000000000000000000000000000000000008152600160a060020a038681166004830152915160009392909216916370a082319160248082019260209290919082900301818787803b158015610f8657600080fd5b505af1158015610f9a573d6000803e3d6000fd5b505050506040513d6020811015610fb057600080fd5b50511115610fbc575060025b92915050565b600054600160a060020a031681565b60086020526000908152604090205481565b8154818355818111156110075760008381526020902061100791810190830161100c565b505050565b6106a491905b808211156110265760008155600101611012565b50905600a165627a7a72305820842834ed64ca4ac3d86191ca82db73d093314d2574ab00f1c5f9ddc781ecf02e0029",
  "source": "pragma solidity ^0.4.24;\n\nimport \"./Withdrawable.sol\";\nimport \"./WhiteListInterface.sol\";\nimport \"../interfaces/ERC20.sol\";\n\n\ncontract WhiteList is WhiteListInterface, Withdrawable {\n\n    uint public weiPerSgd; // amount of weis in 1 singapore dollar\n    mapping (address=>uint) public userCategory; // each user has a category defining cap on trade. 0 for standard.\n    mapping (uint=>uint)    public categoryCap;  // will define cap on trade amount per category in singapore Dollar.\n    uint constant public kgtHolderCategory = 2;\n    ERC20 public kgtToken;\n\n    constructor(address _admin, ERC20 _kgtToken) public {\n        require(_admin != address(0));\n        require(_kgtToken != address(0));\n        kgtToken = _kgtToken;\n        admin = _admin;\n    }\n\n    function getUserCapInWei(address user) external view returns (uint) {\n        uint category = getUserCategory(user);\n        return (categoryCap[category] * weiPerSgd);\n    }\n\n    event UserCategorySet(address user, uint category);\n\n    function setUserCategory(address user, uint category) public onlyOperator {\n        userCategory[user] = category;\n        emit UserCategorySet(user, category);\n    }\n\n    event CategoryCapSet (uint category, uint sgdCap);\n\n    function setCategoryCap(uint category, uint sgdCap) public onlyOperator {\n        categoryCap[category] = sgdCap;\n        emit CategoryCapSet(category, sgdCap);\n    }\n\n    event SgdToWeiRateSet (uint rate);\n\n    function setSgdToEthRate(uint _sgdToWeiRate) public onlyOperator {\n        weiPerSgd = _sgdToWeiRate;\n        emit SgdToWeiRateSet(_sgdToWeiRate);\n    }\n\n    function getUserCategory (address user) public view returns(uint) {\n        uint category = userCategory[user];\n        if (category == 0) {\n            //0 = default category. means category wasn't set.\n            if (kgtToken.balanceOf(user) > 0) {\n                category = kgtHolderCategory;\n            }\n        }\n        return category;\n    }\n}\n",
  "sourcePath": "/home/peter/Documents/Work/MyBit/MyBit-Network.tech/contracts/kyber/WhiteList.sol",
  "compiler": {
    "name": "solc",
    "version": "0.4.24+commit.e67f0147.Emscripten.clang"
  },
  "schemaVersion": "3.0.1",
  "updatedAt": "2019-03-13T22:36:34.398Z",
  "devdoc": {
    "methods": {
      "claimAdmin()": {
        "details": "Allows the pendingAdmin address to finalize the change admin process."
      },
      "transferAdmin(address)": {
        "details": "Allows the current admin to set the pendingAdmin address.",
        "params": {
          "newAdmin": "The address to transfer ownership to."
        }
      },
      "transferAdminQuickly(address)": {
        "details": "Allows the current admin to set the admin in one tx. Useful initial deployment.",
        "params": {
          "newAdmin": "The address to transfer ownership to."
        }
      },
      "withdrawEther(uint256,address)": {
        "details": "Withdraw Ethers"
      },
      "withdrawToken(address,uint256,address)": {
        "details": "Withdraw all ERC20 compatible tokens",
        "params": {
          "token": "ERC20 The address of the token contract"
        }
      }
    }
  },
  "userdoc": {
    "methods": {}
  }
}