{
  "contractName": "Withdrawable",
  "abi": [
    {
      "constant": false,
      "inputs": [
        {
          "name": "alerter",
          "type": "address"
        }
      ],
      "name": "removeAlerter",
      "outputs": [],
      "payable": false,
      "stateMutability": "nonpayable",
      "type": "function"
    },
    {
      "constant": true,
      "inputs": [],
      "name": "pendingAdmin",
      "outputs": [
        {
          "name": "",
          "type": "address"
        }
      ],
      "payable": false,
      "stateMutability": "view",
      "type": "function"
    },
    {
      "constant": true,
      "inputs": [],
      "name": "getOperators",
      "outputs": [
        {
          "name": "",
          "type": "address[]"
        }
      ],
      "payable": false,
      "stateMutability": "view",
      "type": "function"
    },
    {
      "constant": false,
      "inputs": [
        {
          "name": "newAlerter",
          "type": "address"
        }
      ],
      "name": "addAlerter",
      "outputs": [],
      "payable": false,
      "stateMutability": "nonpayable",
      "type": "function"
    },
    {
      "constant": false,
      "inputs": [
        {
          "name": "newAdmin",
          "type": "address"
        }
      ],
      "name": "transferAdmin",
      "outputs": [],
      "payable": false,
      "stateMutability": "nonpayable",
      "type": "function"
    },
    {
      "constant": false,
      "inputs": [],
      "name": "claimAdmin",
      "outputs": [],
      "payable": false,
      "stateMutability": "nonpayable",
      "type": "function"
    },
    {
      "constant": false,
      "inputs": [
        {
          "name": "newAdmin",
          "type": "address"
        }
      ],
      "name": "transferAdminQuickly",
      "outputs": [],
      "payable": false,
      "stateMutability": "nonpayable",
      "type": "function"
    },
    {
      "constant": true,
      "inputs": [],
      "name": "getAlerters",
      "outputs": [
        {
          "name": "",
          "type": "address[]"
        }
      ],
      "payable": false,
      "stateMutability": "view",
      "type": "function"
    },
    {
      "constant": false,
      "inputs": [
        {
          "name": "newOperator",
          "type": "address"
        }
      ],
      "name": "addOperator",
      "outputs": [],
      "payable": false,
      "stateMutability": "nonpayable",
      "type": "function"
    },
    {
      "constant": false,
      "inputs": [
        {
          "name": "operator",
          "type": "address"
        }
      ],
      "name": "removeOperator",
      "outputs": [],
      "payable": false,
      "stateMutability": "nonpayable",
      "type": "function"
    },
    {
      "constant": true,
      "inputs": [],
      "name": "admin",
      "outputs": [
        {
          "name": "",
          "type": "address"
        }
      ],
      "payable": false,
      "stateMutability": "view",
      "type": "function"
    },
    {
      "anonymous": false,
      "inputs": [
        {
          "indexed": false,
          "name": "token",
          "type": "address"
        },
        {
          "indexed": false,
          "name": "amount",
          "type": "uint256"
        },
        {
          "indexed": false,
          "name": "sendTo",
          "type": "address"
        }
      ],
      "name": "TokenWithdraw",
      "type": "event"
    },
    {
      "anonymous": false,
      "inputs": [
        {
          "indexed": false,
          "name": "amount",
          "type": "uint256"
        },
        {
          "indexed": false,
          "name": "sendTo",
          "type": "address"
        }
      ],
      "name": "EtherWithdraw",
      "type": "event"
    },
    {
      "anonymous": false,
      "inputs": [
        {
          "indexed": false,
          "name": "pendingAdmin",
          "type": "address"
        }
      ],
      "name": "TransferAdminPending",
      "type": "event"
    },
    {
      "anonymous": false,
      "inputs": [
        {
          "indexed": false,
          "name": "newAdmin",
          "type": "address"
        },
        {
          "indexed": false,
          "name": "previousAdmin",
          "type": "address"
        }
      ],
      "name": "AdminClaimed",
      "type": "event"
    },
    {
      "anonymous": false,
      "inputs": [
        {
          "indexed": false,
          "name": "newAlerter",
          "type": "address"
        },
        {
          "indexed": false,
          "name": "isAdd",
          "type": "bool"
        }
      ],
      "name": "AlerterAdded",
      "type": "event"
    },
    {
      "anonymous": false,
      "inputs": [
        {
          "indexed": false,
          "name": "newOperator",
          "type": "address"
        },
        {
          "indexed": false,
          "name": "isAdd",
          "type": "bool"
        }
      ],
      "name": "OperatorAdded",
      "type": "event"
    },
    {
      "constant": false,
      "inputs": [
        {
          "name": "token",
          "type": "address"
        },
        {
          "name": "amount",
          "type": "uint256"
        },
        {
          "name": "sendTo",
          "type": "address"
        }
      ],
      "name": "withdrawToken",
      "outputs": [],
      "payable": false,
      "stateMutability": "nonpayable",
      "type": "function"
    },
    {
      "constant": false,
      "inputs": [
        {
          "name": "amount",
          "type": "uint256"
        },
        {
          "name": "sendTo",
          "type": "address"
        }
      ],
      "name": "withdrawEther",
      "outputs": [],
      "payable": false,
      "stateMutability": "nonpayable",
      "type": "function"
    }
  ],
  "bytecode": "0x608060405260008054600160a060020a03191633179055610c5a806100256000396000f3006080604052600436106100c45763ffffffff7c010000000000000000000000000000000000000000000000000000000060003504166301a12fd381146100c957806326782247146100ec57806327a099d81461011d5780633ccdbb2814610182578063408ee7fe146101ad57806375829def146101ce57806377f50f97146101ef5780637acc8678146102045780637c423f54146102255780639870d7fe1461023a578063ac8a584a1461025b578063ce56c4541461027c578063f851a440146102a0575b600080fd5b3480156100d557600080fd5b506100ea600160a060020a03600435166102b5565b005b3480156100f857600080fd5b5061010161041e565b60408051600160a060020a039092168252519081900360200190f35b34801561012957600080fd5b5061013261042d565b60408051602080825283518183015283519192839290830191858101910280838360005b8381101561016e578181015183820152602001610156565b505050509050019250505060405180910390f35b34801561018e57600080fd5b506100ea600160a060020a036004358116906024359060443516610490565b3480156101b957600080fd5b506100ea600160a060020a03600435166105a9565b3480156101da57600080fd5b506100ea600160a060020a036004351661069f565b3480156101fb57600080fd5b506100ea61072c565b34801561021057600080fd5b506100ea600160a060020a03600435166107b6565b34801561023157600080fd5b50610132610888565b34801561024657600080fd5b506100ea600160a060020a03600435166108e8565b34801561026757600080fd5b506100ea600160a060020a03600435166109de565b34801561028857600080fd5b506100ea600435600160a060020a0360243516610b43565b3480156102ac57600080fd5b50610101610bd8565b60008054600160a060020a031633146102cd57600080fd5b600160a060020a03821660009081526003602052604090205460ff1615156102f457600080fd5b50600160a060020a0381166000908152600360205260408120805460ff191690555b60055481101561041a5781600160a060020a031660058281548110151561033957fe5b600091825260209091200154600160a060020a031614156104125760058054600019810190811061036657fe5b60009182526020909120015460058054600160a060020a03909216918390811061038c57fe5b60009182526020909120018054600160a060020a031916600160a060020a039290921691909117905560058054906103c8906000198301610be7565b5060408051600160a060020a03841681526000602082015281517f5611bf3e417d124f97bf2c788843ea8bb502b66079fbee02158ef30b172cb762929181900390910190a161041a565b600101610316565b5050565b600154600160a060020a031681565b6060600480548060200260200160405190810160405280929190818152602001828054801561048557602002820191906000526020600020905b8154600160a060020a03168152600190910190602001808311610467575b505050505090505b90565b600054600160a060020a031633146104a757600080fd5b82600160a060020a031663a9059cbb82846040518363ffffffff167c01000000000000000000000000000000000000000000000000000000000281526004018083600160a060020a0316600160a060020a0316815260200182815260200192505050602060405180830381600087803b15801561052357600080fd5b505af1158015610537573d6000803e3d6000fd5b505050506040513d602081101561054d57600080fd5b5051151561055a57600080fd5b60408051600160a060020a0380861682526020820185905283168183015290517f72cb8a894ddb372ceec3d2a7648d86f17d5a15caae0e986c53109b8a9a9385e69181900360600190a1505050565b600054600160a060020a031633146105c057600080fd5b600160a060020a03811660009081526003602052604090205460ff16156105e657600080fd5b6005546032116105f557600080fd5b60408051600160a060020a03831681526001602082015281517f5611bf3e417d124f97bf2c788843ea8bb502b66079fbee02158ef30b172cb762929181900390910190a1600160a060020a03166000818152600360205260408120805460ff191660019081179091556005805491820181559091527f036b6384b5eca791c62761152d0c79bb0604c104a5fb6f4eb0703f3154bb3db0018054600160a060020a0319169091179055565b600054600160a060020a031633146106b657600080fd5b600160a060020a03811615156106cb57600080fd5b60015460408051600160a060020a039092168252517f3b81caf78fa51ecbc8acb482fd7012a277b428d9b80f9d156e8a54107496cc409181900360200190a160018054600160a060020a031916600160a060020a0392909216919091179055565b600154600160a060020a0316331461074357600080fd5b60015460005460408051600160a060020a03938416815292909116602083015280517f65da1cfc2c2e81576ad96afb24a581f8e109b7a403b35cbd3243a1c99efdb9ed9281900390910190a16001805460008054600160a060020a0319908116600160a060020a03841617909155169055565b600054600160a060020a031633146107cd57600080fd5b600160a060020a03811615156107e257600080fd5b60408051600160a060020a038316815290517f3b81caf78fa51ecbc8acb482fd7012a277b428d9b80f9d156e8a54107496cc409181900360200190a160005460408051600160a060020a038085168252909216602083015280517f65da1cfc2c2e81576ad96afb24a581f8e109b7a403b35cbd3243a1c99efdb9ed9281900390910190a160008054600160a060020a031916600160a060020a0392909216919091179055565b6060600580548060200260200160405190810160405280929190818152602001828054801561048557602002820191906000526020600020908154600160a060020a03168152600190910190602001808311610467575050505050905090565b600054600160a060020a031633146108ff57600080fd5b600160a060020a03811660009081526002602052604090205460ff161561092557600080fd5b60045460321161093457600080fd5b60408051600160a060020a03831681526001602082015281517f091a7a4b85135fdd7e8dbc18b12fabe5cc191ea867aa3c2e1a24a102af61d58b929181900390910190a1600160a060020a03166000818152600260205260408120805460ff191660019081179091556004805491820181559091527f8a35acfbc15ff81a39ae7d344fd709f28e8600b4aa8c65c6b64bfe7fe36bd19b018054600160a060020a0319169091179055565b60008054600160a060020a031633146109f657600080fd5b600160a060020a03821660009081526002602052604090205460ff161515610a1d57600080fd5b50600160a060020a0381166000908152600260205260408120805460ff191690555b60045481101561041a5781600160a060020a0316600482815481101515610a6257fe5b600091825260209091200154600160a060020a03161415610b3b57600480546000198101908110610a8f57fe5b60009182526020909120015460048054600160a060020a039092169183908110610ab557fe5b60009182526020909120018054600160a060020a031916600160a060020a0392909216919091179055600480546000190190610af19082610be7565b5060408051600160a060020a03841681526000602082015281517f091a7a4b85135fdd7e8dbc18b12fabe5cc191ea867aa3c2e1a24a102af61d58b929181900390910190a161041a565b600101610a3f565b600054600160a060020a03163314610b5a57600080fd5b604051600160a060020a0382169083156108fc029084906000818181858888f19350505050158015610b90573d6000803e3d6000fd5b5060408051838152600160a060020a038316602082015281517fec47e7ed86c86774d1a72c19f35c639911393fe7c1a34031fdbd260890da90de929181900390910190a15050565b600054600160a060020a031681565b815481835581811115610c0b57600083815260209020610c0b918101908301610c10565b505050565b61048d91905b80821115610c2a5760008155600101610c16565b50905600a165627a7a723058208f3d7f160f240613974fa967bc8c0d9ae548284de103e9de67c48d6e884b1e4f0029",
  "source": "pragma solidity ^0.4.24;\n\nimport \"../interfaces/ERC20.sol\";\nimport \"./PermissionGroups.sol\";\n\n\n/**\n * @title Contracts that should be able to recover tokens or ethers\n * @author Ilan Doron\n * @dev This allows to recover any tokens or Ethers received in a contract.\n * This will prevent any accidental loss of tokens.\n */\ncontract Withdrawable is PermissionGroups {\n\n    event TokenWithdraw(ERC20 token, uint amount, address sendTo);\n\n    /**\n     * @dev Withdraw all ERC20 compatible tokens\n     * @param token ERC20 The address of the token contract\n     */\n    function withdrawToken(ERC20 token, uint amount, address sendTo) external onlyAdmin {\n        require(token.transfer(sendTo, amount));\n        emit TokenWithdraw(token, amount, sendTo);\n    }\n\n    event EtherWithdraw(uint amount, address sendTo);\n\n    /**\n     * @dev Withdraw Ethers\n     */\n    function withdrawEther(uint amount, address sendTo) external onlyAdmin {\n        sendTo.transfer(amount);\n        emit EtherWithdraw(amount, sendTo);\n    }\n}\n",
  "sourcePath": "/home/peter/Documents/Work/MyBit/MyBit-Network.tech/contracts/kyber/Withdrawable.sol",
  "compiler": {
    "name": "solc",
    "version": "0.4.24+commit.e67f0147.Emscripten.clang"
  },
  "schemaVersion": "3.0.2",
  "updatedAt": "2019-03-20T20:50:44.697Z",
  "devdoc": {
    "author": "Ilan Doron",
    "methods": {
      "claimAdmin()": {
        "details": "Allows the pendingAdmin address to finalize the change admin process."
      },
      "transferAdmin(address)": {
        "details": "Allows the current admin to set the pendingAdmin address.",
        "params": {
          "newAdmin": "The address to transfer ownership to."
        }
      },
      "transferAdminQuickly(address)": {
        "details": "Allows the current admin to set the admin in one tx. Useful initial deployment.",
        "params": {
          "newAdmin": "The address to transfer ownership to."
        }
      },
      "withdrawEther(uint256,address)": {
        "details": "Withdraw Ethers"
      },
      "withdrawToken(address,uint256,address)": {
        "details": "Withdraw all ERC20 compatible tokens",
        "params": {
          "token": "ERC20 The address of the token contract"
        }
      }
    },
    "title": "Contracts that should be able to recover tokens or ethers"
  },
  "userdoc": {
    "methods": {}
  }
}