{
  "contractName": "WithdrawTest",
  "abi": [
    {
      "constant": true,
      "inputs": [
        {
          "name": "",
          "type": "address"
        }
      ],
      "name": "balances",
      "outputs": [
        {
          "name": "",
          "type": "uint256"
        }
      ],
      "payable": false,
      "stateMutability": "view",
      "type": "function"
    },
    {
      "anonymous": false,
      "inputs": [
        {
          "indexed": false,
          "name": "_receiver",
          "type": "address"
        },
        {
          "indexed": false,
          "name": "_amount",
          "type": "uint256"
        }
      ],
      "name": "LogDeposit",
      "type": "event"
    },
    {
      "anonymous": false,
      "inputs": [
        {
          "indexed": false,
          "name": "_receiver",
          "type": "address"
        },
        {
          "indexed": false,
          "name": "_amount",
          "type": "uint256"
        }
      ],
      "name": "LogWithdraw",
      "type": "event"
    },
    {
      "constant": false,
      "inputs": [],
      "name": "withdraw",
      "outputs": [
        {
          "name": "",
          "type": "bool"
        }
      ],
      "payable": false,
      "stateMutability": "nonpayable",
      "type": "function"
    },
    {
      "constant": false,
      "inputs": [
        {
          "name": "_receiver",
          "type": "address"
        }
      ],
      "name": "deposit",
      "outputs": [],
      "payable": true,
      "stateMutability": "payable",
      "type": "function"
    }
  ],
  "bytecode": "0x608060405234801561001057600080fd5b5061023a806100206000396000f3006080604052600436106100565763ffffffff7c010000000000000000000000000000000000000000000000000000000060003504166327e235e3811461005b5780633ccfd60b1461009b578063f340fa01146100c4575b600080fd5b34801561006757600080fd5b5061008973ffffffffffffffffffffffffffffffffffffffff600435166100e7565b60408051918252519081900360200190f35b3480156100a757600080fd5b506100b06100f9565b604080519115158252519081900360200190f35b6100e573ffffffffffffffffffffffffffffffffffffffff60043516610192565b005b60006020819052908152604090205481565b33600081815260208181526040808320548151948552918401919091528051919283927f4ce7033d118120e254016dccf195288400b28fc8936425acd5f17ce2df3ab708929181900390910190a15033600081815260208190526040808220805490839055905190929183156108fc02918491818181858888f19350505050158015610189573d6000803e3d6000fd5b50600191505090565b6040805173ffffffffffffffffffffffffffffffffffffffff8316815234602082015281517f1b851e1031ef35a238e6c67d0c7991162390df915f70eaf9098dbf0b175a6198929181900390910190a173ffffffffffffffffffffffffffffffffffffffff1660009081526020819052604090208054340190555600a165627a7a72305820c2ae11f67fa4755a8e9aeed4ecf45f59e840f1d2b7707f33417449561b7ee2160029",
  "source": "pragma solidity ^0.4.24;\n\ncontract WithdrawTest{\n\n  mapping(address => uint) public balances;\n\n  function withdraw()\n  external\n  returns (bool){\n    emit LogWithdraw(msg.sender, balances[msg.sender]);\n    uint amount = balances[msg.sender];\n    balances[msg.sender] = 0;\n    msg.sender.transfer(amount);\n    return true;\n  }\n\n  function deposit(address _receiver)\n  payable\n  external{\n    emit LogDeposit(_receiver, msg.value);\n    balances[_receiver] += msg.value;\n  }\n\n  event LogDeposit(address _receiver, uint _amount);\n  event LogWithdraw(address _receiver, uint _amount);\n}\n",
  "sourcePath": "/home/peter/Documents/Work/MyBit/MyBit-Network.tech/contracts/test/WithdrawTest.sol",
  "compiler": {
    "name": "solc",
    "version": "0.4.24+commit.e67f0147.Emscripten.clang"
  },
  "schemaVersion": "3.0.1",
  "updatedAt": "2019-03-13T22:36:34.967Z",
  "devdoc": {
    "methods": {}
  },
  "userdoc": {
    "methods": {}
  }
}