{
  "contractName": "WithdrawTest",
  "abi": [
    {
      "constant": true,
      "inputs": [
        {
          "name": "",
          "type": "address"
        }
      ],
      "name": "balances",
      "outputs": [
        {
          "name": "",
          "type": "uint256"
        }
      ],
      "payable": false,
      "stateMutability": "view",
      "type": "function"
    },
    {
      "anonymous": false,
      "inputs": [
        {
          "indexed": false,
          "name": "_receiver",
          "type": "address"
        },
        {
          "indexed": false,
          "name": "_amount",
          "type": "uint256"
        }
      ],
      "name": "LogDeposit",
      "type": "event"
    },
    {
      "anonymous": false,
      "inputs": [
        {
          "indexed": false,
          "name": "_receiver",
          "type": "address"
        },
        {
          "indexed": false,
          "name": "_amount",
          "type": "uint256"
        }
      ],
      "name": "LogWithdraw",
      "type": "event"
    },
    {
      "constant": false,
      "inputs": [],
      "name": "withdraw",
      "outputs": [
        {
          "name": "",
          "type": "bool"
        }
      ],
      "payable": false,
      "stateMutability": "nonpayable",
      "type": "function"
    },
    {
      "constant": false,
      "inputs": [
        {
          "name": "_receiver",
          "type": "address"
        }
      ],
      "name": "deposit",
      "outputs": [],
      "payable": true,
      "stateMutability": "payable",
      "type": "function"
    }
  ],
  "bytecode": "0x608060405234801561001057600080fd5b50610396806100206000396000f300608060405260043610610057576000357c0100000000000000000000000000000000000000000000000000000000900463ffffffff16806327e235e31461005c5780633ccfd60b146100b3578063f340fa01146100e2575b600080fd5b34801561006857600080fd5b5061009d600480360381019080803573ffffffffffffffffffffffffffffffffffffffff169060200190929190505050610118565b6040518082815260200191505060405180910390f35b3480156100bf57600080fd5b506100c8610130565b604051808215151515815260200191505060405180910390f35b610116600480360381019080803573ffffffffffffffffffffffffffffffffffffffff1690602001909291905050506102b0565b005b60006020528060005260406000206000915090505481565b6000807f4ce7033d118120e254016dccf195288400b28fc8936425acd5f17ce2df3ab708336000803373ffffffffffffffffffffffffffffffffffffffff1673ffffffffffffffffffffffffffffffffffffffff16815260200190815260200160002054604051808373ffffffffffffffffffffffffffffffffffffffff1673ffffffffffffffffffffffffffffffffffffffff1681526020018281526020019250505060405180910390a16000803373ffffffffffffffffffffffffffffffffffffffff1673ffffffffffffffffffffffffffffffffffffffff16815260200190815260200160002054905060008060003373ffffffffffffffffffffffffffffffffffffffff1673ffffffffffffffffffffffffffffffffffffffff168152602001908152602001600020819055503373ffffffffffffffffffffffffffffffffffffffff166108fc829081150290604051600060405180830381858888f193505050501580156102a7573d6000803e3d6000fd5b50600191505090565b7f1b851e1031ef35a238e6c67d0c7991162390df915f70eaf9098dbf0b175a61988134604051808373ffffffffffffffffffffffffffffffffffffffff1673ffffffffffffffffffffffffffffffffffffffff1681526020018281526020019250505060405180910390a1346000808373ffffffffffffffffffffffffffffffffffffffff1673ffffffffffffffffffffffffffffffffffffffff16815260200190815260200160002060008282540192505081905550505600a165627a7a72305820f193417181603dd4764d131019613ca324ba268faae1e29718b02d348dcdff590029",
  "source": "pragma solidity ^0.4.24;\n\ncontract WithdrawTest{\n\n  mapping(address => uint) public balances;\n\n  function withdraw()\n  external\n  returns (bool){\n    emit LogWithdraw(msg.sender, balances[msg.sender]);\n    uint amount = balances[msg.sender];\n    balances[msg.sender] = 0;\n    msg.sender.transfer(amount);\n    return true;\n  }\n\n  function deposit(address _receiver)\n  payable\n  external{\n    emit LogDeposit(_receiver, msg.value);\n    balances[_receiver] += msg.value;\n  }\n\n  event LogDeposit(address _receiver, uint _amount);\n  event LogWithdraw(address _receiver, uint _amount);\n}\n",
  "sourcePath": "/home/peter/Documents/Work/MyBit/MyBit-Network.tech/contracts/test/WithdrawTest.sol",
  "compiler": {
    "name": "solc",
    "version": "0.4.24+commit.e67f0147.Emscripten.clang"
  },
  "schemaVersion": "2.0.1",
  "updatedAt": "2018-10-11T19:26:29.606Z"
}