{
  "contractName": "Wrapper",
  "abi": [
    {
      "constant": true,
      "inputs": [
        {
          "name": "reserve",
          "type": "address"
        },
        {
          "name": "tokens",
          "type": "address[]"
        }
      ],
      "name": "getBalances",
      "outputs": [
        {
          "name": "",
          "type": "uint256[]"
        }
      ],
      "payable": false,
      "stateMutability": "view",
      "type": "function"
    },
    {
      "constant": true,
      "inputs": [
        {
          "name": "owner",
          "type": "address"
        },
        {
          "name": "spender",
          "type": "address"
        },
        {
          "name": "tokens",
          "type": "address[]"
        }
      ],
      "name": "getTokenAllowances",
      "outputs": [
        {
          "name": "",
          "type": "uint256[]"
        }
      ],
      "payable": false,
      "stateMutability": "view",
      "type": "function"
    },
    {
      "constant": true,
      "inputs": [
        {
          "name": "x",
          "type": "bytes14"
        },
        {
          "name": "byteInd",
          "type": "uint256"
        }
      ],
      "name": "getByteFromBytes14",
      "outputs": [
        {
          "name": "",
          "type": "bytes1"
        }
      ],
      "payable": false,
      "stateMutability": "pure",
      "type": "function"
    },
    {
      "constant": true,
      "inputs": [
        {
          "name": "x",
          "type": "bytes14"
        },
        {
          "name": "byteInd",
          "type": "uint256"
        }
      ],
      "name": "getInt8FromByte",
      "outputs": [
        {
          "name": "",
          "type": "int8"
        }
      ],
      "payable": false,
      "stateMutability": "pure",
      "type": "function"
    },
    {
      "constant": true,
      "inputs": [
        {
          "name": "ratesContract",
          "type": "address"
        },
        {
          "name": "tokenList",
          "type": "address[]"
        }
      ],
      "name": "getTokenRates",
      "outputs": [
        {
          "name": "",
          "type": "uint256[]"
        },
        {
          "name": "",
          "type": "uint256[]"
        },
        {
          "name": "",
          "type": "int8[]"
        },
        {
          "name": "",
          "type": "int8[]"
        },
        {
          "name": "",
          "type": "uint256[]"
        }
      ],
      "payable": false,
      "stateMutability": "view",
      "type": "function"
    },
    {
      "constant": true,
      "inputs": [
        {
          "name": "ratesContract",
          "type": "address"
        },
        {
          "name": "tokenList",
          "type": "address[]"
        }
      ],
      "name": "getTokenIndicies",
      "outputs": [
        {
          "name": "",
          "type": "uint256[]"
        },
        {
          "name": "",
          "type": "uint256[]"
        }
      ],
      "payable": false,
      "stateMutability": "view",
      "type": "function"
    },
    {
      "constant": true,
      "inputs": [
        {
          "name": "network",
          "type": "address"
        },
        {
          "name": "srcs",
          "type": "address[]"
        },
        {
          "name": "dests",
          "type": "address[]"
        },
        {
          "name": "qty",
          "type": "uint256[]"
        }
      ],
      "name": "getExpectedRates",
      "outputs": [
        {
          "name": "",
          "type": "uint256[]"
        },
        {
          "name": "",
          "type": "uint256[]"
        }
      ],
      "payable": false,
      "stateMutability": "view",
      "type": "function"
    },
    {
      "constant": true,
      "inputs": [
        {
          "name": "networkProxy",
          "type": "address"
        },
        {
          "name": "startIndex",
          "type": "uint256"
        },
        {
          "name": "endIndex",
          "type": "uint256"
        }
      ],
      "name": "getListPermissionlessTokensAndDecimals",
      "outputs": [
        {
          "name": "permissionlessTokens",
          "type": "address[]"
        },
        {
          "name": "decimals",
          "type": "uint256[]"
        },
        {
          "name": "isEnded",
          "type": "bool"
        }
      ],
      "payable": false,
      "stateMutability": "view",
      "type": "function"
    }
  ],
  "bytecode": "0x608060405234801561001057600080fd5b506117d6806100206000396000f3006080604052600436106100745763ffffffff60e060020a60003504166351be8508811461007957806367c33c80146101445780636a385ae91461018d5780637c80feff146102405780637ce8956c1461033c578063a609f034146103a7578063f1838fe41461040c578063f37f8345146104e1575b600080fd5b34801561008557600080fd5b506100a0600160a060020a03600435166024356044356106ac565b60405180806020018060200184151515158152602001838103835286818151815260200191508051906020019060200280838360005b838110156100ee5781810151838201526020016100d6565b50505050905001838103825285818151815260200191508051906020019060200280838360005b8381101561012d578181015183820152602001610115565b505050509050019550505050505060405180910390f35b34801561015057600080fd5b5061017471ffffffffffffffffffffffffffffffffffff1960043516602435610c41565b60408051600092830b90920b8252519081900360200190f35b34801561019957600080fd5b506040805160206004602480358281013584810280870186019097528086526101f0968435600160a060020a031696369660449591949091019291829185019084908082843750949750610c739650505050505050565b60408051602080825283518183015283519192839290830191858101910280838360005b8381101561022c578181015183820152602001610214565b505050509050019250505060405180910390f35b34801561024c57600080fd5b506040805160206004602480358281013584810280870186019097528086526102a3968435600160a060020a031696369660449591949091019291829185019084908082843750949750610dd69650505050505050565b604051808060200180602001838103835285818151815260200191508051906020019060200280838360005b838110156102e75781810151838201526020016102cf565b50505050905001838103825284818151815260200191508051906020019060200280838360005b8381101561032657818101518382015260200161030e565b5050505090500194505050505060405180910390f35b34801561034857600080fd5b5060408051602060046044358181013583810280860185019096528085526101f0958335600160a060020a039081169660248035909216963696956064959294930192829185019084908082843750949750610f599650505050505050565b3480156103b357600080fd5b506103d771ffffffffffffffffffffffffffffffffffff1960043516602435611071565b604080517fff000000000000000000000000000000000000000000000000000000000000009092168252519081900360200190f35b34801561041857600080fd5b506040805160206004602480358281013584810280870186019097528086526102a3968435600160a060020a031696369660449591949091019291829185019084908082843750506040805187358901803560208181028481018201909552818452989b9a998901989297509082019550935083925085019084908082843750506040805187358901803560208181028481018201909552818452989b9a99890198929750908201955093508392508501908490808284375094975061109c9650505050505050565b3480156104ed57600080fd5b50604080516020600460248035828101358481028087018601909752808652610544968435600160a060020a03169636966044959194909101929182918501908490808284375094975061124f9650505050505050565b60405180806020018060200180602001806020018060200186810386528b818151815260200191508051906020019060200280838360005b8381101561059457818101518382015260200161057c565b5050505090500186810385528a818151815260200191508051906020019060200280838360005b838110156105d35781810151838201526020016105bb565b50505050905001868103845289818151815260200191508051906020019060200280838360005b838110156106125781810151838201526020016105fa565b50505050905001868103835288818151815260200191508051906020019060200280838360005b83811015610651578181015183820152602001610639565b50505050905001868103825287818151815260200191508051906020019060200280838360005b83811015610690578181015183820152602001610678565b505050509050019a505050505050505050505060405180910390f35b6060806000806000806000806000808c600160a060020a0316634f61ff8b6040518163ffffffff1660e060020a028152600401602060405180830381600087803b1580156106f957600080fd5b505af115801561070d573d6000803e3d6000fd5b505050506040513d602081101561072357600080fd5b5051604080517fcfff25bb0000000000000000000000000000000000000000000000000000000081529051919850600160a060020a0389169163cfff25bb916004808201926020929091908290030181600087803b15801561078457600080fd5b505af1158015610798573d6000803e3d6000fd5b505050506040513d60208110156107ae57600080fd5b50519550858c1015806107c057508a8c115b156107e857604080516000808252602082019081528183019092529a50985060019750610c31565b8a8611156107f6578a6107fb565b600186035b9450600093508b92505b8483116109c15786600160a060020a0316638334278d846040518263ffffffff1660e060020a02815260040180828152602001915050602060405180830381600087803b15801561085557600080fd5b505af1158015610869573d6000803e3d6000fd5b505050506040513d602081101561087f57600080fd5b50519050600160a060020a0381161580159061092c5750600287600160a060020a031663749f95bf836040518263ffffffff1660e060020a0281526004018082600160a060020a0316600160a060020a03168152602001915050602060405180830381600087803b1580156108f357600080fd5b505af1158015610907573d6000803e3d6000fd5b505050506040513d602081101561091d57600080fd5b5051600281111561092a57fe5b145b156109b65780600160a060020a0316636c0f79b66040518163ffffffff1660e060020a02815260040160c060405180830381600087803b15801561096f57600080fd5b505af1158015610983573d6000803e3d6000fd5b505050506040513d60c081101561099957600080fd5b50602001519150600160a060020a038216156109b6576001840193505b600190920191610805565b836040519080825280602002602001820160405280156109eb578160200160208202803883390190505b50995083604051908082528060200260200182016040528015610a18578160200160208202803883390190505b509850600093508b92505b848311610c275786600160a060020a0316638334278d846040518263ffffffff1660e060020a02815260040180828152602001915050602060405180830381600087803b158015610a7357600080fd5b505af1158015610a87573d6000803e3d6000fd5b505050506040513d6020811015610a9d57600080fd5b50519050600160a060020a03811615801590610b4a5750600287600160a060020a031663749f95bf836040518263ffffffff1660e060020a0281526004018082600160a060020a0316600160a060020a03168152602001915050602060405180830381600087803b158015610b1157600080fd5b505af1158015610b25573d6000803e3d6000fd5b505050506040513d6020811015610b3b57600080fd5b50516002811115610b4857fe5b145b15610c1c5780600160a060020a0316636c0f79b66040518163ffffffff1660e060020a02815260040160c060405180830381600087803b158015610b8d57600080fd5b505af1158015610ba1573d6000803e3d6000fd5b505050506040513d60c0811015610bb757600080fd5b50602001519150600160a060020a03821615610c1c57818a85815181101515610bdc57fe5b600160a060020a03909216602092830290910190910152610bfc82611566565b8985815181101515610c0a57fe5b60209081029091010152600193909301925b600190920191610a23565b6000198601851497505b5050505050505093509350939050565b6000600d821115610c5157600080fd5b8282600e8110610c5d57fe5b1a60f860020a0260f860020a9004905092915050565b6060806000808451604051908082528060200260200182016040528015610ca4578160200160208202803883390190505b509250600091505b8451821015610dcc5750835160009073eeeeeeeeeeeeeeeeeeeeeeeeeeeeeeeeeeeeeeee90869084908110610cdd57fe5b90602001906020020151600160a060020a03161415610d075750600160a060020a03851631610da8565b8482815181101515610d1557fe5b90602001906020020151600160a060020a03166370a08231876040518263ffffffff1660e060020a0281526004018082600160a060020a0316600160a060020a03168152602001915050602060405180830381600087803b158015610d7957600080fd5b505af1158015610d8d573d6000803e3d6000fd5b505050506040513d6020811015610da357600080fd5b505190505b808383815181101515610db757fe5b60209081029091010152600190910190610cac565b5090949350505050565b60608060608060008060008060008951604051908082528060200260200182016040528015610e0f578160200160208202803883390190505b5096508951604051908082528060200260200182016040528015610e3d578160200160208202803883390190505b509550600094505b8951851015610f48578a600160a060020a031663e4a2ac628b87815181101515610e6b57fe5b906020019060200201516040518263ffffffff1660e060020a0281526004018082600160a060020a0316600160a060020a03168152602001915050608060405180830381600087803b158015610ec057600080fd5b505af1158015610ed4573d6000803e3d6000fd5b505050506040513d6080811015610eea57600080fd5b508051602082015160408301516060909301518a519297509095509193509091508490889087908110610f1957fe5b6020908102909101015285518390879087908110610f3357fe5b60209081029091010152600190940193610e45565b509499939850929650505050505050565b60608060008351604051908082528060200260200182016040528015610f89578160200160208202803883390190505b509150600090505b8351811015611068578381815181101515610fa857fe5b6020908102909101810151604080517fdd62ed3e000000000000000000000000000000000000000000000000000000008152600160a060020a038a8116600483015289811660248301529151919092169263dd62ed3e92604480820193918290030181600087803b15801561101c57600080fd5b505af1158015611030573d6000803e3d6000fd5b505050506040513d602081101561104657600080fd5b5051825183908390811061105657fe5b60209081029091010152600101610f91565b50949350505050565b6000600d82111561108157600080fd5b8282600e811061108d57fe5b1a60f860020a02905092915050565b6060806060806000865188511415156110b457600080fd5b85518851146110c257600080fd5b87516040519080825280602002602001820160405280156110ed578160200160208202803883390190505b509250875160405190808252806020026020018201604052801561111b578160200160208202803883390190505b509150600090505b87518110156112415788600160a060020a031663809a9e55898381518110151561114957fe5b90602001906020020151898481518110151561116157fe5b90602001906020020151898581518110151561117957fe5b602090810290910101516040805160e060020a63ffffffff8716028152600160a060020a03948516600482015292909316602483015260448201528151606480830193928290030181600087803b1580156111d357600080fd5b505af11580156111e7573d6000803e3d6000fd5b505050506040513d60408110156111fd57600080fd5b508051602090910151845185908490811061121457fe5b906020019060200201848481518110151561122b57fe5b6020908102909101019190915252600101611123565b509097909650945050505050565b60608060608060608060608060608060008b5160405190808252806020026020018201604052801561128b578160200160208202803883390190505b5095508b516040519080825280602002602001820160405280156112b9578160200160208202803883390190505b5094508b516040519080825280602002602001820160405280156112e7578160200160208202803883390190505b5093508b51604051908082528060200260200182016040528015611315578160200160208202803883390190505b5092508b51604051908082528060200260200182016040528015611343578160200160208202803883390190505b509150600090505b8b51811015611552578c600160a060020a031663cf8fee118d8381518110151561137157fe5b60209081029091018101516040805160e060020a63ffffffff8616028152600160a060020a0390921660048301526001602483015251604480830193928290030181600087803b1580156113c457600080fd5b505af11580156113d8573d6000803e3d6000fd5b505050506040513d60208110156113ee57600080fd5b505186518790839081106113fe57fe5b602090810290910101528b51600160a060020a038e169063cf8fee11908e908490811061142757fe5b9060200190602002015160006040518363ffffffff1660e060020a0281526004018083600160a060020a0316600160a060020a031681526020018215151515815260200192505050602060405180830381600087803b15801561148957600080fd5b505af115801561149d573d6000803e3d6000fd5b505050506040513d60208110156114b357600080fd5b505185518690839081106114c357fe5b602090810290910101528b516114f0908e908e90849081106114e157fe5b90602001906020020151611636565b86848151811015156114fe57fe5b906020019060200201868581518110151561151557fe5b906020019060200201868681518110151561152c57fe5b60209081029091010192909252600092830b830b90915291810b900b905260010161134b565b50939b929a50909850965090945092505050565b600080600160a060020a03831673eeeeeeeeeeeeeeeeeeeeeeeeeeeeeeeeeeeeeeee14156115975760129150611630565b50600160a060020a03821660009081526020819052604090205480151561162c5782600160a060020a031663313ce5676040518163ffffffff1660e060020a028152600401602060405180830381600087803b1580156115f657600080fd5b505af115801561160a573d6000803e3d6000fd5b505050506040513d602081101561162057600080fd5b505160ff169150611630565b8091505b50919050565b60008060008060008060008089600160a060020a031663e4a2ac628a6040518263ffffffff1660e060020a0281526004018082600160a060020a0316600160a060020a03168152602001915050608060405180830381600087803b15801561169d57600080fd5b505af11580156116b1573d6000803e3d6000fd5b505050506040513d60808110156116c757600080fd5b81019080805190602001909291908051906020019092919080519060200190929190805190602001909291905050508095508196508297508398505050505089600160a060020a0316638036d7578a6040518263ffffffff1660e060020a0281526004018082600160a060020a0316600160a060020a03168152602001915050602060405180830381600087803b15801561176157600080fd5b505af1158015611775573d6000803e3d6000fd5b505050506040513d602081101561178b57600080fd5b505160f860020a938490049b93909204995090975090955050505050505600a165627a7a7230582006ab9d27b734bfa743910bee5f9fff83ed24e92c178fb93366026a820a9057d20029",
  "source": "pragma solidity ^0.4.24;\n\nimport \"../interfaces/ERC20.sol\";\nimport \"./KyberReserve.sol\";\nimport \"./KyberNetwork.sol\";\nimport \"./Utils.sol\";\nimport \"./ConversionRates.sol\";\nimport \"./KyberNetworkProxy.sol\";\nimport \"./OrderbookReserve.sol\";\n\ncontract Wrapper is Utils {\n\n    function getBalances(address reserve, ERC20[] tokens) public view returns(uint[]) {\n        uint[] memory result = new uint[](tokens.length);\n        for (uint i = 0; i < tokens.length; i++) {\n            uint balance = 0;\n            if (tokens[i] == ETH_TOKEN_ADDRESS) {\n                balance = reserve.balance;\n            } else {\n                balance = tokens[i].balanceOf(reserve);\n            }\n\n            result[i] = balance;\n        }\n\n        return result;\n    }\n\n    function getTokenAllowances(address owner, address spender, ERC20[] tokens) public view returns(uint[]) {\n        uint[] memory result = new uint[](tokens.length);\n        for (uint i = 0; i < tokens.length; i++) {\n            result[i] = tokens[i].allowance(owner, spender);\n        }\n        return result;\n    }\n\n    function getByteFromBytes14(bytes14 x, uint byteInd) public pure returns(byte) {\n        require(byteInd <= 13);\n        return x[byteInd];\n    }\n\n    function getInt8FromByte(bytes14 x, uint byteInd) public pure returns(int8) {\n        require(byteInd <= 13);\n        return int8(x[byteInd]);\n    }\n\n//    struct TokenRatesCompactData {\n//        bytes14 buy;  // change buy rate of token from baseBuyRate in 10 bps\n//        bytes14 sell; // change sell rate of token from baseSellRate in 10 bps\n//\n//        uint32 blockNumber;\n//    }\n//\n//    function getDataFromCompact(TokenRatesCompactData compact, uint byteInd) public pure\n//        returns(int8 buyByte, int8 sellByte, uint blockNumber)\n//    {\n//        blockNumber = uint(compact.blockNumber);\n////        return (compact.buy[byteInd], compact.sell[byteInd], uint(compact.blockNumber));\n//    }\n\n    function getCompactData(ConversionRates ratesContract, ERC20 token) internal view returns(int8,int8,uint) {\n        uint bulkIndex; uint index; byte buy; byte sell; uint updateBlock;\n        (bulkIndex, index, buy, sell) = ratesContract.getCompactData(token);\n        updateBlock = ratesContract.getRateUpdateBlock(token);\n\n        return (int8(buy), int8(sell), updateBlock);\n    }\n\n    function getTokenRates(ConversionRates ratesContract, ERC20[] tokenList)\n        public view\n        returns(uint[], uint[], int8[], int8[], uint[])\n    {\n        uint[] memory buyBases = new uint[](tokenList.length);\n        uint[] memory sellBases = new uint[](tokenList.length);\n        int8[] memory compactBuy = new int8[](tokenList.length);\n        int8[] memory compactSell = new int8[](tokenList.length);\n        uint[] memory updateBlock = new uint[](tokenList.length);\n\n        for (uint i = 0;  i < tokenList.length; i++) {\n            buyBases[i] = ratesContract.getBasicRate(tokenList[i], true);\n            sellBases[i] = ratesContract.getBasicRate(tokenList[i], false);\n\n            (compactBuy[i], compactSell[i], updateBlock[i]) = getCompactData(ratesContract, tokenList[i]);\n        }\n\n        return (buyBases, sellBases, compactBuy, compactSell, updateBlock);\n    }\n\n    function getTokenIndicies(ConversionRates ratesContract, ERC20[] tokenList) public view returns(uint[], uint[]) {\n        uint[] memory bulkIndices = new uint[](tokenList.length);\n        uint[] memory tokenIndexInBulk = new uint[](tokenList.length);\n\n        for (uint i = 0; i < tokenList.length; i++) {\n            uint bulkIndex; uint index; byte buy; byte sell;\n            (bulkIndex, index, buy, sell) = ratesContract.getCompactData(tokenList[i]);\n\n            bulkIndices[i] = bulkIndex;\n            tokenIndexInBulk[i] = index;\n        }\n\n        return (bulkIndices,tokenIndexInBulk);\n    }\n\n\n    function getExpectedRates( KyberNetwork network, ERC20[] srcs, ERC20[] dests, uint[] qty )\n        public view returns(uint[], uint[])\n    {\n        require( srcs.length == dests.length );\n        require( srcs.length == qty.length );\n\n        uint[] memory rates = new uint[](srcs.length);\n        uint[] memory slippage = new uint[](srcs.length);\n        for ( uint i = 0; i < srcs.length; i++ ) {\n            (rates[i],slippage[i]) = network.getExpectedRate(srcs[i],dests[i],qty[i]);\n        }\n\n        return (rates, slippage);\n    }\n\n    // iterate from startIndex to endIndex inclusive\n    function getListPermissionlessTokensAndDecimals(\n      KyberNetworkProxy networkProxy,\n      uint startIndex,\n      uint endIndex\n    )\n      public\n      view\n      returns (ERC20[] memory permissionlessTokens, uint[] memory decimals, bool isEnded)\n    {\n        KyberNetwork network = KyberNetwork(networkProxy.kyberNetworkContract());\n        uint numReserves = network.getNumReserves();\n        if (startIndex >= numReserves || startIndex > endIndex) {\n            // no need to iterate\n            permissionlessTokens = new ERC20[](0);\n            decimals = new uint[](0);\n            isEnded = true;\n            return (permissionlessTokens, decimals, isEnded);\n        }\n        uint endIterator = numReserves <= endIndex ? numReserves - 1 : endIndex;\n        uint numberTokens = 0;\n        uint rID; // reserveID\n        ERC20 token;\n        KyberReserveInterface reserve;\n        // count number of tokens in unofficial reserves\n        for(rID = startIndex; rID <= endIterator; rID++) {\n            reserve = network.reserves(rID);\n            if ( reserve != address(0)\n              && network.reserveType(reserve) == KyberNetwork.ReserveType.PERMISSIONLESS)\n            {\n                // permissionless reserve\n                (, token , , , ,) = OrderbookReserve(reserve).contracts();\n                if (token != address(0)) { numberTokens += 1; }\n            }\n        }\n        permissionlessTokens = new ERC20[](numberTokens);\n        decimals = new uint[](numberTokens);\n        numberTokens = 0;\n        // get final list of tokens and decimals in unofficial reserves\n        for(rID = startIndex; rID <= endIterator; rID++) {\n            reserve = network.reserves(rID);\n            if ( reserve != address(0)\n              && network.reserveType(reserve) == KyberNetwork.ReserveType.PERMISSIONLESS)\n            {\n                // permissionless reserve\n                (, token , , , ,) = OrderbookReserve(reserve).contracts();\n                if (token != address(0)) {\n                    permissionlessTokens[numberTokens] = token;\n                    decimals[numberTokens] = getDecimals(token);\n                    numberTokens += 1;\n                }\n            }\n        }\n        isEnded = endIterator == numReserves - 1;\n        return (permissionlessTokens, decimals, isEnded);\n    }\n}\n",
  "sourcePath": "/home/peter/Documents/Work/MyBit/MyBit-Network.tech/contracts/kyber/Wrapper.sol",
  "compiler": {
    "name": "solc",
    "version": "0.4.24+commit.e67f0147.Emscripten.clang"
  },
  "schemaVersion": "3.0.2",
  "updatedAt": "2019-04-08T19:44:50.489Z",
  "devdoc": {
    "methods": {}
  },
  "userdoc": {
    "methods": {}
  }
}